{
  "abi": [
    {
      "type": "constructor",
      "inputs": [],
      "stateMutability": "nonpayable"
    },
    {
      "type": "function",
      "name": "getContract",
      "inputs": [
        {
          "name": "contractType",
          "type": "uint8",
          "internalType": "enum ContractType"
        }
      ],
      "outputs": [
        {
          "name": "contract_",
          "type": "address",
          "internalType": "address payable"
        }
      ],
      "stateMutability": "view"
    },
    {
      "type": "function",
      "name": "getManyFinalityScores",
      "inputs": [
        {
          "name": "epoch",
          "type": "uint256",
          "internalType": "uint256"
        },
        {
          "name": "consensuses",
          "type": "address[]",
          "internalType": "TConsensus[]"
        }
      ],
      "outputs": [
        {
          "name": "scores",
          "type": "uint256[]",
          "internalType": "uint256[]"
        }
      ],
      "stateMutability": "view"
    },
    {
      "type": "function",
      "name": "getManyFinalityScoresById",
      "inputs": [
        {
          "name": "epoch",
          "type": "uint256",
          "internalType": "uint256"
        },
        {
          "name": "cids",
          "type": "address[]",
          "internalType": "address[]"
        }
      ],
      "outputs": [
        {
          "name": "scores",
          "type": "uint256[]",
          "internalType": "uint256[]"
        }
      ],
      "stateMutability": "view"
    },
    {
      "type": "function",
      "name": "getManyFinalityVoteCounts",
      "inputs": [
        {
          "name": "epoch",
          "type": "uint256",
          "internalType": "uint256"
        },
        {
          "name": "addrs",
          "type": "address[]",
          "internalType": "TConsensus[]"
        }
      ],
      "outputs": [
        {
          "name": "voteCounts",
          "type": "uint256[]",
          "internalType": "uint256[]"
        }
      ],
      "stateMutability": "view"
    },
    {
      "type": "function",
      "name": "getManyFinalityVoteCountsById",
      "inputs": [
        {
          "name": "epoch",
          "type": "uint256",
          "internalType": "uint256"
        },
        {
          "name": "cids",
          "type": "address[]",
          "internalType": "address[]"
        }
      ],
      "outputs": [
        {
          "name": "voteCounts",
          "type": "uint256[]",
          "internalType": "uint256[]"
        }
      ],
      "stateMutability": "view"
    },
    {
      "type": "function",
      "name": "getNormalizedStake",
      "inputs": [
        {
          "name": "period",
          "type": "uint256",
          "internalType": "uint256"
        },
        {
          "name": "cid",
          "type": "address",
          "internalType": "address"
        }
      ],
      "outputs": [
        {
          "name": "normalizedStake",
          "type": "uint256",
          "internalType": "uint256"
        }
      ],
      "stateMutability": "view"
    },
    {
      "type": "function",
      "name": "getNormalizedSum",
      "inputs": [
        {
          "name": "period",
          "type": "uint256",
          "internalType": "uint256"
        }
      ],
      "outputs": [
        {
          "name": "normalizedSum",
          "type": "uint256",
          "internalType": "uint256"
        }
      ],
      "stateMutability": "view"
    },
    {
      "type": "function",
      "name": "initialize",
      "inputs": [
        {
          "name": "validatorContract",
          "type": "address",
          "internalType": "address"
        }
      ],
      "outputs": [],
      "stateMutability": "nonpayable"
    },
    {
      "type": "function",
      "name": "initializeV2",
      "inputs": [
        {
          "name": "profileContract",
          "type": "address",
          "internalType": "address"
        }
      ],
      "outputs": [],
      "stateMutability": "nonpayable"
    },
    {
      "type": "function",
      "name": "initializeV3",
      "inputs": [
        {
          "name": "stakingContract",
          "type": "address",
          "internalType": "address"
        }
      ],
      "outputs": [],
      "stateMutability": "nonpayable"
    },
    {
      "type": "function",
      "name": "latestTrackingBlock",
      "inputs": [],
      "outputs": [
        {
          "name": "",
          "type": "uint256",
          "internalType": "uint256"
        }
      ],
      "stateMutability": "view"
    },
    {
      "type": "function",
      "name": "recordFinality",
      "inputs": [
        {
          "name": "voters",
          "type": "address[]",
          "internalType": "TConsensus[]"
        }
      ],
      "outputs": [],
      "stateMutability": "nonpayable"
    },
    {
      "type": "function",
      "name": "setContract",
      "inputs": [
        {
          "name": "contractType",
          "type": "uint8",
          "internalType": "enum ContractType"
        },
        {
          "name": "addr",
          "type": "address",
          "internalType": "address"
        }
      ],
      "outputs": [],
      "stateMutability": "nonpayable"
    },
    {
      "type": "event",
      "name": "ContractUpdated",
      "inputs": [
        {
          "name": "contractType",
          "type": "uint8",
          "indexed": true,
          "internalType": "enum ContractType"
        },
        {
          "name": "addr",
          "type": "address",
          "indexed": true,
          "internalType": "address"
        }
      ],
      "anonymous": false
    },
    {
      "type": "event",
      "name": "Initialized",
      "inputs": [
        {
          "name": "version",
          "type": "uint8",
          "indexed": false,
          "internalType": "uint8"
        }
      ],
      "anonymous": false
    },
    {
      "type": "error",
      "name": "ErrCallerMustBeCoinbase",
      "inputs": []
    },
    {
      "type": "error",
      "name": "ErrContractTypeNotFound",
      "inputs": [
        {
          "name": "contractType",
          "type": "uint8",
          "internalType": "enum ContractType"
        }
      ]
    },
    {
      "type": "error",
      "name": "ErrLengthMismatch",
      "inputs": []
    },
    {
      "type": "error",
      "name": "ErrOncePerBlock",
      "inputs": []
    },
    {
      "type": "error",
      "name": "ErrUnauthorized",
      "inputs": [
        {
          "name": "msgSig",
          "type": "bytes4",
          "internalType": "bytes4"
        },
        {
          "name": "expectedRole",
          "type": "uint8",
          "internalType": "enum RoleAccess"
        }
      ]
    },
    {
      "type": "error",
      "name": "ErrZeroCodeContract",
      "inputs": [
        {
          "name": "addr",
          "type": "address",
          "internalType": "address"
        }
      ]
    }
  ],
  "absolutePath": "FastFinalityTracking.sol",
  "address": "0xE7bA9de0fc9778610A3E0608618D26e018AB83FF",
  "blockNumber": 36025847,
  "bytecode": "0x6080604052348015600f57600080fd5b506016601a565b60d8565b600054610100900460ff161560855760405162461bcd60e51b815260206004820152602760248201527f496e697469616c697a61626c653a20636f6e747261637420697320696e697469604482015266616c697a696e6760c81b606482015260840160405180910390fd5b60005460ff908116101560d6576000805460ff191660ff9081179091556040519081527f7f26b83ff96e1f2b6a682f133852f6798a09c465da95921460cefb38474024989060200160405180910390a15b565b61194d806100e76000396000f3fe608060405234801561001057600080fd5b50600436106100df5760003560e01c80634e3094d41161008c578063c245db0f11610066578063c245db0f146101dd578063c4d66de8146101f0578063de981f1b14610203578063e4ed117e1461022e57600080fd5b80634e3094d4146101af578063865e6fd3146101b7578063be3f21fb146101ca57600080fd5b80633ab0b908116100bd5780633ab0b9081461013557806343421e9f14610163578063468d24be1461019c57600080fd5b806329b6eca9146100e45780633101cfcb146100f95780633a205da01461010c575b600080fd5b6100f76100f236600461137d565b610241565b005b6100f761010736600461137d565b610330565b61011f61011a366004611405565b6103d4565b60405161012c91906114b0565b60405180910390f35b6101556101433660046114f4565b60009081526003602052604090205490565b60405190815260200161012c565b61015561017136600461150d565b60009182526003602090815260408084206001600160a01b0390931684526001909201905290205490565b61011f6101aa366004611589565b6104a5565b600254610155565b6100f76101c53660046115e4565b6104fa565b61011f6101d8366004611405565b610519565b6100f76101eb366004611610565b6105ee565b6100f76101fe36600461137d565b61083a565b610216610211366004611652565b610947565b6040516001600160a01b03909116815260200161012c565b61011f61023c366004611589565b6109db565b600054600290610100900460ff16158015610263575060005460ff8083169116105b6102cb5760405162461bcd60e51b815260206004820152602e60248201527f496e697469616c697a61626c653a20636f6e747261637420697320616c72656160448201526d191e481a5b9a5d1a585b1a5e995960921b60648201526084015b60405180910390fd5b6000805461ffff191660ff8316176101001790556102ea600f83610a27565b6000805461ff001916905560405160ff821681527f7f26b83ff96e1f2b6a682f133852f6798a09c465da95921460cefb3847402498906020015b60405180910390a15050565b600054600390610100900460ff16158015610352575060005460ff8083169116105b6103b55760405162461bcd60e51b815260206004820152602e60248201527f496e697469616c697a61626c653a20636f6e747261637420697320616c72656160448201526d191e481a5b9a5d1a585b1a5e995960921b60648201526084016102c2565b6000805461ffff191660ff8316176101001790556102ea600983610a27565b80516060908067ffffffffffffffff8111156103f2576103f261139a565b60405190808252806020026020018201604052801561041b578160200160208202803683370190505b5060008581526001602052604081209193505b8281101561049c5781600086838151811061044b5761044b61166d565b60200260200101516001600160a01b03166001600160a01b03168152602001908152602001600020600101548482815181106104895761048961166d565b602090810291909101015260010161042e565b50505092915050565b606060006104e5848480806020026020016040519081016040528093929190818152602001838360200280828437600092019190915250610ae392505050565b90506104f18582610519565b95945050505050565b610502610b65565b61050b81610bf3565b6105158282610a27565b5050565b80516060908067ffffffffffffffff8111156105375761053761139a565b604051908082528060200260200182016040528015610560578160200160208202803683370190505b50915060005b818110156105e6576001600086815260200190815260200160002060008583815181106105955761059561166d565b60200260200101516001600160a01b03166001600160a01b03168152602001908152602001600020600001548382815181106105d3576105d361166d565b6020908102919091010152600101610566565b505092915050565b6002544311610629576040517f6907b55f00000000000000000000000000000000000000000000000000000000815260040160405180910390fd5b43600255334114610666576040517f09f358fd00000000000000000000000000000000000000000000000000000000815260040160405180910390fd5b60006106a4838380806020026020016040519081016040528093929190818152602001838360200280828437600092019190915250610ae392505050565b905060006106b26009610947565b905060006106c06008610947565b90506000806106d0848487610c45565b9150915060006106df82610f6a565b6040517fa3d545f5000000000000000000000000000000000000000000000000000000008152436004820152670de0b6b3a764000094859004949091049150600090889082906001600160a01b0388169063a3d545f590602401602060405180830381865afa158015610756573d6000803e3d6000fd5b505050506040513d601f19601f8201168201806040525081019061077a9190611699565b905060005b8281101561082c576001600083815260200190815260200160002060008b83815181106107ae576107ae61166d565b60200260200101516001600160a01b03166001600160a01b031681526020019081526020016000209350836000016000815460010191905081905550868702858783815181106108005761080061166d565b6020026020010151028161081657610816611683565b600186810180549390920490920190550161077f565b505050505050505050505050565b600054610100900460ff161580801561085a5750600054600160ff909116105b806108745750303b158015610874575060005460ff166001145b6108d75760405162461bcd60e51b815260206004820152602e60248201527f496e697469616c697a61626c653a20636f6e747261637420697320616c72656160448201526d191e481a5b9a5d1a585b1a5e995960921b60648201526084016102c2565b6000805460ff1916600117905580156108fa576000805461ff0019166101001790555b610905600883610a27565b8015610515576000805461ff0019169055604051600181527f7f26b83ff96e1f2b6a682f133852f6798a09c465da95921460cefb384740249890602001610324565b60007fdea3103d22025c269050bea94c0c84688877f12fa22b7e6d2d5d78a9a49aa1cb600083601081111561097e5761097e6116b2565b60ff1681526020810191909152604001600020546001600160a01b03169050806109d657816040517f812281be0000000000000000000000000000000000000000000000000000000081526004016102c291906116c8565b919050565b60606000610a1b848480806020026020016040519081016040528093929190818152602001838360200280828437600092019190915250610ae392505050565b90506104f185826103d4565b807fdea3103d22025c269050bea94c0c84688877f12fa22b7e6d2d5d78a9a49aa1cb6000846010811115610a5d57610a5d6116b2565b60ff168152602081019190915260400160002080547fffffffffffffffffffffffff0000000000000000000000000000000000000000166001600160a01b039283161790558116826010811115610ab657610ab66116b2565b6040517f865d1c228a8ea13709cfe61f346f7ff67f1bbd4a18ff31ad3e7147350d317c5990600090a35050565b6060610aef600f610947565b6001600160a01b031663f9226b1a836040518263ffffffff1660e01b8152600401610b1a91906116e2565b600060405180830381865afa158015610b37573d6000803e3d6000fd5b505050506040513d6000823e601f3d908101601f19168201604052610b5f9190810190611723565b92915050565b7fb53127684a568b3173ae13b9f8a6016e243e63b6e8ee1178d6a717850b5d6103546001600160a01b03163314610bf1576000357fffffffff000000000000000000000000000000000000000000000000000000001660016040517f3e523c000000000000000000000000000000000000000000000000000000000081526004016102c29291906117bd565b565b806001600160a01b03163b600003610c42576040517f2ff1928c0000000000000000000000000000000000000000000000000000000081526001600160a01b03821660048201526024016102c2565b50565b600060606000846001600160a01b031663060406186040518163ffffffff1660e01b8152600401602060405180830381865afa158015610c89573d6000803e3d6000fd5b505050506040513d601f19601f82011682018060405250810190610cad9190611699565b84519091508067ffffffffffffffff811115610ccb57610ccb61139a565b604051908082528060200260200182016040528015610cf4578160200160208202803683370190505b5060008381526003602052604081208054929550919003610ee8576000876001600160a01b031663c4e227f36040518163ffffffff1660e01b8152600401600060405180830381865afa158015610d4f573d6000803e3d6000fd5b505050506040513d6000823e601f3d908101601f19168201604052610d779190810190611723565b90506000896001600160a01b0316635a2ac073836040518263ffffffff1660e01b8152600401610da791906116e2565b600060405180830381865afa158015610dc4573d6000803e3d6000fd5b505050506040513d6000823e601f3d908101601f19168201604052610dec9190810190611803565b90506000610e5c83838c6001600160a01b031663d09f1ab46040518163ffffffff1660e01b8152600401602060405180830381865afa158015610e33573d6000803e3d6000fd5b505050506040513d601f19601f82011682018060405250810190610e579190611699565b610f9a565b90985090506000610e6e83828461107c565b905060005b8451811015610eda57818181518110610e8e57610e8e61166d565b6020026020010151866001016000878481518110610eae57610eae61166d565b6020908102919091018101516001600160a01b0316825281019190915260400160002055600101610e73565b50505086835550610eed9050565b805494505b60005b82811015610f5e57816001016000888381518110610f1057610f1061166d565b60200260200101516001600160a01b03166001600160a01b0316815260200190815260200160002054858281518110610f4b57610f4b61166d565b6020908102919091010152600101610ef0565b50505050935093915050565b60008151602083016020820281015b80821015610f9257815184019350602082019150610f79565b505050919050565b600080610fa8845184611120565b9250610fb48585611138565b50600080600080610fc488610f6a565b9550610fd0878761189f565b94505b80610f5e575060015b84888481518110610fef57610fef61166d565b60200260200101511115611038578783611008816118c1565b94508151811061101a5761101a61166d565b60200260200101518461102d91906118da565b935060009050610fdc565b80610f5e5761104784876118ed565b915061105383886118ed565b61105d908361189f565b94506110698386611900565b935061107584836118da565b9550610fd3565b825160609060005b81811015611116578486828151811061109f5761109f61166d565b602002602001015110156110cd57848682815181106110c0576110c061166d565b6020026020010181815250505b838682815181106110e0576110e061166d565b6020026020010151111561110e57838682815181106111015761110161166d565b6020026020010181815250505b600101611084565b5093949350505050565b600081831061112f5781611131565b825b9392505050565b6060611131611147848461114a565b90565b8151815160609190811461118a576040517fab3a7f9900000000000000000000000000000000000000000000000000000000815260040160405180910390fd5b60018111156111a3576111a384846000600185036111ab565b509192915050565b81811461136257825182908290600090869083850160011c9081106111d2576111d261166d565b602002602001015190505b818313611336575b8583815181106111f7576111f761166d565b6020026020010151811015611211578260010192506111e5565b808683815181106112245761122461166d565b6020026020010151101561123e5760001990910190611211565b818313611331578682815181106112575761125761166d565b60200260200101518784815181106112715761127161166d565b602002602001015188858151811061128b5761128b61166d565b602002602001018985815181106112a4576112a461166d565b60200260200101828152508281525050508582815181106112c7576112c761166d565b60200260200101518684815181106112e1576112e161166d565b60200260200101518785815181106112fb576112fb61166d565b602002602001018885815181106113145761131461166d565b602090810291909101019190915252600190920191600019909101905b6111dd565b8185121561134a5761134a878787856111ab565b8383121561135e5761135e878785876111ab565b5050505b50505050565b6001600160a01b0381168114610c4257600080fd5b60006020828403121561138f57600080fd5b813561113181611368565b634e487b7160e01b600052604160045260246000fd5b604051601f8201601f1916810167ffffffffffffffff811182821017156113d9576113d961139a565b604052919050565b600067ffffffffffffffff8211156113fb576113fb61139a565b5060051b60200190565b6000806040838503121561141857600080fd5b8235915060208084013567ffffffffffffffff81111561143757600080fd5b8401601f8101861361144857600080fd5b803561145b611456826113e1565b6113b0565b81815260059190911b8201830190838101908883111561147a57600080fd5b928401925b828410156114a157833561149281611368565b8252928401929084019061147f565b80955050505050509250929050565b6020808252825182820181905260009190848201906040850190845b818110156114e8578351835292840192918401916001016114cc565b50909695505050505050565b60006020828403121561150657600080fd5b5035919050565b6000806040838503121561152057600080fd5b82359150602083013561153281611368565b809150509250929050565b60008083601f84011261154f57600080fd5b50813567ffffffffffffffff81111561156757600080fd5b6020830191508360208260051b850101111561158257600080fd5b9250929050565b60008060006040848603121561159e57600080fd5b83359250602084013567ffffffffffffffff8111156115bc57600080fd5b6115c88682870161153d565b9497909650939450505050565b8035601181106109d657600080fd5b600080604083850312156115f757600080fd5b611600836115d5565b9150602083013561153281611368565b6000806020838503121561162357600080fd5b823567ffffffffffffffff81111561163a57600080fd5b6116468582860161153d565b90969095509350505050565b60006020828403121561166457600080fd5b611131826115d5565b634e487b7160e01b600052603260045260246000fd5b634e487b7160e01b600052601260045260246000fd5b6000602082840312156116ab57600080fd5b5051919050565b634e487b7160e01b600052602160045260246000fd5b60208101601183106116dc576116dc6116b2565b91905290565b6020808252825182820181905260009190848201906040850190845b818110156114e85783516001600160a01b0316835292840192918401916001016116fe565b6000602080838503121561173657600080fd5b825167ffffffffffffffff81111561174d57600080fd5b8301601f8101851361175e57600080fd5b805161176c611456826113e1565b81815260059190911b8201830190838101908783111561178b57600080fd5b928401925b828410156117b25783516117a381611368565b82529284019290840190611790565b979650505050505050565b7fffffffff000000000000000000000000000000000000000000000000000000008316815260408101600b83106117f6576117f66116b2565b8260208301529392505050565b6000602080838503121561181657600080fd5b825167ffffffffffffffff81111561182d57600080fd5b8301601f8101851361183e57600080fd5b805161184c611456826113e1565b81815260059190911b8201830190838101908783111561186b57600080fd5b928401925b828410156117b257835182529284019290840190611870565b634e487b7160e01b600052601160045260246000fd5b6000826118bc57634e487b7160e01b600052601260045260246000fd5b500490565b6000600182016118d3576118d3611889565b5060010190565b80820180821115610b5f57610b5f611889565b81810381811115610b5f57610b5f611889565b8082028115828204841417610b5f57610b5f61188956fea2646970667358221220dbd21ea00f2473684300e33666987345f37f661e6e2b80bfef2cc482b11e3ac364736f6c63430008190033",
  "callValue": 0,
  "chainId": 2020,
  "constructorArgs": "0x",
  "contractName": "FastFinalityTracking",
  "deployer": "0x08295771719b138a241F45023B13CC868D72827D",
  "devdoc": {
    "version": 1,
    "kind": "dev",
    "methods": {
      "getContract(uint8)": {
        "details": "Returns the address of a contract with a specific role. Throws an error if no contract is set for the specified role.",
        "params": {
          "contractType": "The role of the contract to retrieve."
        },
        "returns": {
          "contract_": "The address of the contract with the specified role."
        }
      },
      "getManyFinalityScores(uint256,address[])": {
        "details": "Returns vote count of `consensuses` in the `epoch`."
      },
      "getManyFinalityScoresById(uint256,address[])": {
        "details": "Returns vote count of `addrs` in the `epoch`."
      },
      "getManyFinalityVoteCounts(uint256,address[])": {
        "details": "Returns vote count of `addrs` in the `epoch`."
      },
      "getManyFinalityVoteCountsById(uint256,address[])": {
        "details": "Returns vote count of `cids` in the `epoch`."
      },
      "getNormalizedStake(uint256,address)": {
        "details": "Returns normalized stake of `cid` in the `period`."
      },
      "getNormalizedSum(uint256)": {
        "details": "Returns normalized data for given period."
      },
      "latestTrackingBlock()": {
        "details": "Getter of `_latestTrackingBlock`"
      },
      "recordFinality(address[])": {
        "details": "Submit list of `voters` who vote for fast finality in the current block. Requirements: - Only called once per block - Only coinbase can call this method"
      },
      "setContract(uint8,address)": {
        "details": "Sets the address of a contract with a specific role. Emits the event {ContractUpdated}.",
        "params": {
          "addr": "The address of the contract to set.",
          "contractType": "The role of the contract to set."
        }
      }
    },
    "events": {
      "ContractUpdated(uint8,address)": {
        "details": "Emitted when a contract is updated."
      },
      "Initialized(uint8)": {
        "details": "Triggered when the contract has been initialized or reinitialized."
      }
    },
    "errors": {
      "ErrCallerMustBeCoinbase()": [
        {
          "details": "Error of method caller must be coinbase"
        }
      ],
      "ErrContractTypeNotFound(uint8)": [
        {
          "details": "Error of invalid role."
        }
      ],
      "ErrLengthMismatch()": [
        {
          "details": "Error indicating a length mismatch between two arrays."
        }
      ],
      "ErrOncePerBlock()": [
        {
          "details": "Error indicating that the method is only called once per block."
        }
      ],
      "ErrUnauthorized(bytes4,uint8)": [
        {
          "details": "Error indicating that the caller is unauthorized to perform a specific function.",
          "params": {
            "expectedRole": "The role required to perform the function.",
            "msgSig": "The function signature (bytes4) that the caller is unauthorized to perform."
          }
        }
      ],
      "ErrZeroCodeContract(address)": [
        {
          "details": "Error of set to non-contract."
        }
      ]
    }
  },
  "isFoundry": true,
  "nonce": 30,
  "storageLayout": {
    "storage": [
      {
        "astId": 94753,
        "contract": "contracts/ronin/fast-finality/FastFinalityTracking.sol:FastFinalityTracking",
        "label": "_initialized",
        "offset": 0,
        "slot": "0",
        "type": "t_uint8"
      },
      {
        "astId": 94756,
        "contract": "contracts/ronin/fast-finality/FastFinalityTracking.sol:FastFinalityTracking",
        "label": "_initializing",
        "offset": 1,
        "slot": "0",
        "type": "t_bool"
      },
      {
        "astId": 18732,
        "contract": "contracts/ronin/fast-finality/FastFinalityTracking.sol:FastFinalityTracking",
        "label": "_tracker",
        "offset": 0,
        "slot": "1",
        "type": "t_mapping(t_uint256,t_mapping(t_address,t_struct(Record)2488_storage))"
      },
      {
        "astId": 18735,
        "contract": "contracts/ronin/fast-finality/FastFinalityTracking.sol:FastFinalityTracking",
        "label": "_latestTrackingBlock",
        "offset": 0,
        "slot": "2",
        "type": "t_uint256"
      },
      {
        "astId": 18741,
        "contract": "contracts/ronin/fast-finality/FastFinalityTracking.sol:FastFinalityTracking",
        "label": "_normalizedData",
        "offset": 0,
        "slot": "3",
        "type": "t_mapping(t_uint256,t_struct(NormalizedData)2495_storage)"
      }
    ],
    "types": {
      "t_address": {
        "encoding": "inplace",
        "label": "address",
        "numberOfBytes": "20"
      },
      "t_bool": {
        "encoding": "inplace",
        "label": "bool",
        "numberOfBytes": "1"
      },
      "t_mapping(t_address,t_struct(Record)2488_storage)": {
        "encoding": "mapping",
        "key": "t_address",
        "label": "mapping(address => struct IFastFinalityTracking.Record)",
        "numberOfBytes": "32",
        "value": "t_struct(Record)2488_storage"
      },
      "t_mapping(t_address,t_uint256)": {
        "encoding": "mapping",
        "key": "t_address",
        "label": "mapping(address => uint256)",
        "numberOfBytes": "32",
        "value": "t_uint256"
      },
      "t_mapping(t_uint256,t_mapping(t_address,t_struct(Record)2488_storage))": {
        "encoding": "mapping",
        "key": "t_uint256",
        "label": "mapping(uint256 => mapping(address => struct IFastFinalityTracking.Record))",
        "numberOfBytes": "32",
        "value": "t_mapping(t_address,t_struct(Record)2488_storage)"
      },
      "t_mapping(t_uint256,t_struct(NormalizedData)2495_storage)": {
        "encoding": "mapping",
        "key": "t_uint256",
        "label": "mapping(uint256 => struct IFastFinalityTracking.NormalizedData)",
        "numberOfBytes": "32",
        "value": "t_struct(NormalizedData)2495_storage"
      },
      "t_struct(NormalizedData)2495_storage": {
        "encoding": "inplace",
        "label": "struct IFastFinalityTracking.NormalizedData",
        "numberOfBytes": "64",
        "members": [
          {
            "astId": 2490,
            "contract": "contracts/ronin/fast-finality/FastFinalityTracking.sol:FastFinalityTracking",
            "label": "normalizedSum",
            "offset": 0,
            "slot": "0",
            "type": "t_uint256"
          },
          {
            "astId": 2494,
            "contract": "contracts/ronin/fast-finality/FastFinalityTracking.sol:FastFinalityTracking",
            "label": "normalizedStake",
            "offset": 0,
            "slot": "1",
            "type": "t_mapping(t_address,t_uint256)"
          }
        ]
      },
      "t_struct(Record)2488_storage": {
        "encoding": "inplace",
        "label": "struct IFastFinalityTracking.Record",
        "numberOfBytes": "64",
        "members": [
          {
            "astId": 2485,
            "contract": "contracts/ronin/fast-finality/FastFinalityTracking.sol:FastFinalityTracking",
            "label": "qcVoteCount",
            "offset": 0,
            "slot": "0",
            "type": "t_uint256"
          },
          {
            "astId": 2487,
            "contract": "contracts/ronin/fast-finality/FastFinalityTracking.sol:FastFinalityTracking",
            "label": "score",
            "offset": 0,
            "slot": "1",
            "type": "t_uint256"
          }
        ]
      },
      "t_uint256": {
        "encoding": "inplace",
        "label": "uint256",
        "numberOfBytes": "32"
      },
      "t_uint8": {
        "encoding": "inplace",
        "label": "uint8",
        "numberOfBytes": "1"
      }
    }
  },
  "timestamp": 1719911166,
  "userdoc": {
    "version": 1,
    "kind": "user"
  }
}