{
  "abi": [
    {
      "type": "function",
      "name": "arePublicKeysRegistered",
      "inputs": [
        {
          "name": "listOfPublicKey",
          "type": "bytes[][2]",
          "internalType": "bytes[][2]"
        }
      ],
      "outputs": [
        {
          "name": "",
          "type": "bool",
          "internalType": "bool"
        }
      ],
      "stateMutability": "view"
    },
    {
      "type": "function",
      "name": "changeAdminAddr",
      "inputs": [
        {
          "name": "id",
          "type": "address",
          "internalType": "address"
        },
        {
          "name": "newAdminAddr",
          "type": "address",
          "internalType": "address"
        }
      ],
      "outputs": [],
      "stateMutability": "nonpayable"
    },
    {
      "type": "function",
      "name": "changeConsensusAddr",
      "inputs": [
        {
          "name": "id",
          "type": "address",
          "internalType": "address"
        },
        {
          "name": "newConsensusAddr",
          "type": "address",
          "internalType": "TConsensus"
        }
      ],
      "outputs": [],
      "stateMutability": "nonpayable"
    },
    {
      "type": "function",
      "name": "changePubkey",
      "inputs": [
        {
          "name": "id",
          "type": "address",
          "internalType": "address"
        },
        {
          "name": "pubkey",
          "type": "bytes",
          "internalType": "bytes"
        },
        {
          "name": "proofOfPossession",
          "type": "bytes",
          "internalType": "bytes"
        }
      ],
      "outputs": [],
      "stateMutability": "nonpayable"
    },
    {
      "type": "function",
      "name": "changeTreasuryAddr",
      "inputs": [
        {
          "name": "",
          "type": "address",
          "internalType": "address"
        },
        {
          "name": "",
          "type": "address",
          "internalType": "address payable"
        }
      ],
      "outputs": [],
      "stateMutability": "pure"
    },
    {
      "type": "function",
      "name": "execApplyValidatorCandidate",
      "inputs": [
        {
          "name": "admin",
          "type": "address",
          "internalType": "address"
        },
        {
          "name": "id",
          "type": "address",
          "internalType": "address"
        },
        {
          "name": "treasury",
          "type": "address",
          "internalType": "address"
        },
        {
          "name": "pubkey",
          "type": "bytes",
          "internalType": "bytes"
        },
        {
          "name": "proofOfPossession",
          "type": "bytes",
          "internalType": "bytes"
        }
      ],
      "outputs": [],
      "stateMutability": "nonpayable"
    },
    {
      "type": "function",
      "name": "getConsensus2Id",
      "inputs": [
        {
          "name": "consensus",
          "type": "address",
          "internalType": "TConsensus"
        }
      ],
      "outputs": [
        {
          "name": "",
          "type": "address",
          "internalType": "address"
        }
      ],
      "stateMutability": "view"
    },
    {
      "type": "function",
      "name": "getContract",
      "inputs": [
        {
          "name": "contractType",
          "type": "uint8",
          "internalType": "enum ContractType"
        }
      ],
      "outputs": [
        {
          "name": "contract_",
          "type": "address",
          "internalType": "address"
        }
      ],
      "stateMutability": "view"
    },
    {
      "type": "function",
      "name": "getCooldownConfig",
      "inputs": [],
      "outputs": [
        {
          "name": "",
          "type": "uint256",
          "internalType": "uint256"
        }
      ],
      "stateMutability": "view"
    },
    {
      "type": "function",
      "name": "getId2Profile",
      "inputs": [
        {
          "name": "id",
          "type": "address",
          "internalType": "address"
        }
      ],
      "outputs": [
        {
          "name": "",
          "type": "tuple",
          "internalType": "struct IProfile.CandidateProfile",
          "components": [
            {
              "name": "id",
              "type": "address",
              "internalType": "address"
            },
            {
              "name": "consensus",
              "type": "address",
              "internalType": "TConsensus"
            },
            {
              "name": "admin",
              "type": "address",
              "internalType": "address"
            },
            {
              "name": "treasury",
              "type": "address",
              "internalType": "address payable"
            },
            {
              "name": "__reservedGovernor",
              "type": "address",
              "internalType": "address"
            },
            {
              "name": "pubkey",
              "type": "bytes",
              "internalType": "bytes"
            },
            {
              "name": "profileLastChange",
              "type": "uint256",
              "internalType": "uint256"
            },
            {
              "name": "oldPubkey",
              "type": "bytes",
              "internalType": "bytes"
            },
            {
              "name": "oldConsensus",
              "type": "address",
              "internalType": "TConsensus"
            }
          ]
        }
      ],
      "stateMutability": "view"
    },
    {
      "type": "function",
      "name": "getManyConsensus2Id",
      "inputs": [
        {
          "name": "consensusList",
          "type": "address[]",
          "internalType": "TConsensus[]"
        }
      ],
      "outputs": [
        {
          "name": "idList",
          "type": "address[]",
          "internalType": "address[]"
        }
      ],
      "stateMutability": "view"
    },
    {
      "type": "function",
      "name": "getManyId2Consensus",
      "inputs": [
        {
          "name": "idList",
          "type": "address[]",
          "internalType": "address[]"
        }
      ],
      "outputs": [
        {
          "name": "consensusList",
          "type": "address[]",
          "internalType": "TConsensus[]"
        }
      ],
      "stateMutability": "view"
    },
    {
      "type": "function",
      "name": "initialize",
      "inputs": [
        {
          "name": "validatorContract",
          "type": "address",
          "internalType": "address"
        }
      ],
      "outputs": [],
      "stateMutability": "nonpayable"
    },
    {
      "type": "function",
      "name": "initializeV2",
      "inputs": [
        {
          "name": "stakingContract",
          "type": "address",
          "internalType": "address"
        },
        {
          "name": "trustedOrgContract",
          "type": "address",
          "internalType": "address"
        }
      ],
      "outputs": [],
      "stateMutability": "nonpayable"
    },
    {
      "type": "function",
      "name": "initializeV3",
      "inputs": [
        {
          "name": "cooldown",
          "type": "uint256",
          "internalType": "uint256"
        }
      ],
      "outputs": [],
      "stateMutability": "nonpayable"
    },
    {
      "type": "function",
      "name": "precompileVerifyBLSPublicKeyAddress",
      "inputs": [],
      "outputs": [
        {
          "name": "",
          "type": "address",
          "internalType": "address"
        }
      ],
      "stateMutability": "view"
    },
    {
      "type": "function",
      "name": "setContract",
      "inputs": [
        {
          "name": "contractType",
          "type": "uint8",
          "internalType": "enum ContractType"
        },
        {
          "name": "addr",
          "type": "address",
          "internalType": "address"
        }
      ],
      "outputs": [],
      "stateMutability": "nonpayable"
    },
    {
      "type": "function",
      "name": "setCooldownConfig",
      "inputs": [
        {
          "name": "cooldown",
          "type": "uint256",
          "internalType": "uint256"
        }
      ],
      "outputs": [],
      "stateMutability": "nonpayable"
    },
    {
      "type": "function",
      "name": "tryGetConsensus2Id",
      "inputs": [
        {
          "name": "consensus",
          "type": "address",
          "internalType": "TConsensus"
        }
      ],
      "outputs": [
        {
          "name": "found",
          "type": "bool",
          "internalType": "bool"
        },
        {
          "name": "id",
          "type": "address",
          "internalType": "address"
        }
      ],
      "stateMutability": "view"
    },
    {
      "type": "event",
      "name": "ConsensusAddressOfNonGovernorChanged",
      "inputs": [
        {
          "name": "id",
          "type": "address",
          "indexed": true,
          "internalType": "address"
        }
      ],
      "anonymous": false
    },
    {
      "type": "event",
      "name": "ContractUpdated",
      "inputs": [
        {
          "name": "contractType",
          "type": "uint8",
          "indexed": true,
          "internalType": "enum ContractType"
        },
        {
          "name": "addr",
          "type": "address",
          "indexed": true,
          "internalType": "address"
        }
      ],
      "anonymous": false
    },
    {
      "type": "event",
      "name": "Initialized",
      "inputs": [
        {
          "name": "version",
          "type": "uint8",
          "indexed": false,
          "internalType": "uint8"
        }
      ],
      "anonymous": false
    },
    {
      "type": "event",
      "name": "ProfileAdded",
      "inputs": [
        {
          "name": "id",
          "type": "address",
          "indexed": true,
          "internalType": "address"
        }
      ],
      "anonymous": false
    },
    {
      "type": "event",
      "name": "ProfileAddressChanged",
      "inputs": [
        {
          "name": "id",
          "type": "address",
          "indexed": true,
          "internalType": "address"
        },
        {
          "name": "addressType",
          "type": "uint8",
          "indexed": true,
          "internalType": "enum RoleAccess"
        },
        {
          "name": "addr",
          "type": "address",
          "indexed": true,
          "internalType": "address"
        }
      ],
      "anonymous": false
    },
    {
      "type": "event",
      "name": "ProfileMigrated",
      "inputs": [
        {
          "name": "id",
          "type": "address",
          "indexed": true,
          "internalType": "address"
        },
        {
          "name": "admin",
          "type": "address",
          "indexed": true,
          "internalType": "address"
        },
        {
          "name": "treasury",
          "type": "address",
          "indexed": true,
          "internalType": "address"
        }
      ],
      "anonymous": false
    },
    {
      "type": "event",
      "name": "PubkeyChanged",
      "inputs": [
        {
          "name": "id",
          "type": "address",
          "indexed": true,
          "internalType": "address"
        },
        {
          "name": "pubkey",
          "type": "bytes",
          "indexed": false,
          "internalType": "bytes"
        }
      ],
      "anonymous": false
    },
    {
      "type": "event",
      "name": "PubkeyVerified",
      "inputs": [
        {
          "name": "pubkey",
          "type": "bytes",
          "indexed": false,
          "internalType": "bytes"
        },
        {
          "name": "proofOfPossession",
          "type": "bytes",
          "indexed": false,
          "internalType": "bytes"
        }
      ],
      "anonymous": false
    },
    {
      "type": "error",
      "name": "ErrCallPrecompiled",
      "inputs": []
    },
    {
      "type": "error",
      "name": "ErrContractTypeNotFound",
      "inputs": [
        {
          "name": "contractType",
          "type": "uint8",
          "internalType": "enum ContractType"
        }
      ]
    },
    {
      "type": "error",
      "name": "ErrDuplicatedInfo",
      "inputs": [
        {
          "name": "infoType",
          "type": "uint8",
          "internalType": "enum RoleAccess"
        },
        {
          "name": "value",
          "type": "uint256",
          "internalType": "uint256"
        }
      ]
    },
    {
      "type": "error",
      "name": "ErrDuplicatedPubkey",
      "inputs": [
        {
          "name": "pubkey",
          "type": "bytes",
          "internalType": "bytes"
        }
      ]
    },
    {
      "type": "error",
      "name": "ErrExistentProfile",
      "inputs": []
    },
    {
      "type": "error",
      "name": "ErrIdAndConsensusDiffer",
      "inputs": []
    },
    {
      "type": "error",
      "name": "ErrInvalidProofOfPossession",
      "inputs": [
        {
          "name": "pubkey",
          "type": "bytes",
          "internalType": "bytes"
        },
        {
          "name": "proofOfPossession",
          "type": "bytes",
          "internalType": "bytes"
        }
      ]
    },
    {
      "type": "error",
      "name": "ErrLookUpIdFailed",
      "inputs": [
        {
          "name": "consensus",
          "type": "address",
          "internalType": "TConsensus"
        }
      ]
    },
    {
      "type": "error",
      "name": "ErrNonExistentProfile",
      "inputs": []
    },
    {
      "type": "error",
      "name": "ErrProfileChangeCooldownNotEnded",
      "inputs": []
    },
    {
      "type": "error",
      "name": "ErrUnauthorized",
      "inputs": [
        {
          "name": "msgSig",
          "type": "bytes4",
          "internalType": "bytes4"
        },
        {
          "name": "expectedRole",
          "type": "uint8",
          "internalType": "enum RoleAccess"
        }
      ]
    },
    {
      "type": "error",
      "name": "ErrUnexpectedInternalCall",
      "inputs": [
        {
          "name": "msgSig",
          "type": "bytes4",
          "internalType": "bytes4"
        },
        {
          "name": "expectedContractType",
          "type": "uint8",
          "internalType": "enum ContractType"
        },
        {
          "name": "actual",
          "type": "address",
          "internalType": "address"
        }
      ]
    },
    {
      "type": "error",
      "name": "ErrValidatorOnRenunciation",
      "inputs": [
        {
          "name": "cid",
          "type": "address",
          "internalType": "address"
        }
      ]
    },
    {
      "type": "error",
      "name": "ErrZeroAddress",
      "inputs": [
        {
          "name": "infoType",
          "type": "uint8",
          "internalType": "enum RoleAccess"
        }
      ]
    },
    {
      "type": "error",
      "name": "ErrZeroCodeContract",
      "inputs": [
        {
          "name": "addr",
          "type": "address",
          "internalType": "address"
        }
      ]
    },
    {
      "type": "error",
      "name": "ErrZeroPubkey",
      "inputs": []
    }
  ],
  "address": "0xb54ed2668A75007305C44aB7F47684EE7E39C2bC",
  "args": "0x",
  "blockNumber": 32568134,
  "bytecode": "0x60806040523480156200001157600080fd5b506200001c62000022565b620000e4565b603354610100900460ff16156200008f5760405162461bcd60e51b815260206004820152602760248201527f496e697469616c697a61626c653a20636f6e747261637420697320696e697469604482015266616c697a696e6760c81b606482015260840160405180910390fd5b60335460ff9081161015620000e2576033805460ff191660ff9081179091556040519081527f7f26b83ff96e1f2b6a682f133852f6798a09c465da95921460cefb38474024989060200160405180910390a15b565b6127ff80620000f46000396000f3fe608060405234801561001057600080fd5b50600436106101515760003560e01c8063ad5abf2d116100cd578063c73f41b111610081578063de981f1b11610066578063de981f1b146102c0578063f4660940146102d3578063f9226b1a146102f357600080fd5b8063c73f41b114610194578063c8a8e563146102ad57600080fd5b8063b261596f116100b2578063b261596f14610267578063b5017aef14610287578063c4d66de81461029a57600080fd5b8063ad5abf2d1461024d578063b0abaea61461026057600080fd5b806350a9fc2911610124578063865e6fd311610109578063865e6fd3146101f557806388660f2a146102085780639a1a05e01461023a57600080fd5b806350a9fc29146101a75780637e18b566146101d257600080fd5b80630840ba7214610156578063332846871461016b5780633c3d8410146101815780634a3478c614610194575b600080fd5b610169610164366004611d94565b610306565b005b6003546040519081526020015b60405180910390f35b61016961018f366004611dcd565b6104db565b6101696101a2366004611d94565b6105c3565b6101ba6101b5366004611de6565b61060b565b6040516001600160a01b039091168152602001610178565b6101e56101e0366004611e03565b61061c565b6040519015158152602001610178565b610169610203366004611e4d565b610700565b61021b610216366004611de6565b61071f565b6040805192151583526001600160a01b03909116602083015201610178565b610169610248366004611eb2565b610750565b61016961025b366004611dcd565b610802565b606a6101ba565b61027a610275366004611f7a565b610816565b6040516101789190611fbc565b610169610295366004612009565b6108ef565b6101696102a8366004611de6565b610a2b565b6101696102bb366004611d94565b610b38565b6101ba6102ce3660046120b1565b610d20565b6102e66102e1366004611de6565b610db4565b604051610178919061211c565b61027a610301366004611f7a565b610fa9565b603354600290610100900460ff16158015610328575060335460ff8083169116105b6103905760405162461bcd60e51b815260206004820152602e60248201527f496e697469616c697a61626c653a20636f6e747261637420697320616c72656160448201526d191e481a5b9a5d1a585b1a5e995960921b60648201526084015b60405180910390fd5b6033805461ffff191660ff8316176101001790556103af60098461105c565b6103ba600a8361105c565b60006103c66008610d20565b6001600160a01b031663ba77b06c6040518163ffffffff1660e01b8152600401600060405180830381865afa158015610403573d6000803e3d6000fd5b505050506040513d6000823e601f3d908101601f1916820160405261042b9190810190612237565b905060005b815181101561048b57600082828151811061044d5761044d6122e9565b6020908102919091018101516001600160a01b031660008181526002909252604090912080546001600160a01b031916909117905550600101610430565b50610494611100565b506033805461ff001916905560405160ff821681527f7f26b83ff96e1f2b6a682f133852f6798a09c465da95921460cefb38474024989060200160405180910390a1505050565b603354600390610100900460ff161580156104fd575060335460ff8083169116105b6105605760405162461bcd60e51b815260206004820152602e60248201527f496e697469616c697a61626c653a20636f6e747261637420697320616c72656160448201526d191e481a5b9a5d1a585b1a5e995960921b6064820152608401610387565b6033805461ffff191660ff83161761010017905561057d82600355565b6033805461ff001916905560405160ff821681527f7f26b83ff96e1f2b6a682f133852f6798a09c465da95921460cefb3847402498906020015b60405180910390a15050565b60405162461bcd60e51b815260206004820152600d60248201527f4e6f7420737570706f72746564000000000000000000000000000000000000006044820152606401610387565b600061061682611457565b92915050565b6000805b60028110156106f75760005b83826002811061063e5761063e6122e9565b60200281019061064e91906122ff565b90508110156106ee576106d884836002811061066c5761066c6122e9565b60200281019061067c91906122ff565b8381811061068c5761068c6122e9565b905060200281019061069e9190612349565b8080601f0160208091040260200160405190810160405280939291908181526020018383808284376000920191909152506114ce92505050565b6106e6575060009392505050565b60010161062c565b50600101610620565b50600192915050565b6107086114fd565b61071181611557565b61071b828261105c565b5050565b600080610747836001600160a01b039081166000908152600260205260409020541680151591565b91509150915091565b600061075b86611212565b905061076681611266565b6107a585858080601f0160208091040260200160405190810160405280939291908181526020018383808284376000920191909152506115a692505050565b6107b1858585856115e8565b6107ba8161138e565b6107fa8186868080601f01602080910402602001604051908101604052809392919081815260200183838082843760009201919091525061167592505050565b505050505050565b61080a6114fd565b61081381600355565b50565b60608167ffffffffffffffff811115610831576108316121f0565b60405190808252806020026020018201604052801561085a578160200160208202803683370190505b50905060005b828110156108e85760008085858481811061087d5761087d6122e9565b90506020020160208101906108929190611de6565b6001600160a01b03908116825260208201929092526040016000206001015483519116908390839081106108c8576108c86122e9565b6001600160a01b0390921660209283029190910190910152600101610860565b5092915050565b60096108fa8161172c565b6001600160a01b03808816600090815260208190526040902080549091161561094f576040517f249b38f900000000000000000000000000000000000000000000000000000000815260040160405180910390fd5b60006040518061012001604052808a6001600160a01b031681526020018a6001600160a01b031681526020018b6001600160a01b03168152602001896001600160a01b0316815260200160006001600160a01b0316815260200188888080601f016020809104026020016040519081016040528093929190818152602001838380828437600092018290525093855250505060208083018290526040805191820181528282528301526060909101529050610a0981611791565b610a15878787876115e8565b610a1f82826117cb565b50505050505050505050565b603354610100900460ff1615808015610a4b5750603354600160ff909116105b80610a655750303b158015610a65575060335460ff166001145b610ac85760405162461bcd60e51b815260206004820152602e60248201527f496e697469616c697a61626c653a20636f6e747261637420697320616c72656160448201526d191e481a5b9a5d1a585b1a5e995960921b6064820152608401610387565b6033805460ff191660011790558015610aeb576033805461ff0019166101001790555b610af660088361105c565b801561071b576033805461ff0019169055604051600181527f7f26b83ff96e1f2b6a682f133852f6798a09c465da95921460cefb3847402498906020016105b7565b6000610b4383611212565b9050610b4e81611266565b610b59600483611342565b610b628161138e565b610b6b8361186a565b6000610b776009610d20565b6040517f01e4ff220000000000000000000000000000000000000000000000000000000081526001600160a01b0386811660048301523360248301528581166044830152919250908216906301e4ff2290606401600060405180830381600087803b158015610be557600080fd5b505af1158015610bf9573d6000803e3d6000fd5b505050506000610c096008610d20565b6040517feecaefd90000000000000000000000000000000000000000000000000000000081526001600160a01b03878116600483015286811660248301529192509082169063eecaefd990604401600060405180830381600087803b158015610c7157600080fd5b505af1158015610c85573d6000803e3d6000fd5b50506040517f0bbed9af0000000000000000000000000000000000000000000000000000000081526001600160a01b038881166004830152878116602483015284169250630bbed9af9150604401600060405180830381600087803b158015610ced57600080fd5b505af1158015610d01573d6000803e3d6000fd5b50505050610d0f8385611946565b610d198385611989565b5050505050565b60007fdea3103d22025c269050bea94c0c84688877f12fa22b7e6d2d5d78a9a49aa1cb600083600f811115610d5757610d57612390565b60ff1681526020810191909152604001600020546001600160a01b0316905080610daf57816040517f812281be00000000000000000000000000000000000000000000000000000000815260040161038791906123ba565b919050565b604080516101208101825260008082526020820181905291810182905260608082018390526080820183905260a0820181905260c0820183905260e08201526101008101919091526001600160a01b0380831660009081526020818152604091829020825161012081018452815485168152600182015485169281019290925260028101548416928201929092526003820154831660608201526004820154909216608083015260058101805460a084019190610e70906123c8565b80601f0160208091040260200160405190810160405280929190818152602001828054610e9c906123c8565b8015610ee95780601f10610ebe57610100808354040283529160200191610ee9565b820191906000526020600020905b815481529060010190602001808311610ecc57829003601f168201915b5050505050815260200160068201548152602001600782018054610f0c906123c8565b80601f0160208091040260200160405190810160405280929190818152602001828054610f38906123c8565b8015610f855780601f10610f5a57610100808354040283529160200191610f85565b820191906000526020600020905b815481529060010190602001808311610f6857829003601f168201915b5050509183525050600891909101546001600160a01b031660209091015292915050565b60608167ffffffffffffffff811115610fc457610fc46121f0565b604051908082528060200260200182016040528015610fed578160200160208202803683370190505b50905060005b828110156108e85761102a848483818110611010576110106122e9565b90506020020160208101906110259190611de6565b611457565b82828151811061103c5761103c6122e9565b6001600160a01b0390921660209283029190910190910152600101610ff3565b807fdea3103d22025c269050bea94c0c84688877f12fa22b7e6d2d5d78a9a49aa1cb600084600f81111561109257611092612390565b60ff168152602081019190915260400160002080546001600160a01b0319166001600160a01b03928316179055811682600f8111156110d3576110d3612390565b6040517f865d1c228a8ea13709cfe61f346f7ff67f1bbd4a18ff31ad3e7147350d317c5990600090a35050565b603354610100900460ff1661117d5760405162461bcd60e51b815260206004820152602b60248201527f496e697469616c697a61626c653a20636f6e7472616374206973206e6f74206960448201527f6e697469616c697a696e670000000000000000000000000000000000000000006064820152608401610387565b466107e4036112105760006111906119cc565b9050600061119c611a49565b905060006111a8611a49565b905060005b600481101561120b576112038482600481106111cb576111cb6122e9565b60200201518483600481106111e2576111e26122e9565b60200201518484600481106111f9576111f96122e9565b6020020151611ac6565b6001016111ad565b505050505b565b6001600160a01b0380821660009081526020819052604090208054909116610daf576040517f682a559600000000000000000000000000000000000000000000000000000000815260040160405180910390fd5b60028101546001600160a01b03163314158061131457506112876008610d20565b81546040517f46ebb2320000000000000000000000000000000000000000000000000000000081526001600160a01b0391821660048201523360248201529116906346ebb23290604401602060405180830381865afa1580156112ee573d6000803e3d6000fd5b505050506040513d601f19601f820116820180604052508101906113129190612402565b155b15610813576000356001600160e01b0319166004604051620f948f60ea1b8152600401610387929190612434565b6001600160a01b03811661138457816040517f57ed62e40000000000000000000000000000000000000000000000000000000081526004016103879190612452565b61071b8282611b5d565b61139781611bbd565b42600682015550565b600180830180546008850180546001600160a01b03199081166001600160a01b0393841690811790925560009182526002602090815260408084208054841690558854888616808652828620805486169290971691909117909555855490921684179094559284905291909120805460ff191690921790915560095b83546040516001600160a01b03909116907fe9654874a1d2cdb1459fe91e0442173d77f8e1baa4897e3f5c10e769a1515d0690600090a45050565b6000806000611481846001600160a01b039081166000908152600260205260409020541680151591565b91509150816114c7576040517f1e3d646f0000000000000000000000000000000000000000000000000000000081526001600160a01b0385166004820152602401610387565b9392505050565b6000600160006114e384805160209091012090565b815260208101919091526040016000205460ff1692915050565b7fb53127684a568b3173ae13b9f8a6016e243e63b6e8ee1178d6a717850b5d6103546001600160a01b03163314611210576000356001600160e01b0319166001604051620f948f60ea1b8152600401610387929190612434565b806001600160a01b03163b600003610813576040517f2ff1928c0000000000000000000000000000000000000000000000000000000081526001600160a01b0382166004820152602401610387565b6115af816114ce565b1561081357806040517f7995d6c80000000000000000000000000000000000000000000000000000000081526004016103879190612460565b6115f484848484611c08565b61163257838383836040517f97cf1c8d000000000000000000000000000000000000000000000000000000008152600401610387949392919061249c565b7fb737fd977072c109cccc97108f9f8a9017af4bbf4d20938a747f17d8921c50a684848484604051611667949392919061249c565b60405180910390a150505050565b816005018054611684906123c8565b15905061169e576007820161169c600584018261251b565b505b600582016116ac82826125f8565b5060018060006116c184805160209091012090565b815260208101919091526040908101600020805460ff191692151592909217909155825490516001600160a01b03909116907fe13225a225fbfeebd9d707546f3d7adee5d72738ac686cc5b97266c49745a56b90611720908490612460565b60405180910390a25050565b61173581610d20565b6001600160a01b0316336001600160a01b031614610813576000356001600160e01b03191681336040517f8383e634000000000000000000000000000000000000000000000000000000008152600401610387939291906126b0565b6117a060098260200151611342565b6117af60048260400151611342565b6117be600a8260600151611342565b6108138160a001516115a6565b805182546001600160a01b0319166001600160a01b0390911617825560208101516117f79083906113a0565b611805828260400151611946565b611813828260600151611989565b611821828260800151611cf6565b61182f828260a00151611675565b80516040516001600160a01b03909116907fc9da0ae38bd4761b72da1045c9b2618f0cd991dcac01e1f9bbf68474025f074390600090a25050565b60006118766008610d20565b6040517f0447e5910000000000000000000000000000000000000000000000000000000081526001600160a01b038481166004830152919250600091831690630447e5919060240160e060405180830381865afa1580156118db573d6000803e3d6000fd5b505050506040513d601f19601f820116820180604052508101906118ff91906126e5565b60a00151111561071b576040517f103855040000000000000000000000000000000000000000000000000000000081526001600160a01b0383166004820152602401610387565b6002820180546001600160a01b0319166001600160a01b0383169081179091556000818152600160208190526040909120805460ff19169091179055600461141c565b6003820180546001600160a01b0319166001600160a01b0383169081179091556000818152600160208190526040909120805460ff19169091179055600a61141c565b6119d4611d43565b50604080516080810182527307d28f88d677c4056ea6722aa35d92903b2a63da815273262b9fcfe8cfa900af4d1f5c20396e969b9655dd60208201527320238eb5643d4d7b7ab3c30f3bf7b8e2b85ca1e7918101919091527303a7b98c226225e330d11d1b9177891391fa4f80606082015290565b611a51611d43565b506040805160808101825273db3b1f69259f88ce9d58f3738e15e3cc1b5a8563815273335fe9ef827a9f27cbab819b31e5ee182c2081d7602082015273bccb3fda2b9e3ab5b824aa9d5c1c4a62a98da93791810191909152739bc1946f1aa6da4667a6ee966e66b9ec60637e10606082015290565b6001600160a01b038316600081815260208190526040902080546001600160a01b0319169091178155611af981856113a0565b611b038184611946565b611b0d8183611989565b816001600160a01b0316836001600160a01b0316856001600160a01b03167ff865c8ac025e544977905cfe6b3a26ce0c8aa1f9d7049d555d3c04bff7eed68660405160405180910390a450505050565b6001600160a01b03811660009081526001602052604090205460ff161561071b5781816001600160a01b03166040517fe4166aaa00000000000000000000000000000000000000000000000000000000815260040161038792919061278d565b6003548160060154611bcf91906127a8565b421015610813576040517f640b308400000000000000000000000000000000000000000000000000000000815260040160405180910390fd5b604051600090606a906001908390611c2a90899089908990899060240161249c565b60408051601f198184030181529190526020810180517bffffffffffffffffffffffffffffffffffffffffffffffffffffffff167f7eae32c2000000000000000000000000000000000000000000000000000000001790528051909150611c8f611d61565b602083016020828483895afa611ca457600094505b503d611caf57600093505b83611ce6576040517f0fc2632100000000000000000000000000000000000000000000000000000000815260040160405180910390fd5b5115159998505050505050505050565b6004820180546001600160a01b0319166001600160a01b0383169081179091551561071b576001600160a01b03166000908152600160208190526040909120805460ff1916909117905550565b60405180608001604052806004906020820280368337509192915050565b60405180602001604052806001906020820280368337509192915050565b6001600160a01b038116811461081357600080fd5b60008060408385031215611da757600080fd5b8235611db281611d7f565b91506020830135611dc281611d7f565b809150509250929050565b600060208284031215611ddf57600080fd5b5035919050565b600060208284031215611df857600080fd5b81356114c781611d7f565b600060208284031215611e1557600080fd5b813567ffffffffffffffff811115611e2c57600080fd5b8201604081018410156114c757600080fd5b803560108110610daf57600080fd5b60008060408385031215611e6057600080fd5b611db283611e3e565b60008083601f840112611e7b57600080fd5b50813567ffffffffffffffff811115611e9357600080fd5b602083019150836020828501011115611eab57600080fd5b9250929050565b600080600080600060608688031215611eca57600080fd5b8535611ed581611d7f565b9450602086013567ffffffffffffffff80821115611ef257600080fd5b611efe89838a01611e69565b90965094506040880135915080821115611f1757600080fd5b50611f2488828901611e69565b969995985093965092949392505050565b60008083601f840112611f4757600080fd5b50813567ffffffffffffffff811115611f5f57600080fd5b6020830191508360208260051b8501011115611eab57600080fd5b60008060208385031215611f8d57600080fd5b823567ffffffffffffffff811115611fa457600080fd5b611fb085828601611f35565b90969095509350505050565b6020808252825182820181905260009190848201906040850190845b81811015611ffd5783516001600160a01b031683529284019291840191600101611fd8565b50909695505050505050565b600080600080600080600060a0888a03121561202457600080fd5b873561202f81611d7f565b9650602088013561203f81611d7f565b9550604088013561204f81611d7f565b9450606088013567ffffffffffffffff8082111561206c57600080fd5b6120788b838c01611e69565b909650945060808a013591508082111561209157600080fd5b5061209e8a828b01611e69565b989b979a50959850939692959293505050565b6000602082840312156120c357600080fd5b6114c782611e3e565b60005b838110156120e75781810151838201526020016120cf565b50506000910152565b600081518084526121088160208601602086016120cc565b601f01601f19169290920160200192915050565b602081526121366020820183516001600160a01b03169052565b6000602083015161215260408401826001600160a01b03169052565b5060408301516001600160a01b03811660608401525060608301516001600160a01b03811660808401525060808301516001600160a01b03811660a08401525060a08301516101208060c08501526121ae6101408501836120f0565b915060c085015160e085015260e0850151610100601f1986850301818701526121d784836120f0565b9601516001600160a01b03169190940152509192915050565b634e487b7160e01b600052604160045260246000fd5b604051601f8201601f1916810167ffffffffffffffff8111828210171561222f5761222f6121f0565b604052919050565b6000602080838503121561224a57600080fd5b825167ffffffffffffffff8082111561226257600080fd5b818501915085601f83011261227657600080fd5b815181811115612288576122886121f0565b8060051b9150612299848301612206565b81815291830184019184810190888411156122b357600080fd5b938501935b838510156122dd57845192506122cd83611d7f565b82825293850193908501906122b8565b98975050505050505050565b634e487b7160e01b600052603260045260246000fd5b6000808335601e1984360301811261231657600080fd5b83018035915067ffffffffffffffff82111561233157600080fd5b6020019150600581901b3603821315611eab57600080fd5b6000808335601e1984360301811261236057600080fd5b83018035915067ffffffffffffffff82111561237b57600080fd5b602001915036819003821315611eab57600080fd5b634e487b7160e01b600052602160045260246000fd5b601081106123b6576123b6612390565b9052565b6020810161061682846123a6565b600181811c908216806123dc57607f821691505b6020821081036123fc57634e487b7160e01b600052602260045260246000fd5b50919050565b60006020828403121561241457600080fd5b815180151581146114c757600080fd5b600b81106123b6576123b6612390565b6001600160e01b031983168152604081016114c76020830184612424565b602081016106168284612424565b6020815260006114c760208301846120f0565b81835281816020850137506000828201602090810191909152601f909101601f19169091010190565b6040815260006124b0604083018688612473565b82810360208401526124c3818587612473565b979650505050505050565b601f821115612516576000816000526020600020601f850160051c810160208610156124f75750805b601f850160051c820191505b818110156107fa57828155600101612503565b505050565b818103612526575050565b61253082546123c8565b67ffffffffffffffff811115612548576125486121f0565b61255c8161255684546123c8565b846124ce565b6000601f82116001811461259057600083156125785750848201545b600019600385901b1c1916600184901b178455610d19565b600085815260209020601f19841690600086815260209020845b838110156125ca57828601548255600195860195909101906020016125aa565b50858310156125e85781850154600019600388901b60f8161c191681555b5050505050600190811b01905550565b815167ffffffffffffffff811115612612576126126121f0565b6126208161255684546123c8565b602080601f831160018114612655576000841561263d5750858301515b600019600386901b1c1916600185901b1785556107fa565b600085815260208120601f198616915b8281101561268457888601518255948401946001909101908401612665565b50858210156125e857939096015160001960f8600387901b161c19169092555050600190811b01905550565b6001600160e01b031984168152606081016126ce60208301856123a6565b6001600160a01b0383166040830152949350505050565b600060e082840312156126f757600080fd5b60405160e0810181811067ffffffffffffffff8211171561271a5761271a6121f0565b604052825161272881611d7f565b8152602083015161273881611d7f565b6020820152604083015161274b81611d7f565b6040820152606083015161275e81611d7f565b806060830152506080830151608082015260a083015160a082015260c083015160c08201528091505092915050565b6040810161279b8285612424565b8260208301529392505050565b8082018082111561061657634e487b7160e01b600052601160045260246000fdfea2646970667358221220b3a67e0e010cabca535b3ea20b182770bb4c8eed0d840ef0c666a94fddd39c8864736f6c63430008160033",
  "chainId": 2020,
  "contractAbsolutePath": "Profile_Mainnet.sol",
  "deployer": "0x4d58Ea7231c394d5804e8B06B1365915f906E27F",
  "devdoc": {
    "version": 1,
    "kind": "dev",
    "methods": {
      "arePublicKeysRegistered(bytes[][2])": {
        "details": "Cross-contract function to for slash indicator to check the list of public keys in finality slash proof Returns whether all public keys are registered."
      },
      "changeAdminAddr(address,address)": {
        "details": "Side-effects on other contracts: - Update Staking contract:    + [x] Update (id => PoolDetail) mapping in {BaseStaking.sol}.    + [x] Update `_adminOfActivePoolMapping` in {BaseStaking.sol}.    + [x] Move staking amount of previous admin to the the new admin. - Update Validator contract:    + [x] Update (id => ValidatorCandidate) mapping - See other side-effects for treasury in {changeTreasuryAddr}, since treasury and admin must be identical."
      },
      "changeConsensusAddr(address,address)": {
        "details": "Side-effects on other contracts: - Update in Staking contract for Consensus address mapping:   + [x] Keep the same previous pool address. - Update in Validator contract for:   + [x] Consensus Address mapping   + [x] Bridge Address mapping   + [x] Jail mapping   + [x] Pending reward mapping   + [x] Schedule mapping - Update in Slashing contract for:   + [x] Handling slash indicator   + [x] Handling slash fast finality   + [x] Handling slash double sign - Update in Proposal contract for:   + [-] Preserve the consensus address and recipient target of locked amount of emergency exit - Update Trusted Org contracts:   + If the current consensus is governor:      - [x] Remove and delete weight of the old consensus      - [x] Replace and add weight for the new consensus   + If the current consensus is not governor:      - [x] Do nothing"
      },
      "changePubkey(address,bytes,bytes)": {
        "details": "Requirements: - The profile must be existed. - Only user with candidate admin role can call this method. - New public key must not be duplicated. - The proof of public key possession must be verified successfully. - The public key change cooldown must be ended."
      },
      "changeTreasuryAddr(address,address)": {
        "details": "Side-effects on other contracts: - Update Validator contract:    + [x] Update (id => ValidatorCandidate) mapping - Update governance admin:    + [-] Update recipient in the EmergencyExitBallot to the newTreasury.          Cannot impl since we cannot cancel the previous the ballot and          create a new ballot on behalf of the validator contract."
      },
      "execApplyValidatorCandidate(address,address,address,bytes,bytes)": {
        "details": "Cross-contract function to add/update new profile of a validator candidate when they applying for candidate role. Requirements: - Only `stakingContract` can call this method."
      },
      "getConsensus2Id(address)": {
        "details": "Getter to backward query from `consensus` address to `id` address, revert if not found."
      },
      "getContract(uint8)": {
        "details": "Returns the address of a contract with a specific role. Throws an error if no contract is set for the specified role.",
        "params": {
          "contractType": "The role of the contract to retrieve."
        },
        "returns": {
          "contract_": "The address of the contract with the specified role."
        }
      },
      "getCooldownConfig()": {
        "details": "Returns the config of cool down on change profile info."
      },
      "getId2Profile(address)": {
        "details": "Getter to query full `profile` from `id` address."
      },
      "getManyConsensus2Id(address[])": {
        "details": "Getter to backward batch query from `consensus` address to `id` address."
      },
      "getManyId2Consensus(address[])": {
        "details": "Getter to batch query from `id` to `consensus`, return address(0) if the profile not exist."
      },
      "precompileVerifyBLSPublicKeyAddress()": {
        "details": "Gets the address of the precompile of validating double sign evidence"
      },
      "setContract(uint8,address)": {
        "details": "Sets the address of a contract with a specific role. Emits the event {ContractUpdated}.",
        "params": {
          "addr": "The address of the contract to set.",
          "contractType": "The role of the contract to set."
        }
      },
      "setCooldownConfig(uint256)": {
        "details": "Change the cooldown between 2 public key change Requirement:  - Only admin can call this method"
      },
      "tryGetConsensus2Id(address)": {
        "details": "Getter to backward query from `consensus` address to `id` address."
      }
    },
    "events": {
      "ConsensusAddressOfNonGovernorChanged(address)": {
        "details": "Event emitted when the consensus of a non-governor profile is changed."
      },
      "ContractUpdated(uint8,address)": {
        "details": "Emitted when a contract is updated."
      },
      "Initialized(uint8)": {
        "details": "Triggered when the contract has been initialized or reinitialized."
      },
      "ProfileAdded(address)": {
        "details": "Event emitted when a profile with `id` is added."
      },
      "ProfileAddressChanged(address,uint8,address)": {
        "details": "Event emitted when a address in a profile is changed."
      },
      "ProfileMigrated(address,address,address)": {
        "details": "Event emitted when the profile is migrated (mostly when REP-4 update)."
      },
      "PubkeyChanged(address,bytes)": {
        "details": "Event emitted when the pubkey of the `id` is changed."
      },
      "PubkeyVerified(bytes,bytes)": {
        "details": "Event emitted when the pubkey is verified successfully."
      }
    },
    "errors": {
      "ErrCallPrecompiled()": [
        {
          "details": "Error of call to precompile fails."
        }
      ],
      "ErrContractTypeNotFound(uint8)": [
        {
          "details": "Error of invalid role."
        }
      ],
      "ErrDuplicatedInfo(uint8,uint256)": [
        {
          "details": "Error when there is a duplicated info of `value`, which is uin256-padding value of any address or hash of public key, and with value type of `infoType`."
        }
      ],
      "ErrExistentProfile()": [
        {
          "details": "Error of already existed profile."
        }
      ],
      "ErrIdAndConsensusDiffer()": [
        {
          "details": "Error when create a new profile whose id and consensus are not identical."
        }
      ],
      "ErrNonExistentProfile()": [
        {
          "details": "Error of non existed profile."
        }
      ],
      "ErrProfileChangeCooldownNotEnded()": [
        {
          "details": "Error when failed to change any address or pubkey in the profile because cooldown is not ended."
        }
      ],
      "ErrUnauthorized(bytes4,uint8)": [
        {
          "details": "Error indicating that the caller is unauthorized to perform a specific function.",
          "params": {
            "expectedRole": "The role required to perform the function.",
            "msgSig": "The function signature (bytes4) that the caller is unauthorized to perform."
          }
        }
      ],
      "ErrUnexpectedInternalCall(bytes4,uint8,address)": [
        {
          "details": "Error indicating that the caller is unauthorized to perform a specific function.",
          "params": {
            "actual": "The actual address that called to the function.",
            "expectedContractType": "The contract type required to perform the function.",
            "msgSig": "The function signature (bytes4)."
          }
        }
      ],
      "ErrZeroCodeContract(address)": [
        {
          "details": "Error of set to non-contract."
        }
      ]
    }
  },
  "isFoundry": true,
  "nonce": 160,
  "numDeployments": 4,
  "storageLayout": {
    "storage": [
      {
        "astId": 26463,
        "contract": "contracts/ronin/profile/Profile_Mainnet.sol:Profile_Mainnet",
        "label": "_id2Profile",
        "offset": 0,
        "slot": "0",
        "type": "t_mapping(t_address,t_struct(CandidateProfile)7177_storage)"
      },
      {
        "astId": 26468,
        "contract": "contracts/ronin/profile/Profile_Mainnet.sol:Profile_Mainnet",
        "label": "_registry",
        "offset": 0,
        "slot": "1",
        "type": "t_mapping(t_uint256,t_bool)"
      },
      {
        "astId": 26474,
        "contract": "contracts/ronin/profile/Profile_Mainnet.sol:Profile_Mainnet",
        "label": "_consensus2Id",
        "offset": 0,
        "slot": "2",
        "type": "t_mapping(t_userDefinedValueType(TConsensus)37739,t_address)"
      },
      {
        "astId": 26477,
        "contract": "contracts/ronin/profile/Profile_Mainnet.sol:Profile_Mainnet",
        "label": "_profileChangeCooldown",
        "offset": 0,
        "slot": "3",
        "type": "t_uint256"
      },
      {
        "astId": 26482,
        "contract": "contracts/ronin/profile/Profile_Mainnet.sol:Profile_Mainnet",
        "label": "__gap",
        "offset": 0,
        "slot": "4",
        "type": "t_array(t_bytes32)47_storage"
      },
      {
        "astId": 149866,
        "contract": "contracts/ronin/profile/Profile_Mainnet.sol:Profile_Mainnet",
        "label": "_initialized",
        "offset": 0,
        "slot": "51",
        "type": "t_uint8"
      },
      {
        "astId": 149869,
        "contract": "contracts/ronin/profile/Profile_Mainnet.sol:Profile_Mainnet",
        "label": "_initializing",
        "offset": 1,
        "slot": "51",
        "type": "t_bool"
      }
    ],
    "types": {
      "t_address": {
        "encoding": "inplace",
        "label": "address",
        "numberOfBytes": "20"
      },
      "t_address_payable": {
        "encoding": "inplace",
        "label": "address payable",
        "numberOfBytes": "20"
      },
      "t_array(t_bytes32)47_storage": {
        "encoding": "inplace",
        "label": "bytes32[47]",
        "numberOfBytes": "1504",
        "base": "t_bytes32"
      },
      "t_bool": {
        "encoding": "inplace",
        "label": "bool",
        "numberOfBytes": "1"
      },
      "t_bytes32": {
        "encoding": "inplace",
        "label": "bytes32",
        "numberOfBytes": "32"
      },
      "t_bytes_storage": {
        "encoding": "bytes",
        "label": "bytes",
        "numberOfBytes": "32"
      },
      "t_mapping(t_address,t_struct(CandidateProfile)7177_storage)": {
        "encoding": "mapping",
        "key": "t_address",
        "label": "mapping(address => struct IProfile.CandidateProfile)",
        "numberOfBytes": "32",
        "value": "t_struct(CandidateProfile)7177_storage"
      },
      "t_mapping(t_uint256,t_bool)": {
        "encoding": "mapping",
        "key": "t_uint256",
        "label": "mapping(uint256 => bool)",
        "numberOfBytes": "32",
        "value": "t_bool"
      },
      "t_mapping(t_userDefinedValueType(TConsensus)37739,t_address)": {
        "encoding": "mapping",
        "key": "t_userDefinedValueType(TConsensus)37739",
        "label": "mapping(TConsensus => address)",
        "numberOfBytes": "32",
        "value": "t_address"
      },
      "t_struct(CandidateProfile)7177_storage": {
        "encoding": "inplace",
        "label": "struct IProfile.CandidateProfile",
        "numberOfBytes": "288",
        "members": [
          {
            "astId": 7150,
            "contract": "contracts/ronin/profile/Profile_Mainnet.sol:Profile_Mainnet",
            "label": "id",
            "offset": 0,
            "slot": "0",
            "type": "t_address"
          },
          {
            "astId": 7154,
            "contract": "contracts/ronin/profile/Profile_Mainnet.sol:Profile_Mainnet",
            "label": "consensus",
            "offset": 0,
            "slot": "1",
            "type": "t_userDefinedValueType(TConsensus)37739"
          },
          {
            "astId": 7157,
            "contract": "contracts/ronin/profile/Profile_Mainnet.sol:Profile_Mainnet",
            "label": "admin",
            "offset": 0,
            "slot": "2",
            "type": "t_address"
          },
          {
            "astId": 7160,
            "contract": "contracts/ronin/profile/Profile_Mainnet.sol:Profile_Mainnet",
            "label": "treasury",
            "offset": 0,
            "slot": "3",
            "type": "t_address_payable"
          },
          {
            "astId": 7163,
            "contract": "contracts/ronin/profile/Profile_Mainnet.sol:Profile_Mainnet",
            "label": "__reservedGovernor",
            "offset": 0,
            "slot": "4",
            "type": "t_address"
          },
          {
            "astId": 7166,
            "contract": "contracts/ronin/profile/Profile_Mainnet.sol:Profile_Mainnet",
            "label": "pubkey",
            "offset": 0,
            "slot": "5",
            "type": "t_bytes_storage"
          },
          {
            "astId": 7169,
            "contract": "contracts/ronin/profile/Profile_Mainnet.sol:Profile_Mainnet",
            "label": "profileLastChange",
            "offset": 0,
            "slot": "6",
            "type": "t_uint256"
          },
          {
            "astId": 7172,
            "contract": "contracts/ronin/profile/Profile_Mainnet.sol:Profile_Mainnet",
            "label": "oldPubkey",
            "offset": 0,
            "slot": "7",
            "type": "t_bytes_storage"
          },
          {
            "astId": 7176,
            "contract": "contracts/ronin/profile/Profile_Mainnet.sol:Profile_Mainnet",
            "label": "oldConsensus",
            "offset": 0,
            "slot": "8",
            "type": "t_userDefinedValueType(TConsensus)37739"
          }
        ]
      },
      "t_uint256": {
        "encoding": "inplace",
        "label": "uint256",
        "numberOfBytes": "32"
      },
      "t_uint8": {
        "encoding": "inplace",
        "label": "uint8",
        "numberOfBytes": "1"
      },
      "t_userDefinedValueType(TConsensus)37739": {
        "encoding": "inplace",
        "label": "TConsensus",
        "numberOfBytes": "20"
      }
    }
  },
  "timestamp": 1709533477,
  "userdoc": {
    "version": 1,
    "kind": "user",
    "methods": {
      "changePubkey(address,bytes,bytes)": {
        "notice": "The candidate admin changes the public key."
      },
      "changeTreasuryAddr(address,address)": {
        "notice": "This method is not supported. Change treasury also requires changing the admin address. Using the {changeAdminAddr} method instead"
      }
    }
  }
}