{
  "abi": [
    {
      "type": "function",
      "name": "arePublicKeysRegistered",
      "inputs": [
        {
          "name": "listOfPublicKey",
          "type": "bytes[][2]",
          "internalType": "bytes[][2]"
        }
      ],
      "outputs": [
        {
          "name": "",
          "type": "bool",
          "internalType": "bool"
        }
      ],
      "stateMutability": "view"
    },
    {
      "type": "function",
      "name": "changeAdminAddr",
      "inputs": [
        {
          "name": "id",
          "type": "address",
          "internalType": "address"
        },
        {
          "name": "newAdminAddr",
          "type": "address",
          "internalType": "address"
        }
      ],
      "outputs": [],
      "stateMutability": "nonpayable"
    },
    {
      "type": "function",
      "name": "changeConsensusAddr",
      "inputs": [
        {
          "name": "id",
          "type": "address",
          "internalType": "address"
        },
        {
          "name": "newConsensusAddr",
          "type": "address",
          "internalType": "TConsensus"
        }
      ],
      "outputs": [],
      "stateMutability": "nonpayable"
    },
    {
      "type": "function",
      "name": "changePubkey",
      "inputs": [
        {
          "name": "id",
          "type": "address",
          "internalType": "address"
        },
        {
          "name": "pubkey",
          "type": "bytes",
          "internalType": "bytes"
        },
        {
          "name": "proofOfPossession",
          "type": "bytes",
          "internalType": "bytes"
        }
      ],
      "outputs": [],
      "stateMutability": "nonpayable"
    },
    {
      "type": "function",
      "name": "changeTreasuryAddr",
      "inputs": [
        {
          "name": "",
          "type": "address",
          "internalType": "address"
        },
        {
          "name": "",
          "type": "address",
          "internalType": "address payable"
        }
      ],
      "outputs": [],
      "stateMutability": "pure"
    },
    {
      "type": "function",
      "name": "execApplyValidatorCandidate",
      "inputs": [
        {
          "name": "admin",
          "type": "address",
          "internalType": "address"
        },
        {
          "name": "id",
          "type": "address",
          "internalType": "address"
        },
        {
          "name": "treasury",
          "type": "address",
          "internalType": "address"
        },
        {
          "name": "pubkey",
          "type": "bytes",
          "internalType": "bytes"
        },
        {
          "name": "proofOfPossession",
          "type": "bytes",
          "internalType": "bytes"
        }
      ],
      "outputs": [],
      "stateMutability": "nonpayable"
    },
    {
      "type": "function",
      "name": "getConsensus2Id",
      "inputs": [
        {
          "name": "consensus",
          "type": "address",
          "internalType": "TConsensus"
        }
      ],
      "outputs": [
        {
          "name": "",
          "type": "address",
          "internalType": "address"
        }
      ],
      "stateMutability": "view"
    },
    {
      "type": "function",
      "name": "getContract",
      "inputs": [
        {
          "name": "contractType",
          "type": "uint8",
          "internalType": "enum ContractType"
        }
      ],
      "outputs": [
        {
          "name": "contract_",
          "type": "address",
          "internalType": "address"
        }
      ],
      "stateMutability": "view"
    },
    {
      "type": "function",
      "name": "getCooldownConfig",
      "inputs": [],
      "outputs": [
        {
          "name": "",
          "type": "uint256",
          "internalType": "uint256"
        }
      ],
      "stateMutability": "view"
    },
    {
      "type": "function",
      "name": "getId2Profile",
      "inputs": [
        {
          "name": "id",
          "type": "address",
          "internalType": "address"
        }
      ],
      "outputs": [
        {
          "name": "",
          "type": "tuple",
          "internalType": "struct IProfile.CandidateProfile",
          "components": [
            {
              "name": "id",
              "type": "address",
              "internalType": "address"
            },
            {
              "name": "consensus",
              "type": "address",
              "internalType": "TConsensus"
            },
            {
              "name": "admin",
              "type": "address",
              "internalType": "address"
            },
            {
              "name": "treasury",
              "type": "address",
              "internalType": "address payable"
            },
            {
              "name": "__reservedGovernor",
              "type": "address",
              "internalType": "address"
            },
            {
              "name": "pubkey",
              "type": "bytes",
              "internalType": "bytes"
            },
            {
              "name": "profileLastChange",
              "type": "uint256",
              "internalType": "uint256"
            },
            {
              "name": "oldPubkey",
              "type": "bytes",
              "internalType": "bytes"
            },
            {
              "name": "oldConsensus",
              "type": "address",
              "internalType": "TConsensus"
            }
          ]
        }
      ],
      "stateMutability": "view"
    },
    {
      "type": "function",
      "name": "getManyConsensus2Id",
      "inputs": [
        {
          "name": "consensusList",
          "type": "address[]",
          "internalType": "TConsensus[]"
        }
      ],
      "outputs": [
        {
          "name": "idList",
          "type": "address[]",
          "internalType": "address[]"
        }
      ],
      "stateMutability": "view"
    },
    {
      "type": "function",
      "name": "getManyId2Consensus",
      "inputs": [
        {
          "name": "idList",
          "type": "address[]",
          "internalType": "address[]"
        }
      ],
      "outputs": [
        {
          "name": "consensusList",
          "type": "address[]",
          "internalType": "TConsensus[]"
        }
      ],
      "stateMutability": "view"
    },
    {
      "type": "function",
      "name": "initialize",
      "inputs": [
        {
          "name": "validatorContract",
          "type": "address",
          "internalType": "address"
        }
      ],
      "outputs": [],
      "stateMutability": "nonpayable"
    },
    {
      "type": "function",
      "name": "initializeV2",
      "inputs": [
        {
          "name": "stakingContract",
          "type": "address",
          "internalType": "address"
        },
        {
          "name": "trustedOrgContract",
          "type": "address",
          "internalType": "address"
        }
      ],
      "outputs": [],
      "stateMutability": "nonpayable"
    },
    {
      "type": "function",
      "name": "initializeV3",
      "inputs": [
        {
          "name": "cooldown",
          "type": "uint256",
          "internalType": "uint256"
        }
      ],
      "outputs": [],
      "stateMutability": "nonpayable"
    },
    {
      "type": "function",
      "name": "migrateOmissionREP4",
      "inputs": [],
      "outputs": [],
      "stateMutability": "nonpayable"
    },
    {
      "type": "function",
      "name": "precompileVerifyBLSPublicKeyAddress",
      "inputs": [],
      "outputs": [
        {
          "name": "",
          "type": "address",
          "internalType": "address"
        }
      ],
      "stateMutability": "view"
    },
    {
      "type": "function",
      "name": "setContract",
      "inputs": [
        {
          "name": "contractType",
          "type": "uint8",
          "internalType": "enum ContractType"
        },
        {
          "name": "addr",
          "type": "address",
          "internalType": "address"
        }
      ],
      "outputs": [],
      "stateMutability": "nonpayable"
    },
    {
      "type": "function",
      "name": "setCooldownConfig",
      "inputs": [
        {
          "name": "cooldown",
          "type": "uint256",
          "internalType": "uint256"
        }
      ],
      "outputs": [],
      "stateMutability": "nonpayable"
    },
    {
      "type": "function",
      "name": "tryGetConsensus2Id",
      "inputs": [
        {
          "name": "consensus",
          "type": "address",
          "internalType": "TConsensus"
        }
      ],
      "outputs": [
        {
          "name": "found",
          "type": "bool",
          "internalType": "bool"
        },
        {
          "name": "id",
          "type": "address",
          "internalType": "address"
        }
      ],
      "stateMutability": "view"
    },
    {
      "type": "event",
      "name": "ConsensusAddressOfNonGovernorChanged",
      "inputs": [
        {
          "name": "id",
          "type": "address",
          "indexed": true,
          "internalType": "address"
        }
      ],
      "anonymous": false
    },
    {
      "type": "event",
      "name": "ContractUpdated",
      "inputs": [
        {
          "name": "contractType",
          "type": "uint8",
          "indexed": true,
          "internalType": "enum ContractType"
        },
        {
          "name": "addr",
          "type": "address",
          "indexed": true,
          "internalType": "address"
        }
      ],
      "anonymous": false
    },
    {
      "type": "event",
      "name": "Initialized",
      "inputs": [
        {
          "name": "version",
          "type": "uint8",
          "indexed": false,
          "internalType": "uint8"
        }
      ],
      "anonymous": false
    },
    {
      "type": "event",
      "name": "ProfileAdded",
      "inputs": [
        {
          "name": "id",
          "type": "address",
          "indexed": true,
          "internalType": "address"
        }
      ],
      "anonymous": false
    },
    {
      "type": "event",
      "name": "ProfileAddressChanged",
      "inputs": [
        {
          "name": "id",
          "type": "address",
          "indexed": true,
          "internalType": "address"
        },
        {
          "name": "addressType",
          "type": "uint8",
          "indexed": true,
          "internalType": "enum RoleAccess"
        },
        {
          "name": "addr",
          "type": "address",
          "indexed": true,
          "internalType": "address"
        }
      ],
      "anonymous": false
    },
    {
      "type": "event",
      "name": "ProfileMigrated",
      "inputs": [
        {
          "name": "id",
          "type": "address",
          "indexed": true,
          "internalType": "address"
        },
        {
          "name": "admin",
          "type": "address",
          "indexed": true,
          "internalType": "address"
        },
        {
          "name": "treasury",
          "type": "address",
          "indexed": true,
          "internalType": "address"
        }
      ],
      "anonymous": false
    },
    {
      "type": "event",
      "name": "PubkeyChanged",
      "inputs": [
        {
          "name": "id",
          "type": "address",
          "indexed": true,
          "internalType": "address"
        },
        {
          "name": "pubkey",
          "type": "bytes",
          "indexed": false,
          "internalType": "bytes"
        }
      ],
      "anonymous": false
    },
    {
      "type": "event",
      "name": "PubkeyVerified",
      "inputs": [
        {
          "name": "pubkey",
          "type": "bytes",
          "indexed": false,
          "internalType": "bytes"
        },
        {
          "name": "proofOfPossession",
          "type": "bytes",
          "indexed": false,
          "internalType": "bytes"
        }
      ],
      "anonymous": false
    },
    {
      "type": "error",
      "name": "ErrCallPrecompiled",
      "inputs": []
    },
    {
      "type": "error",
      "name": "ErrContractTypeNotFound",
      "inputs": [
        {
          "name": "contractType",
          "type": "uint8",
          "internalType": "enum ContractType"
        }
      ]
    },
    {
      "type": "error",
      "name": "ErrDuplicatedInfo",
      "inputs": [
        {
          "name": "infoType",
          "type": "uint8",
          "internalType": "enum RoleAccess"
        },
        {
          "name": "value",
          "type": "uint256",
          "internalType": "uint256"
        }
      ]
    },
    {
      "type": "error",
      "name": "ErrDuplicatedPubkey",
      "inputs": [
        {
          "name": "pubkey",
          "type": "bytes",
          "internalType": "bytes"
        }
      ]
    },
    {
      "type": "error",
      "name": "ErrExistentProfile",
      "inputs": []
    },
    {
      "type": "error",
      "name": "ErrIdAndConsensusDiffer",
      "inputs": []
    },
    {
      "type": "error",
      "name": "ErrInvalidProofOfPossession",
      "inputs": [
        {
          "name": "pubkey",
          "type": "bytes",
          "internalType": "bytes"
        },
        {
          "name": "proofOfPossession",
          "type": "bytes",
          "internalType": "bytes"
        }
      ]
    },
    {
      "type": "error",
      "name": "ErrLookUpIdFailed",
      "inputs": [
        {
          "name": "consensus",
          "type": "address",
          "internalType": "TConsensus"
        }
      ]
    },
    {
      "type": "error",
      "name": "ErrNonExistentProfile",
      "inputs": []
    },
    {
      "type": "error",
      "name": "ErrProfileChangeCooldownNotEnded",
      "inputs": []
    },
    {
      "type": "error",
      "name": "ErrUnauthorized",
      "inputs": [
        {
          "name": "msgSig",
          "type": "bytes4",
          "internalType": "bytes4"
        },
        {
          "name": "expectedRole",
          "type": "uint8",
          "internalType": "enum RoleAccess"
        }
      ]
    },
    {
      "type": "error",
      "name": "ErrUnexpectedInternalCall",
      "inputs": [
        {
          "name": "msgSig",
          "type": "bytes4",
          "internalType": "bytes4"
        },
        {
          "name": "expectedContractType",
          "type": "uint8",
          "internalType": "enum ContractType"
        },
        {
          "name": "actual",
          "type": "address",
          "internalType": "address"
        }
      ]
    },
    {
      "type": "error",
      "name": "ErrValidatorOnRenunciation",
      "inputs": [
        {
          "name": "cid",
          "type": "address",
          "internalType": "address"
        }
      ]
    },
    {
      "type": "error",
      "name": "ErrZeroAddress",
      "inputs": [
        {
          "name": "infoType",
          "type": "uint8",
          "internalType": "enum RoleAccess"
        }
      ]
    },
    {
      "type": "error",
      "name": "ErrZeroCodeContract",
      "inputs": [
        {
          "name": "addr",
          "type": "address",
          "internalType": "address"
        }
      ]
    },
    {
      "type": "error",
      "name": "ErrZeroPubkey",
      "inputs": []
    }
  ],
  "address": "0x6aF57471DA36BB9CA5e36b27F927D45bdAb95239",
  "args": "0x",
  "blockNumber": 33199369,
  "bytecode": "0x6080604052348015600f57600080fd5b506016601a565b60d8565b603354610100900460ff161560855760405162461bcd60e51b815260206004820152602760248201527f496e697469616c697a61626c653a20636f6e747261637420697320696e697469604482015266616c697a696e6760c81b606482015260840160405180910390fd5b60335460ff908116101560d6576033805460ff191660ff9081179091556040519081527f7f26b83ff96e1f2b6a682f133852f6798a09c465da95921460cefb38474024989060200160405180910390a15b565b6126dd806100e76000396000f3fe608060405234801561001057600080fd5b506004361061016c5760003560e01c8063ad5abf2d116100cd578063c73f41b111610081578063de981f1b11610066578063de981f1b146102e3578063f4660940146102f6578063f9226b1a1461031657600080fd5b8063c73f41b1146101af578063c8a8e563146102d057600080fd5b8063b261596f116100b2578063b261596f1461028a578063b5017aef146102aa578063c4d66de8146102bd57600080fd5b8063ad5abf2d14610270578063b0abaea61461028357600080fd5b806359962e0911610124578063865e6fd311610109578063865e6fd31461021857806388660f2a1461022b5780639a1a05e01461025d57600080fd5b806359962e09146101ed5780637e18b566146101f557600080fd5b80633c3d8410116101555780633c3d84101461019c5780634a3478c6146101af57806350a9fc29146101c257600080fd5b80630840ba72146101715780633328468714610186575b600080fd5b61018461017f366004611c77565b610329565b005b6003546040519081526020015b60405180910390f35b6101846101aa366004611cb0565b6104f6565b6101846101bd366004611c77565b6105de565b6101d56101d0366004611cc9565b610626565b6040516001600160a01b039091168152602001610193565b610184610637565b610208610203366004611ce6565b6107c0565b6040519015158152602001610193565b610184610226366004611d30565b6108a4565b61023e610239366004611cc9565b6108c3565b6040805192151583526001600160a01b03909116602083015201610193565b61018461026b366004611d95565b6108f4565b61018461027e366004611cb0565b6109a6565b606a6101d5565b61029d610298366004611e5d565b6109ba565b6040516101939190611e9f565b6101846102b8366004611eec565b610a93565b6101846102cb366004611cc9565b610bcf565b6101846102de366004611c77565b610cdc565b6101d56102f1366004611f94565b610ec4565b610309610304366004611cc9565b610f58565b6040516101939190611fff565b61029d610324366004611e5d565b61114d565b603354600290610100900460ff1615801561034b575060335460ff8083169116105b6103b35760405162461bcd60e51b815260206004820152602e60248201527f496e697469616c697a61626c653a20636f6e747261637420697320616c72656160448201526d191e481a5b9a5d1a585b1a5e995960921b60648201526084015b60405180910390fd5b6033805461ffff191660ff8316176101001790556103d2600984611200565b6103dd600a83611200565b60006103e96008610ec4565b6001600160a01b031663ba77b06c6040518163ffffffff1660e01b8152600401600060405180830381865afa158015610426573d6000803e3d6000fd5b505050506040513d6000823e601f3d908101601f1916820160405261044e919081019061211a565b905060005b81518110156104ae576000828281518110610470576104706121cc565b6020908102919091018101516001600160a01b031660008181526002909252604090912080546001600160a01b031916909117905550600101610453565b50506033805461ff001916905560405160ff821681527f7f26b83ff96e1f2b6a682f133852f6798a09c465da95921460cefb38474024989060200160405180910390a1505050565b603354600390610100900460ff16158015610518575060335460ff8083169116105b61057b5760405162461bcd60e51b815260206004820152602e60248201527f496e697469616c697a61626c653a20636f6e747261637420697320616c72656160448201526d191e481a5b9a5d1a585b1a5e995960921b60648201526084016103aa565b6033805461ffff191660ff83161761010017905561059882600355565b6033805461ff001916905560405160ff821681527f7f26b83ff96e1f2b6a682f133852f6798a09c465da95921460cefb3847402498906020015b60405180910390a15050565b60405162461bcd60e51b815260206004820152600d60248201527f4e6f7420737570706f727465640000000000000000000000000000000000000060448201526064016103aa565b6000610631826114e9565b92915050565b61063f611560565b466107e4036107be57604080516003808252608082019092526000916020820160608036833701905050905073454f6c34f0cfadf1733044fdf8b06516bd1e952981600081518110610693576106936121cc565b60200260200101906001600160a01b031690816001600160a01b03168152505073d7fef73d95ccedb26483fd3c6c48393e50708159816001815181106106db576106db6121cc565b60200260200101906001600160a01b031690816001600160a01b03168152505073bd4bf317da1928cc2f9f4da9006401f3944a0ab581600281518110610723576107236121cc565b60200260200101906001600160a01b031690816001600160a01b0316815250506000805b82518110156107ba576000838281518110610764576107646121cc565b6020908102919091018101516001600160a01b0316600081815280835260408082206008810180546001600160a01b03199081168617909155600290955291208054909316909117909155925050600101610747565b5050505b565b6000805b600281101561089b5760005b8382600281106107e2576107e26121cc565b6020028101906107f291906121e2565b90508110156108925761087c848360028110610810576108106121cc565b60200281019061082091906121e2565b83818110610830576108306121cc565b9050602002810190610842919061222c565b8080601f0160208091040260200160405190810160405280939291908181526020018383808284376000920191909152506115ba92505050565b61088a575060009392505050565b6001016107d0565b506001016107c4565b50600192915050565b6108ac611560565b6108b5816115e9565b6108bf8282611200565b5050565b6000806108eb836001600160a01b039081166000908152600260205260409020541680151591565b91509150915091565b60006108ff866112a4565b905061090a816112f8565b61094985858080601f01602080910402602001604051908101604052809392919081815260200183838082843760009201919091525061163892505050565b6109558585858561167a565b61095e81611420565b61099e8186868080601f01602080910402602001604051908101604052809392919081815260200183838082843760009201919091525061170792505050565b505050505050565b6109ae611560565b6109b781600355565b50565b60608167ffffffffffffffff8111156109d5576109d56120d3565b6040519080825280602002602001820160405280156109fe578160200160208202803683370190505b50905060005b82811015610a8c57600080858584818110610a2157610a216121cc565b9050602002016020810190610a369190611cc9565b6001600160a01b0390811682526020820192909252604001600020600101548351911690839083908110610a6c57610a6c6121cc565b6001600160a01b0390921660209283029190910190910152600101610a04565b5092915050565b6009610a9e816117be565b6001600160a01b038088166000908152602081905260409020805490911615610af3576040517f249b38f900000000000000000000000000000000000000000000000000000000815260040160405180910390fd5b60006040518061012001604052808a6001600160a01b031681526020018a6001600160a01b031681526020018b6001600160a01b03168152602001896001600160a01b0316815260200160006001600160a01b0316815260200188888080601f016020809104026020016040519081016040528093929190818152602001838380828437600092018290525093855250505060208083018290526040805191820181528282528301526060909101529050610bad81611823565b610bb98787878761167a565b610bc3828261185d565b50505050505050505050565b603354610100900460ff1615808015610bef5750603354600160ff909116105b80610c095750303b158015610c09575060335460ff166001145b610c6c5760405162461bcd60e51b815260206004820152602e60248201527f496e697469616c697a61626c653a20636f6e747261637420697320616c72656160448201526d191e481a5b9a5d1a585b1a5e995960921b60648201526084016103aa565b6033805460ff191660011790558015610c8f576033805461ff0019166101001790555b610c9a600883611200565b80156108bf576033805461ff0019169055604051600181527f7f26b83ff96e1f2b6a682f133852f6798a09c465da95921460cefb3847402498906020016105d2565b6000610ce7836112a4565b9050610cf2816112f8565b610cfd6004836113d4565b610d0681611420565b610d0f836118fc565b6000610d1b6009610ec4565b6040517f01e4ff220000000000000000000000000000000000000000000000000000000081526001600160a01b0386811660048301523360248301528581166044830152919250908216906301e4ff2290606401600060405180830381600087803b158015610d8957600080fd5b505af1158015610d9d573d6000803e3d6000fd5b505050506000610dad6008610ec4565b6040517feecaefd90000000000000000000000000000000000000000000000000000000081526001600160a01b03878116600483015286811660248301529192509082169063eecaefd990604401600060405180830381600087803b158015610e1557600080fd5b505af1158015610e29573d6000803e3d6000fd5b50506040517f0bbed9af0000000000000000000000000000000000000000000000000000000081526001600160a01b038881166004830152878116602483015284169250630bbed9af9150604401600060405180830381600087803b158015610e9157600080fd5b505af1158015610ea5573d6000803e3d6000fd5b50505050610eb383856119d8565b610ebd8385611a1b565b5050505050565b60007fdea3103d22025c269050bea94c0c84688877f12fa22b7e6d2d5d78a9a49aa1cb600083600f811115610efb57610efb612273565b60ff1681526020810191909152604001600020546001600160a01b0316905080610f5357816040517f812281be0000000000000000000000000000000000000000000000000000000081526004016103aa919061229d565b919050565b604080516101208101825260008082526020820181905291810182905260608082018390526080820183905260a0820181905260c0820183905260e08201526101008101919091526001600160a01b0380831660009081526020818152604091829020825161012081018452815485168152600182015485169281019290925260028101548416928201929092526003820154831660608201526004820154909216608083015260058101805460a084019190611014906122ab565b80601f0160208091040260200160405190810160405280929190818152602001828054611040906122ab565b801561108d5780601f106110625761010080835404028352916020019161108d565b820191906000526020600020905b81548152906001019060200180831161107057829003601f168201915b50505050508152602001600682015481526020016007820180546110b0906122ab565b80601f01602080910402602001604051908101604052809291908181526020018280546110dc906122ab565b80156111295780601f106110fe57610100808354040283529160200191611129565b820191906000526020600020905b81548152906001019060200180831161110c57829003601f168201915b5050509183525050600891909101546001600160a01b031660209091015292915050565b60608167ffffffffffffffff811115611168576111686120d3565b604051908082528060200260200182016040528015611191578160200160208202803683370190505b50905060005b82811015610a8c576111ce8484838181106111b4576111b46121cc565b90506020020160208101906111c99190611cc9565b6114e9565b8282815181106111e0576111e06121cc565b6001600160a01b0390921660209283029190910190910152600101611197565b807fdea3103d22025c269050bea94c0c84688877f12fa22b7e6d2d5d78a9a49aa1cb600084600f81111561123657611236612273565b60ff168152602081019190915260400160002080546001600160a01b0319166001600160a01b03928316179055811682600f81111561127757611277612273565b6040517f865d1c228a8ea13709cfe61f346f7ff67f1bbd4a18ff31ad3e7147350d317c5990600090a35050565b6001600160a01b0380821660009081526020819052604090208054909116610f53576040517f682a559600000000000000000000000000000000000000000000000000000000815260040160405180910390fd5b60028101546001600160a01b0316331415806113a657506113196008610ec4565b81546040517f46ebb2320000000000000000000000000000000000000000000000000000000081526001600160a01b0391821660048201523360248201529116906346ebb23290604401602060405180830381865afa158015611380573d6000803e3d6000fd5b505050506040513d601f19601f820116820180604052508101906113a491906122e5565b155b156109b7576000356001600160e01b0319166004604051620f948f60ea1b81526004016103aa929190612317565b6001600160a01b03811661141657816040517f57ed62e40000000000000000000000000000000000000000000000000000000081526004016103aa9190612335565b6108bf8282611a5e565b61142981611abe565b42600682015550565b600180830180546008850180546001600160a01b03199081166001600160a01b0393841690811790925560009182526002602090815260408084208054841690558854888616808652828620805486169290971691909117909555855490921684179094559284905291909120805460ff191690921790915560095b83546040516001600160a01b03909116907fe9654874a1d2cdb1459fe91e0442173d77f8e1baa4897e3f5c10e769a1515d0690600090a45050565b6000806000611513846001600160a01b039081166000908152600260205260409020541680151591565b9150915081611559576040517f1e3d646f0000000000000000000000000000000000000000000000000000000081526001600160a01b03851660048201526024016103aa565b9392505050565b7fb53127684a568b3173ae13b9f8a6016e243e63b6e8ee1178d6a717850b5d6103546001600160a01b031633146107be576000356001600160e01b0319166001604051620f948f60ea1b81526004016103aa929190612317565b6000600160006115cf84805160209091012090565b815260208101919091526040016000205460ff1692915050565b806001600160a01b03163b6000036109b7576040517f2ff1928c0000000000000000000000000000000000000000000000000000000081526001600160a01b03821660048201526024016103aa565b611641816115ba565b156109b757806040517f7995d6c80000000000000000000000000000000000000000000000000000000081526004016103aa9190612343565b61168684848484611b09565b6116c457838383836040517f97cf1c8d0000000000000000000000000000000000000000000000000000000081526004016103aa949392919061237f565b7fb737fd977072c109cccc97108f9f8a9017af4bbf4d20938a747f17d8921c50a6848484846040516116f9949392919061237f565b60405180910390a150505050565b816005018054611716906122ab565b159050611730576007820161172e60058401826123f9565b505b6005820161173e82826124d6565b50600180600061175384805160209091012090565b815260208101919091526040908101600020805460ff191692151592909217909155825490516001600160a01b03909116907fe13225a225fbfeebd9d707546f3d7adee5d72738ac686cc5b97266c49745a56b906117b2908490612343565b60405180910390a25050565b6117c781610ec4565b6001600160a01b0316336001600160a01b0316146109b7576000356001600160e01b03191681336040517f8383e6340000000000000000000000000000000000000000000000000000000081526004016103aa9392919061258e565b611832600982602001516113d4565b611841600482604001516113d4565b611850600a82606001516113d4565b6109b78160a00151611638565b805182546001600160a01b0319166001600160a01b039091161782556020810151611889908390611432565b6118978282604001516119d8565b6118a5828260600151611a1b565b6118b3828260800151611bf7565b6118c1828260a00151611707565b80516040516001600160a01b03909116907fc9da0ae38bd4761b72da1045c9b2618f0cd991dcac01e1f9bbf68474025f074390600090a25050565b60006119086008610ec4565b6040517f0447e5910000000000000000000000000000000000000000000000000000000081526001600160a01b038481166004830152919250600091831690630447e5919060240160e060405180830381865afa15801561196d573d6000803e3d6000fd5b505050506040513d601f19601f8201168201806040525081019061199191906125c3565b60a0015111156108bf576040517f103855040000000000000000000000000000000000000000000000000000000081526001600160a01b03831660048201526024016103aa565b6002820180546001600160a01b0319166001600160a01b0383169081179091556000818152600160208190526040909120805460ff1916909117905560046114ae565b6003820180546001600160a01b0319166001600160a01b0383169081179091556000818152600160208190526040909120805460ff19169091179055600a6114ae565b6001600160a01b03811660009081526001602052604090205460ff16156108bf5781816001600160a01b03166040517fe4166aaa0000000000000000000000000000000000000000000000000000000081526004016103aa92919061266b565b6003548160060154611ad09190612686565b4210156109b7576040517f640b308400000000000000000000000000000000000000000000000000000000815260040160405180910390fd5b604051600090606a906001908390611b2b90899089908990899060240161237f565b60408051601f198184030181529190526020810180517bffffffffffffffffffffffffffffffffffffffffffffffffffffffff167f7eae32c2000000000000000000000000000000000000000000000000000000001790528051909150611b90611c44565b602083016020828483895afa611ba557600094505b503d611bb057600093505b83611be7576040517f0fc2632100000000000000000000000000000000000000000000000000000000815260040160405180910390fd5b5115159998505050505050505050565b6004820180546001600160a01b0319166001600160a01b038316908117909155156108bf576001600160a01b03166000908152600160208190526040909120805460ff1916909117905550565b60405180602001604052806001906020820280368337509192915050565b6001600160a01b03811681146109b757600080fd5b60008060408385031215611c8a57600080fd5b8235611c9581611c62565b91506020830135611ca581611c62565b809150509250929050565b600060208284031215611cc257600080fd5b5035919050565b600060208284031215611cdb57600080fd5b813561155981611c62565b600060208284031215611cf857600080fd5b813567ffffffffffffffff811115611d0f57600080fd5b82016040810184101561155957600080fd5b803560108110610f5357600080fd5b60008060408385031215611d4357600080fd5b611c9583611d21565b60008083601f840112611d5e57600080fd5b50813567ffffffffffffffff811115611d7657600080fd5b602083019150836020828501011115611d8e57600080fd5b9250929050565b600080600080600060608688031215611dad57600080fd5b8535611db881611c62565b9450602086013567ffffffffffffffff80821115611dd557600080fd5b611de189838a01611d4c565b90965094506040880135915080821115611dfa57600080fd5b50611e0788828901611d4c565b969995985093965092949392505050565b60008083601f840112611e2a57600080fd5b50813567ffffffffffffffff811115611e4257600080fd5b6020830191508360208260051b8501011115611d8e57600080fd5b60008060208385031215611e7057600080fd5b823567ffffffffffffffff811115611e8757600080fd5b611e9385828601611e18565b90969095509350505050565b6020808252825182820181905260009190848201906040850190845b81811015611ee05783516001600160a01b031683529284019291840191600101611ebb565b50909695505050505050565b600080600080600080600060a0888a031215611f0757600080fd5b8735611f1281611c62565b96506020880135611f2281611c62565b95506040880135611f3281611c62565b9450606088013567ffffffffffffffff80821115611f4f57600080fd5b611f5b8b838c01611d4c565b909650945060808a0135915080821115611f7457600080fd5b50611f818a828b01611d4c565b989b979a50959850939692959293505050565b600060208284031215611fa657600080fd5b61155982611d21565b60005b83811015611fca578181015183820152602001611fb2565b50506000910152565b60008151808452611feb816020860160208601611faf565b601f01601f19169290920160200192915050565b602081526120196020820183516001600160a01b03169052565b6000602083015161203560408401826001600160a01b03169052565b5060408301516001600160a01b03811660608401525060608301516001600160a01b03811660808401525060808301516001600160a01b03811660a08401525060a08301516101208060c0850152612091610140850183611fd3565b915060c085015160e085015260e0850151610100601f1986850301818701526120ba8483611fd3565b9601516001600160a01b03169190940152509192915050565b634e487b7160e01b600052604160045260246000fd5b604051601f8201601f1916810167ffffffffffffffff81118282101715612112576121126120d3565b604052919050565b6000602080838503121561212d57600080fd5b825167ffffffffffffffff8082111561214557600080fd5b818501915085601f83011261215957600080fd5b81518181111561216b5761216b6120d3565b8060051b915061217c8483016120e9565b818152918301840191848101908884111561219657600080fd5b938501935b838510156121c057845192506121b083611c62565b828252938501939085019061219b565b98975050505050505050565b634e487b7160e01b600052603260045260246000fd5b6000808335601e198436030181126121f957600080fd5b83018035915067ffffffffffffffff82111561221457600080fd5b6020019150600581901b3603821315611d8e57600080fd5b6000808335601e1984360301811261224357600080fd5b83018035915067ffffffffffffffff82111561225e57600080fd5b602001915036819003821315611d8e57600080fd5b634e487b7160e01b600052602160045260246000fd5b6010811061229957612299612273565b9052565b602081016106318284612289565b600181811c908216806122bf57607f821691505b6020821081036122df57634e487b7160e01b600052602260045260246000fd5b50919050565b6000602082840312156122f757600080fd5b8151801515811461155957600080fd5b600b811061229957612299612273565b6001600160e01b031983168152604081016115596020830184612307565b602081016106318284612307565b6020815260006115596020830184611fd3565b81835281816020850137506000828201602090810191909152601f909101601f19169091010190565b604081526000612393604083018688612356565b82810360208401526123a6818587612356565b979650505050505050565b601f8211156107ba576000816000526020600020601f850160051c810160208610156123da5750805b601f850160051c820191505b8181101561099e578281556001016123e6565b818103612404575050565b61240e82546122ab565b67ffffffffffffffff811115612426576124266120d3565b61243a8161243484546122ab565b846123b1565b6000601f82116001811461246e57600083156124565750848201545b600019600385901b1c1916600184901b178455610ebd565b600085815260209020601f19841690600086815260209020845b838110156124a85782860154825560019586019590910190602001612488565b50858310156124c65781850154600019600388901b60f8161c191681555b5050505050600190811b01905550565b815167ffffffffffffffff8111156124f0576124f06120d3565b6124fe8161243484546122ab565b602080601f831160018114612533576000841561251b5750858301515b600019600386901b1c1916600185901b17855561099e565b600085815260208120601f198616915b8281101561256257888601518255948401946001909101908401612543565b50858210156124c657939096015160001960f8600387901b161c19169092555050600190811b01905550565b6001600160e01b031984168152606081016125ac6020830185612289565b6001600160a01b0383166040830152949350505050565b600060e082840312156125d557600080fd5b60405160e0810181811067ffffffffffffffff821117156125f8576125f86120d3565b604052825161260681611c62565b8152602083015161261681611c62565b6020820152604083015161262981611c62565b6040820152606083015161263c81611c62565b806060830152506080830151608082015260a083015160a082015260c083015160c08201528091505092915050565b604081016126798285612307565b8260208301529392505050565b8082018082111561063157634e487b7160e01b600052601160045260246000fdfea2646970667358221220e02a2952492ceff36d75b8702fad8fee1b2c1c84b2eb9de9a67284e9efd5f2af64736f6c63430008190033",
  "chainId": 2020,
  "contractAbsolutePath": "Profile_Mainnet.sol",
  "deployer": "0x4d58Ea7231c394d5804e8B06B1365915f906E27F",
  "devdoc": {
    "version": 1,
    "kind": "dev",
    "methods": {
      "arePublicKeysRegistered(bytes[][2])": {
        "details": "Cross-contract function to for slash indicator to check the list of public keys in finality slash proof Returns whether all public keys are registered."
      },
      "changeAdminAddr(address,address)": {
        "details": "Side-effects on other contracts: - Update Staking contract:    + [x] Update (id => PoolDetail) mapping in {BaseStaking.sol}.    + [x] Update `_adminOfActivePoolMapping` in {BaseStaking.sol}.    + [x] Move staking amount of previous admin to the the new admin. - Update Validator contract:    + [x] Update (id => ValidatorCandidate) mapping - See other side-effects for treasury in {changeTreasuryAddr}, since treasury and admin must be identical."
      },
      "changeConsensusAddr(address,address)": {
        "details": "Side-effects on other contracts: - Update in Staking contract for Consensus address mapping:   + [x] Keep the same previous pool address. - Update in Validator contract for:   + [x] Consensus Address mapping   + [x] Bridge Address mapping   + [x] Jail mapping   + [x] Pending reward mapping   + [x] Schedule mapping - Update in Slashing contract for:   + [x] Handling slash indicator   + [x] Handling slash fast finality   + [x] Handling slash double sign - Update in Proposal contract for:   + [-] Preserve the consensus address and recipient target of locked amount of emergency exit - Update Trusted Org contracts:   + If the current consensus is governor:      - [x] Remove and delete weight of the old consensus      - [x] Replace and add weight for the new consensus   + If the current consensus is not governor:      - [x] Do nothing"
      },
      "changePubkey(address,bytes,bytes)": {
        "details": "Requirements: - The profile must be existed. - Only user with candidate admin role can call this method. - New public key must not be duplicated. - The proof of public key possession must be verified successfully. - The public key change cooldown must be ended."
      },
      "changeTreasuryAddr(address,address)": {
        "details": "Side-effects on other contracts: - Update Validator contract:    + [x] Update (id => ValidatorCandidate) mapping - Update governance admin:    + [-] Update recipient in the EmergencyExitBallot to the newTreasury.          Cannot impl since we cannot cancel the previous the ballot and          create a new ballot on behalf of the validator contract."
      },
      "execApplyValidatorCandidate(address,address,address,bytes,bytes)": {
        "details": "Cross-contract function to add/update new profile of a validator candidate when they applying for candidate role. Requirements: - Only `stakingContract` can call this method."
      },
      "getConsensus2Id(address)": {
        "details": "Getter to backward query from `consensus` address to `id` address, revert if not found."
      },
      "getContract(uint8)": {
        "details": "Returns the address of a contract with a specific role. Throws an error if no contract is set for the specified role.",
        "params": {
          "contractType": "The role of the contract to retrieve."
        },
        "returns": {
          "contract_": "The address of the contract with the specified role."
        }
      },
      "getCooldownConfig()": {
        "details": "Returns the config of cool down on change profile info."
      },
      "getId2Profile(address)": {
        "details": "Getter to query full `profile` from `id` address."
      },
      "getManyConsensus2Id(address[])": {
        "details": "Getter to backward batch query from `consensus` address to `id` address."
      },
      "getManyId2Consensus(address[])": {
        "details": "Getter to batch query from `id` to `consensus`, return address(0) if the profile not exist."
      },
      "precompileVerifyBLSPublicKeyAddress()": {
        "details": "Gets the address of the precompile of validating double sign evidence"
      },
      "setContract(uint8,address)": {
        "details": "Sets the address of a contract with a specific role. Emits the event {ContractUpdated}.",
        "params": {
          "addr": "The address of the contract to set.",
          "contractType": "The role of the contract to set."
        }
      },
      "setCooldownConfig(uint256)": {
        "details": "Change the cooldown between 2 public key change Requirement:  - Only admin can call this method"
      },
      "tryGetConsensus2Id(address)": {
        "details": "Getter to backward query from `consensus` address to `id` address."
      }
    },
    "events": {
      "ConsensusAddressOfNonGovernorChanged(address)": {
        "details": "Event emitted when the consensus of a non-governor profile is changed."
      },
      "ContractUpdated(uint8,address)": {
        "details": "Emitted when a contract is updated."
      },
      "Initialized(uint8)": {
        "details": "Triggered when the contract has been initialized or reinitialized."
      },
      "ProfileAdded(address)": {
        "details": "Event emitted when a profile with `id` is added."
      },
      "ProfileAddressChanged(address,uint8,address)": {
        "details": "Event emitted when a address in a profile is changed."
      },
      "ProfileMigrated(address,address,address)": {
        "details": "Event emitted when the profile is migrated (mostly when REP-4 update)."
      },
      "PubkeyChanged(address,bytes)": {
        "details": "Event emitted when the pubkey of the `id` is changed."
      },
      "PubkeyVerified(bytes,bytes)": {
        "details": "Event emitted when the pubkey is verified successfully."
      }
    },
    "errors": {
      "ErrCallPrecompiled()": [
        {
          "details": "Error of call to precompile fails."
        }
      ],
      "ErrContractTypeNotFound(uint8)": [
        {
          "details": "Error of invalid role."
        }
      ],
      "ErrDuplicatedInfo(uint8,uint256)": [
        {
          "details": "Error when there is a duplicated info of `value`, which is uin256-padding value of any address or hash of public key, and with value type of `infoType`."
        }
      ],
      "ErrExistentProfile()": [
        {
          "details": "Error of already existed profile."
        }
      ],
      "ErrIdAndConsensusDiffer()": [
        {
          "details": "Error when create a new profile whose id and consensus are not identical."
        }
      ],
      "ErrNonExistentProfile()": [
        {
          "details": "Error of non existed profile."
        }
      ],
      "ErrProfileChangeCooldownNotEnded()": [
        {
          "details": "Error when failed to change any address or pubkey in the profile because cooldown is not ended."
        }
      ],
      "ErrUnauthorized(bytes4,uint8)": [
        {
          "details": "Error indicating that the caller is unauthorized to perform a specific function.",
          "params": {
            "expectedRole": "The role required to perform the function.",
            "msgSig": "The function signature (bytes4) that the caller is unauthorized to perform."
          }
        }
      ],
      "ErrUnexpectedInternalCall(bytes4,uint8,address)": [
        {
          "details": "Error indicating that the caller is unauthorized to perform a specific function.",
          "params": {
            "actual": "The actual address that called to the function.",
            "expectedContractType": "The contract type required to perform the function.",
            "msgSig": "The function signature (bytes4)."
          }
        }
      ],
      "ErrZeroCodeContract(address)": [
        {
          "details": "Error of set to non-contract."
        }
      ]
    }
  },
  "isFoundry": true,
  "nonce": 182,
  "numDeployments": 5,
  "storageLayout": {
    "storage": [
      {
        "astId": 28020,
        "contract": "contracts/ronin/profile/Profile_Mainnet.sol:Profile_Mainnet",
        "label": "_id2Profile",
        "offset": 0,
        "slot": "0",
        "type": "t_mapping(t_address,t_struct(CandidateProfile)7414_storage)"
      },
      {
        "astId": 28025,
        "contract": "contracts/ronin/profile/Profile_Mainnet.sol:Profile_Mainnet",
        "label": "_registry",
        "offset": 0,
        "slot": "1",
        "type": "t_mapping(t_uint256,t_bool)"
      },
      {
        "astId": 28031,
        "contract": "contracts/ronin/profile/Profile_Mainnet.sol:Profile_Mainnet",
        "label": "_consensus2Id",
        "offset": 0,
        "slot": "2",
        "type": "t_mapping(t_userDefinedValueType(TConsensus)38902,t_address)"
      },
      {
        "astId": 28034,
        "contract": "contracts/ronin/profile/Profile_Mainnet.sol:Profile_Mainnet",
        "label": "_profileChangeCooldown",
        "offset": 0,
        "slot": "3",
        "type": "t_uint256"
      },
      {
        "astId": 28039,
        "contract": "contracts/ronin/profile/Profile_Mainnet.sol:Profile_Mainnet",
        "label": "__gap",
        "offset": 0,
        "slot": "4",
        "type": "t_array(t_bytes32)47_storage"
      },
      {
        "astId": 136981,
        "contract": "contracts/ronin/profile/Profile_Mainnet.sol:Profile_Mainnet",
        "label": "_initialized",
        "offset": 0,
        "slot": "51",
        "type": "t_uint8"
      },
      {
        "astId": 136984,
        "contract": "contracts/ronin/profile/Profile_Mainnet.sol:Profile_Mainnet",
        "label": "_initializing",
        "offset": 1,
        "slot": "51",
        "type": "t_bool"
      }
    ],
    "types": {
      "t_address": {
        "encoding": "inplace",
        "label": "address",
        "numberOfBytes": "20"
      },
      "t_address_payable": {
        "encoding": "inplace",
        "label": "address payable",
        "numberOfBytes": "20"
      },
      "t_array(t_bytes32)47_storage": {
        "encoding": "inplace",
        "label": "bytes32[47]",
        "numberOfBytes": "1504",
        "base": "t_bytes32"
      },
      "t_bool": {
        "encoding": "inplace",
        "label": "bool",
        "numberOfBytes": "1"
      },
      "t_bytes32": {
        "encoding": "inplace",
        "label": "bytes32",
        "numberOfBytes": "32"
      },
      "t_bytes_storage": {
        "encoding": "bytes",
        "label": "bytes",
        "numberOfBytes": "32"
      },
      "t_mapping(t_address,t_struct(CandidateProfile)7414_storage)": {
        "encoding": "mapping",
        "key": "t_address",
        "label": "mapping(address => struct IProfile.CandidateProfile)",
        "numberOfBytes": "32",
        "value": "t_struct(CandidateProfile)7414_storage"
      },
      "t_mapping(t_uint256,t_bool)": {
        "encoding": "mapping",
        "key": "t_uint256",
        "label": "mapping(uint256 => bool)",
        "numberOfBytes": "32",
        "value": "t_bool"
      },
      "t_mapping(t_userDefinedValueType(TConsensus)38902,t_address)": {
        "encoding": "mapping",
        "key": "t_userDefinedValueType(TConsensus)38902",
        "label": "mapping(TConsensus => address)",
        "numberOfBytes": "32",
        "value": "t_address"
      },
      "t_struct(CandidateProfile)7414_storage": {
        "encoding": "inplace",
        "label": "struct IProfile.CandidateProfile",
        "numberOfBytes": "288",
        "members": [
          {
            "astId": 7387,
            "contract": "contracts/ronin/profile/Profile_Mainnet.sol:Profile_Mainnet",
            "label": "id",
            "offset": 0,
            "slot": "0",
            "type": "t_address"
          },
          {
            "astId": 7391,
            "contract": "contracts/ronin/profile/Profile_Mainnet.sol:Profile_Mainnet",
            "label": "consensus",
            "offset": 0,
            "slot": "1",
            "type": "t_userDefinedValueType(TConsensus)38902"
          },
          {
            "astId": 7394,
            "contract": "contracts/ronin/profile/Profile_Mainnet.sol:Profile_Mainnet",
            "label": "admin",
            "offset": 0,
            "slot": "2",
            "type": "t_address"
          },
          {
            "astId": 7397,
            "contract": "contracts/ronin/profile/Profile_Mainnet.sol:Profile_Mainnet",
            "label": "treasury",
            "offset": 0,
            "slot": "3",
            "type": "t_address_payable"
          },
          {
            "astId": 7400,
            "contract": "contracts/ronin/profile/Profile_Mainnet.sol:Profile_Mainnet",
            "label": "__reservedGovernor",
            "offset": 0,
            "slot": "4",
            "type": "t_address"
          },
          {
            "astId": 7403,
            "contract": "contracts/ronin/profile/Profile_Mainnet.sol:Profile_Mainnet",
            "label": "pubkey",
            "offset": 0,
            "slot": "5",
            "type": "t_bytes_storage"
          },
          {
            "astId": 7406,
            "contract": "contracts/ronin/profile/Profile_Mainnet.sol:Profile_Mainnet",
            "label": "profileLastChange",
            "offset": 0,
            "slot": "6",
            "type": "t_uint256"
          },
          {
            "astId": 7409,
            "contract": "contracts/ronin/profile/Profile_Mainnet.sol:Profile_Mainnet",
            "label": "oldPubkey",
            "offset": 0,
            "slot": "7",
            "type": "t_bytes_storage"
          },
          {
            "astId": 7413,
            "contract": "contracts/ronin/profile/Profile_Mainnet.sol:Profile_Mainnet",
            "label": "oldConsensus",
            "offset": 0,
            "slot": "8",
            "type": "t_userDefinedValueType(TConsensus)38902"
          }
        ]
      },
      "t_uint256": {
        "encoding": "inplace",
        "label": "uint256",
        "numberOfBytes": "32"
      },
      "t_uint8": {
        "encoding": "inplace",
        "label": "uint8",
        "numberOfBytes": "1"
      },
      "t_userDefinedValueType(TConsensus)38902": {
        "encoding": "inplace",
        "label": "TConsensus",
        "numberOfBytes": "20"
      }
    }
  },
  "timestamp": 1711427954,
  "userdoc": {
    "version": 1,
    "kind": "user",
    "methods": {
      "changePubkey(address,bytes,bytes)": {
        "notice": "The candidate admin changes the public key."
      },
      "changeTreasuryAddr(address,address)": {
        "notice": "This method is not supported. Change treasury also requires changing the admin address. Using the {changeAdminAddr} method instead"
      }
    }
  }
}