{
  "abi": [
    {
      "type": "constructor",
      "inputs": [
        {
          "name": "_roninChainId",
          "type": "uint256",
          "internalType": "uint256"
        },
        {
          "name": "_roninTrustedOrganizationContract",
          "type": "address",
          "internalType": "address"
        },
        {
          "name": "_validatorContract",
          "type": "address",
          "internalType": "address"
        },
        {
          "name": "_expiryDuration",
          "type": "uint256",
          "internalType": "uint256"
        }
      ],
      "stateMutability": "nonpayable"
    },
    {
      "type": "function",
      "name": "DOMAIN_SEPARATOR",
      "inputs": [],
      "outputs": [
        {
          "name": "",
          "type": "bytes32",
          "internalType": "bytes32"
        }
      ],
      "stateMutability": "view"
    },
    {
      "type": "function",
      "name": "castProposalBySignatures",
      "inputs": [
        {
          "name": "_proposal",
          "type": "tuple",
          "internalType": "struct Proposal.ProposalDetail",
          "components": [
            {
              "name": "nonce",
              "type": "uint256",
              "internalType": "uint256"
            },
            {
              "name": "chainId",
              "type": "uint256",
              "internalType": "uint256"
            },
            {
              "name": "expiryTimestamp",
              "type": "uint256",
              "internalType": "uint256"
            },
            {
              "name": "targets",
              "type": "address[]",
              "internalType": "address[]"
            },
            {
              "name": "values",
              "type": "uint256[]",
              "internalType": "uint256[]"
            },
            {
              "name": "calldatas",
              "type": "bytes[]",
              "internalType": "bytes[]"
            },
            {
              "name": "gasAmounts",
              "type": "uint256[]",
              "internalType": "uint256[]"
            }
          ]
        },
        {
          "name": "_supports",
          "type": "uint8[]",
          "internalType": "enum Ballot.VoteType[]"
        },
        {
          "name": "_signatures",
          "type": "tuple[]",
          "internalType": "struct SignatureConsumer.Signature[]",
          "components": [
            {
              "name": "v",
              "type": "uint8",
              "internalType": "uint8"
            },
            {
              "name": "r",
              "type": "bytes32",
              "internalType": "bytes32"
            },
            {
              "name": "s",
              "type": "bytes32",
              "internalType": "bytes32"
            }
          ]
        }
      ],
      "outputs": [],
      "stateMutability": "nonpayable"
    },
    {
      "type": "function",
      "name": "castProposalVoteForCurrentNetwork",
      "inputs": [
        {
          "name": "_proposal",
          "type": "tuple",
          "internalType": "struct Proposal.ProposalDetail",
          "components": [
            {
              "name": "nonce",
              "type": "uint256",
              "internalType": "uint256"
            },
            {
              "name": "chainId",
              "type": "uint256",
              "internalType": "uint256"
            },
            {
              "name": "expiryTimestamp",
              "type": "uint256",
              "internalType": "uint256"
            },
            {
              "name": "targets",
              "type": "address[]",
              "internalType": "address[]"
            },
            {
              "name": "values",
              "type": "uint256[]",
              "internalType": "uint256[]"
            },
            {
              "name": "calldatas",
              "type": "bytes[]",
              "internalType": "bytes[]"
            },
            {
              "name": "gasAmounts",
              "type": "uint256[]",
              "internalType": "uint256[]"
            }
          ]
        },
        {
          "name": "_support",
          "type": "uint8",
          "internalType": "enum Ballot.VoteType"
        }
      ],
      "outputs": [],
      "stateMutability": "nonpayable"
    },
    {
      "type": "function",
      "name": "changeProxyAdmin",
      "inputs": [
        {
          "name": "_proxy",
          "type": "address",
          "internalType": "address"
        },
        {
          "name": "_newAdmin",
          "type": "address",
          "internalType": "address"
        }
      ],
      "outputs": [],
      "stateMutability": "nonpayable"
    },
    {
      "type": "function",
      "name": "createEmergencyExitPoll",
      "inputs": [
        {
          "name": "validatorId",
          "type": "address",
          "internalType": "address"
        },
        {
          "name": "recipientAfterUnlockedFund",
          "type": "address",
          "internalType": "address"
        },
        {
          "name": "requestedAt",
          "type": "uint256",
          "internalType": "uint256"
        },
        {
          "name": "expiredAt",
          "type": "uint256",
          "internalType": "uint256"
        }
      ],
      "outputs": [],
      "stateMutability": "nonpayable"
    },
    {
      "type": "function",
      "name": "deleteExpired",
      "inputs": [
        {
          "name": "_chainId",
          "type": "uint256",
          "internalType": "uint256"
        },
        {
          "name": "_round",
          "type": "uint256",
          "internalType": "uint256"
        }
      ],
      "outputs": [],
      "stateMutability": "nonpayable"
    },
    {
      "type": "function",
      "name": "emergencyPollVoted",
      "inputs": [
        {
          "name": "_voteHash",
          "type": "bytes32",
          "internalType": "bytes32"
        },
        {
          "name": "_voter",
          "type": "address",
          "internalType": "address"
        }
      ],
      "outputs": [
        {
          "name": "",
          "type": "bool",
          "internalType": "bool"
        }
      ],
      "stateMutability": "view"
    },
    {
      "type": "function",
      "name": "getContract",
      "inputs": [
        {
          "name": "contractType",
          "type": "uint8",
          "internalType": "enum ContractType"
        }
      ],
      "outputs": [
        {
          "name": "contract_",
          "type": "address",
          "internalType": "address"
        }
      ],
      "stateMutability": "view"
    },
    {
      "type": "function",
      "name": "getProposalExpiryDuration",
      "inputs": [],
      "outputs": [
        {
          "name": "",
          "type": "uint256",
          "internalType": "uint256"
        }
      ],
      "stateMutability": "view"
    },
    {
      "type": "function",
      "name": "getProposalSignatures",
      "inputs": [
        {
          "name": "_chainId",
          "type": "uint256",
          "internalType": "uint256"
        },
        {
          "name": "_round",
          "type": "uint256",
          "internalType": "uint256"
        }
      ],
      "outputs": [
        {
          "name": "_voters",
          "type": "address[]",
          "internalType": "address[]"
        },
        {
          "name": "_supports",
          "type": "uint8[]",
          "internalType": "enum Ballot.VoteType[]"
        },
        {
          "name": "_signatures",
          "type": "tuple[]",
          "internalType": "struct SignatureConsumer.Signature[]",
          "components": [
            {
              "name": "v",
              "type": "uint8",
              "internalType": "uint8"
            },
            {
              "name": "r",
              "type": "bytes32",
              "internalType": "bytes32"
            },
            {
              "name": "s",
              "type": "bytes32",
              "internalType": "bytes32"
            }
          ]
        }
      ],
      "stateMutability": "view"
    },
    {
      "type": "function",
      "name": "getProxyAdmin",
      "inputs": [
        {
          "name": "_proxy",
          "type": "address",
          "internalType": "address"
        }
      ],
      "outputs": [
        {
          "name": "",
          "type": "address",
          "internalType": "address"
        }
      ],
      "stateMutability": "view"
    },
    {
      "type": "function",
      "name": "getProxyImplementation",
      "inputs": [
        {
          "name": "_proxy",
          "type": "address",
          "internalType": "address"
        }
      ],
      "outputs": [
        {
          "name": "",
          "type": "address",
          "internalType": "address"
        }
      ],
      "stateMutability": "view"
    },
    {
      "type": "function",
      "name": "proposalVoted",
      "inputs": [
        {
          "name": "_chainId",
          "type": "uint256",
          "internalType": "uint256"
        },
        {
          "name": "_round",
          "type": "uint256",
          "internalType": "uint256"
        },
        {
          "name": "_voter",
          "type": "address",
          "internalType": "address"
        }
      ],
      "outputs": [
        {
          "name": "",
          "type": "bool",
          "internalType": "bool"
        }
      ],
      "stateMutability": "view"
    },
    {
      "type": "function",
      "name": "propose",
      "inputs": [
        {
          "name": "_chainId",
          "type": "uint256",
          "internalType": "uint256"
        },
        {
          "name": "_expiryTimestamp",
          "type": "uint256",
          "internalType": "uint256"
        },
        {
          "name": "_targets",
          "type": "address[]",
          "internalType": "address[]"
        },
        {
          "name": "_values",
          "type": "uint256[]",
          "internalType": "uint256[]"
        },
        {
          "name": "_calldatas",
          "type": "bytes[]",
          "internalType": "bytes[]"
        },
        {
          "name": "_gasAmounts",
          "type": "uint256[]",
          "internalType": "uint256[]"
        }
      ],
      "outputs": [],
      "stateMutability": "nonpayable"
    },
    {
      "type": "function",
      "name": "proposeProposalForCurrentNetwork",
      "inputs": [
        {
          "name": "_expiryTimestamp",
          "type": "uint256",
          "internalType": "uint256"
        },
        {
          "name": "_targets",
          "type": "address[]",
          "internalType": "address[]"
        },
        {
          "name": "_values",
          "type": "uint256[]",
          "internalType": "uint256[]"
        },
        {
          "name": "_calldatas",
          "type": "bytes[]",
          "internalType": "bytes[]"
        },
        {
          "name": "_gasAmounts",
          "type": "uint256[]",
          "internalType": "uint256[]"
        },
        {
          "name": "_support",
          "type": "uint8",
          "internalType": "enum Ballot.VoteType"
        }
      ],
      "outputs": [],
      "stateMutability": "nonpayable"
    },
    {
      "type": "function",
      "name": "proposeProposalStructAndCastVotes",
      "inputs": [
        {
          "name": "_proposal",
          "type": "tuple",
          "internalType": "struct Proposal.ProposalDetail",
          "components": [
            {
              "name": "nonce",
              "type": "uint256",
              "internalType": "uint256"
            },
            {
              "name": "chainId",
              "type": "uint256",
              "internalType": "uint256"
            },
            {
              "name": "expiryTimestamp",
              "type": "uint256",
              "internalType": "uint256"
            },
            {
              "name": "targets",
              "type": "address[]",
              "internalType": "address[]"
            },
            {
              "name": "values",
              "type": "uint256[]",
              "internalType": "uint256[]"
            },
            {
              "name": "calldatas",
              "type": "bytes[]",
              "internalType": "bytes[]"
            },
            {
              "name": "gasAmounts",
              "type": "uint256[]",
              "internalType": "uint256[]"
            }
          ]
        },
        {
          "name": "_supports",
          "type": "uint8[]",
          "internalType": "enum Ballot.VoteType[]"
        },
        {
          "name": "_signatures",
          "type": "tuple[]",
          "internalType": "struct SignatureConsumer.Signature[]",
          "components": [
            {
              "name": "v",
              "type": "uint8",
              "internalType": "uint8"
            },
            {
              "name": "r",
              "type": "bytes32",
              "internalType": "bytes32"
            },
            {
              "name": "s",
              "type": "bytes32",
              "internalType": "bytes32"
            }
          ]
        }
      ],
      "outputs": [],
      "stateMutability": "nonpayable"
    },
    {
      "type": "function",
      "name": "roninChainId",
      "inputs": [],
      "outputs": [
        {
          "name": "",
          "type": "uint256",
          "internalType": "uint256"
        }
      ],
      "stateMutability": "view"
    },
    {
      "type": "function",
      "name": "round",
      "inputs": [
        {
          "name": "",
          "type": "uint256",
          "internalType": "uint256"
        }
      ],
      "outputs": [
        {
          "name": "",
          "type": "uint256",
          "internalType": "uint256"
        }
      ],
      "stateMutability": "view"
    },
    {
      "type": "function",
      "name": "setContract",
      "inputs": [
        {
          "name": "contractType",
          "type": "uint8",
          "internalType": "enum ContractType"
        },
        {
          "name": "addr",
          "type": "address",
          "internalType": "address"
        }
      ],
      "outputs": [],
      "stateMutability": "nonpayable"
    },
    {
      "type": "function",
      "name": "setProposalExpiryDuration",
      "inputs": [
        {
          "name": "_expiryDuration",
          "type": "uint256",
          "internalType": "uint256"
        }
      ],
      "outputs": [],
      "stateMutability": "nonpayable"
    },
    {
      "type": "function",
      "name": "vote",
      "inputs": [
        {
          "name": "",
          "type": "uint256",
          "internalType": "uint256"
        },
        {
          "name": "",
          "type": "uint256",
          "internalType": "uint256"
        }
      ],
      "outputs": [
        {
          "name": "status",
          "type": "uint8",
          "internalType": "enum VoteStatusConsumer.VoteStatus"
        },
        {
          "name": "hash",
          "type": "bytes32",
          "internalType": "bytes32"
        },
        {
          "name": "againstVoteWeight",
          "type": "uint256",
          "internalType": "uint256"
        },
        {
          "name": "forVoteWeight",
          "type": "uint256",
          "internalType": "uint256"
        },
        {
          "name": "expiryTimestamp",
          "type": "uint256",
          "internalType": "uint256"
        }
      ],
      "stateMutability": "view"
    },
    {
      "type": "function",
      "name": "voteEmergencyExit",
      "inputs": [
        {
          "name": "voteHash",
          "type": "bytes32",
          "internalType": "bytes32"
        },
        {
          "name": "validatorId",
          "type": "address",
          "internalType": "address"
        },
        {
          "name": "recipientAfterUnlockedFund",
          "type": "address",
          "internalType": "address"
        },
        {
          "name": "requestedAt",
          "type": "uint256",
          "internalType": "uint256"
        },
        {
          "name": "expiredAt",
          "type": "uint256",
          "internalType": "uint256"
        }
      ],
      "outputs": [],
      "stateMutability": "nonpayable"
    },
    {
      "type": "event",
      "name": "ContractUpdated",
      "inputs": [
        {
          "name": "contractType",
          "type": "uint8",
          "indexed": true,
          "internalType": "enum ContractType"
        },
        {
          "name": "addr",
          "type": "address",
          "indexed": true,
          "internalType": "address"
        }
      ],
      "anonymous": false
    },
    {
      "type": "event",
      "name": "EmergencyExitPollApproved",
      "inputs": [
        {
          "name": "voteHash",
          "type": "bytes32",
          "indexed": false,
          "internalType": "bytes32"
        }
      ],
      "anonymous": false
    },
    {
      "type": "event",
      "name": "EmergencyExitPollCreated",
      "inputs": [
        {
          "name": "voteHash",
          "type": "bytes32",
          "indexed": false,
          "internalType": "bytes32"
        },
        {
          "name": "validatorId",
          "type": "address",
          "indexed": false,
          "internalType": "address"
        },
        {
          "name": "recipientAfterUnlockedFund",
          "type": "address",
          "indexed": false,
          "internalType": "address"
        },
        {
          "name": "requestedAt",
          "type": "uint256",
          "indexed": false,
          "internalType": "uint256"
        },
        {
          "name": "expiredAt",
          "type": "uint256",
          "indexed": false,
          "internalType": "uint256"
        }
      ],
      "anonymous": false
    },
    {
      "type": "event",
      "name": "EmergencyExitPollExpired",
      "inputs": [
        {
          "name": "voteHash",
          "type": "bytes32",
          "indexed": false,
          "internalType": "bytes32"
        }
      ],
      "anonymous": false
    },
    {
      "type": "event",
      "name": "EmergencyExitPollVoted",
      "inputs": [
        {
          "name": "voteHash",
          "type": "bytes32",
          "indexed": true,
          "internalType": "bytes32"
        },
        {
          "name": "voter",
          "type": "address",
          "indexed": true,
          "internalType": "address"
        }
      ],
      "anonymous": false
    },
    {
      "type": "event",
      "name": "ProposalApproved",
      "inputs": [
        {
          "name": "proposalHash",
          "type": "bytes32",
          "indexed": true,
          "internalType": "bytes32"
        }
      ],
      "anonymous": false
    },
    {
      "type": "event",
      "name": "ProposalCreated",
      "inputs": [
        {
          "name": "chainId",
          "type": "uint256",
          "indexed": true,
          "internalType": "uint256"
        },
        {
          "name": "round",
          "type": "uint256",
          "indexed": true,
          "internalType": "uint256"
        },
        {
          "name": "proposalHash",
          "type": "bytes32",
          "indexed": true,
          "internalType": "bytes32"
        },
        {
          "name": "proposal",
          "type": "tuple",
          "indexed": false,
          "internalType": "struct Proposal.ProposalDetail",
          "components": [
            {
              "name": "nonce",
              "type": "uint256",
              "internalType": "uint256"
            },
            {
              "name": "chainId",
              "type": "uint256",
              "internalType": "uint256"
            },
            {
              "name": "expiryTimestamp",
              "type": "uint256",
              "internalType": "uint256"
            },
            {
              "name": "targets",
              "type": "address[]",
              "internalType": "address[]"
            },
            {
              "name": "values",
              "type": "uint256[]",
              "internalType": "uint256[]"
            },
            {
              "name": "calldatas",
              "type": "bytes[]",
              "internalType": "bytes[]"
            },
            {
              "name": "gasAmounts",
              "type": "uint256[]",
              "internalType": "uint256[]"
            }
          ]
        },
        {
          "name": "creator",
          "type": "address",
          "indexed": false,
          "internalType": "address"
        }
      ],
      "anonymous": false
    },
    {
      "type": "event",
      "name": "ProposalExecuted",
      "inputs": [
        {
          "name": "proposalHash",
          "type": "bytes32",
          "indexed": true,
          "internalType": "bytes32"
        },
        {
          "name": "successCalls",
          "type": "bool[]",
          "indexed": false,
          "internalType": "bool[]"
        },
        {
          "name": "returnDatas",
          "type": "bytes[]",
          "indexed": false,
          "internalType": "bytes[]"
        }
      ],
      "anonymous": false
    },
    {
      "type": "event",
      "name": "ProposalExpired",
      "inputs": [
        {
          "name": "proposalHash",
          "type": "bytes32",
          "indexed": true,
          "internalType": "bytes32"
        }
      ],
      "anonymous": false
    },
    {
      "type": "event",
      "name": "ProposalExpiryDurationChanged",
      "inputs": [
        {
          "name": "duration",
          "type": "uint256",
          "indexed": true,
          "internalType": "uint256"
        }
      ],
      "anonymous": false
    },
    {
      "type": "event",
      "name": "ProposalRejected",
      "inputs": [
        {
          "name": "proposalHash",
          "type": "bytes32",
          "indexed": true,
          "internalType": "bytes32"
        }
      ],
      "anonymous": false
    },
    {
      "type": "event",
      "name": "ProposalVoted",
      "inputs": [
        {
          "name": "proposalHash",
          "type": "bytes32",
          "indexed": true,
          "internalType": "bytes32"
        },
        {
          "name": "voter",
          "type": "address",
          "indexed": true,
          "internalType": "address"
        },
        {
          "name": "support",
          "type": "uint8",
          "indexed": false,
          "internalType": "enum Ballot.VoteType"
        },
        {
          "name": "weight",
          "type": "uint256",
          "indexed": false,
          "internalType": "uint256"
        }
      ],
      "anonymous": false
    },
    {
      "type": "error",
      "name": "ErrAlreadyVoted",
      "inputs": [
        {
          "name": "voter",
          "type": "address",
          "internalType": "address"
        }
      ]
    },
    {
      "type": "error",
      "name": "ErrContractTypeNotFound",
      "inputs": [
        {
          "name": "contractType",
          "type": "uint8",
          "internalType": "enum ContractType"
        }
      ]
    },
    {
      "type": "error",
      "name": "ErrCurrentProposalIsNotCompleted",
      "inputs": []
    },
    {
      "type": "error",
      "name": "ErrInsufficientGas",
      "inputs": [
        {
          "name": "proposalHash",
          "type": "bytes32",
          "internalType": "bytes32"
        }
      ]
    },
    {
      "type": "error",
      "name": "ErrInvalidChainId",
      "inputs": [
        {
          "name": "msgSig",
          "type": "bytes4",
          "internalType": "bytes4"
        },
        {
          "name": "actual",
          "type": "uint256",
          "internalType": "uint256"
        },
        {
          "name": "expected",
          "type": "uint256",
          "internalType": "uint256"
        }
      ]
    },
    {
      "type": "error",
      "name": "ErrInvalidExpiryTimestamp",
      "inputs": []
    },
    {
      "type": "error",
      "name": "ErrInvalidOrder",
      "inputs": [
        {
          "name": "msgSig",
          "type": "bytes4",
          "internalType": "bytes4"
        }
      ]
    },
    {
      "type": "error",
      "name": "ErrInvalidProposal",
      "inputs": [
        {
          "name": "actual",
          "type": "bytes32",
          "internalType": "bytes32"
        },
        {
          "name": "expected",
          "type": "bytes32",
          "internalType": "bytes32"
        }
      ]
    },
    {
      "type": "error",
      "name": "ErrInvalidProposalNonce",
      "inputs": [
        {
          "name": "msgSig",
          "type": "bytes4",
          "internalType": "bytes4"
        }
      ]
    },
    {
      "type": "error",
      "name": "ErrInvalidSignatures",
      "inputs": [
        {
          "name": "msgSig",
          "type": "bytes4",
          "internalType": "bytes4"
        }
      ]
    },
    {
      "type": "error",
      "name": "ErrInvalidVoteHash",
      "inputs": []
    },
    {
      "type": "error",
      "name": "ErrLengthMismatch",
      "inputs": [
        {
          "name": "msgSig",
          "type": "bytes4",
          "internalType": "bytes4"
        }
      ]
    },
    {
      "type": "error",
      "name": "ErrOnlySelfCall",
      "inputs": [
        {
          "name": "msgSig",
          "type": "bytes4",
          "internalType": "bytes4"
        }
      ]
    },
    {
      "type": "error",
      "name": "ErrQueryForEmptyVote",
      "inputs": []
    },
    {
      "type": "error",
      "name": "ErrQueryForExpiredVote",
      "inputs": []
    },
    {
      "type": "error",
      "name": "ErrQueryForNonExistentVote",
      "inputs": []
    },
    {
      "type": "error",
      "name": "ErrUnauthorized",
      "inputs": [
        {
          "name": "msgSig",
          "type": "bytes4",
          "internalType": "bytes4"
        },
        {
          "name": "expectedRole",
          "type": "uint8",
          "internalType": "enum RoleAccess"
        }
      ]
    },
    {
      "type": "error",
      "name": "ErrUnexpectedInternalCall",
      "inputs": [
        {
          "name": "msgSig",
          "type": "bytes4",
          "internalType": "bytes4"
        },
        {
          "name": "expectedContractType",
          "type": "uint8",
          "internalType": "enum ContractType"
        },
        {
          "name": "actual",
          "type": "address",
          "internalType": "address"
        }
      ]
    },
    {
      "type": "error",
      "name": "ErrUnsupportedVoteType",
      "inputs": [
        {
          "name": "msgSig",
          "type": "bytes4",
          "internalType": "bytes4"
        }
      ]
    },
    {
      "type": "error",
      "name": "ErrVoteIsFinalized",
      "inputs": []
    },
    {
      "type": "error",
      "name": "ErrZeroCodeContract",
      "inputs": [
        {
          "name": "addr",
          "type": "address",
          "internalType": "address"
        }
      ]
    }
  ],
  "address": "0x70fd02049333337a534a9383149c9a99ddf65495",
  "args": "0x00000000000000000000000000000000000000000000000000000000000007e400000000000000000000000098d0230884448b3e2f09a177433d60fb1e19c090000000000000000000000000617c5d73662282ea7ffd231e020eca6d2b0d552f0000000000000000000000000000000000000000000000000000000000127500",
  "blockNumber": 32568882,
  "bytecode": "0x60806040523480156200001157600080fd5b506040516200401e3803806200401e83398101604081905262000034916200021c565b838382620000428162000122565b506005829055604080518181526020810184815260169282019283527f524f4e494e5f474f5645524e414e43455f41444d494e000000000000000000006060830190815260808084207f599a80fcaa47b95e2323ab4d34d34e0cc9feda4b843edafcc30c7bdf60ea15bf85527f7e7935007966eb860f4a2ee3dcc9fd53fb3205ce2aa86b0126d4893d4d4c14b99093527f2a80e1ef1d7842f27f2e6be0972bb708b9a135c38860dbe73c27c3486c34f4de909452522060065562000108600a8262000155565b5062000118905060088362000155565b505050506200027b565b600281905560405181907fe5cd1c123a8cf63fa1b7229678db61fe8ae99dbbd27889370b6667c8cae97da190600090a250565b807fdea3103d22025c269050bea94c0c84688877f12fa22b7e6d2d5d78a9a49aa1cb600084600f8111156200018e576200018e62000265565b60ff168152602081019190915260400160002080546001600160a01b0319166001600160a01b03928316179055811682600f811115620001d257620001d262000265565b6040517f865d1c228a8ea13709cfe61f346f7ff67f1bbd4a18ff31ad3e7147350d317c5990600090a35050565b80516001600160a01b03811681146200021757600080fd5b919050565b600080600080608085870312156200023357600080fd5b845193506200024560208601620001ff565b92506200025560408601620001ff565b6060959095015193969295505050565b634e487b7160e01b600052602160045260246000fd5b613d93806200028b6000396000f3fe608060405234801561001057600080fd5b50600436106101815760003560e01c8063865e6fd3116100d8578063a8a0e32c1161008c578063dcc3eb1911610066578063dcc3eb1914610371578063de981f1b14610384578063f3b7dead1461039757600080fd5b8063a8a0e32c146102fb578063b384abef1461030e578063bc96180b1461036957600080fd5b80639e0dc0b3116100bd5780639e0dc0b3146102c2578063a1819f9a146102d5578063a2fae570146102e857600080fd5b8063865e6fd31461029c5780639a7d3382146102af57600080fd5b80632c5e65201161013a5780633644e515116101145780633644e5151461026d578063663ac011146102765780637eff275e1461028957600080fd5b80632c5e6520146102175780632e96a6fb1461023a57806334d5f37b1461024d57600080fd5b806317ce2dd41161016b57806317ce2dd4146101ae5780631c905e39146101ca578063204e1c7a146101ec57600080fd5b80624054b8146101865780630b8818301461019b575b600080fd5b610199610194366004612ff5565b6103aa565b005b6101996101a9366004612ff5565b6103ca565b6101b760055481565b6040519081526020015b60405180910390f35b6101dd6101d83660046130b7565b6103da565b6040516101c193929190613148565b6101ff6101fa366004613210565b6103f6565b6040516001600160a01b0390911681526020016101c1565b61022a61022536600461322d565b6104c9565b60405190151581526020016101c1565b610199610248366004613266565b6104e0565b6101b761025b366004613266565b60006020819052908152604090205481565b6101b760065481565b61019961028436600461328e565b6104f4565b61019961029736600461336c565b6105e0565b6101996102aa3660046133b4565b6106b0565b6101996102bd3660046130b7565b6106cf565b6101996102d03660046133d0565b610734565b6101996102e3366004613422565b610991565b6101996102f63660046134fc565b610a57565b610199610309366004613542565b610b25565b61035861031c3660046130b7565b600160208181526000938452604080852090915291835291208054918101546002820154600383015460069093015460ff909416939192909185565b6040516101c1959493929190613590565b6101b7610b40565b61022a61037f3660046135c5565b610b50565b6101ff6103923660046135ea565b610b82565b6101ff6103a5366004613210565b610c1f565b6103b2610c82565b6103c3858585858560065433610cd7565b5050505050565b6103c38585858585600654610dff565b60608060606103e98585610f1b565b9250925092509250925092565b60408051600481526024810182526020810180516001600160e01b03167f5c60da1b00000000000000000000000000000000000000000000000000000000908117909152915160009291839182916001600160a01b038716916104599190613629565b600060405180830381855afa9150503d8060008114610494576040519150601f19603f3d011682016040523d82523d6000602084013e610499565b606091505b5090925090506104ac8215158483611307565b808060200190518101906104c09190613645565b95945050505050565b60006104d6848484611347565b90505b9392505050565b6104e861137d565b6104f1816113c4565b50565b6104fc610c82565b600033905060006105c5468d8d8d80806020026020016040519081016040528093929190818152602001838360200280828437600081840152601f19601f820116905080830192505050505050508c8c8080602002602001604051908101604052809392919081815260200183836020028082843760009201919091525061058a92508d91508e90506137c7565b8a8a808060200260200160405190810160405280939291908181526020018383602002808284376000920191909152508b92506113f7915050565b90506105d2828285611545565b505050505050505050505050565b6105e861137d565b604080516001600160a01b0383811660248084019190915283518084039091018152604490920183526020820180516001600160e01b03167f8f283970000000000000000000000000000000000000000000000000000000009081179091529251600092839287169161065b9190613629565b6000604051808303816000865af19150503d8060008114610698576040519150601f19603f3d011682016040523d82523d6000602084013e61069d565b606091505b5090925090506103c38215158483611307565b6106b861137d565b6106c181611667565b6106cb82826116b6565b5050565b6000828152600160208181526040808420858552909152822090810154909103610725576040517fe276132e00000000000000000000000000000000000000000000000000000000815260040160405180910390fd5b61072e81611767565b50505050565b61073c610c82565b33600061078c86868686604080517f697acba4deaf1a718d8c2d93e42860488cb7812696f28ca10eed17bac41e7027815260208101959095528401929092526060830152608082015260a0902090565b90508087146107c7576040517f23b029f500000000000000000000000000000000000000000000000000000000815260040160405180910390fd5b60008181526008602052604081206004810154909103610813576040517f2baffa2800000000000000000000000000000000000000000000000000000000815260040160405180910390fd5b6004815460ff16600481111561082b5761082b61311e565b03610862576040517fc324f30d00000000000000000000000000000000000000000000000000000000815260040160405180910390fd5b61086d81848461197c565b6040516001600160a01b0384169083907f903555bcf22239155f645431a67d9da9b85888c59ce9bf913c25a035ead6e99790600090a360006108af8284611a3f565b905060006108d06108be611b2e565b6108c784611c51565b85919087611d81565b905060018160048111156108e6576108e661311e565b03610938576108f58989611dcd565b6040518481527fd3500576a0d4923326fbb893cf2169273e0df93f3cb6b94b83f2ca2e0ecb681b9060200160405180910390a1825460ff19166002178355610985565b600481600481111561094c5761094c61311e565b03610985576040518481527feecb3148acc573548e89cb64eb5f2023a61171f1c413ed8bf0fe506c19aeebe49060200160405180910390a15b50505050505050505050565b610999610c82565b610a4a8a8a8a8a8080602002602001604051908101604052809392919081815260200183836020028082843760009201919091525050604080516020808e0282810182019093528d82529093508d92508c918291850190849080828437600092019190915250610a0f92508a91508b90506137c7565b8787808060200260200160405190810160405280939291908181526020018383602002808284376000920191909152503392506113f7915050565b5050505050505050505050565b6008610a6281611eac565b604080517f697acba4deaf1a718d8c2d93e42860488cb7812696f28ca10eed17bac41e7027815260208082018890528183018790526060808301879052608080840187905260a0938490206000818152600885528690204260048201556003810189905586518281526001600160a01b03808e1696820196909652948b1685880152928401899052908301879052935190927f18ea835340bb2973a31996158138f109e9c5b9cfdb2424e999e6b1a9ce565de8928290030190a150505050505050565b610b2d610c82565b6106cb33610b3a846138c6565b83611545565b6000610b4b60025490565b905090565b60008281526008602090815260408083206001600160a01b038516845260020190915281205415155b90505b92915050565b60007fdea3103d22025c269050bea94c0c84688877f12fa22b7e6d2d5d78a9a49aa1cb600083600f811115610bb957610bb961311e565b60ff1681526020810191909152604001600020546001600160a01b0316905080610c1a57816040517f812281be000000000000000000000000000000000000000000000000000000008152600401610c1191906139ab565b60405180910390fd5b919050565b60408051600481526024810182526020810180516001600160e01b03167ff851a44000000000000000000000000000000000000000000000000000000000908117909152915160009291839182916001600160a01b038716916104599190613629565b610c8b33611f11565b600003610cd5576000356001600160e01b03191660036040517f3e523c00000000000000000000000000000000000000000000000000000000008152600401610c119291906139b9565b565b610ce9610ce3886138c6565b82611f6f565b506000610cfd610cf8896138c6565b612075565b9050610df5610d0b896138c6565b88888888610dad89610d52896000604080517fd900570327c4c0df8dd6bdd522b7da7e39145dd049d2fd4602276adcd511e3c2815260208101939093528201526060902090565b6040517f19010000000000000000000000000000000000000000000000000000000000006020820152602281018390526042810182905260009060620160405160208183030381529060405280519060200120905092915050565b610df08a610d528a6001604080517fd900570327c4c0df8dd6bdd522b7da7e39145dd049d2fd4602276adcd511e3c2815260208101939093528201526060902090565b6121b5565b5050505050505050565b6000610e0d610cf8886138c6565b6020808901356000908152600180835260408083208c35845290935291902001549091508114610e7c576020808801356000908152600180835260408083208b3584529093529082902001549051632bee7fdb60e21b8152610c11918391600401918252602082015260400190565b610f12610e88886138c6565b87878787610ecf88610d52896000604080517fd900570327c4c0df8dd6bdd522b7da7e39145dd049d2fd4602276adcd511e3c2815260208101939093528201526060902090565b610df089610d528a6001604080517fd900570327c4c0df8dd6bdd522b7da7e39145dd049d2fd4602276adcd511e3c2815260208101939093528201526060902090565b50505050505050565b60008281526001602090815260408083208484529091528120600481015460058201546060938493849390929091610f5382846139fd565b90508067ffffffffffffffff811115610f6e57610f6e613662565b604051908082528060200260200182016040528015610f97578160200160208202803683370190505b5095508067ffffffffffffffff811115610fb357610fb3613662565b604051908082528060200260200182016040528015610ffe57816020015b6040805160608101825260008082526020808301829052928201528252600019909201910181610fd15790505b5094508067ffffffffffffffff81111561101a5761101a613662565b604051908082528060200260200182016040528015611043578160200160208202803683370190505b50965060005b8381101561119857600087828151811061106557611065613a10565b6020026020010190600181111561107e5761107e61311e565b908160018111156110915761109161311e565b90525060008a81526001602090815260408083208c8452909152812060048701805460079092019291849081106110ca576110ca613a10565b60009182526020808320909101546001600160a01b0316835282810193909352604091820190208151606081018352815460ff1681526001820154938101939093526002015490820152865187908390811061112857611128613a10565b602002602001018190525084600401818154811061114857611148613a10565b9060005260206000200160009054906101000a90046001600160a01b031688828151811061117857611178613a10565b6001600160a01b0390921660209283029190910190910152600101611049565b5060005b828110156112fb576001876111b186846139fd565b815181106111c1576111c1613a10565b602002602001019060018111156111da576111da61311e565b908160018111156111ed576111ed61311e565b90525060008a81526001602090815260408083208c84529091528120600587018054600790920192918490811061122657611226613a10565b60009182526020808320909101546001600160a01b0316835282810193909352604091820190208151606081018352815460ff16815260018201549381019390935260020154908201528661127b86846139fd565b8151811061128b5761128b613a10565b60200260200101819052508460050181815481106112ab576112ab613a10565b6000918252602090912001546001600160a01b0316886112cb86846139fd565b815181106112db576112db613a10565b6001600160a01b039092166020928302919091019091015260010161119c565b50505050509250925092565b6001600160e01b0319600035168361072e5781518015611328578060208401fd5b50604051638e3eda2b81528160208201528360408201526044601c8201fd5b600083815260016020908152604080832085845282528083206001600160a01b038516845260080190915281205460ff166104d6565b333014610cd5576040517f7337e1900000000000000000000000000000000000000000000000000000000081526001600160e01b0319600035166004820152602401610c11565b600281905560405181907fe5cd1c123a8cf63fa1b7229678db61fe8ae99dbbd27889370b6667c8cae97da190600090a250565b6114376040518060e00160405280600081526020016000815260200160008152602001606081526020016060815260200160608152602001606081525090565b876000036114725760405163092048d160e11b8152600080356001600160e01b03191660048301526024820152466044820152606401610c11565b600061147d89612465565b90506040518060e001604052808281526020018a81526020018981526020018881526020018781526020018681526020018581525091506114c96002548361252e90919063ffffffff16565b60006114d483612075565b60008b81526001602081815260408084208785529091529091209081018290556006018a9055905080828b7fa57d40f1496988cf60ab7c9d5ba4ff83647f67d3898d441a3aaf21b651678fd98688604051611530929190613add565b60405180910390a45050979650505050505050565b4682602001511461158a57602082015160405163092048d160e11b81526000356001600160e01b03191660048201526024810191909152466044820152606401610c11565b600061159583612075565b602080850151600090815260018083526040808320885184529093529190200154909150811461160457602080840151600090815260018083526040808320875184529093529082902001549051632bee7fdb60e21b8152610c11918391600401918252602082015260400190565b600061160e611b2e565b905060008161161b6125e8565b6116259190613bc6565b6116309060016139fd565b6040805160608101825260008082526020820181905291810191909152909150610df5868685858b866116628e611f11565b612617565b806001600160a01b03163b6000036104f1576040517f2ff1928c0000000000000000000000000000000000000000000000000000000081526001600160a01b0382166004820152602401610c11565b807fdea3103d22025c269050bea94c0c84688877f12fa22b7e6d2d5d78a9a49aa1cb600084600f8111156116ec576116ec61311e565b60ff1681526020810191909152604001600020805473ffffffffffffffffffffffffffffffffffffffff19166001600160a01b03928316179055811682600f81111561173a5761173a61311e565b6040517f865d1c228a8ea13709cfe61f346f7ff67f1bbd4a18ff31ad3e7147350d317c5990600090a35050565b600080825460ff1660048111156117805761178061311e565b148015611791575042826006015411155b90508015610c1a5760018201546040517f58f98006a7f2f253f8ae8f8b7cec9008ca05359633561cd7c22f3005682d4a5590600090a260005b600483015481101561187d578260080160008460040183815481106117f1576117f1613a10565b60009182526020808320909101546001600160a01b031683528201929092526040018120805460ff19169055600484018054600786019291908490811061183a5761183a613a10565b60009182526020808320909101546001600160a01b031683528201929092526040018120805460ff191681556001818101839055600290910191909155016117ca565b5060005b6005830154811015611934578260080160008460050183815481106118a8576118a8613a10565b60009182526020808320909101546001600160a01b031683528201929092526040018120805460ff1916905560058401805460078601929190849081106118f1576118f1613a10565b60009182526020808320909101546001600160a01b031683528201929092526040018120805460ff19168155600181810183905560029091019190915501611881565b50815460ff191682556000600183018190556002830181905560038301819055611962906004840190612f5f565b611970600583016000612f5f565b60006006830155919050565b60008360030154118015611994575042836003015411155b156119a557825460ff191660041783555b6001600160a01b0382166000908152600284016020526040902054156119e95760405163025fd59560e41b81526001600160a01b0383166004820152602401610c11565b6001600160a01b0390911660008181526002840160209081526040822093909355600590930180546001810182559084529190922001805473ffffffffffffffffffffffffffffffffffffffff19169091179055565b600582015460609060009067ffffffffffffffff811115611a6257611a62613662565b604051908082528060200260200182016040528015611a8b578160200160208202803683370190505b50915060005b8251811015611b25576000856005018281548110611ab157611ab1613a10565b60009182526020808320909101546001600160a01b031680835260028901909152604090912054909150859003611b1c5780848480600101955081518110611afb57611afb613a10565b60200260200101906001600160a01b031690816001600160a01b0316815250505b50600101611a91565b50815292915050565b60007f7de5dedd000000000000000000000000000000000000000000000000000000008180611b5d600a610b82565b6040805160048152602480820183526020820180516001600160e01b03166001600160e01b0319891617905291516001600160a01b039390931692634bb5274a92611ba9929101613bd9565b6040516020818303038152906040529060e01b6020820180516001600160e01b038381831617835250505050604051611be29190613629565b600060405180830381855afa9150503d8060008114611c1d576040519150601f19603f3d011682016040523d82523d6000602084013e611c22565b606091505b509092509050611c358215158483611307565b80806020019051810190611c499190613bec565b935050505090565b60007f903bb3c5000000000000000000000000000000000000000000000000000000008180611c80600a610b82565b6001600160a01b0316634bb5274a8487604051602401611ca09190613c05565b60408051601f198184030181529181526020820180516001600160e01b03166001600160e01b0319909416939093179092529051611ce19190602401613bd9565b6040516020818303038152906040529060e01b6020820180516001600160e01b038381831617835250505050604051611d1a9190613629565b600060405180830381855afa9150503d8060008114611d55576040519150601f19603f3d011682016040523d82523d6000602084013e611d5a565b606091505b509092509050611d6d8215158483611307565b808060200190518101906104c09190613bec565b6000838310158015611da857506000855460ff166004811115611da657611da661311e565b145b15611dc057845460ff19166001908117865585018290555b5050915460ff1692915050565b7fc3c8b5d600000000000000000000000000000000000000000000000000000000600080611dfb6008610b82565b6001600160a01b0316634bb5274a848787604051602401611e329291906001600160a01b0392831681529116602082015260400190565b60408051601f198184030181529181526020820180516001600160e01b03166001600160e01b0319909416939093179092529051611e739190602401613bd9565b6040516020818303038152906040529060e01b6020820180516001600160e01b03838183161783525050505060405161065b9190613629565b611eb581610b82565b6001600160a01b0316336001600160a01b0316146104f1576000356001600160e01b03191681336040517f8383e634000000000000000000000000000000000000000000000000000000008152600401610c1193929190613c18565b60007fd78392f8000000000000000000000000000000000000000000000000000000008180611f40600a610b82565b6001600160a01b0316634bb5274a8487604051602401611ca091906001600160a01b0391909116815260200190565b6020820151600090808203611fb15760405163092048d160e11b8152600080356001600160e01b03191660048301526024820152466044820152606401610c11565b600254611fbf90859061252e565b6000611fca85612075565b9050611fd582612465565b600083815260016020818152604080842085855290915291829020918801519082018490556006909101559250845183146120315760405163d4cec26960e01b81526001600160e01b0319600035166004820152602401610c11565b8083837fa57d40f1496988cf60ab7c9d5ba4ff83647f67d3898d441a3aaf21b651678fd98888604051612065929190613add565b60405180910390a4505092915050565b6080810151606082015160a0830151516000929190839067ffffffffffffffff8111156120a4576120a4613662565b6040519080825280602002602001820160405280156120cd578160200160208202803683370190505b5060c086015190915060005b825181101561212c578660a0015181815181106120f8576120f8613a10565b60200260200101518051906020012083828151811061211957612119613a10565b60209081029190910101526001016120d9565b50604080517fd051578048e6ff0bbc9fca3b65a42088dbde10f36ca841de566711087ad9b08a8152875160208083019190915280890151828401529790910151606082015283518702938701939093206080840152835186029386019390932060a0830152805185029085012060c082015281518402919093012060e083015250610100902090565b84158015906121c357508483145b6121ee576040516306b5667560e21b81526001600160e01b0319600035166004820152602401610c11565b60006121f8611b2e565b90506000816122056125e8565b61220f9190613bc6565b61221a9060016139fd565b9050600080366000805b89811015612410578a8a8281811061223e5761223e613a10565b606002919091019350600090508d8d8381811061225d5761225d613a10565b90506020020160208101906122729190613c4d565b60018111156122835761228361311e565b036122af576122a8896122996020860186613c79565b85602001358660400135612994565b935061233f565b60018d8d838181106122c3576122c3613a10565b90506020020160208101906122d89190613c4d565b60018111156122e9576122e961311e565b036122ff576122a8886122996020860186613c79565b6040517f0c24831e0000000000000000000000000000000000000000000000000000000081526001600160e01b0319600035166004820152602401610c11565b836001600160a01b0316856001600160a01b031610612398576040517f5d3dcd310000000000000000000000000000000000000000000000000000000081526001600160e01b0319600035166004820152602401610c11565b83945060006123a685611f11565b9050801561240757600192506123f58f8f8f858181106123c8576123c8613a10565b90506020020160208101906123dd9190613c4d565b8a8a896123ef368b90038b018b613c94565b87612617565b15612407575050505050505050610f12565b50600101612224565b5080612456576040517f726b3acb0000000000000000000000000000000000000000000000000000000081526001600160e01b0319600035166004820152602401610c11565b50505050505050505050505050565b600081815260208190526040812054908190036124945750600090815260208190526040902060019081905590565b60008281526001602090815260408083208484529091528120906124b782611767565b905080612527576000825460ff1660048111156124d6576124d661311e565b0361250d576040517f757a436300000000000000000000000000000000000000000000000000000000815260040160405180910390fd5b600084815260208190526040902080546001019081905592505b5050919050565b600082606001515111801561254c5750816080015151826060015151145b801561256157508160a0015151826060015151145b801561257657508160c0015151826060015151145b6125a1576040516306b5667560e21b81526001600160e01b0319600035166004820152602401610c11565b6125ab81426139fd565b826040015111156106cb576040517fad89be9d00000000000000000000000000000000000000000000000000000000815260040160405180910390fd5b60007f96c82e57000000000000000000000000000000000000000000000000000000008180611b5d600a610b82565b6020808801518851600082815260018452604080822083835290945292832061263f81611767565b156126505760019350505050612989565b6020808c0151600090815290819052604090205482146126915760405163d4cec26960e01b81526001600160e01b0319600035166004820152602401610c11565b6000815460ff1660048111156126a9576126a961311e565b146126e0576040517f8b7a57fc00000000000000000000000000000000000000000000000000000000815260040160405180910390fd5b6001600160a01b038716600090815260088201602052604090205460ff16156127275760405163025fd59560e41b81526001600160a01b0388166004820152602401610c11565b6001600160a01b03871660009081526008820160209081526040909120805460ff191660011790558601511515806127625750604086015115155b806127705750855160ff1615155b156127b7576001600160a01b03871660009081526007820160209081526040918290208851815460ff191660ff909116178155908801516001820155908701516002909101555b866001600160a01b031681600101547f1203f9e81c814a35f5f4cc24087b2a24c6fb7986a9f1406b68a9484882c93a238c886040516127f7929190613cf5565b60405180910390a3600080808c60018111156128155761281561311e565b036128775760048301805460018101825560009182526020822001805473ffffffffffffffffffffffffffffffffffffffff19166001600160a01b038c1617905560038401805489929061286a9084906139fd565b92505081905591506128e9565b60018c600181111561288b5761288b61311e565b036122ff5760058301805460018101825560009182526020822001805473ffffffffffffffffffffffffffffffffffffffff19166001600160a01b038c161790556002840180548992906128e09084906139fd565b92505081905590505b8a821061293d57825460ff19166001908117845580840154604051919750907f5c819725ea53655a3b898f3df59b66489761935454e9212ca1e5ebd759953d0b90600090a2612938838e6129bc565b612983565b89811061298357825460ff19166003178355600180840154604051919750907f55295d4ce992922fa2e5ffbf3a3dcdb367de0a15e125ace083456017fd22060f90600090a25b50505050505b979650505050505050565b60008060006129a587878787612a29565b915091506129b281612b16565b5095945050505050565b6129c581612ccc565b156106cb57815460ff191660021782556000806129e183612ce6565b9150915083600101547fe134987599ae266ec90edeff1b26125b287dbb57b10822649432d1bb26537fba8383604051612a1b929190613d03565b60405180910390a250505050565b6000807f7fffffffffffffffffffffffffffffff5d576e7357a4501ddfe92f46681b20a0831115612a605750600090506003612b0d565b8460ff16601b14158015612a7857508460ff16601c14155b15612a895750600090506004612b0d565b6040805160008082526020820180845289905260ff881692820192909252606081018690526080810185905260019060a0016020604051602081039080840390855afa158015612add573d6000803e3d6000fd5b5050604051601f1901519150506001600160a01b038116612b0657600060019250925050612b0d565b9150600090505b94509492505050565b6000816004811115612b2a57612b2a61311e565b03612b325750565b6001816004811115612b4657612b4661311e565b03612b935760405162461bcd60e51b815260206004820152601860248201527f45434453413a20696e76616c6964207369676e617475726500000000000000006044820152606401610c11565b6002816004811115612ba757612ba761311e565b03612bf45760405162461bcd60e51b815260206004820152601f60248201527f45434453413a20696e76616c6964207369676e6174757265206c656e677468006044820152606401610c11565b6003816004811115612c0857612c0861311e565b03612c605760405162461bcd60e51b815260206004820152602260248201527f45434453413a20696e76616c6964207369676e6174757265202773272076616c604482015261756560f01b6064820152608401610c11565b6004816004811115612c7457612c7461311e565b036104f15760405162461bcd60e51b815260206004820152602260248201527f45434453413a20696e76616c6964207369676e6174757265202776272076616c604482015261756560f01b6064820152608401610c11565b6000816020015160001480610b7c57505060200151461490565b606080612cf283612ccc565b612d3057602083015160405163092048d160e11b81526000356001600160e01b03191660048201526024810191909152466044820152606401610c11565b82606001515167ffffffffffffffff811115612d4e57612d4e613662565b604051908082528060200260200182016040528015612d77578160200160208202803683370190505b50915082606001515167ffffffffffffffff811115612d9857612d98613662565b604051908082528060200260200182016040528015612dcb57816020015b6060815260200190600190039081612db65790505b50905060005b836060015151811015612f59578360c001518181518110612df457612df4613a10565b60200260200101515a11612e4057612e0b84612075565b6040517f1ebb12ac000000000000000000000000000000000000000000000000000000008152600401610c1191815260200190565b83606001518181518110612e5657612e56613a10565b60200260200101516001600160a01b031684608001518281518110612e7d57612e7d613a10565b60200260200101518560c001518381518110612e9b57612e9b613a10565b6020026020010151908660a001518481518110612eba57612eba613a10565b6020026020010151604051612ecf9190613629565b600060405180830381858888f193505050503d8060008114612f0d576040519150601f19603f3d011682016040523d82523d6000602084013e612f12565b606091505b50848381518110612f2557612f25613a10565b60200260200101848481518110612f3e57612f3e613a10565b60209081029190910101919091529015159052600101612dd1565b50915091565b50805460008255906000526020600020908101906104f191905b80821115612f8d5760008155600101612f79565b5090565b600060e08284031215612fa357600080fd5b50919050565b60008083601f840112612fbb57600080fd5b50813567ffffffffffffffff811115612fd357600080fd5b6020830191508360208260051b8501011115612fee57600080fd5b9250929050565b60008060008060006060868803121561300d57600080fd5b853567ffffffffffffffff8082111561302557600080fd5b61303189838a01612f91565b9650602088013591508082111561304757600080fd5b61305389838a01612fa9565b9096509450604088013591508082111561306c57600080fd5b818801915088601f83011261308057600080fd5b81358181111561308f57600080fd5b8960206060830285010111156130a457600080fd5b9699959850939650602001949392505050565b600080604083850312156130ca57600080fd5b50508035926020909101359150565b60008151808452602080850194506020840160005b838110156131135781516001600160a01b0316875295820195908201906001016130ee565b509495945050505050565b634e487b7160e01b600052602160045260246000fd5b600281106131445761314461311e565b9052565b6000606080835261315c60608401876130d9565b83810360208581019190915286518083528782019282019060005b8181101561319a5761318a838651613134565b9383019391830191600101613177565b50506040925085810360408701528087518083528383019150838901925060005b818110156131eb578351805160ff16845285810151868501528601518684015292840192918601916001016131bb565b50909a9950505050505050505050565b6001600160a01b03811681146104f157600080fd5b60006020828403121561322257600080fd5b81356104d9816131fb565b60008060006060848603121561324257600080fd5b8335925060208401359150604084013561325b816131fb565b809150509250925092565b60006020828403121561327857600080fd5b5035919050565b803560028110610c1a57600080fd5b60008060008060008060008060008060c08b8d0312156132ad57600080fd5b8a35995060208b013567ffffffffffffffff808211156132cc57600080fd5b6132d88e838f01612fa9565b909b50995060408d01359150808211156132f157600080fd5b6132fd8e838f01612fa9565b909950975060608d013591508082111561331657600080fd5b6133228e838f01612fa9565b909750955060808d013591508082111561333b57600080fd5b506133488d828e01612fa9565b909450925061335b905060a08c0161327f565b90509295989b9194979a5092959850565b6000806040838503121561337f57600080fd5b823561338a816131fb565b9150602083013561339a816131fb565b809150509250929050565b803560108110610c1a57600080fd5b600080604083850312156133c757600080fd5b61338a836133a5565b600080600080600060a086880312156133e857600080fd5b8535945060208601356133fa816131fb565b9350604086013561340a816131fb565b94979396509394606081013594506080013592915050565b60008060008060008060008060008060c08b8d03121561344157600080fd5b8a35995060208b0135985060408b013567ffffffffffffffff8082111561346757600080fd5b6134738e838f01612fa9565b909a50985060608d013591508082111561348c57600080fd5b6134988e838f01612fa9565b909850965060808d01359150808211156134b157600080fd5b6134bd8e838f01612fa9565b909650945060a08d01359150808211156134d657600080fd5b506134e38d828e01612fa9565b915080935050809150509295989b9194979a5092959850565b6000806000806080858703121561351257600080fd5b843561351d816131fb565b9350602085013561352d816131fb565b93969395505050506040820135916060013590565b6000806040838503121561355557600080fd5b823567ffffffffffffffff81111561356c57600080fd5b61357885828601612f91565b9250506135876020840161327f565b90509250929050565b60a08101600587106135a4576135a461311e565b95815260208101949094526040840192909252606083015260809091015290565b600080604083850312156135d857600080fd5b82359150602083013561339a816131fb565b6000602082840312156135fc57600080fd5b610b79826133a5565b60005b83811015613620578181015183820152602001613608565b50506000910152565b6000825161363b818460208701613605565b9190910192915050565b60006020828403121561365757600080fd5b81516104d9816131fb565b634e487b7160e01b600052604160045260246000fd5b60405160e0810167ffffffffffffffff8111828210171561369b5761369b613662565b60405290565b604051601f8201601f1916810167ffffffffffffffff811182821017156136ca576136ca613662565b604052919050565b600067ffffffffffffffff8211156136ec576136ec613662565b5060051b60200190565b6000613709613704846136d2565b6136a1565b8381529050602080820190600585901b84018681111561372857600080fd5b845b818110156137bc57803567ffffffffffffffff8082111561374b5760008081fd5b8188019150601f8a818401126137615760008081fd5b82358281111561377357613773613662565b613784818301601f191688016136a1565b92508083528b8782860101111561379d57600091508182fd5b808785018885013760009083018701525085525092820192820161372a565b505050509392505050565b6000610b793684846136f6565b600082601f8301126137e557600080fd5b813560206137f5613704836136d2565b8083825260208201915060208460051b87010193508684111561381757600080fd5b602086015b8481101561383c57803561382f816131fb565b835291830191830161381c565b509695505050505050565b600082601f83011261385857600080fd5b81356020613868613704836136d2565b8083825260208201915060208460051b87010193508684111561388a57600080fd5b602086015b8481101561383c578035835291830191830161388f565b600082601f8301126138b757600080fd5b610b79838335602085016136f6565b600060e082360312156138d857600080fd5b6138e0613678565b823581526020830135602082015260408301356040820152606083013567ffffffffffffffff8082111561391357600080fd5b61391f368387016137d4565b6060840152608085013591508082111561393857600080fd5b61394436838701613847565b608084015260a085013591508082111561395d57600080fd5b613969368387016138a6565b60a084015260c085013591508082111561398257600080fd5b5061398f36828601613847565b60c08301525092915050565b601081106131445761314461311e565b60208101610b7c828461399b565b6001600160e01b03198316815260408101600b83106139da576139da61311e565b8260208301529392505050565b634e487b7160e01b600052601160045260246000fd5b80820180821115610b7c57610b7c6139e7565b634e487b7160e01b600052603260045260246000fd5b60008151808452602080850194506020840160005b8381101561311357815187529582019590820190600101613a3b565b60008151808452613a6f816020860160208601613605565b601f01601f19169290920160200192915050565b60008282518085526020808601955060208260051b8401016020860160005b84811015613ad057601f19868403018952613abe838351613a57565b98840198925090830190600101613aa2565b5090979650505050505050565b604081526000610120820184516040840152602080860151606085015260408601516080850152606086015160e060a086015282815180855261014087019150602083019450600092505b80831015613b515784516001600160a01b03168252938301936001929092019190830190613b28565b5060808801519350603f199250828682030160c0870152613b728185613a26565b9350505060a0860151818584030160e0860152613b8f8382613a83565b92505060c08601518185840301610100860152613bac8382613a26565b93505050506104d960208301846001600160a01b03169052565b81810381811115610b7c57610b7c6139e7565b602081526000610b796020830184613a57565b600060208284031215613bfe57600080fd5b5051919050565b602081526000610b7960208301846130d9565b6001600160e01b03198416815260608101613c36602083018561399b565b6001600160a01b0383166040830152949350505050565b600060208284031215613c5f57600080fd5b610b798261327f565b803560ff81168114610c1a57600080fd5b600060208284031215613c8b57600080fd5b610b7982613c68565b600060608284031215613ca657600080fd5b6040516060810181811067ffffffffffffffff82111715613cc957613cc9613662565b604052613cd583613c68565b815260208301356020820152604083013560408201528091505092915050565b604081016139da8285613134565b604080825283519082018190526000906020906060840190828701845b82811015613d3e578151151584529284019290840190600101613d20565b5050508381036020850152613d538186613a83565b969550505050505056fea264697066735822122001602ce53e77e1c88a89961c2fe722dcde4c25e16165d412688461a3d17d71dc64736f6c63430008160033",
  "chainId": 2020,
  "contractAbsolutePath": "RoninGovernanceAdmin.sol",
  "deployer": "0x4d58Ea7231c394d5804e8B06B1365915f906E27F",
  "devdoc": {
    "version": 1,
    "kind": "dev",
    "methods": {
      "castProposalBySignatures((uint256,uint256,uint256,address[],uint256[],bytes[],uint256[]),uint8[],(uint8,bytes32,bytes32)[])": {
        "details": "See `GovernanceProposal-_castProposalBySignatures`."
      },
      "castProposalVoteForCurrentNetwork((uint256,uint256,uint256,address[],uint256[],bytes[],uint256[]),uint8)": {
        "details": "Casts vote for a proposal on the current network. Requirements: - The method caller is governor."
      },
      "changeProxyAdmin(address,address)": {
        "details": "Changes the admin of `_proxy` to `newAdmin`. Requirements: - This contract must be the current admin of `_proxy`."
      },
      "createEmergencyExitPoll(address,address,uint256,uint256)": {
        "details": "Create a vote to agree that an emergency exit is valid and should return the locked funds back.a Requirements: - The method caller is validator contract."
      },
      "deleteExpired(uint256,uint256)": {
        "details": "Deletes the expired proposal by its chainId and nonce, without creating a new proposal. Requirements: - The proposal is already created."
      },
      "emergencyPollVoted(bytes32,address)": {
        "details": "Returns whether the voter casted vote for emergency exit poll."
      },
      "getContract(uint8)": {
        "details": "Returns the address of a contract with a specific role. Throws an error if no contract is set for the specified role.",
        "params": {
          "contractType": "The role of the contract to retrieve."
        },
        "returns": {
          "contract_": "The address of the contract with the specified role."
        }
      },
      "getProposalExpiryDuration()": {
        "details": "Returns the proposal expiry duration."
      },
      "getProposalSignatures(uint256,uint256)": {
        "details": "See {CommonGovernanceProposal-_getProposalSignatures}"
      },
      "getProxyAdmin(address)": {
        "details": "Returns the current admin of `_proxy`. Requirements: - This contract must be the admin of `_proxy`."
      },
      "getProxyImplementation(address)": {
        "details": "Returns the current implementation of `_proxy`. Requirements: - This contract must be the admin of `_proxy`."
      },
      "proposalVoted(uint256,uint256,address)": {
        "details": "See {CommonGovernanceProposal-_proposalVoted}"
      },
      "propose(uint256,uint256,address[],uint256[],bytes[],uint256[])": {
        "details": "See `CoreGovernance-_proposeProposal`. Requirements: - The method caller is governor."
      },
      "proposeProposalForCurrentNetwork(uint256,address[],uint256[],bytes[],uint256[],uint8)": {
        "details": "Proposes and casts vote for a proposal on the current network. Requirements: - The method caller is governor. - The proposal is for the current network."
      },
      "proposeProposalStructAndCastVotes((uint256,uint256,uint256,address[],uint256[],bytes[],uint256[]),uint8[],(uint8,bytes32,bytes32)[])": {
        "details": "See `GovernanceProposal-_proposeProposalStructAndCastVotes`. Requirements: - The method caller is governor. - The proposal is for the current network."
      },
      "setContract(uint8,address)": {
        "details": "Sets the address of a contract with a specific role. Emits the event {ContractUpdated}.",
        "params": {
          "addr": "The address of the contract to set.",
          "contractType": "The role of the contract to set."
        }
      },
      "setProposalExpiryDuration(uint256)": {
        "details": "Sets the expiry duration for a new proposal. Requirements: - Only allowing self-call to this method, since this contract does not have admin."
      },
      "voteEmergencyExit(bytes32,address,address,uint256,uint256)": {
        "details": "Votes for an emergency exit. Executes to unlock fund for the emergency exit's requester. Requirements: - The voter is governor. - The voting is existent. - The voting is not expired yet."
      }
    },
    "events": {
      "ContractUpdated(uint8,address)": {
        "details": "Emitted when a contract is updated."
      },
      "EmergencyExitPollApproved(bytes32)": {
        "details": "Emitted when an emergency exit poll is approved."
      },
      "EmergencyExitPollCreated(bytes32,address,address,uint256,uint256)": {
        "details": "Emitted when an emergency exit poll is created."
      },
      "EmergencyExitPollExpired(bytes32)": {
        "details": "Emitted when an emergency exit poll is expired."
      },
      "EmergencyExitPollVoted(bytes32,address)": {
        "details": "Emitted when an emergency exit poll is voted."
      },
      "ProposalApproved(bytes32)": {
        "details": "Emitted when the proposal is approved"
      },
      "ProposalCreated(uint256,uint256,bytes32,(uint256,uint256,uint256,address[],uint256[],bytes[],uint256[]),address)": {
        "details": "Emitted when a proposal is created"
      },
      "ProposalExecuted(bytes32,bool[],bytes[])": {
        "details": "Emitted when the proposal is executed"
      },
      "ProposalExpired(bytes32)": {
        "details": "Emitted when the vote is expired"
      },
      "ProposalExpiryDurationChanged(uint256)": {
        "details": "Emitted when the proposal expiry duration is changed."
      },
      "ProposalRejected(bytes32)": {
        "details": "Emitted when the vote is reject"
      },
      "ProposalVoted(bytes32,address,uint8,uint256)": {
        "details": "Emitted when the proposal is voted"
      }
    },
    "errors": {
      "ErrAlreadyVoted(address)": [
        {
          "details": "Error indicating that a voter has already voted.",
          "params": {
            "voter": "The address of the voter who has already voted."
          }
        }
      ],
      "ErrContractTypeNotFound(uint8)": [
        {
          "details": "Error of invalid role."
        }
      ],
      "ErrCurrentProposalIsNotCompleted()": [
        {
          "details": "Error thrown when the current proposal is not completed."
        }
      ],
      "ErrInsufficientGas(bytes32)": [
        {
          "details": "Error thrown when there is insufficient gas to execute a function."
        }
      ],
      "ErrInvalidChainId(bytes4,uint256,uint256)": [
        {
          "details": "Error indicating that the chain ID is invalid.",
          "params": {
            "actual": "Current chain ID that executing function.",
            "expected": "Expected chain ID required for the tx to success.",
            "msgSig": "The function signature (bytes4) of the operation that encountered an invalid chain ID."
          }
        }
      ],
      "ErrInvalidExpiryTimestamp()": [
        {
          "details": "Error thrown when an invalid expiry timestamp is provided."
        }
      ],
      "ErrInvalidOrder(bytes4)": [
        {
          "details": "Error indicating that an order is invalid.",
          "params": {
            "msgSig": "The function signature (bytes4) of the operation that encountered an invalid order."
          }
        }
      ],
      "ErrInvalidProposal(bytes32,bytes32)": [
        {
          "details": "Error thrown when an invalid proposal is encountered.",
          "params": {
            "actual": "The actual value of the proposal.",
            "expected": "The expected value of the proposal."
          }
        }
      ],
      "ErrInvalidProposalNonce(bytes4)": [
        {
          "details": "Error indicating that the proposal nonce is invalid.",
          "params": {
            "msgSig": "The function signature (bytes4) of the operation that encountered an invalid proposal nonce."
          }
        }
      ],
      "ErrInvalidSignatures(bytes4)": [
        {
          "details": "Error indicating that a signature is invalid for a specific function signature.",
          "params": {
            "msgSig": "The function signature (bytes4) that encountered an invalid signature."
          }
        }
      ],
      "ErrInvalidVoteHash()": [
        {
          "details": "Error thrown when an invalid vote hash is provided."
        }
      ],
      "ErrLengthMismatch(bytes4)": [
        {
          "details": "Error indicating a mismatch in the length of input parameters or arrays for a specific function.",
          "params": {
            "msgSig": "The function signature (bytes4) that has a length mismatch."
          }
        }
      ],
      "ErrOnlySelfCall(bytes4)": [
        {
          "details": "Error indicating that a function can only be called by the contract itself.",
          "params": {
            "msgSig": "The function signature (bytes4) that can only be called by the contract itself."
          }
        }
      ],
      "ErrQueryForEmptyVote()": [
        {
          "details": "Error thrown when querying for an empty vote."
        }
      ],
      "ErrQueryForExpiredVote()": [
        {
          "details": "Error thrown when querying for an expired vote."
        }
      ],
      "ErrQueryForNonExistentVote()": [
        {
          "details": "Error thrown when querying for a non-existent vote."
        }
      ],
      "ErrUnauthorized(bytes4,uint8)": [
        {
          "details": "Error indicating that the caller is unauthorized to perform a specific function.",
          "params": {
            "expectedRole": "The role required to perform the function.",
            "msgSig": "The function signature (bytes4) that the caller is unauthorized to perform."
          }
        }
      ],
      "ErrUnexpectedInternalCall(bytes4,uint8,address)": [
        {
          "details": "Error indicating that the caller is unauthorized to perform a specific function.",
          "params": {
            "actual": "The actual address that called to the function.",
            "expectedContractType": "The contract type required to perform the function.",
            "msgSig": "The function signature (bytes4)."
          }
        }
      ],
      "ErrUnsupportedVoteType(bytes4)": [
        {
          "details": "Error indicating that a vote type is not supported.",
          "params": {
            "msgSig": "The function signature (bytes4) of the operation that encountered an unsupported vote type."
          }
        }
      ],
      "ErrVoteIsFinalized()": [
        {
          "details": "Error thrown when attempting to interact with a finalized vote."
        }
      ],
      "ErrZeroCodeContract(address)": [
        {
          "details": "Error of set to non-contract."
        }
      ]
    }
  },
  "isFoundry": true,
  "nonce": 165,
  "numDeployments": 2,
  "storageLayout": {
    "storage": [
      {
        "astId": 3720,
        "contract": "contracts/ronin/RoninGovernanceAdmin.sol:RoninGovernanceAdmin",
        "label": "round",
        "offset": 0,
        "slot": "0",
        "type": "t_mapping(t_uint256,t_uint256)"
      },
      {
        "astId": 3728,
        "contract": "contracts/ronin/RoninGovernanceAdmin.sol:RoninGovernanceAdmin",
        "label": "vote",
        "offset": 0,
        "slot": "1",
        "type": "t_mapping(t_uint256,t_mapping(t_uint256,t_struct(ProposalVote)3658_storage))"
      },
      {
        "astId": 3730,
        "contract": "contracts/ronin/RoninGovernanceAdmin.sol:RoninGovernanceAdmin",
        "label": "_proposalExpiryDuration",
        "offset": 0,
        "slot": "2",
        "type": "t_uint256"
      },
      {
        "astId": 38054,
        "contract": "contracts/ronin/RoninGovernanceAdmin.sol:RoninGovernanceAdmin",
        "label": "______deprecatedGovernanceAdmin",
        "offset": 0,
        "slot": "3",
        "type": "t_address"
      },
      {
        "astId": 38034,
        "contract": "contracts/ronin/RoninGovernanceAdmin.sol:RoninGovernanceAdmin",
        "label": "______deprecatedBridge",
        "offset": 0,
        "slot": "4",
        "type": "t_address"
      },
      {
        "astId": 251,
        "contract": "contracts/ronin/RoninGovernanceAdmin.sol:RoninGovernanceAdmin",
        "label": "roninChainId",
        "offset": 0,
        "slot": "5",
        "type": "t_uint256"
      },
      {
        "astId": 254,
        "contract": "contracts/ronin/RoninGovernanceAdmin.sol:RoninGovernanceAdmin",
        "label": "DOMAIN_SEPARATOR",
        "offset": 0,
        "slot": "6",
        "type": "t_bytes32"
      },
      {
        "astId": 38038,
        "contract": "contracts/ronin/RoninGovernanceAdmin.sol:RoninGovernanceAdmin",
        "label": "______deprecatedValidator",
        "offset": 0,
        "slot": "7",
        "type": "t_address"
      },
      {
        "astId": 19530,
        "contract": "contracts/ronin/RoninGovernanceAdmin.sol:RoninGovernanceAdmin",
        "label": "_emergencyExitPoll",
        "offset": 0,
        "slot": "8",
        "type": "t_mapping(t_bytes32,t_struct(Vote)11289_storage)"
      }
    ],
    "types": {
      "t_address": {
        "encoding": "inplace",
        "label": "address",
        "numberOfBytes": "20"
      },
      "t_array(t_address)dyn_storage": {
        "encoding": "dynamic_array",
        "label": "address[]",
        "numberOfBytes": "32",
        "base": "t_address"
      },
      "t_bool": {
        "encoding": "inplace",
        "label": "bool",
        "numberOfBytes": "1"
      },
      "t_bytes32": {
        "encoding": "inplace",
        "label": "bytes32",
        "numberOfBytes": "32"
      },
      "t_enum(VoteStatus)8741": {
        "encoding": "inplace",
        "label": "enum VoteStatusConsumer.VoteStatus",
        "numberOfBytes": "1"
      },
      "t_mapping(t_address,t_bool)": {
        "encoding": "mapping",
        "key": "t_address",
        "label": "mapping(address => bool)",
        "numberOfBytes": "32",
        "value": "t_bool"
      },
      "t_mapping(t_address,t_bytes32)": {
        "encoding": "mapping",
        "key": "t_address",
        "label": "mapping(address => bytes32)",
        "numberOfBytes": "32",
        "value": "t_bytes32"
      },
      "t_mapping(t_address,t_struct(Signature)8732_storage)": {
        "encoding": "mapping",
        "key": "t_address",
        "label": "mapping(address => struct SignatureConsumer.Signature)",
        "numberOfBytes": "32",
        "value": "t_struct(Signature)8732_storage"
      },
      "t_mapping(t_bytes32,t_struct(Vote)11289_storage)": {
        "encoding": "mapping",
        "key": "t_bytes32",
        "label": "mapping(bytes32 => struct IsolatedGovernance.Vote)",
        "numberOfBytes": "32",
        "value": "t_struct(Vote)11289_storage"
      },
      "t_mapping(t_uint256,t_mapping(t_uint256,t_struct(ProposalVote)3658_storage))": {
        "encoding": "mapping",
        "key": "t_uint256",
        "label": "mapping(uint256 => mapping(uint256 => struct CoreGovernance.ProposalVote))",
        "numberOfBytes": "32",
        "value": "t_mapping(t_uint256,t_struct(ProposalVote)3658_storage)"
      },
      "t_mapping(t_uint256,t_struct(ProposalVote)3658_storage)": {
        "encoding": "mapping",
        "key": "t_uint256",
        "label": "mapping(uint256 => struct CoreGovernance.ProposalVote)",
        "numberOfBytes": "32",
        "value": "t_struct(ProposalVote)3658_storage"
      },
      "t_mapping(t_uint256,t_uint256)": {
        "encoding": "mapping",
        "key": "t_uint256",
        "label": "mapping(uint256 => uint256)",
        "numberOfBytes": "32",
        "value": "t_uint256"
      },
      "t_struct(ProposalVote)3658_storage": {
        "encoding": "inplace",
        "label": "struct CoreGovernance.ProposalVote",
        "numberOfBytes": "288",
        "members": [
          {
            "astId": 3634,
            "contract": "contracts/ronin/RoninGovernanceAdmin.sol:RoninGovernanceAdmin",
            "label": "status",
            "offset": 0,
            "slot": "0",
            "type": "t_enum(VoteStatus)8741"
          },
          {
            "astId": 3636,
            "contract": "contracts/ronin/RoninGovernanceAdmin.sol:RoninGovernanceAdmin",
            "label": "hash",
            "offset": 0,
            "slot": "1",
            "type": "t_bytes32"
          },
          {
            "astId": 3638,
            "contract": "contracts/ronin/RoninGovernanceAdmin.sol:RoninGovernanceAdmin",
            "label": "againstVoteWeight",
            "offset": 0,
            "slot": "2",
            "type": "t_uint256"
          },
          {
            "astId": 3640,
            "contract": "contracts/ronin/RoninGovernanceAdmin.sol:RoninGovernanceAdmin",
            "label": "forVoteWeight",
            "offset": 0,
            "slot": "3",
            "type": "t_uint256"
          },
          {
            "astId": 3643,
            "contract": "contracts/ronin/RoninGovernanceAdmin.sol:RoninGovernanceAdmin",
            "label": "forVoteds",
            "offset": 0,
            "slot": "4",
            "type": "t_array(t_address)dyn_storage"
          },
          {
            "astId": 3646,
            "contract": "contracts/ronin/RoninGovernanceAdmin.sol:RoninGovernanceAdmin",
            "label": "againstVoteds",
            "offset": 0,
            "slot": "5",
            "type": "t_array(t_address)dyn_storage"
          },
          {
            "astId": 3648,
            "contract": "contracts/ronin/RoninGovernanceAdmin.sol:RoninGovernanceAdmin",
            "label": "expiryTimestamp",
            "offset": 0,
            "slot": "6",
            "type": "t_uint256"
          },
          {
            "astId": 3653,
            "contract": "contracts/ronin/RoninGovernanceAdmin.sol:RoninGovernanceAdmin",
            "label": "sig",
            "offset": 0,
            "slot": "7",
            "type": "t_mapping(t_address,t_struct(Signature)8732_storage)"
          },
          {
            "astId": 3657,
            "contract": "contracts/ronin/RoninGovernanceAdmin.sol:RoninGovernanceAdmin",
            "label": "voted",
            "offset": 0,
            "slot": "8",
            "type": "t_mapping(t_address,t_bool)"
          }
        ]
      },
      "t_struct(Signature)8732_storage": {
        "encoding": "inplace",
        "label": "struct SignatureConsumer.Signature",
        "numberOfBytes": "96",
        "members": [
          {
            "astId": 8727,
            "contract": "contracts/ronin/RoninGovernanceAdmin.sol:RoninGovernanceAdmin",
            "label": "v",
            "offset": 0,
            "slot": "0",
            "type": "t_uint8"
          },
          {
            "astId": 8729,
            "contract": "contracts/ronin/RoninGovernanceAdmin.sol:RoninGovernanceAdmin",
            "label": "r",
            "offset": 0,
            "slot": "1",
            "type": "t_bytes32"
          },
          {
            "astId": 8731,
            "contract": "contracts/ronin/RoninGovernanceAdmin.sol:RoninGovernanceAdmin",
            "label": "s",
            "offset": 0,
            "slot": "2",
            "type": "t_bytes32"
          }
        ]
      },
      "t_struct(Vote)11289_storage": {
        "encoding": "inplace",
        "label": "struct IsolatedGovernance.Vote",
        "numberOfBytes": "192",
        "members": [
          {
            "astId": 11271,
            "contract": "contracts/ronin/RoninGovernanceAdmin.sol:RoninGovernanceAdmin",
            "label": "status",
            "offset": 0,
            "slot": "0",
            "type": "t_enum(VoteStatus)8741"
          },
          {
            "astId": 11273,
            "contract": "contracts/ronin/RoninGovernanceAdmin.sol:RoninGovernanceAdmin",
            "label": "finalHash",
            "offset": 0,
            "slot": "1",
            "type": "t_bytes32"
          },
          {
            "astId": 11278,
            "contract": "contracts/ronin/RoninGovernanceAdmin.sol:RoninGovernanceAdmin",
            "label": "voteHashOf",
            "offset": 0,
            "slot": "2",
            "type": "t_mapping(t_address,t_bytes32)"
          },
          {
            "astId": 11281,
            "contract": "contracts/ronin/RoninGovernanceAdmin.sol:RoninGovernanceAdmin",
            "label": "expiredAt",
            "offset": 0,
            "slot": "3",
            "type": "t_uint256"
          },
          {
            "astId": 11284,
            "contract": "contracts/ronin/RoninGovernanceAdmin.sol:RoninGovernanceAdmin",
            "label": "createdAt",
            "offset": 0,
            "slot": "4",
            "type": "t_uint256"
          },
          {
            "astId": 11288,
            "contract": "contracts/ronin/RoninGovernanceAdmin.sol:RoninGovernanceAdmin",
            "label": "voters",
            "offset": 0,
            "slot": "5",
            "type": "t_array(t_address)dyn_storage"
          }
        ]
      },
      "t_uint256": {
        "encoding": "inplace",
        "label": "uint256",
        "numberOfBytes": "32"
      },
      "t_uint8": {
        "encoding": "inplace",
        "label": "uint8",
        "numberOfBytes": "1"
      }
    }
  },
  "timestamp": 1709533477,
  "userdoc": {
    "version": 1,
    "kind": "user",
    "methods": {
      "round(uint256)": {
        "notice": "chain id = 0 for global proposal"
      }
    }
  }
}