{
  "abi": [
    {
      "type": "constructor",
      "inputs": [
        {
          "name": "proxyStorage",
          "type": "address",
          "internalType": "address"
        },
        {
          "name": "prevImpl",
          "type": "address",
          "internalType": "address"
        },
        {
          "name": "newImpl",
          "type": "address",
          "internalType": "address"
        },
        {
          "name": "activatedAtPeriod",
          "type": "uint256",
          "internalType": "uint256"
        }
      ],
      "stateMutability": "nonpayable"
    },
    {
      "type": "fallback",
      "stateMutability": "payable"
    },
    {
      "type": "receive",
      "stateMutability": "payable"
    },
    {
      "type": "function",
      "name": "ACTIVATED_AT_PERIOD",
      "inputs": [],
      "outputs": [
        {
          "name": "",
          "type": "uint256",
          "internalType": "uint256"
        }
      ],
      "stateMutability": "view"
    },
    {
      "type": "function",
      "name": "NEW_IMPL",
      "inputs": [],
      "outputs": [
        {
          "name": "",
          "type": "address",
          "internalType": "address"
        }
      ],
      "stateMutability": "view"
    },
    {
      "type": "function",
      "name": "PREV_IMPL",
      "inputs": [],
      "outputs": [
        {
          "name": "",
          "type": "address",
          "internalType": "address"
        }
      ],
      "stateMutability": "view"
    },
    {
      "type": "function",
      "name": "PROXY_STORAGE",
      "inputs": [],
      "outputs": [
        {
          "name": "",
          "type": "address",
          "internalType": "address"
        }
      ],
      "stateMutability": "view"
    },
    {
      "type": "function",
      "name": "getContract",
      "inputs": [
        {
          "name": "contractType",
          "type": "uint8",
          "internalType": "enum ContractType"
        }
      ],
      "outputs": [
        {
          "name": "contract_",
          "type": "address",
          "internalType": "address payable"
        }
      ],
      "stateMutability": "view"
    },
    {
      "type": "function",
      "name": "initialize",
      "inputs": [
        {
          "name": "randomBeacon",
          "type": "address",
          "internalType": "address"
        }
      ],
      "outputs": [],
      "stateMutability": "nonpayable"
    },
    {
      "type": "function",
      "name": "selfUpgrade",
      "inputs": [],
      "outputs": [],
      "stateMutability": "nonpayable"
    },
    {
      "type": "function",
      "name": "setContract",
      "inputs": [
        {
          "name": "contractType",
          "type": "uint8",
          "internalType": "enum ContractType"
        },
        {
          "name": "addr",
          "type": "address",
          "internalType": "address"
        }
      ],
      "outputs": [],
      "stateMutability": "nonpayable"
    },
    {
      "type": "event",
      "name": "Constructed",
      "inputs": [
        {
          "name": "proxy",
          "type": "address",
          "indexed": true,
          "internalType": "address"
        },
        {
          "name": "prevImpl",
          "type": "address",
          "indexed": true,
          "internalType": "address"
        },
        {
          "name": "newImpl",
          "type": "address",
          "indexed": true,
          "internalType": "address"
        }
      ],
      "anonymous": false
    },
    {
      "type": "event",
      "name": "ContractUpdated",
      "inputs": [
        {
          "name": "contractType",
          "type": "uint8",
          "indexed": true,
          "internalType": "enum ContractType"
        },
        {
          "name": "addr",
          "type": "address",
          "indexed": true,
          "internalType": "address"
        }
      ],
      "anonymous": false
    },
    {
      "type": "event",
      "name": "Initialized",
      "inputs": [
        {
          "name": "version",
          "type": "uint64",
          "indexed": false,
          "internalType": "uint64"
        }
      ],
      "anonymous": false
    },
    {
      "type": "event",
      "name": "Upgraded",
      "inputs": [
        {
          "name": "implementation",
          "type": "address",
          "indexed": true,
          "internalType": "address"
        }
      ],
      "anonymous": false
    },
    {
      "type": "error",
      "name": "ErrContractTypeNotFound",
      "inputs": [
        {
          "name": "contractType",
          "type": "uint8",
          "internalType": "enum ContractType"
        }
      ]
    },
    {
      "type": "error",
      "name": "ErrDelegateFromUnknownOrigin",
      "inputs": [
        {
          "name": "addr",
          "type": "address",
          "internalType": "address"
        }
      ]
    },
    {
      "type": "error",
      "name": "ErrDuplicated",
      "inputs": [
        {
          "name": "msgSig",
          "type": "bytes4",
          "internalType": "bytes4"
        }
      ]
    },
    {
      "type": "error",
      "name": "ErrOnlySelfCall",
      "inputs": [
        {
          "name": "msgSig",
          "type": "bytes4",
          "internalType": "bytes4"
        }
      ]
    },
    {
      "type": "error",
      "name": "ErrUnauthorized",
      "inputs": [
        {
          "name": "msgSig",
          "type": "bytes4",
          "internalType": "bytes4"
        },
        {
          "name": "expectedRole",
          "type": "uint8",
          "internalType": "enum RoleAccess"
        }
      ]
    },
    {
      "type": "error",
      "name": "ErrZeroCodeContract",
      "inputs": [
        {
          "name": "addr",
          "type": "address",
          "internalType": "address"
        }
      ]
    },
    {
      "type": "error",
      "name": "InvalidInitialization",
      "inputs": []
    },
    {
      "type": "error",
      "name": "NotInitializing",
      "inputs": []
    }
  ],
  "absolutePath": "RoninValidatorSetREP10Migrator.sol",
  "address": "0xC0D9f3ffFE76020F9C62f435672112b0895A4f3B",
  "blockNumber": 35851214,
  "bytecode": "0x61010060405234801561001157600080fd5b50604051610fb4380380610fb483398101604081905261003091610364565b83838361003c816101bd565b610045826101bd565b61004e836101bd565b60408051600380825260808201909252600091602082016060803683370190505090508381600081518110610085576100856103af565b60200260200101906001600160a01b031690816001600160a01b03168152505082816001815181106100b9576100b96103af565b60200260200101906001600160a01b031690816001600160a01b03168152505081816002815181106100ed576100ed6103af565b6001600160a01b039092166020928302919091019091015261010e816101f6565b1561013f57604051630d697db160e11b81526001600160e01b03196000351660048201526024015b60405180910390fd5b6001600160a01b0380851660805282811660a052831660c052610160610297565b816001600160a01b0316836001600160a01b0316856001600160a01b03167fab1ec1f02dd213092bdb998f303bbc4eee78ad4642746160dad7d5457a86b5d060405160405180910390a450505060e091909152506103c592505050565b806001600160a01b03163b6000036101f357604051630bfc64a360e21b81526001600160a01b0382166004820152602401610136565b50565b805160009080820361020b5750600092915050565b60005b6001820381101561028d57600181015b8281101561028457848181518110610238576102386103af565b60200260200101516001600160a01b031685838151811061025b5761025b6103af565b60200260200101516001600160a01b03160361027c57506001949350505050565b60010161021e565b5060010161020e565b5060009392505050565b7ff0c57e16840df040f15088dc2f81fe391c3923bec73e23a9662efc9c229c6a00805468010000000000000000900460ff16156102e75760405163f92ee8a960e01b815260040160405180910390fd5b80546001600160401b03908116146101f35780546001600160401b0319166001600160401b0390811782556040519081527fc7f505b2f371ae2175ee4913f4499e1f2633a7b5936321eed1cdaeb6115181d29060200160405180910390a150565b80516001600160a01b038116811461035f57600080fd5b919050565b6000806000806080858703121561037a57600080fd5b61038385610348565b935061039160208601610348565b925061039f60408601610348565b6060959095015193969295505050565b634e487b7160e01b600052603260045260246000fd5b60805160a05160c05160e051610b8d61042760003960008181610155015261084101526000818160b001526104d10152600081816101010152818161040801526104f50152600081816101ec0152818161021901526108cb0152610b8d6000f3fe60806040526004361061007f5760003560e01c8063c4d66de81161004e578063c4d66de814610185578063d39f5677146101a5578063de981f1b146101ba578063f89360c2146101da57610096565b8063014fdae61461009e57806330b53157146100ef578063865e6fd314610123578063987840e31461014357610096565b366100965761008c61020e565b610094610279565b005b61008c61020e565b3480156100aa57600080fd5b506100d27f000000000000000000000000000000000000000000000000000000000000000081565b6040516001600160a01b0390911681526020015b60405180910390f35b3480156100fb57600080fd5b506100d27f000000000000000000000000000000000000000000000000000000000000000081565b34801561012f57600080fd5b5061009461013e366004610a1e565b610295565b34801561014f57600080fd5b506101777f000000000000000000000000000000000000000000000000000000000000000081565b6040519081526020016100e6565b34801561019157600080fd5b506100946101a0366004610a51565b6102b4565b3480156101b157600080fd5b506100946103f3565b3480156101c657600080fd5b506100d26101d5366004610a6c565b61042c565b3480156101e657600080fd5b506100d27f000000000000000000000000000000000000000000000000000000000000000081565b306001600160a01b037f00000000000000000000000000000000000000000000000000000000000000001614610277576040517f145be2450000000000000000000000000000000000000000000000000000000081523060048201526024015b60405180910390fd5b565b600061028b6102866104c0565b61051a565b9050805160208201f35b61029d610601565b6102a681610675565b6102b082826106c7565b5050565b7ff0c57e16840df040f15088dc2f81fe391c3923bec73e23a9662efc9c229c6a00805468010000000000000000810460ff16159067ffffffffffffffff166000811580156102ff5750825b905060008267ffffffffffffffff16600114801561031c5750303b155b90508115801561032a575080155b15610361576040517ff92ee8a900000000000000000000000000000000000000000000000000000000815260040160405180910390fd5b845467ffffffffffffffff19166001178555831561039557845468ff00000000000000001916680100000000000000001785555b6103a06010876106c7565b83156103eb57845468ff000000000000000019168555604051600181527fc7f505b2f371ae2175ee4913f4499e1f2633a7b5936321eed1cdaeb6115181d29060200160405180910390a15b505050505050565b6103fb61020e565b610403610778565b6102777f0000000000000000000000000000000000000000000000000000000000000000610780565b60007fdea3103d22025c269050bea94c0c84688877f12fa22b7e6d2d5d78a9a49aa1cb600083601081111561046357610463610a87565b60ff1681526020810191909152604001600020546001600160a01b03169050806104bb57816040517f812281be00000000000000000000000000000000000000000000000000000000815260040161026e9190610a9d565b919050565b60006104ca6107f6565b6104f357507f000000000000000000000000000000000000000000000000000000000000000090565b7f00000000000000000000000000000000000000000000000000000000000000005b905090565b60606105246107f6565b1561057d57306001600160a01b031663d39f56776040518163ffffffff1660e01b8152600401600060405180830381600087803b15801561056457600080fd5b505af1158015610578573d6000803e3d6000fd5b505050505b600080836001600160a01b031660003660405161059b929190610ab7565b600060405180830381855af49150503d80600081146105d6576040519150601f19603f3d011682016040523d82523d6000602084013e6105db565b606091505b5090925090506105fa8215156001600160e01b0319600035168361087a565b9392505050565b7fb53127684a568b3173ae13b9f8a6016e243e63b6e8ee1178d6a717850b5d6103546001600160a01b03163314610277576000356001600160e01b03191660016040517f3e523c0000000000000000000000000000000000000000000000000000000000815260040161026e929190610ac7565b806001600160a01b03163b6000036106c4576040517f2ff1928c0000000000000000000000000000000000000000000000000000000081526001600160a01b038216600482015260240161026e565b50565b807fdea3103d22025c269050bea94c0c84688877f12fa22b7e6d2d5d78a9a49aa1cb60008460108111156106fd576106fd610a87565b60ff1681526020810191909152604001600020805473ffffffffffffffffffffffffffffffffffffffff19166001600160a01b03928316179055811682601081111561074b5761074b610a87565b6040517f865d1c228a8ea13709cfe61f346f7ff67f1bbd4a18ff31ad3e7147350d317c5990600090a35050565b6102776108c0565b7f360894a13ba1a3210667c828492db98dca3e2076cc3735a920a3ca505d382bbc805473ffffffffffffffffffffffffffffffffffffffff19166001600160a01b0383169081179091556040517fbc7cd75a20ee27fd9adebab32041f755214dbc6bffa90cc0225b39da2e5c2d3b90600090a250565b600080356001600160e01b0319167f72e4681000000000000000000000000000000000000000000000000000000000146108305750600090565b610838610930565b801561051557507f0000000000000000000000000000000000000000000000000000000000000000610868610994565b610873906001610af5565b1015905090565b6001600160e01b031960003516836108ba578151801561089b578060208401fd5b50604051638e3eda2b81528160208201528360408201526044601c8201fd5b50505050565b336001600160a01b037f00000000000000000000000000000000000000000000000000000000000000001614610277576040517f7337e1900000000000000000000000000000000000000000000000000000000081526001600160e01b031960003516600482015260240161026e565b6000306001600160a01b031663217f35c26040518163ffffffff1660e01b8152600401602060405180830381865afa158015610970573d6000803e3d6000fd5b505050506040513d601f19601f820116820180604052508101906105159190610b1c565b6000306001600160a01b031663060406186040518163ffffffff1660e01b8152600401602060405180830381865afa1580156109d4573d6000803e3d6000fd5b505050506040513d601f19601f820116820180604052508101906105159190610b3e565b8035601181106104bb57600080fd5b80356001600160a01b03811681146104bb57600080fd5b60008060408385031215610a3157600080fd5b610a3a836109f8565b9150610a4860208401610a07565b90509250929050565b600060208284031215610a6357600080fd5b6105fa82610a07565b600060208284031215610a7e57600080fd5b6105fa826109f8565b634e487b7160e01b600052602160045260246000fd5b6020810160118310610ab157610ab1610a87565b91905290565b8183823760009101908152919050565b6001600160e01b03198316815260408101600b8310610ae857610ae8610a87565b8260208301529392505050565b80820180821115610b1657634e487b7160e01b600052601160045260246000fd5b92915050565b600060208284031215610b2e57600080fd5b815180151581146105fa57600080fd5b600060208284031215610b5057600080fd5b505191905056fea264697066735822122070f4f5d61ec65ab095182fe9ead6825d70fb80482f6d118211aef435aa3ae95164736f6c63430008190033",
  "callValue": 0,
  "chainId": 2020,
  "constructorArgs": "0x000000000000000000000000617c5d73662282ea7ffd231e020eca6d2b0d552f000000000000000000000000a40349afeee08c724fede3244d9ce22f0fcf1cd1000000000000000000000000fa8d5bc04514844d5b79b52e46f473c4eeb2f0390000000000000000000000000000000000000000000000000000000000004dc4",
  "contractName": "RoninValidatorSetREP10Migrator",
  "deployer": "0x08295771719b138a241F45023B13CC868D72827D",
  "devdoc": {
    "version": 1,
    "kind": "dev",
    "details": "A contract that supports migration for RoninValidatorSet to REP-10. Action:             |                            proposal executed              wrap up period       wrap up activated period             |                     |                                  v                              v                       v                           |                     |----------------------------------*------------------------------*-----------------------*--*------------------------|                     |                                  |                              |                       ^                           |                     |                                  |                              |           end of period  ^                        |                     |                                  |                              |                       | first epoch of             |                     |                                  |                              |                       | ACTIVATED_AT_PERIOD       | Proxy:              |                                  |                              |                       |                           | └─→ delegatecall    |                                  |                              |                       |                           | Logic:          └─→ |       Prev Implementation        |                              |                       |                           |                     |                                  └─→ upgrade                    |                       |                           |                     |                                  |                       REP-10 Migrator                |                           |                     |                                  |                              |                       |                           |                     |                                  └─→ delegatecall               |                       |                           |                     |                                  |                     Prev Implementation              |                           |                     |                                  |                              |                       └─→ upgrade                 |                     |                                  |                              |                       └─→ delegatecall            |                     |                                  |                              |                       |     New Implementation    |",
    "methods": {
      "constructor": {
        "details": "Constructs the {RoninValidatorSetREP10Migrator} contract.",
        "params": {
          "activatedAtPeriod": "The period when the new implementation was activated.",
          "newImpl": "The address of the new contract implementation.",
          "prevImpl": "The address of the current contract implementation.",
          "proxyStorage": "The address of the proxy storage contract."
        }
      },
      "getContract(uint8)": {
        "details": "Returns the address of a contract with a specific role. Throws an error if no contract is set for the specified role.",
        "params": {
          "contractType": "The role of the contract to retrieve."
        },
        "returns": {
          "contract_": "The address of the contract with the specified role."
        }
      },
      "initialize(address)": {
        "details": "Initializes the contract with @openzepppelin-v0.5.2-Initializable. This function is called while deploying middle layer migrator and {_initialized} slot is customized.",
        "params": {
          "randomBeacon": "The address of the RandomBeacon contract."
        }
      },
      "selfUpgrade()": {
        "details": "See {IConditionalImplementControl-selfUpgrade}."
      },
      "setContract(uint8,address)": {
        "details": "Sets the address of a contract with a specific role. Emits the event {ContractUpdated}.",
        "params": {
          "addr": "The address of the contract to set.",
          "contractType": "The role of the contract to set."
        }
      }
    },
    "events": {
      "Constructed(address,address,address)": {
        "details": "Emitted when migrator logic is deployed."
      },
      "ContractUpdated(uint8,address)": {
        "details": "Emitted when a contract is updated."
      },
      "Initialized(uint64)": {
        "details": "Triggered when the contract has been initialized or reinitialized."
      },
      "Upgraded(address)": {
        "details": "Emitted when the implementation is upgraded."
      }
    },
    "errors": {
      "ErrContractTypeNotFound(uint8)": [
        {
          "details": "Error of invalid role."
        }
      ],
      "ErrDelegateFromUnknownOrigin(address)": [
        {
          "details": "Error when contract which delegate to this contract is not compatible with ERC1967"
        }
      ],
      "ErrDuplicated(bytes4)": [
        {
          "details": "Error thrown when a duplicated element is detected in an array.",
          "params": {
            "msgSig": "The function signature that invoke the error."
          }
        }
      ],
      "ErrOnlySelfCall(bytes4)": [
        {
          "details": "Error indicating that a function can only be called by the contract itself.",
          "params": {
            "msgSig": "The function signature (bytes4) that can only be called by the contract itself."
          }
        }
      ],
      "ErrUnauthorized(bytes4,uint8)": [
        {
          "details": "Error indicating that the caller is unauthorized to perform a specific function.",
          "params": {
            "expectedRole": "The role required to perform the function.",
            "msgSig": "The function signature (bytes4) that the caller is unauthorized to perform."
          }
        }
      ],
      "ErrZeroCodeContract(address)": [
        {
          "details": "Error of set to non-contract."
        }
      ],
      "InvalidInitialization()": [
        {
          "details": "The contract is already initialized."
        }
      ],
      "NotInitializing()": [
        {
          "details": "The contract is not initializing."
        }
      ]
    },
    "title": "RoninValidatorSetREP10Migrator"
  },
  "isFoundry": true,
  "nonce": 26,
  "storageLayout": {
    "storage": [],
    "types": {}
  },
  "timestamp": 1719387202,
  "userdoc": {
    "version": 1,
    "kind": "user",
    "methods": {
      "PROXY_STORAGE()": {
        "notice": "immutable variables are directly stored in contract code. ensuring no storage writes are required. The values of immutable variables remain fixed and cannot be modified, regardless of any interactions, including delegations."
      }
    }
  }
}