{
  "abi": [
    {
      "type": "function",
      "name": "COOLDOWN_PERIOD_THRESHOLD",
      "inputs": [],
      "outputs": [
        {
          "name": "threshold",
          "type": "uint256",
          "internalType": "uint256"
        }
      ],
      "stateMutability": "pure"
    },
    {
      "type": "function",
      "name": "DEFAULT_ADDITION_GAS",
      "inputs": [],
      "outputs": [
        {
          "name": "",
          "type": "uint256",
          "internalType": "uint256"
        }
      ],
      "stateMutability": "view"
    },
    {
      "type": "function",
      "name": "PERIOD_DURATION",
      "inputs": [],
      "outputs": [
        {
          "name": "",
          "type": "uint256",
          "internalType": "uint256"
        }
      ],
      "stateMutability": "view"
    },
    {
      "type": "function",
      "name": "bulkSetValidatorThresholds",
      "inputs": [
        {
          "name": "validatorTypes",
          "type": "uint8[]",
          "internalType": "enum IRandomBeacon.ValidatorType[]"
        },
        {
          "name": "thresholds",
          "type": "uint256[]",
          "internalType": "uint256[]"
        }
      ],
      "outputs": [],
      "stateMutability": "nonpayable"
    },
    {
      "type": "function",
      "name": "calcKeyHash",
      "inputs": [
        {
          "name": "publicKeys",
          "type": "uint256[2]",
          "internalType": "uint256[2]"
        }
      ],
      "outputs": [
        {
          "name": "keyHash",
          "type": "bytes32",
          "internalType": "bytes32"
        }
      ],
      "stateMutability": "pure"
    },
    {
      "type": "function",
      "name": "execFinalizeBeaconAndPendingCids",
      "inputs": [
        {
          "name": "lastUpdatedPeriod",
          "type": "uint256",
          "internalType": "uint256"
        },
        {
          "name": "newPeriod",
          "type": "uint256",
          "internalType": "uint256"
        },
        {
          "name": "allCids",
          "type": "address[]",
          "internalType": "address[]"
        }
      ],
      "outputs": [],
      "stateMutability": "nonpayable"
    },
    {
      "type": "function",
      "name": "execRecordAndSlashUnavailability",
      "inputs": [
        {
          "name": "lastUpdatedPeriod",
          "type": "uint256",
          "internalType": "uint256"
        },
        {
          "name": "newPeriod",
          "type": "uint256",
          "internalType": "uint256"
        },
        {
          "name": "slashIndicator",
          "type": "address",
          "internalType": "address"
        },
        {
          "name": "allCids",
          "type": "address[]",
          "internalType": "address[]"
        }
      ],
      "outputs": [],
      "stateMutability": "nonpayable"
    },
    {
      "type": "function",
      "name": "execRequestRandomSeedForNextPeriod",
      "inputs": [
        {
          "name": "lastUpdatedPeriod",
          "type": "uint256",
          "internalType": "uint256"
        },
        {
          "name": "newPeriod",
          "type": "uint256",
          "internalType": "uint256"
        }
      ],
      "outputs": [],
      "stateMutability": "nonpayable"
    },
    {
      "type": "function",
      "name": "fulfillRandomSeed",
      "inputs": [
        {
          "name": "req",
          "type": "tuple",
          "internalType": "struct RandomRequest",
          "components": [
            {
              "name": "period",
              "type": "uint256",
              "internalType": "uint256"
            },
            {
              "name": "prevBeacon",
              "type": "uint256",
              "internalType": "uint256"
            },
            {
              "name": "chainId",
              "type": "uint256",
              "internalType": "uint256"
            },
            {
              "name": "verifyingContract",
              "type": "address",
              "internalType": "address"
            }
          ]
        },
        {
          "name": "proof",
          "type": "tuple",
          "internalType": "struct VRF.Proof",
          "components": [
            {
              "name": "pk",
              "type": "uint256[2]",
              "internalType": "uint256[2]"
            },
            {
              "name": "gamma",
              "type": "uint256[2]",
              "internalType": "uint256[2]"
            },
            {
              "name": "c",
              "type": "uint256",
              "internalType": "uint256"
            },
            {
              "name": "s",
              "type": "uint256",
              "internalType": "uint256"
            },
            {
              "name": "seed",
              "type": "uint256",
              "internalType": "uint256"
            },
            {
              "name": "uWitness",
              "type": "address",
              "internalType": "address"
            },
            {
              "name": "cGammaWitness",
              "type": "uint256[2]",
              "internalType": "uint256[2]"
            },
            {
              "name": "sHashWitness",
              "type": "uint256[2]",
              "internalType": "uint256[2]"
            },
            {
              "name": "zInv",
              "type": "uint256",
              "internalType": "uint256"
            }
          ]
        }
      ],
      "outputs": [],
      "stateMutability": "nonpayable"
    },
    {
      "type": "function",
      "name": "getActivatedAtPeriod",
      "inputs": [],
      "outputs": [
        {
          "name": "",
          "type": "uint256",
          "internalType": "uint256"
        }
      ],
      "stateMutability": "view"
    },
    {
      "type": "function",
      "name": "getBeaconData",
      "inputs": [
        {
          "name": "period",
          "type": "uint256",
          "internalType": "uint256"
        }
      ],
      "outputs": [
        {
          "name": "value",
          "type": "uint256",
          "internalType": "uint256"
        },
        {
          "name": "finalized",
          "type": "bool",
          "internalType": "bool"
        },
        {
          "name": "submissionCount",
          "type": "uint256",
          "internalType": "uint256"
        }
      ],
      "stateMutability": "view"
    },
    {
      "type": "function",
      "name": "getContract",
      "inputs": [
        {
          "name": "contractType",
          "type": "uint8",
          "internalType": "enum ContractType"
        }
      ],
      "outputs": [
        {
          "name": "contract_",
          "type": "address",
          "internalType": "address payable"
        }
      ],
      "stateMutability": "view"
    },
    {
      "type": "function",
      "name": "getLastFinalizedPeriod",
      "inputs": [],
      "outputs": [
        {
          "name": "",
          "type": "uint256",
          "internalType": "uint256"
        }
      ],
      "stateMutability": "view"
    },
    {
      "type": "function",
      "name": "getRequestHash",
      "inputs": [
        {
          "name": "period",
          "type": "uint256",
          "internalType": "uint256"
        }
      ],
      "outputs": [
        {
          "name": "reqHash",
          "type": "bytes32",
          "internalType": "bytes32"
        }
      ],
      "stateMutability": "view"
    },
    {
      "type": "function",
      "name": "getSavedValidatorSet",
      "inputs": [
        {
          "name": "period",
          "type": "uint256",
          "internalType": "uint256"
        }
      ],
      "outputs": [
        {
          "name": "",
          "type": "tuple",
          "internalType": "struct LibSortValidatorsByBeacon.ValidatorStorage",
          "components": [
            {
              "name": "_pickAll",
              "type": "bool",
              "internalType": "bool"
            },
            {
              "name": "_sorted",
              "type": "tuple",
              "internalType": "struct LibSortValidatorsByBeacon.SortedValidatorStorage",
              "components": [
                {
                  "name": "_nRV",
                  "type": "uint16",
                  "internalType": "uint16"
                },
                {
                  "name": "_nonRotatingValidators",
                  "type": "address[]",
                  "internalType": "address[]"
                },
                {
                  "name": "_rotatingValidators",
                  "type": "tuple[]",
                  "internalType": "struct LibSortValidatorsByBeacon.RotatingValidatorStorage[]",
                  "components": [
                    {
                      "name": "_cid",
                      "type": "address",
                      "internalType": "address"
                    },
                    {
                      "name": "_staked",
                      "type": "uint96",
                      "internalType": "uint96"
                    }
                  ]
                }
              ]
            },
            {
              "name": "_unsorted",
              "type": "tuple",
              "internalType": "struct LibSortValidatorsByBeacon.UnsortedValidatorStorage",
              "components": [
                {
                  "name": "_cids",
                  "type": "address[]",
                  "internalType": "address[]"
                }
              ]
            }
          ]
        }
      ],
      "stateMutability": "view"
    },
    {
      "type": "function",
      "name": "getSelectedValidatorSet",
      "inputs": [
        {
          "name": "period",
          "type": "uint256",
          "internalType": "uint256"
        },
        {
          "name": "epoch",
          "type": "uint256",
          "internalType": "uint256"
        }
      ],
      "outputs": [
        {
          "name": "pickedCids",
          "type": "address[]",
          "internalType": "address[]"
        }
      ],
      "stateMutability": "view"
    },
    {
      "type": "function",
      "name": "getUnavailabilityCount",
      "inputs": [
        {
          "name": "consensus",
          "type": "address",
          "internalType": "TConsensus"
        }
      ],
      "outputs": [
        {
          "name": "count",
          "type": "uint256",
          "internalType": "uint256"
        }
      ],
      "stateMutability": "view"
    },
    {
      "type": "function",
      "name": "getUnavailabilityCountById",
      "inputs": [
        {
          "name": "cid",
          "type": "address",
          "internalType": "address"
        }
      ],
      "outputs": [
        {
          "name": "count",
          "type": "uint256",
          "internalType": "uint256"
        }
      ],
      "stateMutability": "view"
    },
    {
      "type": "function",
      "name": "getUnavailabilitySlashThreshold",
      "inputs": [],
      "outputs": [
        {
          "name": "threshold",
          "type": "uint256",
          "internalType": "uint256"
        }
      ],
      "stateMutability": "view"
    },
    {
      "type": "function",
      "name": "getValidatorThreshold",
      "inputs": [
        {
          "name": "validatorType",
          "type": "uint8",
          "internalType": "enum IRandomBeacon.ValidatorType"
        }
      ],
      "outputs": [
        {
          "name": "threshold",
          "type": "uint256",
          "internalType": "uint256"
        }
      ],
      "stateMutability": "view"
    },
    {
      "type": "function",
      "name": "initialize",
      "inputs": [
        {
          "name": "profile",
          "type": "address",
          "internalType": "address"
        },
        {
          "name": "staking",
          "type": "address",
          "internalType": "address"
        },
        {
          "name": "trustedOrg",
          "type": "address",
          "internalType": "address"
        },
        {
          "name": "validatorSet",
          "type": "address",
          "internalType": "address"
        },
        {
          "name": "slashThreshold",
          "type": "uint256",
          "internalType": "uint256"
        },
        {
          "name": "activatedAtPeriod",
          "type": "uint256",
          "internalType": "uint256"
        },
        {
          "name": "validatorTypes",
          "type": "uint8[]",
          "internalType": "enum IRandomBeacon.ValidatorType[]"
        },
        {
          "name": "thresholds",
          "type": "uint256[]",
          "internalType": "uint256[]"
        }
      ],
      "outputs": [],
      "stateMutability": "nonpayable"
    },
    {
      "type": "function",
      "name": "initializeV2",
      "inputs": [],
      "outputs": [],
      "stateMutability": "nonpayable"
    },
    {
      "type": "function",
      "name": "initializeV3",
      "inputs": [],
      "outputs": [],
      "stateMutability": "nonpayable"
    },
    {
      "type": "function",
      "name": "isSubmittedAt",
      "inputs": [
        {
          "name": "period",
          "type": "uint256",
          "internalType": "uint256"
        },
        {
          "name": "consensus",
          "type": "address",
          "internalType": "TConsensus"
        }
      ],
      "outputs": [
        {
          "name": "submitted",
          "type": "bool",
          "internalType": "bool"
        }
      ],
      "stateMutability": "view"
    },
    {
      "type": "function",
      "name": "isSubmittedAtById",
      "inputs": [
        {
          "name": "period",
          "type": "uint256",
          "internalType": "uint256"
        },
        {
          "name": "cid",
          "type": "address",
          "internalType": "address"
        }
      ],
      "outputs": [
        {
          "name": "submitted",
          "type": "bool",
          "internalType": "bool"
        }
      ],
      "stateMutability": "view"
    },
    {
      "type": "function",
      "name": "isSubmittedAtByKeyHash",
      "inputs": [
        {
          "name": "period",
          "type": "uint256",
          "internalType": "uint256"
        },
        {
          "name": "keyHash",
          "type": "bytes32",
          "internalType": "bytes32"
        }
      ],
      "outputs": [
        {
          "name": "submitted",
          "type": "bool",
          "internalType": "bool"
        }
      ],
      "stateMutability": "view"
    },
    {
      "type": "function",
      "name": "pickValidatorSetForCurrentPeriod",
      "inputs": [
        {
          "name": "epoch",
          "type": "uint256",
          "internalType": "uint256"
        }
      ],
      "outputs": [
        {
          "name": "pickedCids",
          "type": "address[]",
          "internalType": "address[]"
        }
      ],
      "stateMutability": "view"
    },
    {
      "type": "function",
      "name": "setContract",
      "inputs": [
        {
          "name": "contractType",
          "type": "uint8",
          "internalType": "enum ContractType"
        },
        {
          "name": "addr",
          "type": "address",
          "internalType": "address"
        }
      ],
      "outputs": [],
      "stateMutability": "nonpayable"
    },
    {
      "type": "function",
      "name": "setUnavailabilitySlashThreshold",
      "inputs": [
        {
          "name": "threshold",
          "type": "uint256",
          "internalType": "uint256"
        }
      ],
      "outputs": [],
      "stateMutability": "nonpayable"
    },
    {
      "type": "event",
      "name": "BeaconFinalized",
      "inputs": [
        {
          "name": "period",
          "type": "uint256",
          "indexed": true,
          "internalType": "uint256"
        },
        {
          "name": "value",
          "type": "uint256",
          "indexed": false,
          "internalType": "uint256"
        }
      ],
      "anonymous": false
    },
    {
      "type": "event",
      "name": "ContractUpdated",
      "inputs": [
        {
          "name": "contractType",
          "type": "uint8",
          "indexed": true,
          "internalType": "enum ContractType"
        },
        {
          "name": "addr",
          "type": "address",
          "indexed": true,
          "internalType": "address"
        }
      ],
      "anonymous": false
    },
    {
      "type": "event",
      "name": "Initialized",
      "inputs": [
        {
          "name": "version",
          "type": "uint8",
          "indexed": false,
          "internalType": "uint8"
        }
      ],
      "anonymous": false
    },
    {
      "type": "event",
      "name": "RandomSeedFulfilled",
      "inputs": [
        {
          "name": "by",
          "type": "address",
          "indexed": true,
          "internalType": "address"
        },
        {
          "name": "period",
          "type": "uint256",
          "indexed": true,
          "internalType": "uint256"
        },
        {
          "name": "reqHash",
          "type": "bytes32",
          "indexed": true,
          "internalType": "bytes32"
        }
      ],
      "anonymous": false
    },
    {
      "type": "event",
      "name": "RandomSeedRequested",
      "inputs": [
        {
          "name": "period",
          "type": "uint256",
          "indexed": true,
          "internalType": "uint256"
        },
        {
          "name": "reqHash",
          "type": "bytes32",
          "indexed": true,
          "internalType": "bytes32"
        },
        {
          "name": "req",
          "type": "tuple",
          "indexed": false,
          "internalType": "struct RandomRequest",
          "components": [
            {
              "name": "period",
              "type": "uint256",
              "internalType": "uint256"
            },
            {
              "name": "prevBeacon",
              "type": "uint256",
              "internalType": "uint256"
            },
            {
              "name": "chainId",
              "type": "uint256",
              "internalType": "uint256"
            },
            {
              "name": "verifyingContract",
              "type": "address",
              "internalType": "address"
            }
          ]
        }
      ],
      "anonymous": false
    },
    {
      "type": "event",
      "name": "SlashUnavailabilityThresholdUpdated",
      "inputs": [
        {
          "name": "value",
          "type": "uint256",
          "indexed": false,
          "internalType": "uint256"
        }
      ],
      "anonymous": false
    },
    {
      "type": "event",
      "name": "ValidatorSetSaved",
      "inputs": [
        {
          "name": "period",
          "type": "uint256",
          "indexed": true,
          "internalType": "uint256"
        },
        {
          "name": "pickedAll",
          "type": "bool",
          "indexed": false,
          "internalType": "bool"
        },
        {
          "name": "nRV",
          "type": "uint256",
          "indexed": false,
          "internalType": "uint256"
        },
        {
          "name": "nonRotatingValidators",
          "type": "address[]",
          "indexed": false,
          "internalType": "address[]"
        },
        {
          "name": "rotatingValidators",
          "type": "address[]",
          "indexed": false,
          "internalType": "address[]"
        },
        {
          "name": "rotatingStakeAmounts",
          "type": "uint256[]",
          "indexed": false,
          "internalType": "uint256[]"
        }
      ],
      "anonymous": false
    },
    {
      "type": "event",
      "name": "ValidatorThresholdUpdated",
      "inputs": [
        {
          "name": "validatorType",
          "type": "uint8",
          "indexed": true,
          "internalType": "enum IRandomBeacon.ValidatorType"
        },
        {
          "name": "threshold",
          "type": "uint256",
          "indexed": false,
          "internalType": "uint256"
        }
      ],
      "anonymous": false
    },
    {
      "type": "error",
      "name": "ErrAlreadyFinalizedBeacon",
      "inputs": [
        {
          "name": "period",
          "type": "uint256",
          "internalType": "uint256"
        }
      ]
    },
    {
      "type": "error",
      "name": "ErrAlreadySubmitted",
      "inputs": []
    },
    {
      "type": "error",
      "name": "ErrContractTypeNotFound",
      "inputs": [
        {
          "name": "contractType",
          "type": "uint8",
          "internalType": "enum ContractType"
        }
      ]
    },
    {
      "type": "error",
      "name": "ErrInvalidChainId",
      "inputs": [
        {
          "name": "expected",
          "type": "uint256",
          "internalType": "uint256"
        },
        {
          "name": "actual",
          "type": "uint256",
          "internalType": "uint256"
        }
      ]
    },
    {
      "type": "error",
      "name": "ErrInvalidKeyHash",
      "inputs": [
        {
          "name": "expected",
          "type": "bytes32",
          "internalType": "bytes32"
        },
        {
          "name": "actual",
          "type": "bytes32",
          "internalType": "bytes32"
        }
      ]
    },
    {
      "type": "error",
      "name": "ErrInvalidPeriod",
      "inputs": []
    },
    {
      "type": "error",
      "name": "ErrInvalidProof",
      "inputs": []
    },
    {
      "type": "error",
      "name": "ErrInvalidRandomRequest",
      "inputs": [
        {
          "name": "expected",
          "type": "bytes32",
          "internalType": "bytes32"
        },
        {
          "name": "actual",
          "type": "bytes32",
          "internalType": "bytes32"
        }
      ]
    },
    {
      "type": "error",
      "name": "ErrInvalidThresholdConfig",
      "inputs": []
    },
    {
      "type": "error",
      "name": "ErrInvalidVerifyingContract",
      "inputs": [
        {
          "name": "expected",
          "type": "address",
          "internalType": "address"
        },
        {
          "name": "actual",
          "type": "address",
          "internalType": "address"
        }
      ]
    },
    {
      "type": "error",
      "name": "ErrLengthMismatch",
      "inputs": []
    },
    {
      "type": "error",
      "name": "ErrLengthMismatch",
      "inputs": [
        {
          "name": "msgSig",
          "type": "bytes4",
          "internalType": "bytes4"
        }
      ]
    },
    {
      "type": "error",
      "name": "ErrNotActivated",
      "inputs": [
        {
          "name": "untilPeriod",
          "type": "uint256",
          "internalType": "uint256"
        }
      ]
    },
    {
      "type": "error",
      "name": "ErrNotEndedChangeKeyHashCooldown",
      "inputs": []
    },
    {
      "type": "error",
      "name": "ErrNotEndedRegisterCooldown",
      "inputs": []
    },
    {
      "type": "error",
      "name": "ErrNotFinalizedBeacon",
      "inputs": [
        {
          "name": "period",
          "type": "uint256",
          "internalType": "uint256"
        }
      ]
    },
    {
      "type": "error",
      "name": "ErrOutOfRange",
      "inputs": [
        {
          "name": "index",
          "type": "uint256",
          "internalType": "uint256"
        }
      ]
    },
    {
      "type": "error",
      "name": "ErrUnauthorized",
      "inputs": [
        {
          "name": "msgSig",
          "type": "bytes4",
          "internalType": "bytes4"
        },
        {
          "name": "expectedRole",
          "type": "uint8",
          "internalType": "enum RoleAccess"
        }
      ]
    },
    {
      "type": "error",
      "name": "ErrUnauthorizedCall",
      "inputs": [
        {
          "name": "msgSig",
          "type": "bytes4",
          "internalType": "bytes4"
        }
      ]
    },
    {
      "type": "error",
      "name": "ErrUnexpectedInternalCall",
      "inputs": [
        {
          "name": "msgSig",
          "type": "bytes4",
          "internalType": "bytes4"
        },
        {
          "name": "expectedContractType",
          "type": "uint8",
          "internalType": "enum ContractType"
        },
        {
          "name": "actual",
          "type": "address",
          "internalType": "address"
        }
      ]
    },
    {
      "type": "error",
      "name": "ErrZeroCodeContract",
      "inputs": [
        {
          "name": "addr",
          "type": "address",
          "internalType": "address"
        }
      ]
    }
  ],
  "absolutePath": "RoninRandomBeacon_Mainnet.sol",
  "address": "0xEEFA82a9F0ECce5Ce6052C15e48fF7eC2D95F83A",
  "blockNumber": 35601639,
  "bytecode": "0x60a060405234801561001057600080fd5b50610019610022565b436080526100e2565b600054610100900460ff161561008e5760405162461bcd60e51b815260206004820152602760248201527f496e697469616c697a61626c653a20636f6e747261637420697320696e697469604482015266616c697a696e6760c81b606482015260840160405180910390fd5b60005460ff90811610156100e0576000805460ff191660ff9081179091556040519081527f7f26b83ff96e1f2b6a682f133852f6798a09c465da95921460cefb38474024989060200160405180910390a15b565b6080516144d36100fd600039600061086701526144d36000f3fe608060405234801561001057600080fd5b50600436106101cf5760003560e01c806380d1271011610104578063e02f6271116100a2578063e7d4699711610071578063e7d469971461044c578063eb0645c414610453578063f1a7340b14610466578063f5a77abb1461047957600080fd5b8063e02f627114610400578063e3a4376514610413578063e444722a14610426578063e78bb6271461043957600080fd5b80639c7300e3116100de5780639c7300e31461039a578063d0ddb12b146103ad578063d1bd2f01146103cd578063de981f1b146103d557600080fd5b806380d1271014610328578063865e6fd31461037f578063917a65bd1461039257600080fd5b80633a570332116101715780635cd8a76b1161014b5780635cd8a76b146102da57806365291db7146102e25780636558954f1461030b5780637931e9ec1461031557600080fd5b80633a570332146102685780633ba1de371461027b57806346337c2f1461028e57600080fd5b806316519133116101ad578063165191331461020b5780633355b0f01461022b57806335188e311461024057806338e454b11461026057600080fd5b8063035d0062146101d457806303827884146101fa57806311ed98f714610203575b600080fd5b6101e76101e2366004613a0e565b61048c565b6040519081526020015b60405180910390f35b6101e761183881565b6034546101e7565b61021e610219366004613a2f565b6104cb565b6040516101f19190613a96565b61023e610239366004613aa9565b610521565b005b6101e761024e366004613aa9565b60009081526037602052604090205490565b61023e610535565b6101e7610276366004613ae2565b61060d565b61023e610289366004613b4b565b610621565b6102ca61029c366004613bb5565b60009182526037602090815260408084206001600160a01b0390931684526003909201905290205460ff1690565b60405190151581526020016101f1565b61023e6106ea565b6101e76102f0366004613ae2565b6001600160a01b031660009081526036602052604090205490565b6101e76201518081565b61021e610323366004613aa9565b61076e565b610364610336366004613aa9565b60009081526037602052604090206001810154600290910154909160ff821691610100900463ffffffff1690565b604080519384529115156020840152908201526060016101f1565b61023e61038d366004613bf4565b610782565b6035546101e7565b61023e6103a8366004613c20565b6107a1565b6103c06103bb366004613aa9565b610964565b6040516101f19190613d06565b6033546101e7565b6103e86103e3366004613dc7565b6109b2565b6040516001600160a01b0390911681526020016101f1565b6102ca61040e366004613bb5565b610a46565b61023e610421366004613a2f565b610a55565b61023e610434366004613de2565b610ab8565b6101e7610447366004613f16565b610c75565b60016101e7565b6102ca610461366004613a2f565b610c80565b61023e610474366004613f32565b610d4a565b61023e610487366004613f79565b610fc9565b6000603860008360048111156104a4576104a4613fd9565b60048111156104b5576104b5613fd9565b8152602001908152602001600020549050919050565b600082815260376020526040902060028101546060919060ff1661050a5760405163d28d7c0760e01b8152600481018590526024015b60405180910390fd5b61051984848360010154610fdd565b949350505050565b6105296111ad565b61053281611223565b50565b600054600390610100900460ff16158015610557575060005460ff8083169116105b6105ba5760405162461bcd60e51b815260206004820152602e60248201527f496e697469616c697a61626c653a20636f6e747261637420697320616c72656160448201526d191e481a5b9a5d1a585b1a5e995960921b6064820152608401610501565b6000805461ffff191660ff83169081176101001761ff0019169091556040519081527f7f26b83ff96e1f2b6a682f133852f6798a09c465da95921460cefb3847402498906020015b60405180910390a150565b600061061b6102f083611258565b92915050565b600861062c816112e9565b8560335481106106e15760008681526037602052604081209061065089878761134e565b9050600061065e600a6109b2565b6001600160a01b0316632cccb53c836040518263ffffffff1660e01b81526004016106899190613a96565b600060405180830381865afa1580156106a6573d6000803e3d6000fd5b505050506040513d6000823e601f3d908101601f191682016040526106ce9190810190613fef565b90506106dd838b8a85856114c3565b5050505b50505050505050565b600054600290610100900460ff16158015610557575060005460ff8083169116106105ba5760405162461bcd60e51b815260206004820152602e60248201527f496e697469616c697a61626c653a20636f6e747261637420697320616c72656160448201526d191e481a5b9a5d1a585b1a5e995960921b6064820152608401610501565b606061061b61077c4261166a565b836104cb565b61078a6111ad565b61079381611679565b61079d82826116c8565b5050565b600054610100900460ff16158080156107c15750600054600160ff909116105b806107db5750303b1580156107db575060005460ff166001145b61083e5760405162461bcd60e51b815260206004820152602e60248201527f496e697469616c697a61626c653a20636f6e747261637420697320616c72656160448201526d191e481a5b9a5d1a585b1a5e995960921b6064820152608401610501565b6000805460ff191660011790558015610861576000805461ff0019166101001790555b604080517f0000000000000000000000000000000000000000000000000000000000000000406020820152419181019190915242606082015246608082015260009060a001604051602081830303815290604052805190602001209050866033819055506108ce88611223565b6108da86868686611779565b6108e48782611977565b6108ef600f8d6116c8565b6108fa60098c6116c8565b61090560088a6116c8565b610910600a8b6116c8565b508015610957576000805461ff0019169055604051600181527f7f26b83ff96e1f2b6a682f133852f6798a09c465da95921460cefb38474024989060200160405180910390a15b5050505050505050505050565b61096c6138b3565b6000828152603760205260409020600281015460ff166109a25760405163d28d7c0760e01b815260048101849052602401610501565b6109ab83611a2b565b9392505050565b60007fdea3103d22025c269050bea94c0c84688877f12fa22b7e6d2d5d78a9a49aa1cb60008360108111156109e9576109e9613fd9565b60ff1681526020810191909152604001600020546001600160a01b0316905080610a4157816040517f812281be000000000000000000000000000000000000000000000000000000008152600401610501919061409d565b919050565b60006109ab8361029c84611258565b6008610a60816112e9565b816033548110610ab2578284108015610a795750610ab2565b600185016000818152603760205260408120549003610aaf57600086815260376020526040902060010154610aaf908290611977565b50505b50505050565b6008610ac3816112e9565b836033548110610aaf57600085815260376020526040812090610ae788878761134e565b90506000610af5600a6109b2565b6001600160a01b0316632cccb53c836040518263ffffffff1660e01b8152600401610b209190613a96565b600060405180830381865afa158015610b3d573d6000803e3d6000fd5b505050506040513d6000823e601f3d908101601f19168201604052610b659190810190613fef565b9050610b718389611be5565b60386020527f44eb26011dd1cf82e0b45a2fb60b23f01ab68cabbe2fe1f3e7b70c0873d5dc5b547f76ace02705df1df747e114090468e0edd81a8d99edc641fff18613cd34df0a6e5460046000527fcc8ed3027127ab69e71f55f03e2b60fb19c73a8aa6226b8d2256163b82f4941f54610c6a928b92909186610bf460096109b2565b6001600160a01b0316635a2ac073896040518263ffffffff1660e01b8152600401610c1f9190613a96565b600060405180830381865afa158015610c3c573d6000803e3d6000fd5b505050506040513d6000823e601f3d908101601f19168201604052610c649190810190613fef565b87611c3e565b505050505050505050565b600061061b82611d5b565b600080610c8d600f6109b2565b6040517fb96f5c3e000000000000000000000000000000000000000000000000000000008152600481018590529091506000906001600160a01b0383169063b96f5c3e90602401602060405180830381865afa158015610cf1573d6000803e3d6000fd5b505050506040513d601f19601f82011682018060405250810190610d1591906140ab565b60008681526037602090815260408083206001600160a01b038516845260030190915290205490915060ff1695945050505050565b6000610d63610d5e368590038501856140c8565b611d8b565b604080518082018252919250600091610d949185906002908390839080828437600092019190915250611d5b915050565b90506000610da2600f6109b2565b90506000806000836001600160a01b03166348b2c382866040518263ffffffff1660e01b8152600401610dd791815260200190565b606060405180830381865afa158015610df4573d6000803e3d6000fd5b505050506040513d601f19601f82011682018060405250810190610e189190614134565b9250925092506000610e2a60086109b2565b6001600160a01b031663060406186040518163ffffffff1660e01b8152600401602060405180830381865afa158015610e67573d6000803e3d6000fd5b505050506040513d601f19601f82011682018060405250810190610e8b919061416b565b89356000908152603760205260409020909150610eaa8a82848b611dcd565b610eb5858484611f93565b610ec28a8a848a886120bb565b6001600160a01b038516600090815260038201602052604090205460ff1615610f17576040517f23afea6300000000000000000000000000000000000000000000000000000000815260040160405180910390fd5b60028101805464ffffffff0019811660016101009283900463ffffffff908116820116909202179091556001600160a01b03861660009081526003830160205260409020805460ff19169091179055610f82610f78368b90038b018b614184565b8a60c0013561215e565b600182018054909118905560405188908b359033907f9c42f0e233770417c75c168e2ec97a2db8e34b756d12f8e002e90d144f4a16cc90600090a450505050505050505050565b610fd16111ad565b610ab284848484611779565b60008381527f8593e13447c7ce85611f094407732145bce33e516174eca63d12235f1402260060205260409020805460609190600482019060ff161561107c5780546040805160208084028201810190925282815291839183018282801561106e57602002820191906000526020600020905b81546001600160a01b03168152600190910190602001808311611050575b5050505050925050506109ab565b60008260010190506000816001018054806020026020016040519081016040528092919081815260200182805480156110de57602002820191906000526020600020905b81546001600160a01b031681526001909101906020018083116110c0575b505085549394505061ffff9092169150506000819003611104575093506109ab92505050565b600083600201805480602002602001604051908101604052809291908181526020016000905b8282101561117e57600084815260209081902060408051808201909152908401546001600160a01b0381168252600160a01b90046bffffffffffffffffffffffff168183015282526001909201910161112a565b505050509050600061119282848b8d6121c9565b905061119e848261236d565b9b9a5050505050505050505050565b7fb53127684a568b3173ae13b9f8a6016e243e63b6e8ee1178d6a717850b5d6103546001600160a01b03163314611221576000356001600160e01b03191660016040517f3e523c00000000000000000000000000000000000000000000000000000000008152600401610501929190614228565b565b60358190556040518181527fc642d5e4298fca4d2285021791ffdf4afce31ec672299930b7ada0047b15d24390602001610602565b6000611264600f6109b2565b6040517f50a9fc290000000000000000000000000000000000000000000000000000000081526001600160a01b03848116600483015291909116906350a9fc2990602401602060405180830381865afa1580156112c5573d6000803e3d6000fd5b505050506040513d601f19601f8201168201806040525081019061061b91906140ab565b6112f2816109b2565b6001600160a01b0316336001600160a01b031614610532576000356001600160e01b03191681336040517f8383e63400000000000000000000000000000000000000000000000000000000815260040161050193929190614256565b6060600060018161135f600f6109b2565b6001600160a01b031663c621ab5887876040518363ffffffff1660e01b815260040161138c92919061428b565b600060405180830381865afa1580156113a9573d6000803e3d6000fd5b505050506040513d6000823e601f3d908101601f191682016040526113d19190810190613fef565b9050848067ffffffffffffffff8111156113ed576113ed613e35565b604051908082528060200260200182016040528015611416578160200160208202803683370190505b50945060005b818110156114b557888461144885848151811061143b5761143b6142d9565b602002602001015161166a565b01116114ad57878782818110611460576114606142d9565b90506020020160208101906114759190613ae2565b865160018701968891811061148c5761148c6142d9565b60200260200101906001600160a01b031690816001600160a01b0316815250505b60010161141c565b505050908252509392505050565b836033548110610aaf5782516035546000918291825b82811015610957578681815181106114f3576114f36142d9565b602002602001015160001461166257878181518110611514576115146142d9565b6020026020010151945060366000866001600160a01b03166001600160a01b031681526020019081526020016000205493508a6003016000866001600160a01b03166001600160a01b0316815260200190815260200160002060009054906101000a900460ff16156115a55783156115a0576001600160a01b0385166000908152603660205260408120555b611662565b6001600160a01b0385166000908152603660205260409020600190940193849055818410611662576040517f35cbdbe30000000000000000000000000000000000000000000000000000000081526001600160a01b038681166004830152602482018c90528a16906335cbdbe390604401600060405180830381600087803b15801561163057600080fd5b505af1158015611644573d6000803e3d6000fd5b5050506001600160a01b038616600090815260366020526040812055505b6001016114d9565b600061061b6201518083614305565b806001600160a01b03163b600003610532576040517f2ff1928c0000000000000000000000000000000000000000000000000000000081526001600160a01b0382166004820152602401610501565b807fdea3103d22025c269050bea94c0c84688877f12fa22b7e6d2d5d78a9a49aa1cb60008460108111156116fe576116fe613fd9565b60ff1681526020810191909152604001600020805473ffffffffffffffffffffffffffffffffffffffff19166001600160a01b03928316179055811682601081111561174c5761174c613fd9565b6040517f865d1c228a8ea13709cfe61f346f7ff67f1bbd4a18ff31ad3e7147350d317c5990600090a35050565b828181146117c1576040517f1ad599d40000000000000000000000000000000000000000000000000000000081526001600160e01b0319600035166004820152602401610501565b60008060005b83811015611899578787828181106117e1576117e16142d9565b90506020020160208101906117f69190613a0e565b915085858281811061180a5761180a6142d9565b905060200201359250826038600084600481111561182a5761182a613fd9565b600481111561183b5761183b613fd9565b815260208101919091526040016000205581600481111561185e5761185e613fd9565b6040518481527f57e533b2b2703988ec2b03256b82a8f952d21aecdcb8644c531a3020210089069060200160405180910390a26001016117c7565b5060386020527f33a28b70ecab075fc507d0cb5ffac06e3bc912aa6c671a1fa4ccb48318e19b11547fcc8ed3027127ab69e71f55f03e2b60fb19c73a8aa6226b8d2256163b82f4941f547f76ace02705df1df747e114090468e0edd81a8d99edc641fff18613cd34df0a6e5460026000527f44eb26011dd1cf82e0b45a2fb60b23f01ab68cabbe2fe1f3e7b70c0873d5dc5b546119369190614319565b6119409190614319565b146106e1576040517f970f2d6400000000000000000000000000000000000000000000000000000000815260040160405180910390fd5b6040805160808101825283815260208101839052469181019190915230606082015260006119a482611d8b565b82516000908152603760205260409081902082905551909150819085907f6c8f5422289494c55b959cb4d0900ec451d35b3bdf06e9d29cd80bfab61b243890611a1d9086908151815260208083015190820152604080830151908201526060918201516001600160a01b03169181019190915260800190565b60405180910390a350505050565b611a336138b3565b60008281527f8593e13447c7ce85611f094407732145bce33e516174eca63d12235f14022600602052604090206040805160608082018352835460ff16151582528251908101835260018401805461ffff1682526002850180548551602082810282018101909752818152949695808801958582019390929091830182828015611ae657602002820191906000526020600020905b81546001600160a01b03168152600190910190602001808311611ac8575b5050505050815260200160028201805480602002602001604051908101604052809291908181526020016000905b82821015611b6857600084815260209081902060408051808201909152908401546001600160a01b0381168252600160a01b90046bffffffffffffffffffffffff1681830152825260019092019101611b14565b50505091525050815260408051600484018054602081810284018501855283810182815295019492939192849290918491840182828015611bd257602002820191906000526020600020905b81546001600160a01b03168152600190910190602001808311611bb4575b5050509190925250505090525092915050565b60028201805460ff19166001908117909155603482905582015460405182917fd31a863f0b5130ba75e27a3764828141ba7bc06056dfcdade31d12ab52a4278491611c3291815260200190565b60405180910390a25050565b8251825181148015611c505750815181145b611c6d5760405163ab3a7f9960e01b815260040160405180910390fd5b80858789010110611c8857611c82888561237f565b506106e1565b6000611c9382612477565b90506000611ca0836124f5565b90506000611cb18386612559612581565b9050611cc8611cc0878361263c565b82908c6126f1565b9050611cd48282612719565b5080518a0398909801976000611ced848461282761284a565b9050611cfc611cc0888361263c565b9050611d088382612719565b506000611d18858561282761284a565b9050611d4c8d8b611d33611d2c878761285b565b8d90612971565b611d3d8d86612971565b611d478d8761263c565b612980565b50505050505050505050505050565b600081604051602001611d6e919061435d565b604051602081830303815290604052805190602001209050919050565b8051602080830151604080850151606080870151835195860196909652918401929092528201526001600160a01b03909116608082015260009060a001611d6e565b46846040013514611e1657604080517fbf65d029000000000000000000000000000000000000000000000000000000008152466004820152908501356024820152604401610501565b30611e276080860160608701613ae2565b6001600160a01b031614611e8b5730611e466080860160608701613ae2565b6040517f23400dbf0000000000000000000000000000000000000000000000000000000081526001600160a01b03928316600482015291166024820152604401610501565b83358210611ec5576040517fca5d513700000000000000000000000000000000000000000000000000000000815260040160405180910390fd5b60335484351015611f05576040517fba59f28e00000000000000000000000000000000000000000000000000000000815284356004820152602401610501565b600283015460ff1615611f47576040517f4a5a251600000000000000000000000000000000000000000000000000000000815284356004820152602401610501565b8254818114611f8c576040517f639beb990000000000000000000000000000000000000000000000000000000081526004810182905260248101839052604401610501565b5050505050565b6000611f9f600a6109b2565b6040517fb8cc3a500000000000000000000000000000000000000000000000000000000081526001600160a01b0386811660048301529192509082169063b8cc3a5090602401602060405180830381865afa158015612002573d6000803e3d6000fd5b505050506040513d601f19601f82011682018060405250810190612026919061416b565b60000361206d576040517f8f47e7e30000000000000000000000000000000000000000000000000000000081526001600160e01b0319600035166004820152602401610501565b8160016120798561166a565b6120839190614319565b1115610ab2576040517f2a3c9cd700000000000000000000000000000000000000000000000000000000815260040160405180910390fd5b8260016120c78361166a565b6120d19190614319565b1115612109576040517fc351997500000000000000000000000000000000000000000000000000000000815260040160405180910390fd5b60c084013561212783612121368990038901896140c8565b90612b0d565b14611f8c576040517f1420993200000000000000000000000000000000000000000000000000000000815260040160405180910390fd5b60006121928360000151846020015185604001518660600151868860a001518960c001518a60e001518b6101000151612b56565b600383602001516040516020016121aa92919061436b565b60408051601f1981840301815291905280516020909101209392505050565b83516060908067ffffffffffffffff8111156121e7576121e7613e35565b604051908082528060200260200182016040528015612210578160200160208202803683370190505b50915060008167ffffffffffffffff81111561222e5761222e613e35565b604051908082528060200260200182016040528015612257578160200160208202803683370190505b50905060008060008060405190508881528760208201526060810160405260005b86811015612361578b8181518110612292576122926142d9565b6020026020010151600001519450848882815181106122b3576122b36142d9565b60200260200101906001600160a01b031690816001600160a01b0316815250508b81815181106122e5576122e56142d9565b6020026020010151602001516bffffffffffffffffffffffff169250846040830152606082206fffffffffffffffffffffffffffffffff81168160801c9150670de0b6b3a764000085048282188182020296505050508386828151811061234e5761234e6142d9565b6020908102919091010152600101612278565b5061119e87868c612d91565b60606109ab61237c848461285b565b90565b60008281527f8593e13447c7ce85611f094407732145bce33e516174eca63d12235f1402260060205260408120805460ff19166001908117825583519192508201906123d4906004840190602086019061390f565b50805461ffff191681556123ec600282016000613981565b6123fa600182016000613981565b837f32c9c468454fcf853e08d256000b08598539a799e849e0e7d8309c15eeb53ec360016000868160405190808252806020026020018201604052801561244b578160200160208202803683370190505b506040805160008152602081019182905261246995949392916143b0565b60405180910390a250505050565b60608167ffffffffffffffff81111561249257612492613e35565b6040519080825280602002602001820160405280156124bb578160200160208202803683370190505b50905060005b828110156124ef57808282815181106124dc576124dc6142d9565b60209081029190910101526001016124c1565b50919050565b60408051602081019091526060815261010061ffff83160460010167ffffffffffffffff81111561252857612528613e35565b604051908082528060200260200182016040528015612551578160200160208202803683370190505b508152919050565b600081838151811061256d5761256d6142d9565b602002602001015160001415905092915050565b82516060908067ffffffffffffffff81111561259f5761259f613e35565b6040519080825280602002602001820160405280156125c8578160200160208202803683370190505b5091506000805b82811015612631576125e581878763ffffffff16565b15612629578681815181106125fc576125fc6142d9565b602002602001015184838060010194508151811061261c5761261c6142d9565b6020026020010181815250505b6001016125cf565b508252509392505050565b80516060908067ffffffffffffffff81111561265a5761265a613e35565b604051908082528060200260200182016040528015612683578160200160208202803683370190505b50915060005b818110156126e957848482815181106126a4576126a46142d9565b6020026020010151815181106126bc576126bc6142d9565b60200260200101518382815181106126d6576126d66142d9565b6020908102919091010152600101612689565b505092915050565b825160609080831061270657849150506109ab565b6127108585612da1565b50505082525090565b604080516020810190915260608152815183515160009161010091835b8281101561281b5783878281518110612751576127516142d9565b602002602001015181612766576127666142ef565b0494508185106127bf57868181518110612782576127826142d9565b60200260200101516040517f26d9bac100000000000000000000000000000000000000000000000000000000815260040161050191815260200190565b838782815181106127d2576127d26142d9565b6020026020010151816127e7576127e76142ef565b066001901b88600001518681518110612802576128026142d9565b6020908102919091010180519091179052600101612736565b50959695505050505050565b60408051602081019091528181526000906128429084612dad565b159392505050565b606061051984846000015184612581565b8151815160609190600082900361287657839250505061061b565b8060000361288857849250505061061b565b80820167ffffffffffffffff8111156128a3576128a3613e35565b6040519080825280602002602001820160405280156128cc578160200160208202803683370190505b50925060005b82811015612919578581815181106128ec576128ec6142d9565b6020026020010151848281518110612906576129066142d9565b60209081029190910101526001016128d2565b60005b8281101561296757858181518110612936576129366142d9565b6020026020010151858381518110612950576129506142d9565b60209081029190910101526001918201910161291c565b5050505092915050565b60606109ab61237c848461263c565b60008581527f8593e13447c7ce85611f094407732145bce33e516174eca63d12235f1402260060205260408120805460ff191681559050600181016129c9600483016000613981565b6129d7600282016000613981565b84516129ec906001830190602088019061390f565b50867f32c9c468454fcf853e08d256000b08598539a799e849e0e7d8309c15eeb53ec3600088888888604051612a269594939291906143b0565b60405180910390a285600003612a3d575050611f8c565b805461ffff191661ffff8716178155600083855160408051808201909152600080825260208201529192509060005b8281101561095757878181518110612a8657612a866142d9565b60209081029190910101516001600160a01b031682528351849082908110612ab057612ab06142d9565b6020908102919091018101516bffffffffffffffffffffffff9081168483019081526002880180546001818101835560009283529490912086519251909316600160a01b026001600160a01b039092169190911791015501612a6c565b8151602080840151604080860151606080880151835195860196909652918401929092528201526001600160a01b03909116608082015260a0810182905260009060c0016121aa565b612b5f89612e18565b612bab5760405162461bcd60e51b815260206004820152601a60248201527f7075626c6963206b6579206973206e6f74206f6e2063757276650000000000006044820152606401610501565b612bb488612e18565b612c005760405162461bcd60e51b815260206004820152601560248201527f67616d6d61206973206e6f74206f6e20637572766500000000000000000000006044820152606401610501565b612c0983612e18565b612c555760405162461bcd60e51b815260206004820152601d60248201527f6347616d6d615769746e657373206973206e6f74206f6e2063757276650000006044820152606401610501565b612c5e82612e18565b612caa5760405162461bcd60e51b815260206004820152601c60248201527f73486173685769746e657373206973206e6f74206f6e206375727665000000006044820152606401610501565b612cb6878a8887612ef1565b612d025760405162461bcd60e51b815260206004820152601960248201527f6164647228632a706b2b732a6729213d5f755769746e657373000000000000006044820152606401610501565b6000612d0e8a87613026565b90506000612d21898b878b86898961308a565b90506000612d32838d8d8a866131b6565b9050808a14612d835760405162461bcd60e51b815260206004820152600d60248201527f696e76616c69642070726f6f66000000000000000000000000000000000000006044820152606401610501565b505050505050505050505050565b606061051961237c8585856126f1565b60606109ab83836131f6565b8151516000906101009081028310612dc957600091505061061b565b808381612dd857612dd86142ef565b066001901b8460000151828581612df157612df16142ef565b0481518110612e0257612e026142d9565b6020026020010151166000141591505092915050565b80516000906401000003d01911612e715760405162461bcd60e51b815260206004820152601260248201527f696e76616c696420782d6f7264696e61746500000000000000000000000000006044820152606401610501565b60208201516401000003d01911612eca5760405162461bcd60e51b815260206004820152601260248201527f696e76616c696420792d6f7264696e61746500000000000000000000000000006044820152606401610501565b60208201516401000003d019908009612eea8360005b602002015161323e565b1492915050565b60006001600160a01b038216612f495760405162461bcd60e51b815260206004820152600b60248201527f626164207769746e6573730000000000000000000000000000000000000000006044820152606401610501565b602084015160009060011615612f6057601c612f63565b601b5b9050600070014551231950b75fc4402da1732fc9bebe1985876000602002015109865170014551231950b75fc4402da1732fc9bebe19918203925060009190890987516040805160008082526020820180845287905260ff88169282019290925260608101929092526080820183905291925060019060a0016020604051602081039080840390855afa158015612ffe573d6000803e3d6000fd5b5050604051601f1901516001600160a01b039081169088161495505050505050949350505050565b61302e61399f565b61305b60018484604051602001613047939291906143f7565b604051602081830303815290604052613262565b90505b61306781612e18565b61061b5780516040805160208101929092526130839101613047565b905061305e565b61309261399f565b825186516401000003d01991829006919006036130f15760405162461bcd60e51b815260206004820152601e60248201527f706f696e747320696e2073756d206d7573742062652064697374696e637400006044820152606401610501565b6130fc8789886132af565b6131485760405162461bcd60e51b815260206004820152601660248201527f4669727374206d756c20636865636b206661696c6564000000000000000000006044820152606401610501565b6131538486856132af565b61319f5760405162461bcd60e51b815260206004820152601760248201527f5365636f6e64206d756c20636865636b206661696c65640000000000000000006044820152606401610501565b6131aa8684846133ec565b98975050505050505050565b6000600286868685876040516020016131d496959493929190614418565b60408051601f1981840301815291905280516020909101209695505050505050565b8151815160609190811461321d5760405163ab3a7f9960e01b815260040160405180910390fd5b60018111156132365761323684846000600185036134b3565b509192915050565b6000806401000003d01980848509840990506401000003d019600782089392505050565b61326a61399f565b61327382613666565b8152613288613283826000612ee0565b6136a1565b6020820181905260029006600103610a41576020810180516401000003d019039052919050565b6000826000036133015760405162461bcd60e51b815260206004820152600b60248201527f7a65726f207363616c61720000000000000000000000000000000000000000006044820152606401610501565b8351602085015160009061331790600290614477565b1561332357601c613326565b601b5b9050600070014551231950b75fc4402da1732fc9bebe198387096040805160008082526020820180845281905260ff86169282019290925260608101869052608081018390529192509060019060a0016020604051602081039080840390855afa158015613398573d6000803e3d6000fd5b5050506020604051035190506000866040516020016133b7919061448b565b60408051601f1981840301815291905280516020909101206001600160a01b0392831692169190911498975050505050505050565b6133f461399f565b835160208086015185519186015160009384938493613415939091906136c1565b919450925090506401000003d0198582096001146134755760405162461bcd60e51b815260206004820152601960248201527f696e765a206d75737420626520696e7665727365206f66207a000000000000006044820152606401610501565b60405180604001604052806401000003d01980613494576134946142ef565b87860981526020016401000003d0198785099052979650505050505050565b818114610ab257825182908290600090869083850160011c9081106134da576134da6142d9565b602002602001015190505b81831361363e575b8583815181106134ff576134ff6142d9565b6020026020010151811015613519578260010192506134ed565b8086838151811061352c5761352c6142d9565b602002602001015110156135465760001990910190613519565b8183136136395786828151811061355f5761355f6142d9565b6020026020010151878481518110613579576135796142d9565b6020026020010151888581518110613593576135936142d9565b602002602001018985815181106135ac576135ac6142d9565b60200260200101828152508281525050508582815181106135cf576135cf6142d9565b60200260200101518684815181106135e9576135e96142d9565b6020026020010151878581518110613603576136036142d9565b6020026020010188858151811061361c5761361c6142d9565b602090810291909101019190915252600190920191600019909101905b6134e5565b8185121561365257613652878787856134b3565b838312156106e1576106e1878785876134b3565b805160208201205b6401000003d0198110610a415760408051602080820193909352815180820384018152908201909152805191012061366e565b600061061b8260026136ba6401000003d0196001614319565b901c6137a1565b60008080600180826401000003d019896401000003d019038808905060006401000003d0198b6401000003d019038a089050600061370183838585613846565b909850905061371288828e8861386a565b909850905061372388828c8761386a565b909850905060006137368d878b8561386a565b909850905061374788828686613846565b909850905061375888828e8961386a565b909850905081811461378d576401000003d019818a0998506401000003d01982890997506401000003d0198183099650613791565b8196505b5050505050509450945094915050565b6000806137ac6139bd565b6020808252818101819052604082015260608101859052608081018490526401000003d01960a08201526137de6139db565b60208160c0846005600019fa92508260000361383c5760405162461bcd60e51b815260206004820152601260248201527f6269674d6f64457870206661696c7572652100000000000000000000000000006044820152606401610501565b5195945050505050565b6000806401000003d0198487096401000003d0198487099097909650945050505050565b600080806401000003d019878509905060006401000003d01987876401000003d019030990506401000003d0198183086401000003d01986890990999098509650505050505050565b60405180606001604052806000151581526020016138ef6040518060600160405280600061ffff16815260200160608152602001606081525090565b815260200161390a6040518060200160405280606081525090565b905290565b828054828255906000526020600020908101928215613971579160200282015b82811115613971578251825473ffffffffffffffffffffffffffffffffffffffff19166001600160a01b0390911617825560209092019160019091019061392f565b5061397d9291506139f9565b5090565b508054600082559060005260206000209081019061053291906139f9565b60405180604001604052806002906020820280368337509192915050565b6040518060c001604052806006906020820280368337509192915050565b60405180602001604052806001906020820280368337509192915050565b5b8082111561397d57600081556001016139fa565b600060208284031215613a2057600080fd5b8135600581106109ab57600080fd5b60008060408385031215613a4257600080fd5b50508035926020909101359150565b60008151808452602080850194506020840160005b83811015613a8b5781516001600160a01b031687529582019590820190600101613a66565b509495945050505050565b6020815260006109ab6020830184613a51565b600060208284031215613abb57600080fd5b5035919050565b6001600160a01b038116811461053257600080fd5b8035610a4181613ac2565b600060208284031215613af457600080fd5b81356109ab81613ac2565b60008083601f840112613b1157600080fd5b50813567ffffffffffffffff811115613b2957600080fd5b6020830191508360208260051b8501011115613b4457600080fd5b9250929050565b600080600080600060808688031215613b6357600080fd5b85359450602086013593506040860135613b7c81613ac2565b9250606086013567ffffffffffffffff811115613b9857600080fd5b613ba488828901613aff565b969995985093965092949392505050565b60008060408385031215613bc857600080fd5b823591506020830135613bda81613ac2565b809150509250929050565b803560118110610a4157600080fd5b60008060408385031215613c0757600080fd5b613c1083613be5565b91506020830135613bda81613ac2565b6000806000806000806000806000806101008b8d031215613c4057600080fd5b8a35613c4b81613ac2565b995060208b0135613c5b81613ac2565b985060408b0135613c6b81613ac2565b975060608b0135613c7b81613ac2565b965060808b0135955060a08b0135945060c08b013567ffffffffffffffff80821115613ca657600080fd5b613cb28e838f01613aff565b909650945060e08d0135915080821115613ccb57600080fd5b50613cd88d828e01613aff565b915080935050809150509295989b9194979a5092959850565b60008151602084526105196020850182613a51565b6000602080835283511515818401528084015160406060604086015261ffff825116608086015282820151606060a0870152613d4560e0870182613a51565b60409390930151868403607f190160c0880152805180855290850193600092508501905b80831015613da957845180516001600160a01b031683528601516bffffffffffffffffffffffff1686830152938501936001929092019190830190613d69565b506040880151878203601f1901606089015294506131aa8186613cf1565b600060208284031215613dd957600080fd5b6109ab82613be5565b60008060008060608587031215613df857600080fd5b8435935060208501359250604085013567ffffffffffffffff811115613e1d57600080fd5b613e2987828801613aff565b95989497509550505050565b634e487b7160e01b600052604160045260246000fd5b604051610120810167ffffffffffffffff81118282101715613e6f57613e6f613e35565b60405290565b604051601f8201601f1916810167ffffffffffffffff81118282101715613e9e57613e9e613e35565b604052919050565b600082601f830112613eb757600080fd5b6040516040810181811067ffffffffffffffff82111715613eda57613eda613e35565b8060405250806040840185811115613ef157600080fd5b845b81811015613f0b578035835260209283019201613ef3565b509195945050505050565b600060408284031215613f2857600080fd5b6109ab8383613ea6565b600080828403610220811215613f4757600080fd5b6080811215613f5557600080fd5b8392506101a0607f1982011215613f6b57600080fd5b506080830190509250929050565b60008060008060408587031215613f8f57600080fd5b843567ffffffffffffffff80821115613fa757600080fd5b613fb388838901613aff565b90965094506020870135915080821115613fcc57600080fd5b50613e2987828801613aff565b634e487b7160e01b600052602160045260246000fd5b6000602080838503121561400257600080fd5b825167ffffffffffffffff8082111561401a57600080fd5b818501915085601f83011261402e57600080fd5b81518181111561404057614040613e35565b8060051b9150614051848301613e75565b818152918301840191848101908884111561406b57600080fd5b938501935b838510156131aa57845182529385019390850190614070565b6011811061409957614099613fd9565b9052565b6020810161061b8284614089565b6000602082840312156140bd57600080fd5b81516109ab81613ac2565b6000608082840312156140da57600080fd5b6040516080810181811067ffffffffffffffff821117156140fd576140fd613e35565b8060405250823581526020830135602082015260408301356040820152606083013561412881613ac2565b60608201529392505050565b60008060006060848603121561414957600080fd5b835161415481613ac2565b602085015160409095015190969495509392505050565b60006020828403121561417d57600080fd5b5051919050565b60006101a0828403121561419757600080fd5b61419f613e4b565b6141a98484613ea6565b81526141b88460408501613ea6565b60208201526080830135604082015260a0830135606082015260c083013560808201526141e760e08401613ad7565b60a08201526101006141fb85828601613ea6565b60c083015261420e856101408601613ea6565b60e083015261018084013581830152508091505092915050565b6001600160e01b03198316815260408101600b831061424957614249613fd9565b8260208301529392505050565b6001600160e01b031984168152606081016142746020830185614089565b6001600160a01b0383166040830152949350505050565b60208082528181018390526000908460408401835b868110156142ce5782356142b381613ac2565b6001600160a01b0316825291830191908301906001016142a0565b509695505050505050565b634e487b7160e01b600052603260045260246000fd5b634e487b7160e01b600052601260045260246000fd5b600082614314576143146142ef565b500490565b8082018082111561061b57634e487b7160e01b600052601160045260246000fd5b8060005b6002811015610ab257815184526020938401939091019060010161433e565b6040810161061b828461433a565b828152606081016109ab602083018461433a565b60008151808452602080850194506020840160005b83811015613a8b57815187529582019590820190600101614394565b851515815284602082015260a0604082015260006143d160a0830186613a51565b82810360608401526143e38186613a51565b905082810360808401526131aa818561437f565b838152614407602082018461433a565b606081019190915260800192915050565b868152614428602082018761433a565b614435606082018661433a565b61444260a082018561433a565b61444f60e082018461433a565b60609190911b6bffffffffffffffffffffffff19166101208201526101340195945050505050565b600082614486576144866142ef565b500690565b614495818361433a565b60400191905056fea2646970667358221220704e2eb30c2832eb59291702bd39e13abf9773b45fc3d0b5add93de6bad1391064736f6c63430008190033",
  "callValue": 0,
  "chainId": 2020,
  "constructorArgs": "0x",
  "contractName": "RoninRandomBeacon",
  "deployer": "0x08295771719b138a241F45023B13CC868D72827D",
  "devdoc": {
    "version": 1,
    "kind": "dev",
    "methods": {
      "COOLDOWN_PERIOD_THRESHOLD()": {
        "details": "Threshold for the cooldown period of key hash change and newly registered candidates."
      },
      "bulkSetValidatorThresholds(uint8[],uint256[])": {
        "details": "Bulk set the pick thresholds for a given validator types. Requirements: - The method caller is admin. Emits the event `PickThresholdUpdated`.",
        "params": {
          "thresholds": "An array of threshold values.",
          "validatorTypes": "An array of validator types."
        }
      },
      "calcKeyHash(uint256[2])": {
        "details": "Calculates the key hash from public keys."
      },
      "execFinalizeBeaconAndPendingCids(uint256,uint256,address[])": {
        "details": "Finalize the beacon and and pending cids for upcoming period. Callback function of {RoninValidatorSet-wrapUpEpoch}, only called at the end of an period."
      },
      "execRecordAndSlashUnavailability(uint256,uint256,address,address[])": {
        "details": "Record the unavailability and slash the validator. Callback function of {RoninValidatorSet-wrapUpEpoch}, only called at the end of an period."
      },
      "execRequestRandomSeedForNextPeriod(uint256,uint256)": {
        "details": "Request the random seed for the next period, at the first epoch of each period. Callback function of {RoninValidatorSet-wrapUpEpoch}, only called at the end of an period."
      },
      "fulfillRandomSeed((uint256,uint256,uint256,address),(uint256[2],uint256[2],uint256,uint256,uint256,address,uint256[2],uint256[2],uint256))": {
        "details": "Fulfills the random seed. Requirements: - The request is not finalized. - The period is greater than current period. - The chain id field is match with the current chain ID. - The verifying contract field is match with the current contract address. - The proof is valid. - The request is not submitted by method caller before. - The key hash is match with the one in the profile. - The key hash changed cool down is ended. - The method caller is governance validator. - The method caller is not newly joined. Emits the event `RandomSeedFulfilled`.",
        "params": {
          "proof": "The VRF proof.",
          "req": "The random request."
        }
      },
      "getActivatedAtPeriod()": {
        "details": "Returns the period at which the random beacon sorting was activated."
      },
      "getBeaconData(uint256)": {
        "details": "Retrieves the beacon data for a given period.",
        "params": {
          "period": "The period for which to retrieve the beacon data."
        },
        "returns": {
          "finalized": "A boolean indicating whether the beacon value has been finalized.",
          "submissionCount": "The number of submissions for the given period.",
          "value": "The beacon value for the given period."
        }
      },
      "getContract(uint8)": {
        "details": "Returns the address of a contract with a specific role. Throws an error if no contract is set for the specified role.",
        "params": {
          "contractType": "The role of the contract to retrieve."
        },
        "returns": {
          "contract_": "The address of the contract with the specified role."
        }
      },
      "getLastFinalizedPeriod()": {
        "details": "Get last finalized period."
      },
      "getRequestHash(uint256)": {
        "details": "Get request hash for a given period."
      },
      "getSavedValidatorSet(uint256)": {
        "details": "Get pending validator ids that will be chosen in given `period`."
      },
      "getSelectedValidatorSet(uint256,uint256)": {
        "details": "Get selected validator ids that have been chosen in given `period` and `epoch`."
      },
      "getUnavailabilityCount(address)": {
        "details": "Retrieves the unavailability count for a given consensus address."
      },
      "getUnavailabilityCountById(address)": {
        "details": "Retrieves the unavailability count for a given candidate id."
      },
      "getUnavailabilitySlashThreshold()": {
        "details": "Returns the unavailability slash threshold."
      },
      "getValidatorThreshold(uint8)": {
        "details": "Returns the pick threshold for a given validator type.",
        "params": {
          "validatorType": "The validator type."
        },
        "returns": {
          "threshold": "The pick threshold."
        }
      },
      "initializeV2()": {
        "details": "Left empty on purpose of matching the contract version with the one in the testnet."
      },
      "initializeV3()": {
        "details": "Left empty on purpose of matching the contract version with the one in the testnet."
      },
      "isSubmittedAt(uint256,address)": {
        "details": "Checks if a submission has been made by a specific oracle for a given period.",
        "params": {
          "consensus": "The consensus address of governing validator.",
          "period": "The period to check for the submission."
        },
        "returns": {
          "submitted": "A boolean indicating whether the submission has been made or not."
        }
      },
      "isSubmittedAtById(uint256,address)": {
        "details": "Checks if a submission has been made by a specific oracle for a given period.",
        "params": {
          "cid": "The candidate id of governing validator.",
          "period": "The period to check for the submission."
        },
        "returns": {
          "submitted": "A boolean indicating whether the submission has been made or not."
        }
      },
      "isSubmittedAtByKeyHash(uint256,bytes32)": {
        "details": "Checks if a submission has been made by a specific key hash for a given period.",
        "params": {
          "keyHash": "The key hash of the governing validator.",
          "period": "The period to check for the submission."
        },
        "returns": {
          "submitted": "A boolean indicating whether the submission has been made or not."
        }
      },
      "pickValidatorSetForCurrentPeriod(uint256)": {
        "details": "Picks validator IDs for given `epoch` number."
      },
      "setContract(uint8,address)": {
        "details": "Sets the address of a contract with a specific role. Emits the event {ContractUpdated}.",
        "params": {
          "addr": "The address of the contract to set.",
          "contractType": "The role of the contract to set."
        }
      },
      "setUnavailabilitySlashThreshold(uint256)": {
        "details": "Sets the unavailability slash threshold. Requirements: - The method caller is admin. Emits the event `SlashUnavailabilityThresholdUpdated`.",
        "params": {
          "slashThreshold": "The new value."
        }
      }
    },
    "events": {
      "BeaconFinalized(uint256,uint256)": {
        "details": "Emitted when the beacon is finalized.",
        "params": {
          "period": "The period.",
          "value": "The beacon value."
        }
      },
      "ContractUpdated(uint8,address)": {
        "details": "Emitted when a contract is updated."
      },
      "Initialized(uint8)": {
        "details": "Triggered when the contract has been initialized or reinitialized."
      },
      "RandomSeedFulfilled(address,uint256,bytes32)": {
        "details": "Emitted when the random seed is fulfilled.",
        "params": {
          "by": "The address that fulfill the random seed.",
          "period": "The period.",
          "reqHash": "The request hash."
        }
      },
      "RandomSeedRequested(uint256,bytes32,(uint256,uint256,uint256,address))": {
        "details": "Emitted when the random seed is requested.",
        "params": {
          "period": "The period.",
          "req": "The random request.",
          "reqHash": "The request hash."
        }
      },
      "SlashUnavailabilityThresholdUpdated(uint256)": {
        "details": "Emitted when the unavailability slash threshold is updated.",
        "params": {
          "value": "The new value."
        }
      },
      "ValidatorSetSaved(uint256,bool,uint256,address[],address[],uint256[])": {
        "details": "Event emitted when the validator set is saved."
      },
      "ValidatorThresholdUpdated(uint8,uint256)": {
        "details": "Emitted when the validator threshold is updated.",
        "params": {
          "threshold": "The new value.",
          "validatorType": "The validator type."
        }
      }
    },
    "errors": {
      "ErrAlreadyFinalizedBeacon(uint256)": [
        {
          "details": "Throws if the request is already finalized"
        }
      ],
      "ErrAlreadySubmitted()": [
        {
          "details": "Throws if the request is already submitted"
        }
      ],
      "ErrContractTypeNotFound(uint8)": [
        {
          "details": "Error of invalid role."
        }
      ],
      "ErrInvalidChainId(uint256,uint256)": [
        {
          "details": "Throws if the chain ID is invalid"
        }
      ],
      "ErrInvalidKeyHash(bytes32,bytes32)": [
        {
          "details": "Throws if the key hash is not match with the one in the profile"
        }
      ],
      "ErrInvalidPeriod()": [
        {
          "details": "Throws if the period is invalid (too early or too late)"
        }
      ],
      "ErrInvalidProof()": [
        {
          "details": "Throws if the proof is invalid"
        }
      ],
      "ErrInvalidRandomRequest(bytes32,bytes32)": [
        {
          "details": "Throws if the random request is inexistent"
        }
      ],
      "ErrInvalidThresholdConfig()": [
        {
          "details": "Throws if sum of all validator types threshold is not equal to max validator number"
        }
      ],
      "ErrInvalidVerifyingContract(address,address)": [
        {
          "details": "Throws if the address of verifying contract is not match with current contract"
        }
      ],
      "ErrLengthMismatch()": [
        {
          "details": "Error indicating a length mismatch between two arrays."
        }
      ],
      "ErrLengthMismatch(bytes4)": [
        {
          "details": "Error indicating a mismatch in the length of input parameters or arrays for a specific function.",
          "params": {
            "msgSig": "The function signature (bytes4) that has a length mismatch."
          }
        }
      ],
      "ErrNotActivated(uint256)": [
        {
          "details": "Throws if current period is less than the target activation period"
        }
      ],
      "ErrNotEndedChangeKeyHashCooldown()": [
        {
          "details": "Throws if the cool down for key hash change is not ended"
        }
      ],
      "ErrNotEndedRegisterCooldown()": [
        {
          "details": "Throws if the cool down for registration is not ended"
        }
      ],
      "ErrNotFinalizedBeacon(uint256)": [
        {
          "details": "Throws if the request is not finalized"
        }
      ],
      "ErrOutOfRange(uint256)": [
        {
          "details": "Throws if the index is out of bitmap length."
        }
      ],
      "ErrUnauthorized(bytes4,uint8)": [
        {
          "details": "Error indicating that the caller is unauthorized to perform a specific function.",
          "params": {
            "expectedRole": "The role required to perform the function.",
            "msgSig": "The function signature (bytes4) that the caller is unauthorized to perform."
          }
        }
      ],
      "ErrUnauthorizedCall(bytes4)": [
        {
          "details": "Error indicating that the caller is unauthorized to perform a specific function.",
          "params": {
            "msgSig": "The function signature (bytes4) that the caller is unauthorized to perform."
          }
        }
      ],
      "ErrUnexpectedInternalCall(bytes4,uint8,address)": [
        {
          "details": "Error indicating that the caller is unauthorized to perform a specific function.",
          "params": {
            "actual": "The actual address that called to the function.",
            "expectedContractType": "The contract type required to perform the function.",
            "msgSig": "The function signature (bytes4)."
          }
        }
      ],
      "ErrZeroCodeContract(address)": [
        {
          "details": "Error of set to non-contract."
        }
      ]
    }
  },
  "isFoundry": true,
  "nonce": 11,
  "storageLayout": {
    "storage": [
      {
        "astId": 98725,
        "contract": "contracts/ronin/random-beacon/RoninRandomBeacon_Mainnet.sol:RoninRandomBeacon_Mainnet",
        "label": "_initialized",
        "offset": 0,
        "slot": "0",
        "type": "t_uint8"
      },
      {
        "astId": 98728,
        "contract": "contracts/ronin/random-beacon/RoninRandomBeacon_Mainnet.sol:RoninRandomBeacon_Mainnet",
        "label": "_initializing",
        "offset": 1,
        "slot": "0",
        "type": "t_bool"
      },
      {
        "astId": 25531,
        "contract": "contracts/ronin/random-beacon/RoninRandomBeacon_Mainnet.sol:RoninRandomBeacon_Mainnet",
        "label": "__gap",
        "offset": 0,
        "slot": "1",
        "type": "t_array(t_uint256)50_storage"
      },
      {
        "astId": 25541,
        "contract": "contracts/ronin/random-beacon/RoninRandomBeacon_Mainnet.sol:RoninRandomBeacon_Mainnet",
        "label": "_activatedAtPeriod",
        "offset": 0,
        "slot": "51",
        "type": "t_uint256"
      },
      {
        "astId": 25544,
        "contract": "contracts/ronin/random-beacon/RoninRandomBeacon_Mainnet.sol:RoninRandomBeacon_Mainnet",
        "label": "_lastFinalizedPeriod",
        "offset": 0,
        "slot": "52",
        "type": "t_uint256"
      },
      {
        "astId": 25547,
        "contract": "contracts/ronin/random-beacon/RoninRandomBeacon_Mainnet.sol:RoninRandomBeacon_Mainnet",
        "label": "_unavailabilitySlashThreshold",
        "offset": 0,
        "slot": "53",
        "type": "t_uint256"
      },
      {
        "astId": 25552,
        "contract": "contracts/ronin/random-beacon/RoninRandomBeacon_Mainnet.sol:RoninRandomBeacon_Mainnet",
        "label": "_unavailableCount",
        "offset": 0,
        "slot": "54",
        "type": "t_mapping(t_address,t_uint256)"
      },
      {
        "astId": 25558,
        "contract": "contracts/ronin/random-beacon/RoninRandomBeacon_Mainnet.sol:RoninRandomBeacon_Mainnet",
        "label": "_beaconPerPeriod",
        "offset": 0,
        "slot": "55",
        "type": "t_mapping(t_uint256,t_struct(Beacon)7898_storage)"
      },
      {
        "astId": 25564,
        "contract": "contracts/ronin/random-beacon/RoninRandomBeacon_Mainnet.sol:RoninRandomBeacon_Mainnet",
        "label": "_validatorThreshold",
        "offset": 0,
        "slot": "56",
        "type": "t_mapping(t_enum(ValidatorType)7884,t_uint256)"
      }
    ],
    "types": {
      "t_address": {
        "encoding": "inplace",
        "label": "address",
        "numberOfBytes": "20"
      },
      "t_array(t_uint256)50_storage": {
        "encoding": "inplace",
        "label": "uint256[50]",
        "numberOfBytes": "1600",
        "base": "t_uint256"
      },
      "t_bool": {
        "encoding": "inplace",
        "label": "bool",
        "numberOfBytes": "1"
      },
      "t_bytes32": {
        "encoding": "inplace",
        "label": "bytes32",
        "numberOfBytes": "32"
      },
      "t_enum(ValidatorType)7884": {
        "encoding": "inplace",
        "label": "enum IRandomBeacon.ValidatorType",
        "numberOfBytes": "1"
      },
      "t_mapping(t_address,t_bool)": {
        "encoding": "mapping",
        "key": "t_address",
        "label": "mapping(address => bool)",
        "numberOfBytes": "32",
        "value": "t_bool"
      },
      "t_mapping(t_address,t_uint256)": {
        "encoding": "mapping",
        "key": "t_address",
        "label": "mapping(address => uint256)",
        "numberOfBytes": "32",
        "value": "t_uint256"
      },
      "t_mapping(t_enum(ValidatorType)7884,t_uint256)": {
        "encoding": "mapping",
        "key": "t_enum(ValidatorType)7884",
        "label": "mapping(enum IRandomBeacon.ValidatorType => uint256)",
        "numberOfBytes": "32",
        "value": "t_uint256"
      },
      "t_mapping(t_uint256,t_struct(Beacon)7898_storage)": {
        "encoding": "mapping",
        "key": "t_uint256",
        "label": "mapping(uint256 => struct IRandomBeacon.Beacon)",
        "numberOfBytes": "32",
        "value": "t_struct(Beacon)7898_storage"
      },
      "t_struct(Beacon)7898_storage": {
        "encoding": "inplace",
        "label": "struct IRandomBeacon.Beacon",
        "numberOfBytes": "128",
        "members": [
          {
            "astId": 7887,
            "contract": "contracts/ronin/random-beacon/RoninRandomBeacon_Mainnet.sol:RoninRandomBeacon_Mainnet",
            "label": "reqHash",
            "offset": 0,
            "slot": "0",
            "type": "t_bytes32"
          },
          {
            "astId": 7889,
            "contract": "contracts/ronin/random-beacon/RoninRandomBeacon_Mainnet.sol:RoninRandomBeacon_Mainnet",
            "label": "value",
            "offset": 0,
            "slot": "1",
            "type": "t_uint256"
          },
          {
            "astId": 7891,
            "contract": "contracts/ronin/random-beacon/RoninRandomBeacon_Mainnet.sol:RoninRandomBeacon_Mainnet",
            "label": "finalized",
            "offset": 0,
            "slot": "2",
            "type": "t_bool"
          },
          {
            "astId": 7893,
            "contract": "contracts/ronin/random-beacon/RoninRandomBeacon_Mainnet.sol:RoninRandomBeacon_Mainnet",
            "label": "submissionCount",
            "offset": 1,
            "slot": "2",
            "type": "t_uint32"
          },
          {
            "astId": 7897,
            "contract": "contracts/ronin/random-beacon/RoninRandomBeacon_Mainnet.sol:RoninRandomBeacon_Mainnet",
            "label": "submitted",
            "offset": 0,
            "slot": "3",
            "type": "t_mapping(t_address,t_bool)"
          }
        ]
      },
      "t_uint256": {
        "encoding": "inplace",
        "label": "uint256",
        "numberOfBytes": "32"
      },
      "t_uint32": {
        "encoding": "inplace",
        "label": "uint32",
        "numberOfBytes": "4"
      },
      "t_uint8": {
        "encoding": "inplace",
        "label": "uint8",
        "numberOfBytes": "1"
      }
    }
  },
  "timestamp": 1718637431,
  "userdoc": {
    "version": 1,
    "kind": "user"
  }
}