{
  "abi": [
    {
      "type": "constructor",
      "inputs": [],
      "stateMutability": "nonpayable"
    },
    {
      "type": "function",
      "name": "bailOut",
      "inputs": [
        {
          "name": "consensusAddr",
          "type": "address",
          "internalType": "TConsensus"
        }
      ],
      "outputs": [],
      "stateMutability": "nonpayable"
    },
    {
      "type": "function",
      "name": "checkBailedOutAtPeriod",
      "inputs": [
        {
          "name": "consensus",
          "type": "address",
          "internalType": "TConsensus"
        },
        {
          "name": "period",
          "type": "uint256",
          "internalType": "uint256"
        }
      ],
      "outputs": [
        {
          "name": "",
          "type": "bool",
          "internalType": "bool"
        }
      ],
      "stateMutability": "view"
    },
    {
      "type": "function",
      "name": "currentUnavailabilityIndicator",
      "inputs": [
        {
          "name": "consensus",
          "type": "address",
          "internalType": "TConsensus"
        }
      ],
      "outputs": [
        {
          "name": "",
          "type": "uint256",
          "internalType": "uint256"
        }
      ],
      "stateMutability": "view"
    },
    {
      "type": "function",
      "name": "execResetCreditScores",
      "inputs": [
        {
          "name": "validatorIds",
          "type": "address[]",
          "internalType": "address[]"
        }
      ],
      "outputs": [],
      "stateMutability": "nonpayable"
    },
    {
      "type": "function",
      "name": "execUpdateCreditScores",
      "inputs": [
        {
          "name": "validatorIds",
          "type": "address[]",
          "internalType": "address[]"
        },
        {
          "name": "period",
          "type": "uint256",
          "internalType": "uint256"
        }
      ],
      "outputs": [],
      "stateMutability": "nonpayable"
    },
    {
      "type": "function",
      "name": "getContract",
      "inputs": [
        {
          "name": "contractType",
          "type": "uint8",
          "internalType": "enum ContractType"
        }
      ],
      "outputs": [
        {
          "name": "contract_",
          "type": "address",
          "internalType": "address"
        }
      ],
      "stateMutability": "view"
    },
    {
      "type": "function",
      "name": "getCreditScore",
      "inputs": [
        {
          "name": "consensusAddr",
          "type": "address",
          "internalType": "TConsensus"
        }
      ],
      "outputs": [
        {
          "name": "",
          "type": "uint256",
          "internalType": "uint256"
        }
      ],
      "stateMutability": "view"
    },
    {
      "type": "function",
      "name": "getCreditScoreConfigs",
      "inputs": [],
      "outputs": [
        {
          "name": "gainCreditScore_",
          "type": "uint256",
          "internalType": "uint256"
        },
        {
          "name": "maxCreditScore_",
          "type": "uint256",
          "internalType": "uint256"
        },
        {
          "name": "bailOutCostMultiplier_",
          "type": "uint256",
          "internalType": "uint256"
        },
        {
          "name": "cutOffPercentageAfterBailout_",
          "type": "uint256",
          "internalType": "uint256"
        }
      ],
      "stateMutability": "view"
    },
    {
      "type": "function",
      "name": "getDoubleSignSlashingConfigs",
      "inputs": [],
      "outputs": [
        {
          "name": "slashDoubleSignAmount_",
          "type": "uint256",
          "internalType": "uint256"
        },
        {
          "name": "doubleSigningJailUntilBlock_",
          "type": "uint256",
          "internalType": "uint256"
        },
        {
          "name": "doubleSigningOffsetLimitBlock_",
          "type": "uint256",
          "internalType": "uint256"
        }
      ],
      "stateMutability": "view"
    },
    {
      "type": "function",
      "name": "getFastFinalitySlashingConfigs",
      "inputs": [],
      "outputs": [
        {
          "name": "slashFastFinalityAmount_",
          "type": "uint256",
          "internalType": "uint256"
        },
        {
          "name": "fastFinalityJailUntilBlock_",
          "type": "uint256",
          "internalType": "uint256"
        }
      ],
      "stateMutability": "view"
    },
    {
      "type": "function",
      "name": "getManyCreditScores",
      "inputs": [
        {
          "name": "consensusAddrs",
          "type": "address[]",
          "internalType": "TConsensus[]"
        }
      ],
      "outputs": [
        {
          "name": "resultList",
          "type": "uint256[]",
          "internalType": "uint256[]"
        }
      ],
      "stateMutability": "view"
    },
    {
      "type": "function",
      "name": "getUnavailabilityIndicator",
      "inputs": [
        {
          "name": "consensus",
          "type": "address",
          "internalType": "TConsensus"
        },
        {
          "name": "period",
          "type": "uint256",
          "internalType": "uint256"
        }
      ],
      "outputs": [
        {
          "name": "",
          "type": "uint256",
          "internalType": "uint256"
        }
      ],
      "stateMutability": "view"
    },
    {
      "type": "function",
      "name": "getUnavailabilitySlashingConfigs",
      "inputs": [],
      "outputs": [
        {
          "name": "unavailabilityTier1Threshold_",
          "type": "uint256",
          "internalType": "uint256"
        },
        {
          "name": "unavailabilityTier2Threshold_",
          "type": "uint256",
          "internalType": "uint256"
        },
        {
          "name": "slashAmountForUnavailabilityTier2Threshold_",
          "type": "uint256",
          "internalType": "uint256"
        },
        {
          "name": "jailDurationForUnavailabilityTier2Threshold_",
          "type": "uint256",
          "internalType": "uint256"
        }
      ],
      "stateMutability": "view"
    },
    {
      "type": "function",
      "name": "initialize",
      "inputs": [
        {
          "name": "__validatorContract",
          "type": "address",
          "internalType": "address"
        },
        {
          "name": "__maintenanceContract",
          "type": "address",
          "internalType": "address"
        },
        {
          "name": "__roninTrustedOrganizationContract",
          "type": "address",
          "internalType": "address"
        },
        {
          "name": "__roninGovernanceAdminContract",
          "type": "address",
          "internalType": "address"
        },
        {
          "name": "",
          "type": "uint256[4]",
          "internalType": "uint256[4]"
        },
        {
          "name": "",
          "type": "uint256[2]",
          "internalType": "uint256[2]"
        },
        {
          "name": "_doubleSignSlashingConfigs",
          "type": "uint256[3]",
          "internalType": "uint256[3]"
        },
        {
          "name": "_unavailabilitySlashingConfigs",
          "type": "uint256[4]",
          "internalType": "uint256[4]"
        },
        {
          "name": "_creditScoreConfigs",
          "type": "uint256[4]",
          "internalType": "uint256[4]"
        }
      ],
      "outputs": [],
      "stateMutability": "nonpayable"
    },
    {
      "type": "function",
      "name": "initializeV2",
      "inputs": [
        {
          "name": "roninGovernanceAdminContract",
          "type": "address",
          "internalType": "address"
        }
      ],
      "outputs": [],
      "stateMutability": "nonpayable"
    },
    {
      "type": "function",
      "name": "initializeV3",
      "inputs": [
        {
          "name": "profileContract",
          "type": "address",
          "internalType": "address"
        }
      ],
      "outputs": [],
      "stateMutability": "nonpayable"
    },
    {
      "type": "function",
      "name": "lastUnavailabilitySlashedBlock",
      "inputs": [],
      "outputs": [
        {
          "name": "",
          "type": "uint256",
          "internalType": "uint256"
        }
      ],
      "stateMutability": "view"
    },
    {
      "type": "function",
      "name": "precompileValidateDoubleSignAddress",
      "inputs": [],
      "outputs": [
        {
          "name": "",
          "type": "address",
          "internalType": "address"
        }
      ],
      "stateMutability": "view"
    },
    {
      "type": "function",
      "name": "precompileValidateFastFinalityAddress",
      "inputs": [],
      "outputs": [
        {
          "name": "",
          "type": "address",
          "internalType": "address"
        }
      ],
      "stateMutability": "view"
    },
    {
      "type": "function",
      "name": "setContract",
      "inputs": [
        {
          "name": "contractType",
          "type": "uint8",
          "internalType": "enum ContractType"
        },
        {
          "name": "addr",
          "type": "address",
          "internalType": "address"
        }
      ],
      "outputs": [],
      "stateMutability": "nonpayable"
    },
    {
      "type": "function",
      "name": "setCreditScoreConfigs",
      "inputs": [
        {
          "name": "_gainScore",
          "type": "uint256",
          "internalType": "uint256"
        },
        {
          "name": "_maxScore",
          "type": "uint256",
          "internalType": "uint256"
        },
        {
          "name": "_bailOutMultiplier",
          "type": "uint256",
          "internalType": "uint256"
        },
        {
          "name": "_cutOffPercentage",
          "type": "uint256",
          "internalType": "uint256"
        }
      ],
      "outputs": [],
      "stateMutability": "nonpayable"
    },
    {
      "type": "function",
      "name": "setDoubleSignSlashingConfigs",
      "inputs": [
        {
          "name": "_slashAmount",
          "type": "uint256",
          "internalType": "uint256"
        },
        {
          "name": "_jailUntilBlock",
          "type": "uint256",
          "internalType": "uint256"
        },
        {
          "name": "_offsetLimitBlock",
          "type": "uint256",
          "internalType": "uint256"
        }
      ],
      "outputs": [],
      "stateMutability": "nonpayable"
    },
    {
      "type": "function",
      "name": "setFastFinalitySlashingConfigs",
      "inputs": [
        {
          "name": "slashAmount",
          "type": "uint256",
          "internalType": "uint256"
        },
        {
          "name": "jailUntilBlock",
          "type": "uint256",
          "internalType": "uint256"
        }
      ],
      "outputs": [],
      "stateMutability": "nonpayable"
    },
    {
      "type": "function",
      "name": "setUnavailabilitySlashingConfigs",
      "inputs": [
        {
          "name": "tier1Threshold",
          "type": "uint256",
          "internalType": "uint256"
        },
        {
          "name": "tier2Threshold",
          "type": "uint256",
          "internalType": "uint256"
        },
        {
          "name": "slashAmountForTier2",
          "type": "uint256",
          "internalType": "uint256"
        },
        {
          "name": "jailDurationForTier2",
          "type": "uint256",
          "internalType": "uint256"
        }
      ],
      "outputs": [],
      "stateMutability": "nonpayable"
    },
    {
      "type": "function",
      "name": "slashDoubleSign",
      "inputs": [
        {
          "name": "consensusAddr",
          "type": "address",
          "internalType": "TConsensus"
        },
        {
          "name": "header1",
          "type": "bytes",
          "internalType": "bytes"
        },
        {
          "name": "header2",
          "type": "bytes",
          "internalType": "bytes"
        }
      ],
      "outputs": [],
      "stateMutability": "nonpayable"
    },
    {
      "type": "function",
      "name": "slashFastFinality",
      "inputs": [
        {
          "name": "consensusAddr",
          "type": "address",
          "internalType": "TConsensus"
        },
        {
          "name": "voterPublicKey",
          "type": "bytes",
          "internalType": "bytes"
        },
        {
          "name": "targetBlockNumber",
          "type": "uint256",
          "internalType": "uint256"
        },
        {
          "name": "targetBlockHash",
          "type": "bytes32[2]",
          "internalType": "bytes32[2]"
        },
        {
          "name": "listOfPublicKey",
          "type": "bytes[][2]",
          "internalType": "bytes[][2]"
        },
        {
          "name": "aggregatedSignature",
          "type": "bytes[2]",
          "internalType": "bytes[2]"
        }
      ],
      "outputs": [],
      "stateMutability": "nonpayable"
    },
    {
      "type": "function",
      "name": "slashUnavailability",
      "inputs": [
        {
          "name": "consensusAddr",
          "type": "address",
          "internalType": "TConsensus"
        }
      ],
      "outputs": [],
      "stateMutability": "nonpayable"
    },
    {
      "type": "event",
      "name": "BailedOut",
      "inputs": [
        {
          "name": "cid",
          "type": "address",
          "indexed": true,
          "internalType": "address"
        },
        {
          "name": "period",
          "type": "uint256",
          "indexed": false,
          "internalType": "uint256"
        },
        {
          "name": "usedCreditScore",
          "type": "uint256",
          "indexed": false,
          "internalType": "uint256"
        }
      ],
      "anonymous": false
    },
    {
      "type": "event",
      "name": "ContractUpdated",
      "inputs": [
        {
          "name": "contractType",
          "type": "uint8",
          "indexed": true,
          "internalType": "enum ContractType"
        },
        {
          "name": "addr",
          "type": "address",
          "indexed": true,
          "internalType": "address"
        }
      ],
      "anonymous": false
    },
    {
      "type": "event",
      "name": "CreditScoreConfigsUpdated",
      "inputs": [
        {
          "name": "gainCreditScore",
          "type": "uint256",
          "indexed": false,
          "internalType": "uint256"
        },
        {
          "name": "maxCreditScore",
          "type": "uint256",
          "indexed": false,
          "internalType": "uint256"
        },
        {
          "name": "bailOutCostMultiplier",
          "type": "uint256",
          "indexed": false,
          "internalType": "uint256"
        },
        {
          "name": "cutOffPercentageAfterBailout",
          "type": "uint256",
          "indexed": false,
          "internalType": "uint256"
        }
      ],
      "anonymous": false
    },
    {
      "type": "event",
      "name": "CreditScoresUpdated",
      "inputs": [
        {
          "name": "cids",
          "type": "address[]",
          "indexed": false,
          "internalType": "address[]"
        },
        {
          "name": "creditScores",
          "type": "uint256[]",
          "indexed": false,
          "internalType": "uint256[]"
        }
      ],
      "anonymous": false
    },
    {
      "type": "event",
      "name": "DoubleSignSlashingConfigsUpdated",
      "inputs": [
        {
          "name": "slashDoubleSignAmount",
          "type": "uint256",
          "indexed": false,
          "internalType": "uint256"
        },
        {
          "name": "doubleSigningJailUntilBlock",
          "type": "uint256",
          "indexed": false,
          "internalType": "uint256"
        },
        {
          "name": "doubleSigningOffsetLimitBlock",
          "type": "uint256",
          "indexed": false,
          "internalType": "uint256"
        }
      ],
      "anonymous": false
    },
    {
      "type": "event",
      "name": "FastFinalitySlashingConfigsUpdated",
      "inputs": [
        {
          "name": "slashFastFinalityAmount",
          "type": "uint256",
          "indexed": false,
          "internalType": "uint256"
        },
        {
          "name": "fastFinalityJailUntilBlock",
          "type": "uint256",
          "indexed": false,
          "internalType": "uint256"
        }
      ],
      "anonymous": false
    },
    {
      "type": "event",
      "name": "Initialized",
      "inputs": [
        {
          "name": "version",
          "type": "uint8",
          "indexed": false,
          "internalType": "uint8"
        }
      ],
      "anonymous": false
    },
    {
      "type": "event",
      "name": "Slashed",
      "inputs": [
        {
          "name": "cid",
          "type": "address",
          "indexed": true,
          "internalType": "address"
        },
        {
          "name": "slashType",
          "type": "uint8",
          "indexed": false,
          "internalType": "enum IBaseSlash.SlashType"
        },
        {
          "name": "period",
          "type": "uint256",
          "indexed": false,
          "internalType": "uint256"
        }
      ],
      "anonymous": false
    },
    {
      "type": "event",
      "name": "UnavailabilitySlashingConfigsUpdated",
      "inputs": [
        {
          "name": "unavailabilityTier1Threshold",
          "type": "uint256",
          "indexed": false,
          "internalType": "uint256"
        },
        {
          "name": "unavailabilityTier2Threshold",
          "type": "uint256",
          "indexed": false,
          "internalType": "uint256"
        },
        {
          "name": "slashAmountForUnavailabilityTier2Threshold",
          "type": "uint256",
          "indexed": false,
          "internalType": "uint256"
        },
        {
          "name": "jailDurationForUnavailabilityTier2Threshold",
          "type": "uint256",
          "indexed": false,
          "internalType": "uint256"
        }
      ],
      "anonymous": false
    },
    {
      "type": "error",
      "name": "ErrCallPrecompiled",
      "inputs": []
    },
    {
      "type": "error",
      "name": "ErrCallerMustBeJailedInTheCurrentPeriod",
      "inputs": []
    },
    {
      "type": "error",
      "name": "ErrCannotSlashAValidatorTwiceOrSlashMoreThanOneValidatorInOneBlock",
      "inputs": []
    },
    {
      "type": "error",
      "name": "ErrContractTypeNotFound",
      "inputs": [
        {
          "name": "contractType",
          "type": "uint8",
          "internalType": "enum ContractType"
        }
      ]
    },
    {
      "type": "error",
      "name": "ErrEvidenceAlreadySubmitted",
      "inputs": []
    },
    {
      "type": "error",
      "name": "ErrInsufficientCreditScoreToBailOut",
      "inputs": []
    },
    {
      "type": "error",
      "name": "ErrInvalidArguments",
      "inputs": [
        {
          "name": "msgSig",
          "type": "bytes4",
          "internalType": "bytes4"
        }
      ]
    },
    {
      "type": "error",
      "name": "ErrInvalidCreditScoreConfig",
      "inputs": []
    },
    {
      "type": "error",
      "name": "ErrInvalidCutOffPercentageConfig",
      "inputs": []
    },
    {
      "type": "error",
      "name": "ErrInvalidThreshold",
      "inputs": [
        {
          "name": "msgSig",
          "type": "bytes4",
          "internalType": "bytes4"
        }
      ]
    },
    {
      "type": "error",
      "name": "ErrUnauthorized",
      "inputs": [
        {
          "name": "msgSig",
          "type": "bytes4",
          "internalType": "bytes4"
        },
        {
          "name": "expectedRole",
          "type": "uint8",
          "internalType": "enum RoleAccess"
        }
      ]
    },
    {
      "type": "error",
      "name": "ErrUnexpectedInternalCall",
      "inputs": [
        {
          "name": "msgSig",
          "type": "bytes4",
          "internalType": "bytes4"
        },
        {
          "name": "expectedContractType",
          "type": "uint8",
          "internalType": "enum ContractType"
        },
        {
          "name": "actual",
          "type": "address",
          "internalType": "address"
        }
      ]
    },
    {
      "type": "error",
      "name": "ErrUnregisteredPublicKey",
      "inputs": []
    },
    {
      "type": "error",
      "name": "ErrValidatorHasBailedOutPreviously",
      "inputs": []
    },
    {
      "type": "error",
      "name": "ErrZeroCodeContract",
      "inputs": [
        {
          "name": "addr",
          "type": "address",
          "internalType": "address"
        }
      ]
    }
  ],
  "address": "0xE50A177C5A80B32FeE5222D2C45F476abfd3dDCf",
  "args": "0x",
  "blockNumber": 32568134,
  "bytecode": "0x60806040523480156200001157600080fd5b506200001c62000022565b620000e7565b61011354610100900460ff1615620000905760405162461bcd60e51b815260206004820152602760248201527f496e697469616c697a61626c653a20636f6e747261637420697320696e697469604482015266616c697a696e6760c81b606482015260840160405180910390fd5b6101135460ff9081161015620000e557610113805460ff191660ff9081179091556040519081527f7f26b83ff96e1f2b6a682f133852f6798a09c465da95921460cefb38474024989060200160405180910390a15b565b61378380620000f76000396000f3fe608060405234801561001057600080fd5b50600436106101b95760003560e01c8063a345ecb2116100f9578063d3dd2bdf11610097578063e9bb166611610071578063e9bb1666146103d1578063f1001e78146103d8578063f562b3c4146103f8578063fd422cd01461040057600080fd5b8063d3dd2bdf14610387578063de981f1b1461039a578063df4b6ee0146103ad57600080fd5b8063cf39d13c116100d3578063cf39d13c1461033b578063d1737e271461034e578063d1cf434314610361578063d1f992f71461037457600080fd5b8063a345ecb214610304578063c6391fa214610317578063ccbb72ed1461032857600080fd5b80633101cfcb1161016657806362ffe6cb1161014057806362ffe6cb146102b05780637c2b55a0146102c3578063865e6fd3146102de57806399103f7b146102f157600080fd5b80633101cfcb146102555780633d48fd7d14610268578063487e00ea1461029557600080fd5b80631e90b2a0116101975780631e90b2a01461020c57806329b6eca91461021f57806329ddc3c01461023257600080fd5b806307c2d2f6146101be578063082e7420146101d3578063185368db146101f9575b600080fd5b6101d16101cc3660046127f2565b610413565b005b6101e66101e1366004612849565b610521565b6040519081526020015b60405180910390f35b6101d1610207366004612866565b6105a5565b6101d161021a3660046128f4565b6108bc565b6101d161022d366004612849565b610ae3565b610245610240366004612977565b610c57565b60405190151581526020016101f0565b6101d1610263366004612849565b610c72565b60a55460a65460a75460a8545b6040805194855260208501939093529183015260608201526080016101f0565b601d54601e54604080519283526020830191909152016101f0565b6101e66102be366004612977565b610d66565b60675b6040516001600160a01b0390911681526020016101f0565b6101d16102ec3660046129b2565b610d7a565b6101d16102ff366004612a0b565b610d99565b6101d1610312366004612ac9565b610f23565b60dd5460de5460df5460e054610275565b6101d1610336366004612aeb565b610f35565b6101d1610349366004612b1d565b610f4f565b6101d161035c366004612aeb565b610f67565b6101d161036f366004612b49565b610f7b565b6101d1610382366004612849565b6113e5565b6101e6610395366004612849565b611891565b6102c66103a8366004612c08565b6118c0565b600154600254600354604080519384526020840192909252908201526060016101f0565b60696102c6565b6103eb6103e63660046127f2565b611954565b6040516101f09190612c5f565b60a3546101e6565b6101d161040e366004612849565b611a54565b600861041e81611df5565b60008267ffffffffffffffff81111561043957610439612c72565b604051908082528060200260200182016040528015610462578160200160208202803683370190505b50905060005b838110156104df57600085858381811061048457610484612c88565b90506020020160208101906104999190612849565b6001600160a01b038116600090815260dc602052604081205583519091508390839081106104c9576104c9612c88565b6000602091820292909201015250600101610468565b507f8c02b2ccee964dc50649a48bd0a0446f0f9e88ecdb72d099f4ace07c39c2348084848360405161051393929190612cdc565b60405180910390a150505050565b600061059f61052f83611e5a565b61053960086118c0565b6001600160a01b031663060406186040518163ffffffff1660e01b8152600401602060405180830381865afa158015610576573d6000803e3d6000fd5b505050506040513d601f19601f8201168201806040525081019061059a9190612d0c565b611eeb565b92915050565b60086105b081611df5565b60003390506000816001600160a01b031663297a8fca6040518163ffffffff1660e01b8152600401602060405180830381865afa1580156105f5573d6000803e3d6000fd5b505050506040513d601f19601f820116820180604052508101906106199190612d0c565b90506000826001600160a01b0316637e1dc16f88886040518363ffffffff1660e01b815260040161064b929190612d25565b600060405180830381865afa158015610668573d6000803e3d6000fd5b505050506040513d6000823e601f3d908101601f191682016040526106909190810190612deb565b9050600061069e60056118c0565b6001600160a01b0316638b042a72898986436040518563ffffffff1660e01b81526004016106cf9493929190612e88565b600060405180830381865afa1580156106ec573d6000803e3d6000fd5b505050506040513d6000823e601f3d908101601f191682016040526107149190810190612deb565b905060008767ffffffffffffffff81111561073157610731612c72565b60405190808252806020026020018201604052801561075a578160200160208202803683370190505b50905060005b888110156108755760008a8a8381811061077c5761077c612c88565b90506020020160208101906107919190612849565b9050600061079f828b611eeb565b905060008684815181106107b5576107b5612c88565b6020026020010151905060008685815181106107d3576107d3612c88565b60200260200101519050600082806107e85750815b6107fd576107f860dd5485611f14565b610800565b60005b6001600160a01b038616600090815260dc602052604090205460de5491925061082a918390611f2e565b6001600160a01b038616600090815260dc60205260409020819055875188908890811061085957610859612c88565b6020026020010181815250508560010195505050505050610760565b507f8c02b2ccee964dc50649a48bd0a0446f0f9e88ecdb72d099f4ace07c39c234808989836040516108a993929190612cdc565b60405180910390a1505050505050505050565b6108c4611f4b565b600084846040516108d6929190612eaf565b60405180910390209050600083836040516108f2929190612eaf565b604080519182900390912060008481526004602052919091205490915060ff168061092b575060008181526004602052604090205460ff165b156109495760405163f27b8ec960e01b815260040160405180910390fd5b60008061095589611fa7565b91509150816109615750875b61096e8189898989612041565b15610ad857600061097f60086118c0565b90506000816001600160a01b031663060406186040518163ffffffff1660e01b8152600401602060405180830381865afa1580156109c1573d6000803e3d6000fd5b505050506040513d601f19601f820116820180604052508101906109e59190612d0c565b6000878152600460205260408082208054600160ff19918216811790925589845292829020805490931617909155519091506001600160a01b038416907f607adba66cff84b627e3537d1c17d088a98556bccd0536a2f3590c56329023d990610a52906003908590612ed5565b60405180910390a260025460018054604051630bde081360e21b81526001600160a01b03878116600483015260248201949094526044810191909152606481019190915290831690632f78204c90608401600060405180830381600087803b158015610abd57600080fd5b505af1158015610ad1573d6000803e3d6000fd5b5050505050505b505050505050505050565b61011354600290610100900460ff16158015610b0757506101135460ff8083169116105b610b6f5760405162461bcd60e51b815260206004820152602e60248201527f496e697469616c697a61626c653a20636f6e747261637420697320616c72656160448201526d191e481a5b9a5d1a585b1a5e995960921b60648201526084015b60405180910390fd5b610113805461ffff191660ff831617610100179055600054610b9c906008906001600160a01b0316612132565b606c54610bb4906005906001600160a01b0316612132565b610bbf600483612132565b603554610bd790600a906001600160a01b0316612132565b6000805473ffffffffffffffffffffffffffffffffffffffff19908116909155606c8054821690556035805482169055603680549091169055610113805461ff001916905560405160ff821681527f7f26b83ff96e1f2b6a682f133852f6798a09c465da95921460cefb3847402498906020015b60405180910390a15050565b6000610c6b610c6584611e5a565b836121e3565b9392505050565b61011354600390610100900460ff16158015610c9657506101135460ff8083169116105b610cf95760405162461bcd60e51b815260206004820152602e60248201527f496e697469616c697a61626c653a20636f6e747261637420697320616c72656160448201526d191e481a5b9a5d1a585b1a5e995960921b6064820152608401610b66565b610113805461ffff191660ff831617610100179055610d19600f83612132565b610d2760015460025461220f565b610113805461ff001916905560405160ff821681527f7f26b83ff96e1f2b6a682f133852f6798a09c465da95921460cefb384740249890602001610c4b565b6000610c6b610d7484611e5a565b83611eeb565b610d82611f4b565b610d8b8161224f565b610d958282612132565b5050565b61011354610100900460ff1615808015610dbb575061011354600160ff909116105b80610dd65750303b158015610dd657506101135460ff166001145b610e395760405162461bcd60e51b815260206004820152602e60248201527f496e697469616c697a61626c653a20636f6e747261637420697320616c72656160448201526d191e481a5b9a5d1a585b1a5e995960921b6064820152608401610b66565b610113805460ff191660011790558015610e5e57610113805461ff0019166101001790555b610e6960088b612132565b610e7460058a612132565b610e7f600488612132565b610e8a600a89612132565b610e9e84356020860135604087013561229e565b610eb783356020850135604086013560608701356122f3565b610ed08235602084013560408501356060860135612394565b8015610f1757610113805461ff0019169055604051600181527f7f26b83ff96e1f2b6a682f133852f6798a09c465da95921460cefb38474024989060200160405180910390a15b50505050505050505050565b610f2b611f4b565b610d95828261220f565b610f3d611f4b565b610f4984848484612394565b50505050565b610f57611f4b565b610f6283838361229e565b505050565b610f6f611f4b565b610f49848484846122f3565b610f8433612463565b600003610fb4576000356001600160e01b0319166003604051620f948f60ea1b8152600401610b66929190612ef3565b6000610fbf88611e5a565b90506000610fcd600f6118c0565b6040517ff46609400000000000000000000000000000000000000000000000000000000081526001600160a01b03848116600483015291925060009183169063f466094090602401600060405180830381865afa158015611032573d6000803e3d6000fd5b505050506040513d6000823e601f3d908101601f1916820160405261105a9190810190612fbd565b90506000898960405161106e929190612eaf565b604051809103902090508160a0015180519060200120811415801561109e57508160e00151805190602001208114155b156110e3576040517f053265f10000000000000000000000000000000000000000000000000000000081526001600160e01b0319600035166004820152602401610b66565b6040516bffffffffffffffffffffffff1960608d901b1660208201526034810189905260009060540160408051601f1981840301815291815281516020928301206000818152601f90935291205490915060ff16156111555760405163f27b8ec960e01b815260040160405180910390fd5b6040517f7e18b5660000000000000000000000000000000000000000000000000000000081526001600160a01b03851690637e18b5669061119a908a90600401613184565b602060405180830381865afa1580156111b7573d6000803e3d6000fd5b505050506040513d601f19601f820116820180604052508101906111db9190613216565b611211576040517f1979097700000000000000000000000000000000000000000000000000000000815260040160405180910390fd5b6112878b8b8080601f016020809104026020016040519081016040528093929190818152602001838380828437600092019190915250506040805180820182528e935091508c90600290839083908082843760009201919091525061127991508c9050613282565b6112828b61335a565b6124f4565b156113d7576000818152601f60205260408120805460ff191660011790556112af60086118c0565b90506000816001600160a01b031663060406186040518163ffffffff1660e01b8152600401602060405180830381865afa1580156112f1573d6000803e3d6000fd5b505050506040513d601f19601f820116820180604052508101906113159190612d0c565b9050866001600160a01b03167f607adba66cff84b627e3537d1c17d088a98556bccd0536a2f3590c56329023d9600883604051611353929190612ed5565b60405180910390a2601e54601d54604051630bde081360e21b81526001600160a01b038a81166004830152602482019390935260448101919091526001606482015290831690632f78204c90608401600060405180830381600087803b1580156113bc57600080fd5b505af11580156113d0573d6000803e3d6000fd5b5050505050505b505050505050505050505050565b60006113f082611e5a565b905060006113fe60086118c0565b6040517fa0c3f2d20000000000000000000000000000000000000000000000000000000081526001600160a01b0385811660048301529192509082169063a0c3f2d290602401602060405180830381865afa158015611461573d6000803e3d6000fd5b505050506040513d601f19601f820116820180604052508101906114859190613216565b6114b2576000356001600160e01b0319166008604051620f948f60ea1b8152600401610b66929190612ef3565b6040517f46ebb2320000000000000000000000000000000000000000000000000000000081526001600160a01b0383811660048301523360248301528216906346ebb23290604401602060405180830381865afa158015611517573d6000803e3d6000fd5b505050506040513d601f19601f8201168201806040525081019061153b9190613216565b611568576000356001600160e01b0319166004604051620f948f60ea1b8152600401610b66929190612ef3565b6040517f96585fc20000000000000000000000000000000000000000000000000000000081526001600160a01b03848116600483015260009182918416906396585fc290602401606060405180830381865afa1580156115cc573d6000803e3d6000fd5b505050506040513d601f19601f820116820180604052508101906115f091906133b3565b92505091508161162c576040517f6cd31b5900000000000000000000000000000000000000000000000000000000815260040160405180910390fd5b6000836001600160a01b031663060406186040518163ffffffff1660e01b8152600401602060405180830381865afa15801561166c573d6000803e3d6000fd5b505050506040513d601f19601f820116820180604052508101906116909190612d0c565b6001600160a01b038616600090815260db6020908152604080832084845290915290205490915060ff16156116f1576040517f7674d6a900000000000000000000000000000000000000000000000000000000815260040160405180910390fd5b6001600160a01b038516600090815260dc602052604081205460df5490919061171a90856133fe565b905080821015611756576040517f8c5cb26e00000000000000000000000000000000000000000000000000000000815260040160405180910390fd5b6040517f15b5ebde0000000000000000000000000000000000000000000000000000000081526001600160a01b038881166004830152602482018590528716906315b5ebde90604401600060405180830381600087803b1580156117b957600080fd5b505af11580156117cd573d6000803e3d6000fd5b505050506001600160a01b038716600090815260dc6020526040812080548392906117f9908490613415565b90915550506001600160a01b038716600090815260a4602090815260408083208684529091528120556001600160a01b038716600081815260db60209081526040808320878452825291829020805460ff1916600117905581518681529081018490527f7ff9f7032d565c7e8919332964b2faa33c320b53604a65d9dd1f8112e12cd39d910160405180910390a25050505050505050565b600060dc60006118a084611e5a565b6001600160a01b0316815260208101919091526040016000205492915050565b60007fdea3103d22025c269050bea94c0c84688877f12fa22b7e6d2d5d78a9a49aa1cb600083600f8111156118f7576118f7612ebf565b60ff1681526020810191909152604001600020546001600160a01b031690508061194f57816040517f812281be000000000000000000000000000000000000000000000000000000008152600401610b66919061343c565b919050565b6060600061199484848080602002602001604051908101604052809392919081815260200183836020028082843760009201919091525061257d92505050565b9050805167ffffffffffffffff8111156119b0576119b0612c72565b6040519080825280602002602001820160405280156119d9578160200160208202803683370190505b50915060005b8251811015611a4c5760dc60008383815181106119fe576119fe612c88565b60200260200101516001600160a01b03166001600160a01b0316815260200190815260200160002054838281518110611a3957611a39612c88565b60209081029190910101526001016119df565b505092915050565b60a3544311611a8f576040517f557fd09100000000000000000000000000000000000000000000000000000000815260040160405180910390fd5b4360a355334114611ac3576000356001600160e01b0319166002604051620f948f60ea1b8152600401610b66929190612ef3565b6000611ace82611e5a565b9050611ada82826125f9565b611ae2575050565b6000611aee60086118c0565b90506000816001600160a01b031663060406186040518163ffffffff1660e01b8152600401602060405180830381865afa158015611b30573d6000803e3d6000fd5b505050506040513d601f19601f82011682018060405250810190611b549190612d0c565b6001600160a01b038416600090815260a460209081526040808320848452909152812080546001019081905560a85492935091611b92904390612757565b905060a6548203611c5b57846001600160a01b03167f607adba66cff84b627e3537d1c17d088a98556bccd0536a2f3590c56329023d9600285604051611bd9929190612ed5565b60405180910390a260a754604051630bde081360e21b81526001600160a01b0387811660048301526024820184905260448201929092526000606482015290851690632f78204c90608401600060405180830381600087803b158015611c3e57600080fd5b505af1158015611c52573d6000803e3d6000fd5b50505050611dec565b60a5548203611dec576000611c7086856121e3565b905080611d3057856001600160a01b03167f607adba66cff84b627e3537d1c17d088a98556bccd0536a2f3590c56329023d9600186604051611cb3929190612ed5565b60405180910390a2604051630bde081360e21b81526001600160a01b038781166004830152600060248301819052604483018190526064830152861690632f78204c90608401600060405180830381600087803b158015611d1357600080fd5b505af1158015611d27573d6000803e3d6000fd5b50505050611dea565b856001600160a01b03167f607adba66cff84b627e3537d1c17d088a98556bccd0536a2f3590c56329023d9600786604051611d6c929190612ed5565b60405180910390a260a754604051630bde081360e21b81526001600160a01b0388811660048301526024820185905260448201929092526001606482015290861690632f78204c90608401600060405180830381600087803b158015611dd157600080fd5b505af1158015611de5573d6000803e3d6000fd5b505050505b505b50505050505b50565b611dfe816118c0565b6001600160a01b0316336001600160a01b031614611df2576000356001600160e01b03191681336040517f8383e634000000000000000000000000000000000000000000000000000000008152600401610b669392919061344a565b6000611e66600f6118c0565b6040517f50a9fc290000000000000000000000000000000000000000000000000000000081526001600160a01b03848116600483015291909116906350a9fc2990602401602060405180830381865afa158015611ec7573d6000803e3d6000fd5b505050506040513d601f19601f8201168201806040525081019061059f919061347f565b6001600160a01b038216600090815260a460209081526040808320848452909152812054610c6b565b6000818311611f24576000610c6b565b610c6b8284613415565b6000611f43611f3d848661349c565b83612772565b949350505050565b7fb53127684a568b3173ae13b9f8a6016e243e63b6e8ee1178d6a717850b5d6103546001600160a01b03163314611fa5576000356001600160e01b0319166001604051620f948f60ea1b8152600401610b66929190612ef3565b565b600080611fb4600f6118c0565b6040517f88660f2a0000000000000000000000000000000000000000000000000000000081526001600160a01b03858116600483015291909116906388660f2a906024016040805180830381865afa158015612014573d6000803e3d6000fd5b505050506040513d601f19601f8201168201806040525081019061203891906134af565b91509150915091565b6040516000906067906001908390612065908a908a908a908a908a906024016134db565b60408051601f198184030181529190526020810180517bffffffffffffffffffffffffffffffffffffffffffffffffffffffff167f7fc356770000000000000000000000000000000000000000000000000000000017905280519091506120ca612788565b602083016020828483895afa6120df57600094505b503d6120ea57600093505b83612121576040517f0fc2632100000000000000000000000000000000000000000000000000000000815260040160405180910390fd5b5115159a9950505050505050505050565b807fdea3103d22025c269050bea94c0c84688877f12fa22b7e6d2d5d78a9a49aa1cb600084600f81111561216857612168612ebf565b60ff1681526020810191909152604001600020805473ffffffffffffffffffffffffffffffffffffffff19166001600160a01b03928316179055811682600f8111156121b6576121b6612ebf565b6040517f865d1c228a8ea13709cfe61f346f7ff67f1bbd4a18ff31ad3e7147350d317c5990600090a35050565b6001600160a01b038216600090815260db6020908152604080832084845290915281205460ff16610c6b565b601d829055601e81905560408051838152602081018390527f381ec200df2ed0875638486318f9f8a84e3550bdc686bf1400c9371a18d087f09101610c4b565b806001600160a01b03163b600003611df2576040517f2ff1928c0000000000000000000000000000000000000000000000000000000081526001600160a01b0382166004820152602401610b66565b60018390556002829055600381905560408051848152602081018490529081018290527f913da102149f952dde560cef3349db8e8002e9d580c41a7551d6d45329f4306b9060600160405180910390a1505050565b8284111561233b576040517f87f6f0950000000000000000000000000000000000000000000000000000000081526001600160e01b0319600035166004820152602401610b66565b60a584905560a683905560a782905560a88190556040805185815260208101859052908101839052606081018290527f442862e6143ad95854e7c13ff4947ec6e43bc87160e3b193e7c1abaf6e3aaa9890608001610513565b828411156123ce576040517f112af4d100000000000000000000000000000000000000000000000000000000815260040160405180910390fd5b61271081111561240a576040517fe0b2228c00000000000000000000000000000000000000000000000000000000815260040160405180910390fd5b60dd84905560de83905560df82905560e08190556040805185815260208101859052908101839052606081018290527fe1f9c6c73554b5fa140eead3cfd4ec3e6d4824f3ed26fb25e38376f65b95470b90608001610513565b600061246f600a6118c0565b6040517fd78392f80000000000000000000000000000000000000000000000000000000081526001600160a01b038481166004830152919091169063d78392f890602401602060405180830381865afa1580156124d0573d6000803e3d6000fd5b505050506040513d601f19601f8201168201806040525081019061059f9190612d0c565b6040516000906069906001908390612518908a908a908a908a908a9060240161358e565b60408051601f198184030181529190526020810180517bffffffffffffffffffffffffffffffffffffffffffffffffffffffff167f7b47d06b0000000000000000000000000000000000000000000000000000000017905280519091506120ca612788565b6060612589600f6118c0565b6001600160a01b031663f9226b1a836040518263ffffffff1660e01b81526004016125b49190613671565b600060405180830381865afa1580156125d1573d6000803e3d6000fd5b505050506040513d6000823e601f3d908101601f1916820160405261059f91908101906136be565b6000336001600160a01b0384161480159061261d5750336001600160a01b03831614155b80156126b3575061262e60086118c0565b6040517fe8712aa70000000000000000000000000000000000000000000000000000000081526001600160a01b038481166004830152919091169063e8712aa790602401602060405180830381865afa15801561268f573d6000803e3d6000fd5b505050506040513d601f19601f820116820180604052508101906126b39190613216565b8015610c6b57506126c460056118c0565b6040517f8d5b67590000000000000000000000000000000000000000000000000000000081526001600160a01b0384811660048301524360248301529190911690638d5b675990604401602060405180830381865afa15801561272b573d6000803e3d6000fd5b505050506040513d601f19601f8201168201806040525081019061274f9190613216565b159392505050565b600081600003612768576000610c6b565b610c6b828461349c565b60008183106127815781610c6b565b5090919050565b60405180602001604052806001906020820280368337509192915050565b60008083601f8401126127b857600080fd5b50813567ffffffffffffffff8111156127d057600080fd5b6020830191508360208260051b85010111156127eb57600080fd5b9250929050565b6000806020838503121561280557600080fd5b823567ffffffffffffffff81111561281c57600080fd5b612828858286016127a6565b90969095509350505050565b6001600160a01b0381168114611df257600080fd5b60006020828403121561285b57600080fd5b8135610c6b81612834565b60008060006040848603121561287b57600080fd5b833567ffffffffffffffff81111561289257600080fd5b61289e868287016127a6565b909790965060209590950135949350505050565b60008083601f8401126128c457600080fd5b50813567ffffffffffffffff8111156128dc57600080fd5b6020830191508360208285010111156127eb57600080fd5b60008060008060006060868803121561290c57600080fd5b853561291781612834565b9450602086013567ffffffffffffffff8082111561293457600080fd5b61294089838a016128b2565b9096509450604088013591508082111561295957600080fd5b50612966888289016128b2565b969995985093965092949392505050565b6000806040838503121561298a57600080fd5b823561299581612834565b946020939093013593505050565b80356010811061194f57600080fd5b600080604083850312156129c557600080fd5b6129ce836129a3565b915060208301356129de81612834565b809150509250929050565b806080810183101561059f57600080fd5b806040810183101561059f57600080fd5b60008060008060008060008060006102a08a8c031215612a2a57600080fd5b8935612a3581612834565b985060208a0135612a4581612834565b975060408a0135612a5581612834565b965060608a0135612a6581612834565b9550612a748b60808c016129e9565b9450612a848b6101008c016129fa565b93506101a08a018b811115612a9857600080fd5b6101408b019350612aa98c826129e9565b925050612aba8b6102208c016129e9565b90509295985092959850929598565b60008060408385031215612adc57600080fd5b50508035926020909101359150565b60008060008060808587031215612b0157600080fd5b5050823594602084013594506040840135936060013592509050565b600080600060608486031215612b3257600080fd5b505081359360208301359350604090920135919050565b600080600080600080600060e0888a031215612b6457600080fd5b8735612b6f81612834565b9650602088013567ffffffffffffffff80821115612b8c57600080fd5b612b988b838c016128b2565b909850965060408a01359550869150612bb48b60608c016129fa565b945060a08a0135915080821115612bca57600080fd5b612bd68b838c016129fa565b935060c08a0135915080821115612bec57600080fd5b50612bf98a828b016129fa565b91505092959891949750929550565b600060208284031215612c1a57600080fd5b610c6b826129a3565b60008151808452602080850194506020840160005b83811015612c5457815187529582019590820190600101612c38565b509495945050505050565b602081526000610c6b6020830184612c23565b634e487b7160e01b600052604160045260246000fd5b634e487b7160e01b600052603260045260246000fd5b8183526000602080850194508260005b85811015612c54578135612cc181612834565b6001600160a01b031687529582019590820190600101612cae565b604081526000612cf0604083018587612c9e565b8281036020840152612d028185612c23565b9695505050505050565b600060208284031215612d1e57600080fd5b5051919050565b602081526000611f43602083018486612c9e565b604051610120810167ffffffffffffffff81118282101715612d5d57612d5d612c72565b60405290565b6040805190810167ffffffffffffffff81118282101715612d5d57612d5d612c72565b604051601f8201601f1916810167ffffffffffffffff81118282101715612daf57612daf612c72565b604052919050565b600067ffffffffffffffff821115612dd157612dd1612c72565b5060051b60200190565b8051801515811461194f57600080fd5b60006020808385031215612dfe57600080fd5b825167ffffffffffffffff811115612e1557600080fd5b8301601f81018513612e2657600080fd5b8051612e39612e3482612db7565b612d86565b81815260059190911b82018301908381019087831115612e5857600080fd5b928401925b82841015612e7d57612e6e84612ddb565b82529284019290840190612e5d565b979650505050505050565b606081526000612e9c606083018688612c9e565b6020830194909452506040015292915050565b8183823760009101908152919050565b634e487b7160e01b600052602160045260246000fd5b6040810160098410612ee957612ee9612ebf565b9281526020015290565b6001600160e01b03198316815260408101600b8310612f1457612f14612ebf565b8260208301529392505050565b805161194f81612834565b600067ffffffffffffffff821115612f4657612f46612c72565b50601f01601f191660200190565b60005b83811015612f6f578181015183820152602001612f57565b50506000910152565b600082601f830112612f8957600080fd5b8151612f97612e3482612f2c565b818152846020838601011115612fac57600080fd5b611f43826020830160208701612f54565b600060208284031215612fcf57600080fd5b815167ffffffffffffffff80821115612fe757600080fd5b908301906101208286031215612ffc57600080fd5b613004612d39565b61300d83612f21565b815261301b60208401612f21565b602082015261302c60408401612f21565b604082015261303d60608401612f21565b606082015261304e60808401612f21565b608082015260a08301518281111561306557600080fd5b61307187828601612f78565b60a08301525060c083015160c082015260e08301518281111561309357600080fd5b61309f87828601612f78565b60e08301525061010091506130b5828401612f21565b91810191909152949350505050565b81835281816020850137506000828201602090810191909152601f909101601f19169091010190565b6000838385526020808601955060208560051b8301018460005b8781101561317757848303601f19018952813536889003601e1901811261312d57600080fd5b8701848101903567ffffffffffffffff81111561314957600080fd5b80360382131561315857600080fd5b6131638582846130c4565b9a86019a9450505090830190600101613107565b5090979650505050505050565b60208082526000906060830183820185845b600281101561320a57868403601f19018352813536899003601e190181126131bd57600080fd5b8801858101903567ffffffffffffffff8111156131d957600080fd5b8060051b36038213156131eb57600080fd5b6131f68682846130ed565b955050509184019190840190600101613196565b50919695505050505050565b60006020828403121561322857600080fd5b610c6b82612ddb565b600082601f83011261324257600080fd5b8135613250612e3482612f2c565b81815284602083860101111561326557600080fd5b816020850160208301376000918101602001919091529392505050565b600061328c612d63565b80604084013681111561329e57600080fd5b845b8181101561335057803567ffffffffffffffff808211156132c15760008081fd5b9087019036601f8301126132d55760008081fd5b813560206132e5612e3483612db7565b82815260059290921b840181019181810190368411156133055760008081fd5b8286015b8481101561333d578035868111156133215760008081fd5b61332f3686838b0101613231565b845250918301918301613309565b50895250909601955050506020016132a0565b5090949350505050565b6000613364612d63565b80604084013681111561337657600080fd5b845b8181101561335057803567ffffffffffffffff8111156133985760008081fd5b6133a436828901613231565b85525060209384019301613378565b6000806000606084860312156133c857600080fd5b6133d184612ddb565b925060208401519150604084015190509250925092565b634e487b7160e01b600052601160045260246000fd5b808202811582820484141761059f5761059f6133e8565b8181038181111561059f5761059f6133e8565b6010811061343857613438612ebf565b9052565b6020810161059f8284613428565b6001600160e01b031984168152606081016134686020830185613428565b6001600160a01b0383166040830152949350505050565b60006020828403121561349157600080fd5b8151610c6b81612834565b8082018082111561059f5761059f6133e8565b600080604083850312156134c257600080fd5b6134cb83612ddb565b915060208301516129de81612834565b6001600160a01b03861681526060602082015260006134fe6060830186886130c4565b82810360408401526135118185876130c4565b98975050505050505050565b60008151808452613535816020860160208601612f54565b601f01601f19169290920160200192915050565b600082604081018360005b600281101561358357838303875261356d83835161351d565b6020978801979093509190910190600101613554565b509095945050505050565b60c0815260006135a160c083018861351d565b60208781850152604084018760005b60028110156135cd578151835291830191908301906001016135b0565b505050838203608085015281604081018760005b600281101561364e578583038452815180518085529086019086850190600581901b8601880160005b8281101561363857601f1988830301845261362682865161351d565b948a0194938a0193915060010161360a565b50968801969550505091850191506001016135e1565b505085810360a08701526136628188613549565b9b9a5050505050505050505050565b6020808252825182820181905260009190848201906040850190845b818110156136b25783516001600160a01b03168352928401929184019160010161368d565b50909695505050505050565b600060208083850312156136d157600080fd5b825167ffffffffffffffff8111156136e857600080fd5b8301601f810185136136f957600080fd5b8051613707612e3482612db7565b81815260059190911b8201830190838101908783111561372657600080fd5b928401925b82841015612e7d57835161373e81612834565b8252928401929084019061372b56fea26469706673582212207b490ff7fa3558776d0aa6a09123cad1e8daddea60923e7fda3fc42587f39fb164736f6c63430008160033",
  "chainId": 2020,
  "contractAbsolutePath": "SlashIndicator.sol",
  "deployer": "0x4d58Ea7231c394d5804e8B06B1365915f906E27F",
  "devdoc": {
    "version": 1,
    "kind": "dev",
    "methods": {
      "bailOut(address)": {
        "details": "A slashed validator use this method to get out of jail. Requirements: - The `_consensusAddr` must be a validator. - Only validator's admin can call this method. Emits the event `BailedOut`."
      },
      "checkBailedOutAtPeriod(address,uint256)": {
        "details": "Returns the whether the `consensus` has been bailed out at the `period`."
      },
      "currentUnavailabilityIndicator(address)": {
        "details": "Returns the current unavailability indicator of a block producer."
      },
      "execResetCreditScores(address[])": {
        "details": "Resets the credit score for the revoked validators. Requirements: - Only validator contract can call this method. - This method is only called at the end of each period. Emits the event `CreditScoresUpdated`."
      },
      "execUpdateCreditScores(address[],uint256)": {
        "details": "Updates the credit score for the validators. Requirements: - Only validator contract can call this method. - This method is only called at the end of each period. Emits the event `CreditScoresUpdated`."
      },
      "getContract(uint8)": {
        "details": "Returns the address of a contract with a specific role. Throws an error if no contract is set for the specified role.",
        "params": {
          "contractType": "The role of the contract to retrieve."
        },
        "returns": {
          "contract_": "The address of the contract with the specified role."
        }
      },
      "getCreditScore(address)": {
        "details": "Returns the current credit score of the validator."
      },
      "getCreditScoreConfigs()": {
        "details": "Returns the configs related to credit score.",
        "returns": {
          "bailOutCostMultiplier_": "The number that will be multiplied with the remaining jailed time to get the cost of bailing out.",
          "cutOffPercentageAfterBailout_": "The percentage of reward that the block producer will be cut off from until the end of the period after bailing out.",
          "gainCreditScore_": "The score to gain per period.",
          "maxCreditScore_": "The max number of credit score that a validator can hold."
        }
      },
      "getDoubleSignSlashingConfigs()": {
        "details": "Returns the configs related to block producer slashing.",
        "params": {
          "_doubleSigningOffsetLimitBlock": "The number of block that the current block is at most far from the double signing block."
        },
        "returns": {
          "doubleSigningJailUntilBlock_": "The block number that the punished validator will be jailed until, due to double signing.",
          "slashDoubleSignAmount_": "The amount of RON to slash double sign."
        }
      },
      "getFastFinalitySlashingConfigs()": {
        "details": "Returns the configs related to block producer slashing.",
        "returns": {
          "fastFinalityJailUntilBlock_": "The block number that the punished validator will be jailed until, due to malicious fast finality.",
          "slashFastFinalityAmount_": "The amount of RON to slash fast finality."
        }
      },
      "getManyCreditScores(address[])": {
        "details": "Returns the current credit score of a list of validators."
      },
      "getUnavailabilityIndicator(address,uint256)": {
        "details": "Returns the unavailability indicator in the period `period` of a block producer."
      },
      "getUnavailabilitySlashingConfigs()": {
        "details": "Returns the configs related to block producer slashing.",
        "returns": {
          "jailDurationForUnavailabilityTier2Threshold_": "The number of blocks to jail a block producer when (s)he is slashed with tier-2 or tier-3.",
          "slashAmountForUnavailabilityTier2Threshold_": "The amount of RON to deduct from self-staking of a block producer when (s)he is slashed with tier-2 or tier-3.",
          "unavailabilityTier1Threshold_": "The mining reward will be deprecated, if (s)he missed more than this threshold. This threshold is applied for tier-1 and tier-3 slash.",
          "unavailabilityTier2Threshold_": " The mining reward will be deprecated, (s)he will be put in jailed, and will be deducted self-staking if (s)he misses more than this threshold. This threshold is applied for tier-2 slash."
        }
      },
      "initialize(address,address,address,address,uint256[4],uint256[2],uint256[3],uint256[4],uint256[4])": {
        "details": "Initializes the contract storage."
      },
      "lastUnavailabilitySlashedBlock()": {
        "details": "Returns the last block that a block producer is slashed for unavailability."
      },
      "precompileValidateDoubleSignAddress()": {
        "details": "Gets the address of the precompile of validating double sign evidence"
      },
      "precompileValidateFastFinalityAddress()": {
        "details": "Gets the address of the precompile of validating double sign evidence"
      },
      "setContract(uint8,address)": {
        "details": "Sets the address of a contract with a specific role. Emits the event {ContractUpdated}.",
        "params": {
          "addr": "The address of the contract to set.",
          "contractType": "The role of the contract to set."
        }
      },
      "setCreditScoreConfigs(uint256,uint256,uint256,uint256)": {
        "details": "Sets the configs to credit score. Requirements: - The method caller is admin. Emits the event `CreditScoreConfigsUpdated`.",
        "params": {
          "_bailOutMultiplier": "The number that will be multiplied with the remaining jailed time to get the cost of bailing out.",
          "_cutOffPercentage": "The percentage of reward that the block producer will be cut off from until the end of the period after bailing out.",
          "_gainScore": "The score to gain per period.",
          "_maxScore": "The max number of credit score that a validator can hold."
        }
      },
      "setDoubleSignSlashingConfigs(uint256,uint256,uint256)": {
        "details": "Sets the configs to slash block producers. Requirements: - The method caller is admin. Emits the event `DoubleSignSlashingConfigsUpdated`.",
        "params": {
          "_doubleSigningOffsetLimitBlock": "The number of block that the current block is at most far from the double signing block.",
          "_jailUntilBlock": "The block number that the punished validator will be jailed until, due to double signing.",
          "_slashAmount": "The amount of RON to slash double sign."
        }
      },
      "setFastFinalitySlashingConfigs(uint256,uint256)": {
        "details": "Sets the configs to slash block producers. Requirements: - The method caller is admin. Emits the event `FastFinalitySlashingConfigsUpdated`.",
        "params": {
          "jailUntilBlock": "The block number that the punished validator will be jailed until, due to fast finality.",
          "slashAmount": "The amount of RON to slash fast finality."
        }
      },
      "setUnavailabilitySlashingConfigs(uint256,uint256,uint256,uint256)": {
        "details": "Sets the configs to slash block producers. Requirements: - The method caller is admin. Emits the event `BridgeOperatorSlashingConfigsUpdated`.",
        "params": {
          "jailDurationForTier2Threshold": "The number of blocks to jail a block producer when (s)he is slashed tier-2.",
          "slashAmountForTier2Threshold": "The amount of RON to deduct from self-staking of a block producer when (s)he is slashed tier-2.",
          "tier1Threshold": "The mining reward will be deprecated, if (s)he missed more than this threshold.",
          "tier2Threshold": "The mining reward will be deprecated, (s)he will be put in jailed, and will be deducted self-staking if (s)he misses more than this threshold."
        }
      },
      "slashDoubleSign(address,bytes,bytes)": {
        "details": "Slashes for double signing. Requirements: - The method caller is coinbase. Emits the event `Slashed` if the double signing evidence of the two headers valid."
      },
      "slashFastFinality(address,bytes,uint256,bytes32[2],bytes[][2],bytes[2])": {
        "details": "Slashes for fast finality. Requirements: - Only whitelisted addresses are allowed to call. Emits the event `Slashed` if the fast finality evidence of the two headers valid."
      },
      "slashUnavailability(address)": {
        "details": "Slashes for unavailability by increasing the counter of block producer `consensusAddr`. Requirements: - The method caller is coinbase. Emits the event `Slashed` when the threshold is reached."
      }
    },
    "events": {
      "BailedOut(address,uint256,uint256)": {
        "details": "Emitted when a validator bailed out of jail."
      },
      "ContractUpdated(uint8,address)": {
        "details": "Emitted when a contract is updated."
      },
      "CreditScoreConfigsUpdated(uint256,uint256,uint256,uint256)": {
        "details": "Emitted when the configs to credit score is updated. See the method `setCreditScoreConfigs` for param details."
      },
      "CreditScoresUpdated(address[],uint256[])": {
        "details": "Emitted the credit score of validators is updated."
      },
      "DoubleSignSlashingConfigsUpdated(uint256,uint256,uint256)": {
        "details": "Emitted when the configs to slash double sign is updated. See the method `getDoubleSignSlashingConfigs` for param details."
      },
      "FastFinalitySlashingConfigsUpdated(uint256,uint256)": {
        "details": "Emitted when the configs to slash fast finality is updated. See the method `getFastFinalitySlashingConfigs` for param details."
      },
      "Initialized(uint8)": {
        "details": "Triggered when the contract has been initialized or reinitialized."
      },
      "Slashed(address,uint8,uint256)": {
        "details": "Emitted when the validator is slashed."
      },
      "UnavailabilitySlashingConfigsUpdated(uint256,uint256,uint256,uint256)": {
        "details": "Emitted when the configs to slash bridge operator is updated. See the method `getUnavailabilitySlashingConfigs` for param details."
      }
    },
    "errors": {
      "ErrCallPrecompiled()": [
        {
          "details": "Error of call to precompile fails."
        }
      ],
      "ErrCallerMustBeJailedInTheCurrentPeriod()": [
        {
          "details": "Error thrown when the caller must be jailed in the current period."
        }
      ],
      "ErrCannotSlashAValidatorTwiceOrSlashMoreThanOneValidatorInOneBlock()": [
        {
          "details": "Error thrown when attempting to slash a validator twice or slash more than one validator in one block."
        }
      ],
      "ErrContractTypeNotFound(uint8)": [
        {
          "details": "Error of invalid role."
        }
      ],
      "ErrEvidenceAlreadySubmitted()": [
        {
          "details": "Error thrown when evidence has already been submitted."
        }
      ],
      "ErrInsufficientCreditScoreToBailOut()": [
        {
          "details": "Error thrown when the caller's credit score is insufficient to bail out a situation."
        }
      ],
      "ErrInvalidArguments(bytes4)": [
        {
          "details": "Error indicating that arguments are invalid."
        }
      ],
      "ErrInvalidCreditScoreConfig()": [
        {
          "details": "Error thrown when an invalid credit score configuration is provided."
        }
      ],
      "ErrInvalidCutOffPercentageConfig()": [
        {
          "details": "Error thrown when an invalid cut-off percentage configuration is provided."
        }
      ],
      "ErrInvalidThreshold(bytes4)": [
        {
          "details": "Error indicating that the provided threshold is invalid for a specific function signature.",
          "params": {
            "msgSig": "The function signature (bytes4) that the invalid threshold applies to."
          }
        }
      ],
      "ErrUnauthorized(bytes4,uint8)": [
        {
          "details": "Error indicating that the caller is unauthorized to perform a specific function.",
          "params": {
            "expectedRole": "The role required to perform the function.",
            "msgSig": "The function signature (bytes4) that the caller is unauthorized to perform."
          }
        }
      ],
      "ErrUnexpectedInternalCall(bytes4,uint8,address)": [
        {
          "details": "Error indicating that the caller is unauthorized to perform a specific function.",
          "params": {
            "actual": "The actual address that called to the function.",
            "expectedContractType": "The contract type required to perform the function.",
            "msgSig": "The function signature (bytes4)."
          }
        }
      ],
      "ErrUnregisteredPublicKey()": [
        {
          "details": "Error thrown when public key in evidence is not registered."
        }
      ],
      "ErrValidatorHasBailedOutPreviously()": [
        {
          "details": "Error thrown when a validator has previously bailed out."
        }
      ],
      "ErrZeroCodeContract(address)": [
        {
          "details": "Error of set to non-contract."
        }
      ]
    }
  },
  "isFoundry": true,
  "nonce": 161,
  "numDeployments": 6,
  "storageLayout": {
    "storage": [
      {
        "astId": 38038,
        "contract": "contracts/ronin/slash-indicator/SlashIndicator.sol:SlashIndicator",
        "label": "______deprecatedValidator",
        "offset": 0,
        "slot": "0",
        "type": "t_address"
      },
      {
        "astId": 28222,
        "contract": "contracts/ronin/slash-indicator/SlashIndicator.sol:SlashIndicator",
        "label": "_slashDoubleSignAmount",
        "offset": 0,
        "slot": "1",
        "type": "t_uint256"
      },
      {
        "astId": 28225,
        "contract": "contracts/ronin/slash-indicator/SlashIndicator.sol:SlashIndicator",
        "label": "_doubleSigningJailUntilBlock",
        "offset": 0,
        "slot": "2",
        "type": "t_uint256"
      },
      {
        "astId": 28228,
        "contract": "contracts/ronin/slash-indicator/SlashIndicator.sol:SlashIndicator",
        "label": "_doubleSigningOffsetLimitBlock",
        "offset": 0,
        "slot": "3",
        "type": "t_uint256"
      },
      {
        "astId": 28233,
        "contract": "contracts/ronin/slash-indicator/SlashIndicator.sol:SlashIndicator",
        "label": "_submittedEvidence",
        "offset": 0,
        "slot": "4",
        "type": "t_mapping(t_bytes32,t_bool)"
      },
      {
        "astId": 28238,
        "contract": "contracts/ronin/slash-indicator/SlashIndicator.sol:SlashIndicator",
        "label": "______gap",
        "offset": 0,
        "slot": "5",
        "type": "t_array(t_uint256)24_storage"
      },
      {
        "astId": 28456,
        "contract": "contracts/ronin/slash-indicator/SlashIndicator.sol:SlashIndicator",
        "label": "_slashFastFinalityAmount",
        "offset": 0,
        "slot": "29",
        "type": "t_uint256"
      },
      {
        "astId": 28459,
        "contract": "contracts/ronin/slash-indicator/SlashIndicator.sol:SlashIndicator",
        "label": "_fastFinalityJailUntilBlock",
        "offset": 0,
        "slot": "30",
        "type": "t_uint256"
      },
      {
        "astId": 28464,
        "contract": "contracts/ronin/slash-indicator/SlashIndicator.sol:SlashIndicator",
        "label": "_processedEvidence",
        "offset": 0,
        "slot": "31",
        "type": "t_mapping(t_bytes32,t_bool)"
      },
      {
        "astId": 28469,
        "contract": "contracts/ronin/slash-indicator/SlashIndicator.sol:SlashIndicator",
        "label": "______gap",
        "offset": 0,
        "slot": "32",
        "type": "t_array(t_uint256)21_storage"
      },
      {
        "astId": 38050,
        "contract": "contracts/ronin/slash-indicator/SlashIndicator.sol:SlashIndicator",
        "label": "______deprecatedTrustedOrg",
        "offset": 0,
        "slot": "53",
        "type": "t_address"
      },
      {
        "astId": 38054,
        "contract": "contracts/ronin/slash-indicator/SlashIndicator.sol:SlashIndicator",
        "label": "______deprecatedGovernanceAdmin",
        "offset": 0,
        "slot": "54",
        "type": "t_address"
      },
      {
        "astId": 28191,
        "contract": "contracts/ronin/slash-indicator/SlashIndicator.sol:SlashIndicator",
        "label": "__deprecatedBridgeVotingSlashed",
        "offset": 0,
        "slot": "55",
        "type": "t_mapping(t_address,t_mapping(t_uint256,t_bool))"
      },
      {
        "astId": 28194,
        "contract": "contracts/ronin/slash-indicator/SlashIndicator.sol:SlashIndicator",
        "label": "__deprecatedBridgeVotingThreshold",
        "offset": 0,
        "slot": "56",
        "type": "t_uint256"
      },
      {
        "astId": 28197,
        "contract": "contracts/ronin/slash-indicator/SlashIndicator.sol:SlashIndicator",
        "label": "__deprecatedBridgeVotingSlashAmount",
        "offset": 0,
        "slot": "57",
        "type": "t_uint256"
      },
      {
        "astId": 28202,
        "contract": "contracts/ronin/slash-indicator/SlashIndicator.sol:SlashIndicator",
        "label": "______gap",
        "offset": 0,
        "slot": "58",
        "type": "t_array(t_uint256)50_storage"
      },
      {
        "astId": 38046,
        "contract": "contracts/ronin/slash-indicator/SlashIndicator.sol:SlashIndicator",
        "label": "______deprecatedMaintenance",
        "offset": 0,
        "slot": "108",
        "type": "t_address"
      },
      {
        "astId": 28154,
        "contract": "contracts/ronin/slash-indicator/SlashIndicator.sol:SlashIndicator",
        "label": "____deprecatedMissingVotesRatioTier1",
        "offset": 0,
        "slot": "109",
        "type": "t_uint256"
      },
      {
        "astId": 28157,
        "contract": "contracts/ronin/slash-indicator/SlashIndicator.sol:SlashIndicator",
        "label": "____deprecatedMissingVotesRatioTier2",
        "offset": 0,
        "slot": "110",
        "type": "t_uint256"
      },
      {
        "astId": 28160,
        "contract": "contracts/ronin/slash-indicator/SlashIndicator.sol:SlashIndicator",
        "label": "____deprecatedJailDurationForMissingVotesRatioTier2",
        "offset": 0,
        "slot": "111",
        "type": "t_uint256"
      },
      {
        "astId": 28163,
        "contract": "contracts/ronin/slash-indicator/SlashIndicator.sol:SlashIndicator",
        "label": "____deprecatedSkipBridgeOperatorSlashingThreshold",
        "offset": 0,
        "slot": "112",
        "type": "t_uint256"
      },
      {
        "astId": 28168,
        "contract": "contracts/ronin/slash-indicator/SlashIndicator.sol:SlashIndicator",
        "label": "______gap",
        "offset": 0,
        "slot": "113",
        "type": "t_array(t_uint256)50_storage"
      },
      {
        "astId": 29128,
        "contract": "contracts/ronin/slash-indicator/SlashIndicator.sol:SlashIndicator",
        "label": "_lastUnavailabilitySlashedBlock",
        "offset": 0,
        "slot": "163",
        "type": "t_uint256"
      },
      {
        "astId": 29135,
        "contract": "contracts/ronin/slash-indicator/SlashIndicator.sol:SlashIndicator",
        "label": "_unavailabilityIndicator",
        "offset": 0,
        "slot": "164",
        "type": "t_mapping(t_address,t_mapping(t_uint256,t_uint256))"
      },
      {
        "astId": 29138,
        "contract": "contracts/ronin/slash-indicator/SlashIndicator.sol:SlashIndicator",
        "label": "_unavailabilityTier1Threshold",
        "offset": 0,
        "slot": "165",
        "type": "t_uint256"
      },
      {
        "astId": 29141,
        "contract": "contracts/ronin/slash-indicator/SlashIndicator.sol:SlashIndicator",
        "label": "_unavailabilityTier2Threshold",
        "offset": 0,
        "slot": "166",
        "type": "t_uint256"
      },
      {
        "astId": 29144,
        "contract": "contracts/ronin/slash-indicator/SlashIndicator.sol:SlashIndicator",
        "label": "_slashAmountForUnavailabilityTier2Threshold",
        "offset": 0,
        "slot": "167",
        "type": "t_uint256"
      },
      {
        "astId": 29147,
        "contract": "contracts/ronin/slash-indicator/SlashIndicator.sol:SlashIndicator",
        "label": "_jailDurationForUnavailabilityTier2Threshold",
        "offset": 0,
        "slot": "168",
        "type": "t_uint256"
      },
      {
        "astId": 29152,
        "contract": "contracts/ronin/slash-indicator/SlashIndicator.sol:SlashIndicator",
        "label": "______gap",
        "offset": 0,
        "slot": "169",
        "type": "t_array(t_uint256)50_storage"
      },
      {
        "astId": 27532,
        "contract": "contracts/ronin/slash-indicator/SlashIndicator.sol:SlashIndicator",
        "label": "_checkBailedOutAtPeriod",
        "offset": 0,
        "slot": "219",
        "type": "t_mapping(t_address,t_mapping(t_uint256,t_bool))"
      },
      {
        "astId": 27537,
        "contract": "contracts/ronin/slash-indicator/SlashIndicator.sol:SlashIndicator",
        "label": "_creditScore",
        "offset": 0,
        "slot": "220",
        "type": "t_mapping(t_address,t_uint256)"
      },
      {
        "astId": 27540,
        "contract": "contracts/ronin/slash-indicator/SlashIndicator.sol:SlashIndicator",
        "label": "_gainCreditScore",
        "offset": 0,
        "slot": "221",
        "type": "t_uint256"
      },
      {
        "astId": 27543,
        "contract": "contracts/ronin/slash-indicator/SlashIndicator.sol:SlashIndicator",
        "label": "_maxCreditScore",
        "offset": 0,
        "slot": "222",
        "type": "t_uint256"
      },
      {
        "astId": 27546,
        "contract": "contracts/ronin/slash-indicator/SlashIndicator.sol:SlashIndicator",
        "label": "_bailOutCostMultiplier",
        "offset": 0,
        "slot": "223",
        "type": "t_uint256"
      },
      {
        "astId": 27549,
        "contract": "contracts/ronin/slash-indicator/SlashIndicator.sol:SlashIndicator",
        "label": "_cutOffPercentageAfterBailout",
        "offset": 0,
        "slot": "224",
        "type": "t_uint256"
      },
      {
        "astId": 27554,
        "contract": "contracts/ronin/slash-indicator/SlashIndicator.sol:SlashIndicator",
        "label": "______gap",
        "offset": 0,
        "slot": "225",
        "type": "t_array(t_uint256)50_storage"
      },
      {
        "astId": 149866,
        "contract": "contracts/ronin/slash-indicator/SlashIndicator.sol:SlashIndicator",
        "label": "_initialized",
        "offset": 0,
        "slot": "275",
        "type": "t_uint8"
      },
      {
        "astId": 149869,
        "contract": "contracts/ronin/slash-indicator/SlashIndicator.sol:SlashIndicator",
        "label": "_initializing",
        "offset": 1,
        "slot": "275",
        "type": "t_bool"
      }
    ],
    "types": {
      "t_address": {
        "encoding": "inplace",
        "label": "address",
        "numberOfBytes": "20"
      },
      "t_array(t_uint256)21_storage": {
        "encoding": "inplace",
        "label": "uint256[21]",
        "numberOfBytes": "672",
        "base": "t_uint256"
      },
      "t_array(t_uint256)24_storage": {
        "encoding": "inplace",
        "label": "uint256[24]",
        "numberOfBytes": "768",
        "base": "t_uint256"
      },
      "t_array(t_uint256)50_storage": {
        "encoding": "inplace",
        "label": "uint256[50]",
        "numberOfBytes": "1600",
        "base": "t_uint256"
      },
      "t_bool": {
        "encoding": "inplace",
        "label": "bool",
        "numberOfBytes": "1"
      },
      "t_bytes32": {
        "encoding": "inplace",
        "label": "bytes32",
        "numberOfBytes": "32"
      },
      "t_mapping(t_address,t_mapping(t_uint256,t_bool))": {
        "encoding": "mapping",
        "key": "t_address",
        "label": "mapping(address => mapping(uint256 => bool))",
        "numberOfBytes": "32",
        "value": "t_mapping(t_uint256,t_bool)"
      },
      "t_mapping(t_address,t_mapping(t_uint256,t_uint256))": {
        "encoding": "mapping",
        "key": "t_address",
        "label": "mapping(address => mapping(uint256 => uint256))",
        "numberOfBytes": "32",
        "value": "t_mapping(t_uint256,t_uint256)"
      },
      "t_mapping(t_address,t_uint256)": {
        "encoding": "mapping",
        "key": "t_address",
        "label": "mapping(address => uint256)",
        "numberOfBytes": "32",
        "value": "t_uint256"
      },
      "t_mapping(t_bytes32,t_bool)": {
        "encoding": "mapping",
        "key": "t_bytes32",
        "label": "mapping(bytes32 => bool)",
        "numberOfBytes": "32",
        "value": "t_bool"
      },
      "t_mapping(t_uint256,t_bool)": {
        "encoding": "mapping",
        "key": "t_uint256",
        "label": "mapping(uint256 => bool)",
        "numberOfBytes": "32",
        "value": "t_bool"
      },
      "t_mapping(t_uint256,t_uint256)": {
        "encoding": "mapping",
        "key": "t_uint256",
        "label": "mapping(uint256 => uint256)",
        "numberOfBytes": "32",
        "value": "t_uint256"
      },
      "t_uint256": {
        "encoding": "inplace",
        "label": "uint256",
        "numberOfBytes": "32"
      },
      "t_uint8": {
        "encoding": "inplace",
        "label": "uint8",
        "numberOfBytes": "1"
      }
    }
  },
  "timestamp": 1709533477,
  "userdoc": {
    "version": 1,
    "kind": "user"
  }
}