{
  "abi": [
    {
      "type": "constructor",
      "inputs": [],
      "stateMutability": "nonpayable"
    },
    {
      "type": "fallback",
      "stateMutability": "payable"
    },
    {
      "type": "receive",
      "stateMutability": "payable"
    },
    {
      "type": "function",
      "name": "DEFAULT_ADDITION_GAS",
      "inputs": [],
      "outputs": [
        {
          "name": "",
          "type": "uint256",
          "internalType": "uint256"
        }
      ],
      "stateMutability": "view"
    },
    {
      "type": "function",
      "name": "DEFAULT_ADMIN_ROLE",
      "inputs": [],
      "outputs": [
        {
          "name": "",
          "type": "bytes32",
          "internalType": "bytes32"
        }
      ],
      "stateMutability": "view"
    },
    {
      "type": "function",
      "name": "MIGRATOR_ROLE",
      "inputs": [],
      "outputs": [
        {
          "name": "",
          "type": "bytes32",
          "internalType": "bytes32"
        }
      ],
      "stateMutability": "view"
    },
    {
      "type": "function",
      "name": "PERIOD_DURATION",
      "inputs": [],
      "outputs": [
        {
          "name": "",
          "type": "uint256",
          "internalType": "uint256"
        }
      ],
      "stateMutability": "view"
    },
    {
      "type": "function",
      "name": "applyValidatorCandidate",
      "inputs": [
        {
          "name": "candidateAdmin",
          "type": "address",
          "internalType": "address"
        },
        {
          "name": "consensusAddr",
          "type": "address",
          "internalType": "TConsensus"
        },
        {
          "name": "treasuryAddr",
          "type": "address",
          "internalType": "address payable"
        },
        {
          "name": "commissionRate",
          "type": "uint256",
          "internalType": "uint256"
        },
        {
          "name": "pubkey",
          "type": "bytes",
          "internalType": "bytes"
        },
        {
          "name": "proofOfPossession",
          "type": "bytes",
          "internalType": "bytes"
        }
      ],
      "outputs": [],
      "stateMutability": "payable"
    },
    {
      "type": "function",
      "name": "bulkUndelegate",
      "inputs": [
        {
          "name": "consensusAddrs",
          "type": "address[]",
          "internalType": "TConsensus[]"
        },
        {
          "name": "amounts",
          "type": "uint256[]",
          "internalType": "uint256[]"
        }
      ],
      "outputs": [],
      "stateMutability": "nonpayable"
    },
    {
      "type": "function",
      "name": "claimRewards",
      "inputs": [
        {
          "name": "consensusAddrList",
          "type": "address[]",
          "internalType": "TConsensus[]"
        }
      ],
      "outputs": [
        {
          "name": "amount",
          "type": "uint256",
          "internalType": "uint256"
        }
      ],
      "stateMutability": "nonpayable"
    },
    {
      "type": "function",
      "name": "cooldownSecsToUndelegate",
      "inputs": [],
      "outputs": [
        {
          "name": "",
          "type": "uint256",
          "internalType": "uint256"
        }
      ],
      "stateMutability": "view"
    },
    {
      "type": "function",
      "name": "delegate",
      "inputs": [
        {
          "name": "consensusAddr",
          "type": "address",
          "internalType": "TConsensus"
        }
      ],
      "outputs": [],
      "stateMutability": "payable"
    },
    {
      "type": "function",
      "name": "delegateRewards",
      "inputs": [
        {
          "name": "consensusAddrList",
          "type": "address[]",
          "internalType": "TConsensus[]"
        },
        {
          "name": "consensusAddrDst",
          "type": "address",
          "internalType": "TConsensus"
        }
      ],
      "outputs": [
        {
          "name": "amount",
          "type": "uint256",
          "internalType": "uint256"
        }
      ],
      "stateMutability": "nonpayable"
    },
    {
      "type": "function",
      "name": "disableMigrateWasAdmin",
      "inputs": [],
      "outputs": [],
      "stateMutability": "nonpayable"
    },
    {
      "type": "function",
      "name": "execChangeAdminAddr",
      "inputs": [
        {
          "name": "poolId",
          "type": "address",
          "internalType": "address"
        },
        {
          "name": "currAdminAddr",
          "type": "address",
          "internalType": "address"
        },
        {
          "name": "newAdminAddr",
          "type": "address",
          "internalType": "address"
        }
      ],
      "outputs": [],
      "stateMutability": "nonpayable"
    },
    {
      "type": "function",
      "name": "execDeductStakingAmount",
      "inputs": [
        {
          "name": "poolId",
          "type": "address",
          "internalType": "address"
        },
        {
          "name": "amount",
          "type": "uint256",
          "internalType": "uint256"
        }
      ],
      "outputs": [
        {
          "name": "actualDeductingAmount_",
          "type": "uint256",
          "internalType": "uint256"
        }
      ],
      "stateMutability": "nonpayable"
    },
    {
      "type": "function",
      "name": "execDeprecatePools",
      "inputs": [
        {
          "name": "poolIds",
          "type": "address[]",
          "internalType": "address[]"
        },
        {
          "name": "newPeriod",
          "type": "uint256",
          "internalType": "uint256"
        }
      ],
      "outputs": [],
      "stateMutability": "nonpayable"
    },
    {
      "type": "function",
      "name": "execRecordRewards",
      "inputs": [
        {
          "name": "poolIds",
          "type": "address[]",
          "internalType": "address[]"
        },
        {
          "name": "rewards",
          "type": "uint256[]",
          "internalType": "uint256[]"
        },
        {
          "name": "period",
          "type": "uint256",
          "internalType": "uint256"
        }
      ],
      "outputs": [],
      "stateMutability": "payable"
    },
    {
      "type": "function",
      "name": "getCommissionRateRange",
      "inputs": [],
      "outputs": [
        {
          "name": "",
          "type": "uint256",
          "internalType": "uint256"
        },
        {
          "name": "",
          "type": "uint256",
          "internalType": "uint256"
        }
      ],
      "stateMutability": "view"
    },
    {
      "type": "function",
      "name": "getContract",
      "inputs": [
        {
          "name": "contractType",
          "type": "uint8",
          "internalType": "enum ContractType"
        }
      ],
      "outputs": [
        {
          "name": "contract_",
          "type": "address",
          "internalType": "address payable"
        }
      ],
      "stateMutability": "view"
    },
    {
      "type": "function",
      "name": "getManySelfStakings",
      "inputs": [
        {
          "name": "consensusAddrs",
          "type": "address[]",
          "internalType": "TConsensus[]"
        }
      ],
      "outputs": [
        {
          "name": "selfStakings_",
          "type": "uint256[]",
          "internalType": "uint256[]"
        }
      ],
      "stateMutability": "view"
    },
    {
      "type": "function",
      "name": "getManySelfStakingsById",
      "inputs": [
        {
          "name": "poolIds",
          "type": "address[]",
          "internalType": "address[]"
        }
      ],
      "outputs": [
        {
          "name": "selfStakings_",
          "type": "uint256[]",
          "internalType": "uint256[]"
        }
      ],
      "stateMutability": "view"
    },
    {
      "type": "function",
      "name": "getManyStakingAmounts",
      "inputs": [
        {
          "name": "consensusAddrs",
          "type": "address[]",
          "internalType": "TConsensus[]"
        },
        {
          "name": "userList",
          "type": "address[]",
          "internalType": "address[]"
        }
      ],
      "outputs": [
        {
          "name": "stakingAmounts",
          "type": "uint256[]",
          "internalType": "uint256[]"
        }
      ],
      "stateMutability": "view"
    },
    {
      "type": "function",
      "name": "getManyStakingAmountsById",
      "inputs": [
        {
          "name": "poolIds",
          "type": "address[]",
          "internalType": "address[]"
        },
        {
          "name": "userList",
          "type": "address[]",
          "internalType": "address[]"
        }
      ],
      "outputs": [
        {
          "name": "stakingAmounts",
          "type": "uint256[]",
          "internalType": "uint256[]"
        }
      ],
      "stateMutability": "view"
    },
    {
      "type": "function",
      "name": "getManyStakingTotals",
      "inputs": [
        {
          "name": "consensusAddrs",
          "type": "address[]",
          "internalType": "TConsensus[]"
        }
      ],
      "outputs": [
        {
          "name": "stakingAmounts_",
          "type": "uint256[]",
          "internalType": "uint256[]"
        }
      ],
      "stateMutability": "view"
    },
    {
      "type": "function",
      "name": "getManyStakingTotalsById",
      "inputs": [
        {
          "name": "poolIds",
          "type": "address[]",
          "internalType": "address[]"
        }
      ],
      "outputs": [
        {
          "name": "stakingAmounts_",
          "type": "uint256[]",
          "internalType": "uint256[]"
        }
      ],
      "stateMutability": "view"
    },
    {
      "type": "function",
      "name": "getPoolAddressOf",
      "inputs": [
        {
          "name": "admin",
          "type": "address",
          "internalType": "address"
        }
      ],
      "outputs": [
        {
          "name": "",
          "type": "address",
          "internalType": "address"
        }
      ],
      "stateMutability": "view"
    },
    {
      "type": "function",
      "name": "getPoolDetail",
      "inputs": [
        {
          "name": "consensusAddr",
          "type": "address",
          "internalType": "TConsensus"
        }
      ],
      "outputs": [
        {
          "name": "admin",
          "type": "address",
          "internalType": "address"
        },
        {
          "name": "stakingAmount",
          "type": "uint256",
          "internalType": "uint256"
        },
        {
          "name": "stakingTotal",
          "type": "uint256",
          "internalType": "uint256"
        }
      ],
      "stateMutability": "view"
    },
    {
      "type": "function",
      "name": "getPoolDetailById",
      "inputs": [
        {
          "name": "poolId",
          "type": "address",
          "internalType": "address"
        }
      ],
      "outputs": [
        {
          "name": "admin",
          "type": "address",
          "internalType": "address"
        },
        {
          "name": "stakingAmount",
          "type": "uint256",
          "internalType": "uint256"
        },
        {
          "name": "stakingTotal",
          "type": "uint256",
          "internalType": "uint256"
        }
      ],
      "stateMutability": "view"
    },
    {
      "type": "function",
      "name": "getReward",
      "inputs": [
        {
          "name": "consensusAddr",
          "type": "address",
          "internalType": "TConsensus"
        },
        {
          "name": "user",
          "type": "address",
          "internalType": "address"
        }
      ],
      "outputs": [
        {
          "name": "",
          "type": "uint256",
          "internalType": "uint256"
        }
      ],
      "stateMutability": "view"
    },
    {
      "type": "function",
      "name": "getRewardById",
      "inputs": [
        {
          "name": "poolId",
          "type": "address",
          "internalType": "address"
        },
        {
          "name": "user",
          "type": "address",
          "internalType": "address"
        }
      ],
      "outputs": [
        {
          "name": "",
          "type": "uint256",
          "internalType": "uint256"
        }
      ],
      "stateMutability": "view"
    },
    {
      "type": "function",
      "name": "getRewards",
      "inputs": [
        {
          "name": "user",
          "type": "address",
          "internalType": "address"
        },
        {
          "name": "consensusAddrs",
          "type": "address[]",
          "internalType": "TConsensus[]"
        }
      ],
      "outputs": [
        {
          "name": "rewards_",
          "type": "uint256[]",
          "internalType": "uint256[]"
        }
      ],
      "stateMutability": "view"
    },
    {
      "type": "function",
      "name": "getRewardsById",
      "inputs": [
        {
          "name": "user",
          "type": "address",
          "internalType": "address"
        },
        {
          "name": "poolIds",
          "type": "address[]",
          "internalType": "address[]"
        }
      ],
      "outputs": [
        {
          "name": "rewards_",
          "type": "uint256[]",
          "internalType": "uint256[]"
        }
      ],
      "stateMutability": "view"
    },
    {
      "type": "function",
      "name": "getRoleAdmin",
      "inputs": [
        {
          "name": "role",
          "type": "bytes32",
          "internalType": "bytes32"
        }
      ],
      "outputs": [
        {
          "name": "",
          "type": "bytes32",
          "internalType": "bytes32"
        }
      ],
      "stateMutability": "view"
    },
    {
      "type": "function",
      "name": "getRoleMember",
      "inputs": [
        {
          "name": "role",
          "type": "bytes32",
          "internalType": "bytes32"
        },
        {
          "name": "index",
          "type": "uint256",
          "internalType": "uint256"
        }
      ],
      "outputs": [
        {
          "name": "",
          "type": "address",
          "internalType": "address"
        }
      ],
      "stateMutability": "view"
    },
    {
      "type": "function",
      "name": "getRoleMemberCount",
      "inputs": [
        {
          "name": "role",
          "type": "bytes32",
          "internalType": "bytes32"
        }
      ],
      "outputs": [
        {
          "name": "",
          "type": "uint256",
          "internalType": "uint256"
        }
      ],
      "stateMutability": "view"
    },
    {
      "type": "function",
      "name": "getStakingAmount",
      "inputs": [
        {
          "name": "consensusAddr",
          "type": "address",
          "internalType": "TConsensus"
        },
        {
          "name": "user",
          "type": "address",
          "internalType": "address"
        }
      ],
      "outputs": [
        {
          "name": "",
          "type": "uint256",
          "internalType": "uint256"
        }
      ],
      "stateMutability": "view"
    },
    {
      "type": "function",
      "name": "getStakingTotal",
      "inputs": [
        {
          "name": "consensusAddr",
          "type": "address",
          "internalType": "TConsensus"
        }
      ],
      "outputs": [
        {
          "name": "",
          "type": "uint256",
          "internalType": "uint256"
        }
      ],
      "stateMutability": "view"
    },
    {
      "type": "function",
      "name": "grantRole",
      "inputs": [
        {
          "name": "role",
          "type": "bytes32",
          "internalType": "bytes32"
        },
        {
          "name": "account",
          "type": "address",
          "internalType": "address"
        }
      ],
      "outputs": [],
      "stateMutability": "nonpayable"
    },
    {
      "type": "function",
      "name": "hasRole",
      "inputs": [
        {
          "name": "role",
          "type": "bytes32",
          "internalType": "bytes32"
        },
        {
          "name": "account",
          "type": "address",
          "internalType": "address"
        }
      ],
      "outputs": [
        {
          "name": "",
          "type": "bool",
          "internalType": "bool"
        }
      ],
      "stateMutability": "view"
    },
    {
      "type": "function",
      "name": "initialize",
      "inputs": [
        {
          "name": "__validatorContract",
          "type": "address",
          "internalType": "address"
        },
        {
          "name": "__minValidatorStakingAmount",
          "type": "uint256",
          "internalType": "uint256"
        },
        {
          "name": "__maxCommissionRate",
          "type": "uint256",
          "internalType": "uint256"
        },
        {
          "name": "__cooldownSecsToUndelegate",
          "type": "uint256",
          "internalType": "uint256"
        },
        {
          "name": "__waitingSecsToRevoke",
          "type": "uint256",
          "internalType": "uint256"
        }
      ],
      "outputs": [],
      "stateMutability": "nonpayable"
    },
    {
      "type": "function",
      "name": "initializeV2",
      "inputs": [],
      "outputs": [],
      "stateMutability": "nonpayable"
    },
    {
      "type": "function",
      "name": "initializeV3",
      "inputs": [
        {
          "name": "__profileContract",
          "type": "address",
          "internalType": "address"
        }
      ],
      "outputs": [],
      "stateMutability": "nonpayable"
    },
    {
      "type": "function",
      "name": "initializeV4",
      "inputs": [
        {
          "name": "admin",
          "type": "address",
          "internalType": "address"
        },
        {
          "name": "migrator",
          "type": "address",
          "internalType": "address"
        }
      ],
      "outputs": [],
      "stateMutability": "nonpayable"
    },
    {
      "type": "function",
      "name": "isAdminOfActivePool",
      "inputs": [
        {
          "name": "admin",
          "type": "address",
          "internalType": "address"
        }
      ],
      "outputs": [
        {
          "name": "",
          "type": "bool",
          "internalType": "bool"
        }
      ],
      "stateMutability": "view"
    },
    {
      "type": "function",
      "name": "migrateWasAdmin",
      "inputs": [
        {
          "name": "poolIds",
          "type": "address[]",
          "internalType": "address[]"
        },
        {
          "name": "admins",
          "type": "address[]",
          "internalType": "address[]"
        },
        {
          "name": "flags",
          "type": "bool[]",
          "internalType": "bool[]"
        }
      ],
      "outputs": [],
      "stateMutability": "nonpayable"
    },
    {
      "type": "function",
      "name": "minValidatorStakingAmount",
      "inputs": [],
      "outputs": [
        {
          "name": "",
          "type": "uint256",
          "internalType": "uint256"
        }
      ],
      "stateMutability": "view"
    },
    {
      "type": "function",
      "name": "redelegate",
      "inputs": [
        {
          "name": "consensusAddrSrc",
          "type": "address",
          "internalType": "TConsensus"
        },
        {
          "name": "consensusAddrDst",
          "type": "address",
          "internalType": "TConsensus"
        },
        {
          "name": "amount",
          "type": "uint256",
          "internalType": "uint256"
        }
      ],
      "outputs": [],
      "stateMutability": "nonpayable"
    },
    {
      "type": "function",
      "name": "renounceRole",
      "inputs": [
        {
          "name": "role",
          "type": "bytes32",
          "internalType": "bytes32"
        },
        {
          "name": "account",
          "type": "address",
          "internalType": "address"
        }
      ],
      "outputs": [],
      "stateMutability": "nonpayable"
    },
    {
      "type": "function",
      "name": "requestEmergencyExit",
      "inputs": [
        {
          "name": "consensusAddr",
          "type": "address",
          "internalType": "TConsensus"
        }
      ],
      "outputs": [],
      "stateMutability": "nonpayable"
    },
    {
      "type": "function",
      "name": "requestRenounce",
      "inputs": [
        {
          "name": "consensusAddr",
          "type": "address",
          "internalType": "TConsensus"
        }
      ],
      "outputs": [],
      "stateMutability": "nonpayable"
    },
    {
      "type": "function",
      "name": "requestUpdateCommissionRate",
      "inputs": [
        {
          "name": "consensusAddr",
          "type": "address",
          "internalType": "TConsensus"
        },
        {
          "name": "effectiveDaysOnwards",
          "type": "uint256",
          "internalType": "uint256"
        },
        {
          "name": "commissionRate",
          "type": "uint256",
          "internalType": "uint256"
        }
      ],
      "outputs": [],
      "stateMutability": "nonpayable"
    },
    {
      "type": "function",
      "name": "revokeRole",
      "inputs": [
        {
          "name": "role",
          "type": "bytes32",
          "internalType": "bytes32"
        },
        {
          "name": "account",
          "type": "address",
          "internalType": "address"
        }
      ],
      "outputs": [],
      "stateMutability": "nonpayable"
    },
    {
      "type": "function",
      "name": "setCommissionRateRange",
      "inputs": [
        {
          "name": "minRate",
          "type": "uint256",
          "internalType": "uint256"
        },
        {
          "name": "maxRate",
          "type": "uint256",
          "internalType": "uint256"
        }
      ],
      "outputs": [],
      "stateMutability": "nonpayable"
    },
    {
      "type": "function",
      "name": "setContract",
      "inputs": [
        {
          "name": "contractType",
          "type": "uint8",
          "internalType": "enum ContractType"
        },
        {
          "name": "addr",
          "type": "address",
          "internalType": "address"
        }
      ],
      "outputs": [],
      "stateMutability": "nonpayable"
    },
    {
      "type": "function",
      "name": "setCooldownSecsToUndelegate",
      "inputs": [
        {
          "name": "cooldownSecs",
          "type": "uint256",
          "internalType": "uint256"
        }
      ],
      "outputs": [],
      "stateMutability": "nonpayable"
    },
    {
      "type": "function",
      "name": "setMinValidatorStakingAmount",
      "inputs": [
        {
          "name": "threshold",
          "type": "uint256",
          "internalType": "uint256"
        }
      ],
      "outputs": [],
      "stateMutability": "nonpayable"
    },
    {
      "type": "function",
      "name": "setWaitingSecsToRevoke",
      "inputs": [
        {
          "name": "secs",
          "type": "uint256",
          "internalType": "uint256"
        }
      ],
      "outputs": [],
      "stateMutability": "nonpayable"
    },
    {
      "type": "function",
      "name": "stake",
      "inputs": [
        {
          "name": "consensusAddr",
          "type": "address",
          "internalType": "TConsensus"
        }
      ],
      "outputs": [],
      "stateMutability": "payable"
    },
    {
      "type": "function",
      "name": "supportsInterface",
      "inputs": [
        {
          "name": "interfaceId",
          "type": "bytes4",
          "internalType": "bytes4"
        }
      ],
      "outputs": [
        {
          "name": "",
          "type": "bool",
          "internalType": "bool"
        }
      ],
      "stateMutability": "view"
    },
    {
      "type": "function",
      "name": "undelegate",
      "inputs": [
        {
          "name": "consensusAddr",
          "type": "address",
          "internalType": "TConsensus"
        },
        {
          "name": "amount",
          "type": "uint256",
          "internalType": "uint256"
        }
      ],
      "outputs": [],
      "stateMutability": "nonpayable"
    },
    {
      "type": "function",
      "name": "unstake",
      "inputs": [
        {
          "name": "consensusAddr",
          "type": "address",
          "internalType": "TConsensus"
        },
        {
          "name": "amount",
          "type": "uint256",
          "internalType": "uint256"
        }
      ],
      "outputs": [],
      "stateMutability": "nonpayable"
    },
    {
      "type": "function",
      "name": "waitingSecsToRevoke",
      "inputs": [],
      "outputs": [
        {
          "name": "",
          "type": "uint256",
          "internalType": "uint256"
        }
      ],
      "stateMutability": "view"
    },
    {
      "type": "event",
      "name": "CommissionRateRangeUpdated",
      "inputs": [
        {
          "name": "minRate",
          "type": "uint256",
          "indexed": false,
          "internalType": "uint256"
        },
        {
          "name": "maxRate",
          "type": "uint256",
          "indexed": false,
          "internalType": "uint256"
        }
      ],
      "anonymous": false
    },
    {
      "type": "event",
      "name": "ContractUpdated",
      "inputs": [
        {
          "name": "contractType",
          "type": "uint8",
          "indexed": true,
          "internalType": "enum ContractType"
        },
        {
          "name": "addr",
          "type": "address",
          "indexed": true,
          "internalType": "address"
        }
      ],
      "anonymous": false
    },
    {
      "type": "event",
      "name": "CooldownSecsToUndelegateUpdated",
      "inputs": [
        {
          "name": "minSecs",
          "type": "uint256",
          "indexed": false,
          "internalType": "uint256"
        }
      ],
      "anonymous": false
    },
    {
      "type": "event",
      "name": "Delegated",
      "inputs": [
        {
          "name": "delegator",
          "type": "address",
          "indexed": true,
          "internalType": "address"
        },
        {
          "name": "poolId",
          "type": "address",
          "indexed": true,
          "internalType": "address"
        },
        {
          "name": "amount",
          "type": "uint256",
          "indexed": false,
          "internalType": "uint256"
        }
      ],
      "anonymous": false
    },
    {
      "type": "event",
      "name": "Initialized",
      "inputs": [
        {
          "name": "version",
          "type": "uint8",
          "indexed": false,
          "internalType": "uint8"
        }
      ],
      "anonymous": false
    },
    {
      "type": "event",
      "name": "MigrateWasAdminDisabled",
      "inputs": [],
      "anonymous": false
    },
    {
      "type": "event",
      "name": "MigrateWasAdminFinished",
      "inputs": [],
      "anonymous": false
    },
    {
      "type": "event",
      "name": "MinValidatorStakingAmountUpdated",
      "inputs": [
        {
          "name": "threshold",
          "type": "uint256",
          "indexed": false,
          "internalType": "uint256"
        }
      ],
      "anonymous": false
    },
    {
      "type": "event",
      "name": "PoolApproved",
      "inputs": [
        {
          "name": "poolId",
          "type": "address",
          "indexed": true,
          "internalType": "address"
        },
        {
          "name": "admin",
          "type": "address",
          "indexed": true,
          "internalType": "address"
        }
      ],
      "anonymous": false
    },
    {
      "type": "event",
      "name": "PoolSharesUpdated",
      "inputs": [
        {
          "name": "period",
          "type": "uint256",
          "indexed": true,
          "internalType": "uint256"
        },
        {
          "name": "poolId",
          "type": "address",
          "indexed": true,
          "internalType": "address"
        },
        {
          "name": "shares",
          "type": "uint256",
          "indexed": false,
          "internalType": "uint256"
        }
      ],
      "anonymous": false
    },
    {
      "type": "event",
      "name": "PoolsDeprecated",
      "inputs": [
        {
          "name": "poolIds",
          "type": "address[]",
          "indexed": false,
          "internalType": "address[]"
        }
      ],
      "anonymous": false
    },
    {
      "type": "event",
      "name": "PoolsUpdateConflicted",
      "inputs": [
        {
          "name": "period",
          "type": "uint256",
          "indexed": true,
          "internalType": "uint256"
        },
        {
          "name": "poolIds",
          "type": "address[]",
          "indexed": false,
          "internalType": "address[]"
        }
      ],
      "anonymous": false
    },
    {
      "type": "event",
      "name": "PoolsUpdateFailed",
      "inputs": [
        {
          "name": "period",
          "type": "uint256",
          "indexed": true,
          "internalType": "uint256"
        },
        {
          "name": "poolIds",
          "type": "address[]",
          "indexed": false,
          "internalType": "address[]"
        },
        {
          "name": "rewards",
          "type": "uint256[]",
          "indexed": false,
          "internalType": "uint256[]"
        }
      ],
      "anonymous": false
    },
    {
      "type": "event",
      "name": "PoolsUpdated",
      "inputs": [
        {
          "name": "period",
          "type": "uint256",
          "indexed": true,
          "internalType": "uint256"
        },
        {
          "name": "poolIds",
          "type": "address[]",
          "indexed": false,
          "internalType": "address[]"
        },
        {
          "name": "aRps",
          "type": "uint256[]",
          "indexed": false,
          "internalType": "uint256[]"
        },
        {
          "name": "shares",
          "type": "uint256[]",
          "indexed": false,
          "internalType": "uint256[]"
        }
      ],
      "anonymous": false
    },
    {
      "type": "event",
      "name": "RewardClaimed",
      "inputs": [
        {
          "name": "poolId",
          "type": "address",
          "indexed": true,
          "internalType": "address"
        },
        {
          "name": "user",
          "type": "address",
          "indexed": true,
          "internalType": "address"
        },
        {
          "name": "amount",
          "type": "uint256",
          "indexed": false,
          "internalType": "uint256"
        }
      ],
      "anonymous": false
    },
    {
      "type": "event",
      "name": "RoleAdminChanged",
      "inputs": [
        {
          "name": "role",
          "type": "bytes32",
          "indexed": true,
          "internalType": "bytes32"
        },
        {
          "name": "previousAdminRole",
          "type": "bytes32",
          "indexed": true,
          "internalType": "bytes32"
        },
        {
          "name": "newAdminRole",
          "type": "bytes32",
          "indexed": true,
          "internalType": "bytes32"
        }
      ],
      "anonymous": false
    },
    {
      "type": "event",
      "name": "RoleGranted",
      "inputs": [
        {
          "name": "role",
          "type": "bytes32",
          "indexed": true,
          "internalType": "bytes32"
        },
        {
          "name": "account",
          "type": "address",
          "indexed": true,
          "internalType": "address"
        },
        {
          "name": "sender",
          "type": "address",
          "indexed": true,
          "internalType": "address"
        }
      ],
      "anonymous": false
    },
    {
      "type": "event",
      "name": "RoleRevoked",
      "inputs": [
        {
          "name": "role",
          "type": "bytes32",
          "indexed": true,
          "internalType": "bytes32"
        },
        {
          "name": "account",
          "type": "address",
          "indexed": true,
          "internalType": "address"
        },
        {
          "name": "sender",
          "type": "address",
          "indexed": true,
          "internalType": "address"
        }
      ],
      "anonymous": false
    },
    {
      "type": "event",
      "name": "Staked",
      "inputs": [
        {
          "name": "poolId",
          "type": "address",
          "indexed": true,
          "internalType": "address"
        },
        {
          "name": "amount",
          "type": "uint256",
          "indexed": false,
          "internalType": "uint256"
        }
      ],
      "anonymous": false
    },
    {
      "type": "event",
      "name": "StakeholderChanged",
      "inputs": [
        {
          "name": "poolId",
          "type": "address",
          "indexed": true,
          "internalType": "address"
        },
        {
          "name": "oldAdmin",
          "type": "address",
          "indexed": false,
          "internalType": "address"
        },
        {
          "name": "newAdmin",
          "type": "address",
          "indexed": false,
          "internalType": "address"
        },
        {
          "name": "amount",
          "type": "uint256",
          "indexed": false,
          "internalType": "uint256"
        }
      ],
      "anonymous": false
    },
    {
      "type": "event",
      "name": "StakingAmountDeductFailed",
      "inputs": [
        {
          "name": "poolId",
          "type": "address",
          "indexed": true,
          "internalType": "address"
        },
        {
          "name": "recipient",
          "type": "address",
          "indexed": true,
          "internalType": "address"
        },
        {
          "name": "amount",
          "type": "uint256",
          "indexed": false,
          "internalType": "uint256"
        },
        {
          "name": "contractBalance",
          "type": "uint256",
          "indexed": false,
          "internalType": "uint256"
        }
      ],
      "anonymous": false
    },
    {
      "type": "event",
      "name": "StakingAmountTransferFailed",
      "inputs": [
        {
          "name": "poolId",
          "type": "address",
          "indexed": true,
          "internalType": "address"
        },
        {
          "name": "admin",
          "type": "address",
          "indexed": true,
          "internalType": "address"
        },
        {
          "name": "amount",
          "type": "uint256",
          "indexed": false,
          "internalType": "uint256"
        },
        {
          "name": "contractBalance",
          "type": "uint256",
          "indexed": false,
          "internalType": "uint256"
        }
      ],
      "anonymous": false
    },
    {
      "type": "event",
      "name": "Undelegated",
      "inputs": [
        {
          "name": "delegator",
          "type": "address",
          "indexed": true,
          "internalType": "address"
        },
        {
          "name": "poolId",
          "type": "address",
          "indexed": true,
          "internalType": "address"
        },
        {
          "name": "amount",
          "type": "uint256",
          "indexed": false,
          "internalType": "uint256"
        }
      ],
      "anonymous": false
    },
    {
      "type": "event",
      "name": "Unstaked",
      "inputs": [
        {
          "name": "poolId",
          "type": "address",
          "indexed": true,
          "internalType": "address"
        },
        {
          "name": "amount",
          "type": "uint256",
          "indexed": false,
          "internalType": "uint256"
        }
      ],
      "anonymous": false
    },
    {
      "type": "event",
      "name": "UserRewardUpdated",
      "inputs": [
        {
          "name": "poolId",
          "type": "address",
          "indexed": true,
          "internalType": "address"
        },
        {
          "name": "user",
          "type": "address",
          "indexed": true,
          "internalType": "address"
        },
        {
          "name": "debited",
          "type": "uint256",
          "indexed": false,
          "internalType": "uint256"
        }
      ],
      "anonymous": false
    },
    {
      "type": "event",
      "name": "WaitingSecsToRevokeUpdated",
      "inputs": [
        {
          "name": "secs",
          "type": "uint256",
          "indexed": false,
          "internalType": "uint256"
        }
      ],
      "anonymous": false
    },
    {
      "type": "error",
      "name": "ErrAdminOfAnyActivePoolForbidden",
      "inputs": [
        {
          "name": "admin",
          "type": "address",
          "internalType": "address"
        }
      ]
    },
    {
      "type": "error",
      "name": "ErrCannotTransferRON",
      "inputs": []
    },
    {
      "type": "error",
      "name": "ErrContractTypeNotFound",
      "inputs": [
        {
          "name": "contractType",
          "type": "uint8",
          "internalType": "enum ContractType"
        }
      ]
    },
    {
      "type": "error",
      "name": "ErrDuplicated",
      "inputs": [
        {
          "name": "msgSig",
          "type": "bytes4",
          "internalType": "bytes4"
        }
      ]
    },
    {
      "type": "error",
      "name": "ErrInactivePool",
      "inputs": [
        {
          "name": "consensusAddr",
          "type": "address",
          "internalType": "TConsensus"
        },
        {
          "name": "poolId",
          "type": "address",
          "internalType": "address"
        }
      ]
    },
    {
      "type": "error",
      "name": "ErrInsufficientBalance",
      "inputs": [
        {
          "name": "msgSig",
          "type": "bytes4",
          "internalType": "bytes4"
        },
        {
          "name": "currentBalance",
          "type": "uint256",
          "internalType": "uint256"
        },
        {
          "name": "sendAmount",
          "type": "uint256",
          "internalType": "uint256"
        }
      ]
    },
    {
      "type": "error",
      "name": "ErrInsufficientDelegatingAmount",
      "inputs": []
    },
    {
      "type": "error",
      "name": "ErrInsufficientStakingAmount",
      "inputs": []
    },
    {
      "type": "error",
      "name": "ErrInvalidArguments",
      "inputs": [
        {
          "name": "msgSig",
          "type": "bytes4",
          "internalType": "bytes4"
        }
      ]
    },
    {
      "type": "error",
      "name": "ErrInvalidArrays",
      "inputs": []
    },
    {
      "type": "error",
      "name": "ErrInvalidCommissionRate",
      "inputs": []
    },
    {
      "type": "error",
      "name": "ErrInvalidPoolShare",
      "inputs": []
    },
    {
      "type": "error",
      "name": "ErrMigrateWasAdminAlreadyDone",
      "inputs": []
    },
    {
      "type": "error",
      "name": "ErrOnlyPoolAdminAllowed",
      "inputs": []
    },
    {
      "type": "error",
      "name": "ErrPoolAdminForbidden",
      "inputs": []
    },
    {
      "type": "error",
      "name": "ErrRecipientRevert",
      "inputs": [
        {
          "name": "msgSig",
          "type": "bytes4",
          "internalType": "bytes4"
        }
      ]
    },
    {
      "type": "error",
      "name": "ErrStakingAmountLeft",
      "inputs": []
    },
    {
      "type": "error",
      "name": "ErrThreeInteractionAddrsNotEqual",
      "inputs": []
    },
    {
      "type": "error",
      "name": "ErrUnauthorized",
      "inputs": [
        {
          "name": "msgSig",
          "type": "bytes4",
          "internalType": "bytes4"
        },
        {
          "name": "expectedRole",
          "type": "uint8",
          "internalType": "enum RoleAccess"
        }
      ]
    },
    {
      "type": "error",
      "name": "ErrUndelegateTooEarly",
      "inputs": []
    },
    {
      "type": "error",
      "name": "ErrUndelegateZeroAmount",
      "inputs": []
    },
    {
      "type": "error",
      "name": "ErrUnexpectedInternalCall",
      "inputs": [
        {
          "name": "msgSig",
          "type": "bytes4",
          "internalType": "bytes4"
        },
        {
          "name": "expectedContractType",
          "type": "uint8",
          "internalType": "enum ContractType"
        },
        {
          "name": "actual",
          "type": "address",
          "internalType": "address"
        }
      ]
    },
    {
      "type": "error",
      "name": "ErrUnstakeTooEarly",
      "inputs": []
    },
    {
      "type": "error",
      "name": "ErrUnstakeZeroAmount",
      "inputs": []
    },
    {
      "type": "error",
      "name": "ErrZeroCodeContract",
      "inputs": [
        {
          "name": "addr",
          "type": "address",
          "internalType": "address"
        }
      ]
    },
    {
      "type": "error",
      "name": "ErrZeroValue",
      "inputs": []
    }
  ],
  "absolutePath": "Staking.sol",
  "address": "0xb7161757C02a6f71361c38f7022876105B266Fdc",
  "blockNumber": 35601639,
  "bytecode": "0x6080604052348015600f57600080fd5b506001600055601b601f565b60dd565b60d154610100900460ff1615608a5760405162461bcd60e51b815260206004820152602760248201527f496e697469616c697a61626c653a20636f6e747261637420697320696e697469604482015266616c697a696e6760c81b606482015260840160405180910390fd5b60d15460ff908116101560db5760d1805460ff191660ff9081179091556040519081527f7f26b83ff96e1f2b6a682f133852f6798a09c465da95921460cefb38474024989060200160405180910390a15b565b6157b2806100ec6000396000f3fe60806040526004361061039b5760003560e01c80636bd8f804116101dc578063a34ba1c311610102578063d01b8eed116100a0578063e22d1c9d1161006f578063e22d1c9d14610b22578063ef9aa66514610b42578063f92ad21914610b62578063f9f031df14610b82576103ad565b8063d01b8eed14610a7d578063d547741f14610ac2578063de981f1b14610ae2578063e15a7c9c14610b02576103ad565b8063af245429116100dc578063af245429146109ef578063c2a672e014610a04578063c508700314610a24578063ca15c87314610a5d576103ad565b8063a34ba1c3146109a7578063aa15a6fd146109bc578063acd79c46146109dc576103ad565b8063909791dd1161017a5780639488e4e9116101495780639488e4e91461093257806394a8c31c14610952578063969ffc1414610972578063a217fddf14610992576103ad565b8063909791dd1461089757806391d14854146108ac57806391f8723f146108f2578063924f081e14610912576103ad565b8063865e6fd3116101b6578063865e6fd3146107ff578063888b9ae91461081f578063895ab7421461083f5780639010d07c1461085f576103ad565b80636bd8f8041461078b5780636fae2e15146107ab57806376664b65146107df576103ad565b80633d8e846e116102c1578063574734471161025f578063611fdb8f1161022e578063611fdb8f146107145780636558954f14610734578063679a6e431461074b5780636b0916951461076b576103ad565b806357473447146106ac5780635a2ac073146106cc5780635c19a95c146106ec5780635cd8a76b146106ff576103ad565b8063435628ba1161029b578063435628ba14610624578063446850a1146106445780634530d202146106645780634d99dd161461068c576103ad565b80633d8e846e146105a957806342e0c408146105c957806342ef3c3414610604576103ad565b80631658c86e116103395780632f2ff15d116103085780632f2ff15d146105295780633101cfcb1461054957806336568abe146105695780633a3ec5b014610589576103ad565b80631658c86e146104a6578063248a9ca3146104c657806326476204146104f65780632715805e14610509576103ad565b80630682e8fa116103755780630682e8fa14610431578063095f647514610446578063097e4a9d146104735780630a9313bc14610493576103ad565b806301e4ff22146103b857806301ffc9a7146103d8578063038278841461040d576103ad565b366103ad5760086103ab81610ba2565b005b60086103ab81610ba2565b3480156103c457600080fd5b506103ab6103d3366004614a02565b610c13565b3480156103e457600080fd5b506103f86103f3366004614a4d565b610cb4565b60405190151581526020015b60405180910390f35b34801561041957600080fd5b5061042361183881565b604051908152602001610404565b34801561043d57600080fd5b50603854610423565b34801561045257600080fd5b50610466610461366004614ac3565b610cf8565b6040516104049190614b6b565b34801561047f57600080fd5b5061042361048e366004614b7e565b610d83565b6103ab6104a1366004614c0c565b610e87565b3480156104b257600080fd5b506103ab6104c1366004614cbd565b6110a6565b3480156104d257600080fd5b506104236104e1366004614cda565b600090815260d2602052604090206001015490565b6103ab610504366004614cbd565b611170565b34801561051557600080fd5b50610423610524366004614cf3565b6111b8565b34801561053557600080fd5b506103ab610544366004614d1f565b611249565b34801561055557600080fd5b506103ab610564366004614cbd565b61126e565b34801561057557600080fd5b506103ab610584366004614d1f565b611358565b34801561059557600080fd5b506103ab6105a4366004614d4f565b6113e4565b3480156105b557600080fd5b506104666105c4366004614d7d565b6114f8565b3480156105d557600080fd5b506103f86105e4366004614cbd565b6001600160a01b039081166000908152603a602052604090205416151590565b34801561061057600080fd5b5061046661061f366004614dd2565b61154f565b34801561063057600080fd5b5061046661063f366004614ac3565b61159a565b34801561065057600080fd5b5061046661065f366004614dd2565b611612565b34801561067057600080fd5b50606e54606d5460408051928352602083019190915201610404565b34801561069857600080fd5b506103ab6106a7366004614cf3565b611650565b3480156106b857600080fd5b506103ab6106c7366004614e14565b611715565b3480156106d857600080fd5b506104666106e7366004614dd2565b611727565b6103ab6106fa366004614cbd565b611765565b34801561070b57600080fd5b506103ab6117e7565b34801561072057600080fd5b5061042361072f366004614d4f565b6118ed565b34801561074057600080fd5b506104236201518081565b34801561075757600080fd5b506103ab610766366004614cda565b611930565b34801561077757600080fd5b50610423610786366004614d4f565b611941565b34801561079757600080fd5b506103ab6107a6366004614e36565b611959565b3480156107b757600080fd5b506104237f600e5f1c60beb469a3fa6dd3814a4ae211cc6259a6d033bae218a742f2af01d381565b3480156107eb57600080fd5b506104236107fa366004614d4f565b611a36565b34801561080b57600080fd5b506103ab61081a366004614e86565b611a74565b34801561082b57600080fd5b506103ab61083a366004614cda565b611a8f565b34801561084b57600080fd5b5061042361085a366004614cbd565b611aa0565b34801561086b57600080fd5b5061087f61087a366004614e14565b611ad0565b6040516001600160a01b039091168152602001610404565b3480156108a357600080fd5b50606c54610423565b3480156108b857600080fd5b506103f86108c7366004614d1f565b600091825260d2602090815260408084206001600160a01b0393909316845291905290205460ff1690565b3480156108fe57600080fd5b5061046661090d366004614dd2565b611ae8565b34801561091e57600080fd5b506103ab61092d366004614ea2565b611b33565b34801561093e57600080fd5b506103ab61094d366004614ac3565b611c34565b34801561095e57600080fd5b5061046661096d366004614f42565b611df3565b34801561097e57600080fd5b506103ab61098d366004614cda565b611f3e565b34801561099e57600080fd5b50610423600081565b3480156109b357600080fd5b506103ab611f4f565b3480156109c857600080fd5b506103ab6109d7366004614cbd565b61200b565b6103ab6109ea366004614ff6565b61206e565b3480156109fb57600080fd5b50603954610423565b348015610a1057600080fd5b506103ab610a1f366004614cf3565b6120c2565b348015610a3057600080fd5b5061087f610a3f366004614cbd565b6001600160a01b039081166000908152603a60205260409020541690565b348015610a6957600080fd5b50610423610a78366004614cda565b6121eb565b348015610a8957600080fd5b50610a9d610a98366004614cbd565b612202565b604080516001600160a01b039094168452602084019290925290820152606001610404565b348015610ace57600080fd5b506103ab610add366004614d1f565b612249565b348015610aee57600080fd5b5061087f610afd36600461506a565b61226e565b348015610b0e57600080fd5b506103ab610b1d366004615085565b612302565b348015610b2e57600080fd5b506103ab610b3d36600461511f565b6124ce565b348015610b4e57600080fd5b50610a9d610b5d366004614cbd565b612669565b348015610b6e57600080fd5b506103ab610b7d36600461516b565b6126b0565b348015610b8e57600080fd5b50610423610b9d366004614dd2565b6127ee565b610bab8161226e565b6001600160a01b0316336001600160a01b031614610c10576000356001600160e01b03191681336040517f8383e634000000000000000000000000000000000000000000000000000000008152600401610c07939291906151d9565b60405180910390fd5b50565b600f610c1e81610ba2565b6001600160a01b0380851660009081526037602090815260408083209386168352600684019091529020805460ff19166001179055610c5e8185856128a6565b60010180546001600160a01b039081166000908152603a602052604080822080546001600160a01b0319908116909155845496841696811687179094559481529390932080549590931694169390931790555050565b60006001600160e01b031982167f5a05180f000000000000000000000000000000000000000000000000000000001480610cf25750610cf282612946565b92915050565b60606000610d388686808060200260200160405190810160405280939291908181526020018383602002808284376000920191909152506129ad92505050565b9050610d7781858580806020026020016040519081016040528093929190818152602001838360200280828437600092019190915250612a2992505050565b9150505b949350505050565b6000600260005403610dd75760405162461bcd60e51b815260206004820152601f60248201527f5265656e7472616e637947756172643a207265656e7472616e742063616c6c006044820152606401610c07565b600260005581610de681612b31565b336000908152603a60205260409020546001600160a01b031615610e1f57604051632fc6bfb160e21b8152336004820152602401610c07565b6000610e5d8686808060200260200160405190810160405280939291908181526020018383602002808284376000920191909152506129ad92505050565b90506000610e6a85612bfa565b9050610e77338383612c8b565b6001600055979650505050505050565b600260005403610ed95760405162461bcd60e51b815260206004820152601f60248201527f5265656e7472616e637947756172643a207265656e7472616e742063616c6c006044820152606401610c07565b60026000908155338152603a60205260409020546001600160a01b031615610f1657604051632fc6bfb160e21b8152336004820152602401610c07565b606d54851180610f275750606e5485105b15610f4557604051631b8454a360e21b815260040160405180910390fd5b600034905060003390506000899050610fdb828c838c8b8b8080601f01602080910402602001604051908101604052809392919081815260200183838082843760009201919091525050604080516020601f8f018190048102820181019092528d815292508d91508c9081908401838280828437600081840152601f19601f820116905080830192505050505050508e8a612cbd565b6001600160a01b03808216600081815260376020818152604080842060018082018054988b166001600160a01b0319998a16811790915582548916881783558652603a845282862080549098168717909755600681018352908420805460ff1916909617909555929091529052611053818486612ed3565b826001600160a01b0316826001600160a01b03167ffc1f1e73948cbc47c5b7f90e5601b7daccd9ad7173218486ccc74bdd051d05e860405160405180910390a35050600160005550505050505050505050565b806110b081612b31565b603760006110bd84612bfa565b6001600160a01b03166001600160a01b03168152602001908152602001600020336110e88282612f79565b6110f2600861226e565b6001600160a01b031663dd716ad361110986612bfa565b6039546040516001600160e01b031960e085901b1681526001600160a01b0390921660048301526024820152604401600060405180830381600087803b15801561115257600080fd5b505af1158015611166573d6000803e3d6000fd5b5050505050505050565b611178612fc2565b8061118281612b31565b600061118d83612bfa565b6001600160a01b03811660009081526037602052604090209091506111b3903334612ed3565b505050565b600060086111c581610ba2565b6001600160a01b03841660009081526037602052604090206111e79084612ffe565b9150336111f4818461309b565b61124157604080518481524760208201526001600160a01b0380841692908816917f63701cd972aa3c7f87898aab145c972e52185beab07d6e39380a998d334cf6c8910160405180910390a35b505092915050565b600082815260d26020526040902060010154611264816130f7565b6111b38383613101565b60d154600390610100900460ff16158015611290575060d15460ff8083169116105b6112f35760405162461bcd60e51b815260206004820152602e60248201527f496e697469616c697a61626c653a20636f6e747261637420697320616c72656160448201526d191e481a5b9a5d1a585b1a5e995960921b6064820152608401610c07565b60d1805461ffff191660ff831617610100179055611312600f83613123565b60d1805461ff001916905560405160ff821681527f7f26b83ff96e1f2b6a682f133852f6798a09c465da95921460cefb3847402498906020015b60405180910390a15050565b6001600160a01b03811633146113d65760405162461bcd60e51b815260206004820152602f60248201527f416363657373436f6e74726f6c3a2063616e206f6e6c792072656e6f756e636560448201527f20726f6c657320666f722073656c6600000000000000000000000000000000006064820152608401610c07565b6113e082826131c7565b5050565b60d154600490610100900460ff16158015611406575060d15460ff8083169116105b6114695760405162461bcd60e51b815260206004820152602e60248201527f496e697469616c697a61626c653a20636f6e747261637420697320616c72656160448201526d191e481a5b9a5d1a585b1a5e995960921b6064820152608401610c07565b60d1805461ffff191660ff831617610100179055611488600084613101565b6114b27f600e5f1c60beb469a3fa6dd3814a4ae211cc6259a6d033bae218a742f2af01d383613101565b60d1805461ff001916905560405160ff821681527f7f26b83ff96e1f2b6a682f133852f6798a09c465da95921460cefb38474024989060200160405180910390a1505050565b606060006115388484808060200260200160405190810160405280939291908181526020018383602002808284376000920191909152506129ad92505050565b90506115448582611df3565b9150505b9392505050565b6060600061158f8484808060200260200160405190810160405280939291908181526020018383602002808284376000920191909152506129ad92505050565b9050610d7b816131e9565b606061160985858080602002602001604051908101604052809392919081815260200183836020028082843760009201919091525050604080516020808902828101820190935288825290935088925087918291850190849080828437600092019190915250612a2992505050565b95945050505050565b60606115488383808060200260200160405190810160405280939291908181526020018383602002808284376000920191909152506131e992505050565b6002600054036116a25760405162461bcd60e51b815260206004820152601f60248201527f5265656e7472616e637947756172643a207265656e7472616e742063616c6c006044820152606401610c07565b6002600090815533906116e49084906037906116bd83612bfa565b6001600160a01b03166001600160a01b0316815260200190815260200160002083856132aa565b6116ee8183613543565b61170b57604051635ff7115760e11b815260040160405180910390fd5b5050600160005550565b61171d6135a4565b6113e08282613618565b606061154883838080602002602001604051908101604052809392919081815260200183836020028082843760009201919091525061368592505050565b61176d612fc2565b8061177781612b31565b336000908152603a60205260409020546001600160a01b0316156117b057604051632fc6bfb160e21b8152336004820152602401610c07565b6113e0603760006117c085612bfa565b6001600160a01b03166001600160a01b031681526020019081526020016000203334613739565b60d154600290610100900460ff16158015611809575060d15460ff8083169116105b61186c5760405162461bcd60e51b815260206004820152602e60248201527f496e697469616c697a61626c653a20636f6e747261637420697320616c72656160448201526d191e481a5b9a5d1a585b1a5e995960921b6064820152608401610c07565b60d1805461ffff191660ff831617610100179055603654611898906008906001600160a01b0316613123565b603680546001600160a01b031916905560d1805461ff001916905560405160ff821681527f7f26b83ff96e1f2b6a682f133852f6798a09c465da95921460cefb3847402498906020015b60405180910390a150565b600061154883836118fc6137e8565b6001600160a01b038088166000908152603760209081526040808320938a16835260049093019052205461385a565b61385a565b6119386135a4565b610c1081613956565b60008061194d84612bfa565b9050610d7b81846118ed565b6002600054036119ab5760405162461bcd60e51b815260206004820152601f60248201527f5265656e7472616e637947756172643a207265656e7472616e742063616c6c006044820152606401610c07565b6002600055816119ba81612b31565b336119f385603760006119cc83612bfa565b6001600160a01b03166001600160a01b0316815260200190815260200160002083866132aa565b611a2a60376000611a0387612bfa565b6001600160a01b03166001600160a01b031681526020019081526020016000208285613739565b50506001600055505050565b600080611a4284612bfa565b6001600160a01b0380821660009081526037602090815260408083209388168352600490930190522054909150610d7b565b611a7c6135a4565b611a858161398b565b6113e08282613123565b611a976135a4565b610c10816139da565b600080611aac83612bfa565b9050611548816001600160a01b031660009081526037602052604090206003015490565b600082815260d3602052604081206115489083613a0f565b60606000611b288484808060200260200160405190810160405280939291908181526020018383602002808284376000920191909152506129ad92505050565b9050610d7b81613685565b82611b3d81612b31565b60376000611b4a86612bfa565b6001600160a01b03166001600160a01b0316815260200190815260200160002033611b758282612f79565b606d54841180611b865750606e5484105b15611ba457604051631b8454a360e21b815260040160405180910390fd5b611bae600861226e565b6001600160a01b031663e5125a1d611bc588612bfa565b6040516001600160e01b031960e084901b1681526001600160a01b0390911660048201526024810188905260448101879052606401600060405180830381600087803b158015611c1457600080fd5b505af1158015611c28573d6000803e3d6000fd5b50505050505050505050565b600260005403611c865760405162461bcd60e51b815260206004820152601f60248201527f5265656e7472616e637947756172643a207265656e7472616e742063616c6c006044820152606401610c07565b6002600055821580611c985750828114155b15611cb6576040516376081a7b60e11b815260040160405180910390fd5b6000339050600080611cfa8787808060200260200160405190810160405280939291908181526020018383602002808284376000920191909152506129ad92505050565b905060005b8151811015611dbd57858582818110611d1a57611d1a61520e565b9050602002013583611d2c919061523a565b9250611db5888883818110611d4357611d4361520e565b9050602002016020810190611d589190614cbd565b60376000858581518110611d6e57611d6e61520e565b60200260200101516001600160a01b03166001600160a01b0316815260200190815260200160002086898986818110611da957611da961520e565b905060200201356132aa565b600101611cff565b50611dc88383613543565b611de557604051635ff7115760e11b815260040160405180910390fd5b505060016000555050505050565b80516060906000611e04600861226e565b6001600160a01b031663060406186040518163ffffffff1660e01b8152600401602060405180830381865afa158015611e41573d6000803e3d6000fd5b505050506040513d601f19601f82011682018060405250810190611e65919061524d565b90508167ffffffffffffffff811115611e8057611e80614ed7565b604051908082528060200260200182016040528015611ea9578160200160208202803683370190505b50925060005b82811015611f35576000858281518110611ecb57611ecb61520e565b60200260200101519050611f0f81888561192b858c6001600160a01b0391821660009081526037602090815260408083209390941682526004909201909152205490565b858381518110611f2157611f2161520e565b602090810291909101015250600101611eaf565b50505092915050565b611f466135a4565b610c1081613a1b565b7f02b7258856b9f6bdff23dae2002215e15e9b3a0101a83005baf0725f1e37df00548015611f9057604051634dc3ec4360e11b815260040160405180910390fd5b7f600e5f1c60beb469a3fa6dd3814a4ae211cc6259a6d033bae218a742f2af01d3611fba816130f7565b60017f02b7258856b9f6bdff23dae2002215e15e9b3a0101a83005baf0725f1e37df00556040517ff398fd01c9d8d2a1fc89ad67c7096a0fc1afcb491f8cb6715b7ac23b711f9f4690600090a15050565b8061201581612b31565b6037600061202284612bfa565b6001600160a01b03166001600160a01b031681526020019081526020016000203361204d8282612f79565b612057600861226e565b6001600160a01b031663cdaa4e8161110986612bfa565b600861207981610ba2565b6120ba868680806020026020016040519081016040528093929190818152602001838360200280828437600092019190915250889250879150869050613a50565b505050505050565b6002600054036121145760405162461bcd60e51b815260206004820152601f60248201527f5265656e7472616e637947756172643a207265656e7472616e742063616c6c006044820152606401610c07565b60026000558161212381612b31565b8160000361215d576040517f31d9f7d700000000000000000000000000000000000000000000000000000000815260040160405180910390fd5b33600061216985612bfa565b6001600160a01b0381166000908152603760205260408120600281015492935091612195908790615266565b9050606c548110156121d3576040517fef0a995700000000000000000000000000000000000000000000000000000000815260040160405180910390fd5b6121de828588613e77565b611dc88487611838613f7c565b600081815260d360205260408120610cf290613ff1565b60008060008061221185612bfa565b6001600160a01b0390811660009081526037602052604090206001810154600282015460039092015492169790965090945092505050565b600082815260d26020526040902060010154612264816130f7565b6111b383836131c7565b60007fdea3103d22025c269050bea94c0c84688877f12fa22b7e6d2d5d78a9a49aa1cb60008360108111156122a5576122a56151af565b60ff1681526020810191909152604001600020546001600160a01b03169050806122fd57816040517f812281be000000000000000000000000000000000000000000000000000000008152600401610c079190615279565b919050565b7f02b7258856b9f6bdff23dae2002215e15e9b3a0101a83005baf0725f1e37df0054801561234357604051634dc3ec4360e11b815260040160405180910390fd5b7f600e5f1c60beb469a3fa6dd3814a4ae211cc6259a6d033bae218a742f2af01d361236d816130f7565b868514158061237c5750868314155b156123c1576040517f053265f10000000000000000000000000000000000000000000000000000000081526001600160e01b0319600035166004820152602401610c07565b60005b8781101561249a578484828181106123de576123de61520e565b90506020020160208101906123f39190615295565b603760008b8b858181106124095761240961520e565b905060200201602081019061241e9190614cbd565b6001600160a01b03166001600160a01b0316815260200190815260200160002060060160008989858181106124555761245561520e565b905060200201602081019061246a9190614cbd565b6001600160a01b031681526020810191909152604001600020805460ff19169115159190911790556001016123c4565b506040517f52ba1d8b6046f97286cc5eef5dc8215b0f411bdb3785cc8870260793dbf9d2c390600090a15050505050505050565b60086124d981610ba2565b82156126635760005b838110156126285760008585838181106124fe576124fe61520e565b90506020020160208101906125139190614cbd565b6001600160a01b03808216600090815260376020908152604080832060018101549094168352603a909152902080546001600160a01b031916905560028101549192509080156125d7576125678282612ffe565b506001820154612583906001600160a01b031682611838613f7c565b6125d75760018201548254604080518481524760208201526001600160a01b0393841693909216917f7dc5115a5aba081f5a174f56a3d02eea582824783322a4ac03f7bd388f444194910160405180910390a35b60018201546000906125f49085906001600160a01b031689613ffb565b90508015612619576001830154612617906001600160a01b031682611838613f7c565b505b846001019450505050506124e2565b507f4f257d3ba23679d338f1d94296086bba5724af341b7fa31aa0ff297bfcdc62d8848460405161265a9291906152b2565b60405180910390a15b50505050565b60008060006126a3846001600160a01b03808216600090815260376020526040902060018101546002820154600390920154921693909250565b9250925092509193909250565b60d154610100900460ff16158080156126d0575060d154600160ff909116105b806126ea5750303b1580156126ea575060d15460ff166001145b61274d5760405162461bcd60e51b815260206004820152602e60248201527f496e697469616c697a61626c653a20636f6e747261637420697320616c72656160448201526d191e481a5b9a5d1a585b1a5e995960921b6064820152608401610c07565b60d1805460ff1916600117905580156127705760d1805461ff0019166101001790555b61277b600887613123565b61278485613956565b61278f600085613618565b612798836139da565b6127a182613a1b565b80156120ba5760d1805461ff0019169055604051600181527f7f26b83ff96e1f2b6a682f133852f6798a09c465da95921460cefb38474024989060200160405180910390a1505050505050565b60006002600054036128425760405162461bcd60e51b815260206004820152601f60248201527f5265656e7472616e637947756172643a207265656e7472616e742063616c6c006044820152606401610c07565b600260008190555061288f3361288a8585808060200260200160405190810160405280939291908181526020018383602002808284376000920191909152506129ad92505050565b61412a565b905061289b338261417b565b600160005592915050565b82826128b28282612f79565b6000856002015490506128d786866000848a600301546128d29190615266565b6141c9565b6128ed868583848a600301546128d2919061523a565b8554604080516001600160a01b03888116825287811660208301529181018490529116907f41440fd419d77ac181f12df5a1bc7a60bb55e828544cbc93b506a64b93ac35e69060600160405180910390a2505050505050565b60006001600160e01b031982167f7965db0b000000000000000000000000000000000000000000000000000000001480610cf257507f01ffc9a7000000000000000000000000000000000000000000000000000000006001600160e01b0319831614610cf2565b60606129b9600f61226e565b6001600160a01b031663f9226b1a836040518263ffffffff1660e01b81526004016129e49190615300565b600060405180830381865afa158015612a01573d6000803e3d6000fd5b505050506040513d6000823e601f3d908101601f19168201604052610cf2919081019061534d565b60608151835114612a4d576040516376081a7b60e11b815260040160405180910390fd5b825167ffffffffffffffff811115612a6757612a67614ed7565b604051908082528060200260200182016040528015612a90578160200160208202803683370190505b50905060005b8151811015612b2a57612b05848281518110612ab457612ab461520e565b6020026020010151848381518110612ace57612ace61520e565b60200260200101516001600160a01b0391821660009081526037602090815260408083209390941682526004909201909152205490565b828281518110612b1757612b1761520e565b6020908102919091010152600101612a96565b5092915050565b612b3b600861226e565b604051635061f96960e11b81526001600160a01b038381166004830152919091169063a0c3f2d290602401602060405180830381865afa158015612b83573d6000803e3d6000fd5b505050506040513d601f19601f82011682018060405250810190612ba791906153e7565b610c105780612bb582612bfa565b6040517f2533fce20000000000000000000000000000000000000000000000000000000081526001600160a01b03928316600482015291166024820152604401610c07565b6000612c06600f61226e565b6040517f50a9fc290000000000000000000000000000000000000000000000000000000081526001600160a01b03848116600483015291909116906350a9fc2990602401602060405180830381865afa158015612c67573d6000803e3d6000fd5b505050506040513d601f19601f82011682018060405250810190610cf29190615404565b6000612c97848461412a565b6001600160a01b0383166000908152603760205260409020909150611548908583613739565b606c54811015612ce057604051630a8d7fa760e21b815260040160405180910390fd5b866001600160a01b0316886001600160a01b0316141580612d135750846001600160a01b0316876001600160a01b031614155b15612d4a576040517fdc1d04ff00000000000000000000000000000000000000000000000000000000815260040160405180910390fd5b856001600160a01b0316886001600160a01b031603612da3576040517f1ad2fb620000000000000000000000000000000000000000000000000000000081526001600160e01b0319600035166004820152602401610c07565b612dad600861226e565b6040517ff883afaf0000000000000000000000000000000000000000000000000000000081526001600160a01b0389811660048301528881166024830152878116604483015260648201859052919091169063f883afaf90608401600060405180830381600087803b158015612e2257600080fd5b505af1158015612e36573d6000803e3d6000fd5b505050506000612e46600f61226e565b6040517fb5017aef0000000000000000000000000000000000000000000000000000000081529091506001600160a01b0382169063b5017aef90612e96908b908b908b908b908b90600401615471565b600060405180830381600087803b158015612eb057600080fd5b505af1158015612ec4573d6000803e3d6000fd5b50505050505050505050505050565b8282612edf8282612f79565b82856002016000828254612ef3919061523a565b92505081905550612f14858587600201548689600301546128d2919061523a565b6001600160a01b03808516600090815260058701602052604090819020429055865490519116907f9e71bc8eea02a63969f509818f2dafb9254532904319f9dbda79b67bd34a5f3d90612f6a9086815260200190565b60405180910390a25050505050565b60018201546001600160a01b038281169116146113e0576040517ff78cb7ae00000000000000000000000000000000000000000000000000000000815260040160405180910390fd5b34600003612ffc576040517fdbf97bca00000000000000000000000000000000000000000000000000000000815260040160405180910390fd5b565b600061300e836002015483614204565b9050808360020160008282546130249190615266565b90915550506001830154600284015460038501546130549286926001600160a01b03909116916128d2908661421a565b82546040518281526001600160a01b03909116907f0f5bb82176feb1b5e747e28471aa92156a04d9f3ab9f45f28e2d704232b93f759060200160405180910390a292915050565b6000826001600160a01b03168260405160006040518083038185875af1925050503d80600081146130e8576040519150601f19603f3d011682016040523d82523d6000602084013e6130ed565b606091505b5090949350505050565b610c108133614234565b61310b82826142b4565b600082815260d3602052604090206111b39082614356565b807fdea3103d22025c269050bea94c0c84688877f12fa22b7e6d2d5d78a9a49aa1cb6000846010811115613159576131596151af565b60ff168152602081019190915260400160002080546001600160a01b0319166001600160a01b03928316179055811682601081111561319a5761319a6151af565b6040517f865d1c228a8ea13709cfe61f346f7ff67f1bbd4a18ff31ad3e7147350d317c5990600090a35050565b6131d1828261436b565b600082815260d3602052604090206111b390826143ee565b6060815167ffffffffffffffff81111561320557613205614ed7565b60405190808252806020026020018201604052801561322e578160200160208202803683370190505b50905060005b82518110156132a457603760008483815181106132535761325361520e565b60200260200101516001600160a01b03166001600160a01b03168152602001908152602001600020600201548282815181106132915761329161520e565b6020908102919091010152600101613234565b50919050565b82826132b68282614403565b826000036132f0576040517ff5618d5a00000000000000000000000000000000000000000000000000000000815260040160405180910390fd5b6001600160a01b0384166000908152600486016020526040902054831115613344576040517f34aa9a2800000000000000000000000000000000000000000000000000000000815260040160405180910390fd5b6000613350600861226e565b604051635061f96960e11b81526001600160a01b0389811660048301529192509082169063a0c3f2d290602401602060405180830381865afa15801561339a573d6000803e3d6000fd5b505050506040513d601f19601f820116820180604052508101906133be91906153e7565b801561344e57506040517f28bde1e10000000000000000000000000000000000000000000000000000000081526001600160a01b0388811660048301528216906328bde1e19060240160e060405180830381865afa158015613424573d6000803e3d6000fd5b505050506040513d601f19601f8201168201806040525081019061344891906154c3565b60a00151155b801561348157506038546001600160a01b0386166000908152600588016020526040902054429161347e9161523a565b10155b156134b8576040517ff19f52bd00000000000000000000000000000000000000000000000000000000815260040160405180910390fd5b6001600160a01b03851660009081526004870160205260409020546134f690879087906134e6908890615266565b878a600301546128d29190615266565b85546040518581526001600160a01b03918216918716907f4d10bd049775c77bd7f255195afba5088028ecb3c7c277d393ccff7934f2f92c9060200160405180910390a350505050505050565b60008147101561359a576040517f98c713c00000000000000000000000000000000000000000000000000000000081526001600160e01b031960003516600482015247602482015260448101839052606401610c07565b611548838361309b565b7fb53127684a568b3173ae13b9f8a6016e243e63b6e8ee1178d6a717850b5d6103546001600160a01b03163314612ffc576000356001600160e01b03191660016040517f3e523c00000000000000000000000000000000000000000000000000000000008152600401610c0792919061556b565b61271081118061362757508082115b1561364557604051631b8454a360e21b815260040160405180910390fd5b606d819055606e82905560408051838152602081018390527f677752f5bf9541b14288833909e5ec5a478103131c1ec08c4638943be5826c14910161134c565b6060815167ffffffffffffffff8111156136a1576136a1614ed7565b6040519080825280602002602001820160405280156136ca578160200160208202803683370190505b50905060005b82518110156132a4576137148382815181106136ee576136ee61520e565b60200260200101516001600160a01b031660009081526037602052604090206003015490565b8282815181106137265761372661520e565b60209081029190910101526001016136d0565b82826137458282614403565b6001600160a01b0384166000908152600486016020526040902054613783908690869061377390879061523a565b8689600301546128d2919061523a565b6001600160a01b03808516600081815260058801602052604090819020429055875490519216917fe5541a6b6103d4fa7e021ed54fad39c66f27a76bd13d374cf6240ae6bd0bb72b906137d99087815260200190565b60405180910390a35050505050565b60006137f4600861226e565b6001600160a01b031663060406186040518163ffffffff1660e01b8152600401602060405180830381865afa158015613831573d6000803e3d6000fd5b505050506040513d601f19601f82011682018060405250810190613855919061524d565b905090565b6001600160a01b0380851660009081526002602090815260408083209387168352929052908120600381015484900361389557549050610d7b565b6001600160a01b0386166000908152600360208181526040808420600180845282862094870154865293909252832091820154839290156138fa57805460018601549094506138e49085615266565b85600201546138f39190615599565b9250613902565b846001015493505b8154600090613912908690615266565b61391c9089615599565b9050670de0b6b3a7640000613931828661523a565b61393b91906155b0565b8654613947919061523a565b9b9a5050505050505050505050565b606c8190556040518181527f372bbdb8d72373b0012f84ee5a11671e5fb72b8bea902ebca93a19cb45d32be2906020016118e2565b806001600160a01b03163b600003610c10576040517f2ff1928c0000000000000000000000000000000000000000000000000000000081526001600160a01b0382166004820152602401610c07565b60388190556040518181527f4956b65267b8f1e642284bcb5037116c69a9c78d9ca576beeae0974737a4872a906020016118e2565b60006115488383614458565b60398190556040518181527f02be0b73b597f2c0f138aebee162b3b0e25d5b5a26854c15dcf79176e9a1c678906020016118e2565b83518214613a9957807fae52c603227f64e4c6101dde593aa9790a16b3ac77546bd746d758511e9560a5858585604051613a8c9392919061560c565b60405180910390a2612663565b6000806000806000885167ffffffffffffffff811115613abb57613abb614ed7565b604051908082528060200260200182016040528015613ae4578160200160208202803683370190505b5090506000895167ffffffffffffffff811115613b0357613b03614ed7565b604051908082528060200260200182016040528015613b2c578160200160208202803683370190505b50905060008a5167ffffffffffffffff811115613b4b57613b4b614ed7565b604051908082528060200260200182016040528015613b74578160200160208202803683370190505b50905060005b8b51811015613ddd578b8181518110613b9557613b9561520e565b6020908102919091018101516001600160a01b038116600090815260038084526040808320603790955290912001549097506001600160a01b03881660009081526001602081815260408084208f855290915290912001549096508a9003613c3657868389806001019a5081518110613c1057613c1061520e565b60200260200101906001600160a01b031690816001600160a01b03168152505050613dd5565b60028101548a1115613c6457604080518082019091528681526020018a905260018101869055600281018a90555b600181015415613cae5760018101548c8c84818110613c8557613c8561520e565b90506020020135670de0b6b3a7640000613c9f9190615599565b613ca991906155b0565b613cb1565b60005b985088816000016000828254613cc7919061523a565b9182905550905085613cd98a85615266565b81518110613ce957613ce961520e565b6020026020010181815250506040518060400160405280826000015481526020018b81525060016000896001600160a01b03166001600160a01b0316815260200190815260200160002060008c815260200190815260200160002060008201518160000155602082015181600101559050508581600101600001819055508060010160000154848984613d7c9190615266565b81518110613d8c57613d8c61520e565b6020908102919091010152868d613da38a85615266565b81518110613db357613db361520e565b60200260200101906001600160a01b031690816001600160a01b031681525050505b600101613b7a565b508515613e2657858152858b51038b52877fee74f10cc50bf4b7e57fd36be7d46288795f3a9151dae97505b718b392ba14a382604051613e1d919061566f565b60405180910390a25b8a5115613e6a57877f0e54e0485f70f0f63bc25889ddbf01ce1269ad6f07fdb2df573a0fbdb4d66f888c8585604051613e6193929190615682565b60405180910390a25b5050505050505050505050565b8282613e838282612f79565b8460020154831115613ea857604051630a8d7fa760e21b815260040160405180910390fd5b6038546001600160a01b03851660009081526005870160205260409020544291613ed19161523a565b1115613f09576040517f07b6105200000000000000000000000000000000000000000000000000000000815260040160405180910390fd5b82856002016000828254613f1d9190615266565b92505081905550613f3e858587600201548689600301546128d29190615266565b84546040518481526001600160a01b03909116907f0f5bb82176feb1b5e747e28471aa92156a04d9f3ab9f45f28e2d704232b93f7590602001612f6a565b600082600003613f9557613f926108fc8361523a565b91505b6040516001600160a01b03851690839085906000818181858888f193505050503d8060008114613fe1576040519150601f19603f3d011682016040523d82523d6000602084013e613fe6565b606091505b509095945050505050565b6000610cf2825490565b6001600160a01b038084166000908152603760209081526040808320938616835260049093019052908120546140338585858461385a565b9150836001600160a01b0316856001600160a01b03167f0aa4d283470c904c551d18bb894d37e17674920f3261a7f854be501e25f421b78460405161407a91815260200190565b60405180910390a36001600160a01b038086166000818152600260209081526040808320948916835293815283822082815592825260039052919091206140c49082868580614482565b60038181018590556001600160a01b03878116600081815260209384526040808220546001870155519081529188169290917faa7c29611027fd4be148712bb54960253b7a7d5998c17769bfc424c2f5f185ad910160405180910390a350509392505050565b6000806141356137e8565b905060005b8351811015611241576141678482815181106141585761415861520e565b60200260200101518684613ffb565b614171908461523a565b925060010161413a565b6141858282613543565b6113e0576040517f3b97b7700000000000000000000000000000000000000000000000000000000081526001600160e01b0319600035166004820152602401610c07565b83546141df906001600160a01b0316848461452d565b60038401556001600160a01b0390911660009081526004909201602052604090912055565b60008183106142135781611548565b5090919050565b600081831161422a576000611548565b6115488284615266565b600082815260d2602090815260408083206001600160a01b038516845290915290205460ff166113e057614272816001600160a01b031660146146ca565b61427d8360206146ca565b60405160200161428e9291906156bb565b60408051601f198184030181529082905262461bcd60e51b8252610c079160040161573c565b600082815260d2602090815260408083206001600160a01b038516845290915290205460ff166113e057600082815260d2602090815260408083206001600160a01b03851684529091529020805460ff191660011790556143123390565b6001600160a01b0316816001600160a01b0316837f2f8788117e7eff1d82e926ec794901d17c78024a50270940304540a733656f0d60405160405180910390a45050565b6000611548836001600160a01b0384166148ab565b600082815260d2602090815260408083206001600160a01b038516845290915290205460ff16156113e057600082815260d2602090815260408083206001600160a01b0385168085529252808320805460ff1916905551339285917ff6391f5c32d9c69d2a47ea670b442974b53935d1edc7fd64eb21e047a839171b9190a45050565b6000611548836001600160a01b0384166148fa565b6001600160a01b038116600090815260068301602052604090205460ff16156113e0576040517f9feb934700000000000000000000000000000000000000000000000000000000815260040160405180910390fd5b600082600001828154811061446f5761446f61520e565b9060005260206000200154905092915050565b828460030154101561449657600284018190555b60006144a6856002015484614204565b905060008186600201546144ba9190615266565b9050801561452457600286018290556001870154811115614507576040517fa5ca437e00000000000000000000000000000000000000000000000000000000815260040160405180910390fd5b8087600101600001600082825461451e9190615266565b90915550505b50505050505050565b60006145376137e8565b6001600160a01b03851660009081526003602052604090206001810154600282015492935090918311156145ab576040518060400160405280614592886001600160a01b031660009081526037602052604090206003015490565b8152602090810185905281516001850155015160028301555b6001600160a01b038681166000818152600260209081526040808320948a1680845294825280832093835260378252808320948352600490940190529182205490916145f98989888561385a565b8354909150811461464b578083556040518181526001600160a01b0389811691908b16907faa7c29611027fd4be148712bb54960253b7a7d5998c17769bfc424c2f5f185ad9060200160405180910390a35b6146588584888a86614482565b84546001808501919091556003840187905585015484146146bf57886001600160a01b0316867f81faf50e2aaf52eaba2ab841071efb9f6f0850a3e7d008b1336e6001d3d4963c87600101600001546040516146b691815260200190565b60405180910390a35b505050505050505050565b606060006146d9836002615599565b6146e490600261523a565b67ffffffffffffffff8111156146fc576146fc614ed7565b6040519080825280601f01601f191660200182016040528015614726576020820181803683370190505b5090507f30000000000000000000000000000000000000000000000000000000000000008160008151811061475d5761475d61520e565b60200101906001600160f81b031916908160001a9053507f7800000000000000000000000000000000000000000000000000000000000000816001815181106147a8576147a861520e565b60200101906001600160f81b031916908160001a90535060006147cc846002615599565b6147d790600161523a565b90505b600181111561485c577f303132333435363738396162636465660000000000000000000000000000000085600f16601081106148185761481861520e565b1a60f81b82828151811061482e5761482e61520e565b60200101906001600160f81b031916908160001a90535060049490941c936148558161574f565b90506147da565b5083156115485760405162461bcd60e51b815260206004820181905260248201527f537472696e67733a20686578206c656e67746820696e73756666696369656e746044820152606401610c07565b60008181526001830160205260408120546148f257508154600181810184556000848152602080822090930184905584548482528286019093526040902091909155610cf2565b506000610cf2565b600081815260018301602052604081205480156149e357600061491e600183615266565b855490915060009061493290600190615266565b90508181146149975760008660000182815481106149525761495261520e565b90600052602060002001549050808760000184815481106149755761497561520e565b6000918252602080832090910192909255918252600188019052604090208390555b85548690806149a8576149a8615766565b600190038181906000526020600020016000905590558560010160008681526020019081526020016000206000905560019350505050610cf2565b6000915050610cf2565b6001600160a01b0381168114610c1057600080fd5b600080600060608486031215614a1757600080fd5b8335614a22816149ed565b92506020840135614a32816149ed565b91506040840135614a42816149ed565b809150509250925092565b600060208284031215614a5f57600080fd5b81356001600160e01b03198116811461154857600080fd5b60008083601f840112614a8957600080fd5b50813567ffffffffffffffff811115614aa157600080fd5b6020830191508360208260051b8501011115614abc57600080fd5b9250929050565b60008060008060408587031215614ad957600080fd5b843567ffffffffffffffff80821115614af157600080fd5b614afd88838901614a77565b90965094506020870135915080821115614b1657600080fd5b50614b2387828801614a77565b95989497509550505050565b60008151808452602080850194506020840160005b83811015614b6057815187529582019590820190600101614b44565b509495945050505050565b6020815260006115486020830184614b2f565b600080600060408486031215614b9357600080fd5b833567ffffffffffffffff811115614baa57600080fd5b614bb686828701614a77565b9094509250506020840135614a42816149ed565b60008083601f840112614bdc57600080fd5b50813567ffffffffffffffff811115614bf457600080fd5b602083019150836020828501011115614abc57600080fd5b60008060008060008060008060c0898b031215614c2857600080fd5b8835614c33816149ed565b97506020890135614c43816149ed565b96506040890135614c53816149ed565b955060608901359450608089013567ffffffffffffffff80821115614c7757600080fd5b614c838c838d01614bca565b909650945060a08b0135915080821115614c9c57600080fd5b50614ca98b828c01614bca565b999c989b5096995094979396929594505050565b600060208284031215614ccf57600080fd5b8135611548816149ed565b600060208284031215614cec57600080fd5b5035919050565b60008060408385031215614d0657600080fd5b8235614d11816149ed565b946020939093013593505050565b60008060408385031215614d3257600080fd5b823591506020830135614d44816149ed565b809150509250929050565b60008060408385031215614d6257600080fd5b8235614d6d816149ed565b91506020830135614d44816149ed565b600080600060408486031215614d9257600080fd5b8335614d9d816149ed565b9250602084013567ffffffffffffffff811115614db957600080fd5b614dc586828701614a77565b9497909650939450505050565b60008060208385031215614de557600080fd5b823567ffffffffffffffff811115614dfc57600080fd5b614e0885828601614a77565b90969095509350505050565b60008060408385031215614e2757600080fd5b50508035926020909101359150565b600080600060608486031215614e4b57600080fd5b8335614e56816149ed565b92506020840135614e66816149ed565b929592945050506040919091013590565b8035601181106122fd57600080fd5b60008060408385031215614e9957600080fd5b614d6d83614e77565b600080600060608486031215614eb757600080fd5b8335614ec2816149ed565b95602085013595506040909401359392505050565b634e487b7160e01b600052604160045260246000fd5b604051601f8201601f1916810167ffffffffffffffff81118282101715614f1657614f16614ed7565b604052919050565b600067ffffffffffffffff821115614f3857614f38614ed7565b5060051b60200190565b60008060408385031215614f5557600080fd5b8235614f60816149ed565b915060208381013567ffffffffffffffff811115614f7d57600080fd5b8401601f81018613614f8e57600080fd5b8035614fa1614f9c82614f1e565b614eed565b81815260059190911b82018301908381019088831115614fc057600080fd5b928401925b82841015614fe7578335614fd8816149ed565b82529284019290840190614fc5565b80955050505050509250929050565b60008060008060006060868803121561500e57600080fd5b853567ffffffffffffffff8082111561502657600080fd5b61503289838a01614a77565b9097509550602088013591508082111561504b57600080fd5b5061505888828901614a77565b96999598509660400135949350505050565b60006020828403121561507c57600080fd5b61154882614e77565b6000806000806000806060878903121561509e57600080fd5b863567ffffffffffffffff808211156150b657600080fd5b6150c28a838b01614a77565b909850965060208901359150808211156150db57600080fd5b6150e78a838b01614a77565b9096509450604089013591508082111561510057600080fd5b5061510d89828a01614a77565b979a9699509497509295939492505050565b60008060006040848603121561513457600080fd5b833567ffffffffffffffff81111561514b57600080fd5b61515786828701614a77565b909790965060209590950135949350505050565b600080600080600060a0868803121561518357600080fd5b853561518e816149ed565b97602087013597506040870135966060810135965060800135945092505050565b634e487b7160e01b600052602160045260246000fd5b601181106151d5576151d56151af565b9052565b6001600160e01b031984168152606081016151f760208301856151c5565b6001600160a01b0383166040830152949350505050565b634e487b7160e01b600052603260045260246000fd5b634e487b7160e01b600052601160045260246000fd5b80820180821115610cf257610cf2615224565b60006020828403121561525f57600080fd5b5051919050565b81810381811115610cf257610cf2615224565b60208101610cf282846151c5565b8015158114610c1057600080fd5b6000602082840312156152a757600080fd5b813561154881615287565b60208082528181018390526000908460408401835b868110156152f55782356152da816149ed565b6001600160a01b0316825291830191908301906001016152c7565b509695505050505050565b6020808252825182820181905260009190848201906040850190845b818110156153415783516001600160a01b03168352928401929184019160010161531c565b50909695505050505050565b6000602080838503121561536057600080fd5b825167ffffffffffffffff81111561537757600080fd5b8301601f8101851361538857600080fd5b8051615396614f9c82614f1e565b81815260059190911b820183019083810190878311156153b557600080fd5b928401925b828410156153dc5783516153cd816149ed565b825292840192908401906153ba565b979650505050505050565b6000602082840312156153f957600080fd5b815161154881615287565b60006020828403121561541657600080fd5b8151611548816149ed565b60005b8381101561543c578181015183820152602001615424565b50506000910152565b6000815180845261545d816020860160208601615421565b601f01601f19169290920160200192915050565b60006001600160a01b038088168352808716602084015280861660408401525060a060608301526154a560a0830185615445565b82810360808401526154b78185615445565b98975050505050505050565b600060e082840312156154d557600080fd5b60405160e0810181811067ffffffffffffffff821117156154f8576154f8614ed7565b6040528251615506816149ed565b81526020830151615516816149ed565b60208201526040830151615529816149ed565b6040820152606083015161553c816149ed565b806060830152506080830151608082015260a083015160a082015260c083015160c08201528091505092915050565b6001600160e01b03198316815260408101600b831061558c5761558c6151af565b8260208301529392505050565b8082028115828204841417610cf257610cf2615224565b6000826155cd57634e487b7160e01b600052601260045260246000fd5b500490565b60008151808452602080850194506020840160005b83811015614b605781516001600160a01b0316875295820195908201906001016155e7565b60408152600061561f60408301866155d2565b82810360208401528381527f07ffffffffffffffffffffffffffffffffffffffffffffffffffffffffffffff84111561565757600080fd5b8360051b808660208401370160200195945050505050565b60208152600061154860208301846155d2565b60608152600061569560608301866155d2565b82810360208401526156a78186614b2f565b90508281036040840152610d778185614b2f565b7f416363657373436f6e74726f6c3a206163636f756e74200000000000000000008152600083516156f3816017850160208801615421565b7f206973206d697373696e6720726f6c65200000000000000000000000000000006017918401918201528351615730816028840160208801615421565b01602801949350505050565b6020815260006115486020830184615445565b60008161575e5761575e615224565b506000190190565b634e487b7160e01b600052603160045260246000fdfea26469706673582212203611d8b5a056e735aa8dc1b1276667c5ce289834c57be0cf5071d87503c01b8d64736f6c63430008190033",
  "callValue": 0,
  "chainId": 2020,
  "constructorArgs": "0x",
  "contractName": "Staking",
  "deployer": "0x08295771719b138a241F45023B13CC868D72827D",
  "devdoc": {
    "version": 1,
    "kind": "dev",
    "methods": {
      "applyValidatorCandidate(address,address,address,uint256,bytes,bytes)": {
        "details": "Proposes a candidate to become a validator. Requirements: - The method caller is able to receive RON. - The treasury is able to receive RON. - The amount is larger than or equal to the minimum validator staking amount `minValidatorStakingAmount()`. Emits the event `PoolApproved`.",
        "params": {
          "candidateAdmin": "the candidate admin will be stored in the validator contract, used for calling function that affects to its candidate, e.g. scheduling maintenance."
        }
      },
      "bulkUndelegate(address[],uint256[])": {
        "details": "Bulk unstakes from a list of candidates. Requirements: - The method caller is not the pool admin. Emits the events `Undelegated`."
      },
      "claimRewards(address[])": {
        "details": "Claims the reward of method caller. Emits the `RewardClaimed` event."
      },
      "cooldownSecsToUndelegate()": {
        "details": "Returns The cooldown time in seconds to undelegate from the last timestamp (s)he delegated."
      },
      "delegate(address)": {
        "details": "Stakes for a validator candidate `_consensusAddr`. Requirements: - The consensus address is a validator candidate. - The method caller is not the pool admin. Emits the `Delegated` event."
      },
      "delegateRewards(address[],address)": {
        "details": "Claims the rewards and delegates them to the consensus address. Requirements: - The method caller is not the pool admin. - The consensus address `_consensusAddrDst` is a validator candidate. Emits the `RewardClaimed` event and the `Delegated` event."
      },
      "disableMigrateWasAdmin()": {
        "details": "Mark the REP-4 migration is finished. Disable the `migrateWasAdmin` method."
      },
      "execChangeAdminAddr(address,address,address)": {
        "details": "Requirements: - Only Profile contract can call this method."
      },
      "execDeductStakingAmount(address,uint256)": {
        "details": "Deducts from staking amount of the validator `_consensusAddr` for `_amount`. Requirements: - The method caller must be validator contract. Emits the event `Unstaked`."
      },
      "execDeprecatePools(address[],uint256)": {
        "details": "Deprecates the pool. - Deduct self-staking amount of the pool admin to zero. - Transfer the deducted amount to the pool admin. - Deactivate the pool admin address in the mapping of active pool admins Requirements: - The method caller is validator contract. Emits the event `PoolsDeprecated` and `Unstaked` events. Emits the event `StakingAmountTransferFailed` if the contract cannot transfer RON back to the pool admin."
      },
      "execRecordRewards(address[],uint256[],uint256)": {
        "details": "Records the amount of rewards `_rewards` for the pools `_consensusAddrs`. Requirements: - The method caller must be validator contract. Emits the event `PoolsUpdated` once the contract recorded the rewards successfully. Emits the event `PoolsUpdateFailed` once the input array lengths are not equal. Emits the event `PoolsUpdateConflicted` when there are some pools which already updated in the period. Note: This method should be called once at the period ending."
      },
      "getCommissionRateRange()": {
        "details": "Returns the commission rate range that the candidate can set."
      },
      "getContract(uint8)": {
        "details": "Returns the address of a contract with a specific role. Throws an error if no contract is set for the specified role.",
        "params": {
          "contractType": "The role of the contract to retrieve."
        },
        "returns": {
          "contract_": "The address of the contract with the specified role."
        }
      },
      "getManySelfStakings(address[])": {
        "details": "Returns the self-staking amounts of the pools."
      },
      "getManySelfStakingsById(address[])": {
        "details": "Returns the self-staking amounts of the pools."
      },
      "getManyStakingAmounts(address[],address[])": {
        "details": "Returns the staking amounts of the users."
      },
      "getManyStakingTotals(address[])": {
        "details": "Returns the total staking amounts of all users for the pools corresponding to `consensusAddrs`."
      },
      "getManyStakingTotalsById(address[])": {
        "details": "Returns the total staking amounts of all users for the pools `poolIds`."
      },
      "getPoolAddressOf(address)": {
        "details": "Returns the consensus address corresponding to the pool admin."
      },
      "getPoolDetail(address)": {
        "details": "Returns the staking pool details."
      },
      "getReward(address,address)": {
        "details": "Returns the reward amount that user claimable."
      },
      "getRewardById(address,address)": {
        "details": "Returns the reward amount that user claimable."
      },
      "getRewards(address,address[])": {
        "details": "Returns the claimable reward of the user `_user`."
      },
      "getRewardsById(address,address[])": {
        "details": "Returns the claimable reward of the user `_user`."
      },
      "getRoleAdmin(bytes32)": {
        "details": "Returns the admin role that controls `role`. See {grantRole} and {revokeRole}. To change a role's admin, use {_setRoleAdmin}."
      },
      "getRoleMember(bytes32,uint256)": {
        "details": "Returns one of the accounts that have `role`. `index` must be a value between 0 and {getRoleMemberCount}, non-inclusive. Role bearers are not sorted in any particular way, and their ordering may change at any point. WARNING: When using {getRoleMember} and {getRoleMemberCount}, make sure you perform all queries on the same block. See the following https://forum.openzeppelin.com/t/iterating-over-elements-on-enumerableset-in-openzeppelin-contracts/2296[forum post] for more information."
      },
      "getRoleMemberCount(bytes32)": {
        "details": "Returns the number of accounts that have `role`. Can be used together with {getRoleMember} to enumerate all bearers of a role."
      },
      "getStakingAmount(address,address)": {
        "details": "Returns the staking amount of an user."
      },
      "getStakingTotal(address)": {
        "details": "Returns the total staking amount of all users for a pool."
      },
      "grantRole(bytes32,address)": {
        "details": "Grants `role` to `account`. If `account` had not been already granted `role`, emits a {RoleGranted} event. Requirements: - the caller must have ``role``'s admin role. May emit a {RoleGranted} event."
      },
      "hasRole(bytes32,address)": {
        "details": "Returns `true` if `account` has been granted `role`."
      },
      "initialize(address,uint256,uint256,uint256,uint256)": {
        "details": "Initializes the contract storage."
      },
      "initializeV2()": {
        "details": "Initializes the contract storage V2."
      },
      "initializeV3(address)": {
        "details": "Initializes the contract storage V3."
      },
      "isAdminOfActivePool(address)": {
        "details": "Returns whether the `admin` is currently active."
      },
      "migrateWasAdmin(address[],address[],bool[])": {
        "details": "Migrate REP-4"
      },
      "minValidatorStakingAmount()": {
        "details": "Returns the minimum threshold for being a validator candidate."
      },
      "redelegate(address,address,uint256)": {
        "details": "Unstakes an amount of RON from the `_consensusAddrSrc` and stake for `_consensusAddrDst`. Requirements: - The method caller is not the pool admin. - The consensus address `_consensusAddrDst` is a validator candidate. Emits the `Undelegated` event and the `Delegated` event."
      },
      "renounceRole(bytes32,address)": {
        "details": "Revokes `role` from the calling account. Roles are often managed via {grantRole} and {revokeRole}: this function's purpose is to provide a mechanism for accounts to lose their privileges if they are compromised (such as when a trusted device is misplaced). If the calling account had been revoked `role`, emits a {RoleRevoked} event. Requirements: - the caller must be `account`. May emit a {RoleRevoked} event."
      },
      "requestEmergencyExit(address)": {
        "details": "Renounces being a validator candidate and takes back the delegating/staking amount. Requirements: - The consensus address is a validator candidate. - The method caller is the pool admin."
      },
      "requestRenounce(address)": {
        "details": "Renounces being a validator candidate and takes back the delegating/staking amount. Requirements: - The consensus address is a validator candidate. - The method caller is the pool admin."
      },
      "requestUpdateCommissionRate(address,uint256,uint256)": {
        "details": "Pool admin requests update validator commission rate. The request will be forwarded to the candidate manager contract, and the value is getting updated in {ICandidateManager-execRequestUpdateCommissionRate}. Requirements: - The consensus address is a validator candidate. - The method caller is the pool admin. - The `_effectiveDaysOnwards` must be equal to or larger than the {CandidateManager-_minEffectiveDaysOnwards}. - The `_rate` must be in range of [0_00; 100_00]. Emits the event `CommissionRateUpdated`."
      },
      "revokeRole(bytes32,address)": {
        "details": "Revokes `role` from `account`. If `account` had been granted `role`, emits a {RoleRevoked} event. Requirements: - the caller must have ``role``'s admin role. May emit a {RoleRevoked} event."
      },
      "setCommissionRateRange(uint256,uint256)": {
        "details": "Sets the commission rate range that a candidate can set. Requirements: - The method caller is admin. Emits the `CommissionRateRangeUpdated` event."
      },
      "setContract(uint8,address)": {
        "details": "Sets the address of a contract with a specific role. Emits the event {ContractUpdated}.",
        "params": {
          "addr": "The address of the contract to set.",
          "contractType": "The role of the contract to set."
        }
      },
      "setCooldownSecsToUndelegate(uint256)": {
        "details": "Sets the cooldown time in seconds to undelegate from the last timestamp (s)he delegated. Requirements: - The method caller is admin. Emits the event `CooldownSecsToUndelegateUpdated`."
      },
      "setMinValidatorStakingAmount(uint256)": {
        "details": "Sets the minimum threshold for being a validator candidate. Requirements: - The method caller is admin. Emits the `MinValidatorStakingAmountUpdated` event."
      },
      "setWaitingSecsToRevoke(uint256)": {
        "details": "Sets the number of seconds that a candidate must wait to be revoked. Requirements: - The method caller is admin. Emits the event `WaitingSecsToRevokeUpdated`."
      },
      "stake(address)": {
        "details": "Self-delegates to the validator candidate `consensusAddr`. Requirements: - The consensus address is a validator candidate. - The method caller is the pool admin. - The `msg.value` is larger than 0. Emits the event `Staked`."
      },
      "supportsInterface(bytes4)": {
        "details": "See {IERC165-supportsInterface}."
      },
      "undelegate(address,uint256)": {
        "details": "Unstakes from a validator candidate `_consensusAddr` for `_amount`. Requirements: - The method caller is not the pool admin. Emits the `Undelegated` event."
      },
      "unstake(address,uint256)": {
        "details": "Unstakes from the validator candidate `consensusAddr` for `amount`. Requirements: - The consensus address is a validator candidate. - The method caller is the pool admin. Emits the event `Unstaked`."
      },
      "waitingSecsToRevoke()": {
        "details": "Returns the number of seconds that a candidate must wait for the renounce request gets affected."
      }
    },
    "events": {
      "CommissionRateRangeUpdated(uint256,uint256)": {
        "details": "Emitted when the commission rate range is updated."
      },
      "ContractUpdated(uint8,address)": {
        "details": "Emitted when a contract is updated."
      },
      "CooldownSecsToUndelegateUpdated(uint256)": {
        "details": "Emitted when the minium number of seconds to undelegate is updated."
      },
      "Delegated(address,address,uint256)": {
        "details": "Emitted when the delegator staked for a validator candidate."
      },
      "Initialized(uint8)": {
        "details": "Triggered when the contract has been initialized or reinitialized."
      },
      "MigrateWasAdminDisabled()": {
        "details": "Event emitted when the `migrateWasAdmin` method is disabled."
      },
      "MigrateWasAdminFinished()": {
        "details": "Event emitted when the `wasAdmin` is finished to migrate."
      },
      "MinValidatorStakingAmountUpdated(uint256)": {
        "details": "Emitted when the minimum staking amount for being a validator is updated."
      },
      "PoolApproved(address,address)": {
        "details": "Emitted when the validator pool is approved."
      },
      "PoolSharesUpdated(uint256,address,uint256)": {
        "details": "Emitted when the pool shares are updated"
      },
      "PoolsDeprecated(address[])": {
        "details": "Emitted when the validator pool is deprecated."
      },
      "PoolsUpdateConflicted(uint256,address[])": {
        "details": "Emitted when the contract fails when updating the pools that already set"
      },
      "PoolsUpdateFailed(uint256,address[],uint256[])": {
        "details": "Emitted when the contract fails when updating the pools"
      },
      "PoolsUpdated(uint256,address[],uint256[],uint256[])": {
        "details": "Emitted when the pools are updated"
      },
      "RewardClaimed(address,address,uint256)": {
        "details": "Emitted when the user claimed their reward"
      },
      "RoleAdminChanged(bytes32,bytes32,bytes32)": {
        "details": "Emitted when `newAdminRole` is set as ``role``'s admin role, replacing `previousAdminRole` `DEFAULT_ADMIN_ROLE` is the starting admin for all roles, despite {RoleAdminChanged} not being emitted signaling this. _Available since v3.1._"
      },
      "RoleGranted(bytes32,address,address)": {
        "details": "Emitted when `account` is granted `role`. `sender` is the account that originated the contract call, an admin role bearer except when using {AccessControl-_setupRole}."
      },
      "RoleRevoked(bytes32,address,address)": {
        "details": "Emitted when `account` is revoked `role`. `sender` is the account that originated the contract call:   - if using `revokeRole`, it is the admin role bearer   - if using `renounceRole`, it is the role bearer (i.e. `account`)"
      },
      "Staked(address,uint256)": {
        "details": "Emitted when the pool admin staked for themself."
      },
      "StakeholderChanged(address,address,address,uint256)": {
        "details": "Emitted when the holder of the staking amount in the `poolId` is changed."
      },
      "StakingAmountDeductFailed(address,address,uint256,uint256)": {
        "details": "Emitted when the staking amount deducted failed, e.g. when the validator gets slashed."
      },
      "StakingAmountTransferFailed(address,address,uint256,uint256)": {
        "details": "Emitted when the staking amount transfer failed."
      },
      "Undelegated(address,address,uint256)": {
        "details": "Emitted when the delegator unstaked from a validator candidate."
      },
      "Unstaked(address,uint256)": {
        "details": "Emitted when the pool admin unstaked the amount of RON from themself."
      },
      "UserRewardUpdated(address,address,uint256)": {
        "details": "Emitted when the fields to calculate pending reward for the user is updated."
      },
      "WaitingSecsToRevokeUpdated(uint256)": {
        "details": "Emitted when the number of seconds that a candidate must wait to be revoked."
      }
    },
    "errors": {
      "ErrAdminOfAnyActivePoolForbidden(address)": [
        {
          "details": "Error of admin of any active pool cannot delegate."
        }
      ],
      "ErrCannotTransferRON()": [
        {
          "details": "Error of cannot transfer RON."
        }
      ],
      "ErrContractTypeNotFound(uint8)": [
        {
          "details": "Error of invalid role."
        }
      ],
      "ErrDuplicated(bytes4)": [
        {
          "details": "Error thrown when a duplicated element is detected in an array.",
          "params": {
            "msgSig": "The function signature that invoke the error."
          }
        }
      ],
      "ErrInactivePool(address,address)": [
        {
          "details": "Error of querying inactive pool."
        }
      ],
      "ErrInsufficientBalance(bytes4,uint256,uint256)": [
        {
          "details": "Error of sender has insufficient balance."
        }
      ],
      "ErrInsufficientDelegatingAmount()": [
        {
          "details": "Error of undelegating insufficient amount."
        }
      ],
      "ErrInsufficientStakingAmount()": [
        {
          "details": "Error of insufficient staking amount for unstaking."
        }
      ],
      "ErrInvalidArguments(bytes4)": [
        {
          "details": "Error indicating that arguments are invalid."
        }
      ],
      "ErrInvalidArrays()": [
        {
          "details": "Error of length of input arrays are not of the same."
        }
      ],
      "ErrInvalidCommissionRate()": [
        {
          "details": "Error of setting commission rate exceeds max allowed."
        }
      ],
      "ErrInvalidPoolShare()": [
        {
          "details": "Error of invalid pool share."
        }
      ],
      "ErrMigrateWasAdminAlreadyDone()": [
        {
          "details": "Error indicating that the REP-4 migration is already done."
        }
      ],
      "ErrOnlyPoolAdminAllowed()": [
        {
          "details": "Error of no one is allowed to call but the pool's admin."
        }
      ],
      "ErrPoolAdminForbidden()": [
        {
          "details": "Error of pool admin is not allowed to call."
        }
      ],
      "ErrRecipientRevert(bytes4)": [
        {
          "details": "Error of recipient not accepting RON when transfer RON."
        }
      ],
      "ErrStakingAmountLeft()": [
        {
          "details": "Error of invalid staking amount left after deducted."
        }
      ],
      "ErrThreeInteractionAddrsNotEqual()": [
        {
          "details": "Error of three interaction addresses must be of the same in applying for validator candidate."
        }
      ],
      "ErrUnauthorized(bytes4,uint8)": [
        {
          "details": "Error indicating that the caller is unauthorized to perform a specific function.",
          "params": {
            "expectedRole": "The role required to perform the function.",
            "msgSig": "The function signature (bytes4) that the caller is unauthorized to perform."
          }
        }
      ],
      "ErrUndelegateTooEarly()": [
        {
          "details": "Error of undelegating too early."
        }
      ],
      "ErrUndelegateZeroAmount()": [
        {
          "details": "Error of undelegating zero amount."
        }
      ],
      "ErrUnexpectedInternalCall(bytes4,uint8,address)": [
        {
          "details": "Error indicating that the caller is unauthorized to perform a specific function.",
          "params": {
            "actual": "The actual address that called to the function.",
            "expectedContractType": "The contract type required to perform the function.",
            "msgSig": "The function signature (bytes4)."
          }
        }
      ],
      "ErrUnstakeTooEarly()": [
        {
          "details": "Error of unstaking too early."
        }
      ],
      "ErrUnstakeZeroAmount()": [
        {
          "details": "Error of unstaking zero amount."
        }
      ],
      "ErrZeroCodeContract(address)": [
        {
          "details": "Error of set to non-contract."
        }
      ],
      "ErrZeroValue()": [
        {
          "details": "Error of receiving zero message value."
        }
      ]
    }
  },
  "isFoundry": true,
  "nonce": 23,
  "storageLayout": {
    "storage": [
      {
        "astId": 98988,
        "contract": "contracts/ronin/staking/Staking.sol:Staking",
        "label": "_status",
        "offset": 0,
        "slot": "0",
        "type": "t_uint256"
      },
      {
        "astId": 31642,
        "contract": "contracts/ronin/staking/Staking.sol:Staking",
        "label": "_accumulatedRps",
        "offset": 0,
        "slot": "1",
        "type": "t_mapping(t_address,t_mapping(t_uint256,t_struct(PeriodWrapper)7568_storage))"
      },
      {
        "astId": 31650,
        "contract": "contracts/ronin/staking/Staking.sol:Staking",
        "label": "_userReward",
        "offset": 0,
        "slot": "2",
        "type": "t_mapping(t_address,t_mapping(t_address,t_struct(UserRewardFields)9105_storage))"
      },
      {
        "astId": 31656,
        "contract": "contracts/ronin/staking/Staking.sol:Staking",
        "label": "_stakingPool",
        "offset": 0,
        "slot": "3",
        "type": "t_mapping(t_address,t_struct(PoolFields)9111_storage)"
      },
      {
        "astId": 31661,
        "contract": "contracts/ronin/staking/Staking.sol:Staking",
        "label": "______gap",
        "offset": 0,
        "slot": "4",
        "type": "t_array(t_uint256)50_storage"
      },
      {
        "astId": 38272,
        "contract": "contracts/ronin/staking/Staking.sol:Staking",
        "label": "______deprecatedValidator",
        "offset": 0,
        "slot": "54",
        "type": "t_address"
      },
      {
        "astId": 29416,
        "contract": "contracts/ronin/staking/Staking.sol:Staking",
        "label": "_poolDetail",
        "offset": 0,
        "slot": "55",
        "type": "t_mapping(t_address,t_struct(PoolDetail)8653_storage)"
      },
      {
        "astId": 29419,
        "contract": "contracts/ronin/staking/Staking.sol:Staking",
        "label": "_cooldownSecsToUndelegate",
        "offset": 0,
        "slot": "56",
        "type": "t_uint256"
      },
      {
        "astId": 29422,
        "contract": "contracts/ronin/staking/Staking.sol:Staking",
        "label": "_waitingSecsToRevoke",
        "offset": 0,
        "slot": "57",
        "type": "t_uint256"
      },
      {
        "astId": 29427,
        "contract": "contracts/ronin/staking/Staking.sol:Staking",
        "label": "_adminOfActivePoolMapping",
        "offset": 0,
        "slot": "58",
        "type": "t_mapping(t_address,t_address)"
      },
      {
        "astId": 29432,
        "contract": "contracts/ronin/staking/Staking.sol:Staking",
        "label": "______gap",
        "offset": 0,
        "slot": "59",
        "type": "t_array(t_uint256)49_storage"
      },
      {
        "astId": 30176,
        "contract": "contracts/ronin/staking/Staking.sol:Staking",
        "label": "_minValidatorStakingAmount",
        "offset": 0,
        "slot": "108",
        "type": "t_uint256"
      },
      {
        "astId": 30179,
        "contract": "contracts/ronin/staking/Staking.sol:Staking",
        "label": "_maxCommissionRate",
        "offset": 0,
        "slot": "109",
        "type": "t_uint256"
      },
      {
        "astId": 30182,
        "contract": "contracts/ronin/staking/Staking.sol:Staking",
        "label": "_minCommissionRate",
        "offset": 0,
        "slot": "110",
        "type": "t_uint256"
      },
      {
        "astId": 30187,
        "contract": "contracts/ronin/staking/Staking.sol:Staking",
        "label": "______gap",
        "offset": 0,
        "slot": "111",
        "type": "t_array(t_uint256)48_storage"
      },
      {
        "astId": 31020,
        "contract": "contracts/ronin/staking/Staking.sol:Staking",
        "label": "______gap",
        "offset": 0,
        "slot": "159",
        "type": "t_array(t_uint256)50_storage"
      },
      {
        "astId": 98725,
        "contract": "contracts/ronin/staking/Staking.sol:Staking",
        "label": "_initialized",
        "offset": 0,
        "slot": "209",
        "type": "t_uint8"
      },
      {
        "astId": 98728,
        "contract": "contracts/ronin/staking/Staking.sol:Staking",
        "label": "_initializing",
        "offset": 1,
        "slot": "209",
        "type": "t_bool"
      },
      {
        "astId": 97376,
        "contract": "contracts/ronin/staking/Staking.sol:Staking",
        "label": "_roles",
        "offset": 0,
        "slot": "210",
        "type": "t_mapping(t_bytes32,t_struct(RoleData)97371_storage)"
      },
      {
        "astId": 97690,
        "contract": "contracts/ronin/staking/Staking.sol:Staking",
        "label": "_roleMembers",
        "offset": 0,
        "slot": "211",
        "type": "t_mapping(t_bytes32,t_struct(AddressSet)101882_storage)"
      }
    ],
    "types": {
      "t_address": {
        "encoding": "inplace",
        "label": "address",
        "numberOfBytes": "20"
      },
      "t_array(t_bytes32)dyn_storage": {
        "encoding": "dynamic_array",
        "label": "bytes32[]",
        "numberOfBytes": "32",
        "base": "t_bytes32"
      },
      "t_array(t_uint256)48_storage": {
        "encoding": "inplace",
        "label": "uint256[48]",
        "numberOfBytes": "1536",
        "base": "t_uint256"
      },
      "t_array(t_uint256)49_storage": {
        "encoding": "inplace",
        "label": "uint256[49]",
        "numberOfBytes": "1568",
        "base": "t_uint256"
      },
      "t_array(t_uint256)50_storage": {
        "encoding": "inplace",
        "label": "uint256[50]",
        "numberOfBytes": "1600",
        "base": "t_uint256"
      },
      "t_bool": {
        "encoding": "inplace",
        "label": "bool",
        "numberOfBytes": "1"
      },
      "t_bytes32": {
        "encoding": "inplace",
        "label": "bytes32",
        "numberOfBytes": "32"
      },
      "t_mapping(t_address,t_address)": {
        "encoding": "mapping",
        "key": "t_address",
        "label": "mapping(address => address)",
        "numberOfBytes": "32",
        "value": "t_address"
      },
      "t_mapping(t_address,t_bool)": {
        "encoding": "mapping",
        "key": "t_address",
        "label": "mapping(address => bool)",
        "numberOfBytes": "32",
        "value": "t_bool"
      },
      "t_mapping(t_address,t_mapping(t_address,t_struct(UserRewardFields)9105_storage))": {
        "encoding": "mapping",
        "key": "t_address",
        "label": "mapping(address => mapping(address => struct IRewardPool.UserRewardFields))",
        "numberOfBytes": "32",
        "value": "t_mapping(t_address,t_struct(UserRewardFields)9105_storage)"
      },
      "t_mapping(t_address,t_mapping(t_uint256,t_struct(PeriodWrapper)7568_storage))": {
        "encoding": "mapping",
        "key": "t_address",
        "label": "mapping(address => mapping(uint256 => struct PeriodWrapperConsumer.PeriodWrapper))",
        "numberOfBytes": "32",
        "value": "t_mapping(t_uint256,t_struct(PeriodWrapper)7568_storage)"
      },
      "t_mapping(t_address,t_struct(PoolDetail)8653_storage)": {
        "encoding": "mapping",
        "key": "t_address",
        "label": "mapping(address => struct IBaseStaking.PoolDetail)",
        "numberOfBytes": "32",
        "value": "t_struct(PoolDetail)8653_storage"
      },
      "t_mapping(t_address,t_struct(PoolFields)9111_storage)": {
        "encoding": "mapping",
        "key": "t_address",
        "label": "mapping(address => struct IRewardPool.PoolFields)",
        "numberOfBytes": "32",
        "value": "t_struct(PoolFields)9111_storage"
      },
      "t_mapping(t_address,t_struct(UserRewardFields)9105_storage)": {
        "encoding": "mapping",
        "key": "t_address",
        "label": "mapping(address => struct IRewardPool.UserRewardFields)",
        "numberOfBytes": "32",
        "value": "t_struct(UserRewardFields)9105_storage"
      },
      "t_mapping(t_address,t_uint256)": {
        "encoding": "mapping",
        "key": "t_address",
        "label": "mapping(address => uint256)",
        "numberOfBytes": "32",
        "value": "t_uint256"
      },
      "t_mapping(t_bytes32,t_struct(AddressSet)101882_storage)": {
        "encoding": "mapping",
        "key": "t_bytes32",
        "label": "mapping(bytes32 => struct EnumerableSet.AddressSet)",
        "numberOfBytes": "32",
        "value": "t_struct(AddressSet)101882_storage"
      },
      "t_mapping(t_bytes32,t_struct(RoleData)97371_storage)": {
        "encoding": "mapping",
        "key": "t_bytes32",
        "label": "mapping(bytes32 => struct AccessControl.RoleData)",
        "numberOfBytes": "32",
        "value": "t_struct(RoleData)97371_storage"
      },
      "t_mapping(t_bytes32,t_uint256)": {
        "encoding": "mapping",
        "key": "t_bytes32",
        "label": "mapping(bytes32 => uint256)",
        "numberOfBytes": "32",
        "value": "t_uint256"
      },
      "t_mapping(t_uint256,t_struct(PeriodWrapper)7568_storage)": {
        "encoding": "mapping",
        "key": "t_uint256",
        "label": "mapping(uint256 => struct PeriodWrapperConsumer.PeriodWrapper)",
        "numberOfBytes": "32",
        "value": "t_struct(PeriodWrapper)7568_storage"
      },
      "t_struct(AddressSet)101882_storage": {
        "encoding": "inplace",
        "label": "struct EnumerableSet.AddressSet",
        "numberOfBytes": "64",
        "members": [
          {
            "astId": 101881,
            "contract": "contracts/ronin/staking/Staking.sol:Staking",
            "label": "_inner",
            "offset": 0,
            "slot": "0",
            "type": "t_struct(Set)101581_storage"
          }
        ]
      },
      "t_struct(PeriodWrapper)7568_storage": {
        "encoding": "inplace",
        "label": "struct PeriodWrapperConsumer.PeriodWrapper",
        "numberOfBytes": "64",
        "members": [
          {
            "astId": 7565,
            "contract": "contracts/ronin/staking/Staking.sol:Staking",
            "label": "inner",
            "offset": 0,
            "slot": "0",
            "type": "t_uint256"
          },
          {
            "astId": 7567,
            "contract": "contracts/ronin/staking/Staking.sol:Staking",
            "label": "lastPeriod",
            "offset": 0,
            "slot": "1",
            "type": "t_uint256"
          }
        ]
      },
      "t_struct(PoolDetail)8653_storage": {
        "encoding": "inplace",
        "label": "struct IBaseStaking.PoolDetail",
        "numberOfBytes": "224",
        "members": [
          {
            "astId": 8628,
            "contract": "contracts/ronin/staking/Staking.sol:Staking",
            "label": "pid",
            "offset": 0,
            "slot": "0",
            "type": "t_address"
          },
          {
            "astId": 8631,
            "contract": "contracts/ronin/staking/Staking.sol:Staking",
            "label": "__shadowedPoolAdmin",
            "offset": 0,
            "slot": "1",
            "type": "t_address"
          },
          {
            "astId": 8634,
            "contract": "contracts/ronin/staking/Staking.sol:Staking",
            "label": "stakingAmount",
            "offset": 0,
            "slot": "2",
            "type": "t_uint256"
          },
          {
            "astId": 8637,
            "contract": "contracts/ronin/staking/Staking.sol:Staking",
            "label": "stakingTotal",
            "offset": 0,
            "slot": "3",
            "type": "t_uint256"
          },
          {
            "astId": 8642,
            "contract": "contracts/ronin/staking/Staking.sol:Staking",
            "label": "delegatingAmount",
            "offset": 0,
            "slot": "4",
            "type": "t_mapping(t_address,t_uint256)"
          },
          {
            "astId": 8647,
            "contract": "contracts/ronin/staking/Staking.sol:Staking",
            "label": "lastDelegatingTimestamp",
            "offset": 0,
            "slot": "5",
            "type": "t_mapping(t_address,t_uint256)"
          },
          {
            "astId": 8652,
            "contract": "contracts/ronin/staking/Staking.sol:Staking",
            "label": "wasAdmin",
            "offset": 0,
            "slot": "6",
            "type": "t_mapping(t_address,t_bool)"
          }
        ]
      },
      "t_struct(PoolFields)9111_storage": {
        "encoding": "inplace",
        "label": "struct IRewardPool.PoolFields",
        "numberOfBytes": "96",
        "members": [
          {
            "astId": 9107,
            "contract": "contracts/ronin/staking/Staking.sol:Staking",
            "label": "aRps",
            "offset": 0,
            "slot": "0",
            "type": "t_uint256"
          },
          {
            "astId": 9110,
            "contract": "contracts/ronin/staking/Staking.sol:Staking",
            "label": "shares",
            "offset": 0,
            "slot": "1",
            "type": "t_struct(PeriodWrapper)7568_storage"
          }
        ]
      },
      "t_struct(RoleData)97371_storage": {
        "encoding": "inplace",
        "label": "struct AccessControl.RoleData",
        "numberOfBytes": "64",
        "members": [
          {
            "astId": 97368,
            "contract": "contracts/ronin/staking/Staking.sol:Staking",
            "label": "members",
            "offset": 0,
            "slot": "0",
            "type": "t_mapping(t_address,t_bool)"
          },
          {
            "astId": 97370,
            "contract": "contracts/ronin/staking/Staking.sol:Staking",
            "label": "adminRole",
            "offset": 0,
            "slot": "1",
            "type": "t_bytes32"
          }
        ]
      },
      "t_struct(Set)101581_storage": {
        "encoding": "inplace",
        "label": "struct EnumerableSet.Set",
        "numberOfBytes": "64",
        "members": [
          {
            "astId": 101576,
            "contract": "contracts/ronin/staking/Staking.sol:Staking",
            "label": "_values",
            "offset": 0,
            "slot": "0",
            "type": "t_array(t_bytes32)dyn_storage"
          },
          {
            "astId": 101580,
            "contract": "contracts/ronin/staking/Staking.sol:Staking",
            "label": "_indexes",
            "offset": 0,
            "slot": "1",
            "type": "t_mapping(t_bytes32,t_uint256)"
          }
        ]
      },
      "t_struct(UserRewardFields)9105_storage": {
        "encoding": "inplace",
        "label": "struct IRewardPool.UserRewardFields",
        "numberOfBytes": "128",
        "members": [
          {
            "astId": 9098,
            "contract": "contracts/ronin/staking/Staking.sol:Staking",
            "label": "debited",
            "offset": 0,
            "slot": "0",
            "type": "t_uint256"
          },
          {
            "astId": 9100,
            "contract": "contracts/ronin/staking/Staking.sol:Staking",
            "label": "aRps",
            "offset": 0,
            "slot": "1",
            "type": "t_uint256"
          },
          {
            "astId": 9102,
            "contract": "contracts/ronin/staking/Staking.sol:Staking",
            "label": "lowestAmount",
            "offset": 0,
            "slot": "2",
            "type": "t_uint256"
          },
          {
            "astId": 9104,
            "contract": "contracts/ronin/staking/Staking.sol:Staking",
            "label": "lastPeriod",
            "offset": 0,
            "slot": "3",
            "type": "t_uint256"
          }
        ]
      },
      "t_uint256": {
        "encoding": "inplace",
        "label": "uint256",
        "numberOfBytes": "32"
      },
      "t_uint8": {
        "encoding": "inplace",
        "label": "uint8",
        "numberOfBytes": "1"
      }
    }
  },
  "timestamp": 1718637431,
  "userdoc": {
    "version": 1,
    "kind": "user"
  }
}