{
  "abi": [
    {
      "type": "constructor",
      "inputs": [],
      "stateMutability": "nonpayable"
    },
    {
      "type": "function",
      "name": "cancelSchedule",
      "inputs": [
        {
          "name": "_consensusAddr",
          "type": "address",
          "internalType": "address"
        }
      ],
      "outputs": [],
      "stateMutability": "nonpayable"
    },
    {
      "type": "function",
      "name": "checkCooldownEnded",
      "inputs": [
        {
          "name": "_consensusAddr",
          "type": "address",
          "internalType": "address"
        }
      ],
      "outputs": [
        {
          "name": "",
          "type": "bool",
          "internalType": "bool"
        }
      ],
      "stateMutability": "view"
    },
    {
      "type": "function",
      "name": "checkMaintained",
      "inputs": [
        {
          "name": "_consensusAddr",
          "type": "address",
          "internalType": "address"
        },
        {
          "name": "_block",
          "type": "uint256",
          "internalType": "uint256"
        }
      ],
      "outputs": [
        {
          "name": "",
          "type": "bool",
          "internalType": "bool"
        }
      ],
      "stateMutability": "view"
    },
    {
      "type": "function",
      "name": "checkMaintainedInBlockRange",
      "inputs": [
        {
          "name": "_consensusAddr",
          "type": "address",
          "internalType": "address"
        },
        {
          "name": "_fromBlock",
          "type": "uint256",
          "internalType": "uint256"
        },
        {
          "name": "_toBlock",
          "type": "uint256",
          "internalType": "uint256"
        }
      ],
      "outputs": [
        {
          "name": "",
          "type": "bool",
          "internalType": "bool"
        }
      ],
      "stateMutability": "view"
    },
    {
      "type": "function",
      "name": "checkManyMaintained",
      "inputs": [
        {
          "name": "_addrList",
          "type": "address[]",
          "internalType": "address[]"
        },
        {
          "name": "_block",
          "type": "uint256",
          "internalType": "uint256"
        }
      ],
      "outputs": [
        {
          "name": "_resList",
          "type": "bool[]",
          "internalType": "bool[]"
        }
      ],
      "stateMutability": "view"
    },
    {
      "type": "function",
      "name": "checkManyMaintainedInBlockRange",
      "inputs": [
        {
          "name": "_addrList",
          "type": "address[]",
          "internalType": "address[]"
        },
        {
          "name": "_fromBlock",
          "type": "uint256",
          "internalType": "uint256"
        },
        {
          "name": "_toBlock",
          "type": "uint256",
          "internalType": "uint256"
        }
      ],
      "outputs": [
        {
          "name": "_resList",
          "type": "bool[]",
          "internalType": "bool[]"
        }
      ],
      "stateMutability": "view"
    },
    {
      "type": "function",
      "name": "checkScheduled",
      "inputs": [
        {
          "name": "_consensusAddr",
          "type": "address",
          "internalType": "address"
        }
      ],
      "outputs": [
        {
          "name": "",
          "type": "bool",
          "internalType": "bool"
        }
      ],
      "stateMutability": "view"
    },
    {
      "type": "function",
      "name": "cooldownSecsToMaintain",
      "inputs": [],
      "outputs": [
        {
          "name": "",
          "type": "uint256",
          "internalType": "uint256"
        }
      ],
      "stateMutability": "view"
    },
    {
      "type": "function",
      "name": "getContract",
      "inputs": [
        {
          "name": "contractType",
          "type": "uint8",
          "internalType": "enum ContractType"
        }
      ],
      "outputs": [
        {
          "name": "contract_",
          "type": "address",
          "internalType": "address"
        }
      ],
      "stateMutability": "view"
    },
    {
      "type": "function",
      "name": "getSchedule",
      "inputs": [
        {
          "name": "_consensusAddr",
          "type": "address",
          "internalType": "address"
        }
      ],
      "outputs": [
        {
          "name": "",
          "type": "tuple",
          "internalType": "struct IMaintenance.Schedule",
          "components": [
            {
              "name": "from",
              "type": "uint256",
              "internalType": "uint256"
            },
            {
              "name": "to",
              "type": "uint256",
              "internalType": "uint256"
            },
            {
              "name": "lastUpdatedBlock",
              "type": "uint256",
              "internalType": "uint256"
            },
            {
              "name": "requestTimestamp",
              "type": "uint256",
              "internalType": "uint256"
            }
          ]
        }
      ],
      "stateMutability": "view"
    },
    {
      "type": "function",
      "name": "initialize",
      "inputs": [
        {
          "name": "__validatorContract",
          "type": "address",
          "internalType": "address"
        },
        {
          "name": "_minMaintenanceDurationInBlock",
          "type": "uint256",
          "internalType": "uint256"
        },
        {
          "name": "_maxMaintenanceDurationInBlock",
          "type": "uint256",
          "internalType": "uint256"
        },
        {
          "name": "_minOffsetToStartSchedule",
          "type": "uint256",
          "internalType": "uint256"
        },
        {
          "name": "_maxOffsetToStartSchedule",
          "type": "uint256",
          "internalType": "uint256"
        },
        {
          "name": "_maxSchedules",
          "type": "uint256",
          "internalType": "uint256"
        },
        {
          "name": "_cooldownSecsToMaintain",
          "type": "uint256",
          "internalType": "uint256"
        }
      ],
      "outputs": [],
      "stateMutability": "nonpayable"
    },
    {
      "type": "function",
      "name": "initializeV2",
      "inputs": [],
      "outputs": [],
      "stateMutability": "nonpayable"
    },
    {
      "type": "function",
      "name": "maxMaintenanceDurationInBlock",
      "inputs": [],
      "outputs": [
        {
          "name": "",
          "type": "uint256",
          "internalType": "uint256"
        }
      ],
      "stateMutability": "view"
    },
    {
      "type": "function",
      "name": "maxOffsetToStartSchedule",
      "inputs": [],
      "outputs": [
        {
          "name": "",
          "type": "uint256",
          "internalType": "uint256"
        }
      ],
      "stateMutability": "view"
    },
    {
      "type": "function",
      "name": "maxSchedule",
      "inputs": [],
      "outputs": [
        {
          "name": "",
          "type": "uint256",
          "internalType": "uint256"
        }
      ],
      "stateMutability": "view"
    },
    {
      "type": "function",
      "name": "minMaintenanceDurationInBlock",
      "inputs": [],
      "outputs": [
        {
          "name": "",
          "type": "uint256",
          "internalType": "uint256"
        }
      ],
      "stateMutability": "view"
    },
    {
      "type": "function",
      "name": "minOffsetToStartSchedule",
      "inputs": [],
      "outputs": [
        {
          "name": "",
          "type": "uint256",
          "internalType": "uint256"
        }
      ],
      "stateMutability": "view"
    },
    {
      "type": "function",
      "name": "schedule",
      "inputs": [
        {
          "name": "_consensusAddr",
          "type": "address",
          "internalType": "address"
        },
        {
          "name": "_startedAtBlock",
          "type": "uint256",
          "internalType": "uint256"
        },
        {
          "name": "_endedAtBlock",
          "type": "uint256",
          "internalType": "uint256"
        }
      ],
      "outputs": [],
      "stateMutability": "nonpayable"
    },
    {
      "type": "function",
      "name": "setContract",
      "inputs": [
        {
          "name": "contractType",
          "type": "uint8",
          "internalType": "enum ContractType"
        },
        {
          "name": "addr",
          "type": "address",
          "internalType": "address"
        }
      ],
      "outputs": [],
      "stateMutability": "nonpayable"
    },
    {
      "type": "function",
      "name": "setMaintenanceConfig",
      "inputs": [
        {
          "name": "_minMaintenanceDurationInBlock",
          "type": "uint256",
          "internalType": "uint256"
        },
        {
          "name": "_maxMaintenanceDurationInBlock",
          "type": "uint256",
          "internalType": "uint256"
        },
        {
          "name": "_minOffsetToStartSchedule",
          "type": "uint256",
          "internalType": "uint256"
        },
        {
          "name": "_maxOffsetToStartSchedule",
          "type": "uint256",
          "internalType": "uint256"
        },
        {
          "name": "_maxSchedules",
          "type": "uint256",
          "internalType": "uint256"
        },
        {
          "name": "_cooldownSecsToMaintain",
          "type": "uint256",
          "internalType": "uint256"
        }
      ],
      "outputs": [],
      "stateMutability": "nonpayable"
    },
    {
      "type": "function",
      "name": "totalSchedule",
      "inputs": [],
      "outputs": [
        {
          "name": "_count",
          "type": "uint256",
          "internalType": "uint256"
        }
      ],
      "stateMutability": "view"
    },
    {
      "type": "event",
      "name": "ContractUpdated",
      "inputs": [
        {
          "name": "contractType",
          "type": "uint8",
          "indexed": true,
          "internalType": "enum ContractType"
        },
        {
          "name": "addr",
          "type": "address",
          "indexed": true,
          "internalType": "address"
        }
      ],
      "anonymous": false
    },
    {
      "type": "event",
      "name": "Initialized",
      "inputs": [
        {
          "name": "version",
          "type": "uint8",
          "indexed": false,
          "internalType": "uint8"
        }
      ],
      "anonymous": false
    },
    {
      "type": "event",
      "name": "MaintenanceConfigUpdated",
      "inputs": [
        {
          "name": "minMaintenanceDurationInBlock",
          "type": "uint256",
          "indexed": false,
          "internalType": "uint256"
        },
        {
          "name": "maxMaintenanceDurationInBlock",
          "type": "uint256",
          "indexed": false,
          "internalType": "uint256"
        },
        {
          "name": "minOffsetToStartSchedule",
          "type": "uint256",
          "indexed": false,
          "internalType": "uint256"
        },
        {
          "name": "maxOffsetToStartSchedule",
          "type": "uint256",
          "indexed": false,
          "internalType": "uint256"
        },
        {
          "name": "maxSchedules",
          "type": "uint256",
          "indexed": false,
          "internalType": "uint256"
        },
        {
          "name": "cooldownSecsToMaintain",
          "type": "uint256",
          "indexed": false,
          "internalType": "uint256"
        }
      ],
      "anonymous": false
    },
    {
      "type": "event",
      "name": "MaintenanceScheduleCancelled",
      "inputs": [
        {
          "name": "consensusAddr",
          "type": "address",
          "indexed": true,
          "internalType": "address"
        }
      ],
      "anonymous": false
    },
    {
      "type": "event",
      "name": "MaintenanceScheduled",
      "inputs": [
        {
          "name": "consensusAddr",
          "type": "address",
          "indexed": true,
          "internalType": "address"
        },
        {
          "name": "",
          "type": "tuple",
          "indexed": false,
          "internalType": "struct IMaintenance.Schedule",
          "components": [
            {
              "name": "from",
              "type": "uint256",
              "internalType": "uint256"
            },
            {
              "name": "to",
              "type": "uint256",
              "internalType": "uint256"
            },
            {
              "name": "lastUpdatedBlock",
              "type": "uint256",
              "internalType": "uint256"
            },
            {
              "name": "requestTimestamp",
              "type": "uint256",
              "internalType": "uint256"
            }
          ]
        }
      ],
      "anonymous": false
    },
    {
      "type": "error",
      "name": "ErrAlreadyOnMaintenance",
      "inputs": []
    },
    {
      "type": "error",
      "name": "ErrAlreadyScheduled",
      "inputs": []
    },
    {
      "type": "error",
      "name": "ErrContractTypeNotFound",
      "inputs": [
        {
          "name": "contractType",
          "type": "uint8",
          "internalType": "enum ContractType"
        }
      ]
    },
    {
      "type": "error",
      "name": "ErrCooldownTimeNotYetEnded",
      "inputs": []
    },
    {
      "type": "error",
      "name": "ErrEndBlockOutOfRange",
      "inputs": []
    },
    {
      "type": "error",
      "name": "ErrInvalidMaintenanceDuration",
      "inputs": []
    },
    {
      "type": "error",
      "name": "ErrInvalidMaintenanceDurationConfig",
      "inputs": []
    },
    {
      "type": "error",
      "name": "ErrInvalidOffsetToStartScheduleConfigs",
      "inputs": []
    },
    {
      "type": "error",
      "name": "ErrStartBlockOutOfRange",
      "inputs": []
    },
    {
      "type": "error",
      "name": "ErrTotalOfSchedulesExceeded",
      "inputs": []
    },
    {
      "type": "error",
      "name": "ErrUnauthorized",
      "inputs": [
        {
          "name": "msgSig",
          "type": "bytes4",
          "internalType": "bytes4"
        },
        {
          "name": "expectedRole",
          "type": "uint8",
          "internalType": "enum RoleAccess"
        }
      ]
    },
    {
      "type": "error",
      "name": "ErrUnexistedSchedule",
      "inputs": []
    },
    {
      "type": "error",
      "name": "ErrZeroCodeContract",
      "inputs": [
        {
          "name": "addr",
          "type": "address",
          "internalType": "address"
        }
      ]
    }
  ],
  "address": "0x4815EF977a106d818E17478eAa937AEed8c8cbbc",
  "args": "0x",
  "blockNumber": 17360399,
  "bytecode": "0x608060405234801561001057600080fd5b5061001961001e565b6100eb565b600054600160a81b900460ff161561008c5760405162461bcd60e51b815260206004820152602760248201527f496e697469616c697a61626c653a20636f6e747261637420697320696e697469604482015266616c697a696e6760c81b606482015260840160405180910390fd5b60005460ff600160a01b909104811610156100e9576000805460ff60a01b191660ff60a01b17905560405160ff81527f7f26b83ff96e1f2b6a682f133852f6798a09c465da95921460cefb38474024989060200160405180910390a15b565b6117fb806100fa6000396000f3fe608060405234801561001057600080fd5b50600436106101775760003560e01c8063865e6fd3116100d8578063c09fe4601161008c578063dec3628411610066578063dec3628414610324578063f0caaafb1461032d578063fdadda811461034057600080fd5b8063c09fe460146102a0578063d39fee34146102b3578063de981f1b146102f957600080fd5b8063ba7e57bb116100bd578063ba7e57bb14610285578063bc1710e91461028e578063bfa89b9b1461029757600080fd5b8063865e6fd314610252578063ba3037551461026557600080fd5b80632ddc08a21161012f5780637a50802d116101145780637a50802d1461022e5780638142951a1461023757806384a9573b1461024a57600080fd5b80632ddc08a2146101f65780635cd8a76b1461022657600080fd5b806309e34c381161016057806309e34c38146101b75780630fbeb37f146101ce5780632d538c2c146101e157600080fd5b806301b502091461017c578063088e8de7146101a4575b600080fd5b61018f61018a366004611360565b610353565b60405190151581526020015b60405180910390f35b61018f6101b2366004611384565b610385565b6101c060025481565b60405190815260200161019b565b61018f6101dc3660046113b9565b61039a565b6101f46101ef366004611384565b6103d1565b005b61018f610204366004611360565b6001600160a01b03166000908152600160208190526040909120015443111590565b6101f46108a9565b6101c060055481565b6101f46102453660046113e5565b610a00565b6101c0610b6e565b6101f4610260366004611449565b610c46565b6102786102733660046114cc565b610c65565b60405161019b919061151d565b6101c060065481565b6101c060045481565b6101c060035481565b6101f46102ae366004611563565b610d1b565b6102c66102c1366004611360565b610d39565b60405161019b91908151815260208083015190820152604080830151908201526060918201519181019190915260800190565b61030c6103073660046115a6565b610db1565b6040516001600160a01b03909116815260200161019b565b6101c060075481565b6101f461033b366004611360565b610e45565b61027861034e3660046115c1565b610fda565b6007546001600160a01b038216600090815260016020526040812060030154909161037d91611623565b421192915050565b600061039284848461108e565b949350505050565b6001600160a01b0382166000908152600160205260408120805483108015906103c7575080600101548311155b9150505b92915050565b60006103dd6008610db1565b6040517f65244ece0000000000000000000000000000000000000000000000000000000081526001600160a01b038681166004830152919250908216906365244ece90602401602060405180830381865afa158015610440573d6000803e3d6000fd5b505050506040513d601f19601f820116820180604052508101906104649190611636565b61049a576000356001600160e01b0319166007604051620f948f60ea1b815260040161049192919061166e565b60405180910390fd5b6040516304d971ab60e01b81526001600160a01b0385811660048301523360248301528216906304d971ab90604401602060405180830381865afa1580156104e6573d6000803e3d6000fd5b505050506040513d601f19601f8201168201806040525081019061050a9190611636565b610537576000356001600160e01b0319166004604051620f948f60ea1b815260040161049192919061166e565b6001600160a01b03841660009081526001602081905260409091200154431161058c576040517fb194497700000000000000000000000000000000000000000000000000000000815260040160405180910390fd5b61059584610353565b6105cb576040517f40fbfaee00000000000000000000000000000000000000000000000000000000815260040160405180910390fd5b6006546105d6610b6e565b1061060d576040517f437494d300000000000000000000000000000000000000000000000000000000815260040160405180910390fd5b6106336004544361061e9190611623565b60055461062b9043611623565b8591906110c6565b610650576040516301f19fb760e61b815260040160405180910390fd5b818310610670576040516301f19fb760e61b815260040160405180910390fd5b600061067c848461169c565b610687906001611623565b90506106a2600254600354836110c69092919063ffffffff16565b6106d8576040517fa1f1aaf500000000000000000000000000000000000000000000000000000000815260040160405180910390fd5b6001600160a01b038216637593ff716106f260018761169c565b6040518263ffffffff1660e01b815260040161071091815260200190565b602060405180830381865afa15801561072d573d6000803e3d6000fd5b505050506040513d601f19601f820116820180604052508101906107519190611636565b61076e576040516301f19fb760e61b815260040160405180910390fd5b6040517f7593ff71000000000000000000000000000000000000000000000000000000008152600481018490526001600160a01b03831690637593ff7190602401602060405180830381865afa1580156107cc573d6000803e3d6000fd5b505050506040513d601f19601f820116820180604052508101906107f09190611636565b610826576040517fec67bbc500000000000000000000000000000000000000000000000000000000815260040160405180910390fd5b6001600160a01b0385166000818152600160208181526040928390208881559182018790554360028301819055426003840181905584518a815292830189905293820152606081019290925291907f48e8b2f7348b1ec693bbb999258a8d6bd514732a19c6057b6e2a56a4c405253b9060800160405180910390a2505050505050565b600054600290600160a81b900460ff161580156108d4575060005460ff808316600160a01b90920416105b6109465760405162461bcd60e51b815260206004820152602e60248201527f496e697469616c697a61626c653a20636f6e747261637420697320616c72656160448201527f647920696e697469616c697a65640000000000000000000000000000000000006064820152608401610491565b6000805460ff60a81b1960ff8416600160a01b02167fffffffffffffffffffff0000ffffffffffffffffffffffffffffffffffffffff90911617600160a81b179081905561099f906008906001600160a01b03166110dd565b600080547fffffffffffffffffffff00ff000000000000000000000000000000000000000016905560405160ff821681527f7f26b83ff96e1f2b6a682f133852f6798a09c465da95921460cefb38474024989060200160405180910390a150565b600054600160a81b900460ff1615808015610a2857506000546001600160a01b90910460ff16105b80610a495750303b158015610a495750600054600160a01b900460ff166001145b610abb5760405162461bcd60e51b815260206004820152602e60248201527f496e697469616c697a61626c653a20636f6e747261637420697320616c72656160448201527f647920696e697469616c697a65640000000000000000000000000000000000006064820152608401610491565b600080547fffffffffffffffffffffff00ffffffffffffffffffffffffffffffffffffffff16600160a01b1790558015610b03576000805460ff60a81b1916600160a81b1790555b610b0e6008896110dd565b610b1c878787878787611199565b8015610b64576000805460ff60a81b19169055604051600181527f7f26b83ff96e1f2b6a682f133852f6798a09c465da95921460cefb38474024989060200160405180910390a15b5050505050505050565b600080610b7b6008610db1565b6001600160a01b031663b7ab4db56040518163ffffffff1660e01b8152600401600060405180830381865afa158015610bb8573d6000803e3d6000fd5b505050506040513d6000823e601f3d908101601f19168201604052610be091908101906116d0565b905060005b8151811015610c4157610c2d828281518110610c0357610c03611795565b60200260200101516001600160a01b03166000908152600160208190526040909120015443111590565b15610c39576001909201915b600101610be5565b505090565b610c4e611287565b610c57816112e3565b610c6182826110dd565b5050565b60608367ffffffffffffffff811115610c8057610c806116af565b604051908082528060200260200182016040528015610ca9578160200160208202803683370190505b50905060005b84811015610d1257610ce8868683818110610ccc57610ccc611795565b9050602002016020810190610ce19190611360565b858561108e565b828281518110610cfa57610cfa611795565b91151560209283029190910190910152600101610caf565b50949350505050565b610d23611287565b610d31868686868686611199565b505050505050565b610d646040518060800160405280600081526020016000815260200160008152602001600081525090565b506001600160a01b03166000908152600160208181526040928390208351608081018552815481529281015491830191909152600281015492820192909252600390910154606082015290565b60007fdea3103d22025c269050bea94c0c84688877f12fa22b7e6d2d5d78a9a49aa1cb600083600f811115610de857610de8611658565b60ff1681526020810191909152604001600020546001600160a01b0316905080610e4057816040517f812281be00000000000000000000000000000000000000000000000000000000815260040161049191906117ab565b919050565b610e4f6008610db1565b6040516304d971ab60e01b81526001600160a01b03838116600483015233602483015291909116906304d971ab90604401602060405180830381865afa158015610e9d573d6000803e3d6000fd5b505050506040513d601f19601f82011682018060405250810190610ec19190611636565b610eee576000356001600160e01b0319166004604051620f948f60ea1b815260040161049192919061166e565b6001600160a01b03811660009081526001602081905260409091200154431115610f44576040517ff7050bef00000000000000000000000000000000000000000000000000000000815260040160405180910390fd5b610f4e814361039a565b15610f85576040517f070dff8300000000000000000000000000000000000000000000000000000000815260040160405180910390fd5b6001600160a01b0381166000818152600160208190526040808320838155918201839055436002830155519092917f72720a31deb222f77bbf95b88a540154648466770e5f41328ee1e25e5050737791a25050565b60608267ffffffffffffffff811115610ff557610ff56116af565b60405190808252806020026020018201604052801561101e578160200160208202803683370190505b50905060005b838110156110865761105c85858381811061104157611041611795565b90506020020160208101906110569190611360565b8461039a565b82828151811061106e5761106e611795565b91151560209283029190910190910152600101611024565b509392505050565b6001600160a01b0383166000908152600160208190526040822080549181015490916110bd9186918691611335565b95945050505050565b600083831115801561039257505090911115919050565b807fdea3103d22025c269050bea94c0c84688877f12fa22b7e6d2d5d78a9a49aa1cb600084600f81111561111357611113611658565b60ff168152602081019190915260400160002080547fffffffffffffffffffffffff0000000000000000000000000000000000000000166001600160a01b03928316179055811682600f81111561116c5761116c611658565b6040517f865d1c228a8ea13709cfe61f346f7ff67f1bbd4a18ff31ad3e7147350d317c5990600090a35050565b8486106111d2576040517f71e80c4a00000000000000000000000000000000000000000000000000000000815260040160405180910390fd5b82841061120b576040517fb63e3f7800000000000000000000000000000000000000000000000000000000815260040160405180910390fd5b6002869055600385905560048490556005839055600682905560078190556040805187815260208101879052908101859052606081018490526080810183905260a081018290527f4edb6adef66a4b8e1ffbc8c67640d4f244ce904193fd65e5cc316bbb74b2e59b9060c00160405180910390a1505050505050565b7fb53127684a568b3173ae13b9f8a6016e243e63b6e8ee1178d6a717850b5d6103546001600160a01b031633146112e1576000356001600160e01b0319166001604051620f948f60ea1b815260040161049192919061166e565b565b806001600160a01b03163b600003611332576040517f2ff1928c0000000000000000000000000000000000000000000000000000000081526001600160a01b0382166004820152602401610491565b50565b60008185111580156110bd575050501115919050565b6001600160a01b038116811461133257600080fd5b60006020828403121561137257600080fd5b813561137d8161134b565b9392505050565b60008060006060848603121561139957600080fd5b83356113a48161134b565b95602085013595506040909401359392505050565b600080604083850312156113cc57600080fd5b82356113d78161134b565b946020939093013593505050565b600080600080600080600060e0888a03121561140057600080fd5b873561140b8161134b565b9960208901359950604089013598606081013598506080810135975060a0810135965060c00135945092505050565b803560108110610e4057600080fd5b6000806040838503121561145c57600080fd5b6114658361143a565b915060208301356114758161134b565b809150509250929050565b60008083601f84011261149257600080fd5b50813567ffffffffffffffff8111156114aa57600080fd5b6020830191508360208260051b85010111156114c557600080fd5b9250929050565b600080600080606085870312156114e257600080fd5b843567ffffffffffffffff8111156114f957600080fd5b61150587828801611480565b90989097506020870135966040013595509350505050565b6020808252825182820181905260009190848201906040850190845b81811015611557578351151583529284019291840191600101611539565b50909695505050505050565b60008060008060008060c0878903121561157c57600080fd5b505084359660208601359650604086013595606081013595506080810135945060a0013592509050565b6000602082840312156115b857600080fd5b61137d8261143a565b6000806000604084860312156115d657600080fd5b833567ffffffffffffffff8111156115ed57600080fd5b6115f986828701611480565b909790965060209590950135949350505050565b634e487b7160e01b600052601160045260246000fd5b808201808211156103cb576103cb61160d565b60006020828403121561164857600080fd5b8151801515811461137d57600080fd5b634e487b7160e01b600052602160045260246000fd5b6001600160e01b03198316815260408101600b831061168f5761168f611658565b8260208301529392505050565b818103818111156103cb576103cb61160d565b634e487b7160e01b600052604160045260246000fd5b8051610e408161134b565b600060208083850312156116e357600080fd5b825167ffffffffffffffff808211156116fb57600080fd5b818501915085601f83011261170f57600080fd5b815181811115611721576117216116af565b8060051b604051601f19603f83011681018181108582111715611746576117466116af565b60405291825284820192508381018501918883111561176457600080fd5b938501935b828510156117895761177a856116c5565b84529385019392850192611769565b98975050505050505050565b634e487b7160e01b600052603260045260246000fd5b60208101601083106117bf576117bf611658565b9190529056fea26469706673582212204e7ed8448d24623626dcf81f5e962b4492428ce275068f3962ecf7836d7480a764736f6c63430008150033",
  "chainId": 2022,
  "contractAbsolutePath": "Maintenance.sol",
  "deployer": "0x968D0Cd7343f711216817E617d3f92a23dC91c07",
  "devdoc": {
    "version": 1,
    "kind": "dev",
    "methods": {
      "cancelSchedule(address)": {
        "details": "Cancel the schedule of maintenance for the `_consensusAddr`. Requirements: - The candidate `_consensusAddr` is the block producer. - The method caller is candidate admin of the candidate `_consensusAddr`. - A schedule for the `_consensusAddr` must be existent and not executed yet. Emits the event `MaintenanceScheduleCancelled`."
      },
      "checkCooldownEnded(address)": {
        "details": "Returns whether the validator `_consensusAddr`"
      },
      "checkMaintained(address,uint256)": {
        "details": "Returns whether the validator `_consensusAddr` maintained at the block number `_block`."
      },
      "checkMaintainedInBlockRange(address,uint256,uint256)": {
        "details": "Returns whether the validator `_consensusAddr` maintained in the inclusive range [`_fromBlock`, `_toBlock`] of blocks."
      },
      "checkManyMaintained(address[],uint256)": {
        "details": "Returns the bool array indicating the validators maintained at block number `_block` or not."
      },
      "checkManyMaintainedInBlockRange(address[],uint256,uint256)": {
        "details": "Returns a bool array indicating the validators maintained in the inclusive range [`_fromBlock`, `_toBlock`] of blocks or not."
      },
      "checkScheduled(address)": {
        "details": "Returns whether the validator `_consensusAddr` has scheduled."
      },
      "getContract(uint8)": {
        "details": "Returns the address of a contract with a specific role. Throws an error if no contract is set for the specified role.",
        "params": {
          "contractType": "The role of the contract to retrieve."
        },
        "returns": {
          "contract_": "The address of the contract with the specified role."
        }
      },
      "getSchedule(address)": {
        "details": "Returns the detailed schedule of the validator `_consensusAddr`."
      },
      "initialize(address,uint256,uint256,uint256,uint256,uint256,uint256)": {
        "details": "Initializes the contract storage."
      },
      "schedule(address,uint256,uint256)": {
        "details": "Schedules for maintenance from `_startedAtBlock` to `_startedAtBlock`. Requirements: - The candidate `_consensusAddr` is the block producer. - The method caller is candidate admin of the candidate `_consensusAddr`. - The candidate `_consensusAddr` has no schedule yet or the previous is done. - The total number of schedules is not larger than `maxSchedules()`. - The start block must be at least `minOffsetToStartSchedule()` and at most `maxOffsetToStartSchedule()` blocks from the current block. - The end block is larger than the start block. - The scheduled duration is larger than the `minMaintenanceDurationInBlock()` and less than the `maxMaintenanceDurationInBlock()`. - The start block is at the start of an epoch. - The end block is at the end of an epoch. Emits the event `MaintenanceScheduled`."
      },
      "setContract(uint8,address)": {
        "details": "Sets the address of a contract with a specific role. Emits the event {ContractUpdated}.",
        "params": {
          "addr": "The address of the contract to set.",
          "contractType": "The role of the contract to set."
        }
      },
      "setMaintenanceConfig(uint256,uint256,uint256,uint256,uint256,uint256)": {
        "details": "Sets the duration restriction, start time restriction, and max allowed for maintenance. Requirements: - The method caller is admin. - The max duration is larger than the min duration. - The max offset is larger than the min offset. Emits the event `MaintenanceConfigUpdated`."
      },
      "totalSchedule()": {
        "details": "Returns the total of current schedules."
      }
    },
    "events": {
      "ContractUpdated(uint8,address)": {
        "details": "Emitted when a contract is updated."
      },
      "Initialized(uint8)": {
        "details": "Triggered when the contract has been initialized or reinitialized."
      },
      "MaintenanceConfigUpdated(uint256,uint256,uint256,uint256,uint256,uint256)": {
        "details": "Emitted when the maintenance config is updated."
      },
      "MaintenanceScheduleCancelled(address)": {
        "details": "Emitted when a schedule of maintenance is cancelled."
      },
      "MaintenanceScheduled(address,(uint256,uint256,uint256,uint256))": {
        "details": "Emitted when a maintenance is scheduled."
      }
    },
    "errors": {
      "ErrAlreadyOnMaintenance()": [
        {
          "details": "Error thrown when attempting to initiate maintenance while already in maintenance mode."
        }
      ],
      "ErrAlreadyScheduled()": [
        {
          "details": "Error thrown when attempting to schedule an already scheduled event."
        }
      ],
      "ErrContractTypeNotFound(uint8)": [
        {
          "details": "Error of invalid role."
        }
      ],
      "ErrCooldownTimeNotYetEnded()": [
        {
          "details": "Error thrown when attempting an action before the cooldown period has ended."
        }
      ],
      "ErrEndBlockOutOfRange()": [
        {
          "details": "Error thrown when the end block of a schedule is out of range."
        }
      ],
      "ErrInvalidMaintenanceDuration()": [
        {
          "details": "Error thrown when an invalid maintenance duration is specified."
        }
      ],
      "ErrInvalidMaintenanceDurationConfig()": [
        {
          "details": "Error thrown when an invalid maintenance duration configuration is provided."
        }
      ],
      "ErrInvalidOffsetToStartScheduleConfigs()": [
        {
          "details": "Error thrown when an invalid offset is specified to start the schedule configurations."
        }
      ],
      "ErrStartBlockOutOfRange()": [
        {
          "details": "Error thrown when the start block of a schedule is out of range."
        }
      ],
      "ErrTotalOfSchedulesExceeded()": [
        {
          "details": "Error thrown when the total number of schedules exceeds the limit."
        }
      ],
      "ErrUnauthorized(bytes4,uint8)": [
        {
          "details": "Error indicating that the caller is unauthorized to perform a specific function.",
          "params": {
            "expectedRole": "The role required to perform the function.",
            "msgSig": "The function signature (bytes4) that the caller is unauthorized to perform."
          }
        }
      ],
      "ErrUnexistedSchedule()": [
        {
          "details": "Error thrown when referring to a non-existent schedule."
        }
      ],
      "ErrZeroCodeContract(address)": [
        {
          "details": "Error of set to non-contract."
        }
      ]
    }
  },
  "isFoundry": true,
  "nonce": 183834,
  "numDeployments": 2,
  "storageLayout": {
    "storage": [
      {
        "astId": 37112,
        "contract": "contracts/ronin/Maintenance.sol:Maintenance",
        "label": "______deprecatedValidator",
        "offset": 0,
        "slot": "0",
        "type": "t_address"
      },
      {
        "astId": 144650,
        "contract": "contracts/ronin/Maintenance.sol:Maintenance",
        "label": "_initialized",
        "offset": 20,
        "slot": "0",
        "type": "t_uint8"
      },
      {
        "astId": 144653,
        "contract": "contracts/ronin/Maintenance.sol:Maintenance",
        "label": "_initializing",
        "offset": 21,
        "slot": "0",
        "type": "t_bool"
      },
      {
        "astId": 19527,
        "contract": "contracts/ronin/Maintenance.sol:Maintenance",
        "label": "_schedule",
        "offset": 0,
        "slot": "1",
        "type": "t_mapping(t_address,t_struct(Schedule)7081_storage)"
      },
      {
        "astId": 19530,
        "contract": "contracts/ronin/Maintenance.sol:Maintenance",
        "label": "minMaintenanceDurationInBlock",
        "offset": 0,
        "slot": "2",
        "type": "t_uint256"
      },
      {
        "astId": 19533,
        "contract": "contracts/ronin/Maintenance.sol:Maintenance",
        "label": "maxMaintenanceDurationInBlock",
        "offset": 0,
        "slot": "3",
        "type": "t_uint256"
      },
      {
        "astId": 19536,
        "contract": "contracts/ronin/Maintenance.sol:Maintenance",
        "label": "minOffsetToStartSchedule",
        "offset": 0,
        "slot": "4",
        "type": "t_uint256"
      },
      {
        "astId": 19539,
        "contract": "contracts/ronin/Maintenance.sol:Maintenance",
        "label": "maxOffsetToStartSchedule",
        "offset": 0,
        "slot": "5",
        "type": "t_uint256"
      },
      {
        "astId": 19542,
        "contract": "contracts/ronin/Maintenance.sol:Maintenance",
        "label": "maxSchedule",
        "offset": 0,
        "slot": "6",
        "type": "t_uint256"
      },
      {
        "astId": 19545,
        "contract": "contracts/ronin/Maintenance.sol:Maintenance",
        "label": "cooldownSecsToMaintain",
        "offset": 0,
        "slot": "7",
        "type": "t_uint256"
      }
    ],
    "types": {
      "t_address": {
        "encoding": "inplace",
        "label": "address",
        "numberOfBytes": "20"
      },
      "t_bool": {
        "encoding": "inplace",
        "label": "bool",
        "numberOfBytes": "1"
      },
      "t_mapping(t_address,t_struct(Schedule)7081_storage)": {
        "encoding": "mapping",
        "key": "t_address",
        "label": "mapping(address => struct IMaintenance.Schedule)",
        "numberOfBytes": "32",
        "value": "t_struct(Schedule)7081_storage"
      },
      "t_struct(Schedule)7081_storage": {
        "encoding": "inplace",
        "label": "struct IMaintenance.Schedule",
        "numberOfBytes": "128",
        "members": [
          {
            "astId": 7074,
            "contract": "contracts/ronin/Maintenance.sol:Maintenance",
            "label": "from",
            "offset": 0,
            "slot": "0",
            "type": "t_uint256"
          },
          {
            "astId": 7076,
            "contract": "contracts/ronin/Maintenance.sol:Maintenance",
            "label": "to",
            "offset": 0,
            "slot": "1",
            "type": "t_uint256"
          },
          {
            "astId": 7078,
            "contract": "contracts/ronin/Maintenance.sol:Maintenance",
            "label": "lastUpdatedBlock",
            "offset": 0,
            "slot": "2",
            "type": "t_uint256"
          },
          {
            "astId": 7080,
            "contract": "contracts/ronin/Maintenance.sol:Maintenance",
            "label": "requestTimestamp",
            "offset": 0,
            "slot": "3",
            "type": "t_uint256"
          }
        ]
      },
      "t_uint256": {
        "encoding": "inplace",
        "label": "uint256",
        "numberOfBytes": "32"
      },
      "t_uint8": {
        "encoding": "inplace",
        "label": "uint8",
        "numberOfBytes": "1"
      }
    }
  },
  "timestamp": 1701579792,
  "userdoc": {
    "version": 1,
    "kind": "user"
  }
}