{
  "abi": [
    {
      "type": "constructor",
      "inputs": [],
      "stateMutability": "nonpayable"
    },
    {
      "type": "function",
      "name": "addNewProfile",
      "inputs": [
        {
          "name": "profile",
          "type": "tuple",
          "internalType": "struct IProfile.CandidateProfile",
          "components": [
            {
              "name": "id",
              "type": "address",
              "internalType": "address"
            },
            {
              "name": "consensus",
              "type": "address",
              "internalType": "address"
            },
            {
              "name": "admin",
              "type": "address",
              "internalType": "address"
            },
            {
              "name": "treasury",
              "type": "address",
              "internalType": "address payable"
            },
            {
              "name": "governor",
              "type": "address",
              "internalType": "address"
            },
            {
              "name": "pubkey",
              "type": "bytes",
              "internalType": "bytes"
            }
          ]
        }
      ],
      "outputs": [],
      "stateMutability": "nonpayable"
    },
    {
      "type": "function",
      "name": "changePubkey",
      "inputs": [
        {
          "name": "id",
          "type": "address",
          "internalType": "address"
        },
        {
          "name": "pubkey",
          "type": "bytes",
          "internalType": "bytes"
        }
      ],
      "outputs": [],
      "stateMutability": "nonpayable"
    },
    {
      "type": "function",
      "name": "getContract",
      "inputs": [
        {
          "name": "contractType",
          "type": "uint8",
          "internalType": "enum ContractType"
        }
      ],
      "outputs": [
        {
          "name": "contract_",
          "type": "address",
          "internalType": "address"
        }
      ],
      "stateMutability": "view"
    },
    {
      "type": "function",
      "name": "getId2Profile",
      "inputs": [
        {
          "name": "id",
          "type": "address",
          "internalType": "address"
        }
      ],
      "outputs": [
        {
          "name": "",
          "type": "tuple",
          "internalType": "struct IProfile.CandidateProfile",
          "components": [
            {
              "name": "id",
              "type": "address",
              "internalType": "address"
            },
            {
              "name": "consensus",
              "type": "address",
              "internalType": "address"
            },
            {
              "name": "admin",
              "type": "address",
              "internalType": "address"
            },
            {
              "name": "treasury",
              "type": "address",
              "internalType": "address payable"
            },
            {
              "name": "governor",
              "type": "address",
              "internalType": "address"
            },
            {
              "name": "pubkey",
              "type": "bytes",
              "internalType": "bytes"
            }
          ]
        }
      ],
      "stateMutability": "view"
    },
    {
      "type": "function",
      "name": "initialize",
      "inputs": [
        {
          "name": "validatorContract",
          "type": "address",
          "internalType": "address"
        }
      ],
      "outputs": [],
      "stateMutability": "nonpayable"
    },
    {
      "type": "function",
      "name": "migrateMainnetV2",
      "inputs": [],
      "outputs": [],
      "stateMutability": "nonpayable"
    },
    {
      "type": "function",
      "name": "registerProfile",
      "inputs": [
        {
          "name": "profile",
          "type": "tuple",
          "internalType": "struct IProfile.CandidateProfile",
          "components": [
            {
              "name": "id",
              "type": "address",
              "internalType": "address"
            },
            {
              "name": "consensus",
              "type": "address",
              "internalType": "address"
            },
            {
              "name": "admin",
              "type": "address",
              "internalType": "address"
            },
            {
              "name": "treasury",
              "type": "address",
              "internalType": "address payable"
            },
            {
              "name": "governor",
              "type": "address",
              "internalType": "address"
            },
            {
              "name": "pubkey",
              "type": "bytes",
              "internalType": "bytes"
            }
          ]
        }
      ],
      "outputs": [],
      "stateMutability": "nonpayable"
    },
    {
      "type": "function",
      "name": "setContract",
      "inputs": [
        {
          "name": "contractType",
          "type": "uint8",
          "internalType": "enum ContractType"
        },
        {
          "name": "addr",
          "type": "address",
          "internalType": "address"
        }
      ],
      "outputs": [],
      "stateMutability": "nonpayable"
    },
    {
      "type": "event",
      "name": "ContractUpdated",
      "inputs": [
        {
          "name": "contractType",
          "type": "uint8",
          "indexed": true,
          "internalType": "enum ContractType"
        },
        {
          "name": "addr",
          "type": "address",
          "indexed": true,
          "internalType": "address"
        }
      ],
      "anonymous": false
    },
    {
      "type": "event",
      "name": "Initialized",
      "inputs": [
        {
          "name": "version",
          "type": "uint8",
          "indexed": false,
          "internalType": "uint8"
        }
      ],
      "anonymous": false
    },
    {
      "type": "event",
      "name": "ProfileAdded",
      "inputs": [
        {
          "name": "id",
          "type": "address",
          "indexed": true,
          "internalType": "address"
        }
      ],
      "anonymous": false
    },
    {
      "type": "event",
      "name": "ProfileAddressChanged",
      "inputs": [
        {
          "name": "id",
          "type": "address",
          "indexed": true,
          "internalType": "address"
        },
        {
          "name": "addressType",
          "type": "uint8",
          "indexed": true,
          "internalType": "enum RoleAccess"
        }
      ],
      "anonymous": false
    },
    {
      "type": "event",
      "name": "PubkeyChanged",
      "inputs": [
        {
          "name": "id",
          "type": "address",
          "indexed": true,
          "internalType": "address"
        },
        {
          "name": "pubkey",
          "type": "bytes",
          "indexed": false,
          "internalType": "bytes"
        }
      ],
      "anonymous": false
    },
    {
      "type": "error",
      "name": "ErrContractTypeNotFound",
      "inputs": [
        {
          "name": "contractType",
          "type": "uint8",
          "internalType": "enum ContractType"
        }
      ]
    },
    {
      "type": "error",
      "name": "ErrDuplicatedInfo",
      "inputs": [
        {
          "name": "infoType",
          "type": "uint8",
          "internalType": "enum RoleAccess"
        },
        {
          "name": "value",
          "type": "uint256",
          "internalType": "uint256"
        }
      ]
    },
    {
      "type": "error",
      "name": "ErrDuplicatedPubkey",
      "inputs": [
        {
          "name": "pubkey",
          "type": "bytes",
          "internalType": "bytes"
        }
      ]
    },
    {
      "type": "error",
      "name": "ErrExistentProfile",
      "inputs": []
    },
    {
      "type": "error",
      "name": "ErrIdAndConsensusDiffer",
      "inputs": []
    },
    {
      "type": "error",
      "name": "ErrNonExistentProfile",
      "inputs": []
    },
    {
      "type": "error",
      "name": "ErrUnauthorized",
      "inputs": [
        {
          "name": "msgSig",
          "type": "bytes4",
          "internalType": "bytes4"
        },
        {
          "name": "expectedRole",
          "type": "uint8",
          "internalType": "enum RoleAccess"
        }
      ]
    },
    {
      "type": "error",
      "name": "ErrZeroAddress",
      "inputs": [
        {
          "name": "infoType",
          "type": "uint8",
          "internalType": "enum RoleAccess"
        }
      ]
    },
    {
      "type": "error",
      "name": "ErrZeroCodeContract",
      "inputs": [
        {
          "name": "addr",
          "type": "address",
          "internalType": "address"
        }
      ]
    },
    {
      "type": "error",
      "name": "ErrZeroPubkey",
      "inputs": []
    }
  ],
  "address": "0xBc008322055B553b68a54129d5561bdF569a208A",
  "args": "0x",
  "blockNumber": 17360399,
  "bytecode": "0x608060405234801561001057600080fd5b5061001961001e565b6100de565b603354610100900460ff161561008a5760405162461bcd60e51b815260206004820152602760248201527f496e697469616c697a61626c653a20636f6e747261637420697320696e697469604482015266616c697a696e6760c81b606482015260840160405180910390fd5b60335460ff90811610156100dc576033805460ff191660ff9081179091556040519081527f7f26b83ff96e1f2b6a682f133852f6798a09c465da95921460cefb38474024989060200160405180910390a15b565b611583806100ed6000396000f3fe608060405234801561001057600080fd5b50600436106100885760003560e01c806392d487561161005b57806392d48756146100d0578063c4d66de8146100e3578063de981f1b146100f6578063f46609401461012657600080fd5b806368a5c1231461008d578063865e6fd3146100a25780639029bc60146100b557806391486604146100c8575b600080fd5b6100a061009b3660046110b7565b610146565b005b6100a06100b0366004611116565b6101f3565b6100a06100c336600461114d565b610212565b6100a06103a5565b6100a06100de36600461114d565b610808565b6100a06100f1366004611215565b61084e565b610109610104366004611239565b610971565b6040516001600160a01b0390911681526020015b60405180910390f35b610139610134366004611215565b610a05565b60405161011d919061129a565b600061015183610b35565b60028101549091506001600160a01b0316331461019a576000356001600160e01b0319166001604051620f948f60ea1b815260040161019192919061132c565b60405180910390fd5b6101a382610b89565b6101ad8183610be2565b826001600160a01b03167fe13225a225fbfeebd9d707546f3d7adee5d72738ac686cc5b97266c49745a56b836040516101e6919061134a565b60405180910390a2505050565b6101fb610c28565b61020481610c84565b61020e8282610cd3565b5050565b80602001516001600160a01b031681600001516001600160a01b031614610265576040517f491db47500000000000000000000000000000000000000000000000000000000815260040160405180910390fd5b80516001600160a01b0390811660009081526020819052604090208054909116156102a35760405163249b38f960e01b815260040160405180910390fd5b81604001516001600160a01b0316336001600160a01b031614158061036457506102cd6008610971565b602083015160408085015190517f04d971ab0000000000000000000000000000000000000000000000000000000081526001600160a01b03928316600482015290821660248201529116906304d971ab90604401602060405180830381865afa15801561033e573d6000803e3d6000fd5b505050506040513d601f19601f82011682018060405250810190610362919061135d565b155b15610392576000356001600160e01b0319166001604051620f948f60ea1b815260040161019192919061132c565b61039b82610d84565b61020e8183610dcd565b466107e4146103f65760405162461bcd60e51b815260206004820152601060248201527f6d69736d6174636820636861696e4944000000000000000000000000000000006044820152606401610191565b734d58ea7231c394d5804e8b06b1365915f906e27f33146104595760405162461bcd60e51b815260206004820152601460248201527f6e6f74206d61696e6e6574206465706c6f7965720000000000000000000000006044820152606401610191565b604080516103a0810182527352c0dcd83aa1999ba6c3b0324c8299e30207373c815273f41af21f0a800dc4d86efb14ad46cfb9884fdf38602082015273e07d7e56588a6fd860c5073c70a099658c060f3d918101919091527352349003240770727900b06a3b3a90f5c0219ade6060820152732bddcaae1c6ccd53e436179b3fc07307ee6f3ef8608082015273ec702628f44c31acc56c3a59555be47e1f16eb1e60a082015273bd4bf317da1928cc2f9f4da9006401f3944a0ab560c082015273d11d9842babd5209b9b1155e46f5878c989125b760e08201527361089875ff9e506ae78c7fe9f7c388416520e38661010082015273d7fef73d95ccedb26483fd3c6c48393e507081596101208201527347cfcb64f8ea44d6ea7fab32f13efa2f8e65eec1610140820152738eec4f1c0878f73e8e09c1be78ac1465cc16544d610160820152739b959d27840a31988410ee69991bcf0110d61f0261018082015273ee11d2016e9f2fae606b2f12986811f4abbe62156101a082015273ca54a1700e0403dcb531f8db4ae3847758b90b016101c0820152734e7ea047ec7e95c7a02cb117128b94ccdd8356bf6101e0820152736e46924371d0e910769aabe0d867590deac2068461020082015273ae53daac1bf3c4633d4921b8c3f8d579e757f5bc6102208201527305ad3ded6fcc510324af8e2631717af6da5c8b5b6102408201527332d619dc6188409cebbc52f921ab306f07db085b61026082015273210744c64eea863cf0f972e5aebc683b98fb198461028082015273edcafc4ad8097c2012980a2a7087d74b86bddaf96102a082015273fc3e31519b551bd594235dd0ef014375a87c4e216102c0820152736aaabf51c5f6d2d93212cf7dad73d67afa0148d06102e08201527322c23429e46e7944d2918f2b368b799b11c417c16103008201527303a7b98c226225e330d11d1b9177891391fa4f806103208201527320238eb5643d4d7b7ab3c30f3bf7b8e2b85ca1e76103408201527307d28f88d677c4056ea6722aa35d92903b2a63da61036082015273262b9fcfe8cfa900af4d1f5c20396e969b9655dd6103808201526000805b601d811015610803576000808483601d811061078c5761078c61137f565b60200201516001600160a01b03166001600160a01b0316815260200190815260200160002091508281601d81106107c5576107c561137f565b6020020151825473ffffffffffffffffffffffffffffffffffffffff19166001600160a01b03909116178255806107fb81611395565b91505061076e565b505050565b610810610c28565b80516001600160a01b03908116600090815260208190526040902080549091161561039b5760405163249b38f960e01b815260040160405180910390fd5b603354610100900460ff161580801561086e5750603354600160ff909116105b806108885750303b158015610888575060335460ff166001145b6108fa5760405162461bcd60e51b815260206004820152602e60248201527f496e697469616c697a61626c653a20636f6e747261637420697320616c72656160448201527f647920696e697469616c697a65640000000000000000000000000000000000006064820152608401610191565b6033805460ff19166001179055801561091d576033805461ff0019166101001790555b610928600883610cd3565b801561020e576033805461ff0019169055604051600181527f7f26b83ff96e1f2b6a682f133852f6798a09c465da95921460cefb38474024989060200160405180910390a15050565b60007fdea3103d22025c269050bea94c0c84688877f12fa22b7e6d2d5d78a9a49aa1cb600083600f8111156109a8576109a8611302565b60ff1681526020810191909152604001600020546001600160a01b0316905080610a0057816040517f812281be00000000000000000000000000000000000000000000000000000000815260040161019191906113bc565b919050565b6040805160c0810182526000808252602082018190529181018290526060808201839052608082019290925260a08101919091526001600160a01b0380831660009081526020818152604091829020825160c081018452815485168152600182015485169281019290925260028101548416928201929092526003820154831660608201526004820154909216608083015260058101805460a084019190610aac906113d6565b80601f0160208091040260200160405190810160405280929190818152602001828054610ad8906113d6565b8015610b255780601f10610afa57610100808354040283529160200191610b25565b820191906000526020600020905b815481529060010190602001808311610b0857829003601f168201915b5050505050815250509050919050565b6001600160a01b0380821660009081526020819052604090208054909116610a00576040517f682a559600000000000000000000000000000000000000000000000000000000815260040160405180910390fd5b805160208083019190912060009081526001909152604090205460ff1615610bdf57806040517f7995d6c8000000000000000000000000000000000000000000000000000000008152600401610191919061134a565b50565b60058201610bf0828261145e565b506001806000610c0584805160209091012090565b81526020810191909152604001600020805460ff19169115159190911790555050565b7fb53127684a568b3173ae13b9f8a6016e243e63b6e8ee1178d6a717850b5d6103546001600160a01b03163314610c82576000356001600160e01b0319166001604051620f948f60ea1b815260040161019192919061132c565b565b806001600160a01b03163b600003610bdf576040517f2ff1928c0000000000000000000000000000000000000000000000000000000081526001600160a01b0382166004820152602401610191565b807fdea3103d22025c269050bea94c0c84688877f12fa22b7e6d2d5d78a9a49aa1cb600084600f811115610d0957610d09611302565b60ff1681526020810191909152604001600020805473ffffffffffffffffffffffffffffffffffffffff19166001600160a01b03928316179055811682600f811115610d5757610d57611302565b6040517f865d1c228a8ea13709cfe61f346f7ff67f1bbd4a18ff31ad3e7147350d317c5990600090a35050565b610d9360098260200151610ec9565b610da260048260400151610ec9565b610db1600a8260600151610ec9565b610dc0600a8260800151610f11565b610bdf8160a00151610b89565b805182546001600160a01b0391821673ffffffffffffffffffffffffffffffffffffffff1991821617845560208084015160018087018054928616928516831790556000918252918290526040808220805460ff199081168517909155818701516002890180549188169187168217905583528183208054821685179055606087015160038901805491909716951685179095559281529190912080549092161790556080810151610e80908390610f71565b610e8e828260a00151610be2565b80516040516001600160a01b03909116907fc9da0ae38bd4761b72da1045c9b2618f0cd991dcac01e1f9bbf68474025f074390600090a25050565b6001600160a01b038116610f0b57816040517f57ed62e4000000000000000000000000000000000000000000000000000000008152600401610191919061151e565b61020e82825b6001600160a01b03811660009081526001602052604090205460ff161561020e5781816001600160a01b03166040517fe4166aaa000000000000000000000000000000000000000000000000000000008152600401610191929190611532565b60048201805473ffffffffffffffffffffffffffffffffffffffff19166001600160a01b0383169081179091551561020e576001600160a01b03166000908152600160208190526040909120805460ff1916909117905550565b6001600160a01b0381168114610bdf57600080fd5b8035610a0081610fcb565b634e487b7160e01b600052604160045260246000fd5b60405160c0810167ffffffffffffffff8111828210171561102457611024610feb565b60405290565b600082601f83011261103b57600080fd5b813567ffffffffffffffff8082111561105657611056610feb565b604051601f8301601f19908116603f0116810190828211818310171561107e5761107e610feb565b8160405283815286602085880101111561109757600080fd5b836020870160208301376000602085830101528094505050505092915050565b600080604083850312156110ca57600080fd5b82356110d581610fcb565b9150602083013567ffffffffffffffff8111156110f157600080fd5b6110fd8582860161102a565b9150509250929050565b803560108110610a0057600080fd5b6000806040838503121561112957600080fd5b61113283611107565b9150602083013561114281610fcb565b809150509250929050565b60006020828403121561115f57600080fd5b813567ffffffffffffffff8082111561117757600080fd5b9083019060c0828603121561118b57600080fd5b611193611001565b823561119e81610fcb565b815260208301356111ae81610fcb565b602082015260408301356111c181610fcb565b60408201526111d260608401610fe0565b60608201526111e360808401610fe0565b608082015260a0830135828111156111fa57600080fd5b6112068782860161102a565b60a08301525095945050505050565b60006020828403121561122757600080fd5b813561123281610fcb565b9392505050565b60006020828403121561124b57600080fd5b61123282611107565b6000815180845260005b8181101561127a5760208185018101518683018201520161125e565b506000602082860101526020601f19601f83011685010191505092915050565b6020815260006001600160a01b038084511660208401528060208501511660408401528060408501511660608401528060608501511660808401528060808501511660a08401525060a083015160c0808401526112fa60e0840182611254565b949350505050565b634e487b7160e01b600052602160045260246000fd5b600b811061132857611328611302565b9052565b6001600160e01b031983168152604081016112326020830184611318565b6020815260006112326020830184611254565b60006020828403121561136f57600080fd5b8151801515811461123257600080fd5b634e487b7160e01b600052603260045260246000fd5b6000600182016113b557634e487b7160e01b600052601160045260246000fd5b5060010190565b60208101601083106113d0576113d0611302565b91905290565b600181811c908216806113ea57607f821691505b60208210810361140a57634e487b7160e01b600052602260045260246000fd5b50919050565b601f82111561080357600081815260208120601f850160051c810160208610156114375750805b601f850160051c820191505b8181101561145657828155600101611443565b505050505050565b815167ffffffffffffffff81111561147857611478610feb565b61148c8161148684546113d6565b84611410565b602080601f8311600181146114c157600084156114a95750858301515b600019600386901b1c1916600185901b178555611456565b600085815260208120601f198616915b828110156114f0578886015182559484019460019091019084016114d1565b508582101561150e5787850151600019600388901b60f8161c191681555b5050505050600190811b01905550565b6020810161152c8284611318565b92915050565b604081016115408285611318565b826020830152939250505056fea264697066735822122008c55ae2ddae34fb4f69443ad2e1c9387662e310d7fd482ca1832e0c032c05a864736f6c63430008150033",
  "chainId": 2022,
  "contractAbsolutePath": "Profile.sol",
  "deployer": "0x968D0Cd7343f711216817E617d3f92a23dC91c07",
  "devdoc": {
    "version": 1,
    "kind": "dev",
    "methods": {
      "addNewProfile((address,address,address,address,address,bytes))": {
        "details": "Requirements: - The profile must not be existent before. - Only contract admin can call this method."
      },
      "changePubkey(address,bytes)": {
        "details": "Requirements: - The profile must be existed. - Only user with candidate admin role can call this method. - New public key must not be duplicated."
      },
      "getContract(uint8)": {
        "details": "Returns the address of a contract with a specific role. Throws an error if no contract is set for the specified role.",
        "params": {
          "contractType": "The role of the contract to retrieve."
        },
        "returns": {
          "contract_": "The address of the contract with the specified role."
        }
      },
      "getId2Profile(address)": {
        "details": "Getter to query full `profile` from `id` address."
      },
      "registerProfile((address,address,address,address,address,bytes))": {
        "details": "Requirements: - The profile must not be existent before. - Only user with candidate admin role can call this method."
      },
      "setContract(uint8,address)": {
        "details": "Sets the address of a contract with a specific role. Emits the event {ContractUpdated}.",
        "params": {
          "addr": "The address of the contract to set.",
          "contractType": "The role of the contract to set."
        }
      }
    },
    "events": {
      "ContractUpdated(uint8,address)": {
        "details": "Emitted when a contract is updated."
      },
      "Initialized(uint8)": {
        "details": "Triggered when the contract has been initialized or reinitialized."
      },
      "ProfileAdded(address)": {
        "details": "Event emitted when a profile with `id` is added."
      },
      "ProfileAddressChanged(address,uint8)": {
        "details": "Event emitted when a address in a profile is changed."
      },
      "PubkeyChanged(address,bytes)": {
        "details": "Event emitted when the pubkey of the `id` is changed."
      }
    },
    "errors": {
      "ErrContractTypeNotFound(uint8)": [
        {
          "details": "Error of invalid role."
        }
      ],
      "ErrDuplicatedInfo(uint8,uint256)": [
        {
          "details": "Error when there is a duplicated info of `value`, which is uin256-padding value of any address or hash of public key, and with value type of `infoType`."
        }
      ],
      "ErrExistentProfile()": [
        {
          "details": "Error of already existed profile."
        }
      ],
      "ErrIdAndConsensusDiffer()": [
        {
          "details": "Error when create a new profile whose id and consensus are not identical."
        }
      ],
      "ErrNonExistentProfile()": [
        {
          "details": "Error of non existed profile."
        }
      ],
      "ErrUnauthorized(bytes4,uint8)": [
        {
          "details": "Error indicating that the caller is unauthorized to perform a specific function.",
          "params": {
            "expectedRole": "The role required to perform the function.",
            "msgSig": "The function signature (bytes4) that the caller is unauthorized to perform."
          }
        }
      ],
      "ErrZeroCodeContract(address)": [
        {
          "details": "Error of set to non-contract."
        }
      ]
    }
  },
  "isFoundry": true,
  "nonce": 183832,
  "numDeployments": 3,
  "storageLayout": {
    "storage": [
      {
        "astId": 26916,
        "contract": "contracts/ronin/profile/Profile.sol:Profile",
        "label": "_id2Profile",
        "offset": 0,
        "slot": "0",
        "type": "t_mapping(t_address,t_struct(CandidateProfile)7287_storage)"
      },
      {
        "astId": 26921,
        "contract": "contracts/ronin/profile/Profile.sol:Profile",
        "label": "_registry",
        "offset": 0,
        "slot": "1",
        "type": "t_mapping(t_uint256,t_bool)"
      },
      {
        "astId": 26926,
        "contract": "contracts/ronin/profile/Profile.sol:Profile",
        "label": "__gap",
        "offset": 0,
        "slot": "2",
        "type": "t_array(t_bytes32)49_storage"
      },
      {
        "astId": 144650,
        "contract": "contracts/ronin/profile/Profile.sol:Profile",
        "label": "_initialized",
        "offset": 0,
        "slot": "51",
        "type": "t_uint8"
      },
      {
        "astId": 144653,
        "contract": "contracts/ronin/profile/Profile.sol:Profile",
        "label": "_initializing",
        "offset": 1,
        "slot": "51",
        "type": "t_bool"
      }
    ],
    "types": {
      "t_address": {
        "encoding": "inplace",
        "label": "address",
        "numberOfBytes": "20"
      },
      "t_address_payable": {
        "encoding": "inplace",
        "label": "address payable",
        "numberOfBytes": "20"
      },
      "t_array(t_bytes32)49_storage": {
        "encoding": "inplace",
        "label": "bytes32[49]",
        "numberOfBytes": "1568",
        "base": "t_bytes32"
      },
      "t_bool": {
        "encoding": "inplace",
        "label": "bool",
        "numberOfBytes": "1"
      },
      "t_bytes32": {
        "encoding": "inplace",
        "label": "bytes32",
        "numberOfBytes": "32"
      },
      "t_bytes_storage": {
        "encoding": "bytes",
        "label": "bytes",
        "numberOfBytes": "32"
      },
      "t_mapping(t_address,t_struct(CandidateProfile)7287_storage)": {
        "encoding": "mapping",
        "key": "t_address",
        "label": "mapping(address => struct IProfile.CandidateProfile)",
        "numberOfBytes": "32",
        "value": "t_struct(CandidateProfile)7287_storage"
      },
      "t_mapping(t_uint256,t_bool)": {
        "encoding": "mapping",
        "key": "t_uint256",
        "label": "mapping(uint256 => bool)",
        "numberOfBytes": "32",
        "value": "t_bool"
      },
      "t_struct(CandidateProfile)7287_storage": {
        "encoding": "inplace",
        "label": "struct IProfile.CandidateProfile",
        "numberOfBytes": "192",
        "members": [
          {
            "astId": 7271,
            "contract": "contracts/ronin/profile/Profile.sol:Profile",
            "label": "id",
            "offset": 0,
            "slot": "0",
            "type": "t_address"
          },
          {
            "astId": 7274,
            "contract": "contracts/ronin/profile/Profile.sol:Profile",
            "label": "consensus",
            "offset": 0,
            "slot": "1",
            "type": "t_address"
          },
          {
            "astId": 7277,
            "contract": "contracts/ronin/profile/Profile.sol:Profile",
            "label": "admin",
            "offset": 0,
            "slot": "2",
            "type": "t_address"
          },
          {
            "astId": 7280,
            "contract": "contracts/ronin/profile/Profile.sol:Profile",
            "label": "treasury",
            "offset": 0,
            "slot": "3",
            "type": "t_address_payable"
          },
          {
            "astId": 7283,
            "contract": "contracts/ronin/profile/Profile.sol:Profile",
            "label": "governor",
            "offset": 0,
            "slot": "4",
            "type": "t_address"
          },
          {
            "astId": 7286,
            "contract": "contracts/ronin/profile/Profile.sol:Profile",
            "label": "pubkey",
            "offset": 0,
            "slot": "5",
            "type": "t_bytes_storage"
          }
        ]
      },
      "t_uint256": {
        "encoding": "inplace",
        "label": "uint256",
        "numberOfBytes": "32"
      },
      "t_uint8": {
        "encoding": "inplace",
        "label": "uint8",
        "numberOfBytes": "1"
      }
    }
  },
  "timestamp": 1701579792,
  "userdoc": {
    "version": 1,
    "kind": "user",
    "methods": {
      "addNewProfile((address,address,address,address,address,bytes))": {
        "notice": "Add a new profile."
      },
      "changePubkey(address,bytes)": {
        "notice": "The candidate admin changes the public key."
      },
      "registerProfile((address,address,address,address,address,bytes))": {
        "notice": "The candidate admin registers a new profile."
      }
    }
  }
}