{
  "abi": [
    {
      "type": "constructor",
      "inputs": [],
      "stateMutability": "nonpayable"
    },
    {
      "type": "fallback",
      "stateMutability": "payable"
    },
    {
      "type": "receive",
      "stateMutability": "payable"
    },
    {
      "type": "function",
      "name": "DEFAULT_ADDITION_GAS",
      "inputs": [],
      "outputs": [
        {
          "name": "",
          "type": "uint256",
          "internalType": "uint256"
        }
      ],
      "stateMutability": "view"
    },
    {
      "type": "function",
      "name": "PERIOD_DURATION",
      "inputs": [],
      "outputs": [
        {
          "name": "",
          "type": "uint256",
          "internalType": "uint256"
        }
      ],
      "stateMutability": "view"
    },
    {
      "type": "function",
      "name": "checkJailed",
      "inputs": [
        {
          "name": "_addr",
          "type": "address",
          "internalType": "address"
        }
      ],
      "outputs": [
        {
          "name": "",
          "type": "bool",
          "internalType": "bool"
        }
      ],
      "stateMutability": "view"
    },
    {
      "type": "function",
      "name": "checkJailedAtBlock",
      "inputs": [
        {
          "name": "_addr",
          "type": "address",
          "internalType": "address"
        },
        {
          "name": "_blockNum",
          "type": "uint256",
          "internalType": "uint256"
        }
      ],
      "outputs": [
        {
          "name": "",
          "type": "bool",
          "internalType": "bool"
        }
      ],
      "stateMutability": "view"
    },
    {
      "type": "function",
      "name": "checkManyJailed",
      "inputs": [
        {
          "name": "_addrList",
          "type": "address[]",
          "internalType": "address[]"
        }
      ],
      "outputs": [
        {
          "name": "_result",
          "type": "bool[]",
          "internalType": "bool[]"
        }
      ],
      "stateMutability": "view"
    },
    {
      "type": "function",
      "name": "checkMiningRewardDeprecated",
      "inputs": [
        {
          "name": "_blockProducer",
          "type": "address",
          "internalType": "address"
        }
      ],
      "outputs": [
        {
          "name": "_result",
          "type": "bool",
          "internalType": "bool"
        }
      ],
      "stateMutability": "view"
    },
    {
      "type": "function",
      "name": "checkMiningRewardDeprecatedAtPeriod",
      "inputs": [
        {
          "name": "_blockProducer",
          "type": "address",
          "internalType": "address"
        },
        {
          "name": "_period",
          "type": "uint256",
          "internalType": "uint256"
        }
      ],
      "outputs": [
        {
          "name": "_result",
          "type": "bool",
          "internalType": "bool"
        }
      ],
      "stateMutability": "view"
    },
    {
      "type": "function",
      "name": "currentPeriod",
      "inputs": [],
      "outputs": [
        {
          "name": "",
          "type": "uint256",
          "internalType": "uint256"
        }
      ],
      "stateMutability": "view"
    },
    {
      "type": "function",
      "name": "currentPeriodStartAtBlock",
      "inputs": [],
      "outputs": [
        {
          "name": "",
          "type": "uint256",
          "internalType": "uint256"
        }
      ],
      "stateMutability": "view"
    },
    {
      "type": "function",
      "name": "emergencyExitLockedAmount",
      "inputs": [],
      "outputs": [
        {
          "name": "",
          "type": "uint256",
          "internalType": "uint256"
        }
      ],
      "stateMutability": "view"
    },
    {
      "type": "function",
      "name": "emergencyExpiryDuration",
      "inputs": [],
      "outputs": [
        {
          "name": "",
          "type": "uint256",
          "internalType": "uint256"
        }
      ],
      "stateMutability": "view"
    },
    {
      "type": "function",
      "name": "epochEndingAt",
      "inputs": [
        {
          "name": "_block",
          "type": "uint256",
          "internalType": "uint256"
        }
      ],
      "outputs": [
        {
          "name": "",
          "type": "bool",
          "internalType": "bool"
        }
      ],
      "stateMutability": "view"
    },
    {
      "type": "function",
      "name": "epochOf",
      "inputs": [
        {
          "name": "_block",
          "type": "uint256",
          "internalType": "uint256"
        }
      ],
      "outputs": [
        {
          "name": "",
          "type": "uint256",
          "internalType": "uint256"
        }
      ],
      "stateMutability": "view"
    },
    {
      "type": "function",
      "name": "execApplyValidatorCandidate",
      "inputs": [
        {
          "name": "_candidateAdmin",
          "type": "address",
          "internalType": "address"
        },
        {
          "name": "_consensusAddr",
          "type": "address",
          "internalType": "address"
        },
        {
          "name": "_treasuryAddr",
          "type": "address",
          "internalType": "address payable"
        },
        {
          "name": "_commissionRate",
          "type": "uint256",
          "internalType": "uint256"
        }
      ],
      "outputs": [],
      "stateMutability": "nonpayable"
    },
    {
      "type": "function",
      "name": "execBailOut",
      "inputs": [
        {
          "name": "validatorAddr",
          "type": "address",
          "internalType": "address"
        },
        {
          "name": "period",
          "type": "uint256",
          "internalType": "uint256"
        }
      ],
      "outputs": [],
      "stateMutability": "nonpayable"
    },
    {
      "type": "function",
      "name": "execEmergencyExit",
      "inputs": [
        {
          "name": "_consensusAddr",
          "type": "address",
          "internalType": "address"
        },
        {
          "name": "_secLeftToRevoke",
          "type": "uint256",
          "internalType": "uint256"
        }
      ],
      "outputs": [],
      "stateMutability": "nonpayable"
    },
    {
      "type": "function",
      "name": "execReleaseLockedFundForEmergencyExitRequest",
      "inputs": [
        {
          "name": "_consensusAddr",
          "type": "address",
          "internalType": "address"
        },
        {
          "name": "_recipient",
          "type": "address",
          "internalType": "address payable"
        }
      ],
      "outputs": [],
      "stateMutability": "nonpayable"
    },
    {
      "type": "function",
      "name": "execRequestRenounceCandidate",
      "inputs": [
        {
          "name": "_consensusAddr",
          "type": "address",
          "internalType": "address"
        },
        {
          "name": "_secsLeft",
          "type": "uint256",
          "internalType": "uint256"
        }
      ],
      "outputs": [],
      "stateMutability": "nonpayable"
    },
    {
      "type": "function",
      "name": "execRequestUpdateCommissionRate",
      "inputs": [
        {
          "name": "_consensusAddr",
          "type": "address",
          "internalType": "address"
        },
        {
          "name": "_effectiveDaysOnwards",
          "type": "uint256",
          "internalType": "uint256"
        },
        {
          "name": "_commissionRate",
          "type": "uint256",
          "internalType": "uint256"
        }
      ],
      "outputs": [],
      "stateMutability": "nonpayable"
    },
    {
      "type": "function",
      "name": "execSlash",
      "inputs": [
        {
          "name": "validatorAddr",
          "type": "address",
          "internalType": "address"
        },
        {
          "name": "newJailedUntil",
          "type": "uint256",
          "internalType": "uint256"
        },
        {
          "name": "slashAmount",
          "type": "uint256",
          "internalType": "uint256"
        },
        {
          "name": "cannotBailout",
          "type": "bool",
          "internalType": "bool"
        }
      ],
      "outputs": [],
      "stateMutability": "nonpayable"
    },
    {
      "type": "function",
      "name": "getBlockProducers",
      "inputs": [],
      "outputs": [
        {
          "name": "_result",
          "type": "address[]",
          "internalType": "address[]"
        }
      ],
      "stateMutability": "view"
    },
    {
      "type": "function",
      "name": "getCandidateInfo",
      "inputs": [
        {
          "name": "_candidate",
          "type": "address",
          "internalType": "address"
        }
      ],
      "outputs": [
        {
          "name": "",
          "type": "tuple",
          "internalType": "struct ICandidateManager.ValidatorCandidate",
          "components": [
            {
              "name": "admin",
              "type": "address",
              "internalType": "address"
            },
            {
              "name": "consensusAddr",
              "type": "address",
              "internalType": "address"
            },
            {
              "name": "treasuryAddr",
              "type": "address",
              "internalType": "address payable"
            },
            {
              "name": "______deprecatedbridgeOperatorAddr",
              "type": "address",
              "internalType": "address"
            },
            {
              "name": "commissionRate",
              "type": "uint256",
              "internalType": "uint256"
            },
            {
              "name": "revokingTimestamp",
              "type": "uint256",
              "internalType": "uint256"
            },
            {
              "name": "topupDeadline",
              "type": "uint256",
              "internalType": "uint256"
            }
          ]
        }
      ],
      "stateMutability": "view"
    },
    {
      "type": "function",
      "name": "getCandidateInfos",
      "inputs": [],
      "outputs": [
        {
          "name": "_list",
          "type": "tuple[]",
          "internalType": "struct ICandidateManager.ValidatorCandidate[]",
          "components": [
            {
              "name": "admin",
              "type": "address",
              "internalType": "address"
            },
            {
              "name": "consensusAddr",
              "type": "address",
              "internalType": "address"
            },
            {
              "name": "treasuryAddr",
              "type": "address",
              "internalType": "address payable"
            },
            {
              "name": "______deprecatedbridgeOperatorAddr",
              "type": "address",
              "internalType": "address"
            },
            {
              "name": "commissionRate",
              "type": "uint256",
              "internalType": "uint256"
            },
            {
              "name": "revokingTimestamp",
              "type": "uint256",
              "internalType": "uint256"
            },
            {
              "name": "topupDeadline",
              "type": "uint256",
              "internalType": "uint256"
            }
          ]
        }
      ],
      "stateMutability": "view"
    },
    {
      "type": "function",
      "name": "getCommissionChangeSchedule",
      "inputs": [
        {
          "name": "_candidate",
          "type": "address",
          "internalType": "address"
        }
      ],
      "outputs": [
        {
          "name": "",
          "type": "tuple",
          "internalType": "struct ICandidateManager.CommissionSchedule",
          "components": [
            {
              "name": "effectiveTimestamp",
              "type": "uint256",
              "internalType": "uint256"
            },
            {
              "name": "commissionRate",
              "type": "uint256",
              "internalType": "uint256"
            }
          ]
        }
      ],
      "stateMutability": "view"
    },
    {
      "type": "function",
      "name": "getContract",
      "inputs": [
        {
          "name": "contractType",
          "type": "uint8",
          "internalType": "enum ContractType"
        }
      ],
      "outputs": [
        {
          "name": "contract_",
          "type": "address",
          "internalType": "address"
        }
      ],
      "stateMutability": "view"
    },
    {
      "type": "function",
      "name": "getEmergencyExitInfo",
      "inputs": [
        {
          "name": "_consensusAddr",
          "type": "address",
          "internalType": "address"
        }
      ],
      "outputs": [
        {
          "name": "_info",
          "type": "tuple",
          "internalType": "struct ICommonInfo.EmergencyExitInfo",
          "components": [
            {
              "name": "lockedAmount",
              "type": "uint256",
              "internalType": "uint256"
            },
            {
              "name": "recyclingAt",
              "type": "uint256",
              "internalType": "uint256"
            }
          ]
        }
      ],
      "stateMutability": "view"
    },
    {
      "type": "function",
      "name": "getJailedTimeLeft",
      "inputs": [
        {
          "name": "_addr",
          "type": "address",
          "internalType": "address"
        }
      ],
      "outputs": [
        {
          "name": "isJailed_",
          "type": "bool",
          "internalType": "bool"
        },
        {
          "name": "blockLeft_",
          "type": "uint256",
          "internalType": "uint256"
        },
        {
          "name": "epochLeft_",
          "type": "uint256",
          "internalType": "uint256"
        }
      ],
      "stateMutability": "view"
    },
    {
      "type": "function",
      "name": "getJailedTimeLeftAtBlock",
      "inputs": [
        {
          "name": "_addr",
          "type": "address",
          "internalType": "address"
        },
        {
          "name": "_blockNum",
          "type": "uint256",
          "internalType": "uint256"
        }
      ],
      "outputs": [
        {
          "name": "isJailed_",
          "type": "bool",
          "internalType": "bool"
        },
        {
          "name": "blockLeft_",
          "type": "uint256",
          "internalType": "uint256"
        },
        {
          "name": "epochLeft_",
          "type": "uint256",
          "internalType": "uint256"
        }
      ],
      "stateMutability": "view"
    },
    {
      "type": "function",
      "name": "getLastUpdatedBlock",
      "inputs": [],
      "outputs": [
        {
          "name": "",
          "type": "uint256",
          "internalType": "uint256"
        }
      ],
      "stateMutability": "view"
    },
    {
      "type": "function",
      "name": "getValidatorCandidates",
      "inputs": [],
      "outputs": [
        {
          "name": "",
          "type": "address[]",
          "internalType": "address[]"
        }
      ],
      "stateMutability": "view"
    },
    {
      "type": "function",
      "name": "getValidators",
      "inputs": [],
      "outputs": [
        {
          "name": "_validatorList",
          "type": "address[]",
          "internalType": "address[]"
        }
      ],
      "stateMutability": "view"
    },
    {
      "type": "function",
      "name": "initialize",
      "inputs": [
        {
          "name": "__slashIndicatorContract",
          "type": "address",
          "internalType": "address"
        },
        {
          "name": "__stakingContract",
          "type": "address",
          "internalType": "address"
        },
        {
          "name": "__stakingVestingContract",
          "type": "address",
          "internalType": "address"
        },
        {
          "name": "__maintenanceContract",
          "type": "address",
          "internalType": "address"
        },
        {
          "name": "__roninTrustedOrganizationContract",
          "type": "address",
          "internalType": "address"
        },
        {
          "name": "",
          "type": "address",
          "internalType": "address"
        },
        {
          "name": "__maxValidatorNumber",
          "type": "uint256",
          "internalType": "uint256"
        },
        {
          "name": "__maxValidatorCandidate",
          "type": "uint256",
          "internalType": "uint256"
        },
        {
          "name": "__maxPrioritizedValidatorNumber",
          "type": "uint256",
          "internalType": "uint256"
        },
        {
          "name": "__minEffectiveDaysOnwards",
          "type": "uint256",
          "internalType": "uint256"
        },
        {
          "name": "__numberOfBlocksInEpoch",
          "type": "uint256",
          "internalType": "uint256"
        },
        {
          "name": "__emergencyExitConfigs",
          "type": "uint256[2]",
          "internalType": "uint256[2]"
        }
      ],
      "outputs": [],
      "stateMutability": "nonpayable"
    },
    {
      "type": "function",
      "name": "initializeV2",
      "inputs": [],
      "outputs": [],
      "stateMutability": "nonpayable"
    },
    {
      "type": "function",
      "name": "initializeV3",
      "inputs": [
        {
          "name": "fastFinalityTrackingContract",
          "type": "address",
          "internalType": "address"
        }
      ],
      "outputs": [],
      "stateMutability": "nonpayable"
    },
    {
      "type": "function",
      "name": "isBlockProducer",
      "inputs": [
        {
          "name": "_addr",
          "type": "address",
          "internalType": "address"
        }
      ],
      "outputs": [
        {
          "name": "",
          "type": "bool",
          "internalType": "bool"
        }
      ],
      "stateMutability": "view"
    },
    {
      "type": "function",
      "name": "isCandidateAdmin",
      "inputs": [
        {
          "name": "_candidate",
          "type": "address",
          "internalType": "address"
        },
        {
          "name": "_admin",
          "type": "address",
          "internalType": "address"
        }
      ],
      "outputs": [
        {
          "name": "",
          "type": "bool",
          "internalType": "bool"
        }
      ],
      "stateMutability": "view"
    },
    {
      "type": "function",
      "name": "isPeriodEnding",
      "inputs": [],
      "outputs": [
        {
          "name": "",
          "type": "bool",
          "internalType": "bool"
        }
      ],
      "stateMutability": "view"
    },
    {
      "type": "function",
      "name": "isValidatorCandidate",
      "inputs": [
        {
          "name": "_addr",
          "type": "address",
          "internalType": "address"
        }
      ],
      "outputs": [
        {
          "name": "",
          "type": "bool",
          "internalType": "bool"
        }
      ],
      "stateMutability": "view"
    },
    {
      "type": "function",
      "name": "maxPrioritizedValidatorNumber",
      "inputs": [],
      "outputs": [
        {
          "name": "_maximumPrioritizedValidatorNumber",
          "type": "uint256",
          "internalType": "uint256"
        }
      ],
      "stateMutability": "view"
    },
    {
      "type": "function",
      "name": "maxValidatorCandidate",
      "inputs": [],
      "outputs": [
        {
          "name": "",
          "type": "uint256",
          "internalType": "uint256"
        }
      ],
      "stateMutability": "view"
    },
    {
      "type": "function",
      "name": "maxValidatorNumber",
      "inputs": [],
      "outputs": [
        {
          "name": "_maximumValidatorNumber",
          "type": "uint256",
          "internalType": "uint256"
        }
      ],
      "stateMutability": "view"
    },
    {
      "type": "function",
      "name": "minEffectiveDaysOnward",
      "inputs": [],
      "outputs": [
        {
          "name": "",
          "type": "uint256",
          "internalType": "uint256"
        }
      ],
      "stateMutability": "view"
    },
    {
      "type": "function",
      "name": "numberOfBlocksInEpoch",
      "inputs": [],
      "outputs": [
        {
          "name": "_numberOfBlocks",
          "type": "uint256",
          "internalType": "uint256"
        }
      ],
      "stateMutability": "view"
    },
    {
      "type": "function",
      "name": "precompilePickValidatorSetAddress",
      "inputs": [],
      "outputs": [
        {
          "name": "",
          "type": "address",
          "internalType": "address"
        }
      ],
      "stateMutability": "view"
    },
    {
      "type": "function",
      "name": "precompileSortValidatorsAddress",
      "inputs": [],
      "outputs": [
        {
          "name": "",
          "type": "address",
          "internalType": "address"
        }
      ],
      "stateMutability": "view"
    },
    {
      "type": "function",
      "name": "setContract",
      "inputs": [
        {
          "name": "contractType",
          "type": "uint8",
          "internalType": "enum ContractType"
        },
        {
          "name": "addr",
          "type": "address",
          "internalType": "address"
        }
      ],
      "outputs": [],
      "stateMutability": "nonpayable"
    },
    {
      "type": "function",
      "name": "setEmergencyExitLockedAmount",
      "inputs": [
        {
          "name": "_emergencyExitLockedAmount",
          "type": "uint256",
          "internalType": "uint256"
        }
      ],
      "outputs": [],
      "stateMutability": "nonpayable"
    },
    {
      "type": "function",
      "name": "setEmergencyExpiryDuration",
      "inputs": [
        {
          "name": "_emergencyExpiryDuration",
          "type": "uint256",
          "internalType": "uint256"
        }
      ],
      "outputs": [],
      "stateMutability": "nonpayable"
    },
    {
      "type": "function",
      "name": "setMaxPrioritizedValidatorNumber",
      "inputs": [
        {
          "name": "_number",
          "type": "uint256",
          "internalType": "uint256"
        }
      ],
      "outputs": [],
      "stateMutability": "nonpayable"
    },
    {
      "type": "function",
      "name": "setMaxValidatorCandidate",
      "inputs": [
        {
          "name": "_number",
          "type": "uint256",
          "internalType": "uint256"
        }
      ],
      "outputs": [],
      "stateMutability": "nonpayable"
    },
    {
      "type": "function",
      "name": "setMaxValidatorNumber",
      "inputs": [
        {
          "name": "_max",
          "type": "uint256",
          "internalType": "uint256"
        }
      ],
      "outputs": [],
      "stateMutability": "nonpayable"
    },
    {
      "type": "function",
      "name": "setMinEffectiveDaysOnwards",
      "inputs": [
        {
          "name": "_numOfDays",
          "type": "uint256",
          "internalType": "uint256"
        }
      ],
      "outputs": [],
      "stateMutability": "nonpayable"
    },
    {
      "type": "function",
      "name": "submitBlockReward",
      "inputs": [],
      "outputs": [],
      "stateMutability": "payable"
    },
    {
      "type": "function",
      "name": "totalBlockProducer",
      "inputs": [],
      "outputs": [
        {
          "name": "_total",
          "type": "uint256",
          "internalType": "uint256"
        }
      ],
      "stateMutability": "view"
    },
    {
      "type": "function",
      "name": "totalDeprecatedReward",
      "inputs": [],
      "outputs": [
        {
          "name": "",
          "type": "uint256",
          "internalType": "uint256"
        }
      ],
      "stateMutability": "view"
    },
    {
      "type": "function",
      "name": "tryGetPeriodOfEpoch",
      "inputs": [
        {
          "name": "_epoch",
          "type": "uint256",
          "internalType": "uint256"
        }
      ],
      "outputs": [
        {
          "name": "_filled",
          "type": "bool",
          "internalType": "bool"
        },
        {
          "name": "_periodNumber",
          "type": "uint256",
          "internalType": "uint256"
        }
      ],
      "stateMutability": "view"
    },
    {
      "type": "function",
      "name": "validatorCount",
      "inputs": [],
      "outputs": [
        {
          "name": "",
          "type": "uint256",
          "internalType": "uint256"
        }
      ],
      "stateMutability": "view"
    },
    {
      "type": "function",
      "name": "wrapUpEpoch",
      "inputs": [],
      "outputs": [],
      "stateMutability": "payable"
    },
    {
      "type": "event",
      "name": "BlockProducerSetUpdated",
      "inputs": [
        {
          "name": "period",
          "type": "uint256",
          "indexed": true,
          "internalType": "uint256"
        },
        {
          "name": "epoch",
          "type": "uint256",
          "indexed": true,
          "internalType": "uint256"
        },
        {
          "name": "consensusAddrs",
          "type": "address[]",
          "indexed": false,
          "internalType": "address[]"
        }
      ],
      "anonymous": false
    },
    {
      "type": "event",
      "name": "BlockRewardDeprecated",
      "inputs": [
        {
          "name": "coinbaseAddr",
          "type": "address",
          "indexed": true,
          "internalType": "address"
        },
        {
          "name": "rewardAmount",
          "type": "uint256",
          "indexed": false,
          "internalType": "uint256"
        },
        {
          "name": "deprecatedType",
          "type": "uint8",
          "indexed": false,
          "internalType": "enum ICoinbaseExecution.BlockRewardDeprecatedType"
        }
      ],
      "anonymous": false
    },
    {
      "type": "event",
      "name": "BlockRewardSubmitted",
      "inputs": [
        {
          "name": "coinbaseAddr",
          "type": "address",
          "indexed": true,
          "internalType": "address"
        },
        {
          "name": "submittedAmount",
          "type": "uint256",
          "indexed": false,
          "internalType": "uint256"
        },
        {
          "name": "bonusAmount",
          "type": "uint256",
          "indexed": false,
          "internalType": "uint256"
        }
      ],
      "anonymous": false
    },
    {
      "type": "event",
      "name": "BridgeOperatorRewardDistributed",
      "inputs": [
        {
          "name": "consensusAddr",
          "type": "address",
          "indexed": true,
          "internalType": "address"
        },
        {
          "name": "bridgeOperator",
          "type": "address",
          "indexed": true,
          "internalType": "address"
        },
        {
          "name": "recipientAddr",
          "type": "address",
          "indexed": true,
          "internalType": "address"
        },
        {
          "name": "amount",
          "type": "uint256",
          "indexed": false,
          "internalType": "uint256"
        }
      ],
      "anonymous": false
    },
    {
      "type": "event",
      "name": "BridgeOperatorRewardDistributionFailed",
      "inputs": [
        {
          "name": "consensusAddr",
          "type": "address",
          "indexed": true,
          "internalType": "address"
        },
        {
          "name": "bridgeOperator",
          "type": "address",
          "indexed": true,
          "internalType": "address"
        },
        {
          "name": "recipient",
          "type": "address",
          "indexed": true,
          "internalType": "address"
        },
        {
          "name": "amount",
          "type": "uint256",
          "indexed": false,
          "internalType": "uint256"
        },
        {
          "name": "contractBalance",
          "type": "uint256",
          "indexed": false,
          "internalType": "uint256"
        }
      ],
      "anonymous": false
    },
    {
      "type": "event",
      "name": "BridgeOperatorSetUpdated",
      "inputs": [
        {
          "name": "period",
          "type": "uint256",
          "indexed": true,
          "internalType": "uint256"
        },
        {
          "name": "epoch",
          "type": "uint256",
          "indexed": true,
          "internalType": "uint256"
        },
        {
          "name": "bridgeOperators",
          "type": "address[]",
          "indexed": false,
          "internalType": "address[]"
        }
      ],
      "anonymous": false
    },
    {
      "type": "event",
      "name": "CandidateGranted",
      "inputs": [
        {
          "name": "consensusAddr",
          "type": "address",
          "indexed": true,
          "internalType": "address"
        },
        {
          "name": "treasuryAddr",
          "type": "address",
          "indexed": true,
          "internalType": "address"
        },
        {
          "name": "admin",
          "type": "address",
          "indexed": true,
          "internalType": "address"
        }
      ],
      "anonymous": false
    },
    {
      "type": "event",
      "name": "CandidateRevokingTimestampUpdated",
      "inputs": [
        {
          "name": "consensusAddr",
          "type": "address",
          "indexed": true,
          "internalType": "address"
        },
        {
          "name": "revokingTimestamp",
          "type": "uint256",
          "indexed": false,
          "internalType": "uint256"
        }
      ],
      "anonymous": false
    },
    {
      "type": "event",
      "name": "CandidateTopupDeadlineUpdated",
      "inputs": [
        {
          "name": "consensusAddr",
          "type": "address",
          "indexed": true,
          "internalType": "address"
        },
        {
          "name": "topupDeadline",
          "type": "uint256",
          "indexed": false,
          "internalType": "uint256"
        }
      ],
      "anonymous": false
    },
    {
      "type": "event",
      "name": "CandidatesRevoked",
      "inputs": [
        {
          "name": "consensusAddrs",
          "type": "address[]",
          "indexed": false,
          "internalType": "address[]"
        }
      ],
      "anonymous": false
    },
    {
      "type": "event",
      "name": "CommissionRateUpdateScheduled",
      "inputs": [
        {
          "name": "consensusAddr",
          "type": "address",
          "indexed": true,
          "internalType": "address"
        },
        {
          "name": "effectiveTimestamp",
          "type": "uint256",
          "indexed": false,
          "internalType": "uint256"
        },
        {
          "name": "rate",
          "type": "uint256",
          "indexed": false,
          "internalType": "uint256"
        }
      ],
      "anonymous": false
    },
    {
      "type": "event",
      "name": "CommissionRateUpdated",
      "inputs": [
        {
          "name": "consensusAddr",
          "type": "address",
          "indexed": true,
          "internalType": "address"
        },
        {
          "name": "rate",
          "type": "uint256",
          "indexed": false,
          "internalType": "uint256"
        }
      ],
      "anonymous": false
    },
    {
      "type": "event",
      "name": "ContractUpdated",
      "inputs": [
        {
          "name": "contractType",
          "type": "uint8",
          "indexed": true,
          "internalType": "enum ContractType"
        },
        {
          "name": "addr",
          "type": "address",
          "indexed": true,
          "internalType": "address"
        }
      ],
      "anonymous": false
    },
    {
      "type": "event",
      "name": "DeprecatedRewardRecycleFailed",
      "inputs": [
        {
          "name": "recipientAddr",
          "type": "address",
          "indexed": true,
          "internalType": "address"
        },
        {
          "name": "amount",
          "type": "uint256",
          "indexed": false,
          "internalType": "uint256"
        },
        {
          "name": "balance",
          "type": "uint256",
          "indexed": false,
          "internalType": "uint256"
        }
      ],
      "anonymous": false
    },
    {
      "type": "event",
      "name": "DeprecatedRewardRecycled",
      "inputs": [
        {
          "name": "recipientAddr",
          "type": "address",
          "indexed": true,
          "internalType": "address"
        },
        {
          "name": "amount",
          "type": "uint256",
          "indexed": false,
          "internalType": "uint256"
        }
      ],
      "anonymous": false
    },
    {
      "type": "event",
      "name": "EmergencyExitLockedAmountUpdated",
      "inputs": [
        {
          "name": "amount",
          "type": "uint256",
          "indexed": false,
          "internalType": "uint256"
        }
      ],
      "anonymous": false
    },
    {
      "type": "event",
      "name": "EmergencyExitLockedFundReleased",
      "inputs": [
        {
          "name": "consensusAddr",
          "type": "address",
          "indexed": true,
          "internalType": "address"
        },
        {
          "name": "recipient",
          "type": "address",
          "indexed": true,
          "internalType": "address"
        },
        {
          "name": "unlockedAmount",
          "type": "uint256",
          "indexed": false,
          "internalType": "uint256"
        }
      ],
      "anonymous": false
    },
    {
      "type": "event",
      "name": "EmergencyExitLockedFundReleasingFailed",
      "inputs": [
        {
          "name": "consensusAddr",
          "type": "address",
          "indexed": true,
          "internalType": "address"
        },
        {
          "name": "recipient",
          "type": "address",
          "indexed": true,
          "internalType": "address"
        },
        {
          "name": "unlockedAmount",
          "type": "uint256",
          "indexed": false,
          "internalType": "uint256"
        },
        {
          "name": "contractBalance",
          "type": "uint256",
          "indexed": false,
          "internalType": "uint256"
        }
      ],
      "anonymous": false
    },
    {
      "type": "event",
      "name": "EmergencyExitRequested",
      "inputs": [
        {
          "name": "consensusAddr",
          "type": "address",
          "indexed": true,
          "internalType": "address"
        },
        {
          "name": "lockedAmount",
          "type": "uint256",
          "indexed": false,
          "internalType": "uint256"
        }
      ],
      "anonymous": false
    },
    {
      "type": "event",
      "name": "EmergencyExpiryDurationUpdated",
      "inputs": [
        {
          "name": "amount",
          "type": "uint256",
          "indexed": false,
          "internalType": "uint256"
        }
      ],
      "anonymous": false
    },
    {
      "type": "event",
      "name": "FastFinalityRewardDistributed",
      "inputs": [
        {
          "name": "consensusAddr",
          "type": "address",
          "indexed": true,
          "internalType": "address"
        },
        {
          "name": "recipient",
          "type": "address",
          "indexed": true,
          "internalType": "address"
        },
        {
          "name": "amount",
          "type": "uint256",
          "indexed": false,
          "internalType": "uint256"
        }
      ],
      "anonymous": false
    },
    {
      "type": "event",
      "name": "FastFinalityRewardDistributionFailed",
      "inputs": [
        {
          "name": "consensusAddr",
          "type": "address",
          "indexed": true,
          "internalType": "address"
        },
        {
          "name": "recipient",
          "type": "address",
          "indexed": true,
          "internalType": "address"
        },
        {
          "name": "amount",
          "type": "uint256",
          "indexed": false,
          "internalType": "uint256"
        },
        {
          "name": "contractBalance",
          "type": "uint256",
          "indexed": false,
          "internalType": "uint256"
        }
      ],
      "anonymous": false
    },
    {
      "type": "event",
      "name": "Initialized",
      "inputs": [
        {
          "name": "version",
          "type": "uint8",
          "indexed": false,
          "internalType": "uint8"
        }
      ],
      "anonymous": false
    },
    {
      "type": "event",
      "name": "MaxPrioritizedValidatorNumberUpdated",
      "inputs": [
        {
          "name": "",
          "type": "uint256",
          "indexed": false,
          "internalType": "uint256"
        }
      ],
      "anonymous": false
    },
    {
      "type": "event",
      "name": "MaxValidatorCandidateUpdated",
      "inputs": [
        {
          "name": "threshold",
          "type": "uint256",
          "indexed": false,
          "internalType": "uint256"
        }
      ],
      "anonymous": false
    },
    {
      "type": "event",
      "name": "MaxValidatorNumberUpdated",
      "inputs": [
        {
          "name": "",
          "type": "uint256",
          "indexed": false,
          "internalType": "uint256"
        }
      ],
      "anonymous": false
    },
    {
      "type": "event",
      "name": "MinEffectiveDaysOnwardsUpdated",
      "inputs": [
        {
          "name": "numOfDays",
          "type": "uint256",
          "indexed": false,
          "internalType": "uint256"
        }
      ],
      "anonymous": false
    },
    {
      "type": "event",
      "name": "MiningRewardDistributed",
      "inputs": [
        {
          "name": "consensusAddr",
          "type": "address",
          "indexed": true,
          "internalType": "address"
        },
        {
          "name": "recipient",
          "type": "address",
          "indexed": true,
          "internalType": "address"
        },
        {
          "name": "amount",
          "type": "uint256",
          "indexed": false,
          "internalType": "uint256"
        }
      ],
      "anonymous": false
    },
    {
      "type": "event",
      "name": "MiningRewardDistributionFailed",
      "inputs": [
        {
          "name": "consensusAddr",
          "type": "address",
          "indexed": true,
          "internalType": "address"
        },
        {
          "name": "recipient",
          "type": "address",
          "indexed": true,
          "internalType": "address"
        },
        {
          "name": "amount",
          "type": "uint256",
          "indexed": false,
          "internalType": "uint256"
        },
        {
          "name": "contractBalance",
          "type": "uint256",
          "indexed": false,
          "internalType": "uint256"
        }
      ],
      "anonymous": false
    },
    {
      "type": "event",
      "name": "StakingRewardDistributed",
      "inputs": [
        {
          "name": "totalAmount",
          "type": "uint256",
          "indexed": false,
          "internalType": "uint256"
        },
        {
          "name": "consensusAddrs",
          "type": "address[]",
          "indexed": false,
          "internalType": "address[]"
        },
        {
          "name": "amounts",
          "type": "uint256[]",
          "indexed": false,
          "internalType": "uint256[]"
        }
      ],
      "anonymous": false
    },
    {
      "type": "event",
      "name": "StakingRewardDistributionFailed",
      "inputs": [
        {
          "name": "totalAmount",
          "type": "uint256",
          "indexed": false,
          "internalType": "uint256"
        },
        {
          "name": "consensusAddrs",
          "type": "address[]",
          "indexed": false,
          "internalType": "address[]"
        },
        {
          "name": "amounts",
          "type": "uint256[]",
          "indexed": false,
          "internalType": "uint256[]"
        },
        {
          "name": "contractBalance",
          "type": "uint256",
          "indexed": false,
          "internalType": "uint256"
        }
      ],
      "anonymous": false
    },
    {
      "type": "event",
      "name": "ValidatorPunished",
      "inputs": [
        {
          "name": "consensusAddr",
          "type": "address",
          "indexed": true,
          "internalType": "address"
        },
        {
          "name": "period",
          "type": "uint256",
          "indexed": true,
          "internalType": "uint256"
        },
        {
          "name": "jailedUntil",
          "type": "uint256",
          "indexed": false,
          "internalType": "uint256"
        },
        {
          "name": "deductedStakingAmount",
          "type": "uint256",
          "indexed": false,
          "internalType": "uint256"
        },
        {
          "name": "blockProducerRewardDeprecated",
          "type": "bool",
          "indexed": false,
          "internalType": "bool"
        },
        {
          "name": "bridgeOperatorRewardDeprecated",
          "type": "bool",
          "indexed": false,
          "internalType": "bool"
        }
      ],
      "anonymous": false
    },
    {
      "type": "event",
      "name": "ValidatorSetUpdated",
      "inputs": [
        {
          "name": "period",
          "type": "uint256",
          "indexed": true,
          "internalType": "uint256"
        },
        {
          "name": "consensusAddrs",
          "type": "address[]",
          "indexed": false,
          "internalType": "address[]"
        }
      ],
      "anonymous": false
    },
    {
      "type": "event",
      "name": "ValidatorUnjailed",
      "inputs": [
        {
          "name": "validator",
          "type": "address",
          "indexed": true,
          "internalType": "address"
        },
        {
          "name": "period",
          "type": "uint256",
          "indexed": false,
          "internalType": "uint256"
        }
      ],
      "anonymous": false
    },
    {
      "type": "event",
      "name": "WrappedUpEpoch",
      "inputs": [
        {
          "name": "periodNumber",
          "type": "uint256",
          "indexed": true,
          "internalType": "uint256"
        },
        {
          "name": "epochNumber",
          "type": "uint256",
          "indexed": true,
          "internalType": "uint256"
        },
        {
          "name": "periodEnding",
          "type": "bool",
          "indexed": false,
          "internalType": "bool"
        }
      ],
      "anonymous": false
    },
    {
      "type": "error",
      "name": "ErrAlreadyRequestedEmergencyExit",
      "inputs": []
    },
    {
      "type": "error",
      "name": "ErrAlreadyRequestedRevokingCandidate",
      "inputs": []
    },
    {
      "type": "error",
      "name": "ErrAlreadyRequestedUpdatingCommissionRate",
      "inputs": []
    },
    {
      "type": "error",
      "name": "ErrAlreadyWrappedEpoch",
      "inputs": []
    },
    {
      "type": "error",
      "name": "ErrAtEndOfEpochOnly",
      "inputs": []
    },
    {
      "type": "error",
      "name": "ErrCallPrecompiled",
      "inputs": []
    },
    {
      "type": "error",
      "name": "ErrCallerMustBeCoinbase",
      "inputs": []
    },
    {
      "type": "error",
      "name": "ErrCannotBailout",
      "inputs": [
        {
          "name": "validator",
          "type": "address",
          "internalType": "address"
        }
      ]
    },
    {
      "type": "error",
      "name": "ErrContractTypeNotFound",
      "inputs": [
        {
          "name": "contractType",
          "type": "uint8",
          "internalType": "enum ContractType"
        }
      ]
    },
    {
      "type": "error",
      "name": "ErrExceedsMaxNumberOfCandidate",
      "inputs": []
    },
    {
      "type": "error",
      "name": "ErrExistentCandidate",
      "inputs": []
    },
    {
      "type": "error",
      "name": "ErrExistentCandidateAdmin",
      "inputs": [
        {
          "name": "_candidateAdminAddr",
          "type": "address",
          "internalType": "address"
        }
      ]
    },
    {
      "type": "error",
      "name": "ErrExistentTreasury",
      "inputs": [
        {
          "name": "_treasuryAddr",
          "type": "address",
          "internalType": "address"
        }
      ]
    },
    {
      "type": "error",
      "name": "ErrInsufficientBalance",
      "inputs": [
        {
          "name": "msgSig",
          "type": "bytes4",
          "internalType": "bytes4"
        },
        {
          "name": "currentBalance",
          "type": "uint256",
          "internalType": "uint256"
        },
        {
          "name": "sendAmount",
          "type": "uint256",
          "internalType": "uint256"
        }
      ]
    },
    {
      "type": "error",
      "name": "ErrInvalidCommissionRate",
      "inputs": []
    },
    {
      "type": "error",
      "name": "ErrInvalidEffectiveDaysOnwards",
      "inputs": []
    },
    {
      "type": "error",
      "name": "ErrInvalidMaxPrioritizedValidatorNumber",
      "inputs": []
    },
    {
      "type": "error",
      "name": "ErrInvalidMinEffectiveDaysOnwards",
      "inputs": []
    },
    {
      "type": "error",
      "name": "ErrNonExistentCandidate",
      "inputs": []
    },
    {
      "type": "error",
      "name": "ErrRecipientRevert",
      "inputs": [
        {
          "name": "msgSig",
          "type": "bytes4",
          "internalType": "bytes4"
        }
      ]
    },
    {
      "type": "error",
      "name": "ErrTrustedOrgCannotRenounce",
      "inputs": []
    },
    {
      "type": "error",
      "name": "ErrUnauthorized",
      "inputs": [
        {
          "name": "msgSig",
          "type": "bytes4",
          "internalType": "bytes4"
        },
        {
          "name": "expectedRole",
          "type": "uint8",
          "internalType": "enum RoleAccess"
        }
      ]
    },
    {
      "type": "error",
      "name": "ErrUnauthorizedReceiveRON",
      "inputs": []
    },
    {
      "type": "error",
      "name": "ErrUnexpectedInternalCall",
      "inputs": [
        {
          "name": "msgSig",
          "type": "bytes4",
          "internalType": "bytes4"
        },
        {
          "name": "expectedContractType",
          "type": "uint8",
          "internalType": "enum ContractType"
        },
        {
          "name": "actual",
          "type": "address",
          "internalType": "address"
        }
      ]
    },
    {
      "type": "error",
      "name": "ErrZeroCodeContract",
      "inputs": [
        {
          "name": "addr",
          "type": "address",
          "internalType": "address"
        }
      ]
    },
    {
      "type": "error",
      "name": "NonExistentRecyclingInfo",
      "inputs": []
    }
  ],
  "address": "0x05A0333922821ef36De24a5cE97abbfe5DEE8881",
  "args": "0x",
  "blockNumber": 17360399,
  "bytecode": "0x60806040523480156200001157600080fd5b506200001c62000022565b620000e4565b600054610100900460ff16156200008f5760405162461bcd60e51b815260206004820152602760248201527f496e697469616c697a61626c653a20636f6e747261637420697320696e697469604482015266616c697a696e6760c81b606482015260840160405180910390fd5b60005460ff9081161015620000e2576000805460ff191660ff9081179091556040519081527f7f26b83ff96e1f2b6a682f133852f6798a09c465da95921460cefb38474024989060200160405180910390a15b565b6152ed80620000f46000396000f3fe6080604052600436106103855760003560e01c806365244ece116101d1578063a3d545f511610102578063c94aaa02116100a0578063e5125a1d1161006f578063e5125a1d14610a00578063edb194bb14610a20578063eeb629a814610a82578063f883afaf14610a9757610394565b8063c94aaa021461098b578063d09f1ab4146109ab578063dd716ad3146109c0578063de981f1b146109e057610394565b8063afc69d73116100dc578063afc69d731461092c578063b7ab4db514610941578063ba77b06c14610956578063c3c8b5d61461096b57610394565b8063a3d545f5146108d7578063a66c0f77146108f7578063a7c2f1191461090c57610394565b8063823a7b9c1161016f57806387c891bd1161014957806387c891bd146108565780638d559c381461086b57806396585fc21461087f578063a0c3f2d21461089f57610394565b8063823a7b9c146107f6578063865e6fd314610816578063873a5a701461083657610394565b8063690b7536116101ab578063690b7536146107a45780636aa1c2ef146107b957806372e46810146107ce5780637593ff71146107d657610394565b806365244ece1461074d5780636558954f1461076d5780636611f8431461078457610394565b80633101cfcb116102b65780634de2b735116102545780635248184a116102235780635248184a146106ec5780635cd8a76b1461070e578063605239a114610723578063612c8d981461073857610394565b80634de2b735146106825780634ee4d72b146106af5780634f2a693f146106c457806352091f17146106e457610394565b80633b3159b6116102905780633b3159b6146105e1578063468c96ae1461060957806349096d26146106405780634d8df0631461066257610394565b80633101cfcb1461058157806331a8aef5146105a1578063367ec12b146105c157610394565b8063217f35c2116103235780632924de71116102fd5780632924de71146104ff578063297a8fca1461051f5780632d784a98146105345780632f78204c1461056157610394565b8063217f35c21461049d57806323c65eb0146104b257806328bde1e1146104d257610394565b80630f43a6771161035f5780630f43a6771461040a57806311662dc2146104205780631196ab661461045d57806315b5ebde1461047d57610394565b8063038278841461039c57806304d971ab146103c557806306040618146103f557610394565b3661039457610392610ab7565b005b610392610ab7565b3480156103a857600080fd5b506103b26104b081565b6040519081526020015b60405180910390f35b3480156103d157600080fd5b506103e56103e036600461484b565b610b36565b60405190151581526020016103bc565b34801561040157600080fd5b506103b2610b5d565b34801561041657600080fd5b506103b260aa5481565b34801561042c57600080fd5b5061044061043b366004614884565b610b6d565b6040805193151584526020840192909252908201526060016103bc565b34801561046957600080fd5b506103926104783660046148b0565b610bf0565b34801561048957600080fd5b50610392610498366004614884565b610c04565b3480156104a957600080fd5b506103e5610d23565b3480156104be57600080fd5b506103e56104cd366004614884565b610d38565b3480156104de57600080fd5b506104f26104ed3660046148c9565b610d5c565b6040516103bc91906148e6565b34801561050b57600080fd5b506103e561051a3660046148c9565b610e3c565b34801561052b57600080fd5b506004546103b2565b34801561054057600080fd5b5061055461054f3660046148c9565b610e48565b6040516103bc9190614944565b34801561056d57600080fd5b5061039261057c366004614969565b610ec3565b34801561058d57600080fd5b5061039261059c3660046148c9565b6110e3565b3480156105ad57600080fd5b506103e56105bc366004614884565b6111cc565b3480156105cd57600080fd5b506103926105dc3660046149c4565b6111f8565b3480156105ed57600080fd5b5060685b6040516001600160a01b0390911681526020016103bc565b34801561061557600080fd5b506106296106243660046148b0565b611384565b6040805192151583526020830191909152016103bc565b34801561064c57600080fd5b506106556113c2565b6040516103bc9190614ace565b34801561066e57600080fd5b5061039261067d3660046148b0565b6114a2565b34801561068e57600080fd5b506106a261069d366004614ae1565b6114b3565b6040516103bc9190614b56565b3480156106bb57600080fd5b5060e4546103b2565b3480156106d057600080fd5b506103926106df3660046148b0565b611565565b610392611576565b3480156106f857600080fd5b5061070161199c565b6040516103bc9190614b9c565b34801561071a57600080fd5b50610392611af0565b34801561072f57600080fd5b506072546103b2565b34801561074457600080fd5b506076546103b2565b34801561075957600080fd5b506103e56107683660046148c9565b611c82565b34801561077957600080fd5b506103b26201518081565b34801561079057600080fd5b5061039261079f3660046148b0565b611cbc565b3480156107b057600080fd5b5060e5546103b2565b3480156107c557600080fd5b506001546103b2565b610392611ccd565b3480156107e257600080fd5b506103e56107f13660046148b0565b611f7f565b34801561080257600080fd5b506103926108113660046148b0565b611fa3565b34801561082257600080fd5b50610392610831366004614c3d565b611fb4565b34801561084257600080fd5b506103e56108513660046148c9565b611fd3565b34801561086257600080fd5b506002546103b2565b34801561087757600080fd5b5060666105f1565b34801561088b57600080fd5b5061044061089a3660046148c9565b61200d565b3480156108ab57600080fd5b506103e56108ba3660046148c9565b6001600160a01b0316600090815260746020526040902054151590565b3480156108e357600080fd5b506103b26108f23660046148b0565b612029565b34801561090357600080fd5b5060e6546103b2565b34801561091857600080fd5b50610392610927366004614884565b612034565b34801561093857600080fd5b506103b26122d5565b34801561094d57600080fd5b50610655612318565b34801561096257600080fd5b506106556123bf565b34801561097757600080fd5b5061039261098636600461484b565b612421565b34801561099757600080fd5b506103926109a63660046148b0565b612678565b3480156109b757600080fd5b5060a9546103b2565b3480156109cc57600080fd5b506103926109db366004614884565b612689565b3480156109ec57600080fd5b506105f16109fb366004614c59565b612741565b348015610a0c57600080fd5b50610392610a1b366004614c74565b6127d0565b348015610a2c57600080fd5b50610554610a3b3660046148c9565b6040805180820190915260008082526020820152506001600160a01b0316600090815260776020908152604091829020825180840190935280548352600101549082015290565b348015610a8e57600080fd5b5060ad546103b2565b348015610aa357600080fd5b50610392610ab2366004614ca9565b612914565b610ac16007612741565b6001600160a01b0316336001600160a01b031614158015610afd5750610ae76009612741565b6001600160a01b0316336001600160a01b031614155b15610b34576040517fffcb451300000000000000000000000000000000000000000000000000000000815260040160405180910390fd5b565b6001600160a01b038281166000908152607560205260409020548116908216145b92915050565b6000610b6860035490565b905090565b6001600160a01b0382166000908152603a60205260408120548190819084811015610ba357600080600093509350935050610be9565b60019350610bb18582614d10565b610bbc906001614d23565b9250610bc785612029565b610bd082612029565b610bda9190614d10565b610be5906001614d23565b9150505b9250925092565b610bf8612b9a565b610c0181612c0e565b50565b6006610c0f81612c7e565b6001600160a01b0383166000908152603c60205260409020544311610c70576040517f53e0424d0000000000000000000000000000000000000000000000000000000081526001600160a01b03841660048201526024015b60405180910390fd5b6001600160a01b038316600081815260386020908152604080832086845282528083208054600160ff199182168117909255948452603783528184208785529092529091208054909216909155610cc79043614d10565b6001600160a01b0384166000818152603a6020526040908190209290925590517f6bb2436cb6b6eb65d5a52fac2ae0373a77ade6661e523ef3004ee2d5524e6c6e90610d169085815260200190565b60405180910390a2505050565b6000610b68610d3142612ce3565b6003541090565b6001600160a01b0382166000908152603a60205260408120548211155b9392505050565b6040805160e08101825260008082526020808301829052828401829052606083018290526080830182905260a0830182905260c083018290526001600160a01b0385168252607490529190912054610dc75760405163a64b34ad60e01b815260040160405180910390fd5b506001600160a01b03908116600090815260756020908152604091829020825160e081018452815485168152600182015485169281019290925260028101548416928201929092526003820154909216606083015260048101546080830152600581015460a08301526006015460c082015290565b6000610b578243610d38565b604080518082018252600080825260209182018190526001600160a01b038416815260e882528281208351808501909452805484526001015491830182905203610ebe576040517fe1fba9e200000000000000000000000000000000000000000000000000000000815260040160405180910390fd5b919050565b6006610ece81612c7e565b6000610ed8610b5d565b6001600160a01b03871660008181526037602090815260408083208584528252808320805460ff1916600117905592825260e181528282205460e090915291902054919250610f2691614d23565b60e46000828254610f379190614d23565b90915550506001600160a01b038616600090815260e06020908152604080832083905560e18252808320839055603a909152902054610f77908690612cf2565b6001600160a01b0387166000908152603a60205260409020558315611032576000610fa26009612741565b60405163138ac02f60e11b81526001600160a01b038981166004830152602482018890529190911690632715805e906044016020604051808303816000875af1158015610ff3573d6000803e3d6000fd5b505050506040513d601f19601f820116820180604052508101906110179190614d36565b90508060e4600082825461102b9190614d23565b9091555050505b8215611076576001600160a01b0386166000908152603c602052604090205461105c908690612cf2565b6001600160a01b0387166000908152603c60205260409020555b6001600160a01b0386166000818152603a6020908152604080832054815190815291820188905260019082015260608101919091528291907f54ce99c5ce1fc9f61656d4a0fb2697974d0c973ac32eecaefe06fcf18b8ef68a9060800160405180910390a3505050505050565b600054600390610100900460ff16158015611105575060005460ff8083169116105b6111685760405162461bcd60e51b815260206004820152602e60248201527f496e697469616c697a61626c653a20636f6e747261637420697320616c72656160448201526d191e481a5b9a5d1a585b1a5e995960921b6064820152608401610c67565b6000805461ffff191660ff831617610100179055611187600e83612d09565b6000805461ff001916905560405160ff821681527f7f26b83ff96e1f2b6a682f133852f6798a09c465da95921460cefb38474024989060200160405180910390a15050565b6001600160a01b038216600090815260376020908152604080832084845290915281205460ff16610d55565b600054610100900460ff16158080156112185750600054600160ff909116105b806112325750303b158015611232575060005460ff166001145b6112955760405162461bcd60e51b815260206004820152602e60248201527f496e697469616c697a61626c653a20636f6e747261637420697320616c72656160448201526d191e481a5b9a5d1a585b1a5e995960921b6064820152608401610c67565b6000805460ff1916600117905580156112b8576000805461ff0019166101001790555b6112c360068e612d09565b6112ce60098d612d09565b6112d960078c612d09565b6112e460058b612d09565b6112ef600a8a612d09565b6112f887612dad565b61130186612de2565b61130a85612e17565b61131384612c0e565b61131d8235612e88565b61132a6020830135612ebd565b60018390558015611375576000805461ff0019169055604051600181527f7f26b83ff96e1f2b6a682f133852f6798a09c465da95921460cefb38474024989060200160405180910390a15b50505050505050505050505050565b60008061139043612029565b831115806113ab575060008381526005602052604090205415155b600093845260056020526040909320549293915050565b606060aa5467ffffffffffffffff8111156113df576113df614d65565b604051908082528060200260200182016040528015611408578160200160208202803683370190505b5090506000805b825181101561149c57600081815260ab6020526040902054611439906001600160a01b0316611c82565b1561149457600081815260ab60205260409020546001600160a01b0316838361146181614d7b565b94508151811061147357611473614d4f565b60200260200101906001600160a01b031690816001600160a01b0316815250505b60010161140f565b50815290565b6114aa612b9a565b610c0181612ebd565b60608167ffffffffffffffff8111156114ce576114ce614d65565b6040519080825280602002602001820160405280156114f7578160200160208202803683370190505b50905060005b8281101561155e5761153484848381811061151a5761151a614d4f565b905060200201602081019061152f91906148c9565b612ef2565b82828151811061154657611546614d4f565b911515602092830291909101909101526001016114fd565b5092915050565b61156d612b9a565b610c0181612de2565b61157e612f13565b600061158933611c82565b801561159b575061159933612ef2565b155b80156115db57506115d9336115ae610b5d565b6001600160a01b03919091166000908152603760209081526040808320938352929052205460ff1690565b155b90506000806115ea6007612741565b6040517f0634f5b90000000000000000000000000000000000000000000000000000000081528415156004820152600060248201526001600160a01b039190911690630634f5b9906044016080604051808303816000875af1158015611654573d6000803e3d6000fd5b505050506040513d601f19601f820116820180604052508101906116789190614d94565b935050925050826116cf573460e460008282546116959190614d23565b909155505060405133907f4042bb9a70998f80a86d9963f0d2132e9b11c8ad94d207c6141c8e34b05ce53e90610d16903490600190614de9565b604080513481526020810184905233917f0ede5c3be8625943fa64003cd4b91230089411249f3059bac6500873543ca9b1910160405180910390a26000611714610b5d565b905060006117228434614d23565b905060006127106117338584614e0d565b61173d9190614e3a565b9050600061174b8284614d10565b905060008260e260008282546117619190614d23565b909155505033600090815260386020908152604080832088845290915290205460ff161561186c5760006117956006612741565b6001600160a01b031663c6391fa26040518163ffffffff1660e01b8152600401608060405180830381865afa1580156117d2573d6000803e3d6000fd5b505050506040513d601f19601f820116820180604052508101906117f69190614e4e565b9350505050612710818461180a9190614e0d565b6118149190614e3a565b91508160e460008282546118289190614d23565b909155505060405133907f4042bb9a70998f80a86d9963f0d2132e9b11c8ad94d207c6141c8e34b05ce53e90611862908590600290614de9565b60405180910390a2505b6118768183614d10565b91506000806118856009612741565b6001600160a01b0316634530d2026040518163ffffffff1660e01b81526004016040805180830381865afa1580156118c1573d6000803e3d6000fd5b505050506040513d601f19601f820116820180604052508101906118e59190614e84565b33600090815260756020526040812060040154929450909250906119139061190d9084612f4c565b84612cf2565b905060006127106119248784614e0d565b61192e9190614e3a565b33600090815260e06020526040812080549293508392909190611952908490614d23565b90915550600090506119648288614d10565b33600090815260e16020526040812080549293508392909190611988908490614d23565b909155505050505050505050505050505050565b60735460609067ffffffffffffffff8111156119ba576119ba614d65565b604051908082528060200260200182016040528015611a2157816020015b6040805160e08101825260008082526020808301829052928201819052606082018190526080820181905260a0820181905260c082015282526000199092019101816119d85790505b50905060005b8151811015611aec576075600060738381548110611a4757611a47614d4f565b60009182526020808320909101546001600160a01b039081168452838201949094526040928301909120825160e081018452815485168152600182015485169281019290925260028101548416928201929092526003820154909216606083015260048101546080830152600581015460a08301526006015460c08201528251839083908110611ad957611ad9614d4f565b6020908102919091010152600101611a27565b5090565b600054600290610100900460ff16158015611b12575060005460ff8083169116105b611b755760405162461bcd60e51b815260206004820152602e60248201527f496e697469616c697a61626c653a20636f6e747261637420697320616c72656160448201526d191e481a5b9a5d1a585b1a5e995960921b6064820152608401610c67565b6000805461ffff191660ff831617610100179055607154611ba1906009906001600160a01b0316612d09565b606f54611bb9906005906001600160a01b0316612d09565b607054611bd1906006906001600160a01b0316612d09565b606d54611be9906007906001600160a01b0316612d09565b60a854611c0190600a906001600160a01b0316612d09565b607180546001600160a01b0319908116909155606f8054821690556070805482169055606d805482169055606e80548216905560a8805490911690556000805461ff001916905560405160ff821681527f7f26b83ff96e1f2b6a682f133852f6798a09c465da95921460cefb3847402498906020015b60405180910390a150565b6001600160a01b038116600090815260ac6020526040812054610b579060019060ff166003811115611cb657611cb6614dd3565b90612f5b565b611cc4612b9a565b610c0181612e88565b611cd5612f13565b611cde43611f7f565b611d14576040517f6c74eecf00000000000000000000000000000000000000000000000000000000815260040160405180910390fd5b611d1d43612029565b611d28600254612029565b10611d5f576040517f2458f64100000000000000000000000000000000000000000000000000000000815260040160405180910390fd5b436002556000611d6e42612ce3565b90506000611d7d826003541090565b90506000611d89612318565b905060606000611d9843612029565b90506000611da7826001614d23565b90506000611db3610b5d565b9050611dbf8386612f8e565b8515611f1957600080611dd283886130fd565b91509150611de2838884846132e9565b611dea61340c565b611df2613560565b6000611dfe6006612741565b6040517f7680850c0000000000000000000000000000000000000000000000000000000081529091506001600160a01b03821690637680850c90611e48908b908890600401614ea8565b600060405180830381600087803b158015611e6257600080fd5b505af1158015611e76573d6000803e3d6000fd5b50505050611e838a6136bc565b8051919950975015611f07576040517f07c2d2f60000000000000000000000000000000000000000000000000000000081526001600160a01b038216906307c2d2f690611ed4908a90600401614ace565b600060405180830381600087803b158015611eee57600080fd5b505af1158015611f02573d6000803e3d6000fd5b505050505b611f12436001614d23565b6004555050505b611f2487838761384d565b82817f0195462033384fec211477c56217da64a58bd405e0bed331ba4ded67e4ae4ce788604051611f59911515815260200190565b60405180910390a350600090815260056020526040902085905550505060039190915550565b600060018054611f8f9190614d10565b600154611f9c9084614eca565b1492915050565b611fab612b9a565b610c0181612dad565b611fbc612b9a565b611fc581613ae9565b611fcf8282612d09565b5050565b600080611fde610b5d565b6001600160a01b038416600090815260376020908152604080832084845290915290205490915060ff16610d55565b600080600061201c8443610b6d565b9250925092509193909250565b6000610b5782613b38565b600961203f81612c7e565b6001600160a01b038316600090815260e860205260409020600181015415612093576040517f2bd5598800000000000000000000000000000000000000000000000000000000815260040160405180910390fd5b600061209f8442614d23565b6001600160a01b03861660009081526075602052604090209091506120c49082613b53565b6001600160a01b0385166000818152603b602052604080822084905560e554905163138ac02f60e11b815260048101939093526024830152903390632715805e906044016020604051808303816000875af1158015612127573d6000803e3d6000fd5b505050506040513d601f19601f8201168201806040525081019061214b9190614d36565b9050801561228a57600060e654426121639190614d23565b60e78054600180820183556000929092527f6cb0db1d7354dfb4a1464318006df0643cafe2002a86a29ff8560f900fef28a10180546001600160a01b0319166001600160a01b038b16179055838655850181905590506121ea7fb53127684a568b3173ae13b9f8a6016e243e63b6e8ee1178d6a717850b5d6103546001600160a01b031690565b6001600160a01b03888116600081815260756020526040908190206002015490517fa2fae5700000000000000000000000000000000000000000000000000000000081526004810192909252821660248201524260448201526064810184905291169063a2fae57090608401600060405180830381600087803b15801561227057600080fd5b505af1158015612284573d6000803e3d6000fd5b50505050505b856001600160a01b03167f77a1a819870c0f4d04c3ca4cc2881a0393136abc28bd651af50aedade94a27c4826040516122c591815260200190565b60405180910390a2505050505050565b6000805b60aa54811015611aec57600081815260ab6020526040902054612304906001600160a01b0316611c82565b15612310576001909101905b6001016122d9565b606060aa5467ffffffffffffffff81111561233557612335614d65565b60405190808252806020026020018201604052801561235e578160200160208202803683370190505b50905060005b8151811015611aec57600081815260ab602052604090205482516001600160a01b0390911690819084908490811061239e5761239e614d4f565b6001600160a01b039092166020928302919091019091015250600101612364565b6060607380548060200260200160405190810160405280929190818152602001828054801561241757602002820191906000526020600020905b81546001600160a01b031681526001909101906020018083116123f9575b5050505050905090565b612429612b9a565b6001600160a01b038216600090815260e8602052604090206001015415611fcf5760e7548060005b828110156124a057846001600160a01b031660e7828154811061247657612476614d4f565b6000918252602090912001546001600160a01b031603612498578091506124a0565b600101612451565b508181036124ae5750505050565b6001600160a01b038416600090815260e860205260409020548015612671576001600160a01b038516600090815260e8602052604081208181556001908101919091558311156125705760e7612505600185614d10565b8154811061251557612515614d4f565b60009182526020909120015460e780546001600160a01b03909216918490811061254157612541614d4f565b9060005260206000200160006101000a8154816001600160a01b0302191690836001600160a01b031602179055505b60e780548061258157612581614ede565b60008281526020808220830160001990810180546001600160a01b03191690559092019092556001600160a01b038716825260e9905260409020805460ff191660011790556125d384826104b0613bdc565b1561262c57836001600160a01b0316856001600160a01b03167f7229136a18186c71a86246c012af3bb1df6460ef163934bbdccd6368abdd41e48360405161261d91815260200190565b60405180910390a35050505050565b604080518281524760208201526001600160a01b0380871692908816917f3747d14eb72ad3e35cba9c3e00dab3b8d15b40cac6bdbd08402356e4f69f30a1910161261d565b5050505050565b612680612b9a565b610c0181612e17565b600961269481612c7e565b61269d83613c3c565b156126d4576040517f030081e700000000000000000000000000000000000000000000000000000000815260040160405180910390fd5b6001600160a01b0383166000908152607560205260409020600581015415612728576040517ffab9167300000000000000000000000000000000000000000000000000000000815260040160405180910390fd5b61273b816127368542614d23565b613b53565b50505050565b60007fdea3103d22025c269050bea94c0c84688877f12fa22b7e6d2d5d78a9a49aa1cb600083600f81111561277857612778614dd3565b60ff1681526020810191909152604001600020546001600160a01b0316905080610ebe57816040517f812281be000000000000000000000000000000000000000000000000000000008152600401610c679190614f08565b60096127db81612c7e565b6001600160a01b0384166000908152607760205260409020541561282b576040517f5e65b9ba00000000000000000000000000000000000000000000000000000000815260040160405180910390fd5b61271082111561284e57604051631b8454a360e21b815260040160405180910390fd5b60765483101561288a576040517ffa0ae69300000000000000000000000000000000000000000000000000000000815260040160405180910390fd5b6001600160a01b03841660009081526077602052604081209062015180856128b28242614e3a565b6128bc9190614d23565b6128c69190614e0d565b8083556001830185905560408051828152602081018790529192506001600160a01b038816917f6ebafd1bb6316b2f63198a81b05cff2149c6eaae1784466a6d062b4391900f2191016122c5565b600961291f81612c7e565b607354607254811061295d576040517f8616841b00000000000000000000000000000000000000000000000000000000815260040160405180910390fd5b6001600160a01b038516600090815260746020526040902054156129ad576040517f8ad9cdf900000000000000000000000000000000000000000000000000000000815260040160405180910390fd5b6127108311156129d057604051631b8454a360e21b815260040160405180910390fd5b60005b607354811015612ac957600060756000607384815481106129f6576129f6614d4f565b60009182526020808320909101546001600160a01b03908116845290830193909352604090910190208054909250811690891603612a6b576040517ffc3d8c750000000000000000000000000000000000000000000000000000000081526001600160a01b0389166004820152602401610c67565b60028101546001600160a01b0390811690871603612ac0576040517f5a674fce0000000000000000000000000000000000000000000000000000000081526001600160a01b0387166004820152602401610c67565b506001016129d3565b506001600160a01b038581166000818152607460209081526040808320861990556073805460018082019092557ff79bde9ddd17963ebce6f7d021d60de7c2bd0db944d23c900c0c0e775f5300520180546001600160a01b031990811687179091556075909352818420805484168d881690811782559181018054851687179055600281018054909416968b1696871790935560048301899055905191949093909290917f1ca451a9920472b99355a9cf74185bf017604a7849c113f020888ecec9db93669190a450505050505050565b7fb53127684a568b3173ae13b9f8a6016e243e63b6e8ee1178d6a717850b5d6103546001600160a01b03163314610b34576000356001600160e01b03191660016040517f3e523c00000000000000000000000000000000000000000000000000000000008152600401610c67929190614f16565b6001811015612c49576040517f17b8970f00000000000000000000000000000000000000000000000000000000815260040160405180910390fd5b60768190556040518181527f266d432ffe659e3565750d26ec685b822a58041eee724b67a5afec3168a2526790602001611c77565b612c8781612741565b6001600160a01b0316336001600160a01b031614610c01576000356001600160e01b03191681336040517f8383e634000000000000000000000000000000000000000000000000000000008152600401610c6793929190614f37565b6000610b576201518083614e3a565b600081831015612d025781610d55565b5090919050565b807fdea3103d22025c269050bea94c0c84688877f12fa22b7e6d2d5d78a9a49aa1cb600084600f811115612d3f57612d3f614dd3565b60ff168152602081019190915260400160002080546001600160a01b0319166001600160a01b03928316179055811682600f811115612d8057612d80614dd3565b6040517f865d1c228a8ea13709cfe61f346f7ff67f1bbd4a18ff31ad3e7147350d317c5990600090a35050565b60a98190556040518181527fb5464c05fd0e0f000c535850116cda2742ee1f7b34384cb920ad7b8e802138b590602001611c77565b60728190556040518181527f82d5dc32d1b741512ad09c32404d7e7921e8934c6222343d95f55f7a2b9b2ab490602001611c77565b60a954811115612e53576040517faa8119d200000000000000000000000000000000000000000000000000000000815260040160405180910390fd5b60ad8190556040518181527fa9588dc77416849bd922605ce4fc806712281ad8a8f32d4238d6c8cca548e15e90602001611c77565b60e58190556040518181527f17a6c3eb965cdd7439982da25abf85be88f0f772ca33198f548e2f99fee0289a90602001611c77565b60e68190556040518181527f0a50c66137118f386332efb949231ddd3946100dbf880003daca37ddd9e0662b90602001611c77565b6001600160a01b0381166000908152603a6020526040812054431115610b57565b334114610b34576040517f09f358fd00000000000000000000000000000000000000000000000000000000815260040160405180910390fd5b6000818310612d025781610d55565b6000816003811115612f6f57612f6f614dd3565b836003811115612f8157612f81614dd3565b1660ff1615159392505050565b6000612f9a600e612741565b6001600160a01b031663468d24be84846040518363ffffffff1660e01b8152600401612fc7929190614f6c565b600060405180830381865afa158015612fe4573d6000803e3d6000fd5b505050506040513d6000823e601f3d908101601f1916820160405261300c9190810190614fe2565b90506000825160015461301f9190614e0d565b60e25490915060009081805b86518110156130ce578486828151811061304757613047614d4f565b60200260200101518461305a9190614e0d565b6130649190614e3a565b93508360e3600089848151811061307d5761307d614d4f565b60200260200101516001600160a01b03166001600160a01b0316815260200190815260200160002060008282546130b49190614d23565b909155506130c490508483614d23565b915060010161302b565b506130d98183614d10565b60e460008282546130ea9190614d23565b9091555050600060e25550505050505050565b60006060600080845167ffffffffffffffff81111561311e5761311e614d65565b604051908082528060200260200182016040528015613147578160200160208202803683370190505b50925060005b85518110156132df5785818151811061316857613168614d4f565b6020908102919091018101516001600160a01b03808216600090815260759093526040909220600201549094501691506131a183612ef2565b1580156131d257506001600160a01b03831660009081526037602090815260408083208a845290915290205460ff16155b15613250576001600160a01b038316600090815260e160205260409020546131fa9086614d23565b6001600160a01b038416600090815260e1602052604090205485519196509085908390811061322b5761322b614d4f565b6020026020010181815250506132418383613cd5565b61324b8383613d9d565b6132a7565b6001600160a01b038316600090815260e3602090815260408083205460e183528184205460e09093529220546132869190614d23565b6132909190614d23565b60e460008282546132a19190614d23565b90915550505b6001600160a01b038316600090815260e16020908152604080832083905560e0825280832083905560e390915281205560010161314d565b5050509250929050565b60006132f56009612741565b90508215612671576133078184613e58565b156133c8576040517facd79c460000000000000000000000000000000000000000000000000000000081526001600160a01b0382169063acd79c469061335590879086908a906004016150a8565b600060405180830381600087803b15801561336f57600080fd5b505af1158015613383573d6000803e3d6000fd5b505050507f9e242ca1ef9dde96eb71ef8d19a3f0f6a619b63e4c0d3998771387103656d0878385846040516133ba939291906150de565b60405180910390a15061273b565b7fe5668ec1bb2b6bb144a50f810e388da4b1d7d3fc05fcb9d588a1aac59d248f89838584476040516133fd9493929190615113565b60405180910390a15050505050565b60e754600080805b8383101561273b5760e7838154811061342f5761342f614d4f565b60009182526020808320909101546001600160a01b031680835260e8909152604090912060018101549193509150421061355557805460e48054600090613477908490614d23565b90915550506001600160a01b038216600090815260e8602052604081208181556001018190556134a685615150565b945084111561351d5760e784815481106134c2576134c2614d4f565b60009182526020909120015460e780546001600160a01b0390921691859081106134ee576134ee614d4f565b9060005260206000200160006101000a8154816001600160a01b0302191690836001600160a01b031602179055505b60e780548061352e5761352e614ede565b600082815260209020810160001990810180546001600160a01b0319169055019055613414565b600190920191613414565b60e4548015610c015760006135756007612741565b600060e481905560408051600481526024810182526020810180517bffffffffffffffffffffffffffffffffffffffffffffffffffffffff167f59f778df00000000000000000000000000000000000000000000000000000000179052905192935090916001600160a01b0384169185916135f09190615167565b60006040518083038185875af1925050503d806000811461362d576040519150601f19603f3d011682016040523d82523d6000602084013e613632565b606091505b50509050801561367757816001600160a01b03167fc447c884574da5878be39c403db2245c22530c99b579ea7bcbb3720e1d110dc884604051610d1691815260200190565b604080518481524760208201526001600160a01b038416917fa0561a59abed308fcd0556834574739d778cc6229018039a24ddda0f86aa0b739101610d16565b505050565b6060806136c883613eb4565b905060006136d66009612741565b6001600160a01b03166391f8723f60736040518263ffffffff1660e01b81526004016137029190615196565b600060405180830381865afa15801561371f573d6000803e3d6000fd5b505050506040513d6000823e601f3d908101601f191682016040526137479190810190614fe2565b90506000613755600a612741565b6001600160a01b031663520fce6260736040518263ffffffff1660e01b81526004016137819190615196565b600060405180830381865afa15801561379e573d6000803e3d6000fd5b505050506040513d6000823e601f3d908101601f191682016040526137c69190810190614fe2565b90506000613835607380548060200260200160405190810160405280929190818152602001828054801561382357602002820191906000526020600020905b81546001600160a01b03168152600190910190602001808311613805575b5050505050848460a95460ad546143dc565b90955090506138458582886144ed565b505050915091565b60006138596005612741565b6001600160a01b031663fdadda8183613873436001614d23565b6040518363ffffffff1660e01b8152600401613890929190614ea8565b600060405180830381865afa1580156138ad573d6000803e3d6000fd5b505050506040513d6000823e601f3d908101601f191682016040526138d591908101906151da565b905060005b8251811015613aa25760008382815181106138f7576138f7614d4f565b6020908102919091018101516001600160a01b0381166000908152603b90925260408220549092504211159061392c83611c82565b9050600061395f8461393f436001614d23565b6001600160a01b03919091166000908152603a6020526040902054101590565b80613980575085858151811061397757613977614d4f565b60200260200101515b806139885750825b159050811580156139965750805b15613a11576001600160a01b038416600090815260ac60205260409020546139d59060019060ff1660038111156139cf576139cf614dd3565b9061462d565b6001600160a01b038516600090815260ac60205260409020805460ff19166001836003811115613a0757613a07614dd3565b0217905550613a93565b818015613a1c575080155b15613a93576001600160a01b038416600090815260ac6020526040902054613a5b9060019060ff166003811115613a5557613a55614dd3565b90614668565b6001600160a01b038516600090815260ac60205260409020805460ff19166001836003811115613a8d57613a8d614dd3565b02179055505b846001019450505050506138da565b5082847f283b50d76057d5f828df85bc87724c6af604e9b55c363a07c9faa2a2cd688b82613ace6113c2565b604051613adb9190614ace565b60405180910390a350505050565b806001600160a01b03163b600003610c01576040517f2ff1928c0000000000000000000000000000000000000000000000000000000081526001600160a01b0382166004820152602401610c67565b600060015482613b489190614e3a565b610b57906001614d23565b60018201546001600160a01b0316600090815260746020526040902054613b8d5760405163a64b34ad60e01b815260040160405180910390fd5b6005820181905560018201546040518281526001600160a01b03909116907fb9a1e33376bfbda9092f2d1e37662c1b435aab0d3fa8da3acc8f37ee222f99e79060200160405180910390a25050565b6000836001600160a01b0316838390604051600060405180830381858888f193505050503d8060008114613c2c576040519150601f19603f3d011682016040523d82523d6000602084013e613c31565b606091505b509095945050505050565b600080613c49600a612741565b6040517f41feed1c0000000000000000000000000000000000000000000000000000000081526001600160a01b03858116600483015291909116906341feed1c90602401602060405180830381865afa158015613caa573d6000803e3d6000fd5b505050506040513d601f19601f82011682018060405250810190613cce9190614d36565b1192915050565b6001600160a01b038216600090815260e0602052604090205480156136b757613d0182826104b0613bdc565b15613d5857816001600160a01b0316836001600160a01b03167f1ce7a1c4702402cd393500acb1de5bd927727a54e144a587d328f1b679abe4ec83604051613d4b91815260200190565b60405180910390a3505050565b604080518281524760208201526001600160a01b0380851692908616917f6c69e09ee5c5ac33c0cd57787261c5bade070a392ab34a4b5487c6868f723f6e9101613d4b565b6001600160a01b038216600090815260e3602052604090205480156136b757613dc982826104b0613bdc565b15613e1357816001600160a01b0316836001600160a01b03167f0c4d6a43fc8470dee97db74874b5685e412cc517d9bdecfde1623c5e835b18e483604051613d4b91815260200190565b604080518281524760208201526001600160a01b0380851692908616917f98697ee35f04a599a814432016fff3968c483d2d88dacb484926b9358f8e7cf99101613d4b565b6000826001600160a01b03168260405160006040518083038185875af1925050503d8060008114613ea5576040519150601f19603f3d011682016040523d82523d6000602084013e613eaa565b606091505b5090949350505050565b60606000613ec26009612741565b90506000816001600160a01b031663af2454296040518163ffffffff1660e01b8152600401602060405180830381865afa158015613f04573d6000803e3d6000fd5b505050506040513d601f19601f82011682018060405250810190613f289190614d36565b90506000826001600160a01b031663909791dd6040518163ffffffff1660e01b8152600401602060405180830381865afa158015613f6a573d6000803e3d6000fd5b505050506040513d601f19601f82011682018060405250810190613f8e9190614d36565b90506000836001600160a01b03166342ef3c3460736040518263ffffffff1660e01b8152600401613fbf9190615196565b600060405180830381865afa158015613fdc573d6000803e3d6000fd5b505050506040513d6000823e601f3d908101601f191682016040526140049190810190614fe2565b60735490915060008167ffffffffffffffff81111561402557614025614d65565b60405190808252806020026020018201604052801561404e578160200160208202803683370190505b50965060008060005b84831015614314576073838154811061407257614072614d4f565b60009182526020808320909101546001600160a01b0316808352607590915260409091206006810154885192945090925015159088908890869081106140ba576140ba614d4f565b6020026020010151101561412857806141235760006140d98a42614d23565b600684018190556040518181529091506001600160a01b038516907f88f854e137380c14d63f6ed99781bf13402167cf55bac49bcd44d4f2d6a342759060200160405180910390a2505b61417b565b801561417b578160060160009055826001600160a01b03167f88f854e137380c14d63f6ed99781bf13402167cf55bac49bcd44d4f2d6a34275600060405161417291815260200190565b60405180910390a25b60008260050154600014158015614196575042836005015411155b806141b957506001600160a01b038416600090815260e9602052604090205460ff165b9050600083600601546000141580156141d6575042846006015411155b905081806141e15750805b1561427357886141f089615150565b9850888151811061420357614203614d4f565b602002602001015189878151811061421d5761421d614d4f565b602002602001018181525050848d888060010199508151811061424257614242614d4f565b60200260200101906001600160a01b031690816001600160a01b03168152505061426b856146a4565b505050614057565b6001600160a01b038516600090815260776020526040902054801580159061429b5750428111155b15614304576001600160a01b0386166000818152607760209081526040808320600181018054918590559390935560048901839055518281529192917f86d576c20e383fc2413ef692209cc48ddad5e52f25db5b32f8f7ec5076461ae9910160405180910390a2505b5050600190940193506140579050565b50505080875280156143d1577f4eaf233b9dc25a5552c1927feee1412eea69add17c2485c831c2e60e234f3c918760405161434f9190614ace565b60405180910390a16040517fe22d1c9d0000000000000000000000000000000000000000000000000000000081526001600160a01b0387169063e22d1c9d9061439e908a908c90600401614ea8565b600060405180830381600087803b1580156143b857600080fd5b505af11580156143cc573d6000803e3d6000fd5b505050505b505050505050919050565b60606000806068905060008888888888604051602401614400959493929190615269565b60408051601f19818403018152919052602080820180517bffffffffffffffffffffffffffffffffffffffffffffffffffffffff167f779415120000000000000000000000000000000000000000000000000000000017905281518b51929350600192909160009161447191614e0d565b61447c906040614d23565b90506020840181888483895afa61449257600093505b503d61449d57600092505b602087019650826144da576040517f0fc2632100000000000000000000000000000000000000000000000000000000815260040160405180910390fd5b8651955050505050509550959350505050565b815b60aa5481101561454157600081815260ab6020818152604080842080546001600160a01b0316855260ac8352908420805460ff19169055928490525280546001600160a01b03191690556001016144ef565b5060005b8281101561458157600081815260ab60209081526040808320546001600160a01b0316835260ac9091529020805460ff19169055600101614545565b5060005b828110156145f55760008482815181106145a1576145a1614d4f565b6020908102919091018101516001600160a01b0316600081815260ac83526040808220805460ff1916600317905585825260ab9093529190912080546001600160a01b031916909117905550600101614585565b508160aa81905550807f3d0eea40644a206ec25781dd5bb3b60eb4fa1264b993c3bddf3c73b14f29ef5e84604051610d169190614ace565b600081600381111561464157614641614dd3565b83600381111561465357614653614dd3565b1760ff166003811115610d5557610d55614dd3565b600081600381111561467c5761467c614dd3565b1983600381111561468f5761468f614dd3565b1660ff166003811115610d5557610d55614dd3565b6001600160a01b038116600090815260e960209081526040808320805460ff191690556074909152812054610c01918391908190036146e1575050565b6001600160a01b038216600090815260756020908152604080832080546001600160a01b03199081168255600180830180548316905560028301805483169055600383018054909216909155600482018590556005820185905560069091018490556074835281842084905560779092528220828155810182905560738054909161476b91614d10565b8154811061477b5761477b614d4f565b6000918252602090912001546001600160a01b039081169150831681146147fe576001600160a01b03811660009081526074602052604090208290556073805482919084199081106147cf576147cf614d4f565b9060005260206000200160006101000a8154816001600160a01b0302191690836001600160a01b031602179055505b607380548061480f5761480f614ede565b600082815260209020810160001990810180546001600160a01b0319169055019055505050565b6001600160a01b0381168114610c0157600080fd5b6000806040838503121561485e57600080fd5b823561486981614836565b9150602083013561487981614836565b809150509250929050565b6000806040838503121561489757600080fd5b82356148a281614836565b946020939093013593505050565b6000602082840312156148c257600080fd5b5035919050565b6000602082840312156148db57600080fd5b8135610d5581614836565b60e08101610b5782846001600160a01b03808251168352806020830151166020840152806040830151166040840152806060830151166060840152506080810151608083015260a081015160a083015260c081015160c08301525050565b815181526020808301519082015260408101610b57565b8015158114610c0157600080fd5b6000806000806080858703121561497f57600080fd5b843561498a81614836565b9350602085013592506040850135915060608501356149a88161495b565b939692955090935050565b8060408101831015610b5757600080fd5b6000806000806000806000806000806000806101a08d8f0312156149e757600080fd5b8c356149f281614836565b9b5060208d0135614a0281614836565b9a5060408d0135614a1281614836565b995060608d0135614a2281614836565b985060808d0135614a3281614836565b975060a08d0135614a4281614836565b965060c08d0135955060e08d013594506101008d013593506101208d013592506101408d01359150614a788e6101608f016149b3565b90509295989b509295989b509295989b565b600081518084526020808501945080840160005b83811015614ac35781516001600160a01b031687529582019590820190600101614a9e565b509495945050505050565b602081526000610d556020830184614a8a565b60008060208385031215614af457600080fd5b823567ffffffffffffffff80821115614b0c57600080fd5b818501915085601f830112614b2057600080fd5b813581811115614b2f57600080fd5b8660208260051b8501011115614b4457600080fd5b60209290920196919550909350505050565b6020808252825182820181905260009190848201906040850190845b81811015614b90578351151583529284019291840191600101614b72565b50909695505050505050565b6020808252825182820181905260009190848201906040850190845b81811015614b9057614c1b8385516001600160a01b03808251168352806020830151166020840152806040830151166040840152806060830151166060840152506080810151608083015260a081015160a083015260c081015160c08301525050565b9284019260e09290920191600101614bb8565b803560108110610ebe57600080fd5b60008060408385031215614c5057600080fd5b61486983614c2e565b600060208284031215614c6b57600080fd5b610d5582614c2e565b600080600060608486031215614c8957600080fd5b8335614c9481614836565b95602085013595506040909401359392505050565b60008060008060808587031215614cbf57600080fd5b8435614cca81614836565b93506020850135614cda81614836565b92506040850135614cea81614836565b9396929550929360600135925050565b634e487b7160e01b600052601160045260246000fd5b81810381811115610b5757610b57614cfa565b80820180821115610b5757610b57614cfa565b600060208284031215614d4857600080fd5b5051919050565b634e487b7160e01b600052603260045260246000fd5b634e487b7160e01b600052604160045260246000fd5b600060018201614d8d57614d8d614cfa565b5060010190565b60008060008060808587031215614daa57600080fd5b8451614db58161495b565b60208601516040870151606090970151919890975090945092505050565b634e487b7160e01b600052602160045260246000fd5b8281526040810160038310614e0057614e00614dd3565b8260208301529392505050565b8082028115828204841417610b5757610b57614cfa565b634e487b7160e01b600052601260045260246000fd5b600082614e4957614e49614e24565b500490565b60008060008060808587031215614e6457600080fd5b505082516020840151604085015160609095015191969095509092509050565b60008060408385031215614e9757600080fd5b505080516020909101519092909150565b604081526000614ebb6040830185614a8a565b90508260208301529392505050565b600082614ed957614ed9614e24565b500690565b634e487b7160e01b600052603160045260246000fd5b60108110614f0457614f04614dd3565b9052565b60208101610b578284614ef4565b6001600160e01b03198316815260408101600b8310614e0057614e00614dd3565b6001600160e01b03198416815260608101614f556020830185614ef4565b6001600160a01b0383166040830152949350505050565b828152604060208201526000614f856040830184614a8a565b949350505050565b604051601f8201601f1916810167ffffffffffffffff81118282101715614fb657614fb6614d65565b604052919050565b600067ffffffffffffffff821115614fd857614fd8614d65565b5060051b60200190565b60006020808385031215614ff557600080fd5b825167ffffffffffffffff81111561500c57600080fd5b8301601f8101851361501d57600080fd5b805161503061502b82614fbe565b614f8d565b81815260059190911b8201830190838101908783111561504f57600080fd5b928401925b8284101561506d57835182529284019290840190615054565b979650505050505050565b600081518084526020808501945080840160005b83811015614ac35781518752958201959082019060010161508c565b6060815260006150bb6060830186614a8a565b82810360208401526150cd8186615078565b915050826040830152949350505050565b8381526060602082015260006150f76060830185614a8a565b82810360408401526151098185615078565b9695505050505050565b84815260806020820152600061512c6080830186614a8a565b828103604084015261513e8186615078565b91505082606083015295945050505050565b60008161515f5761515f614cfa565b506000190190565b6000825160005b81811015615188576020818601810151858301520161516e565b506000920191825250919050565b6020808252825482820181905260008481528281209092916040850190845b81811015614b905783546001600160a01b0316835260019384019392850192016151b5565b600060208083850312156151ed57600080fd5b825167ffffffffffffffff81111561520457600080fd5b8301601f8101851361521557600080fd5b805161522361502b82614fbe565b81815260059190911b8201830190838101908783111561524257600080fd5b928401925b8284101561506d57835161525a8161495b565b82529284019290840190615247565b60a08152600061527c60a0830188614a8a565b828103602084015261528e8188615078565b905082810360408401526152a28187615078565b6060840195909552505060800152939250505056fea2646970667358221220872f20308c92e1a122fa5a1842319aaf52592b756d63b2422f585d4393a7036964736f6c63430008150033",
  "chainId": 2022,
  "contractAbsolutePath": "RoninValidatorSet.sol",
  "deployer": "0x968D0Cd7343f711216817E617d3f92a23dC91c07",
  "devdoc": {
    "version": 1,
    "kind": "dev",
    "methods": {
      "checkJailed(address)": {
        "details": "Returns whether the validator are put in jail (cannot join the set of validators) during the current period."
      },
      "checkJailedAtBlock(address,uint256)": {
        "details": "Returns whether the validator are put in jail (cannot join the set of validators) at a specific block."
      },
      "checkManyJailed(address[])": {
        "details": "Returns whether the validators are put in jail (cannot join the set of validators) during the current period."
      },
      "checkMiningRewardDeprecated(address)": {
        "details": "Returns whether the incoming reward of the block producer is deprecated during the current period."
      },
      "checkMiningRewardDeprecatedAtPeriod(address,uint256)": {
        "details": "Returns whether the incoming reward of the block producer is deprecated during a specific period."
      },
      "currentPeriod()": {
        "details": "Returns the period index from the current block."
      },
      "currentPeriodStartAtBlock()": {
        "details": "Returns the block number that the current period starts at."
      },
      "emergencyExitLockedAmount()": {
        "details": "Returns the amount of RON to lock from a consensus address."
      },
      "emergencyExpiryDuration()": {
        "details": "Returns the duration that an emergency request is expired and the fund will be recycled."
      },
      "epochEndingAt(uint256)": {
        "details": "Returns whether the epoch ending is at the block number `_block`."
      },
      "epochOf(uint256)": {
        "details": "Returns the epoch index from the block number."
      },
      "execApplyValidatorCandidate(address,address,address,uint256)": {
        "details": "Grants a validator candidate. Requirements: - The method caller is staking contract. Emits the event `CandidateGranted`."
      },
      "execBailOut(address,uint256)": {
        "details": "Finalize the bailout request from slash indicator contract. Requirements: - The method caller is slash indicator contract. Emits the event `ValidatorUnjailed`."
      },
      "execEmergencyExit(address,uint256)": {
        "details": "Fallback function of `IStaking-requestEmergencyExit`. Requirements: - The method caller is staking contract."
      },
      "execReleaseLockedFundForEmergencyExitRequest(address,address)": {
        "details": "Unlocks fund for emergency exit request. Requirements: - The method caller is admin. Emits the event `EmergencyExitLockedFundReleased` if the fund is successfully unlocked. Emits the event `EmergencyExitLockedFundReleasingFailed` if the fund is failed to unlock."
      },
      "execRequestRenounceCandidate(address,uint256)": {
        "details": "Requests to revoke a validator candidate in next `_secsLeft` seconds. Requirements: - The method caller is staking contract. Emits the event `CandidateRevokingTimestampUpdated`."
      },
      "execRequestUpdateCommissionRate(address,uint256,uint256)": {
        "details": "Fallback function of `CandidateStaking-requestUpdateCommissionRate`. Requirements: - The method caller is the staking contract. - The `_effectiveTimestamp` must be the beginning of a UTC day, and at least from 7 days onwards - The `_rate` must be in range of [0_00; 100_00]. Emits the event `CommissionRateUpdateScheduled`."
      },
      "execSlash(address,uint256,uint256,bool)": {
        "details": "Finalize the slash request from slash indicator contract. Requirements: - The method caller is slash indicator contract. Emits the event `ValidatorPunished`."
      },
      "getBlockProducers()": {
        "details": "Returns the current block producer list."
      },
      "getCandidateInfo(address)": {
        "details": "Returns the info of a candidate."
      },
      "getCandidateInfos()": {
        "details": "Returns all candidate info."
      },
      "getCommissionChangeSchedule(address)": {
        "details": "Returns the schedule of changing commission rate of a candidate address."
      },
      "getContract(uint8)": {
        "details": "Returns the address of a contract with a specific role. Throws an error if no contract is set for the specified role.",
        "params": {
          "contractType": "The role of the contract to retrieve."
        },
        "returns": {
          "contract_": "The address of the contract with the specified role."
        }
      },
      "getEmergencyExitInfo(address)": {
        "details": "Returns the emergency exit request."
      },
      "getJailedTimeLeft(address)": {
        "details": "Returns whether the validator are put in jail and the number of block and epoch that he still is in the jail."
      },
      "getJailedTimeLeftAtBlock(address,uint256)": {
        "details": "Returns whether the validator are put in jail at a specific block and the number of block and epoch that he still is in the jail."
      },
      "getLastUpdatedBlock()": {
        "details": "Returns the block that validator set was updated."
      },
      "getValidatorCandidates()": {
        "details": "Returns the validator candidate."
      },
      "getValidators()": {
        "details": "Returns the current validator list."
      },
      "initialize(address,address,address,address,address,address,uint256,uint256,uint256,uint256,uint256,uint256[2])": {
        "details": "Initializes the contract storage."
      },
      "isBlockProducer(address)": {
        "details": "Returns whether the address is block producer or not."
      },
      "isCandidateAdmin(address,address)": {
        "details": "Returns whether the address is the candidate admin."
      },
      "isPeriodEnding()": {
        "details": "Returns whether the period ending at the current block number."
      },
      "isValidatorCandidate(address)": {
        "details": "Returns whether the address is a validator (candidate)."
      },
      "maxPrioritizedValidatorNumber()": {
        "details": "Returns the number of reserved slots for prioritized validators."
      },
      "maxValidatorCandidate()": {
        "details": "Returns the maximum number of validator candidate."
      },
      "maxValidatorNumber()": {
        "details": "Returns the maximum number of validators in the epoch."
      },
      "minEffectiveDaysOnward()": {
        "details": "Returns the minimum number of days to the effective date of commission rate change."
      },
      "numberOfBlocksInEpoch()": {
        "details": "Returns the number of blocks in a epoch."
      },
      "precompilePickValidatorSetAddress()": {
        "details": "Gets the address of the precompile of picking validator set"
      },
      "precompileSortValidatorsAddress()": {
        "details": "Gets the address of the precompile of sorting validators"
      },
      "setContract(uint8,address)": {
        "details": "Sets the address of a contract with a specific role. Emits the event {ContractUpdated}.",
        "params": {
          "addr": "The address of the contract to set.",
          "contractType": "The role of the contract to set."
        }
      },
      "setEmergencyExitLockedAmount(uint256)": {
        "details": "Sets the amount of RON to lock from a consensus address. Requirements: - The method caller is admin. Emits the event `EmergencyExitLockedAmountUpdated`."
      },
      "setEmergencyExpiryDuration(uint256)": {
        "details": "Sets the duration that an emergency request is expired and the fund will be recycled. Requirements: - The method caller is admin. Emits the event `EmergencyExpiryDurationUpdated`."
      },
      "setMaxPrioritizedValidatorNumber(uint256)": {
        "details": "Updates the number of reserved slots for prioritized validators Requirements: - The method caller is admin Emits the event `MaxPrioritizedValidatorNumberUpdated`"
      },
      "setMaxValidatorCandidate(uint256)": {
        "details": "Sets the maximum number of validator candidate. Requirements: - The method caller is admin. Emits the `MaxValidatorCandidateUpdated` event."
      },
      "setMaxValidatorNumber(uint256)": {
        "details": "Updates the max validator number Requirements: - The method caller is admin Emits the event `MaxValidatorNumberUpdated`"
      },
      "setMinEffectiveDaysOnwards(uint256)": {
        "details": "Sets the minimum number of days to the effective date of commision rate change. Requirements: - The method caller is admin. Emits the `MinEffectiveDaysOnwardsUpdated` event."
      },
      "submitBlockReward()": {
        "details": "Submits reward of the current block. Requirements: - The method caller is coinbase. Emits the event `MiningRewardDeprecated` if the coinbase is slashed or no longer be a block producer. Emits the event `BlockRewardSubmitted` for the valid call."
      },
      "totalBlockProducer()": {
        "details": "Returns total numbers of the block producers."
      },
      "totalDeprecatedReward()": {
        "details": "Returns the total deprecated reward, which includes reward that is not sent for slashed validators and unsastified bridge operators"
      },
      "tryGetPeriodOfEpoch(uint256)": {
        "details": "Tries to get the period index from the epoch number."
      },
      "wrapUpEpoch()": {
        "details": "Wraps up the current epoch. Requirements: - The method must be called when the current epoch is ending. - The epoch is not wrapped yet. - The method caller is coinbase. Emits the event `MiningRewardDistributed` when some validator has reward distributed. Emits the event `StakingRewardDistributed` when some staking pool has reward distributed. Emits the event `BlockProducerSetUpdated` when the epoch is wrapped up. Emits the event `BridgeOperatorSetUpdated` when the epoch is wrapped up at period ending. Emits the event `ValidatorSetUpdated` when the epoch is wrapped up at period ending, and the validator set gets updated. Emits the event `WrappedUpEpoch`."
      }
    },
    "events": {
      "BlockProducerSetUpdated(uint256,uint256,address[])": {
        "details": "Emitted when the bridge operator set is updated, to mirror the in-jail and maintaining status of the validator."
      },
      "BlockRewardDeprecated(address,uint256,uint8)": {
        "details": "Emitted when the reward of the block producer is deprecated."
      },
      "BlockRewardSubmitted(address,uint256,uint256)": {
        "details": "Emitted when the block reward is submitted."
      },
      "BridgeOperatorRewardDistributed(address,address,address,uint256)": {
        "details": "Emitted when the bridge operator reward is distributed."
      },
      "BridgeOperatorRewardDistributionFailed(address,address,address,uint256,uint256)": {
        "details": "Emitted when the contract fails when distributing the bridge operator reward."
      },
      "BridgeOperatorSetUpdated(uint256,uint256,address[])": {
        "details": "Emitted when the bridge operator set is updated."
      },
      "CandidateGranted(address,address,address)": {
        "details": "Emitted when the validator candidate is granted."
      },
      "CandidateRevokingTimestampUpdated(address,uint256)": {
        "details": "Emitted when the revoking timestamp of a candidate is updated."
      },
      "CandidateTopupDeadlineUpdated(address,uint256)": {
        "details": "Emitted when the topup deadline of a candidate is updated."
      },
      "CandidatesRevoked(address[])": {
        "details": "Emitted when the validator candidate is revoked."
      },
      "CommissionRateUpdateScheduled(address,uint256,uint256)": {
        "details": "Emitted when a schedule for updating commission rate is set."
      },
      "CommissionRateUpdated(address,uint256)": {
        "details": "Emitted when the commission rate of a validator is updated."
      },
      "ContractUpdated(uint8,address)": {
        "details": "Emitted when a contract is updated."
      },
      "DeprecatedRewardRecycleFailed(address,uint256,uint256)": {
        "details": "Emitted when the deprecated reward withdrawal is failed"
      },
      "DeprecatedRewardRecycled(address,uint256)": {
        "details": "Emitted when the deprecated reward is withdrawn."
      },
      "EmergencyExitLockedAmountUpdated(uint256)": {
        "details": "Emitted when the emergency exit locked amount is updated."
      },
      "EmergencyExitLockedFundReleased(address,address,uint256)": {
        "details": "Emitted when the fund that locked from an emergency exit request is transferred to the recipient."
      },
      "EmergencyExitLockedFundReleasingFailed(address,address,uint256,uint256)": {
        "details": "Emitted when the fund that locked from an emergency exit request is failed to transferred back."
      },
      "EmergencyExitRequested(address,uint256)": {
        "details": "Emitted when the fund is locked from an emergency exit request"
      },
      "EmergencyExpiryDurationUpdated(uint256)": {
        "details": "Emitted when the emergency expiry duration is updated."
      },
      "FastFinalityRewardDistributed(address,address,uint256)": {
        "details": "Emitted when the fast finality reward is distributed."
      },
      "FastFinalityRewardDistributionFailed(address,address,uint256,uint256)": {
        "details": "Emitted when the contract fails when distributing the fast finality reward."
      },
      "Initialized(uint8)": {
        "details": "Triggered when the contract has been initialized or reinitialized."
      },
      "MaxPrioritizedValidatorNumberUpdated(uint256)": {
        "details": "Emitted when the number of reserved slots for prioritized validators is updated."
      },
      "MaxValidatorCandidateUpdated(uint256)": {
        "details": "Emitted when the maximum number of validator candidates is updated."
      },
      "MaxValidatorNumberUpdated(uint256)": {
        "details": "Emitted when the number of max validator is updated."
      },
      "MinEffectiveDaysOnwardsUpdated(uint256)": {
        "details": "Emitted when the min offset to the effective date of commission rate change is updated."
      },
      "MiningRewardDistributed(address,address,uint256)": {
        "details": "Emitted when the block producer reward is distributed."
      },
      "MiningRewardDistributionFailed(address,address,uint256,uint256)": {
        "details": "Emitted when the contract fails when distributing the block producer reward."
      },
      "StakingRewardDistributed(uint256,address[],uint256[])": {
        "details": "Emitted when the amount of RON reward is distributed to staking contract."
      },
      "StakingRewardDistributionFailed(uint256,address[],uint256[],uint256)": {
        "details": "Emitted when the contracts fails when distributing the amount of RON to the staking contract."
      },
      "ValidatorPunished(address,uint256,uint256,uint256,bool,bool)": {
        "details": "Emitted when the validator is punished."
      },
      "ValidatorSetUpdated(uint256,address[])": {
        "details": "Emitted when the validator set is updated"
      },
      "ValidatorUnjailed(address,uint256)": {
        "details": "Emitted when the validator get out of jail by bailout."
      },
      "WrappedUpEpoch(uint256,uint256,bool)": {
        "details": "Emitted when the epoch is wrapped up."
      }
    },
    "errors": {
      "ErrAlreadyRequestedEmergencyExit()": [
        {
          "details": "Error of already requested emergency exit before."
        }
      ],
      "ErrAlreadyRequestedRevokingCandidate()": [
        {
          "details": "Error of already requested revoking candidate before."
        }
      ],
      "ErrAlreadyRequestedUpdatingCommissionRate()": [
        {
          "details": "Error of commission change schedule exists."
        }
      ],
      "ErrAlreadyWrappedEpoch()": [
        {
          "details": "Error of query for already wrapped up epoch"
        }
      ],
      "ErrAtEndOfEpochOnly()": [
        {
          "details": "Error of only allowed at the end of epoch"
        }
      ],
      "ErrCallPrecompiled()": [
        {
          "details": "Error of call to precompile fails."
        }
      ],
      "ErrCallerMustBeCoinbase()": [
        {
          "details": "Error of method caller must be coinbase"
        }
      ],
      "ErrCannotBailout(address)": [
        {
          "details": "Error of cannot bailout due to high tier slash."
        }
      ],
      "ErrContractTypeNotFound(uint8)": [
        {
          "details": "Error of invalid role."
        }
      ],
      "ErrExceedsMaxNumberOfCandidate()": [
        {
          "details": "Error of exceeding maximum number of candidates."
        }
      ],
      "ErrExistentCandidate()": [
        {
          "details": "Error of querying for already existent candidate."
        }
      ],
      "ErrExistentCandidateAdmin(address)": [
        {
          "details": "Error of candidate admin already exists."
        }
      ],
      "ErrExistentTreasury(address)": [
        {
          "details": "Error of treasury already exists."
        }
      ],
      "ErrInsufficientBalance(bytes4,uint256,uint256)": [
        {
          "details": "Error of sender has insufficient balance."
        }
      ],
      "ErrInvalidCommissionRate()": [
        {
          "details": "Error of invalid commission rate."
        }
      ],
      "ErrInvalidEffectiveDaysOnwards()": [
        {
          "details": "Error of invalid effective days onwards."
        }
      ],
      "ErrInvalidMaxPrioritizedValidatorNumber()": [
        {
          "details": "Error thrown when an invalid maximum prioritized validator number is provided."
        }
      ],
      "ErrInvalidMinEffectiveDaysOnwards()": [
        {
          "details": "Error of invalid min effective days onwards."
        }
      ],
      "ErrNonExistentCandidate()": [
        {
          "details": "Error of querying for non-existent candidate."
        }
      ],
      "ErrRecipientRevert(bytes4)": [
        {
          "details": "Error of recipient not accepting RON when transfer RON."
        }
      ],
      "ErrTrustedOrgCannotRenounce()": [
        {
          "details": "Error of trusted org cannot renounce."
        }
      ],
      "ErrUnauthorized(bytes4,uint8)": [
        {
          "details": "Error indicating that the caller is unauthorized to perform a specific function.",
          "params": {
            "expectedRole": "The role required to perform the function.",
            "msgSig": "The function signature (bytes4) that the caller is unauthorized to perform."
          }
        }
      ],
      "ErrUnauthorizedReceiveRON()": [
        {
          "details": "Error thrown when receives RON from neither staking vesting contract nor staking contract"
        }
      ],
      "ErrUnexpectedInternalCall(bytes4,uint8,address)": [
        {
          "details": "Error indicating that the caller is unauthorized to perform a specific function.",
          "params": {
            "actual": "The actual address that called to the function.",
            "expectedContractType": "The contract type required to perform the function.",
            "msgSig": "The function signature (bytes4)."
          }
        }
      ],
      "ErrZeroCodeContract(address)": [
        {
          "details": "Error of set to non-contract."
        }
      ],
      "NonExistentRecyclingInfo()": [
        {
          "details": "Error thrown when queries for a non existent info."
        }
      ]
    }
  },
  "isFoundry": true,
  "nonce": 183830,
  "numDeployments": 2,
  "storageLayout": {
    "storage": [
      {
        "astId": 144650,
        "contract": "contracts/ronin/validator/RoninValidatorSet.sol:RoninValidatorSet",
        "label": "_initialized",
        "offset": 0,
        "slot": "0",
        "type": "t_uint8"
      },
      {
        "astId": 144653,
        "contract": "contracts/ronin/validator/RoninValidatorSet.sol:RoninValidatorSet",
        "label": "_initializing",
        "offset": 1,
        "slot": "0",
        "type": "t_bool"
      },
      {
        "astId": 35651,
        "contract": "contracts/ronin/validator/RoninValidatorSet.sol:RoninValidatorSet",
        "label": "_numberOfBlocksInEpoch",
        "offset": 0,
        "slot": "1",
        "type": "t_uint256"
      },
      {
        "astId": 35654,
        "contract": "contracts/ronin/validator/RoninValidatorSet.sol:RoninValidatorSet",
        "label": "_lastUpdatedBlock",
        "offset": 0,
        "slot": "2",
        "type": "t_uint256"
      },
      {
        "astId": 35657,
        "contract": "contracts/ronin/validator/RoninValidatorSet.sol:RoninValidatorSet",
        "label": "_lastUpdatedPeriod",
        "offset": 0,
        "slot": "3",
        "type": "t_uint256"
      },
      {
        "astId": 35660,
        "contract": "contracts/ronin/validator/RoninValidatorSet.sol:RoninValidatorSet",
        "label": "_currentPeriodStartAtBlock",
        "offset": 0,
        "slot": "4",
        "type": "t_uint256"
      },
      {
        "astId": 35665,
        "contract": "contracts/ronin/validator/RoninValidatorSet.sol:RoninValidatorSet",
        "label": "_periodOf",
        "offset": 0,
        "slot": "5",
        "type": "t_mapping(t_uint256,t_uint256)"
      },
      {
        "astId": 35670,
        "contract": "contracts/ronin/validator/RoninValidatorSet.sol:RoninValidatorSet",
        "label": "______gap",
        "offset": 0,
        "slot": "6",
        "type": "t_array(t_uint256)49_storage"
      },
      {
        "astId": 35352,
        "contract": "contracts/ronin/validator/RoninValidatorSet.sol:RoninValidatorSet",
        "label": "_miningRewardDeprecatedAtPeriod",
        "offset": 0,
        "slot": "55",
        "type": "t_mapping(t_address,t_mapping(t_uint256,t_bool))"
      },
      {
        "astId": 35359,
        "contract": "contracts/ronin/validator/RoninValidatorSet.sol:RoninValidatorSet",
        "label": "_miningRewardBailoutCutOffAtPeriod",
        "offset": 0,
        "slot": "56",
        "type": "t_mapping(t_address,t_mapping(t_uint256,t_bool))"
      },
      {
        "astId": 35366,
        "contract": "contracts/ronin/validator/RoninValidatorSet.sol:RoninValidatorSet",
        "label": "______deprecatedBridgeRewardDeprecatedAtPeriod",
        "offset": 0,
        "slot": "57",
        "type": "t_mapping(t_address,t_mapping(t_uint256,t_bool))"
      },
      {
        "astId": 35371,
        "contract": "contracts/ronin/validator/RoninValidatorSet.sol:RoninValidatorSet",
        "label": "_blockProducerJailedBlock",
        "offset": 0,
        "slot": "58",
        "type": "t_mapping(t_address,t_uint256)"
      },
      {
        "astId": 35376,
        "contract": "contracts/ronin/validator/RoninValidatorSet.sol:RoninValidatorSet",
        "label": "_emergencyExitJailedTimestamp",
        "offset": 0,
        "slot": "59",
        "type": "t_mapping(t_address,t_uint256)"
      },
      {
        "astId": 35381,
        "contract": "contracts/ronin/validator/RoninValidatorSet.sol:RoninValidatorSet",
        "label": "_cannotBailoutUntilBlock",
        "offset": 0,
        "slot": "60",
        "type": "t_mapping(t_address,t_uint256)"
      },
      {
        "astId": 35386,
        "contract": "contracts/ronin/validator/RoninValidatorSet.sol:RoninValidatorSet",
        "label": "______gap",
        "offset": 0,
        "slot": "61",
        "type": "t_array(t_uint256)48_storage"
      },
      {
        "astId": 37104,
        "contract": "contracts/ronin/validator/RoninValidatorSet.sol:RoninValidatorSet",
        "label": "______deprecatedStakingVesting",
        "offset": 0,
        "slot": "109",
        "type": "t_address"
      },
      {
        "astId": 37132,
        "contract": "contracts/ronin/validator/RoninValidatorSet.sol:RoninValidatorSet",
        "label": "______deprecatedBridgeTracking",
        "offset": 0,
        "slot": "110",
        "type": "t_address"
      },
      {
        "astId": 37120,
        "contract": "contracts/ronin/validator/RoninValidatorSet.sol:RoninValidatorSet",
        "label": "______deprecatedMaintenance",
        "offset": 0,
        "slot": "111",
        "type": "t_address"
      },
      {
        "astId": 37100,
        "contract": "contracts/ronin/validator/RoninValidatorSet.sol:RoninValidatorSet",
        "label": "______deprecatedSlashIndicator",
        "offset": 0,
        "slot": "112",
        "type": "t_address"
      },
      {
        "astId": 37116,
        "contract": "contracts/ronin/validator/RoninValidatorSet.sol:RoninValidatorSet",
        "label": "______deprecatedStakingContract",
        "offset": 0,
        "slot": "113",
        "type": "t_address"
      },
      {
        "astId": 32082,
        "contract": "contracts/ronin/validator/RoninValidatorSet.sol:RoninValidatorSet",
        "label": "_maxValidatorCandidate",
        "offset": 0,
        "slot": "114",
        "type": "t_uint256"
      },
      {
        "astId": 32086,
        "contract": "contracts/ronin/validator/RoninValidatorSet.sol:RoninValidatorSet",
        "label": "_candidates",
        "offset": 0,
        "slot": "115",
        "type": "t_array(t_address)dyn_storage"
      },
      {
        "astId": 32091,
        "contract": "contracts/ronin/validator/RoninValidatorSet.sol:RoninValidatorSet",
        "label": "_candidateIndex",
        "offset": 0,
        "slot": "116",
        "type": "t_mapping(t_address,t_uint256)"
      },
      {
        "astId": 32097,
        "contract": "contracts/ronin/validator/RoninValidatorSet.sol:RoninValidatorSet",
        "label": "_candidateInfo",
        "offset": 0,
        "slot": "117",
        "type": "t_mapping(t_address,t_struct(ValidatorCandidate)9713_storage)"
      },
      {
        "astId": 32100,
        "contract": "contracts/ronin/validator/RoninValidatorSet.sol:RoninValidatorSet",
        "label": "_minEffectiveDaysOnwards",
        "offset": 0,
        "slot": "118",
        "type": "t_uint256"
      },
      {
        "astId": 32106,
        "contract": "contracts/ronin/validator/RoninValidatorSet.sol:RoninValidatorSet",
        "label": "_candidateCommissionChangeSchedule",
        "offset": 0,
        "slot": "119",
        "type": "t_mapping(t_address,t_struct(CommissionSchedule)9718_storage)"
      },
      {
        "astId": 32111,
        "contract": "contracts/ronin/validator/RoninValidatorSet.sol:RoninValidatorSet",
        "label": "______gap",
        "offset": 0,
        "slot": "120",
        "type": "t_array(t_uint256)48_storage"
      },
      {
        "astId": 37124,
        "contract": "contracts/ronin/validator/RoninValidatorSet.sol:RoninValidatorSet",
        "label": "______deprecatedTrustedOrg",
        "offset": 0,
        "slot": "168",
        "type": "t_address"
      },
      {
        "astId": 36379,
        "contract": "contracts/ronin/validator/RoninValidatorSet.sol:RoninValidatorSet",
        "label": "_maxValidatorNumber",
        "offset": 0,
        "slot": "169",
        "type": "t_uint256"
      },
      {
        "astId": 36382,
        "contract": "contracts/ronin/validator/RoninValidatorSet.sol:RoninValidatorSet",
        "label": "validatorCount",
        "offset": 0,
        "slot": "170",
        "type": "t_uint256"
      },
      {
        "astId": 36387,
        "contract": "contracts/ronin/validator/RoninValidatorSet.sol:RoninValidatorSet",
        "label": "_validators",
        "offset": 0,
        "slot": "171",
        "type": "t_mapping(t_uint256,t_address)"
      },
      {
        "astId": 36393,
        "contract": "contracts/ronin/validator/RoninValidatorSet.sol:RoninValidatorSet",
        "label": "_validatorMap",
        "offset": 0,
        "slot": "172",
        "type": "t_mapping(t_address,t_enum(ValidatorFlag)10957)"
      },
      {
        "astId": 36396,
        "contract": "contracts/ronin/validator/RoninValidatorSet.sol:RoninValidatorSet",
        "label": "_maxPrioritizedValidatorNumber",
        "offset": 0,
        "slot": "173",
        "type": "t_uint256"
      },
      {
        "astId": 36401,
        "contract": "contracts/ronin/validator/RoninValidatorSet.sol:RoninValidatorSet",
        "label": "______gap",
        "offset": 0,
        "slot": "174",
        "type": "t_array(t_uint256)50_storage"
      },
      {
        "astId": 35228,
        "contract": "contracts/ronin/validator/RoninValidatorSet.sol:RoninValidatorSet",
        "label": "_miningReward",
        "offset": 0,
        "slot": "224",
        "type": "t_mapping(t_address,t_uint256)"
      },
      {
        "astId": 35233,
        "contract": "contracts/ronin/validator/RoninValidatorSet.sol:RoninValidatorSet",
        "label": "_delegatingReward",
        "offset": 0,
        "slot": "225",
        "type": "t_mapping(t_address,t_uint256)"
      },
      {
        "astId": 35236,
        "contract": "contracts/ronin/validator/RoninValidatorSet.sol:RoninValidatorSet",
        "label": "_totalFastFinalityReward",
        "offset": 0,
        "slot": "226",
        "type": "t_uint256"
      },
      {
        "astId": 35241,
        "contract": "contracts/ronin/validator/RoninValidatorSet.sol:RoninValidatorSet",
        "label": "_fastFinalityReward",
        "offset": 0,
        "slot": "227",
        "type": "t_mapping(t_address,t_uint256)"
      },
      {
        "astId": 35244,
        "contract": "contracts/ronin/validator/RoninValidatorSet.sol:RoninValidatorSet",
        "label": "_totalDeprecatedReward",
        "offset": 0,
        "slot": "228",
        "type": "t_uint256"
      },
      {
        "astId": 35247,
        "contract": "contracts/ronin/validator/RoninValidatorSet.sol:RoninValidatorSet",
        "label": "_emergencyExitLockedAmount",
        "offset": 0,
        "slot": "229",
        "type": "t_uint256"
      },
      {
        "astId": 35250,
        "contract": "contracts/ronin/validator/RoninValidatorSet.sol:RoninValidatorSet",
        "label": "_emergencyExpiryDuration",
        "offset": 0,
        "slot": "230",
        "type": "t_uint256"
      },
      {
        "astId": 35254,
        "contract": "contracts/ronin/validator/RoninValidatorSet.sol:RoninValidatorSet",
        "label": "_lockedConsensusList",
        "offset": 0,
        "slot": "231",
        "type": "t_array(t_address)dyn_storage"
      },
      {
        "astId": 35260,
        "contract": "contracts/ronin/validator/RoninValidatorSet.sol:RoninValidatorSet",
        "label": "_exitInfo",
        "offset": 0,
        "slot": "232",
        "type": "t_mapping(t_address,t_struct(EmergencyExitInfo)10251_storage)"
      },
      {
        "astId": 35265,
        "contract": "contracts/ronin/validator/RoninValidatorSet.sol:RoninValidatorSet",
        "label": "_lockedFundReleased",
        "offset": 0,
        "slot": "233",
        "type": "t_mapping(t_address,t_bool)"
      },
      {
        "astId": 35270,
        "contract": "contracts/ronin/validator/RoninValidatorSet.sol:RoninValidatorSet",
        "label": "______gap",
        "offset": 0,
        "slot": "234",
        "type": "t_array(t_uint256)44_storage"
      }
    ],
    "types": {
      "t_address": {
        "encoding": "inplace",
        "label": "address",
        "numberOfBytes": "20"
      },
      "t_address_payable": {
        "encoding": "inplace",
        "label": "address payable",
        "numberOfBytes": "20"
      },
      "t_array(t_address)dyn_storage": {
        "encoding": "dynamic_array",
        "label": "address[]",
        "numberOfBytes": "32",
        "base": "t_address"
      },
      "t_array(t_uint256)44_storage": {
        "encoding": "inplace",
        "label": "uint256[44]",
        "numberOfBytes": "1408",
        "base": "t_uint256"
      },
      "t_array(t_uint256)48_storage": {
        "encoding": "inplace",
        "label": "uint256[48]",
        "numberOfBytes": "1536",
        "base": "t_uint256"
      },
      "t_array(t_uint256)49_storage": {
        "encoding": "inplace",
        "label": "uint256[49]",
        "numberOfBytes": "1568",
        "base": "t_uint256"
      },
      "t_array(t_uint256)50_storage": {
        "encoding": "inplace",
        "label": "uint256[50]",
        "numberOfBytes": "1600",
        "base": "t_uint256"
      },
      "t_bool": {
        "encoding": "inplace",
        "label": "bool",
        "numberOfBytes": "1"
      },
      "t_enum(ValidatorFlag)10957": {
        "encoding": "inplace",
        "label": "enum EnumFlags.ValidatorFlag",
        "numberOfBytes": "1"
      },
      "t_mapping(t_address,t_bool)": {
        "encoding": "mapping",
        "key": "t_address",
        "label": "mapping(address => bool)",
        "numberOfBytes": "32",
        "value": "t_bool"
      },
      "t_mapping(t_address,t_enum(ValidatorFlag)10957)": {
        "encoding": "mapping",
        "key": "t_address",
        "label": "mapping(address => enum EnumFlags.ValidatorFlag)",
        "numberOfBytes": "32",
        "value": "t_enum(ValidatorFlag)10957"
      },
      "t_mapping(t_address,t_mapping(t_uint256,t_bool))": {
        "encoding": "mapping",
        "key": "t_address",
        "label": "mapping(address => mapping(uint256 => bool))",
        "numberOfBytes": "32",
        "value": "t_mapping(t_uint256,t_bool)"
      },
      "t_mapping(t_address,t_struct(CommissionSchedule)9718_storage)": {
        "encoding": "mapping",
        "key": "t_address",
        "label": "mapping(address => struct ICandidateManager.CommissionSchedule)",
        "numberOfBytes": "32",
        "value": "t_struct(CommissionSchedule)9718_storage"
      },
      "t_mapping(t_address,t_struct(EmergencyExitInfo)10251_storage)": {
        "encoding": "mapping",
        "key": "t_address",
        "label": "mapping(address => struct ICommonInfo.EmergencyExitInfo)",
        "numberOfBytes": "32",
        "value": "t_struct(EmergencyExitInfo)10251_storage"
      },
      "t_mapping(t_address,t_struct(ValidatorCandidate)9713_storage)": {
        "encoding": "mapping",
        "key": "t_address",
        "label": "mapping(address => struct ICandidateManager.ValidatorCandidate)",
        "numberOfBytes": "32",
        "value": "t_struct(ValidatorCandidate)9713_storage"
      },
      "t_mapping(t_address,t_uint256)": {
        "encoding": "mapping",
        "key": "t_address",
        "label": "mapping(address => uint256)",
        "numberOfBytes": "32",
        "value": "t_uint256"
      },
      "t_mapping(t_uint256,t_address)": {
        "encoding": "mapping",
        "key": "t_uint256",
        "label": "mapping(uint256 => address)",
        "numberOfBytes": "32",
        "value": "t_address"
      },
      "t_mapping(t_uint256,t_bool)": {
        "encoding": "mapping",
        "key": "t_uint256",
        "label": "mapping(uint256 => bool)",
        "numberOfBytes": "32",
        "value": "t_bool"
      },
      "t_mapping(t_uint256,t_uint256)": {
        "encoding": "mapping",
        "key": "t_uint256",
        "label": "mapping(uint256 => uint256)",
        "numberOfBytes": "32",
        "value": "t_uint256"
      },
      "t_struct(CommissionSchedule)9718_storage": {
        "encoding": "inplace",
        "label": "struct ICandidateManager.CommissionSchedule",
        "numberOfBytes": "64",
        "members": [
          {
            "astId": 9715,
            "contract": "contracts/ronin/validator/RoninValidatorSet.sol:RoninValidatorSet",
            "label": "effectiveTimestamp",
            "offset": 0,
            "slot": "0",
            "type": "t_uint256"
          },
          {
            "astId": 9717,
            "contract": "contracts/ronin/validator/RoninValidatorSet.sol:RoninValidatorSet",
            "label": "commissionRate",
            "offset": 0,
            "slot": "1",
            "type": "t_uint256"
          }
        ]
      },
      "t_struct(EmergencyExitInfo)10251_storage": {
        "encoding": "inplace",
        "label": "struct ICommonInfo.EmergencyExitInfo",
        "numberOfBytes": "64",
        "members": [
          {
            "astId": 10248,
            "contract": "contracts/ronin/validator/RoninValidatorSet.sol:RoninValidatorSet",
            "label": "lockedAmount",
            "offset": 0,
            "slot": "0",
            "type": "t_uint256"
          },
          {
            "astId": 10250,
            "contract": "contracts/ronin/validator/RoninValidatorSet.sol:RoninValidatorSet",
            "label": "recyclingAt",
            "offset": 0,
            "slot": "1",
            "type": "t_uint256"
          }
        ]
      },
      "t_struct(ValidatorCandidate)9713_storage": {
        "encoding": "inplace",
        "label": "struct ICandidateManager.ValidatorCandidate",
        "numberOfBytes": "224",
        "members": [
          {
            "astId": 9700,
            "contract": "contracts/ronin/validator/RoninValidatorSet.sol:RoninValidatorSet",
            "label": "admin",
            "offset": 0,
            "slot": "0",
            "type": "t_address"
          },
          {
            "astId": 9702,
            "contract": "contracts/ronin/validator/RoninValidatorSet.sol:RoninValidatorSet",
            "label": "consensusAddr",
            "offset": 0,
            "slot": "1",
            "type": "t_address"
          },
          {
            "astId": 9704,
            "contract": "contracts/ronin/validator/RoninValidatorSet.sol:RoninValidatorSet",
            "label": "treasuryAddr",
            "offset": 0,
            "slot": "2",
            "type": "t_address_payable"
          },
          {
            "astId": 9706,
            "contract": "contracts/ronin/validator/RoninValidatorSet.sol:RoninValidatorSet",
            "label": "______deprecatedbridgeOperatorAddr",
            "offset": 0,
            "slot": "3",
            "type": "t_address"
          },
          {
            "astId": 9708,
            "contract": "contracts/ronin/validator/RoninValidatorSet.sol:RoninValidatorSet",
            "label": "commissionRate",
            "offset": 0,
            "slot": "4",
            "type": "t_uint256"
          },
          {
            "astId": 9710,
            "contract": "contracts/ronin/validator/RoninValidatorSet.sol:RoninValidatorSet",
            "label": "revokingTimestamp",
            "offset": 0,
            "slot": "5",
            "type": "t_uint256"
          },
          {
            "astId": 9712,
            "contract": "contracts/ronin/validator/RoninValidatorSet.sol:RoninValidatorSet",
            "label": "topupDeadline",
            "offset": 0,
            "slot": "6",
            "type": "t_uint256"
          }
        ]
      },
      "t_uint256": {
        "encoding": "inplace",
        "label": "uint256",
        "numberOfBytes": "32"
      },
      "t_uint8": {
        "encoding": "inplace",
        "label": "uint8",
        "numberOfBytes": "1"
      }
    }
  },
  "timestamp": 1701579792,
  "userdoc": {
    "version": 1,
    "kind": "user"
  }
}