{
  "abi": [
    {
      "type": "function",
      "name": "addTrustedOrganizations",
      "inputs": [
        {
          "name": "_list",
          "type": "tuple[]",
          "internalType": "struct IRoninTrustedOrganization.TrustedOrganization[]",
          "components": [
            {
              "name": "consensusAddr",
              "type": "address",
              "internalType": "address"
            },
            {
              "name": "governor",
              "type": "address",
              "internalType": "address"
            },
            {
              "name": "bridgeVoter",
              "type": "address",
              "internalType": "address"
            },
            {
              "name": "weight",
              "type": "uint256",
              "internalType": "uint256"
            },
            {
              "name": "addedBlock",
              "type": "uint256",
              "internalType": "uint256"
            }
          ]
        }
      ],
      "outputs": [],
      "stateMutability": "nonpayable"
    },
    {
      "type": "function",
      "name": "checkThreshold",
      "inputs": [
        {
          "name": "_voteWeight",
          "type": "uint256",
          "internalType": "uint256"
        }
      ],
      "outputs": [
        {
          "name": "",
          "type": "bool",
          "internalType": "bool"
        }
      ],
      "stateMutability": "view"
    },
    {
      "type": "function",
      "name": "countTrustedOrganization",
      "inputs": [],
      "outputs": [
        {
          "name": "",
          "type": "uint256",
          "internalType": "uint256"
        }
      ],
      "stateMutability": "view"
    },
    {
      "type": "function",
      "name": "getAllTrustedOrganizations",
      "inputs": [],
      "outputs": [
        {
          "name": "_list",
          "type": "tuple[]",
          "internalType": "struct IRoninTrustedOrganization.TrustedOrganization[]",
          "components": [
            {
              "name": "consensusAddr",
              "type": "address",
              "internalType": "address"
            },
            {
              "name": "governor",
              "type": "address",
              "internalType": "address"
            },
            {
              "name": "bridgeVoter",
              "type": "address",
              "internalType": "address"
            },
            {
              "name": "weight",
              "type": "uint256",
              "internalType": "uint256"
            },
            {
              "name": "addedBlock",
              "type": "uint256",
              "internalType": "uint256"
            }
          ]
        }
      ],
      "stateMutability": "view"
    },
    {
      "type": "function",
      "name": "getBridgeVoterWeight",
      "inputs": [
        {
          "name": "_addr",
          "type": "address",
          "internalType": "address"
        }
      ],
      "outputs": [
        {
          "name": "",
          "type": "uint256",
          "internalType": "uint256"
        }
      ],
      "stateMutability": "view"
    },
    {
      "type": "function",
      "name": "getBridgeVoterWeights",
      "inputs": [
        {
          "name": "_list",
          "type": "address[]",
          "internalType": "address[]"
        }
      ],
      "outputs": [
        {
          "name": "_res",
          "type": "uint256[]",
          "internalType": "uint256[]"
        }
      ],
      "stateMutability": "view"
    },
    {
      "type": "function",
      "name": "getConsensusWeight",
      "inputs": [
        {
          "name": "_consensusAddr",
          "type": "address",
          "internalType": "address"
        }
      ],
      "outputs": [
        {
          "name": "",
          "type": "uint256",
          "internalType": "uint256"
        }
      ],
      "stateMutability": "view"
    },
    {
      "type": "function",
      "name": "getConsensusWeights",
      "inputs": [
        {
          "name": "_list",
          "type": "address[]",
          "internalType": "address[]"
        }
      ],
      "outputs": [
        {
          "name": "_res",
          "type": "uint256[]",
          "internalType": "uint256[]"
        }
      ],
      "stateMutability": "view"
    },
    {
      "type": "function",
      "name": "getGovernorWeight",
      "inputs": [
        {
          "name": "_governor",
          "type": "address",
          "internalType": "address"
        }
      ],
      "outputs": [
        {
          "name": "",
          "type": "uint256",
          "internalType": "uint256"
        }
      ],
      "stateMutability": "view"
    },
    {
      "type": "function",
      "name": "getGovernorWeights",
      "inputs": [
        {
          "name": "_list",
          "type": "address[]",
          "internalType": "address[]"
        }
      ],
      "outputs": [
        {
          "name": "_res",
          "type": "uint256[]",
          "internalType": "uint256[]"
        }
      ],
      "stateMutability": "view"
    },
    {
      "type": "function",
      "name": "getThreshold",
      "inputs": [],
      "outputs": [
        {
          "name": "num_",
          "type": "uint256",
          "internalType": "uint256"
        },
        {
          "name": "denom_",
          "type": "uint256",
          "internalType": "uint256"
        }
      ],
      "stateMutability": "view"
    },
    {
      "type": "function",
      "name": "getTrustedOrganization",
      "inputs": [
        {
          "name": "_consensusAddr",
          "type": "address",
          "internalType": "address"
        }
      ],
      "outputs": [
        {
          "name": "",
          "type": "tuple",
          "internalType": "struct IRoninTrustedOrganization.TrustedOrganization",
          "components": [
            {
              "name": "consensusAddr",
              "type": "address",
              "internalType": "address"
            },
            {
              "name": "governor",
              "type": "address",
              "internalType": "address"
            },
            {
              "name": "bridgeVoter",
              "type": "address",
              "internalType": "address"
            },
            {
              "name": "weight",
              "type": "uint256",
              "internalType": "uint256"
            },
            {
              "name": "addedBlock",
              "type": "uint256",
              "internalType": "uint256"
            }
          ]
        }
      ],
      "stateMutability": "view"
    },
    {
      "type": "function",
      "name": "getTrustedOrganizationAt",
      "inputs": [
        {
          "name": "_idx",
          "type": "uint256",
          "internalType": "uint256"
        }
      ],
      "outputs": [
        {
          "name": "",
          "type": "tuple",
          "internalType": "struct IRoninTrustedOrganization.TrustedOrganization",
          "components": [
            {
              "name": "consensusAddr",
              "type": "address",
              "internalType": "address"
            },
            {
              "name": "governor",
              "type": "address",
              "internalType": "address"
            },
            {
              "name": "bridgeVoter",
              "type": "address",
              "internalType": "address"
            },
            {
              "name": "weight",
              "type": "uint256",
              "internalType": "uint256"
            },
            {
              "name": "addedBlock",
              "type": "uint256",
              "internalType": "uint256"
            }
          ]
        }
      ],
      "stateMutability": "view"
    },
    {
      "type": "function",
      "name": "initialize",
      "inputs": [
        {
          "name": "_trustedOrgs",
          "type": "tuple[]",
          "internalType": "struct IRoninTrustedOrganization.TrustedOrganization[]",
          "components": [
            {
              "name": "consensusAddr",
              "type": "address",
              "internalType": "address"
            },
            {
              "name": "governor",
              "type": "address",
              "internalType": "address"
            },
            {
              "name": "bridgeVoter",
              "type": "address",
              "internalType": "address"
            },
            {
              "name": "weight",
              "type": "uint256",
              "internalType": "uint256"
            },
            {
              "name": "addedBlock",
              "type": "uint256",
              "internalType": "uint256"
            }
          ]
        },
        {
          "name": "__num",
          "type": "uint256",
          "internalType": "uint256"
        },
        {
          "name": "__denom",
          "type": "uint256",
          "internalType": "uint256"
        }
      ],
      "outputs": [],
      "stateMutability": "nonpayable"
    },
    {
      "type": "function",
      "name": "minimumVoteWeight",
      "inputs": [],
      "outputs": [
        {
          "name": "",
          "type": "uint256",
          "internalType": "uint256"
        }
      ],
      "stateMutability": "view"
    },
    {
      "type": "function",
      "name": "removeTrustedOrganizations",
      "inputs": [
        {
          "name": "_list",
          "type": "address[]",
          "internalType": "address[]"
        }
      ],
      "outputs": [],
      "stateMutability": "nonpayable"
    },
    {
      "type": "function",
      "name": "setThreshold",
      "inputs": [
        {
          "name": "_numerator",
          "type": "uint256",
          "internalType": "uint256"
        },
        {
          "name": "_denominator",
          "type": "uint256",
          "internalType": "uint256"
        }
      ],
      "outputs": [
        {
          "name": "",
          "type": "uint256",
          "internalType": "uint256"
        },
        {
          "name": "",
          "type": "uint256",
          "internalType": "uint256"
        }
      ],
      "stateMutability": "nonpayable"
    },
    {
      "type": "function",
      "name": "sumBridgeVoterWeight",
      "inputs": [
        {
          "name": "_list",
          "type": "address[]",
          "internalType": "address[]"
        }
      ],
      "outputs": [
        {
          "name": "_res",
          "type": "uint256",
          "internalType": "uint256"
        }
      ],
      "stateMutability": "view"
    },
    {
      "type": "function",
      "name": "sumConsensusWeight",
      "inputs": [
        {
          "name": "_list",
          "type": "address[]",
          "internalType": "address[]"
        }
      ],
      "outputs": [
        {
          "name": "_res",
          "type": "uint256",
          "internalType": "uint256"
        }
      ],
      "stateMutability": "view"
    },
    {
      "type": "function",
      "name": "sumGovernorWeight",
      "inputs": [
        {
          "name": "_list",
          "type": "address[]",
          "internalType": "address[]"
        }
      ],
      "outputs": [
        {
          "name": "_res",
          "type": "uint256",
          "internalType": "uint256"
        }
      ],
      "stateMutability": "view"
    },
    {
      "type": "function",
      "name": "sumGovernorWeights",
      "inputs": [
        {
          "name": "_list",
          "type": "address[]",
          "internalType": "address[]"
        }
      ],
      "outputs": [
        {
          "name": "_res",
          "type": "uint256",
          "internalType": "uint256"
        }
      ],
      "stateMutability": "view"
    },
    {
      "type": "function",
      "name": "totalWeight",
      "inputs": [],
      "outputs": [
        {
          "name": "",
          "type": "uint256",
          "internalType": "uint256"
        }
      ],
      "stateMutability": "view"
    },
    {
      "type": "function",
      "name": "totalWeights",
      "inputs": [],
      "outputs": [
        {
          "name": "",
          "type": "uint256",
          "internalType": "uint256"
        }
      ],
      "stateMutability": "view"
    },
    {
      "type": "function",
      "name": "updateTrustedOrganizations",
      "inputs": [
        {
          "name": "_list",
          "type": "tuple[]",
          "internalType": "struct IRoninTrustedOrganization.TrustedOrganization[]",
          "components": [
            {
              "name": "consensusAddr",
              "type": "address",
              "internalType": "address"
            },
            {
              "name": "governor",
              "type": "address",
              "internalType": "address"
            },
            {
              "name": "bridgeVoter",
              "type": "address",
              "internalType": "address"
            },
            {
              "name": "weight",
              "type": "uint256",
              "internalType": "uint256"
            },
            {
              "name": "addedBlock",
              "type": "uint256",
              "internalType": "uint256"
            }
          ]
        }
      ],
      "outputs": [],
      "stateMutability": "nonpayable"
    },
    {
      "type": "event",
      "name": "Initialized",
      "inputs": [
        {
          "name": "version",
          "type": "uint8",
          "indexed": false,
          "internalType": "uint8"
        }
      ],
      "anonymous": false
    },
    {
      "type": "event",
      "name": "ThresholdUpdated",
      "inputs": [
        {
          "name": "nonce",
          "type": "uint256",
          "indexed": true,
          "internalType": "uint256"
        },
        {
          "name": "numerator",
          "type": "uint256",
          "indexed": true,
          "internalType": "uint256"
        },
        {
          "name": "denominator",
          "type": "uint256",
          "indexed": true,
          "internalType": "uint256"
        },
        {
          "name": "previousNumerator",
          "type": "uint256",
          "indexed": false,
          "internalType": "uint256"
        },
        {
          "name": "previousDenominator",
          "type": "uint256",
          "indexed": false,
          "internalType": "uint256"
        }
      ],
      "anonymous": false
    },
    {
      "type": "event",
      "name": "TrustedOrganizationsAdded",
      "inputs": [
        {
          "name": "orgs",
          "type": "tuple[]",
          "indexed": false,
          "internalType": "struct IRoninTrustedOrganization.TrustedOrganization[]",
          "components": [
            {
              "name": "consensusAddr",
              "type": "address",
              "internalType": "address"
            },
            {
              "name": "governor",
              "type": "address",
              "internalType": "address"
            },
            {
              "name": "bridgeVoter",
              "type": "address",
              "internalType": "address"
            },
            {
              "name": "weight",
              "type": "uint256",
              "internalType": "uint256"
            },
            {
              "name": "addedBlock",
              "type": "uint256",
              "internalType": "uint256"
            }
          ]
        }
      ],
      "anonymous": false
    },
    {
      "type": "event",
      "name": "TrustedOrganizationsRemoved",
      "inputs": [
        {
          "name": "orgs",
          "type": "address[]",
          "indexed": false,
          "internalType": "address[]"
        }
      ],
      "anonymous": false
    },
    {
      "type": "event",
      "name": "TrustedOrganizationsUpdated",
      "inputs": [
        {
          "name": "orgs",
          "type": "tuple[]",
          "indexed": false,
          "internalType": "struct IRoninTrustedOrganization.TrustedOrganization[]",
          "components": [
            {
              "name": "consensusAddr",
              "type": "address",
              "internalType": "address"
            },
            {
              "name": "governor",
              "type": "address",
              "internalType": "address"
            },
            {
              "name": "bridgeVoter",
              "type": "address",
              "internalType": "address"
            },
            {
              "name": "weight",
              "type": "uint256",
              "internalType": "uint256"
            },
            {
              "name": "addedBlock",
              "type": "uint256",
              "internalType": "uint256"
            }
          ]
        }
      ],
      "anonymous": false
    },
    {
      "type": "error",
      "name": "ErrBridgeVoterIsAlreadyAdded",
      "inputs": [
        {
          "name": "voter",
          "type": "address",
          "internalType": "address"
        }
      ]
    },
    {
      "type": "error",
      "name": "ErrConsensusAddressIsAlreadyAdded",
      "inputs": [
        {
          "name": "addr",
          "type": "address",
          "internalType": "address"
        }
      ]
    },
    {
      "type": "error",
      "name": "ErrConsensusAddressIsNotAdded",
      "inputs": [
        {
          "name": "addr",
          "type": "address",
          "internalType": "address"
        }
      ]
    },
    {
      "type": "error",
      "name": "ErrDuplicated",
      "inputs": [
        {
          "name": "msgSig",
          "type": "bytes4",
          "internalType": "bytes4"
        }
      ]
    },
    {
      "type": "error",
      "name": "ErrEmptyArray",
      "inputs": []
    },
    {
      "type": "error",
      "name": "ErrGovernorAddressIsAlreadyAdded",
      "inputs": [
        {
          "name": "addr",
          "type": "address",
          "internalType": "address"
        }
      ]
    },
    {
      "type": "error",
      "name": "ErrInvalidRequest",
      "inputs": []
    },
    {
      "type": "error",
      "name": "ErrInvalidThreshold",
      "inputs": [
        {
          "name": "msgSig",
          "type": "bytes4",
          "internalType": "bytes4"
        }
      ]
    },
    {
      "type": "error",
      "name": "ErrInvalidVoteWeight",
      "inputs": [
        {
          "name": "msgSig",
          "type": "bytes4",
          "internalType": "bytes4"
        }
      ]
    },
    {
      "type": "error",
      "name": "ErrQueryForDupplicated",
      "inputs": []
    },
    {
      "type": "error",
      "name": "ErrQueryForNonExistentConsensusAddress",
      "inputs": []
    },
    {
      "type": "error",
      "name": "ErrUnauthorized",
      "inputs": [
        {
          "name": "msgSig",
          "type": "bytes4",
          "internalType": "bytes4"
        },
        {
          "name": "expectedRole",
          "type": "uint8",
          "internalType": "enum RoleAccess"
        }
      ]
    }
  ],
  "address": "0xd76C96D8ba671da76460162b2d043D91f0C22172",
  "args": "0x",
  "blockNumber": 17360399,
  "bytecode": "0x608060405234801561001057600080fd5b50612118806100206000396000f3fe608060405234801561001057600080fd5b50600436106101985760003560e01c8063926323d5116100e3578063cc7e6b3b1161008c578063db6693a211610066578063db6693a21461038b578063e75235b8146103ab578063f09267c2146103b657600080fd5b8063cc7e6b3b1461032c578063d78392f81461033f578063dafae4081461036857600080fd5b8063b505a07c116100bd578063b505a07c146102e9578063b7f67e97146102fc578063b9c362091461030457600080fd5b8063926323d5146102c657806396c82e57146102ce578063a85c7d6e146102d657600080fd5b80635f14a1c3116101455780637c37103c1161011f5780637c37103c146102985780637de5dedd146102ab578063903bb3c5146102b357600080fd5b80635f14a1c31461025f578063691845a914610272578063708236251461028557600080fd5b806341feed1c1161017657806341feed1c146101ed578063520fce6214610216578063562419111461023657600080fd5b80630e777c061461019d5780630ed285df146101c357806315074005146101d8575b600080fd5b6101b06101ab366004611ba9565b6103c9565b6040519081526020015b60405180910390f35b6101d66101d1366004611c63565b610435565b005b6101e061044b565b6040516101ba9190611ca5565b6101b06101fb366004611d49565b6001600160a01b031660009081526005602052604090205490565b610229610224366004611ba9565b6105d1565b6040516101ba9190611d64565b6101b0610244366004611d49565b6001600160a01b031660009081526007602052604090205490565b6101b061026d366004611ba9565b610695565b6101b0610280366004611ba9565b610720565b610229610293366004611ba9565b610785565b6101d66102a6366004611d9c565b610849565b6101b06109a0565b6101b06102c1366004611ba9565b6109dd565b6101b0610a42565b6003546101b0565b6101d66102e4366004611ba9565b610aa6565b6101d66102f7366004611c63565b610b50565b6009546101b0565b610317610312366004611ded565b610bef565b604080519283526020830191909152016101ba565b61022961033a366004611ba9565b610c10565b6101b061034d366004611d49565b6001600160a01b031660009081526006602052604090205490565b61037b610376366004611e0f565b610cd4565b60405190151581526020016101ba565b61039e610399366004611d49565b610cfb565b6040516101ba9190611e28565b600154600254610317565b61039e6103c4366004611e0f565b610db3565b6000805b8281101561042e57600760008585848181106103eb576103eb611e70565b90506020020160208101906104009190611d49565b6001600160a01b031681526020810191909152604001600020546104249083611e9c565b91506001016103cd565b5092915050565b61043d610eb9565b6104478282610f2f565b5050565b60095460609067ffffffffffffffff81111561046957610469611eaf565b6040519080825280602002602001820160405280156104c257816020015b6040805160a0810182526000808252602080830182905292820181905260608201819052608082015282526000199092019101816104875790505b5090506000805b82518110156105cc57600981815481106104e5576104e5611e70565b9060005260206000200160009054906101000a90046001600160a01b031691508183828151811061051857610518611e70565b60209081029190910101516001600160a01b039091169052600a80548290811061054457610544611e70565b9060005260206000200160009054906101000a90046001600160a01b031683828151811061057457610574611e70565b6020908102919091018101516001600160a01b039283169082015290831660009081526005909152604090205483518490839081106105b5576105b5611e70565b6020908102919091010151606001526001016104c9565b505090565b60608167ffffffffffffffff8111156105ec576105ec611eaf565b604051908082528060200260200182016040528015610615578160200160208202803683370190505b50905060005b815181101561042e576005600085858481811061063a5761063a611e70565b905060200201602081019061064f9190611d49565b6001600160a01b03166001600160a01b031681526020019081526020016000205482828151811061068257610682611e70565b602090810291909101015260010161061b565b6040517f903bb3c5000000000000000000000000000000000000000000000000000000008152600090309063903bb3c5906106d69086908690600401611ec5565b602060405180830381865afa1580156106f3573d6000803e3d6000fd5b505050506040513d601f19601f820116820180604052508101906107179190611f11565b90505b92915050565b6000805b8281101561042e576005600085858481811061074257610742611e70565b90506020020160208101906107579190611d49565b6001600160a01b0316815260208101919091526040016000205461077b9083611e9c565b9150600101610724565b60608167ffffffffffffffff8111156107a0576107a0611eaf565b6040519080825280602002602001820160405280156107c9578160200160208202803683370190505b50905060005b815181101561042e57600760008585848181106107ee576107ee611e70565b90506020020160208101906108039190611d49565b6001600160a01b03166001600160a01b031681526020019081526020016000205482828151811061083657610836611e70565b60209081029190910101526001016107cf565b600054610100900460ff16158080156108695750600054600160ff909116105b806108835750303b158015610883575060005460ff166001145b610914576040517f08c379a000000000000000000000000000000000000000000000000000000000815260206004820152602e60248201527f496e697469616c697a61626c653a20636f6e747261637420697320616c72656160448201527f647920696e697469616c697a656400000000000000000000000000000000000060648201526084015b60405180910390fd5b6000805460ff191660011790558015610937576000805461ff0019166101001790555b8315610947576109478585610f2f565b6109518383610fa4565b50508015610999576000805461ff0019169055604051600181527f7f26b83ff96e1f2b6a682f133852f6798a09c465da95921460cefb38474024989060200160405180910390a15b5050505050565b600060025460016002546003546001546109ba9190611f2a565b6109c49190611e9c565b6109ce9190611f41565b6109d89190611f54565b905090565b6000805b8281101561042e57600660008585848181106109ff576109ff611e70565b9050602002016020810190610a149190611d49565b6001600160a01b03168152602081019190915260400160002054610a389083611e9c565b91506001016109e1565b6000306001600160a01b03166396c82e576040518163ffffffff1660e01b8152600401602060405180830381865afa158015610a82573d6000803e3d6000fd5b505050506040513d601f19601f820116820180604052508101906109d89190611f11565b610aae610eb9565b6000819003610ad0576040516316ee9d3b60e11b815260040160405180910390fd5b60005b81811015610b1257610b0a838383818110610af057610af0611e70565b9050602002016020810190610b059190611d49565b611053565b600101610ad3565b507f121945697ac30ee0fc67821492cb685c65f0ea4d7f1b710fde44d6e2237f43a78282604051610b44929190611ec5565b60405180910390a15050565b610b58610eb9565b6000819003610b7a576040516316ee9d3b60e11b815260040160405180910390fd5b60005b81811015610bbd57610bb5838383818110610b9a57610b9a611e70565b905060a00201803603810190610bb09190611f76565b6113c2565b600101610b7d565b507fe887c8106c09d1770c0ef0bf8ca62c54766f18b07506801865501783376cbeda8282604051610b44929190612007565b600080610bfa610eb9565b610c048484610fa4565b915091505b9250929050565b60608167ffffffffffffffff811115610c2b57610c2b611eaf565b604051908082528060200260200182016040528015610c54578160200160208202803683370190505b50905060005b815181101561042e5760066000858584818110610c7957610c79611e70565b9050602002016020810190610c8e9190611d49565b6001600160a01b03166001600160a01b0316815260200190815260200160002054828281518110610cc157610cc1611e70565b6020908102919091010152600101610c5a565b6000600354600154610ce69190611f2a565b600254610cf39084611f2a565b101592915050565b6040805160a0810182526000808252602082018190529181018290526060810182905260808101829052905b600954811015610d8057826001600160a01b031660098281548110610d4e57610d4e611e70565b6000918252602090912001546001600160a01b031603610d7857610d7181610db3565b9392505050565b600101610d27565b506040517fe57fdbef00000000000000000000000000000000000000000000000000000000815260040160405180910390fd5b6040805160a081018252600080825260208201819052918101829052606081018290526080810191909152600060098381548110610df357610df3611e70565b9060005260206000200160009054906101000a90046001600160a01b031690506040518060a00160405280826001600160a01b03168152602001600a8581548110610e4057610e40611e70565b600091825260209182902001546001600160a01b03168252600b8054929091019186908110610e7157610e71611e70565b60009182526020808320909101546001600160a01b03908116845294909416808252600585526040808320548487015290825260089094528390205492019190915292915050565b7fb53127684a568b3173ae13b9f8a6016e243e63b6e8ee1178d6a717850b5d6103546001600160a01b03163314610f2d576000356001600160e01b03191660016040517f3e523c0000000000000000000000000000000000000000000000000000000000815260040161090b929190612090565b565b60005b81811015610f7257610f6a838383818110610f4f57610f4f611e70565b905060a00201803603810190610f659190611f76565b6116e9565b600101610f32565b507fc753dbf7952c70ff6b9fa7b626403aa1d2230d97136b635bd5e85bec72bcca6c8282604051610b44929190612007565b60008082841115610fef576040517f87f6f0950000000000000000000000000000000000000000000000000000000081526001600160e01b031960003516600482015260240161090b565b50506001805460028054858455908490556004805493840190556040805183815260208101839052929391928592879290917f976f8a9c5bdf8248dec172376d6e2b80a8e3df2f0328e381c6db8e1cf138c0f8910160405180910390a49250929050565b6001600160a01b03811660009081526005602052604081205490819003611098576040516349f748eb60e01b81526001600160a01b038316600482015260240161090b565b600954600090815b818110156110ef57846001600160a01b0316600982815481106110c5576110c5611e70565b6000918252602090912001546001600160a01b0316036110e7578092506110ef565b6001016110a0565b5082600360008282546111029190611f41565b90915550506001600160a01b03841660009081526008602090815260408083208390556005909152812055600961113a600183611f41565b8154811061114a5761114a611e70565b600091825260209091200154600980546001600160a01b03909216918490811061117657611176611e70565b9060005260206000200160006101000a8154816001600160a01b0302191690836001600160a01b0316021790555060098054806111b5576111b56120cc565b6001900381819060005260206000200160006101000a8154906001600160a01b030219169055905560066000600a84815481106111f4576111f4611e70565b60009182526020808320909101546001600160a01b03168352820192909252604001812055600a611226600183611f41565b8154811061123657611236611e70565b600091825260209091200154600a80546001600160a01b03909216918490811061126257611262611e70565b9060005260206000200160006101000a8154816001600160a01b0302191690836001600160a01b03160217905550600a8054806112a1576112a16120cc565b6001900381819060005260206000200160006101000a8154906001600160a01b030219169055905560076000600b84815481106112e0576112e0611e70565b60009182526020808320909101546001600160a01b03168352820192909252604001812055600b611312600183611f41565b8154811061132257611322611e70565b600091825260209091200154600b80546001600160a01b03909216918490811061134e5761134e611e70565b9060005260206000200160006101000a8154816001600160a01b0302191690836001600160a01b03160217905550600b80548061138d5761138d6120cc565b6000828152602090208101600019908101805473ffffffffffffffffffffffffffffffffffffffff1916905501905550505050565b6113cb816119a5565b80516001600160a01b0316600090815260056020526040812054908190036114145781516040516349f748eb60e01b81526001600160a01b03909116600482015260240161090b565b60095460005b818110156116e35783600001516001600160a01b03166009828154811061144357611443611e70565b6000918252602090912001546001600160a01b0316036116db57826003600082825461146f9190611f41565b909155505060608401516003805460009061148b908490611e9c565b9250508190555083602001516001600160a01b0316600a82815481106114b3576114b3611e70565b6000918252602090912001546001600160a01b03161461158e576020808501516001600160a01b031660009081526006909152604090205415611509576040516346da180960e01b815260040160405180910390fd5b60066000600a838154811061152057611520611e70565b60009182526020808320909101546001600160a01b03168352828101939093526040909101812055840151600a80548390811061155f5761155f611e70565b9060005260206000200160006101000a8154816001600160a01b0302191690836001600160a01b031602179055505b83604001516001600160a01b0316600b82815481106115af576115af611e70565b6000918252602090912001546001600160a01b031614611689576040808501516001600160a01b031660009081526007602052205415611602576040516346da180960e01b815260040160405180910390fd5b60076000600b838154811061161957611619611e70565b60009182526020808320909101546001600160a01b031683528201929092526040908101822091909155840151600b80548390811061165a5761165a611e70565b9060005260206000200160006101000a8154816001600160a01b0302191690836001600160a01b031602179055505b50505060608101805182516001600160a01b0390811660009081526005602090815260408083209490945584518187015184168352600682528483205593519483015190911681526007909252902055565b60010161141a565b50505050565b608081015115611725576040517f94e1670800000000000000000000000000000000000000000000000000000000815260040160405180910390fd5b61172e816119a5565b80516001600160a01b03166000908152600560205260409020541561178d5780516040517fada9a3530000000000000000000000000000000000000000000000000000000081526001600160a01b03909116600482015260240161090b565b6020808201516001600160a01b0316600090815260069091526040902054156117f35760208101516040517ffebc5eb20000000000000000000000000000000000000000000000000000000081526001600160a01b03909116600482015260240161090b565b6040808201516001600160a01b0316600090815260076020522054156118565760408082015190517f0f69702d0000000000000000000000000000000000000000000000000000000081526001600160a01b03909116600482015260240161090b565b8051600980546001808201835560009283527f6e1540171b6c0c960b71a7020d9f60077f6af931a8bbf590da0223dacf75c7af909101805473ffffffffffffffffffffffffffffffffffffffff199081166001600160a01b0395861617909155606085018051865186168552600560209081526040808720929092558088018051600a805480890182559089527fc65a7bb8d6351c1cf70c95a316cc6a92839c986682d98bc35f958f4883f9d2a80180548716918a16919091179055835190518816875260068252828720558188018051600b8054978801815588527f0175b7a638427703f0dbe7bb9bbf987a2551717b34e79f33b5b1008d1fa01db990960180549095169588169590951790935581519351861685526007835280852093909355855190941683526008905281204390559051600380549192909161199d908490611e9c565b909155505050565b80606001516000036119f1576040517ffe2371460000000000000000000000000000000000000000000000000000000081526001600160e01b031960003516600482015260240161090b565b6040805160038082526080820190925260009160208201606080368337019050509050816000015181600081518110611a2c57611a2c611e70565b60200260200101906001600160a01b031690816001600160a01b031681525050816020015181600181518110611a6457611a64611e70565b60200260200101906001600160a01b031690816001600160a01b031681525050816040015181600281518110611a9c57611a9c611e70565b60200260200101906001600160a01b031690816001600160a01b031681525050611ac581611b0a565b15610447576040517f1ad2fb620000000000000000000000000000000000000000000000000000000081526001600160e01b031960003516600482015260240161090b565b60008151600003611b1d57506000919050565b60005b6001835103811015611ba057600181015b8351811015611b9757838181518110611b4c57611b4c611e70565b60200260200101516001600160a01b0316848381518110611b6f57611b6f611e70565b60200260200101516001600160a01b031603611b8f575060019392505050565b600101611b31565b50600101611b20565b50600092915050565b60008060208385031215611bbc57600080fd5b823567ffffffffffffffff80821115611bd457600080fd5b818501915085601f830112611be857600080fd5b813581811115611bf757600080fd5b8660208260051b8501011115611c0c57600080fd5b60209290920196919550909350505050565b60008083601f840112611c3057600080fd5b50813567ffffffffffffffff811115611c4857600080fd5b60208301915083602060a083028501011115610c0957600080fd5b60008060208385031215611c7657600080fd5b823567ffffffffffffffff811115611c8d57600080fd5b611c9985828601611c1e565b90969095509350505050565b6020808252825182820181905260009190848201906040850190845b81811015611d2157611d0e8385516001600160a01b038082511683528060208301511660208401528060408301511660408401525060608101516060830152608081015160808301525050565b9284019260a09290920191600101611cc1565b50909695505050505050565b80356001600160a01b0381168114611d4457600080fd5b919050565b600060208284031215611d5b57600080fd5b61071782611d2d565b6020808252825182820181905260009190848201906040850190845b81811015611d2157835183529284019291840191600101611d80565b60008060008060608587031215611db257600080fd5b843567ffffffffffffffff811115611dc957600080fd5b611dd587828801611c1e565b90989097506020870135966040013595509350505050565b60008060408385031215611e0057600080fd5b50508035926020909101359150565b600060208284031215611e2157600080fd5b5035919050565b60a0810161071a82846001600160a01b038082511683528060208301511660208401528060408301511660408401525060608101516060830152608081015160808301525050565b634e487b7160e01b600052603260045260246000fd5b634e487b7160e01b600052601160045260246000fd5b8082018082111561071a5761071a611e86565b634e487b7160e01b600052604160045260246000fd5b60208082528181018390526000908460408401835b86811015611f06576001600160a01b03611ef384611d2d565b1682529183019190830190600101611eda565b509695505050505050565b600060208284031215611f2357600080fd5b5051919050565b808202811582820484141761071a5761071a611e86565b8181038181111561071a5761071a611e86565b600082611f7157634e487b7160e01b600052601260045260246000fd5b500490565b600060a08284031215611f8857600080fd5b60405160a0810181811067ffffffffffffffff82111715611fb957634e487b7160e01b600052604160045260246000fd5b604052611fc583611d2d565b8152611fd360208401611d2d565b6020820152611fe460408401611d2d565b604082015260608301356060820152608083013560808201528091505092915050565b6020808252818101839052600090604080840186845b87811015612083576001600160a01b038061203784611d2d565b16845280612046878501611d2d565b168685015280612057868501611d2d565b168486015250606082810135908401526080808301359084015260a0928301929091019060010161201d565b5090979650505050505050565b6001600160e01b03198316815260408101600b83106120bf57634e487b7160e01b600052602160045260246000fd5b8260208301529392505050565b634e487b7160e01b600052603160045260246000fdfea2646970667358221220842d55d1ed4de44bac704aaa57d0eb13420f0084b2846e90ff159ec9f248e30e64736f6c63430008150033",
  "chainId": 2022,
  "contractAbsolutePath": "RoninTrustedOrganization.sol",
  "deployer": "0x968D0Cd7343f711216817E617d3f92a23dC91c07",
  "devdoc": {
    "version": 1,
    "kind": "dev",
    "methods": {
      "addTrustedOrganizations((address,address,address,uint256,uint256)[])": {
        "details": "Adds a list of addresses into the trusted organization. Requirements: - The weights should larger than 0. - The method caller is admin. - The field `addedBlock` should be blank. Emits the event `TrustedOrganizationAdded` once an organization is added."
      },
      "checkThreshold(uint256)": {
        "details": "Checks whether the `_voteWeight` passes the threshold."
      },
      "countTrustedOrganization()": {
        "details": "Returns the number of trusted organizations."
      },
      "getAllTrustedOrganizations()": {
        "details": "Returns all of the trusted organizations."
      },
      "getBridgeVoterWeight(address)": {
        "details": "Returns the weight of a bridge voter."
      },
      "getBridgeVoterWeights(address[])": {
        "details": "Returns the weights of a list of bridge voter addresses."
      },
      "getConsensusWeight(address)": {
        "details": "Returns the weight of a consensus."
      },
      "getConsensusWeights(address[])": {
        "details": "Returns the weights of a list of consensus addresses."
      },
      "getGovernorWeight(address)": {
        "details": "Returns the weight of a governor."
      },
      "getGovernorWeights(address[])": {
        "details": "Returns the weights of a list of governor addresses."
      },
      "getThreshold()": {
        "details": "Returns the threshold."
      },
      "getTrustedOrganization(address)": {
        "details": "Returns the trusted organization by consensus address. Reverts once the consensus address is non-existent."
      },
      "getTrustedOrganizationAt(uint256)": {
        "details": "Returns the trusted organization at `_index`."
      },
      "initialize((address,address,address,uint256,uint256)[],uint256,uint256)": {
        "details": "Initializes the contract storage."
      },
      "minimumVoteWeight()": {
        "details": "Returns the minimum vote weight to pass the threshold."
      },
      "removeTrustedOrganizations(address[])": {
        "details": "Removes a list of addresses from the trusted organization. Requirements: - The method caller is admin. Emits the event `TrustedOrganizationRemoved` once an organization is removed.",
        "params": {
          "_consensusAddrs": "The list of consensus addresses linked to corresponding trusted organization that to be removed."
        }
      },
      "setThreshold(uint256,uint256)": {
        "details": "Sets the threshold. Requirements: - The method caller is admin. Emits the `ThresholdUpdated` event."
      },
      "sumBridgeVoterWeight(address[])": {
        "details": "Returns total weights of the bridge voter list."
      },
      "sumConsensusWeight(address[])": {
        "details": "Returns total weights of the consensus list."
      },
      "sumGovernorWeight(address[])": {
        "details": "Returns total weights of the governor list."
      },
      "totalWeight()": {
        "details": "Returns total weights."
      },
      "updateTrustedOrganizations((address,address,address,uint256,uint256)[])": {
        "details": "Updates weights for a list of existent trusted organization. Requirements: - The weights should larger than 0. - The method caller is admin. Emits the `TrustedOrganizationUpdated` event."
      }
    },
    "events": {
      "Initialized(uint8)": {
        "details": "Triggered when the contract has been initialized or reinitialized."
      },
      "ThresholdUpdated(uint256,uint256,uint256,uint256,uint256)": {
        "details": "Emitted when the threshold is updated"
      },
      "TrustedOrganizationsAdded((address,address,address,uint256,uint256)[])": {
        "details": "Emitted when the trusted organization is added."
      },
      "TrustedOrganizationsRemoved(address[])": {
        "details": "Emitted when the trusted organization is removed."
      },
      "TrustedOrganizationsUpdated((address,address,address,uint256,uint256)[])": {
        "details": "Emitted when the trusted organization is updated."
      }
    },
    "errors": {
      "ErrBridgeVoterIsAlreadyAdded(address)": [
        {
          "details": "Error indicating that a bridge voter has already been added.",
          "params": {
            "voter": "The address of the bridge voter that is already added."
          }
        }
      ],
      "ErrConsensusAddressIsAlreadyAdded(address)": [
        {
          "details": "Error indicating that a consensus address is already added.",
          "params": {
            "addr": "The address of the consensus contract that is already added."
          }
        }
      ],
      "ErrConsensusAddressIsNotAdded(address)": [
        {
          "details": "Error indicating that a consensus address is not added.",
          "params": {
            "addr": "The address of the consensus contract that is not added."
          }
        }
      ],
      "ErrDuplicated(bytes4)": [
        {
          "details": "Error thrown when a duplicated element is detected in an array.",
          "params": {
            "msgSig": "The function signature that invoke the error."
          }
        }
      ],
      "ErrEmptyArray()": [
        {
          "details": "Error indicating that an array is empty when it should contain elements."
        }
      ],
      "ErrGovernorAddressIsAlreadyAdded(address)": [
        {
          "details": "Error indicating that a governor address has already been added.",
          "params": {
            "addr": "The address of the governor that is already added."
          }
        }
      ],
      "ErrInvalidRequest()": [
        {
          "details": "Error indicating that a request is invalid."
        }
      ],
      "ErrInvalidThreshold(bytes4)": [
        {
          "details": "Error indicating that the provided threshold is invalid for a specific function signature.",
          "params": {
            "msgSig": "The function signature (bytes4) that the invalid threshold applies to."
          }
        }
      ],
      "ErrInvalidVoteWeight(bytes4)": [
        {
          "details": "Error indicating that a vote weight is invalid for a specific function signature.",
          "params": {
            "msgSig": "The function signature (bytes4) that encountered an invalid vote weight."
          }
        }
      ],
      "ErrQueryForDupplicated()": [
        {
          "details": "Error indicating that a query for a duplicate entry was made."
        }
      ],
      "ErrQueryForNonExistentConsensusAddress()": [
        {
          "details": "Error indicating that a query was made for a non-existent consensus address."
        }
      ],
      "ErrUnauthorized(bytes4,uint8)": [
        {
          "details": "Error indicating that the caller is unauthorized to perform a specific function.",
          "params": {
            "expectedRole": "The role required to perform the function.",
            "msgSig": "The function signature (bytes4) that the caller is unauthorized to perform."
          }
        }
      ]
    }
  },
  "isFoundry": true,
  "nonce": 183831,
  "numDeployments": 2,
  "storageLayout": {
    "storage": [
      {
        "astId": 144650,
        "contract": "contracts/multi-chains/RoninTrustedOrganization.sol:RoninTrustedOrganization",
        "label": "_initialized",
        "offset": 0,
        "slot": "0",
        "type": "t_uint8"
      },
      {
        "astId": 144653,
        "contract": "contracts/multi-chains/RoninTrustedOrganization.sol:RoninTrustedOrganization",
        "label": "_initializing",
        "offset": 1,
        "slot": "0",
        "type": "t_bool"
      },
      {
        "astId": 17943,
        "contract": "contracts/multi-chains/RoninTrustedOrganization.sol:RoninTrustedOrganization",
        "label": "_num",
        "offset": 0,
        "slot": "1",
        "type": "t_uint256"
      },
      {
        "astId": 17945,
        "contract": "contracts/multi-chains/RoninTrustedOrganization.sol:RoninTrustedOrganization",
        "label": "_denom",
        "offset": 0,
        "slot": "2",
        "type": "t_uint256"
      },
      {
        "astId": 17947,
        "contract": "contracts/multi-chains/RoninTrustedOrganization.sol:RoninTrustedOrganization",
        "label": "_totalWeight",
        "offset": 0,
        "slot": "3",
        "type": "t_uint256"
      },
      {
        "astId": 17949,
        "contract": "contracts/multi-chains/RoninTrustedOrganization.sol:RoninTrustedOrganization",
        "label": "_nonce",
        "offset": 0,
        "slot": "4",
        "type": "t_uint256"
      },
      {
        "astId": 17954,
        "contract": "contracts/multi-chains/RoninTrustedOrganization.sol:RoninTrustedOrganization",
        "label": "_consensusWeight",
        "offset": 0,
        "slot": "5",
        "type": "t_mapping(t_address,t_uint256)"
      },
      {
        "astId": 17959,
        "contract": "contracts/multi-chains/RoninTrustedOrganization.sol:RoninTrustedOrganization",
        "label": "_governorWeight",
        "offset": 0,
        "slot": "6",
        "type": "t_mapping(t_address,t_uint256)"
      },
      {
        "astId": 17964,
        "contract": "contracts/multi-chains/RoninTrustedOrganization.sol:RoninTrustedOrganization",
        "label": "_bridgeVoterWeight",
        "offset": 0,
        "slot": "7",
        "type": "t_mapping(t_address,t_uint256)"
      },
      {
        "astId": 17969,
        "contract": "contracts/multi-chains/RoninTrustedOrganization.sol:RoninTrustedOrganization",
        "label": "_addedBlock",
        "offset": 0,
        "slot": "8",
        "type": "t_mapping(t_address,t_uint256)"
      },
      {
        "astId": 17973,
        "contract": "contracts/multi-chains/RoninTrustedOrganization.sol:RoninTrustedOrganization",
        "label": "_consensusList",
        "offset": 0,
        "slot": "9",
        "type": "t_array(t_address)dyn_storage"
      },
      {
        "astId": 17977,
        "contract": "contracts/multi-chains/RoninTrustedOrganization.sol:RoninTrustedOrganization",
        "label": "_governorList",
        "offset": 0,
        "slot": "10",
        "type": "t_array(t_address)dyn_storage"
      },
      {
        "astId": 17981,
        "contract": "contracts/multi-chains/RoninTrustedOrganization.sol:RoninTrustedOrganization",
        "label": "_bridgeVoterList",
        "offset": 0,
        "slot": "11",
        "type": "t_array(t_address)dyn_storage"
      }
    ],
    "types": {
      "t_address": {
        "encoding": "inplace",
        "label": "address",
        "numberOfBytes": "20"
      },
      "t_array(t_address)dyn_storage": {
        "encoding": "dynamic_array",
        "label": "address[]",
        "numberOfBytes": "32",
        "base": "t_address"
      },
      "t_bool": {
        "encoding": "inplace",
        "label": "bool",
        "numberOfBytes": "1"
      },
      "t_mapping(t_address,t_uint256)": {
        "encoding": "mapping",
        "key": "t_address",
        "label": "mapping(address => uint256)",
        "numberOfBytes": "32",
        "value": "t_uint256"
      },
      "t_uint256": {
        "encoding": "inplace",
        "label": "uint256",
        "numberOfBytes": "32"
      },
      "t_uint8": {
        "encoding": "inplace",
        "label": "uint8",
        "numberOfBytes": "1"
      }
    }
  },
  "timestamp": 1701579792,
  "userdoc": {
    "version": 1,
    "kind": "user"
  }
}