{
  "abi": [
    {
      "type": "constructor",
      "inputs": [
        {
          "name": "_roninChainId",
          "type": "uint256",
          "internalType": "uint256"
        },
        {
          "name": "_roninTrustedOrganizationContract",
          "type": "address",
          "internalType": "address"
        },
        {
          "name": "_validatorContract",
          "type": "address",
          "internalType": "address"
        },
        {
          "name": "_expiryDuration",
          "type": "uint256",
          "internalType": "uint256"
        }
      ],
      "stateMutability": "nonpayable"
    },
    {
      "type": "function",
      "name": "DOMAIN_SEPARATOR",
      "inputs": [],
      "outputs": [
        {
          "name": "",
          "type": "bytes32",
          "internalType": "bytes32"
        }
      ],
      "stateMutability": "view"
    },
    {
      "type": "function",
      "name": "castProposalBySignatures",
      "inputs": [
        {
          "name": "_proposal",
          "type": "tuple",
          "internalType": "struct Proposal.ProposalDetail",
          "components": [
            {
              "name": "nonce",
              "type": "uint256",
              "internalType": "uint256"
            },
            {
              "name": "chainId",
              "type": "uint256",
              "internalType": "uint256"
            },
            {
              "name": "expiryTimestamp",
              "type": "uint256",
              "internalType": "uint256"
            },
            {
              "name": "targets",
              "type": "address[]",
              "internalType": "address[]"
            },
            {
              "name": "values",
              "type": "uint256[]",
              "internalType": "uint256[]"
            },
            {
              "name": "calldatas",
              "type": "bytes[]",
              "internalType": "bytes[]"
            },
            {
              "name": "gasAmounts",
              "type": "uint256[]",
              "internalType": "uint256[]"
            }
          ]
        },
        {
          "name": "_supports",
          "type": "uint8[]",
          "internalType": "enum Ballot.VoteType[]"
        },
        {
          "name": "_signatures",
          "type": "tuple[]",
          "internalType": "struct SignatureConsumer.Signature[]",
          "components": [
            {
              "name": "v",
              "type": "uint8",
              "internalType": "uint8"
            },
            {
              "name": "r",
              "type": "bytes32",
              "internalType": "bytes32"
            },
            {
              "name": "s",
              "type": "bytes32",
              "internalType": "bytes32"
            }
          ]
        }
      ],
      "outputs": [],
      "stateMutability": "nonpayable"
    },
    {
      "type": "function",
      "name": "castProposalVoteForCurrentNetwork",
      "inputs": [
        {
          "name": "_proposal",
          "type": "tuple",
          "internalType": "struct Proposal.ProposalDetail",
          "components": [
            {
              "name": "nonce",
              "type": "uint256",
              "internalType": "uint256"
            },
            {
              "name": "chainId",
              "type": "uint256",
              "internalType": "uint256"
            },
            {
              "name": "expiryTimestamp",
              "type": "uint256",
              "internalType": "uint256"
            },
            {
              "name": "targets",
              "type": "address[]",
              "internalType": "address[]"
            },
            {
              "name": "values",
              "type": "uint256[]",
              "internalType": "uint256[]"
            },
            {
              "name": "calldatas",
              "type": "bytes[]",
              "internalType": "bytes[]"
            },
            {
              "name": "gasAmounts",
              "type": "uint256[]",
              "internalType": "uint256[]"
            }
          ]
        },
        {
          "name": "_support",
          "type": "uint8",
          "internalType": "enum Ballot.VoteType"
        }
      ],
      "outputs": [],
      "stateMutability": "nonpayable"
    },
    {
      "type": "function",
      "name": "changeProxyAdmin",
      "inputs": [
        {
          "name": "_proxy",
          "type": "address",
          "internalType": "address"
        },
        {
          "name": "_newAdmin",
          "type": "address",
          "internalType": "address"
        }
      ],
      "outputs": [],
      "stateMutability": "nonpayable"
    },
    {
      "type": "function",
      "name": "createEmergencyExitPoll",
      "inputs": [
        {
          "name": "_consensusAddr",
          "type": "address",
          "internalType": "address"
        },
        {
          "name": "_recipientAfterUnlockedFund",
          "type": "address",
          "internalType": "address"
        },
        {
          "name": "_requestedAt",
          "type": "uint256",
          "internalType": "uint256"
        },
        {
          "name": "_expiredAt",
          "type": "uint256",
          "internalType": "uint256"
        }
      ],
      "outputs": [],
      "stateMutability": "nonpayable"
    },
    {
      "type": "function",
      "name": "deleteExpired",
      "inputs": [
        {
          "name": "_chainId",
          "type": "uint256",
          "internalType": "uint256"
        },
        {
          "name": "_round",
          "type": "uint256",
          "internalType": "uint256"
        }
      ],
      "outputs": [],
      "stateMutability": "nonpayable"
    },
    {
      "type": "function",
      "name": "emergencyPollVoted",
      "inputs": [
        {
          "name": "_voteHash",
          "type": "bytes32",
          "internalType": "bytes32"
        },
        {
          "name": "_voter",
          "type": "address",
          "internalType": "address"
        }
      ],
      "outputs": [
        {
          "name": "",
          "type": "bool",
          "internalType": "bool"
        }
      ],
      "stateMutability": "view"
    },
    {
      "type": "function",
      "name": "getContract",
      "inputs": [
        {
          "name": "contractType",
          "type": "uint8",
          "internalType": "enum ContractType"
        }
      ],
      "outputs": [
        {
          "name": "contract_",
          "type": "address",
          "internalType": "address"
        }
      ],
      "stateMutability": "view"
    },
    {
      "type": "function",
      "name": "getProposalExpiryDuration",
      "inputs": [],
      "outputs": [
        {
          "name": "",
          "type": "uint256",
          "internalType": "uint256"
        }
      ],
      "stateMutability": "view"
    },
    {
      "type": "function",
      "name": "getProposalSignatures",
      "inputs": [
        {
          "name": "_chainId",
          "type": "uint256",
          "internalType": "uint256"
        },
        {
          "name": "_round",
          "type": "uint256",
          "internalType": "uint256"
        }
      ],
      "outputs": [
        {
          "name": "_voters",
          "type": "address[]",
          "internalType": "address[]"
        },
        {
          "name": "_supports",
          "type": "uint8[]",
          "internalType": "enum Ballot.VoteType[]"
        },
        {
          "name": "_signatures",
          "type": "tuple[]",
          "internalType": "struct SignatureConsumer.Signature[]",
          "components": [
            {
              "name": "v",
              "type": "uint8",
              "internalType": "uint8"
            },
            {
              "name": "r",
              "type": "bytes32",
              "internalType": "bytes32"
            },
            {
              "name": "s",
              "type": "bytes32",
              "internalType": "bytes32"
            }
          ]
        }
      ],
      "stateMutability": "view"
    },
    {
      "type": "function",
      "name": "getProxyAdmin",
      "inputs": [
        {
          "name": "_proxy",
          "type": "address",
          "internalType": "address"
        }
      ],
      "outputs": [
        {
          "name": "",
          "type": "address",
          "internalType": "address"
        }
      ],
      "stateMutability": "view"
    },
    {
      "type": "function",
      "name": "getProxyImplementation",
      "inputs": [
        {
          "name": "_proxy",
          "type": "address",
          "internalType": "address"
        }
      ],
      "outputs": [
        {
          "name": "",
          "type": "address",
          "internalType": "address"
        }
      ],
      "stateMutability": "view"
    },
    {
      "type": "function",
      "name": "proposalVoted",
      "inputs": [
        {
          "name": "_chainId",
          "type": "uint256",
          "internalType": "uint256"
        },
        {
          "name": "_round",
          "type": "uint256",
          "internalType": "uint256"
        },
        {
          "name": "_voter",
          "type": "address",
          "internalType": "address"
        }
      ],
      "outputs": [
        {
          "name": "",
          "type": "bool",
          "internalType": "bool"
        }
      ],
      "stateMutability": "view"
    },
    {
      "type": "function",
      "name": "propose",
      "inputs": [
        {
          "name": "_chainId",
          "type": "uint256",
          "internalType": "uint256"
        },
        {
          "name": "_expiryTimestamp",
          "type": "uint256",
          "internalType": "uint256"
        },
        {
          "name": "_targets",
          "type": "address[]",
          "internalType": "address[]"
        },
        {
          "name": "_values",
          "type": "uint256[]",
          "internalType": "uint256[]"
        },
        {
          "name": "_calldatas",
          "type": "bytes[]",
          "internalType": "bytes[]"
        },
        {
          "name": "_gasAmounts",
          "type": "uint256[]",
          "internalType": "uint256[]"
        }
      ],
      "outputs": [],
      "stateMutability": "nonpayable"
    },
    {
      "type": "function",
      "name": "proposeProposalForCurrentNetwork",
      "inputs": [
        {
          "name": "_expiryTimestamp",
          "type": "uint256",
          "internalType": "uint256"
        },
        {
          "name": "_targets",
          "type": "address[]",
          "internalType": "address[]"
        },
        {
          "name": "_values",
          "type": "uint256[]",
          "internalType": "uint256[]"
        },
        {
          "name": "_calldatas",
          "type": "bytes[]",
          "internalType": "bytes[]"
        },
        {
          "name": "_gasAmounts",
          "type": "uint256[]",
          "internalType": "uint256[]"
        },
        {
          "name": "_support",
          "type": "uint8",
          "internalType": "enum Ballot.VoteType"
        }
      ],
      "outputs": [],
      "stateMutability": "nonpayable"
    },
    {
      "type": "function",
      "name": "proposeProposalStructAndCastVotes",
      "inputs": [
        {
          "name": "_proposal",
          "type": "tuple",
          "internalType": "struct Proposal.ProposalDetail",
          "components": [
            {
              "name": "nonce",
              "type": "uint256",
              "internalType": "uint256"
            },
            {
              "name": "chainId",
              "type": "uint256",
              "internalType": "uint256"
            },
            {
              "name": "expiryTimestamp",
              "type": "uint256",
              "internalType": "uint256"
            },
            {
              "name": "targets",
              "type": "address[]",
              "internalType": "address[]"
            },
            {
              "name": "values",
              "type": "uint256[]",
              "internalType": "uint256[]"
            },
            {
              "name": "calldatas",
              "type": "bytes[]",
              "internalType": "bytes[]"
            },
            {
              "name": "gasAmounts",
              "type": "uint256[]",
              "internalType": "uint256[]"
            }
          ]
        },
        {
          "name": "_supports",
          "type": "uint8[]",
          "internalType": "enum Ballot.VoteType[]"
        },
        {
          "name": "_signatures",
          "type": "tuple[]",
          "internalType": "struct SignatureConsumer.Signature[]",
          "components": [
            {
              "name": "v",
              "type": "uint8",
              "internalType": "uint8"
            },
            {
              "name": "r",
              "type": "bytes32",
              "internalType": "bytes32"
            },
            {
              "name": "s",
              "type": "bytes32",
              "internalType": "bytes32"
            }
          ]
        }
      ],
      "outputs": [],
      "stateMutability": "nonpayable"
    },
    {
      "type": "function",
      "name": "roninChainId",
      "inputs": [],
      "outputs": [
        {
          "name": "",
          "type": "uint256",
          "internalType": "uint256"
        }
      ],
      "stateMutability": "view"
    },
    {
      "type": "function",
      "name": "round",
      "inputs": [
        {
          "name": "",
          "type": "uint256",
          "internalType": "uint256"
        }
      ],
      "outputs": [
        {
          "name": "",
          "type": "uint256",
          "internalType": "uint256"
        }
      ],
      "stateMutability": "view"
    },
    {
      "type": "function",
      "name": "setContract",
      "inputs": [
        {
          "name": "contractType",
          "type": "uint8",
          "internalType": "enum ContractType"
        },
        {
          "name": "addr",
          "type": "address",
          "internalType": "address"
        }
      ],
      "outputs": [],
      "stateMutability": "nonpayable"
    },
    {
      "type": "function",
      "name": "setProposalExpiryDuration",
      "inputs": [
        {
          "name": "_expiryDuration",
          "type": "uint256",
          "internalType": "uint256"
        }
      ],
      "outputs": [],
      "stateMutability": "nonpayable"
    },
    {
      "type": "function",
      "name": "vote",
      "inputs": [
        {
          "name": "",
          "type": "uint256",
          "internalType": "uint256"
        },
        {
          "name": "",
          "type": "uint256",
          "internalType": "uint256"
        }
      ],
      "outputs": [
        {
          "name": "status",
          "type": "uint8",
          "internalType": "enum VoteStatusConsumer.VoteStatus"
        },
        {
          "name": "hash",
          "type": "bytes32",
          "internalType": "bytes32"
        },
        {
          "name": "againstVoteWeight",
          "type": "uint256",
          "internalType": "uint256"
        },
        {
          "name": "forVoteWeight",
          "type": "uint256",
          "internalType": "uint256"
        },
        {
          "name": "expiryTimestamp",
          "type": "uint256",
          "internalType": "uint256"
        }
      ],
      "stateMutability": "view"
    },
    {
      "type": "function",
      "name": "voteEmergencyExit",
      "inputs": [
        {
          "name": "_voteHash",
          "type": "bytes32",
          "internalType": "bytes32"
        },
        {
          "name": "_consensusAddr",
          "type": "address",
          "internalType": "address"
        },
        {
          "name": "_recipientAfterUnlockedFund",
          "type": "address",
          "internalType": "address"
        },
        {
          "name": "_requestedAt",
          "type": "uint256",
          "internalType": "uint256"
        },
        {
          "name": "_expiredAt",
          "type": "uint256",
          "internalType": "uint256"
        }
      ],
      "outputs": [],
      "stateMutability": "nonpayable"
    },
    {
      "type": "event",
      "name": "ContractUpdated",
      "inputs": [
        {
          "name": "contractType",
          "type": "uint8",
          "indexed": true,
          "internalType": "enum ContractType"
        },
        {
          "name": "addr",
          "type": "address",
          "indexed": true,
          "internalType": "address"
        }
      ],
      "anonymous": false
    },
    {
      "type": "event",
      "name": "EmergencyExitPollApproved",
      "inputs": [
        {
          "name": "_voteHash",
          "type": "bytes32",
          "indexed": false,
          "internalType": "bytes32"
        }
      ],
      "anonymous": false
    },
    {
      "type": "event",
      "name": "EmergencyExitPollCreated",
      "inputs": [
        {
          "name": "_voteHash",
          "type": "bytes32",
          "indexed": false,
          "internalType": "bytes32"
        },
        {
          "name": "_consensusAddr",
          "type": "address",
          "indexed": false,
          "internalType": "address"
        },
        {
          "name": "_recipientAfterUnlockedFund",
          "type": "address",
          "indexed": false,
          "internalType": "address"
        },
        {
          "name": "_requestedAt",
          "type": "uint256",
          "indexed": false,
          "internalType": "uint256"
        },
        {
          "name": "_expiredAt",
          "type": "uint256",
          "indexed": false,
          "internalType": "uint256"
        }
      ],
      "anonymous": false
    },
    {
      "type": "event",
      "name": "EmergencyExitPollExpired",
      "inputs": [
        {
          "name": "_voteHash",
          "type": "bytes32",
          "indexed": false,
          "internalType": "bytes32"
        }
      ],
      "anonymous": false
    },
    {
      "type": "event",
      "name": "EmergencyExitPollVoted",
      "inputs": [
        {
          "name": "_voteHash",
          "type": "bytes32",
          "indexed": true,
          "internalType": "bytes32"
        },
        {
          "name": "_voter",
          "type": "address",
          "indexed": true,
          "internalType": "address"
        }
      ],
      "anonymous": false
    },
    {
      "type": "event",
      "name": "ProposalApproved",
      "inputs": [
        {
          "name": "proposalHash",
          "type": "bytes32",
          "indexed": true,
          "internalType": "bytes32"
        }
      ],
      "anonymous": false
    },
    {
      "type": "event",
      "name": "ProposalCreated",
      "inputs": [
        {
          "name": "chainId",
          "type": "uint256",
          "indexed": true,
          "internalType": "uint256"
        },
        {
          "name": "round",
          "type": "uint256",
          "indexed": true,
          "internalType": "uint256"
        },
        {
          "name": "proposalHash",
          "type": "bytes32",
          "indexed": true,
          "internalType": "bytes32"
        },
        {
          "name": "proposal",
          "type": "tuple",
          "indexed": false,
          "internalType": "struct Proposal.ProposalDetail",
          "components": [
            {
              "name": "nonce",
              "type": "uint256",
              "internalType": "uint256"
            },
            {
              "name": "chainId",
              "type": "uint256",
              "internalType": "uint256"
            },
            {
              "name": "expiryTimestamp",
              "type": "uint256",
              "internalType": "uint256"
            },
            {
              "name": "targets",
              "type": "address[]",
              "internalType": "address[]"
            },
            {
              "name": "values",
              "type": "uint256[]",
              "internalType": "uint256[]"
            },
            {
              "name": "calldatas",
              "type": "bytes[]",
              "internalType": "bytes[]"
            },
            {
              "name": "gasAmounts",
              "type": "uint256[]",
              "internalType": "uint256[]"
            }
          ]
        },
        {
          "name": "creator",
          "type": "address",
          "indexed": false,
          "internalType": "address"
        }
      ],
      "anonymous": false
    },
    {
      "type": "event",
      "name": "ProposalExecuted",
      "inputs": [
        {
          "name": "proposalHash",
          "type": "bytes32",
          "indexed": true,
          "internalType": "bytes32"
        },
        {
          "name": "successCalls",
          "type": "bool[]",
          "indexed": false,
          "internalType": "bool[]"
        },
        {
          "name": "returnDatas",
          "type": "bytes[]",
          "indexed": false,
          "internalType": "bytes[]"
        }
      ],
      "anonymous": false
    },
    {
      "type": "event",
      "name": "ProposalExpired",
      "inputs": [
        {
          "name": "proposalHash",
          "type": "bytes32",
          "indexed": true,
          "internalType": "bytes32"
        }
      ],
      "anonymous": false
    },
    {
      "type": "event",
      "name": "ProposalExpiryDurationChanged",
      "inputs": [
        {
          "name": "duration",
          "type": "uint256",
          "indexed": true,
          "internalType": "uint256"
        }
      ],
      "anonymous": false
    },
    {
      "type": "event",
      "name": "ProposalRejected",
      "inputs": [
        {
          "name": "proposalHash",
          "type": "bytes32",
          "indexed": true,
          "internalType": "bytes32"
        }
      ],
      "anonymous": false
    },
    {
      "type": "event",
      "name": "ProposalVoted",
      "inputs": [
        {
          "name": "proposalHash",
          "type": "bytes32",
          "indexed": true,
          "internalType": "bytes32"
        },
        {
          "name": "voter",
          "type": "address",
          "indexed": true,
          "internalType": "address"
        },
        {
          "name": "support",
          "type": "uint8",
          "indexed": false,
          "internalType": "enum Ballot.VoteType"
        },
        {
          "name": "weight",
          "type": "uint256",
          "indexed": false,
          "internalType": "uint256"
        }
      ],
      "anonymous": false
    },
    {
      "type": "error",
      "name": "ErrAlreadyVoted",
      "inputs": [
        {
          "name": "voter",
          "type": "address",
          "internalType": "address"
        }
      ]
    },
    {
      "type": "error",
      "name": "ErrContractTypeNotFound",
      "inputs": [
        {
          "name": "contractType",
          "type": "uint8",
          "internalType": "enum ContractType"
        }
      ]
    },
    {
      "type": "error",
      "name": "ErrCurrentProposalIsNotCompleted",
      "inputs": []
    },
    {
      "type": "error",
      "name": "ErrInsufficientGas",
      "inputs": [
        {
          "name": "proposalHash",
          "type": "bytes32",
          "internalType": "bytes32"
        }
      ]
    },
    {
      "type": "error",
      "name": "ErrInvalidChainId",
      "inputs": [
        {
          "name": "msgSig",
          "type": "bytes4",
          "internalType": "bytes4"
        },
        {
          "name": "actual",
          "type": "uint256",
          "internalType": "uint256"
        },
        {
          "name": "expected",
          "type": "uint256",
          "internalType": "uint256"
        }
      ]
    },
    {
      "type": "error",
      "name": "ErrInvalidExpiryTimestamp",
      "inputs": []
    },
    {
      "type": "error",
      "name": "ErrInvalidOrder",
      "inputs": [
        {
          "name": "msgSig",
          "type": "bytes4",
          "internalType": "bytes4"
        }
      ]
    },
    {
      "type": "error",
      "name": "ErrInvalidProposal",
      "inputs": [
        {
          "name": "actual",
          "type": "bytes32",
          "internalType": "bytes32"
        },
        {
          "name": "expected",
          "type": "bytes32",
          "internalType": "bytes32"
        }
      ]
    },
    {
      "type": "error",
      "name": "ErrInvalidProposalNonce",
      "inputs": [
        {
          "name": "msgSig",
          "type": "bytes4",
          "internalType": "bytes4"
        }
      ]
    },
    {
      "type": "error",
      "name": "ErrInvalidSignatures",
      "inputs": [
        {
          "name": "msgSig",
          "type": "bytes4",
          "internalType": "bytes4"
        }
      ]
    },
    {
      "type": "error",
      "name": "ErrInvalidVoteHash",
      "inputs": []
    },
    {
      "type": "error",
      "name": "ErrLengthMismatch",
      "inputs": [
        {
          "name": "msgSig",
          "type": "bytes4",
          "internalType": "bytes4"
        }
      ]
    },
    {
      "type": "error",
      "name": "ErrOnlySelfCall",
      "inputs": [
        {
          "name": "msgSig",
          "type": "bytes4",
          "internalType": "bytes4"
        }
      ]
    },
    {
      "type": "error",
      "name": "ErrQueryForEmptyVote",
      "inputs": []
    },
    {
      "type": "error",
      "name": "ErrQueryForExpiredVote",
      "inputs": []
    },
    {
      "type": "error",
      "name": "ErrQueryForNonExistentVote",
      "inputs": []
    },
    {
      "type": "error",
      "name": "ErrUnauthorized",
      "inputs": [
        {
          "name": "msgSig",
          "type": "bytes4",
          "internalType": "bytes4"
        },
        {
          "name": "expectedRole",
          "type": "uint8",
          "internalType": "enum RoleAccess"
        }
      ]
    },
    {
      "type": "error",
      "name": "ErrUnexpectedInternalCall",
      "inputs": [
        {
          "name": "msgSig",
          "type": "bytes4",
          "internalType": "bytes4"
        },
        {
          "name": "expectedContractType",
          "type": "uint8",
          "internalType": "enum ContractType"
        },
        {
          "name": "actual",
          "type": "address",
          "internalType": "address"
        }
      ]
    },
    {
      "type": "error",
      "name": "ErrUnsupportedVoteType",
      "inputs": [
        {
          "name": "msgSig",
          "type": "bytes4",
          "internalType": "bytes4"
        }
      ]
    },
    {
      "type": "error",
      "name": "ErrVoteIsFinalized",
      "inputs": []
    },
    {
      "type": "error",
      "name": "ErrZeroCodeContract",
      "inputs": [
        {
          "name": "addr",
          "type": "address",
          "internalType": "address"
        }
      ]
    }
  ],
  "address": "0x60Bd294dE5948E0388Daf5eCB2a746771cE98dA3",
  "args": "0x00000000000000000000000000000000000000000000000000000000000007e60000000000000000000000002286fbdfad90912e93fab97a403473328432274c000000000000000000000000f33f8c8ed1f94022908fb2f2e32f16810bf66b1a0000000000000000000000000000000000000000000000000000000000127500",
  "blockNumber": 17359378,
  "bytecode": "0x60806040523480156200001157600080fd5b50604051620040163803806200401683398101604081905262000034916200021c565b838382620000428162000122565b506005829055604080518181526020810184815260169282019283527f524f4e494e5f474f5645524e414e43455f41444d494e000000000000000000006060830190815260808084207f599a80fcaa47b95e2323ab4d34d34e0cc9feda4b843edafcc30c7bdf60ea15bf85527f7e7935007966eb860f4a2ee3dcc9fd53fb3205ce2aa86b0126d4893d4d4c14b99093527f2a80e1ef1d7842f27f2e6be0972bb708b9a135c38860dbe73c27c3486c34f4de909452522060065562000108600a8262000155565b5062000118905060088362000155565b505050506200027b565b600281905560405181907fe5cd1c123a8cf63fa1b7229678db61fe8ae99dbbd27889370b6667c8cae97da190600090a250565b807fdea3103d22025c269050bea94c0c84688877f12fa22b7e6d2d5d78a9a49aa1cb600084600f8111156200018e576200018e62000265565b60ff168152602081019190915260400160002080546001600160a01b0319166001600160a01b03928316179055811682600f811115620001d257620001d262000265565b6040517f865d1c228a8ea13709cfe61f346f7ff67f1bbd4a18ff31ad3e7147350d317c5990600090a35050565b80516001600160a01b03811681146200021757600080fd5b919050565b600080600080608085870312156200023357600080fd5b845193506200024560208601620001ff565b92506200025560408601620001ff565b6060959095015193969295505050565b634e487b7160e01b600052602160045260246000fd5b613d8b806200028b6000396000f3fe608060405234801561001057600080fd5b50600436106101815760003560e01c8063865e6fd3116100d8578063a8a0e32c1161008c578063dcc3eb1911610066578063dcc3eb1914610371578063de981f1b14610384578063f3b7dead1461039757600080fd5b8063a8a0e32c146102fb578063b384abef1461030e578063bc96180b1461036957600080fd5b80639e0dc0b3116100bd5780639e0dc0b3146102c2578063a1819f9a146102d5578063a2fae570146102e857600080fd5b8063865e6fd31461029c5780639a7d3382146102af57600080fd5b80632c5e65201161013a5780633644e515116101145780633644e5151461026d578063663ac011146102765780637eff275e1461028957600080fd5b80632c5e6520146102175780632e96a6fb1461023a57806334d5f37b1461024d57600080fd5b806317ce2dd41161016b57806317ce2dd4146101ae5780631c905e39146101ca578063204e1c7a146101ec57600080fd5b80624054b8146101865780630b8818301461019b575b600080fd5b610199610194366004612ff3565b6103aa565b005b6101996101a9366004612ff3565b6103ca565b6101b760055481565b6040519081526020015b60405180910390f35b6101dd6101d83660046130b5565b6103da565b6040516101c193929190613145565b6101ff6101fa36600461320b565b6103f6565b6040516001600160a01b0390911681526020016101c1565b61022a61022536600461322f565b6104c9565b60405190151581526020016101c1565b610199610248366004613268565b6104de565b6101b761025b366004613268565b60006020819052908152604090205481565b6101b760065481565b610199610284366004613290565b6104f2565b61019961029736600461336e565b6105de565b6101996102aa3660046133b6565b6106ae565b6101996102bd3660046130b5565b6106cd565b6101996102d03660046133d2565b610732565b6101996102e3366004613424565b61098f565b6101996102f63660046134fe565b610a55565b610199610309366004613544565b610b23565b61035861031c3660046130b5565b600160208181526000938452604080852090915291835291208054918101546002820154600383015460069093015460ff909416939192909185565b6040516101c1959493929190613592565b6101b7610b3e565b61022a61037f3660046135c7565b610b4e565b6101ff6103923660046135ec565b610b80565b6101ff6103a536600461320b565b610c1d565b6103b2610c80565b6103c3858585858560065433610cd5565b5050505050565b6103c38585858585600654610dfd565b60608060606103e98585610f19565b9250925092509250925092565b60408051600481526024810182526020810180516001600160e01b03167f5c60da1b00000000000000000000000000000000000000000000000000000000908117909152915160009291839182916001600160a01b03871691610459919061362b565b600060405180830381855afa9150503d8060008114610494576040519150601f19603f3d011682016040523d82523d6000602084013e610499565b606091505b5090925090506104ac8215158483611305565b808060200190518101906104c09190613647565b95945050505050565b60006104d6848484611345565b949350505050565b6104e661137b565b6104ef816113c2565b50565b6104fa610c80565b600033905060006105c3468d8d8d80806020026020016040519081016040528093929190818152602001838360200280828437600081840152601f19601f820116905080830192505050505050508c8c8080602002602001604051908101604052809392919081815260200183836020028082843760009201919091525061058892508d91508e90506137c9565b8a8a808060200260200160405190810160405280939291908181526020018383602002808284376000920191909152508b92506113f5915050565b90506105d0828285611543565b505050505050505050505050565b6105e661137b565b604080516001600160a01b0383811660248084019190915283518084039091018152604490920183526020820180516001600160e01b03167f8f2839700000000000000000000000000000000000000000000000000000000090811790915292516000928392871691610659919061362b565b6000604051808303816000865af19150503d8060008114610696576040519150601f19603f3d011682016040523d82523d6000602084013e61069b565b606091505b5090925090506103c38215158483611305565b6106b661137b565b6106bf81611665565b6106c982826116b4565b5050565b6000828152600160208181526040808420858552909152822090810154909103610723576040517fe276132e00000000000000000000000000000000000000000000000000000000815260040160405180910390fd5b61072c81611765565b50505050565b61073a610c80565b33600061078a86868686604080517f697acba4deaf1a718d8c2d93e42860488cb7812696f28ca10eed17bac41e7027815260208101959095528401929092526060830152608082015260a0902090565b90508087146107c5576040517f23b029f500000000000000000000000000000000000000000000000000000000815260040160405180910390fd5b60008181526008602052604081206004810154909103610811576040517f2baffa2800000000000000000000000000000000000000000000000000000000815260040160405180910390fd5b6004815460ff1660048111156108295761082961311b565b03610860576040517fc324f30d00000000000000000000000000000000000000000000000000000000815260040160405180910390fd5b61086b81848461197a565b6040516001600160a01b0384169083907f903555bcf22239155f645431a67d9da9b85888c59ce9bf913c25a035ead6e99790600090a360006108ad8284611a3d565b905060006108ce6108bc611b2c565b6108c584611c4f565b85919087611d7f565b905060018160048111156108e4576108e461311b565b03610936576108f38989611dcb565b6040518481527fd3500576a0d4923326fbb893cf2169273e0df93f3cb6b94b83f2ca2e0ecb681b9060200160405180910390a1825460ff19166002178355610983565b600481600481111561094a5761094a61311b565b03610983576040518481527feecb3148acc573548e89cb64eb5f2023a61171f1c413ed8bf0fe506c19aeebe49060200160405180910390a15b50505050505050505050565b610997610c80565b610a488a8a8a8a8080602002602001604051908101604052809392919081815260200183836020028082843760009201919091525050604080516020808e0282810182019093528d82529093508d92508c918291850190849080828437600092019190915250610a0d92508a91508b90506137c9565b8787808060200260200160405190810160405280939291908181526020018383602002808284376000920191909152503392506113f5915050565b5050505050505050505050565b6008610a6081611eaa565b604080517f697acba4deaf1a718d8c2d93e42860488cb7812696f28ca10eed17bac41e7027815260208082018890528183018790526060808301879052608080840187905260a0938490206000818152600885528690204260048201556003810189905586518281526001600160a01b03808e1696820196909652948b1685880152928401899052908301879052935190927f18ea835340bb2973a31996158138f109e9c5b9cfdb2424e999e6b1a9ce565de8928290030190a150505050505050565b610b2b610c80565b6106c933610b38846138c0565b83611543565b6000610b4960025490565b905090565b60008281526008602090815260408083206001600160a01b038516845260020190915281205415155b90505b92915050565b60007fdea3103d22025c269050bea94c0c84688877f12fa22b7e6d2d5d78a9a49aa1cb600083600f811115610bb757610bb761311b565b60ff1681526020810191909152604001600020546001600160a01b0316905080610c1857816040517f812281be000000000000000000000000000000000000000000000000000000008152600401610c0f91906139a5565b60405180910390fd5b919050565b60408051600481526024810182526020810180516001600160e01b03167ff851a44000000000000000000000000000000000000000000000000000000000908117909152915160009291839182916001600160a01b03871691610459919061362b565b610c8933611f0f565b600003610cd3576000356001600160e01b03191660036040517f3e523c00000000000000000000000000000000000000000000000000000000008152600401610c0f9291906139b3565b565b610ce7610ce1886138c0565b82611f6d565b506000610cfb610cf6896138c0565b612073565b9050610df3610d09896138c0565b88888888610dab89610d50896000604080517fd900570327c4c0df8dd6bdd522b7da7e39145dd049d2fd4602276adcd511e3c2815260208101939093528201526060902090565b6040517f19010000000000000000000000000000000000000000000000000000000000006020820152602281018390526042810182905260009060620160405160208183030381529060405280519060200120905092915050565b610dee8a610d508a6001604080517fd900570327c4c0df8dd6bdd522b7da7e39145dd049d2fd4602276adcd511e3c2815260208101939093528201526060902090565b6121b3565b5050505050505050565b6000610e0b610cf6886138c0565b6020808901356000908152600180835260408083208c35845290935291902001549091508114610e7a576020808801356000908152600180835260408083208b3584529093529082902001549051632bee7fdb60e21b8152610c0f918391600401918252602082015260400190565b610f10610e86886138c0565b87878787610ecd88610d50896000604080517fd900570327c4c0df8dd6bdd522b7da7e39145dd049d2fd4602276adcd511e3c2815260208101939093528201526060902090565b610dee89610d508a6001604080517fd900570327c4c0df8dd6bdd522b7da7e39145dd049d2fd4602276adcd511e3c2815260208101939093528201526060902090565b50505050505050565b60008281526001602090815260408083208484529091528120600481015460058201546060938493849390929091610f5182846139f7565b90508067ffffffffffffffff811115610f6c57610f6c613664565b604051908082528060200260200182016040528015610f95578160200160208202803683370190505b5095508067ffffffffffffffff811115610fb157610fb1613664565b604051908082528060200260200182016040528015610ffc57816020015b6040805160608101825260008082526020808301829052928201528252600019909201910181610fcf5790505b5094508067ffffffffffffffff81111561101857611018613664565b604051908082528060200260200182016040528015611041578160200160208202803683370190505b50965060005b8381101561119657600087828151811061106357611063613a0a565b6020026020010190600181111561107c5761107c61311b565b9081600181111561108f5761108f61311b565b90525060008a81526001602090815260408083208c8452909152812060048701805460079092019291849081106110c8576110c8613a0a565b60009182526020808320909101546001600160a01b0316835282810193909352604091820190208151606081018352815460ff1681526001820154938101939093526002015490820152865187908390811061112657611126613a0a565b602002602001018190525084600401818154811061114657611146613a0a565b9060005260206000200160009054906101000a90046001600160a01b031688828151811061117657611176613a0a565b6001600160a01b0390921660209283029190910190910152600101611047565b5060005b828110156112f9576001876111af86846139f7565b815181106111bf576111bf613a0a565b602002602001019060018111156111d8576111d861311b565b908160018111156111eb576111eb61311b565b90525060008a81526001602090815260408083208c84529091528120600587018054600790920192918490811061122457611224613a0a565b60009182526020808320909101546001600160a01b0316835282810193909352604091820190208151606081018352815460ff16815260018201549381019390935260020154908201528661127986846139f7565b8151811061128957611289613a0a565b60200260200101819052508460050181815481106112a9576112a9613a0a565b6000918252602090912001546001600160a01b0316886112c986846139f7565b815181106112d9576112d9613a0a565b6001600160a01b039092166020928302919091019091015260010161119a565b50505050509250925092565b6001600160e01b0319600035168361072c5781518015611326578060208401fd5b50604051638e3eda2b81528160208201528360408201526044601c8201fd5b600083815260016020908152604080832085845282528083206001600160a01b038516845260080190915281205460ff166104d6565b333014610cd3576040517f7337e1900000000000000000000000000000000000000000000000000000000081526001600160e01b0319600035166004820152602401610c0f565b600281905560405181907fe5cd1c123a8cf63fa1b7229678db61fe8ae99dbbd27889370b6667c8cae97da190600090a250565b6114356040518060e00160405280600081526020016000815260200160008152602001606081526020016060815260200160608152602001606081525090565b876000036114705760405163092048d160e11b8152600080356001600160e01b03191660048301526024820152466044820152606401610c0f565b600061147b89612463565b90506040518060e001604052808281526020018a81526020018981526020018881526020018781526020018681526020018581525091506114c76002548361252c90919063ffffffff16565b60006114d283612073565b60008b81526001602081815260408084208785529091529091209081018290556006018a9055905080828b7fa57d40f1496988cf60ab7c9d5ba4ff83647f67d3898d441a3aaf21b651678fd9868860405161152e929190613ad1565b60405180910390a45050979650505050505050565b4682602001511461158857602082015160405163092048d160e11b81526000356001600160e01b03191660048201526024810191909152466044820152606401610c0f565b600061159383612073565b602080850151600090815260018083526040808320885184529093529190200154909150811461160257602080840151600090815260018083526040808320875184529093529082902001549051632bee7fdb60e21b8152610c0f918391600401918252602082015260400190565b600061160c611b2c565b90506000816116196125e6565b6116239190613bbf565b61162e9060016139f7565b6040805160608101825260008082526020820181905291810191909152909150610df3868685858b866116608e611f0f565b612615565b806001600160a01b03163b6000036104ef576040517f2ff1928c0000000000000000000000000000000000000000000000000000000081526001600160a01b0382166004820152602401610c0f565b807fdea3103d22025c269050bea94c0c84688877f12fa22b7e6d2d5d78a9a49aa1cb600084600f8111156116ea576116ea61311b565b60ff1681526020810191909152604001600020805473ffffffffffffffffffffffffffffffffffffffff19166001600160a01b03928316179055811682600f8111156117385761173861311b565b6040517f865d1c228a8ea13709cfe61f346f7ff67f1bbd4a18ff31ad3e7147350d317c5990600090a35050565b600080825460ff16600481111561177e5761177e61311b565b14801561178f575042826006015411155b90508015610c185760018201546040517f58f98006a7f2f253f8ae8f8b7cec9008ca05359633561cd7c22f3005682d4a5590600090a260005b600483015481101561187b578260080160008460040183815481106117ef576117ef613a0a565b60009182526020808320909101546001600160a01b031683528201929092526040018120805460ff19169055600484018054600786019291908490811061183857611838613a0a565b60009182526020808320909101546001600160a01b031683528201929092526040018120805460ff191681556001818101839055600290910191909155016117c8565b5060005b6005830154811015611932578260080160008460050183815481106118a6576118a6613a0a565b60009182526020808320909101546001600160a01b031683528201929092526040018120805460ff1916905560058401805460078601929190849081106118ef576118ef613a0a565b60009182526020808320909101546001600160a01b031683528201929092526040018120805460ff1916815560018181018390556002909101919091550161187f565b50815460ff191682556000600183018190556002830181905560038301819055611960906004840190612f5d565b61196e600583016000612f5d565b60006006830155919050565b60008360030154118015611992575042836003015411155b156119a357825460ff191660041783555b6001600160a01b0382166000908152600284016020526040902054156119e75760405163025fd59560e41b81526001600160a01b0383166004820152602401610c0f565b6001600160a01b0390911660008181526002840160209081526040822093909355600590930180546001810182559084529190922001805473ffffffffffffffffffffffffffffffffffffffff19169091179055565b600582015460609060009067ffffffffffffffff811115611a6057611a60613664565b604051908082528060200260200182016040528015611a89578160200160208202803683370190505b50915060005b8251811015611b23576000856005018281548110611aaf57611aaf613a0a565b60009182526020808320909101546001600160a01b031680835260028901909152604090912054909150859003611b1a5780848480600101955081518110611af957611af9613a0a565b60200260200101906001600160a01b031690816001600160a01b0316815250505b50600101611a8f565b50815292915050565b60007f7de5dedd000000000000000000000000000000000000000000000000000000008180611b5b600a610b80565b6040805160048152602480820183526020820180516001600160e01b03166001600160e01b0319891617905291516001600160a01b039390931692634bb5274a92611ba7929101613bd2565b6040516020818303038152906040529060e01b6020820180516001600160e01b038381831617835250505050604051611be0919061362b565b600060405180830381855afa9150503d8060008114611c1b576040519150601f19603f3d011682016040523d82523d6000602084013e611c20565b606091505b509092509050611c338215158483611305565b80806020019051810190611c479190613be5565b935050505090565b60007f903bb3c5000000000000000000000000000000000000000000000000000000008180611c7e600a610b80565b6001600160a01b0316634bb5274a8487604051602401611c9e9190613bfe565b60408051601f198184030181529181526020820180516001600160e01b03166001600160e01b0319909416939093179092529051611cdf9190602401613bd2565b6040516020818303038152906040529060e01b6020820180516001600160e01b038381831617835250505050604051611d18919061362b565b600060405180830381855afa9150503d8060008114611d53576040519150601f19603f3d011682016040523d82523d6000602084013e611d58565b606091505b509092509050611d6b8215158483611305565b808060200190518101906104c09190613be5565b6000838310158015611da657506000855460ff166004811115611da457611da461311b565b145b15611dbe57845460ff19166001908117865585018290555b5050915460ff1692915050565b7fc3c8b5d600000000000000000000000000000000000000000000000000000000600080611df96008610b80565b6001600160a01b0316634bb5274a848787604051602401611e309291906001600160a01b0392831681529116602082015260400190565b60408051601f198184030181529181526020820180516001600160e01b03166001600160e01b0319909416939093179092529051611e719190602401613bd2565b6040516020818303038152906040529060e01b6020820180516001600160e01b038381831617835250505050604051610659919061362b565b611eb381610b80565b6001600160a01b0316336001600160a01b0316146104ef576000356001600160e01b03191681336040517f8383e634000000000000000000000000000000000000000000000000000000008152600401610c0f93929190613c11565b60007fd78392f8000000000000000000000000000000000000000000000000000000008180611f3e600a610b80565b6001600160a01b0316634bb5274a8487604051602401611c9e91906001600160a01b0391909116815260200190565b6020820151600090808203611faf5760405163092048d160e11b8152600080356001600160e01b03191660048301526024820152466044820152606401610c0f565b600254611fbd90859061252c565b6000611fc885612073565b9050611fd382612463565b6000838152600160208181526040808420858552909152918290209188015190820184905560069091015592508451831461202f5760405163d4cec26960e01b81526001600160e01b0319600035166004820152602401610c0f565b8083837fa57d40f1496988cf60ab7c9d5ba4ff83647f67d3898d441a3aaf21b651678fd98888604051612063929190613ad1565b60405180910390a4505092915050565b6080810151606082015160a0830151516000929190839067ffffffffffffffff8111156120a2576120a2613664565b6040519080825280602002602001820160405280156120cb578160200160208202803683370190505b5060c086015190915060005b825181101561212a578660a0015181815181106120f6576120f6613a0a565b60200260200101518051906020012083828151811061211757612117613a0a565b60209081029190910101526001016120d7565b50604080517fd051578048e6ff0bbc9fca3b65a42088dbde10f36ca841de566711087ad9b08a8152875160208083019190915280890151828401529790910151606082015283518702938701939093206080840152835186029386019390932060a0830152805185029085012060c082015281518402919093012060e083015250610100902090565b84158015906121c157508483145b6121ec576040516306b5667560e21b81526001600160e01b0319600035166004820152602401610c0f565b60006121f6611b2c565b90506000816122036125e6565b61220d9190613bbf565b6122189060016139f7565b9050600080366000805b8981101561240e578a8a8281811061223c5761223c613a0a565b606002919091019350600090508d8d8381811061225b5761225b613a0a565b90506020020160208101906122709190613c46565b60018111156122815761228161311b565b036122ad576122a6896122976020860186613c72565b85602001358660400135612992565b935061233d565b60018d8d838181106122c1576122c1613a0a565b90506020020160208101906122d69190613c46565b60018111156122e7576122e761311b565b036122fd576122a6886122976020860186613c72565b6040517f0c24831e0000000000000000000000000000000000000000000000000000000081526001600160e01b0319600035166004820152602401610c0f565b836001600160a01b0316856001600160a01b031610612396576040517f5d3dcd310000000000000000000000000000000000000000000000000000000081526001600160e01b0319600035166004820152602401610c0f565b83945060006123a485611f0f565b9050801561240557600192506123f38f8f8f858181106123c6576123c6613a0a565b90506020020160208101906123db9190613c46565b8a8a896123ed368b90038b018b613c8d565b87612615565b15612405575050505050505050610f10565b50600101612222565b5080612454576040517f726b3acb0000000000000000000000000000000000000000000000000000000081526001600160e01b0319600035166004820152602401610c0f565b50505050505050505050505050565b600081815260208190526040812054908190036124925750600090815260208190526040902060019081905590565b60008281526001602090815260408083208484529091528120906124b582611765565b905080612525576000825460ff1660048111156124d4576124d461311b565b0361250b576040517f757a436300000000000000000000000000000000000000000000000000000000815260040160405180910390fd5b600084815260208190526040902080546001019081905592505b5050919050565b600082606001515111801561254a5750816080015151826060015151145b801561255f57508160a0015151826060015151145b801561257457508160c0015151826060015151145b61259f576040516306b5667560e21b81526001600160e01b0319600035166004820152602401610c0f565b6125a981426139f7565b826040015111156106c9576040517fad89be9d00000000000000000000000000000000000000000000000000000000815260040160405180910390fd5b60007f96c82e57000000000000000000000000000000000000000000000000000000008180611b5b600a610b80565b6020808801518851600082815260018452604080822083835290945292832061263d81611765565b1561264e5760019350505050612987565b6020808c01516000908152908190526040902054821461268f5760405163d4cec26960e01b81526001600160e01b0319600035166004820152602401610c0f565b6000815460ff1660048111156126a7576126a761311b565b146126de576040517f8b7a57fc00000000000000000000000000000000000000000000000000000000815260040160405180910390fd5b6001600160a01b038716600090815260088201602052604090205460ff16156127255760405163025fd59560e41b81526001600160a01b0388166004820152602401610c0f565b6001600160a01b03871660009081526008820160209081526040909120805460ff191660011790558601511515806127605750604086015115155b8061276e5750855160ff1615155b156127b5576001600160a01b03871660009081526007820160209081526040918290208851815460ff191660ff909116178155908801516001820155908701516002909101555b866001600160a01b031681600101547f1203f9e81c814a35f5f4cc24087b2a24c6fb7986a9f1406b68a9484882c93a238c886040516127f5929190613cee565b60405180910390a3600080808c60018111156128135761281361311b565b036128755760048301805460018101825560009182526020822001805473ffffffffffffffffffffffffffffffffffffffff19166001600160a01b038c161790556003840180548992906128689084906139f7565b92505081905591506128e7565b60018c60018111156128895761288961311b565b036122fd5760058301805460018101825560009182526020822001805473ffffffffffffffffffffffffffffffffffffffff19166001600160a01b038c161790556002840180548992906128de9084906139f7565b92505081905590505b8a821061293b57825460ff19166001908117845580840154604051919750907f5c819725ea53655a3b898f3df59b66489761935454e9212ca1e5ebd759953d0b90600090a2612936838e6129ba565b612981565b89811061298157825460ff19166003178355600180840154604051919750907f55295d4ce992922fa2e5ffbf3a3dcdb367de0a15e125ace083456017fd22060f90600090a25b50505050505b979650505050505050565b60008060006129a387878787612a27565b915091506129b081612b14565b5095945050505050565b6129c381612cca565b156106c957815460ff191660021782556000806129df83612ce4565b9150915083600101547fe134987599ae266ec90edeff1b26125b287dbb57b10822649432d1bb26537fba8383604051612a19929190613cfc565b60405180910390a250505050565b6000807f7fffffffffffffffffffffffffffffff5d576e7357a4501ddfe92f46681b20a0831115612a5e5750600090506003612b0b565b8460ff16601b14158015612a7657508460ff16601c14155b15612a875750600090506004612b0b565b6040805160008082526020820180845289905260ff881692820192909252606081018690526080810185905260019060a0016020604051602081039080840390855afa158015612adb573d6000803e3d6000fd5b5050604051601f1901519150506001600160a01b038116612b0457600060019250925050612b0b565b9150600090505b94509492505050565b6000816004811115612b2857612b2861311b565b03612b305750565b6001816004811115612b4457612b4461311b565b03612b915760405162461bcd60e51b815260206004820152601860248201527f45434453413a20696e76616c6964207369676e617475726500000000000000006044820152606401610c0f565b6002816004811115612ba557612ba561311b565b03612bf25760405162461bcd60e51b815260206004820152601f60248201527f45434453413a20696e76616c6964207369676e6174757265206c656e677468006044820152606401610c0f565b6003816004811115612c0657612c0661311b565b03612c5e5760405162461bcd60e51b815260206004820152602260248201527f45434453413a20696e76616c6964207369676e6174757265202773272076616c604482015261756560f01b6064820152608401610c0f565b6004816004811115612c7257612c7261311b565b036104ef5760405162461bcd60e51b815260206004820152602260248201527f45434453413a20696e76616c6964207369676e6174757265202776272076616c604482015261756560f01b6064820152608401610c0f565b6000816020015160001480610b7a57505060200151461490565b606080612cf083612cca565b612d2e57602083015160405163092048d160e11b81526000356001600160e01b03191660048201526024810191909152466044820152606401610c0f565b82606001515167ffffffffffffffff811115612d4c57612d4c613664565b604051908082528060200260200182016040528015612d75578160200160208202803683370190505b50915082606001515167ffffffffffffffff811115612d9657612d96613664565b604051908082528060200260200182016040528015612dc957816020015b6060815260200190600190039081612db45790505b50905060005b836060015151811015612f57578360c001518181518110612df257612df2613a0a565b60200260200101515a11612e3e57612e0984612073565b6040517f1ebb12ac000000000000000000000000000000000000000000000000000000008152600401610c0f91815260200190565b83606001518181518110612e5457612e54613a0a565b60200260200101516001600160a01b031684608001518281518110612e7b57612e7b613a0a565b60200260200101518560c001518381518110612e9957612e99613a0a565b6020026020010151908660a001518481518110612eb857612eb8613a0a565b6020026020010151604051612ecd919061362b565b600060405180830381858888f193505050503d8060008114612f0b576040519150601f19603f3d011682016040523d82523d6000602084013e612f10565b606091505b50848381518110612f2357612f23613a0a565b60200260200101848481518110612f3c57612f3c613a0a565b60209081029190910101919091529015159052600101612dcf565b50915091565b50805460008255906000526020600020908101906104ef91905b80821115612f8b5760008155600101612f77565b5090565b600060e08284031215612fa157600080fd5b50919050565b60008083601f840112612fb957600080fd5b50813567ffffffffffffffff811115612fd157600080fd5b6020830191508360208260051b8501011115612fec57600080fd5b9250929050565b60008060008060006060868803121561300b57600080fd5b853567ffffffffffffffff8082111561302357600080fd5b61302f89838a01612f8f565b9650602088013591508082111561304557600080fd5b61305189838a01612fa7565b9096509450604088013591508082111561306a57600080fd5b818801915088601f83011261307e57600080fd5b81358181111561308d57600080fd5b8960206060830285010111156130a257600080fd5b9699959850939650602001949392505050565b600080604083850312156130c857600080fd5b50508035926020909101359150565b600081518084526020808501945080840160005b838110156131105781516001600160a01b0316875295820195908201906001016130eb565b509495945050505050565b634e487b7160e01b600052602160045260246000fd5b600281106131415761314161311b565b9052565b60006060808352613158818401876130d7565b83810360208581019190915286518083528782019282019060005b8181101561319657613186838651613131565b9383019391830191600101613173565b505060409250858103838701528087518083528383019150838901925060005b818110156131e6578351805160ff16845285810151868501528601518684015292840192918601916001016131b6565b50909a9950505050505050505050565b6001600160a01b03811681146104ef57600080fd5b60006020828403121561321d57600080fd5b8135613228816131f6565b9392505050565b60008060006060848603121561324457600080fd5b8335925060208401359150604084013561325d816131f6565b809150509250925092565b60006020828403121561327a57600080fd5b5035919050565b803560028110610c1857600080fd5b60008060008060008060008060008060c08b8d0312156132af57600080fd5b8a35995060208b013567ffffffffffffffff808211156132ce57600080fd5b6132da8e838f01612fa7565b909b50995060408d01359150808211156132f357600080fd5b6132ff8e838f01612fa7565b909950975060608d013591508082111561331857600080fd5b6133248e838f01612fa7565b909750955060808d013591508082111561333d57600080fd5b5061334a8d828e01612fa7565b909450925061335d905060a08c01613281565b90509295989b9194979a5092959850565b6000806040838503121561338157600080fd5b823561338c816131f6565b9150602083013561339c816131f6565b809150509250929050565b803560108110610c1857600080fd5b600080604083850312156133c957600080fd5b61338c836133a7565b600080600080600060a086880312156133ea57600080fd5b8535945060208601356133fc816131f6565b9350604086013561340c816131f6565b94979396509394606081013594506080013592915050565b60008060008060008060008060008060c08b8d03121561344357600080fd5b8a35995060208b0135985060408b013567ffffffffffffffff8082111561346957600080fd5b6134758e838f01612fa7565b909a50985060608d013591508082111561348e57600080fd5b61349a8e838f01612fa7565b909850965060808d01359150808211156134b357600080fd5b6134bf8e838f01612fa7565b909650945060a08d01359150808211156134d857600080fd5b506134e58d828e01612fa7565b915080935050809150509295989b9194979a5092959850565b6000806000806080858703121561351457600080fd5b843561351f816131f6565b9350602085013561352f816131f6565b93969395505050506040820135916060013590565b6000806040838503121561355757600080fd5b823567ffffffffffffffff81111561356e57600080fd5b61357a85828601612f8f565b92505061358960208401613281565b90509250929050565b60a08101600587106135a6576135a661311b565b95815260208101949094526040840192909252606083015260809091015290565b600080604083850312156135da57600080fd5b82359150602083013561339c816131f6565b6000602082840312156135fe57600080fd5b610b77826133a7565b60005b8381101561362257818101518382015260200161360a565b50506000910152565b6000825161363d818460208701613607565b9190910192915050565b60006020828403121561365957600080fd5b8151613228816131f6565b634e487b7160e01b600052604160045260246000fd5b60405160e0810167ffffffffffffffff8111828210171561369d5761369d613664565b60405290565b604051601f8201601f1916810167ffffffffffffffff811182821017156136cc576136cc613664565b604052919050565b600067ffffffffffffffff8211156136ee576136ee613664565b5060051b60200190565b600061370b613706846136d4565b6136a3565b8381529050602080820190600585901b84018681111561372a57600080fd5b845b818110156137be57803567ffffffffffffffff8082111561374d5760008081fd5b8188019150601f8a818401126137635760008081fd5b82358281111561377557613775613664565b613786818301601f191688016136a3565b92508083528b8782860101111561379f57600091508182fd5b808785018885013760009083018701525085525092820192820161372c565b505050509392505050565b6000610b773684846136f8565b600082601f8301126137e757600080fd5b813560206137f7613706836136d4565b82815260059290921b8401810191818101908684111561381657600080fd5b8286015b8481101561383a57803561382d816131f6565b835291830191830161381a565b509695505050505050565b600082601f83011261385657600080fd5b81356020613866613706836136d4565b82815260059290921b8401810191818101908684111561388557600080fd5b8286015b8481101561383a5780358352918301918301613889565b600082601f8301126138b157600080fd5b610b77838335602085016136f8565b600060e082360312156138d257600080fd5b6138da61367a565b823581526020830135602082015260408301356040820152606083013567ffffffffffffffff8082111561390d57600080fd5b613919368387016137d6565b6060840152608085013591508082111561393257600080fd5b61393e36838701613845565b608084015260a085013591508082111561395757600080fd5b613963368387016138a0565b60a084015260c085013591508082111561397c57600080fd5b5061398936828601613845565b60c08301525092915050565b601081106131415761314161311b565b60208101610b7a8284613995565b6001600160e01b03198316815260408101600b83106139d4576139d461311b565b8260208301529392505050565b634e487b7160e01b600052601160045260246000fd5b80820180821115610b7a57610b7a6139e1565b634e487b7160e01b600052603260045260246000fd5b600081518084526020808501945080840160005b8381101561311057815187529582019590820190600101613a34565b60008151808452613a68816020860160208601613607565b601f01601f19169290920160200192915050565b600081518084526020808501808196508360051b8101915082860160005b85811015613ac4578284038952613ab2848351613a50565b98850198935090840190600101613a9a565b5091979650505050505050565b604081526000610120820184516040840152602080860151606085015260408601516080850152606086015160e060a0860152828151808552610140870191508383019450600092505b80831015613b445784516001600160a01b03168252938301936001929092019190830190613b1b565b5060808801519350603f199150818682030160c0870152613b658185613a20565b93505060a0870151818685030160e0870152613b818482613a7c565b93505060c08701518186850301610100870152613b9e8482613a20565b94505050613bb6818501866001600160a01b03169052565b50509392505050565b81810381811115610b7a57610b7a6139e1565b602081526000610b776020830184613a50565b600060208284031215613bf757600080fd5b5051919050565b602081526000610b7760208301846130d7565b6001600160e01b03198416815260608101613c2f6020830185613995565b6001600160a01b0383166040830152949350505050565b600060208284031215613c5857600080fd5b610b7782613281565b803560ff81168114610c1857600080fd5b600060208284031215613c8457600080fd5b610b7782613c61565b600060608284031215613c9f57600080fd5b6040516060810181811067ffffffffffffffff82111715613cc257613cc2613664565b604052613cce83613c61565b815260208301356020820152604083013560408201528091505092915050565b604081016139d48285613131565b604080825283519082018190526000906020906060840190828701845b82811015613d37578151151584529284019290840190600101613d19565b50505083810382850152613d4b8186613a7c565b969550505050505056fea2646970667358221220a88a786e70d245e3154b438ce1f4b28c0aa23544d8aaee5800fac91a55e2320a64736f6c63430008150033",
  "chainId": 2022,
  "contractAbsolutePath": "RoninGovernanceAdmin.sol",
  "deployer": "0x968D0Cd7343f711216817E617d3f92a23dC91c07",
  "devdoc": {
    "version": 1,
    "kind": "dev",
    "methods": {
      "castProposalBySignatures((uint256,uint256,uint256,address[],uint256[],bytes[],uint256[]),uint8[],(uint8,bytes32,bytes32)[])": {
        "details": "See `GovernanceProposal-_castProposalBySignatures`."
      },
      "castProposalVoteForCurrentNetwork((uint256,uint256,uint256,address[],uint256[],bytes[],uint256[]),uint8)": {
        "details": "Casts vote for a proposal on the current network. Requirements: - The method caller is governor."
      },
      "changeProxyAdmin(address,address)": {
        "details": "Changes the admin of `_proxy` to `newAdmin`. Requirements: - This contract must be the current admin of `_proxy`."
      },
      "createEmergencyExitPoll(address,address,uint256,uint256)": {
        "details": "Create a vote to agree that an emergency exit is valid and should return the locked funds back.a Requirements: - The method caller is validator contract."
      },
      "deleteExpired(uint256,uint256)": {
        "details": "Deletes the expired proposal by its chainId and nonce, without creating a new proposal. Requirements: - The proposal is already created."
      },
      "emergencyPollVoted(bytes32,address)": {
        "details": "Returns whether the voter casted vote for emergency exit poll."
      },
      "getContract(uint8)": {
        "details": "Returns the address of a contract with a specific role. Throws an error if no contract is set for the specified role.",
        "params": {
          "contractType": "The role of the contract to retrieve."
        },
        "returns": {
          "contract_": "The address of the contract with the specified role."
        }
      },
      "getProposalExpiryDuration()": {
        "details": "Returns the proposal expiry duration."
      },
      "getProposalSignatures(uint256,uint256)": {
        "details": "See {CommonGovernanceProposal-_getProposalSignatures}"
      },
      "getProxyAdmin(address)": {
        "details": "Returns the current admin of `_proxy`. Requirements: - This contract must be the admin of `_proxy`."
      },
      "getProxyImplementation(address)": {
        "details": "Returns the current implementation of `_proxy`. Requirements: - This contract must be the admin of `_proxy`."
      },
      "proposalVoted(uint256,uint256,address)": {
        "details": "See {CommonGovernanceProposal-_proposalVoted}"
      },
      "propose(uint256,uint256,address[],uint256[],bytes[],uint256[])": {
        "details": "See `CoreGovernance-_proposeProposal`. Requirements: - The method caller is governor."
      },
      "proposeProposalForCurrentNetwork(uint256,address[],uint256[],bytes[],uint256[],uint8)": {
        "details": "Proposes and casts vote for a proposal on the current network. Requirements: - The method caller is governor. - The proposal is for the current network."
      },
      "proposeProposalStructAndCastVotes((uint256,uint256,uint256,address[],uint256[],bytes[],uint256[]),uint8[],(uint8,bytes32,bytes32)[])": {
        "details": "See `GovernanceProposal-_proposeProposalStructAndCastVotes`. Requirements: - The method caller is governor. - The proposal is for the current network."
      },
      "setContract(uint8,address)": {
        "details": "Sets the address of a contract with a specific role. Emits the event {ContractUpdated}.",
        "params": {
          "addr": "The address of the contract to set.",
          "contractType": "The role of the contract to set."
        }
      },
      "setProposalExpiryDuration(uint256)": {
        "details": "Sets the expiry duration for a new proposal. Requirements: - Only allowing self-call to this method, since this contract does not have admin."
      },
      "voteEmergencyExit(bytes32,address,address,uint256,uint256)": {
        "details": "Votes for an emergency exit. Executes to unlock fund for the emergency exit's requester. Requirements: - The voter is governor. - The voting is existent. - The voting is not expired yet."
      }
    },
    "events": {
      "ContractUpdated(uint8,address)": {
        "details": "Emitted when a contract is updated."
      },
      "EmergencyExitPollApproved(bytes32)": {
        "details": "Emitted when an emergency exit poll is approved."
      },
      "EmergencyExitPollCreated(bytes32,address,address,uint256,uint256)": {
        "details": "Emitted when an emergency exit poll is created."
      },
      "EmergencyExitPollExpired(bytes32)": {
        "details": "Emitted when an emergency exit poll is expired."
      },
      "EmergencyExitPollVoted(bytes32,address)": {
        "details": "Emitted when an emergency exit poll is voted."
      },
      "ProposalApproved(bytes32)": {
        "details": "Emitted when the proposal is approved"
      },
      "ProposalCreated(uint256,uint256,bytes32,(uint256,uint256,uint256,address[],uint256[],bytes[],uint256[]),address)": {
        "details": "Emitted when a proposal is created"
      },
      "ProposalExecuted(bytes32,bool[],bytes[])": {
        "details": "Emitted when the proposal is executed"
      },
      "ProposalExpired(bytes32)": {
        "details": "Emitted when the vote is expired"
      },
      "ProposalExpiryDurationChanged(uint256)": {
        "details": "Emitted when the proposal expiry duration is changed."
      },
      "ProposalRejected(bytes32)": {
        "details": "Emitted when the vote is reject"
      },
      "ProposalVoted(bytes32,address,uint8,uint256)": {
        "details": "Emitted when the proposal is voted"
      }
    },
    "errors": {
      "ErrAlreadyVoted(address)": [
        {
          "details": "Error indicating that a voter has already voted.",
          "params": {
            "voter": "The address of the voter who has already voted."
          }
        }
      ],
      "ErrContractTypeNotFound(uint8)": [
        {
          "details": "Error of invalid role."
        }
      ],
      "ErrCurrentProposalIsNotCompleted()": [
        {
          "details": "Error thrown when the current proposal is not completed."
        }
      ],
      "ErrInsufficientGas(bytes32)": [
        {
          "details": "Error thrown when there is insufficient gas to execute a function."
        }
      ],
      "ErrInvalidChainId(bytes4,uint256,uint256)": [
        {
          "details": "Error indicating that the chain ID is invalid.",
          "params": {
            "actual": "Current chain ID that executing function.",
            "expected": "Expected chain ID required for the tx to success.",
            "msgSig": "The function signature (bytes4) of the operation that encountered an invalid chain ID."
          }
        }
      ],
      "ErrInvalidExpiryTimestamp()": [
        {
          "details": "Error thrown when an invalid expiry timestamp is provided."
        }
      ],
      "ErrInvalidOrder(bytes4)": [
        {
          "details": "Error indicating that an order is invalid.",
          "params": {
            "msgSig": "The function signature (bytes4) of the operation that encountered an invalid order."
          }
        }
      ],
      "ErrInvalidProposal(bytes32,bytes32)": [
        {
          "details": "Error thrown when an invalid proposal is encountered.",
          "params": {
            "actual": "The actual value of the proposal.",
            "expected": "The expected value of the proposal."
          }
        }
      ],
      "ErrInvalidProposalNonce(bytes4)": [
        {
          "details": "Error indicating that the proposal nonce is invalid.",
          "params": {
            "msgSig": "The function signature (bytes4) of the operation that encountered an invalid proposal nonce."
          }
        }
      ],
      "ErrInvalidSignatures(bytes4)": [
        {
          "details": "Error indicating that a signature is invalid for a specific function signature.",
          "params": {
            "msgSig": "The function signature (bytes4) that encountered an invalid signature."
          }
        }
      ],
      "ErrInvalidVoteHash()": [
        {
          "details": "Error thrown when an invalid vote hash is provided."
        }
      ],
      "ErrLengthMismatch(bytes4)": [
        {
          "details": "Error indicating a mismatch in the length of input parameters or arrays for a specific function.",
          "params": {
            "msgSig": "The function signature (bytes4) that has a length mismatch."
          }
        }
      ],
      "ErrOnlySelfCall(bytes4)": [
        {
          "details": "Error indicating that a function can only be called by the contract itself.",
          "params": {
            "msgSig": "The function signature (bytes4) that can only be called by the contract itself."
          }
        }
      ],
      "ErrQueryForEmptyVote()": [
        {
          "details": "Error thrown when querying for an empty vote."
        }
      ],
      "ErrQueryForExpiredVote()": [
        {
          "details": "Error thrown when querying for an expired vote."
        }
      ],
      "ErrQueryForNonExistentVote()": [
        {
          "details": "Error thrown when querying for a non-existent vote."
        }
      ],
      "ErrUnauthorized(bytes4,uint8)": [
        {
          "details": "Error indicating that the caller is unauthorized to perform a specific function.",
          "params": {
            "expectedRole": "The role required to perform the function.",
            "msgSig": "The function signature (bytes4) that the caller is unauthorized to perform."
          }
        }
      ],
      "ErrUnexpectedInternalCall(bytes4,uint8,address)": [
        {
          "details": "Error indicating that the caller is unauthorized to perform a specific function.",
          "params": {
            "actual": "The actual address that called to the function.",
            "expectedContractType": "The contract type required to perform the function.",
            "msgSig": "The function signature (bytes4)."
          }
        }
      ],
      "ErrUnsupportedVoteType(bytes4)": [
        {
          "details": "Error indicating that a vote type is not supported.",
          "params": {
            "msgSig": "The function signature (bytes4) of the operation that encountered an unsupported vote type."
          }
        }
      ],
      "ErrVoteIsFinalized()": [
        {
          "details": "Error thrown when attempting to interact with a finalized vote."
        }
      ],
      "ErrZeroCodeContract(address)": [
        {
          "details": "Error of set to non-contract."
        }
      ]
    }
  },
  "isFoundry": true,
  "nonce": 183803,
  "numDeployments": 1,
  "storageLayout": {
    "storage": [
      {
        "astId": 3867,
        "contract": "contracts/ronin/RoninGovernanceAdmin.sol:RoninGovernanceAdmin",
        "label": "round",
        "offset": 0,
        "slot": "0",
        "type": "t_mapping(t_uint256,t_uint256)"
      },
      {
        "astId": 3875,
        "contract": "contracts/ronin/RoninGovernanceAdmin.sol:RoninGovernanceAdmin",
        "label": "vote",
        "offset": 0,
        "slot": "1",
        "type": "t_mapping(t_uint256,t_mapping(t_uint256,t_struct(ProposalVote)3805_storage))"
      },
      {
        "astId": 3877,
        "contract": "contracts/ronin/RoninGovernanceAdmin.sol:RoninGovernanceAdmin",
        "label": "_proposalExpiryDuration",
        "offset": 0,
        "slot": "2",
        "type": "t_uint256"
      },
      {
        "astId": 37128,
        "contract": "contracts/ronin/RoninGovernanceAdmin.sol:RoninGovernanceAdmin",
        "label": "______deprecatedGovernanceAdmin",
        "offset": 0,
        "slot": "3",
        "type": "t_address"
      },
      {
        "astId": 37108,
        "contract": "contracts/ronin/RoninGovernanceAdmin.sol:RoninGovernanceAdmin",
        "label": "______deprecatedBridge",
        "offset": 0,
        "slot": "4",
        "type": "t_address"
      },
      {
        "astId": 251,
        "contract": "contracts/ronin/RoninGovernanceAdmin.sol:RoninGovernanceAdmin",
        "label": "roninChainId",
        "offset": 0,
        "slot": "5",
        "type": "t_uint256"
      },
      {
        "astId": 254,
        "contract": "contracts/ronin/RoninGovernanceAdmin.sol:RoninGovernanceAdmin",
        "label": "DOMAIN_SEPARATOR",
        "offset": 0,
        "slot": "6",
        "type": "t_bytes32"
      },
      {
        "astId": 37112,
        "contract": "contracts/ronin/RoninGovernanceAdmin.sol:RoninGovernanceAdmin",
        "label": "______deprecatedValidator",
        "offset": 0,
        "slot": "7",
        "type": "t_address"
      },
      {
        "astId": 20262,
        "contract": "contracts/ronin/RoninGovernanceAdmin.sol:RoninGovernanceAdmin",
        "label": "_emergencyExitPoll",
        "offset": 0,
        "slot": "8",
        "type": "t_mapping(t_bytes32,t_struct(Vote)11301_storage)"
      }
    ],
    "types": {
      "t_address": {
        "encoding": "inplace",
        "label": "address",
        "numberOfBytes": "20"
      },
      "t_array(t_address)dyn_storage": {
        "encoding": "dynamic_array",
        "label": "address[]",
        "numberOfBytes": "32",
        "base": "t_address"
      },
      "t_bool": {
        "encoding": "inplace",
        "label": "bool",
        "numberOfBytes": "1"
      },
      "t_bytes32": {
        "encoding": "inplace",
        "label": "bytes32",
        "numberOfBytes": "32"
      },
      "t_enum(VoteStatus)8703": {
        "encoding": "inplace",
        "label": "enum VoteStatusConsumer.VoteStatus",
        "numberOfBytes": "1"
      },
      "t_mapping(t_address,t_bool)": {
        "encoding": "mapping",
        "key": "t_address",
        "label": "mapping(address => bool)",
        "numberOfBytes": "32",
        "value": "t_bool"
      },
      "t_mapping(t_address,t_bytes32)": {
        "encoding": "mapping",
        "key": "t_address",
        "label": "mapping(address => bytes32)",
        "numberOfBytes": "32",
        "value": "t_bytes32"
      },
      "t_mapping(t_address,t_struct(Signature)8694_storage)": {
        "encoding": "mapping",
        "key": "t_address",
        "label": "mapping(address => struct SignatureConsumer.Signature)",
        "numberOfBytes": "32",
        "value": "t_struct(Signature)8694_storage"
      },
      "t_mapping(t_bytes32,t_struct(Vote)11301_storage)": {
        "encoding": "mapping",
        "key": "t_bytes32",
        "label": "mapping(bytes32 => struct IsolatedGovernance.Vote)",
        "numberOfBytes": "32",
        "value": "t_struct(Vote)11301_storage"
      },
      "t_mapping(t_uint256,t_mapping(t_uint256,t_struct(ProposalVote)3805_storage))": {
        "encoding": "mapping",
        "key": "t_uint256",
        "label": "mapping(uint256 => mapping(uint256 => struct CoreGovernance.ProposalVote))",
        "numberOfBytes": "32",
        "value": "t_mapping(t_uint256,t_struct(ProposalVote)3805_storage)"
      },
      "t_mapping(t_uint256,t_struct(ProposalVote)3805_storage)": {
        "encoding": "mapping",
        "key": "t_uint256",
        "label": "mapping(uint256 => struct CoreGovernance.ProposalVote)",
        "numberOfBytes": "32",
        "value": "t_struct(ProposalVote)3805_storage"
      },
      "t_mapping(t_uint256,t_uint256)": {
        "encoding": "mapping",
        "key": "t_uint256",
        "label": "mapping(uint256 => uint256)",
        "numberOfBytes": "32",
        "value": "t_uint256"
      },
      "t_struct(ProposalVote)3805_storage": {
        "encoding": "inplace",
        "label": "struct CoreGovernance.ProposalVote",
        "numberOfBytes": "288",
        "members": [
          {
            "astId": 3781,
            "contract": "contracts/ronin/RoninGovernanceAdmin.sol:RoninGovernanceAdmin",
            "label": "status",
            "offset": 0,
            "slot": "0",
            "type": "t_enum(VoteStatus)8703"
          },
          {
            "astId": 3783,
            "contract": "contracts/ronin/RoninGovernanceAdmin.sol:RoninGovernanceAdmin",
            "label": "hash",
            "offset": 0,
            "slot": "1",
            "type": "t_bytes32"
          },
          {
            "astId": 3785,
            "contract": "contracts/ronin/RoninGovernanceAdmin.sol:RoninGovernanceAdmin",
            "label": "againstVoteWeight",
            "offset": 0,
            "slot": "2",
            "type": "t_uint256"
          },
          {
            "astId": 3787,
            "contract": "contracts/ronin/RoninGovernanceAdmin.sol:RoninGovernanceAdmin",
            "label": "forVoteWeight",
            "offset": 0,
            "slot": "3",
            "type": "t_uint256"
          },
          {
            "astId": 3790,
            "contract": "contracts/ronin/RoninGovernanceAdmin.sol:RoninGovernanceAdmin",
            "label": "forVoteds",
            "offset": 0,
            "slot": "4",
            "type": "t_array(t_address)dyn_storage"
          },
          {
            "astId": 3793,
            "contract": "contracts/ronin/RoninGovernanceAdmin.sol:RoninGovernanceAdmin",
            "label": "againstVoteds",
            "offset": 0,
            "slot": "5",
            "type": "t_array(t_address)dyn_storage"
          },
          {
            "astId": 3795,
            "contract": "contracts/ronin/RoninGovernanceAdmin.sol:RoninGovernanceAdmin",
            "label": "expiryTimestamp",
            "offset": 0,
            "slot": "6",
            "type": "t_uint256"
          },
          {
            "astId": 3800,
            "contract": "contracts/ronin/RoninGovernanceAdmin.sol:RoninGovernanceAdmin",
            "label": "sig",
            "offset": 0,
            "slot": "7",
            "type": "t_mapping(t_address,t_struct(Signature)8694_storage)"
          },
          {
            "astId": 3804,
            "contract": "contracts/ronin/RoninGovernanceAdmin.sol:RoninGovernanceAdmin",
            "label": "voted",
            "offset": 0,
            "slot": "8",
            "type": "t_mapping(t_address,t_bool)"
          }
        ]
      },
      "t_struct(Signature)8694_storage": {
        "encoding": "inplace",
        "label": "struct SignatureConsumer.Signature",
        "numberOfBytes": "96",
        "members": [
          {
            "astId": 8689,
            "contract": "contracts/ronin/RoninGovernanceAdmin.sol:RoninGovernanceAdmin",
            "label": "v",
            "offset": 0,
            "slot": "0",
            "type": "t_uint8"
          },
          {
            "astId": 8691,
            "contract": "contracts/ronin/RoninGovernanceAdmin.sol:RoninGovernanceAdmin",
            "label": "r",
            "offset": 0,
            "slot": "1",
            "type": "t_bytes32"
          },
          {
            "astId": 8693,
            "contract": "contracts/ronin/RoninGovernanceAdmin.sol:RoninGovernanceAdmin",
            "label": "s",
            "offset": 0,
            "slot": "2",
            "type": "t_bytes32"
          }
        ]
      },
      "t_struct(Vote)11301_storage": {
        "encoding": "inplace",
        "label": "struct IsolatedGovernance.Vote",
        "numberOfBytes": "192",
        "members": [
          {
            "astId": 11283,
            "contract": "contracts/ronin/RoninGovernanceAdmin.sol:RoninGovernanceAdmin",
            "label": "status",
            "offset": 0,
            "slot": "0",
            "type": "t_enum(VoteStatus)8703"
          },
          {
            "astId": 11285,
            "contract": "contracts/ronin/RoninGovernanceAdmin.sol:RoninGovernanceAdmin",
            "label": "finalHash",
            "offset": 0,
            "slot": "1",
            "type": "t_bytes32"
          },
          {
            "astId": 11290,
            "contract": "contracts/ronin/RoninGovernanceAdmin.sol:RoninGovernanceAdmin",
            "label": "voteHashOf",
            "offset": 0,
            "slot": "2",
            "type": "t_mapping(t_address,t_bytes32)"
          },
          {
            "astId": 11293,
            "contract": "contracts/ronin/RoninGovernanceAdmin.sol:RoninGovernanceAdmin",
            "label": "expiredAt",
            "offset": 0,
            "slot": "3",
            "type": "t_uint256"
          },
          {
            "astId": 11296,
            "contract": "contracts/ronin/RoninGovernanceAdmin.sol:RoninGovernanceAdmin",
            "label": "createdAt",
            "offset": 0,
            "slot": "4",
            "type": "t_uint256"
          },
          {
            "astId": 11300,
            "contract": "contracts/ronin/RoninGovernanceAdmin.sol:RoninGovernanceAdmin",
            "label": "voters",
            "offset": 0,
            "slot": "5",
            "type": "t_array(t_address)dyn_storage"
          }
        ]
      },
      "t_uint256": {
        "encoding": "inplace",
        "label": "uint256",
        "numberOfBytes": "32"
      },
      "t_uint8": {
        "encoding": "inplace",
        "label": "uint8",
        "numberOfBytes": "1"
      }
    }
  },
  "timestamp": 1701406986,
  "userdoc": {
    "version": 1,
    "kind": "user",
    "methods": {
      "round(uint256)": {
        "notice": "chain id = 0 for global proposal"
      }
    }
  }
}