{
  "abi": [
    {
      "type": "constructor",
      "inputs": [],
      "stateMutability": "nonpayable"
    },
    {
      "type": "function",
      "name": "bailOut",
      "inputs": [
        {
          "name": "_consensusAddr",
          "type": "address",
          "internalType": "address"
        }
      ],
      "outputs": [],
      "stateMutability": "nonpayable"
    },
    {
      "type": "function",
      "name": "checkBailedOutAtPeriod",
      "inputs": [
        {
          "name": "_validator",
          "type": "address",
          "internalType": "address"
        },
        {
          "name": "_period",
          "type": "uint256",
          "internalType": "uint256"
        }
      ],
      "outputs": [
        {
          "name": "",
          "type": "bool",
          "internalType": "bool"
        }
      ],
      "stateMutability": "view"
    },
    {
      "type": "function",
      "name": "currentUnavailabilityIndicator",
      "inputs": [
        {
          "name": "_validator",
          "type": "address",
          "internalType": "address"
        }
      ],
      "outputs": [
        {
          "name": "",
          "type": "uint256",
          "internalType": "uint256"
        }
      ],
      "stateMutability": "view"
    },
    {
      "type": "function",
      "name": "execResetCreditScores",
      "inputs": [
        {
          "name": "_validators",
          "type": "address[]",
          "internalType": "address[]"
        }
      ],
      "outputs": [],
      "stateMutability": "nonpayable"
    },
    {
      "type": "function",
      "name": "execSlashBridgeOperator",
      "inputs": [
        {
          "name": "_consensusAddr",
          "type": "address",
          "internalType": "address"
        },
        {
          "name": "_tier",
          "type": "uint256",
          "internalType": "uint256"
        },
        {
          "name": "_period",
          "type": "uint256",
          "internalType": "uint256"
        }
      ],
      "outputs": [],
      "stateMutability": "nonpayable"
    },
    {
      "type": "function",
      "name": "getBridgeOperatorSlashingConfigs",
      "inputs": [],
      "outputs": [
        {
          "name": "missingVotesRatioTier1_",
          "type": "uint256",
          "internalType": "uint256"
        },
        {
          "name": "missingVotesRatioTier2_",
          "type": "uint256",
          "internalType": "uint256"
        },
        {
          "name": "jailDurationForMissingVotesRatioTier2_",
          "type": "uint256",
          "internalType": "uint256"
        },
        {
          "name": "skipBridgeOperatorSlashingThreshold_",
          "type": "uint256",
          "internalType": "uint256"
        }
      ],
      "stateMutability": "view"
    },
    {
      "type": "function",
      "name": "getBridgeVotingSlashingConfigs",
      "inputs": [],
      "outputs": [
        {
          "name": "bridgeVotingThreshold_",
          "type": "uint256",
          "internalType": "uint256"
        },
        {
          "name": "bridgeVotingSlashAmount_",
          "type": "uint256",
          "internalType": "uint256"
        }
      ],
      "stateMutability": "view"
    },
    {
      "type": "function",
      "name": "getContract",
      "inputs": [
        {
          "name": "contractType",
          "type": "uint8",
          "internalType": "enum ContractType"
        }
      ],
      "outputs": [
        {
          "name": "contract_",
          "type": "address",
          "internalType": "address"
        }
      ],
      "stateMutability": "view"
    },
    {
      "type": "function",
      "name": "getCreditScore",
      "inputs": [
        {
          "name": "_validator",
          "type": "address",
          "internalType": "address"
        }
      ],
      "outputs": [
        {
          "name": "",
          "type": "uint256",
          "internalType": "uint256"
        }
      ],
      "stateMutability": "view"
    },
    {
      "type": "function",
      "name": "getCreditScoreConfigs",
      "inputs": [],
      "outputs": [
        {
          "name": "gainCreditScore_",
          "type": "uint256",
          "internalType": "uint256"
        },
        {
          "name": "maxCreditScore_",
          "type": "uint256",
          "internalType": "uint256"
        },
        {
          "name": "bailOutCostMultiplier_",
          "type": "uint256",
          "internalType": "uint256"
        },
        {
          "name": "cutOffPercentageAfterBailout_",
          "type": "uint256",
          "internalType": "uint256"
        }
      ],
      "stateMutability": "view"
    },
    {
      "type": "function",
      "name": "getDoubleSignSlashingConfigs",
      "inputs": [],
      "outputs": [
        {
          "name": "slashDoubleSignAmount_",
          "type": "uint256",
          "internalType": "uint256"
        },
        {
          "name": "doubleSigningJailUntilBlock_",
          "type": "uint256",
          "internalType": "uint256"
        },
        {
          "name": "doubleSigningOffsetLimitBlock_",
          "type": "uint256",
          "internalType": "uint256"
        }
      ],
      "stateMutability": "view"
    },
    {
      "type": "function",
      "name": "getFastFinalitySlashingConfigs",
      "inputs": [],
      "outputs": [
        {
          "name": "slashFastFinalityAmount_",
          "type": "uint256",
          "internalType": "uint256"
        },
        {
          "name": "fastFinalityJailUntilBlock_",
          "type": "uint256",
          "internalType": "uint256"
        }
      ],
      "stateMutability": "view"
    },
    {
      "type": "function",
      "name": "getManyCreditScores",
      "inputs": [
        {
          "name": "_validators",
          "type": "address[]",
          "internalType": "address[]"
        }
      ],
      "outputs": [
        {
          "name": "_resultList",
          "type": "uint256[]",
          "internalType": "uint256[]"
        }
      ],
      "stateMutability": "view"
    },
    {
      "type": "function",
      "name": "getUnavailabilityIndicator",
      "inputs": [
        {
          "name": "_validator",
          "type": "address",
          "internalType": "address"
        },
        {
          "name": "_period",
          "type": "uint256",
          "internalType": "uint256"
        }
      ],
      "outputs": [
        {
          "name": "",
          "type": "uint256",
          "internalType": "uint256"
        }
      ],
      "stateMutability": "view"
    },
    {
      "type": "function",
      "name": "getUnavailabilitySlashingConfigs",
      "inputs": [],
      "outputs": [
        {
          "name": "unavailabilityTier1Threshold_",
          "type": "uint256",
          "internalType": "uint256"
        },
        {
          "name": "unavailabilityTier2Threshold_",
          "type": "uint256",
          "internalType": "uint256"
        },
        {
          "name": "slashAmountForUnavailabilityTier2Threshold_",
          "type": "uint256",
          "internalType": "uint256"
        },
        {
          "name": "jailDurationForUnavailabilityTier2Threshold_",
          "type": "uint256",
          "internalType": "uint256"
        }
      ],
      "stateMutability": "view"
    },
    {
      "type": "function",
      "name": "initialize",
      "inputs": [
        {
          "name": "__validatorContract",
          "type": "address",
          "internalType": "address"
        },
        {
          "name": "__maintenanceContract",
          "type": "address",
          "internalType": "address"
        },
        {
          "name": "__roninTrustedOrganizationContract",
          "type": "address",
          "internalType": "address"
        },
        {
          "name": "__roninGovernanceAdminContract",
          "type": "address",
          "internalType": "address"
        },
        {
          "name": "_bridgeOperatorSlashingConfigs",
          "type": "uint256[4]",
          "internalType": "uint256[4]"
        },
        {
          "name": "_bridgeVotingSlashingConfigs",
          "type": "uint256[2]",
          "internalType": "uint256[2]"
        },
        {
          "name": "_doubleSignSlashingConfigs",
          "type": "uint256[3]",
          "internalType": "uint256[3]"
        },
        {
          "name": "_unavailabilitySlashingConfigs",
          "type": "uint256[4]",
          "internalType": "uint256[4]"
        },
        {
          "name": "_creditScoreConfigs",
          "type": "uint256[4]",
          "internalType": "uint256[4]"
        }
      ],
      "outputs": [],
      "stateMutability": "nonpayable"
    },
    {
      "type": "function",
      "name": "initializeV2",
      "inputs": [
        {
          "name": "roninGovernanceAdminContract",
          "type": "address",
          "internalType": "address"
        }
      ],
      "outputs": [],
      "stateMutability": "nonpayable"
    },
    {
      "type": "function",
      "name": "initializeV3",
      "inputs": [
        {
          "name": "profileContract",
          "type": "address",
          "internalType": "address"
        }
      ],
      "outputs": [],
      "stateMutability": "nonpayable"
    },
    {
      "type": "function",
      "name": "lastUnavailabilitySlashedBlock",
      "inputs": [],
      "outputs": [
        {
          "name": "",
          "type": "uint256",
          "internalType": "uint256"
        }
      ],
      "stateMutability": "view"
    },
    {
      "type": "function",
      "name": "precompileValidateDoubleSignAddress",
      "inputs": [],
      "outputs": [
        {
          "name": "",
          "type": "address",
          "internalType": "address"
        }
      ],
      "stateMutability": "view"
    },
    {
      "type": "function",
      "name": "precompileValidateFastFinalityAddress",
      "inputs": [],
      "outputs": [
        {
          "name": "",
          "type": "address",
          "internalType": "address"
        }
      ],
      "stateMutability": "view"
    },
    {
      "type": "function",
      "name": "setBridgeOperatorSlashingConfigs",
      "inputs": [
        {
          "name": "_ratioTier1",
          "type": "uint256",
          "internalType": "uint256"
        },
        {
          "name": "_ratioTier2",
          "type": "uint256",
          "internalType": "uint256"
        },
        {
          "name": "_jailDurationTier2",
          "type": "uint256",
          "internalType": "uint256"
        },
        {
          "name": "_skipSlashingThreshold",
          "type": "uint256",
          "internalType": "uint256"
        }
      ],
      "outputs": [],
      "stateMutability": "nonpayable"
    },
    {
      "type": "function",
      "name": "setBridgeVotingSlashingConfigs",
      "inputs": [
        {
          "name": "_threshold",
          "type": "uint256",
          "internalType": "uint256"
        },
        {
          "name": "_slashAmount",
          "type": "uint256",
          "internalType": "uint256"
        }
      ],
      "outputs": [],
      "stateMutability": "nonpayable"
    },
    {
      "type": "function",
      "name": "setContract",
      "inputs": [
        {
          "name": "contractType",
          "type": "uint8",
          "internalType": "enum ContractType"
        },
        {
          "name": "addr",
          "type": "address",
          "internalType": "address"
        }
      ],
      "outputs": [],
      "stateMutability": "nonpayable"
    },
    {
      "type": "function",
      "name": "setCreditScoreConfigs",
      "inputs": [
        {
          "name": "_gainScore",
          "type": "uint256",
          "internalType": "uint256"
        },
        {
          "name": "_maxScore",
          "type": "uint256",
          "internalType": "uint256"
        },
        {
          "name": "_bailOutMultiplier",
          "type": "uint256",
          "internalType": "uint256"
        },
        {
          "name": "_cutOffPercentage",
          "type": "uint256",
          "internalType": "uint256"
        }
      ],
      "outputs": [],
      "stateMutability": "nonpayable"
    },
    {
      "type": "function",
      "name": "setDoubleSignSlashingConfigs",
      "inputs": [
        {
          "name": "_slashAmount",
          "type": "uint256",
          "internalType": "uint256"
        },
        {
          "name": "_jailUntilBlock",
          "type": "uint256",
          "internalType": "uint256"
        },
        {
          "name": "_offsetLimitBlock",
          "type": "uint256",
          "internalType": "uint256"
        }
      ],
      "outputs": [],
      "stateMutability": "nonpayable"
    },
    {
      "type": "function",
      "name": "setFastFinalitySlashingConfigs",
      "inputs": [
        {
          "name": "slashAmount",
          "type": "uint256",
          "internalType": "uint256"
        },
        {
          "name": "jailUntilBlock",
          "type": "uint256",
          "internalType": "uint256"
        }
      ],
      "outputs": [],
      "stateMutability": "nonpayable"
    },
    {
      "type": "function",
      "name": "setUnavailabilitySlashingConfigs",
      "inputs": [
        {
          "name": "_tier1Threshold",
          "type": "uint256",
          "internalType": "uint256"
        },
        {
          "name": "_tier2Threshold",
          "type": "uint256",
          "internalType": "uint256"
        },
        {
          "name": "_slashAmountForTier2Threshold",
          "type": "uint256",
          "internalType": "uint256"
        },
        {
          "name": "_jailDurationForTier2Threshold",
          "type": "uint256",
          "internalType": "uint256"
        }
      ],
      "outputs": [],
      "stateMutability": "nonpayable"
    },
    {
      "type": "function",
      "name": "slashBridgeVoting",
      "inputs": [
        {
          "name": "_consensusAddr",
          "type": "address",
          "internalType": "address"
        }
      ],
      "outputs": [],
      "stateMutability": "nonpayable"
    },
    {
      "type": "function",
      "name": "slashDoubleSign",
      "inputs": [
        {
          "name": "_consensusAddr",
          "type": "address",
          "internalType": "address"
        },
        {
          "name": "_header1",
          "type": "bytes",
          "internalType": "bytes"
        },
        {
          "name": "_header2",
          "type": "bytes",
          "internalType": "bytes"
        }
      ],
      "outputs": [],
      "stateMutability": "nonpayable"
    },
    {
      "type": "function",
      "name": "slashFastFinality",
      "inputs": [
        {
          "name": "consensusAddr",
          "type": "address",
          "internalType": "address"
        },
        {
          "name": "voterPublicKey",
          "type": "bytes",
          "internalType": "bytes"
        },
        {
          "name": "targetBlockNumber",
          "type": "uint256",
          "internalType": "uint256"
        },
        {
          "name": "targetBlockHash",
          "type": "bytes32[2]",
          "internalType": "bytes32[2]"
        },
        {
          "name": "listOfPublicKey",
          "type": "bytes[][2]",
          "internalType": "bytes[][2]"
        },
        {
          "name": "aggregatedSignature",
          "type": "bytes[2]",
          "internalType": "bytes[2]"
        }
      ],
      "outputs": [],
      "stateMutability": "nonpayable"
    },
    {
      "type": "function",
      "name": "slashUnavailability",
      "inputs": [
        {
          "name": "_validatorAddr",
          "type": "address",
          "internalType": "address"
        }
      ],
      "outputs": [],
      "stateMutability": "nonpayable"
    },
    {
      "type": "function",
      "name": "updateCreditScores",
      "inputs": [
        {
          "name": "_validators",
          "type": "address[]",
          "internalType": "address[]"
        },
        {
          "name": "_period",
          "type": "uint256",
          "internalType": "uint256"
        }
      ],
      "outputs": [],
      "stateMutability": "nonpayable"
    },
    {
      "type": "event",
      "name": "BailedOut",
      "inputs": [
        {
          "name": "validator",
          "type": "address",
          "indexed": true,
          "internalType": "address"
        },
        {
          "name": "period",
          "type": "uint256",
          "indexed": false,
          "internalType": "uint256"
        },
        {
          "name": "usedCreditScore",
          "type": "uint256",
          "indexed": false,
          "internalType": "uint256"
        }
      ],
      "anonymous": false
    },
    {
      "type": "event",
      "name": "BridgeOperatorSlashingConfigsUpdated",
      "inputs": [
        {
          "name": "missingVotesRatioTier1",
          "type": "uint256",
          "indexed": false,
          "internalType": "uint256"
        },
        {
          "name": "missingVotesRatioTier2",
          "type": "uint256",
          "indexed": false,
          "internalType": "uint256"
        },
        {
          "name": "jailDurationForMissingVotesRatioTier2",
          "type": "uint256",
          "indexed": false,
          "internalType": "uint256"
        },
        {
          "name": "skipBridgeOperatorSlashingThreshold",
          "type": "uint256",
          "indexed": false,
          "internalType": "uint256"
        }
      ],
      "anonymous": false
    },
    {
      "type": "event",
      "name": "BridgeVotingSlashingConfigsUpdated",
      "inputs": [
        {
          "name": "bridgeVotingThreshold",
          "type": "uint256",
          "indexed": false,
          "internalType": "uint256"
        },
        {
          "name": "bridgeVotingSlashAmount",
          "type": "uint256",
          "indexed": false,
          "internalType": "uint256"
        }
      ],
      "anonymous": false
    },
    {
      "type": "event",
      "name": "ContractUpdated",
      "inputs": [
        {
          "name": "contractType",
          "type": "uint8",
          "indexed": true,
          "internalType": "enum ContractType"
        },
        {
          "name": "addr",
          "type": "address",
          "indexed": true,
          "internalType": "address"
        }
      ],
      "anonymous": false
    },
    {
      "type": "event",
      "name": "CreditScoreConfigsUpdated",
      "inputs": [
        {
          "name": "gainCreditScore",
          "type": "uint256",
          "indexed": false,
          "internalType": "uint256"
        },
        {
          "name": "maxCreditScore",
          "type": "uint256",
          "indexed": false,
          "internalType": "uint256"
        },
        {
          "name": "bailOutCostMultiplier",
          "type": "uint256",
          "indexed": false,
          "internalType": "uint256"
        },
        {
          "name": "cutOffPercentageAfterBailout",
          "type": "uint256",
          "indexed": false,
          "internalType": "uint256"
        }
      ],
      "anonymous": false
    },
    {
      "type": "event",
      "name": "CreditScoresUpdated",
      "inputs": [
        {
          "name": "validators",
          "type": "address[]",
          "indexed": false,
          "internalType": "address[]"
        },
        {
          "name": "creditScores",
          "type": "uint256[]",
          "indexed": false,
          "internalType": "uint256[]"
        }
      ],
      "anonymous": false
    },
    {
      "type": "event",
      "name": "DoubleSignSlashingConfigsUpdated",
      "inputs": [
        {
          "name": "slashDoubleSignAmount",
          "type": "uint256",
          "indexed": false,
          "internalType": "uint256"
        },
        {
          "name": "doubleSigningJailUntilBlock",
          "type": "uint256",
          "indexed": false,
          "internalType": "uint256"
        },
        {
          "name": "doubleSigningOffsetLimitBlock",
          "type": "uint256",
          "indexed": false,
          "internalType": "uint256"
        }
      ],
      "anonymous": false
    },
    {
      "type": "event",
      "name": "FastFinalitySlashingConfigsUpdated",
      "inputs": [
        {
          "name": "slashFastFinalityAmount",
          "type": "uint256",
          "indexed": false,
          "internalType": "uint256"
        },
        {
          "name": "fastFinalityJailUntilBlock",
          "type": "uint256",
          "indexed": false,
          "internalType": "uint256"
        }
      ],
      "anonymous": false
    },
    {
      "type": "event",
      "name": "Initialized",
      "inputs": [
        {
          "name": "version",
          "type": "uint8",
          "indexed": false,
          "internalType": "uint8"
        }
      ],
      "anonymous": false
    },
    {
      "type": "event",
      "name": "Slashed",
      "inputs": [
        {
          "name": "validator",
          "type": "address",
          "indexed": true,
          "internalType": "address"
        },
        {
          "name": "slashType",
          "type": "uint8",
          "indexed": false,
          "internalType": "enum IBaseSlash.SlashType"
        },
        {
          "name": "period",
          "type": "uint256",
          "indexed": false,
          "internalType": "uint256"
        }
      ],
      "anonymous": false
    },
    {
      "type": "event",
      "name": "UnavailabilitySlashingConfigsUpdated",
      "inputs": [
        {
          "name": "unavailabilityTier1Threshold",
          "type": "uint256",
          "indexed": false,
          "internalType": "uint256"
        },
        {
          "name": "unavailabilityTier2Threshold",
          "type": "uint256",
          "indexed": false,
          "internalType": "uint256"
        },
        {
          "name": "slashAmountForUnavailabilityTier2Threshold",
          "type": "uint256",
          "indexed": false,
          "internalType": "uint256"
        },
        {
          "name": "jailDurationForUnavailabilityTier2Threshold",
          "type": "uint256",
          "indexed": false,
          "internalType": "uint256"
        }
      ],
      "anonymous": false
    },
    {
      "type": "error",
      "name": "ErrCallPrecompiled",
      "inputs": []
    },
    {
      "type": "error",
      "name": "ErrCallerMustBeJailedInTheCurrentPeriod",
      "inputs": []
    },
    {
      "type": "error",
      "name": "ErrCannotSlashAValidatorTwiceOrSlashMoreThanOneValidatorInOneBlock",
      "inputs": []
    },
    {
      "type": "error",
      "name": "ErrContractTypeNotFound",
      "inputs": [
        {
          "name": "contractType",
          "type": "uint8",
          "internalType": "enum ContractType"
        }
      ]
    },
    {
      "type": "error",
      "name": "ErrEvidenceAlreadySubmitted",
      "inputs": []
    },
    {
      "type": "error",
      "name": "ErrInsufficientCreditScoreToBailOut",
      "inputs": []
    },
    {
      "type": "error",
      "name": "ErrInvalidArguments",
      "inputs": [
        {
          "name": "msgSig",
          "type": "bytes4",
          "internalType": "bytes4"
        }
      ]
    },
    {
      "type": "error",
      "name": "ErrInvalidCreditScoreConfig",
      "inputs": []
    },
    {
      "type": "error",
      "name": "ErrInvalidCutOffPercentageConfig",
      "inputs": []
    },
    {
      "type": "error",
      "name": "ErrInvalidRatios",
      "inputs": []
    },
    {
      "type": "error",
      "name": "ErrInvalidSlash",
      "inputs": []
    },
    {
      "type": "error",
      "name": "ErrInvalidThreshold",
      "inputs": [
        {
          "name": "msgSig",
          "type": "bytes4",
          "internalType": "bytes4"
        }
      ]
    },
    {
      "type": "error",
      "name": "ErrUnauthorized",
      "inputs": [
        {
          "name": "msgSig",
          "type": "bytes4",
          "internalType": "bytes4"
        },
        {
          "name": "expectedRole",
          "type": "uint8",
          "internalType": "enum RoleAccess"
        }
      ]
    },
    {
      "type": "error",
      "name": "ErrUnexpectedInternalCall",
      "inputs": [
        {
          "name": "msgSig",
          "type": "bytes4",
          "internalType": "bytes4"
        },
        {
          "name": "expectedContractType",
          "type": "uint8",
          "internalType": "enum ContractType"
        },
        {
          "name": "actual",
          "type": "address",
          "internalType": "address"
        }
      ]
    },
    {
      "type": "error",
      "name": "ErrValidatorHasBailedOutPreviously",
      "inputs": []
    },
    {
      "type": "error",
      "name": "ErrZeroCodeContract",
      "inputs": [
        {
          "name": "addr",
          "type": "address",
          "internalType": "address"
        }
      ]
    }
  ],
  "address": "0x763D92CDC31002cE287E91A66234aC003e50b497",
  "args": "0x",
  "blockNumber": 17360399,
  "bytecode": "0x60806040523480156200001157600080fd5b506200001c62000022565b620000e7565b61011354610100900460ff1615620000905760405162461bcd60e51b815260206004820152602760248201527f496e697469616c697a61626c653a20636f6e747261637420697320696e697469604482015266616c697a696e6760c81b606482015260840160405180910390fd5b6101135460ff9081161015620000e557610113805460ff191660ff9081179091556040519081527f7f26b83ff96e1f2b6a682f133852f6798a09c465da95921460cefb38474024989060200160405180910390a15b565b61380a80620000f76000396000f3fe608060405234801561001057600080fd5b506004361061020b5760003560e01c806399103f7b1161012a578063d1cf4343116100bd578063df4b6ee01161008c578063f1001e7811610071578063f1001e78146104a9578063f562b3c4146104c9578063fd422cd0146104d257600080fd5b8063df4b6ee01461047e578063e9bb1666146104a257600080fd5b8063d1cf43431461041c578063d1f992f71461042f578063d3dd2bdf14610442578063de981f1b1461046b57600080fd5b8063c6391fa2116100f9578063c6391fa2146103d2578063ccbb72ed146103e3578063cf39d13c146103f6578063d1737e271461040957600080fd5b806399103f7b1461038e578063a345ecb2146103a1578063c008ce39146103b4578063c2e524dc146103c757600080fd5b80633101cfcb116101a25780637680850c116101715780637680850c1461033a5780637c2b55a01461034d578063853af1b714610368578063865e6fd31461037b57600080fd5b80633101cfcb146102e75780633d48fd7d146102fa578063487e00ea1461030b57806362ffe6cb1461032757600080fd5b80631a697341116101de5780631a6973411461028b5780631e90b2a01461029e57806329b6eca9146102b157806329ddc3c0146102c457600080fd5b806307c2d2f614610210578063082e7420146102255780630e1512ac1461024b5780631079402a1461025e575b600080fd5b61022361021e366004612a4b565b6104e5565b005b610238610233366004612aa2565b6105f3565b6040519081526020015b60405180910390f35b610223610259366004612abf565b61066a565b606d54606e54606f546070545b604080519485526020850193909352918301526060820152608001610242565b610223610299366004612aa2565b610684565b6102236102ac366004612b33565b610993565b6102236102bf366004612aa2565b610ba0565b6102d76102d2366004612bb6565b610d14565b6040519015158152602001610242565b6102236102f5366004612aa2565b610d43565b60a55460a65460a75460a85461026b565b601d54601e545b60408051928352602083019190915201610242565b610238610335366004612bb6565b610e37565b610223610348366004612be2565b610e60565b60675b6040516001600160a01b039091168152602001610242565b610223610376366004612c2e565b611177565b610223610389366004612c5f565b61118d565b61022361039c366004612cb8565b6111a8565b6102236103af366004612c2e565b61135a565b6102236103c2366004612d76565b61136c565b603854603954610312565b60dd5460de5460df5460e05461026b565b6102236103f1366004612abf565b61141a565b610223610404366004612dab565b61142e565b610223610417366004612abf565b611446565b61022361042a366004612dd7565b61145a565b61022361043d366004612aa2565b6117da565b610238610450366004612aa2565b6001600160a01b0316600090815260dc602052604090205490565b610350610479366004612e96565b611c78565b60015460025460035460408051938452602084019290925290820152606001610242565b6069610350565b6104bc6104b7366004612a4b565b611d0c565b6040516102429190612eec565b61023860a35481565b6102236104e0366004612aa2565b611dd7565b60086104f081612161565b60008267ffffffffffffffff81111561050b5761050b612eff565b604051908082528060200260200182016040528015610534578160200160208202803683370190505b50905060005b838110156105b157600085858381811061055657610556612f15565b905060200201602081019061056b9190612aa2565b6001600160a01b038116600090815260dc6020526040812055835190915083908390811061059b5761059b612f15565b600060209182029290920101525060010161053a565b507f8c02b2ccee964dc50649a48bd0a0446f0f9e88ecdb72d099f4ace07c39c234808484836040516105e593929190612f69565b60405180910390a150505050565b6000610664826106036008611c78565b6001600160a01b031663060406186040518163ffffffff1660e01b8152600401602060405180830381865afa158015610640573d6000803e3d6000fd5b505050506040513d601f19601f820116820180604052508101906103359190612f99565b92915050565b6106726121c6565b61067e84848484612222565b50505050565b61068c6121c6565b6000610698600a611c78565b6040517fdb6693a20000000000000000000000000000000000000000000000000000000081526001600160a01b038481166004830152919091169063db6693a29060240160a060405180830381865afa1580156106f9573d6000803e3d6000fd5b505050506040513d601f19601f8201168201806040525081019061071d919061303a565b905060006107c061072e600b611c78565b60408085015190517f988ef53c0000000000000000000000000000000000000000000000000000000081526001600160a01b03918216600482015291169063988ef53c90602401602060405180830381865afa158015610792573d6000803e3d6000fd5b505050506040513d601f19601f820116820180604052508101906107b69190612f99565b83608001516122cd565b905060006107ce6008611c78565b90506000816001600160a01b031663060406186040518163ffffffff1660e01b8152600401602060405180830381865afa158015610810573d6000803e3d6000fd5b505050506040513d601f19601f820116820180604052508101906108349190612f99565b60385490915061084484436130d8565b11158061087457506001600160a01b038516600090815260376020908152604080832084845290915290205460ff165b156108ab576040517f5c61141600000000000000000000000000000000000000000000000000000000815260040160405180910390fd5b6001600160a01b038516600081815260376020908152604080832085845290915290819020805460ff19166001179055517f607adba66cff84b627e3537d1c17d088a98556bccd0536a2f3590c56329023d99061090c906004908590613101565b60405180910390a2603954604051630bde081360e21b81526001600160a01b0387811660048301526000602483018190526044830193909352606482019290925290831690632f78204c90608401600060405180830381600087803b15801561097457600080fd5b505af1158015610988573d6000803e3d6000fd5b505050505050505050565b61099b6121c6565b600084846040516109ad92919061311f565b60405180910390209050600083836040516109c992919061311f565b604080519182900390912060008481526004602052919091205490915060ff1680610a02575060008181526004602052604090205460ff165b15610a205760405163f27b8ec960e01b815260040160405180910390fd5b610a2d87878787876122e4565b15610b97576000610a3e6008611c78565b90506000816001600160a01b031663060406186040518163ffffffff1660e01b8152600401602060405180830381865afa158015610a80573d6000803e3d6000fd5b505050506040513d601f19601f82011682018060405250810190610aa49190612f99565b6000858152600460205260408082208054600160ff19918216811790925587845292829020805490931617909155519091506001600160a01b038a16907f607adba66cff84b627e3537d1c17d088a98556bccd0536a2f3590c56329023d990610b11906003908590613101565b60405180910390a260025460018054604051630bde081360e21b81526001600160a01b038d8116600483015260248201949094526044810191909152606481019190915290831690632f78204c90608401600060405180830381600087803b158015610b7c57600080fd5b505af1158015610b90573d6000803e3d6000fd5b5050505050505b50505050505050565b61011354600290610100900460ff16158015610bc457506101135460ff8083169116105b610c2c5760405162461bcd60e51b815260206004820152602e60248201527f496e697469616c697a61626c653a20636f6e747261637420697320616c72656160448201526d191e481a5b9a5d1a585b1a5e995960921b60648201526084015b60405180910390fd5b610113805461ffff191660ff831617610100179055600054610c59906008906001600160a01b03166123d5565b606c54610c71906005906001600160a01b03166123d5565b610c7c6004836123d5565b603554610c9490600a906001600160a01b03166123d5565b6000805473ffffffffffffffffffffffffffffffffffffffff19908116909155606c8054821690556035805482169055603680549091169055610113805461ff001916905560405160ff821681527f7f26b83ff96e1f2b6a682f133852f6798a09c465da95921460cefb3847402498906020015b60405180910390a15050565b6001600160a01b038216600090815260db6020908152604080832084845290915281205460ff165b9392505050565b61011354600390610100900460ff16158015610d6757506101135460ff8083169116105b610dca5760405162461bcd60e51b815260206004820152602e60248201527f496e697469616c697a61626c653a20636f6e747261637420697320616c72656160448201526d191e481a5b9a5d1a585b1a5e995960921b6064820152608401610c23565b610113805461ffff191660ff831617610100179055610dea600f836123d5565b610df8600154600254612486565b610113805461ff001916905560405160ff821681527f7f26b83ff96e1f2b6a682f133852f6798a09c465da95921460cefb384740249890602001610d08565b6001600160a01b038216600090815260a460209081526040808320848452909152812054610d3c565b6008610e6b81612161565b60003390506000816001600160a01b031663297a8fca6040518163ffffffff1660e01b8152600401602060405180830381865afa158015610eb0573d6000803e3d6000fd5b505050506040513d601f19601f82011682018060405250810190610ed49190612f99565b90506000826001600160a01b0316634de2b73588886040518363ffffffff1660e01b8152600401610f0692919061312f565b600060405180830381865afa158015610f23573d6000803e3d6000fd5b505050506040513d6000823e601f3d908101601f19168201604052610f4b9190810190613177565b90506000610f596005611c78565b6001600160a01b031663ba303755898986436040518563ffffffff1660e01b8152600401610f8a9493929190613214565b600060405180830381865afa158015610fa7573d6000803e3d6000fd5b505050506040513d6000823e601f3d908101601f19168201604052610fcf9190810190613177565b905060008767ffffffffffffffff811115610fec57610fec612eff565b604051908082528060200260200182016040528015611015578160200160208202803683370190505b50905060005b888110156111305760008a8a8381811061103757611037612f15565b905060200201602081019061104c9190612aa2565b9050600061105a828b610e37565b9050600086848151811061107057611070612f15565b60200260200101519050600086858151811061108e5761108e612f15565b60200260200101519050600082806110a35750815b6110b8576110b360dd54856124c6565b6110bb565b60005b6001600160a01b038616600090815260dc602052604090205460de549192506110e59183906124e0565b6001600160a01b038616600090815260dc60205260409020819055875188908890811061111457611114612f15565b602002602001018181525050856001019550505050505061101b565b507f8c02b2ccee964dc50649a48bd0a0446f0f9e88ecdb72d099f4ace07c39c2348089898360405161116493929190612f69565b60405180910390a1505050505050505050565b61117f6121c6565b61118982826124fd565b5050565b6111956121c6565b61119e8161253d565b61118982826123d5565b61011354610100900460ff16158080156111ca575061011354600160ff909116105b806111e55750303b1580156111e557506101135460ff166001145b6112485760405162461bcd60e51b815260206004820152602e60248201527f496e697469616c697a61626c653a20636f6e747261637420697320616c72656160448201526d191e481a5b9a5d1a585b1a5e995960921b6064820152608401610c23565b610113805460ff19166001179055801561126d57610113805461ff0019166101001790555b61127860088b6123d5565b61128360058a6123d5565b61128e6004886123d5565b611299600a896123d5565b6112b286356020880135604089013560608a0135612222565b6112c1853560208701356124fd565b6112d584356020860135604087013561258c565b6112ee83356020850135604086013560608701356125e1565b6113078235602084013560408501356060860135612686565b801561134e57610113805461ff0019169055604051600181527f7f26b83ff96e1f2b6a682f133852f6798a09c465da95921460cefb38474024989060200160405180910390a15b50505050505050505050565b6113626121c6565b6111898282612486565b600861137781612161565b826001036113c857836001600160a01b03167f607adba66cff84b627e3537d1c17d088a98556bccd0536a2f3590c56329023d96005846040516113bb929190613101565b60405180910390a261067e565b8260020361067e57836001600160a01b03167f607adba66cff84b627e3537d1c17d088a98556bccd0536a2f3590c56329023d960068460405161140c929190613101565b60405180910390a250505050565b6114226121c6565b61067e84848484612686565b6114366121c6565b61144183838361258c565b505050565b61144e6121c6565b61067e848484846125e1565b61146333612755565b600003611493576000356001600160e01b0319166003604051620f948f60ea1b8152600401610c2392919061323b565b600061149f600f611c78565b6040517ff46609400000000000000000000000000000000000000000000000000000000081526001600160a01b038a8116600483015291925060009183169063f466094090602401600060405180830381865afa158015611504573d6000803e3d6000fd5b505050506040513d6000823e601f3d908101601f1916820160405261152c91908101906132fa565b60a0015190508080519060200120888860405161154a92919061311f565b604051809103902014611597576040517f053265f10000000000000000000000000000000000000000000000000000000081526001600160e01b0319600035166004820152602401610c23565b6040516bffffffffffffffffffffffff1960608b901b1660208201526034810187905260009060540160408051601f1981840301815291815281516020928301206000818152601f90935291205490915060ff16156116095760405163f27b8ec960e01b815260040160405180910390fd5b61167f89898080601f016020809104026020016040519081016040528093929190818152602001838380828437600092019190915250506040805180820182528c935091508a90600290839083908082843760009201919091525061167191508a9050613413565b61167a896134eb565b6127e6565b1561134e576000818152601f60205260408120805460ff191660011790556116a76008611c78565b90506000816001600160a01b031663060406186040518163ffffffff1660e01b8152600401602060405180830381865afa1580156116e9573d6000803e3d6000fd5b505050506040513d601f19601f8201168201806040525081019061170d9190612f99565b90508b6001600160a01b03167f607adba66cff84b627e3537d1c17d088a98556bccd0536a2f3590c56329023d960088360405161174b929190613101565b60405180910390a2601e54601d54604051630bde081360e21b81526001600160a01b038f81166004830152602482019390935260448101919091526001606482015290831690632f78204c90608401600060405180830381600087803b1580156117b457600080fd5b505af11580156117c8573d6000803e3d6000fd5b50505050505050505050505050505050565b60006117e66008611c78565b6040517fa0c3f2d20000000000000000000000000000000000000000000000000000000081526001600160a01b0384811660048301529192509082169063a0c3f2d290602401602060405180830381865afa158015611849573d6000803e3d6000fd5b505050506040513d601f19601f8201168201806040525081019061186d9190613544565b61189a576000356001600160e01b0319166008604051620f948f60ea1b8152600401610c2392919061323b565b6040517f04d971ab0000000000000000000000000000000000000000000000000000000081526001600160a01b0383811660048301523360248301528216906304d971ab90604401602060405180830381865afa1580156118ff573d6000803e3d6000fd5b505050506040513d601f19601f820116820180604052508101906119239190613544565b611950576000356001600160e01b0319166004604051620f948f60ea1b8152600401610c2392919061323b565b6040517f96585fc20000000000000000000000000000000000000000000000000000000081526001600160a01b03838116600483015260009182918416906396585fc290602401606060405180830381865afa1580156119b4573d6000803e3d6000fd5b505050506040513d601f19601f820116820180604052508101906119d8919061355f565b925050915081611a14576040517f6cd31b5900000000000000000000000000000000000000000000000000000000815260040160405180910390fd5b6000836001600160a01b031663060406186040518163ffffffff1660e01b8152600401602060405180830381865afa158015611a54573d6000803e3d6000fd5b505050506040513d601f19601f82011682018060405250810190611a789190612f99565b6001600160a01b038616600090815260db6020908152604080832084845290915290205490915060ff1615611ad9576040517f7674d6a900000000000000000000000000000000000000000000000000000000815260040160405180910390fd5b6001600160a01b038516600090815260dc602052604081205460df54909190611b029085613594565b905080821015611b3e576040517f8c5cb26e00000000000000000000000000000000000000000000000000000000815260040160405180910390fd5b6040517f15b5ebde0000000000000000000000000000000000000000000000000000000081526001600160a01b038881166004830152602482018590528716906315b5ebde90604401600060405180830381600087803b158015611ba157600080fd5b505af1158015611bb5573d6000803e3d6000fd5b505050506001600160a01b038716600090815260dc602052604081208054839290611be19084906130d8565b90915550506001600160a01b038716600090815260a4602090815260408083208684529091528120556001600160a01b038716600081815260db60209081526040808320878452825291829020805460ff1916600117905581518681529081018490527f7ff9f7032d565c7e8919332964b2faa33c320b53604a65d9dd1f8112e12cd39d910160405180910390a250505050505050565b60007fdea3103d22025c269050bea94c0c84688877f12fa22b7e6d2d5d78a9a49aa1cb600083600f811115611caf57611caf6130eb565b60ff1681526020810191909152604001600020546001600160a01b0316905080611d0757816040517f812281be000000000000000000000000000000000000000000000000000000008152600401610c2391906135bf565b919050565b60608167ffffffffffffffff811115611d2757611d27612eff565b604051908082528060200260200182016040528015611d50578160200160208202803683370190505b50905060005b8151811015611dd05760dc6000858584818110611d7557611d75612f15565b9050602002016020810190611d8a9190612aa2565b6001600160a01b03166001600160a01b0316815260200190815260200160002054828281518110611dbd57611dbd612f15565b6020908102919091010152600101611d56565b5092915050565b60a3544311611e12576040517f557fd09100000000000000000000000000000000000000000000000000000000815260040160405180910390fd5b4360a355334114611e46576000356001600160e01b0319166002604051620f948f60ea1b8152600401610c2392919061323b565b611e4f8161286f565b1561215e576000611e606008611c78565b90506000816001600160a01b031663060406186040518163ffffffff1660e01b8152600401602060405180830381865afa158015611ea2573d6000803e3d6000fd5b505050506040513d601f19601f82011682018060405250810190611ec69190612f99565b6001600160a01b038416600090815260a460209081526040808320848452909152812080546001019081905560a85492935091611f049043906129b7565b905060a6548203611fcd57846001600160a01b03167f607adba66cff84b627e3537d1c17d088a98556bccd0536a2f3590c56329023d9600285604051611f4b929190613101565b60405180910390a260a754604051630bde081360e21b81526001600160a01b0387811660048301526024820184905260448201929092526000606482015290851690632f78204c90608401600060405180830381600087803b158015611fb057600080fd5b505af1158015611fc4573d6000803e3d6000fd5b50505050612159565b60a5548203612159576000611fe28685610d14565b9050806120a257856001600160a01b03167f607adba66cff84b627e3537d1c17d088a98556bccd0536a2f3590c56329023d9600186604051612025929190613101565b60405180910390a2604051630bde081360e21b81526001600160a01b038781166004830152600060248301819052604483018190526064830152861690632f78204c90608401600060405180830381600087803b15801561208557600080fd5b505af1158015612099573d6000803e3d6000fd5b50505050612157565b856001600160a01b03167f607adba66cff84b627e3537d1c17d088a98556bccd0536a2f3590c56329023d96007866040516120de929190613101565b60405180910390a260a754604051630bde081360e21b81526001600160a01b0388811660048301526024820185905260448201929092526001606482015290861690632f78204c90608401600060405180830381600087803b15801561214357600080fd5b505af115801561134e573d6000803e3d6000fd5b505b505050505b50565b61216a81611c78565b6001600160a01b0316336001600160a01b03161461215e576000356001600160e01b03191681336040517f8383e634000000000000000000000000000000000000000000000000000000008152600401610c23939291906135cd565b7fb53127684a568b3173ae13b9f8a6016e243e63b6e8ee1178d6a717850b5d6103546001600160a01b03163314612220576000356001600160e01b0319166001604051620f948f60ea1b8152600401610c2392919061323b565b565b82841180612231575061271084115b8061223d575061271083115b15612274576040517f397c357e00000000000000000000000000000000000000000000000000000000815260040160405180910390fd5b606d849055606e839055606f82905560708190556040805185815260208101859052908101839052606081018290527fd24c671da2227c139fe1a5b34de15e5a67bef9b46e912916b9e0d025d51b3e3b906080016105e5565b6000818310156122dd5781610d3c565b5090919050565b6040516000906067906001908390612308908a908a908a908a908a9060240161362b565b60408051601f198184030181529190526020810180517bffffffffffffffffffffffffffffffffffffffffffffffffffffffff167f7fc3567700000000000000000000000000000000000000000000000000000000179052805190915061236d6129e1565b602083016020828483895afa61238257600094505b503d61238d57600093505b836123c4576040517f0fc2632100000000000000000000000000000000000000000000000000000000815260040160405180910390fd5b5115159a9950505050505050505050565b807fdea3103d22025c269050bea94c0c84688877f12fa22b7e6d2d5d78a9a49aa1cb600084600f81111561240b5761240b6130eb565b60ff1681526020810191909152604001600020805473ffffffffffffffffffffffffffffffffffffffff19166001600160a01b03928316179055811682600f811115612459576124596130eb565b6040517f865d1c228a8ea13709cfe61f346f7ff67f1bbd4a18ff31ad3e7147350d317c5990600090a35050565b601d829055601e81905560408051838152602081018390527f381ec200df2ed0875638486318f9f8a84e3550bdc686bf1400c9371a18d087f09101610d08565b60008183116124d6576000610d3c565b610d3c82846130d8565b60006124f56124ef848661366d565b836129d2565b949350505050565b6038829055603981905560408051838152602081018390527fbda9ec2980d7468ba6a9f363696315affca9f9770016396bdea2ac39c3e5d61a9101610d08565b806001600160a01b03163b60000361215e576040517f2ff1928c0000000000000000000000000000000000000000000000000000000081526001600160a01b0382166004820152602401610c23565b60018390556002829055600381905560408051848152602081018490529081018290527f913da102149f952dde560cef3349db8e8002e9d580c41a7551d6d45329f4306b9060600160405180910390a1505050565b60a65460a554111561262d576040517f87f6f0950000000000000000000000000000000000000000000000000000000081526001600160e01b0319600035166004820152602401610c23565b60a584905560a683905560a782905560a88190556040805185815260208101859052908101839052606081018290527f442862e6143ad95854e7c13ff4947ec6e43bc87160e3b193e7c1abaf6e3aaa98906080016105e5565b828411156126c0576040517f112af4d100000000000000000000000000000000000000000000000000000000815260040160405180910390fd5b6127108111156126fc576040517fe0b2228c00000000000000000000000000000000000000000000000000000000815260040160405180910390fd5b60dd84905560de83905560df82905560e08190556040805185815260208101859052908101839052606081018290527fe1f9c6c73554b5fa140eead3cfd4ec3e6d4824f3ed26fb25e38376f65b95470b906080016105e5565b6000612761600a611c78565b6040517fd78392f80000000000000000000000000000000000000000000000000000000081526001600160a01b038481166004830152919091169063d78392f890602401602060405180830381865afa1580156127c2573d6000803e3d6000fd5b505050506040513d601f19601f820116820180604052508101906106649190612f99565b604051600090606990600190839061280a908a908a908a908a908a906024016136f1565b60408051601f198184030181529190526020810180517bffffffffffffffffffffffffffffffffffffffffffffffffffffffff167f7b47d06b00000000000000000000000000000000000000000000000000000000179052805190915061236d6129e1565b6000336001600160a01b03831614801590612914575061288f6008611c78565b6040517f65244ece0000000000000000000000000000000000000000000000000000000081526001600160a01b03848116600483015291909116906365244ece90602401602060405180830381865afa1580156128f0573d6000803e3d6000fd5b505050506040513d601f19601f820116820180604052508101906129149190613544565b801561066457506129256005611c78565b6040517f0fbeb37f0000000000000000000000000000000000000000000000000000000081526001600160a01b0384811660048301524360248301529190911690630fbeb37f90604401602060405180830381865afa15801561298c573d6000803e3d6000fd5b505050506040513d601f19601f820116820180604052508101906129b09190613544565b1592915050565b6000816000036129c8576000610d3c565b610d3c828461366d565b60008183106122dd5781610d3c565b60405180602001604052806001906020820280368337509192915050565b60008083601f840112612a1157600080fd5b50813567ffffffffffffffff811115612a2957600080fd5b6020830191508360208260051b8501011115612a4457600080fd5b9250929050565b60008060208385031215612a5e57600080fd5b823567ffffffffffffffff811115612a7557600080fd5b612a81858286016129ff565b90969095509350505050565b6001600160a01b038116811461215e57600080fd5b600060208284031215612ab457600080fd5b8135610d3c81612a8d565b60008060008060808587031215612ad557600080fd5b5050823594602084013594506040840135936060013592509050565b60008083601f840112612b0357600080fd5b50813567ffffffffffffffff811115612b1b57600080fd5b602083019150836020828501011115612a4457600080fd5b600080600080600060608688031215612b4b57600080fd5b8535612b5681612a8d565b9450602086013567ffffffffffffffff80821115612b7357600080fd5b612b7f89838a01612af1565b90965094506040880135915080821115612b9857600080fd5b50612ba588828901612af1565b969995985093965092949392505050565b60008060408385031215612bc957600080fd5b8235612bd481612a8d565b946020939093013593505050565b600080600060408486031215612bf757600080fd5b833567ffffffffffffffff811115612c0e57600080fd5b612c1a868287016129ff565b909790965060209590950135949350505050565b60008060408385031215612c4157600080fd5b50508035926020909101359150565b803560108110611d0757600080fd5b60008060408385031215612c7257600080fd5b612c7b83612c50565b91506020830135612c8b81612a8d565b809150509250929050565b806080810183101561066457600080fd5b806040810183101561066457600080fd5b60008060008060008060008060006102a08a8c031215612cd757600080fd5b8935612ce281612a8d565b985060208a0135612cf281612a8d565b975060408a0135612d0281612a8d565b965060608a0135612d1281612a8d565b9550612d218b60808c01612c96565b9450612d318b6101008c01612ca7565b93506101a08a018b811115612d4557600080fd5b6101408b019350612d568c82612c96565b925050612d678b6102208c01612c96565b90509295985092959850929598565b600080600060608486031215612d8b57600080fd5b8335612d9681612a8d565b95602085013595506040909401359392505050565b600080600060608486031215612dc057600080fd5b505081359360208301359350604090920135919050565b600080600080600080600060e0888a031215612df257600080fd5b8735612dfd81612a8d565b9650602088013567ffffffffffffffff80821115612e1a57600080fd5b612e268b838c01612af1565b909850965060408a01359550869150612e428b60608c01612ca7565b945060a08a0135915080821115612e5857600080fd5b612e648b838c01612ca7565b935060c08a0135915080821115612e7a57600080fd5b50612e878a828b01612ca7565b91505092959891949750929550565b600060208284031215612ea857600080fd5b610d3c82612c50565b600081518084526020808501945080840160005b83811015612ee157815187529582019590820190600101612ec5565b509495945050505050565b602081526000610d3c6020830184612eb1565b634e487b7160e01b600052604160045260246000fd5b634e487b7160e01b600052603260045260246000fd5b8183526000602080850194508260005b85811015612ee1578135612f4e81612a8d565b6001600160a01b031687529582019590820190600101612f3b565b604081526000612f7d604083018587612f2b565b8281036020840152612f8f8185612eb1565b9695505050505050565b600060208284031215612fab57600080fd5b5051919050565b60405160c0810167ffffffffffffffff81118282101715612fd557612fd5612eff565b60405290565b6040805190810167ffffffffffffffff81118282101715612fd557612fd5612eff565b604051601f8201601f1916810167ffffffffffffffff8111828210171561302757613027612eff565b604052919050565b8051611d0781612a8d565b600060a0828403121561304c57600080fd5b60405160a0810181811067ffffffffffffffff8211171561306f5761306f612eff565b604052825161307d81612a8d565b8152602083015161308d81612a8d565b602082015260408301516130a081612a8d565b6040820152606083810151908201526080928301519281019290925250919050565b634e487b7160e01b600052601160045260246000fd5b81810381811115610664576106646130c2565b634e487b7160e01b600052602160045260246000fd5b6040810160098410613115576131156130eb565b9281526020015290565b8183823760009101908152919050565b6020815260006124f5602083018486612f2b565b600067ffffffffffffffff82111561315d5761315d612eff565b5060051b60200190565b80518015158114611d0757600080fd5b6000602080838503121561318a57600080fd5b825167ffffffffffffffff8111156131a157600080fd5b8301601f810185136131b257600080fd5b80516131c56131c082613143565b612ffe565b81815260059190911b820183019083810190878311156131e457600080fd5b928401925b82841015613209576131fa84613167565b825292840192908401906131e9565b979650505050505050565b606081526000613228606083018688612f2b565b6020830194909452506040015292915050565b6001600160e01b03198316815260408101600b831061325c5761325c6130eb565b8260208301529392505050565b600067ffffffffffffffff82111561328357613283612eff565b50601f01601f191660200190565b60005b838110156132ac578181015183820152602001613294565b50506000910152565b600082601f8301126132c657600080fd5b81516132d46131c082613269565b8181528460208386010111156132e957600080fd5b6124f5826020830160208701613291565b60006020828403121561330c57600080fd5b815167ffffffffffffffff8082111561332457600080fd5b9083019060c0828603121561333857600080fd5b613340612fb2565b825161334b81612a8d565b8152602083015161335b81612a8d565b6020820152604083015161336e81612a8d565b604082015261337f6060840161302f565b60608201526133906080840161302f565b608082015260a0830151828111156133a757600080fd5b6133b3878286016132b5565b60a08301525095945050505050565b600082601f8301126133d357600080fd5b81356133e16131c082613269565b8181528460208386010111156133f657600080fd5b816020850160208301376000918101602001919091529392505050565b600061341d612fdb565b80604084013681111561342f57600080fd5b845b818110156134e157803567ffffffffffffffff808211156134525760008081fd5b9087019036601f8301126134665760008081fd5b813560206134766131c083613143565b82815260059290921b840181019181810190368411156134965760008081fd5b8286015b848110156134ce578035868111156134b25760008081fd5b6134c03686838b01016133c2565b84525091830191830161349a565b5089525090960195505050602001613431565b5090949350505050565b60006134f5612fdb565b80604084013681111561350757600080fd5b845b818110156134e157803567ffffffffffffffff8111156135295760008081fd5b613535368289016133c2565b85525060209384019301613509565b60006020828403121561355657600080fd5b610d3c82613167565b60008060006060848603121561357457600080fd5b61357d84613167565b925060208401519150604084015190509250925092565b8082028115828204841417610664576106646130c2565b601081106135bb576135bb6130eb565b9052565b6020810161066482846135ab565b6001600160e01b031984168152606081016135eb60208301856135ab565b6001600160a01b0383166040830152949350505050565b81835281816020850137506000828201602090810191909152601f909101601f19169091010190565b6001600160a01b038616815260606020820152600061364e606083018688613602565b8281036040840152613661818587613602565b98975050505050505050565b80820180821115610664576106646130c2565b60008151808452613698816020860160208601613291565b601f01601f19169290920160200192915050565b600082604081018360005b60028110156136e65783830387526136d0838351613680565b60209788019790935091909101906001016136b7565b509095945050505050565b60c08152600061370460c0830188613680565b60208781850152604084018760005b600281101561373057815183529183019190830190600101613713565b505050838203608085015281604081018760005b60028110156137b1578583038452815180518085529086019086850190600581901b8601880160005b8281101561379b57601f19888303018452613789828651613680565b948a0194938a0193915060010161376d565b5096880196955050509185019150600101613744565b505085810360a08701526137c581886136ac565b9b9a505050505050505050505056fea2646970667358221220fcecab2686c57e85ee9878cb0efd062ab46da97eeb80a1a49d00733deba97fba64736f6c63430008150033",
  "chainId": 2022,
  "contractAbsolutePath": "SlashIndicator.sol",
  "deployer": "0x968D0Cd7343f711216817E617d3f92a23dC91c07",
  "devdoc": {
    "version": 1,
    "kind": "dev",
    "methods": {
      "bailOut(address)": {
        "details": "A slashed validator use this method to get out of jail. Requirements: - The `_consensusAddr` must be a validator. - Only validator's admin can call this method. Emits the event `BailedOut`."
      },
      "checkBailedOutAtPeriod(address,uint256)": {
        "details": "Returns the whether the `_validator` has been bailed out at the `_period`."
      },
      "currentUnavailabilityIndicator(address)": {
        "details": "Returns the current unavailability indicator of a block producer."
      },
      "execResetCreditScores(address[])": {
        "details": "Resets the credit score for the revoked validators. Requirements: - Only validator contract can call this method. - This method is only called at the end of each period. Emits the event `CreditScoresUpdated`."
      },
      "execSlashBridgeOperator(address,uint256,uint256)": {
        "details": "Acknowledges bridge operator slash and emit `Slashed` event correspondingly.",
        "params": {
          "_tier": "The tier of the slash, in value of {1, 2}, corresponding to `SlashType.BRIDGE_OPERATOR_MISSING_VOTE_TIER_1` and `SlashType.BRIDGE_OPERATOR_MISSING_VOTE_TIER_2` Requirements: - Only validator contract can invoke this method. - Should be called only at the end of period. - Should be called only when there is slash of bridge operator. Emits the event `Slashed`."
        }
      },
      "getBridgeOperatorSlashingConfigs()": {
        "details": "Returns the configs related to bridge operator slashing.",
        "returns": {
          "jailDurationForMissingVotesRatioTier2_": "The number of blocks to jail the corresponding block producer when its bridge operator is slashed tier-2.",
          "missingVotesRatioTier1_": "The bridge reward will be deprecated if (s)he missed more than this ratio.",
          "missingVotesRatioTier2_": "The bridge reward and mining reward will be deprecated and the corresponding block producer will be put in jail if (s)he misses more than this ratio.",
          "skipBridgeOperatorSlashingThreshold_": "The threshold to skip slashing the bridge operator in case the total number of votes in the bridge is too small."
        }
      },
      "getBridgeVotingSlashingConfigs()": {
        "details": "Returns the configs related to bridge voting slashing.",
        "returns": {
          "bridgeVotingSlashAmount_": "The amount of RON to slash bridge voting.",
          "bridgeVotingThreshold_": "The threshold to slash when a trusted organization does not vote for bridge operators."
        }
      },
      "getContract(uint8)": {
        "details": "Returns the address of a contract with a specific role. Throws an error if no contract is set for the specified role.",
        "params": {
          "contractType": "The role of the contract to retrieve."
        },
        "returns": {
          "contract_": "The address of the contract with the specified role."
        }
      },
      "getCreditScore(address)": {
        "details": "Returns the current credit score of the validator."
      },
      "getCreditScoreConfigs()": {
        "details": "Returns the configs related to credit score.",
        "returns": {
          "bailOutCostMultiplier_": "The number that will be multiplied with the remaining jailed time to get the cost of bailing out.",
          "cutOffPercentageAfterBailout_": "The percentage of reward that the block producer will be cut off from until the end of the period after bailing out.",
          "gainCreditScore_": "The score to gain per period.",
          "maxCreditScore_": "The max number of credit score that a validator can hold."
        }
      },
      "getDoubleSignSlashingConfigs()": {
        "details": "Returns the configs related to block producer slashing.",
        "params": {
          "_doubleSigningOffsetLimitBlock": "The number of block that the current block is at most far from the double signing block."
        },
        "returns": {
          "doubleSigningJailUntilBlock_": "The block number that the punished validator will be jailed until, due to double signing.",
          "slashDoubleSignAmount_": "The amount of RON to slash double sign."
        }
      },
      "getFastFinalitySlashingConfigs()": {
        "details": "Returns the configs related to block producer slashing.",
        "returns": {
          "fastFinalityJailUntilBlock_": "The block number that the punished validator will be jailed until, due to malicious fast finality.",
          "slashFastFinalityAmount_": "The amount of RON to slash fast finality."
        }
      },
      "getManyCreditScores(address[])": {
        "details": "Returns the current credit score of a list of validators."
      },
      "getUnavailabilityIndicator(address,uint256)": {
        "details": "Helper for CreditScore contract to query indicator of the validator."
      },
      "getUnavailabilitySlashingConfigs()": {
        "details": "Returns the configs related to block producer slashing.",
        "returns": {
          "jailDurationForUnavailabilityTier2Threshold_": "The number of blocks to jail a block producer when (s)he is slashed with tier-2 or tier-3.",
          "slashAmountForUnavailabilityTier2Threshold_": "The amount of RON to deduct from self-staking of a block producer when (s)he is slashed with tier-2 or tier-3.",
          "unavailabilityTier1Threshold_": "The mining reward will be deprecated, if (s)he missed more than this threshold. This threshold is applied for tier-1 and tier-3 slash.",
          "unavailabilityTier2Threshold_": " The mining reward will be deprecated, (s)he will be put in jailed, and will be deducted self-staking if (s)he misses more than this threshold. This threshold is applied for tier-2 slash."
        }
      },
      "initialize(address,address,address,address,uint256[4],uint256[2],uint256[3],uint256[4],uint256[4])": {
        "details": "Initializes the contract storage."
      },
      "precompileValidateDoubleSignAddress()": {
        "details": "Gets the address of the precompile of validating double sign evidence"
      },
      "precompileValidateFastFinalityAddress()": {
        "details": "Gets the address of the precompile of validating double sign evidence"
      },
      "setBridgeOperatorSlashingConfigs(uint256,uint256,uint256,uint256)": {
        "details": "Sets the configs to slash bridge operators. Requirements: - The method caller is admin. Emits the event `BridgeOperatorSlashingConfigsUpdated`.",
        "params": {
          "_jailDurationTier2": "The number of blocks to jail the corresponding block producer when its bridge operator is slashed tier-2.",
          "_ratioTier1": "The bridge reward will be deprecated if (s)he missed more than this ratio. Values 0-10,000 map to 0%-100%.",
          "_ratioTier2": "The bridge reward and mining reward will be deprecated and the corresponding block producer will be put in jail if (s)he misses more than this ratio. Values 0-10,000 map to 0%-100%.",
          "_skipSlashingThreshold": "The threshold to skip slashing the bridge operator in case the total number of votes in the bridge is too small."
        }
      },
      "setBridgeVotingSlashingConfigs(uint256,uint256)": {
        "details": "Sets the configs to slash bridge voting. Requirements: - The method caller is admin. Emits the event `BridgeVotingSlashingConfigsUpdated`.",
        "params": {
          "_slashAmount": "The amount of RON to slash bridge voting.",
          "_threshold": "The threshold to slash when a trusted organization does not vote for bridge operators."
        }
      },
      "setContract(uint8,address)": {
        "details": "Sets the address of a contract with a specific role. Emits the event {ContractUpdated}.",
        "params": {
          "addr": "The address of the contract to set.",
          "contractType": "The role of the contract to set."
        }
      },
      "setCreditScoreConfigs(uint256,uint256,uint256,uint256)": {
        "details": "Sets the configs to credit score. Requirements: - The method caller is admin. Emits the event `CreditScoreConfigsUpdated`.",
        "params": {
          "_bailOutMultiplier": "The number that will be multiplied with the remaining jailed time to get the cost of bailing out.",
          "_cutOffPercentage": "The percentage of reward that the block producer will be cut off from until the end of the period after bailing out.",
          "_gainScore": "The score to gain per period.",
          "_maxScore": "The max number of credit score that a validator can hold."
        }
      },
      "setDoubleSignSlashingConfigs(uint256,uint256,uint256)": {
        "details": "Sets the configs to slash block producers. Requirements: - The method caller is admin. Emits the event `DoubleSignSlashingConfigsUpdated`.",
        "params": {
          "_doubleSigningOffsetLimitBlock": "The number of block that the current block is at most far from the double signing block.",
          "_jailUntilBlock": "The block number that the punished validator will be jailed until, due to double signing.",
          "_slashAmount": "The amount of RON to slash double sign."
        }
      },
      "setFastFinalitySlashingConfigs(uint256,uint256)": {
        "details": "Sets the configs to slash block producers. Requirements: - The method caller is admin. Emits the event `FastFinalitySlashingConfigsUpdated`.",
        "params": {
          "jailUntilBlock": "The block number that the punished validator will be jailed until, due to fast finality.",
          "slashAmount": "The amount of RON to slash fast finality."
        }
      },
      "setUnavailabilitySlashingConfigs(uint256,uint256,uint256,uint256)": {
        "details": "Sets the configs to slash block producers. Requirements: - The method caller is admin. Emits the event `BridgeOperatorSlashingConfigsUpdated`.",
        "params": {
          "_jailDurationForTier2Threshold": "The number of blocks to jail a block producer when (s)he is slashed tier-2.",
          "_slashAmountForTier2Threshold": "The amount of RON to deduct from self-staking of a block producer when (s)he is slashed tier-2.",
          "_tier1Threshold": "The mining reward will be deprecated, if (s)he missed more than this threshold.",
          "_tier2Threshold": "The mining reward will be deprecated, (s)he will be put in jailed, and will be deducted self-staking if (s)he misses more than this threshold."
        }
      },
      "slashBridgeVoting(address)": {
        "details": "Slashes for bridge voter governance. Emits the event `Slashed`."
      },
      "slashDoubleSign(address,bytes,bytes)": {
        "details": "Slashes for double signing. Requirements: - The method caller is coinbase. Emits the event `Slashed` if the double signing evidence of the two headers valid."
      },
      "slashFastFinality(address,bytes,uint256,bytes32[2],bytes[][2],bytes[2])": {
        "details": "Slashes for fast finality. Requirements: - Only whitelisted addresses are allowed to call. Emits the event `Slashed` if the fast finality evidence of the two headers valid."
      },
      "slashUnavailability(address)": {
        "details": "Slashes for unavailability by increasing the counter of block producer `_consensusAddr`. Requirements: - The method caller is coinbase. Emits the event `Slashed` when the threshold is reached."
      },
      "updateCreditScores(address[],uint256)": {
        "details": "Updates the credit score for the validators. Requirements: - Only validator contract can call this method. - This method is only called at the end of each period. Emits the event `CreditScoresUpdated`."
      }
    },
    "events": {
      "BailedOut(address,uint256,uint256)": {
        "details": "Emitted when a validator bailed out of jail."
      },
      "BridgeOperatorSlashingConfigsUpdated(uint256,uint256,uint256,uint256)": {
        "details": "Emitted when the configs to slash bridge operator is updated. See the method `getBridgeOperatorSlashingConfigs` for param details."
      },
      "BridgeVotingSlashingConfigsUpdated(uint256,uint256)": {
        "details": "Emitted when the configs to slash bridge voting is updated. See the method `getBridgeVotingSlashingConfigs` for param details."
      },
      "ContractUpdated(uint8,address)": {
        "details": "Emitted when a contract is updated."
      },
      "CreditScoreConfigsUpdated(uint256,uint256,uint256,uint256)": {
        "details": "Emitted when the configs to credit score is updated. See the method `setCreditScoreConfigs` for param details."
      },
      "CreditScoresUpdated(address[],uint256[])": {
        "details": "Emitted the credit score of validators is updated."
      },
      "DoubleSignSlashingConfigsUpdated(uint256,uint256,uint256)": {
        "details": "Emitted when the configs to slash double sign is updated. See the method `getDoubleSignSlashingConfigs` for param details."
      },
      "FastFinalitySlashingConfigsUpdated(uint256,uint256)": {
        "details": "Emitted when the configs to slash fast finality is updated. See the method `getFastFinalitySlashingConfigs` for param details."
      },
      "Initialized(uint8)": {
        "details": "Triggered when the contract has been initialized or reinitialized."
      },
      "Slashed(address,uint8,uint256)": {
        "details": "Emitted when the validator is slashed."
      },
      "UnavailabilitySlashingConfigsUpdated(uint256,uint256,uint256,uint256)": {
        "details": "Emitted when the configs to slash bridge operator is updated. See the method `getUnavailabilitySlashingConfigs` for param details."
      }
    },
    "errors": {
      "ErrCallPrecompiled()": [
        {
          "details": "Error of call to precompile fails."
        }
      ],
      "ErrCallerMustBeJailedInTheCurrentPeriod()": [
        {
          "details": "Error thrown when the caller must be jailed in the current period."
        }
      ],
      "ErrCannotSlashAValidatorTwiceOrSlashMoreThanOneValidatorInOneBlock()": [
        {
          "details": "Error thrown when attempting to slash a validator twice or slash more than one validator in one block."
        }
      ],
      "ErrContractTypeNotFound(uint8)": [
        {
          "details": "Error of invalid role."
        }
      ],
      "ErrEvidenceAlreadySubmitted()": [
        {
          "details": "Error thrown when evidence has already been submitted."
        }
      ],
      "ErrInsufficientCreditScoreToBailOut()": [
        {
          "details": "Error thrown when the caller's credit score is insufficient to bail out a situation."
        }
      ],
      "ErrInvalidArguments(bytes4)": [
        {
          "details": "Error indicating that arguments are invalid."
        }
      ],
      "ErrInvalidCreditScoreConfig()": [
        {
          "details": "Error thrown when an invalid credit score configuration is provided."
        }
      ],
      "ErrInvalidCutOffPercentageConfig()": [
        {
          "details": "Error thrown when an invalid cut-off percentage configuration is provided."
        }
      ],
      "ErrInvalidRatios()": [
        {
          "details": "Error thrown when invalid ratios are provided."
        }
      ],
      "ErrInvalidSlash()": [
        {
          "details": "Error thrown when an invalid slash is encountered."
        }
      ],
      "ErrInvalidThreshold(bytes4)": [
        {
          "details": "Error indicating that the provided threshold is invalid for a specific function signature.",
          "params": {
            "msgSig": "The function signature (bytes4) that the invalid threshold applies to."
          }
        }
      ],
      "ErrUnauthorized(bytes4,uint8)": [
        {
          "details": "Error indicating that the caller is unauthorized to perform a specific function.",
          "params": {
            "expectedRole": "The role required to perform the function.",
            "msgSig": "The function signature (bytes4) that the caller is unauthorized to perform."
          }
        }
      ],
      "ErrUnexpectedInternalCall(bytes4,uint8,address)": [
        {
          "details": "Error indicating that the caller is unauthorized to perform a specific function.",
          "params": {
            "actual": "The actual address that called to the function.",
            "expectedContractType": "The contract type required to perform the function.",
            "msgSig": "The function signature (bytes4)."
          }
        }
      ],
      "ErrValidatorHasBailedOutPreviously()": [
        {
          "details": "Error thrown when a validator has previously bailed out."
        }
      ],
      "ErrZeroCodeContract(address)": [
        {
          "details": "Error of set to non-contract."
        }
      ]
    }
  },
  "isFoundry": true,
  "nonce": 183835,
  "numDeployments": 2,
  "storageLayout": {
    "storage": [
      {
        "astId": 37112,
        "contract": "contracts/ronin/slash-indicator/SlashIndicator.sol:SlashIndicator",
        "label": "______deprecatedValidator",
        "offset": 0,
        "slot": "0",
        "type": "t_address"
      },
      {
        "astId": 28127,
        "contract": "contracts/ronin/slash-indicator/SlashIndicator.sol:SlashIndicator",
        "label": "_slashDoubleSignAmount",
        "offset": 0,
        "slot": "1",
        "type": "t_uint256"
      },
      {
        "astId": 28130,
        "contract": "contracts/ronin/slash-indicator/SlashIndicator.sol:SlashIndicator",
        "label": "_doubleSigningJailUntilBlock",
        "offset": 0,
        "slot": "2",
        "type": "t_uint256"
      },
      {
        "astId": 28133,
        "contract": "contracts/ronin/slash-indicator/SlashIndicator.sol:SlashIndicator",
        "label": "_doubleSigningOffsetLimitBlock",
        "offset": 0,
        "slot": "3",
        "type": "t_uint256"
      },
      {
        "astId": 28138,
        "contract": "contracts/ronin/slash-indicator/SlashIndicator.sol:SlashIndicator",
        "label": "_submittedEvidence",
        "offset": 0,
        "slot": "4",
        "type": "t_mapping(t_bytes32,t_bool)"
      },
      {
        "astId": 28143,
        "contract": "contracts/ronin/slash-indicator/SlashIndicator.sol:SlashIndicator",
        "label": "______gap",
        "offset": 0,
        "slot": "5",
        "type": "t_array(t_uint256)24_storage"
      },
      {
        "astId": 28328,
        "contract": "contracts/ronin/slash-indicator/SlashIndicator.sol:SlashIndicator",
        "label": "_slashFastFinalityAmount",
        "offset": 0,
        "slot": "29",
        "type": "t_uint256"
      },
      {
        "astId": 28331,
        "contract": "contracts/ronin/slash-indicator/SlashIndicator.sol:SlashIndicator",
        "label": "_fastFinalityJailUntilBlock",
        "offset": 0,
        "slot": "30",
        "type": "t_uint256"
      },
      {
        "astId": 28336,
        "contract": "contracts/ronin/slash-indicator/SlashIndicator.sol:SlashIndicator",
        "label": "_processedEvidence",
        "offset": 0,
        "slot": "31",
        "type": "t_mapping(t_bytes32,t_bool)"
      },
      {
        "astId": 28341,
        "contract": "contracts/ronin/slash-indicator/SlashIndicator.sol:SlashIndicator",
        "label": "______gap",
        "offset": 0,
        "slot": "32",
        "type": "t_array(t_uint256)21_storage"
      },
      {
        "astId": 37124,
        "contract": "contracts/ronin/slash-indicator/SlashIndicator.sol:SlashIndicator",
        "label": "______deprecatedTrustedOrg",
        "offset": 0,
        "slot": "53",
        "type": "t_address"
      },
      {
        "astId": 37128,
        "contract": "contracts/ronin/slash-indicator/SlashIndicator.sol:SlashIndicator",
        "label": "______deprecatedGovernanceAdmin",
        "offset": 0,
        "slot": "54",
        "type": "t_address"
      },
      {
        "astId": 27945,
        "contract": "contracts/ronin/slash-indicator/SlashIndicator.sol:SlashIndicator",
        "label": "_bridgeVotingSlashed",
        "offset": 0,
        "slot": "55",
        "type": "t_mapping(t_address,t_mapping(t_uint256,t_bool))"
      },
      {
        "astId": 27948,
        "contract": "contracts/ronin/slash-indicator/SlashIndicator.sol:SlashIndicator",
        "label": "_bridgeVotingThreshold",
        "offset": 0,
        "slot": "56",
        "type": "t_uint256"
      },
      {
        "astId": 27951,
        "contract": "contracts/ronin/slash-indicator/SlashIndicator.sol:SlashIndicator",
        "label": "_bridgeVotingSlashAmount",
        "offset": 0,
        "slot": "57",
        "type": "t_uint256"
      },
      {
        "astId": 27956,
        "contract": "contracts/ronin/slash-indicator/SlashIndicator.sol:SlashIndicator",
        "label": "______gap",
        "offset": 0,
        "slot": "58",
        "type": "t_array(t_uint256)50_storage"
      },
      {
        "astId": 37120,
        "contract": "contracts/ronin/slash-indicator/SlashIndicator.sol:SlashIndicator",
        "label": "______deprecatedMaintenance",
        "offset": 0,
        "slot": "108",
        "type": "t_address"
      },
      {
        "astId": 27766,
        "contract": "contracts/ronin/slash-indicator/SlashIndicator.sol:SlashIndicator",
        "label": "_missingVotesRatioTier1",
        "offset": 0,
        "slot": "109",
        "type": "t_uint256"
      },
      {
        "astId": 27769,
        "contract": "contracts/ronin/slash-indicator/SlashIndicator.sol:SlashIndicator",
        "label": "_missingVotesRatioTier2",
        "offset": 0,
        "slot": "110",
        "type": "t_uint256"
      },
      {
        "astId": 27772,
        "contract": "contracts/ronin/slash-indicator/SlashIndicator.sol:SlashIndicator",
        "label": "_jailDurationForMissingVotesRatioTier2",
        "offset": 0,
        "slot": "111",
        "type": "t_uint256"
      },
      {
        "astId": 27775,
        "contract": "contracts/ronin/slash-indicator/SlashIndicator.sol:SlashIndicator",
        "label": "_skipBridgeOperatorSlashingThreshold",
        "offset": 0,
        "slot": "112",
        "type": "t_uint256"
      },
      {
        "astId": 27780,
        "contract": "contracts/ronin/slash-indicator/SlashIndicator.sol:SlashIndicator",
        "label": "______gap",
        "offset": 0,
        "slot": "113",
        "type": "t_array(t_uint256)50_storage"
      },
      {
        "astId": 28905,
        "contract": "contracts/ronin/slash-indicator/SlashIndicator.sol:SlashIndicator",
        "label": "lastUnavailabilitySlashedBlock",
        "offset": 0,
        "slot": "163",
        "type": "t_uint256"
      },
      {
        "astId": 28912,
        "contract": "contracts/ronin/slash-indicator/SlashIndicator.sol:SlashIndicator",
        "label": "_unavailabilityIndicator",
        "offset": 0,
        "slot": "164",
        "type": "t_mapping(t_address,t_mapping(t_uint256,t_uint256))"
      },
      {
        "astId": 28915,
        "contract": "contracts/ronin/slash-indicator/SlashIndicator.sol:SlashIndicator",
        "label": "_unavailabilityTier1Threshold",
        "offset": 0,
        "slot": "165",
        "type": "t_uint256"
      },
      {
        "astId": 28918,
        "contract": "contracts/ronin/slash-indicator/SlashIndicator.sol:SlashIndicator",
        "label": "_unavailabilityTier2Threshold",
        "offset": 0,
        "slot": "166",
        "type": "t_uint256"
      },
      {
        "astId": 28921,
        "contract": "contracts/ronin/slash-indicator/SlashIndicator.sol:SlashIndicator",
        "label": "_slashAmountForUnavailabilityTier2Threshold",
        "offset": 0,
        "slot": "167",
        "type": "t_uint256"
      },
      {
        "astId": 28924,
        "contract": "contracts/ronin/slash-indicator/SlashIndicator.sol:SlashIndicator",
        "label": "_jailDurationForUnavailabilityTier2Threshold",
        "offset": 0,
        "slot": "168",
        "type": "t_uint256"
      },
      {
        "astId": 28929,
        "contract": "contracts/ronin/slash-indicator/SlashIndicator.sol:SlashIndicator",
        "label": "______gap",
        "offset": 0,
        "slot": "169",
        "type": "t_array(t_uint256)50_storage"
      },
      {
        "astId": 27197,
        "contract": "contracts/ronin/slash-indicator/SlashIndicator.sol:SlashIndicator",
        "label": "_checkBailedOutAtPeriod",
        "offset": 0,
        "slot": "219",
        "type": "t_mapping(t_address,t_mapping(t_uint256,t_bool))"
      },
      {
        "astId": 27202,
        "contract": "contracts/ronin/slash-indicator/SlashIndicator.sol:SlashIndicator",
        "label": "_creditScore",
        "offset": 0,
        "slot": "220",
        "type": "t_mapping(t_address,t_uint256)"
      },
      {
        "astId": 27205,
        "contract": "contracts/ronin/slash-indicator/SlashIndicator.sol:SlashIndicator",
        "label": "_gainCreditScore",
        "offset": 0,
        "slot": "221",
        "type": "t_uint256"
      },
      {
        "astId": 27208,
        "contract": "contracts/ronin/slash-indicator/SlashIndicator.sol:SlashIndicator",
        "label": "_maxCreditScore",
        "offset": 0,
        "slot": "222",
        "type": "t_uint256"
      },
      {
        "astId": 27211,
        "contract": "contracts/ronin/slash-indicator/SlashIndicator.sol:SlashIndicator",
        "label": "_bailOutCostMultiplier",
        "offset": 0,
        "slot": "223",
        "type": "t_uint256"
      },
      {
        "astId": 27214,
        "contract": "contracts/ronin/slash-indicator/SlashIndicator.sol:SlashIndicator",
        "label": "_cutOffPercentageAfterBailout",
        "offset": 0,
        "slot": "224",
        "type": "t_uint256"
      },
      {
        "astId": 27219,
        "contract": "contracts/ronin/slash-indicator/SlashIndicator.sol:SlashIndicator",
        "label": "______gap",
        "offset": 0,
        "slot": "225",
        "type": "t_array(t_uint256)50_storage"
      },
      {
        "astId": 144650,
        "contract": "contracts/ronin/slash-indicator/SlashIndicator.sol:SlashIndicator",
        "label": "_initialized",
        "offset": 0,
        "slot": "275",
        "type": "t_uint8"
      },
      {
        "astId": 144653,
        "contract": "contracts/ronin/slash-indicator/SlashIndicator.sol:SlashIndicator",
        "label": "_initializing",
        "offset": 1,
        "slot": "275",
        "type": "t_bool"
      }
    ],
    "types": {
      "t_address": {
        "encoding": "inplace",
        "label": "address",
        "numberOfBytes": "20"
      },
      "t_array(t_uint256)21_storage": {
        "encoding": "inplace",
        "label": "uint256[21]",
        "numberOfBytes": "672",
        "base": "t_uint256"
      },
      "t_array(t_uint256)24_storage": {
        "encoding": "inplace",
        "label": "uint256[24]",
        "numberOfBytes": "768",
        "base": "t_uint256"
      },
      "t_array(t_uint256)50_storage": {
        "encoding": "inplace",
        "label": "uint256[50]",
        "numberOfBytes": "1600",
        "base": "t_uint256"
      },
      "t_bool": {
        "encoding": "inplace",
        "label": "bool",
        "numberOfBytes": "1"
      },
      "t_bytes32": {
        "encoding": "inplace",
        "label": "bytes32",
        "numberOfBytes": "32"
      },
      "t_mapping(t_address,t_mapping(t_uint256,t_bool))": {
        "encoding": "mapping",
        "key": "t_address",
        "label": "mapping(address => mapping(uint256 => bool))",
        "numberOfBytes": "32",
        "value": "t_mapping(t_uint256,t_bool)"
      },
      "t_mapping(t_address,t_mapping(t_uint256,t_uint256))": {
        "encoding": "mapping",
        "key": "t_address",
        "label": "mapping(address => mapping(uint256 => uint256))",
        "numberOfBytes": "32",
        "value": "t_mapping(t_uint256,t_uint256)"
      },
      "t_mapping(t_address,t_uint256)": {
        "encoding": "mapping",
        "key": "t_address",
        "label": "mapping(address => uint256)",
        "numberOfBytes": "32",
        "value": "t_uint256"
      },
      "t_mapping(t_bytes32,t_bool)": {
        "encoding": "mapping",
        "key": "t_bytes32",
        "label": "mapping(bytes32 => bool)",
        "numberOfBytes": "32",
        "value": "t_bool"
      },
      "t_mapping(t_uint256,t_bool)": {
        "encoding": "mapping",
        "key": "t_uint256",
        "label": "mapping(uint256 => bool)",
        "numberOfBytes": "32",
        "value": "t_bool"
      },
      "t_mapping(t_uint256,t_uint256)": {
        "encoding": "mapping",
        "key": "t_uint256",
        "label": "mapping(uint256 => uint256)",
        "numberOfBytes": "32",
        "value": "t_uint256"
      },
      "t_uint256": {
        "encoding": "inplace",
        "label": "uint256",
        "numberOfBytes": "32"
      },
      "t_uint8": {
        "encoding": "inplace",
        "label": "uint8",
        "numberOfBytes": "1"
      }
    }
  },
  "timestamp": 1701579792,
  "userdoc": {
    "version": 1,
    "kind": "user"
  }
}