{
  "abi": [
    {
      "type": "constructor",
      "inputs": [],
      "stateMutability": "nonpayable"
    },
    {
      "type": "fallback",
      "stateMutability": "payable"
    },
    {
      "type": "receive",
      "stateMutability": "payable"
    },
    {
      "type": "function",
      "name": "DEFAULT_ADDITION_GAS",
      "inputs": [],
      "outputs": [
        {
          "name": "",
          "type": "uint256",
          "internalType": "uint256"
        }
      ],
      "stateMutability": "view"
    },
    {
      "type": "function",
      "name": "PERIOD_DURATION",
      "inputs": [],
      "outputs": [
        {
          "name": "",
          "type": "uint256",
          "internalType": "uint256"
        }
      ],
      "stateMutability": "view"
    },
    {
      "type": "function",
      "name": "applyValidatorCandidate",
      "inputs": [
        {
          "name": "_candidateAdmin",
          "type": "address",
          "internalType": "address"
        },
        {
          "name": "_consensusAddr",
          "type": "address",
          "internalType": "address"
        },
        {
          "name": "_treasuryAddr",
          "type": "address",
          "internalType": "address payable"
        },
        {
          "name": "_commissionRate",
          "type": "uint256",
          "internalType": "uint256"
        }
      ],
      "outputs": [],
      "stateMutability": "payable"
    },
    {
      "type": "function",
      "name": "bulkUndelegate",
      "inputs": [
        {
          "name": "_consensusAddrs",
          "type": "address[]",
          "internalType": "address[]"
        },
        {
          "name": "_amounts",
          "type": "uint256[]",
          "internalType": "uint256[]"
        }
      ],
      "outputs": [],
      "stateMutability": "nonpayable"
    },
    {
      "type": "function",
      "name": "claimRewards",
      "inputs": [
        {
          "name": "_consensusAddrList",
          "type": "address[]",
          "internalType": "address[]"
        }
      ],
      "outputs": [
        {
          "name": "_amount",
          "type": "uint256",
          "internalType": "uint256"
        }
      ],
      "stateMutability": "nonpayable"
    },
    {
      "type": "function",
      "name": "cooldownSecsToUndelegate",
      "inputs": [],
      "outputs": [
        {
          "name": "",
          "type": "uint256",
          "internalType": "uint256"
        }
      ],
      "stateMutability": "view"
    },
    {
      "type": "function",
      "name": "delegate",
      "inputs": [
        {
          "name": "_consensusAddr",
          "type": "address",
          "internalType": "address"
        }
      ],
      "outputs": [],
      "stateMutability": "payable"
    },
    {
      "type": "function",
      "name": "delegateRewards",
      "inputs": [
        {
          "name": "_consensusAddrList",
          "type": "address[]",
          "internalType": "address[]"
        },
        {
          "name": "_consensusAddrDst",
          "type": "address",
          "internalType": "address"
        }
      ],
      "outputs": [
        {
          "name": "_amount",
          "type": "uint256",
          "internalType": "uint256"
        }
      ],
      "stateMutability": "nonpayable"
    },
    {
      "type": "function",
      "name": "execDeductStakingAmount",
      "inputs": [
        {
          "name": "_consensusAddr",
          "type": "address",
          "internalType": "address"
        },
        {
          "name": "_amount",
          "type": "uint256",
          "internalType": "uint256"
        }
      ],
      "outputs": [
        {
          "name": "_actualDeductingAmount",
          "type": "uint256",
          "internalType": "uint256"
        }
      ],
      "stateMutability": "nonpayable"
    },
    {
      "type": "function",
      "name": "execDeprecatePools",
      "inputs": [
        {
          "name": "_pools",
          "type": "address[]",
          "internalType": "address[]"
        },
        {
          "name": "_newPeriod",
          "type": "uint256",
          "internalType": "uint256"
        }
      ],
      "outputs": [],
      "stateMutability": "nonpayable"
    },
    {
      "type": "function",
      "name": "execRecordRewards",
      "inputs": [
        {
          "name": "_consensusAddrs",
          "type": "address[]",
          "internalType": "address[]"
        },
        {
          "name": "_rewards",
          "type": "uint256[]",
          "internalType": "uint256[]"
        },
        {
          "name": "_period",
          "type": "uint256",
          "internalType": "uint256"
        }
      ],
      "outputs": [],
      "stateMutability": "payable"
    },
    {
      "type": "function",
      "name": "getCommissionRateRange",
      "inputs": [],
      "outputs": [
        {
          "name": "",
          "type": "uint256",
          "internalType": "uint256"
        },
        {
          "name": "",
          "type": "uint256",
          "internalType": "uint256"
        }
      ],
      "stateMutability": "view"
    },
    {
      "type": "function",
      "name": "getContract",
      "inputs": [
        {
          "name": "contractType",
          "type": "uint8",
          "internalType": "enum ContractType"
        }
      ],
      "outputs": [
        {
          "name": "contract_",
          "type": "address",
          "internalType": "address"
        }
      ],
      "stateMutability": "view"
    },
    {
      "type": "function",
      "name": "getManySelfStakings",
      "inputs": [
        {
          "name": "_pools",
          "type": "address[]",
          "internalType": "address[]"
        }
      ],
      "outputs": [
        {
          "name": "_selfStakings",
          "type": "uint256[]",
          "internalType": "uint256[]"
        }
      ],
      "stateMutability": "view"
    },
    {
      "type": "function",
      "name": "getManyStakingAmounts",
      "inputs": [
        {
          "name": "_poolAddrs",
          "type": "address[]",
          "internalType": "address[]"
        },
        {
          "name": "_userList",
          "type": "address[]",
          "internalType": "address[]"
        }
      ],
      "outputs": [
        {
          "name": "_stakingAmounts",
          "type": "uint256[]",
          "internalType": "uint256[]"
        }
      ],
      "stateMutability": "view"
    },
    {
      "type": "function",
      "name": "getManyStakingTotals",
      "inputs": [
        {
          "name": "_poolList",
          "type": "address[]",
          "internalType": "address[]"
        }
      ],
      "outputs": [
        {
          "name": "_stakingAmounts",
          "type": "uint256[]",
          "internalType": "uint256[]"
        }
      ],
      "stateMutability": "view"
    },
    {
      "type": "function",
      "name": "getPoolAddressOf",
      "inputs": [
        {
          "name": "_poolAdminAddr",
          "type": "address",
          "internalType": "address"
        }
      ],
      "outputs": [
        {
          "name": "",
          "type": "address",
          "internalType": "address"
        }
      ],
      "stateMutability": "view"
    },
    {
      "type": "function",
      "name": "getPoolDetail",
      "inputs": [
        {
          "name": "_poolAddr",
          "type": "address",
          "internalType": "address"
        }
      ],
      "outputs": [
        {
          "name": "_admin",
          "type": "address",
          "internalType": "address"
        },
        {
          "name": "_stakingAmount",
          "type": "uint256",
          "internalType": "uint256"
        },
        {
          "name": "_stakingTotal",
          "type": "uint256",
          "internalType": "uint256"
        }
      ],
      "stateMutability": "view"
    },
    {
      "type": "function",
      "name": "getReward",
      "inputs": [
        {
          "name": "_poolAddr",
          "type": "address",
          "internalType": "address"
        },
        {
          "name": "_user",
          "type": "address",
          "internalType": "address"
        }
      ],
      "outputs": [
        {
          "name": "",
          "type": "uint256",
          "internalType": "uint256"
        }
      ],
      "stateMutability": "view"
    },
    {
      "type": "function",
      "name": "getRewards",
      "inputs": [
        {
          "name": "_user",
          "type": "address",
          "internalType": "address"
        },
        {
          "name": "_poolAddrList",
          "type": "address[]",
          "internalType": "address[]"
        }
      ],
      "outputs": [
        {
          "name": "_rewards",
          "type": "uint256[]",
          "internalType": "uint256[]"
        }
      ],
      "stateMutability": "view"
    },
    {
      "type": "function",
      "name": "getStakingAmount",
      "inputs": [
        {
          "name": "_poolAddr",
          "type": "address",
          "internalType": "address"
        },
        {
          "name": "_user",
          "type": "address",
          "internalType": "address"
        }
      ],
      "outputs": [
        {
          "name": "",
          "type": "uint256",
          "internalType": "uint256"
        }
      ],
      "stateMutability": "view"
    },
    {
      "type": "function",
      "name": "getStakingTotal",
      "inputs": [
        {
          "name": "_poolAddr",
          "type": "address",
          "internalType": "address"
        }
      ],
      "outputs": [
        {
          "name": "",
          "type": "uint256",
          "internalType": "uint256"
        }
      ],
      "stateMutability": "view"
    },
    {
      "type": "function",
      "name": "initialize",
      "inputs": [
        {
          "name": "__validatorContract",
          "type": "address",
          "internalType": "address"
        },
        {
          "name": "__minValidatorStakingAmount",
          "type": "uint256",
          "internalType": "uint256"
        },
        {
          "name": "__maxCommissionRate",
          "type": "uint256",
          "internalType": "uint256"
        },
        {
          "name": "__cooldownSecsToUndelegate",
          "type": "uint256",
          "internalType": "uint256"
        },
        {
          "name": "__waitingSecsToRevoke",
          "type": "uint256",
          "internalType": "uint256"
        }
      ],
      "outputs": [],
      "stateMutability": "nonpayable"
    },
    {
      "type": "function",
      "name": "initializeV2",
      "inputs": [],
      "outputs": [],
      "stateMutability": "nonpayable"
    },
    {
      "type": "function",
      "name": "isAdminOfActivePool",
      "inputs": [
        {
          "name": "_poolAdminAddr",
          "type": "address",
          "internalType": "address"
        }
      ],
      "outputs": [
        {
          "name": "",
          "type": "bool",
          "internalType": "bool"
        }
      ],
      "stateMutability": "view"
    },
    {
      "type": "function",
      "name": "minValidatorStakingAmount",
      "inputs": [],
      "outputs": [
        {
          "name": "",
          "type": "uint256",
          "internalType": "uint256"
        }
      ],
      "stateMutability": "view"
    },
    {
      "type": "function",
      "name": "redelegate",
      "inputs": [
        {
          "name": "_consensusAddrSrc",
          "type": "address",
          "internalType": "address"
        },
        {
          "name": "_consensusAddrDst",
          "type": "address",
          "internalType": "address"
        },
        {
          "name": "_amount",
          "type": "uint256",
          "internalType": "uint256"
        }
      ],
      "outputs": [],
      "stateMutability": "nonpayable"
    },
    {
      "type": "function",
      "name": "requestEmergencyExit",
      "inputs": [
        {
          "name": "_consensusAddr",
          "type": "address",
          "internalType": "address"
        }
      ],
      "outputs": [],
      "stateMutability": "nonpayable"
    },
    {
      "type": "function",
      "name": "requestRenounce",
      "inputs": [
        {
          "name": "_consensusAddr",
          "type": "address",
          "internalType": "address"
        }
      ],
      "outputs": [],
      "stateMutability": "nonpayable"
    },
    {
      "type": "function",
      "name": "requestUpdateCommissionRate",
      "inputs": [
        {
          "name": "_consensusAddr",
          "type": "address",
          "internalType": "address"
        },
        {
          "name": "_effectiveDaysOnwards",
          "type": "uint256",
          "internalType": "uint256"
        },
        {
          "name": "_commissionRate",
          "type": "uint256",
          "internalType": "uint256"
        }
      ],
      "outputs": [],
      "stateMutability": "nonpayable"
    },
    {
      "type": "function",
      "name": "setCommissionRateRange",
      "inputs": [
        {
          "name": "_minRate",
          "type": "uint256",
          "internalType": "uint256"
        },
        {
          "name": "_maxRate",
          "type": "uint256",
          "internalType": "uint256"
        }
      ],
      "outputs": [],
      "stateMutability": "nonpayable"
    },
    {
      "type": "function",
      "name": "setContract",
      "inputs": [
        {
          "name": "contractType",
          "type": "uint8",
          "internalType": "enum ContractType"
        },
        {
          "name": "addr",
          "type": "address",
          "internalType": "address"
        }
      ],
      "outputs": [],
      "stateMutability": "nonpayable"
    },
    {
      "type": "function",
      "name": "setCooldownSecsToUndelegate",
      "inputs": [
        {
          "name": "_cooldownSecs",
          "type": "uint256",
          "internalType": "uint256"
        }
      ],
      "outputs": [],
      "stateMutability": "nonpayable"
    },
    {
      "type": "function",
      "name": "setMinValidatorStakingAmount",
      "inputs": [
        {
          "name": "_threshold",
          "type": "uint256",
          "internalType": "uint256"
        }
      ],
      "outputs": [],
      "stateMutability": "nonpayable"
    },
    {
      "type": "function",
      "name": "setWaitingSecsToRevoke",
      "inputs": [
        {
          "name": "_secs",
          "type": "uint256",
          "internalType": "uint256"
        }
      ],
      "outputs": [],
      "stateMutability": "nonpayable"
    },
    {
      "type": "function",
      "name": "stake",
      "inputs": [
        {
          "name": "_consensusAddr",
          "type": "address",
          "internalType": "address"
        }
      ],
      "outputs": [],
      "stateMutability": "payable"
    },
    {
      "type": "function",
      "name": "tmp_re_applyValidatorCandidate",
      "inputs": [
        {
          "name": "_candidateAdmin",
          "type": "address",
          "internalType": "address"
        },
        {
          "name": "_consensusAddr",
          "type": "address",
          "internalType": "address"
        },
        {
          "name": "_treasuryAddr",
          "type": "address",
          "internalType": "address payable"
        },
        {
          "name": "_commissionRate",
          "type": "uint256",
          "internalType": "uint256"
        }
      ],
      "outputs": [],
      "stateMutability": "nonpayable"
    },
    {
      "type": "function",
      "name": "undelegate",
      "inputs": [
        {
          "name": "_consensusAddr",
          "type": "address",
          "internalType": "address"
        },
        {
          "name": "_amount",
          "type": "uint256",
          "internalType": "uint256"
        }
      ],
      "outputs": [],
      "stateMutability": "nonpayable"
    },
    {
      "type": "function",
      "name": "unstake",
      "inputs": [
        {
          "name": "_consensusAddr",
          "type": "address",
          "internalType": "address"
        },
        {
          "name": "_amount",
          "type": "uint256",
          "internalType": "uint256"
        }
      ],
      "outputs": [],
      "stateMutability": "nonpayable"
    },
    {
      "type": "function",
      "name": "waitingSecsToRevoke",
      "inputs": [],
      "outputs": [
        {
          "name": "",
          "type": "uint256",
          "internalType": "uint256"
        }
      ],
      "stateMutability": "view"
    },
    {
      "type": "event",
      "name": "CommissionRateRangeUpdated",
      "inputs": [
        {
          "name": "minRate",
          "type": "uint256",
          "indexed": false,
          "internalType": "uint256"
        },
        {
          "name": "maxRate",
          "type": "uint256",
          "indexed": false,
          "internalType": "uint256"
        }
      ],
      "anonymous": false
    },
    {
      "type": "event",
      "name": "ContractUpdated",
      "inputs": [
        {
          "name": "contractType",
          "type": "uint8",
          "indexed": true,
          "internalType": "enum ContractType"
        },
        {
          "name": "addr",
          "type": "address",
          "indexed": true,
          "internalType": "address"
        }
      ],
      "anonymous": false
    },
    {
      "type": "event",
      "name": "CooldownSecsToUndelegateUpdated",
      "inputs": [
        {
          "name": "minSecs",
          "type": "uint256",
          "indexed": false,
          "internalType": "uint256"
        }
      ],
      "anonymous": false
    },
    {
      "type": "event",
      "name": "Delegated",
      "inputs": [
        {
          "name": "delegator",
          "type": "address",
          "indexed": true,
          "internalType": "address"
        },
        {
          "name": "consensuAddr",
          "type": "address",
          "indexed": true,
          "internalType": "address"
        },
        {
          "name": "amount",
          "type": "uint256",
          "indexed": false,
          "internalType": "uint256"
        }
      ],
      "anonymous": false
    },
    {
      "type": "event",
      "name": "Initialized",
      "inputs": [
        {
          "name": "version",
          "type": "uint8",
          "indexed": false,
          "internalType": "uint8"
        }
      ],
      "anonymous": false
    },
    {
      "type": "event",
      "name": "MinValidatorStakingAmountUpdated",
      "inputs": [
        {
          "name": "threshold",
          "type": "uint256",
          "indexed": false,
          "internalType": "uint256"
        }
      ],
      "anonymous": false
    },
    {
      "type": "event",
      "name": "PoolApproved",
      "inputs": [
        {
          "name": "validator",
          "type": "address",
          "indexed": true,
          "internalType": "address"
        },
        {
          "name": "admin",
          "type": "address",
          "indexed": true,
          "internalType": "address"
        }
      ],
      "anonymous": false
    },
    {
      "type": "event",
      "name": "PoolSharesUpdated",
      "inputs": [
        {
          "name": "period",
          "type": "uint256",
          "indexed": true,
          "internalType": "uint256"
        },
        {
          "name": "poolAddr",
          "type": "address",
          "indexed": true,
          "internalType": "address"
        },
        {
          "name": "shares",
          "type": "uint256",
          "indexed": false,
          "internalType": "uint256"
        }
      ],
      "anonymous": false
    },
    {
      "type": "event",
      "name": "PoolsDeprecated",
      "inputs": [
        {
          "name": "validator",
          "type": "address[]",
          "indexed": false,
          "internalType": "address[]"
        }
      ],
      "anonymous": false
    },
    {
      "type": "event",
      "name": "PoolsUpdateConflicted",
      "inputs": [
        {
          "name": "period",
          "type": "uint256",
          "indexed": true,
          "internalType": "uint256"
        },
        {
          "name": "poolAddrs",
          "type": "address[]",
          "indexed": false,
          "internalType": "address[]"
        }
      ],
      "anonymous": false
    },
    {
      "type": "event",
      "name": "PoolsUpdateFailed",
      "inputs": [
        {
          "name": "period",
          "type": "uint256",
          "indexed": true,
          "internalType": "uint256"
        },
        {
          "name": "poolAddrs",
          "type": "address[]",
          "indexed": false,
          "internalType": "address[]"
        },
        {
          "name": "rewards",
          "type": "uint256[]",
          "indexed": false,
          "internalType": "uint256[]"
        }
      ],
      "anonymous": false
    },
    {
      "type": "event",
      "name": "PoolsUpdated",
      "inputs": [
        {
          "name": "period",
          "type": "uint256",
          "indexed": true,
          "internalType": "uint256"
        },
        {
          "name": "poolAddrs",
          "type": "address[]",
          "indexed": false,
          "internalType": "address[]"
        },
        {
          "name": "aRps",
          "type": "uint256[]",
          "indexed": false,
          "internalType": "uint256[]"
        },
        {
          "name": "shares",
          "type": "uint256[]",
          "indexed": false,
          "internalType": "uint256[]"
        }
      ],
      "anonymous": false
    },
    {
      "type": "event",
      "name": "RewardClaimed",
      "inputs": [
        {
          "name": "poolAddr",
          "type": "address",
          "indexed": true,
          "internalType": "address"
        },
        {
          "name": "user",
          "type": "address",
          "indexed": true,
          "internalType": "address"
        },
        {
          "name": "amount",
          "type": "uint256",
          "indexed": false,
          "internalType": "uint256"
        }
      ],
      "anonymous": false
    },
    {
      "type": "event",
      "name": "Staked",
      "inputs": [
        {
          "name": "consensuAddr",
          "type": "address",
          "indexed": true,
          "internalType": "address"
        },
        {
          "name": "amount",
          "type": "uint256",
          "indexed": false,
          "internalType": "uint256"
        }
      ],
      "anonymous": false
    },
    {
      "type": "event",
      "name": "StakingAmountDeductFailed",
      "inputs": [
        {
          "name": "validator",
          "type": "address",
          "indexed": true,
          "internalType": "address"
        },
        {
          "name": "recipient",
          "type": "address",
          "indexed": true,
          "internalType": "address"
        },
        {
          "name": "amount",
          "type": "uint256",
          "indexed": false,
          "internalType": "uint256"
        },
        {
          "name": "contractBalance",
          "type": "uint256",
          "indexed": false,
          "internalType": "uint256"
        }
      ],
      "anonymous": false
    },
    {
      "type": "event",
      "name": "StakingAmountTransferFailed",
      "inputs": [
        {
          "name": "validator",
          "type": "address",
          "indexed": true,
          "internalType": "address"
        },
        {
          "name": "admin",
          "type": "address",
          "indexed": true,
          "internalType": "address"
        },
        {
          "name": "amount",
          "type": "uint256",
          "indexed": false,
          "internalType": "uint256"
        },
        {
          "name": "contractBalance",
          "type": "uint256",
          "indexed": false,
          "internalType": "uint256"
        }
      ],
      "anonymous": false
    },
    {
      "type": "event",
      "name": "Undelegated",
      "inputs": [
        {
          "name": "delegator",
          "type": "address",
          "indexed": true,
          "internalType": "address"
        },
        {
          "name": "consensuAddr",
          "type": "address",
          "indexed": true,
          "internalType": "address"
        },
        {
          "name": "amount",
          "type": "uint256",
          "indexed": false,
          "internalType": "uint256"
        }
      ],
      "anonymous": false
    },
    {
      "type": "event",
      "name": "Unstaked",
      "inputs": [
        {
          "name": "consensuAddr",
          "type": "address",
          "indexed": true,
          "internalType": "address"
        },
        {
          "name": "amount",
          "type": "uint256",
          "indexed": false,
          "internalType": "uint256"
        }
      ],
      "anonymous": false
    },
    {
      "type": "event",
      "name": "UserRewardUpdated",
      "inputs": [
        {
          "name": "poolAddr",
          "type": "address",
          "indexed": true,
          "internalType": "address"
        },
        {
          "name": "user",
          "type": "address",
          "indexed": true,
          "internalType": "address"
        },
        {
          "name": "debited",
          "type": "uint256",
          "indexed": false,
          "internalType": "uint256"
        }
      ],
      "anonymous": false
    },
    {
      "type": "event",
      "name": "WaitingSecsToRevokeUpdated",
      "inputs": [
        {
          "name": "secs",
          "type": "uint256",
          "indexed": false,
          "internalType": "uint256"
        }
      ],
      "anonymous": false
    },
    {
      "type": "error",
      "name": "ErrAdminOfAnyActivePoolForbidden",
      "inputs": [
        {
          "name": "admin",
          "type": "address",
          "internalType": "address"
        }
      ]
    },
    {
      "type": "error",
      "name": "ErrCannotInitTransferRON",
      "inputs": [
        {
          "name": "addr",
          "type": "address",
          "internalType": "address"
        },
        {
          "name": "extraInfo",
          "type": "string",
          "internalType": "string"
        }
      ]
    },
    {
      "type": "error",
      "name": "ErrCannotTransferRON",
      "inputs": []
    },
    {
      "type": "error",
      "name": "ErrContractTypeNotFound",
      "inputs": [
        {
          "name": "contractType",
          "type": "uint8",
          "internalType": "enum ContractType"
        }
      ]
    },
    {
      "type": "error",
      "name": "ErrDuplicated",
      "inputs": [
        {
          "name": "msgSig",
          "type": "bytes4",
          "internalType": "bytes4"
        }
      ]
    },
    {
      "type": "error",
      "name": "ErrInactivePool",
      "inputs": [
        {
          "name": "poolAddr",
          "type": "address",
          "internalType": "address"
        }
      ]
    },
    {
      "type": "error",
      "name": "ErrInsufficientBalance",
      "inputs": [
        {
          "name": "msgSig",
          "type": "bytes4",
          "internalType": "bytes4"
        },
        {
          "name": "currentBalance",
          "type": "uint256",
          "internalType": "uint256"
        },
        {
          "name": "sendAmount",
          "type": "uint256",
          "internalType": "uint256"
        }
      ]
    },
    {
      "type": "error",
      "name": "ErrInsufficientDelegatingAmount",
      "inputs": []
    },
    {
      "type": "error",
      "name": "ErrInsufficientStakingAmount",
      "inputs": []
    },
    {
      "type": "error",
      "name": "ErrInvalidArrays",
      "inputs": []
    },
    {
      "type": "error",
      "name": "ErrInvalidCommissionRate",
      "inputs": []
    },
    {
      "type": "error",
      "name": "ErrInvalidPoolShare",
      "inputs": []
    },
    {
      "type": "error",
      "name": "ErrOnlyPoolAdminAllowed",
      "inputs": []
    },
    {
      "type": "error",
      "name": "ErrPoolAdminForbidden",
      "inputs": []
    },
    {
      "type": "error",
      "name": "ErrRecipientRevert",
      "inputs": [
        {
          "name": "msgSig",
          "type": "bytes4",
          "internalType": "bytes4"
        }
      ]
    },
    {
      "type": "error",
      "name": "ErrStakingAmountLeft",
      "inputs": []
    },
    {
      "type": "error",
      "name": "ErrThreeInteractionAddrsNotEqual",
      "inputs": []
    },
    {
      "type": "error",
      "name": "ErrUnauthorized",
      "inputs": [
        {
          "name": "msgSig",
          "type": "bytes4",
          "internalType": "bytes4"
        },
        {
          "name": "expectedRole",
          "type": "uint8",
          "internalType": "enum RoleAccess"
        }
      ]
    },
    {
      "type": "error",
      "name": "ErrUndelegateTooEarly",
      "inputs": []
    },
    {
      "type": "error",
      "name": "ErrUndelegateZeroAmount",
      "inputs": []
    },
    {
      "type": "error",
      "name": "ErrUnexpectedInternalCall",
      "inputs": [
        {
          "name": "msgSig",
          "type": "bytes4",
          "internalType": "bytes4"
        },
        {
          "name": "expectedContractType",
          "type": "uint8",
          "internalType": "enum ContractType"
        },
        {
          "name": "actual",
          "type": "address",
          "internalType": "address"
        }
      ]
    },
    {
      "type": "error",
      "name": "ErrUnstakeTooEarly",
      "inputs": []
    },
    {
      "type": "error",
      "name": "ErrUnstakeZeroAmount",
      "inputs": []
    },
    {
      "type": "error",
      "name": "ErrZeroCodeContract",
      "inputs": [
        {
          "name": "addr",
          "type": "address",
          "internalType": "address"
        }
      ]
    },
    {
      "type": "error",
      "name": "ErrZeroValue",
      "inputs": []
    }
  ],
  "address": "0xAC3F078349EcB80A92CEF7f919C3d6A9B30C0e14",
  "args": "0x",
  "blockNumber": 17360399,
  "bytecode": "0x60806040523480156200001157600080fd5b5060016000556200002162000027565b620000e9565b60d154610100900460ff1615620000945760405162461bcd60e51b815260206004820152602760248201527f496e697469616c697a61626c653a20636f6e747261637420697320696e697469604482015266616c697a696e6760c81b606482015260840160405180910390fd5b60d15460ff9081161015620000e75760d1805460ff191660ff9081179091556040519081527f7f26b83ff96e1f2b6a682f133852f6798a09c465da95921460cefb38474024989060200160405180910390a15b565b613f1a80620000f96000396000f3fe6080604052600436106102bf5760003560e01c80636bd8f8041161016e578063aa15a6fd116100cb578063d01b8eed1161007f578063e22d1c9d11610064578063e22d1c9d14610821578063f92ad21914610841578063f9f031df14610861576102d1565b8063d01b8eed14610790578063de981f1b14610801576102d1565b8063af245429116100b0578063af2454291461070a578063c2a672e01461071f578063c50870031461073f576102d1565b8063aa15a6fd146106d7578063acd79c46146106f7576102d1565b8063909791dd11610122578063924f081e11610107578063924f081e146106775780639488e4e914610697578063969ffc14146106b7576102d1565b8063909791dd1461064257806391f8723f14610657576102d1565b8063865e6fd311610153578063865e6fd3146105c9578063888b9ae9146105e9578063895ab74214610609576102d1565b80636bd8f8041461055f57806376664b651461057f576102d1565b806342e0c4081161021c5780635c19a95c116101d05780636558954f116101b55780636558954f14610508578063679a6e431461051f5780636b0916951461053f576102d1565b80635c19a95c146104e05780635cd8a76b146104f3576102d1565b80634530d202116102015780634530d202146104785780634d99dd16146104a057806357473447146104c0576102d1565b806342e0c4081461040d57806342ef3c3414610458576102d1565b80631658c86e116102735780632715805e116102585780632715805e146103ba5780632baae125146103da5780633d8e846e146103ed576102d1565b80631658c86e1461038757806326476204146103a7576102d1565b8063095f6475116102a4578063095f64751461031a578063097e4a9d146103475780630dccaf4614610367576102d1565b806303827884146102dc5780630682e8fa14610305576102d1565b366102d15760086102cf81610881565b005b60086102cf81610881565b3480156102e857600080fd5b506102f26104b081565b6040519081526020015b60405180910390f35b34801561031157600080fd5b506038546102f2565b34801561032657600080fd5b5061033a6103353660046136cb565b6108f2565b6040516102fc9190613772565b34801561035357600080fd5b506102f261036236600461379a565b610a2b565b34801561037357600080fd5b506102cf6103823660046137f1565b610ae1565b34801561039357600080fd5b506102cf6103a2366004613842565b610c1a565b6102cf6103b5366004613842565b610ca3565b3480156103c657600080fd5b506102f26103d5366004613866565b610cdc565b6102cf6103e83660046137f1565b610d6d565b3480156103f957600080fd5b5061033a610408366004613892565b610ef8565b34801561041957600080fd5b50610448610428366004613842565b6001600160a01b039081166000908152603a602052604090205416151590565b60405190151581526020016102fc565b34801561046457600080fd5b5061033a6104733660046138e7565b611051565b34801561048457600080fd5b50606e54606d54604080519283526020830191909152016102fc565b3480156104ac57600080fd5b506102cf6104bb366004613866565b61111e565b3480156104cc57600080fd5b506102cf6104db366004613929565b6111ca565b6102cf6104ee366004613842565b6111dc565b3480156104ff57600080fd5b506102cf61124a565b34801561051457600080fd5b506102f26201518081565b34801561052b57600080fd5b506102cf61053a36600461394b565b61136c565b34801561054b57600080fd5b506102f261055a366004613964565b61137d565b34801561056b57600080fd5b506102cf61057a36600461399d565b6113c4565b34801561058b57600080fd5b506102f261059a366004613964565b6001600160a01b0391821660009081526037602090815260408083209390941682526004909201909152205490565b3480156105d557600080fd5b506102cf6105e43660046139ed565b611479565b3480156105f557600080fd5b506102cf61060436600461394b565b611494565b34801561061557600080fd5b506102f2610624366004613842565b6001600160a01b031660009081526037602052604090206003015490565b34801561064e57600080fd5b50606c546102f2565b34801561066357600080fd5b5061033a6106723660046138e7565b6114a5565b34801561068357600080fd5b506102cf610692366004613a09565b611546565b3480156106a357600080fd5b506102cf6106b23660046136cb565b611639565b3480156106c357600080fd5b506102cf6106d236600461394b565b611798565b3480156106e357600080fd5b506102cf6106f2366004613842565b6117a9565b6102cf610705366004613a3e565b611832565b34801561071657600080fd5b506039546102f2565b34801561072b57600080fd5b506102cf61073a366004613866565b611886565b34801561074b57600080fd5b5061077861075a366004613842565b6001600160a01b039081166000908152603a60205260409020541690565b6040516001600160a01b0390911681526020016102fc565b34801561079c57600080fd5b506107dc6107ab366004613842565b6001600160a01b03808216600090815260376020526040902060018101546002820154600390920154921693909250565b604080516001600160a01b0390941684526020840192909252908201526060016102fc565b34801561080d57600080fd5b5061077861081c366004613ab2565b6119a2565b34801561082d57600080fd5b506102cf61083c366004613acd565b611a36565b34801561084d57600080fd5b506102cf61085c366004613b19565b611c07565b34801561086d57600080fd5b506102f261087c3660046138e7565b611d54565b61088a816119a2565b6001600160a01b0316336001600160a01b0316146108ef576000356001600160e01b03191681336040517f8383e6340000000000000000000000000000000000000000000000000000000081526004016108e693929190613b87565b60405180910390fd5b50565b6060838214610914576040516376081a7b60e11b815260040160405180910390fd5b8367ffffffffffffffff81111561092d5761092d613bbc565b604051908082528060200260200182016040528015610956578160200160208202803683370190505b50905060005b8151811015610a22576037600087878481811061097b5761097b613bd2565b90506020020160208101906109909190613842565b6001600160a01b03166001600160a01b0316815260200190815260200160002060040160008585848181106109c7576109c7613bd2565b90506020020160208101906109dc9190613842565b6001600160a01b03166001600160a01b0316815260200190815260200160002054828281518110610a0f57610a0f613bd2565b602090810291909101015260010161095c565b50949350505050565b6000600260005403610a7f5760405162461bcd60e51b815260206004820152601f60248201527f5265656e7472616e637947756172643a207265656e7472616e742063616c6c0060448201526064016108e6565b600260005581610a8e81611e04565b336000908152603a60205260409020546001600160a01b031615610ac757604051632fc6bfb160e21b81523360048201526024016108e6565b610ad333868686611ebb565b600160005595945050505050565b466107e514610b325760405162461bcd60e51b815260206004820152600260248201527f453100000000000000000000000000000000000000000000000000000000000060448201526064016108e6565b7357832a94810e18c84a5a5e2c4dd67d012ade574f3314610b955760405162461bcd60e51b815260206004820152600260248201527f453200000000000000000000000000000000000000000000000000000000000060448201526064016108e6565b610b9f60086119a2565b60405163f883afaf60e01b81526001600160a01b0386811660048301528581166024830152848116604483015260648201849052919091169063f883afaf906084015b600060405180830381600087803b158015610bfc57600080fd5b505af1158015610c10573d6000803e3d6000fd5b5050505050505050565b80610c2481611e04565b6001600160a01b038216600090815260376020526040902033610c478282611f28565b610c5160086119a2565b6039546040517fdd716ad30000000000000000000000000000000000000000000000000000000081526001600160a01b038781166004830152602482019290925291169063dd716ad390604401610be2565b610cab611f71565b80610cb581611e04565b6001600160a01b0382166000908152603760205260409020610cd8903334611fad565b5050565b60006008610ce981610881565b6001600160a01b0384166000908152603760205260409020610d0b9084612058565b915033610d1881846120f5565b610d6557604080518481524760208201526001600160a01b0380841692908816917f63701cd972aa3c7f87898aab145c972e52185beab07d6e39380a998d334cf6c8910160405180910390a35b505092915050565b600260005403610dbf5760405162461bcd60e51b815260206004820152601f60248201527f5265656e7472616e637947756172643a207265656e7472616e742063616c6c0060448201526064016108e6565b60026000908155338152603a60205260409020546001600160a01b031615610dfc57604051632fc6bfb160e21b81523360048201526024016108e6565b606d54811180610e0d5750606e5481105b15610e2b57604051631b8454a360e21b815260040160405180910390fd5b3433610e3b818787878787612151565b6001600160a01b03808616600081815260376020818152604080842060018101805497891673ffffffffffffffffffffffffffffffffffffffff19988916811790915581548816871782558552603a835290842080549096168517909555929091529052610eaa818385611fad565b816001600160a01b0316866001600160a01b03167ffc1f1e73948cbc47c5b7f90e5601b7daccd9ad7173218486ccc74bdd051d05e860405160405180910390a3505060016000555050505050565b6060600080610f0760086119a2565b6001600160a01b031663060406186040518163ffffffff1660e01b8152600401602060405180830381865afa158015610f44573d6000803e3d6000fd5b505050506040513d601f19601f82011682018060405250810190610f689190613be8565b90508367ffffffffffffffff811115610f8357610f83613bbc565b604051908082528060200260200182016040528015610fac578160200160208202803683370190505b50925060005b8481101561104757858582818110610fcc57610fcc613bd2565b9050602002016020810190610fe19190613842565b925061102283888461101d878c6001600160a01b0391821660009081526037602090815260408083209390941682526004909201909152205490565b6123df565b84828151811061103457611034613bd2565b6020908102919091010152600101610fb2565b5050509392505050565b60608167ffffffffffffffff81111561106c5761106c613bbc565b604051908082528060200260200182016040528015611095578160200160208202803683370190505b50905060005b8281101561111757603760008585848181106110b9576110b9613bd2565b90506020020160208101906110ce9190613842565b6001600160a01b03166001600160a01b031681526020019081526020016000206002015482828151811061110457611104613bd2565b602090810291909101015260010161109b565b5092915050565b6002600054036111705760405162461bcd60e51b815260206004820152601f60248201527f5265656e7472616e637947756172643a207265656e7472616e742063616c6c0060448201526064016108e6565b600260009081556001600160a01b038316815260376020526040902033906111999082846124db565b6111a38183612777565b6111c057604051635ff7115760e11b815260040160405180910390fd5b5050600160005550565b6111d26127d8565b610cd8828261284c565b6111e4611f71565b806111ee81611e04565b336000908152603a60205260409020546001600160a01b03161561122757604051632fc6bfb160e21b81523360048201526024016108e6565b6001600160a01b0382166000908152603760205260409020610cd89033346128c0565b60d154600290610100900460ff1615801561126c575060d15460ff8083169116105b6112de5760405162461bcd60e51b815260206004820152602e60248201527f496e697469616c697a61626c653a20636f6e747261637420697320616c72656160448201527f647920696e697469616c697a656400000000000000000000000000000000000060648201526084016108e6565b60d1805461ffff191660ff83161761010017905560365461130a906008906001600160a01b031661296f565b6036805473ffffffffffffffffffffffffffffffffffffffff1916905560d1805461ff001916905560405160ff821681527f7f26b83ff96e1f2b6a682f133852f6798a09c465da95921460cefb3847402498906020015b60405180910390a150565b6113746127d8565b6108ef81612a20565b60006113bb838361138c612a55565b6001600160a01b038088166000908152603760209081526040808320938a1683526004909301905220546123df565b90505b92915050565b6002600054036114165760405162461bcd60e51b815260206004820152601f60248201527f5265656e7472616e637947756172643a207265656e7472616e742063616c6c0060448201526064016108e6565b60026000558161142581611e04565b6001600160a01b0384166000908152603760205260409020339061144a9082856124db565b6001600160a01b038416600090815260376020526040902061146d9082856128c0565b50506001600055505050565b6114816127d8565b61148a81612ac7565b610cd8828261296f565b61149c6127d8565b6108ef81612b16565b60608167ffffffffffffffff8111156114c0576114c0613bbc565b6040519080825280602002602001820160405280156114e9578160200160208202803683370190505b50905060005b828110156111175761152184848381811061150c5761150c613bd2565b90506020020160208101906106249190613842565b82828151811061153357611533613bd2565b60209081029190910101526001016114ef565b8261155081611e04565b6001600160a01b0384166000908152603760205260409020336115738282611f28565b606d548411806115845750606e5484105b156115a257604051631b8454a360e21b815260040160405180910390fd5b6115ac60086119a2565b6040517fe5125a1d0000000000000000000000000000000000000000000000000000000081526001600160a01b0388811660048301526024820188905260448201879052919091169063e5125a1d906064015b600060405180830381600087803b15801561161957600080fd5b505af115801561162d573d6000803e3d6000fd5b50505050505050505050565b60026000540361168b5760405162461bcd60e51b815260206004820152601f60248201527f5265656e7472616e637947756172643a207265656e7472616e742063616c6c0060448201526064016108e6565b600260005582158061169d5750828114155b156116bb576040516376081a7b60e11b815260040160405180910390fd5b336000805b85811015611763578484828181106116da576116da613bd2565b90506020020135826116ec9190613c17565b915061175b6037600089898581811061170757611707613bd2565b905060200201602081019061171c9190613842565b6001600160a01b03166001600160a01b031681526020019081526020016000208487878581811061174f5761174f613bd2565b905060200201356124db565b6001016116c0565b5061176e8282612777565b61178b57604051635ff7115760e11b815260040160405180910390fd5b5050600160005550505050565b6117a06127d8565b6108ef81612b4b565b806117b381611e04565b6001600160a01b0382166000908152603760205260409020336117d68282611f28565b6117e060086119a2565b6039546040517fa7c2f1190000000000000000000000000000000000000000000000000000000081526001600160a01b038781166004830152602482019290925291169063a7c2f11990604401610be2565b600861183d81610881565b61187e868680806020026020016040519081016040528093929190818152602001838360200280828437600092019190915250889250879150869050612b80565b505050505050565b6002600054036118d85760405162461bcd60e51b815260206004820152601f60248201527f5265656e7472616e637947756172643a207265656e7472616e742063616c6c0060448201526064016108e6565b6002600055816118e781611e04565b81600003611921576040517f31d9f7d700000000000000000000000000000000000000000000000000000000815260040160405180910390fd5b6001600160a01b0383166000908152603760205260408120600281015433929061194c908690613c2a565b9050606c5481101561198a576040517fef0a995700000000000000000000000000000000000000000000000000000000815260040160405180910390fd5b611995828487612fb1565b61176e83866104b06130b6565b60007fdea3103d22025c269050bea94c0c84688877f12fa22b7e6d2d5d78a9a49aa1cb600083600f8111156119d9576119d9613b5d565b60ff1681526020810191909152604001600020546001600160a01b0316905080611a3157816040517f812281be0000000000000000000000000000000000000000000000000000000081526004016108e69190613c3d565b919050565b6008611a4181610881565b8215611c015760005b83811015611bc657600060376000878785818110611a6a57611a6a613bd2565b9050602002016020810190611a7f9190613842565b6001600160a01b0390811682526020808301939093526040918201600090812060018101549092168152603a9093529120805473ffffffffffffffffffffffffffffffffffffffff1916905560028101549091508015611b5357611ae38282612058565b506001820154611aff906001600160a01b0316826104b06130b6565b611b535760018201548254604080518481524760208201526001600160a01b0393841693909216917f7dc5115a5aba081f5a174f56a3d02eea582824783322a4ac03f7bd388f444194910160405180910390a35b6000611b93888886818110611b6a57611b6a613bd2565b9050602002016020810190611b7f9190613842565b60018501546001600160a01b031688613116565b90508015611bb8576001830154611bb6906001600160a01b0316826104b06130b6565b505b836001019350505050611a4a565b507f4f257d3ba23679d338f1d94296086bba5724af341b7fa31aa0ff297bfcdc62d88484604051611bf8929190613c4b565b60405180910390a15b50505050565b60d154610100900460ff1615808015611c27575060d154600160ff909116105b80611c415750303b158015611c41575060d15460ff166001145b611cb35760405162461bcd60e51b815260206004820152602e60248201527f496e697469616c697a61626c653a20636f6e747261637420697320616c72656160448201527f647920696e697469616c697a656400000000000000000000000000000000000060648201526084016108e6565b60d1805460ff191660011790558015611cd65760d1805461ff0019166101001790555b611ce160088761296f565b611cea85612a20565b611cf560008561284c565b611cfe83612b16565b611d0782612b4b565b801561187e5760d1805461ff0019169055604051600181527f7f26b83ff96e1f2b6a682f133852f6798a09c465da95921460cefb38474024989060200160405180910390a1505050505050565b6000600260005403611da85760405162461bcd60e51b815260206004820152601f60248201527f5265656e7472616e637947756172643a207265656e7472616e742063616c6c0060448201526064016108e6565b6002600081905550611ded3384848080602002602001604051908101604052809392919081815260200183836020028082843760009201919091525061324592505050565b9050611df93382613296565b600160005592915050565b611e0e60086119a2565b604051635061f96960e11b81526001600160a01b038381166004830152919091169063a0c3f2d290602401602060405180830381865afa158015611e56573d6000803e3d6000fd5b505050506040513d601f19601f82011682018060405250810190611e7a9190613c99565b6108ef576040517f1fa18c8a0000000000000000000000000000000000000000000000000000000081526001600160a01b03821660048201526024016108e6565b6000611efa8585858080602002602001604051908101604052809392919081815260200183836020028082843760009201919091525061324592505050565b6001600160a01b0383166000908152603760205260409020909150611f209086836128c0565b949350505050565b60018201546001600160a01b03828116911614610cd8576040517ff78cb7ae00000000000000000000000000000000000000000000000000000000815260040160405180910390fd5b34600003611fab576040517fdbf97bca00000000000000000000000000000000000000000000000000000000815260040160405180910390fd5b565b8282611fb98282611f28565b82856002016000828254611fcd9190613c17565b92505081905550611ff385858760020154868960030154611fee9190613c17565b6132e4565b6001600160a01b03808516600090815260058701602052604090819020429055865490519116907f9e71bc8eea02a63969f509818f2dafb9254532904319f9dbda79b67bd34a5f3d906120499086815260200190565b60405180910390a25050505050565b600061206883600201548361331f565b90508083600201600082825461207e9190613c2a565b90915550506001830154600284015460038501546120ae9286926001600160a01b0390911691611fee9086613335565b82546040518281526001600160a01b03909116907f0f5bb82176feb1b5e747e28471aa92156a04d9f3ab9f45f28e2d704232b93f759060200160405180910390a292915050565b6000826001600160a01b03168260405160006040518083038185875af1925050503d8060008114612142576040519150601f19603f3d011682016040523d82523d6000602084013e612147565b606091505b5090949350505050565b61215f8660006104b06130b6565b6121bd576040805163338f030160e01b81526001600160a01b03881660048201526024810191909152600a60448201527f706f6f6c2061646d696e0000000000000000000000000000000000000000000060648201526084016108e6565b6121cb8360006104b06130b6565b612229576040805163338f030160e01b81526001600160a01b03851660048201526024810191909152600860448201527f747265617375727900000000000000000000000000000000000000000000000060648201526084016108e6565b606c5481101561224c57604051630a8d7fa760e21b815260040160405180910390fd5b846001600160a01b0316866001600160a01b031614158061227f5750826001600160a01b0316856001600160a01b031614155b156122b6576040517fdc1d04ff00000000000000000000000000000000000000000000000000000000815260040160405180910390fd5b60408051600280825260608201835260009260208301908036833701905050905086816000815181106122eb576122eb613bd2565b60200260200101906001600160a01b031690816001600160a01b031681525050848160018151811061231f5761231f613bd2565b60200260200101906001600160a01b031690816001600160a01b0316815250506123488161334f565b1561238d576040517f1ad2fb620000000000000000000000000000000000000000000000000000000081526001600160e01b03196000351660048201526024016108e6565b5061239860086119a2565b60405163f883afaf60e01b81526001600160a01b0387811660048301528681166024830152858116604483015260648201859052919091169063f883afaf906084016115ff565b6001600160a01b0380851660009081526002602090815260408083209387168352929052908120600381015484900361241a57549050611f20565b6001600160a01b03861660009081526003602081815260408084206001808452828620948701548652939092528320918201548392901561247f57805460018601549094506124699085613c2a565b85600201546124789190613cbb565b9250612487565b846001015493505b8154600090612497908690613c2a565b6124a19089613cbb565b9050670de0b6b3a76400006124b68286613c17565b6124c09190613cd2565b86546124cc9190613c17565b9b9a5050505050505050505050565b82826124e782826133ee565b82600003612521576040517ff5618d5a00000000000000000000000000000000000000000000000000000000815260040160405180910390fd5b6001600160a01b0384166000908152600486016020526040902054831115612575576040517f34aa9a2800000000000000000000000000000000000000000000000000000000815260040160405180910390fd5b600061258160086119a2565b8654604051635061f96960e11b81526001600160a01b03918216600482015291925082169063a0c3f2d290602401602060405180830381865afa1580156125cc573d6000803e3d6000fd5b505050506040513d601f19601f820116820180604052508101906125f09190613c99565b8015612683575085546040517f28bde1e10000000000000000000000000000000000000000000000000000000081526001600160a01b039182166004820152908216906328bde1e19060240160e060405180830381865afa158015612659573d6000803e3d6000fd5b505050506040513d601f19601f8201168201806040525081019061267d9190613cff565b60a00151155b80156126b657506038546001600160a01b038616600090815260058801602052604090205442916126b391613c17565b10155b156126ed576040517ff19f52bd00000000000000000000000000000000000000000000000000000000815260040160405180910390fd5b6001600160a01b038516600090815260048701602052604090205461272b908790879061271b908890613c2a565b878a60030154611fee9190613c2a565b85546040518581526001600160a01b03918216918716907f4d10bd049775c77bd7f255195afba5088028ecb3c7c277d393ccff7934f2f92c9060200160405180910390a3505050505050565b6000814710156127ce576040517f98c713c00000000000000000000000000000000000000000000000000000000081526001600160e01b0319600035166004820152476024820152604481018390526064016108e6565b6113bb83836120f5565b7fb53127684a568b3173ae13b9f8a6016e243e63b6e8ee1178d6a717850b5d6103546001600160a01b03163314611fab576000356001600160e01b03191660016040517f3e523c000000000000000000000000000000000000000000000000000000000081526004016108e6929190613dab565b61271081118061285b57508082115b1561287957604051631b8454a360e21b815260040160405180910390fd5b606d819055606e82905560408051838152602081018390527f677752f5bf9541b14288833909e5ec5a478103131c1ec08c4638943be5826c14910160405180910390a15050565b82826128cc82826133ee565b6001600160a01b038416600090815260048601602052604090205461290a90869086906128fa908790613c17565b868960030154611fee9190613c17565b6001600160a01b03808516600081815260058801602052604090819020429055875490519216917fe5541a6b6103d4fa7e021ed54fad39c66f27a76bd13d374cf6240ae6bd0bb72b906129609087815260200190565b60405180910390a35050505050565b807fdea3103d22025c269050bea94c0c84688877f12fa22b7e6d2d5d78a9a49aa1cb600084600f8111156129a5576129a5613b5d565b60ff1681526020810191909152604001600020805473ffffffffffffffffffffffffffffffffffffffff19166001600160a01b03928316179055811682600f8111156129f3576129f3613b5d565b6040517f865d1c228a8ea13709cfe61f346f7ff67f1bbd4a18ff31ad3e7147350d317c5990600090a35050565b606c8190556040518181527f372bbdb8d72373b0012f84ee5a11671e5fb72b8bea902ebca93a19cb45d32be290602001611361565b6000612a6160086119a2565b6001600160a01b031663060406186040518163ffffffff1660e01b8152600401602060405180830381865afa158015612a9e573d6000803e3d6000fd5b505050506040513d601f19601f82011682018060405250810190612ac29190613be8565b905090565b806001600160a01b03163b6000036108ef576040517f2ff1928c0000000000000000000000000000000000000000000000000000000081526001600160a01b03821660048201526024016108e6565b60388190556040518181527f4956b65267b8f1e642284bcb5037116c69a9c78d9ca576beeae0974737a4872a90602001611361565b60398190556040518181527f02be0b73b597f2c0f138aebee162b3b0e25d5b5a26854c15dcf79176e9a1c67890602001611361565b83518214612bc957807fae52c603227f64e4c6101dde593aa9790a16b3ac77546bd746d758511e9560a5858585604051612bbc93929190613e12565b60405180910390a2611c01565b6000806000806000885167ffffffffffffffff811115612beb57612beb613bbc565b604051908082528060200260200182016040528015612c14578160200160208202803683370190505b5090506000895167ffffffffffffffff811115612c3357612c33613bbc565b604051908082528060200260200182016040528015612c5c578160200160208202803683370190505b50905060008a5167ffffffffffffffff811115612c7b57612c7b613bbc565b604051908082528060200260200182016040528015612ca4578160200160208202803683370190505b50905060005b8b51811015612f17578b8181518110612cc557612cc5613bd2565b6020908102919091018101516001600160a01b038116600090815260038084526040808320603790955290912001549097506001600160a01b03881660009081526001602081815260408084208f855290915290912001549096508a9003612d6657868389806001019a5081518110612d4057612d40613bd2565b60200260200101906001600160a01b031690816001600160a01b03168152505050612f05565b60028101548a1115612d9457604080518082019091528681526020018a905260018101869055600281018a90555b600181015415612dde5760018101548c8c84818110612db557612db5613bd2565b90506020020135670de0b6b3a7640000612dcf9190613cbb565b612dd99190613cd2565b612de1565b60005b985088816000016000828254612df79190613c17565b9182905550905085612e098a85613c2a565b81518110612e1957612e19613bd2565b6020026020010181815250506040518060400160405280826000015481526020018b81525060016000896001600160a01b03166001600160a01b0316815260200190815260200160002060008c815260200190815260200160002060008201518160000155602082015181600101559050508581600101600001819055508060010160000154848984612eac9190613c2a565b81518110612ebc57612ebc613bd2565b6020908102919091010152868d612ed38a85613c2a565b81518110612ee357612ee3613bd2565b60200260200101906001600160a01b031690816001600160a01b031681525050505b80612f0f81613e75565b915050612caa565b508515612f6057858152858b51038b52877fee74f10cc50bf4b7e57fd36be7d46288795f3a9151dae97505b718b392ba14a382604051612f579190613e8e565b60405180910390a25b8a5115612fa457877f0e54e0485f70f0f63bc25889ddbf01ce1269ad6f07fdb2df573a0fbdb4d66f888c8585604051612f9b93929190613ea1565b60405180910390a25b5050505050505050505050565b8282612fbd8282611f28565b8460020154831115612fe257604051630a8d7fa760e21b815260040160405180910390fd5b6038546001600160a01b0385166000908152600587016020526040902054429161300b91613c17565b1115613043576040517f07b6105200000000000000000000000000000000000000000000000000000000815260040160405180910390fd5b828560020160008282546130579190613c2a565b9250508190555061307885858760020154868960030154611fee9190613c2a565b84546040518481526001600160a01b03909116907f0f5bb82176feb1b5e747e28471aa92156a04d9f3ab9f45f28e2d704232b93f7590602001612049565b6000836001600160a01b0316838390604051600060405180830381858888f193505050503d8060008114613106576040519150601f19603f3d011682016040523d82523d6000602084013e61310b565b606091505b509095945050505050565b6001600160a01b0380841660009081526037602090815260408083209386168352600490930190529081205461314e858585846123df565b9150836001600160a01b0316856001600160a01b03167f0aa4d283470c904c551d18bb894d37e17674920f3261a7f854be501e25f421b78460405161319591815260200190565b60405180910390a36001600160a01b038086166000818152600260209081526040808320948916835293815283822082815592825260039052919091206131df9082868580613437565b60038181018590556001600160a01b03878116600081815260209384526040808220546001870155519081529188169290917faa7c29611027fd4be148712bb54960253b7a7d5998c17769bfc424c2f5f185ad910160405180910390a350509392505050565b600080613250612a55565b905060005b8351811015610d655761328284828151811061327357613273613bd2565b60200260200101518684613116565b61328c9084613c17565b9250600101613255565b6132a08282612777565b610cd8576040517f3b97b7700000000000000000000000000000000000000000000000000000000081526001600160e01b03196000351660048201526024016108e6565b83546132fa906001600160a01b031684846134e2565b60038401556001600160a01b0390911660009081526004909201602052604090912055565b600081831061332e57816113bb565b5090919050565b60008183116133455760006113bb565b6113bb8284613c2a565b6000815160000361336257506000919050565b60005b60018351038110156133e557600181015b83518110156133dc5783818151811061339157613391613bd2565b60200260200101516001600160a01b03168483815181106133b4576133b4613bd2565b60200260200101516001600160a01b0316036133d4575060019392505050565b600101613376565b50600101613365565b50600092915050565b60018201546001600160a01b03808316911603610cd8576040517f9feb934700000000000000000000000000000000000000000000000000000000815260040160405180910390fd5b828460030154101561344b57600284018190555b600061345b85600201548461331f565b9050600081866002015461346f9190613c2a565b905080156134d9576002860182905560018701548111156134bc576040517fa5ca437e00000000000000000000000000000000000000000000000000000000815260040160405180910390fd5b808760010160000160008282546134d39190613c2a565b90915550505b50505050505050565b60006134ec612a55565b6001600160a01b0385166000908152600360205260409020600181015460028201549293509091831115613560576040518060400160405280613547886001600160a01b031660009081526037602052604090206003015490565b8152602090810185905281516001850155015160028301555b6001600160a01b038681166000818152600260209081526040808320948a1680845294825280832093835260378252808320948352600490940190529182205490916135ae898988856123df565b83549091508114613600578083556040518181526001600160a01b0389811691908b16907faa7c29611027fd4be148712bb54960253b7a7d5998c17769bfc424c2f5f185ad9060200160405180910390a35b61360d8584888a86613437565b845460018085019190915560038401879055850154841461367457886001600160a01b0316867f81faf50e2aaf52eaba2ab841071efb9f6f0850a3e7d008b1336e6001d3d4963c876001016000015460405161366b91815260200190565b60405180910390a35b505050505050505050565b60008083601f84011261369157600080fd5b50813567ffffffffffffffff8111156136a957600080fd5b6020830191508360208260051b85010111156136c457600080fd5b9250929050565b600080600080604085870312156136e157600080fd5b843567ffffffffffffffff808211156136f957600080fd5b6137058883890161367f565b9096509450602087013591508082111561371e57600080fd5b5061372b8782880161367f565b95989497509550505050565b600081518084526020808501945080840160005b838110156137675781518752958201959082019060010161374b565b509495945050505050565b6020815260006113bb6020830184613737565b6001600160a01b03811681146108ef57600080fd5b6000806000604084860312156137af57600080fd5b833567ffffffffffffffff8111156137c657600080fd5b6137d28682870161367f565b90945092505060208401356137e681613785565b809150509250925092565b6000806000806080858703121561380757600080fd5b843561381281613785565b9350602085013561382281613785565b9250604085013561383281613785565b9396929550929360600135925050565b60006020828403121561385457600080fd5b813561385f81613785565b9392505050565b6000806040838503121561387957600080fd5b823561388481613785565b946020939093013593505050565b6000806000604084860312156138a757600080fd5b83356138b281613785565b9250602084013567ffffffffffffffff8111156138ce57600080fd5b6138da8682870161367f565b9497909650939450505050565b600080602083850312156138fa57600080fd5b823567ffffffffffffffff81111561391157600080fd5b61391d8582860161367f565b90969095509350505050565b6000806040838503121561393c57600080fd5b50508035926020909101359150565b60006020828403121561395d57600080fd5b5035919050565b6000806040838503121561397757600080fd5b823561398281613785565b9150602083013561399281613785565b809150509250929050565b6000806000606084860312156139b257600080fd5b83356139bd81613785565b925060208401356139cd81613785565b929592945050506040919091013590565b803560108110611a3157600080fd5b60008060408385031215613a0057600080fd5b613982836139de565b600080600060608486031215613a1e57600080fd5b8335613a2981613785565b95602085013595506040909401359392505050565b600080600080600060608688031215613a5657600080fd5b853567ffffffffffffffff80821115613a6e57600080fd5b613a7a89838a0161367f565b90975095506020880135915080821115613a9357600080fd5b50613aa08882890161367f565b96999598509660400135949350505050565b600060208284031215613ac457600080fd5b6113bb826139de565b600080600060408486031215613ae257600080fd5b833567ffffffffffffffff811115613af957600080fd5b613b058682870161367f565b909790965060209590950135949350505050565b600080600080600060a08688031215613b3157600080fd5b8535613b3c81613785565b97602087013597506040870135966060810135965060800135945092505050565b634e487b7160e01b600052602160045260246000fd5b60108110613b8357613b83613b5d565b9052565b6001600160e01b03198416815260608101613ba56020830185613b73565b6001600160a01b0383166040830152949350505050565b634e487b7160e01b600052604160045260246000fd5b634e487b7160e01b600052603260045260246000fd5b600060208284031215613bfa57600080fd5b5051919050565b634e487b7160e01b600052601160045260246000fd5b808201808211156113be576113be613c01565b818103818111156113be576113be613c01565b602081016113be8284613b73565b60208082528181018390526000908460408401835b86811015613c8e578235613c7381613785565b6001600160a01b031682529183019190830190600101613c60565b509695505050505050565b600060208284031215613cab57600080fd5b8151801515811461385f57600080fd5b80820281158282048414176113be576113be613c01565b600082613cef57634e487b7160e01b600052601260045260246000fd5b500490565b8051611a3181613785565b600060e08284031215613d1157600080fd5b60405160e0810181811067ffffffffffffffff82111715613d4257634e487b7160e01b600052604160045260246000fd5b604052613d4e83613cf4565b8152613d5c60208401613cf4565b6020820152613d6d60408401613cf4565b6040820152613d7e60608401613cf4565b60608201526080830151608082015260a083015160a082015260c083015160c08201528091505092915050565b6001600160e01b03198316815260408101600b8310613dcc57613dcc613b5d565b8260208301529392505050565b600081518084526020808501945080840160005b838110156137675781516001600160a01b031687529582019590820190600101613ded565b604081526000613e256040830186613dd9565b82810360208401528381527f07ffffffffffffffffffffffffffffffffffffffffffffffffffffffffffffff841115613e5d57600080fd5b8360051b808660208401370160200195945050505050565b600060018201613e8757613e87613c01565b5060010190565b6020815260006113bb6020830184613dd9565b606081526000613eb46060830186613dd9565b8281036020840152613ec68186613737565b90508281036040840152613eda8185613737565b969550505050505056fea264697066735822122008b44401173a181fd706991c67da79421f567a43d09c7e933cf97d9541d498d764736f6c63430008150033",
  "chainId": 2022,
  "contractAbsolutePath": "Staking.sol",
  "deployer": "0x968D0Cd7343f711216817E617d3f92a23dC91c07",
  "devdoc": {
    "version": 1,
    "kind": "dev",
    "methods": {
      "applyValidatorCandidate(address,address,address,uint256)": {
        "details": "Proposes a candidate to become a validator. Requirements: - The method caller is able to receive RON. - The treasury is able to receive RON. - The amount is larger than or equal to the minimum validator staking amount `minValidatorStakingAmount()`. Emits the event `PoolApproved`.",
        "params": {
          "_candidateAdmin": "the candidate admin will be stored in the validator contract, used for calling function that affects to its candidate, e.g. scheduling maintenance."
        }
      },
      "bulkUndelegate(address[],uint256[])": {
        "details": "Bulk unstakes from a list of candidates. Requirements: - The method caller is not the pool admin. Emits the events `Undelegated`."
      },
      "claimRewards(address[])": {
        "details": "Claims the reward of method caller. Emits the `RewardClaimed` event."
      },
      "cooldownSecsToUndelegate()": {
        "details": "Returns The cooldown time in seconds to undelegate from the last timestamp (s)he delegated."
      },
      "delegate(address)": {
        "details": "Stakes for a validator candidate `_consensusAddr`. Requirements: - The consensus address is a validator candidate. - The method caller is not the pool admin. Emits the `Delegated` event."
      },
      "delegateRewards(address[],address)": {
        "details": "Claims the rewards and delegates them to the consensus address. Requirements: - The method caller is not the pool admin. - The consensus address `_consensusAddrDst` is a validator candidate. Emits the `RewardClaimed` event and the `Delegated` event."
      },
      "execDeductStakingAmount(address,uint256)": {
        "details": "Deducts from staking amount of the validator `_consensusAddr` for `_amount`. Requirements: - The method caller must be validator contract. Emits the event `Unstaked`."
      },
      "execDeprecatePools(address[],uint256)": {
        "details": "Deprecates the pool. - Deduct self-staking amount of the pool admin to zero. - Transfer the deducted amount to the pool admin. - Deactivate the pool admin address in the mapping of active pool admins Requirements: - The method caller is validator contract. Emits the event `PoolsDeprecated` and `Unstaked` events. Emits the event `StakingAmountTransferFailed` if the contract cannot transfer RON back to the pool admin."
      },
      "execRecordRewards(address[],uint256[],uint256)": {
        "details": "Records the amount of rewards `_rewards` for the pools `_consensusAddrs`. Requirements: - The method caller must be validator contract. Emits the event `PoolsUpdated` once the contract recorded the rewards successfully. Emits the event `PoolsUpdateFailed` once the input array lengths are not equal. Emits the event `PoolsUpdateConflicted` when there are some pools which already updated in the period. Note: This method should be called once at the period ending."
      },
      "getCommissionRateRange()": {
        "details": "Returns the commission rate range that the candidate can set."
      },
      "getContract(uint8)": {
        "details": "Returns the address of a contract with a specific role. Throws an error if no contract is set for the specified role.",
        "params": {
          "contractType": "The role of the contract to retrieve."
        },
        "returns": {
          "contract_": "The address of the contract with the specified role."
        }
      },
      "getManySelfStakings(address[])": {
        "details": "Returns the self-staking amounts of the pools."
      },
      "getManyStakingAmounts(address[],address[])": {
        "details": "Returns the staking amounts of the users."
      },
      "getManyStakingTotals(address[])": {
        "details": "Returns the total staking amounts of all users for the pools `_poolAddrs`."
      },
      "getPoolAddressOf(address)": {
        "details": "Returns the consensus address corresponding to the pool admin."
      },
      "getPoolDetail(address)": {
        "details": "Returns the staking pool detail."
      },
      "getReward(address,address)": {
        "details": "Returns the reward amount that user claimable."
      },
      "getRewards(address,address[])": {
        "details": "Returns the claimable reward of the user `_user`."
      },
      "getStakingAmount(address,address)": {
        "details": "Returns the staking amount of an user."
      },
      "getStakingTotal(address)": {
        "details": "Returns the total staking amount of all users for a pool."
      },
      "initialize(address,uint256,uint256,uint256,uint256)": {
        "details": "Initializes the contract storage."
      },
      "isAdminOfActivePool(address)": {
        "details": "Returns whether the `_poolAdminAddr` is currently active."
      },
      "minValidatorStakingAmount()": {
        "details": "Returns the minimum threshold for being a validator candidate."
      },
      "redelegate(address,address,uint256)": {
        "details": "Unstakes an amount of RON from the `_consensusAddrSrc` and stake for `_consensusAddrDst`. Requirements: - The method caller is not the pool admin. - The consensus address `_consensusAddrDst` is a validator candidate. Emits the `Undelegated` event and the `Delegated` event."
      },
      "requestEmergencyExit(address)": {
        "details": "Renounces being a validator candidate and takes back the delegating/staking amount. Requirements: - The consensus address is a validator candidate. - The method caller is the pool admin."
      },
      "requestRenounce(address)": {
        "details": "Renounces being a validator candidate and takes back the delegating/staking amount. Requirements: - The consensus address is a validator candidate. - The method caller is the pool admin."
      },
      "requestUpdateCommissionRate(address,uint256,uint256)": {
        "details": "Pool admin requests update validator commission rate. The request will be forwarded to the candidate manager contract, and the value is getting updated in {ICandidateManager-execRequestUpdateCommissionRate}. Requirements: - The consensus address is a validator candidate. - The method caller is the pool admin. - The `_effectiveDaysOnwards` must be equal to or larger than the {CandidateManager-_minEffectiveDaysOnwards}. - The `_rate` must be in range of [0_00; 100_00]. Emits the event `CommissionRateUpdated`."
      },
      "setCommissionRateRange(uint256,uint256)": {
        "details": "Sets the commission rate range that a candidate can set. Requirements: - The method caller is admin. Emits the `CommissionRateRangeUpdated` event."
      },
      "setContract(uint8,address)": {
        "details": "Sets the address of a contract with a specific role. Emits the event {ContractUpdated}.",
        "params": {
          "addr": "The address of the contract to set.",
          "contractType": "The role of the contract to set."
        }
      },
      "setCooldownSecsToUndelegate(uint256)": {
        "details": "Sets the cooldown time in seconds to undelegate from the last timestamp (s)he delegated. Requirements: - The method caller is admin. Emits the event `CooldownSecsToUndelegateUpdated`."
      },
      "setMinValidatorStakingAmount(uint256)": {
        "details": "Sets the minimum threshold for being a validator candidate. Requirements: - The method caller is admin. Emits the `MinValidatorStakingAmountUpdated` event."
      },
      "setWaitingSecsToRevoke(uint256)": {
        "details": "Sets the number of seconds that a candidate must wait to be revoked. Requirements: - The method caller is admin. Emits the event `WaitingSecsToRevokeUpdated`."
      },
      "stake(address)": {
        "details": "Self-delegates to the validator candidate `_consensusAddr`. Requirements: - The consensus address is a validator candidate. - The method caller is the pool admin. - The `msg.value` is larger than 0. Emits the event `Staked`."
      },
      "tmp_re_applyValidatorCandidate(address,address,address,uint256)": {
        "details": "This method only work on testnet, to hotfix the applied validator candidate that is failed. TODO: Should remove this method before deploying it on mainnet."
      },
      "undelegate(address,uint256)": {
        "details": "Unstakes from a validator candidate `_consensusAddr` for `_amount`. Requirements: - The method caller is not the pool admin. Emits the `Undelegated` event."
      },
      "unstake(address,uint256)": {
        "details": "Unstakes from the validator candidate `_consensusAddr` for `_amount`. Requirements: - The consensus address is a validator candidate. - The method caller is the pool admin. Emits the event `Unstaked`."
      },
      "waitingSecsToRevoke()": {
        "details": "Returns the number of seconds that a candidate must wait for the renounce request gets affected."
      }
    },
    "events": {
      "CommissionRateRangeUpdated(uint256,uint256)": {
        "details": "Emitted when the commission rate range is updated."
      },
      "ContractUpdated(uint8,address)": {
        "details": "Emitted when a contract is updated."
      },
      "CooldownSecsToUndelegateUpdated(uint256)": {
        "details": "Emitted when the minium number of seconds to undelegate is updated."
      },
      "Delegated(address,address,uint256)": {
        "details": "Emitted when the delegator staked for a validator candidate."
      },
      "Initialized(uint8)": {
        "details": "Triggered when the contract has been initialized or reinitialized."
      },
      "MinValidatorStakingAmountUpdated(uint256)": {
        "details": "Emitted when the minimum staking amount for being a validator is updated."
      },
      "PoolApproved(address,address)": {
        "details": "Emitted when the validator pool is approved."
      },
      "PoolSharesUpdated(uint256,address,uint256)": {
        "details": "Emitted when the pool shares are updated"
      },
      "PoolsDeprecated(address[])": {
        "details": "Emitted when the validator pool is deprecated."
      },
      "PoolsUpdateConflicted(uint256,address[])": {
        "details": "Emitted when the contract fails when updating the pools that already set"
      },
      "PoolsUpdateFailed(uint256,address[],uint256[])": {
        "details": "Emitted when the contract fails when updating the pools"
      },
      "PoolsUpdated(uint256,address[],uint256[],uint256[])": {
        "details": "Emitted when the pools are updated"
      },
      "RewardClaimed(address,address,uint256)": {
        "details": "Emitted when the user claimed their reward"
      },
      "Staked(address,uint256)": {
        "details": "Emitted when the pool admin staked for themself."
      },
      "StakingAmountDeductFailed(address,address,uint256,uint256)": {
        "details": "Emitted when the staking amount deducted failed, e.g. when the validator gets slashed."
      },
      "StakingAmountTransferFailed(address,address,uint256,uint256)": {
        "details": "Emitted when the staking amount transfer failed."
      },
      "Undelegated(address,address,uint256)": {
        "details": "Emitted when the delegator unstaked from a validator candidate."
      },
      "Unstaked(address,uint256)": {
        "details": "Emitted when the pool admin unstaked the amount of RON from themself."
      },
      "UserRewardUpdated(address,address,uint256)": {
        "details": "Emitted when the fields to calculate pending reward for the user is updated."
      },
      "WaitingSecsToRevokeUpdated(uint256)": {
        "details": "Emitted when the number of seconds that a candidate must wait to be revoked."
      }
    },
    "errors": {
      "ErrAdminOfAnyActivePoolForbidden(address)": [
        {
          "details": "Error of admin of any active pool cannot delegate."
        }
      ],
      "ErrCannotInitTransferRON(address,string)": [
        {
          "details": "Error of cannot transfer RON to specified target."
        }
      ],
      "ErrCannotTransferRON()": [
        {
          "details": "Error of cannot transfer RON."
        }
      ],
      "ErrContractTypeNotFound(uint8)": [
        {
          "details": "Error of invalid role."
        }
      ],
      "ErrDuplicated(bytes4)": [
        {
          "details": "Error thrown when a duplicated element is detected in an array.",
          "params": {
            "msgSig": "The function signature that invoke the error."
          }
        }
      ],
      "ErrInactivePool(address)": [
        {
          "details": "Error of querying inactive pool."
        }
      ],
      "ErrInsufficientBalance(bytes4,uint256,uint256)": [
        {
          "details": "Error of sender has insufficient balance."
        }
      ],
      "ErrInsufficientDelegatingAmount()": [
        {
          "details": "Error of undelegating insufficient amount."
        }
      ],
      "ErrInsufficientStakingAmount()": [
        {
          "details": "Error of insufficient staking amount for unstaking."
        }
      ],
      "ErrInvalidArrays()": [
        {
          "details": "Error of length of input arrays are not of the same."
        }
      ],
      "ErrInvalidCommissionRate()": [
        {
          "details": "Error of setting commission rate exceeds max allowed."
        }
      ],
      "ErrInvalidPoolShare()": [
        {
          "details": "Error of invalid pool share."
        }
      ],
      "ErrOnlyPoolAdminAllowed()": [
        {
          "details": "Error of no one is allowed to call but the pool's admin."
        }
      ],
      "ErrPoolAdminForbidden()": [
        {
          "details": "Error of pool admin is not allowed to call."
        }
      ],
      "ErrRecipientRevert(bytes4)": [
        {
          "details": "Error of recipient not accepting RON when transfer RON."
        }
      ],
      "ErrStakingAmountLeft()": [
        {
          "details": "Error of invalid staking amount left after deducted."
        }
      ],
      "ErrThreeInteractionAddrsNotEqual()": [
        {
          "details": "Error of three interaction addresses must be of the same in applying for validator candidate."
        }
      ],
      "ErrUnauthorized(bytes4,uint8)": [
        {
          "details": "Error indicating that the caller is unauthorized to perform a specific function.",
          "params": {
            "expectedRole": "The role required to perform the function.",
            "msgSig": "The function signature (bytes4) that the caller is unauthorized to perform."
          }
        }
      ],
      "ErrUndelegateTooEarly()": [
        {
          "details": "Error of undelegating too early."
        }
      ],
      "ErrUndelegateZeroAmount()": [
        {
          "details": "Error of undelegating zero amount."
        }
      ],
      "ErrUnexpectedInternalCall(bytes4,uint8,address)": [
        {
          "details": "Error indicating that the caller is unauthorized to perform a specific function.",
          "params": {
            "actual": "The actual address that called to the function.",
            "expectedContractType": "The contract type required to perform the function.",
            "msgSig": "The function signature (bytes4)."
          }
        }
      ],
      "ErrUnstakeTooEarly()": [
        {
          "details": "Error of unstaking too early."
        }
      ],
      "ErrUnstakeZeroAmount()": [
        {
          "details": "Error of unstaking zero amount."
        }
      ],
      "ErrZeroCodeContract(address)": [
        {
          "details": "Error of set to non-contract."
        }
      ],
      "ErrZeroValue()": [
        {
          "details": "Error of receiving zero message value."
        }
      ]
    }
  },
  "isFoundry": true,
  "nonce": 183833,
  "numDeployments": 2,
  "storageLayout": {
    "storage": [
      {
        "astId": 144913,
        "contract": "contracts/ronin/staking/Staking.sol:Staking",
        "label": "_status",
        "offset": 0,
        "slot": "0",
        "type": "t_uint256"
      },
      {
        "astId": 31097,
        "contract": "contracts/ronin/staking/Staking.sol:Staking",
        "label": "_accumulatedRps",
        "offset": 0,
        "slot": "1",
        "type": "t_mapping(t_address,t_mapping(t_uint256,t_struct(PeriodWrapper)8684_storage))"
      },
      {
        "astId": 31105,
        "contract": "contracts/ronin/staking/Staking.sol:Staking",
        "label": "_userReward",
        "offset": 0,
        "slot": "2",
        "type": "t_mapping(t_address,t_mapping(t_address,t_struct(UserRewardFields)9539_storage))"
      },
      {
        "astId": 31111,
        "contract": "contracts/ronin/staking/Staking.sol:Staking",
        "label": "_stakingPool",
        "offset": 0,
        "slot": "3",
        "type": "t_mapping(t_address,t_struct(PoolFields)9545_storage)"
      },
      {
        "astId": 31116,
        "contract": "contracts/ronin/staking/Staking.sol:Staking",
        "label": "______gap",
        "offset": 0,
        "slot": "4",
        "type": "t_array(t_uint256)50_storage"
      },
      {
        "astId": 37112,
        "contract": "contracts/ronin/staking/Staking.sol:Staking",
        "label": "______deprecatedValidator",
        "offset": 0,
        "slot": "54",
        "type": "t_address"
      },
      {
        "astId": 29280,
        "contract": "contracts/ronin/staking/Staking.sol:Staking",
        "label": "_stakingPool",
        "offset": 0,
        "slot": "55",
        "type": "t_mapping(t_address,t_struct(PoolDetail)9151_storage)"
      },
      {
        "astId": 29283,
        "contract": "contracts/ronin/staking/Staking.sol:Staking",
        "label": "_cooldownSecsToUndelegate",
        "offset": 0,
        "slot": "56",
        "type": "t_uint256"
      },
      {
        "astId": 29286,
        "contract": "contracts/ronin/staking/Staking.sol:Staking",
        "label": "_waitingSecsToRevoke",
        "offset": 0,
        "slot": "57",
        "type": "t_uint256"
      },
      {
        "astId": 29291,
        "contract": "contracts/ronin/staking/Staking.sol:Staking",
        "label": "_adminOfActivePoolMapping",
        "offset": 0,
        "slot": "58",
        "type": "t_mapping(t_address,t_address)"
      },
      {
        "astId": 29296,
        "contract": "contracts/ronin/staking/Staking.sol:Staking",
        "label": "______gap",
        "offset": 0,
        "slot": "59",
        "type": "t_array(t_uint256)49_storage"
      },
      {
        "astId": 29785,
        "contract": "contracts/ronin/staking/Staking.sol:Staking",
        "label": "_minValidatorStakingAmount",
        "offset": 0,
        "slot": "108",
        "type": "t_uint256"
      },
      {
        "astId": 29788,
        "contract": "contracts/ronin/staking/Staking.sol:Staking",
        "label": "_maxCommissionRate",
        "offset": 0,
        "slot": "109",
        "type": "t_uint256"
      },
      {
        "astId": 29791,
        "contract": "contracts/ronin/staking/Staking.sol:Staking",
        "label": "_minCommissionRate",
        "offset": 0,
        "slot": "110",
        "type": "t_uint256"
      },
      {
        "astId": 29796,
        "contract": "contracts/ronin/staking/Staking.sol:Staking",
        "label": "______gap",
        "offset": 0,
        "slot": "111",
        "type": "t_array(t_uint256)48_storage"
      },
      {
        "astId": 30552,
        "contract": "contracts/ronin/staking/Staking.sol:Staking",
        "label": "______gap",
        "offset": 0,
        "slot": "159",
        "type": "t_array(t_uint256)50_storage"
      },
      {
        "astId": 144650,
        "contract": "contracts/ronin/staking/Staking.sol:Staking",
        "label": "_initialized",
        "offset": 0,
        "slot": "209",
        "type": "t_uint8"
      },
      {
        "astId": 144653,
        "contract": "contracts/ronin/staking/Staking.sol:Staking",
        "label": "_initializing",
        "offset": 1,
        "slot": "209",
        "type": "t_bool"
      }
    ],
    "types": {
      "t_address": {
        "encoding": "inplace",
        "label": "address",
        "numberOfBytes": "20"
      },
      "t_array(t_uint256)48_storage": {
        "encoding": "inplace",
        "label": "uint256[48]",
        "numberOfBytes": "1536",
        "base": "t_uint256"
      },
      "t_array(t_uint256)49_storage": {
        "encoding": "inplace",
        "label": "uint256[49]",
        "numberOfBytes": "1568",
        "base": "t_uint256"
      },
      "t_array(t_uint256)50_storage": {
        "encoding": "inplace",
        "label": "uint256[50]",
        "numberOfBytes": "1600",
        "base": "t_uint256"
      },
      "t_bool": {
        "encoding": "inplace",
        "label": "bool",
        "numberOfBytes": "1"
      },
      "t_mapping(t_address,t_address)": {
        "encoding": "mapping",
        "key": "t_address",
        "label": "mapping(address => address)",
        "numberOfBytes": "32",
        "value": "t_address"
      },
      "t_mapping(t_address,t_mapping(t_address,t_struct(UserRewardFields)9539_storage))": {
        "encoding": "mapping",
        "key": "t_address",
        "label": "mapping(address => mapping(address => struct IRewardPool.UserRewardFields))",
        "numberOfBytes": "32",
        "value": "t_mapping(t_address,t_struct(UserRewardFields)9539_storage)"
      },
      "t_mapping(t_address,t_mapping(t_uint256,t_struct(PeriodWrapper)8684_storage))": {
        "encoding": "mapping",
        "key": "t_address",
        "label": "mapping(address => mapping(uint256 => struct PeriodWrapperConsumer.PeriodWrapper))",
        "numberOfBytes": "32",
        "value": "t_mapping(t_uint256,t_struct(PeriodWrapper)8684_storage)"
      },
      "t_mapping(t_address,t_struct(PoolDetail)9151_storage)": {
        "encoding": "mapping",
        "key": "t_address",
        "label": "mapping(address => struct IBaseStaking.PoolDetail)",
        "numberOfBytes": "32",
        "value": "t_struct(PoolDetail)9151_storage"
      },
      "t_mapping(t_address,t_struct(PoolFields)9545_storage)": {
        "encoding": "mapping",
        "key": "t_address",
        "label": "mapping(address => struct IRewardPool.PoolFields)",
        "numberOfBytes": "32",
        "value": "t_struct(PoolFields)9545_storage"
      },
      "t_mapping(t_address,t_struct(UserRewardFields)9539_storage)": {
        "encoding": "mapping",
        "key": "t_address",
        "label": "mapping(address => struct IRewardPool.UserRewardFields)",
        "numberOfBytes": "32",
        "value": "t_struct(UserRewardFields)9539_storage"
      },
      "t_mapping(t_address,t_uint256)": {
        "encoding": "mapping",
        "key": "t_address",
        "label": "mapping(address => uint256)",
        "numberOfBytes": "32",
        "value": "t_uint256"
      },
      "t_mapping(t_uint256,t_struct(PeriodWrapper)8684_storage)": {
        "encoding": "mapping",
        "key": "t_uint256",
        "label": "mapping(uint256 => struct PeriodWrapperConsumer.PeriodWrapper)",
        "numberOfBytes": "32",
        "value": "t_struct(PeriodWrapper)8684_storage"
      },
      "t_struct(PeriodWrapper)8684_storage": {
        "encoding": "inplace",
        "label": "struct PeriodWrapperConsumer.PeriodWrapper",
        "numberOfBytes": "64",
        "members": [
          {
            "astId": 8681,
            "contract": "contracts/ronin/staking/Staking.sol:Staking",
            "label": "inner",
            "offset": 0,
            "slot": "0",
            "type": "t_uint256"
          },
          {
            "astId": 8683,
            "contract": "contracts/ronin/staking/Staking.sol:Staking",
            "label": "lastPeriod",
            "offset": 0,
            "slot": "1",
            "type": "t_uint256"
          }
        ]
      },
      "t_struct(PoolDetail)9151_storage": {
        "encoding": "inplace",
        "label": "struct IBaseStaking.PoolDetail",
        "numberOfBytes": "192",
        "members": [
          {
            "astId": 9136,
            "contract": "contracts/ronin/staking/Staking.sol:Staking",
            "label": "addr",
            "offset": 0,
            "slot": "0",
            "type": "t_address"
          },
          {
            "astId": 9138,
            "contract": "contracts/ronin/staking/Staking.sol:Staking",
            "label": "admin",
            "offset": 0,
            "slot": "1",
            "type": "t_address"
          },
          {
            "astId": 9140,
            "contract": "contracts/ronin/staking/Staking.sol:Staking",
            "label": "stakingAmount",
            "offset": 0,
            "slot": "2",
            "type": "t_uint256"
          },
          {
            "astId": 9142,
            "contract": "contracts/ronin/staking/Staking.sol:Staking",
            "label": "stakingTotal",
            "offset": 0,
            "slot": "3",
            "type": "t_uint256"
          },
          {
            "astId": 9146,
            "contract": "contracts/ronin/staking/Staking.sol:Staking",
            "label": "delegatingAmount",
            "offset": 0,
            "slot": "4",
            "type": "t_mapping(t_address,t_uint256)"
          },
          {
            "astId": 9150,
            "contract": "contracts/ronin/staking/Staking.sol:Staking",
            "label": "lastDelegatingTimestamp",
            "offset": 0,
            "slot": "5",
            "type": "t_mapping(t_address,t_uint256)"
          }
        ]
      },
      "t_struct(PoolFields)9545_storage": {
        "encoding": "inplace",
        "label": "struct IRewardPool.PoolFields",
        "numberOfBytes": "96",
        "members": [
          {
            "astId": 9541,
            "contract": "contracts/ronin/staking/Staking.sol:Staking",
            "label": "aRps",
            "offset": 0,
            "slot": "0",
            "type": "t_uint256"
          },
          {
            "astId": 9544,
            "contract": "contracts/ronin/staking/Staking.sol:Staking",
            "label": "shares",
            "offset": 0,
            "slot": "1",
            "type": "t_struct(PeriodWrapper)8684_storage"
          }
        ]
      },
      "t_struct(UserRewardFields)9539_storage": {
        "encoding": "inplace",
        "label": "struct IRewardPool.UserRewardFields",
        "numberOfBytes": "128",
        "members": [
          {
            "astId": 9532,
            "contract": "contracts/ronin/staking/Staking.sol:Staking",
            "label": "debited",
            "offset": 0,
            "slot": "0",
            "type": "t_uint256"
          },
          {
            "astId": 9534,
            "contract": "contracts/ronin/staking/Staking.sol:Staking",
            "label": "aRps",
            "offset": 0,
            "slot": "1",
            "type": "t_uint256"
          },
          {
            "astId": 9536,
            "contract": "contracts/ronin/staking/Staking.sol:Staking",
            "label": "lowestAmount",
            "offset": 0,
            "slot": "2",
            "type": "t_uint256"
          },
          {
            "astId": 9538,
            "contract": "contracts/ronin/staking/Staking.sol:Staking",
            "label": "lastPeriod",
            "offset": 0,
            "slot": "3",
            "type": "t_uint256"
          }
        ]
      },
      "t_uint256": {
        "encoding": "inplace",
        "label": "uint256",
        "numberOfBytes": "32"
      },
      "t_uint8": {
        "encoding": "inplace",
        "label": "uint8",
        "numberOfBytes": "1"
      }
    }
  },
  "timestamp": 1701579792,
  "userdoc": {
    "version": 1,
    "kind": "user"
  }
}