{
  "abi": [
    {
      "type": "constructor",
      "inputs": [
        {
          "name": "_logic",
          "type": "address",
          "internalType": "address"
        },
        {
          "name": "admin_",
          "type": "address",
          "internalType": "address"
        },
        {
          "name": "_data",
          "type": "bytes",
          "internalType": "bytes"
        }
      ],
      "stateMutability": "payable"
    },
    {
      "type": "fallback",
      "stateMutability": "payable"
    },
    {
      "type": "receive",
      "stateMutability": "payable"
    },
    {
      "type": "function",
      "name": "admin",
      "inputs": [],
      "outputs": [
        {
          "name": "admin_",
          "type": "address",
          "internalType": "address"
        }
      ],
      "stateMutability": "nonpayable"
    },
    {
      "type": "function",
      "name": "changeAdmin",
      "inputs": [
        {
          "name": "newAdmin",
          "type": "address",
          "internalType": "address"
        }
      ],
      "outputs": [],
      "stateMutability": "nonpayable"
    },
    {
      "type": "function",
      "name": "functionDelegateCall",
      "inputs": [
        {
          "name": "_data",
          "type": "bytes",
          "internalType": "bytes"
        }
      ],
      "outputs": [],
      "stateMutability": "payable"
    },
    {
      "type": "function",
      "name": "implementation",
      "inputs": [],
      "outputs": [
        {
          "name": "implementation_",
          "type": "address",
          "internalType": "address"
        }
      ],
      "stateMutability": "nonpayable"
    },
    {
      "type": "function",
      "name": "upgradeTo",
      "inputs": [
        {
          "name": "newImplementation",
          "type": "address",
          "internalType": "address"
        }
      ],
      "outputs": [],
      "stateMutability": "nonpayable"
    },
    {
      "type": "function",
      "name": "upgradeToAndCall",
      "inputs": [
        {
          "name": "newImplementation",
          "type": "address",
          "internalType": "address"
        },
        {
          "name": "data",
          "type": "bytes",
          "internalType": "bytes"
        }
      ],
      "outputs": [],
      "stateMutability": "payable"
    },
    {
      "type": "event",
      "name": "AdminChanged",
      "inputs": [
        {
          "name": "previousAdmin",
          "type": "address",
          "indexed": false,
          "internalType": "address"
        },
        {
          "name": "newAdmin",
          "type": "address",
          "indexed": false,
          "internalType": "address"
        }
      ],
      "anonymous": false
    },
    {
      "type": "event",
      "name": "BeaconUpgraded",
      "inputs": [
        {
          "name": "beacon",
          "type": "address",
          "indexed": true,
          "internalType": "address"
        }
      ],
      "anonymous": false
    },
    {
      "type": "event",
      "name": "Upgraded",
      "inputs": [
        {
          "name": "implementation",
          "type": "address",
          "indexed": true,
          "internalType": "address"
        }
      ],
      "anonymous": false
    }
  ],
  "address": "0xD55170cab263B56c563a9bEB56037846DFf8c2aE",
  "args": "0x",
  "blockNumber": 17359378,
  "bytecode": "0x608060405260405162000f7738038062000f7783398101604081905262000026916200041a565b8282828281620000398282600062000053565b506200004790508262000085565b5050505050506200054d565b6200005e83620000f7565b6000825111806200006c5750805b1562000080576200007e838362000139565b505b505050565b7f7e644d79422f17c01e4894b5f4f588d331ebfa28653d42ae832dc59e38c9798f620000c760008051602062000f30833981519152546001600160a01b031690565b604080516001600160a01b03928316815291841660208301520160405180910390a1620000f48162000168565b50565b620001028162000206565b6040516001600160a01b038216907fbc7cd75a20ee27fd9adebab32041f755214dbc6bffa90cc0225b39da2e5c2d3b90600090a250565b606062000161838360405180606001604052806027815260200162000f50602791396200029d565b9392505050565b6001600160a01b038116620001d35760405162461bcd60e51b815260206004820152602660248201527f455243313936373a206e65772061646d696e20697320746865207a65726f206160448201526564647265737360d01b60648201526084015b60405180910390fd5b8060008051602062000f308339815191525b80546001600160a01b0319166001600160a01b039290921691909117905550565b6001600160a01b0381163b620002755760405162461bcd60e51b815260206004820152602d60248201527f455243313936373a206e657720696d706c656d656e746174696f6e206973206e60448201526c1bdd08184818dbdb9d1c9858dd609a1b6064820152608401620001ca565b807f360894a13ba1a3210667c828492db98dca3e2076cc3735a920a3ca505d382bbc620001e5565b60606001600160a01b0384163b620003075760405162461bcd60e51b815260206004820152602660248201527f416464726573733a2064656c65676174652063616c6c20746f206e6f6e2d636f6044820152651b9d1c9858dd60d21b6064820152608401620001ca565b600080856001600160a01b031685604051620003249190620004fa565b600060405180830381855af49150503d806000811462000361576040519150601f19603f3d011682016040523d82523d6000602084013e62000366565b606091505b5090925090506200037982828662000383565b9695505050505050565b606083156200039457508162000161565b825115620003a55782518084602001fd5b8160405162461bcd60e51b8152600401620001ca919062000518565b80516001600160a01b0381168114620003d957600080fd5b919050565b634e487b7160e01b600052604160045260246000fd5b60005b8381101562000411578181015183820152602001620003f7565b50506000910152565b6000806000606084860312156200043057600080fd5b6200043b84620003c1565b92506200044b60208501620003c1565b60408501519092506001600160401b03808211156200046957600080fd5b818601915086601f8301126200047e57600080fd5b815181811115620004935762000493620003de565b604051601f8201601f19908116603f01168101908382118183101715620004be57620004be620003de565b81604052828152896020848701011115620004d857600080fd5b620004eb836020830160208801620003f4565b80955050505050509250925092565b600082516200050e818460208701620003f4565b9190910192915050565b602081526000825180602084015262000539816040850160208701620003f4565b601f01601f19169190910160400192915050565b6109d3806200055d6000396000f3fe6080604052600436106100695760003560e01c80635c60da1b116100435780635c60da1b146100c65780638f283970146100f7578063f851a4401461011757610078565b80633659cfe6146100805780634bb5274a146100a05780634f1ef286146100b357610078565b366100785761007661012c565b005b61007661012c565b34801561008c57600080fd5b5061007661009b366004610785565b610146565b6100766100ae3660046107cf565b610183565b6100766100c1366004610880565b6101c8565b3480156100d257600080fd5b506100db61022f565b6040516001600160a01b03909116815260200160405180910390f35b34801561010357600080fd5b50610076610112366004610785565b610260565b34801561012357600080fd5b506100db610280565b6101346102a1565b61014461013f610351565b61035b565b565b61014e61037a565b6001600160a01b0316330361017b57610178816040518060200160405280600081525060006103ad565b50565b61017861012c565b61018b61037a565b6001600160a01b0316330361017b5760006101a4610351565b9050600080835160208501845af43d6000803e8080156101c3573d6000f35b3d6000fd5b6101d061037a565b6001600160a01b03163303610227576102228383838080601f016020809104026020016040519081016040528093929190818152602001838380828437600092019190915250600192506103ad915050565b505050565b61022261012c565b600061023961037a565b6001600160a01b0316330361025557610250610351565b905090565b61025d61012c565b90565b61026861037a565b6001600160a01b0316330361017b57610178816103d8565b600061028a61037a565b6001600160a01b031633036102555761025061037a565b6102a961037a565b6001600160a01b031633036101445760405162461bcd60e51b815260206004820152604260248201527f5472616e73706172656e745570677261646561626c6550726f78793a2061646d60448201527f696e2063616e6e6f742066616c6c6261636b20746f2070726f7879207461726760648201527f6574000000000000000000000000000000000000000000000000000000000000608482015260a4015b60405180910390fd5b600061025061042c565b3660008037600080366000845af43d6000803e8080156101c3573d6000f35b60007fb53127684a568b3173ae13b9f8a6016e243e63b6e8ee1178d6a717850b5d61035b546001600160a01b0316919050565b6103b683610454565b6000825111806103c35750805b15610222576103d28383610494565b50505050565b7f7e644d79422f17c01e4894b5f4f588d331ebfa28653d42ae832dc59e38c9798f61040161037a565b604080516001600160a01b03928316815291841660208301520160405180910390a1610178816104c0565b60007f360894a13ba1a3210667c828492db98dca3e2076cc3735a920a3ca505d382bbc61039e565b61045d81610598565b6040516001600160a01b038216907fbc7cd75a20ee27fd9adebab32041f755214dbc6bffa90cc0225b39da2e5c2d3b90600090a250565b60606104b983836040518060600160405280602781526020016109776027913961063c565b9392505050565b6001600160a01b03811661053c5760405162461bcd60e51b815260206004820152602660248201527f455243313936373a206e65772061646d696e20697320746865207a65726f206160448201527f64647265737300000000000000000000000000000000000000000000000000006064820152608401610348565b807fb53127684a568b3173ae13b9f8a6016e243e63b6e8ee1178d6a717850b5d61035b80547fffffffffffffffffffffffff0000000000000000000000000000000000000000166001600160a01b039290921691909117905550565b6001600160a01b0381163b6106155760405162461bcd60e51b815260206004820152602d60248201527f455243313936373a206e657720696d706c656d656e746174696f6e206973206e60448201527f6f74206120636f6e7472616374000000000000000000000000000000000000006064820152608401610348565b807f360894a13ba1a3210667c828492db98dca3e2076cc3735a920a3ca505d382bbc61055f565b60606001600160a01b0384163b6106bb5760405162461bcd60e51b815260206004820152602660248201527f416464726573733a2064656c65676174652063616c6c20746f206e6f6e2d636f60448201527f6e747261637400000000000000000000000000000000000000000000000000006064820152608401610348565b600080856001600160a01b0316856040516106d69190610927565b600060405180830381855af49150503d8060008114610711576040519150601f19603f3d011682016040523d82523d6000602084013e610716565b606091505b5091509150610726828286610730565b9695505050505050565b6060831561073f5750816104b9565b82511561074f5782518084602001fd5b8160405162461bcd60e51b81526004016103489190610943565b80356001600160a01b038116811461078057600080fd5b919050565b60006020828403121561079757600080fd5b6104b982610769565b7f4e487b7100000000000000000000000000000000000000000000000000000000600052604160045260246000fd5b6000602082840312156107e157600080fd5b813567ffffffffffffffff808211156107f957600080fd5b818401915084601f83011261080d57600080fd5b81358181111561081f5761081f6107a0565b604051601f8201601f19908116603f01168101908382118183101715610847576108476107a0565b8160405282815287602084870101111561086057600080fd5b826020860160208301376000928101602001929092525095945050505050565b60008060006040848603121561089557600080fd5b61089e84610769565b9250602084013567ffffffffffffffff808211156108bb57600080fd5b818601915086601f8301126108cf57600080fd5b8135818111156108de57600080fd5b8760208285010111156108f057600080fd5b6020830194508093505050509250925092565b60005b8381101561091e578181015183820152602001610906565b50506000910152565b60008251610939818460208701610903565b9190910192915050565b6020815260008251806020840152610962816040850160208701610903565b601f01601f1916919091016040019291505056fe416464726573733a206c6f772d6c6576656c2064656c65676174652063616c6c206661696c6564a264697066735822122067160719b47af45c18cbc6219978c8601381e0ea9b04881b8009723a4d1e2fa764736f6c63430008150033b53127684a568b3173ae13b9f8a6016e243e63b6e8ee1178d6a717850b5d6103416464726573733a206c6f772d6c6576656c2064656c65676174652063616c6c206661696c6564",
  "chainId": 2022,
  "contractAbsolutePath": "TransparentUpgradeableProxyV2.sol:TransparentUpgradeableProxyV2",
  "deployer": "0x968D0Cd7343f711216817E617d3f92a23dC91c07",
  "devdoc": {
    "version": 1,
    "kind": "dev",
    "methods": {
      "admin()": {
        "details": "Returns the current admin. NOTE: Only the admin can call this function. See {ProxyAdmin-getProxyAdmin}. TIP: To get this value clients can read directly from the storage slot shown below (specified by EIP1967) using the https://eth.wiki/json-rpc/API#eth_getstorageat[`eth_getStorageAt`] RPC call. `0xb53127684a568b3173ae13b9f8a6016e243e63b6e8ee1178d6a717850b5d6103`"
      },
      "changeAdmin(address)": {
        "details": "Changes the admin of the proxy. Emits an {AdminChanged} event. NOTE: Only the admin can call this function. See {ProxyAdmin-changeProxyAdmin}."
      },
      "functionDelegateCall(bytes)": {
        "details": "Calls a function from the current implementation as specified by `_data`, which should be an encoded function call. Requirements: - Only the admin can call this function. Note: The proxy admin is not allowed to interact with the proxy logic through the fallback function to avoid triggering some unexpected logic. This is to allow the administrator to explicitly call the proxy, please consider reviewing the encoded data `_data` and the method which is called before using this."
      },
      "implementation()": {
        "details": "Returns the current implementation. NOTE: Only the admin can call this function. See {ProxyAdmin-getProxyImplementation}. TIP: To get this value clients can read directly from the storage slot shown below (specified by EIP1967) using the https://eth.wiki/json-rpc/API#eth_getstorageat[`eth_getStorageAt`] RPC call. `0x360894a13ba1a3210667c828492db98dca3e2076cc3735a920a3ca505d382bbc`"
      },
      "upgradeTo(address)": {
        "details": "Upgrade the implementation of the proxy. NOTE: Only the admin can call this function. See {ProxyAdmin-upgrade}."
      },
      "upgradeToAndCall(address,bytes)": {
        "details": "Upgrade the implementation of the proxy, and then call a function from the new implementation as specified by `data`, which should be an encoded function call. This is useful to initialize new storage variables in the proxied contract. NOTE: Only the admin can call this function. See {ProxyAdmin-upgradeAndCall}."
      }
    },
    "events": {
      "AdminChanged(address,address)": {
        "details": "Emitted when the admin account has changed."
      },
      "BeaconUpgraded(address)": {
        "details": "Emitted when the beacon is upgraded."
      },
      "Upgraded(address)": {
        "details": "Emitted when the implementation is upgraded."
      }
    }
  },
  "isFoundry": true,
  "nonce": 183807,
  "numDeployments": 1,
  "storageLayout": {
    "storage": [],
    "types": {}
  },
  "timestamp": 1701406986,
  "userdoc": {
    "version": 1,
    "kind": "user"
  }
}