{
  "abi": [
    {
      "type": "constructor",
      "inputs": [],
      "stateMutability": "nonpayable"
    },
    {
      "type": "function",
      "name": "getContract",
      "inputs": [
        {
          "name": "contractType",
          "type": "uint8",
          "internalType": "enum ContractType"
        }
      ],
      "outputs": [
        {
          "name": "contract_",
          "type": "address",
          "internalType": "address"
        }
      ],
      "stateMutability": "view"
    },
    {
      "type": "function",
      "name": "getManyFinalityVoteCounts",
      "inputs": [
        {
          "name": "epoch",
          "type": "uint256",
          "internalType": "uint256"
        },
        {
          "name": "addrs",
          "type": "address[]",
          "internalType": "TConsensus[]"
        }
      ],
      "outputs": [
        {
          "name": "voteCounts",
          "type": "uint256[]",
          "internalType": "uint256[]"
        }
      ],
      "stateMutability": "view"
    },
    {
      "type": "function",
      "name": "getManyFinalityVoteCountsById",
      "inputs": [
        {
          "name": "epoch",
          "type": "uint256",
          "internalType": "uint256"
        },
        {
          "name": "cids",
          "type": "address[]",
          "internalType": "address[]"
        }
      ],
      "outputs": [
        {
          "name": "voteCounts",
          "type": "uint256[]",
          "internalType": "uint256[]"
        }
      ],
      "stateMutability": "view"
    },
    {
      "type": "function",
      "name": "initialize",
      "inputs": [
        {
          "name": "validatorContract",
          "type": "address",
          "internalType": "address"
        }
      ],
      "outputs": [],
      "stateMutability": "nonpayable"
    },
    {
      "type": "function",
      "name": "initializeV2",
      "inputs": [
        {
          "name": "profileContract",
          "type": "address",
          "internalType": "address"
        }
      ],
      "outputs": [],
      "stateMutability": "nonpayable"
    },
    {
      "type": "function",
      "name": "latestTrackingBlock",
      "inputs": [],
      "outputs": [
        {
          "name": "",
          "type": "uint256",
          "internalType": "uint256"
        }
      ],
      "stateMutability": "view"
    },
    {
      "type": "function",
      "name": "recordFinality",
      "inputs": [
        {
          "name": "voters",
          "type": "address[]",
          "internalType": "TConsensus[]"
        }
      ],
      "outputs": [],
      "stateMutability": "nonpayable"
    },
    {
      "type": "function",
      "name": "setContract",
      "inputs": [
        {
          "name": "contractType",
          "type": "uint8",
          "internalType": "enum ContractType"
        },
        {
          "name": "addr",
          "type": "address",
          "internalType": "address"
        }
      ],
      "outputs": [],
      "stateMutability": "nonpayable"
    },
    {
      "type": "event",
      "name": "ContractUpdated",
      "inputs": [
        {
          "name": "contractType",
          "type": "uint8",
          "indexed": true,
          "internalType": "enum ContractType"
        },
        {
          "name": "addr",
          "type": "address",
          "indexed": true,
          "internalType": "address"
        }
      ],
      "anonymous": false
    },
    {
      "type": "event",
      "name": "Initialized",
      "inputs": [
        {
          "name": "version",
          "type": "uint8",
          "indexed": false,
          "internalType": "uint8"
        }
      ],
      "anonymous": false
    },
    {
      "type": "error",
      "name": "ErrCallerMustBeCoinbase",
      "inputs": []
    },
    {
      "type": "error",
      "name": "ErrContractTypeNotFound",
      "inputs": [
        {
          "name": "contractType",
          "type": "uint8",
          "internalType": "enum ContractType"
        }
      ]
    },
    {
      "type": "error",
      "name": "ErrOncePerBlock",
      "inputs": []
    },
    {
      "type": "error",
      "name": "ErrUnauthorized",
      "inputs": [
        {
          "name": "msgSig",
          "type": "bytes4",
          "internalType": "bytes4"
        },
        {
          "name": "expectedRole",
          "type": "uint8",
          "internalType": "enum RoleAccess"
        }
      ]
    },
    {
      "type": "error",
      "name": "ErrZeroCodeContract",
      "inputs": [
        {
          "name": "addr",
          "type": "address",
          "internalType": "address"
        }
      ]
    }
  ],
  "address": "0x661592D402525F61C7a2f684D3EC0d014f9c5720",
  "args": "0x",
  "blockNumber": 25192039,
  "bytecode": "0x608060405234801561001057600080fd5b5061001961001e565b6100de565b600054610100900460ff161561008a5760405162461bcd60e51b815260206004820152602760248201527f496e697469616c697a61626c653a20636f6e747261637420697320696e697469604482015266616c697a696e6760c81b606482015260840160405180910390fd5b60005460ff90811610156100dc576000805460ff191660ff9081179091556040519081527f7f26b83ff96e1f2b6a682f133852f6798a09c465da95921460cefb38474024989060200160405180910390a15b565b610dd4806100ed6000396000f3fe608060405234801561001057600080fd5b50600436106100885760003560e01c8063be3f21fb1161005b578063be3f21fb146100ef578063c245db0f14610102578063c4d66de814610115578063de981f1b1461012857600080fd5b806329b6eca91461008d578063468d24be146100a25780634e3094d4146100cb578063865e6fd3146100dc575b600080fd5b6100a061009b36600461093e565b610153565b005b6100b56100b03660046109ae565b610251565b6040516100c291906109fa565b60405180910390f35b6002546040519081526020016100c2565b6100a06100ea366004610a4d565b6102a6565b6100b56100fd366004610aef565b6102c5565b6100a0610110366004610b9a565b610397565b6100a061012336600461093e565b61055b565b61013b610136366004610bdc565b610677565b6040516001600160a01b0390911681526020016100c2565b600054600290610100900460ff16158015610175575060005460ff8083169116105b6101ec5760405162461bcd60e51b815260206004820152602e60248201527f496e697469616c697a61626c653a20636f6e747261637420697320616c72656160448201527f647920696e697469616c697a656400000000000000000000000000000000000060648201526084015b60405180910390fd5b6000805461ffff191660ff83161761010017905561020b600f8361070b565b6000805461ff001916905560405160ff821681527f7f26b83ff96e1f2b6a682f133852f6798a09c465da95921460cefb3847402498906020015b60405180910390a15050565b606060006102918484808060200260200160405190810160405280939291908181526020018383602002808284376000920191909152506107c792505050565b905061029d85826102c5565b95945050505050565b6102ae610849565b6102b7816108d7565b6102c1828261070b565b5050565b80516060908067ffffffffffffffff8111156102e3576102e3610a84565b60405190808252806020026020018201604052801561030c578160200160208202803683370190505b50915060005b8181101561038f5760016000868152602001908152602001600020600085838151811061034157610341610bf7565b60200260200101516001600160a01b03166001600160a01b031681526020019081526020016000205483828151811061037c5761037c610bf7565b6020908102919091010152600101610312565b505092915050565b60025443116103d2576040517f6907b55f00000000000000000000000000000000000000000000000000000000815260040160405180910390fd5b4360025533411461040f576040517f09f358fd00000000000000000000000000000000000000000000000000000000815260040160405180910390fd5b600061041b6008610677565b6040517fa3d545f50000000000000000000000000000000000000000000000000000000081524360048201526001600160a01b03919091169063a3d545f590602401602060405180830381865afa15801561047a573d6000803e3d6000fd5b505050506040513d601f19601f8201168201806040525081019061049e9190610c0d565b905060006104de8484808060200260200160405190810160405280939291908181526020018383602002808284376000920191909152506107c792505050565b905060005b81518110156105545760016000848152602001908152602001600020600083838151811061051357610513610bf7565b60200260200101516001600160a01b03166001600160a01b031681526020019081526020016000206000815461054890610c26565b909155506001016104e3565b5050505050565b600054610100900460ff161580801561057b5750600054600160ff909116105b806105955750303b158015610595575060005460ff166001145b6106075760405162461bcd60e51b815260206004820152602e60248201527f496e697469616c697a61626c653a20636f6e747261637420697320616c72656160448201527f647920696e697469616c697a656400000000000000000000000000000000000060648201526084016101e3565b6000805460ff19166001179055801561062a576000805461ff0019166101001790555b61063560088361070b565b80156102c1576000805461ff0019169055604051600181527f7f26b83ff96e1f2b6a682f133852f6798a09c465da95921460cefb384740249890602001610245565b60007fdea3103d22025c269050bea94c0c84688877f12fa22b7e6d2d5d78a9a49aa1cb600083600f8111156106ae576106ae610c4d565b60ff1681526020810191909152604001600020546001600160a01b031690508061070657816040517f812281be0000000000000000000000000000000000000000000000000000000081526004016101e39190610c63565b919050565b807fdea3103d22025c269050bea94c0c84688877f12fa22b7e6d2d5d78a9a49aa1cb600084600f81111561074157610741610c4d565b60ff168152602081019190915260400160002080547fffffffffffffffffffffffff0000000000000000000000000000000000000000166001600160a01b03928316179055811682600f81111561079a5761079a610c4d565b6040517f865d1c228a8ea13709cfe61f346f7ff67f1bbd4a18ff31ad3e7147350d317c5990600090a35050565b60606107d3600f610677565b6001600160a01b031663f9226b1a836040518263ffffffff1660e01b81526004016107fe9190610c7d565b600060405180830381865afa15801561081b573d6000803e3d6000fd5b505050506040513d6000823e601f3d908101601f191682016040526108439190810190610cbe565b92915050565b7fb53127684a568b3173ae13b9f8a6016e243e63b6e8ee1178d6a717850b5d6103546001600160a01b031633146108d5576000357fffffffff000000000000000000000000000000000000000000000000000000001660016040517f3e523c000000000000000000000000000000000000000000000000000000000081526004016101e3929190610d58565b565b806001600160a01b03163b600003610926576040517f2ff1928c0000000000000000000000000000000000000000000000000000000081526001600160a01b03821660048201526024016101e3565b50565b6001600160a01b038116811461092657600080fd5b60006020828403121561095057600080fd5b813561095b81610929565b9392505050565b60008083601f84011261097457600080fd5b50813567ffffffffffffffff81111561098c57600080fd5b6020830191508360208260051b85010111156109a757600080fd5b9250929050565b6000806000604084860312156109c357600080fd5b83359250602084013567ffffffffffffffff8111156109e157600080fd5b6109ed86828701610962565b9497909650939450505050565b6020808252825182820181905260009190848201906040850190845b81811015610a3257835183529284019291840191600101610a16565b50909695505050505050565b80356010811061070657600080fd5b60008060408385031215610a6057600080fd5b610a6983610a3e565b91506020830135610a7981610929565b809150509250929050565b634e487b7160e01b600052604160045260246000fd5b604051601f8201601f1916810167ffffffffffffffff81118282101715610ac357610ac3610a84565b604052919050565b600067ffffffffffffffff821115610ae557610ae5610a84565b5060051b60200190565b60008060408385031215610b0257600080fd5b8235915060208084013567ffffffffffffffff811115610b2157600080fd5b8401601f81018613610b3257600080fd5b8035610b45610b4082610acb565b610a9a565b81815260059190911b82018301908381019088831115610b6457600080fd5b928401925b82841015610b8b578335610b7c81610929565b82529284019290840190610b69565b80955050505050509250929050565b60008060208385031215610bad57600080fd5b823567ffffffffffffffff811115610bc457600080fd5b610bd085828601610962565b90969095509350505050565b600060208284031215610bee57600080fd5b61095b82610a3e565b634e487b7160e01b600052603260045260246000fd5b600060208284031215610c1f57600080fd5b5051919050565b600060018201610c4657634e487b7160e01b600052601160045260246000fd5b5060010190565b634e487b7160e01b600052602160045260246000fd5b6020810160108310610c7757610c77610c4d565b91905290565b6020808252825182820181905260009190848201906040850190845b81811015610a325783516001600160a01b031683529284019291840191600101610c99565b60006020808385031215610cd157600080fd5b825167ffffffffffffffff811115610ce857600080fd5b8301601f81018513610cf957600080fd5b8051610d07610b4082610acb565b81815260059190911b82018301908381019087831115610d2657600080fd5b928401925b82841015610d4d578351610d3e81610929565b82529284019290840190610d2b565b979650505050505050565b7fffffffff000000000000000000000000000000000000000000000000000000008316815260408101600b8310610d9157610d91610c4d565b826020830152939250505056fea2646970667358221220107b2cbc5420e2fcb71d400b469061d763e2852353007d223b16640551d9055064736f6c63430008160033",
  "chainId": 2021,
  "contractAbsolutePath": "FastFinalityTracking.sol",
  "deployer": "0x31762cdd4Aa65CD6f5F09D7a05a56211720A1168",
  "devdoc": {
    "version": 1,
    "kind": "dev",
    "methods": {
      "getContract(uint8)": {
        "details": "Returns the address of a contract with a specific role. Throws an error if no contract is set for the specified role.",
        "params": {
          "contractType": "The role of the contract to retrieve."
        },
        "returns": {
          "contract_": "The address of the contract with the specified role."
        }
      },
      "getManyFinalityVoteCounts(uint256,address[])": {
        "details": "Returns vote count of `addrs` in the `period`."
      },
      "getManyFinalityVoteCountsById(uint256,address[])": {
        "details": "Returns vote count of `cids` in the `period`."
      },
      "latestTrackingBlock()": {
        "details": "Getter of `_latestTrackingBlock`"
      },
      "recordFinality(address[])": {
        "details": "Submit list of `voters` who vote for fast finality in the current block. Requirements: - Only called once per block - Only coinbase can call this method"
      },
      "setContract(uint8,address)": {
        "details": "Sets the address of a contract with a specific role. Emits the event {ContractUpdated}.",
        "params": {
          "addr": "The address of the contract to set.",
          "contractType": "The role of the contract to set."
        }
      }
    },
    "events": {
      "ContractUpdated(uint8,address)": {
        "details": "Emitted when a contract is updated."
      },
      "Initialized(uint8)": {
        "details": "Triggered when the contract has been initialized or reinitialized."
      }
    },
    "errors": {
      "ErrCallerMustBeCoinbase()": [
        {
          "details": "Error of method caller must be coinbase"
        }
      ],
      "ErrContractTypeNotFound(uint8)": [
        {
          "details": "Error of invalid role."
        }
      ],
      "ErrOncePerBlock()": [
        {
          "details": "Error indicating that the method is only called once per block."
        }
      ],
      "ErrUnauthorized(bytes4,uint8)": [
        {
          "details": "Error indicating that the caller is unauthorized to perform a specific function.",
          "params": {
            "expectedRole": "The role required to perform the function.",
            "msgSig": "The function signature (bytes4) that the caller is unauthorized to perform."
          }
        }
      ],
      "ErrZeroCodeContract(address)": [
        {
          "details": "Error of set to non-contract."
        }
      ]
    }
  },
  "isFoundry": true,
  "nonce": 44,
  "numDeployments": 7,
  "storageLayout": {
    "storage": [
      {
        "astId": 149866,
        "contract": "contracts/ronin/fast-finality/FastFinalityTracking.sol:FastFinalityTracking",
        "label": "_initialized",
        "offset": 0,
        "slot": "0",
        "type": "t_uint8"
      },
      {
        "astId": 149869,
        "contract": "contracts/ronin/fast-finality/FastFinalityTracking.sol:FastFinalityTracking",
        "label": "_initializing",
        "offset": 1,
        "slot": "0",
        "type": "t_bool"
      },
      {
        "astId": 20536,
        "contract": "contracts/ronin/fast-finality/FastFinalityTracking.sol:FastFinalityTracking",
        "label": "_tracker",
        "offset": 0,
        "slot": "1",
        "type": "t_mapping(t_uint256,t_mapping(t_address,t_uint256))"
      },
      {
        "astId": 20539,
        "contract": "contracts/ronin/fast-finality/FastFinalityTracking.sol:FastFinalityTracking",
        "label": "_latestTrackingBlock",
        "offset": 0,
        "slot": "2",
        "type": "t_uint256"
      }
    ],
    "types": {
      "t_address": {
        "encoding": "inplace",
        "label": "address",
        "numberOfBytes": "20"
      },
      "t_bool": {
        "encoding": "inplace",
        "label": "bool",
        "numberOfBytes": "1"
      },
      "t_mapping(t_address,t_uint256)": {
        "encoding": "mapping",
        "key": "t_address",
        "label": "mapping(address => uint256)",
        "numberOfBytes": "32",
        "value": "t_uint256"
      },
      "t_mapping(t_uint256,t_mapping(t_address,t_uint256))": {
        "encoding": "mapping",
        "key": "t_uint256",
        "label": "mapping(uint256 => mapping(address => uint256))",
        "numberOfBytes": "32",
        "value": "t_mapping(t_address,t_uint256)"
      },
      "t_uint256": {
        "encoding": "inplace",
        "label": "uint256",
        "numberOfBytes": "32"
      },
      "t_uint8": {
        "encoding": "inplace",
        "label": "uint8",
        "numberOfBytes": "1"
      }
    }
  },
  "timestamp": 1709279711,
  "userdoc": {
    "version": 1,
    "kind": "user"
  }
}