{
  "abi": [
    {
      "type": "constructor",
      "inputs": [],
      "stateMutability": "nonpayable"
    },
    {
      "type": "function",
      "name": "getContract",
      "inputs": [
        {
          "name": "contractType",
          "type": "uint8",
          "internalType": "enum ContractType"
        }
      ],
      "outputs": [
        {
          "name": "contract_",
          "type": "address",
          "internalType": "address"
        }
      ],
      "stateMutability": "view"
    },
    {
      "type": "function",
      "name": "getManyFinalityVoteCounts",
      "inputs": [
        {
          "name": "epoch",
          "type": "uint256",
          "internalType": "uint256"
        },
        {
          "name": "addrs",
          "type": "address[]",
          "internalType": "address[]"
        }
      ],
      "outputs": [
        {
          "name": "voteCounts",
          "type": "uint256[]",
          "internalType": "uint256[]"
        }
      ],
      "stateMutability": "view"
    },
    {
      "type": "function",
      "name": "initialize",
      "inputs": [
        {
          "name": "validatorContract",
          "type": "address",
          "internalType": "address"
        }
      ],
      "outputs": [],
      "stateMutability": "nonpayable"
    },
    {
      "type": "function",
      "name": "recordFinality",
      "inputs": [
        {
          "name": "voters",
          "type": "address[]",
          "internalType": "address[]"
        }
      ],
      "outputs": [],
      "stateMutability": "nonpayable"
    },
    {
      "type": "function",
      "name": "setContract",
      "inputs": [
        {
          "name": "contractType",
          "type": "uint8",
          "internalType": "enum ContractType"
        },
        {
          "name": "addr",
          "type": "address",
          "internalType": "address"
        }
      ],
      "outputs": [],
      "stateMutability": "nonpayable"
    },
    {
      "type": "event",
      "name": "ContractUpdated",
      "inputs": [
        {
          "name": "contractType",
          "type": "uint8",
          "indexed": true,
          "internalType": "enum ContractType"
        },
        {
          "name": "addr",
          "type": "address",
          "indexed": true,
          "internalType": "address"
        }
      ],
      "anonymous": false
    },
    {
      "type": "event",
      "name": "Initialized",
      "inputs": [
        {
          "name": "version",
          "type": "uint8",
          "indexed": false,
          "internalType": "uint8"
        }
      ],
      "anonymous": false
    },
    {
      "type": "error",
      "name": "ErrCallerMustBeCoinbase",
      "inputs": []
    },
    {
      "type": "error",
      "name": "ErrContractTypeNotFound",
      "inputs": [
        {
          "name": "contractType",
          "type": "uint8",
          "internalType": "enum ContractType"
        }
      ]
    },
    {
      "type": "error",
      "name": "ErrOncePerBlock",
      "inputs": []
    },
    {
      "type": "error",
      "name": "ErrUnauthorized",
      "inputs": [
        {
          "name": "msgSig",
          "type": "bytes4",
          "internalType": "bytes4"
        },
        {
          "name": "expectedRole",
          "type": "uint8",
          "internalType": "enum RoleAccess"
        }
      ]
    },
    {
      "type": "error",
      "name": "ErrZeroCodeContract",
      "inputs": [
        {
          "name": "addr",
          "type": "address",
          "internalType": "address"
        }
      ]
    }
  ],
  "address": "0xC2cb024747e86a05A2d2839Dd02ceb78f939F983",
  "args": "0x",
  "blockNumber": 23722890,
  "bytecode": "0x608060405234801561001057600080fd5b5061001961001e565b6100de565b600054610100900460ff161561008a5760405162461bcd60e51b815260206004820152602760248201527f496e697469616c697a61626c653a20636f6e747261637420697320696e697469604482015266616c697a696e6760c81b606482015260840160405180910390fd5b60005460ff90811610156100dc576000805460ff191660ff9081179091556040519081527f7f26b83ff96e1f2b6a682f133852f6798a09c465da95921460cefb38474024989060200160405180910390a15b565b610982806100ed6000396000f3fe608060405234801561001057600080fd5b50600436106100675760003560e01c8063c245db0f11610050578063c245db0f146100aa578063c4d66de8146100bd578063de981f1b146100d057600080fd5b8063468d24be1461006c578063865e6fd314610095575b600080fd5b61007f61007a366004610729565b6100fb565b60405161008c9190610775565b60405180910390f35b6100a86100a33660046107df565b6101d3565b005b6100a86100b8366004610812565b6101f2565b6100a86100cb366004610854565b61036b565b6100e36100de366004610876565b6104ad565b6040516001600160a01b03909116815260200161008c565b6060818067ffffffffffffffff81111561011757610117610891565b604051908082528060200260200182016040528015610140578160200160208202803683370190505b50915060005b818110156101ca5760008681526001602052604081209086868481811061016f5761016f6108a7565b90506020020160208101906101849190610854565b6001600160a01b03166001600160a01b03168152602001908152602001600020548382815181106101b7576101b76108a7565b6020908102919091010152600101610146565b50509392505050565b6101db610541565b6101e4816105cf565b6101ee8282610621565b5050565b600254431161022d576040517f6907b55f00000000000000000000000000000000000000000000000000000000815260040160405180910390fd5b4360025533411461026a576040517f09f358fd00000000000000000000000000000000000000000000000000000000815260040160405180910390fd5b600061027660086104ad565b6040517fa3d545f50000000000000000000000000000000000000000000000000000000081524360048201526001600160a01b03919091169063a3d545f590602401602060405180830381865afa1580156102d5573d6000803e3d6000fd5b505050506040513d601f19601f820116820180604052508101906102f991906108bd565b905060005b8281101561036557600082815260016020526040812090858584818110610327576103276108a7565b905060200201602081019061033c9190610854565b6001600160a01b03168152602081019190915260400160002080546001908101909155016102fe565b50505050565b600054610100900460ff161580801561038b5750600054600160ff909116105b806103a55750303b1580156103a5575060005460ff166001145b610436576040517f08c379a000000000000000000000000000000000000000000000000000000000815260206004820152602e60248201527f496e697469616c697a61626c653a20636f6e747261637420697320616c72656160448201527f647920696e697469616c697a656400000000000000000000000000000000000060648201526084015b60405180910390fd5b6000805460ff191660011790558015610459576000805461ff0019166101001790555b610464600883610621565b80156101ee576000805461ff0019169055604051600181527f7f26b83ff96e1f2b6a682f133852f6798a09c465da95921460cefb38474024989060200160405180910390a15050565b60007fdea3103d22025c269050bea94c0c84688877f12fa22b7e6d2d5d78a9a49aa1cb600083600f8111156104e4576104e46108d6565b60ff1681526020810191909152604001600020546001600160a01b031690508061053c57816040517f812281be00000000000000000000000000000000000000000000000000000000815260040161042d91906108ec565b919050565b7fb53127684a568b3173ae13b9f8a6016e243e63b6e8ee1178d6a717850b5d6103546001600160a01b031633146105cd576000357fffffffff000000000000000000000000000000000000000000000000000000001660016040517f3e523c0000000000000000000000000000000000000000000000000000000000815260040161042d929190610906565b565b806001600160a01b03163b60000361061e576040517f2ff1928c0000000000000000000000000000000000000000000000000000000081526001600160a01b038216600482015260240161042d565b50565b807fdea3103d22025c269050bea94c0c84688877f12fa22b7e6d2d5d78a9a49aa1cb600084600f811115610657576106576108d6565b60ff168152602081019190915260400160002080547fffffffffffffffffffffffff0000000000000000000000000000000000000000166001600160a01b03928316179055811682600f8111156106b0576106b06108d6565b6040517f865d1c228a8ea13709cfe61f346f7ff67f1bbd4a18ff31ad3e7147350d317c5990600090a35050565b60008083601f8401126106ef57600080fd5b50813567ffffffffffffffff81111561070757600080fd5b6020830191508360208260051b850101111561072257600080fd5b9250929050565b60008060006040848603121561073e57600080fd5b83359250602084013567ffffffffffffffff81111561075c57600080fd5b610768868287016106dd565b9497909650939450505050565b6020808252825182820181905260009190848201906040850190845b818110156107ad57835183529284019291840191600101610791565b50909695505050505050565b80356010811061053c57600080fd5b80356001600160a01b038116811461053c57600080fd5b600080604083850312156107f257600080fd5b6107fb836107b9565b9150610809602084016107c8565b90509250929050565b6000806020838503121561082557600080fd5b823567ffffffffffffffff81111561083c57600080fd5b610848858286016106dd565b90969095509350505050565b60006020828403121561086657600080fd5b61086f826107c8565b9392505050565b60006020828403121561088857600080fd5b61086f826107b9565b634e487b7160e01b600052604160045260246000fd5b634e487b7160e01b600052603260045260246000fd5b6000602082840312156108cf57600080fd5b5051919050565b634e487b7160e01b600052602160045260246000fd5b6020810160108310610900576109006108d6565b91905290565b7fffffffff000000000000000000000000000000000000000000000000000000008316815260408101600b831061093f5761093f6108d6565b826020830152939250505056fea2646970667358221220a258427a45f565b922a75f348c9644e8246c2203addabcfb71d50df9495ba50f64736f6c63430008160033",
  "chainId": 2021,
  "contractAbsolutePath": "FastFinalityTracking.sol",
  "deployer": "0x31762cdd4Aa65CD6f5F09D7a05a56211720A1168",
  "devdoc": {
    "version": 1,
    "kind": "dev",
    "methods": {
      "getContract(uint8)": {
        "details": "Returns the address of a contract with a specific role. Throws an error if no contract is set for the specified role.",
        "params": {
          "contractType": "The role of the contract to retrieve."
        },
        "returns": {
          "contract_": "The address of the contract with the specified role."
        }
      },
      "getManyFinalityVoteCounts(uint256,address[])": {
        "details": "Returns vote count of `addrs` in the `period`."
      },
      "recordFinality(address[])": {
        "details": "Submit list of `voters` who vote for fast finality in the current block. Requirements: - Only called once per block - Only coinbase can call this method"
      },
      "setContract(uint8,address)": {
        "details": "Sets the address of a contract with a specific role. Emits the event {ContractUpdated}.",
        "params": {
          "addr": "The address of the contract to set.",
          "contractType": "The role of the contract to set."
        }
      }
    },
    "events": {
      "ContractUpdated(uint8,address)": {
        "details": "Emitted when a contract is updated."
      },
      "Initialized(uint8)": {
        "details": "Triggered when the contract has been initialized or reinitialized."
      }
    },
    "errors": {
      "ErrCallerMustBeCoinbase()": [
        {
          "details": "Error of method caller must be coinbase"
        }
      ],
      "ErrContractTypeNotFound(uint8)": [
        {
          "details": "Error of invalid role."
        }
      ],
      "ErrOncePerBlock()": [
        {
          "details": "Error indicating that the method is only called once per block."
        }
      ],
      "ErrUnauthorized(bytes4,uint8)": [
        {
          "details": "Error indicating that the caller is unauthorized to perform a specific function.",
          "params": {
            "expectedRole": "The role required to perform the function.",
            "msgSig": "The function signature (bytes4) that the caller is unauthorized to perform."
          }
        }
      ],
      "ErrZeroCodeContract(address)": [
        {
          "details": "Error of set to non-contract."
        }
      ]
    }
  },
  "isFoundry": true,
  "nonce": 0,
  "numDeployments": 2,
  "storageLayout": {
    "storage": [
      {
        "astId": 149757,
        "contract": "contracts/ronin/fast-finality/FastFinalityTracking.sol:FastFinalityTracking",
        "label": "_initialized",
        "offset": 0,
        "slot": "0",
        "type": "t_uint8"
      },
      {
        "astId": 149760,
        "contract": "contracts/ronin/fast-finality/FastFinalityTracking.sol:FastFinalityTracking",
        "label": "_initializing",
        "offset": 1,
        "slot": "0",
        "type": "t_bool"
      },
      {
        "astId": 22696,
        "contract": "contracts/ronin/fast-finality/FastFinalityTracking.sol:FastFinalityTracking",
        "label": "_tracker",
        "offset": 0,
        "slot": "1",
        "type": "t_mapping(t_uint256,t_mapping(t_address,t_uint256))"
      },
      {
        "astId": 22699,
        "contract": "contracts/ronin/fast-finality/FastFinalityTracking.sol:FastFinalityTracking",
        "label": "_latestTrackingBlock",
        "offset": 0,
        "slot": "2",
        "type": "t_uint256"
      }
    ],
    "types": {
      "t_address": {
        "encoding": "inplace",
        "label": "address",
        "numberOfBytes": "20"
      },
      "t_bool": {
        "encoding": "inplace",
        "label": "bool",
        "numberOfBytes": "1"
      },
      "t_mapping(t_address,t_uint256)": {
        "encoding": "mapping",
        "key": "t_address",
        "label": "mapping(address => uint256)",
        "numberOfBytes": "32",
        "value": "t_uint256"
      },
      "t_mapping(t_uint256,t_mapping(t_address,t_uint256))": {
        "encoding": "mapping",
        "key": "t_uint256",
        "label": "mapping(uint256 => mapping(address => uint256))",
        "numberOfBytes": "32",
        "value": "t_mapping(t_address,t_uint256)"
      },
      "t_uint256": {
        "encoding": "inplace",
        "label": "uint256",
        "numberOfBytes": "32"
      },
      "t_uint8": {
        "encoding": "inplace",
        "label": "uint8",
        "numberOfBytes": "1"
      }
    }
  },
  "timestamp": 1704868902,
  "userdoc": {
    "version": 1,
    "kind": "user"
  }
}