{
  "abi": [
    {
      "type": "constructor",
      "inputs": [],
      "stateMutability": "nonpayable"
    },
    {
      "type": "function",
      "name": "cancelSchedule",
      "inputs": [
        {
          "name": "consensusAddr",
          "type": "address",
          "internalType": "TConsensus"
        }
      ],
      "outputs": [],
      "stateMutability": "nonpayable"
    },
    {
      "type": "function",
      "name": "checkCooldownEnded",
      "inputs": [
        {
          "name": "consensusAddr",
          "type": "address",
          "internalType": "TConsensus"
        }
      ],
      "outputs": [
        {
          "name": "",
          "type": "bool",
          "internalType": "bool"
        }
      ],
      "stateMutability": "view"
    },
    {
      "type": "function",
      "name": "checkMaintained",
      "inputs": [
        {
          "name": "consensusAddr",
          "type": "address",
          "internalType": "TConsensus"
        },
        {
          "name": "atBlock",
          "type": "uint256",
          "internalType": "uint256"
        }
      ],
      "outputs": [
        {
          "name": "",
          "type": "bool",
          "internalType": "bool"
        }
      ],
      "stateMutability": "view"
    },
    {
      "type": "function",
      "name": "checkMaintainedById",
      "inputs": [
        {
          "name": "candidateId",
          "type": "address",
          "internalType": "address"
        },
        {
          "name": "atBlock",
          "type": "uint256",
          "internalType": "uint256"
        }
      ],
      "outputs": [
        {
          "name": "",
          "type": "bool",
          "internalType": "bool"
        }
      ],
      "stateMutability": "view"
    },
    {
      "type": "function",
      "name": "checkMaintainedInBlockRange",
      "inputs": [
        {
          "name": "consensusAddr",
          "type": "address",
          "internalType": "TConsensus"
        },
        {
          "name": "fromBlock",
          "type": "uint256",
          "internalType": "uint256"
        },
        {
          "name": "toBlock",
          "type": "uint256",
          "internalType": "uint256"
        }
      ],
      "outputs": [
        {
          "name": "",
          "type": "bool",
          "internalType": "bool"
        }
      ],
      "stateMutability": "view"
    },
    {
      "type": "function",
      "name": "checkManyMaintained",
      "inputs": [
        {
          "name": "addrList",
          "type": "address[]",
          "internalType": "TConsensus[]"
        },
        {
          "name": "atBlock",
          "type": "uint256",
          "internalType": "uint256"
        }
      ],
      "outputs": [
        {
          "name": "",
          "type": "bool[]",
          "internalType": "bool[]"
        }
      ],
      "stateMutability": "view"
    },
    {
      "type": "function",
      "name": "checkManyMaintainedById",
      "inputs": [
        {
          "name": "idList",
          "type": "address[]",
          "internalType": "address[]"
        },
        {
          "name": "atBlock",
          "type": "uint256",
          "internalType": "uint256"
        }
      ],
      "outputs": [
        {
          "name": "",
          "type": "bool[]",
          "internalType": "bool[]"
        }
      ],
      "stateMutability": "view"
    },
    {
      "type": "function",
      "name": "checkManyMaintainedInBlockRange",
      "inputs": [
        {
          "name": "addrList",
          "type": "address[]",
          "internalType": "TConsensus[]"
        },
        {
          "name": "fromBlock",
          "type": "uint256",
          "internalType": "uint256"
        },
        {
          "name": "toBlock",
          "type": "uint256",
          "internalType": "uint256"
        }
      ],
      "outputs": [
        {
          "name": "",
          "type": "bool[]",
          "internalType": "bool[]"
        }
      ],
      "stateMutability": "view"
    },
    {
      "type": "function",
      "name": "checkManyMaintainedInBlockRangeById",
      "inputs": [
        {
          "name": "idList",
          "type": "address[]",
          "internalType": "address[]"
        },
        {
          "name": "fromBlock",
          "type": "uint256",
          "internalType": "uint256"
        },
        {
          "name": "toBlock",
          "type": "uint256",
          "internalType": "uint256"
        }
      ],
      "outputs": [
        {
          "name": "",
          "type": "bool[]",
          "internalType": "bool[]"
        }
      ],
      "stateMutability": "view"
    },
    {
      "type": "function",
      "name": "checkScheduled",
      "inputs": [
        {
          "name": "consensusAddr",
          "type": "address",
          "internalType": "TConsensus"
        }
      ],
      "outputs": [
        {
          "name": "",
          "type": "bool",
          "internalType": "bool"
        }
      ],
      "stateMutability": "view"
    },
    {
      "type": "function",
      "name": "cooldownSecsToMaintain",
      "inputs": [],
      "outputs": [
        {
          "name": "",
          "type": "uint256",
          "internalType": "uint256"
        }
      ],
      "stateMutability": "view"
    },
    {
      "type": "function",
      "name": "exitMaintenance",
      "inputs": [
        {
          "name": "consensusAddr",
          "type": "address",
          "internalType": "TConsensus"
        }
      ],
      "outputs": [],
      "stateMutability": "nonpayable"
    },
    {
      "type": "function",
      "name": "getContract",
      "inputs": [
        {
          "name": "contractType",
          "type": "uint8",
          "internalType": "enum ContractType"
        }
      ],
      "outputs": [
        {
          "name": "contract_",
          "type": "address",
          "internalType": "address"
        }
      ],
      "stateMutability": "view"
    },
    {
      "type": "function",
      "name": "getSchedule",
      "inputs": [
        {
          "name": "consensusAddr",
          "type": "address",
          "internalType": "TConsensus"
        }
      ],
      "outputs": [
        {
          "name": "",
          "type": "tuple",
          "internalType": "struct IMaintenance.Schedule",
          "components": [
            {
              "name": "from",
              "type": "uint256",
              "internalType": "uint256"
            },
            {
              "name": "to",
              "type": "uint256",
              "internalType": "uint256"
            },
            {
              "name": "lastUpdatedBlock",
              "type": "uint256",
              "internalType": "uint256"
            },
            {
              "name": "requestTimestamp",
              "type": "uint256",
              "internalType": "uint256"
            }
          ]
        }
      ],
      "stateMutability": "view"
    },
    {
      "type": "function",
      "name": "initialize",
      "inputs": [
        {
          "name": "validatorContract",
          "type": "address",
          "internalType": "address"
        },
        {
          "name": "minMaintenanceDurationInBlock_",
          "type": "uint256",
          "internalType": "uint256"
        },
        {
          "name": "maxMaintenanceDurationInBlock_",
          "type": "uint256",
          "internalType": "uint256"
        },
        {
          "name": "minOffsetToStartSchedule_",
          "type": "uint256",
          "internalType": "uint256"
        },
        {
          "name": "maxOffsetToStartSchedule_",
          "type": "uint256",
          "internalType": "uint256"
        },
        {
          "name": "maxSchedule_",
          "type": "uint256",
          "internalType": "uint256"
        },
        {
          "name": "cooldownSecsToMaintain_",
          "type": "uint256",
          "internalType": "uint256"
        }
      ],
      "outputs": [],
      "stateMutability": "nonpayable"
    },
    {
      "type": "function",
      "name": "initializeV2",
      "inputs": [],
      "outputs": [],
      "stateMutability": "nonpayable"
    },
    {
      "type": "function",
      "name": "initializeV3",
      "inputs": [
        {
          "name": "profileContract_",
          "type": "address",
          "internalType": "address"
        }
      ],
      "outputs": [],
      "stateMutability": "nonpayable"
    },
    {
      "type": "function",
      "name": "initializeV4",
      "inputs": [],
      "outputs": [],
      "stateMutability": "nonpayable"
    },
    {
      "type": "function",
      "name": "maxMaintenanceDurationInBlock",
      "inputs": [],
      "outputs": [
        {
          "name": "",
          "type": "uint256",
          "internalType": "uint256"
        }
      ],
      "stateMutability": "view"
    },
    {
      "type": "function",
      "name": "maxOffsetToStartSchedule",
      "inputs": [],
      "outputs": [
        {
          "name": "",
          "type": "uint256",
          "internalType": "uint256"
        }
      ],
      "stateMutability": "view"
    },
    {
      "type": "function",
      "name": "maxSchedule",
      "inputs": [],
      "outputs": [
        {
          "name": "",
          "type": "uint256",
          "internalType": "uint256"
        }
      ],
      "stateMutability": "view"
    },
    {
      "type": "function",
      "name": "minMaintenanceDurationInBlock",
      "inputs": [],
      "outputs": [
        {
          "name": "",
          "type": "uint256",
          "internalType": "uint256"
        }
      ],
      "stateMutability": "view"
    },
    {
      "type": "function",
      "name": "minOffsetToStartSchedule",
      "inputs": [],
      "outputs": [
        {
          "name": "",
          "type": "uint256",
          "internalType": "uint256"
        }
      ],
      "stateMutability": "view"
    },
    {
      "type": "function",
      "name": "schedule",
      "inputs": [
        {
          "name": "consensusAddr",
          "type": "address",
          "internalType": "TConsensus"
        },
        {
          "name": "startedAtBlock",
          "type": "uint256",
          "internalType": "uint256"
        },
        {
          "name": "endedAtBlock",
          "type": "uint256",
          "internalType": "uint256"
        }
      ],
      "outputs": [],
      "stateMutability": "nonpayable"
    },
    {
      "type": "function",
      "name": "setContract",
      "inputs": [
        {
          "name": "contractType",
          "type": "uint8",
          "internalType": "enum ContractType"
        },
        {
          "name": "addr",
          "type": "address",
          "internalType": "address"
        }
      ],
      "outputs": [],
      "stateMutability": "nonpayable"
    },
    {
      "type": "function",
      "name": "setMaintenanceConfig",
      "inputs": [
        {
          "name": "minMaintenanceDurationInBlock_",
          "type": "uint256",
          "internalType": "uint256"
        },
        {
          "name": "maxMaintenanceDurationInBlock_",
          "type": "uint256",
          "internalType": "uint256"
        },
        {
          "name": "minOffsetToStartSchedule_",
          "type": "uint256",
          "internalType": "uint256"
        },
        {
          "name": "maxOffsetToStartSchedule_",
          "type": "uint256",
          "internalType": "uint256"
        },
        {
          "name": "maxSchedule_",
          "type": "uint256",
          "internalType": "uint256"
        },
        {
          "name": "cooldownSecsToMaintain_",
          "type": "uint256",
          "internalType": "uint256"
        }
      ],
      "outputs": [],
      "stateMutability": "nonpayable"
    },
    {
      "type": "function",
      "name": "totalSchedule",
      "inputs": [],
      "outputs": [
        {
          "name": "count",
          "type": "uint256",
          "internalType": "uint256"
        }
      ],
      "stateMutability": "view"
    },
    {
      "type": "event",
      "name": "ContractUpdated",
      "inputs": [
        {
          "name": "contractType",
          "type": "uint8",
          "indexed": true,
          "internalType": "enum ContractType"
        },
        {
          "name": "addr",
          "type": "address",
          "indexed": true,
          "internalType": "address"
        }
      ],
      "anonymous": false
    },
    {
      "type": "event",
      "name": "Initialized",
      "inputs": [
        {
          "name": "version",
          "type": "uint8",
          "indexed": false,
          "internalType": "uint8"
        }
      ],
      "anonymous": false
    },
    {
      "type": "event",
      "name": "MaintenanceConfigUpdated",
      "inputs": [
        {
          "name": "minMaintenanceDurationInBlock",
          "type": "uint256",
          "indexed": false,
          "internalType": "uint256"
        },
        {
          "name": "maxMaintenanceDurationInBlock",
          "type": "uint256",
          "indexed": false,
          "internalType": "uint256"
        },
        {
          "name": "minOffsetToStartSchedule",
          "type": "uint256",
          "indexed": false,
          "internalType": "uint256"
        },
        {
          "name": "maxOffsetToStartSchedule",
          "type": "uint256",
          "indexed": false,
          "internalType": "uint256"
        },
        {
          "name": "maxSchedules",
          "type": "uint256",
          "indexed": false,
          "internalType": "uint256"
        },
        {
          "name": "cooldownSecsToMaintain",
          "type": "uint256",
          "indexed": false,
          "internalType": "uint256"
        }
      ],
      "anonymous": false
    },
    {
      "type": "event",
      "name": "MaintenanceExited",
      "inputs": [
        {
          "name": "cid",
          "type": "address",
          "indexed": true,
          "internalType": "address"
        }
      ],
      "anonymous": false
    },
    {
      "type": "event",
      "name": "MaintenanceScheduleCancelled",
      "inputs": [
        {
          "name": "cid",
          "type": "address",
          "indexed": true,
          "internalType": "address"
        }
      ],
      "anonymous": false
    },
    {
      "type": "event",
      "name": "MaintenanceScheduled",
      "inputs": [
        {
          "name": "cid",
          "type": "address",
          "indexed": true,
          "internalType": "address"
        },
        {
          "name": "",
          "type": "tuple",
          "indexed": false,
          "internalType": "struct IMaintenance.Schedule",
          "components": [
            {
              "name": "from",
              "type": "uint256",
              "internalType": "uint256"
            },
            {
              "name": "to",
              "type": "uint256",
              "internalType": "uint256"
            },
            {
              "name": "lastUpdatedBlock",
              "type": "uint256",
              "internalType": "uint256"
            },
            {
              "name": "requestTimestamp",
              "type": "uint256",
              "internalType": "uint256"
            }
          ]
        }
      ],
      "anonymous": false
    },
    {
      "type": "error",
      "name": "ErrAlreadyOnMaintenance",
      "inputs": []
    },
    {
      "type": "error",
      "name": "ErrAlreadyScheduled",
      "inputs": []
    },
    {
      "type": "error",
      "name": "ErrContractTypeNotFound",
      "inputs": [
        {
          "name": "contractType",
          "type": "uint8",
          "internalType": "enum ContractType"
        }
      ]
    },
    {
      "type": "error",
      "name": "ErrCooldownTimeNotYetEnded",
      "inputs": []
    },
    {
      "type": "error",
      "name": "ErrEndBlockOutOfRange",
      "inputs": []
    },
    {
      "type": "error",
      "name": "ErrInvalidMaintenanceDuration",
      "inputs": []
    },
    {
      "type": "error",
      "name": "ErrInvalidMaintenanceDurationConfig",
      "inputs": []
    },
    {
      "type": "error",
      "name": "ErrInvalidOffsetToStartScheduleConfigs",
      "inputs": []
    },
    {
      "type": "error",
      "name": "ErrNotOnMaintenance",
      "inputs": []
    },
    {
      "type": "error",
      "name": "ErrStartBlockOutOfRange",
      "inputs": []
    },
    {
      "type": "error",
      "name": "ErrTotalOfSchedulesExceeded",
      "inputs": []
    },
    {
      "type": "error",
      "name": "ErrUnauthorized",
      "inputs": [
        {
          "name": "msgSig",
          "type": "bytes4",
          "internalType": "bytes4"
        },
        {
          "name": "expectedRole",
          "type": "uint8",
          "internalType": "enum RoleAccess"
        }
      ]
    },
    {
      "type": "error",
      "name": "ErrUnexistedSchedule",
      "inputs": []
    },
    {
      "type": "error",
      "name": "ErrZeroCodeContract",
      "inputs": [
        {
          "name": "addr",
          "type": "address",
          "internalType": "address"
        }
      ]
    }
  ],
  "address": "0x0C7e5cF8fc3De7d6aC99f820fD2f6F0DC9fc3540",
  "args": "0x",
  "blockNumber": 25792431,
  "bytecode": "0x6080604052348015600f57600080fd5b506016601a565b60e5565b600054600160a81b900460ff161560875760405162461bcd60e51b815260206004820152602760248201527f496e697469616c697a61626c653a20636f6e747261637420697320696e697469604482015266616c697a696e6760c81b606482015260840160405180910390fd5b60005460ff600160a01b9091048116101560e3576000805460ff60a01b191660ff60a01b17905560405160ff81527f7f26b83ff96e1f2b6a682f133852f6798a09c465da95921460cefb38474024989060200160405180910390a15b565b6120e3806100f46000396000f3fe608060405234801561001057600080fd5b50600436106101b95760003560e01c8063865e6fd3116100f9578063bfa89b9b11610097578063de981f1b11610071578063de981f1b1461037c578063dec36284146103a7578063f0caaafb146103af578063fdadda81146103c257600080fd5b8063bfa89b9b1461031b578063c09fe46014610323578063d39fee341461033657600080fd5b8063ac57bd76116100d3578063ac57bd76146102e5578063ba303755146102f8578063ba7e57bb1461030b578063bc1710e91461031357600080fd5b8063865e6fd31461029f5780638b042a72146102b25780638d5b6759146102d257600080fd5b80633101cfcb1161016657806371e21f971161014057806371e21f97146102695780637a50802d1461027c5780638142951a1461028457806384a9573b1461029757600080fd5b80633101cfcb1461024657806354a08606146102595780635cd8a76b1461026157600080fd5b80630fbeb37f116101975780630fbeb37f1461020b5780632d538c2c1461021e5780632ddc08a21461023357600080fd5b806301b50209146101be578063088e8de7146101e657806309e34c38146101f9575b600080fd5b6101d16101cc366004611bdb565b6103d5565b60405190151581526020015b60405180910390f35b6101d16101f4366004611bf8565b61040f565b6002545b6040519081526020016101dd565b6101d1610219366004611c2d565b61042c565b61023161022c366004611bf8565b610447565b005b6101d1610241366004611bdb565b6108d8565b610231610254366004611bdb565b610908565b610231610a10565b610231610c0a565b610231610277366004611bdb565b610d32565b6005546101fd565b610231610292366004611c59565b610e00565b6101fd610f5f565b6102316102ad366004611cbd565b610fab565b6102c56102c0366004611d40565b610fca565b6040516101dd9190611d91565b6101d16102e0366004611c2d565b611015565b6102c56102f3366004611dd7565b611021565b6102c5610306366004611d40565b611061565b6006546101fd565b6004546101fd565b6003546101fd565b610231610331366004611e23565b6110b8565b610349610344366004611bdb565b6110d6565b6040516101dd91908151815260208083015190820152604080830151908201526060918201519181019190915260800190565b61038f61038a366004611e66565b611168565b6040516001600160a01b0390911681526020016101dd565b6007546101fd565b6102316103bd366004611bdb565b6111fc565b6102c56103d0366004611dd7565b611321565b60006104096103e38361136d565b6007546001600160a01b0390911660009081526001602052604090206003015401421190565b92915050565b600061042461041d8561136d565b84846113fe565b949350505050565b600061044061043a8461136d565b8361142d565b9392505050565b60006104536008611168565b905060006104608561136d565b6040517fe8712aa70000000000000000000000000000000000000000000000000000000081526001600160a01b0380831660048301529192509083169063e8712aa790602401602060405180830381865afa1580156104c3573d6000803e3d6000fd5b505050506040513d601f19601f820116820180604052508101906104e79190611e81565b61051d576000356001600160e01b0319166007604051620f948f60ea1b8152600401610514929190611eb9565b60405180910390fd5b6105268161145f565b6001600160a01b03811660009081526001602081905260409091200154431161057b576040517fb194497700000000000000000000000000000000000000000000000000000000815260040160405180910390fd5b6007546001600160a01b0382166000908152600160205260409020600301540142116105d3576040517f40fbfaee00000000000000000000000000000000000000000000000000000000815260040160405180910390fd5b6006546105de611524565b10610615576040517f437494d300000000000000000000000000000000000000000000000000000000815260040160405180910390fd5b61063b600454436106269190611efd565b6005546106339043611efd565b86919061159d565b610658576040516301f19fb760e61b815260040160405180910390fd5b828410610678576040516301f19fb760e61b815260040160405180910390fd5b60006106848585611f10565b61068f906001611efd565b90506106aa6002546003548361159d9092919063ffffffff16565b6106e0576040517fa1f1aaf500000000000000000000000000000000000000000000000000000000815260040160405180910390fd5b6001600160a01b038316637593ff716106fa600188611f10565b6040518263ffffffff1660e01b815260040161071891815260200190565b602060405180830381865afa158015610735573d6000803e3d6000fd5b505050506040513d601f19601f820116820180604052508101906107599190611e81565b610776576040516301f19fb760e61b815260040160405180910390fd5b6040517f7593ff71000000000000000000000000000000000000000000000000000000008152600481018590526001600160a01b03841690637593ff7190602401602060405180830381865afa1580156107d4573d6000803e3d6000fd5b505050506040513d601f19601f820116820180604052508101906107f89190611e81565b61082e576040517fec67bbc500000000000000000000000000000000000000000000000000000000815260040160405180910390fd5b6001600160a01b03821660009081526001602081905260409091208681559081018590554360028201554260038201556108696008846115b4565b50826001600160a01b03167f48e8b2f7348b1ec693bbb999258a8d6bd514732a19c6057b6e2a56a4c405253b826040516108c79190815481526001820154602082015260028201546040820152600390910154606082015260800190565b60405180910390a250505050505050565b60006104096108e68361136d565b6001600160a01b03166000908152600160208190526040909120015443111590565b600054600390600160a81b900460ff16158015610933575060005460ff808316600160a01b90920416105b6109965760405162461bcd60e51b815260206004820152602e60248201527f496e697469616c697a61626c653a20636f6e747261637420697320616c72656160448201526d191e481a5b9a5d1a585b1a5e995960921b6064820152608401610514565b6000805460ff60a81b1960ff8416600160a01b021661ffff60a01b1990911617600160a81b1790556109c9600f836115c9565b6000805460ff60a81b1916905560405160ff821681527f7f26b83ff96e1f2b6a682f133852f6798a09c465da95921460cefb38474024989060200160405180910390a15050565b600054600490600160a81b900460ff16158015610a3b575060005460ff808316600160a01b90920416105b610a9e5760405162461bcd60e51b815260206004820152602e60248201527f496e697469616c697a61626c653a20636f6e747261637420697320616c72656160448201526d191e481a5b9a5d1a585b1a5e995960921b6064820152608401610514565b6000805460ff60a81b1960ff8416600160a01b021661ffff60a01b1990911617600160a81b178155610ad06008611168565b6001600160a01b0316639a57bd936040518163ffffffff1660e01b8152600401600060405180830381865afa158015610b0d573d6000803e3d6000fd5b505050506040513d6000823e601f3d908101601f19168201604052610b359190810190611f44565b805190915060005b81811015610bc057610b84838281518110610b5a57610b5a612009565b60200260200101516001600160a01b03166000908152600160208190526040909120015443111590565b15610bb857610bb6838281518110610b9e57610b9e612009565b602002602001015160086115b490919063ffffffff16565b505b600101610b3d565b50506000805460ff60a81b191690555060405160ff821681527f7f26b83ff96e1f2b6a682f133852f6798a09c465da95921460cefb3847402498906020015b60405180910390a150565b600054600290600160a81b900460ff16158015610c35575060005460ff808316600160a01b90920416105b610c985760405162461bcd60e51b815260206004820152602e60248201527f496e697469616c697a61626c653a20636f6e747261637420697320616c72656160448201526d191e481a5b9a5d1a585b1a5e995960921b6064820152608401610514565b6000805460ff60a81b1960ff8416600160a01b021661ffff60a01b1990911617600160a81b1790819055610cd7906008906001600160a01b03166115c9565b600080547fffffffffffffffffffff00ff000000000000000000000000000000000000000016905560405160ff821681527f7f26b83ff96e1f2b6a682f133852f6798a09c465da95921460cefb384740249890602001610bff565b610d3a611524565b506000610d468261136d565b905043610d528261145f565b610d5c828261142d565b610d92576040517fb58ddf9200000000000000000000000000000000000000000000000000000000815260040160405180910390fd5b6001600160a01b038216600090815260016020819052604090912090810182905560028101829055610dc5600884611685565b506040516001600160a01b038416907f0203ae0082a4b3f0b71e461ab5245258799bdb5d52d0f224a6aaed75deca688990600090a250505050565b600054600160a81b900460ff1615808015610e2857506000546001600160a01b90910460ff16105b80610e495750303b158015610e495750600054600160a01b900460ff166001145b610eac5760405162461bcd60e51b815260206004820152602e60248201527f496e697469616c697a61626c653a20636f6e747261637420697320616c72656160448201526d191e481a5b9a5d1a585b1a5e995960921b6064820152608401610514565b600080547fffffffffffffffffffffff00ffffffffffffffffffffffffffffffffffffffff16600160a01b1790558015610ef4576000805460ff60a81b1916600160a81b1790555b610eff6008896115c9565b610f0d87878787878761169a565b8015610f55576000805460ff60a81b19169055604051600181527f7f26b83ff96e1f2b6a682f133852f6798a09c465da95921460cefb38474024989060200160405180910390a15b5050505050505050565b600080610f6c6008611788565b805190915060005b81811015610fa557610f91838281518110610b5a57610b5a612009565b15610f9d578360010193505b600101610f74565b50505090565b610fb3611795565b610fbc816117f1565b610fc682826115c9565b5050565b606061100c8585808060200260200160405190810160405280939291908181526020018383602002808284376000920191909152508792508691506118409050565b95945050505050565b6000610440838361142d565b60606104248484808060200260200160405190810160405280939291908181526020018383602002808284376000920191909152508692506118ec915050565b606060006110a186868080602002602001604051908101604052809392919081815260200183836020028082843760009201919091525061199692505050565b90506110ae818585611840565b9695505050505050565b6110c0611795565b6110ce86868686868661169a565b505050505050565b6111016040518060800160405280600081526020016000815260200160008152602001600081525090565b6001600061110e8461136d565b6001600160a01b03166001600160a01b031681526020019081526020016000206040518060800160405290816000820154815260200160018201548152602001600282015481526020016003820154815250509050919050565b60007fdea3103d22025c269050bea94c0c84688877f12fa22b7e6d2d5d78a9a49aa1cb600083600f81111561119f5761119f611ea3565b60ff1681526020810191909152604001600020546001600160a01b03169050806111f757816040517f812281be000000000000000000000000000000000000000000000000000000008152600401610514919061201f565b919050565b611204611524565b5060006112108261136d565b905061121b8161145f565b6001600160a01b03811660009081526001602081905260409091200154431115611271576040517ff7050bef00000000000000000000000000000000000000000000000000000000815260040160405180910390fd5b61127b814361142d565b156112b2576040517f070dff8300000000000000000000000000000000000000000000000000000000815260040160405180910390fd5b6001600160a01b03811660009081526001602081905260408220828155908101919091554360028201556112e7600883611685565b506040516001600160a01b038316907f72720a31deb222f77bbf95b88a540154648466770e5f41328ee1e25e5050737790600090a2505050565b6060600061136185858080602002602001604051908101604052809392919081815260200183836020028082843760009201919091525061199692505050565b905061100c81846118ec565b6000611379600f611168565b6040517f50a9fc290000000000000000000000000000000000000000000000000000000081526001600160a01b03848116600483015291909116906350a9fc2990602401602060405180830381865afa1580156113da573d6000803e3d6000fd5b505050506040513d601f19601f820116820180604052508101906104099190612039565b6001600160a01b03831660009081526001602081905260408220805491810154909161100c9186918691611a12565b6001600160a01b0382166000908152600160205260408120805483108015906104245750600101549091111592915050565b6114696008611168565b6040517f46ebb2320000000000000000000000000000000000000000000000000000000081526001600160a01b03838116600483015233602483015291909116906346ebb23290604401602060405180830381865afa1580156114d0573d6000803e3d6000fd5b505050506040513d601f19601f820116820180604052508101906114f49190611e81565b611521576000356001600160e01b0319166004604051620f948f60ea1b8152600401610514929190611eb9565b50565b6000806115316008611788565b805190915060005b81811015610fa557611556838281518110610b5a57610b5a612009565b1561156657836001019350611595565b61159383828151811061157b5761157b612009565b6020026020010151600861168590919063ffffffff16565b505b600101611539565b600083831115801561042457505090911115919050565b6000610440836001600160a01b038416611a28565b807fdea3103d22025c269050bea94c0c84688877f12fa22b7e6d2d5d78a9a49aa1cb600084600f8111156115ff576115ff611ea3565b60ff168152602081019190915260400160002080547fffffffffffffffffffffffff0000000000000000000000000000000000000000166001600160a01b03928316179055811682600f81111561165857611658611ea3565b6040517f865d1c228a8ea13709cfe61f346f7ff67f1bbd4a18ff31ad3e7147350d317c5990600090a35050565b6000610440836001600160a01b038416611a77565b8486106116d3576040517f71e80c4a00000000000000000000000000000000000000000000000000000000815260040160405180910390fd5b82841061170c576040517fb63e3f7800000000000000000000000000000000000000000000000000000000815260040160405180910390fd5b6002869055600385905560048490556005839055600682905560078190556040805187815260208101879052908101859052606081018490526080810183905260a081018290527f4edb6adef66a4b8e1ffbc8c67640d4f244ce904193fd65e5cc316bbb74b2e59b9060c00160405180910390a1505050505050565b6060600061044083611b6a565b7fb53127684a568b3173ae13b9f8a6016e243e63b6e8ee1178d6a717850b5d6103546001600160a01b031633146117ef576000356001600160e01b0319166001604051620f948f60ea1b8152600401610514929190611eb9565b565b806001600160a01b03163b600003611521576040517f2ff1928c0000000000000000000000000000000000000000000000000000000081526001600160a01b0382166004820152602401610514565b82516060908067ffffffffffffffff81111561185e5761185e611f23565b604051908082528060200260200182016040528015611887578160200160208202803683370190505b50915060005b818110156118e3576118b98682815181106118aa576118aa612009565b602002602001015186866113fe565b8382815181106118cb576118cb612009565b9115156020928302919091019091015260010161188d565b50509392505050565b81516060908067ffffffffffffffff81111561190a5761190a611f23565b604051908082528060200260200182016040528015611933578160200160208202803683370190505b50915060005b8181101561198e5761196485828151811061195657611956612009565b60200260200101518561142d565b83828151811061197657611976612009565b91151560209283029190910190910152600101611939565b505092915050565b60606119a2600f611168565b6001600160a01b031663f9226b1a836040518263ffffffff1660e01b81526004016119cd9190612056565b600060405180830381865afa1580156119ea573d6000803e3d6000fd5b505050506040513d6000823e601f3d908101601f191682016040526104099190810190611f44565b600081851115801561100c575050501115919050565b6000818152600183016020526040812054611a6f57508154600181810184556000848152602080822090930184905584548482528286019093526040902091909155610409565b506000610409565b60008181526001830160205260408120548015611b60576000611a9b600183611f10565b8554909150600090611aaf90600190611f10565b9050818114611b14576000866000018281548110611acf57611acf612009565b9060005260206000200154905080876000018481548110611af257611af2612009565b6000918252602080832090910192909255918252600188019052604090208390555b8554869080611b2557611b25612097565b600190038181906000526020600020016000905590558560010160008681526020019081526020016000206000905560019350505050610409565b6000915050610409565b606081600001805480602002602001604051908101604052809291908181526020018280548015611bba57602002820191906000526020600020905b815481526020019060010190808311611ba6575b50505050509050919050565b6001600160a01b038116811461152157600080fd5b600060208284031215611bed57600080fd5b813561044081611bc6565b600080600060608486031215611c0d57600080fd5b8335611c1881611bc6565b95602085013595506040909401359392505050565b60008060408385031215611c4057600080fd5b8235611c4b81611bc6565b946020939093013593505050565b600080600080600080600060e0888a031215611c7457600080fd5b8735611c7f81611bc6565b9960208901359950604089013598606081013598506080810135975060a0810135965060c00135945092505050565b8035601081106111f757600080fd5b60008060408385031215611cd057600080fd5b611cd983611cae565b91506020830135611ce981611bc6565b809150509250929050565b60008083601f840112611d0657600080fd5b50813567ffffffffffffffff811115611d1e57600080fd5b6020830191508360208260051b8501011115611d3957600080fd5b9250929050565b60008060008060608587031215611d5657600080fd5b843567ffffffffffffffff811115611d6d57600080fd5b611d7987828801611cf4565b90989097506020870135966040013595509350505050565b6020808252825182820181905260009190848201906040850190845b81811015611dcb578351151583529284019291840191600101611dad565b50909695505050505050565b600080600060408486031215611dec57600080fd5b833567ffffffffffffffff811115611e0357600080fd5b611e0f86828701611cf4565b909790965060209590950135949350505050565b60008060008060008060c08789031215611e3c57600080fd5b505084359660208601359650604086013595606081013595506080810135945060a0013592509050565b600060208284031215611e7857600080fd5b61044082611cae565b600060208284031215611e9357600080fd5b8151801515811461044057600080fd5b634e487b7160e01b600052602160045260246000fd5b6001600160e01b03198316815260408101600b8310611eda57611eda611ea3565b8260208301529392505050565b634e487b7160e01b600052601160045260246000fd5b8082018082111561040957610409611ee7565b8181038181111561040957610409611ee7565b634e487b7160e01b600052604160045260246000fd5b80516111f781611bc6565b60006020808385031215611f5757600080fd5b825167ffffffffffffffff80821115611f6f57600080fd5b818501915085601f830112611f8357600080fd5b815181811115611f9557611f95611f23565b8060051b604051601f19603f83011681018181108582111715611fba57611fba611f23565b604052918252848201925083810185019188831115611fd857600080fd5b938501935b82851015611ffd57611fee85611f39565b84529385019392850192611fdd565b98975050505050505050565b634e487b7160e01b600052603260045260246000fd5b602081016010831061203357612033611ea3565b91905290565b60006020828403121561204b57600080fd5b815161044081611bc6565b6020808252825182820181905260009190848201906040850190845b81811015611dcb5783516001600160a01b031683529284019291840191600101612072565b634e487b7160e01b600052603160045260246000fdfea26469706673582212204857b5b49bebe96a8d49be3245f24adb9f97c93c1700717585f84371acb7504764736f6c63430008190033",
  "chainId": 2021,
  "contractAbsolutePath": "Maintenance.sol",
  "deployer": "0x31762cdd4Aa65CD6f5F09D7a05a56211720A1168",
  "devdoc": {
    "version": 1,
    "kind": "dev",
    "methods": {
      "cancelSchedule(address)": {
        "details": "Cancel the schedule of maintenance for the `consensusAddr`. Requirements: - The candidate `consensusAddr` is the block producer. - The method caller is candidate admin of the candidate `consensusAddr`. - A schedule for the `consensusAddr` must be existent and not executed yet. Emits the event `MaintenanceScheduleCancelled`."
      },
      "checkCooldownEnded(address)": {
        "details": "Returns whether the validator `consensusAddr` has finished cooldown."
      },
      "checkMaintained(address,uint256)": {
        "details": "Returns whether the validator `consensusAddr` maintained at the block number `_block`."
      },
      "checkMaintainedById(address,uint256)": {
        "details": "Returns whether the validator whose id `validatorId` maintained at the block number `_block`."
      },
      "checkMaintainedInBlockRange(address,uint256,uint256)": {
        "details": "Returns whether the validator `consensusAddr` maintained in the inclusive range [`_fromBlock`, `_toBlock`] of blocks."
      },
      "checkManyMaintained(address[],uint256)": {
        "details": "Returns the bool array indicating the validators maintained at block number `k` or not."
      },
      "checkManyMaintainedInBlockRange(address[],uint256,uint256)": {
        "details": "Returns a bool array indicating the validators maintained in the inclusive range [`_fromBlock`, `_toBlock`] of blocks or not."
      },
      "checkScheduled(address)": {
        "details": "Returns whether the validator `consensusAddr` has schedule."
      },
      "cooldownSecsToMaintain()": {
        "details": "Returns the cooldown to maintain in seconds."
      },
      "exitMaintenance(address)": {
        "details": "Exits the maintenance status.",
        "params": {
          "consensusAddr": "The address of the consensus to exit maintenance status for."
        }
      },
      "getContract(uint8)": {
        "details": "Returns the address of a contract with a specific role. Throws an error if no contract is set for the specified role.",
        "params": {
          "contractType": "The role of the contract to retrieve."
        },
        "returns": {
          "contract_": "The address of the contract with the specified role."
        }
      },
      "getSchedule(address)": {
        "details": "Returns the detailed schedule of the validator `consensusAddr`."
      },
      "initialize(address,uint256,uint256,uint256,uint256,uint256,uint256)": {
        "details": "Initializes the contract storage."
      },
      "maxMaintenanceDurationInBlock()": {
        "details": "Returns the max duration for maintenance in block."
      },
      "maxOffsetToStartSchedule()": {
        "details": "The offset to the max block number that the schedule can start"
      },
      "maxSchedule()": {
        "details": "Returns the max number of scheduled maintenances."
      },
      "minMaintenanceDurationInBlock()": {
        "details": "Returns the min duration for maintenance in block."
      },
      "minOffsetToStartSchedule()": {
        "details": "The offset to the min block number that the schedule can start"
      },
      "schedule(address,uint256,uint256)": {
        "details": "Schedules for maintenance from `startedAtBlock` to `endedAtBlock`. Requirements: - The candidate `consensusAddr` is the block producer. - The method caller is candidate admin of the candidate `consensusAddr`. - The candidate `consensusAddr` has no schedule yet or the previous is done. - The total number of schedules is not larger than `maxSchedules()`. - The start block must be at least `minOffsetToStartSchedule()` and at most `maxOffsetToStartSchedule()` blocks from the current block. - The end block is larger than the start block. - The scheduled duration is larger than the `minMaintenanceDurationInBlock()` and less than the `maxMaintenanceDurationInBlock()`. - The start block is at the start of an epoch. - The end block is at the end of an epoch. Emits the event `MaintenanceScheduled`."
      },
      "setContract(uint8,address)": {
        "details": "Sets the address of a contract with a specific role. Emits the event {ContractUpdated}.",
        "params": {
          "addr": "The address of the contract to set.",
          "contractType": "The role of the contract to set."
        }
      },
      "setMaintenanceConfig(uint256,uint256,uint256,uint256,uint256,uint256)": {
        "details": "Sets the duration restriction, start time restriction, and max allowed for maintenance. Requirements: - The method caller is admin. - The max duration is larger than the min duration. - The max offset is larger than the min offset. Emits the event `MaintenanceConfigUpdated`."
      },
      "totalSchedule()": {
        "details": "Returns the total of current schedules."
      }
    },
    "events": {
      "ContractUpdated(uint8,address)": {
        "details": "Emitted when a contract is updated."
      },
      "Initialized(uint8)": {
        "details": "Triggered when the contract has been initialized or reinitialized."
      },
      "MaintenanceConfigUpdated(uint256,uint256,uint256,uint256,uint256,uint256)": {
        "details": "Emitted when the maintenance config is updated."
      },
      "MaintenanceExited(address)": {
        "details": "Emitted when a maintenance is early exit in maintenance duration."
      },
      "MaintenanceScheduleCancelled(address)": {
        "details": "Emitted when a schedule of maintenance is cancelled."
      },
      "MaintenanceScheduled(address,(uint256,uint256,uint256,uint256))": {
        "details": "Emitted when a maintenance is scheduled."
      }
    },
    "errors": {
      "ErrAlreadyOnMaintenance()": [
        {
          "details": "Error thrown when attempting to initiate maintenance while already in maintenance mode."
        }
      ],
      "ErrAlreadyScheduled()": [
        {
          "details": "Error thrown when attempting to schedule an already scheduled event."
        }
      ],
      "ErrContractTypeNotFound(uint8)": [
        {
          "details": "Error of invalid role."
        }
      ],
      "ErrCooldownTimeNotYetEnded()": [
        {
          "details": "Error thrown when attempting an action before the cooldown period has ended."
        }
      ],
      "ErrEndBlockOutOfRange()": [
        {
          "details": "Error thrown when the end block of a schedule is out of range."
        }
      ],
      "ErrInvalidMaintenanceDuration()": [
        {
          "details": "Error thrown when an invalid maintenance duration is specified."
        }
      ],
      "ErrInvalidMaintenanceDurationConfig()": [
        {
          "details": "Error thrown when an invalid maintenance duration configuration is provided."
        }
      ],
      "ErrInvalidOffsetToStartScheduleConfigs()": [
        {
          "details": "Error thrown when an invalid offset is specified to start the schedule configurations."
        }
      ],
      "ErrNotOnMaintenance()": [
        {
          "details": "Error thrown when attempting to exit maintenance status while not in maintenance duration."
        }
      ],
      "ErrStartBlockOutOfRange()": [
        {
          "details": "Error thrown when the start block of a schedule is out of range."
        }
      ],
      "ErrTotalOfSchedulesExceeded()": [
        {
          "details": "Error thrown when the total number of schedules exceeds the limit."
        }
      ],
      "ErrUnauthorized(bytes4,uint8)": [
        {
          "details": "Error indicating that the caller is unauthorized to perform a specific function.",
          "params": {
            "expectedRole": "The role required to perform the function.",
            "msgSig": "The function signature (bytes4) that the caller is unauthorized to perform."
          }
        }
      ],
      "ErrUnexistedSchedule()": [
        {
          "details": "Error thrown when referring to a non-existent schedule."
        }
      ],
      "ErrZeroCodeContract(address)": [
        {
          "details": "Error of set to non-contract."
        }
      ]
    }
  },
  "isFoundry": true,
  "nonce": 47,
  "numDeployments": 17,
  "storageLayout": {
    "storage": [
      {
        "astId": 37417,
        "contract": "contracts/ronin/Maintenance.sol:Maintenance",
        "label": "______deprecatedValidator",
        "offset": 0,
        "slot": "0",
        "type": "t_address"
      },
      {
        "astId": 150081,
        "contract": "contracts/ronin/Maintenance.sol:Maintenance",
        "label": "_initialized",
        "offset": 20,
        "slot": "0",
        "type": "t_uint8"
      },
      {
        "astId": 150084,
        "contract": "contracts/ronin/Maintenance.sol:Maintenance",
        "label": "_initializing",
        "offset": 21,
        "slot": "0",
        "type": "t_bool"
      },
      {
        "astId": 17684,
        "contract": "contracts/ronin/Maintenance.sol:Maintenance",
        "label": "_schedule",
        "offset": 0,
        "slot": "1",
        "type": "t_mapping(t_address,t_struct(Schedule)6930_storage)"
      },
      {
        "astId": 17687,
        "contract": "contracts/ronin/Maintenance.sol:Maintenance",
        "label": "_minMaintenanceDurationInBlock",
        "offset": 0,
        "slot": "2",
        "type": "t_uint256"
      },
      {
        "astId": 17690,
        "contract": "contracts/ronin/Maintenance.sol:Maintenance",
        "label": "_maxMaintenanceDurationInBlock",
        "offset": 0,
        "slot": "3",
        "type": "t_uint256"
      },
      {
        "astId": 17693,
        "contract": "contracts/ronin/Maintenance.sol:Maintenance",
        "label": "_minOffsetToStartSchedule",
        "offset": 0,
        "slot": "4",
        "type": "t_uint256"
      },
      {
        "astId": 17696,
        "contract": "contracts/ronin/Maintenance.sol:Maintenance",
        "label": "_maxOffsetToStartSchedule",
        "offset": 0,
        "slot": "5",
        "type": "t_uint256"
      },
      {
        "astId": 17699,
        "contract": "contracts/ronin/Maintenance.sol:Maintenance",
        "label": "_maxSchedule",
        "offset": 0,
        "slot": "6",
        "type": "t_uint256"
      },
      {
        "astId": 17702,
        "contract": "contracts/ronin/Maintenance.sol:Maintenance",
        "label": "_cooldownSecsToMaintain",
        "offset": 0,
        "slot": "7",
        "type": "t_uint256"
      },
      {
        "astId": 17706,
        "contract": "contracts/ronin/Maintenance.sol:Maintenance",
        "label": "_scheduledCandidates",
        "offset": 0,
        "slot": "8",
        "type": "t_struct(AddressSet)151906_storage"
      }
    ],
    "types": {
      "t_address": {
        "encoding": "inplace",
        "label": "address",
        "numberOfBytes": "20"
      },
      "t_array(t_bytes32)dyn_storage": {
        "encoding": "dynamic_array",
        "label": "bytes32[]",
        "numberOfBytes": "32",
        "base": "t_bytes32"
      },
      "t_bool": {
        "encoding": "inplace",
        "label": "bool",
        "numberOfBytes": "1"
      },
      "t_bytes32": {
        "encoding": "inplace",
        "label": "bytes32",
        "numberOfBytes": "32"
      },
      "t_mapping(t_address,t_struct(Schedule)6930_storage)": {
        "encoding": "mapping",
        "key": "t_address",
        "label": "mapping(address => struct IMaintenance.Schedule)",
        "numberOfBytes": "32",
        "value": "t_struct(Schedule)6930_storage"
      },
      "t_mapping(t_bytes32,t_uint256)": {
        "encoding": "mapping",
        "key": "t_bytes32",
        "label": "mapping(bytes32 => uint256)",
        "numberOfBytes": "32",
        "value": "t_uint256"
      },
      "t_struct(AddressSet)151906_storage": {
        "encoding": "inplace",
        "label": "struct EnumerableSet.AddressSet",
        "numberOfBytes": "64",
        "members": [
          {
            "astId": 151905,
            "contract": "contracts/ronin/Maintenance.sol:Maintenance",
            "label": "_inner",
            "offset": 0,
            "slot": "0",
            "type": "t_struct(Set)151605_storage"
          }
        ]
      },
      "t_struct(Schedule)6930_storage": {
        "encoding": "inplace",
        "label": "struct IMaintenance.Schedule",
        "numberOfBytes": "128",
        "members": [
          {
            "astId": 6923,
            "contract": "contracts/ronin/Maintenance.sol:Maintenance",
            "label": "from",
            "offset": 0,
            "slot": "0",
            "type": "t_uint256"
          },
          {
            "astId": 6925,
            "contract": "contracts/ronin/Maintenance.sol:Maintenance",
            "label": "to",
            "offset": 0,
            "slot": "1",
            "type": "t_uint256"
          },
          {
            "astId": 6927,
            "contract": "contracts/ronin/Maintenance.sol:Maintenance",
            "label": "lastUpdatedBlock",
            "offset": 0,
            "slot": "2",
            "type": "t_uint256"
          },
          {
            "astId": 6929,
            "contract": "contracts/ronin/Maintenance.sol:Maintenance",
            "label": "requestTimestamp",
            "offset": 0,
            "slot": "3",
            "type": "t_uint256"
          }
        ]
      },
      "t_struct(Set)151605_storage": {
        "encoding": "inplace",
        "label": "struct EnumerableSet.Set",
        "numberOfBytes": "64",
        "members": [
          {
            "astId": 151600,
            "contract": "contracts/ronin/Maintenance.sol:Maintenance",
            "label": "_values",
            "offset": 0,
            "slot": "0",
            "type": "t_array(t_bytes32)dyn_storage"
          },
          {
            "astId": 151604,
            "contract": "contracts/ronin/Maintenance.sol:Maintenance",
            "label": "_indexes",
            "offset": 0,
            "slot": "1",
            "type": "t_mapping(t_bytes32,t_uint256)"
          }
        ]
      },
      "t_uint256": {
        "encoding": "inplace",
        "label": "uint256",
        "numberOfBytes": "32"
      },
      "t_uint8": {
        "encoding": "inplace",
        "label": "uint8",
        "numberOfBytes": "1"
      }
    }
  },
  "timestamp": 1711081545,
  "userdoc": {
    "version": 1,
    "kind": "user"
  }
}