{
  "abi": [
    {
      "type": "constructor",
      "inputs": [],
      "stateMutability": "nonpayable"
    },
    {
      "type": "function",
      "name": "cancelSchedule",
      "inputs": [
        {
          "name": "consensusAddr",
          "type": "address",
          "internalType": "TConsensus"
        }
      ],
      "outputs": [],
      "stateMutability": "nonpayable"
    },
    {
      "type": "function",
      "name": "checkCooldownEnded",
      "inputs": [
        {
          "name": "consensusAddr",
          "type": "address",
          "internalType": "TConsensus"
        }
      ],
      "outputs": [
        {
          "name": "",
          "type": "bool",
          "internalType": "bool"
        }
      ],
      "stateMutability": "view"
    },
    {
      "type": "function",
      "name": "checkMaintained",
      "inputs": [
        {
          "name": "consensusAddr",
          "type": "address",
          "internalType": "TConsensus"
        },
        {
          "name": "atBlock",
          "type": "uint256",
          "internalType": "uint256"
        }
      ],
      "outputs": [
        {
          "name": "",
          "type": "bool",
          "internalType": "bool"
        }
      ],
      "stateMutability": "view"
    },
    {
      "type": "function",
      "name": "checkMaintainedById",
      "inputs": [
        {
          "name": "candidateId",
          "type": "address",
          "internalType": "address"
        },
        {
          "name": "atBlock",
          "type": "uint256",
          "internalType": "uint256"
        }
      ],
      "outputs": [
        {
          "name": "",
          "type": "bool",
          "internalType": "bool"
        }
      ],
      "stateMutability": "view"
    },
    {
      "type": "function",
      "name": "checkMaintainedInBlockRange",
      "inputs": [
        {
          "name": "consensusAddr",
          "type": "address",
          "internalType": "TConsensus"
        },
        {
          "name": "fromBlock",
          "type": "uint256",
          "internalType": "uint256"
        },
        {
          "name": "toBlock",
          "type": "uint256",
          "internalType": "uint256"
        }
      ],
      "outputs": [
        {
          "name": "",
          "type": "bool",
          "internalType": "bool"
        }
      ],
      "stateMutability": "view"
    },
    {
      "type": "function",
      "name": "checkManyMaintained",
      "inputs": [
        {
          "name": "addrList",
          "type": "address[]",
          "internalType": "TConsensus[]"
        },
        {
          "name": "atBlock",
          "type": "uint256",
          "internalType": "uint256"
        }
      ],
      "outputs": [
        {
          "name": "",
          "type": "bool[]",
          "internalType": "bool[]"
        }
      ],
      "stateMutability": "view"
    },
    {
      "type": "function",
      "name": "checkManyMaintainedById",
      "inputs": [
        {
          "name": "idList",
          "type": "address[]",
          "internalType": "address[]"
        },
        {
          "name": "atBlock",
          "type": "uint256",
          "internalType": "uint256"
        }
      ],
      "outputs": [
        {
          "name": "",
          "type": "bool[]",
          "internalType": "bool[]"
        }
      ],
      "stateMutability": "view"
    },
    {
      "type": "function",
      "name": "checkManyMaintainedInBlockRange",
      "inputs": [
        {
          "name": "addrList",
          "type": "address[]",
          "internalType": "TConsensus[]"
        },
        {
          "name": "fromBlock",
          "type": "uint256",
          "internalType": "uint256"
        },
        {
          "name": "toBlock",
          "type": "uint256",
          "internalType": "uint256"
        }
      ],
      "outputs": [
        {
          "name": "",
          "type": "bool[]",
          "internalType": "bool[]"
        }
      ],
      "stateMutability": "view"
    },
    {
      "type": "function",
      "name": "checkManyMaintainedInBlockRangeById",
      "inputs": [
        {
          "name": "idList",
          "type": "address[]",
          "internalType": "address[]"
        },
        {
          "name": "fromBlock",
          "type": "uint256",
          "internalType": "uint256"
        },
        {
          "name": "toBlock",
          "type": "uint256",
          "internalType": "uint256"
        }
      ],
      "outputs": [
        {
          "name": "",
          "type": "bool[]",
          "internalType": "bool[]"
        }
      ],
      "stateMutability": "view"
    },
    {
      "type": "function",
      "name": "checkScheduled",
      "inputs": [
        {
          "name": "consensusAddr",
          "type": "address",
          "internalType": "TConsensus"
        }
      ],
      "outputs": [
        {
          "name": "",
          "type": "bool",
          "internalType": "bool"
        }
      ],
      "stateMutability": "view"
    },
    {
      "type": "function",
      "name": "cooldownSecsToMaintain",
      "inputs": [],
      "outputs": [
        {
          "name": "",
          "type": "uint256",
          "internalType": "uint256"
        }
      ],
      "stateMutability": "view"
    },
    {
      "type": "function",
      "name": "getContract",
      "inputs": [
        {
          "name": "contractType",
          "type": "uint8",
          "internalType": "enum ContractType"
        }
      ],
      "outputs": [
        {
          "name": "contract_",
          "type": "address",
          "internalType": "address"
        }
      ],
      "stateMutability": "view"
    },
    {
      "type": "function",
      "name": "getSchedule",
      "inputs": [
        {
          "name": "consensusAddr",
          "type": "address",
          "internalType": "TConsensus"
        }
      ],
      "outputs": [
        {
          "name": "",
          "type": "tuple",
          "internalType": "struct IMaintenance.Schedule",
          "components": [
            {
              "name": "from",
              "type": "uint256",
              "internalType": "uint256"
            },
            {
              "name": "to",
              "type": "uint256",
              "internalType": "uint256"
            },
            {
              "name": "lastUpdatedBlock",
              "type": "uint256",
              "internalType": "uint256"
            },
            {
              "name": "requestTimestamp",
              "type": "uint256",
              "internalType": "uint256"
            }
          ]
        }
      ],
      "stateMutability": "view"
    },
    {
      "type": "function",
      "name": "initialize",
      "inputs": [
        {
          "name": "validatorContract",
          "type": "address",
          "internalType": "address"
        },
        {
          "name": "minMaintenanceDurationInBlock_",
          "type": "uint256",
          "internalType": "uint256"
        },
        {
          "name": "maxMaintenanceDurationInBlock_",
          "type": "uint256",
          "internalType": "uint256"
        },
        {
          "name": "minOffsetToStartSchedule_",
          "type": "uint256",
          "internalType": "uint256"
        },
        {
          "name": "maxOffsetToStartSchedule_",
          "type": "uint256",
          "internalType": "uint256"
        },
        {
          "name": "maxSchedule_",
          "type": "uint256",
          "internalType": "uint256"
        },
        {
          "name": "cooldownSecsToMaintain_",
          "type": "uint256",
          "internalType": "uint256"
        }
      ],
      "outputs": [],
      "stateMutability": "nonpayable"
    },
    {
      "type": "function",
      "name": "initializeV2",
      "inputs": [],
      "outputs": [],
      "stateMutability": "nonpayable"
    },
    {
      "type": "function",
      "name": "initializeV3",
      "inputs": [
        {
          "name": "profileContract_",
          "type": "address",
          "internalType": "address"
        }
      ],
      "outputs": [],
      "stateMutability": "nonpayable"
    },
    {
      "type": "function",
      "name": "maxMaintenanceDurationInBlock",
      "inputs": [],
      "outputs": [
        {
          "name": "",
          "type": "uint256",
          "internalType": "uint256"
        }
      ],
      "stateMutability": "view"
    },
    {
      "type": "function",
      "name": "maxOffsetToStartSchedule",
      "inputs": [],
      "outputs": [
        {
          "name": "",
          "type": "uint256",
          "internalType": "uint256"
        }
      ],
      "stateMutability": "view"
    },
    {
      "type": "function",
      "name": "maxSchedule",
      "inputs": [],
      "outputs": [
        {
          "name": "",
          "type": "uint256",
          "internalType": "uint256"
        }
      ],
      "stateMutability": "view"
    },
    {
      "type": "function",
      "name": "minMaintenanceDurationInBlock",
      "inputs": [],
      "outputs": [
        {
          "name": "",
          "type": "uint256",
          "internalType": "uint256"
        }
      ],
      "stateMutability": "view"
    },
    {
      "type": "function",
      "name": "minOffsetToStartSchedule",
      "inputs": [],
      "outputs": [
        {
          "name": "",
          "type": "uint256",
          "internalType": "uint256"
        }
      ],
      "stateMutability": "view"
    },
    {
      "type": "function",
      "name": "schedule",
      "inputs": [
        {
          "name": "consensusAddr",
          "type": "address",
          "internalType": "TConsensus"
        },
        {
          "name": "startedAtBlock",
          "type": "uint256",
          "internalType": "uint256"
        },
        {
          "name": "endedAtBlock",
          "type": "uint256",
          "internalType": "uint256"
        }
      ],
      "outputs": [],
      "stateMutability": "nonpayable"
    },
    {
      "type": "function",
      "name": "setContract",
      "inputs": [
        {
          "name": "contractType",
          "type": "uint8",
          "internalType": "enum ContractType"
        },
        {
          "name": "addr",
          "type": "address",
          "internalType": "address"
        }
      ],
      "outputs": [],
      "stateMutability": "nonpayable"
    },
    {
      "type": "function",
      "name": "setMaintenanceConfig",
      "inputs": [
        {
          "name": "minMaintenanceDurationInBlock_",
          "type": "uint256",
          "internalType": "uint256"
        },
        {
          "name": "maxMaintenanceDurationInBlock_",
          "type": "uint256",
          "internalType": "uint256"
        },
        {
          "name": "minOffsetToStartSchedule_",
          "type": "uint256",
          "internalType": "uint256"
        },
        {
          "name": "maxOffsetToStartSchedule_",
          "type": "uint256",
          "internalType": "uint256"
        },
        {
          "name": "maxSchedule_",
          "type": "uint256",
          "internalType": "uint256"
        },
        {
          "name": "cooldownSecsToMaintain_",
          "type": "uint256",
          "internalType": "uint256"
        }
      ],
      "outputs": [],
      "stateMutability": "nonpayable"
    },
    {
      "type": "function",
      "name": "totalSchedule",
      "inputs": [],
      "outputs": [
        {
          "name": "count",
          "type": "uint256",
          "internalType": "uint256"
        }
      ],
      "stateMutability": "view"
    },
    {
      "type": "event",
      "name": "ContractUpdated",
      "inputs": [
        {
          "name": "contractType",
          "type": "uint8",
          "indexed": true,
          "internalType": "enum ContractType"
        },
        {
          "name": "addr",
          "type": "address",
          "indexed": true,
          "internalType": "address"
        }
      ],
      "anonymous": false
    },
    {
      "type": "event",
      "name": "Initialized",
      "inputs": [
        {
          "name": "version",
          "type": "uint8",
          "indexed": false,
          "internalType": "uint8"
        }
      ],
      "anonymous": false
    },
    {
      "type": "event",
      "name": "MaintenanceConfigUpdated",
      "inputs": [
        {
          "name": "minMaintenanceDurationInBlock",
          "type": "uint256",
          "indexed": false,
          "internalType": "uint256"
        },
        {
          "name": "maxMaintenanceDurationInBlock",
          "type": "uint256",
          "indexed": false,
          "internalType": "uint256"
        },
        {
          "name": "minOffsetToStartSchedule",
          "type": "uint256",
          "indexed": false,
          "internalType": "uint256"
        },
        {
          "name": "maxOffsetToStartSchedule",
          "type": "uint256",
          "indexed": false,
          "internalType": "uint256"
        },
        {
          "name": "maxSchedules",
          "type": "uint256",
          "indexed": false,
          "internalType": "uint256"
        },
        {
          "name": "cooldownSecsToMaintain",
          "type": "uint256",
          "indexed": false,
          "internalType": "uint256"
        }
      ],
      "anonymous": false
    },
    {
      "type": "event",
      "name": "MaintenanceScheduleCancelled",
      "inputs": [
        {
          "name": "cid",
          "type": "address",
          "indexed": true,
          "internalType": "address"
        }
      ],
      "anonymous": false
    },
    {
      "type": "event",
      "name": "MaintenanceScheduled",
      "inputs": [
        {
          "name": "cid",
          "type": "address",
          "indexed": true,
          "internalType": "address"
        },
        {
          "name": "",
          "type": "tuple",
          "indexed": false,
          "internalType": "struct IMaintenance.Schedule",
          "components": [
            {
              "name": "from",
              "type": "uint256",
              "internalType": "uint256"
            },
            {
              "name": "to",
              "type": "uint256",
              "internalType": "uint256"
            },
            {
              "name": "lastUpdatedBlock",
              "type": "uint256",
              "internalType": "uint256"
            },
            {
              "name": "requestTimestamp",
              "type": "uint256",
              "internalType": "uint256"
            }
          ]
        }
      ],
      "anonymous": false
    },
    {
      "type": "error",
      "name": "ErrAlreadyOnMaintenance",
      "inputs": []
    },
    {
      "type": "error",
      "name": "ErrAlreadyScheduled",
      "inputs": []
    },
    {
      "type": "error",
      "name": "ErrContractTypeNotFound",
      "inputs": [
        {
          "name": "contractType",
          "type": "uint8",
          "internalType": "enum ContractType"
        }
      ]
    },
    {
      "type": "error",
      "name": "ErrCooldownTimeNotYetEnded",
      "inputs": []
    },
    {
      "type": "error",
      "name": "ErrEndBlockOutOfRange",
      "inputs": []
    },
    {
      "type": "error",
      "name": "ErrInvalidMaintenanceDuration",
      "inputs": []
    },
    {
      "type": "error",
      "name": "ErrInvalidMaintenanceDurationConfig",
      "inputs": []
    },
    {
      "type": "error",
      "name": "ErrInvalidOffsetToStartScheduleConfigs",
      "inputs": []
    },
    {
      "type": "error",
      "name": "ErrStartBlockOutOfRange",
      "inputs": []
    },
    {
      "type": "error",
      "name": "ErrTotalOfSchedulesExceeded",
      "inputs": []
    },
    {
      "type": "error",
      "name": "ErrUnauthorized",
      "inputs": [
        {
          "name": "msgSig",
          "type": "bytes4",
          "internalType": "bytes4"
        },
        {
          "name": "expectedRole",
          "type": "uint8",
          "internalType": "enum RoleAccess"
        }
      ]
    },
    {
      "type": "error",
      "name": "ErrUnexistedSchedule",
      "inputs": []
    },
    {
      "type": "error",
      "name": "ErrZeroCodeContract",
      "inputs": [
        {
          "name": "addr",
          "type": "address",
          "internalType": "address"
        }
      ]
    }
  ],
  "address": "0xD7EE26e568B4b78d52aD90681E7dBE4d9b68830E",
  "args": "0x",
  "blockNumber": 24874524,
  "bytecode": "0x608060405234801561001057600080fd5b5061001961001e565b6100eb565b600054600160a81b900460ff161561008c5760405162461bcd60e51b815260206004820152602760248201527f496e697469616c697a61626c653a20636f6e747261637420697320696e697469604482015266616c697a696e6760c81b606482015260840160405180910390fd5b60005460ff600160a01b909104811610156100e9576000805460ff60a01b191660ff60a01b17905560405160ff81527f7f26b83ff96e1f2b6a682f133852f6798a09c465da95921460cefb38474024989060200160405180910390a15b565b611c36806100fa6000396000f3fe608060405234801561001057600080fd5b50600436106101a35760003560e01c80638b042a72116100ee578063bfa89b9b11610097578063de981f1b11610071578063de981f1b1461034b578063dec3628414610376578063f0caaafb1461037e578063fdadda811461039157600080fd5b8063bfa89b9b146102ea578063c09fe460146102f2578063d39fee341461030557600080fd5b8063ba303755116100c8578063ba303755146102c7578063ba7e57bb146102da578063bc1710e9146102e257600080fd5b80638b042a72146102815780638d5b6759146102a1578063ac57bd76146102b457600080fd5b80633101cfcb116101505780638142951a1161012a5780638142951a1461025357806384a9573b14610266578063865e6fd31461026e57600080fd5b80633101cfcb146102305780635cd8a76b146102435780637a50802d1461024b57600080fd5b80630fbeb37f116101815780630fbeb37f146101f55780632d538c2c146102085780632ddc08a21461021d57600080fd5b806301b50209146101a8578063088e8de7146101d057806309e34c38146101e3575b600080fd5b6101bb6101b6366004611744565b6103a4565b60405190151581526020015b60405180910390f35b6101bb6101de366004611761565b6103bd565b6002545b6040519081526020016101c7565b6101bb610203366004611796565b6103da565b61021b610216366004611761565b6103f5565b005b6101bb61022b366004611744565b6108db565b61021b61023e366004611744565b61090b565b61021b610a13565b6005546101e7565b61021b6102613660046117c2565b610b41565b6101e7610ca0565b61021b61027c366004611826565b610d78565b61029461028f3660046118a9565b610d97565b6040516101c791906118fa565b6101bb6102af366004611796565b610de2565b6102946102c2366004611940565b610dee565b6102946102d53660046118a9565b610e2e565b6006546101e7565b6004546101e7565b6003546101e7565b61021b61030036600461198c565b610e85565b610318610313366004611744565b610ea3565b6040516101c791908151815260208083015190820152604080830151908201526060918201519181019190915260800190565b61035e6103593660046119cf565b610f35565b6040516001600160a01b0390911681526020016101c7565b6007546101e7565b61021b61038c366004611744565b610fc9565b61029461039f366004611940565b61116c565b60006103b76103b2836111b8565b611249565b92915050565b60006103d26103cb856111b8565b848461127b565b949350505050565b60006103ee6103e8846111b8565b836112aa565b9392505050565b60006104016008610f35565b9050600061040e856111b8565b6040517fe8712aa70000000000000000000000000000000000000000000000000000000081526001600160a01b0380831660048301529192509083169063e8712aa790602401602060405180830381865afa158015610471573d6000803e3d6000fd5b505050506040513d601f19601f8201168201806040525081019061049591906119ea565b6104cb576000356001600160e01b0319166007604051620f948f60ea1b81526004016104c2929190611a22565b60405180910390fd5b604051632375d91960e11b81526001600160a01b0382811660048301523360248301528316906346ebb23290604401602060405180830381865afa158015610517573d6000803e3d6000fd5b505050506040513d601f19601f8201168201806040525081019061053b91906119ea565b610568576000356001600160e01b0319166004604051620f948f60ea1b81526004016104c2929190611a22565b6001600160a01b0381166000908152600160208190526040909120015443116105bd576040517fb194497700000000000000000000000000000000000000000000000000000000815260040160405180910390fd5b6105c681611249565b6105fc576040517f40fbfaee00000000000000000000000000000000000000000000000000000000815260040160405180910390fd5b600654610607610ca0565b1061063e576040517f437494d300000000000000000000000000000000000000000000000000000000815260040160405180910390fd5b6106646004544361064f9190611a66565b60055461065c9043611a66565b8691906112dc565b610681576040516301f19fb760e61b815260040160405180910390fd5b8284106106a1576040516301f19fb760e61b815260040160405180910390fd5b60006106ad8585611a79565b6106b8906001611a66565b90506106d3600254600354836112dc9092919063ffffffff16565b610709576040517fa1f1aaf500000000000000000000000000000000000000000000000000000000815260040160405180910390fd5b6001600160a01b038316637593ff71610723600188611a79565b6040518263ffffffff1660e01b815260040161074191815260200190565b602060405180830381865afa15801561075e573d6000803e3d6000fd5b505050506040513d601f19601f8201168201806040525081019061078291906119ea565b61079f576040516301f19fb760e61b815260040160405180910390fd5b6040517f7593ff71000000000000000000000000000000000000000000000000000000008152600481018590526001600160a01b03841690637593ff7190602401602060405180830381865afa1580156107fd573d6000803e3d6000fd5b505050506040513d601f19601f8201168201806040525081019061082191906119ea565b610857576040517fec67bbc500000000000000000000000000000000000000000000000000000000815260040160405180910390fd5b6001600160a01b0382166000818152600160208181526040928390208981559182018890554360028301819055426003840181905584518b81529283018a905293820152606081019290925291907f48e8b2f7348b1ec693bbb999258a8d6bd514732a19c6057b6e2a56a4c405253b9060800160405180910390a250505050505050565b60006103b76108e9836111b8565b6001600160a01b03166000908152600160208190526040909120015443111590565b600054600390600160a81b900460ff16158015610936575060005460ff808316600160a01b90920416105b6109995760405162461bcd60e51b815260206004820152602e60248201527f496e697469616c697a61626c653a20636f6e747261637420697320616c72656160448201526d191e481a5b9a5d1a585b1a5e995960921b60648201526084016104c2565b6000805460ff60a81b1960ff8416600160a01b021661ffff60a01b1990911617600160a81b1790556109cc600f836112f3565b6000805460ff60a81b1916905560405160ff821681527f7f26b83ff96e1f2b6a682f133852f6798a09c465da95921460cefb38474024989060200160405180910390a15050565b600054600290600160a81b900460ff16158015610a3e575060005460ff808316600160a01b90920416105b610aa15760405162461bcd60e51b815260206004820152602e60248201527f496e697469616c697a61626c653a20636f6e747261637420697320616c72656160448201526d191e481a5b9a5d1a585b1a5e995960921b60648201526084016104c2565b6000805460ff60a81b1960ff8416600160a01b021661ffff60a01b1990911617600160a81b1790819055610ae0906008906001600160a01b03166112f3565b600080547fffffffffffffffffffff00ff000000000000000000000000000000000000000016905560405160ff821681527f7f26b83ff96e1f2b6a682f133852f6798a09c465da95921460cefb38474024989060200160405180910390a150565b600054600160a81b900460ff1615808015610b6957506000546001600160a01b90910460ff16105b80610b8a5750303b158015610b8a5750600054600160a01b900460ff166001145b610bed5760405162461bcd60e51b815260206004820152602e60248201527f496e697469616c697a61626c653a20636f6e747261637420697320616c72656160448201526d191e481a5b9a5d1a585b1a5e995960921b60648201526084016104c2565b600080547fffffffffffffffffffffff00ffffffffffffffffffffffffffffffffffffffff16600160a01b1790558015610c35576000805460ff60a81b1916600160a81b1790555b610c406008896112f3565b610c4e8787878787876113af565b8015610c96576000805460ff60a81b19169055604051600181527f7f26b83ff96e1f2b6a682f133852f6798a09c465da95921460cefb38474024989060200160405180910390a15b5050505050505050565b600080610cad6008610f35565b6001600160a01b0316639a57bd936040518163ffffffff1660e01b8152600401600060405180830381865afa158015610cea573d6000803e3d6000fd5b505050506040513d6000823e601f3d908101601f19168201604052610d129190810190611aad565b905060005b8151811015610d7357610d5f828281518110610d3557610d35611b72565b60200260200101516001600160a01b03166000908152600160208190526040909120015443111590565b15610d6b576001909201915b600101610d17565b505090565b610d8061149d565b610d89816114f9565b610d9382826112f3565b5050565b6060610dd985858080602002602001604051908101604052809392919081815260200183836020028082843760009201919091525087925086915061154b9050565b95945050505050565b60006103ee83836112aa565b60606103d28484808060200260200160405190810160405280939291908181526020018383602002808284376000920191909152508692506115f5915050565b60606000610e6e86868080602002602001604051908101604052809392919081815260200183836020028082843760009201919091525061169d92505050565b9050610e7b81858561154b565b9695505050505050565b610e8d61149d565b610e9b8686868686866113af565b505050505050565b610ece6040518060800160405280600081526020016000815260200160008152602001600081525090565b60016000610edb846111b8565b6001600160a01b03166001600160a01b031681526020019081526020016000206040518060800160405290816000820154815260200160018201548152602001600282015481526020016003820154815250509050919050565b60007fdea3103d22025c269050bea94c0c84688877f12fa22b7e6d2d5d78a9a49aa1cb600083600f811115610f6c57610f6c611a0c565b60ff1681526020810191909152604001600020546001600160a01b0316905080610fc457816040517f812281be0000000000000000000000000000000000000000000000000000000081526004016104c29190611b88565b919050565b6000610fd4826111b8565b9050610fe06008610f35565b604051632375d91960e11b81526001600160a01b03838116600483015233602483015291909116906346ebb23290604401602060405180830381865afa15801561102e573d6000803e3d6000fd5b505050506040513d601f19601f8201168201806040525081019061105291906119ea565b61107f576000356001600160e01b0319166004604051620f948f60ea1b81526004016104c2929190611a22565b6001600160a01b038116600090815260016020819052604090912001544311156110d5576040517ff7050bef00000000000000000000000000000000000000000000000000000000815260040160405180910390fd5b6110df81436112aa565b15611116576040517f070dff8300000000000000000000000000000000000000000000000000000000815260040160405180910390fd5b6001600160a01b0381166000818152600160208190526040808320838155918201839055436002830155519092917f72720a31deb222f77bbf95b88a540154648466770e5f41328ee1e25e5050737791a2505050565b606060006111ac85858080602002602001604051908101604052809392919081815260200183836020028082843760009201919091525061169d92505050565b9050610dd981846115f5565b60006111c4600f610f35565b6040517f50a9fc290000000000000000000000000000000000000000000000000000000081526001600160a01b03848116600483015291909116906350a9fc2990602401602060405180830381865afa158015611225573d6000803e3d6000fd5b505050506040513d601f19601f820116820180604052508101906103b79190611ba2565b6007546001600160a01b038216600090815260016020526040812060030154909161127391611a66565b421192915050565b6001600160a01b038316600090815260016020819052604082208054918101549091610dd99186918691611719565b6001600160a01b0382166000908152600160205260408120805483108015906103d25750600101549091111592915050565b60008383111580156103d257505090911115919050565b807fdea3103d22025c269050bea94c0c84688877f12fa22b7e6d2d5d78a9a49aa1cb600084600f81111561132957611329611a0c565b60ff168152602081019190915260400160002080547fffffffffffffffffffffffff0000000000000000000000000000000000000000166001600160a01b03928316179055811682600f81111561138257611382611a0c565b6040517f865d1c228a8ea13709cfe61f346f7ff67f1bbd4a18ff31ad3e7147350d317c5990600090a35050565b8486106113e8576040517f71e80c4a00000000000000000000000000000000000000000000000000000000815260040160405180910390fd5b828410611421576040517fb63e3f7800000000000000000000000000000000000000000000000000000000815260040160405180910390fd5b6002869055600385905560048490556005839055600682905560078190556040805187815260208101879052908101859052606081018490526080810183905260a081018290527f4edb6adef66a4b8e1ffbc8c67640d4f244ce904193fd65e5cc316bbb74b2e59b9060c00160405180910390a1505050505050565b7fb53127684a568b3173ae13b9f8a6016e243e63b6e8ee1178d6a717850b5d6103546001600160a01b031633146114f7576000356001600160e01b0319166001604051620f948f60ea1b81526004016104c2929190611a22565b565b806001600160a01b03163b600003611548576040517f2ff1928c0000000000000000000000000000000000000000000000000000000081526001600160a01b03821660048201526024016104c2565b50565b6060835167ffffffffffffffff81111561156757611567611a8c565b604051908082528060200260200182016040528015611590578160200160208202803683370190505b50905060005b84518110156115ed576115c38582815181106115b4576115b4611b72565b6020026020010151858561127b565b8282815181106115d5576115d5611b72565b91151560209283029190910190910152600101611596565b509392505050565b6060825167ffffffffffffffff81111561161157611611611a8c565b60405190808252806020026020018201604052801561163a578160200160208202803683370190505b50905060005b83518110156116965761166c84828151811061165e5761165e611b72565b6020026020010151846112aa565b82828151811061167e5761167e611b72565b91151560209283029190910190910152600101611640565b5092915050565b60606116a9600f610f35565b6001600160a01b031663f9226b1a836040518263ffffffff1660e01b81526004016116d49190611bbf565b600060405180830381865afa1580156116f1573d6000803e3d6000fd5b505050506040513d6000823e601f3d908101601f191682016040526103b79190810190611aad565b6000818511158015610dd9575050501115919050565b6001600160a01b038116811461154857600080fd5b60006020828403121561175657600080fd5b81356103ee8161172f565b60008060006060848603121561177657600080fd5b83356117818161172f565b95602085013595506040909401359392505050565b600080604083850312156117a957600080fd5b82356117b48161172f565b946020939093013593505050565b600080600080600080600060e0888a0312156117dd57600080fd5b87356117e88161172f565b9960208901359950604089013598606081013598506080810135975060a0810135965060c00135945092505050565b803560108110610fc457600080fd5b6000806040838503121561183957600080fd5b61184283611817565b915060208301356118528161172f565b809150509250929050565b60008083601f84011261186f57600080fd5b50813567ffffffffffffffff81111561188757600080fd5b6020830191508360208260051b85010111156118a257600080fd5b9250929050565b600080600080606085870312156118bf57600080fd5b843567ffffffffffffffff8111156118d657600080fd5b6118e28782880161185d565b90989097506020870135966040013595509350505050565b6020808252825182820181905260009190848201906040850190845b81811015611934578351151583529284019291840191600101611916565b50909695505050505050565b60008060006040848603121561195557600080fd5b833567ffffffffffffffff81111561196c57600080fd5b6119788682870161185d565b909790965060209590950135949350505050565b60008060008060008060c087890312156119a557600080fd5b505084359660208601359650604086013595606081013595506080810135945060a0013592509050565b6000602082840312156119e157600080fd5b6103ee82611817565b6000602082840312156119fc57600080fd5b815180151581146103ee57600080fd5b634e487b7160e01b600052602160045260246000fd5b6001600160e01b03198316815260408101600b8310611a4357611a43611a0c565b8260208301529392505050565b634e487b7160e01b600052601160045260246000fd5b808201808211156103b7576103b7611a50565b818103818111156103b7576103b7611a50565b634e487b7160e01b600052604160045260246000fd5b8051610fc48161172f565b60006020808385031215611ac057600080fd5b825167ffffffffffffffff80821115611ad857600080fd5b818501915085601f830112611aec57600080fd5b815181811115611afe57611afe611a8c565b8060051b604051601f19603f83011681018181108582111715611b2357611b23611a8c565b604052918252848201925083810185019188831115611b4157600080fd5b938501935b82851015611b6657611b5785611aa2565b84529385019392850192611b46565b98975050505050505050565b634e487b7160e01b600052603260045260246000fd5b6020810160108310611b9c57611b9c611a0c565b91905290565b600060208284031215611bb457600080fd5b81516103ee8161172f565b6020808252825182820181905260009190848201906040850190845b818110156119345783516001600160a01b031683529284019291840191600101611bdb56fea2646970667358221220479a5635d31fc0421e61fbfc90547a2373c7490e6fa10e443a32aba94d1fd6e564736f6c63430008160033",
  "chainId": 2021,
  "contractAbsolutePath": "Maintenance.sol",
  "deployer": "0x31762cdd4Aa65CD6f5F09D7a05a56211720A1168",
  "devdoc": {
    "version": 1,
    "kind": "dev",
    "methods": {
      "cancelSchedule(address)": {
        "details": "Cancel the schedule of maintenance for the `consensusAddr`. Requirements: - The candidate `consensusAddr` is the block producer. - The method caller is candidate admin of the candidate `consensusAddr`. - A schedule for the `consensusAddr` must be existent and not executed yet. Emits the event `MaintenanceScheduleCancelled`."
      },
      "checkCooldownEnded(address)": {
        "details": "Returns whether the validator `consensusAddr` has finished cooldown."
      },
      "checkMaintained(address,uint256)": {
        "details": "Returns whether the validator `consensusAddr` maintained at the block number `_block`."
      },
      "checkMaintainedInBlockRange(address,uint256,uint256)": {
        "details": "Returns whether the validator `consensusAddr` maintained in the inclusive range [`_fromBlock`, `_toBlock`] of blocks."
      },
      "checkManyMaintained(address[],uint256)": {
        "details": "Returns the bool array indicating the validators maintained at block number `k` or not."
      },
      "checkManyMaintainedInBlockRange(address[],uint256,uint256)": {
        "details": "Returns a bool array indicating the validators maintained in the inclusive range [`_fromBlock`, `_toBlock`] of blocks or not."
      },
      "checkScheduled(address)": {
        "details": "Returns whether the validator `consensusAddr` has schedule."
      },
      "cooldownSecsToMaintain()": {
        "details": "Returns the cooldown to maintain in seconds."
      },
      "getContract(uint8)": {
        "details": "Returns the address of a contract with a specific role. Throws an error if no contract is set for the specified role.",
        "params": {
          "contractType": "The role of the contract to retrieve."
        },
        "returns": {
          "contract_": "The address of the contract with the specified role."
        }
      },
      "getSchedule(address)": {
        "details": "Returns the detailed schedule of the validator `consensusAddr`."
      },
      "initialize(address,uint256,uint256,uint256,uint256,uint256,uint256)": {
        "details": "Initializes the contract storage."
      },
      "maxMaintenanceDurationInBlock()": {
        "details": "Returns the max duration for maintenance in block."
      },
      "maxOffsetToStartSchedule()": {
        "details": "The offset to the max block number that the schedule can start"
      },
      "maxSchedule()": {
        "details": "Returns the max number of scheduled maintenances."
      },
      "minMaintenanceDurationInBlock()": {
        "details": "Returns the min duration for maintenance in block."
      },
      "minOffsetToStartSchedule()": {
        "details": "The offset to the min block number that the schedule can start"
      },
      "schedule(address,uint256,uint256)": {
        "details": "Schedules for maintenance from `startedAtBlock` to `endedAtBlock`. Requirements: - The candidate `consensusAddr` is the block producer. - The method caller is candidate admin of the candidate `consensusAddr`. - The candidate `consensusAddr` has no schedule yet or the previous is done. - The total number of schedules is not larger than `maxSchedules()`. - The start block must be at least `minOffsetToStartSchedule()` and at most `maxOffsetToStartSchedule()` blocks from the current block. - The end block is larger than the start block. - The scheduled duration is larger than the `minMaintenanceDurationInBlock()` and less than the `maxMaintenanceDurationInBlock()`. - The start block is at the start of an epoch. - The end block is at the end of an epoch. Emits the event `MaintenanceScheduled`."
      },
      "setContract(uint8,address)": {
        "details": "Sets the address of a contract with a specific role. Emits the event {ContractUpdated}.",
        "params": {
          "addr": "The address of the contract to set.",
          "contractType": "The role of the contract to set."
        }
      },
      "setMaintenanceConfig(uint256,uint256,uint256,uint256,uint256,uint256)": {
        "details": "Sets the duration restriction, start time restriction, and max allowed for maintenance. Requirements: - The method caller is admin. - The max duration is larger than the min duration. - The max offset is larger than the min offset. Emits the event `MaintenanceConfigUpdated`."
      },
      "totalSchedule()": {
        "details": "Returns the total of current schedules."
      }
    },
    "events": {
      "ContractUpdated(uint8,address)": {
        "details": "Emitted when a contract is updated."
      },
      "Initialized(uint8)": {
        "details": "Triggered when the contract has been initialized or reinitialized."
      },
      "MaintenanceConfigUpdated(uint256,uint256,uint256,uint256,uint256,uint256)": {
        "details": "Emitted when the maintenance config is updated."
      },
      "MaintenanceScheduleCancelled(address)": {
        "details": "Emitted when a schedule of maintenance is cancelled."
      },
      "MaintenanceScheduled(address,(uint256,uint256,uint256,uint256))": {
        "details": "Emitted when a maintenance is scheduled."
      }
    },
    "errors": {
      "ErrAlreadyOnMaintenance()": [
        {
          "details": "Error thrown when attempting to initiate maintenance while already in maintenance mode."
        }
      ],
      "ErrAlreadyScheduled()": [
        {
          "details": "Error thrown when attempting to schedule an already scheduled event."
        }
      ],
      "ErrContractTypeNotFound(uint8)": [
        {
          "details": "Error of invalid role."
        }
      ],
      "ErrCooldownTimeNotYetEnded()": [
        {
          "details": "Error thrown when attempting an action before the cooldown period has ended."
        }
      ],
      "ErrEndBlockOutOfRange()": [
        {
          "details": "Error thrown when the end block of a schedule is out of range."
        }
      ],
      "ErrInvalidMaintenanceDuration()": [
        {
          "details": "Error thrown when an invalid maintenance duration is specified."
        }
      ],
      "ErrInvalidMaintenanceDurationConfig()": [
        {
          "details": "Error thrown when an invalid maintenance duration configuration is provided."
        }
      ],
      "ErrInvalidOffsetToStartScheduleConfigs()": [
        {
          "details": "Error thrown when an invalid offset is specified to start the schedule configurations."
        }
      ],
      "ErrStartBlockOutOfRange()": [
        {
          "details": "Error thrown when the start block of a schedule is out of range."
        }
      ],
      "ErrTotalOfSchedulesExceeded()": [
        {
          "details": "Error thrown when the total number of schedules exceeds the limit."
        }
      ],
      "ErrUnauthorized(bytes4,uint8)": [
        {
          "details": "Error indicating that the caller is unauthorized to perform a specific function.",
          "params": {
            "expectedRole": "The role required to perform the function.",
            "msgSig": "The function signature (bytes4) that the caller is unauthorized to perform."
          }
        }
      ],
      "ErrUnexistedSchedule()": [
        {
          "details": "Error thrown when referring to a non-existent schedule."
        }
      ],
      "ErrZeroCodeContract(address)": [
        {
          "details": "Error of set to non-contract."
        }
      ]
    }
  },
  "isFoundry": true,
  "nonce": 19,
  "numDeployments": 12,
  "storageLayout": {
    "storage": [
      {
        "astId": 40329,
        "contract": "contracts/ronin/Maintenance.sol:Maintenance",
        "label": "______deprecatedValidator",
        "offset": 0,
        "slot": "0",
        "type": "t_address"
      },
      {
        "astId": 150174,
        "contract": "contracts/ronin/Maintenance.sol:Maintenance",
        "label": "_initialized",
        "offset": 20,
        "slot": "0",
        "type": "t_uint8"
      },
      {
        "astId": 150177,
        "contract": "contracts/ronin/Maintenance.sol:Maintenance",
        "label": "_initializing",
        "offset": 21,
        "slot": "0",
        "type": "t_bool"
      },
      {
        "astId": 20685,
        "contract": "contracts/ronin/Maintenance.sol:Maintenance",
        "label": "_schedule",
        "offset": 0,
        "slot": "1",
        "type": "t_mapping(t_address,t_struct(Schedule)7109_storage)"
      },
      {
        "astId": 20688,
        "contract": "contracts/ronin/Maintenance.sol:Maintenance",
        "label": "_minMaintenanceDurationInBlock",
        "offset": 0,
        "slot": "2",
        "type": "t_uint256"
      },
      {
        "astId": 20691,
        "contract": "contracts/ronin/Maintenance.sol:Maintenance",
        "label": "_maxMaintenanceDurationInBlock",
        "offset": 0,
        "slot": "3",
        "type": "t_uint256"
      },
      {
        "astId": 20694,
        "contract": "contracts/ronin/Maintenance.sol:Maintenance",
        "label": "_minOffsetToStartSchedule",
        "offset": 0,
        "slot": "4",
        "type": "t_uint256"
      },
      {
        "astId": 20697,
        "contract": "contracts/ronin/Maintenance.sol:Maintenance",
        "label": "_maxOffsetToStartSchedule",
        "offset": 0,
        "slot": "5",
        "type": "t_uint256"
      },
      {
        "astId": 20700,
        "contract": "contracts/ronin/Maintenance.sol:Maintenance",
        "label": "_maxSchedule",
        "offset": 0,
        "slot": "6",
        "type": "t_uint256"
      },
      {
        "astId": 20703,
        "contract": "contracts/ronin/Maintenance.sol:Maintenance",
        "label": "_cooldownSecsToMaintain",
        "offset": 0,
        "slot": "7",
        "type": "t_uint256"
      }
    ],
    "types": {
      "t_address": {
        "encoding": "inplace",
        "label": "address",
        "numberOfBytes": "20"
      },
      "t_bool": {
        "encoding": "inplace",
        "label": "bool",
        "numberOfBytes": "1"
      },
      "t_mapping(t_address,t_struct(Schedule)7109_storage)": {
        "encoding": "mapping",
        "key": "t_address",
        "label": "mapping(address => struct IMaintenance.Schedule)",
        "numberOfBytes": "32",
        "value": "t_struct(Schedule)7109_storage"
      },
      "t_struct(Schedule)7109_storage": {
        "encoding": "inplace",
        "label": "struct IMaintenance.Schedule",
        "numberOfBytes": "128",
        "members": [
          {
            "astId": 7102,
            "contract": "contracts/ronin/Maintenance.sol:Maintenance",
            "label": "from",
            "offset": 0,
            "slot": "0",
            "type": "t_uint256"
          },
          {
            "astId": 7104,
            "contract": "contracts/ronin/Maintenance.sol:Maintenance",
            "label": "to",
            "offset": 0,
            "slot": "1",
            "type": "t_uint256"
          },
          {
            "astId": 7106,
            "contract": "contracts/ronin/Maintenance.sol:Maintenance",
            "label": "lastUpdatedBlock",
            "offset": 0,
            "slot": "2",
            "type": "t_uint256"
          },
          {
            "astId": 7108,
            "contract": "contracts/ronin/Maintenance.sol:Maintenance",
            "label": "requestTimestamp",
            "offset": 0,
            "slot": "3",
            "type": "t_uint256"
          }
        ]
      },
      "t_uint256": {
        "encoding": "inplace",
        "label": "uint256",
        "numberOfBytes": "32"
      },
      "t_uint8": {
        "encoding": "inplace",
        "label": "uint8",
        "numberOfBytes": "1"
      }
    }
  },
  "timestamp": 1708326505,
  "userdoc": {
    "version": 1,
    "kind": "user"
  }
}