{
  "abi": [
    {
      "type": "constructor",
      "inputs": [],
      "stateMutability": "nonpayable"
    },
    {
      "type": "function",
      "name": "addNewProfile",
      "inputs": [
        {
          "name": "profile",
          "type": "tuple",
          "internalType": "struct IProfile.CandidateProfile",
          "components": [
            {
              "name": "id",
              "type": "address",
              "internalType": "address"
            },
            {
              "name": "consensus",
              "type": "address",
              "internalType": "TConsensus"
            },
            {
              "name": "admin",
              "type": "address",
              "internalType": "address"
            },
            {
              "name": "treasury",
              "type": "address",
              "internalType": "address payable"
            },
            {
              "name": "__reservedGovernor",
              "type": "address",
              "internalType": "address"
            },
            {
              "name": "pubkey",
              "type": "bytes",
              "internalType": "bytes"
            },
            {
              "name": "pubkeyLastChange",
              "type": "uint256",
              "internalType": "uint256"
            },
            {
              "name": "oldPubkey",
              "type": "bytes",
              "internalType": "bytes"
            }
          ]
        }
      ],
      "outputs": [],
      "stateMutability": "nonpayable"
    },
    {
      "type": "function",
      "name": "arePublicKeysRegistered",
      "inputs": [
        {
          "name": "listOfPublicKey",
          "type": "bytes[][2]",
          "internalType": "bytes[][2]"
        }
      ],
      "outputs": [
        {
          "name": "",
          "type": "bool",
          "internalType": "bool"
        }
      ],
      "stateMutability": "view"
    },
    {
      "type": "function",
      "name": "changePubkey",
      "inputs": [
        {
          "name": "id",
          "type": "address",
          "internalType": "address"
        },
        {
          "name": "pubkey",
          "type": "bytes",
          "internalType": "bytes"
        },
        {
          "name": "proofOfPossession",
          "type": "bytes",
          "internalType": "bytes"
        }
      ],
      "outputs": [],
      "stateMutability": "nonpayable"
    },
    {
      "type": "function",
      "name": "execApplyValidatorCandidate",
      "inputs": [
        {
          "name": "admin",
          "type": "address",
          "internalType": "address"
        },
        {
          "name": "id",
          "type": "address",
          "internalType": "address"
        },
        {
          "name": "treasury",
          "type": "address",
          "internalType": "address"
        },
        {
          "name": "pubkey",
          "type": "bytes",
          "internalType": "bytes"
        },
        {
          "name": "proofOfPossession",
          "type": "bytes",
          "internalType": "bytes"
        }
      ],
      "outputs": [],
      "stateMutability": "nonpayable"
    },
    {
      "type": "function",
      "name": "getConsensus2Id",
      "inputs": [
        {
          "name": "consensus",
          "type": "address",
          "internalType": "TConsensus"
        }
      ],
      "outputs": [
        {
          "name": "id",
          "type": "address",
          "internalType": "address"
        }
      ],
      "stateMutability": "view"
    },
    {
      "type": "function",
      "name": "getContract",
      "inputs": [
        {
          "name": "contractType",
          "type": "uint8",
          "internalType": "enum ContractType"
        }
      ],
      "outputs": [
        {
          "name": "contract_",
          "type": "address",
          "internalType": "address"
        }
      ],
      "stateMutability": "view"
    },
    {
      "type": "function",
      "name": "getId2Profile",
      "inputs": [
        {
          "name": "id",
          "type": "address",
          "internalType": "address"
        }
      ],
      "outputs": [
        {
          "name": "",
          "type": "tuple",
          "internalType": "struct IProfile.CandidateProfile",
          "components": [
            {
              "name": "id",
              "type": "address",
              "internalType": "address"
            },
            {
              "name": "consensus",
              "type": "address",
              "internalType": "TConsensus"
            },
            {
              "name": "admin",
              "type": "address",
              "internalType": "address"
            },
            {
              "name": "treasury",
              "type": "address",
              "internalType": "address payable"
            },
            {
              "name": "__reservedGovernor",
              "type": "address",
              "internalType": "address"
            },
            {
              "name": "pubkey",
              "type": "bytes",
              "internalType": "bytes"
            },
            {
              "name": "pubkeyLastChange",
              "type": "uint256",
              "internalType": "uint256"
            },
            {
              "name": "oldPubkey",
              "type": "bytes",
              "internalType": "bytes"
            }
          ]
        }
      ],
      "stateMutability": "view"
    },
    {
      "type": "function",
      "name": "getManyConsensus2Id",
      "inputs": [
        {
          "name": "consensusList",
          "type": "address[]",
          "internalType": "TConsensus[]"
        }
      ],
      "outputs": [
        {
          "name": "idList",
          "type": "address[]",
          "internalType": "address[]"
        }
      ],
      "stateMutability": "view"
    },
    {
      "type": "function",
      "name": "getManyId2Consensus",
      "inputs": [
        {
          "name": "idList",
          "type": "address[]",
          "internalType": "address[]"
        }
      ],
      "outputs": [
        {
          "name": "consensusList",
          "type": "address[]",
          "internalType": "TConsensus[]"
        }
      ],
      "stateMutability": "view"
    },
    {
      "type": "function",
      "name": "initialize",
      "inputs": [
        {
          "name": "validatorContract",
          "type": "address",
          "internalType": "address"
        }
      ],
      "outputs": [],
      "stateMutability": "nonpayable"
    },
    {
      "type": "function",
      "name": "initializeV2",
      "inputs": [
        {
          "name": "stakingContract",
          "type": "address",
          "internalType": "address"
        },
        {
          "name": "trustedOrgContract",
          "type": "address",
          "internalType": "address"
        }
      ],
      "outputs": [],
      "stateMutability": "nonpayable"
    },
    {
      "type": "function",
      "name": "initializeV3",
      "inputs": [
        {
          "name": "cooldown",
          "type": "uint256",
          "internalType": "uint256"
        }
      ],
      "outputs": [],
      "stateMutability": "nonpayable"
    },
    {
      "type": "function",
      "name": "precompileVerifyBLSPublicKeyAddress",
      "inputs": [],
      "outputs": [
        {
          "name": "",
          "type": "address",
          "internalType": "address"
        }
      ],
      "stateMutability": "view"
    },
    {
      "type": "function",
      "name": "requestChangeAdminAddress",
      "inputs": [
        {
          "name": "id",
          "type": "address",
          "internalType": "address"
        },
        {
          "name": "newAdminAddr",
          "type": "address",
          "internalType": "address"
        }
      ],
      "outputs": [],
      "stateMutability": "nonpayable"
    },
    {
      "type": "function",
      "name": "requestChangeConsensusAddr",
      "inputs": [
        {
          "name": "id",
          "type": "address",
          "internalType": "address"
        },
        {
          "name": "newConsensusAddr",
          "type": "address",
          "internalType": "TConsensus"
        }
      ],
      "outputs": [],
      "stateMutability": "nonpayable"
    },
    {
      "type": "function",
      "name": "requestChangeTreasuryAddr",
      "inputs": [
        {
          "name": "",
          "type": "address",
          "internalType": "address"
        },
        {
          "name": "",
          "type": "address",
          "internalType": "address payable"
        }
      ],
      "outputs": [],
      "stateMutability": "pure"
    },
    {
      "type": "function",
      "name": "setContract",
      "inputs": [
        {
          "name": "contractType",
          "type": "uint8",
          "internalType": "enum ContractType"
        },
        {
          "name": "addr",
          "type": "address",
          "internalType": "address"
        }
      ],
      "outputs": [],
      "stateMutability": "nonpayable"
    },
    {
      "type": "function",
      "name": "setPubkeyChangeCooldown",
      "inputs": [
        {
          "name": "cooldown",
          "type": "uint256",
          "internalType": "uint256"
        }
      ],
      "outputs": [],
      "stateMutability": "nonpayable"
    },
    {
      "type": "event",
      "name": "ContractUpdated",
      "inputs": [
        {
          "name": "contractType",
          "type": "uint8",
          "indexed": true,
          "internalType": "enum ContractType"
        },
        {
          "name": "addr",
          "type": "address",
          "indexed": true,
          "internalType": "address"
        }
      ],
      "anonymous": false
    },
    {
      "type": "event",
      "name": "Initialized",
      "inputs": [
        {
          "name": "version",
          "type": "uint8",
          "indexed": false,
          "internalType": "uint8"
        }
      ],
      "anonymous": false
    },
    {
      "type": "event",
      "name": "ProfileAdded",
      "inputs": [
        {
          "name": "id",
          "type": "address",
          "indexed": true,
          "internalType": "address"
        }
      ],
      "anonymous": false
    },
    {
      "type": "event",
      "name": "ProfileAddressChanged",
      "inputs": [
        {
          "name": "id",
          "type": "address",
          "indexed": true,
          "internalType": "address"
        },
        {
          "name": "addressType",
          "type": "uint8",
          "indexed": true,
          "internalType": "enum RoleAccess"
        },
        {
          "name": "addr",
          "type": "address",
          "indexed": true,
          "internalType": "address"
        }
      ],
      "anonymous": false
    },
    {
      "type": "event",
      "name": "ProfileMigrated",
      "inputs": [
        {
          "name": "id",
          "type": "address",
          "indexed": true,
          "internalType": "address"
        },
        {
          "name": "admin",
          "type": "address",
          "indexed": true,
          "internalType": "address"
        },
        {
          "name": "treasury",
          "type": "address",
          "indexed": true,
          "internalType": "address"
        }
      ],
      "anonymous": false
    },
    {
      "type": "event",
      "name": "PubkeyChanged",
      "inputs": [
        {
          "name": "id",
          "type": "address",
          "indexed": true,
          "internalType": "address"
        },
        {
          "name": "pubkey",
          "type": "bytes",
          "indexed": false,
          "internalType": "bytes"
        }
      ],
      "anonymous": false
    },
    {
      "type": "event",
      "name": "PubkeyVerified",
      "inputs": [
        {
          "name": "pubkey",
          "type": "bytes",
          "indexed": false,
          "internalType": "bytes"
        },
        {
          "name": "proofOfPossession",
          "type": "bytes",
          "indexed": false,
          "internalType": "bytes"
        }
      ],
      "anonymous": false
    },
    {
      "type": "error",
      "name": "ErrCallPrecompiled",
      "inputs": []
    },
    {
      "type": "error",
      "name": "ErrContractTypeNotFound",
      "inputs": [
        {
          "name": "contractType",
          "type": "uint8",
          "internalType": "enum ContractType"
        }
      ]
    },
    {
      "type": "error",
      "name": "ErrDuplicatedInfo",
      "inputs": [
        {
          "name": "infoType",
          "type": "uint8",
          "internalType": "enum RoleAccess"
        },
        {
          "name": "value",
          "type": "uint256",
          "internalType": "uint256"
        }
      ]
    },
    {
      "type": "error",
      "name": "ErrDuplicatedPubkey",
      "inputs": [
        {
          "name": "pubkey",
          "type": "bytes",
          "internalType": "bytes"
        }
      ]
    },
    {
      "type": "error",
      "name": "ErrExistentProfile",
      "inputs": []
    },
    {
      "type": "error",
      "name": "ErrIdAndConsensusDiffer",
      "inputs": []
    },
    {
      "type": "error",
      "name": "ErrInvalidProofOfPossession",
      "inputs": [
        {
          "name": "pubkey",
          "type": "bytes",
          "internalType": "bytes"
        },
        {
          "name": "proofOfPossession",
          "type": "bytes",
          "internalType": "bytes"
        }
      ]
    },
    {
      "type": "error",
      "name": "ErrNonExistentProfile",
      "inputs": []
    },
    {
      "type": "error",
      "name": "ErrPubkeyChangeCooldownNotEnded",
      "inputs": []
    },
    {
      "type": "error",
      "name": "ErrUnauthorized",
      "inputs": [
        {
          "name": "msgSig",
          "type": "bytes4",
          "internalType": "bytes4"
        },
        {
          "name": "expectedRole",
          "type": "uint8",
          "internalType": "enum RoleAccess"
        }
      ]
    },
    {
      "type": "error",
      "name": "ErrUnexpectedInternalCall",
      "inputs": [
        {
          "name": "msgSig",
          "type": "bytes4",
          "internalType": "bytes4"
        },
        {
          "name": "expectedContractType",
          "type": "uint8",
          "internalType": "enum ContractType"
        },
        {
          "name": "actual",
          "type": "address",
          "internalType": "address"
        }
      ]
    },
    {
      "type": "error",
      "name": "ErrZeroAddress",
      "inputs": [
        {
          "name": "infoType",
          "type": "uint8",
          "internalType": "enum RoleAccess"
        }
      ]
    },
    {
      "type": "error",
      "name": "ErrZeroCodeContract",
      "inputs": [
        {
          "name": "addr",
          "type": "address",
          "internalType": "address"
        }
      ]
    },
    {
      "type": "error",
      "name": "ErrZeroPubkey",
      "inputs": []
    }
  ],
  "address": "0xCA1567920d00AEA6175E920451909efd54696185",
  "args": "0x",
  "blockNumber": 24275799,
  "bytecode": "0x60806040523480156200001157600080fd5b506200001c62000022565b620000e4565b603354610100900460ff16156200008f5760405162461bcd60e51b815260206004820152602760248201527f496e697469616c697a61626c653a20636f6e747261637420697320696e697469604482015266616c697a696e6760c81b606482015260840160405180910390fd5b60335460ff9081161015620000e2576033805460ff191660ff9081179091556040519081527f7f26b83ff96e1f2b6a682f133852f6798a09c465da95921460cefb38474024989060200160405180910390a15b565b6125c680620000f46000396000f3fe608060405234801561001057600080fd5b50600436106101365760003560e01c80639a1a05e0116100b2578063c4d66de811610081578063de981f1b11610066578063de981f1b146102a1578063f4660940146102b4578063f9226b1a146102d457600080fd5b8063c4d66de81461027b578063d1cb88301461028e57600080fd5b80639a1a05e01461022e578063b0abaea614610241578063b261596f14610248578063b5017aef1461026857600080fd5b806350a9fc291161010957806384cb1010116100ee57806384cb1010146101f5578063865e6fd31461020857806398a02c2c1461021b57600080fd5b806350a9fc29146101895780637e18b566146101d257600080fd5b80630840ba721461013b578063183584c1146101505780631f97bdb1146101635780633c3d841014610176575b600080fd5b61014e610149366004611a8d565b6102e7565b005b61014e61015e366004611a8d565b6104b4565b61014e610171366004611a8d565b6104fc565b61014e610184366004611ac6565b610655565b6101b5610197366004611adf565b6001600160a01b039081166000908152600260205260409020541690565b6040516001600160a01b0390911681526020015b60405180910390f35b6101e56101e0366004611b03565b61073d565b60405190151581526020016101c9565b61014e610203366004611a8d565b610821565b61014e610216366004611b4d565b6109f7565b61014e610229366004611ac6565b610a16565b61014e61023c366004611bb2565b610a2a565b606a6101b5565b61025b610256366004611c7a565b610ad4565b6040516101c99190611cbc565b61014e610276366004611d09565b610bad565b61014e610289366004611adf565b610cca565b61014e61029c366004611e92565b610dd7565b6101b56102af366004611f83565b610e27565b6102c76102c2366004611adf565b610ebb565b6040516101c99190611fe4565b61025b6102e2366004611c7a565b611097565b603354600290610100900460ff16158015610309575060335460ff8083169116105b6103715760405162461bcd60e51b815260206004820152602e60248201527f496e697469616c697a61626c653a20636f6e747261637420697320616c72656160448201526d191e481a5b9a5d1a585b1a5e995960921b60648201526084015b60405180910390fd5b6033805461ffff191660ff831617610100179055610390600984611167565b61039b600a83611167565b60006103a76008610e27565b6001600160a01b031663ba77b06c6040518163ffffffff1660e01b8152600401600060405180830381865afa1580156103e4573d6000803e3d6000fd5b505050506040513d6000823e601f3d908101601f1916820160405261040c91908101906120a0565b905060005b815181101561046c57600082828151811061042e5761042e612152565b6020908102919091018101516001600160a01b031660008181526002909252604090912080546001600160a01b031916909117905550600101610411565b50506033805461ff001916905560405160ff821681527f7f26b83ff96e1f2b6a682f133852f6798a09c465da95921460cefb38474024989060200160405180910390a1505050565b60405162461bcd60e51b815260206004820152600d60248201527f4e6f7420737570706f72746564000000000000000000000000000000000000006044820152606401610368565b60006105078361120d565b905061051281611261565b61051d600983611340565b60018101546001600160a01b031660006105376008610e27565b6040517fd93fa3060000000000000000000000000000000000000000000000000000000081526001600160a01b03878116600483015286811660248301529192509082169063d93fa30690604401600060405180830381600087803b15801561059f57600080fd5b505af11580156105b3573d6000803e3d6000fd5b5050505060006105c3600a610e27565b6040517fa0c302a70000000000000000000000000000000000000000000000000000000081526001600160a01b03858116600483015287811660248301529192509082169063a0c302a790604401600060405180830381600087803b15801561062b57600080fd5b505af115801561063f573d6000803e3d6000fd5b5050505061064d848661138c565b505050505050565b603354600390610100900460ff16158015610677575060335460ff8083169116105b6106da5760405162461bcd60e51b815260206004820152602e60248201527f496e697469616c697a61626c653a20636f6e747261637420697320616c72656160448201526d191e481a5b9a5d1a585b1a5e995960921b6064820152608401610368565b6033805461ffff191660ff8316176101001790556106f782600355565b6033805461ff001916905560405160ff821681527f7f26b83ff96e1f2b6a682f133852f6798a09c465da95921460cefb3847402498906020015b60405180910390a15050565b6000805b60028110156108185760005b83826002811061075f5761075f612152565b60200281019061076f9190612168565b905081101561080f576107f984836002811061078d5761078d612152565b60200281019061079d9190612168565b838181106107ad576107ad612152565b90506020028101906107bf91906121b2565b8080601f01602080910402602001604051908101604052809392919081815260200183838082843760009201919091525061143392505050565b610807575060009392505050565b60010161074d565b50600101610741565b50600192915050565b600061082c8361120d565b905061083781611261565b610842600483611340565b600061084e6009610e27565b6040517f9ee3c3f80000000000000000000000000000000000000000000000000000000081526001600160a01b038681166004830152336024830152858116604483015291925090821690639ee3c3f890606401600060405180830381600087803b1580156108bc57600080fd5b505af11580156108d0573d6000803e3d6000fd5b5050505060006108e06008610e27565b6040517fea80d67d0000000000000000000000000000000000000000000000000000000081526001600160a01b03878116600483015286811660248301529192509082169063ea80d67d90604401600060405180830381600087803b15801561094857600080fd5b505af115801561095c573d6000803e3d6000fd5b50506040517fecd850cc0000000000000000000000000000000000000000000000000000000081526001600160a01b03888116600483015287811660248301528416925063ecd850cc9150604401600060405180830381600087803b1580156109c457600080fd5b505af11580156109d8573d6000803e3d6000fd5b505050506109e68385611462565b6109f083856114a5565b5050505050565b6109ff6114e8565b610a0881611542565b610a128282611167565b5050565b610a1e6114e8565b610a2781600355565b50565b6000610a358661120d565b9050610a4081611261565b610a7f85858080601f01602080910402602001604051908101604052809392919081815260200183838082843760009201919091525061159192505050565b610a88816115d3565b610a948585858561161d565b61064d8186868080601f0160208091040260200160405190810160405280939291908181526020018383808284376000920191909152506116aa92505050565b60608167ffffffffffffffff811115610aef57610aef611db1565b604051908082528060200260200182016040528015610b18578160200160208202803683370190505b50905060005b82811015610ba657600080858584818110610b3b57610b3b612152565b9050602002016020810190610b509190611adf565b6001600160a01b0390811682526020820192909252604001600020600101548351911690839083908110610b8657610b86612152565b6001600160a01b0390921660209283029190910190910152600101610b1e565b5092915050565b6009610bb881611767565b6001600160a01b038088166000908152602081905260409020805490911615610bf45760405163249b38f960e01b815260040160405180910390fd5b60006040518061010001604052808a6001600160a01b031681526020018a6001600160a01b031681526020018b6001600160a01b03168152602001896001600160a01b0316815260200160006001600160a01b0316815260200188888080601f016020809104026020016040519081016040528093929190818152602001838380828437600092018290525093855250505060208083018290526040805191820181529181529101529050610ca8816117cc565b610cb48787878761161d565b610cbe8282611815565b50505050505050505050565b603354610100900460ff1615808015610cea5750603354600160ff909116105b80610d045750303b158015610d04575060335460ff166001145b610d675760405162461bcd60e51b815260206004820152602e60248201527f496e697469616c697a61626c653a20636f6e747261637420697320616c72656160448201526d191e481a5b9a5d1a585b1a5e995960921b6064820152608401610368565b6033805460ff191660011790558015610d8a576033805461ff0019166101001790555b610d95600883611167565b8015610a12576033805461ff0019169055604051600181527f7f26b83ff96e1f2b6a682f133852f6798a09c465da95921460cefb384740249890602001610731565b610ddf6114e8565b80516001600160a01b039081166000908152602081905260409020805490911615610e1d5760405163249b38f960e01b815260040160405180910390fd5b610a128183611815565b60007fdea3103d22025c269050bea94c0c84688877f12fa22b7e6d2d5d78a9a49aa1cb600083600f811115610e5e57610e5e6121f9565b60ff1681526020810191909152604001600020546001600160a01b0316905080610eb657816040517f812281be0000000000000000000000000000000000000000000000000000000081526004016103689190612223565b919050565b604080516101008101825260008082526020820181905291810182905260608082018390526080820183905260a0820181905260c082019290925260e08101919091526001600160a01b0380831660009081526020818152604091829020825161010081018452815485168152600182015485169281019290925260028101548416928201929092526003820154831660608201526004820154909216608083015260058101805460a084019190610f7290612237565b80601f0160208091040260200160405190810160405280929190818152602001828054610f9e90612237565b8015610feb5780601f10610fc057610100808354040283529160200191610feb565b820191906000526020600020905b815481529060010190602001808311610fce57829003601f168201915b505050505081526020016006820154815260200160078201805461100e90612237565b80601f016020809104026020016040519081016040528092919081815260200182805461103a90612237565b80156110875780601f1061105c57610100808354040283529160200191611087565b820191906000526020600020905b81548152906001019060200180831161106a57829003601f168201915b5050505050815250509050919050565b60608167ffffffffffffffff8111156110b2576110b2611db1565b6040519080825280602002602001820160405280156110db578160200160208202803683370190505b50905060005b82811015610ba657600260008585848181106110ff576110ff612152565b90506020020160208101906111149190611adf565b6001600160a01b039081168252602082019290925260400160002054835191169083908390811061114757611147612152565b6001600160a01b03909216602092830291909101909101526001016110e1565b807fdea3103d22025c269050bea94c0c84688877f12fa22b7e6d2d5d78a9a49aa1cb600084600f81111561119d5761119d6121f9565b60ff168152602081019190915260400160002080546001600160a01b0319166001600160a01b03928316179055811682600f8111156111de576111de6121f9565b6040517f865d1c228a8ea13709cfe61f346f7ff67f1bbd4a18ff31ad3e7147350d317c5990600090a35050565b565b6001600160a01b0380821660009081526020819052604090208054909116610eb6576040517f682a559600000000000000000000000000000000000000000000000000000000815260040160405180910390fd5b60028101546001600160a01b03163314158061131257506112826008610e27565b60018201546040517f04d971ab0000000000000000000000000000000000000000000000000000000081526001600160a01b0391821660048201523360248201529116906304d971ab90604401602060405180830381865afa1580156112ec573d6000803e3d6000fd5b505050506040513d601f19601f820116820180604052508101906113109190612271565b155b15610a27576000356001600160e01b0319166004604051620f948f60ea1b81526004016103689291906122a3565b6001600160a01b03811661138257816040517f57ed62e400000000000000000000000000000000000000000000000000000000815260040161036891906122c1565b610a1282826118b4565b600180830180546001600160a01b03908116600090815260026020908152604080832080546001600160a01b03199081169091558854888616808652838620805484169290971691909117909555855416841790945584905291909120805460ff191690921790915560095b83546040516001600160a01b03909116907fe9654874a1d2cdb1459fe91e0442173d77f8e1baa4897e3f5c10e769a1515d0690600090a45050565b60006001600061144884805160209091012090565b815260208101919091526040016000205460ff1692915050565b6002820180546001600160a01b0319166001600160a01b0383169081179091556000818152600160208190526040909120805460ff1916909117905560046113f8565b6003820180546001600160a01b0319166001600160a01b0383169081179091556000818152600160208190526040909120805460ff19169091179055600a6113f8565b7fb53127684a568b3173ae13b9f8a6016e243e63b6e8ee1178d6a717850b5d6103546001600160a01b0316331461120b576000356001600160e01b0319166001604051620f948f60ea1b81526004016103689291906122a3565b806001600160a01b03163b600003610a27576040517f2ff1928c0000000000000000000000000000000000000000000000000000000081526001600160a01b0382166004820152602401610368565b61159a81611433565b15610a2757806040517f7995d6c800000000000000000000000000000000000000000000000000000000815260040161036891906122cf565b60035481600601546115e591906122e2565b4211610a27576040517f07420f4000000000000000000000000000000000000000000000000000000000815260040160405180910390fd5b61162984848484611914565b61166757838383836040517f97cf1c8d000000000000000000000000000000000000000000000000000000008152600401610368949392919061232c565b7fb737fd977072c109cccc97108f9f8a9017af4bbf4d20938a747f17d8921c50a68484848460405161169c949392919061232c565b60405180910390a150505050565b8160050180546116b990612237565b1590506116d357600782016116d160058401826123ab565b505b600582016116e18282612488565b5042600683015560018060006116fc84805160209091012090565b815260208101919091526040908101600020805460ff191692151592909217909155825490516001600160a01b03909116907fe13225a225fbfeebd9d707546f3d7adee5d72738ac686cc5b97266c49745a56b9061175b9084906122cf565b60405180910390a25050565b61177081610e27565b6001600160a01b0316336001600160a01b031614610a27576000356001600160e01b03191681336040517f8383e63400000000000000000000000000000000000000000000000000000000815260040161036893929190612540565b6117db60098260200151611340565b6117ea60048260400151611340565b6117f9600a8260600151611340565b611808600a82608001516118b4565b610a278160a00151611591565b805182546001600160a01b0319166001600160a01b03909116178255602081015161184190839061138c565b61184f828260400151611462565b61185d8282606001516114a5565b61186b828260800151611a02565b611879828260a001516116aa565b80516040516001600160a01b03909116907fc9da0ae38bd4761b72da1045c9b2618f0cd991dcac01e1f9bbf68474025f074390600090a25050565b6001600160a01b03811660009081526001602052604090205460ff1615610a125781816001600160a01b03166040517fe4166aaa000000000000000000000000000000000000000000000000000000008152600401610368929190612575565b604051600090606a90600190839061193690899089908990899060240161232c565b60408051601f198184030181529190526020810180517bffffffffffffffffffffffffffffffffffffffffffffffffffffffff167f7eae32c200000000000000000000000000000000000000000000000000000000179052805190915061199b611a4f565b602083016020828483895afa6119b057600094505b503d6119bb57600093505b836119f2576040517f0fc2632100000000000000000000000000000000000000000000000000000000815260040160405180910390fd5b5115159998505050505050505050565b6004820180546001600160a01b0319166001600160a01b03831690811790915515610a12576001600160a01b03166000908152600160208190526040909120805460ff1916909117905550565b60405180602001604052806001906020820280368337509192915050565b6001600160a01b0381168114610a2757600080fd5b8035610eb681611a6d565b60008060408385031215611aa057600080fd5b8235611aab81611a6d565b91506020830135611abb81611a6d565b809150509250929050565b600060208284031215611ad857600080fd5b5035919050565b600060208284031215611af157600080fd5b8135611afc81611a6d565b9392505050565b600060208284031215611b1557600080fd5b813567ffffffffffffffff811115611b2c57600080fd5b820160408101841015611afc57600080fd5b803560108110610eb657600080fd5b60008060408385031215611b6057600080fd5b611aab83611b3e565b60008083601f840112611b7b57600080fd5b50813567ffffffffffffffff811115611b9357600080fd5b602083019150836020828501011115611bab57600080fd5b9250929050565b600080600080600060608688031215611bca57600080fd5b8535611bd581611a6d565b9450602086013567ffffffffffffffff80821115611bf257600080fd5b611bfe89838a01611b69565b90965094506040880135915080821115611c1757600080fd5b50611c2488828901611b69565b969995985093965092949392505050565b60008083601f840112611c4757600080fd5b50813567ffffffffffffffff811115611c5f57600080fd5b6020830191508360208260051b8501011115611bab57600080fd5b60008060208385031215611c8d57600080fd5b823567ffffffffffffffff811115611ca457600080fd5b611cb085828601611c35565b90969095509350505050565b6020808252825182820181905260009190848201906040850190845b81811015611cfd5783516001600160a01b031683529284019291840191600101611cd8565b50909695505050505050565b600080600080600080600060a0888a031215611d2457600080fd5b8735611d2f81611a6d565b96506020880135611d3f81611a6d565b95506040880135611d4f81611a6d565b9450606088013567ffffffffffffffff80821115611d6c57600080fd5b611d788b838c01611b69565b909650945060808a0135915080821115611d9157600080fd5b50611d9e8a828b01611b69565b989b979a50959850939692959293505050565b634e487b7160e01b600052604160045260246000fd5b604051610100810167ffffffffffffffff81118282101715611deb57611deb611db1565b60405290565b604051601f8201601f1916810167ffffffffffffffff81118282101715611e1a57611e1a611db1565b604052919050565b600082601f830112611e3357600080fd5b813567ffffffffffffffff811115611e4d57611e4d611db1565b611e60601f8201601f1916602001611df1565b818152846020838601011115611e7557600080fd5b816020850160208301376000918101602001919091529392505050565b600060208284031215611ea457600080fd5b813567ffffffffffffffff80821115611ebc57600080fd5b908301906101008286031215611ed157600080fd5b611ed9611dc7565b611ee283611a82565b8152611ef060208401611a82565b6020820152611f0160408401611a82565b6040820152611f1260608401611a82565b6060820152611f2360808401611a82565b608082015260a083013582811115611f3a57600080fd5b611f4687828601611e22565b60a08301525060c083013560c082015260e083013582811115611f6857600080fd5b611f7487828601611e22565b60e08301525095945050505050565b600060208284031215611f9557600080fd5b611afc82611b3e565b6000815180845260005b81811015611fc457602081850181015186830182015201611fa8565b506000602082860101526020601f19601f83011685010191505092915050565b602081526001600160a01b0382511660208201526000602083015161201460408401826001600160a01b03169052565b5060408301516001600160a01b03811660608401525060608301516001600160a01b03811660808401525060808301516001600160a01b03811660a08401525060a08301516101008060c0850152612070610120850183611f9e565b915060c085015160e085015260e0850151601f1985840301828601526120968382611f9e565b9695505050505050565b600060208083850312156120b357600080fd5b825167ffffffffffffffff808211156120cb57600080fd5b818501915085601f8301126120df57600080fd5b8151818111156120f1576120f1611db1565b8060051b9150612102848301611df1565b818152918301840191848101908884111561211c57600080fd5b938501935b83851015612146578451925061213683611a6d565b8282529385019390850190612121565b98975050505050505050565b634e487b7160e01b600052603260045260246000fd5b6000808335601e1984360301811261217f57600080fd5b83018035915067ffffffffffffffff82111561219a57600080fd5b6020019150600581901b3603821315611bab57600080fd5b6000808335601e198436030181126121c957600080fd5b83018035915067ffffffffffffffff8211156121e457600080fd5b602001915036819003821315611bab57600080fd5b634e487b7160e01b600052602160045260246000fd5b6010811061221f5761221f6121f9565b9052565b60208101612231828461220f565b92915050565b600181811c9082168061224b57607f821691505b60208210810361226b57634e487b7160e01b600052602260045260246000fd5b50919050565b60006020828403121561228357600080fd5b81518015158114611afc57600080fd5b600b811061221f5761221f6121f9565b6001600160e01b03198316815260408101611afc6020830184612293565b602081016122318284612293565b602081526000611afc6020830184611f9e565b8082018082111561223157634e487b7160e01b600052601160045260246000fd5b81835281816020850137506000828201602090810191909152601f909101601f19169091010190565b604081526000612340604083018688612303565b8281036020840152612353818587612303565b979650505050505050565b601f8211156123a6576000816000526020600020601f850160051c810160208610156123875750805b601f850160051c820191505b8181101561064d57828155600101612393565b505050565b8181036123b6575050565b6123c08254612237565b67ffffffffffffffff8111156123d8576123d8611db1565b6123ec816123e68454612237565b8461235e565b6000601f82116001811461242057600083156124085750848201545b600019600385901b1c1916600184901b1784556109f0565b600085815260209020601f19841690600086815260209020845b8381101561245a578286015482556001958601959091019060200161243a565b50858310156124785781850154600019600388901b60f8161c191681555b5050505050600190811b01905550565b815167ffffffffffffffff8111156124a2576124a2611db1565b6124b0816123e68454612237565b602080601f8311600181146124e557600084156124cd5750858301515b600019600386901b1c1916600185901b17855561064d565b600085815260208120601f198616915b82811015612514578886015182559484019460019091019084016124f5565b508582101561247857939096015160001960f8600387901b161c19169092555050600190811b01905550565b6001600160e01b0319841681526060810161255e602083018561220f565b6001600160a01b0383166040830152949350505050565b604081016125838285612293565b826020830152939250505056fea26469706673582212202de9dafb63c7bfa54b70608d010a2e9f919e7cf2b0a022f0068be5ab5dbca8f964736f6c63430008160033",
  "chainId": 2021,
  "contractAbsolutePath": "Profile.sol",
  "deployer": "0x31762cdd4Aa65CD6f5F09D7a05a56211720A1168",
  "devdoc": {
    "version": 1,
    "kind": "dev",
    "methods": {
      "addNewProfile((address,address,address,address,address,bytes,uint256,bytes))": {
        "details": "Requirements: - The profile must not be existent before. - Only contract admin can call this method."
      },
      "arePublicKeysRegistered(bytes[][2])": {
        "details": "Cross-contract function to for slash indicator to check the list of public keys in finality slash proof Returns whether all public keys are registered."
      },
      "changePubkey(address,bytes,bytes)": {
        "details": "Requirements: - The profile must be existed. - Only user with candidate admin role can call this method. - New public key must not be duplicated. - The proof of public key possession must be verified successfully. - The public key change cooldown must be ended."
      },
      "execApplyValidatorCandidate(address,address,address,bytes,bytes)": {
        "details": "Cross-contract function to add/update new profile of a validator candidate when they applying for candidate role. Requirements: - Only `stakingContract` can call this method."
      },
      "getConsensus2Id(address)": {
        "details": "Getter to backward query from `consensus` address to `id` address."
      },
      "getContract(uint8)": {
        "details": "Returns the address of a contract with a specific role. Throws an error if no contract is set for the specified role.",
        "params": {
          "contractType": "The role of the contract to retrieve."
        },
        "returns": {
          "contract_": "The address of the contract with the specified role."
        }
      },
      "getId2Profile(address)": {
        "details": "Getter to query full `profile` from `id` address."
      },
      "getManyConsensus2Id(address[])": {
        "details": "Getter to backward batch query from `consensus` address to `id` address."
      },
      "getManyId2Consensus(address[])": {
        "details": "Getter to batch query from `id` to `consensus`, return address(0) if the profile not exist."
      },
      "precompileVerifyBLSPublicKeyAddress()": {
        "details": "Gets the address of the precompile of validating double sign evidence"
      },
      "requestChangeAdminAddress(address,address)": {
        "details": "Side-effects on other contracts: - Update Staking contract:    + [x] Update (id => PoolDetail) mapping in {BaseStaking.sol}.    + [x] Update `_adminOfActivePoolMapping` in {BaseStaking.sol}.    + [x] Move staking amount of previous admin to the the new admin. - Update Validator contract:    + [x] Update (id => ValidatorCandidate) mapping - See other side-effects for treasury in {requestChangeTreasuryAddr}, since treasury and admin must be identical."
      },
      "requestChangeConsensusAddr(address,address)": {
        "details": "Side-effects on other contracts: - Update in Staking contract for Consensus address mapping:   + [x] Keep the same previous pool address. - Update in Validator contract for:   + [x] Consensus Address mapping   + [x] Bridge Address mapping   + [x] Jail mapping   + [x] Pending reward mapping   + [x] Schedule mapping - Update in Slashing contract for:   + [x] Handling slash indicator   + [x] Handling slash fast finality   + [x] Handling slash double sign - Update in Proposal contract for:   + [-] Preserve the consensus address and recipient target of locked amount of emergency exit - Update Trusted Org contracts:   + [x] Remove and delete weight of the old consensus   + [x] Replace and add weight for the new consensus"
      },
      "requestChangeTreasuryAddr(address,address)": {
        "details": "Side-effects on other contracts: - Update Validator contract:    + [x] Update (id => ValidatorCandidate) mapping - Update governance admin:    + [-] Update recipient in the EmergencyExitBallot to the newTreasury.          Cannot impl since we cannot cancel the previous the ballot and          create a new ballot on behalf of the validator contract."
      },
      "setContract(uint8,address)": {
        "details": "Sets the address of a contract with a specific role. Emits the event {ContractUpdated}.",
        "params": {
          "addr": "The address of the contract to set.",
          "contractType": "The role of the contract to set."
        }
      },
      "setPubkeyChangeCooldown(uint256)": {
        "details": "Change the cooldown between 2 public key change Requirement:  - Only admin can call this method"
      }
    },
    "events": {
      "ContractUpdated(uint8,address)": {
        "details": "Emitted when a contract is updated."
      },
      "Initialized(uint8)": {
        "details": "Triggered when the contract has been initialized or reinitialized."
      },
      "ProfileAdded(address)": {
        "details": "Event emitted when a profile with `id` is added."
      },
      "ProfileAddressChanged(address,uint8,address)": {
        "details": "Event emitted when a address in a profile is changed."
      },
      "ProfileMigrated(address,address,address)": {
        "details": "Event emitted when the profile is migrated (mostly when REP-4 update)."
      },
      "PubkeyChanged(address,bytes)": {
        "details": "Event emitted when the pubkey of the `id` is changed."
      },
      "PubkeyVerified(bytes,bytes)": {
        "details": "Event emitted when the pubkey is verified successfully."
      }
    },
    "errors": {
      "ErrCallPrecompiled()": [
        {
          "details": "Error of call to precompile fails."
        }
      ],
      "ErrContractTypeNotFound(uint8)": [
        {
          "details": "Error of invalid role."
        }
      ],
      "ErrDuplicatedInfo(uint8,uint256)": [
        {
          "details": "Error when there is a duplicated info of `value`, which is uin256-padding value of any address or hash of public key, and with value type of `infoType`."
        }
      ],
      "ErrExistentProfile()": [
        {
          "details": "Error of already existed profile."
        }
      ],
      "ErrIdAndConsensusDiffer()": [
        {
          "details": "Error when create a new profile whose id and consensus are not identical."
        }
      ],
      "ErrNonExistentProfile()": [
        {
          "details": "Error of non existed profile."
        }
      ],
      "ErrPubkeyChangeCooldownNotEnded()": [
        {
          "details": "Error when failed to change public key because cooldown is not ended."
        }
      ],
      "ErrUnauthorized(bytes4,uint8)": [
        {
          "details": "Error indicating that the caller is unauthorized to perform a specific function.",
          "params": {
            "expectedRole": "The role required to perform the function.",
            "msgSig": "The function signature (bytes4) that the caller is unauthorized to perform."
          }
        }
      ],
      "ErrUnexpectedInternalCall(bytes4,uint8,address)": [
        {
          "details": "Error indicating that the caller is unauthorized to perform a specific function.",
          "params": {
            "actual": "The actual address that called to the function.",
            "expectedContractType": "The contract type required to perform the function.",
            "msgSig": "The function signature (bytes4)."
          }
        }
      ],
      "ErrZeroCodeContract(address)": [
        {
          "details": "Error of set to non-contract."
        }
      ]
    }
  },
  "isFoundry": true,
  "nonce": 30,
  "numDeployments": 13,
  "storageLayout": {
    "storage": [
      {
        "astId": 24288,
        "contract": "contracts/ronin/profile/Profile.sol:Profile",
        "label": "_id2Profile",
        "offset": 0,
        "slot": "0",
        "type": "t_mapping(t_address,t_struct(CandidateProfile)6678_storage)"
      },
      {
        "astId": 24293,
        "contract": "contracts/ronin/profile/Profile.sol:Profile",
        "label": "_registry",
        "offset": 0,
        "slot": "1",
        "type": "t_mapping(t_uint256,t_bool)"
      },
      {
        "astId": 24299,
        "contract": "contracts/ronin/profile/Profile.sol:Profile",
        "label": "_consensus2Id",
        "offset": 0,
        "slot": "2",
        "type": "t_mapping(t_userDefinedValueType(TConsensus)35219,t_address)"
      },
      {
        "astId": 24302,
        "contract": "contracts/ronin/profile/Profile.sol:Profile",
        "label": "pubkeyChangeCooldown",
        "offset": 0,
        "slot": "3",
        "type": "t_uint256"
      },
      {
        "astId": 24307,
        "contract": "contracts/ronin/profile/Profile.sol:Profile",
        "label": "__gap",
        "offset": 0,
        "slot": "4",
        "type": "t_array(t_bytes32)47_storage"
      },
      {
        "astId": 147321,
        "contract": "contracts/ronin/profile/Profile.sol:Profile",
        "label": "_initialized",
        "offset": 0,
        "slot": "51",
        "type": "t_uint8"
      },
      {
        "astId": 147324,
        "contract": "contracts/ronin/profile/Profile.sol:Profile",
        "label": "_initializing",
        "offset": 1,
        "slot": "51",
        "type": "t_bool"
      }
    ],
    "types": {
      "t_address": {
        "encoding": "inplace",
        "label": "address",
        "numberOfBytes": "20"
      },
      "t_address_payable": {
        "encoding": "inplace",
        "label": "address payable",
        "numberOfBytes": "20"
      },
      "t_array(t_bytes32)47_storage": {
        "encoding": "inplace",
        "label": "bytes32[47]",
        "numberOfBytes": "1504",
        "base": "t_bytes32"
      },
      "t_bool": {
        "encoding": "inplace",
        "label": "bool",
        "numberOfBytes": "1"
      },
      "t_bytes32": {
        "encoding": "inplace",
        "label": "bytes32",
        "numberOfBytes": "32"
      },
      "t_bytes_storage": {
        "encoding": "bytes",
        "label": "bytes",
        "numberOfBytes": "32"
      },
      "t_mapping(t_address,t_struct(CandidateProfile)6678_storage)": {
        "encoding": "mapping",
        "key": "t_address",
        "label": "mapping(address => struct IProfile.CandidateProfile)",
        "numberOfBytes": "32",
        "value": "t_struct(CandidateProfile)6678_storage"
      },
      "t_mapping(t_uint256,t_bool)": {
        "encoding": "mapping",
        "key": "t_uint256",
        "label": "mapping(uint256 => bool)",
        "numberOfBytes": "32",
        "value": "t_bool"
      },
      "t_mapping(t_userDefinedValueType(TConsensus)35219,t_address)": {
        "encoding": "mapping",
        "key": "t_userDefinedValueType(TConsensus)35219",
        "label": "mapping(TConsensus => address)",
        "numberOfBytes": "32",
        "value": "t_address"
      },
      "t_struct(CandidateProfile)6678_storage": {
        "encoding": "inplace",
        "label": "struct IProfile.CandidateProfile",
        "numberOfBytes": "256",
        "members": [
          {
            "astId": 6655,
            "contract": "contracts/ronin/profile/Profile.sol:Profile",
            "label": "id",
            "offset": 0,
            "slot": "0",
            "type": "t_address"
          },
          {
            "astId": 6659,
            "contract": "contracts/ronin/profile/Profile.sol:Profile",
            "label": "consensus",
            "offset": 0,
            "slot": "1",
            "type": "t_userDefinedValueType(TConsensus)35219"
          },
          {
            "astId": 6662,
            "contract": "contracts/ronin/profile/Profile.sol:Profile",
            "label": "admin",
            "offset": 0,
            "slot": "2",
            "type": "t_address"
          },
          {
            "astId": 6665,
            "contract": "contracts/ronin/profile/Profile.sol:Profile",
            "label": "treasury",
            "offset": 0,
            "slot": "3",
            "type": "t_address_payable"
          },
          {
            "astId": 6668,
            "contract": "contracts/ronin/profile/Profile.sol:Profile",
            "label": "__reservedGovernor",
            "offset": 0,
            "slot": "4",
            "type": "t_address"
          },
          {
            "astId": 6671,
            "contract": "contracts/ronin/profile/Profile.sol:Profile",
            "label": "pubkey",
            "offset": 0,
            "slot": "5",
            "type": "t_bytes_storage"
          },
          {
            "astId": 6674,
            "contract": "contracts/ronin/profile/Profile.sol:Profile",
            "label": "pubkeyLastChange",
            "offset": 0,
            "slot": "6",
            "type": "t_uint256"
          },
          {
            "astId": 6677,
            "contract": "contracts/ronin/profile/Profile.sol:Profile",
            "label": "oldPubkey",
            "offset": 0,
            "slot": "7",
            "type": "t_bytes_storage"
          }
        ]
      },
      "t_uint256": {
        "encoding": "inplace",
        "label": "uint256",
        "numberOfBytes": "32"
      },
      "t_uint8": {
        "encoding": "inplace",
        "label": "uint8",
        "numberOfBytes": "1"
      },
      "t_userDefinedValueType(TConsensus)35219": {
        "encoding": "inplace",
        "label": "TConsensus",
        "numberOfBytes": "20"
      }
    }
  },
  "timestamp": 1708941642,
  "userdoc": {
    "version": 1,
    "kind": "user",
    "methods": {
      "addNewProfile((address,address,address,address,address,bytes,uint256,bytes))": {
        "notice": "Add a new profile."
      },
      "changePubkey(address,bytes,bytes)": {
        "notice": "The candidate admin changes the public key."
      },
      "requestChangeTreasuryAddr(address,address)": {
        "notice": "This method is not supported. Change treasury also requires changing the admin address. Using the {requestChangeAdminAddress} method instead"
      }
    }
  }
}