{
  "abi": [
    {
      "type": "constructor",
      "inputs": [],
      "stateMutability": "nonpayable"
    },
    {
      "type": "function",
      "name": "arePublicKeysRegistered",
      "inputs": [
        {
          "name": "listOfPublicKey",
          "type": "bytes[][2]",
          "internalType": "bytes[][2]"
        }
      ],
      "outputs": [
        {
          "name": "",
          "type": "bool",
          "internalType": "bool"
        }
      ],
      "stateMutability": "view"
    },
    {
      "type": "function",
      "name": "changeAdminAddr",
      "inputs": [
        {
          "name": "id",
          "type": "address",
          "internalType": "address"
        },
        {
          "name": "newAdminAddr",
          "type": "address",
          "internalType": "address"
        }
      ],
      "outputs": [],
      "stateMutability": "nonpayable"
    },
    {
      "type": "function",
      "name": "changeConsensusAddr",
      "inputs": [
        {
          "name": "id",
          "type": "address",
          "internalType": "address"
        },
        {
          "name": "newConsensusAddr",
          "type": "address",
          "internalType": "TConsensus"
        }
      ],
      "outputs": [],
      "stateMutability": "nonpayable"
    },
    {
      "type": "function",
      "name": "changePubkey",
      "inputs": [
        {
          "name": "id",
          "type": "address",
          "internalType": "address"
        },
        {
          "name": "pubkey",
          "type": "bytes",
          "internalType": "bytes"
        },
        {
          "name": "proofOfPossession",
          "type": "bytes",
          "internalType": "bytes"
        }
      ],
      "outputs": [],
      "stateMutability": "nonpayable"
    },
    {
      "type": "function",
      "name": "changeTreasuryAddr",
      "inputs": [
        {
          "name": "",
          "type": "address",
          "internalType": "address"
        },
        {
          "name": "",
          "type": "address",
          "internalType": "address payable"
        }
      ],
      "outputs": [],
      "stateMutability": "pure"
    },
    {
      "type": "function",
      "name": "changeVRFKeyHash",
      "inputs": [
        {
          "name": "id",
          "type": "address",
          "internalType": "address"
        },
        {
          "name": "vrfKeyHash",
          "type": "bytes32",
          "internalType": "bytes32"
        }
      ],
      "outputs": [],
      "stateMutability": "nonpayable"
    },
    {
      "type": "function",
      "name": "execApplyValidatorCandidate",
      "inputs": [
        {
          "name": "admin",
          "type": "address",
          "internalType": "address"
        },
        {
          "name": "id",
          "type": "address",
          "internalType": "address"
        },
        {
          "name": "treasury",
          "type": "address",
          "internalType": "address"
        },
        {
          "name": "pubkey",
          "type": "bytes",
          "internalType": "bytes"
        },
        {
          "name": "proofOfPossession",
          "type": "bytes",
          "internalType": "bytes"
        }
      ],
      "outputs": [],
      "stateMutability": "nonpayable"
    },
    {
      "type": "function",
      "name": "getConsensus2Id",
      "inputs": [
        {
          "name": "consensus",
          "type": "address",
          "internalType": "TConsensus"
        }
      ],
      "outputs": [
        {
          "name": "",
          "type": "address",
          "internalType": "address"
        }
      ],
      "stateMutability": "view"
    },
    {
      "type": "function",
      "name": "getContract",
      "inputs": [
        {
          "name": "contractType",
          "type": "uint8",
          "internalType": "enum ContractType"
        }
      ],
      "outputs": [
        {
          "name": "contract_",
          "type": "address",
          "internalType": "address payable"
        }
      ],
      "stateMutability": "view"
    },
    {
      "type": "function",
      "name": "getCooldownConfig",
      "inputs": [],
      "outputs": [
        {
          "name": "",
          "type": "uint256",
          "internalType": "uint256"
        }
      ],
      "stateMutability": "view"
    },
    {
      "type": "function",
      "name": "getId2Admin",
      "inputs": [
        {
          "name": "id",
          "type": "address",
          "internalType": "address"
        }
      ],
      "outputs": [
        {
          "name": "",
          "type": "address",
          "internalType": "address"
        }
      ],
      "stateMutability": "view"
    },
    {
      "type": "function",
      "name": "getId2BeaconInfo",
      "inputs": [
        {
          "name": "id",
          "type": "address",
          "internalType": "address"
        }
      ],
      "outputs": [
        {
          "name": "vrfKeyHash",
          "type": "bytes32",
          "internalType": "bytes32"
        },
        {
          "name": "vrfKeyHashLastChange",
          "type": "uint256",
          "internalType": "uint256"
        },
        {
          "name": "registeredAt",
          "type": "uint256",
          "internalType": "uint256"
        }
      ],
      "stateMutability": "view"
    },
    {
      "type": "function",
      "name": "getId2Consensus",
      "inputs": [
        {
          "name": "id",
          "type": "address",
          "internalType": "address"
        }
      ],
      "outputs": [
        {
          "name": "",
          "type": "address",
          "internalType": "TConsensus"
        }
      ],
      "stateMutability": "view"
    },
    {
      "type": "function",
      "name": "getId2OldConsensus",
      "inputs": [
        {
          "name": "id",
          "type": "address",
          "internalType": "address"
        }
      ],
      "outputs": [
        {
          "name": "",
          "type": "address",
          "internalType": "TConsensus"
        }
      ],
      "stateMutability": "view"
    },
    {
      "type": "function",
      "name": "getId2OldPubkey",
      "inputs": [
        {
          "name": "id",
          "type": "address",
          "internalType": "address"
        }
      ],
      "outputs": [
        {
          "name": "",
          "type": "bytes",
          "internalType": "bytes"
        }
      ],
      "stateMutability": "view"
    },
    {
      "type": "function",
      "name": "getId2Profile",
      "inputs": [
        {
          "name": "id",
          "type": "address",
          "internalType": "address"
        }
      ],
      "outputs": [
        {
          "name": "",
          "type": "tuple",
          "internalType": "struct IProfile.CandidateProfile",
          "components": [
            {
              "name": "id",
              "type": "address",
              "internalType": "address"
            },
            {
              "name": "consensus",
              "type": "address",
              "internalType": "TConsensus"
            },
            {
              "name": "admin",
              "type": "address",
              "internalType": "address"
            },
            {
              "name": "treasury",
              "type": "address",
              "internalType": "address payable"
            },
            {
              "name": "__reservedGovernor",
              "type": "address",
              "internalType": "address"
            },
            {
              "name": "pubkey",
              "type": "bytes",
              "internalType": "bytes"
            },
            {
              "name": "profileLastChange",
              "type": "uint256",
              "internalType": "uint256"
            },
            {
              "name": "oldPubkey",
              "type": "bytes",
              "internalType": "bytes"
            },
            {
              "name": "oldConsensus",
              "type": "address",
              "internalType": "TConsensus"
            },
            {
              "name": "registeredAt",
              "type": "uint256",
              "internalType": "uint256"
            },
            {
              "name": "vrfKeyHash",
              "type": "bytes32",
              "internalType": "bytes32"
            },
            {
              "name": "vrfKeyHashLastChange",
              "type": "uint256",
              "internalType": "uint256"
            }
          ]
        }
      ],
      "stateMutability": "view"
    },
    {
      "type": "function",
      "name": "getId2ProfileLastChange",
      "inputs": [
        {
          "name": "id",
          "type": "address",
          "internalType": "address"
        }
      ],
      "outputs": [
        {
          "name": "",
          "type": "uint256",
          "internalType": "uint256"
        }
      ],
      "stateMutability": "view"
    },
    {
      "type": "function",
      "name": "getId2Pubkey",
      "inputs": [
        {
          "name": "id",
          "type": "address",
          "internalType": "address"
        }
      ],
      "outputs": [
        {
          "name": "",
          "type": "bytes",
          "internalType": "bytes"
        }
      ],
      "stateMutability": "view"
    },
    {
      "type": "function",
      "name": "getId2RegisteredAt",
      "inputs": [
        {
          "name": "id",
          "type": "address",
          "internalType": "address"
        }
      ],
      "outputs": [
        {
          "name": "",
          "type": "uint256",
          "internalType": "uint256"
        }
      ],
      "stateMutability": "view"
    },
    {
      "type": "function",
      "name": "getId2Treasury",
      "inputs": [
        {
          "name": "id",
          "type": "address",
          "internalType": "address"
        }
      ],
      "outputs": [
        {
          "name": "",
          "type": "address",
          "internalType": "address payable"
        }
      ],
      "stateMutability": "view"
    },
    {
      "type": "function",
      "name": "getId2VRFKeyHash",
      "inputs": [
        {
          "name": "id",
          "type": "address",
          "internalType": "address"
        }
      ],
      "outputs": [
        {
          "name": "",
          "type": "bytes32",
          "internalType": "bytes32"
        }
      ],
      "stateMutability": "view"
    },
    {
      "type": "function",
      "name": "getId2VRFKeyHashLastChange",
      "inputs": [
        {
          "name": "id",
          "type": "address",
          "internalType": "address"
        }
      ],
      "outputs": [
        {
          "name": "",
          "type": "uint256",
          "internalType": "uint256"
        }
      ],
      "stateMutability": "view"
    },
    {
      "type": "function",
      "name": "getManyConsensus2Id",
      "inputs": [
        {
          "name": "consensusList",
          "type": "address[]",
          "internalType": "TConsensus[]"
        }
      ],
      "outputs": [
        {
          "name": "idList",
          "type": "address[]",
          "internalType": "address[]"
        }
      ],
      "stateMutability": "view"
    },
    {
      "type": "function",
      "name": "getManyId2Admin",
      "inputs": [
        {
          "name": "idList",
          "type": "address[]",
          "internalType": "address[]"
        }
      ],
      "outputs": [
        {
          "name": "adminList",
          "type": "address[]",
          "internalType": "address[]"
        }
      ],
      "stateMutability": "view"
    },
    {
      "type": "function",
      "name": "getManyId2Consensus",
      "inputs": [
        {
          "name": "idList",
          "type": "address[]",
          "internalType": "address[]"
        }
      ],
      "outputs": [
        {
          "name": "consensusList",
          "type": "address[]",
          "internalType": "TConsensus[]"
        }
      ],
      "stateMutability": "view"
    },
    {
      "type": "function",
      "name": "getManyId2RegisteredAt",
      "inputs": [
        {
          "name": "idList",
          "type": "address[]",
          "internalType": "address[]"
        }
      ],
      "outputs": [
        {
          "name": "registeredAtList",
          "type": "uint256[]",
          "internalType": "uint256[]"
        }
      ],
      "stateMutability": "view"
    },
    {
      "type": "function",
      "name": "getVRFKeyHash2BeaconInfo",
      "inputs": [
        {
          "name": "vrfKeyHash",
          "type": "bytes32",
          "internalType": "bytes32"
        }
      ],
      "outputs": [
        {
          "name": "id",
          "type": "address",
          "internalType": "address"
        },
        {
          "name": "vrfKeyHashLastChange",
          "type": "uint256",
          "internalType": "uint256"
        },
        {
          "name": "registeredAt",
          "type": "uint256",
          "internalType": "uint256"
        }
      ],
      "stateMutability": "view"
    },
    {
      "type": "function",
      "name": "getVRFKeyHash2Id",
      "inputs": [
        {
          "name": "vrfKeyHash",
          "type": "bytes32",
          "internalType": "bytes32"
        }
      ],
      "outputs": [
        {
          "name": "",
          "type": "address",
          "internalType": "address"
        }
      ],
      "stateMutability": "view"
    },
    {
      "type": "function",
      "name": "initialize",
      "inputs": [
        {
          "name": "validatorContract",
          "type": "address",
          "internalType": "address"
        }
      ],
      "outputs": [],
      "stateMutability": "nonpayable"
    },
    {
      "type": "function",
      "name": "initializeV2",
      "inputs": [
        {
          "name": "stakingContract",
          "type": "address",
          "internalType": "address"
        },
        {
          "name": "trustedOrgContract",
          "type": "address",
          "internalType": "address"
        }
      ],
      "outputs": [],
      "stateMutability": "nonpayable"
    },
    {
      "type": "function",
      "name": "initializeV3",
      "inputs": [
        {
          "name": "cooldown",
          "type": "uint256",
          "internalType": "uint256"
        }
      ],
      "outputs": [],
      "stateMutability": "nonpayable"
    },
    {
      "type": "function",
      "name": "precompileVerifyBLSPublicKeyAddress",
      "inputs": [],
      "outputs": [
        {
          "name": "",
          "type": "address",
          "internalType": "address"
        }
      ],
      "stateMutability": "view"
    },
    {
      "type": "function",
      "name": "setContract",
      "inputs": [
        {
          "name": "contractType",
          "type": "uint8",
          "internalType": "enum ContractType"
        },
        {
          "name": "addr",
          "type": "address",
          "internalType": "address"
        }
      ],
      "outputs": [],
      "stateMutability": "nonpayable"
    },
    {
      "type": "function",
      "name": "setCooldownConfig",
      "inputs": [
        {
          "name": "cooldown",
          "type": "uint256",
          "internalType": "uint256"
        }
      ],
      "outputs": [],
      "stateMutability": "nonpayable"
    },
    {
      "type": "function",
      "name": "tryGetConsensus2Id",
      "inputs": [
        {
          "name": "consensus",
          "type": "address",
          "internalType": "TConsensus"
        }
      ],
      "outputs": [
        {
          "name": "found",
          "type": "bool",
          "internalType": "bool"
        },
        {
          "name": "id",
          "type": "address",
          "internalType": "address"
        }
      ],
      "stateMutability": "view"
    },
    {
      "type": "function",
      "name": "tryGetVRFKeyHash2Id",
      "inputs": [
        {
          "name": "vrfKeyHash",
          "type": "bytes32",
          "internalType": "bytes32"
        }
      ],
      "outputs": [
        {
          "name": "found",
          "type": "bool",
          "internalType": "bool"
        },
        {
          "name": "id",
          "type": "address",
          "internalType": "address"
        }
      ],
      "stateMutability": "view"
    },
    {
      "type": "event",
      "name": "ConsensusAddressOfNonGovernorChanged",
      "inputs": [
        {
          "name": "id",
          "type": "address",
          "indexed": true,
          "internalType": "address"
        }
      ],
      "anonymous": false
    },
    {
      "type": "event",
      "name": "ContractUpdated",
      "inputs": [
        {
          "name": "contractType",
          "type": "uint8",
          "indexed": true,
          "internalType": "enum ContractType"
        },
        {
          "name": "addr",
          "type": "address",
          "indexed": true,
          "internalType": "address"
        }
      ],
      "anonymous": false
    },
    {
      "type": "event",
      "name": "Initialized",
      "inputs": [
        {
          "name": "version",
          "type": "uint8",
          "indexed": false,
          "internalType": "uint8"
        }
      ],
      "anonymous": false
    },
    {
      "type": "event",
      "name": "ProfileAdded",
      "inputs": [
        {
          "name": "id",
          "type": "address",
          "indexed": true,
          "internalType": "address"
        }
      ],
      "anonymous": false
    },
    {
      "type": "event",
      "name": "ProfileAddressChanged",
      "inputs": [
        {
          "name": "id",
          "type": "address",
          "indexed": true,
          "internalType": "address"
        },
        {
          "name": "addressType",
          "type": "uint8",
          "indexed": true,
          "internalType": "enum RoleAccess"
        },
        {
          "name": "addr",
          "type": "address",
          "indexed": true,
          "internalType": "address"
        }
      ],
      "anonymous": false
    },
    {
      "type": "event",
      "name": "ProfileMigrated",
      "inputs": [
        {
          "name": "id",
          "type": "address",
          "indexed": true,
          "internalType": "address"
        },
        {
          "name": "admin",
          "type": "address",
          "indexed": true,
          "internalType": "address"
        },
        {
          "name": "treasury",
          "type": "address",
          "indexed": true,
          "internalType": "address"
        }
      ],
      "anonymous": false
    },
    {
      "type": "event",
      "name": "PubkeyChanged",
      "inputs": [
        {
          "name": "id",
          "type": "address",
          "indexed": true,
          "internalType": "address"
        },
        {
          "name": "pubkey",
          "type": "bytes",
          "indexed": false,
          "internalType": "bytes"
        }
      ],
      "anonymous": false
    },
    {
      "type": "event",
      "name": "PubkeyVerified",
      "inputs": [
        {
          "name": "pubkey",
          "type": "bytes",
          "indexed": false,
          "internalType": "bytes"
        },
        {
          "name": "proofOfPossession",
          "type": "bytes",
          "indexed": false,
          "internalType": "bytes"
        }
      ],
      "anonymous": false
    },
    {
      "type": "event",
      "name": "VRFKeyHashChanged",
      "inputs": [
        {
          "name": "id",
          "type": "address",
          "indexed": true,
          "internalType": "address"
        },
        {
          "name": "vrfKeyHash",
          "type": "bytes32",
          "indexed": false,
          "internalType": "bytes32"
        }
      ],
      "anonymous": false
    },
    {
      "type": "error",
      "name": "ErrCallPrecompiled",
      "inputs": []
    },
    {
      "type": "error",
      "name": "ErrContractTypeNotFound",
      "inputs": [
        {
          "name": "contractType",
          "type": "uint8",
          "internalType": "enum ContractType"
        }
      ]
    },
    {
      "type": "error",
      "name": "ErrDuplicatedInfo",
      "inputs": [
        {
          "name": "infoType",
          "type": "uint8",
          "internalType": "enum RoleAccess"
        },
        {
          "name": "value",
          "type": "uint256",
          "internalType": "uint256"
        }
      ]
    },
    {
      "type": "error",
      "name": "ErrDuplicatedPubkey",
      "inputs": [
        {
          "name": "pubkey",
          "type": "bytes",
          "internalType": "bytes"
        }
      ]
    },
    {
      "type": "error",
      "name": "ErrDuplicatedVRFKeyHash",
      "inputs": [
        {
          "name": "vrfKeyHash",
          "type": "bytes32",
          "internalType": "bytes32"
        }
      ]
    },
    {
      "type": "error",
      "name": "ErrExistentProfile",
      "inputs": []
    },
    {
      "type": "error",
      "name": "ErrIdAndConsensusDiffer",
      "inputs": []
    },
    {
      "type": "error",
      "name": "ErrInvalidProofOfPossession",
      "inputs": [
        {
          "name": "pubkey",
          "type": "bytes",
          "internalType": "bytes"
        },
        {
          "name": "proofOfPossession",
          "type": "bytes",
          "internalType": "bytes"
        }
      ]
    },
    {
      "type": "error",
      "name": "ErrLookUpIdFailed",
      "inputs": [
        {
          "name": "consensus",
          "type": "address",
          "internalType": "TConsensus"
        }
      ]
    },
    {
      "type": "error",
      "name": "ErrLookUpIdFromVRFKeyFailed",
      "inputs": [
        {
          "name": "vrfKeyHash",
          "type": "bytes32",
          "internalType": "bytes32"
        }
      ]
    },
    {
      "type": "error",
      "name": "ErrNonExistentProfile",
      "inputs": []
    },
    {
      "type": "error",
      "name": "ErrProfileChangeCooldownNotEnded",
      "inputs": []
    },
    {
      "type": "error",
      "name": "ErrUnauthorized",
      "inputs": [
        {
          "name": "msgSig",
          "type": "bytes4",
          "internalType": "bytes4"
        },
        {
          "name": "expectedRole",
          "type": "uint8",
          "internalType": "enum RoleAccess"
        }
      ]
    },
    {
      "type": "error",
      "name": "ErrUnexpectedInternalCall",
      "inputs": [
        {
          "name": "msgSig",
          "type": "bytes4",
          "internalType": "bytes4"
        },
        {
          "name": "expectedContractType",
          "type": "uint8",
          "internalType": "enum ContractType"
        },
        {
          "name": "actual",
          "type": "address",
          "internalType": "address"
        }
      ]
    },
    {
      "type": "error",
      "name": "ErrValidatorOnRenunciation",
      "inputs": [
        {
          "name": "cid",
          "type": "address",
          "internalType": "address"
        }
      ]
    },
    {
      "type": "error",
      "name": "ErrZeroAddress",
      "inputs": [
        {
          "name": "infoType",
          "type": "uint8",
          "internalType": "enum RoleAccess"
        }
      ]
    },
    {
      "type": "error",
      "name": "ErrZeroCodeContract",
      "inputs": [
        {
          "name": "addr",
          "type": "address",
          "internalType": "address"
        }
      ]
    },
    {
      "type": "error",
      "name": "ErrZeroPubkey",
      "inputs": []
    }
  ],
  "absolutePath": "Profile.sol",
  "address": "0xaadc07034392579B49b80d74D006Cf81e2F72cFb",
  "blockNumber": 27813238,
  "bytecode": "0x6080604052348015600f57600080fd5b506016601a565b60d8565b603354610100900460ff161560855760405162461bcd60e51b815260206004820152602760248201527f496e697469616c697a61626c653a20636f6e747261637420697320696e697469604482015266616c697a696e6760c81b606482015260840160405180910390fd5b60335460ff908116101560d6576033805460ff191660ff9081179091556040519081527f7f26b83ff96e1f2b6a682f133852f6798a09c465da95921460cefb38474024989060200160405180910390a15b565b613062806100e76000396000f3fe608060405234801561001057600080fd5b506004361061025c5760003560e01c80638fa5cc1f11610145578063b5017aef116100bd578063c73f41b11161008c578063de981f1b11610071578063de981f1b14610654578063f466094014610667578063f9226b1a1461068757600080fd5b8063c73f41b11461062e578063c8a8e5631461064157600080fd5b8063b5017aef146105d5578063b96f5c3e146105e8578063c4d66de8146105fb578063c621ab581461060e57600080fd5b8063ad5abf2d11610114578063b0abaea6116100f9578063b0abaea61461058c578063b261596f14610593578063b44f9065146105a657600080fd5b8063ad5abf2d1461054a578063ae768b331461055d57600080fd5b80638fa5cc1f146104b05780639299e794146104dc5780639a1a05e0146105085780639e58dc941461051b57600080fd5b80634a3478c6116101d8578063753e09ff116101a75780637e18b5661161018c5780637e18b56614610467578063865e6fd31461048a57806388660f2a1461049d57600080fd5b8063753e09ff1461042557806378230a171461045457600080fd5b80634a3478c61461038d57806350a9fc29146103a057806359d65947146103cb5780635e521104146103f957600080fd5b80632a48b29f1161022f5780633c3d8410116102145780633c3d84101461032f578063458969f21461034257806348b2c3821461035557600080fd5b80632a48b29f146102ed578063332846871461032757600080fd5b80630840ba7214610261578063190e5de1146102765780631c3b70df146102ad5780631c6836ff146102cd575b600080fd5b61027461026f36600461254b565b61069a565b005b610289610284366004612584565b610867565b6040805192151583526001600160a01b039091166020830152015b60405180910390f35b6102c06102bb36600461259d565b61088f565b6040516102a4919061260a565b6102e06102db366004612669565b61093e565b6040516102a491906126ab565b6103196102fb36600461259d565b6001600160a01b03166000908152602081905260409020600a015490565b6040519081526020016102a4565b600354610319565b61027461033d366004612584565b610a17565b6102c061035036600461259d565b610aff565b610368610363366004612584565b610b29565b604080516001600160a01b0390941684526020840192909252908201526060016102a4565b61027461039b36600461254b565b610b5b565b6103b36103ae36600461259d565b610d48565b6040516001600160a01b0390911681526020016102a4565b6103de6103d936600461259d565b610d59565b604080519384526020840192909252908201526060016102a4565b61031961040736600461259d565b6001600160a01b03166000908152602081905260409020600b015490565b6103b361043336600461259d565b6001600160a01b039081166000908152602081905260409020600301541690565b6102746104623660046126f8565b610d86565b61047a610475366004612724565b610dbd565b60405190151581526020016102a4565b61027461049836600461276e565b610ea1565b6102896104ab36600461259d565b610ec0565b6103196104be36600461259d565b6001600160a01b031660009081526020819052604090206009015490565b6103196104ea36600461259d565b6001600160a01b031660009081526020819052604090206006015490565b6102746105163660046127cc565b610ee8565b6103b361052936600461259d565b6001600160a01b039081166000908152602081905260409020600201541690565b610274610558366004612584565b610f9a565b6103b361056b36600461259d565b6001600160a01b039081166000908152602081905260409020600801541690565b606a6103b3565b6102e06105a1366004612669565b610fae565b6103b36105b436600461259d565b6001600160a01b039081166000908152602081905260409020600101541690565b6102746105e336600461284f565b611080565b6103b36105f6366004612584565b6111d0565b61027461060936600461259d565b6111db565b61062161061c366004612669565b6112e8565b6040516102a491906128f7565b61027461063c36600461254b565b6113b6565b61027461064f36600461254b565b6113fe565b6103b361066236600461292f565b6115e6565b61067a61067536600461259d565b61167a565b6040516102a4919061294a565b6102e0610695366004612669565b6118a4565b603354600290610100900460ff161580156106bc575060335460ff8083169116105b6107245760405162461bcd60e51b815260206004820152602e60248201527f496e697469616c697a61626c653a20636f6e747261637420697320616c72656160448201526d191e481a5b9a5d1a585b1a5e995960921b60648201526084015b60405180910390fd5b6033805461ffff191660ff831617610100179055610743600984611957565b61074e600a83611957565b600061075a60086115e6565b6001600160a01b031663ba77b06c6040518163ffffffff1660e01b8152600401600060405180830381865afa158015610797573d6000803e3d6000fd5b505050506040513d6000823e601f3d908101601f191682016040526107bf9190810190612a96565b905060005b815181101561081f5760008282815181106107e1576107e1612b48565b6020908102919091018101516001600160a01b031660008181526002909252604090912080546001600160a01b0319169091179055506001016107c4565b50506033805461ff001916905560405160ff821681527f7f26b83ff96e1f2b6a682f133852f6798a09c465da95921460cefb38474024989060200160405180910390a1505050565b60008181526004602052604081205481906001600160a01b0316801515905b91509150915091565b6001600160a01b03811660009081526020819052604090206007018054606091906108b990612b5e565b80601f01602080910402602001604051908101604052809291908181526020018280546108e590612b5e565b80156109325780601f1061090757610100808354040283529160200191610932565b820191906000526020600020905b81548152906001019060200180831161091557829003601f168201915b50505050509050919050565b60608167ffffffffffffffff81111561095957610959612a4f565b604051908082528060200260200182016040528015610982578160200160208202803683370190505b50905060005b82811015610a10576000808585848181106109a5576109a5612b48565b90506020020160208101906109ba919061259d565b6001600160a01b03908116825260208201929092526040016000206002015483519116908390839081106109f0576109f0612b48565b6001600160a01b0390921660209283029190910190910152600101610988565b5092915050565b603354600390610100900460ff16158015610a39575060335460ff8083169116105b610a9c5760405162461bcd60e51b815260206004820152602e60248201527f496e697469616c697a61626c653a20636f6e747261637420697320616c72656160448201526d191e481a5b9a5d1a585b1a5e995960921b606482015260840161071b565b6033805461ffff191660ff831617610100179055610ab982600355565b6033805461ff001916905560405160ff821681527f7f26b83ff96e1f2b6a682f133852f6798a09c465da95921460cefb3847402498906020015b60405180910390a15050565b6001600160a01b03811660009081526020819052604090206005018054606091906108b990612b5e565b6000806000610b37846119fd565b92506000610b4484611a69565b6009810154600b9091015494969495509392505050565b6000610b6683611a69565b9050610b7181611abd565b610b7c600983611b99565b610b8581611be5565b60018101546001600160a01b03166000610b9f60086115e6565b6040517f6ef826c80000000000000000000000000000000000000000000000000000000081526001600160a01b038781166004830152868116602483015291925090821690636ef826c890604401600060405180830381600087803b158015610c0757600080fd5b505af1158015610c1b573d6000803e3d6000fd5b505050506000610c2b600a6115e6565b6040516001600160a01b038581166024830152878116604483015291925060009183169060640160408051601f198184030181529181526020820180517bffffffffffffffffffffffffffffffffffffffffffffffffffffffff167fa0c302a70000000000000000000000000000000000000000000000000000000017905251610cb59190612b98565b6000604051808303816000865af19150503d8060008114610cf2576040519150601f19603f3d011682016040523d82523d6000602084013e610cf7565b606091505b5050905080610d35576040516001600160a01b038816907f940589fcab729233e520a0b808ffeabac5a6e90603d892a31cd4609b32547dd990600090a25b610d3f8587611bf7565b50505050505050565b6000610d5382611cae565b92915050565b600080600080610d6885611a69565b600a8101546009820154600b90920154909790965090945092505050565b6000610d9183611a69565b9050610d9c81611abd565b610da582611d1e565b610dae81611be5565b610db88183611d6a565b505050565b6000805b6002811015610e985760005b838260028110610ddf57610ddf612b48565b602002810190610def9190612bb4565b9050811015610e8f57610e79848360028110610e0d57610e0d612b48565b602002810190610e1d9190612bb4565b83818110610e2d57610e2d612b48565b9050602002810190610e3f9190612bfe565b8080601f016020809104026020016040519081016040528093929190818152602001838380828437600092019190915250611e1892505050565b610e87575060009392505050565b600101610dcd565b50600101610dc1565b50600192915050565b610ea9611e47565b610eb281611ea1565b610ebc8282611957565b5050565b600080610886836001600160a01b039081166000908152600260205260409020541680151591565b6000610ef386611a69565b9050610efe81611abd565b610f3d85858080601f016020809104026020016040519081016040528093929190818152602001838380828437600092019190915250611ef092505050565b610f4985858585611f32565b610f5281611be5565b610f928186868080601f016020809104026020016040519081016040528093929190818152602001838380828437600092019190915250611fbf92505050565b505050505050565b610fa2611e47565b610fab81600355565b50565b60608167ffffffffffffffff811115610fc957610fc9612a4f565b604051908082528060200260200182016040528015610ff2578160200160208202803683370190505b50905060005b82811015610a105760008085858481811061101557611015612b48565b905060200201602081019061102a919061259d565b6001600160a01b039081168252602082019290925260400160002060010154835191169083908390811061106057611060612b48565b6001600160a01b0390921660209283029190910190910152600101610ff8565b600961108b8161206a565b6001600160a01b0380881660009081526020819052604090208054909116156110e0576040517f249b38f900000000000000000000000000000000000000000000000000000000815260040160405180910390fd5b60006040518061018001604052808a6001600160a01b031681526020018a6001600160a01b031681526020018b6001600160a01b03168152602001896001600160a01b0316815260200160006001600160a01b0316815260200188888080601f016020809104026020016040519081016040528093929190818152602001838380828437600092018290525093855250505060208083018290526040805191820181528282528301526060820181905242608083015260a0820181905260c09091015290506111ae816120cf565b6111ba87878787611f32565b6111c48282612117565b50505050505050505050565b6000610d53826119fd565b603354610100900460ff16158080156111fb5750603354600160ff909116105b806112155750303b158015611215575060335460ff166001145b6112785760405162461bcd60e51b815260206004820152602e60248201527f496e697469616c697a61626c653a20636f6e747261637420697320616c72656160448201526d191e481a5b9a5d1a585b1a5e995960921b606482015260840161071b565b6033805460ff19166001179055801561129b576033805461ff0019166101001790555b6112a6600883611957565b8015610ebc576033805461ff0019169055604051600181527f7f26b83ff96e1f2b6a682f133852f6798a09c465da95921460cefb384740249890602001610af3565b6060818067ffffffffffffffff81111561130457611304612a4f565b60405190808252806020026020018201604052801561132d578160200160208202803683370190505b50915060005b818110156113ae5760008086868481811061135057611350612b48565b9050602002016020810190611365919061259d565b6001600160a01b03166001600160a01b031681526020019081526020016000206009015483828151811061139b5761139b612b48565b6020908102919091010152600101611333565b505092915050565b60405162461bcd60e51b815260206004820152600d60248201527f4e6f7420737570706f7274656400000000000000000000000000000000000000604482015260640161071b565b600061140983611a69565b905061141481611abd565b61141f600483611b99565b61142881611be5565b611431836121d0565b600061143d60096115e6565b6040517f01e4ff220000000000000000000000000000000000000000000000000000000081526001600160a01b0386811660048301523360248301528581166044830152919250908216906301e4ff2290606401600060405180830381600087803b1580156114ab57600080fd5b505af11580156114bf573d6000803e3d6000fd5b5050505060006114cf60086115e6565b6040517feecaefd90000000000000000000000000000000000000000000000000000000081526001600160a01b03878116600483015286811660248301529192509082169063eecaefd990604401600060405180830381600087803b15801561153757600080fd5b505af115801561154b573d6000803e3d6000fd5b50506040517f0bbed9af0000000000000000000000000000000000000000000000000000000081526001600160a01b038881166004830152878116602483015284169250630bbed9af9150604401600060405180830381600087803b1580156115b357600080fd5b505af11580156115c7573d6000803e3d6000fd5b505050506115d583856122ac565b6115df83856122ef565b5050505050565b60007fdea3103d22025c269050bea94c0c84688877f12fa22b7e6d2d5d78a9a49aa1cb600083601081111561161d5761161d612c45565b60ff1681526020810191909152604001600020546001600160a01b031690508061167557816040517f812281be00000000000000000000000000000000000000000000000000000000815260040161071b9190612c6f565b919050565b604080516101808101825260008082526020820181905291810182905260608082018390526080820183905260a0820181905260c0820183905260e08201526101008101829052610120810182905261014081018290526101608101919091526001600160a01b0380831660009081526020818152604091829020825161018081018452815485168152600182015485169281019290925260028101548416928201929092526003820154831660608201526004820154909216608083015260058101805460a08401919061174e90612b5e565b80601f016020809104026020016040519081016040528092919081815260200182805461177a90612b5e565b80156117c75780601f1061179c576101008083540402835291602001916117c7565b820191906000526020600020905b8154815290600101906020018083116117aa57829003601f168201915b50505050508152602001600682015481526020016007820180546117ea90612b5e565b80601f016020809104026020016040519081016040528092919081815260200182805461181690612b5e565b80156118635780601f1061183857610100808354040283529160200191611863565b820191906000526020600020905b81548152906001019060200180831161184657829003601f168201915b505050918352505060088201546001600160a01b0316602082015260098201546040820152600a8201546060820152600b9091015460809091015292915050565b60608167ffffffffffffffff8111156118bf576118bf612a4f565b6040519080825280602002602001820160405280156118e8578160200160208202803683370190505b50905060005b82811015610a105761192584848381811061190b5761190b612b48565b9050602002016020810190611920919061259d565b611cae565b82828151811061193757611937612b48565b6001600160a01b03909216602092830291909101909101526001016118ee565b807fdea3103d22025c269050bea94c0c84688877f12fa22b7e6d2d5d78a9a49aa1cb600084601081111561198d5761198d612c45565b60ff168152602081019190915260400160002080546001600160a01b0319166001600160a01b0392831617905581168260108111156119ce576119ce612c45565b6040517f865d1c228a8ea13709cfe61f346f7ff67f1bbd4a18ff31ad3e7147350d317c5990600090a35050565b565b6000806000611a24846000908152600460205260409020546001600160a01b031680151591565b9150915081611a62576040517f92cf2f840000000000000000000000000000000000000000000000000000000081526004810185905260240161071b565b9392505050565b6001600160a01b0380821660009081526020819052604090208054909116611675576040517f682a559600000000000000000000000000000000000000000000000000000000815260040160405180910390fd5b60028101546001600160a01b031633141580611b6b5750611ade60086115e6565b81546040517f46ebb2320000000000000000000000000000000000000000000000000000000081526001600160a01b0391821660048201523360248201529116906346ebb23290604401602060405180830381865afa158015611b45573d6000803e3d6000fd5b505050506040513d601f19601f82011682018060405250810190611b699190612c7d565b155b15610fab576000356001600160e01b0319166004604051620f948f60ea1b815260040161071b929190612caf565b6001600160a01b038116611bdb57816040517f57ed62e400000000000000000000000000000000000000000000000000000000815260040161071b9190612ccd565b610ebc8282612332565b611bee81612392565b42600682015550565b600180830180546008850180546001600160a01b03199081166001600160a01b0393841690811790925560009182526002602090815260408084208054841690558854888616808652828620805486169290971691909117909555855490921684179094559284905291909120805460ff191690921790915560095b83546040516001600160a01b03909116907fe9654874a1d2cdb1459fe91e0442173d77f8e1baa4897e3f5c10e769a1515d0690600090a45050565b6000806000611cd8846001600160a01b039081166000908152600260205260409020541680151591565b9150915081611a62576040517f1e3d646f0000000000000000000000000000000000000000000000000000000081526001600160a01b038516600482015260240161071b565b60008181526001602052604090205460ff1615610fab576040517f7a6efca60000000000000000000000000000000000000000000000000000000081526004810182905260240161071b565b80611d73575050565b600a82018054600090815260046020908152604080832080546001600160a01b0319908116909155865486855282852080549092166001600160a01b03918216179091559385905560019182905291829020805460ff1916909117905542600b850155835490519116907f30f5cca6b1eefc813552d591bd2a4d1a4328cf09ea59dcc4fb75ed4ea1a46f5f90611e0c9084815260200190565b60405180910390a25050565b600060016000611e2d84805160209091012090565b815260208101919091526040016000205460ff1692915050565b7fb53127684a568b3173ae13b9f8a6016e243e63b6e8ee1178d6a717850b5d6103546001600160a01b031633146119fb576000356001600160e01b0319166001604051620f948f60ea1b815260040161071b929190612caf565b806001600160a01b03163b600003610fab576040517f2ff1928c0000000000000000000000000000000000000000000000000000000081526001600160a01b038216600482015260240161071b565b611ef981611e18565b15610fab57806040517f7995d6c800000000000000000000000000000000000000000000000000000000815260040161071b919061260a565b611f3e848484846123dd565b611f7c57838383836040517f97cf1c8d00000000000000000000000000000000000000000000000000000000815260040161071b9493929190612d04565b7fb737fd977072c109cccc97108f9f8a9017af4bbf4d20938a747f17d8921c50a684848484604051611fb19493929190612d04565b60405180910390a150505050565b816005018054611fce90612b5e565b159050611fe85760078201611fe66005840182612d7e565b505b60058201611ff68282612e5b565b50600180600061200b84805160209091012090565b815260208101919091526040908101600020805460ff191692151592909217909155825490516001600160a01b03909116907fe13225a225fbfeebd9d707546f3d7adee5d72738ac686cc5b97266c49745a56b90611e0c90849061260a565b612073816115e6565b6001600160a01b0316336001600160a01b031614610fab576000356001600160e01b03191681336040517f8383e63400000000000000000000000000000000000000000000000000000000815260040161071b93929190612f13565b6120de60098260200151611b99565b6120ed60048260400151611b99565b6120fc600a8260600151611b99565b61210a816101400151611d1e565b610fab8160a00151611ef0565b805182546001600160a01b0319166001600160a01b039091161782556101208101516009830155602081015161214e908390611bf7565b61215c8282604001516122ac565b61216a8282606001516122ef565b6121788282608001516124cb565b612186828260a00151611fbf565b61219582826101400151611d6a565b80516040516001600160a01b03909116907fc9da0ae38bd4761b72da1045c9b2618f0cd991dcac01e1f9bbf68474025f074390600090a25050565b60006121dc60086115e6565b6040517f0447e5910000000000000000000000000000000000000000000000000000000081526001600160a01b038481166004830152919250600091831690630447e5919060240160e060405180830381865afa158015612241573d6000803e3d6000fd5b505050506040513d601f19601f820116820180604052508101906122659190612f48565b60a001511115610ebc576040517f103855040000000000000000000000000000000000000000000000000000000081526001600160a01b038316600482015260240161071b565b6002820180546001600160a01b0319166001600160a01b0383169081179091556000818152600160208190526040909120805460ff191690911790556004611c73565b6003820180546001600160a01b0319166001600160a01b0383169081179091556000818152600160208190526040909120805460ff19169091179055600a611c73565b6001600160a01b03811660009081526001602052604090205460ff1615610ebc5781816001600160a01b03166040517fe4166aaa00000000000000000000000000000000000000000000000000000000815260040161071b929190612ff0565b60035481600601546123a4919061300b565b421015610fab576040517f640b308400000000000000000000000000000000000000000000000000000000815260040160405180910390fd5b604051600090606a9060019083906123ff908990899089908990602401612d04565b60408051601f198184030181529190526020810180517bffffffffffffffffffffffffffffffffffffffffffffffffffffffff167f7eae32c2000000000000000000000000000000000000000000000000000000001790528051909150612464612518565b602083016020828483895afa61247957600094505b503d61248457600093505b836124bb576040517f0fc2632100000000000000000000000000000000000000000000000000000000815260040160405180910390fd5b5115159998505050505050505050565b6004820180546001600160a01b0319166001600160a01b03831690811790915515610ebc576001600160a01b03166000908152600160208190526040909120805460ff1916909117905550565b60405180602001604052806001906020820280368337509192915050565b6001600160a01b0381168114610fab57600080fd5b6000806040838503121561255e57600080fd5b823561256981612536565b9150602083013561257981612536565b809150509250929050565b60006020828403121561259657600080fd5b5035919050565b6000602082840312156125af57600080fd5b8135611a6281612536565b60005b838110156125d55781810151838201526020016125bd565b50506000910152565b600081518084526125f68160208601602086016125ba565b601f01601f19169290920160200192915050565b602081526000611a6260208301846125de565b60008083601f84011261262f57600080fd5b50813567ffffffffffffffff81111561264757600080fd5b6020830191508360208260051b850101111561266257600080fd5b9250929050565b6000806020838503121561267c57600080fd5b823567ffffffffffffffff81111561269357600080fd5b61269f8582860161261d565b90969095509350505050565b6020808252825182820181905260009190848201906040850190845b818110156126ec5783516001600160a01b0316835292840192918401916001016126c7565b50909695505050505050565b6000806040838503121561270b57600080fd5b823561271681612536565b946020939093013593505050565b60006020828403121561273657600080fd5b813567ffffffffffffffff81111561274d57600080fd5b820160408101841015611a6257600080fd5b80356011811061167557600080fd5b6000806040838503121561278157600080fd5b6125698361275f565b60008083601f84011261279c57600080fd5b50813567ffffffffffffffff8111156127b457600080fd5b60208301915083602082850101111561266257600080fd5b6000806000806000606086880312156127e457600080fd5b85356127ef81612536565b9450602086013567ffffffffffffffff8082111561280c57600080fd5b61281889838a0161278a565b9096509450604088013591508082111561283157600080fd5b5061283e8882890161278a565b969995985093965092949392505050565b600080600080600080600060a0888a03121561286a57600080fd5b873561287581612536565b9650602088013561288581612536565b9550604088013561289581612536565b9450606088013567ffffffffffffffff808211156128b257600080fd5b6128be8b838c0161278a565b909650945060808a01359150808211156128d757600080fd5b506128e48a828b0161278a565b989b979a50959850939692959293505050565b6020808252825182820181905260009190848201906040850190845b818110156126ec57835183529284019291840191600101612913565b60006020828403121561294157600080fd5b611a628261275f565b602081526129646020820183516001600160a01b03169052565b6000602083015161298060408401826001600160a01b03169052565b5060408301516001600160a01b03811660608401525060608301516001600160a01b03811660808401525060808301516001600160a01b03811660a08401525060a08301516101808060c08501526129dc6101a08501836125de565b915060c085015160e085015260e0850151610100601f198685030181870152612a0584836125de565b935080870151915050610120612a25818701836001600160a01b03169052565b86015161014086810191909152860151610160808701919091529095015193019290925250919050565b634e487b7160e01b600052604160045260246000fd5b604051601f8201601f1916810167ffffffffffffffff81118282101715612a8e57612a8e612a4f565b604052919050565b60006020808385031215612aa957600080fd5b825167ffffffffffffffff80821115612ac157600080fd5b818501915085601f830112612ad557600080fd5b815181811115612ae757612ae7612a4f565b8060051b9150612af8848301612a65565b8181529183018401918481019088841115612b1257600080fd5b938501935b83851015612b3c5784519250612b2c83612536565b8282529385019390850190612b17565b98975050505050505050565b634e487b7160e01b600052603260045260246000fd5b600181811c90821680612b7257607f821691505b602082108103612b9257634e487b7160e01b600052602260045260246000fd5b50919050565b60008251612baa8184602087016125ba565b9190910192915050565b6000808335601e19843603018112612bcb57600080fd5b83018035915067ffffffffffffffff821115612be657600080fd5b6020019150600581901b360382131561266257600080fd5b6000808335601e19843603018112612c1557600080fd5b83018035915067ffffffffffffffff821115612c3057600080fd5b60200191503681900382131561266257600080fd5b634e487b7160e01b600052602160045260246000fd5b60118110612c6b57612c6b612c45565b9052565b60208101610d538284612c5b565b600060208284031215612c8f57600080fd5b81518015158114611a6257600080fd5b600b8110612c6b57612c6b612c45565b6001600160e01b03198316815260408101611a626020830184612c9f565b60208101610d538284612c9f565b81835281816020850137506000828201602090810191909152601f909101601f19169091010190565b604081526000612d18604083018688612cdb565b8281036020840152612d2b818587612cdb565b979650505050505050565b601f821115610db8576000816000526020600020601f850160051c81016020861015612d5f5750805b601f850160051c820191505b81811015610f9257828155600101612d6b565b818103612d89575050565b612d938254612b5e565b67ffffffffffffffff811115612dab57612dab612a4f565b612dbf81612db98454612b5e565b84612d36565b6000601f821160018114612df35760008315612ddb5750848201545b600019600385901b1c1916600184901b1784556115df565b600085815260209020601f19841690600086815260209020845b83811015612e2d5782860154825560019586019590910190602001612e0d565b5085831015612e4b5781850154600019600388901b60f8161c191681555b5050505050600190811b01905550565b815167ffffffffffffffff811115612e7557612e75612a4f565b612e8381612db98454612b5e565b602080601f831160018114612eb85760008415612ea05750858301515b600019600386901b1c1916600185901b178555610f92565b600085815260208120601f198616915b82811015612ee757888601518255948401946001909101908401612ec8565b5085821015612e4b57939096015160001960f8600387901b161c19169092555050600190811b01905550565b6001600160e01b03198416815260608101612f316020830185612c5b565b6001600160a01b0383166040830152949350505050565b600060e08284031215612f5a57600080fd5b60405160e0810181811067ffffffffffffffff82111715612f7d57612f7d612a4f565b6040528251612f8b81612536565b81526020830151612f9b81612536565b60208201526040830151612fae81612536565b60408201526060830151612fc181612536565b806060830152506080830151608082015260a083015160a082015260c083015160c08201528091505092915050565b60408101612ffe8285612c9f565b8260208301529392505050565b80820180821115610d5357634e487b7160e01b600052601160045260246000fdfea264697066735822122092f22057b394c2f565b94af2cd31798a58cf737783dce29812da6ace28962e1d64736f6c63430008190033",
  "callValue": 0,
  "chainId": 2021,
  "constructorArgs": "0x",
  "contractName": "Profile",
  "deployer": "0x968D0Cd7343f711216817E617d3f92a23dC91c07",
  "devdoc": {
    "version": 1,
    "kind": "dev",
    "methods": {
      "arePublicKeysRegistered(bytes[][2])": {
        "details": "Cross-contract function to for slash indicator to check the list of public keys in finality slash proof Returns whether all public keys are registered."
      },
      "changeAdminAddr(address,address)": {
        "details": "Side-effects on other contracts: - Update Staking contract:    + [x] Update (id => PoolDetail) mapping in {BaseStaking.sol}.    + [x] Update `_adminOfActivePoolMapping` in {BaseStaking.sol}.    + [x] Move staking amount of previous admin to the the new admin. - Update Validator contract:    + [x] Update (id => ValidatorCandidate) mapping - See other side-effects for treasury in {changeTreasuryAddr}, since treasury and admin must be identical."
      },
      "changeConsensusAddr(address,address)": {
        "details": "Side-effects on other contracts: - Update in Staking contract for Consensus address mapping:   + [x] Keep the same previous pool address. - Update in Validator contract for:   + [x] Consensus Address mapping   + [x] Bridge Address mapping   + [x] Jail mapping   + [x] Pending reward mapping   + [x] Schedule mapping - Update in Slashing contract for:   + [x] Handling slash indicator   + [x] Handling slash fast finality   + [x] Handling slash double sign - Update in Proposal contract for:   + [-] Preserve the consensus address and recipient target of locked amount of emergency exit - Update Trusted Org contracts:   + If the current consensus is governor:      - [x] Remove and delete weight of the old consensus      - [x] Replace and add weight for the new consensus   + If the current consensus is not governor:      - [x] Do nothing"
      },
      "changePubkey(address,bytes,bytes)": {
        "details": "Requirements: - The profile must be existed. - Only user with candidate admin role can call this method. - New public key must not be duplicated. - The proof of public key possession must be verified successfully. - The public key change cooldown must be ended."
      },
      "changeTreasuryAddr(address,address)": {
        "details": "Side-effects on other contracts: - Update Validator contract:    + [x] Update (id => ValidatorCandidate) mapping - Update governance admin:    + [-] Update recipient in the EmergencyExitBallot to the newTreasury.          Cannot impl since we cannot cancel the previous the ballot and          create a new ballot on behalf of the validator contract."
      },
      "changeVRFKeyHash(address,bytes32)": {
        "details": "Requirements: - The profile must be existed. - Only user with candidate admin role can call this method. - New VRF key hash must not be duplicated. - The VRF key hash change cooldown must be ended."
      },
      "execApplyValidatorCandidate(address,address,address,bytes,bytes)": {
        "details": "Cross-contract function to add/update new profile of a validator candidate when they applying for candidate role. Requirements: - Only `stakingContract` can call this method."
      },
      "getConsensus2Id(address)": {
        "details": "Getter to backward query from `consensus` address to `id` address, revert if not found."
      },
      "getContract(uint8)": {
        "details": "Returns the address of a contract with a specific role. Throws an error if no contract is set for the specified role.",
        "params": {
          "contractType": "The role of the contract to retrieve."
        },
        "returns": {
          "contract_": "The address of the contract with the specified role."
        }
      },
      "getCooldownConfig()": {
        "details": "Returns the config of cool down on change profile info."
      },
      "getId2Admin(address)": {
        "details": "Getter to query `admin` from `id` address."
      },
      "getId2BeaconInfo(address)": {
        "details": "Getter to query required random beacon info from `id` address."
      },
      "getId2Consensus(address)": {
        "details": "Getter to query `consensus` from `id` address."
      },
      "getId2OldConsensus(address)": {
        "details": "Getter to query `oldConsensus` from `id` address."
      },
      "getId2OldPubkey(address)": {
        "details": "Getter to query `oldPubkey` from `id` address."
      },
      "getId2Profile(address)": {
        "details": "Getter to query full `profile` from `id` address."
      },
      "getId2ProfileLastChange(address)": {
        "details": "Getter to query `profileLastChange` from `id` address."
      },
      "getId2Pubkey(address)": {
        "details": "Getter to query `pubkey` from `id` address."
      },
      "getId2RegisteredAt(address)": {
        "details": "Getter to query `registeredAt` from `id` address."
      },
      "getId2Treasury(address)": {
        "details": "Getter to query `treasury` from `id` address."
      },
      "getId2VRFKeyHash(address)": {
        "details": "Getter to query `vrfKeyHash` from `id` address."
      },
      "getId2VRFKeyHashLastChange(address)": {
        "details": "Getter to query `vrfKeyHashLastChange` from `id` address."
      },
      "getManyConsensus2Id(address[])": {
        "details": "Getter to backward batch query from `consensus` address to `id` address."
      },
      "getManyId2Admin(address[])": {
        "details": "Getter to batch query from `id` to `admin`, return address(0) if the profile not exist."
      },
      "getManyId2Consensus(address[])": {
        "details": "Getter to batch query from `id` to `consensus`, return address(0) if the profile not exist."
      },
      "getManyId2RegisteredAt(address[])": {
        "details": "Getter to batch query from `id` to `registeredAt`."
      },
      "getVRFKeyHash2BeaconInfo(bytes32)": {
        "details": "Getter to query required random beacon info from `vrfKeyHash`."
      },
      "getVRFKeyHash2Id(bytes32)": {
        "details": "Getter to backward query from `vrfKeyHash` to `id` address, revert if not found."
      },
      "precompileVerifyBLSPublicKeyAddress()": {
        "details": "Gets the address of the precompile of validating double sign evidence"
      },
      "setContract(uint8,address)": {
        "details": "Sets the address of a contract with a specific role. Emits the event {ContractUpdated}.",
        "params": {
          "addr": "The address of the contract to set.",
          "contractType": "The role of the contract to set."
        }
      },
      "setCooldownConfig(uint256)": {
        "details": "Change the cooldown between 2 public key change Requirement:  - Only admin can call this method"
      },
      "tryGetConsensus2Id(address)": {
        "details": "Getter to backward query from `consensus` address to `id` address."
      },
      "tryGetVRFKeyHash2Id(bytes32)": {
        "details": "Getter to backward query from `vrfKeyHash` to `id` address."
      }
    },
    "events": {
      "ConsensusAddressOfNonGovernorChanged(address)": {
        "details": "Event emitted when the consensus of a non-governor profile is changed."
      },
      "ContractUpdated(uint8,address)": {
        "details": "Emitted when a contract is updated."
      },
      "Initialized(uint8)": {
        "details": "Triggered when the contract has been initialized or reinitialized."
      },
      "ProfileAdded(address)": {
        "details": "Event emitted when a profile with `id` is added."
      },
      "ProfileAddressChanged(address,uint8,address)": {
        "details": "Event emitted when a address in a profile is changed."
      },
      "ProfileMigrated(address,address,address)": {
        "details": "Event emitted when the profile is migrated (mostly when REP-4 update)."
      },
      "PubkeyChanged(address,bytes)": {
        "details": "Event emitted when the pubkey of the `id` is changed."
      },
      "PubkeyVerified(bytes,bytes)": {
        "details": "Event emitted when the pubkey is verified successfully."
      },
      "VRFKeyHashChanged(address,bytes32)": {
        "details": "Event emitted when the VRF key hash of the `id` is changed."
      }
    },
    "errors": {
      "ErrCallPrecompiled()": [
        {
          "details": "Error of call to precompile fails."
        }
      ],
      "ErrContractTypeNotFound(uint8)": [
        {
          "details": "Error of invalid role."
        }
      ],
      "ErrDuplicatedInfo(uint8,uint256)": [
        {
          "details": "Error when there is a duplicated info of `value`, which is uin256-padding value of any address or hash of public key, and with value type of `infoType`."
        }
      ],
      "ErrExistentProfile()": [
        {
          "details": "Error of already existed profile."
        }
      ],
      "ErrIdAndConsensusDiffer()": [
        {
          "details": "Error when create a new profile whose id and consensus are not identical."
        }
      ],
      "ErrNonExistentProfile()": [
        {
          "details": "Error of non existed profile."
        }
      ],
      "ErrProfileChangeCooldownNotEnded()": [
        {
          "details": "Error when failed to change any address or pubkey in the profile because cooldown is not ended."
        }
      ],
      "ErrUnauthorized(bytes4,uint8)": [
        {
          "details": "Error indicating that the caller is unauthorized to perform a specific function.",
          "params": {
            "expectedRole": "The role required to perform the function.",
            "msgSig": "The function signature (bytes4) that the caller is unauthorized to perform."
          }
        }
      ],
      "ErrUnexpectedInternalCall(bytes4,uint8,address)": [
        {
          "details": "Error indicating that the caller is unauthorized to perform a specific function.",
          "params": {
            "actual": "The actual address that called to the function.",
            "expectedContractType": "The contract type required to perform the function.",
            "msgSig": "The function signature (bytes4)."
          }
        }
      ],
      "ErrZeroCodeContract(address)": [
        {
          "details": "Error of set to non-contract."
        }
      ]
    }
  },
  "isFoundry": true,
  "nonce": 194388,
  "storageLayout": {
    "storage": [
      {
        "astId": 32417,
        "contract": "contracts/ronin/profile/Profile.sol:Profile",
        "label": "_id2Profile",
        "offset": 0,
        "slot": "0",
        "type": "t_mapping(t_address,t_struct(CandidateProfile)7392_storage)"
      },
      {
        "astId": 32422,
        "contract": "contracts/ronin/profile/Profile.sol:Profile",
        "label": "_registry",
        "offset": 0,
        "slot": "1",
        "type": "t_mapping(t_uint256,t_bool)"
      },
      {
        "astId": 32428,
        "contract": "contracts/ronin/profile/Profile.sol:Profile",
        "label": "_consensus2Id",
        "offset": 0,
        "slot": "2",
        "type": "t_mapping(t_userDefinedValueType(TConsensus)45044,t_address)"
      },
      {
        "astId": 32431,
        "contract": "contracts/ronin/profile/Profile.sol:Profile",
        "label": "_profileChangeCooldown",
        "offset": 0,
        "slot": "3",
        "type": "t_uint256"
      },
      {
        "astId": 32436,
        "contract": "contracts/ronin/profile/Profile.sol:Profile",
        "label": "_vrfKeyHash2Id",
        "offset": 0,
        "slot": "4",
        "type": "t_mapping(t_bytes32,t_address)"
      },
      {
        "astId": 32441,
        "contract": "contracts/ronin/profile/Profile.sol:Profile",
        "label": "__gap",
        "offset": 0,
        "slot": "5",
        "type": "t_array(t_bytes32)46_storage"
      },
      {
        "astId": 106616,
        "contract": "contracts/ronin/profile/Profile.sol:Profile",
        "label": "_initialized",
        "offset": 0,
        "slot": "51",
        "type": "t_uint8"
      },
      {
        "astId": 106619,
        "contract": "contracts/ronin/profile/Profile.sol:Profile",
        "label": "_initializing",
        "offset": 1,
        "slot": "51",
        "type": "t_bool"
      }
    ],
    "types": {
      "t_address": {
        "encoding": "inplace",
        "label": "address",
        "numberOfBytes": "20"
      },
      "t_address_payable": {
        "encoding": "inplace",
        "label": "address payable",
        "numberOfBytes": "20"
      },
      "t_array(t_bytes32)46_storage": {
        "encoding": "inplace",
        "label": "bytes32[46]",
        "numberOfBytes": "1472",
        "base": "t_bytes32"
      },
      "t_bool": {
        "encoding": "inplace",
        "label": "bool",
        "numberOfBytes": "1"
      },
      "t_bytes32": {
        "encoding": "inplace",
        "label": "bytes32",
        "numberOfBytes": "32"
      },
      "t_bytes_storage": {
        "encoding": "bytes",
        "label": "bytes",
        "numberOfBytes": "32"
      },
      "t_mapping(t_address,t_struct(CandidateProfile)7392_storage)": {
        "encoding": "mapping",
        "key": "t_address",
        "label": "mapping(address => struct IProfile.CandidateProfile)",
        "numberOfBytes": "32",
        "value": "t_struct(CandidateProfile)7392_storage"
      },
      "t_mapping(t_bytes32,t_address)": {
        "encoding": "mapping",
        "key": "t_bytes32",
        "label": "mapping(bytes32 => address)",
        "numberOfBytes": "32",
        "value": "t_address"
      },
      "t_mapping(t_uint256,t_bool)": {
        "encoding": "mapping",
        "key": "t_uint256",
        "label": "mapping(uint256 => bool)",
        "numberOfBytes": "32",
        "value": "t_bool"
      },
      "t_mapping(t_userDefinedValueType(TConsensus)45044,t_address)": {
        "encoding": "mapping",
        "key": "t_userDefinedValueType(TConsensus)45044",
        "label": "mapping(TConsensus => address)",
        "numberOfBytes": "32",
        "value": "t_address"
      },
      "t_struct(CandidateProfile)7392_storage": {
        "encoding": "inplace",
        "label": "struct IProfile.CandidateProfile",
        "numberOfBytes": "384",
        "members": [
          {
            "astId": 7356,
            "contract": "contracts/ronin/profile/Profile.sol:Profile",
            "label": "id",
            "offset": 0,
            "slot": "0",
            "type": "t_address"
          },
          {
            "astId": 7360,
            "contract": "contracts/ronin/profile/Profile.sol:Profile",
            "label": "consensus",
            "offset": 0,
            "slot": "1",
            "type": "t_userDefinedValueType(TConsensus)45044"
          },
          {
            "astId": 7363,
            "contract": "contracts/ronin/profile/Profile.sol:Profile",
            "label": "admin",
            "offset": 0,
            "slot": "2",
            "type": "t_address"
          },
          {
            "astId": 7366,
            "contract": "contracts/ronin/profile/Profile.sol:Profile",
            "label": "treasury",
            "offset": 0,
            "slot": "3",
            "type": "t_address_payable"
          },
          {
            "astId": 7369,
            "contract": "contracts/ronin/profile/Profile.sol:Profile",
            "label": "__reservedGovernor",
            "offset": 0,
            "slot": "4",
            "type": "t_address"
          },
          {
            "astId": 7372,
            "contract": "contracts/ronin/profile/Profile.sol:Profile",
            "label": "pubkey",
            "offset": 0,
            "slot": "5",
            "type": "t_bytes_storage"
          },
          {
            "astId": 7375,
            "contract": "contracts/ronin/profile/Profile.sol:Profile",
            "label": "profileLastChange",
            "offset": 0,
            "slot": "6",
            "type": "t_uint256"
          },
          {
            "astId": 7378,
            "contract": "contracts/ronin/profile/Profile.sol:Profile",
            "label": "oldPubkey",
            "offset": 0,
            "slot": "7",
            "type": "t_bytes_storage"
          },
          {
            "astId": 7382,
            "contract": "contracts/ronin/profile/Profile.sol:Profile",
            "label": "oldConsensus",
            "offset": 0,
            "slot": "8",
            "type": "t_userDefinedValueType(TConsensus)45044"
          },
          {
            "astId": 7385,
            "contract": "contracts/ronin/profile/Profile.sol:Profile",
            "label": "registeredAt",
            "offset": 0,
            "slot": "9",
            "type": "t_uint256"
          },
          {
            "astId": 7388,
            "contract": "contracts/ronin/profile/Profile.sol:Profile",
            "label": "vrfKeyHash",
            "offset": 0,
            "slot": "10",
            "type": "t_bytes32"
          },
          {
            "astId": 7391,
            "contract": "contracts/ronin/profile/Profile.sol:Profile",
            "label": "vrfKeyHashLastChange",
            "offset": 0,
            "slot": "11",
            "type": "t_uint256"
          }
        ]
      },
      "t_uint256": {
        "encoding": "inplace",
        "label": "uint256",
        "numberOfBytes": "32"
      },
      "t_uint8": {
        "encoding": "inplace",
        "label": "uint8",
        "numberOfBytes": "1"
      },
      "t_userDefinedValueType(TConsensus)45044": {
        "encoding": "inplace",
        "label": "TConsensus",
        "numberOfBytes": "20"
      }
    }
  },
  "timestamp": 1717148297,
  "userdoc": {
    "version": 1,
    "kind": "user",
    "methods": {
      "changePubkey(address,bytes,bytes)": {
        "notice": "The candidate admin changes the public key."
      },
      "changeTreasuryAddr(address,address)": {
        "notice": "This method is not supported. Change treasury also requires changing the admin address. Using the {changeAdminAddr} method instead"
      },
      "changeVRFKeyHash(address,bytes32)": {
        "notice": "The candidate admin changes the VRF key hash."
      }
    }
  }
}