{
  "abi": [
    {
      "type": "function",
      "name": "arePublicKeysRegistered",
      "inputs": [
        {
          "name": "listOfPublicKey",
          "type": "bytes[][2]",
          "internalType": "bytes[][2]"
        }
      ],
      "outputs": [
        {
          "name": "",
          "type": "bool",
          "internalType": "bool"
        }
      ],
      "stateMutability": "view"
    },
    {
      "type": "function",
      "name": "changeAdminAddr",
      "inputs": [
        {
          "name": "id",
          "type": "address",
          "internalType": "address"
        },
        {
          "name": "newAdminAddr",
          "type": "address",
          "internalType": "address"
        }
      ],
      "outputs": [],
      "stateMutability": "nonpayable"
    },
    {
      "type": "function",
      "name": "changeConsensusAddr",
      "inputs": [
        {
          "name": "id",
          "type": "address",
          "internalType": "address"
        },
        {
          "name": "newConsensusAddr",
          "type": "address",
          "internalType": "TConsensus"
        }
      ],
      "outputs": [],
      "stateMutability": "nonpayable"
    },
    {
      "type": "function",
      "name": "changePubkey",
      "inputs": [
        {
          "name": "id",
          "type": "address",
          "internalType": "address"
        },
        {
          "name": "pubkey",
          "type": "bytes",
          "internalType": "bytes"
        },
        {
          "name": "proofOfPossession",
          "type": "bytes",
          "internalType": "bytes"
        }
      ],
      "outputs": [],
      "stateMutability": "nonpayable"
    },
    {
      "type": "function",
      "name": "changeTreasuryAddr",
      "inputs": [
        {
          "name": "",
          "type": "address",
          "internalType": "address"
        },
        {
          "name": "",
          "type": "address",
          "internalType": "address payable"
        }
      ],
      "outputs": [],
      "stateMutability": "pure"
    },
    {
      "type": "function",
      "name": "execApplyValidatorCandidate",
      "inputs": [
        {
          "name": "admin",
          "type": "address",
          "internalType": "address"
        },
        {
          "name": "id",
          "type": "address",
          "internalType": "address"
        },
        {
          "name": "treasury",
          "type": "address",
          "internalType": "address"
        },
        {
          "name": "pubkey",
          "type": "bytes",
          "internalType": "bytes"
        },
        {
          "name": "proofOfPossession",
          "type": "bytes",
          "internalType": "bytes"
        }
      ],
      "outputs": [],
      "stateMutability": "nonpayable"
    },
    {
      "type": "function",
      "name": "getConsensus2Id",
      "inputs": [
        {
          "name": "consensus",
          "type": "address",
          "internalType": "TConsensus"
        }
      ],
      "outputs": [
        {
          "name": "",
          "type": "address",
          "internalType": "address"
        }
      ],
      "stateMutability": "view"
    },
    {
      "type": "function",
      "name": "getContract",
      "inputs": [
        {
          "name": "contractType",
          "type": "uint8",
          "internalType": "enum ContractType"
        }
      ],
      "outputs": [
        {
          "name": "contract_",
          "type": "address",
          "internalType": "address"
        }
      ],
      "stateMutability": "view"
    },
    {
      "type": "function",
      "name": "getCooldownConfig",
      "inputs": [],
      "outputs": [
        {
          "name": "",
          "type": "uint256",
          "internalType": "uint256"
        }
      ],
      "stateMutability": "view"
    },
    {
      "type": "function",
      "name": "getId2Profile",
      "inputs": [
        {
          "name": "id",
          "type": "address",
          "internalType": "address"
        }
      ],
      "outputs": [
        {
          "name": "",
          "type": "tuple",
          "internalType": "struct IProfile.CandidateProfile",
          "components": [
            {
              "name": "id",
              "type": "address",
              "internalType": "address"
            },
            {
              "name": "consensus",
              "type": "address",
              "internalType": "TConsensus"
            },
            {
              "name": "admin",
              "type": "address",
              "internalType": "address"
            },
            {
              "name": "treasury",
              "type": "address",
              "internalType": "address payable"
            },
            {
              "name": "__reservedGovernor",
              "type": "address",
              "internalType": "address"
            },
            {
              "name": "pubkey",
              "type": "bytes",
              "internalType": "bytes"
            },
            {
              "name": "profileLastChange",
              "type": "uint256",
              "internalType": "uint256"
            },
            {
              "name": "oldPubkey",
              "type": "bytes",
              "internalType": "bytes"
            },
            {
              "name": "oldConsensus",
              "type": "address",
              "internalType": "TConsensus"
            }
          ]
        }
      ],
      "stateMutability": "view"
    },
    {
      "type": "function",
      "name": "getManyConsensus2Id",
      "inputs": [
        {
          "name": "consensusList",
          "type": "address[]",
          "internalType": "TConsensus[]"
        }
      ],
      "outputs": [
        {
          "name": "idList",
          "type": "address[]",
          "internalType": "address[]"
        }
      ],
      "stateMutability": "view"
    },
    {
      "type": "function",
      "name": "getManyId2Consensus",
      "inputs": [
        {
          "name": "idList",
          "type": "address[]",
          "internalType": "address[]"
        }
      ],
      "outputs": [
        {
          "name": "consensusList",
          "type": "address[]",
          "internalType": "TConsensus[]"
        }
      ],
      "stateMutability": "view"
    },
    {
      "type": "function",
      "name": "initialize",
      "inputs": [
        {
          "name": "validatorContract",
          "type": "address",
          "internalType": "address"
        }
      ],
      "outputs": [],
      "stateMutability": "nonpayable"
    },
    {
      "type": "function",
      "name": "initializeV2",
      "inputs": [
        {
          "name": "stakingContract",
          "type": "address",
          "internalType": "address"
        },
        {
          "name": "trustedOrgContract",
          "type": "address",
          "internalType": "address"
        }
      ],
      "outputs": [],
      "stateMutability": "nonpayable"
    },
    {
      "type": "function",
      "name": "initializeV3",
      "inputs": [
        {
          "name": "cooldown",
          "type": "uint256",
          "internalType": "uint256"
        }
      ],
      "outputs": [],
      "stateMutability": "nonpayable"
    },
    {
      "type": "function",
      "name": "manualMigrate",
      "inputs": [
        {
          "name": "id",
          "type": "address",
          "internalType": "address"
        },
        {
          "name": "candidateAdmin",
          "type": "address",
          "internalType": "address"
        },
        {
          "name": "treasury",
          "type": "address",
          "internalType": "address"
        }
      ],
      "outputs": [],
      "stateMutability": "nonpayable"
    },
    {
      "type": "function",
      "name": "migrateOldConsensusList",
      "inputs": [
        {
          "name": "lId",
          "type": "address[]",
          "internalType": "address[]"
        },
        {
          "name": "lCss",
          "type": "address[]",
          "internalType": "TConsensus[]"
        }
      ],
      "outputs": [],
      "stateMutability": "nonpayable"
    },
    {
      "type": "function",
      "name": "migrateRenouncedCandidate",
      "inputs": [],
      "outputs": [],
      "stateMutability": "nonpayable"
    },
    {
      "type": "function",
      "name": "precompileVerifyBLSPublicKeyAddress",
      "inputs": [],
      "outputs": [
        {
          "name": "",
          "type": "address",
          "internalType": "address"
        }
      ],
      "stateMutability": "view"
    },
    {
      "type": "function",
      "name": "setContract",
      "inputs": [
        {
          "name": "contractType",
          "type": "uint8",
          "internalType": "enum ContractType"
        },
        {
          "name": "addr",
          "type": "address",
          "internalType": "address"
        }
      ],
      "outputs": [],
      "stateMutability": "nonpayable"
    },
    {
      "type": "function",
      "name": "setCooldownConfig",
      "inputs": [
        {
          "name": "cooldown",
          "type": "uint256",
          "internalType": "uint256"
        }
      ],
      "outputs": [],
      "stateMutability": "nonpayable"
    },
    {
      "type": "function",
      "name": "tryGetConsensus2Id",
      "inputs": [
        {
          "name": "consensus",
          "type": "address",
          "internalType": "TConsensus"
        }
      ],
      "outputs": [
        {
          "name": "found",
          "type": "bool",
          "internalType": "bool"
        },
        {
          "name": "id",
          "type": "address",
          "internalType": "address"
        }
      ],
      "stateMutability": "view"
    },
    {
      "type": "event",
      "name": "ConsensusAddressOfNonGovernorChanged",
      "inputs": [
        {
          "name": "id",
          "type": "address",
          "indexed": true,
          "internalType": "address"
        }
      ],
      "anonymous": false
    },
    {
      "type": "event",
      "name": "ContractUpdated",
      "inputs": [
        {
          "name": "contractType",
          "type": "uint8",
          "indexed": true,
          "internalType": "enum ContractType"
        },
        {
          "name": "addr",
          "type": "address",
          "indexed": true,
          "internalType": "address"
        }
      ],
      "anonymous": false
    },
    {
      "type": "event",
      "name": "Initialized",
      "inputs": [
        {
          "name": "version",
          "type": "uint8",
          "indexed": false,
          "internalType": "uint8"
        }
      ],
      "anonymous": false
    },
    {
      "type": "event",
      "name": "ProfileAdded",
      "inputs": [
        {
          "name": "id",
          "type": "address",
          "indexed": true,
          "internalType": "address"
        }
      ],
      "anonymous": false
    },
    {
      "type": "event",
      "name": "ProfileAddressChanged",
      "inputs": [
        {
          "name": "id",
          "type": "address",
          "indexed": true,
          "internalType": "address"
        },
        {
          "name": "addressType",
          "type": "uint8",
          "indexed": true,
          "internalType": "enum RoleAccess"
        },
        {
          "name": "addr",
          "type": "address",
          "indexed": true,
          "internalType": "address"
        }
      ],
      "anonymous": false
    },
    {
      "type": "event",
      "name": "ProfileMigrated",
      "inputs": [
        {
          "name": "id",
          "type": "address",
          "indexed": true,
          "internalType": "address"
        },
        {
          "name": "admin",
          "type": "address",
          "indexed": true,
          "internalType": "address"
        },
        {
          "name": "treasury",
          "type": "address",
          "indexed": true,
          "internalType": "address"
        }
      ],
      "anonymous": false
    },
    {
      "type": "event",
      "name": "PubkeyChanged",
      "inputs": [
        {
          "name": "id",
          "type": "address",
          "indexed": true,
          "internalType": "address"
        },
        {
          "name": "pubkey",
          "type": "bytes",
          "indexed": false,
          "internalType": "bytes"
        }
      ],
      "anonymous": false
    },
    {
      "type": "event",
      "name": "PubkeyVerified",
      "inputs": [
        {
          "name": "pubkey",
          "type": "bytes",
          "indexed": false,
          "internalType": "bytes"
        },
        {
          "name": "proofOfPossession",
          "type": "bytes",
          "indexed": false,
          "internalType": "bytes"
        }
      ],
      "anonymous": false
    },
    {
      "type": "error",
      "name": "ErrCallPrecompiled",
      "inputs": []
    },
    {
      "type": "error",
      "name": "ErrContractTypeNotFound",
      "inputs": [
        {
          "name": "contractType",
          "type": "uint8",
          "internalType": "enum ContractType"
        }
      ]
    },
    {
      "type": "error",
      "name": "ErrDuplicatedInfo",
      "inputs": [
        {
          "name": "infoType",
          "type": "uint8",
          "internalType": "enum RoleAccess"
        },
        {
          "name": "value",
          "type": "uint256",
          "internalType": "uint256"
        }
      ]
    },
    {
      "type": "error",
      "name": "ErrDuplicatedPubkey",
      "inputs": [
        {
          "name": "pubkey",
          "type": "bytes",
          "internalType": "bytes"
        }
      ]
    },
    {
      "type": "error",
      "name": "ErrExistentProfile",
      "inputs": []
    },
    {
      "type": "error",
      "name": "ErrIdAndConsensusDiffer",
      "inputs": []
    },
    {
      "type": "error",
      "name": "ErrInvalidProofOfPossession",
      "inputs": [
        {
          "name": "pubkey",
          "type": "bytes",
          "internalType": "bytes"
        },
        {
          "name": "proofOfPossession",
          "type": "bytes",
          "internalType": "bytes"
        }
      ]
    },
    {
      "type": "error",
      "name": "ErrLookUpIdFailed",
      "inputs": [
        {
          "name": "consensus",
          "type": "address",
          "internalType": "TConsensus"
        }
      ]
    },
    {
      "type": "error",
      "name": "ErrNonExistentProfile",
      "inputs": []
    },
    {
      "type": "error",
      "name": "ErrProfileChangeCooldownNotEnded",
      "inputs": []
    },
    {
      "type": "error",
      "name": "ErrUnauthorized",
      "inputs": [
        {
          "name": "msgSig",
          "type": "bytes4",
          "internalType": "bytes4"
        },
        {
          "name": "expectedRole",
          "type": "uint8",
          "internalType": "enum RoleAccess"
        }
      ]
    },
    {
      "type": "error",
      "name": "ErrUnexpectedInternalCall",
      "inputs": [
        {
          "name": "msgSig",
          "type": "bytes4",
          "internalType": "bytes4"
        },
        {
          "name": "expectedContractType",
          "type": "uint8",
          "internalType": "enum ContractType"
        },
        {
          "name": "actual",
          "type": "address",
          "internalType": "address"
        }
      ]
    },
    {
      "type": "error",
      "name": "ErrValidatorOnRenunciation",
      "inputs": [
        {
          "name": "cid",
          "type": "address",
          "internalType": "address"
        }
      ]
    },
    {
      "type": "error",
      "name": "ErrZeroAddress",
      "inputs": [
        {
          "name": "infoType",
          "type": "uint8",
          "internalType": "enum RoleAccess"
        }
      ]
    },
    {
      "type": "error",
      "name": "ErrZeroCodeContract",
      "inputs": [
        {
          "name": "addr",
          "type": "address",
          "internalType": "address"
        }
      ]
    },
    {
      "type": "error",
      "name": "ErrZeroPubkey",
      "inputs": []
    }
  ],
  "address": "0x769d5D3B20eE760D903365868aE63B53AA532198",
  "args": "0x",
  "blockNumber": 25164312,
  "bytecode": "0x60806040523480156200001157600080fd5b506200001c62000022565b620000e4565b603354610100900460ff16156200008f5760405162461bcd60e51b815260206004820152602760248201527f496e697469616c697a61626c653a20636f6e747261637420697320696e697469604482015266616c697a696e6760c81b606482015260840160405180910390fd5b60335460ff9081161015620000e2576033805460ff191660ff9081179091556040519081527f7f26b83ff96e1f2b6a682f133852f6798a09c465da95921460cefb38474024989060200160405180910390a15b565b613b6a80620000f46000396000f3fe608060405234801561001057600080fd5b50600436106101825760003560e01c8063ad5abf2d116100d8578063c63516321161008c578063de981f1b11610066578063de981f1b14610332578063f466094014610345578063f9226b1a1461036557600080fd5b8063c635163214610304578063c73f41b11461030c578063c8a8e5631461031f57600080fd5b8063b261596f116100bd578063b261596f146102be578063b5017aef146102de578063c4d66de8146102f157600080fd5b8063ad5abf2d146102a4578063b0abaea6146102b757600080fd5b80635e911d0a1161013a57806388660f2a1161011457806388660f2a1461024c5780639a1a05e01461027e5780639debe22e1461029157600080fd5b80635e911d0a146102035780637e18b56614610216578063865e6fd31461023957600080fd5b80633c3d84101161016b5780633c3d8410146101b25780634a3478c6146101c557806350a9fc29146101d857600080fd5b80630840ba7214610187578063332846871461019c575b600080fd5b61019a610195366004613031565b610378565b005b6003546040519081526020015b60405180910390f35b61019a6101c036600461306a565b61054d565b61019a6101d3366004613031565b610635565b6101eb6101e6366004613083565b610822565b6040516001600160a01b0390911681526020016101a9565b61019a6102113660046130ec565b610833565b610229610224366004613158565b61093b565b60405190151581526020016101a9565b61019a6102473660046131a2565b610a1f565b61025f61025a366004613083565b610a3e565b6040805192151583526001600160a01b039091166020830152016101a9565b61019a61028c366004613200565b610a6f565b61019a61029f366004613283565b610b19565b61019a6102b236600461306a565b610b31565b606a6101eb565b6102d16102cc3660046132ce565b610b45565b6040516101a99190613310565b61019a6102ec36600461335d565b610c1e565b61019a6102ff366004613083565b610d5a565b61019a610e67565b61019a61031a366004613031565b610e79565b61019a61032d366004613031565b610ec1565b6101eb610340366004613405565b6110a9565b610358610353366004613083565b61113d565b6040516101a99190613470565b6102d16103733660046132ce565b611332565b603354600290610100900460ff1615801561039a575060335460ff8083169116105b6104025760405162461bcd60e51b815260206004820152602e60248201527f496e697469616c697a61626c653a20636f6e747261637420697320616c72656160448201526d191e481a5b9a5d1a585b1a5e995960921b60648201526084015b60405180910390fd5b6033805461ffff191660ff8316176101001790556104216009846113e5565b61042c600a836113e5565b600061043860086110a9565b6001600160a01b031663ba77b06c6040518163ffffffff1660e01b8152600401600060405180830381865afa158015610475573d6000803e3d6000fd5b505050506040513d6000823e601f3d908101601f1916820160405261049d919081019061358b565b905060005b81518110156104fd5760008282815181106104bf576104bf61363d565b6020908102919091018101516001600160a01b031660008181526002909252604090912080546001600160a01b0319169091179055506001016104a2565b50610506611489565b506033805461ff001916905560405160ff821681527f7f26b83ff96e1f2b6a682f133852f6798a09c465da95921460cefb38474024989060200160405180910390a1505050565b603354600390610100900460ff1615801561056f575060335460ff8083169116105b6105d25760405162461bcd60e51b815260206004820152602e60248201527f496e697469616c697a61626c653a20636f6e747261637420697320616c72656160448201526d191e481a5b9a5d1a585b1a5e995960921b60648201526084016103f9565b6033805461ffff191660ff8316176101001790556105ef82600355565b6033805461ff001916905560405160ff821681527f7f26b83ff96e1f2b6a682f133852f6798a09c465da95921460cefb3847402498906020015b60405180910390a15050565b600061064083611506565b905061064b8161155a565b610656600983611636565b61065f81611682565b60018101546001600160a01b0316600061067960086110a9565b6040517f6ef826c80000000000000000000000000000000000000000000000000000000081526001600160a01b038781166004830152868116602483015291925090821690636ef826c890604401600060405180830381600087803b1580156106e157600080fd5b505af11580156106f5573d6000803e3d6000fd5b505050506000610705600a6110a9565b6040516001600160a01b038581166024830152878116604483015291925060009183169060640160408051601f198184030181529181526020820180517bffffffffffffffffffffffffffffffffffffffffffffffffffffffff167fa0c302a7000000000000000000000000000000000000000000000000000000001790525161078f9190613653565b6000604051808303816000865af19150503d80600081146107cc576040519150601f19603f3d011682016040523d82523d6000602084013e6107d1565b606091505b505090508061080f576040516001600160a01b038816907f940589fcab729233e520a0b808ffeabac5a6e90603d892a31cd4609b32547dd990600090a25b6108198587611694565b50505050505050565b600061082d8261174b565b92915050565b61083b6117c2565b82811461088a5760405162461bcd60e51b815260206004820152600e60248201527f496e76616c6964206c656e67746800000000000000000000000000000000000060448201526064016103f9565b6000805b82811015610933576000808787848181106108ab576108ab61363d565b90506020020160208101906108c09190613083565b6001600160a01b03166001600160a01b0316815260200190815260200160002091508383828181106108f4576108f461363d565b90506020020160208101906109099190613083565b6008830180546001600160a01b0319166001600160a01b039290921691909117905560010161088e565b505050505050565b6000805b6002811015610a165760005b83826002811061095d5761095d61363d565b60200281019061096d919061366f565b9050811015610a0d576109f784836002811061098b5761098b61363d565b60200281019061099b919061366f565b838181106109ab576109ab61363d565b90506020028101906109bd91906136b9565b8080601f01602080910402602001604051908101604052809392919081815260200183838082843760009201919091525061181c92505050565b610a05575060009392505050565b60010161094b565b5060010161093f565b50600192915050565b610a276117c2565b610a308161184b565b610a3a82826113e5565b5050565b600080610a66836001600160a01b039081166000908152600260205260409020541680151591565b91509150915091565b6000610a7a86611506565b9050610a858161155a565b610ac485858080601f01602080910402602001604051908101604052809392919081815260200183838082843760009201919091525061189a92505050565b610ad0858585856118dc565b610ad981611682565b6109338186868080601f01602080910402602001604051908101604052809392919081815260200183838082843760009201919091525061196a92505050565b610b216117c2565b610b2c838383611a21565b505050565b610b396117c2565b610b4281600355565b50565b60608167ffffffffffffffff811115610b6057610b60613544565b604051908082528060200260200182016040528015610b89578160200160208202803683370190505b50905060005b82811015610c1757600080858584818110610bac57610bac61363d565b9050602002016020810190610bc19190613083565b6001600160a01b0390811682526020820192909252604001600020600101548351911690839083908110610bf757610bf761363d565b6001600160a01b0390921660209283029190910190910152600101610b8f565b5092915050565b6009610c2981611ab8565b6001600160a01b038088166000908152602081905260409020805490911615610c7e576040517f249b38f900000000000000000000000000000000000000000000000000000000815260040160405180910390fd5b60006040518061012001604052808a6001600160a01b031681526020018a6001600160a01b031681526020018b6001600160a01b03168152602001896001600160a01b0316815260200160006001600160a01b0316815260200188888080601f016020809104026020016040519081016040528093929190818152602001838380828437600092018290525093855250505060208083018290526040805191820181528282528301526060909101529050610d3881611b1d565b610d44878787876118dc565b610d4e8282611b57565b50505050505050505050565b603354610100900460ff1615808015610d7a5750603354600160ff909116105b80610d945750303b158015610d94575060335460ff166001145b610df75760405162461bcd60e51b815260206004820152602e60248201527f496e697469616c697a61626c653a20636f6e747261637420697320616c72656160448201526d191e481a5b9a5d1a585b1a5e995960921b60648201526084016103f9565b6033805460ff191660011790558015610e1a576033805461ff0019166101001790555b610e256008836113e5565b8015610a3a576033805461ff0019169055604051600181527f7f26b83ff96e1f2b6a682f133852f6798a09c465da95921460cefb384740249890602001610629565b610e6f6117c2565b610e77611bf6565b565b60405162461bcd60e51b815260206004820152600d60248201527f4e6f7420737570706f727465640000000000000000000000000000000000000060448201526064016103f9565b6000610ecc83611506565b9050610ed78161155a565b610ee2600483611636565b610eeb81611682565b610ef483611c86565b6000610f0060096110a9565b6040517f01e4ff220000000000000000000000000000000000000000000000000000000081526001600160a01b0386811660048301523360248301528581166044830152919250908216906301e4ff2290606401600060405180830381600087803b158015610f6e57600080fd5b505af1158015610f82573d6000803e3d6000fd5b505050506000610f9260086110a9565b6040517feecaefd90000000000000000000000000000000000000000000000000000000081526001600160a01b03878116600483015286811660248301529192509082169063eecaefd990604401600060405180830381600087803b158015610ffa57600080fd5b505af115801561100e573d6000803e3d6000fd5b50506040517f0bbed9af0000000000000000000000000000000000000000000000000000000081526001600160a01b038881166004830152878116602483015284169250630bbed9af9150604401600060405180830381600087803b15801561107657600080fd5b505af115801561108a573d6000803e3d6000fd5b505050506110988385611d62565b6110a28385611da5565b5050505050565b60007fdea3103d22025c269050bea94c0c84688877f12fa22b7e6d2d5d78a9a49aa1cb600083600f8111156110e0576110e0613700565b60ff1681526020810191909152604001600020546001600160a01b031690508061113857816040517f812281be0000000000000000000000000000000000000000000000000000000081526004016103f9919061372a565b919050565b604080516101208101825260008082526020820181905291810182905260608082018390526080820183905260a0820181905260c0820183905260e08201526101008101919091526001600160a01b0380831660009081526020818152604091829020825161012081018452815485168152600182015485169281019290925260028101548416928201929092526003820154831660608201526004820154909216608083015260058101805460a0840191906111f990613738565b80601f016020809104026020016040519081016040528092919081815260200182805461122590613738565b80156112725780601f1061124757610100808354040283529160200191611272565b820191906000526020600020905b81548152906001019060200180831161125557829003601f168201915b505050505081526020016006820154815260200160078201805461129590613738565b80601f01602080910402602001604051908101604052809291908181526020018280546112c190613738565b801561130e5780601f106112e35761010080835404028352916020019161130e565b820191906000526020600020905b8154815290600101906020018083116112f157829003601f168201915b5050509183525050600891909101546001600160a01b031660209091015292915050565b60608167ffffffffffffffff81111561134d5761134d613544565b604051908082528060200260200182016040528015611376578160200160208202803683370190505b50905060005b82811015610c17576113b38484838181106113995761139961363d565b90506020020160208101906113ae9190613083565b61174b565b8282815181106113c5576113c561363d565b6001600160a01b039092166020928302919091019091015260010161137c565b807fdea3103d22025c269050bea94c0c84688877f12fa22b7e6d2d5d78a9a49aa1cb600084600f81111561141b5761141b613700565b60ff168152602081019190915260400160002080546001600160a01b0319166001600160a01b03928316179055811682600f81111561145c5761145c613700565b6040517f865d1c228a8ea13709cfe61f346f7ff67f1bbd4a18ff31ad3e7147350d317c5990600090a35050565b603354610100900460ff16610e6f5760405162461bcd60e51b815260206004820152602b60248201527f496e697469616c697a61626c653a20636f6e7472616374206973206e6f74206960448201527f6e697469616c697a696e6700000000000000000000000000000000000000000060648201526084016103f9565b6001600160a01b0380821660009081526020819052604090208054909116611138576040517f682a559600000000000000000000000000000000000000000000000000000000815260040160405180910390fd5b60028101546001600160a01b031633141580611608575061157b60086110a9565b81546040517f46ebb2320000000000000000000000000000000000000000000000000000000081526001600160a01b0391821660048201523360248201529116906346ebb23290604401602060405180830381865afa1580156115e2573d6000803e3d6000fd5b505050506040513d601f19601f820116820180604052508101906116069190613772565b155b15610b42576000356001600160e01b0319166004604051620f948f60ea1b81526004016103f99291906137a4565b6001600160a01b03811661167857816040517f57ed62e40000000000000000000000000000000000000000000000000000000081526004016103f991906137c2565b610a3a8282611de8565b61168b81611e48565b42600682015550565b600180830180546008850180546001600160a01b03199081166001600160a01b0393841690811790925560009182526002602090815260408084208054841690558854888616808652828620805486169290971691909117909555855490921684179094559284905291909120805460ff191690921790915560095b83546040516001600160a01b03909116907fe9654874a1d2cdb1459fe91e0442173d77f8e1baa4897e3f5c10e769a1515d0690600090a45050565b6000806000611775846001600160a01b039081166000908152600260205260409020541680151591565b91509150816117bb576040517f1e3d646f0000000000000000000000000000000000000000000000000000000081526001600160a01b03851660048201526024016103f9565b9392505050565b7fb53127684a568b3173ae13b9f8a6016e243e63b6e8ee1178d6a717850b5d6103546001600160a01b03163314610e77576000356001600160e01b0319166001604051620f948f60ea1b81526004016103f99291906137a4565b60006001600061183184805160209091012090565b815260208101919091526040016000205460ff1692915050565b806001600160a01b03163b600003610b42576040517f2ff1928c0000000000000000000000000000000000000000000000000000000081526001600160a01b03821660048201526024016103f9565b6118a38161181c565b15610b4257806040517f7995d6c80000000000000000000000000000000000000000000000000000000081526004016103f991906137d0565b6118e884848484611e93565b61192657838383836040517f97cf1c8d0000000000000000000000000000000000000000000000000000000081526004016103f9949392919061380c565b7fb737fd977072c109cccc97108f9f8a9017af4bbf4d20938a747f17d8921c50a68484848460405161195b949392919061380c565b60405180910390a15b50505050565b81600501805461197990613738565b15905061199357600782016119916005840182613886565b505b600582016119a18282613963565b5060018060006119b684805160209091012090565b815260208101919091526040908101600020805460ff191692151592909217909155825490516001600160a01b03909116907fe13225a225fbfeebd9d707546f3d7adee5d72738ac686cc5b97266c49745a56b90611a159084906137d0565b60405180910390a25050565b6001600160a01b038316600081815260208190526040902080546001600160a01b0319169091178155611a548185611694565b611a5e8184611d62565b611a688183611da5565b816001600160a01b0316836001600160a01b0316856001600160a01b03167ff865c8ac025e544977905cfe6b3a26ce0c8aa1f9d7049d555d3c04bff7eed68660405160405180910390a450505050565b611ac1816110a9565b6001600160a01b0316336001600160a01b031614610b42576000356001600160e01b03191681336040517f8383e6340000000000000000000000000000000000000000000000000000000081526004016103f993929190613a1b565b611b2c60098260200151611636565b611b3b60048260400151611636565b611b4a600a8260600151611636565b610b428160a0015161189a565b805182546001600160a01b0319166001600160a01b039091161782556020810151611b83908390611694565b611b91828260400151611d62565b611b9f828260600151611da5565b611bad828260800151611f81565b611bbb828260a0015161196a565b80516040516001600160a01b03909116907fc9da0ae38bd4761b72da1045c9b2618f0cd991dcac01e1f9bbf68474025f074390600090a25050565b466107e514611c0157565b6000611c0b611fce565b90506000611c176127e0565b90506000611c236127e0565b905060005b604c81101561196457611c7e8482604c8110611c4657611c4661363d565b60200201518483604c8110611c5d57611c5d61363d565b60200201518484604c8110611c7457611c7461363d565b6020020151611a21565b600101611c28565b6000611c9260086110a9565b6040517f0447e5910000000000000000000000000000000000000000000000000000000081526001600160a01b038481166004830152919250600091831690630447e5919060240160e060405180830381865afa158015611cf7573d6000803e3d6000fd5b505050506040513d601f19601f82011682018060405250810190611d1b9190613a50565b60a001511115610a3a576040517f103855040000000000000000000000000000000000000000000000000000000081526001600160a01b03831660048201526024016103f9565b6002820180546001600160a01b0319166001600160a01b0383169081179091556000818152600160208190526040909120805460ff191690911790556004611710565b6003820180546001600160a01b0319166001600160a01b0383169081179091556000818152600160208190526040909120805460ff19169091179055600a611710565b6001600160a01b03811660009081526001602052604090205460ff1615610a3a5781816001600160a01b03166040517fe4166aaa0000000000000000000000000000000000000000000000000000000081526004016103f9929190613af8565b6003548160060154611e5a9190613b13565b421015610b42576040517f640b308400000000000000000000000000000000000000000000000000000000815260040160405180910390fd5b604051600090606a906001908390611eb590899089908990899060240161380c565b60408051601f198184030181529190526020810180517bffffffffffffffffffffffffffffffffffffffffffffffffffffffff167f7eae32c2000000000000000000000000000000000000000000000000000000001790528051909150611f1a612fdf565b602083016020828483895afa611f2f57600094505b503d611f3a57600093505b83611f71576040517f0fc2632100000000000000000000000000000000000000000000000000000000815260040160405180910390fd5b5115159998505050505050505050565b6004820180546001600160a01b0319166001600160a01b03831690811790915515610a3a576001600160a01b03166000908152600160208190526040909120805460ff1916909117905550565b611fd6612ffd565b506040805161098081018252739687e8c41fa369ad08fd278a43114c4207856a6181527332f66d0f9f19db7b0ef1e9f13160884da65467e7602082015273d682dc6d64710d6191512133de957e146e9aa58e9181019190915273efeaff1d9f1e4edb00c6084ae4016143b29ed92560608201527357b572a9de68bd29074e1c51c790fc45c592ba39608082015273c0c2a56f9606ba109d37a0d18af8e5baa1e1c0ad60a082015273afb9554299491a34d303f2c5a91bebb162f6b2c160c082015273533f61b360e81f58919fab5c653724f71faf12ab60e082015273a87f9a2f0c7082fa2f1e3de1090d36047c7cd018610100820152736693dc258bdaac5052ab678ba5de2440ca1cdab26101208201527396f78323481fc9abdb8cc4d8aa50c1500ac93b9261014082015273e91d1dcd0232bda301379de27bd0ede47db3f75161016082015273981676e5e5164524e70f79ac45b52099ebda878161018082015273795cf28e5b71f1a50cc9e01077891c18d6587e546101a082015273a3b3c71371331fd1901e316b67df2d16bf5535a16101c08201527332be208de8a1595cc0ccf8e984cab8759ea1e5b96101e0820152732dc14d542b5478f206b296acbcbfbccee6e8d24861020082015273da6c7342e90b77c5c77a8f7292765360099e30ee610220820152739d7ea2223e89a55a4ef69ca993eae6fde6e6337161024082015273e8e66b241414a40a3db539ec7d864cd61938f818610260820152738fff45d4a6a27f8256df19d0dadf7787cfbe56aa610280820152739a54edcb1d9a44e9f4235ea05c75b45b266796816102a0820152736108570a29f500d6950febffc99ecb66a264a0496102c082015273da071f710b0f82443866616e8a96069012a73cce6102e0820152735f7f2ae316ec5c092d201744fe8337353adb2bb361030082015273771dec03db66a566a1dfe3fd635b3f8d404b92916103208201527371f9154adc0bef39bbe8db1d060e6f239d2e10ae6103408201527395908d03ba55c2a44688330b59e746fdb2f17e3e610360820152733db3abc65f203788836c8d50f6923c56f3f0ff7c6103808201527305955d9e99f57e5574a1a9b73361dd14aec8d6426103a082015273283b4baa1d0415603c81edc1c68fadd3c790837c6103c0820152732a5eb3f9cd4d6ef49dc2a30041e4421af33039296103e0820152733b9f2587d55e96276b09b258ac909d809961f6c2610400820152732576e6bc92a493f4da6335c5e69bc0c272381c3a610420820152730e3341ae4ed9da65fc30a7fa6357e8b5ac40b0a361044082015273f6fd5fca4bd769ba495b29b98dba5f2ecf4ceed361046082015273d9299fa321407a5d10c73d71c57ca687a2a38af661048082015273877efeffe7a23e42c39e2c99b977e4aa4bec75176104a082015273071b510c415d3f84c6f4c6291c49887cc56cac416104c082015273de5e1554e2bf5d0e54bafc74c932b8f2ad4e27306104e082015273c68d0255e1b9c549c43c7181bd29684dc477edf061050082015273c3fb7b95b874bfcbd1e722a2061f3adf217121d36105208201527336fd0d4a075507a4e742631aa37dad46a1f4c0da61054082015273661549d7717c20ffa62ad359b7667bbf5c82053b61056082015273412d4d69122839fccad0180e9358d157c3876f3d61058082015273355503b8e64205fde9dbbad269110991cf736a516105a08201527312cf444bf83ed5b610d0089927ecd3babc81ff886105c082015273467c5425042c9d9f025265b72c93d73e0f2978c66105e082015273b6bc5bc0410773a3f86b1537ce7495c52e38f88b61060082015273bd6342c0009f55131b7a51f627ce8cc87879dd676106208201527335c78defbd03e96b4e3ee6a73e9cd4c49d2b885a61064082015273ad4e3d2f85b4c095742b500751cee5c4b8f65a5c6106608201527342c535deccc071d9039b177cb3abf30411531b0561068082015273b212f24d850a0ed90f2889dee31870e7ff3fed6c6106a08201527360c8117901ab35738fcfd7157d393207efce80566106c08201527330b0215a442ea3d3088acd83cd5fe2aa2bcd775a6106e082015273d21bece2d8206a3ffdbaedb827f4d4bd0ff79e3d610700820152734efa5c5bbe7a257743335f200e86cd44eea4dcd9610720820152730472dca02318b532fcb0b056661ee7fd2adc8a2161074082015273dd00acc07f3f7afa90b5a22cfd56c0808b6444df610760820152734d3302c69fac489e2f7373bcb2f101d3b378c4cf610780820152738c29604e1cae4af683c4fbdad951f3f855890ea06107a082015273afb9554299491a34d303f2c5a91bebb162f6b2cf6107c082015273f48c06c56d78f5106b8c5fa234fceb1d1c50096b6107e082015273626ece2ad62f59700d2734a523fc6177005ac8b061080082015273c6c15480855add4eebe365c89a9bb6f278e1825461082082015273f6071f7905d4e4b6ebd27b819aaf8923d542fddf610840820152738872fe6335267adb4c40b9f8667095667b55dcd9610860820152734a4bc674a97737376cfe990ae2fe0d2b6e7383936108808201527327550f4b37f0309c56ea67578eb924b4c19eeeb76108a082015273181a053fd961dc1377b84be4e551ce277053e4c06108c082015273f44c500a8515a5acc900c921bc888b5b62da65566108e082015273f20293d569f0ee7eccdef266d86ee382f893286661090082015273b1d4782962a407343aa3765a599637932d241305610920820152737f53d703836abcaf1ca3d5607d80dd7d96e50d026109408201527378fd38faa30ea66702cc39383d2e84f9a4a56fa661096082015290565b6127e8612ffd565b50604080516109808101825273cf0e23aed16d5d971910e748acd48849e4b7239c81527332f66d0f9f19db7b0ef1e9f13160884da65467e6602082015273d682dc6d64710d6191512133de957e146e9aa58f9181019190915273efeaff1d9f1e4edb00c6084ae4016143b29ed924606082015273c2cae7311fc0fe400a838d2dde06a89e1d3e9da7608082015273f90a912fdb7fd37572cd83325392d729e60ef68260a082015273afb9554299491a34d303f2c5a91bebb162f6b2cf60c08201819052738da9d88f90141a03292d5e554691b1f6e7c6212c60e083015273a87f9a2f0c7082fa2f1e3de1090d36047c7cd017610100830152736693dc258bdaac5052ab678ba5de2440ca1cdabe610120830152730b67df5847af7476b2eb46da328638e0fb2c6b2961014083015273e91d1dcd0232bda301379de27bd0ede47db3f75061016083015273dc3de716c4430d598ac504c4685d69d0dce1412f61018083015273795cf28e5b71f1a50cc9e01077891c18d6587e536101a083015273a3b3c71371331fd1901e316b67df2d16bf5535a06101c08301527332be208de8a1595cc0ccf8e984cab8759ea1e5b26101e0830152738136c74e94b08300d71fa6c22087b821f73568c561020083015273da6c7342e90b77c5c77a8f7292765360099e30ed6102208301527395fc818cd7709fb6ad8920d0d14925010504876f61024083015273e8e66b241414a40a3db539ec7d864cd61938f81761026083015273fd575770a68d5af983b2a374981f604ddad9d684610280830152739a54edcb1d9a44e9f4235ea05c75b45b266796806102a0830152736108570a29f500d6950febffc99ecb66a264a0486102c083015273da071f710b0f82443866616e8a96069012a73ccf6102e0830152738a4ac64764238c71ddf82f870be6526e297dc4cd6103008301527333f1727caa54ae24cadb2949881c3725eb61a1006103208301527334db532f09ee1285dfef26ed696c4ea25dcfce7261034083015273302d51189fd89d7e72bcb26a65d16941d043f08961036083015273feb247f76e6f6c1ec3455d04e6e3b694a577d57c6103808301527305955d9e99f57e5574a1a9b73361dd14aec8d6416103a083015273cf9f44ddb18a5538efe2a2a28ef20300333f5a716103c083015273779dce1ddc28941ec85bf2ae0dac9f0f128362816103e0830152730bb270e5268a9e9a0742ddb027fab7405af56fa7610400830152735b92ea265597a7cf20c8da56e6beb8485c1ba993610420830152730e3341ae4ed9da65fc30a7fa6357e8b5ac40b0a361044083015273f6fd5fca4bd769ba495b29b98dba5f2ecf4ceed3610460830152738d0a639bdd3b81df264c4db4647665885823151061048083015273bb046932fefcdd3be4368444a1014f25dfee83f26104a08301527354e09bf04810f387347da6d9687d6a37ec2aadc76104c083015273de5e1554e2bf5d0e54bafc74c932b8f2ad4e273f6104e083015273c68d0255e1b9c549c43c7181bd29684dc477edfc6105008301527337920733db9a5b45fc9cd5e3c80825beffc1a014610520830152737e9107480bf92dd56c97118e20cdb3c1ae9dd86661054083015273c4f83a7b369070e32ced4bd6fd647d19aef828ac61056083015273412d4d69122839fccad0180e9358d157c3876f3c61058083015273355503b8e64205fde9dbbad269110991cf736a506105a083015273306f23c32fdfc07850bf242e8ff59c5e79bff8126105c083015273467c5425042c9d9f025265b72c93d73e0f2978c56105e083015273ee992b0f5e9746fdb8e584efa01af79f6b1c094061060083015273bd6342c0009f55131b7a51f627ce8cc87879dd666106208301527357018e929eb6fe50355bf1bf9d1d39ca466b7fa061064083015273ad4e3d2f85b4c095742b500751cee5c4b8f65a5b6106608301527389a6a074db8bcd3fd60626107ea2ae576693f7c561068083015273cb742186fa056444766fa7cc52a0479e8f6dedea6106a08301527360c8117901ab35738fcfd7157d393207efce80556106c083015273ad70ad152e27e0923c4f11c63490fcfd904a4c366106e083015273d8b47b81648d9e81e50b8ca21ea81f2e1b6929bb61070083015273ecb1374172970a613a1970370b3ddead8f844733610720830152730472dca02318b532fcb0b056661ee7fd2adc8a2061074083015273dd00acc07f3f7afa90b5a22cfd56c0808b6444dd610760830152734d3302c69fac489e2f7373bcb2f101d3b378c4ce61078083015273e7685e437f34de2d36ea2e9ab13e5ab871711a2c6107a08301526107c0820152733f9df0717099baaa95a14b3caa285daddafb06096107e08201527323dffc4a93c374a91fbc1c33075af012b68663f76108008201527379ec4d83d40c1bd1419d8f561be851fda1ea32a6610820820152732d3f28780bfb7ed6fb5547c309e1a6837e5bd12b61084082015273a164e8b5f90ce42b0f531e3882cde3f698e1121f610860820152734a4bc674a97737376cfe990ae2fe0d2b6e73839361088082015273f61806b65278ffdbf8b04f832c59b65076798fb66108a082015273836eeedd931575cce4285c74c15dbda9edc3dc4f6108c082015273bd95b0581585e4151793b183ee75d509fde528b66108e082015273a75b1ce2f8c447cab6c13f313dfd806287aa47e2610900820152734d546475321b4ca2a91b101f26750092c05350cf61092082015273fc2d29da710f45168de11e5c051caa558088d52a610940820152731c70b8160e92d56e550caf02e1f2e5ec0fdb551a61096082015290565b60405180602001604052806001906020820280368337509192915050565b604051806109800160405280604c906020820280368337509192915050565b6001600160a01b0381168114610b4257600080fd5b6000806040838503121561304457600080fd5b823561304f8161301c565b9150602083013561305f8161301c565b809150509250929050565b60006020828403121561307c57600080fd5b5035919050565b60006020828403121561309557600080fd5b81356117bb8161301c565b60008083601f8401126130b257600080fd5b50813567ffffffffffffffff8111156130ca57600080fd5b6020830191508360208260051b85010111156130e557600080fd5b9250929050565b6000806000806040858703121561310257600080fd5b843567ffffffffffffffff8082111561311a57600080fd5b613126888389016130a0565b9096509450602087013591508082111561313f57600080fd5b5061314c878288016130a0565b95989497509550505050565b60006020828403121561316a57600080fd5b813567ffffffffffffffff81111561318157600080fd5b8201604081018410156117bb57600080fd5b80356010811061113857600080fd5b600080604083850312156131b557600080fd5b61304f83613193565b60008083601f8401126131d057600080fd5b50813567ffffffffffffffff8111156131e857600080fd5b6020830191508360208285010111156130e557600080fd5b60008060008060006060868803121561321857600080fd5b85356132238161301c565b9450602086013567ffffffffffffffff8082111561324057600080fd5b61324c89838a016131be565b9096509450604088013591508082111561326557600080fd5b50613272888289016131be565b969995985093965092949392505050565b60008060006060848603121561329857600080fd5b83356132a38161301c565b925060208401356132b38161301c565b915060408401356132c38161301c565b809150509250925092565b600080602083850312156132e157600080fd5b823567ffffffffffffffff8111156132f857600080fd5b613304858286016130a0565b90969095509350505050565b6020808252825182820181905260009190848201906040850190845b818110156133515783516001600160a01b03168352928401929184019160010161332c565b50909695505050505050565b600080600080600080600060a0888a03121561337857600080fd5b87356133838161301c565b965060208801356133938161301c565b955060408801356133a38161301c565b9450606088013567ffffffffffffffff808211156133c057600080fd5b6133cc8b838c016131be565b909650945060808a01359150808211156133e557600080fd5b506133f28a828b016131be565b989b979a50959850939692959293505050565b60006020828403121561341757600080fd5b6117bb82613193565b60005b8381101561343b578181015183820152602001613423565b50506000910152565b6000815180845261345c816020860160208601613420565b601f01601f19169290920160200192915050565b6020815261348a6020820183516001600160a01b03169052565b600060208301516134a660408401826001600160a01b03169052565b5060408301516001600160a01b03811660608401525060608301516001600160a01b03811660808401525060808301516001600160a01b03811660a08401525060a08301516101208060c0850152613502610140850183613444565b915060c085015160e085015260e0850151610100601f19868503018187015261352b8483613444565b9601516001600160a01b03169190940152509192915050565b634e487b7160e01b600052604160045260246000fd5b604051601f8201601f1916810167ffffffffffffffff8111828210171561358357613583613544565b604052919050565b6000602080838503121561359e57600080fd5b825167ffffffffffffffff808211156135b657600080fd5b818501915085601f8301126135ca57600080fd5b8151818111156135dc576135dc613544565b8060051b91506135ed84830161355a565b818152918301840191848101908884111561360757600080fd5b938501935b8385101561363157845192506136218361301c565b828252938501939085019061360c565b98975050505050505050565b634e487b7160e01b600052603260045260246000fd5b60008251613665818460208701613420565b9190910192915050565b6000808335601e1984360301811261368657600080fd5b83018035915067ffffffffffffffff8211156136a157600080fd5b6020019150600581901b36038213156130e557600080fd5b6000808335601e198436030181126136d057600080fd5b83018035915067ffffffffffffffff8211156136eb57600080fd5b6020019150368190038213156130e557600080fd5b634e487b7160e01b600052602160045260246000fd5b6010811061372657613726613700565b9052565b6020810161082d8284613716565b600181811c9082168061374c57607f821691505b60208210810361376c57634e487b7160e01b600052602260045260246000fd5b50919050565b60006020828403121561378457600080fd5b815180151581146117bb57600080fd5b600b811061372657613726613700565b6001600160e01b031983168152604081016117bb6020830184613794565b6020810161082d8284613794565b6020815260006117bb6020830184613444565b81835281816020850137506000828201602090810191909152601f909101601f19169091010190565b6040815260006138206040830186886137e3565b82810360208401526138338185876137e3565b979650505050505050565b601f821115610b2c576000816000526020600020601f850160051c810160208610156138675750805b601f850160051c820191505b8181101561093357828155600101613873565b818103613891575050565b61389b8254613738565b67ffffffffffffffff8111156138b3576138b3613544565b6138c7816138c18454613738565b8461383e565b6000601f8211600181146138fb57600083156138e35750848201545b600019600385901b1c1916600184901b1784556110a2565b600085815260209020601f19841690600086815260209020845b838110156139355782860154825560019586019590910190602001613915565b50858310156139535781850154600019600388901b60f8161c191681555b5050505050600190811b01905550565b815167ffffffffffffffff81111561397d5761397d613544565b61398b816138c18454613738565b602080601f8311600181146139c057600084156139a85750858301515b600019600386901b1c1916600185901b178555610933565b600085815260208120601f198616915b828110156139ef578886015182559484019460019091019084016139d0565b508582101561395357939096015160001960f8600387901b161c19169092555050600190811b01905550565b6001600160e01b03198416815260608101613a396020830185613716565b6001600160a01b0383166040830152949350505050565b600060e08284031215613a6257600080fd5b60405160e0810181811067ffffffffffffffff82111715613a8557613a85613544565b6040528251613a938161301c565b81526020830151613aa38161301c565b60208201526040830151613ab68161301c565b60408201526060830151613ac98161301c565b806060830152506080830151608082015260a083015160a082015260c083015160c08201528091505092915050565b60408101613b068285613794565b8260208301529392505050565b8082018082111561082d57634e487b7160e01b600052601160045260246000fdfea264697066735822122081b0cc64f31436989e66070260ef316ee6e6e8d9e03702371860a37dea85bfcb64736f6c63430008160033",
  "chainId": 2021,
  "contractAbsolutePath": "Profile_Testnet.sol",
  "deployer": "0x31762cdd4Aa65CD6f5F09D7a05a56211720A1168",
  "devdoc": {
    "version": 1,
    "kind": "dev",
    "methods": {
      "arePublicKeysRegistered(bytes[][2])": {
        "details": "Cross-contract function to for slash indicator to check the list of public keys in finality slash proof Returns whether all public keys are registered."
      },
      "changeAdminAddr(address,address)": {
        "details": "Side-effects on other contracts: - Update Staking contract:    + [x] Update (id => PoolDetail) mapping in {BaseStaking.sol}.    + [x] Update `_adminOfActivePoolMapping` in {BaseStaking.sol}.    + [x] Move staking amount of previous admin to the the new admin. - Update Validator contract:    + [x] Update (id => ValidatorCandidate) mapping - See other side-effects for treasury in {changeTreasuryAddr}, since treasury and admin must be identical."
      },
      "changeConsensusAddr(address,address)": {
        "details": "Side-effects on other contracts: - Update in Staking contract for Consensus address mapping:   + [x] Keep the same previous pool address. - Update in Validator contract for:   + [x] Consensus Address mapping   + [x] Bridge Address mapping   + [x] Jail mapping   + [x] Pending reward mapping   + [x] Schedule mapping - Update in Slashing contract for:   + [x] Handling slash indicator   + [x] Handling slash fast finality   + [x] Handling slash double sign - Update in Proposal contract for:   + [-] Preserve the consensus address and recipient target of locked amount of emergency exit - Update Trusted Org contracts:   + If the current consensus is governor:      - [x] Remove and delete weight of the old consensus      - [x] Replace and add weight for the new consensus   + If the current consensus is not governor:      - [x] Do nothing"
      },
      "changePubkey(address,bytes,bytes)": {
        "details": "Requirements: - The profile must be existed. - Only user with candidate admin role can call this method. - New public key must not be duplicated. - The proof of public key possession must be verified successfully. - The public key change cooldown must be ended."
      },
      "changeTreasuryAddr(address,address)": {
        "details": "Side-effects on other contracts: - Update Validator contract:    + [x] Update (id => ValidatorCandidate) mapping - Update governance admin:    + [-] Update recipient in the EmergencyExitBallot to the newTreasury.          Cannot impl since we cannot cancel the previous the ballot and          create a new ballot on behalf of the validator contract."
      },
      "execApplyValidatorCandidate(address,address,address,bytes,bytes)": {
        "details": "Cross-contract function to add/update new profile of a validator candidate when they applying for candidate role. Requirements: - Only `stakingContract` can call this method."
      },
      "getConsensus2Id(address)": {
        "details": "Getter to backward query from `consensus` address to `id` address, revert if not found."
      },
      "getContract(uint8)": {
        "details": "Returns the address of a contract with a specific role. Throws an error if no contract is set for the specified role.",
        "params": {
          "contractType": "The role of the contract to retrieve."
        },
        "returns": {
          "contract_": "The address of the contract with the specified role."
        }
      },
      "getCooldownConfig()": {
        "details": "Returns the config of cool down on change profile info."
      },
      "getId2Profile(address)": {
        "details": "Getter to query full `profile` from `id` address."
      },
      "getManyConsensus2Id(address[])": {
        "details": "Getter to backward batch query from `consensus` address to `id` address."
      },
      "getManyId2Consensus(address[])": {
        "details": "Getter to batch query from `id` to `consensus`, return address(0) if the profile not exist."
      },
      "precompileVerifyBLSPublicKeyAddress()": {
        "details": "Gets the address of the precompile of validating double sign evidence"
      },
      "setContract(uint8,address)": {
        "details": "Sets the address of a contract with a specific role. Emits the event {ContractUpdated}.",
        "params": {
          "addr": "The address of the contract to set.",
          "contractType": "The role of the contract to set."
        }
      },
      "setCooldownConfig(uint256)": {
        "details": "Change the cooldown between 2 public key change Requirement:  - Only admin can call this method"
      },
      "tryGetConsensus2Id(address)": {
        "details": "Getter to backward query from `consensus` address to `id` address."
      }
    },
    "events": {
      "ConsensusAddressOfNonGovernorChanged(address)": {
        "details": "Event emitted when the consensus of a non-governor profile is changed."
      },
      "ContractUpdated(uint8,address)": {
        "details": "Emitted when a contract is updated."
      },
      "Initialized(uint8)": {
        "details": "Triggered when the contract has been initialized or reinitialized."
      },
      "ProfileAdded(address)": {
        "details": "Event emitted when a profile with `id` is added."
      },
      "ProfileAddressChanged(address,uint8,address)": {
        "details": "Event emitted when a address in a profile is changed."
      },
      "ProfileMigrated(address,address,address)": {
        "details": "Event emitted when the profile is migrated (mostly when REP-4 update)."
      },
      "PubkeyChanged(address,bytes)": {
        "details": "Event emitted when the pubkey of the `id` is changed."
      },
      "PubkeyVerified(bytes,bytes)": {
        "details": "Event emitted when the pubkey is verified successfully."
      }
    },
    "errors": {
      "ErrCallPrecompiled()": [
        {
          "details": "Error of call to precompile fails."
        }
      ],
      "ErrContractTypeNotFound(uint8)": [
        {
          "details": "Error of invalid role."
        }
      ],
      "ErrDuplicatedInfo(uint8,uint256)": [
        {
          "details": "Error when there is a duplicated info of `value`, which is uin256-padding value of any address or hash of public key, and with value type of `infoType`."
        }
      ],
      "ErrExistentProfile()": [
        {
          "details": "Error of already existed profile."
        }
      ],
      "ErrIdAndConsensusDiffer()": [
        {
          "details": "Error when create a new profile whose id and consensus are not identical."
        }
      ],
      "ErrNonExistentProfile()": [
        {
          "details": "Error of non existed profile."
        }
      ],
      "ErrProfileChangeCooldownNotEnded()": [
        {
          "details": "Error when failed to change any address or pubkey in the profile because cooldown is not ended."
        }
      ],
      "ErrUnauthorized(bytes4,uint8)": [
        {
          "details": "Error indicating that the caller is unauthorized to perform a specific function.",
          "params": {
            "expectedRole": "The role required to perform the function.",
            "msgSig": "The function signature (bytes4) that the caller is unauthorized to perform."
          }
        }
      ],
      "ErrUnexpectedInternalCall(bytes4,uint8,address)": [
        {
          "details": "Error indicating that the caller is unauthorized to perform a specific function.",
          "params": {
            "actual": "The actual address that called to the function.",
            "expectedContractType": "The contract type required to perform the function.",
            "msgSig": "The function signature (bytes4)."
          }
        }
      ],
      "ErrZeroCodeContract(address)": [
        {
          "details": "Error of set to non-contract."
        }
      ]
    }
  },
  "isFoundry": true,
  "nonce": 39,
  "numDeployments": 18,
  "storageLayout": {
    "storage": [
      {
        "astId": 26364,
        "contract": "contracts/ronin/profile/Profile_Testnet.sol:Profile_Testnet",
        "label": "_id2Profile",
        "offset": 0,
        "slot": "0",
        "type": "t_mapping(t_address,t_struct(CandidateProfile)7161_storage)"
      },
      {
        "astId": 26369,
        "contract": "contracts/ronin/profile/Profile_Testnet.sol:Profile_Testnet",
        "label": "_registry",
        "offset": 0,
        "slot": "1",
        "type": "t_mapping(t_uint256,t_bool)"
      },
      {
        "astId": 26375,
        "contract": "contracts/ronin/profile/Profile_Testnet.sol:Profile_Testnet",
        "label": "_consensus2Id",
        "offset": 0,
        "slot": "2",
        "type": "t_mapping(t_userDefinedValueType(TConsensus)37640,t_address)"
      },
      {
        "astId": 26378,
        "contract": "contracts/ronin/profile/Profile_Testnet.sol:Profile_Testnet",
        "label": "_profileChangeCooldown",
        "offset": 0,
        "slot": "3",
        "type": "t_uint256"
      },
      {
        "astId": 26383,
        "contract": "contracts/ronin/profile/Profile_Testnet.sol:Profile_Testnet",
        "label": "__gap",
        "offset": 0,
        "slot": "4",
        "type": "t_array(t_bytes32)47_storage"
      },
      {
        "astId": 149767,
        "contract": "contracts/ronin/profile/Profile_Testnet.sol:Profile_Testnet",
        "label": "_initialized",
        "offset": 0,
        "slot": "51",
        "type": "t_uint8"
      },
      {
        "astId": 149770,
        "contract": "contracts/ronin/profile/Profile_Testnet.sol:Profile_Testnet",
        "label": "_initializing",
        "offset": 1,
        "slot": "51",
        "type": "t_bool"
      }
    ],
    "types": {
      "t_address": {
        "encoding": "inplace",
        "label": "address",
        "numberOfBytes": "20"
      },
      "t_address_payable": {
        "encoding": "inplace",
        "label": "address payable",
        "numberOfBytes": "20"
      },
      "t_array(t_bytes32)47_storage": {
        "encoding": "inplace",
        "label": "bytes32[47]",
        "numberOfBytes": "1504",
        "base": "t_bytes32"
      },
      "t_bool": {
        "encoding": "inplace",
        "label": "bool",
        "numberOfBytes": "1"
      },
      "t_bytes32": {
        "encoding": "inplace",
        "label": "bytes32",
        "numberOfBytes": "32"
      },
      "t_bytes_storage": {
        "encoding": "bytes",
        "label": "bytes",
        "numberOfBytes": "32"
      },
      "t_mapping(t_address,t_struct(CandidateProfile)7161_storage)": {
        "encoding": "mapping",
        "key": "t_address",
        "label": "mapping(address => struct IProfile.CandidateProfile)",
        "numberOfBytes": "32",
        "value": "t_struct(CandidateProfile)7161_storage"
      },
      "t_mapping(t_uint256,t_bool)": {
        "encoding": "mapping",
        "key": "t_uint256",
        "label": "mapping(uint256 => bool)",
        "numberOfBytes": "32",
        "value": "t_bool"
      },
      "t_mapping(t_userDefinedValueType(TConsensus)37640,t_address)": {
        "encoding": "mapping",
        "key": "t_userDefinedValueType(TConsensus)37640",
        "label": "mapping(TConsensus => address)",
        "numberOfBytes": "32",
        "value": "t_address"
      },
      "t_struct(CandidateProfile)7161_storage": {
        "encoding": "inplace",
        "label": "struct IProfile.CandidateProfile",
        "numberOfBytes": "288",
        "members": [
          {
            "astId": 7134,
            "contract": "contracts/ronin/profile/Profile_Testnet.sol:Profile_Testnet",
            "label": "id",
            "offset": 0,
            "slot": "0",
            "type": "t_address"
          },
          {
            "astId": 7138,
            "contract": "contracts/ronin/profile/Profile_Testnet.sol:Profile_Testnet",
            "label": "consensus",
            "offset": 0,
            "slot": "1",
            "type": "t_userDefinedValueType(TConsensus)37640"
          },
          {
            "astId": 7141,
            "contract": "contracts/ronin/profile/Profile_Testnet.sol:Profile_Testnet",
            "label": "admin",
            "offset": 0,
            "slot": "2",
            "type": "t_address"
          },
          {
            "astId": 7144,
            "contract": "contracts/ronin/profile/Profile_Testnet.sol:Profile_Testnet",
            "label": "treasury",
            "offset": 0,
            "slot": "3",
            "type": "t_address_payable"
          },
          {
            "astId": 7147,
            "contract": "contracts/ronin/profile/Profile_Testnet.sol:Profile_Testnet",
            "label": "__reservedGovernor",
            "offset": 0,
            "slot": "4",
            "type": "t_address"
          },
          {
            "astId": 7150,
            "contract": "contracts/ronin/profile/Profile_Testnet.sol:Profile_Testnet",
            "label": "pubkey",
            "offset": 0,
            "slot": "5",
            "type": "t_bytes_storage"
          },
          {
            "astId": 7153,
            "contract": "contracts/ronin/profile/Profile_Testnet.sol:Profile_Testnet",
            "label": "profileLastChange",
            "offset": 0,
            "slot": "6",
            "type": "t_uint256"
          },
          {
            "astId": 7156,
            "contract": "contracts/ronin/profile/Profile_Testnet.sol:Profile_Testnet",
            "label": "oldPubkey",
            "offset": 0,
            "slot": "7",
            "type": "t_bytes_storage"
          },
          {
            "astId": 7160,
            "contract": "contracts/ronin/profile/Profile_Testnet.sol:Profile_Testnet",
            "label": "oldConsensus",
            "offset": 0,
            "slot": "8",
            "type": "t_userDefinedValueType(TConsensus)37640"
          }
        ]
      },
      "t_uint256": {
        "encoding": "inplace",
        "label": "uint256",
        "numberOfBytes": "32"
      },
      "t_uint8": {
        "encoding": "inplace",
        "label": "uint8",
        "numberOfBytes": "1"
      },
      "t_userDefinedValueType(TConsensus)37640": {
        "encoding": "inplace",
        "label": "TConsensus",
        "numberOfBytes": "20"
      }
    }
  },
  "timestamp": 1709196530,
  "userdoc": {
    "version": 1,
    "kind": "user",
    "methods": {
      "changePubkey(address,bytes,bytes)": {
        "notice": "The candidate admin changes the public key."
      },
      "changeTreasuryAddr(address,address)": {
        "notice": "This method is not supported. Change treasury also requires changing the admin address. Using the {changeAdminAddr} method instead"
      }
    }
  }
}