{
  "abi": [
    {
      "type": "function",
      "name": "addNewProfile",
      "inputs": [
        {
          "name": "profile",
          "type": "tuple",
          "internalType": "struct IProfile.CandidateProfile",
          "components": [
            {
              "name": "id",
              "type": "address",
              "internalType": "address"
            },
            {
              "name": "consensus",
              "type": "address",
              "internalType": "TConsensus"
            },
            {
              "name": "admin",
              "type": "address",
              "internalType": "address"
            },
            {
              "name": "treasury",
              "type": "address",
              "internalType": "address payable"
            },
            {
              "name": "__reservedGovernor",
              "type": "address",
              "internalType": "address"
            },
            {
              "name": "pubkey",
              "type": "bytes",
              "internalType": "bytes"
            },
            {
              "name": "pubkeyLastChange",
              "type": "uint256",
              "internalType": "uint256"
            },
            {
              "name": "oldPubkey",
              "type": "bytes",
              "internalType": "bytes"
            }
          ]
        }
      ],
      "outputs": [],
      "stateMutability": "nonpayable"
    },
    {
      "type": "function",
      "name": "arePublicKeysRegistered",
      "inputs": [
        {
          "name": "listOfPublicKey",
          "type": "bytes[][2]",
          "internalType": "bytes[][2]"
        }
      ],
      "outputs": [
        {
          "name": "",
          "type": "bool",
          "internalType": "bool"
        }
      ],
      "stateMutability": "view"
    },
    {
      "type": "function",
      "name": "changePubkey",
      "inputs": [
        {
          "name": "id",
          "type": "address",
          "internalType": "address"
        },
        {
          "name": "pubkey",
          "type": "bytes",
          "internalType": "bytes"
        },
        {
          "name": "proofOfPossession",
          "type": "bytes",
          "internalType": "bytes"
        }
      ],
      "outputs": [],
      "stateMutability": "nonpayable"
    },
    {
      "type": "function",
      "name": "execApplyValidatorCandidate",
      "inputs": [
        {
          "name": "admin",
          "type": "address",
          "internalType": "address"
        },
        {
          "name": "id",
          "type": "address",
          "internalType": "address"
        },
        {
          "name": "treasury",
          "type": "address",
          "internalType": "address"
        },
        {
          "name": "pubkey",
          "type": "bytes",
          "internalType": "bytes"
        },
        {
          "name": "proofOfPossession",
          "type": "bytes",
          "internalType": "bytes"
        }
      ],
      "outputs": [],
      "stateMutability": "nonpayable"
    },
    {
      "type": "function",
      "name": "getConsensus2Id",
      "inputs": [
        {
          "name": "consensus",
          "type": "address",
          "internalType": "TConsensus"
        }
      ],
      "outputs": [
        {
          "name": "id",
          "type": "address",
          "internalType": "address"
        }
      ],
      "stateMutability": "view"
    },
    {
      "type": "function",
      "name": "getContract",
      "inputs": [
        {
          "name": "contractType",
          "type": "uint8",
          "internalType": "enum ContractType"
        }
      ],
      "outputs": [
        {
          "name": "contract_",
          "type": "address",
          "internalType": "address"
        }
      ],
      "stateMutability": "view"
    },
    {
      "type": "function",
      "name": "getId2Profile",
      "inputs": [
        {
          "name": "id",
          "type": "address",
          "internalType": "address"
        }
      ],
      "outputs": [
        {
          "name": "",
          "type": "tuple",
          "internalType": "struct IProfile.CandidateProfile",
          "components": [
            {
              "name": "id",
              "type": "address",
              "internalType": "address"
            },
            {
              "name": "consensus",
              "type": "address",
              "internalType": "TConsensus"
            },
            {
              "name": "admin",
              "type": "address",
              "internalType": "address"
            },
            {
              "name": "treasury",
              "type": "address",
              "internalType": "address payable"
            },
            {
              "name": "__reservedGovernor",
              "type": "address",
              "internalType": "address"
            },
            {
              "name": "pubkey",
              "type": "bytes",
              "internalType": "bytes"
            },
            {
              "name": "pubkeyLastChange",
              "type": "uint256",
              "internalType": "uint256"
            },
            {
              "name": "oldPubkey",
              "type": "bytes",
              "internalType": "bytes"
            }
          ]
        }
      ],
      "stateMutability": "view"
    },
    {
      "type": "function",
      "name": "getManyConsensus2Id",
      "inputs": [
        {
          "name": "consensusList",
          "type": "address[]",
          "internalType": "TConsensus[]"
        }
      ],
      "outputs": [
        {
          "name": "idList",
          "type": "address[]",
          "internalType": "address[]"
        }
      ],
      "stateMutability": "view"
    },
    {
      "type": "function",
      "name": "getManyId2Consensus",
      "inputs": [
        {
          "name": "idList",
          "type": "address[]",
          "internalType": "address[]"
        }
      ],
      "outputs": [
        {
          "name": "consensusList",
          "type": "address[]",
          "internalType": "TConsensus[]"
        }
      ],
      "stateMutability": "view"
    },
    {
      "type": "function",
      "name": "initialize",
      "inputs": [
        {
          "name": "validatorContract",
          "type": "address",
          "internalType": "address"
        }
      ],
      "outputs": [],
      "stateMutability": "nonpayable"
    },
    {
      "type": "function",
      "name": "initializeV2",
      "inputs": [
        {
          "name": "stakingContract",
          "type": "address",
          "internalType": "address"
        },
        {
          "name": "trustedOrgContract",
          "type": "address",
          "internalType": "address"
        }
      ],
      "outputs": [],
      "stateMutability": "nonpayable"
    },
    {
      "type": "function",
      "name": "initializeV3",
      "inputs": [
        {
          "name": "cooldown",
          "type": "uint256",
          "internalType": "uint256"
        }
      ],
      "outputs": [],
      "stateMutability": "nonpayable"
    },
    {
      "type": "function",
      "name": "manualMigrate",
      "inputs": [
        {
          "name": "id",
          "type": "address",
          "internalType": "address"
        },
        {
          "name": "candidateAdmin",
          "type": "address",
          "internalType": "address"
        },
        {
          "name": "treasury",
          "type": "address",
          "internalType": "address"
        }
      ],
      "outputs": [],
      "stateMutability": "nonpayable"
    },
    {
      "type": "function",
      "name": "migrateRenouncedCandidate",
      "inputs": [],
      "outputs": [],
      "stateMutability": "nonpayable"
    },
    {
      "type": "function",
      "name": "precompileVerifyBLSPublicKeyAddress",
      "inputs": [],
      "outputs": [
        {
          "name": "",
          "type": "address",
          "internalType": "address"
        }
      ],
      "stateMutability": "view"
    },
    {
      "type": "function",
      "name": "requestChangeAdminAddress",
      "inputs": [
        {
          "name": "id",
          "type": "address",
          "internalType": "address"
        },
        {
          "name": "newAdminAddr",
          "type": "address",
          "internalType": "address"
        }
      ],
      "outputs": [],
      "stateMutability": "nonpayable"
    },
    {
      "type": "function",
      "name": "requestChangeConsensusAddr",
      "inputs": [
        {
          "name": "id",
          "type": "address",
          "internalType": "address"
        },
        {
          "name": "newConsensusAddr",
          "type": "address",
          "internalType": "TConsensus"
        }
      ],
      "outputs": [],
      "stateMutability": "nonpayable"
    },
    {
      "type": "function",
      "name": "requestChangeTreasuryAddr",
      "inputs": [
        {
          "name": "id",
          "type": "address",
          "internalType": "address"
        },
        {
          "name": "newTreasury",
          "type": "address",
          "internalType": "address payable"
        }
      ],
      "outputs": [],
      "stateMutability": "nonpayable"
    },
    {
      "type": "function",
      "name": "setContract",
      "inputs": [
        {
          "name": "contractType",
          "type": "uint8",
          "internalType": "enum ContractType"
        },
        {
          "name": "addr",
          "type": "address",
          "internalType": "address"
        }
      ],
      "outputs": [],
      "stateMutability": "nonpayable"
    },
    {
      "type": "function",
      "name": "setPubkeyChangeCooldown",
      "inputs": [
        {
          "name": "cooldown",
          "type": "uint256",
          "internalType": "uint256"
        }
      ],
      "outputs": [],
      "stateMutability": "nonpayable"
    },
    {
      "type": "event",
      "name": "ContractUpdated",
      "inputs": [
        {
          "name": "contractType",
          "type": "uint8",
          "indexed": true,
          "internalType": "enum ContractType"
        },
        {
          "name": "addr",
          "type": "address",
          "indexed": true,
          "internalType": "address"
        }
      ],
      "anonymous": false
    },
    {
      "type": "event",
      "name": "Initialized",
      "inputs": [
        {
          "name": "version",
          "type": "uint8",
          "indexed": false,
          "internalType": "uint8"
        }
      ],
      "anonymous": false
    },
    {
      "type": "event",
      "name": "ProfileAdded",
      "inputs": [
        {
          "name": "id",
          "type": "address",
          "indexed": true,
          "internalType": "address"
        }
      ],
      "anonymous": false
    },
    {
      "type": "event",
      "name": "ProfileAddressChanged",
      "inputs": [
        {
          "name": "id",
          "type": "address",
          "indexed": true,
          "internalType": "address"
        },
        {
          "name": "addressType",
          "type": "uint8",
          "indexed": true,
          "internalType": "enum RoleAccess"
        },
        {
          "name": "addr",
          "type": "address",
          "indexed": true,
          "internalType": "address"
        }
      ],
      "anonymous": false
    },
    {
      "type": "event",
      "name": "ProfileMigrated",
      "inputs": [
        {
          "name": "id",
          "type": "address",
          "indexed": true,
          "internalType": "address"
        },
        {
          "name": "admin",
          "type": "address",
          "indexed": true,
          "internalType": "address"
        },
        {
          "name": "treasury",
          "type": "address",
          "indexed": true,
          "internalType": "address"
        }
      ],
      "anonymous": false
    },
    {
      "type": "event",
      "name": "PubkeyChanged",
      "inputs": [
        {
          "name": "id",
          "type": "address",
          "indexed": true,
          "internalType": "address"
        },
        {
          "name": "pubkey",
          "type": "bytes",
          "indexed": false,
          "internalType": "bytes"
        }
      ],
      "anonymous": false
    },
    {
      "type": "event",
      "name": "PubkeyVerified",
      "inputs": [
        {
          "name": "pubkey",
          "type": "bytes",
          "indexed": false,
          "internalType": "bytes"
        },
        {
          "name": "proofOfPossession",
          "type": "bytes",
          "indexed": false,
          "internalType": "bytes"
        }
      ],
      "anonymous": false
    },
    {
      "type": "error",
      "name": "ErrCallPrecompiled",
      "inputs": []
    },
    {
      "type": "error",
      "name": "ErrContractTypeNotFound",
      "inputs": [
        {
          "name": "contractType",
          "type": "uint8",
          "internalType": "enum ContractType"
        }
      ]
    },
    {
      "type": "error",
      "name": "ErrDuplicatedInfo",
      "inputs": [
        {
          "name": "infoType",
          "type": "uint8",
          "internalType": "enum RoleAccess"
        },
        {
          "name": "value",
          "type": "uint256",
          "internalType": "uint256"
        }
      ]
    },
    {
      "type": "error",
      "name": "ErrDuplicatedPubkey",
      "inputs": [
        {
          "name": "pubkey",
          "type": "bytes",
          "internalType": "bytes"
        }
      ]
    },
    {
      "type": "error",
      "name": "ErrExistentProfile",
      "inputs": []
    },
    {
      "type": "error",
      "name": "ErrIdAndConsensusDiffer",
      "inputs": []
    },
    {
      "type": "error",
      "name": "ErrInvalidProofOfPossession",
      "inputs": [
        {
          "name": "pubkey",
          "type": "bytes",
          "internalType": "bytes"
        },
        {
          "name": "proofOfPossession",
          "type": "bytes",
          "internalType": "bytes"
        }
      ]
    },
    {
      "type": "error",
      "name": "ErrNonExistentProfile",
      "inputs": []
    },
    {
      "type": "error",
      "name": "ErrPubkeyChangeCooldownNotEnded",
      "inputs": []
    },
    {
      "type": "error",
      "name": "ErrUnauthorized",
      "inputs": [
        {
          "name": "msgSig",
          "type": "bytes4",
          "internalType": "bytes4"
        },
        {
          "name": "expectedRole",
          "type": "uint8",
          "internalType": "enum RoleAccess"
        }
      ]
    },
    {
      "type": "error",
      "name": "ErrUnexpectedInternalCall",
      "inputs": [
        {
          "name": "msgSig",
          "type": "bytes4",
          "internalType": "bytes4"
        },
        {
          "name": "expectedContractType",
          "type": "uint8",
          "internalType": "enum ContractType"
        },
        {
          "name": "actual",
          "type": "address",
          "internalType": "address"
        }
      ]
    },
    {
      "type": "error",
      "name": "ErrZeroAddress",
      "inputs": [
        {
          "name": "infoType",
          "type": "uint8",
          "internalType": "enum RoleAccess"
        }
      ]
    },
    {
      "type": "error",
      "name": "ErrZeroCodeContract",
      "inputs": [
        {
          "name": "addr",
          "type": "address",
          "internalType": "address"
        }
      ]
    },
    {
      "type": "error",
      "name": "ErrZeroPubkey",
      "inputs": []
    }
  ],
  "address": "0x762f3E2221C0DeE575d1Bd43145Bafeebe965ef2",
  "args": "0x",
  "blockNumber": 23722890,
  "bytecode": "0x60806040523480156200001157600080fd5b506200001c62000022565b620000e4565b603354610100900460ff16156200008f5760405162461bcd60e51b815260206004820152602760248201527f496e697469616c697a61626c653a20636f6e747261637420697320696e697469604482015266616c697a696e6760c81b606482015260840160405180910390fd5b60335460ff9081161015620000e2576033805460ff191660ff9081179091556040519081527f7f26b83ff96e1f2b6a682f133852f6798a09c465da95921460cefb38474024989060200160405180910390a15b565b61381880620000f46000396000f3fe608060405234801561001057600080fd5b506004361061016c5760003560e01c80639debe22e116100cd578063c635163211610081578063de981f1b11610066578063de981f1b146102f2578063f466094014610305578063f9226b1a1461032557600080fd5b8063c6351632146102d7578063d1cb8830146102df57600080fd5b8063b261596f116100b2578063b261596f14610291578063b5017aef146102b1578063c4d66de8146102c457600080fd5b80639debe22e14610277578063b0abaea61461028a57600080fd5b80637e18b56611610124578063865e6fd311610109578063865e6fd31461023e57806398a02c2c146102515780639a1a05e01461026457600080fd5b80637e18b5661461020857806384cb10101461022b57600080fd5b80631f97bdb1116101555780631f97bdb1146101995780633c3d8410146101ac57806350a9fc29146101bf57600080fd5b80630840ba7214610171578063183584c114610186575b600080fd5b61018461017f366004612c99565b610338565b005b610184610194366004612c99565b61050d565b6101846101a7366004612c99565b6105ca565b6101846101ba366004612cd2565b610723565b6101eb6101cd366004612ceb565b6001600160a01b039081166000908152600260205260409020541690565b6040516001600160a01b0390911681526020015b60405180910390f35b61021b610216366004612d0f565b61080b565b60405190151581526020016101ff565b610184610239366004612c99565b6108ef565b61018461024c366004612d59565b610a07565b61018461025f366004612cd2565b610a26565b610184610272366004612dbe565b610a3a565b610184610285366004612e41565b610ae4565b606a6101eb565b6102a461029f366004612ed1565b610afc565b6040516101ff9190612f13565b6101846102bf366004612f60565b610bd5565b6101846102d2366004612ceb565b610cf2565b610184610dff565b6101846102ed3660046130e9565b610e11565b6101eb6103003660046131da565b610e61565b610318610313366004612ceb565b610ef5565b6040516101ff919061323b565b6102a4610333366004612ed1565b6110d1565b603354600290610100900460ff1615801561035a575060335460ff8083169116105b6103c25760405162461bcd60e51b815260206004820152602e60248201527f496e697469616c697a61626c653a20636f6e747261637420697320616c72656160448201526d191e481a5b9a5d1a585b1a5e995960921b60648201526084015b60405180910390fd5b6033805461ffff191660ff8316176101001790556103e16009846111a1565b6103ec600a836111a1565b60006103f86008610e61565b6001600160a01b031663ba77b06c6040518163ffffffff1660e01b8152600401600060405180830381865afa158015610435573d6000803e3d6000fd5b505050506040513d6000823e601f3d908101601f1916820160405261045d91908101906132f7565b905060005b81518110156104bd57600082828151811061047f5761047f6133a9565b6020908102919091018101516001600160a01b031660008181526002909252604090912080546001600160a01b031916909117905550600101610462565b506104c6611245565b506033805461ff001916905560405160ff821681527f7f26b83ff96e1f2b6a682f133852f6798a09c465da95921460cefb38474024989060200160405180910390a1505050565b6000610518836112c2565b905061052381611316565b61052e600a836113f5565b600061053a6008610e61565b6040517fecd850cc0000000000000000000000000000000000000000000000000000000081526001600160a01b03868116600483015285811660248301529192509082169063ecd850cc90604401600060405180830381600087803b1580156105a257600080fd5b505af11580156105b6573d6000803e3d6000fd5b505050506105c48284611441565b50505050565b60006105d5836112c2565b90506105e081611316565b6105eb6009836113f5565b60018101546001600160a01b031660006106056008610e61565b6040517fd93fa3060000000000000000000000000000000000000000000000000000000081526001600160a01b03878116600483015286811660248301529192509082169063d93fa30690604401600060405180830381600087803b15801561066d57600080fd5b505af1158015610681573d6000803e3d6000fd5b505050506000610691600a610e61565b6040517fa0c302a70000000000000000000000000000000000000000000000000000000081526001600160a01b03858116600483015287811660248301529192509082169063a0c302a790604401600060405180830381600087803b1580156106f957600080fd5b505af115801561070d573d6000803e3d6000fd5b5050505061071b84866114bb565b505050505050565b603354600390610100900460ff16158015610745575060335460ff8083169116105b6107a85760405162461bcd60e51b815260206004820152602e60248201527f496e697469616c697a61626c653a20636f6e747261637420697320616c72656160448201526d191e481a5b9a5d1a585b1a5e995960921b60648201526084016103b9565b6033805461ffff191660ff8316176101001790556107c582600355565b6033805461ff001916905560405160ff821681527f7f26b83ff96e1f2b6a682f133852f6798a09c465da95921460cefb3847402498906020015b60405180910390a15050565b6000805b60028110156108e65760005b83826002811061082d5761082d6133a9565b60200281019061083d91906133bf565b90508110156108dd576108c784836002811061085b5761085b6133a9565b60200281019061086b91906133bf565b8381811061087b5761087b6133a9565b905060200281019061088d9190613409565b8080601f01602080910402602001604051908101604052809392919081815260200183838082843760009201919091525061152b92505050565b6108d5575060009392505050565b60010161081b565b5060010161080f565b50600192915050565b60006108fa836112c2565b905061090581611316565b6109106004836113f5565b600061091c6009610e61565b60405163ea80d67d60e01b81526001600160a01b03868116600483015285811660248301529192509082169063ea80d67d90604401600060405180830381600087803b15801561096b57600080fd5b505af115801561097f573d6000803e3d6000fd5b50505050600061098f6008610e61565b60405163ea80d67d60e01b81526001600160a01b03878116600483015286811660248301529192509082169063ea80d67d90604401600060405180830381600087803b1580156109de57600080fd5b505af11580156109f2573d6000803e3d6000fd5b50505050610a00838561155a565b5050505050565b610a0f61159d565b610a18816115f7565b610a2282826111a1565b5050565b610a2e61159d565b610a3781600355565b50565b6000610a45866112c2565b9050610a5081611316565b610a8f85858080601f01602080910402602001604051908101604052809392919081815260200183838082843760009201919091525061164692505050565b610a9881611688565b610aa4858585856116d2565b61071b8186868080601f01602080910402602001604051908101604052809392919081815260200183838082843760009201919091525061175f92505050565b610aec61159d565b610af783838361181c565b505050565b60608167ffffffffffffffff811115610b1757610b17613008565b604051908082528060200260200182016040528015610b40578160200160208202803683370190505b50905060005b82811015610bce57600080858584818110610b6357610b636133a9565b9050602002016020810190610b789190612ceb565b6001600160a01b0390811682526020820192909252604001600020600101548351911690839083908110610bae57610bae6133a9565b6001600160a01b0390921660209283029190910190910152600101610b46565b5092915050565b6009610be0816118b3565b6001600160a01b038088166000908152602081905260409020805490911615610c1c5760405163249b38f960e01b815260040160405180910390fd5b60006040518061010001604052808a6001600160a01b031681526020018a6001600160a01b031681526020018b6001600160a01b03168152602001896001600160a01b0316815260200160006001600160a01b0316815260200188888080601f016020809104026020016040519081016040528093929190818152602001838380828437600092018290525093855250505060208083018290526040805191820181529181529101529050610cd081611918565b610cdc878787876116d2565b610ce68282611961565b50505050505050505050565b603354610100900460ff1615808015610d125750603354600160ff909116105b80610d2c5750303b158015610d2c575060335460ff166001145b610d8f5760405162461bcd60e51b815260206004820152602e60248201527f496e697469616c697a61626c653a20636f6e747261637420697320616c72656160448201526d191e481a5b9a5d1a585b1a5e995960921b60648201526084016103b9565b6033805460ff191660011790558015610db2576033805461ff0019166101001790555b610dbd6008836111a1565b8015610a22576033805461ff0019169055604051600181527f7f26b83ff96e1f2b6a682f133852f6798a09c465da95921460cefb3847402498906020016107ff565b610e0761159d565b610e0f611a00565b565b610e1961159d565b80516001600160a01b039081166000908152602081905260409020805490911615610e575760405163249b38f960e01b815260040160405180910390fd5b610a228183611961565b60007fdea3103d22025c269050bea94c0c84688877f12fa22b7e6d2d5d78a9a49aa1cb600083600f811115610e9857610e98613450565b60ff1681526020810191909152604001600020546001600160a01b0316905080610ef057816040517f812281be0000000000000000000000000000000000000000000000000000000081526004016103b9919061347a565b919050565b604080516101008101825260008082526020820181905291810182905260608082018390526080820183905260a0820181905260c082019290925260e08101919091526001600160a01b0380831660009081526020818152604091829020825161010081018452815485168152600182015485169281019290925260028101548416928201929092526003820154831660608201526004820154909216608083015260058101805460a084019190610fac9061348e565b80601f0160208091040260200160405190810160405280929190818152602001828054610fd89061348e565b80156110255780601f10610ffa57610100808354040283529160200191611025565b820191906000526020600020905b81548152906001019060200180831161100857829003601f168201915b50505050508152602001600682015481526020016007820180546110489061348e565b80601f01602080910402602001604051908101604052809291908181526020018280546110749061348e565b80156110c15780601f10611096576101008083540402835291602001916110c1565b820191906000526020600020905b8154815290600101906020018083116110a457829003601f168201915b5050505050815250509050919050565b60608167ffffffffffffffff8111156110ec576110ec613008565b604051908082528060200260200182016040528015611115578160200160208202803683370190505b50905060005b82811015610bce5760026000858584818110611139576111396133a9565b905060200201602081019061114e9190612ceb565b6001600160a01b0390811682526020820192909252604001600020548351911690839083908110611181576111816133a9565b6001600160a01b039092166020928302919091019091015260010161111b565b807fdea3103d22025c269050bea94c0c84688877f12fa22b7e6d2d5d78a9a49aa1cb600084600f8111156111d7576111d7613450565b60ff168152602081019190915260400160002080546001600160a01b0319166001600160a01b03928316179055811682600f81111561121857611218613450565b6040517f865d1c228a8ea13709cfe61f346f7ff67f1bbd4a18ff31ad3e7147350d317c5990600090a35050565b603354610100900460ff16610e075760405162461bcd60e51b815260206004820152602b60248201527f496e697469616c697a61626c653a20636f6e7472616374206973206e6f74206960448201527f6e697469616c697a696e6700000000000000000000000000000000000000000060648201526084016103b9565b6001600160a01b0380821660009081526020819052604090208054909116610ef0576040517f682a559600000000000000000000000000000000000000000000000000000000815260040160405180910390fd5b60028101546001600160a01b0316331415806113c757506113376008610e61565b60018201546040517f04d971ab0000000000000000000000000000000000000000000000000000000081526001600160a01b0391821660048201523360248201529116906304d971ab90604401602060405180830381865afa1580156113a1573d6000803e3d6000fd5b505050506040513d601f19601f820116820180604052508101906113c591906134c8565b155b15610a37576000356001600160e01b0319166004604051620f948f60ea1b81526004016103b99291906134fa565b6001600160a01b03811661143757816040517f57ed62e40000000000000000000000000000000000000000000000000000000081526004016103b99190613518565b610a228282611a90565b6003820180546001600160a01b0319166001600160a01b0383169081179091556000818152600160208190526040909120805460ff19169091179055600a5b83546040516001600160a01b03909116907fe9654874a1d2cdb1459fe91e0442173d77f8e1baa4897e3f5c10e769a1515d0690600090a45050565b600180830180546001600160a01b03908116600090815260026020908152604080832080546001600160a01b03199081169091558854888616808652838620805484169290971691909117909555855416841790945584905291909120805460ff19169092179091556009611480565b60006001600061154084805160209091012090565b815260208101919091526040016000205460ff1692915050565b6002820180546001600160a01b0319166001600160a01b0383169081179091556000818152600160208190526040909120805460ff191690911790556004611480565b7fb53127684a568b3173ae13b9f8a6016e243e63b6e8ee1178d6a717850b5d6103546001600160a01b03163314610e0f576000356001600160e01b0319166001604051620f948f60ea1b81526004016103b99291906134fa565b806001600160a01b03163b600003610a37576040517f2ff1928c0000000000000000000000000000000000000000000000000000000081526001600160a01b03821660048201526024016103b9565b61164f8161152b565b15610a3757806040517f7995d6c80000000000000000000000000000000000000000000000000000000081526004016103b99190613526565b600354816006015461169a9190613539565b4211610a37576040517f07420f4000000000000000000000000000000000000000000000000000000000815260040160405180910390fd5b6116de84848484611af0565b61171c57838383836040517f97cf1c8d0000000000000000000000000000000000000000000000000000000081526004016103b99493929190613583565b7fb737fd977072c109cccc97108f9f8a9017af4bbf4d20938a747f17d8921c50a6848484846040516117519493929190613583565b60405180910390a150505050565b81600501805461176e9061348e565b159050611788576007820161178660058401826135fd565b505b6005820161179682826136da565b5042600683015560018060006117b184805160209091012090565b815260208101919091526040908101600020805460ff191692151592909217909155825490516001600160a01b03909116907fe13225a225fbfeebd9d707546f3d7adee5d72738ac686cc5b97266c49745a56b90611810908490613526565b60405180910390a25050565b6001600160a01b038316600081815260208190526040902080546001600160a01b031916909117815561184f81856114bb565b611859818461155a565b6118638183611441565b816001600160a01b0316836001600160a01b0316856001600160a01b03167ff865c8ac025e544977905cfe6b3a26ce0c8aa1f9d7049d555d3c04bff7eed68660405160405180910390a450505050565b6118bc81610e61565b6001600160a01b0316336001600160a01b031614610a37576000356001600160e01b03191681336040517f8383e6340000000000000000000000000000000000000000000000000000000081526004016103b993929190613792565b611927600982602001516113f5565b611936600482604001516113f5565b611945600a82606001516113f5565b611954600a8260800151611a90565b610a378160a00151611646565b805182546001600160a01b0319166001600160a01b03909116178255602081015161198d9083906114bb565b61199b82826040015161155a565b6119a9828260600151611441565b6119b7828260800151611bde565b6119c5828260a0015161175f565b80516040516001600160a01b03909116907fc9da0ae38bd4761b72da1045c9b2618f0cd991dcac01e1f9bbf68474025f074390600090a25050565b466107e514611a0b57565b6000611a15611c2b565b90506000611a2161243d565b90506000611a2d61243d565b905060005b604c8110156105c457611a888482604c8110611a5057611a506133a9565b60200201518483604c8110611a6757611a676133a9565b60200201518484604c8110611a7e57611a7e6133a9565b602002015161181c565b600101611a32565b6001600160a01b03811660009081526001602052604090205460ff1615610a225781816001600160a01b03166040517fe4166aaa0000000000000000000000000000000000000000000000000000000081526004016103b99291906137c7565b604051600090606a906001908390611b12908990899089908990602401613583565b60408051601f198184030181529190526020810180517bffffffffffffffffffffffffffffffffffffffffffffffffffffffff167f7eae32c2000000000000000000000000000000000000000000000000000000001790528051909150611b77612c3c565b602083016020828483895afa611b8c57600094505b503d611b9757600093505b83611bce576040517f0fc2632100000000000000000000000000000000000000000000000000000000815260040160405180910390fd5b5115159998505050505050505050565b6004820180546001600160a01b0319166001600160a01b03831690811790915515610a22576001600160a01b03166000908152600160208190526040909120805460ff1916909117905550565b611c33612c5a565b506040805161098081018252739687e8c41fa369ad08fd278a43114c4207856a6181527332f66d0f9f19db7b0ef1e9f13160884da65467e7602082015273d682dc6d64710d6191512133de957e146e9aa58e9181019190915273efeaff1d9f1e4edb00c6084ae4016143b29ed92560608201527357b572a9de68bd29074e1c51c790fc45c592ba39608082015273c0c2a56f9606ba109d37a0d18af8e5baa1e1c0ad60a082015273afb9554299491a34d303f2c5a91bebb162f6b2c160c082015273533f61b360e81f58919fab5c653724f71faf12ab60e082015273a87f9a2f0c7082fa2f1e3de1090d36047c7cd018610100820152736693dc258bdaac5052ab678ba5de2440ca1cdab26101208201527396f78323481fc9abdb8cc4d8aa50c1500ac93b9261014082015273e91d1dcd0232bda301379de27bd0ede47db3f75161016082015273981676e5e5164524e70f79ac45b52099ebda878161018082015273795cf28e5b71f1a50cc9e01077891c18d6587e546101a082015273a3b3c71371331fd1901e316b67df2d16bf5535a16101c08201527332be208de8a1595cc0ccf8e984cab8759ea1e5b96101e0820152732dc14d542b5478f206b296acbcbfbccee6e8d24861020082015273da6c7342e90b77c5c77a8f7292765360099e30ee610220820152739d7ea2223e89a55a4ef69ca993eae6fde6e6337161024082015273e8e66b241414a40a3db539ec7d864cd61938f818610260820152738fff45d4a6a27f8256df19d0dadf7787cfbe56aa610280820152739a54edcb1d9a44e9f4235ea05c75b45b266796816102a0820152736108570a29f500d6950febffc99ecb66a264a0496102c082015273da071f710b0f82443866616e8a96069012a73cce6102e0820152735f7f2ae316ec5c092d201744fe8337353adb2bb361030082015273771dec03db66a566a1dfe3fd635b3f8d404b92916103208201527371f9154adc0bef39bbe8db1d060e6f239d2e10ae6103408201527395908d03ba55c2a44688330b59e746fdb2f17e3e610360820152733db3abc65f203788836c8d50f6923c56f3f0ff7c6103808201527305955d9e99f57e5574a1a9b73361dd14aec8d6426103a082015273283b4baa1d0415603c81edc1c68fadd3c790837c6103c0820152732a5eb3f9cd4d6ef49dc2a30041e4421af33039296103e0820152733b9f2587d55e96276b09b258ac909d809961f6c2610400820152732576e6bc92a493f4da6335c5e69bc0c272381c3a610420820152730e3341ae4ed9da65fc30a7fa6357e8b5ac40b0a361044082015273f6fd5fca4bd769ba495b29b98dba5f2ecf4ceed361046082015273d9299fa321407a5d10c73d71c57ca687a2a38af661048082015273877efeffe7a23e42c39e2c99b977e4aa4bec75176104a082015273071b510c415d3f84c6f4c6291c49887cc56cac416104c082015273de5e1554e2bf5d0e54bafc74c932b8f2ad4e27306104e082015273c68d0255e1b9c549c43c7181bd29684dc477edf061050082015273c3fb7b95b874bfcbd1e722a2061f3adf217121d36105208201527336fd0d4a075507a4e742631aa37dad46a1f4c0da61054082015273661549d7717c20ffa62ad359b7667bbf5c82053b61056082015273412d4d69122839fccad0180e9358d157c3876f3d61058082015273355503b8e64205fde9dbbad269110991cf736a516105a08201527312cf444bf83ed5b610d0089927ecd3babc81ff886105c082015273467c5425042c9d9f025265b72c93d73e0f2978c66105e082015273b6bc5bc0410773a3f86b1537ce7495c52e38f88b61060082015273bd6342c0009f55131b7a51f627ce8cc87879dd676106208201527335c78defbd03e96b4e3ee6a73e9cd4c49d2b885a61064082015273ad4e3d2f85b4c095742b500751cee5c4b8f65a5c6106608201527342c535deccc071d9039b177cb3abf30411531b0561068082015273b212f24d850a0ed90f2889dee31870e7ff3fed6c6106a08201527360c8117901ab35738fcfd7157d393207efce80566106c08201527330b0215a442ea3d3088acd83cd5fe2aa2bcd775a6106e082015273d21bece2d8206a3ffdbaedb827f4d4bd0ff79e3d610700820152734efa5c5bbe7a257743335f200e86cd44eea4dcd9610720820152730472dca02318b532fcb0b056661ee7fd2adc8a2161074082015273dd00acc07f3f7afa90b5a22cfd56c0808b6444df610760820152734d3302c69fac489e2f7373bcb2f101d3b378c4cf610780820152738c29604e1cae4af683c4fbdad951f3f855890ea06107a082015273afb9554299491a34d303f2c5a91bebb162f6b2cf6107c082015273f48c06c56d78f5106b8c5fa234fceb1d1c50096b6107e082015273626ece2ad62f59700d2734a523fc6177005ac8b061080082015273c6c15480855add4eebe365c89a9bb6f278e1825461082082015273f6071f7905d4e4b6ebd27b819aaf8923d542fddf610840820152738872fe6335267adb4c40b9f8667095667b55dcd9610860820152734a4bc674a97737376cfe990ae2fe0d2b6e7383936108808201527327550f4b37f0309c56ea67578eb924b4c19eeeb76108a082015273181a053fd961dc1377b84be4e551ce277053e4c06108c082015273f44c500a8515a5acc900c921bc888b5b62da65566108e082015273f20293d569f0ee7eccdef266d86ee382f893286661090082015273b1d4782962a407343aa3765a599637932d241305610920820152737f53d703836abcaf1ca3d5607d80dd7d96e50d026109408201527378fd38faa30ea66702cc39383d2e84f9a4a56fa661096082015290565b612445612c5a565b50604080516109808101825273cf0e23aed16d5d971910e748acd48849e4b7239c81527332f66d0f9f19db7b0ef1e9f13160884da65467e6602082015273d682dc6d64710d6191512133de957e146e9aa58f9181019190915273efeaff1d9f1e4edb00c6084ae4016143b29ed924606082015273c2cae7311fc0fe400a838d2dde06a89e1d3e9da7608082015273f90a912fdb7fd37572cd83325392d729e60ef68260a082015273afb9554299491a34d303f2c5a91bebb162f6b2cf60c08201819052738da9d88f90141a03292d5e554691b1f6e7c6212c60e083015273a87f9a2f0c7082fa2f1e3de1090d36047c7cd017610100830152736693dc258bdaac5052ab678ba5de2440ca1cdabe610120830152730b67df5847af7476b2eb46da328638e0fb2c6b2961014083015273e91d1dcd0232bda301379de27bd0ede47db3f75061016083015273dc3de716c4430d598ac504c4685d69d0dce1412f61018083015273795cf28e5b71f1a50cc9e01077891c18d6587e536101a083015273a3b3c71371331fd1901e316b67df2d16bf5535a06101c08301527332be208de8a1595cc0ccf8e984cab8759ea1e5b26101e0830152738136c74e94b08300d71fa6c22087b821f73568c561020083015273da6c7342e90b77c5c77a8f7292765360099e30ed6102208301527395fc818cd7709fb6ad8920d0d14925010504876f61024083015273e8e66b241414a40a3db539ec7d864cd61938f81761026083015273fd575770a68d5af983b2a374981f604ddad9d684610280830152739a54edcb1d9a44e9f4235ea05c75b45b266796806102a0830152736108570a29f500d6950febffc99ecb66a264a0486102c083015273da071f710b0f82443866616e8a96069012a73ccf6102e0830152738a4ac64764238c71ddf82f870be6526e297dc4cd6103008301527333f1727caa54ae24cadb2949881c3725eb61a1006103208301527334db532f09ee1285dfef26ed696c4ea25dcfce7261034083015273302d51189fd89d7e72bcb26a65d16941d043f08961036083015273feb247f76e6f6c1ec3455d04e6e3b694a577d57c6103808301527305955d9e99f57e5574a1a9b73361dd14aec8d6416103a083015273cf9f44ddb18a5538efe2a2a28ef20300333f5a716103c083015273779dce1ddc28941ec85bf2ae0dac9f0f128362816103e0830152730bb270e5268a9e9a0742ddb027fab7405af56fa7610400830152735b92ea265597a7cf20c8da56e6beb8485c1ba993610420830152730e3341ae4ed9da65fc30a7fa6357e8b5ac40b0a361044083015273f6fd5fca4bd769ba495b29b98dba5f2ecf4ceed3610460830152738d0a639bdd3b81df264c4db4647665885823151061048083015273bb046932fefcdd3be4368444a1014f25dfee83f26104a08301527354e09bf04810f387347da6d9687d6a37ec2aadc76104c083015273de5e1554e2bf5d0e54bafc74c932b8f2ad4e273f6104e083015273c68d0255e1b9c549c43c7181bd29684dc477edfc6105008301527337920733db9a5b45fc9cd5e3c80825beffc1a014610520830152737e9107480bf92dd56c97118e20cdb3c1ae9dd86661054083015273c4f83a7b369070e32ced4bd6fd647d19aef828ac61056083015273412d4d69122839fccad0180e9358d157c3876f3c61058083015273355503b8e64205fde9dbbad269110991cf736a506105a083015273306f23c32fdfc07850bf242e8ff59c5e79bff8126105c083015273467c5425042c9d9f025265b72c93d73e0f2978c56105e083015273ee992b0f5e9746fdb8e584efa01af79f6b1c094061060083015273bd6342c0009f55131b7a51f627ce8cc87879dd666106208301527357018e929eb6fe50355bf1bf9d1d39ca466b7fa061064083015273ad4e3d2f85b4c095742b500751cee5c4b8f65a5b6106608301527389a6a074db8bcd3fd60626107ea2ae576693f7c561068083015273cb742186fa056444766fa7cc52a0479e8f6dedea6106a08301527360c8117901ab35738fcfd7157d393207efce80556106c083015273ad70ad152e27e0923c4f11c63490fcfd904a4c366106e083015273d8b47b81648d9e81e50b8ca21ea81f2e1b6929bb61070083015273ecb1374172970a613a1970370b3ddead8f844733610720830152730472dca02318b532fcb0b056661ee7fd2adc8a2061074083015273dd00acc07f3f7afa90b5a22cfd56c0808b6444dd610760830152734d3302c69fac489e2f7373bcb2f101d3b378c4ce61078083015273e7685e437f34de2d36ea2e9ab13e5ab871711a2c6107a08301526107c0820152733f9df0717099baaa95a14b3caa285daddafb06096107e08201527323dffc4a93c374a91fbc1c33075af012b68663f76108008201527379ec4d83d40c1bd1419d8f561be851fda1ea32a6610820820152732d3f28780bfb7ed6fb5547c309e1a6837e5bd12b61084082015273a164e8b5f90ce42b0f531e3882cde3f698e1121f610860820152734a4bc674a97737376cfe990ae2fe0d2b6e73839361088082015273f61806b65278ffdbf8b04f832c59b65076798fb66108a082015273836eeedd931575cce4285c74c15dbda9edc3dc4f6108c082015273bd95b0581585e4151793b183ee75d509fde528b66108e082015273a75b1ce2f8c447cab6c13f313dfd806287aa47e2610900820152734d546475321b4ca2a91b101f26750092c05350cf61092082015273fc2d29da710f45168de11e5c051caa558088d52a610940820152731c70b8160e92d56e550caf02e1f2e5ec0fdb551a61096082015290565b60405180602001604052806001906020820280368337509192915050565b604051806109800160405280604c906020820280368337509192915050565b6001600160a01b0381168114610a3757600080fd5b8035610ef081612c79565b60008060408385031215612cac57600080fd5b8235612cb781612c79565b91506020830135612cc781612c79565b809150509250929050565b600060208284031215612ce457600080fd5b5035919050565b600060208284031215612cfd57600080fd5b8135612d0881612c79565b9392505050565b600060208284031215612d2157600080fd5b813567ffffffffffffffff811115612d3857600080fd5b820160408101841015612d0857600080fd5b803560108110610ef057600080fd5b60008060408385031215612d6c57600080fd5b612cb783612d4a565b60008083601f840112612d8757600080fd5b50813567ffffffffffffffff811115612d9f57600080fd5b602083019150836020828501011115612db757600080fd5b9250929050565b600080600080600060608688031215612dd657600080fd5b8535612de181612c79565b9450602086013567ffffffffffffffff80821115612dfe57600080fd5b612e0a89838a01612d75565b90965094506040880135915080821115612e2357600080fd5b50612e3088828901612d75565b969995985093965092949392505050565b600080600060608486031215612e5657600080fd5b8335612e6181612c79565b92506020840135612e7181612c79565b91506040840135612e8181612c79565b809150509250925092565b60008083601f840112612e9e57600080fd5b50813567ffffffffffffffff811115612eb657600080fd5b6020830191508360208260051b8501011115612db757600080fd5b60008060208385031215612ee457600080fd5b823567ffffffffffffffff811115612efb57600080fd5b612f0785828601612e8c565b90969095509350505050565b6020808252825182820181905260009190848201906040850190845b81811015612f545783516001600160a01b031683529284019291840191600101612f2f565b50909695505050505050565b600080600080600080600060a0888a031215612f7b57600080fd5b8735612f8681612c79565b96506020880135612f9681612c79565b95506040880135612fa681612c79565b9450606088013567ffffffffffffffff80821115612fc357600080fd5b612fcf8b838c01612d75565b909650945060808a0135915080821115612fe857600080fd5b50612ff58a828b01612d75565b989b979a50959850939692959293505050565b634e487b7160e01b600052604160045260246000fd5b604051610100810167ffffffffffffffff8111828210171561304257613042613008565b60405290565b604051601f8201601f1916810167ffffffffffffffff8111828210171561307157613071613008565b604052919050565b600082601f83011261308a57600080fd5b813567ffffffffffffffff8111156130a4576130a4613008565b6130b7601f8201601f1916602001613048565b8181528460208386010111156130cc57600080fd5b816020850160208301376000918101602001919091529392505050565b6000602082840312156130fb57600080fd5b813567ffffffffffffffff8082111561311357600080fd5b90830190610100828603121561312857600080fd5b61313061301e565b61313983612c8e565b815261314760208401612c8e565b602082015261315860408401612c8e565b604082015261316960608401612c8e565b606082015261317a60808401612c8e565b608082015260a08301358281111561319157600080fd5b61319d87828601613079565b60a08301525060c083013560c082015260e0830135828111156131bf57600080fd5b6131cb87828601613079565b60e08301525095945050505050565b6000602082840312156131ec57600080fd5b612d0882612d4a565b6000815180845260005b8181101561321b576020818501810151868301820152016131ff565b506000602082860101526020601f19601f83011685010191505092915050565b602081526001600160a01b0382511660208201526000602083015161326b60408401826001600160a01b03169052565b5060408301516001600160a01b03811660608401525060608301516001600160a01b03811660808401525060808301516001600160a01b03811660a08401525060a08301516101008060c08501526132c76101208501836131f5565b915060c085015160e085015260e0850151601f1985840301828601526132ed83826131f5565b9695505050505050565b6000602080838503121561330a57600080fd5b825167ffffffffffffffff8082111561332257600080fd5b818501915085601f83011261333657600080fd5b81518181111561334857613348613008565b8060051b9150613359848301613048565b818152918301840191848101908884111561337357600080fd5b938501935b8385101561339d578451925061338d83612c79565b8282529385019390850190613378565b98975050505050505050565b634e487b7160e01b600052603260045260246000fd5b6000808335601e198436030181126133d657600080fd5b83018035915067ffffffffffffffff8211156133f157600080fd5b6020019150600581901b3603821315612db757600080fd5b6000808335601e1984360301811261342057600080fd5b83018035915067ffffffffffffffff82111561343b57600080fd5b602001915036819003821315612db757600080fd5b634e487b7160e01b600052602160045260246000fd5b6010811061347657613476613450565b9052565b602081016134888284613466565b92915050565b600181811c908216806134a257607f821691505b6020821081036134c257634e487b7160e01b600052602260045260246000fd5b50919050565b6000602082840312156134da57600080fd5b81518015158114612d0857600080fd5b600b811061347657613476613450565b6001600160e01b03198316815260408101612d0860208301846134ea565b6020810161348882846134ea565b602081526000612d0860208301846131f5565b8082018082111561348857634e487b7160e01b600052601160045260246000fd5b81835281816020850137506000828201602090810191909152601f909101601f19169091010190565b60408152600061359760408301868861355a565b82810360208401526135aa81858761355a565b979650505050505050565b601f821115610af7576000816000526020600020601f850160051c810160208610156135de5750805b601f850160051c820191505b8181101561071b578281556001016135ea565b818103613608575050565b613612825461348e565b67ffffffffffffffff81111561362a5761362a613008565b61363e81613638845461348e565b846135b5565b6000601f821160018114613672576000831561365a5750848201545b600019600385901b1c1916600184901b178455610a00565b600085815260209020601f19841690600086815260209020845b838110156136ac578286015482556001958601959091019060200161368c565b50858310156136ca5781850154600019600388901b60f8161c191681555b5050505050600190811b01905550565b815167ffffffffffffffff8111156136f4576136f4613008565b61370281613638845461348e565b602080601f831160018114613737576000841561371f5750858301515b600019600386901b1c1916600185901b17855561071b565b600085815260208120601f198616915b8281101561376657888601518255948401946001909101908401613747565b50858210156136ca57939096015160001960f8600387901b161c19169092555050600190811b01905550565b6001600160e01b031984168152606081016137b06020830185613466565b6001600160a01b0383166040830152949350505050565b604081016137d582856134ea565b826020830152939250505056fea264697066735822122055e00793501dd27bdb0d58f2642fcc31f1c47a09eff559c047bf1e27883db73f64736f6c63430008160033",
  "chainId": 2021,
  "contractAbsolutePath": "Profile_Testnet.sol",
  "deployer": "0x31762cdd4Aa65CD6f5F09D7a05a56211720A1168",
  "devdoc": {
    "version": 1,
    "kind": "dev",
    "methods": {
      "addNewProfile((address,address,address,address,address,bytes,uint256,bytes))": {
        "details": "Requirements: - The profile must not be existent before. - Only contract admin can call this method."
      },
      "arePublicKeysRegistered(bytes[][2])": {
        "details": "Cross-contract function to for slash indicator to check the list of public keys in finality slash proof Returns whether all public keys are registered."
      },
      "changePubkey(address,bytes,bytes)": {
        "details": "Requirements: - The profile must be existed. - Only user with candidate admin role can call this method. - New public key must not be duplicated. - The proof of public key possession must be verified successfully. - The public key change cooldown must be ended."
      },
      "execApplyValidatorCandidate(address,address,address,bytes,bytes)": {
        "details": "Cross-contract function to add/update new profile of a validator candidate when they applying for candidate role. Requirements: - Only `stakingContract` can call this method."
      },
      "getConsensus2Id(address)": {
        "details": "Getter to backward query from `consensus` address to `id` address."
      },
      "getContract(uint8)": {
        "details": "Returns the address of a contract with a specific role. Throws an error if no contract is set for the specified role.",
        "params": {
          "contractType": "The role of the contract to retrieve."
        },
        "returns": {
          "contract_": "The address of the contract with the specified role."
        }
      },
      "getId2Profile(address)": {
        "details": "Getter to query full `profile` from `id` address."
      },
      "getManyConsensus2Id(address[])": {
        "details": "Getter to backward batch query from `consensus` address to `id` address."
      },
      "getManyId2Consensus(address[])": {
        "details": "Getter to batch query from `id` to `consensus`, return address(0) if the profile not exist."
      },
      "precompileVerifyBLSPublicKeyAddress()": {
        "details": "Gets the address of the precompile of validating double sign evidence"
      },
      "requestChangeAdminAddress(address,address)": {
        "details": "Side-effects on other contracts: - Update Staking contract:    + [x] Update (id => PoolDetail) mapping in {BaseStaking.sol}.    + [x] Update `_adminOfActivePoolMapping` in {BaseStaking.sol}. - Update Validator contract:    + [x] Update (id => ValidatorCandidate) mapping"
      },
      "requestChangeConsensusAddr(address,address)": {
        "details": "Side-effects on other contracts: - Update in Staking contract for Consensus address mapping:   + [x] Keep the same previous pool address. - Update in Validator contract for:   + [x] Consensus Address mapping   + [x] Bridge Address mapping   + [x] Jail mapping   + [x] Pending reward mapping   + [x] Schedule mapping - Update in Slashing contract for:   + [x] Handling slash indicator   + [x] Handling slash fast finality   + [x] Handling slash double sign - Update in Proposal contract for:   + [-] Preserve the consensus address and recipient target of locked amount of emergency exit - Update Trusted Org contracts:   + [x] Remove and delete weight of the old consensus   + [x] Replace and add weight for the new consensus"
      },
      "requestChangeTreasuryAddr(address,address)": {
        "details": "Side-effects on other contracts: - Update Validator contract:    + [x] Update (id => ValidatorCandidate) mapping - Update governance admin:    + [-] Update recipient in the EmergencyExitBallot to the newTreasury.          Cannot impl since we cannot cancel the previous the ballot and          create a new ballot on behalf of the validator contract."
      },
      "setContract(uint8,address)": {
        "details": "Sets the address of a contract with a specific role. Emits the event {ContractUpdated}.",
        "params": {
          "addr": "The address of the contract to set.",
          "contractType": "The role of the contract to set."
        }
      },
      "setPubkeyChangeCooldown(uint256)": {
        "details": "Change the cooldown between 2 public key change Requirement:  - Only admin can call this method"
      }
    },
    "events": {
      "ContractUpdated(uint8,address)": {
        "details": "Emitted when a contract is updated."
      },
      "Initialized(uint8)": {
        "details": "Triggered when the contract has been initialized or reinitialized."
      },
      "ProfileAdded(address)": {
        "details": "Event emitted when a profile with `id` is added."
      },
      "ProfileAddressChanged(address,uint8,address)": {
        "details": "Event emitted when a address in a profile is changed."
      },
      "ProfileMigrated(address,address,address)": {
        "details": "Event emitted when the profile is migrated (mostly when REP-4 update)."
      },
      "PubkeyChanged(address,bytes)": {
        "details": "Event emitted when the pubkey of the `id` is changed."
      },
      "PubkeyVerified(bytes,bytes)": {
        "details": "Event emitted when the pubkey is verified successfully."
      }
    },
    "errors": {
      "ErrCallPrecompiled()": [
        {
          "details": "Error of call to precompile fails."
        }
      ],
      "ErrContractTypeNotFound(uint8)": [
        {
          "details": "Error of invalid role."
        }
      ],
      "ErrDuplicatedInfo(uint8,uint256)": [
        {
          "details": "Error when there is a duplicated info of `value`, which is uin256-padding value of any address or hash of public key, and with value type of `infoType`."
        }
      ],
      "ErrExistentProfile()": [
        {
          "details": "Error of already existed profile."
        }
      ],
      "ErrIdAndConsensusDiffer()": [
        {
          "details": "Error when create a new profile whose id and consensus are not identical."
        }
      ],
      "ErrNonExistentProfile()": [
        {
          "details": "Error of non existed profile."
        }
      ],
      "ErrPubkeyChangeCooldownNotEnded()": [
        {
          "details": "Error when failed to change public key because cooldown is not ended."
        }
      ],
      "ErrUnauthorized(bytes4,uint8)": [
        {
          "details": "Error indicating that the caller is unauthorized to perform a specific function.",
          "params": {
            "expectedRole": "The role required to perform the function.",
            "msgSig": "The function signature (bytes4) that the caller is unauthorized to perform."
          }
        }
      ],
      "ErrUnexpectedInternalCall(bytes4,uint8,address)": [
        {
          "details": "Error indicating that the caller is unauthorized to perform a specific function.",
          "params": {
            "actual": "The actual address that called to the function.",
            "expectedContractType": "The contract type required to perform the function.",
            "msgSig": "The function signature (bytes4)."
          }
        }
      ],
      "ErrZeroCodeContract(address)": [
        {
          "details": "Error of set to non-contract."
        }
      ]
    }
  },
  "isFoundry": true,
  "nonce": 2,
  "numDeployments": 8,
  "storageLayout": {
    "storage": [
      {
        "astId": 28689,
        "contract": "contracts/ronin/profile/Profile_Testnet.sol:Profile_Testnet",
        "label": "_id2Profile",
        "offset": 0,
        "slot": "0",
        "type": "t_mapping(t_address,t_struct(CandidateProfile)7374_storage)"
      },
      {
        "astId": 28694,
        "contract": "contracts/ronin/profile/Profile_Testnet.sol:Profile_Testnet",
        "label": "_registry",
        "offset": 0,
        "slot": "1",
        "type": "t_mapping(t_uint256,t_bool)"
      },
      {
        "astId": 28700,
        "contract": "contracts/ronin/profile/Profile_Testnet.sol:Profile_Testnet",
        "label": "_consensus2Id",
        "offset": 0,
        "slot": "2",
        "type": "t_mapping(t_userDefinedValueType(TConsensus)39657,t_address)"
      },
      {
        "astId": 28703,
        "contract": "contracts/ronin/profile/Profile_Testnet.sol:Profile_Testnet",
        "label": "pubkeyChangeCooldown",
        "offset": 0,
        "slot": "3",
        "type": "t_uint256"
      },
      {
        "astId": 28708,
        "contract": "contracts/ronin/profile/Profile_Testnet.sol:Profile_Testnet",
        "label": "__gap",
        "offset": 0,
        "slot": "4",
        "type": "t_array(t_bytes32)47_storage"
      },
      {
        "astId": 149757,
        "contract": "contracts/ronin/profile/Profile_Testnet.sol:Profile_Testnet",
        "label": "_initialized",
        "offset": 0,
        "slot": "51",
        "type": "t_uint8"
      },
      {
        "astId": 149760,
        "contract": "contracts/ronin/profile/Profile_Testnet.sol:Profile_Testnet",
        "label": "_initializing",
        "offset": 1,
        "slot": "51",
        "type": "t_bool"
      }
    ],
    "types": {
      "t_address": {
        "encoding": "inplace",
        "label": "address",
        "numberOfBytes": "20"
      },
      "t_address_payable": {
        "encoding": "inplace",
        "label": "address payable",
        "numberOfBytes": "20"
      },
      "t_array(t_bytes32)47_storage": {
        "encoding": "inplace",
        "label": "bytes32[47]",
        "numberOfBytes": "1504",
        "base": "t_bytes32"
      },
      "t_bool": {
        "encoding": "inplace",
        "label": "bool",
        "numberOfBytes": "1"
      },
      "t_bytes32": {
        "encoding": "inplace",
        "label": "bytes32",
        "numberOfBytes": "32"
      },
      "t_bytes_storage": {
        "encoding": "bytes",
        "label": "bytes",
        "numberOfBytes": "32"
      },
      "t_mapping(t_address,t_struct(CandidateProfile)7374_storage)": {
        "encoding": "mapping",
        "key": "t_address",
        "label": "mapping(address => struct IProfile.CandidateProfile)",
        "numberOfBytes": "32",
        "value": "t_struct(CandidateProfile)7374_storage"
      },
      "t_mapping(t_uint256,t_bool)": {
        "encoding": "mapping",
        "key": "t_uint256",
        "label": "mapping(uint256 => bool)",
        "numberOfBytes": "32",
        "value": "t_bool"
      },
      "t_mapping(t_userDefinedValueType(TConsensus)39657,t_address)": {
        "encoding": "mapping",
        "key": "t_userDefinedValueType(TConsensus)39657",
        "label": "mapping(TConsensus => address)",
        "numberOfBytes": "32",
        "value": "t_address"
      },
      "t_struct(CandidateProfile)7374_storage": {
        "encoding": "inplace",
        "label": "struct IProfile.CandidateProfile",
        "numberOfBytes": "256",
        "members": [
          {
            "astId": 7351,
            "contract": "contracts/ronin/profile/Profile_Testnet.sol:Profile_Testnet",
            "label": "id",
            "offset": 0,
            "slot": "0",
            "type": "t_address"
          },
          {
            "astId": 7355,
            "contract": "contracts/ronin/profile/Profile_Testnet.sol:Profile_Testnet",
            "label": "consensus",
            "offset": 0,
            "slot": "1",
            "type": "t_userDefinedValueType(TConsensus)39657"
          },
          {
            "astId": 7358,
            "contract": "contracts/ronin/profile/Profile_Testnet.sol:Profile_Testnet",
            "label": "admin",
            "offset": 0,
            "slot": "2",
            "type": "t_address"
          },
          {
            "astId": 7361,
            "contract": "contracts/ronin/profile/Profile_Testnet.sol:Profile_Testnet",
            "label": "treasury",
            "offset": 0,
            "slot": "3",
            "type": "t_address_payable"
          },
          {
            "astId": 7364,
            "contract": "contracts/ronin/profile/Profile_Testnet.sol:Profile_Testnet",
            "label": "__reservedGovernor",
            "offset": 0,
            "slot": "4",
            "type": "t_address"
          },
          {
            "astId": 7367,
            "contract": "contracts/ronin/profile/Profile_Testnet.sol:Profile_Testnet",
            "label": "pubkey",
            "offset": 0,
            "slot": "5",
            "type": "t_bytes_storage"
          },
          {
            "astId": 7370,
            "contract": "contracts/ronin/profile/Profile_Testnet.sol:Profile_Testnet",
            "label": "pubkeyLastChange",
            "offset": 0,
            "slot": "6",
            "type": "t_uint256"
          },
          {
            "astId": 7373,
            "contract": "contracts/ronin/profile/Profile_Testnet.sol:Profile_Testnet",
            "label": "oldPubkey",
            "offset": 0,
            "slot": "7",
            "type": "t_bytes_storage"
          }
        ]
      },
      "t_uint256": {
        "encoding": "inplace",
        "label": "uint256",
        "numberOfBytes": "32"
      },
      "t_uint8": {
        "encoding": "inplace",
        "label": "uint8",
        "numberOfBytes": "1"
      },
      "t_userDefinedValueType(TConsensus)39657": {
        "encoding": "inplace",
        "label": "TConsensus",
        "numberOfBytes": "20"
      }
    }
  },
  "timestamp": 1704868902,
  "userdoc": {
    "version": 1,
    "kind": "user",
    "methods": {
      "addNewProfile((address,address,address,address,address,bytes,uint256,bytes))": {
        "notice": "Add a new profile."
      },
      "changePubkey(address,bytes,bytes)": {
        "notice": "The candidate admin changes the public key."
      }
    }
  }
}