{
  "abi": [
    {
      "type": "function",
      "name": "arePublicKeysRegistered",
      "inputs": [
        {
          "name": "listOfPublicKey",
          "type": "bytes[][2]",
          "internalType": "bytes[][2]"
        }
      ],
      "outputs": [
        {
          "name": "",
          "type": "bool",
          "internalType": "bool"
        }
      ],
      "stateMutability": "view"
    },
    {
      "type": "function",
      "name": "changePubkey",
      "inputs": [
        {
          "name": "id",
          "type": "address",
          "internalType": "address"
        },
        {
          "name": "pubkey",
          "type": "bytes",
          "internalType": "bytes"
        },
        {
          "name": "proofOfPossession",
          "type": "bytes",
          "internalType": "bytes"
        }
      ],
      "outputs": [],
      "stateMutability": "nonpayable"
    },
    {
      "type": "function",
      "name": "execApplyValidatorCandidate",
      "inputs": [
        {
          "name": "admin",
          "type": "address",
          "internalType": "address"
        },
        {
          "name": "id",
          "type": "address",
          "internalType": "address"
        },
        {
          "name": "treasury",
          "type": "address",
          "internalType": "address"
        },
        {
          "name": "pubkey",
          "type": "bytes",
          "internalType": "bytes"
        },
        {
          "name": "proofOfPossession",
          "type": "bytes",
          "internalType": "bytes"
        }
      ],
      "outputs": [],
      "stateMutability": "nonpayable"
    },
    {
      "type": "function",
      "name": "getConsensus2Id",
      "inputs": [
        {
          "name": "consensus",
          "type": "address",
          "internalType": "TConsensus"
        }
      ],
      "outputs": [
        {
          "name": "",
          "type": "address",
          "internalType": "address"
        }
      ],
      "stateMutability": "view"
    },
    {
      "type": "function",
      "name": "getContract",
      "inputs": [
        {
          "name": "contractType",
          "type": "uint8",
          "internalType": "enum ContractType"
        }
      ],
      "outputs": [
        {
          "name": "contract_",
          "type": "address",
          "internalType": "address"
        }
      ],
      "stateMutability": "view"
    },
    {
      "type": "function",
      "name": "getCooldownConfig",
      "inputs": [],
      "outputs": [
        {
          "name": "",
          "type": "uint256",
          "internalType": "uint256"
        }
      ],
      "stateMutability": "view"
    },
    {
      "type": "function",
      "name": "getId2Profile",
      "inputs": [
        {
          "name": "id",
          "type": "address",
          "internalType": "address"
        }
      ],
      "outputs": [
        {
          "name": "",
          "type": "tuple",
          "internalType": "struct IProfile.CandidateProfile",
          "components": [
            {
              "name": "id",
              "type": "address",
              "internalType": "address"
            },
            {
              "name": "consensus",
              "type": "address",
              "internalType": "TConsensus"
            },
            {
              "name": "admin",
              "type": "address",
              "internalType": "address"
            },
            {
              "name": "treasury",
              "type": "address",
              "internalType": "address payable"
            },
            {
              "name": "__reservedGovernor",
              "type": "address",
              "internalType": "address"
            },
            {
              "name": "pubkey",
              "type": "bytes",
              "internalType": "bytes"
            },
            {
              "name": "profileLastChange",
              "type": "uint256",
              "internalType": "uint256"
            },
            {
              "name": "oldPubkey",
              "type": "bytes",
              "internalType": "bytes"
            }
          ]
        }
      ],
      "stateMutability": "view"
    },
    {
      "type": "function",
      "name": "getManyConsensus2Id",
      "inputs": [
        {
          "name": "consensusList",
          "type": "address[]",
          "internalType": "TConsensus[]"
        }
      ],
      "outputs": [
        {
          "name": "idList",
          "type": "address[]",
          "internalType": "address[]"
        }
      ],
      "stateMutability": "view"
    },
    {
      "type": "function",
      "name": "getManyId2Consensus",
      "inputs": [
        {
          "name": "idList",
          "type": "address[]",
          "internalType": "address[]"
        }
      ],
      "outputs": [
        {
          "name": "consensusList",
          "type": "address[]",
          "internalType": "TConsensus[]"
        }
      ],
      "stateMutability": "view"
    },
    {
      "type": "function",
      "name": "initialize",
      "inputs": [
        {
          "name": "validatorContract",
          "type": "address",
          "internalType": "address"
        }
      ],
      "outputs": [],
      "stateMutability": "nonpayable"
    },
    {
      "type": "function",
      "name": "initializeV2",
      "inputs": [
        {
          "name": "stakingContract",
          "type": "address",
          "internalType": "address"
        },
        {
          "name": "trustedOrgContract",
          "type": "address",
          "internalType": "address"
        }
      ],
      "outputs": [],
      "stateMutability": "nonpayable"
    },
    {
      "type": "function",
      "name": "initializeV3",
      "inputs": [
        {
          "name": "cooldown",
          "type": "uint256",
          "internalType": "uint256"
        }
      ],
      "outputs": [],
      "stateMutability": "nonpayable"
    },
    {
      "type": "function",
      "name": "manualMigrate",
      "inputs": [
        {
          "name": "id",
          "type": "address",
          "internalType": "address"
        },
        {
          "name": "candidateAdmin",
          "type": "address",
          "internalType": "address"
        },
        {
          "name": "treasury",
          "type": "address",
          "internalType": "address"
        }
      ],
      "outputs": [],
      "stateMutability": "nonpayable"
    },
    {
      "type": "function",
      "name": "migrateRenouncedCandidate",
      "inputs": [],
      "outputs": [],
      "stateMutability": "nonpayable"
    },
    {
      "type": "function",
      "name": "precompileVerifyBLSPublicKeyAddress",
      "inputs": [],
      "outputs": [
        {
          "name": "",
          "type": "address",
          "internalType": "address"
        }
      ],
      "stateMutability": "view"
    },
    {
      "type": "function",
      "name": "requestChangeAdminAddress",
      "inputs": [
        {
          "name": "id",
          "type": "address",
          "internalType": "address"
        },
        {
          "name": "newAdminAddr",
          "type": "address",
          "internalType": "address"
        }
      ],
      "outputs": [],
      "stateMutability": "nonpayable"
    },
    {
      "type": "function",
      "name": "requestChangeConsensusAddr",
      "inputs": [
        {
          "name": "id",
          "type": "address",
          "internalType": "address"
        },
        {
          "name": "newConsensusAddr",
          "type": "address",
          "internalType": "TConsensus"
        }
      ],
      "outputs": [],
      "stateMutability": "nonpayable"
    },
    {
      "type": "function",
      "name": "requestChangeTreasuryAddr",
      "inputs": [
        {
          "name": "",
          "type": "address",
          "internalType": "address"
        },
        {
          "name": "",
          "type": "address",
          "internalType": "address payable"
        }
      ],
      "outputs": [],
      "stateMutability": "pure"
    },
    {
      "type": "function",
      "name": "setContract",
      "inputs": [
        {
          "name": "contractType",
          "type": "uint8",
          "internalType": "enum ContractType"
        },
        {
          "name": "addr",
          "type": "address",
          "internalType": "address"
        }
      ],
      "outputs": [],
      "stateMutability": "nonpayable"
    },
    {
      "type": "function",
      "name": "setCooldownConfig",
      "inputs": [
        {
          "name": "cooldown",
          "type": "uint256",
          "internalType": "uint256"
        }
      ],
      "outputs": [],
      "stateMutability": "nonpayable"
    },
    {
      "type": "function",
      "name": "tryGetConsensus2Id",
      "inputs": [
        {
          "name": "consensus",
          "type": "address",
          "internalType": "TConsensus"
        }
      ],
      "outputs": [
        {
          "name": "found",
          "type": "bool",
          "internalType": "bool"
        },
        {
          "name": "id",
          "type": "address",
          "internalType": "address"
        }
      ],
      "stateMutability": "view"
    },
    {
      "type": "event",
      "name": "ConsensusAddressOfNonGovernorChanged",
      "inputs": [
        {
          "name": "id",
          "type": "address",
          "indexed": true,
          "internalType": "address"
        }
      ],
      "anonymous": false
    },
    {
      "type": "event",
      "name": "ContractUpdated",
      "inputs": [
        {
          "name": "contractType",
          "type": "uint8",
          "indexed": true,
          "internalType": "enum ContractType"
        },
        {
          "name": "addr",
          "type": "address",
          "indexed": true,
          "internalType": "address"
        }
      ],
      "anonymous": false
    },
    {
      "type": "event",
      "name": "Initialized",
      "inputs": [
        {
          "name": "version",
          "type": "uint8",
          "indexed": false,
          "internalType": "uint8"
        }
      ],
      "anonymous": false
    },
    {
      "type": "event",
      "name": "ProfileAdded",
      "inputs": [
        {
          "name": "id",
          "type": "address",
          "indexed": true,
          "internalType": "address"
        }
      ],
      "anonymous": false
    },
    {
      "type": "event",
      "name": "ProfileAddressChanged",
      "inputs": [
        {
          "name": "id",
          "type": "address",
          "indexed": true,
          "internalType": "address"
        },
        {
          "name": "addressType",
          "type": "uint8",
          "indexed": true,
          "internalType": "enum RoleAccess"
        },
        {
          "name": "addr",
          "type": "address",
          "indexed": true,
          "internalType": "address"
        }
      ],
      "anonymous": false
    },
    {
      "type": "event",
      "name": "ProfileMigrated",
      "inputs": [
        {
          "name": "id",
          "type": "address",
          "indexed": true,
          "internalType": "address"
        },
        {
          "name": "admin",
          "type": "address",
          "indexed": true,
          "internalType": "address"
        },
        {
          "name": "treasury",
          "type": "address",
          "indexed": true,
          "internalType": "address"
        }
      ],
      "anonymous": false
    },
    {
      "type": "event",
      "name": "PubkeyChanged",
      "inputs": [
        {
          "name": "id",
          "type": "address",
          "indexed": true,
          "internalType": "address"
        },
        {
          "name": "pubkey",
          "type": "bytes",
          "indexed": false,
          "internalType": "bytes"
        }
      ],
      "anonymous": false
    },
    {
      "type": "event",
      "name": "PubkeyVerified",
      "inputs": [
        {
          "name": "pubkey",
          "type": "bytes",
          "indexed": false,
          "internalType": "bytes"
        },
        {
          "name": "proofOfPossession",
          "type": "bytes",
          "indexed": false,
          "internalType": "bytes"
        }
      ],
      "anonymous": false
    },
    {
      "type": "error",
      "name": "ErrCallPrecompiled",
      "inputs": []
    },
    {
      "type": "error",
      "name": "ErrContractTypeNotFound",
      "inputs": [
        {
          "name": "contractType",
          "type": "uint8",
          "internalType": "enum ContractType"
        }
      ]
    },
    {
      "type": "error",
      "name": "ErrDuplicatedInfo",
      "inputs": [
        {
          "name": "infoType",
          "type": "uint8",
          "internalType": "enum RoleAccess"
        },
        {
          "name": "value",
          "type": "uint256",
          "internalType": "uint256"
        }
      ]
    },
    {
      "type": "error",
      "name": "ErrDuplicatedPubkey",
      "inputs": [
        {
          "name": "pubkey",
          "type": "bytes",
          "internalType": "bytes"
        }
      ]
    },
    {
      "type": "error",
      "name": "ErrExistentProfile",
      "inputs": []
    },
    {
      "type": "error",
      "name": "ErrIdAndConsensusDiffer",
      "inputs": []
    },
    {
      "type": "error",
      "name": "ErrInvalidProofOfPossession",
      "inputs": [
        {
          "name": "pubkey",
          "type": "bytes",
          "internalType": "bytes"
        },
        {
          "name": "proofOfPossession",
          "type": "bytes",
          "internalType": "bytes"
        }
      ]
    },
    {
      "type": "error",
      "name": "ErrLookUpIdFailed",
      "inputs": [
        {
          "name": "consensus",
          "type": "address",
          "internalType": "TConsensus"
        }
      ]
    },
    {
      "type": "error",
      "name": "ErrNonExistentProfile",
      "inputs": []
    },
    {
      "type": "error",
      "name": "ErrProfileChangeCooldownNotEnded",
      "inputs": []
    },
    {
      "type": "error",
      "name": "ErrUnauthorized",
      "inputs": [
        {
          "name": "msgSig",
          "type": "bytes4",
          "internalType": "bytes4"
        },
        {
          "name": "expectedRole",
          "type": "uint8",
          "internalType": "enum RoleAccess"
        }
      ]
    },
    {
      "type": "error",
      "name": "ErrUnexpectedInternalCall",
      "inputs": [
        {
          "name": "msgSig",
          "type": "bytes4",
          "internalType": "bytes4"
        },
        {
          "name": "expectedContractType",
          "type": "uint8",
          "internalType": "enum ContractType"
        },
        {
          "name": "actual",
          "type": "address",
          "internalType": "address"
        }
      ]
    },
    {
      "type": "error",
      "name": "ErrZeroAddress",
      "inputs": [
        {
          "name": "infoType",
          "type": "uint8",
          "internalType": "enum RoleAccess"
        }
      ]
    },
    {
      "type": "error",
      "name": "ErrZeroCodeContract",
      "inputs": [
        {
          "name": "addr",
          "type": "address",
          "internalType": "address"
        }
      ]
    },
    {
      "type": "error",
      "name": "ErrZeroPubkey",
      "inputs": []
    }
  ],
  "address": "0x99DA0Fb31C830eBb0bDe0EfCEf428A02D72994Be",
  "args": "0x",
  "blockNumber": 24985426,
  "bytecode": "0x60806040523480156200001157600080fd5b506200001c62000022565b620000e4565b603354610100900460ff16156200008f5760405162461bcd60e51b815260206004820152602760248201527f496e697469616c697a61626c653a20636f6e747261637420697320696e697469604482015266616c697a696e6760c81b606482015260840160405180910390fd5b60335460ff9081161015620000e2576033805460ff191660ff9081179091556040519081527f7f26b83ff96e1f2b6a682f133852f6798a09c465da95921460cefb38474024989060200160405180910390a15b565b6137f980620000f46000396000f3fe608060405234801561001057600080fd5b50600436106101775760003560e01c80639a1a05e0116100d8578063b5017aef1161008c578063de981f1b11610066578063de981f1b14610314578063f466094014610327578063f9226b1a1461034757600080fd5b8063b5017aef146102e6578063c4d66de8146102f9578063c63516321461030c57600080fd5b8063ad5abf2d116100bd578063ad5abf2d146102ac578063b0abaea6146102bf578063b261596f146102c657600080fd5b80639a1a05e0146102865780639debe22e1461029957600080fd5b806350a9fc291161012f57806384cb10101161011457806384cb10101461022e578063865e6fd31461024157806388660f2a1461025457600080fd5b806350a9fc29146101e05780637e18b5661461020b57600080fd5b80631f97bdb1116101605780631f97bdb1146101a457806333284687146101b75780633c3d8410146101cd57600080fd5b80630840ba721461017c578063183584c114610191575b600080fd5b61018f61018a366004612dff565b61035a565b005b61018f61019f366004612dff565b61052f565b61018f6101b2366004612dff565b610577565b6003546040519081526020015b60405180910390f35b61018f6101db366004612e38565b610764565b6101f36101ee366004612e51565b61084c565b6040516001600160a01b0390911681526020016101c4565b61021e610219366004612e6e565b61085d565b60405190151581526020016101c4565b61018f61023c366004612dff565b610941565b61018f61024f366004612eb8565b610b20565b610267610262366004612e51565b610b3f565b6040805192151583526001600160a01b039091166020830152016101c4565b61018f610294366004612f1d565b610b70565b61018f6102a7366004612fa0565b610c22565b61018f6102ba366004612e38565b610c3a565b606a6101f3565b6102d96102d4366004613030565b610c4e565b6040516101c49190613072565b61018f6102f43660046130bf565b610d27565b61018f610307366004612e51565b610e5d565b61018f610f6a565b6101f3610322366004613167565b610f7c565b61033a610335366004612e51565b611010565b6040516101c491906131d2565b6102d9610355366004613030565b6111ec565b603354600290610100900460ff1615801561037c575060335460ff8083169116105b6103e45760405162461bcd60e51b815260206004820152602e60248201527f496e697469616c697a61626c653a20636f6e747261637420697320616c72656160448201526d191e481a5b9a5d1a585b1a5e995960921b60648201526084015b60405180910390fd5b6033805461ffff191660ff83161761010017905561040360098461129f565b61040e600a8361129f565b600061041a6008610f7c565b6001600160a01b031663ba77b06c6040518163ffffffff1660e01b8152600401600060405180830381865afa158015610457573d6000803e3d6000fd5b505050506040513d6000823e601f3d908101601f1916820160405261047f91908101906132af565b905060005b81518110156104df5760008282815181106104a1576104a1613374565b6020908102919091018101516001600160a01b031660008181526002909252604090912080546001600160a01b031916909117905550600101610484565b506104e8611343565b506033805461ff001916905560405160ff821681527f7f26b83ff96e1f2b6a682f133852f6798a09c465da95921460cefb38474024989060200160405180910390a1505050565b60405162461bcd60e51b815260206004820152600d60248201527f4e6f7420737570706f727465640000000000000000000000000000000000000060448201526064016103db565b6000610582836113c0565b905061058d81611414565b6105986009836114f0565b6105a18161153c565b60018101546001600160a01b031660006105bb6008610f7c565b6040517fd93fa3060000000000000000000000000000000000000000000000000000000081526001600160a01b03878116600483015286811660248301529192509082169063d93fa30690604401600060405180830381600087803b15801561062357600080fd5b505af1158015610637573d6000803e3d6000fd5b505050506000610647600a610f7c565b6040516001600160a01b038581166024830152878116604483015291925060009183169060640160408051601f198184030181529181526020820180517bffffffffffffffffffffffffffffffffffffffffffffffffffffffff167fa0c302a700000000000000000000000000000000000000000000000000000000179052516106d1919061338a565b6000604051808303816000865af19150503d806000811461070e576040519150601f19603f3d011682016040523d82523d6000602084013e610713565b606091505b5050905080610751576040516001600160a01b038816907f940589fcab729233e520a0b808ffeabac5a6e90603d892a31cd4609b32547dd990600090a25b61075b858761154e565b50505050505050565b603354600390610100900460ff16158015610786575060335460ff8083169116105b6107e95760405162461bcd60e51b815260206004820152602e60248201527f496e697469616c697a61626c653a20636f6e747261637420697320616c72656160448201526d191e481a5b9a5d1a585b1a5e995960921b60648201526084016103db565b6033805461ffff191660ff83161761010017905561080682600355565b6033805461ff001916905560405160ff821681527f7f26b83ff96e1f2b6a682f133852f6798a09c465da95921460cefb3847402498906020015b60405180910390a15050565b6000610857826115f5565b92915050565b6000805b60028110156109385760005b83826002811061087f5761087f613374565b60200281019061088f91906133a6565b905081101561092f576109198483600281106108ad576108ad613374565b6020028101906108bd91906133a6565b838181106108cd576108cd613374565b90506020028101906108df91906133f0565b8080601f01602080910402602001604051908101604052809392919081815260200183838082843760009201919091525061166c92505050565b610927575060009392505050565b60010161086d565b50600101610861565b50600192915050565b600061094c836113c0565b905061095781611414565b6109626004836114f0565b61096b8161153c565b60006109776009610f7c565b6040517f9ee3c3f80000000000000000000000000000000000000000000000000000000081526001600160a01b038681166004830152336024830152858116604483015291925090821690639ee3c3f890606401600060405180830381600087803b1580156109e557600080fd5b505af11580156109f9573d6000803e3d6000fd5b505050506000610a096008610f7c565b6040517fea80d67d0000000000000000000000000000000000000000000000000000000081526001600160a01b03878116600483015286811660248301529192509082169063ea80d67d90604401600060405180830381600087803b158015610a7157600080fd5b505af1158015610a85573d6000803e3d6000fd5b50506040517fecd850cc0000000000000000000000000000000000000000000000000000000081526001600160a01b03888116600483015287811660248301528416925063ecd850cc9150604401600060405180830381600087803b158015610aed57600080fd5b505af1158015610b01573d6000803e3d6000fd5b50505050610b0f838561169b565b610b1983856116de565b5050505050565b610b28611721565b610b318161177b565b610b3b828261129f565b5050565b600080610b67836001600160a01b039081166000908152600260205260409020541680151591565b91509150915091565b6000610b7b866113c0565b9050610b8681611414565b610bc585858080601f0160208091040260200160405190810160405280939291908181526020018383808284376000920191909152506117ca92505050565b610bd18585858561180c565b610bda8161153c565b610c1a8186868080601f01602080910402602001604051908101604052809392919081815260200183838082843760009201919091525061189a92505050565b505050505050565b610c2a611721565b610c35838383611951565b505050565b610c42611721565b610c4b81600355565b50565b60608167ffffffffffffffff811115610c6957610c6961328e565b604051908082528060200260200182016040528015610c92578160200160208202803683370190505b50905060005b82811015610d2057600080858584818110610cb557610cb5613374565b9050602002016020810190610cca9190612e51565b6001600160a01b0390811682526020820192909252604001600020600101548351911690839083908110610d0057610d00613374565b6001600160a01b0390921660209283029190910190910152600101610c98565b5092915050565b6009610d32816119e8565b6001600160a01b038088166000908152602081905260409020805490911615610d87576040517f249b38f900000000000000000000000000000000000000000000000000000000815260040160405180910390fd5b60006040518061010001604052808a6001600160a01b031681526020018a6001600160a01b031681526020018b6001600160a01b03168152602001896001600160a01b0316815260200160006001600160a01b0316815260200188888080601f016020809104026020016040519081016040528093929190818152602001838380828437600092018290525093855250505060208083018290526040805191820181529181529101529050610e3b81611a4d565b610e478787878761180c565b610e518282611a87565b50505050505050505050565b603354610100900460ff1615808015610e7d5750603354600160ff909116105b80610e975750303b158015610e97575060335460ff166001145b610efa5760405162461bcd60e51b815260206004820152602e60248201527f496e697469616c697a61626c653a20636f6e747261637420697320616c72656160448201526d191e481a5b9a5d1a585b1a5e995960921b60648201526084016103db565b6033805460ff191660011790558015610f1d576033805461ff0019166101001790555b610f2860088361129f565b8015610b3b576033805461ff0019169055604051600181527f7f26b83ff96e1f2b6a682f133852f6798a09c465da95921460cefb384740249890602001610840565b610f72611721565b610f7a611b26565b565b60007fdea3103d22025c269050bea94c0c84688877f12fa22b7e6d2d5d78a9a49aa1cb600083600f811115610fb357610fb3613437565b60ff1681526020810191909152604001600020546001600160a01b031690508061100b57816040517f812281be0000000000000000000000000000000000000000000000000000000081526004016103db9190613461565b919050565b604080516101008101825260008082526020820181905291810182905260608082018390526080820183905260a0820181905260c082019290925260e08101919091526001600160a01b0380831660009081526020818152604091829020825161010081018452815485168152600182015485169281019290925260028101548416928201929092526003820154831660608201526004820154909216608083015260058101805460a0840191906110c79061346f565b80601f01602080910402602001604051908101604052809291908181526020018280546110f39061346f565b80156111405780601f1061111557610100808354040283529160200191611140565b820191906000526020600020905b81548152906001019060200180831161112357829003601f168201915b50505050508152602001600682015481526020016007820180546111639061346f565b80601f016020809104026020016040519081016040528092919081815260200182805461118f9061346f565b80156111dc5780601f106111b1576101008083540402835291602001916111dc565b820191906000526020600020905b8154815290600101906020018083116111bf57829003601f168201915b5050505050815250509050919050565b60608167ffffffffffffffff8111156112075761120761328e565b604051908082528060200260200182016040528015611230578160200160208202803683370190505b50905060005b82811015610d205761126d84848381811061125357611253613374565b90506020020160208101906112689190612e51565b6115f5565b82828151811061127f5761127f613374565b6001600160a01b0390921660209283029190910190910152600101611236565b807fdea3103d22025c269050bea94c0c84688877f12fa22b7e6d2d5d78a9a49aa1cb600084600f8111156112d5576112d5613437565b60ff168152602081019190915260400160002080546001600160a01b0319166001600160a01b03928316179055811682600f81111561131657611316613437565b6040517f865d1c228a8ea13709cfe61f346f7ff67f1bbd4a18ff31ad3e7147350d317c5990600090a35050565b603354610100900460ff16610f725760405162461bcd60e51b815260206004820152602b60248201527f496e697469616c697a61626c653a20636f6e7472616374206973206e6f74206960448201527f6e697469616c697a696e6700000000000000000000000000000000000000000060648201526084016103db565b6001600160a01b038082166000908152602081905260409020805490911661100b576040517f682a559600000000000000000000000000000000000000000000000000000000815260040160405180910390fd5b60028101546001600160a01b0316331415806114c257506114356008610f7c565b81546040517f46ebb2320000000000000000000000000000000000000000000000000000000081526001600160a01b0391821660048201523360248201529116906346ebb23290604401602060405180830381865afa15801561149c573d6000803e3d6000fd5b505050506040513d601f19601f820116820180604052508101906114c091906134a9565b155b15610c4b576000356001600160e01b0319166004604051620f948f60ea1b81526004016103db9291906134db565b6001600160a01b03811661153257816040517f57ed62e40000000000000000000000000000000000000000000000000000000081526004016103db91906134f9565b610b3b8282611bb6565b61154581611c16565b42600682015550565b600180830180546001600160a01b03908116600090815260026020908152604080832080546001600160a01b03199081169091558854888616808652838620805484169290971691909117909555855416841790945584905291909120805460ff191690921790915560095b83546040516001600160a01b03909116907fe9654874a1d2cdb1459fe91e0442173d77f8e1baa4897e3f5c10e769a1515d0690600090a45050565b600080600061161f846001600160a01b039081166000908152600260205260409020541680151591565b9150915081611665576040517f1e3d646f0000000000000000000000000000000000000000000000000000000081526001600160a01b03851660048201526024016103db565b9392505050565b60006001600061168184805160209091012090565b815260208101919091526040016000205460ff1692915050565b6002820180546001600160a01b0319166001600160a01b0383169081179091556000818152600160208190526040909120805460ff1916909117905560046115ba565b6003820180546001600160a01b0319166001600160a01b0383169081179091556000818152600160208190526040909120805460ff19169091179055600a6115ba565b7fb53127684a568b3173ae13b9f8a6016e243e63b6e8ee1178d6a717850b5d6103546001600160a01b03163314610f7a576000356001600160e01b0319166001604051620f948f60ea1b81526004016103db9291906134db565b806001600160a01b03163b600003610c4b576040517f2ff1928c0000000000000000000000000000000000000000000000000000000081526001600160a01b03821660048201526024016103db565b6117d38161166c565b15610c4b57806040517f7995d6c80000000000000000000000000000000000000000000000000000000081526004016103db9190613507565b61181884848484611c61565b61185657838383836040517f97cf1c8d0000000000000000000000000000000000000000000000000000000081526004016103db9493929190613543565b7fb737fd977072c109cccc97108f9f8a9017af4bbf4d20938a747f17d8921c50a68484848460405161188b9493929190613543565b60405180910390a15b50505050565b8160050180546118a99061346f565b1590506118c357600782016118c160058401826135bd565b505b600582016118d1828261369a565b5060018060006118e684805160209091012090565b815260208101919091526040908101600020805460ff191692151592909217909155825490516001600160a01b03909116907fe13225a225fbfeebd9d707546f3d7adee5d72738ac686cc5b97266c49745a56b90611945908490613507565b60405180910390a25050565b6001600160a01b038316600081815260208190526040902080546001600160a01b0319169091178155611984818561154e565b61198e818461169b565b61199881836116de565b816001600160a01b0316836001600160a01b0316856001600160a01b03167ff865c8ac025e544977905cfe6b3a26ce0c8aa1f9d7049d555d3c04bff7eed68660405160405180910390a450505050565b6119f181610f7c565b6001600160a01b0316336001600160a01b031614610c4b576000356001600160e01b03191681336040517f8383e6340000000000000000000000000000000000000000000000000000000081526004016103db93929190613752565b611a5c600982602001516114f0565b611a6b600482604001516114f0565b611a7a600a82606001516114f0565b610c4b8160a001516117ca565b805182546001600160a01b0319166001600160a01b039091161782556020810151611ab390839061154e565b611ac182826040015161169b565b611acf8282606001516116de565b611add828260800151611d4f565b611aeb828260a0015161189a565b80516040516001600160a01b03909116907fc9da0ae38bd4761b72da1045c9b2618f0cd991dcac01e1f9bbf68474025f074390600090a25050565b466107e514611b3157565b6000611b3b611d9c565b90506000611b476125ae565b90506000611b536125ae565b905060005b604c81101561189457611bae8482604c8110611b7657611b76613374565b60200201518483604c8110611b8d57611b8d613374565b60200201518484604c8110611ba457611ba4613374565b6020020151611951565b600101611b58565b6001600160a01b03811660009081526001602052604090205460ff1615610b3b5781816001600160a01b03166040517fe4166aaa0000000000000000000000000000000000000000000000000000000081526004016103db929190613787565b6003548160060154611c2891906137a2565b421015610c4b576040517f640b308400000000000000000000000000000000000000000000000000000000815260040160405180910390fd5b604051600090606a906001908390611c83908990899089908990602401613543565b60408051601f198184030181529190526020810180517bffffffffffffffffffffffffffffffffffffffffffffffffffffffff167f7eae32c2000000000000000000000000000000000000000000000000000000001790528051909150611ce8612dad565b602083016020828483895afa611cfd57600094505b503d611d0857600093505b83611d3f576040517f0fc2632100000000000000000000000000000000000000000000000000000000815260040160405180910390fd5b5115159998505050505050505050565b6004820180546001600160a01b0319166001600160a01b03831690811790915515610b3b576001600160a01b03166000908152600160208190526040909120805460ff1916909117905550565b611da4612dcb565b506040805161098081018252739687e8c41fa369ad08fd278a43114c4207856a6181527332f66d0f9f19db7b0ef1e9f13160884da65467e7602082015273d682dc6d64710d6191512133de957e146e9aa58e9181019190915273efeaff1d9f1e4edb00c6084ae4016143b29ed92560608201527357b572a9de68bd29074e1c51c790fc45c592ba39608082015273c0c2a56f9606ba109d37a0d18af8e5baa1e1c0ad60a082015273afb9554299491a34d303f2c5a91bebb162f6b2c160c082015273533f61b360e81f58919fab5c653724f71faf12ab60e082015273a87f9a2f0c7082fa2f1e3de1090d36047c7cd018610100820152736693dc258bdaac5052ab678ba5de2440ca1cdab26101208201527396f78323481fc9abdb8cc4d8aa50c1500ac93b9261014082015273e91d1dcd0232bda301379de27bd0ede47db3f75161016082015273981676e5e5164524e70f79ac45b52099ebda878161018082015273795cf28e5b71f1a50cc9e01077891c18d6587e546101a082015273a3b3c71371331fd1901e316b67df2d16bf5535a16101c08201527332be208de8a1595cc0ccf8e984cab8759ea1e5b96101e0820152732dc14d542b5478f206b296acbcbfbccee6e8d24861020082015273da6c7342e90b77c5c77a8f7292765360099e30ee610220820152739d7ea2223e89a55a4ef69ca993eae6fde6e6337161024082015273e8e66b241414a40a3db539ec7d864cd61938f818610260820152738fff45d4a6a27f8256df19d0dadf7787cfbe56aa610280820152739a54edcb1d9a44e9f4235ea05c75b45b266796816102a0820152736108570a29f500d6950febffc99ecb66a264a0496102c082015273da071f710b0f82443866616e8a96069012a73cce6102e0820152735f7f2ae316ec5c092d201744fe8337353adb2bb361030082015273771dec03db66a566a1dfe3fd635b3f8d404b92916103208201527371f9154adc0bef39bbe8db1d060e6f239d2e10ae6103408201527395908d03ba55c2a44688330b59e746fdb2f17e3e610360820152733db3abc65f203788836c8d50f6923c56f3f0ff7c6103808201527305955d9e99f57e5574a1a9b73361dd14aec8d6426103a082015273283b4baa1d0415603c81edc1c68fadd3c790837c6103c0820152732a5eb3f9cd4d6ef49dc2a30041e4421af33039296103e0820152733b9f2587d55e96276b09b258ac909d809961f6c2610400820152732576e6bc92a493f4da6335c5e69bc0c272381c3a610420820152730e3341ae4ed9da65fc30a7fa6357e8b5ac40b0a361044082015273f6fd5fca4bd769ba495b29b98dba5f2ecf4ceed361046082015273d9299fa321407a5d10c73d71c57ca687a2a38af661048082015273877efeffe7a23e42c39e2c99b977e4aa4bec75176104a082015273071b510c415d3f84c6f4c6291c49887cc56cac416104c082015273de5e1554e2bf5d0e54bafc74c932b8f2ad4e27306104e082015273c68d0255e1b9c549c43c7181bd29684dc477edf061050082015273c3fb7b95b874bfcbd1e722a2061f3adf217121d36105208201527336fd0d4a075507a4e742631aa37dad46a1f4c0da61054082015273661549d7717c20ffa62ad359b7667bbf5c82053b61056082015273412d4d69122839fccad0180e9358d157c3876f3d61058082015273355503b8e64205fde9dbbad269110991cf736a516105a08201527312cf444bf83ed5b610d0089927ecd3babc81ff886105c082015273467c5425042c9d9f025265b72c93d73e0f2978c66105e082015273b6bc5bc0410773a3f86b1537ce7495c52e38f88b61060082015273bd6342c0009f55131b7a51f627ce8cc87879dd676106208201527335c78defbd03e96b4e3ee6a73e9cd4c49d2b885a61064082015273ad4e3d2f85b4c095742b500751cee5c4b8f65a5c6106608201527342c535deccc071d9039b177cb3abf30411531b0561068082015273b212f24d850a0ed90f2889dee31870e7ff3fed6c6106a08201527360c8117901ab35738fcfd7157d393207efce80566106c08201527330b0215a442ea3d3088acd83cd5fe2aa2bcd775a6106e082015273d21bece2d8206a3ffdbaedb827f4d4bd0ff79e3d610700820152734efa5c5bbe7a257743335f200e86cd44eea4dcd9610720820152730472dca02318b532fcb0b056661ee7fd2adc8a2161074082015273dd00acc07f3f7afa90b5a22cfd56c0808b6444df610760820152734d3302c69fac489e2f7373bcb2f101d3b378c4cf610780820152738c29604e1cae4af683c4fbdad951f3f855890ea06107a082015273afb9554299491a34d303f2c5a91bebb162f6b2cf6107c082015273f48c06c56d78f5106b8c5fa234fceb1d1c50096b6107e082015273626ece2ad62f59700d2734a523fc6177005ac8b061080082015273c6c15480855add4eebe365c89a9bb6f278e1825461082082015273f6071f7905d4e4b6ebd27b819aaf8923d542fddf610840820152738872fe6335267adb4c40b9f8667095667b55dcd9610860820152734a4bc674a97737376cfe990ae2fe0d2b6e7383936108808201527327550f4b37f0309c56ea67578eb924b4c19eeeb76108a082015273181a053fd961dc1377b84be4e551ce277053e4c06108c082015273f44c500a8515a5acc900c921bc888b5b62da65566108e082015273f20293d569f0ee7eccdef266d86ee382f893286661090082015273b1d4782962a407343aa3765a599637932d241305610920820152737f53d703836abcaf1ca3d5607d80dd7d96e50d026109408201527378fd38faa30ea66702cc39383d2e84f9a4a56fa661096082015290565b6125b6612dcb565b50604080516109808101825273cf0e23aed16d5d971910e748acd48849e4b7239c81527332f66d0f9f19db7b0ef1e9f13160884da65467e6602082015273d682dc6d64710d6191512133de957e146e9aa58f9181019190915273efeaff1d9f1e4edb00c6084ae4016143b29ed924606082015273c2cae7311fc0fe400a838d2dde06a89e1d3e9da7608082015273f90a912fdb7fd37572cd83325392d729e60ef68260a082015273afb9554299491a34d303f2c5a91bebb162f6b2cf60c08201819052738da9d88f90141a03292d5e554691b1f6e7c6212c60e083015273a87f9a2f0c7082fa2f1e3de1090d36047c7cd017610100830152736693dc258bdaac5052ab678ba5de2440ca1cdabe610120830152730b67df5847af7476b2eb46da328638e0fb2c6b2961014083015273e91d1dcd0232bda301379de27bd0ede47db3f75061016083015273dc3de716c4430d598ac504c4685d69d0dce1412f61018083015273795cf28e5b71f1a50cc9e01077891c18d6587e536101a083015273a3b3c71371331fd1901e316b67df2d16bf5535a06101c08301527332be208de8a1595cc0ccf8e984cab8759ea1e5b26101e0830152738136c74e94b08300d71fa6c22087b821f73568c561020083015273da6c7342e90b77c5c77a8f7292765360099e30ed6102208301527395fc818cd7709fb6ad8920d0d14925010504876f61024083015273e8e66b241414a40a3db539ec7d864cd61938f81761026083015273fd575770a68d5af983b2a374981f604ddad9d684610280830152739a54edcb1d9a44e9f4235ea05c75b45b266796806102a0830152736108570a29f500d6950febffc99ecb66a264a0486102c083015273da071f710b0f82443866616e8a96069012a73ccf6102e0830152738a4ac64764238c71ddf82f870be6526e297dc4cd6103008301527333f1727caa54ae24cadb2949881c3725eb61a1006103208301527334db532f09ee1285dfef26ed696c4ea25dcfce7261034083015273302d51189fd89d7e72bcb26a65d16941d043f08961036083015273feb247f76e6f6c1ec3455d04e6e3b694a577d57c6103808301527305955d9e99f57e5574a1a9b73361dd14aec8d6416103a083015273cf9f44ddb18a5538efe2a2a28ef20300333f5a716103c083015273779dce1ddc28941ec85bf2ae0dac9f0f128362816103e0830152730bb270e5268a9e9a0742ddb027fab7405af56fa7610400830152735b92ea265597a7cf20c8da56e6beb8485c1ba993610420830152730e3341ae4ed9da65fc30a7fa6357e8b5ac40b0a361044083015273f6fd5fca4bd769ba495b29b98dba5f2ecf4ceed3610460830152738d0a639bdd3b81df264c4db4647665885823151061048083015273bb046932fefcdd3be4368444a1014f25dfee83f26104a08301527354e09bf04810f387347da6d9687d6a37ec2aadc76104c083015273de5e1554e2bf5d0e54bafc74c932b8f2ad4e273f6104e083015273c68d0255e1b9c549c43c7181bd29684dc477edfc6105008301527337920733db9a5b45fc9cd5e3c80825beffc1a014610520830152737e9107480bf92dd56c97118e20cdb3c1ae9dd86661054083015273c4f83a7b369070e32ced4bd6fd647d19aef828ac61056083015273412d4d69122839fccad0180e9358d157c3876f3c61058083015273355503b8e64205fde9dbbad269110991cf736a506105a083015273306f23c32fdfc07850bf242e8ff59c5e79bff8126105c083015273467c5425042c9d9f025265b72c93d73e0f2978c56105e083015273ee992b0f5e9746fdb8e584efa01af79f6b1c094061060083015273bd6342c0009f55131b7a51f627ce8cc87879dd666106208301527357018e929eb6fe50355bf1bf9d1d39ca466b7fa061064083015273ad4e3d2f85b4c095742b500751cee5c4b8f65a5b6106608301527389a6a074db8bcd3fd60626107ea2ae576693f7c561068083015273cb742186fa056444766fa7cc52a0479e8f6dedea6106a08301527360c8117901ab35738fcfd7157d393207efce80556106c083015273ad70ad152e27e0923c4f11c63490fcfd904a4c366106e083015273d8b47b81648d9e81e50b8ca21ea81f2e1b6929bb61070083015273ecb1374172970a613a1970370b3ddead8f844733610720830152730472dca02318b532fcb0b056661ee7fd2adc8a2061074083015273dd00acc07f3f7afa90b5a22cfd56c0808b6444dd610760830152734d3302c69fac489e2f7373bcb2f101d3b378c4ce61078083015273e7685e437f34de2d36ea2e9ab13e5ab871711a2c6107a08301526107c0820152733f9df0717099baaa95a14b3caa285daddafb06096107e08201527323dffc4a93c374a91fbc1c33075af012b68663f76108008201527379ec4d83d40c1bd1419d8f561be851fda1ea32a6610820820152732d3f28780bfb7ed6fb5547c309e1a6837e5bd12b61084082015273a164e8b5f90ce42b0f531e3882cde3f698e1121f610860820152734a4bc674a97737376cfe990ae2fe0d2b6e73839361088082015273f61806b65278ffdbf8b04f832c59b65076798fb66108a082015273836eeedd931575cce4285c74c15dbda9edc3dc4f6108c082015273bd95b0581585e4151793b183ee75d509fde528b66108e082015273a75b1ce2f8c447cab6c13f313dfd806287aa47e2610900820152734d546475321b4ca2a91b101f26750092c05350cf61092082015273fc2d29da710f45168de11e5c051caa558088d52a610940820152731c70b8160e92d56e550caf02e1f2e5ec0fdb551a61096082015290565b60405180602001604052806001906020820280368337509192915050565b604051806109800160405280604c906020820280368337509192915050565b6001600160a01b0381168114610c4b57600080fd5b60008060408385031215612e1257600080fd5b8235612e1d81612dea565b91506020830135612e2d81612dea565b809150509250929050565b600060208284031215612e4a57600080fd5b5035919050565b600060208284031215612e6357600080fd5b813561166581612dea565b600060208284031215612e8057600080fd5b813567ffffffffffffffff811115612e9757600080fd5b82016040810184101561166557600080fd5b80356010811061100b57600080fd5b60008060408385031215612ecb57600080fd5b612e1d83612ea9565b60008083601f840112612ee657600080fd5b50813567ffffffffffffffff811115612efe57600080fd5b602083019150836020828501011115612f1657600080fd5b9250929050565b600080600080600060608688031215612f3557600080fd5b8535612f4081612dea565b9450602086013567ffffffffffffffff80821115612f5d57600080fd5b612f6989838a01612ed4565b90965094506040880135915080821115612f8257600080fd5b50612f8f88828901612ed4565b969995985093965092949392505050565b600080600060608486031215612fb557600080fd5b8335612fc081612dea565b92506020840135612fd081612dea565b91506040840135612fe081612dea565b809150509250925092565b60008083601f840112612ffd57600080fd5b50813567ffffffffffffffff81111561301557600080fd5b6020830191508360208260051b8501011115612f1657600080fd5b6000806020838503121561304357600080fd5b823567ffffffffffffffff81111561305a57600080fd5b61306685828601612feb565b90969095509350505050565b6020808252825182820181905260009190848201906040850190845b818110156130b35783516001600160a01b03168352928401929184019160010161308e565b50909695505050505050565b600080600080600080600060a0888a0312156130da57600080fd5b87356130e581612dea565b965060208801356130f581612dea565b9550604088013561310581612dea565b9450606088013567ffffffffffffffff8082111561312257600080fd5b61312e8b838c01612ed4565b909650945060808a013591508082111561314757600080fd5b506131548a828b01612ed4565b989b979a50959850939692959293505050565b60006020828403121561317957600080fd5b61166582612ea9565b60005b8381101561319d578181015183820152602001613185565b50506000910152565b600081518084526131be816020860160208601613182565b601f01601f19169290920160200192915050565b602081526001600160a01b0382511660208201526000602083015161320260408401826001600160a01b03169052565b5060408301516001600160a01b03811660608401525060608301516001600160a01b03811660808401525060808301516001600160a01b03811660a08401525060a08301516101008060c085015261325e6101208501836131a6565b915060c085015160e085015260e0850151601f19858403018286015261328483826131a6565b9695505050505050565b634e487b7160e01b600052604160045260246000fd5b805161100b81612dea565b600060208083850312156132c257600080fd5b825167ffffffffffffffff808211156132da57600080fd5b818501915085601f8301126132ee57600080fd5b8151818111156133005761330061328e565b8060051b604051601f19603f830116810181811085821117156133255761332561328e565b60405291825284820192508381018501918883111561334357600080fd5b938501935b8285101561336857613359856132a4565b84529385019392850192613348565b98975050505050505050565b634e487b7160e01b600052603260045260246000fd5b6000825161339c818460208701613182565b9190910192915050565b6000808335601e198436030181126133bd57600080fd5b83018035915067ffffffffffffffff8211156133d857600080fd5b6020019150600581901b3603821315612f1657600080fd5b6000808335601e1984360301811261340757600080fd5b83018035915067ffffffffffffffff82111561342257600080fd5b602001915036819003821315612f1657600080fd5b634e487b7160e01b600052602160045260246000fd5b6010811061345d5761345d613437565b9052565b60208101610857828461344d565b600181811c9082168061348357607f821691505b6020821081036134a357634e487b7160e01b600052602260045260246000fd5b50919050565b6000602082840312156134bb57600080fd5b8151801515811461166557600080fd5b600b811061345d5761345d613437565b6001600160e01b0319831681526040810161166560208301846134cb565b6020810161085782846134cb565b60208152600061166560208301846131a6565b81835281816020850137506000828201602090810191909152601f909101601f19169091010190565b60408152600061355760408301868861351a565b828103602084015261356a81858761351a565b979650505050505050565b601f821115610c35576000816000526020600020601f850160051c8101602086101561359e5750805b601f850160051c820191505b81811015610c1a578281556001016135aa565b8181036135c8575050565b6135d2825461346f565b67ffffffffffffffff8111156135ea576135ea61328e565b6135fe816135f8845461346f565b84613575565b6000601f821160018114613632576000831561361a5750848201545b600019600385901b1c1916600184901b178455610b19565b600085815260209020601f19841690600086815260209020845b8381101561366c578286015482556001958601959091019060200161364c565b508583101561368a5781850154600019600388901b60f8161c191681555b5050505050600190811b01905550565b815167ffffffffffffffff8111156136b4576136b461328e565b6136c2816135f8845461346f565b602080601f8311600181146136f757600084156136df5750858301515b600019600386901b1c1916600185901b178555610c1a565b600085815260208120601f198616915b8281101561372657888601518255948401946001909101908401613707565b508582101561368a57939096015160001960f8600387901b161c19169092555050600190811b01905550565b6001600160e01b03198416815260608101613770602083018561344d565b6001600160a01b0383166040830152949350505050565b6040810161379582856134cb565b8260208301529392505050565b8082018082111561085757634e487b7160e01b600052601160045260246000fdfea2646970667358221220f8add6499381888e721da7bb22c411261bd71a58513179d70bc1a047e940b81364736f6c63430008160033",
  "chainId": 2021,
  "contractAbsolutePath": "Profile_Testnet.sol",
  "deployer": "0x31762cdd4Aa65CD6f5F09D7a05a56211720A1168",
  "devdoc": {
    "version": 1,
    "kind": "dev",
    "methods": {
      "arePublicKeysRegistered(bytes[][2])": {
        "details": "Cross-contract function to for slash indicator to check the list of public keys in finality slash proof Returns whether all public keys are registered."
      },
      "changePubkey(address,bytes,bytes)": {
        "details": "Requirements: - The profile must be existed. - Only user with candidate admin role can call this method. - New public key must not be duplicated. - The proof of public key possession must be verified successfully. - The public key change cooldown must be ended."
      },
      "execApplyValidatorCandidate(address,address,address,bytes,bytes)": {
        "details": "Cross-contract function to add/update new profile of a validator candidate when they applying for candidate role. Requirements: - Only `stakingContract` can call this method."
      },
      "getConsensus2Id(address)": {
        "details": "Getter to backward query from `consensus` address to `id` address, revert if not found."
      },
      "getContract(uint8)": {
        "details": "Returns the address of a contract with a specific role. Throws an error if no contract is set for the specified role.",
        "params": {
          "contractType": "The role of the contract to retrieve."
        },
        "returns": {
          "contract_": "The address of the contract with the specified role."
        }
      },
      "getCooldownConfig()": {
        "details": "Returns the config of cool down on change profile info."
      },
      "getId2Profile(address)": {
        "details": "Getter to query full `profile` from `id` address."
      },
      "getManyConsensus2Id(address[])": {
        "details": "Getter to backward batch query from `consensus` address to `id` address."
      },
      "getManyId2Consensus(address[])": {
        "details": "Getter to batch query from `id` to `consensus`, return address(0) if the profile not exist."
      },
      "precompileVerifyBLSPublicKeyAddress()": {
        "details": "Gets the address of the precompile of validating double sign evidence"
      },
      "requestChangeAdminAddress(address,address)": {
        "details": "Side-effects on other contracts: - Update Staking contract:    + [x] Update (id => PoolDetail) mapping in {BaseStaking.sol}.    + [x] Update `_adminOfActivePoolMapping` in {BaseStaking.sol}.    + [x] Move staking amount of previous admin to the the new admin. - Update Validator contract:    + [x] Update (id => ValidatorCandidate) mapping - See other side-effects for treasury in {requestChangeTreasuryAddr}, since treasury and admin must be identical."
      },
      "requestChangeConsensusAddr(address,address)": {
        "details": "Side-effects on other contracts: - Update in Staking contract for Consensus address mapping:   + [x] Keep the same previous pool address. - Update in Validator contract for:   + [x] Consensus Address mapping   + [x] Bridge Address mapping   + [x] Jail mapping   + [x] Pending reward mapping   + [x] Schedule mapping - Update in Slashing contract for:   + [x] Handling slash indicator   + [x] Handling slash fast finality   + [x] Handling slash double sign - Update in Proposal contract for:   + [-] Preserve the consensus address and recipient target of locked amount of emergency exit - Update Trusted Org contracts:   + If the current consensus is governor:      - [x] Remove and delete weight of the old consensus      - [x] Replace and add weight for the new consensus   + If the current consensus is not governor:      - [x] Do nothing"
      },
      "requestChangeTreasuryAddr(address,address)": {
        "details": "Side-effects on other contracts: - Update Validator contract:    + [x] Update (id => ValidatorCandidate) mapping - Update governance admin:    + [-] Update recipient in the EmergencyExitBallot to the newTreasury.          Cannot impl since we cannot cancel the previous the ballot and          create a new ballot on behalf of the validator contract."
      },
      "setContract(uint8,address)": {
        "details": "Sets the address of a contract with a specific role. Emits the event {ContractUpdated}.",
        "params": {
          "addr": "The address of the contract to set.",
          "contractType": "The role of the contract to set."
        }
      },
      "setCooldownConfig(uint256)": {
        "details": "Change the cooldown between 2 public key change Requirement:  - Only admin can call this method"
      },
      "tryGetConsensus2Id(address)": {
        "details": "Getter to backward query from `consensus` address to `id` address."
      }
    },
    "events": {
      "ConsensusAddressOfNonGovernorChanged(address)": {
        "details": "Event emitted when the consensus of a non-governor profile is changed."
      },
      "ContractUpdated(uint8,address)": {
        "details": "Emitted when a contract is updated."
      },
      "Initialized(uint8)": {
        "details": "Triggered when the contract has been initialized or reinitialized."
      },
      "ProfileAdded(address)": {
        "details": "Event emitted when a profile with `id` is added."
      },
      "ProfileAddressChanged(address,uint8,address)": {
        "details": "Event emitted when a address in a profile is changed."
      },
      "ProfileMigrated(address,address,address)": {
        "details": "Event emitted when the profile is migrated (mostly when REP-4 update)."
      },
      "PubkeyChanged(address,bytes)": {
        "details": "Event emitted when the pubkey of the `id` is changed."
      },
      "PubkeyVerified(bytes,bytes)": {
        "details": "Event emitted when the pubkey is verified successfully."
      }
    },
    "errors": {
      "ErrCallPrecompiled()": [
        {
          "details": "Error of call to precompile fails."
        }
      ],
      "ErrContractTypeNotFound(uint8)": [
        {
          "details": "Error of invalid role."
        }
      ],
      "ErrDuplicatedInfo(uint8,uint256)": [
        {
          "details": "Error when there is a duplicated info of `value`, which is uin256-padding value of any address or hash of public key, and with value type of `infoType`."
        }
      ],
      "ErrExistentProfile()": [
        {
          "details": "Error of already existed profile."
        }
      ],
      "ErrIdAndConsensusDiffer()": [
        {
          "details": "Error when create a new profile whose id and consensus are not identical."
        }
      ],
      "ErrNonExistentProfile()": [
        {
          "details": "Error of non existed profile."
        }
      ],
      "ErrProfileChangeCooldownNotEnded()": [
        {
          "details": "Error when failed to change any address or pubkey in the profile because cooldown is not ended."
        }
      ],
      "ErrUnauthorized(bytes4,uint8)": [
        {
          "details": "Error indicating that the caller is unauthorized to perform a specific function.",
          "params": {
            "expectedRole": "The role required to perform the function.",
            "msgSig": "The function signature (bytes4) that the caller is unauthorized to perform."
          }
        }
      ],
      "ErrUnexpectedInternalCall(bytes4,uint8,address)": [
        {
          "details": "Error indicating that the caller is unauthorized to perform a specific function.",
          "params": {
            "actual": "The actual address that called to the function.",
            "expectedContractType": "The contract type required to perform the function.",
            "msgSig": "The function signature (bytes4)."
          }
        }
      ],
      "ErrZeroCodeContract(address)": [
        {
          "details": "Error of set to non-contract."
        }
      ]
    }
  },
  "isFoundry": true,
  "nonce": 32,
  "numDeployments": 17,
  "storageLayout": {
    "storage": [
      {
        "astId": 26007,
        "contract": "contracts/ronin/profile/Profile_Testnet.sol:Profile_Testnet",
        "label": "_id2Profile",
        "offset": 0,
        "slot": "0",
        "type": "t_mapping(t_address,t_struct(CandidateProfile)7157_storage)"
      },
      {
        "astId": 26012,
        "contract": "contracts/ronin/profile/Profile_Testnet.sol:Profile_Testnet",
        "label": "_registry",
        "offset": 0,
        "slot": "1",
        "type": "t_mapping(t_uint256,t_bool)"
      },
      {
        "astId": 26018,
        "contract": "contracts/ronin/profile/Profile_Testnet.sol:Profile_Testnet",
        "label": "_consensus2Id",
        "offset": 0,
        "slot": "2",
        "type": "t_mapping(t_userDefinedValueType(TConsensus)37191,t_address)"
      },
      {
        "astId": 26021,
        "contract": "contracts/ronin/profile/Profile_Testnet.sol:Profile_Testnet",
        "label": "_profileChangeCooldown",
        "offset": 0,
        "slot": "3",
        "type": "t_uint256"
      },
      {
        "astId": 26026,
        "contract": "contracts/ronin/profile/Profile_Testnet.sol:Profile_Testnet",
        "label": "__gap",
        "offset": 0,
        "slot": "4",
        "type": "t_array(t_bytes32)47_storage"
      },
      {
        "astId": 149318,
        "contract": "contracts/ronin/profile/Profile_Testnet.sol:Profile_Testnet",
        "label": "_initialized",
        "offset": 0,
        "slot": "51",
        "type": "t_uint8"
      },
      {
        "astId": 149321,
        "contract": "contracts/ronin/profile/Profile_Testnet.sol:Profile_Testnet",
        "label": "_initializing",
        "offset": 1,
        "slot": "51",
        "type": "t_bool"
      }
    ],
    "types": {
      "t_address": {
        "encoding": "inplace",
        "label": "address",
        "numberOfBytes": "20"
      },
      "t_address_payable": {
        "encoding": "inplace",
        "label": "address payable",
        "numberOfBytes": "20"
      },
      "t_array(t_bytes32)47_storage": {
        "encoding": "inplace",
        "label": "bytes32[47]",
        "numberOfBytes": "1504",
        "base": "t_bytes32"
      },
      "t_bool": {
        "encoding": "inplace",
        "label": "bool",
        "numberOfBytes": "1"
      },
      "t_bytes32": {
        "encoding": "inplace",
        "label": "bytes32",
        "numberOfBytes": "32"
      },
      "t_bytes_storage": {
        "encoding": "bytes",
        "label": "bytes",
        "numberOfBytes": "32"
      },
      "t_mapping(t_address,t_struct(CandidateProfile)7157_storage)": {
        "encoding": "mapping",
        "key": "t_address",
        "label": "mapping(address => struct IProfile.CandidateProfile)",
        "numberOfBytes": "32",
        "value": "t_struct(CandidateProfile)7157_storage"
      },
      "t_mapping(t_uint256,t_bool)": {
        "encoding": "mapping",
        "key": "t_uint256",
        "label": "mapping(uint256 => bool)",
        "numberOfBytes": "32",
        "value": "t_bool"
      },
      "t_mapping(t_userDefinedValueType(TConsensus)37191,t_address)": {
        "encoding": "mapping",
        "key": "t_userDefinedValueType(TConsensus)37191",
        "label": "mapping(TConsensus => address)",
        "numberOfBytes": "32",
        "value": "t_address"
      },
      "t_struct(CandidateProfile)7157_storage": {
        "encoding": "inplace",
        "label": "struct IProfile.CandidateProfile",
        "numberOfBytes": "256",
        "members": [
          {
            "astId": 7134,
            "contract": "contracts/ronin/profile/Profile_Testnet.sol:Profile_Testnet",
            "label": "id",
            "offset": 0,
            "slot": "0",
            "type": "t_address"
          },
          {
            "astId": 7138,
            "contract": "contracts/ronin/profile/Profile_Testnet.sol:Profile_Testnet",
            "label": "consensus",
            "offset": 0,
            "slot": "1",
            "type": "t_userDefinedValueType(TConsensus)37191"
          },
          {
            "astId": 7141,
            "contract": "contracts/ronin/profile/Profile_Testnet.sol:Profile_Testnet",
            "label": "admin",
            "offset": 0,
            "slot": "2",
            "type": "t_address"
          },
          {
            "astId": 7144,
            "contract": "contracts/ronin/profile/Profile_Testnet.sol:Profile_Testnet",
            "label": "treasury",
            "offset": 0,
            "slot": "3",
            "type": "t_address_payable"
          },
          {
            "astId": 7147,
            "contract": "contracts/ronin/profile/Profile_Testnet.sol:Profile_Testnet",
            "label": "__reservedGovernor",
            "offset": 0,
            "slot": "4",
            "type": "t_address"
          },
          {
            "astId": 7150,
            "contract": "contracts/ronin/profile/Profile_Testnet.sol:Profile_Testnet",
            "label": "pubkey",
            "offset": 0,
            "slot": "5",
            "type": "t_bytes_storage"
          },
          {
            "astId": 7153,
            "contract": "contracts/ronin/profile/Profile_Testnet.sol:Profile_Testnet",
            "label": "profileLastChange",
            "offset": 0,
            "slot": "6",
            "type": "t_uint256"
          },
          {
            "astId": 7156,
            "contract": "contracts/ronin/profile/Profile_Testnet.sol:Profile_Testnet",
            "label": "oldPubkey",
            "offset": 0,
            "slot": "7",
            "type": "t_bytes_storage"
          }
        ]
      },
      "t_uint256": {
        "encoding": "inplace",
        "label": "uint256",
        "numberOfBytes": "32"
      },
      "t_uint8": {
        "encoding": "inplace",
        "label": "uint8",
        "numberOfBytes": "1"
      },
      "t_userDefinedValueType(TConsensus)37191": {
        "encoding": "inplace",
        "label": "TConsensus",
        "numberOfBytes": "20"
      }
    }
  },
  "timestamp": 1708659212,
  "userdoc": {
    "version": 1,
    "kind": "user",
    "methods": {
      "changePubkey(address,bytes,bytes)": {
        "notice": "The candidate admin changes the public key."
      },
      "requestChangeTreasuryAddr(address,address)": {
        "notice": "This method is not supported. Change treasury also requires changing the admin address. Using the {requestChangeAdminAddress} method instead"
      }
    }
  }
}