{
  "abi": [
    {
      "type": "constructor",
      "inputs": [],
      "stateMutability": "nonpayable"
    },
    {
      "type": "function",
      "name": "addNewProfile",
      "inputs": [
        {
          "name": "profile",
          "type": "tuple",
          "internalType": "struct IProfile.CandidateProfile",
          "components": [
            {
              "name": "id",
              "type": "address",
              "internalType": "address"
            },
            {
              "name": "consensus",
              "type": "address",
              "internalType": "TConsensus"
            },
            {
              "name": "admin",
              "type": "address",
              "internalType": "address"
            },
            {
              "name": "treasury",
              "type": "address",
              "internalType": "address payable"
            },
            {
              "name": "__reservedGovernor",
              "type": "address",
              "internalType": "address"
            },
            {
              "name": "pubkey",
              "type": "bytes",
              "internalType": "bytes"
            },
            {
              "name": "pubkeyLastChange",
              "type": "uint256",
              "internalType": "uint256"
            },
            {
              "name": "oldPubkey",
              "type": "bytes",
              "internalType": "bytes"
            }
          ]
        }
      ],
      "outputs": [],
      "stateMutability": "nonpayable"
    },
    {
      "type": "function",
      "name": "arePublicKeysRegistered",
      "inputs": [
        {
          "name": "listOfPublicKey",
          "type": "bytes[][2]",
          "internalType": "bytes[][2]"
        }
      ],
      "outputs": [
        {
          "name": "",
          "type": "bool",
          "internalType": "bool"
        }
      ],
      "stateMutability": "view"
    },
    {
      "type": "function",
      "name": "changePubkey",
      "inputs": [
        {
          "name": "id",
          "type": "address",
          "internalType": "address"
        },
        {
          "name": "pubkey",
          "type": "bytes",
          "internalType": "bytes"
        },
        {
          "name": "proofOfPossession",
          "type": "bytes",
          "internalType": "bytes"
        }
      ],
      "outputs": [],
      "stateMutability": "nonpayable"
    },
    {
      "type": "function",
      "name": "execApplyValidatorCandidate",
      "inputs": [
        {
          "name": "admin",
          "type": "address",
          "internalType": "address"
        },
        {
          "name": "id",
          "type": "address",
          "internalType": "address"
        },
        {
          "name": "treasury",
          "type": "address",
          "internalType": "address"
        },
        {
          "name": "pubkey",
          "type": "bytes",
          "internalType": "bytes"
        },
        {
          "name": "proofOfPossession",
          "type": "bytes",
          "internalType": "bytes"
        }
      ],
      "outputs": [],
      "stateMutability": "nonpayable"
    },
    {
      "type": "function",
      "name": "getConsensus2Id",
      "inputs": [
        {
          "name": "consensus",
          "type": "address",
          "internalType": "TConsensus"
        }
      ],
      "outputs": [
        {
          "name": "",
          "type": "address",
          "internalType": "address"
        }
      ],
      "stateMutability": "view"
    },
    {
      "type": "function",
      "name": "getContract",
      "inputs": [
        {
          "name": "contractType",
          "type": "uint8",
          "internalType": "enum ContractType"
        }
      ],
      "outputs": [
        {
          "name": "contract_",
          "type": "address",
          "internalType": "address"
        }
      ],
      "stateMutability": "view"
    },
    {
      "type": "function",
      "name": "getId2Profile",
      "inputs": [
        {
          "name": "id",
          "type": "address",
          "internalType": "address"
        }
      ],
      "outputs": [
        {
          "name": "",
          "type": "tuple",
          "internalType": "struct IProfile.CandidateProfile",
          "components": [
            {
              "name": "id",
              "type": "address",
              "internalType": "address"
            },
            {
              "name": "consensus",
              "type": "address",
              "internalType": "TConsensus"
            },
            {
              "name": "admin",
              "type": "address",
              "internalType": "address"
            },
            {
              "name": "treasury",
              "type": "address",
              "internalType": "address payable"
            },
            {
              "name": "__reservedGovernor",
              "type": "address",
              "internalType": "address"
            },
            {
              "name": "pubkey",
              "type": "bytes",
              "internalType": "bytes"
            },
            {
              "name": "pubkeyLastChange",
              "type": "uint256",
              "internalType": "uint256"
            },
            {
              "name": "oldPubkey",
              "type": "bytes",
              "internalType": "bytes"
            }
          ]
        }
      ],
      "stateMutability": "view"
    },
    {
      "type": "function",
      "name": "getManyConsensus2Id",
      "inputs": [
        {
          "name": "consensusList",
          "type": "address[]",
          "internalType": "TConsensus[]"
        }
      ],
      "outputs": [
        {
          "name": "idList",
          "type": "address[]",
          "internalType": "address[]"
        }
      ],
      "stateMutability": "view"
    },
    {
      "type": "function",
      "name": "getManyId2Consensus",
      "inputs": [
        {
          "name": "idList",
          "type": "address[]",
          "internalType": "address[]"
        }
      ],
      "outputs": [
        {
          "name": "consensusList",
          "type": "address[]",
          "internalType": "TConsensus[]"
        }
      ],
      "stateMutability": "view"
    },
    {
      "type": "function",
      "name": "initialize",
      "inputs": [
        {
          "name": "validatorContract",
          "type": "address",
          "internalType": "address"
        }
      ],
      "outputs": [],
      "stateMutability": "nonpayable"
    },
    {
      "type": "function",
      "name": "initializeV2",
      "inputs": [
        {
          "name": "stakingContract",
          "type": "address",
          "internalType": "address"
        },
        {
          "name": "trustedOrgContract",
          "type": "address",
          "internalType": "address"
        }
      ],
      "outputs": [],
      "stateMutability": "nonpayable"
    },
    {
      "type": "function",
      "name": "initializeV3",
      "inputs": [
        {
          "name": "cooldown",
          "type": "uint256",
          "internalType": "uint256"
        }
      ],
      "outputs": [],
      "stateMutability": "nonpayable"
    },
    {
      "type": "function",
      "name": "precompileVerifyBLSPublicKeyAddress",
      "inputs": [],
      "outputs": [
        {
          "name": "",
          "type": "address",
          "internalType": "address"
        }
      ],
      "stateMutability": "view"
    },
    {
      "type": "function",
      "name": "requestChangeAdminAddress",
      "inputs": [
        {
          "name": "id",
          "type": "address",
          "internalType": "address"
        },
        {
          "name": "newAdminAddr",
          "type": "address",
          "internalType": "address"
        }
      ],
      "outputs": [],
      "stateMutability": "nonpayable"
    },
    {
      "type": "function",
      "name": "requestChangeConsensusAddr",
      "inputs": [
        {
          "name": "id",
          "type": "address",
          "internalType": "address"
        },
        {
          "name": "newConsensusAddr",
          "type": "address",
          "internalType": "TConsensus"
        }
      ],
      "outputs": [],
      "stateMutability": "nonpayable"
    },
    {
      "type": "function",
      "name": "requestChangeTreasuryAddr",
      "inputs": [
        {
          "name": "",
          "type": "address",
          "internalType": "address"
        },
        {
          "name": "",
          "type": "address",
          "internalType": "address payable"
        }
      ],
      "outputs": [],
      "stateMutability": "pure"
    },
    {
      "type": "function",
      "name": "setContract",
      "inputs": [
        {
          "name": "contractType",
          "type": "uint8",
          "internalType": "enum ContractType"
        },
        {
          "name": "addr",
          "type": "address",
          "internalType": "address"
        }
      ],
      "outputs": [],
      "stateMutability": "nonpayable"
    },
    {
      "type": "function",
      "name": "setPubkeyChangeCooldown",
      "inputs": [
        {
          "name": "cooldown",
          "type": "uint256",
          "internalType": "uint256"
        }
      ],
      "outputs": [],
      "stateMutability": "nonpayable"
    },
    {
      "type": "function",
      "name": "tryGetConsensus2Id",
      "inputs": [
        {
          "name": "consensus",
          "type": "address",
          "internalType": "TConsensus"
        }
      ],
      "outputs": [
        {
          "name": "found",
          "type": "bool",
          "internalType": "bool"
        },
        {
          "name": "id",
          "type": "address",
          "internalType": "address"
        }
      ],
      "stateMutability": "view"
    },
    {
      "type": "event",
      "name": "ConsensusAddressOfNonGovernorChanged",
      "inputs": [
        {
          "name": "id",
          "type": "address",
          "indexed": true,
          "internalType": "address"
        }
      ],
      "anonymous": false
    },
    {
      "type": "event",
      "name": "ContractUpdated",
      "inputs": [
        {
          "name": "contractType",
          "type": "uint8",
          "indexed": true,
          "internalType": "enum ContractType"
        },
        {
          "name": "addr",
          "type": "address",
          "indexed": true,
          "internalType": "address"
        }
      ],
      "anonymous": false
    },
    {
      "type": "event",
      "name": "Initialized",
      "inputs": [
        {
          "name": "version",
          "type": "uint8",
          "indexed": false,
          "internalType": "uint8"
        }
      ],
      "anonymous": false
    },
    {
      "type": "event",
      "name": "ProfileAdded",
      "inputs": [
        {
          "name": "id",
          "type": "address",
          "indexed": true,
          "internalType": "address"
        }
      ],
      "anonymous": false
    },
    {
      "type": "event",
      "name": "ProfileAddressChanged",
      "inputs": [
        {
          "name": "id",
          "type": "address",
          "indexed": true,
          "internalType": "address"
        },
        {
          "name": "addressType",
          "type": "uint8",
          "indexed": true,
          "internalType": "enum RoleAccess"
        },
        {
          "name": "addr",
          "type": "address",
          "indexed": true,
          "internalType": "address"
        }
      ],
      "anonymous": false
    },
    {
      "type": "event",
      "name": "ProfileMigrated",
      "inputs": [
        {
          "name": "id",
          "type": "address",
          "indexed": true,
          "internalType": "address"
        },
        {
          "name": "admin",
          "type": "address",
          "indexed": true,
          "internalType": "address"
        },
        {
          "name": "treasury",
          "type": "address",
          "indexed": true,
          "internalType": "address"
        }
      ],
      "anonymous": false
    },
    {
      "type": "event",
      "name": "PubkeyChanged",
      "inputs": [
        {
          "name": "id",
          "type": "address",
          "indexed": true,
          "internalType": "address"
        },
        {
          "name": "pubkey",
          "type": "bytes",
          "indexed": false,
          "internalType": "bytes"
        }
      ],
      "anonymous": false
    },
    {
      "type": "event",
      "name": "PubkeyVerified",
      "inputs": [
        {
          "name": "pubkey",
          "type": "bytes",
          "indexed": false,
          "internalType": "bytes"
        },
        {
          "name": "proofOfPossession",
          "type": "bytes",
          "indexed": false,
          "internalType": "bytes"
        }
      ],
      "anonymous": false
    },
    {
      "type": "error",
      "name": "ErrCallPrecompiled",
      "inputs": []
    },
    {
      "type": "error",
      "name": "ErrContractTypeNotFound",
      "inputs": [
        {
          "name": "contractType",
          "type": "uint8",
          "internalType": "enum ContractType"
        }
      ]
    },
    {
      "type": "error",
      "name": "ErrDuplicatedInfo",
      "inputs": [
        {
          "name": "infoType",
          "type": "uint8",
          "internalType": "enum RoleAccess"
        },
        {
          "name": "value",
          "type": "uint256",
          "internalType": "uint256"
        }
      ]
    },
    {
      "type": "error",
      "name": "ErrDuplicatedPubkey",
      "inputs": [
        {
          "name": "pubkey",
          "type": "bytes",
          "internalType": "bytes"
        }
      ]
    },
    {
      "type": "error",
      "name": "ErrExistentProfile",
      "inputs": []
    },
    {
      "type": "error",
      "name": "ErrIdAndConsensusDiffer",
      "inputs": []
    },
    {
      "type": "error",
      "name": "ErrInvalidProofOfPossession",
      "inputs": [
        {
          "name": "pubkey",
          "type": "bytes",
          "internalType": "bytes"
        },
        {
          "name": "proofOfPossession",
          "type": "bytes",
          "internalType": "bytes"
        }
      ]
    },
    {
      "type": "error",
      "name": "ErrLookUpIdFailed",
      "inputs": [
        {
          "name": "consensus",
          "type": "address",
          "internalType": "TConsensus"
        }
      ]
    },
    {
      "type": "error",
      "name": "ErrNonExistentProfile",
      "inputs": []
    },
    {
      "type": "error",
      "name": "ErrPubkeyChangeCooldownNotEnded",
      "inputs": []
    },
    {
      "type": "error",
      "name": "ErrUnauthorized",
      "inputs": [
        {
          "name": "msgSig",
          "type": "bytes4",
          "internalType": "bytes4"
        },
        {
          "name": "expectedRole",
          "type": "uint8",
          "internalType": "enum RoleAccess"
        }
      ]
    },
    {
      "type": "error",
      "name": "ErrUnexpectedInternalCall",
      "inputs": [
        {
          "name": "msgSig",
          "type": "bytes4",
          "internalType": "bytes4"
        },
        {
          "name": "expectedContractType",
          "type": "uint8",
          "internalType": "enum ContractType"
        },
        {
          "name": "actual",
          "type": "address",
          "internalType": "address"
        }
      ]
    },
    {
      "type": "error",
      "name": "ErrZeroAddress",
      "inputs": [
        {
          "name": "infoType",
          "type": "uint8",
          "internalType": "enum RoleAccess"
        }
      ]
    },
    {
      "type": "error",
      "name": "ErrZeroCodeContract",
      "inputs": [
        {
          "name": "addr",
          "type": "address",
          "internalType": "address"
        }
      ]
    },
    {
      "type": "error",
      "name": "ErrZeroPubkey",
      "inputs": []
    }
  ],
  "address": "0x7Cf439eeE8e5b8Fb4Ea9ab04D6CEe2999aFFCfaD",
  "args": "0x",
  "blockNumber": 24874524,
  "bytecode": "0x60806040523480156200001157600080fd5b506200001c62000022565b620000e4565b603354610100900460ff16156200008f5760405162461bcd60e51b815260206004820152602760248201527f496e697469616c697a61626c653a20636f6e747261637420697320696e697469604482015266616c697a696e6760c81b606482015260840160405180910390fd5b60335460ff9081161015620000e2576033805460ff191660ff9081179091556040519081527f7f26b83ff96e1f2b6a682f133852f6798a09c465da95921460cefb38474024989060200160405180910390a15b565b61273f80620000f46000396000f3fe608060405234801561001057600080fd5b50600436106101515760003560e01c806398a02c2c116100cd578063c4d66de811610081578063de981f1b11610066578063de981f1b146102d5578063f4660940146102e8578063f9226b1a1461030857600080fd5b8063c4d66de8146102af578063d1cb8830146102c257600080fd5b8063b0abaea6116100b2578063b0abaea614610275578063b261596f1461027c578063b5017aef1461029c57600080fd5b806398a02c2c1461024f5780639a1a05e01461026257600080fd5b806350a9fc291161012457806384cb10101161010957806384cb1010146101f7578063865e6fd31461020a57806388660f2a1461021d57600080fd5b806350a9fc29146101a45780637e18b566146101d457600080fd5b80630840ba7214610156578063183584c11461016b5780631f97bdb11461017e5780633c3d841014610191575b600080fd5b610169610164366004611bed565b61031b565b005b610169610179366004611bed565b6104e8565b61016961018c366004611bed565b610530565b61016961019f366004611c26565b610714565b6101b76101b2366004611c3f565b6107fc565b6040516001600160a01b0390911681526020015b60405180910390f35b6101e76101e2366004611c5c565b61080d565b60405190151581526020016101cb565b610169610205366004611bed565b6108f1565b610169610218366004611ca6565b610ac7565b61023061022b366004611c3f565b610ae6565b6040805192151583526001600160a01b039091166020830152016101cb565b61016961025d366004611c26565b610b17565b610169610270366004611d0b565b610b2b565b606a6101b7565b61028f61028a366004611dd3565b610bdd565b6040516101cb9190611e15565b6101696102aa366004611e62565b610cb6565b6101696102bd366004611c3f565b610dd3565b6101696102d0366004611feb565b610ee0565b6101b76102e33660046120dc565b610f30565b6102fb6102f6366004611c3f565b610fc4565b6040516101cb9190612147565b61028f610316366004611dd3565b6111a0565b603354600290610100900460ff1615801561033d575060335460ff8083169116105b6103a55760405162461bcd60e51b815260206004820152602e60248201527f496e697469616c697a61626c653a20636f6e747261637420697320616c72656160448201526d191e481a5b9a5d1a585b1a5e995960921b60648201526084015b60405180910390fd5b6033805461ffff191660ff8316176101001790556103c4600984611253565b6103cf600a83611253565b60006103db6008610f30565b6001600160a01b031663ba77b06c6040518163ffffffff1660e01b8152600401600060405180830381865afa158015610418573d6000803e3d6000fd5b505050506040513d6000823e601f3d908101601f191682016040526104409190810190612203565b905060005b81518110156104a0576000828281518110610462576104626122b5565b6020908102919091018101516001600160a01b031660008181526002909252604090912080546001600160a01b031916909117905550600101610445565b50506033805461ff001916905560405160ff821681527f7f26b83ff96e1f2b6a682f133852f6798a09c465da95921460cefb38474024989060200160405180910390a1505050565b60405162461bcd60e51b815260206004820152600d60248201527f4e6f7420737570706f7274656400000000000000000000000000000000000000604482015260640161039c565b600061053b836112f9565b90506105468161134d565b610551600983611429565b60018101546001600160a01b0316600061056b6008610f30565b6040517fd93fa3060000000000000000000000000000000000000000000000000000000081526001600160a01b03878116600483015286811660248301529192509082169063d93fa30690604401600060405180830381600087803b1580156105d357600080fd5b505af11580156105e7573d6000803e3d6000fd5b5050505060006105f7600a610f30565b6040516001600160a01b038581166024830152878116604483015291925060009183169060640160408051601f198184030181529181526020820180517bffffffffffffffffffffffffffffffffffffffffffffffffffffffff167fa0c302a7000000000000000000000000000000000000000000000000000000001790525161068191906122cb565b6000604051808303816000865af19150503d80600081146106be576040519150601f19603f3d011682016040523d82523d6000602084013e6106c3565b606091505b5050905080610701576040516001600160a01b038816907f940589fcab729233e520a0b808ffeabac5a6e90603d892a31cd4609b32547dd990600090a25b61070b8587611475565b50505050505050565b603354600390610100900460ff16158015610736575060335460ff8083169116105b6107995760405162461bcd60e51b815260206004820152602e60248201527f496e697469616c697a61626c653a20636f6e747261637420697320616c72656160448201526d191e481a5b9a5d1a585b1a5e995960921b606482015260840161039c565b6033805461ffff191660ff8316176101001790556107b682600355565b6033805461ff001916905560405160ff821681527f7f26b83ff96e1f2b6a682f133852f6798a09c465da95921460cefb3847402498906020015b60405180910390a15050565b60006108078261151c565b92915050565b6000805b60028110156108e85760005b83826002811061082f5761082f6122b5565b60200281019061083f91906122e7565b90508110156108df576108c984836002811061085d5761085d6122b5565b60200281019061086d91906122e7565b8381811061087d5761087d6122b5565b905060200281019061088f9190612331565b8080601f01602080910402602001604051908101604052809392919081815260200183838082843760009201919091525061159392505050565b6108d7575060009392505050565b60010161081d565b50600101610811565b50600192915050565b60006108fc836112f9565b90506109078161134d565b610912600483611429565b600061091e6009610f30565b6040517f9ee3c3f80000000000000000000000000000000000000000000000000000000081526001600160a01b038681166004830152336024830152858116604483015291925090821690639ee3c3f890606401600060405180830381600087803b15801561098c57600080fd5b505af11580156109a0573d6000803e3d6000fd5b5050505060006109b06008610f30565b6040517fea80d67d0000000000000000000000000000000000000000000000000000000081526001600160a01b03878116600483015286811660248301529192509082169063ea80d67d90604401600060405180830381600087803b158015610a1857600080fd5b505af1158015610a2c573d6000803e3d6000fd5b50506040517fecd850cc0000000000000000000000000000000000000000000000000000000081526001600160a01b03888116600483015287811660248301528416925063ecd850cc9150604401600060405180830381600087803b158015610a9457600080fd5b505af1158015610aa8573d6000803e3d6000fd5b50505050610ab683856115c2565b610ac08385611605565b5050505050565b610acf611648565b610ad8816116a2565b610ae28282611253565b5050565b600080610b0e836001600160a01b039081166000908152600260205260409020541680151591565b91509150915091565b610b1f611648565b610b2881600355565b50565b6000610b36866112f9565b9050610b418161134d565b610b8085858080601f0160208091040260200160405190810160405280939291908181526020018383808284376000920191909152506116f192505050565b610b8981611733565b610b958585858561177d565b610bd58186868080601f01602080910402602001604051908101604052809392919081815260200183838082843760009201919091525061180a92505050565b505050505050565b60608167ffffffffffffffff811115610bf857610bf8611f0a565b604051908082528060200260200182016040528015610c21578160200160208202803683370190505b50905060005b82811015610caf57600080858584818110610c4457610c446122b5565b9050602002016020810190610c599190611c3f565b6001600160a01b0390811682526020820192909252604001600020600101548351911690839083908110610c8f57610c8f6122b5565b6001600160a01b0390921660209283029190910190910152600101610c27565b5092915050565b6009610cc1816118c7565b6001600160a01b038088166000908152602081905260409020805490911615610cfd5760405163249b38f960e01b815260040160405180910390fd5b60006040518061010001604052808a6001600160a01b031681526020018a6001600160a01b031681526020018b6001600160a01b03168152602001896001600160a01b0316815260200160006001600160a01b0316815260200188888080601f016020809104026020016040519081016040528093929190818152602001838380828437600092018290525093855250505060208083018290526040805191820181529181529101529050610db18161192c565b610dbd8787878761177d565b610dc78282611975565b50505050505050505050565b603354610100900460ff1615808015610df35750603354600160ff909116105b80610e0d5750303b158015610e0d575060335460ff166001145b610e705760405162461bcd60e51b815260206004820152602e60248201527f496e697469616c697a61626c653a20636f6e747261637420697320616c72656160448201526d191e481a5b9a5d1a585b1a5e995960921b606482015260840161039c565b6033805460ff191660011790558015610e93576033805461ff0019166101001790555b610e9e600883611253565b8015610ae2576033805461ff0019169055604051600181527f7f26b83ff96e1f2b6a682f133852f6798a09c465da95921460cefb3847402498906020016107f0565b610ee8611648565b80516001600160a01b039081166000908152602081905260409020805490911615610f265760405163249b38f960e01b815260040160405180910390fd5b610ae28183611975565b60007fdea3103d22025c269050bea94c0c84688877f12fa22b7e6d2d5d78a9a49aa1cb600083600f811115610f6757610f67612378565b60ff1681526020810191909152604001600020546001600160a01b0316905080610fbf57816040517f812281be00000000000000000000000000000000000000000000000000000000815260040161039c91906123a2565b919050565b604080516101008101825260008082526020820181905291810182905260608082018390526080820183905260a0820181905260c082019290925260e08101919091526001600160a01b0380831660009081526020818152604091829020825161010081018452815485168152600182015485169281019290925260028101548416928201929092526003820154831660608201526004820154909216608083015260058101805460a08401919061107b906123b0565b80601f01602080910402602001604051908101604052809291908181526020018280546110a7906123b0565b80156110f45780601f106110c9576101008083540402835291602001916110f4565b820191906000526020600020905b8154815290600101906020018083116110d757829003601f168201915b5050505050815260200160068201548152602001600782018054611117906123b0565b80601f0160208091040260200160405190810160405280929190818152602001828054611143906123b0565b80156111905780601f1061116557610100808354040283529160200191611190565b820191906000526020600020905b81548152906001019060200180831161117357829003601f168201915b5050505050815250509050919050565b60608167ffffffffffffffff8111156111bb576111bb611f0a565b6040519080825280602002602001820160405280156111e4578160200160208202803683370190505b50905060005b82811015610caf57611221848483818110611207576112076122b5565b905060200201602081019061121c9190611c3f565b61151c565b828281518110611233576112336122b5565b6001600160a01b03909216602092830291909101909101526001016111ea565b807fdea3103d22025c269050bea94c0c84688877f12fa22b7e6d2d5d78a9a49aa1cb600084600f81111561128957611289612378565b60ff168152602081019190915260400160002080546001600160a01b0319166001600160a01b03928316179055811682600f8111156112ca576112ca612378565b6040517f865d1c228a8ea13709cfe61f346f7ff67f1bbd4a18ff31ad3e7147350d317c5990600090a35050565b565b6001600160a01b0380821660009081526020819052604090208054909116610fbf576040517f682a559600000000000000000000000000000000000000000000000000000000815260040160405180910390fd5b60028101546001600160a01b0316331415806113fb575061136e6008610f30565b81546040517f46ebb2320000000000000000000000000000000000000000000000000000000081526001600160a01b0391821660048201523360248201529116906346ebb23290604401602060405180830381865afa1580156113d5573d6000803e3d6000fd5b505050506040513d601f19601f820116820180604052508101906113f991906123ea565b155b15610b28576000356001600160e01b0319166004604051620f948f60ea1b815260040161039c92919061241c565b6001600160a01b03811661146b57816040517f57ed62e400000000000000000000000000000000000000000000000000000000815260040161039c919061243a565b610ae28282611a14565b600180830180546001600160a01b03908116600090815260026020908152604080832080546001600160a01b03199081169091558854888616808652838620805484169290971691909117909555855416841790945584905291909120805460ff191690921790915560095b83546040516001600160a01b03909116907fe9654874a1d2cdb1459fe91e0442173d77f8e1baa4897e3f5c10e769a1515d0690600090a45050565b6000806000611546846001600160a01b039081166000908152600260205260409020541680151591565b915091508161158c576040517f1e3d646f0000000000000000000000000000000000000000000000000000000081526001600160a01b038516600482015260240161039c565b9392505050565b6000600160006115a884805160209091012090565b815260208101919091526040016000205460ff1692915050565b6002820180546001600160a01b0319166001600160a01b0383169081179091556000818152600160208190526040909120805460ff1916909117905560046114e1565b6003820180546001600160a01b0319166001600160a01b0383169081179091556000818152600160208190526040909120805460ff19169091179055600a6114e1565b7fb53127684a568b3173ae13b9f8a6016e243e63b6e8ee1178d6a717850b5d6103546001600160a01b031633146112f7576000356001600160e01b0319166001604051620f948f60ea1b815260040161039c92919061241c565b806001600160a01b03163b600003610b28576040517f2ff1928c0000000000000000000000000000000000000000000000000000000081526001600160a01b038216600482015260240161039c565b6116fa81611593565b15610b2857806040517f7995d6c800000000000000000000000000000000000000000000000000000000815260040161039c9190612448565b6003548160060154611745919061245b565b4211610b28576040517f07420f4000000000000000000000000000000000000000000000000000000000815260040160405180910390fd5b61178984848484611a74565b6117c757838383836040517f97cf1c8d00000000000000000000000000000000000000000000000000000000815260040161039c94939291906124a5565b7fb737fd977072c109cccc97108f9f8a9017af4bbf4d20938a747f17d8921c50a6848484846040516117fc94939291906124a5565b60405180910390a150505050565b816005018054611819906123b0565b15905061183357600782016118316005840182612524565b505b600582016118418282612601565b50426006830155600180600061185c84805160209091012090565b815260208101919091526040908101600020805460ff191692151592909217909155825490516001600160a01b03909116907fe13225a225fbfeebd9d707546f3d7adee5d72738ac686cc5b97266c49745a56b906118bb908490612448565b60405180910390a25050565b6118d081610f30565b6001600160a01b0316336001600160a01b031614610b28576000356001600160e01b03191681336040517f8383e63400000000000000000000000000000000000000000000000000000000815260040161039c939291906126b9565b61193b60098260200151611429565b61194a60048260400151611429565b611959600a8260600151611429565b611968600a8260800151611a14565b610b288160a001516116f1565b805182546001600160a01b0319166001600160a01b0390911617825560208101516119a1908390611475565b6119af8282604001516115c2565b6119bd828260600151611605565b6119cb828260800151611b62565b6119d9828260a0015161180a565b80516040516001600160a01b03909116907fc9da0ae38bd4761b72da1045c9b2618f0cd991dcac01e1f9bbf68474025f074390600090a25050565b6001600160a01b03811660009081526001602052604090205460ff1615610ae25781816001600160a01b03166040517fe4166aaa00000000000000000000000000000000000000000000000000000000815260040161039c9291906126ee565b604051600090606a906001908390611a969089908990899089906024016124a5565b60408051601f198184030181529190526020810180517bffffffffffffffffffffffffffffffffffffffffffffffffffffffff167f7eae32c2000000000000000000000000000000000000000000000000000000001790528051909150611afb611baf565b602083016020828483895afa611b1057600094505b503d611b1b57600093505b83611b52576040517f0fc2632100000000000000000000000000000000000000000000000000000000815260040160405180910390fd5b5115159998505050505050505050565b6004820180546001600160a01b0319166001600160a01b03831690811790915515610ae2576001600160a01b03166000908152600160208190526040909120805460ff1916909117905550565b60405180602001604052806001906020820280368337509192915050565b6001600160a01b0381168114610b2857600080fd5b8035610fbf81611bcd565b60008060408385031215611c0057600080fd5b8235611c0b81611bcd565b91506020830135611c1b81611bcd565b809150509250929050565b600060208284031215611c3857600080fd5b5035919050565b600060208284031215611c5157600080fd5b813561158c81611bcd565b600060208284031215611c6e57600080fd5b813567ffffffffffffffff811115611c8557600080fd5b82016040810184101561158c57600080fd5b803560108110610fbf57600080fd5b60008060408385031215611cb957600080fd5b611c0b83611c97565b60008083601f840112611cd457600080fd5b50813567ffffffffffffffff811115611cec57600080fd5b602083019150836020828501011115611d0457600080fd5b9250929050565b600080600080600060608688031215611d2357600080fd5b8535611d2e81611bcd565b9450602086013567ffffffffffffffff80821115611d4b57600080fd5b611d5789838a01611cc2565b90965094506040880135915080821115611d7057600080fd5b50611d7d88828901611cc2565b969995985093965092949392505050565b60008083601f840112611da057600080fd5b50813567ffffffffffffffff811115611db857600080fd5b6020830191508360208260051b8501011115611d0457600080fd5b60008060208385031215611de657600080fd5b823567ffffffffffffffff811115611dfd57600080fd5b611e0985828601611d8e565b90969095509350505050565b6020808252825182820181905260009190848201906040850190845b81811015611e565783516001600160a01b031683529284019291840191600101611e31565b50909695505050505050565b600080600080600080600060a0888a031215611e7d57600080fd5b8735611e8881611bcd565b96506020880135611e9881611bcd565b95506040880135611ea881611bcd565b9450606088013567ffffffffffffffff80821115611ec557600080fd5b611ed18b838c01611cc2565b909650945060808a0135915080821115611eea57600080fd5b50611ef78a828b01611cc2565b989b979a50959850939692959293505050565b634e487b7160e01b600052604160045260246000fd5b604051610100810167ffffffffffffffff81118282101715611f4457611f44611f0a565b60405290565b604051601f8201601f1916810167ffffffffffffffff81118282101715611f7357611f73611f0a565b604052919050565b600082601f830112611f8c57600080fd5b813567ffffffffffffffff811115611fa657611fa6611f0a565b611fb9601f8201601f1916602001611f4a565b818152846020838601011115611fce57600080fd5b816020850160208301376000918101602001919091529392505050565b600060208284031215611ffd57600080fd5b813567ffffffffffffffff8082111561201557600080fd5b90830190610100828603121561202a57600080fd5b612032611f20565b61203b83611be2565b815261204960208401611be2565b602082015261205a60408401611be2565b604082015261206b60608401611be2565b606082015261207c60808401611be2565b608082015260a08301358281111561209357600080fd5b61209f87828601611f7b565b60a08301525060c083013560c082015260e0830135828111156120c157600080fd5b6120cd87828601611f7b565b60e08301525095945050505050565b6000602082840312156120ee57600080fd5b61158c82611c97565b60005b838110156121125781810151838201526020016120fa565b50506000910152565b600081518084526121338160208601602086016120f7565b601f01601f19169290920160200192915050565b602081526001600160a01b0382511660208201526000602083015161217760408401826001600160a01b03169052565b5060408301516001600160a01b03811660608401525060608301516001600160a01b03811660808401525060808301516001600160a01b03811660a08401525060a08301516101008060c08501526121d361012085018361211b565b915060c085015160e085015260e0850151601f1985840301828601526121f9838261211b565b9695505050505050565b6000602080838503121561221657600080fd5b825167ffffffffffffffff8082111561222e57600080fd5b818501915085601f83011261224257600080fd5b81518181111561225457612254611f0a565b8060051b9150612265848301611f4a565b818152918301840191848101908884111561227f57600080fd5b938501935b838510156122a9578451925061229983611bcd565b8282529385019390850190612284565b98975050505050505050565b634e487b7160e01b600052603260045260246000fd5b600082516122dd8184602087016120f7565b9190910192915050565b6000808335601e198436030181126122fe57600080fd5b83018035915067ffffffffffffffff82111561231957600080fd5b6020019150600581901b3603821315611d0457600080fd5b6000808335601e1984360301811261234857600080fd5b83018035915067ffffffffffffffff82111561236357600080fd5b602001915036819003821315611d0457600080fd5b634e487b7160e01b600052602160045260246000fd5b6010811061239e5761239e612378565b9052565b60208101610807828461238e565b600181811c908216806123c457607f821691505b6020821081036123e457634e487b7160e01b600052602260045260246000fd5b50919050565b6000602082840312156123fc57600080fd5b8151801515811461158c57600080fd5b600b811061239e5761239e612378565b6001600160e01b0319831681526040810161158c602083018461240c565b60208101610807828461240c565b60208152600061158c602083018461211b565b8082018082111561080757634e487b7160e01b600052601160045260246000fd5b81835281816020850137506000828201602090810191909152601f909101601f19169091010190565b6040815260006124b960408301868861247c565b82810360208401526124cc81858761247c565b979650505050505050565b601f82111561251f576000816000526020600020601f850160051c810160208610156125005750805b601f850160051c820191505b81811015610bd55782815560010161250c565b505050565b81810361252f575050565b61253982546123b0565b67ffffffffffffffff81111561255157612551611f0a565b6125658161255f84546123b0565b846124d7565b6000601f82116001811461259957600083156125815750848201545b600019600385901b1c1916600184901b178455610ac0565b600085815260209020601f19841690600086815260209020845b838110156125d357828601548255600195860195909101906020016125b3565b50858310156125f15781850154600019600388901b60f8161c191681555b5050505050600190811b01905550565b815167ffffffffffffffff81111561261b5761261b611f0a565b6126298161255f84546123b0565b602080601f83116001811461265e57600084156126465750858301515b600019600386901b1c1916600185901b178555610bd5565b600085815260208120601f198616915b8281101561268d5788860151825594840194600190910190840161266e565b50858210156125f157939096015160001960f8600387901b161c19169092555050600190811b01905550565b6001600160e01b031984168152606081016126d7602083018561238e565b6001600160a01b0383166040830152949350505050565b604081016126fc828561240c565b826020830152939250505056fea264697066735822122059f6d383dc64e2a0baad834d987bef8f73f593a4d2941f58bb3473f31025910c64736f6c63430008160033",
  "chainId": 2021,
  "contractAbsolutePath": "Profile.sol",
  "deployer": "0x31762cdd4Aa65CD6f5F09D7a05a56211720A1168",
  "devdoc": {
    "version": 1,
    "kind": "dev",
    "methods": {
      "addNewProfile((address,address,address,address,address,bytes,uint256,bytes))": {
        "details": "Requirements: - The profile must not be existent before. - Only contract admin can call this method."
      },
      "arePublicKeysRegistered(bytes[][2])": {
        "details": "Cross-contract function to for slash indicator to check the list of public keys in finality slash proof Returns whether all public keys are registered."
      },
      "changePubkey(address,bytes,bytes)": {
        "details": "Requirements: - The profile must be existed. - Only user with candidate admin role can call this method. - New public key must not be duplicated. - The proof of public key possession must be verified successfully. - The public key change cooldown must be ended."
      },
      "execApplyValidatorCandidate(address,address,address,bytes,bytes)": {
        "details": "Cross-contract function to add/update new profile of a validator candidate when they applying for candidate role. Requirements: - Only `stakingContract` can call this method."
      },
      "getConsensus2Id(address)": {
        "details": "Getter to backward query from `consensus` address to `id` address, revert if not found."
      },
      "getContract(uint8)": {
        "details": "Returns the address of a contract with a specific role. Throws an error if no contract is set for the specified role.",
        "params": {
          "contractType": "The role of the contract to retrieve."
        },
        "returns": {
          "contract_": "The address of the contract with the specified role."
        }
      },
      "getId2Profile(address)": {
        "details": "Getter to query full `profile` from `id` address."
      },
      "getManyConsensus2Id(address[])": {
        "details": "Getter to backward batch query from `consensus` address to `id` address."
      },
      "getManyId2Consensus(address[])": {
        "details": "Getter to batch query from `id` to `consensus`, return address(0) if the profile not exist."
      },
      "precompileVerifyBLSPublicKeyAddress()": {
        "details": "Gets the address of the precompile of validating double sign evidence"
      },
      "requestChangeAdminAddress(address,address)": {
        "details": "Side-effects on other contracts: - Update Staking contract:    + [x] Update (id => PoolDetail) mapping in {BaseStaking.sol}.    + [x] Update `_adminOfActivePoolMapping` in {BaseStaking.sol}.    + [x] Move staking amount of previous admin to the the new admin. - Update Validator contract:    + [x] Update (id => ValidatorCandidate) mapping - See other side-effects for treasury in {requestChangeTreasuryAddr}, since treasury and admin must be identical."
      },
      "requestChangeConsensusAddr(address,address)": {
        "details": "Side-effects on other contracts: - Update in Staking contract for Consensus address mapping:   + [x] Keep the same previous pool address. - Update in Validator contract for:   + [x] Consensus Address mapping   + [x] Bridge Address mapping   + [x] Jail mapping   + [x] Pending reward mapping   + [x] Schedule mapping - Update in Slashing contract for:   + [x] Handling slash indicator   + [x] Handling slash fast finality   + [x] Handling slash double sign - Update in Proposal contract for:   + [-] Preserve the consensus address and recipient target of locked amount of emergency exit - Update Trusted Org contracts:   + If the current consensus is governor:      - [x] Remove and delete weight of the old consensus      - [x] Replace and add weight for the new consensus   + If the current consensus is not governor:      - [x] Do nothing"
      },
      "requestChangeTreasuryAddr(address,address)": {
        "details": "Side-effects on other contracts: - Update Validator contract:    + [x] Update (id => ValidatorCandidate) mapping - Update governance admin:    + [-] Update recipient in the EmergencyExitBallot to the newTreasury.          Cannot impl since we cannot cancel the previous the ballot and          create a new ballot on behalf of the validator contract."
      },
      "setContract(uint8,address)": {
        "details": "Sets the address of a contract with a specific role. Emits the event {ContractUpdated}.",
        "params": {
          "addr": "The address of the contract to set.",
          "contractType": "The role of the contract to set."
        }
      },
      "setPubkeyChangeCooldown(uint256)": {
        "details": "Change the cooldown between 2 public key change Requirement:  - Only admin can call this method"
      },
      "tryGetConsensus2Id(address)": {
        "details": "Getter to backward query from `consensus` address to `id` address."
      }
    },
    "events": {
      "ConsensusAddressOfNonGovernorChanged(address)": {
        "details": "Event emitted when the consensus of a non-governor profile is changed."
      },
      "ContractUpdated(uint8,address)": {
        "details": "Emitted when a contract is updated."
      },
      "Initialized(uint8)": {
        "details": "Triggered when the contract has been initialized or reinitialized."
      },
      "ProfileAdded(address)": {
        "details": "Event emitted when a profile with `id` is added."
      },
      "ProfileAddressChanged(address,uint8,address)": {
        "details": "Event emitted when a address in a profile is changed."
      },
      "ProfileMigrated(address,address,address)": {
        "details": "Event emitted when the profile is migrated (mostly when REP-4 update)."
      },
      "PubkeyChanged(address,bytes)": {
        "details": "Event emitted when the pubkey of the `id` is changed."
      },
      "PubkeyVerified(bytes,bytes)": {
        "details": "Event emitted when the pubkey is verified successfully."
      }
    },
    "errors": {
      "ErrCallPrecompiled()": [
        {
          "details": "Error of call to precompile fails."
        }
      ],
      "ErrContractTypeNotFound(uint8)": [
        {
          "details": "Error of invalid role."
        }
      ],
      "ErrDuplicatedInfo(uint8,uint256)": [
        {
          "details": "Error when there is a duplicated info of `value`, which is uin256-padding value of any address or hash of public key, and with value type of `infoType`."
        }
      ],
      "ErrExistentProfile()": [
        {
          "details": "Error of already existed profile."
        }
      ],
      "ErrIdAndConsensusDiffer()": [
        {
          "details": "Error when create a new profile whose id and consensus are not identical."
        }
      ],
      "ErrNonExistentProfile()": [
        {
          "details": "Error of non existed profile."
        }
      ],
      "ErrPubkeyChangeCooldownNotEnded()": [
        {
          "details": "Error when failed to change public key because cooldown is not ended."
        }
      ],
      "ErrUnauthorized(bytes4,uint8)": [
        {
          "details": "Error indicating that the caller is unauthorized to perform a specific function.",
          "params": {
            "expectedRole": "The role required to perform the function.",
            "msgSig": "The function signature (bytes4) that the caller is unauthorized to perform."
          }
        }
      ],
      "ErrUnexpectedInternalCall(bytes4,uint8,address)": [
        {
          "details": "Error indicating that the caller is unauthorized to perform a specific function.",
          "params": {
            "actual": "The actual address that called to the function.",
            "expectedContractType": "The contract type required to perform the function.",
            "msgSig": "The function signature (bytes4)."
          }
        }
      ],
      "ErrZeroCodeContract(address)": [
        {
          "details": "Error of set to non-contract."
        }
      ]
    }
  },
  "isFoundry": true,
  "nonce": 20,
  "numDeployments": 14,
  "storageLayout": {
    "storage": [
      {
        "astId": 28836,
        "contract": "contracts/ronin/profile/Profile.sol:Profile",
        "label": "_id2Profile",
        "offset": 0,
        "slot": "0",
        "type": "t_mapping(t_address,t_struct(CandidateProfile)7374_storage)"
      },
      {
        "astId": 28841,
        "contract": "contracts/ronin/profile/Profile.sol:Profile",
        "label": "_registry",
        "offset": 0,
        "slot": "1",
        "type": "t_mapping(t_uint256,t_bool)"
      },
      {
        "astId": 28847,
        "contract": "contracts/ronin/profile/Profile.sol:Profile",
        "label": "_consensus2Id",
        "offset": 0,
        "slot": "2",
        "type": "t_mapping(t_userDefinedValueType(TConsensus)40030,t_address)"
      },
      {
        "astId": 28850,
        "contract": "contracts/ronin/profile/Profile.sol:Profile",
        "label": "pubkeyChangeCooldown",
        "offset": 0,
        "slot": "3",
        "type": "t_uint256"
      },
      {
        "astId": 28855,
        "contract": "contracts/ronin/profile/Profile.sol:Profile",
        "label": "__gap",
        "offset": 0,
        "slot": "4",
        "type": "t_array(t_bytes32)47_storage"
      },
      {
        "astId": 150174,
        "contract": "contracts/ronin/profile/Profile.sol:Profile",
        "label": "_initialized",
        "offset": 0,
        "slot": "51",
        "type": "t_uint8"
      },
      {
        "astId": 150177,
        "contract": "contracts/ronin/profile/Profile.sol:Profile",
        "label": "_initializing",
        "offset": 1,
        "slot": "51",
        "type": "t_bool"
      }
    ],
    "types": {
      "t_address": {
        "encoding": "inplace",
        "label": "address",
        "numberOfBytes": "20"
      },
      "t_address_payable": {
        "encoding": "inplace",
        "label": "address payable",
        "numberOfBytes": "20"
      },
      "t_array(t_bytes32)47_storage": {
        "encoding": "inplace",
        "label": "bytes32[47]",
        "numberOfBytes": "1504",
        "base": "t_bytes32"
      },
      "t_bool": {
        "encoding": "inplace",
        "label": "bool",
        "numberOfBytes": "1"
      },
      "t_bytes32": {
        "encoding": "inplace",
        "label": "bytes32",
        "numberOfBytes": "32"
      },
      "t_bytes_storage": {
        "encoding": "bytes",
        "label": "bytes",
        "numberOfBytes": "32"
      },
      "t_mapping(t_address,t_struct(CandidateProfile)7374_storage)": {
        "encoding": "mapping",
        "key": "t_address",
        "label": "mapping(address => struct IProfile.CandidateProfile)",
        "numberOfBytes": "32",
        "value": "t_struct(CandidateProfile)7374_storage"
      },
      "t_mapping(t_uint256,t_bool)": {
        "encoding": "mapping",
        "key": "t_uint256",
        "label": "mapping(uint256 => bool)",
        "numberOfBytes": "32",
        "value": "t_bool"
      },
      "t_mapping(t_userDefinedValueType(TConsensus)40030,t_address)": {
        "encoding": "mapping",
        "key": "t_userDefinedValueType(TConsensus)40030",
        "label": "mapping(TConsensus => address)",
        "numberOfBytes": "32",
        "value": "t_address"
      },
      "t_struct(CandidateProfile)7374_storage": {
        "encoding": "inplace",
        "label": "struct IProfile.CandidateProfile",
        "numberOfBytes": "256",
        "members": [
          {
            "astId": 7351,
            "contract": "contracts/ronin/profile/Profile.sol:Profile",
            "label": "id",
            "offset": 0,
            "slot": "0",
            "type": "t_address"
          },
          {
            "astId": 7355,
            "contract": "contracts/ronin/profile/Profile.sol:Profile",
            "label": "consensus",
            "offset": 0,
            "slot": "1",
            "type": "t_userDefinedValueType(TConsensus)40030"
          },
          {
            "astId": 7358,
            "contract": "contracts/ronin/profile/Profile.sol:Profile",
            "label": "admin",
            "offset": 0,
            "slot": "2",
            "type": "t_address"
          },
          {
            "astId": 7361,
            "contract": "contracts/ronin/profile/Profile.sol:Profile",
            "label": "treasury",
            "offset": 0,
            "slot": "3",
            "type": "t_address_payable"
          },
          {
            "astId": 7364,
            "contract": "contracts/ronin/profile/Profile.sol:Profile",
            "label": "__reservedGovernor",
            "offset": 0,
            "slot": "4",
            "type": "t_address"
          },
          {
            "astId": 7367,
            "contract": "contracts/ronin/profile/Profile.sol:Profile",
            "label": "pubkey",
            "offset": 0,
            "slot": "5",
            "type": "t_bytes_storage"
          },
          {
            "astId": 7370,
            "contract": "contracts/ronin/profile/Profile.sol:Profile",
            "label": "pubkeyLastChange",
            "offset": 0,
            "slot": "6",
            "type": "t_uint256"
          },
          {
            "astId": 7373,
            "contract": "contracts/ronin/profile/Profile.sol:Profile",
            "label": "oldPubkey",
            "offset": 0,
            "slot": "7",
            "type": "t_bytes_storage"
          }
        ]
      },
      "t_uint256": {
        "encoding": "inplace",
        "label": "uint256",
        "numberOfBytes": "32"
      },
      "t_uint8": {
        "encoding": "inplace",
        "label": "uint8",
        "numberOfBytes": "1"
      },
      "t_userDefinedValueType(TConsensus)40030": {
        "encoding": "inplace",
        "label": "TConsensus",
        "numberOfBytes": "20"
      }
    }
  },
  "timestamp": 1708326505,
  "userdoc": {
    "version": 1,
    "kind": "user",
    "methods": {
      "addNewProfile((address,address,address,address,address,bytes,uint256,bytes))": {
        "notice": "Add a new profile."
      },
      "changePubkey(address,bytes,bytes)": {
        "notice": "The candidate admin changes the public key."
      },
      "requestChangeTreasuryAddr(address,address)": {
        "notice": "This method is not supported. Change treasury also requires changing the admin address. Using the {requestChangeAdminAddress} method instead"
      }
    }
  }
}