{
  "abi": [
    {
      "type": "constructor",
      "inputs": [],
      "stateMutability": "nonpayable"
    },
    {
      "type": "function",
      "name": "addTrustedOrganizations",
      "inputs": [
        {
          "name": "_list",
          "type": "tuple[]",
          "internalType": "struct IRoninTrustedOrganization.TrustedOrganization[]",
          "components": [
            {
              "name": "consensusAddr",
              "type": "address",
              "internalType": "TConsensus"
            },
            {
              "name": "governor",
              "type": "address",
              "internalType": "address"
            },
            {
              "name": "__deprecatedBridgeVoter",
              "type": "address",
              "internalType": "address"
            },
            {
              "name": "weight",
              "type": "uint256",
              "internalType": "uint256"
            },
            {
              "name": "addedBlock",
              "type": "uint256",
              "internalType": "uint256"
            }
          ]
        }
      ],
      "outputs": [],
      "stateMutability": "nonpayable"
    },
    {
      "type": "function",
      "name": "checkThreshold",
      "inputs": [
        {
          "name": "_voteWeight",
          "type": "uint256",
          "internalType": "uint256"
        }
      ],
      "outputs": [
        {
          "name": "",
          "type": "bool",
          "internalType": "bool"
        }
      ],
      "stateMutability": "view"
    },
    {
      "type": "function",
      "name": "countTrustedOrganization",
      "inputs": [],
      "outputs": [
        {
          "name": "",
          "type": "uint256",
          "internalType": "uint256"
        }
      ],
      "stateMutability": "view"
    },
    {
      "type": "function",
      "name": "execChangeConsensusAddressForTrustedOrg",
      "inputs": [
        {
          "name": "oldAddr",
          "type": "address",
          "internalType": "TConsensus"
        },
        {
          "name": "newAddr",
          "type": "address",
          "internalType": "TConsensus"
        }
      ],
      "outputs": [],
      "stateMutability": "nonpayable"
    },
    {
      "type": "function",
      "name": "getAllTrustedOrganizations",
      "inputs": [],
      "outputs": [
        {
          "name": "list",
          "type": "tuple[]",
          "internalType": "struct IRoninTrustedOrganization.TrustedOrganization[]",
          "components": [
            {
              "name": "consensusAddr",
              "type": "address",
              "internalType": "TConsensus"
            },
            {
              "name": "governor",
              "type": "address",
              "internalType": "address"
            },
            {
              "name": "__deprecatedBridgeVoter",
              "type": "address",
              "internalType": "address"
            },
            {
              "name": "weight",
              "type": "uint256",
              "internalType": "uint256"
            },
            {
              "name": "addedBlock",
              "type": "uint256",
              "internalType": "uint256"
            }
          ]
        }
      ],
      "stateMutability": "view"
    },
    {
      "type": "function",
      "name": "getConsensusWeight",
      "inputs": [
        {
          "name": "consensusAddr",
          "type": "address",
          "internalType": "TConsensus"
        }
      ],
      "outputs": [
        {
          "name": "",
          "type": "uint256",
          "internalType": "uint256"
        }
      ],
      "stateMutability": "view"
    },
    {
      "type": "function",
      "name": "getConsensusWeightById",
      "inputs": [
        {
          "name": "cid",
          "type": "address",
          "internalType": "address"
        }
      ],
      "outputs": [
        {
          "name": "",
          "type": "uint256",
          "internalType": "uint256"
        }
      ],
      "stateMutability": "view"
    },
    {
      "type": "function",
      "name": "getConsensusWeights",
      "inputs": [
        {
          "name": "list",
          "type": "address[]",
          "internalType": "TConsensus[]"
        }
      ],
      "outputs": [
        {
          "name": "",
          "type": "uint256[]",
          "internalType": "uint256[]"
        }
      ],
      "stateMutability": "view"
    },
    {
      "type": "function",
      "name": "getConsensusWeightsById",
      "inputs": [
        {
          "name": "cids",
          "type": "address[]",
          "internalType": "address[]"
        }
      ],
      "outputs": [
        {
          "name": "",
          "type": "uint256[]",
          "internalType": "uint256[]"
        }
      ],
      "stateMutability": "view"
    },
    {
      "type": "function",
      "name": "getContract",
      "inputs": [
        {
          "name": "contractType",
          "type": "uint8",
          "internalType": "enum ContractType"
        }
      ],
      "outputs": [
        {
          "name": "contract_",
          "type": "address",
          "internalType": "address payable"
        }
      ],
      "stateMutability": "view"
    },
    {
      "type": "function",
      "name": "getGovernorWeight",
      "inputs": [
        {
          "name": "_governor",
          "type": "address",
          "internalType": "address"
        }
      ],
      "outputs": [
        {
          "name": "",
          "type": "uint256",
          "internalType": "uint256"
        }
      ],
      "stateMutability": "view"
    },
    {
      "type": "function",
      "name": "getGovernorWeights",
      "inputs": [
        {
          "name": "_list",
          "type": "address[]",
          "internalType": "address[]"
        }
      ],
      "outputs": [
        {
          "name": "_res",
          "type": "uint256[]",
          "internalType": "uint256[]"
        }
      ],
      "stateMutability": "view"
    },
    {
      "type": "function",
      "name": "getThreshold",
      "inputs": [],
      "outputs": [
        {
          "name": "num_",
          "type": "uint256",
          "internalType": "uint256"
        },
        {
          "name": "denom_",
          "type": "uint256",
          "internalType": "uint256"
        }
      ],
      "stateMutability": "view"
    },
    {
      "type": "function",
      "name": "getTrustedOrganization",
      "inputs": [
        {
          "name": "_consensusAddr",
          "type": "address",
          "internalType": "TConsensus"
        }
      ],
      "outputs": [
        {
          "name": "res",
          "type": "tuple",
          "internalType": "struct IRoninTrustedOrganization.TrustedOrganization",
          "components": [
            {
              "name": "consensusAddr",
              "type": "address",
              "internalType": "TConsensus"
            },
            {
              "name": "governor",
              "type": "address",
              "internalType": "address"
            },
            {
              "name": "__deprecatedBridgeVoter",
              "type": "address",
              "internalType": "address"
            },
            {
              "name": "weight",
              "type": "uint256",
              "internalType": "uint256"
            },
            {
              "name": "addedBlock",
              "type": "uint256",
              "internalType": "uint256"
            }
          ]
        }
      ],
      "stateMutability": "view"
    },
    {
      "type": "function",
      "name": "getTrustedOrganizationAt",
      "inputs": [
        {
          "name": "_idx",
          "type": "uint256",
          "internalType": "uint256"
        }
      ],
      "outputs": [
        {
          "name": "",
          "type": "tuple",
          "internalType": "struct IRoninTrustedOrganization.TrustedOrganization",
          "components": [
            {
              "name": "consensusAddr",
              "type": "address",
              "internalType": "TConsensus"
            },
            {
              "name": "governor",
              "type": "address",
              "internalType": "address"
            },
            {
              "name": "__deprecatedBridgeVoter",
              "type": "address",
              "internalType": "address"
            },
            {
              "name": "weight",
              "type": "uint256",
              "internalType": "uint256"
            },
            {
              "name": "addedBlock",
              "type": "uint256",
              "internalType": "uint256"
            }
          ]
        }
      ],
      "stateMutability": "view"
    },
    {
      "type": "function",
      "name": "initialize",
      "inputs": [
        {
          "name": "trustedOrgs",
          "type": "tuple[]",
          "internalType": "struct IRoninTrustedOrganization.TrustedOrganization[]",
          "components": [
            {
              "name": "consensusAddr",
              "type": "address",
              "internalType": "TConsensus"
            },
            {
              "name": "governor",
              "type": "address",
              "internalType": "address"
            },
            {
              "name": "__deprecatedBridgeVoter",
              "type": "address",
              "internalType": "address"
            },
            {
              "name": "weight",
              "type": "uint256",
              "internalType": "uint256"
            },
            {
              "name": "addedBlock",
              "type": "uint256",
              "internalType": "uint256"
            }
          ]
        },
        {
          "name": "num",
          "type": "uint256",
          "internalType": "uint256"
        },
        {
          "name": "denom",
          "type": "uint256",
          "internalType": "uint256"
        }
      ],
      "outputs": [],
      "stateMutability": "nonpayable"
    },
    {
      "type": "function",
      "name": "initializeV2",
      "inputs": [
        {
          "name": "profileContract",
          "type": "address",
          "internalType": "address"
        }
      ],
      "outputs": [],
      "stateMutability": "nonpayable"
    },
    {
      "type": "function",
      "name": "minimumVoteWeight",
      "inputs": [],
      "outputs": [
        {
          "name": "",
          "type": "uint256",
          "internalType": "uint256"
        }
      ],
      "stateMutability": "view"
    },
    {
      "type": "function",
      "name": "removeTrustedOrganizations",
      "inputs": [
        {
          "name": "list",
          "type": "address[]",
          "internalType": "TConsensus[]"
        }
      ],
      "outputs": [],
      "stateMutability": "nonpayable"
    },
    {
      "type": "function",
      "name": "setContract",
      "inputs": [
        {
          "name": "contractType",
          "type": "uint8",
          "internalType": "enum ContractType"
        },
        {
          "name": "addr",
          "type": "address",
          "internalType": "address"
        }
      ],
      "outputs": [],
      "stateMutability": "nonpayable"
    },
    {
      "type": "function",
      "name": "setThreshold",
      "inputs": [
        {
          "name": "_numerator",
          "type": "uint256",
          "internalType": "uint256"
        },
        {
          "name": "_denominator",
          "type": "uint256",
          "internalType": "uint256"
        }
      ],
      "outputs": [
        {
          "name": "",
          "type": "uint256",
          "internalType": "uint256"
        },
        {
          "name": "",
          "type": "uint256",
          "internalType": "uint256"
        }
      ],
      "stateMutability": "nonpayable"
    },
    {
      "type": "function",
      "name": "sumConsensusWeight",
      "inputs": [
        {
          "name": "_list",
          "type": "address[]",
          "internalType": "TConsensus[]"
        }
      ],
      "outputs": [
        {
          "name": "_res",
          "type": "uint256",
          "internalType": "uint256"
        }
      ],
      "stateMutability": "view"
    },
    {
      "type": "function",
      "name": "sumGovernorWeight",
      "inputs": [
        {
          "name": "_list",
          "type": "address[]",
          "internalType": "address[]"
        }
      ],
      "outputs": [
        {
          "name": "_res",
          "type": "uint256",
          "internalType": "uint256"
        }
      ],
      "stateMutability": "view"
    },
    {
      "type": "function",
      "name": "sumGovernorWeights",
      "inputs": [
        {
          "name": "_list",
          "type": "address[]",
          "internalType": "address[]"
        }
      ],
      "outputs": [
        {
          "name": "_res",
          "type": "uint256",
          "internalType": "uint256"
        }
      ],
      "stateMutability": "view"
    },
    {
      "type": "function",
      "name": "totalWeight",
      "inputs": [],
      "outputs": [
        {
          "name": "",
          "type": "uint256",
          "internalType": "uint256"
        }
      ],
      "stateMutability": "view"
    },
    {
      "type": "function",
      "name": "totalWeights",
      "inputs": [],
      "outputs": [
        {
          "name": "",
          "type": "uint256",
          "internalType": "uint256"
        }
      ],
      "stateMutability": "view"
    },
    {
      "type": "function",
      "name": "updateTrustedOrganizations",
      "inputs": [
        {
          "name": "_list",
          "type": "tuple[]",
          "internalType": "struct IRoninTrustedOrganization.TrustedOrganization[]",
          "components": [
            {
              "name": "consensusAddr",
              "type": "address",
              "internalType": "TConsensus"
            },
            {
              "name": "governor",
              "type": "address",
              "internalType": "address"
            },
            {
              "name": "__deprecatedBridgeVoter",
              "type": "address",
              "internalType": "address"
            },
            {
              "name": "weight",
              "type": "uint256",
              "internalType": "uint256"
            },
            {
              "name": "addedBlock",
              "type": "uint256",
              "internalType": "uint256"
            }
          ]
        }
      ],
      "outputs": [],
      "stateMutability": "nonpayable"
    },
    {
      "type": "event",
      "name": "ConsensusAddressOfTrustedOrgChanged",
      "inputs": [
        {
          "name": "orgAfterChanged",
          "type": "tuple",
          "indexed": false,
          "internalType": "struct IRoninTrustedOrganization.TrustedOrganization",
          "components": [
            {
              "name": "consensusAddr",
              "type": "address",
              "internalType": "TConsensus"
            },
            {
              "name": "governor",
              "type": "address",
              "internalType": "address"
            },
            {
              "name": "__deprecatedBridgeVoter",
              "type": "address",
              "internalType": "address"
            },
            {
              "name": "weight",
              "type": "uint256",
              "internalType": "uint256"
            },
            {
              "name": "addedBlock",
              "type": "uint256",
              "internalType": "uint256"
            }
          ]
        },
        {
          "name": "oldConsensus",
          "type": "address",
          "indexed": false,
          "internalType": "TConsensus"
        }
      ],
      "anonymous": false
    },
    {
      "type": "event",
      "name": "ContractUpdated",
      "inputs": [
        {
          "name": "contractType",
          "type": "uint8",
          "indexed": true,
          "internalType": "enum ContractType"
        },
        {
          "name": "addr",
          "type": "address",
          "indexed": true,
          "internalType": "address"
        }
      ],
      "anonymous": false
    },
    {
      "type": "event",
      "name": "Initialized",
      "inputs": [
        {
          "name": "version",
          "type": "uint8",
          "indexed": false,
          "internalType": "uint8"
        }
      ],
      "anonymous": false
    },
    {
      "type": "event",
      "name": "ThresholdUpdated",
      "inputs": [
        {
          "name": "nonce",
          "type": "uint256",
          "indexed": true,
          "internalType": "uint256"
        },
        {
          "name": "numerator",
          "type": "uint256",
          "indexed": true,
          "internalType": "uint256"
        },
        {
          "name": "denominator",
          "type": "uint256",
          "indexed": true,
          "internalType": "uint256"
        },
        {
          "name": "previousNumerator",
          "type": "uint256",
          "indexed": false,
          "internalType": "uint256"
        },
        {
          "name": "previousDenominator",
          "type": "uint256",
          "indexed": false,
          "internalType": "uint256"
        }
      ],
      "anonymous": false
    },
    {
      "type": "event",
      "name": "TrustedOrganizationsAdded",
      "inputs": [
        {
          "name": "orgs",
          "type": "tuple[]",
          "indexed": false,
          "internalType": "struct IRoninTrustedOrganization.TrustedOrganization[]",
          "components": [
            {
              "name": "consensusAddr",
              "type": "address",
              "internalType": "TConsensus"
            },
            {
              "name": "governor",
              "type": "address",
              "internalType": "address"
            },
            {
              "name": "__deprecatedBridgeVoter",
              "type": "address",
              "internalType": "address"
            },
            {
              "name": "weight",
              "type": "uint256",
              "internalType": "uint256"
            },
            {
              "name": "addedBlock",
              "type": "uint256",
              "internalType": "uint256"
            }
          ]
        }
      ],
      "anonymous": false
    },
    {
      "type": "event",
      "name": "TrustedOrganizationsRemoved",
      "inputs": [
        {
          "name": "orgs",
          "type": "address[]",
          "indexed": false,
          "internalType": "TConsensus[]"
        }
      ],
      "anonymous": false
    },
    {
      "type": "event",
      "name": "TrustedOrganizationsUpdated",
      "inputs": [
        {
          "name": "orgs",
          "type": "tuple[]",
          "indexed": false,
          "internalType": "struct IRoninTrustedOrganization.TrustedOrganization[]",
          "components": [
            {
              "name": "consensusAddr",
              "type": "address",
              "internalType": "TConsensus"
            },
            {
              "name": "governor",
              "type": "address",
              "internalType": "address"
            },
            {
              "name": "__deprecatedBridgeVoter",
              "type": "address",
              "internalType": "address"
            },
            {
              "name": "weight",
              "type": "uint256",
              "internalType": "uint256"
            },
            {
              "name": "addedBlock",
              "type": "uint256",
              "internalType": "uint256"
            }
          ]
        }
      ],
      "anonymous": false
    },
    {
      "type": "error",
      "name": "ErrConsensusAddressIsAlreadyAdded",
      "inputs": [
        {
          "name": "addr",
          "type": "address",
          "internalType": "TConsensus"
        }
      ]
    },
    {
      "type": "error",
      "name": "ErrConsensusAddressIsNotAdded",
      "inputs": [
        {
          "name": "addr",
          "type": "address",
          "internalType": "TConsensus"
        }
      ]
    },
    {
      "type": "error",
      "name": "ErrContractTypeNotFound",
      "inputs": [
        {
          "name": "contractType",
          "type": "uint8",
          "internalType": "enum ContractType"
        }
      ]
    },
    {
      "type": "error",
      "name": "ErrDuplicated",
      "inputs": [
        {
          "name": "msgSig",
          "type": "bytes4",
          "internalType": "bytes4"
        }
      ]
    },
    {
      "type": "error",
      "name": "ErrEmptyArray",
      "inputs": []
    },
    {
      "type": "error",
      "name": "ErrGovernorAddressIsAlreadyAdded",
      "inputs": [
        {
          "name": "addr",
          "type": "address",
          "internalType": "address"
        }
      ]
    },
    {
      "type": "error",
      "name": "ErrInvalidRequest",
      "inputs": []
    },
    {
      "type": "error",
      "name": "ErrInvalidThreshold",
      "inputs": [
        {
          "name": "msgSig",
          "type": "bytes4",
          "internalType": "bytes4"
        }
      ]
    },
    {
      "type": "error",
      "name": "ErrInvalidVoteWeight",
      "inputs": [
        {
          "name": "msgSig",
          "type": "bytes4",
          "internalType": "bytes4"
        }
      ]
    },
    {
      "type": "error",
      "name": "ErrQueryForDupplicated",
      "inputs": []
    },
    {
      "type": "error",
      "name": "ErrQueryForNonExistentConsensusAddress",
      "inputs": []
    },
    {
      "type": "error",
      "name": "ErrUnauthorized",
      "inputs": [
        {
          "name": "msgSig",
          "type": "bytes4",
          "internalType": "bytes4"
        },
        {
          "name": "expectedRole",
          "type": "uint8",
          "internalType": "enum RoleAccess"
        }
      ]
    },
    {
      "type": "error",
      "name": "ErrUnexpectedInternalCall",
      "inputs": [
        {
          "name": "msgSig",
          "type": "bytes4",
          "internalType": "bytes4"
        },
        {
          "name": "expectedContractType",
          "type": "uint8",
          "internalType": "enum ContractType"
        },
        {
          "name": "actual",
          "type": "address",
          "internalType": "address"
        }
      ]
    },
    {
      "type": "error",
      "name": "ErrZeroCodeContract",
      "inputs": [
        {
          "name": "addr",
          "type": "address",
          "internalType": "address"
        }
      ]
    }
  ],
  "absolutePath": "RoninTrustedOrganization.sol",
  "address": "0xB0B2C0b54Cbfc79936a47B1461F3eBE5d0dfAa46",
  "blockNumber": 27813238,
  "bytecode": "0x6080604052348015600f57600080fd5b506016601a565b60d8565b600054610100900460ff161560855760405162461bcd60e51b815260206004820152602760248201527f496e697469616c697a61626c653a20636f6e747261637420697320696e697469604482015266616c697a696e6760c81b606482015260840160405180910390fd5b60005460ff908116101560d6576000805460ff191660ff9081179091556040519081527f7f26b83ff96e1f2b6a682f133852f6798a09c465da95921460cefb38474024989060200160405180910390a15b565b612884806100e76000396000f3fe608060405234801561001057600080fd5b50600436106101b95760003560e01c806396c82e57116100f9578063cc7e6b3b11610097578063db6693a211610071578063db6693a2146103aa578063de981f1b146103ca578063e75235b8146103f5578063f09267c21461040057600080fd5b8063cc7e6b3b1461034b578063d78392f81461035e578063dafae4081461038757600080fd5b8063b505a07c116100d3578063b505a07c146102f5578063b7f67e9714610308578063b8cc3a5014610310578063b9c362091461032357600080fd5b806396c82e57146102c7578063a0c302a7146102cf578063a85c7d6e146102e257600080fd5b80635f14a1c3116101665780637de5dedd116101405780637de5dedd14610291578063865e6fd314610299578063903bb3c5146102ac578063926323d5146102bf57600080fd5b80635f14a1c314610258578063691845a91461026b5780637c37103c1461027e57600080fd5b80632cccb53c116101975780632cccb53c1461020457806341feed1c14610224578063520fce621461024557600080fd5b80630ed285df146101be57806315074005146101d357806329b6eca9146101f1575b600080fd5b6101d16101cc366004611ed1565b610413565b005b6101db610429565b6040516101e89190611f13565b60405180910390f35b6101d16101ff366004611fb0565b6105e6565b610217610212366004612012565b610742565b6040516101e89190612048565b610237610232366004611fb0565b610797565b6040519081526020016101e8565b610217610253366004612012565b6107b5565b610237610266366004612012565b6107fa565b610237610279366004612012565b61087c565b6101d161028c366004612080565b6108e8565b610237610a21565b6101d16102a73660046120e0565b610a5e565b6102376102ba366004612012565b610a79565b610237610ade565b600354610237565b6101d16102dd366004612117565b610b42565b6101d16102f0366004612012565b610c3d565b6101d1610303366004611ed1565b610cdb565b600954610237565b61023761031e366004611fb0565b610d7a565b610336610331366004612135565b610da3565b604080519283526020830191909152016101e8565b610217610359366004612012565b610dc4565b61023761036c366004611fb0565b6001600160a01b031660009081526006602052604090205490565b61039a610395366004612157565b610e88565b60405190151581526020016101e8565b6103bd6103b8366004611fb0565b610eaf565b6040516101e89190612170565b6103dd6103d83660046121b8565b610f37565b6040516001600160a01b0390911681526020016101e8565b600154600254610336565b6103bd61040e366004612157565b610fcb565b61041b6110aa565b6104258282611120565b5050565b60095460609067ffffffffffffffff811115610447576104476121d3565b6040519080825280602002602001820160405280156104a057816020015b6040805160a0810182526000808252602080830182905292820181905260608201819052608082015282526000199092019101816104655790505b5090506000805b82518110156105e157600981815481106104c3576104c36121e9565b9060005260206000200160009054906101000a90046001600160a01b03169150818382815181106104f6576104f66121e9565b60209081029190910101516001600160a01b039091169052600a805482908110610522576105226121e9565b9060005260206000200160009054906101000a90046001600160a01b0316838281518110610552576105526121e9565b6020026020010151602001906001600160a01b031690816001600160a01b031681525050600083828151811061058a5761058a6121e9565b6020908102919091018101516001600160a01b0392831660409182015291841660009081526005909152205483518490839081106105ca576105ca6121e9565b6020908102919091010151606001526001016104a7565b505090565b600054600290610100900460ff16158015610608575060005460ff8083169116105b61067f5760405162461bcd60e51b815260206004820152602e60248201527f496e697469616c697a61626c653a20636f6e747261637420697320616c72656160448201527f647920696e697469616c697a656400000000000000000000000000000000000060648201526084015b60405180910390fd5b6000805461ffff191660ff83161761010017905561069e600f83611195565b60005b600b548110156106ef5760076000600b83815481106106c2576106c26121e9565b60009182526020808320909101546001600160a01b031683528201929092526040018120556001016106a1565b506106fc600b6000611e5a565b6000805461ff001916905560405160ff821681527f7f26b83ff96e1f2b6a682f133852f6798a09c465da95921460cefb3847402498906020015b60405180910390a15050565b6060600061078284848080602002602001604051908101604052809392919081815260200183836020028082843760009201919091525061124692505050565b905061078d816112c2565b9150505b92915050565b6001600160a01b038116600090815260056020526040812054610791565b60606107f38383808060200260200160405190810160405280939291908181526020018383602002808284376000920191909152506112c292505050565b9392505050565b6040517f903bb3c5000000000000000000000000000000000000000000000000000000008152600090309063903bb3c59061083b90869086906004016121ff565b602060405180830381865afa158015610858573d6000803e3d6000fd5b505050506040513d601f19601f820116820180604052508101906107f3919061224d565b6000805b828110156108e1576005600085858481811061089e5761089e6121e9565b90506020020160208101906108b39190611fb0565b6001600160a01b031681526020810191909152604001600020546108d7908361227c565b9150600101610880565b5092915050565b600054610100900460ff16158080156109085750600054600160ff909116105b806109225750303b158015610922575060005460ff166001145b6109945760405162461bcd60e51b815260206004820152602e60248201527f496e697469616c697a61626c653a20636f6e747261637420697320616c72656160448201527f647920696e697469616c697a65640000000000000000000000000000000000006064820152608401610676565b6000805460ff1916600117905580156109b7576000805461ff0019166101001790555b83156109c7576109c78585611120565b6109d18383611373565b50508015610a1a576000805461ff0019169055604051600181527f7f26b83ff96e1f2b6a682f133852f6798a09c465da95921460cefb3847402498906020015b60405180910390a15b5050505050565b60006002546001600254600354600154610a3b919061228f565b610a45919061227c565b610a4f91906122a6565b610a5991906122b9565b905090565b610a666110aa565b610a6f81611422565b6104258282611195565b6000805b828110156108e15760066000858584818110610a9b57610a9b6121e9565b9050602002016020810190610ab09190611fb0565b6001600160a01b03168152602081019190915260400160002054610ad4908361227c565b9150600101610a7d565b6000306001600160a01b03166396c82e576040518163ffffffff1660e01b8152600401602060405180830381865afa158015610b1e573d6000803e3d6000fd5b505050506040513d601f19601f82011682018060405250810190610a59919061224d565b600f610b4d81611474565b600080610b59856114d9565b9150915081610b86576040516349f748eb60e01b81526001600160a01b0386166004820152602401610676565b8360098281548110610b9a57610b9a6121e9565b6000918252602080832091909101805473ffffffffffffffffffffffffffffffffffffffff19166001600160a01b03948516179055878316808352600580835260408085208054968b1686528186209690965560088452808520439055918452908320839055905290557faf495cd00cf8595e5fc29a082a18b71cad844d97ab40237b7405693a910c50a2610c2e82610fcb565b86604051610a119291906122db565b610c456110aa565b6000819003610c67576040516316ee9d3b60e11b815260040160405180910390fd5b60005b81811015610ca957610ca1838383818110610c8757610c876121e9565b9050602002016020810190610c9c9190611fb0565b61153e565b600101610c6a565b507f121945697ac30ee0fc67821492cb685c65f0ea4d7f1b710fde44d6e2237f43a78282604051610736929190612339565b610ce36110aa565b6000819003610d05576040516316ee9d3b60e11b815260040160405180910390fd5b60005b81811015610d4857610d40838383818110610d2557610d256121e9565b905060a00201803603810190610d3b91906123d7565b61177a565b600101610d08565b507fe887c8106c09d1770c0ef0bf8ca62c54766f18b07506801865501783376cbeda828260405161073692919061245f565b6000610791610d88836119ac565b6001600160a01b031660009081526005602052604090205490565b600080610dae6110aa565b610db88484611373565b915091505b9250929050565b60608167ffffffffffffffff811115610ddf57610ddf6121d3565b604051908082528060200260200182016040528015610e08578160200160208202803683370190505b50905060005b81518110156108e15760066000858584818110610e2d57610e2d6121e9565b9050602002016020810190610e429190611fb0565b6001600160a01b03166001600160a01b0316815260200190815260200160002054828281518110610e7557610e756121e9565b6020908102919091010152600101610e0e565b6000600354600154610e9a919061228f565b600254610ea7908461228f565b101592915050565b6040805160a0810182526000808252602082018190529181018290526060810182905260808101829052905b600954811015610f3157610f1860098281548110610efb57610efb6121e9565b6000918252602090912001546001600160a01b0385811691161490565b15610f2957610f2681610fcb565b91505b600101610edb565b50919050565b60007fdea3103d22025c269050bea94c0c84688877f12fa22b7e6d2d5d78a9a49aa1cb6000836010811115610f6e57610f6e6124f0565b60ff1681526020810191909152604001600020546001600160a01b0316905080610fc657816040517f812281be000000000000000000000000000000000000000000000000000000008152600401610676919061251a565b919050565b6040805160a08101825260008082526020820181905291810182905260608101829052608081019190915260006009838154811061100b5761100b6121e9565b9060005260206000200160009054906101000a90046001600160a01b031690506040518060a00160405280826001600160a01b03168152602001600a8581548110611058576110586121e9565b60009182526020808320909101546001600160a01b0390811684528382018390529490941680825260058552604080832054818501529082526008909452929092205460609092019190915292915050565b7fb53127684a568b3173ae13b9f8a6016e243e63b6e8ee1178d6a717850b5d6103546001600160a01b0316331461111e576000356001600160e01b03191660016040517f3e523c00000000000000000000000000000000000000000000000000000000008152600401610676929190612528565b565b60005b818110156111635761115b838383818110611140576111406121e9565b905060a0020180360381019061115691906123d7565b611a4b565b600101611123565b507fc753dbf7952c70ff6b9fa7b626403aa1d2230d97136b635bd5e85bec72bcca6c828260405161073692919061245f565b807fdea3103d22025c269050bea94c0c84688877f12fa22b7e6d2d5d78a9a49aa1cb60008460108111156111cb576111cb6124f0565b60ff1681526020810191909152604001600020805473ffffffffffffffffffffffffffffffffffffffff19166001600160a01b039283161790558116826010811115611219576112196124f0565b6040517f865d1c228a8ea13709cfe61f346f7ff67f1bbd4a18ff31ad3e7147350d317c5990600090a35050565b6060611252600f610f37565b6001600160a01b031663b261596f836040518263ffffffff1660e01b815260040161127d9190612556565b600060405180830381865afa15801561129a573d6000803e3d6000fd5b505050506040513d6000823e601f3d908101601f1916820160405261079191908101906125a2565b6060815167ffffffffffffffff8111156112de576112de6121d3565b604051908082528060200260200182016040528015611307578160200160208202803683370190505b50905060005b8151811015610f315761134e83828151811061132b5761132b6121e9565b60200260200101516001600160a01b031660009081526005602052604090205490565b828281518110611360576113606121e9565b602090810291909101015260010161130d565b600080828411156113be576040517f87f6f0950000000000000000000000000000000000000000000000000000000081526001600160e01b0319600035166004820152602401610676565b50506001805460028054858455908490556004805493840190556040805183815260208101839052929391928592879290917f976f8a9c5bdf8248dec172376d6e2b80a8e3df2f0328e381c6db8e1cf138c0f8910160405180910390a49250929050565b806001600160a01b03163b600003611471576040517f2ff1928c0000000000000000000000000000000000000000000000000000000081526001600160a01b0382166004820152602401610676565b50565b61147d81610f37565b6001600160a01b0316336001600160a01b031614611471576000356001600160e01b03191681336040517f8383e63400000000000000000000000000000000000000000000000000000000815260040161067693929190612654565b6009546000908190815b818110156115375761151e60098281548110611501576115016121e9565b6000918252602090912001546001600160a01b0387811691161490565b1561152f5760019590945092505050565b6001016114e3565b5050915091565b6001600160a01b03811660009081526005602052604081205490819003611583576040516349f748eb60e01b81526001600160a01b0383166004820152602401610676565b600061158e836114d9565b91505081600360008282546115a391906122a6565b90915550506001600160a01b0383166000908152600860209081526040808320839055600590915281205560098054906115de6001836122a6565b815481106115ee576115ee6121e9565b600091825260209091200154600980546001600160a01b03909216918490811061161a5761161a6121e9565b9060005260206000200160006101000a8154816001600160a01b0302191690836001600160a01b03160217905550600980548061165957611659612689565b6001900381819060005260206000200160006101000a8154906001600160a01b030219169055905560066000600a8481548110611698576116986121e9565b60009182526020808320909101546001600160a01b03168352820192909252604001812055600a6116ca6001836122a6565b815481106116da576116da6121e9565b600091825260209091200154600a80546001600160a01b039092169184908110611706576117066121e9565b9060005260206000200160006101000a8154816001600160a01b0302191690836001600160a01b03160217905550600a80548061174557611745612689565b6000828152602090208101600019908101805473ffffffffffffffffffffffffffffffffffffffff1916905501905550505050565b61178381611c54565b80516001600160a01b0316600090815260056020526040812054908190036117cc5781516040516349f748eb60e01b81526001600160a01b039091166004820152602401610676565b60095460005b818110156119a65761180f600982815481106117f0576117f06121e9565b60009182526020909120015485516001600160a01b0390811691161490565b1561199e57826003600082825461182691906122a6565b909155505060608401516003805460009061184290849061227c565b9250508190555083602001516001600160a01b0316600a828154811061186a5761186a6121e9565b6000918252602090912001546001600160a01b03161461195e576020808501516001600160a01b0316600090815260069091526040902054156118d9576040517f46da180900000000000000000000000000000000000000000000000000000000815260040160405180910390fd5b60066000600a83815481106118f0576118f06121e9565b60009182526020808320909101546001600160a01b03168352828101939093526040909101812055840151600a80548390811061192f5761192f6121e9565b9060005260206000200160006101000a8154816001600160a01b0302191690836001600160a01b031602179055505b50505060608101805182516001600160a01b0390811660009081526005602090815260408083209490945593519484015190911681526006909252902055565b6001016117d2565b50505050565b60006119b8600f610f37565b6040517ff46609400000000000000000000000000000000000000000000000000000000081526001600160a01b038481166004830152919091169063f466094090602401600060405180830381865afa158015611a19573d6000803e3d6000fd5b505050506040513d6000823e601f3d908101601f19168201604052611a419190810190612724565b6020015192915050565b608081015115611a87576040517f94e1670800000000000000000000000000000000000000000000000000000000815260040160405180910390fd5b611a9081611c54565b80516001600160a01b031660009081526005602052604090205415611aef5780516040517fada9a3530000000000000000000000000000000000000000000000000000000081526001600160a01b039091166004820152602401610676565b6020808201516001600160a01b031660009081526006909152604090205415611b555760208101516040517ffebc5eb20000000000000000000000000000000000000000000000000000000081526001600160a01b039091166004820152602401610676565b8051600980546001808201835560009283527f6e1540171b6c0c960b71a7020d9f60077f6af931a8bbf590da0223dacf75c7af909101805473ffffffffffffffffffffffffffffffffffffffff199081166001600160a01b0395861617909155606085018051865186168552600560209081526040808720929092558088018051600a8054978801815588527fc65a7bb8d6351c1cf70c95a316cc6a92839c986682d98bc35f958f4883f9d2a8909601805490951695881695909517909355815193518616855260068352808520939093558551909416835260089052812043905590516003805491929091611c4c90849061227c565b909155505050565b8060600151600003611ca0576040517ffe2371460000000000000000000000000000000000000000000000000000000081526001600160e01b0319600035166004820152602401610676565b6040805160038082526080820190925260009160208201606080368337019050509050816000015181600081518110611cdb57611cdb6121e9565b60200260200101906001600160a01b031690816001600160a01b031681525050816020015181600181518110611d1357611d136121e9565b60200260200101906001600160a01b031690816001600160a01b031681525050816040015181600281518110611d4b57611d4b6121e9565b60200260200101906001600160a01b031690816001600160a01b031681525050611d7481611db9565b15610425576040517f1ad2fb620000000000000000000000000000000000000000000000000000000081526001600160e01b0319600035166004820152602401610676565b8051600090808203611dce5750600092915050565b60005b60018203811015611e5057600181015b82811015611e4757848181518110611dfb57611dfb6121e9565b60200260200101516001600160a01b0316858381518110611e1e57611e1e6121e9565b60200260200101516001600160a01b031603611e3f57506001949350505050565b600101611de1565b50600101611dd1565b5060009392505050565b508054600082559060005260206000209081019061147191905b80821115611e885760008155600101611e74565b5090565b60008083601f840112611e9e57600080fd5b50813567ffffffffffffffff811115611eb657600080fd5b60208301915083602060a083028501011115610dbd57600080fd5b60008060208385031215611ee457600080fd5b823567ffffffffffffffff811115611efb57600080fd5b611f0785828601611e8c565b90969095509350505050565b6020808252825182820181905260009190848201906040850190845b81811015611f8f57611f7c8385516001600160a01b038082511683528060208301511660208401528060408301511660408401525060608101516060830152608081015160808301525050565b9284019260a09290920191600101611f2f565b50909695505050505050565b6001600160a01b038116811461147157600080fd5b600060208284031215611fc257600080fd5b81356107f381611f9b565b60008083601f840112611fdf57600080fd5b50813567ffffffffffffffff811115611ff757600080fd5b6020830191508360208260051b8501011115610dbd57600080fd5b6000806020838503121561202557600080fd5b823567ffffffffffffffff81111561203c57600080fd5b611f0785828601611fcd565b6020808252825182820181905260009190848201906040850190845b81811015611f8f57835183529284019291840191600101612064565b6000806000806060858703121561209657600080fd5b843567ffffffffffffffff8111156120ad57600080fd5b6120b987828801611e8c565b90989097506020870135966040013595509350505050565b803560118110610fc657600080fd5b600080604083850312156120f357600080fd5b6120fc836120d1565b9150602083013561210c81611f9b565b809150509250929050565b6000806040838503121561212a57600080fd5b82356120fc81611f9b565b6000806040838503121561214857600080fd5b50508035926020909101359150565b60006020828403121561216957600080fd5b5035919050565b60a0810161079182846001600160a01b038082511683528060208301511660208401528060408301511660408401525060608101516060830152608081015160808301525050565b6000602082840312156121ca57600080fd5b6107f3826120d1565b634e487b7160e01b600052604160045260246000fd5b634e487b7160e01b600052603260045260246000fd5b60208082528181018390526000908460408401835b8681101561224257823561222781611f9b565b6001600160a01b031682529183019190830190600101612214565b509695505050505050565b60006020828403121561225f57600080fd5b5051919050565b634e487b7160e01b600052601160045260246000fd5b8082018082111561079157610791612266565b808202811582820484141761079157610791612266565b8181038181111561079157610791612266565b6000826122d657634e487b7160e01b600052601260045260246000fd5b500490565b60c0810161232382856001600160a01b038082511683528060208301511660208401528060408301511660408401525060608101516060830152608081015160808301525050565b6001600160a01b03831660a08301529392505050565b60208082528181018390526000908460408401835b8681101561224257823561236181611f9b565b6001600160a01b03168252918301919083019060010161234e565b604051610180810167ffffffffffffffff811182821017156123a0576123a06121d3565b60405290565b604051601f8201601f1916810167ffffffffffffffff811182821017156123cf576123cf6121d3565b604052919050565b600060a082840312156123e957600080fd5b60405160a0810181811067ffffffffffffffff8211171561240c5761240c6121d3565b604052823561241a81611f9b565b8152602083013561242a81611f9b565b6020820152604083013561243d81611f9b565b6040820152606083810135908201526080928301359281019290925250919050565b6020808252818101839052600090604080840186845b878110156124e357813561248881611f9b565b6001600160a01b03908116845282860135906124a382611f9b565b9081168487015282850135906124b882611f9b565b1683850152606082810135908401526080808301359084015260a09283019290910190600101612475565b5090979650505050505050565b634e487b7160e01b600052602160045260246000fd5b60118110612516576125166124f0565b9052565b602081016107918284612506565b6001600160e01b03198316815260408101600b8310612549576125496124f0565b8260208301529392505050565b6020808252825182820181905260009190848201906040850190845b81811015611f8f5783516001600160a01b031683529284019291840191600101612572565b8051610fc681611f9b565b600060208083850312156125b557600080fd5b825167ffffffffffffffff808211156125cd57600080fd5b818501915085601f8301126125e157600080fd5b8151818111156125f3576125f36121d3565b8060051b91506126048483016123a6565b818152918301840191848101908884111561261e57600080fd5b938501935b83851015612648578451925061263883611f9b565b8282529385019390850190612623565b98975050505050505050565b6001600160e01b031984168152606081016126726020830185612506565b6001600160a01b0383166040830152949350505050565b634e487b7160e01b600052603160045260246000fd5b600082601f8301126126b057600080fd5b815167ffffffffffffffff8111156126ca576126ca6121d3565b60206126de601f8301601f191682016123a6565b82815285828487010111156126f257600080fd5b60005b838110156127105785810183015182820184015282016126f5565b506000928101909101919091529392505050565b60006020828403121561273657600080fd5b815167ffffffffffffffff8082111561274e57600080fd5b90830190610180828603121561276357600080fd5b61276b61237c565b61277483612597565b815261278260208401612597565b602082015261279360408401612597565b60408201526127a460608401612597565b60608201526127b560808401612597565b608082015260a0830151828111156127cc57600080fd5b6127d88782860161269f565b60a08301525060c083015160c082015260e0830151828111156127fa57600080fd5b6128068782860161269f565b60e083015250610100915061281c828401612597565b91810191909152610120828101519082015261014080830151908201526101609182015191810191909152939250505056fea2646970667358221220c43d4616751c81bef43a490a9ea9f7d5336f9dacc23e8d08979898cac50d976b64736f6c63430008190033",
  "callValue": 0,
  "chainId": 2021,
  "constructorArgs": "0x",
  "contractName": "RoninTrustedOrganization",
  "deployer": "0x968D0Cd7343f711216817E617d3f92a23dC91c07",
  "devdoc": {
    "version": 1,
    "kind": "dev",
    "methods": {
      "addTrustedOrganizations((address,address,address,uint256,uint256)[])": {
        "details": "Adds a list of addresses into the trusted organization. Requirements: - The weights should larger than 0. - The method caller is admin. - The field `addedBlock` should be blank. Emits the event `TrustedOrganizationAdded` once an organization is added."
      },
      "checkThreshold(uint256)": {
        "details": "Checks whether the `_voteWeight` passes the threshold."
      },
      "countTrustedOrganization()": {
        "details": "Returns the number of trusted organizations."
      },
      "execChangeConsensusAddressForTrustedOrg(address,address)": {
        "details": "Fallback function of `Profile-changeConsensusAddr`. Requirements: - The caller must be the Profile contract. Emits the event `ConsensusAddressOfTrustedOrgChanged` once an organization is removed."
      },
      "getAllTrustedOrganizations()": {
        "details": "Returns all of the trusted organizations."
      },
      "getConsensusWeight(address)": {
        "details": "Returns the weight of a consensus."
      },
      "getConsensusWeightById(address)": {
        "details": "Returns the weight of a consensus."
      },
      "getConsensusWeights(address[])": {
        "details": "Returns the weights of a list of consensus addresses."
      },
      "getConsensusWeightsById(address[])": {
        "details": "Returns the weights of a list of consensus addresses."
      },
      "getContract(uint8)": {
        "details": "Returns the address of a contract with a specific role. Throws an error if no contract is set for the specified role.",
        "params": {
          "contractType": "The role of the contract to retrieve."
        },
        "returns": {
          "contract_": "The address of the contract with the specified role."
        }
      },
      "getGovernorWeight(address)": {
        "details": "Returns the weight of a governor."
      },
      "getGovernorWeights(address[])": {
        "details": "Returns the weights of a list of governor addresses."
      },
      "getThreshold()": {
        "details": "Returns the threshold."
      },
      "getTrustedOrganization(address)": {
        "details": "Returns the trusted organization by consensus address. Reverts once the consensus address is non-existent."
      },
      "getTrustedOrganizationAt(uint256)": {
        "details": "Returns the trusted organization at `_index`."
      },
      "initialize((address,address,address,uint256,uint256)[],uint256,uint256)": {
        "details": "Initializes the contract storage."
      },
      "minimumVoteWeight()": {
        "details": "Returns the minimum vote weight to pass the threshold."
      },
      "removeTrustedOrganizations(address[])": {
        "details": "Removes a list of addresses from the trusted organization. Requirements: - The method caller is admin. Emits the event `TrustedOrganizationRemoved` once an organization is removed.",
        "params": {
          "consensusAddrs": "The list of consensus addresses linked to corresponding trusted organization that to be removed."
        }
      },
      "setContract(uint8,address)": {
        "details": "Sets the address of a contract with a specific role. Emits the event {ContractUpdated}.",
        "params": {
          "addr": "The address of the contract to set.",
          "contractType": "The role of the contract to set."
        }
      },
      "setThreshold(uint256,uint256)": {
        "details": "Sets the threshold. Requirements: - The method caller is admin. Emits the `ThresholdUpdated` event."
      },
      "sumConsensusWeight(address[])": {
        "details": "Returns total weights of the consensus list."
      },
      "sumGovernorWeight(address[])": {
        "details": "Returns total weights of the governor list."
      },
      "totalWeight()": {
        "details": "Returns total weights."
      },
      "updateTrustedOrganizations((address,address,address,uint256,uint256)[])": {
        "details": "Updates weights for a list of existent trusted organization. Requirements: - The weights should larger than 0. - The method caller is admin. Emits the `TrustedOrganizationUpdated` event."
      }
    },
    "events": {
      "ConsensusAddressOfTrustedOrgChanged((address,address,address,uint256,uint256),address)": {
        "details": "Emitted when the consensus address of a trusted organization is changed."
      },
      "ContractUpdated(uint8,address)": {
        "details": "Emitted when a contract is updated."
      },
      "Initialized(uint8)": {
        "details": "Triggered when the contract has been initialized or reinitialized."
      },
      "ThresholdUpdated(uint256,uint256,uint256,uint256,uint256)": {
        "details": "Emitted when the threshold is updated"
      },
      "TrustedOrganizationsAdded((address,address,address,uint256,uint256)[])": {
        "details": "Emitted when the trusted organization is added."
      },
      "TrustedOrganizationsRemoved(address[])": {
        "details": "Emitted when the trusted organization is removed."
      },
      "TrustedOrganizationsUpdated((address,address,address,uint256,uint256)[])": {
        "details": "Emitted when the trusted organization is updated."
      }
    },
    "errors": {
      "ErrConsensusAddressIsAlreadyAdded(address)": [
        {
          "details": "Error indicating that a consensus address is already added.",
          "params": {
            "addr": "The address of the consensus contract that is already added."
          }
        }
      ],
      "ErrConsensusAddressIsNotAdded(address)": [
        {
          "details": "Error indicating that a consensus address is not added.",
          "params": {
            "addr": "The address of the consensus contract that is not added."
          }
        }
      ],
      "ErrContractTypeNotFound(uint8)": [
        {
          "details": "Error of invalid role."
        }
      ],
      "ErrDuplicated(bytes4)": [
        {
          "details": "Error thrown when a duplicated element is detected in an array.",
          "params": {
            "msgSig": "The function signature that invoke the error."
          }
        }
      ],
      "ErrEmptyArray()": [
        {
          "details": "Error indicating that an array is empty when it should contain elements."
        }
      ],
      "ErrGovernorAddressIsAlreadyAdded(address)": [
        {
          "details": "Error indicating that a governor address has already been added.",
          "params": {
            "addr": "The address of the governor that is already added."
          }
        }
      ],
      "ErrInvalidRequest()": [
        {
          "details": "Error indicating that a request is invalid."
        }
      ],
      "ErrInvalidThreshold(bytes4)": [
        {
          "details": "Error indicating that the provided threshold is invalid for a specific function signature.",
          "params": {
            "msgSig": "The function signature (bytes4) that the invalid threshold applies to."
          }
        }
      ],
      "ErrInvalidVoteWeight(bytes4)": [
        {
          "details": "Error indicating that a vote weight is invalid for a specific function signature.",
          "params": {
            "msgSig": "The function signature (bytes4) that encountered an invalid vote weight."
          }
        }
      ],
      "ErrQueryForDupplicated()": [
        {
          "details": "Error indicating that a query for a duplicate entry was made."
        }
      ],
      "ErrQueryForNonExistentConsensusAddress()": [
        {
          "details": "Error indicating that a query was made for a non-existent consensus address."
        }
      ],
      "ErrUnauthorized(bytes4,uint8)": [
        {
          "details": "Error indicating that the caller is unauthorized to perform a specific function.",
          "params": {
            "expectedRole": "The role required to perform the function.",
            "msgSig": "The function signature (bytes4) that the caller is unauthorized to perform."
          }
        }
      ],
      "ErrUnexpectedInternalCall(bytes4,uint8,address)": [
        {
          "details": "Error indicating that the caller is unauthorized to perform a specific function.",
          "params": {
            "actual": "The actual address that called to the function.",
            "expectedContractType": "The contract type required to perform the function.",
            "msgSig": "The function signature (bytes4)."
          }
        }
      ],
      "ErrZeroCodeContract(address)": [
        {
          "details": "Error of set to non-contract."
        }
      ]
    }
  },
  "isFoundry": true,
  "nonce": 194389,
  "storageLayout": {
    "storage": [
      {
        "astId": 106616,
        "contract": "contracts/multi-chains/RoninTrustedOrganization.sol:RoninTrustedOrganization",
        "label": "_initialized",
        "offset": 0,
        "slot": "0",
        "type": "t_uint8"
      },
      {
        "astId": 106619,
        "contract": "contracts/multi-chains/RoninTrustedOrganization.sol:RoninTrustedOrganization",
        "label": "_initializing",
        "offset": 1,
        "slot": "0",
        "type": "t_bool"
      },
      {
        "astId": 21366,
        "contract": "contracts/multi-chains/RoninTrustedOrganization.sol:RoninTrustedOrganization",
        "label": "_num",
        "offset": 0,
        "slot": "1",
        "type": "t_uint256"
      },
      {
        "astId": 21368,
        "contract": "contracts/multi-chains/RoninTrustedOrganization.sol:RoninTrustedOrganization",
        "label": "_denom",
        "offset": 0,
        "slot": "2",
        "type": "t_uint256"
      },
      {
        "astId": 21370,
        "contract": "contracts/multi-chains/RoninTrustedOrganization.sol:RoninTrustedOrganization",
        "label": "_totalWeight",
        "offset": 0,
        "slot": "3",
        "type": "t_uint256"
      },
      {
        "astId": 21372,
        "contract": "contracts/multi-chains/RoninTrustedOrganization.sol:RoninTrustedOrganization",
        "label": "_nonce",
        "offset": 0,
        "slot": "4",
        "type": "t_uint256"
      },
      {
        "astId": 21378,
        "contract": "contracts/multi-chains/RoninTrustedOrganization.sol:RoninTrustedOrganization",
        "label": "_consensusWeight",
        "offset": 0,
        "slot": "5",
        "type": "t_mapping(t_userDefinedValueType(TConsensus)45044,t_uint256)"
      },
      {
        "astId": 21383,
        "contract": "contracts/multi-chains/RoninTrustedOrganization.sol:RoninTrustedOrganization",
        "label": "_governorWeight",
        "offset": 0,
        "slot": "6",
        "type": "t_mapping(t_address,t_uint256)"
      },
      {
        "astId": 21388,
        "contract": "contracts/multi-chains/RoninTrustedOrganization.sol:RoninTrustedOrganization",
        "label": "__deprecatedBridgeVoterWeight",
        "offset": 0,
        "slot": "7",
        "type": "t_mapping(t_address,t_uint256)"
      },
      {
        "astId": 21394,
        "contract": "contracts/multi-chains/RoninTrustedOrganization.sol:RoninTrustedOrganization",
        "label": "_addedBlock",
        "offset": 0,
        "slot": "8",
        "type": "t_mapping(t_userDefinedValueType(TConsensus)45044,t_uint256)"
      },
      {
        "astId": 21399,
        "contract": "contracts/multi-chains/RoninTrustedOrganization.sol:RoninTrustedOrganization",
        "label": "_consensusList",
        "offset": 0,
        "slot": "9",
        "type": "t_array(t_userDefinedValueType(TConsensus)45044)dyn_storage"
      },
      {
        "astId": 21403,
        "contract": "contracts/multi-chains/RoninTrustedOrganization.sol:RoninTrustedOrganization",
        "label": "_governorList",
        "offset": 0,
        "slot": "10",
        "type": "t_array(t_address)dyn_storage"
      },
      {
        "astId": 21407,
        "contract": "contracts/multi-chains/RoninTrustedOrganization.sol:RoninTrustedOrganization",
        "label": "__deprecatedBridgeVoterList",
        "offset": 0,
        "slot": "11",
        "type": "t_array(t_address)dyn_storage"
      }
    ],
    "types": {
      "t_address": {
        "encoding": "inplace",
        "label": "address",
        "numberOfBytes": "20"
      },
      "t_array(t_address)dyn_storage": {
        "encoding": "dynamic_array",
        "label": "address[]",
        "numberOfBytes": "32",
        "base": "t_address"
      },
      "t_array(t_userDefinedValueType(TConsensus)45044)dyn_storage": {
        "encoding": "dynamic_array",
        "label": "TConsensus[]",
        "numberOfBytes": "32",
        "base": "t_userDefinedValueType(TConsensus)45044"
      },
      "t_bool": {
        "encoding": "inplace",
        "label": "bool",
        "numberOfBytes": "1"
      },
      "t_mapping(t_address,t_uint256)": {
        "encoding": "mapping",
        "key": "t_address",
        "label": "mapping(address => uint256)",
        "numberOfBytes": "32",
        "value": "t_uint256"
      },
      "t_mapping(t_userDefinedValueType(TConsensus)45044,t_uint256)": {
        "encoding": "mapping",
        "key": "t_userDefinedValueType(TConsensus)45044",
        "label": "mapping(TConsensus => uint256)",
        "numberOfBytes": "32",
        "value": "t_uint256"
      },
      "t_uint256": {
        "encoding": "inplace",
        "label": "uint256",
        "numberOfBytes": "32"
      },
      "t_uint8": {
        "encoding": "inplace",
        "label": "uint8",
        "numberOfBytes": "1"
      },
      "t_userDefinedValueType(TConsensus)45044": {
        "encoding": "inplace",
        "label": "TConsensus",
        "numberOfBytes": "20"
      }
    }
  },
  "timestamp": 1717148297,
  "userdoc": {
    "version": 1,
    "kind": "user"
  }
}