{
  "abi": [
    {
      "type": "constructor",
      "inputs": [],
      "stateMutability": "nonpayable"
    },
    {
      "type": "fallback",
      "stateMutability": "payable"
    },
    {
      "type": "receive",
      "stateMutability": "payable"
    },
    {
      "type": "function",
      "name": "DEFAULT_ADDITION_GAS",
      "inputs": [],
      "outputs": [
        {
          "name": "",
          "type": "uint256",
          "internalType": "uint256"
        }
      ],
      "stateMutability": "view"
    },
    {
      "type": "function",
      "name": "PERIOD_DURATION",
      "inputs": [],
      "outputs": [
        {
          "name": "",
          "type": "uint256",
          "internalType": "uint256"
        }
      ],
      "stateMutability": "view"
    },
    {
      "type": "function",
      "name": "checkJailed",
      "inputs": [
        {
          "name": "consensus",
          "type": "address",
          "internalType": "TConsensus"
        }
      ],
      "outputs": [
        {
          "name": "",
          "type": "bool",
          "internalType": "bool"
        }
      ],
      "stateMutability": "view"
    },
    {
      "type": "function",
      "name": "checkJailedAtBlock",
      "inputs": [
        {
          "name": "addr",
          "type": "address",
          "internalType": "TConsensus"
        },
        {
          "name": "blockNum",
          "type": "uint256",
          "internalType": "uint256"
        }
      ],
      "outputs": [
        {
          "name": "",
          "type": "bool",
          "internalType": "bool"
        }
      ],
      "stateMutability": "view"
    },
    {
      "type": "function",
      "name": "checkManyJailed",
      "inputs": [
        {
          "name": "consensusList",
          "type": "address[]",
          "internalType": "TConsensus[]"
        }
      ],
      "outputs": [
        {
          "name": "",
          "type": "bool[]",
          "internalType": "bool[]"
        }
      ],
      "stateMutability": "view"
    },
    {
      "type": "function",
      "name": "checkManyJailedById",
      "inputs": [
        {
          "name": "candidateIds",
          "type": "address[]",
          "internalType": "address[]"
        }
      ],
      "outputs": [
        {
          "name": "",
          "type": "bool[]",
          "internalType": "bool[]"
        }
      ],
      "stateMutability": "view"
    },
    {
      "type": "function",
      "name": "checkMiningRewardDeprecated",
      "inputs": [
        {
          "name": "consensus",
          "type": "address",
          "internalType": "TConsensus"
        }
      ],
      "outputs": [
        {
          "name": "",
          "type": "bool",
          "internalType": "bool"
        }
      ],
      "stateMutability": "view"
    },
    {
      "type": "function",
      "name": "checkMiningRewardDeprecatedAtPeriod",
      "inputs": [
        {
          "name": "consensus",
          "type": "address",
          "internalType": "TConsensus"
        },
        {
          "name": "period",
          "type": "uint256",
          "internalType": "uint256"
        }
      ],
      "outputs": [
        {
          "name": "",
          "type": "bool",
          "internalType": "bool"
        }
      ],
      "stateMutability": "view"
    },
    {
      "type": "function",
      "name": "currentPeriod",
      "inputs": [],
      "outputs": [
        {
          "name": "",
          "type": "uint256",
          "internalType": "uint256"
        }
      ],
      "stateMutability": "view"
    },
    {
      "type": "function",
      "name": "currentPeriodStartAtBlock",
      "inputs": [],
      "outputs": [
        {
          "name": "",
          "type": "uint256",
          "internalType": "uint256"
        }
      ],
      "stateMutability": "view"
    },
    {
      "type": "function",
      "name": "emergencyExitLockedAmount",
      "inputs": [],
      "outputs": [
        {
          "name": "",
          "type": "uint256",
          "internalType": "uint256"
        }
      ],
      "stateMutability": "view"
    },
    {
      "type": "function",
      "name": "emergencyExpiryDuration",
      "inputs": [],
      "outputs": [
        {
          "name": "",
          "type": "uint256",
          "internalType": "uint256"
        }
      ],
      "stateMutability": "view"
    },
    {
      "type": "function",
      "name": "epochEndingAt",
      "inputs": [
        {
          "name": "_block",
          "type": "uint256",
          "internalType": "uint256"
        }
      ],
      "outputs": [
        {
          "name": "",
          "type": "bool",
          "internalType": "bool"
        }
      ],
      "stateMutability": "view"
    },
    {
      "type": "function",
      "name": "epochOf",
      "inputs": [
        {
          "name": "_block",
          "type": "uint256",
          "internalType": "uint256"
        }
      ],
      "outputs": [
        {
          "name": "",
          "type": "uint256",
          "internalType": "uint256"
        }
      ],
      "stateMutability": "view"
    },
    {
      "type": "function",
      "name": "execApplyValidatorCandidate",
      "inputs": [
        {
          "name": "candidateAdmin",
          "type": "address",
          "internalType": "address"
        },
        {
          "name": "cid",
          "type": "address",
          "internalType": "address"
        },
        {
          "name": "treasuryAddr",
          "type": "address",
          "internalType": "address payable"
        },
        {
          "name": "commissionRate",
          "type": "uint256",
          "internalType": "uint256"
        }
      ],
      "outputs": [],
      "stateMutability": "nonpayable"
    },
    {
      "type": "function",
      "name": "execBailOut",
      "inputs": [
        {
          "name": "validatorId",
          "type": "address",
          "internalType": "address"
        },
        {
          "name": "period",
          "type": "uint256",
          "internalType": "uint256"
        }
      ],
      "outputs": [],
      "stateMutability": "nonpayable"
    },
    {
      "type": "function",
      "name": "execChangeAdminAddr",
      "inputs": [
        {
          "name": "cid",
          "type": "address",
          "internalType": "address"
        },
        {
          "name": "newAdmin",
          "type": "address",
          "internalType": "address"
        }
      ],
      "outputs": [],
      "stateMutability": "nonpayable"
    },
    {
      "type": "function",
      "name": "execChangeConsensusAddr",
      "inputs": [
        {
          "name": "cid",
          "type": "address",
          "internalType": "address"
        },
        {
          "name": "newConsensusAddr",
          "type": "address",
          "internalType": "TConsensus"
        }
      ],
      "outputs": [],
      "stateMutability": "nonpayable"
    },
    {
      "type": "function",
      "name": "execChangeTreasuryAddr",
      "inputs": [
        {
          "name": "cid",
          "type": "address",
          "internalType": "address"
        },
        {
          "name": "newTreasury",
          "type": "address",
          "internalType": "address payable"
        }
      ],
      "outputs": [],
      "stateMutability": "nonpayable"
    },
    {
      "type": "function",
      "name": "execReleaseLockedFundForEmergencyExitRequest",
      "inputs": [
        {
          "name": "cid",
          "type": "address",
          "internalType": "address"
        },
        {
          "name": "recipient",
          "type": "address",
          "internalType": "address payable"
        }
      ],
      "outputs": [],
      "stateMutability": "nonpayable"
    },
    {
      "type": "function",
      "name": "execRequestEmergencyExit",
      "inputs": [
        {
          "name": "cid",
          "type": "address",
          "internalType": "address"
        },
        {
          "name": "secLeftToRevoke",
          "type": "uint256",
          "internalType": "uint256"
        }
      ],
      "outputs": [],
      "stateMutability": "nonpayable"
    },
    {
      "type": "function",
      "name": "execRequestRenounceCandidate",
      "inputs": [
        {
          "name": "cid",
          "type": "address",
          "internalType": "address"
        },
        {
          "name": "secsLeft",
          "type": "uint256",
          "internalType": "uint256"
        }
      ],
      "outputs": [],
      "stateMutability": "nonpayable"
    },
    {
      "type": "function",
      "name": "execRequestUpdateCommissionRate",
      "inputs": [
        {
          "name": "cid",
          "type": "address",
          "internalType": "address"
        },
        {
          "name": "effectiveDaysOnwards",
          "type": "uint256",
          "internalType": "uint256"
        },
        {
          "name": "commissionRate",
          "type": "uint256",
          "internalType": "uint256"
        }
      ],
      "outputs": [],
      "stateMutability": "nonpayable"
    },
    {
      "type": "function",
      "name": "execSlash",
      "inputs": [
        {
          "name": "validatorId",
          "type": "address",
          "internalType": "address"
        },
        {
          "name": "newJailedUntil",
          "type": "uint256",
          "internalType": "uint256"
        },
        {
          "name": "slashAmount",
          "type": "uint256",
          "internalType": "uint256"
        },
        {
          "name": "cannotBailout",
          "type": "bool",
          "internalType": "bool"
        }
      ],
      "outputs": [],
      "stateMutability": "nonpayable"
    },
    {
      "type": "function",
      "name": "getBlockProducerIds",
      "inputs": [],
      "outputs": [
        {
          "name": "cids",
          "type": "address[]",
          "internalType": "address[]"
        }
      ],
      "stateMutability": "view"
    },
    {
      "type": "function",
      "name": "getBlockProducers",
      "inputs": [],
      "outputs": [
        {
          "name": "consensusList",
          "type": "address[]",
          "internalType": "TConsensus[]"
        }
      ],
      "stateMutability": "view"
    },
    {
      "type": "function",
      "name": "getCandidateInfo",
      "inputs": [
        {
          "name": "consensus",
          "type": "address",
          "internalType": "TConsensus"
        }
      ],
      "outputs": [
        {
          "name": "",
          "type": "tuple",
          "internalType": "struct ICandidateManager.ValidatorCandidate",
          "components": [
            {
              "name": "__shadowedAdmin",
              "type": "address",
              "internalType": "address"
            },
            {
              "name": "__shadowedConsensus",
              "type": "address",
              "internalType": "TConsensus"
            },
            {
              "name": "__shadowedTreasury",
              "type": "address",
              "internalType": "address payable"
            },
            {
              "name": "____deprecatedBridgeOperatorAddr",
              "type": "address",
              "internalType": "address"
            },
            {
              "name": "commissionRate",
              "type": "uint256",
              "internalType": "uint256"
            },
            {
              "name": "revokingTimestamp",
              "type": "uint256",
              "internalType": "uint256"
            },
            {
              "name": "topupDeadline",
              "type": "uint256",
              "internalType": "uint256"
            }
          ]
        }
      ],
      "stateMutability": "view"
    },
    {
      "type": "function",
      "name": "getCandidateInfoById",
      "inputs": [
        {
          "name": "cid",
          "type": "address",
          "internalType": "address"
        }
      ],
      "outputs": [
        {
          "name": "",
          "type": "tuple",
          "internalType": "struct ICandidateManager.ValidatorCandidate",
          "components": [
            {
              "name": "__shadowedAdmin",
              "type": "address",
              "internalType": "address"
            },
            {
              "name": "__shadowedConsensus",
              "type": "address",
              "internalType": "TConsensus"
            },
            {
              "name": "__shadowedTreasury",
              "type": "address",
              "internalType": "address payable"
            },
            {
              "name": "____deprecatedBridgeOperatorAddr",
              "type": "address",
              "internalType": "address"
            },
            {
              "name": "commissionRate",
              "type": "uint256",
              "internalType": "uint256"
            },
            {
              "name": "revokingTimestamp",
              "type": "uint256",
              "internalType": "uint256"
            },
            {
              "name": "topupDeadline",
              "type": "uint256",
              "internalType": "uint256"
            }
          ]
        }
      ],
      "stateMutability": "view"
    },
    {
      "type": "function",
      "name": "getCandidateInfos",
      "inputs": [],
      "outputs": [
        {
          "name": "list",
          "type": "tuple[]",
          "internalType": "struct ICandidateManager.ValidatorCandidate[]",
          "components": [
            {
              "name": "__shadowedAdmin",
              "type": "address",
              "internalType": "address"
            },
            {
              "name": "__shadowedConsensus",
              "type": "address",
              "internalType": "TConsensus"
            },
            {
              "name": "__shadowedTreasury",
              "type": "address",
              "internalType": "address payable"
            },
            {
              "name": "____deprecatedBridgeOperatorAddr",
              "type": "address",
              "internalType": "address"
            },
            {
              "name": "commissionRate",
              "type": "uint256",
              "internalType": "uint256"
            },
            {
              "name": "revokingTimestamp",
              "type": "uint256",
              "internalType": "uint256"
            },
            {
              "name": "topupDeadline",
              "type": "uint256",
              "internalType": "uint256"
            }
          ]
        }
      ],
      "stateMutability": "view"
    },
    {
      "type": "function",
      "name": "getCommissionChangeSchedule",
      "inputs": [
        {
          "name": "consensus",
          "type": "address",
          "internalType": "TConsensus"
        }
      ],
      "outputs": [
        {
          "name": "",
          "type": "tuple",
          "internalType": "struct ICandidateManager.CommissionSchedule",
          "components": [
            {
              "name": "effectiveTimestamp",
              "type": "uint256",
              "internalType": "uint256"
            },
            {
              "name": "commissionRate",
              "type": "uint256",
              "internalType": "uint256"
            }
          ]
        }
      ],
      "stateMutability": "view"
    },
    {
      "type": "function",
      "name": "getContract",
      "inputs": [
        {
          "name": "contractType",
          "type": "uint8",
          "internalType": "enum ContractType"
        }
      ],
      "outputs": [
        {
          "name": "contract_",
          "type": "address",
          "internalType": "address payable"
        }
      ],
      "stateMutability": "view"
    },
    {
      "type": "function",
      "name": "getEmergencyExitInfo",
      "inputs": [
        {
          "name": "consensus",
          "type": "address",
          "internalType": "TConsensus"
        }
      ],
      "outputs": [
        {
          "name": "_info",
          "type": "tuple",
          "internalType": "struct ICommonInfo.EmergencyExitInfo",
          "components": [
            {
              "name": "lockedAmount",
              "type": "uint256",
              "internalType": "uint256"
            },
            {
              "name": "recyclingAt",
              "type": "uint256",
              "internalType": "uint256"
            }
          ]
        }
      ],
      "stateMutability": "view"
    },
    {
      "type": "function",
      "name": "getJailedTimeLeft",
      "inputs": [
        {
          "name": "consensus",
          "type": "address",
          "internalType": "TConsensus"
        }
      ],
      "outputs": [
        {
          "name": "isJailed_",
          "type": "bool",
          "internalType": "bool"
        },
        {
          "name": "blockLeft_",
          "type": "uint256",
          "internalType": "uint256"
        },
        {
          "name": "epochLeft_",
          "type": "uint256",
          "internalType": "uint256"
        }
      ],
      "stateMutability": "view"
    },
    {
      "type": "function",
      "name": "getJailedTimeLeftAtBlock",
      "inputs": [
        {
          "name": "consensus",
          "type": "address",
          "internalType": "TConsensus"
        },
        {
          "name": "_blockNum",
          "type": "uint256",
          "internalType": "uint256"
        }
      ],
      "outputs": [
        {
          "name": "isJailed_",
          "type": "bool",
          "internalType": "bool"
        },
        {
          "name": "blockLeft_",
          "type": "uint256",
          "internalType": "uint256"
        },
        {
          "name": "epochLeft_",
          "type": "uint256",
          "internalType": "uint256"
        }
      ],
      "stateMutability": "view"
    },
    {
      "type": "function",
      "name": "getLastUpdatedBlock",
      "inputs": [],
      "outputs": [
        {
          "name": "",
          "type": "uint256",
          "internalType": "uint256"
        }
      ],
      "stateMutability": "view"
    },
    {
      "type": "function",
      "name": "getValidatorCandidateIds",
      "inputs": [],
      "outputs": [
        {
          "name": "",
          "type": "address[]",
          "internalType": "address[]"
        }
      ],
      "stateMutability": "view"
    },
    {
      "type": "function",
      "name": "getValidatorCandidates",
      "inputs": [],
      "outputs": [
        {
          "name": "",
          "type": "address[]",
          "internalType": "TConsensus[]"
        }
      ],
      "stateMutability": "view"
    },
    {
      "type": "function",
      "name": "getValidatorIds",
      "inputs": [],
      "outputs": [
        {
          "name": "cids",
          "type": "address[]",
          "internalType": "address[]"
        }
      ],
      "stateMutability": "view"
    },
    {
      "type": "function",
      "name": "getValidators",
      "inputs": [],
      "outputs": [
        {
          "name": "consensusList",
          "type": "address[]",
          "internalType": "TConsensus[]"
        }
      ],
      "stateMutability": "view"
    },
    {
      "type": "function",
      "name": "initialize",
      "inputs": [
        {
          "name": "__slashIndicatorContract",
          "type": "address",
          "internalType": "address"
        },
        {
          "name": "__stakingContract",
          "type": "address",
          "internalType": "address"
        },
        {
          "name": "__stakingVestingContract",
          "type": "address",
          "internalType": "address"
        },
        {
          "name": "__maintenanceContract",
          "type": "address",
          "internalType": "address"
        },
        {
          "name": "__roninTrustedOrganizationContract",
          "type": "address",
          "internalType": "address"
        },
        {
          "name": "",
          "type": "address",
          "internalType": "address"
        },
        {
          "name": "",
          "type": "uint256",
          "internalType": "uint256"
        },
        {
          "name": "__maxValidatorCandidate",
          "type": "uint256",
          "internalType": "uint256"
        },
        {
          "name": "",
          "type": "uint256",
          "internalType": "uint256"
        },
        {
          "name": "__minEffectiveDaysOnwards",
          "type": "uint256",
          "internalType": "uint256"
        },
        {
          "name": "__numberOfBlocksInEpoch",
          "type": "uint256",
          "internalType": "uint256"
        },
        {
          "name": "__emergencyExitConfigs",
          "type": "uint256[2]",
          "internalType": "uint256[2]"
        }
      ],
      "outputs": [],
      "stateMutability": "nonpayable"
    },
    {
      "type": "function",
      "name": "initializeV2",
      "inputs": [],
      "outputs": [],
      "stateMutability": "nonpayable"
    },
    {
      "type": "function",
      "name": "initializeV3",
      "inputs": [
        {
          "name": "fastFinalityTrackingContract",
          "type": "address",
          "internalType": "address"
        }
      ],
      "outputs": [],
      "stateMutability": "nonpayable"
    },
    {
      "type": "function",
      "name": "initializeV4",
      "inputs": [
        {
          "name": "profileContract",
          "type": "address",
          "internalType": "address"
        }
      ],
      "outputs": [],
      "stateMutability": "nonpayable"
    },
    {
      "type": "function",
      "name": "isBlockProducer",
      "inputs": [
        {
          "name": "consensusAddr",
          "type": "address",
          "internalType": "TConsensus"
        }
      ],
      "outputs": [
        {
          "name": "",
          "type": "bool",
          "internalType": "bool"
        }
      ],
      "stateMutability": "view"
    },
    {
      "type": "function",
      "name": "isBlockProducerById",
      "inputs": [
        {
          "name": "id",
          "type": "address",
          "internalType": "address"
        }
      ],
      "outputs": [
        {
          "name": "",
          "type": "bool",
          "internalType": "bool"
        }
      ],
      "stateMutability": "view"
    },
    {
      "type": "function",
      "name": "isCandidateAdmin",
      "inputs": [
        {
          "name": "consensusAddr",
          "type": "address",
          "internalType": "TConsensus"
        },
        {
          "name": "admin",
          "type": "address",
          "internalType": "address"
        }
      ],
      "outputs": [
        {
          "name": "",
          "type": "bool",
          "internalType": "bool"
        }
      ],
      "stateMutability": "view"
    },
    {
      "type": "function",
      "name": "isCandidateAdminById",
      "inputs": [
        {
          "name": "candidateId",
          "type": "address",
          "internalType": "address"
        },
        {
          "name": "admin",
          "type": "address",
          "internalType": "address"
        }
      ],
      "outputs": [
        {
          "name": "",
          "type": "bool",
          "internalType": "bool"
        }
      ],
      "stateMutability": "view"
    },
    {
      "type": "function",
      "name": "isPeriodEnding",
      "inputs": [],
      "outputs": [
        {
          "name": "",
          "type": "bool",
          "internalType": "bool"
        }
      ],
      "stateMutability": "view"
    },
    {
      "type": "function",
      "name": "isValidatorCandidate",
      "inputs": [
        {
          "name": "consensus",
          "type": "address",
          "internalType": "TConsensus"
        }
      ],
      "outputs": [
        {
          "name": "",
          "type": "bool",
          "internalType": "bool"
        }
      ],
      "stateMutability": "view"
    },
    {
      "type": "function",
      "name": "maxPrioritizedValidatorNumber",
      "inputs": [],
      "outputs": [
        {
          "name": "_maximumPrioritizedValidatorNumber",
          "type": "uint256",
          "internalType": "uint256"
        }
      ],
      "stateMutability": "view"
    },
    {
      "type": "function",
      "name": "maxValidatorCandidate",
      "inputs": [],
      "outputs": [
        {
          "name": "",
          "type": "uint256",
          "internalType": "uint256"
        }
      ],
      "stateMutability": "view"
    },
    {
      "type": "function",
      "name": "maxValidatorNumber",
      "inputs": [],
      "outputs": [
        {
          "name": "_maximumValidatorNumber",
          "type": "uint256",
          "internalType": "uint256"
        }
      ],
      "stateMutability": "view"
    },
    {
      "type": "function",
      "name": "minEffectiveDaysOnward",
      "inputs": [],
      "outputs": [
        {
          "name": "",
          "type": "uint256",
          "internalType": "uint256"
        }
      ],
      "stateMutability": "view"
    },
    {
      "type": "function",
      "name": "numberOfBlocksInEpoch",
      "inputs": [],
      "outputs": [
        {
          "name": "_numberOfBlocks",
          "type": "uint256",
          "internalType": "uint256"
        }
      ],
      "stateMutability": "view"
    },
    {
      "type": "function",
      "name": "setContract",
      "inputs": [
        {
          "name": "contractType",
          "type": "uint8",
          "internalType": "enum ContractType"
        },
        {
          "name": "addr",
          "type": "address",
          "internalType": "address"
        }
      ],
      "outputs": [],
      "stateMutability": "nonpayable"
    },
    {
      "type": "function",
      "name": "setEmergencyExitLockedAmount",
      "inputs": [
        {
          "name": "amount",
          "type": "uint256",
          "internalType": "uint256"
        }
      ],
      "outputs": [],
      "stateMutability": "nonpayable"
    },
    {
      "type": "function",
      "name": "setEmergencyExpiryDuration",
      "inputs": [
        {
          "name": "duration",
          "type": "uint256",
          "internalType": "uint256"
        }
      ],
      "outputs": [],
      "stateMutability": "nonpayable"
    },
    {
      "type": "function",
      "name": "setMaxValidatorCandidate",
      "inputs": [
        {
          "name": "_number",
          "type": "uint256",
          "internalType": "uint256"
        }
      ],
      "outputs": [],
      "stateMutability": "nonpayable"
    },
    {
      "type": "function",
      "name": "setMinEffectiveDaysOnwards",
      "inputs": [
        {
          "name": "_numOfDays",
          "type": "uint256",
          "internalType": "uint256"
        }
      ],
      "outputs": [],
      "stateMutability": "nonpayable"
    },
    {
      "type": "function",
      "name": "submitBlockReward",
      "inputs": [],
      "outputs": [],
      "stateMutability": "payable"
    },
    {
      "type": "function",
      "name": "totalBlockProducer",
      "inputs": [],
      "outputs": [
        {
          "name": "total",
          "type": "uint256",
          "internalType": "uint256"
        }
      ],
      "stateMutability": "view"
    },
    {
      "type": "function",
      "name": "totalDeprecatedReward",
      "inputs": [],
      "outputs": [
        {
          "name": "",
          "type": "uint256",
          "internalType": "uint256"
        }
      ],
      "stateMutability": "view"
    },
    {
      "type": "function",
      "name": "tryGetPeriodOfEpoch",
      "inputs": [
        {
          "name": "_epoch",
          "type": "uint256",
          "internalType": "uint256"
        }
      ],
      "outputs": [
        {
          "name": "_filled",
          "type": "bool",
          "internalType": "bool"
        },
        {
          "name": "_periodNumber",
          "type": "uint256",
          "internalType": "uint256"
        }
      ],
      "stateMutability": "view"
    },
    {
      "type": "function",
      "name": "validatorCount",
      "inputs": [],
      "outputs": [
        {
          "name": "",
          "type": "uint256",
          "internalType": "uint256"
        }
      ],
      "stateMutability": "view"
    },
    {
      "type": "function",
      "name": "wrapUpEpoch",
      "inputs": [],
      "outputs": [],
      "stateMutability": "payable"
    },
    {
      "type": "event",
      "name": "BlockProducerSetUpdated",
      "inputs": [
        {
          "name": "period",
          "type": "uint256",
          "indexed": true,
          "internalType": "uint256"
        },
        {
          "name": "epoch",
          "type": "uint256",
          "indexed": true,
          "internalType": "uint256"
        },
        {
          "name": "cids",
          "type": "address[]",
          "indexed": false,
          "internalType": "address[]"
        }
      ],
      "anonymous": false
    },
    {
      "type": "event",
      "name": "BlockRewardDeprecated",
      "inputs": [
        {
          "name": "cid",
          "type": "address",
          "indexed": true,
          "internalType": "address"
        },
        {
          "name": "rewardAmount",
          "type": "uint256",
          "indexed": false,
          "internalType": "uint256"
        },
        {
          "name": "deprecatedType",
          "type": "uint8",
          "indexed": false,
          "internalType": "enum ICoinbaseExecution.BlockRewardDeprecatedType"
        }
      ],
      "anonymous": false
    },
    {
      "type": "event",
      "name": "BlockRewardSubmitted",
      "inputs": [
        {
          "name": "cid",
          "type": "address",
          "indexed": true,
          "internalType": "address"
        },
        {
          "name": "submittedAmount",
          "type": "uint256",
          "indexed": false,
          "internalType": "uint256"
        },
        {
          "name": "bonusAmount",
          "type": "uint256",
          "indexed": false,
          "internalType": "uint256"
        }
      ],
      "anonymous": false
    },
    {
      "type": "event",
      "name": "BridgeOperatorRewardDistributed",
      "inputs": [
        {
          "name": "cid",
          "type": "address",
          "indexed": true,
          "internalType": "address"
        },
        {
          "name": "bridgeOperator",
          "type": "address",
          "indexed": true,
          "internalType": "address"
        },
        {
          "name": "recipientAddr",
          "type": "address",
          "indexed": true,
          "internalType": "address"
        },
        {
          "name": "amount",
          "type": "uint256",
          "indexed": false,
          "internalType": "uint256"
        }
      ],
      "anonymous": false
    },
    {
      "type": "event",
      "name": "BridgeOperatorRewardDistributionFailed",
      "inputs": [
        {
          "name": "cid",
          "type": "address",
          "indexed": true,
          "internalType": "address"
        },
        {
          "name": "bridgeOperator",
          "type": "address",
          "indexed": true,
          "internalType": "address"
        },
        {
          "name": "recipient",
          "type": "address",
          "indexed": true,
          "internalType": "address"
        },
        {
          "name": "amount",
          "type": "uint256",
          "indexed": false,
          "internalType": "uint256"
        },
        {
          "name": "contractBalance",
          "type": "uint256",
          "indexed": false,
          "internalType": "uint256"
        }
      ],
      "anonymous": false
    },
    {
      "type": "event",
      "name": "BridgeOperatorSetUpdated",
      "inputs": [
        {
          "name": "period",
          "type": "uint256",
          "indexed": true,
          "internalType": "uint256"
        },
        {
          "name": "epoch",
          "type": "uint256",
          "indexed": true,
          "internalType": "uint256"
        },
        {
          "name": "bridgeOperators",
          "type": "address[]",
          "indexed": false,
          "internalType": "address[]"
        }
      ],
      "anonymous": false
    },
    {
      "type": "event",
      "name": "CandidateGranted",
      "inputs": [
        {
          "name": "cid",
          "type": "address",
          "indexed": true,
          "internalType": "address"
        },
        {
          "name": "treasuryAddr",
          "type": "address",
          "indexed": true,
          "internalType": "address"
        },
        {
          "name": "admin",
          "type": "address",
          "indexed": true,
          "internalType": "address"
        }
      ],
      "anonymous": false
    },
    {
      "type": "event",
      "name": "CandidateRevokingTimestampUpdated",
      "inputs": [
        {
          "name": "cid",
          "type": "address",
          "indexed": true,
          "internalType": "address"
        },
        {
          "name": "revokingTimestamp",
          "type": "uint256",
          "indexed": false,
          "internalType": "uint256"
        }
      ],
      "anonymous": false
    },
    {
      "type": "event",
      "name": "CandidateTopupDeadlineUpdated",
      "inputs": [
        {
          "name": "cid",
          "type": "address",
          "indexed": true,
          "internalType": "address"
        },
        {
          "name": "topupDeadline",
          "type": "uint256",
          "indexed": false,
          "internalType": "uint256"
        }
      ],
      "anonymous": false
    },
    {
      "type": "event",
      "name": "CandidatesRevoked",
      "inputs": [
        {
          "name": "cids",
          "type": "address[]",
          "indexed": false,
          "internalType": "address[]"
        }
      ],
      "anonymous": false
    },
    {
      "type": "event",
      "name": "CommissionRateUpdateScheduled",
      "inputs": [
        {
          "name": "cid",
          "type": "address",
          "indexed": true,
          "internalType": "address"
        },
        {
          "name": "effectiveTimestamp",
          "type": "uint256",
          "indexed": false,
          "internalType": "uint256"
        },
        {
          "name": "rate",
          "type": "uint256",
          "indexed": false,
          "internalType": "uint256"
        }
      ],
      "anonymous": false
    },
    {
      "type": "event",
      "name": "CommissionRateUpdated",
      "inputs": [
        {
          "name": "cid",
          "type": "address",
          "indexed": true,
          "internalType": "address"
        },
        {
          "name": "rate",
          "type": "uint256",
          "indexed": false,
          "internalType": "uint256"
        }
      ],
      "anonymous": false
    },
    {
      "type": "event",
      "name": "ContractUpdated",
      "inputs": [
        {
          "name": "contractType",
          "type": "uint8",
          "indexed": true,
          "internalType": "enum ContractType"
        },
        {
          "name": "addr",
          "type": "address",
          "indexed": true,
          "internalType": "address"
        }
      ],
      "anonymous": false
    },
    {
      "type": "event",
      "name": "DeprecatedRewardRecycleFailed",
      "inputs": [
        {
          "name": "recipientAddr",
          "type": "address",
          "indexed": true,
          "internalType": "address"
        },
        {
          "name": "amount",
          "type": "uint256",
          "indexed": false,
          "internalType": "uint256"
        },
        {
          "name": "balance",
          "type": "uint256",
          "indexed": false,
          "internalType": "uint256"
        }
      ],
      "anonymous": false
    },
    {
      "type": "event",
      "name": "DeprecatedRewardRecycled",
      "inputs": [
        {
          "name": "recipientAddr",
          "type": "address",
          "indexed": true,
          "internalType": "address"
        },
        {
          "name": "amount",
          "type": "uint256",
          "indexed": false,
          "internalType": "uint256"
        }
      ],
      "anonymous": false
    },
    {
      "type": "event",
      "name": "EmergencyExitLockedAmountUpdated",
      "inputs": [
        {
          "name": "amount",
          "type": "uint256",
          "indexed": false,
          "internalType": "uint256"
        }
      ],
      "anonymous": false
    },
    {
      "type": "event",
      "name": "EmergencyExitLockedFundReleased",
      "inputs": [
        {
          "name": "cid",
          "type": "address",
          "indexed": true,
          "internalType": "address"
        },
        {
          "name": "recipient",
          "type": "address",
          "indexed": true,
          "internalType": "address"
        },
        {
          "name": "unlockedAmount",
          "type": "uint256",
          "indexed": false,
          "internalType": "uint256"
        }
      ],
      "anonymous": false
    },
    {
      "type": "event",
      "name": "EmergencyExitLockedFundReleasingFailed",
      "inputs": [
        {
          "name": "cid",
          "type": "address",
          "indexed": true,
          "internalType": "address"
        },
        {
          "name": "recipient",
          "type": "address",
          "indexed": true,
          "internalType": "address"
        },
        {
          "name": "unlockedAmount",
          "type": "uint256",
          "indexed": false,
          "internalType": "uint256"
        },
        {
          "name": "contractBalance",
          "type": "uint256",
          "indexed": false,
          "internalType": "uint256"
        }
      ],
      "anonymous": false
    },
    {
      "type": "event",
      "name": "EmergencyExitRequested",
      "inputs": [
        {
          "name": "cid",
          "type": "address",
          "indexed": true,
          "internalType": "address"
        },
        {
          "name": "lockedAmount",
          "type": "uint256",
          "indexed": false,
          "internalType": "uint256"
        }
      ],
      "anonymous": false
    },
    {
      "type": "event",
      "name": "EmergencyExpiryDurationUpdated",
      "inputs": [
        {
          "name": "amount",
          "type": "uint256",
          "indexed": false,
          "internalType": "uint256"
        }
      ],
      "anonymous": false
    },
    {
      "type": "event",
      "name": "FastFinalityRewardDistributed",
      "inputs": [
        {
          "name": "cid",
          "type": "address",
          "indexed": true,
          "internalType": "address"
        },
        {
          "name": "recipient",
          "type": "address",
          "indexed": true,
          "internalType": "address"
        },
        {
          "name": "amount",
          "type": "uint256",
          "indexed": false,
          "internalType": "uint256"
        }
      ],
      "anonymous": false
    },
    {
      "type": "event",
      "name": "FastFinalityRewardDistributionFailed",
      "inputs": [
        {
          "name": "cid",
          "type": "address",
          "indexed": true,
          "internalType": "address"
        },
        {
          "name": "recipient",
          "type": "address",
          "indexed": true,
          "internalType": "address"
        },
        {
          "name": "amount",
          "type": "uint256",
          "indexed": false,
          "internalType": "uint256"
        },
        {
          "name": "contractBalance",
          "type": "uint256",
          "indexed": false,
          "internalType": "uint256"
        }
      ],
      "anonymous": false
    },
    {
      "type": "event",
      "name": "Initialized",
      "inputs": [
        {
          "name": "version",
          "type": "uint8",
          "indexed": false,
          "internalType": "uint8"
        }
      ],
      "anonymous": false
    },
    {
      "type": "event",
      "name": "MaxValidatorCandidateUpdated",
      "inputs": [
        {
          "name": "threshold",
          "type": "uint256",
          "indexed": false,
          "internalType": "uint256"
        }
      ],
      "anonymous": false
    },
    {
      "type": "event",
      "name": "MinEffectiveDaysOnwardsUpdated",
      "inputs": [
        {
          "name": "numOfDays",
          "type": "uint256",
          "indexed": false,
          "internalType": "uint256"
        }
      ],
      "anonymous": false
    },
    {
      "type": "event",
      "name": "MiningRewardDistributed",
      "inputs": [
        {
          "name": "cid",
          "type": "address",
          "indexed": true,
          "internalType": "address"
        },
        {
          "name": "recipient",
          "type": "address",
          "indexed": true,
          "internalType": "address"
        },
        {
          "name": "amount",
          "type": "uint256",
          "indexed": false,
          "internalType": "uint256"
        }
      ],
      "anonymous": false
    },
    {
      "type": "event",
      "name": "MiningRewardDistributionFailed",
      "inputs": [
        {
          "name": "cid",
          "type": "address",
          "indexed": true,
          "internalType": "address"
        },
        {
          "name": "recipient",
          "type": "address",
          "indexed": true,
          "internalType": "address"
        },
        {
          "name": "amount",
          "type": "uint256",
          "indexed": false,
          "internalType": "uint256"
        },
        {
          "name": "contractBalance",
          "type": "uint256",
          "indexed": false,
          "internalType": "uint256"
        }
      ],
      "anonymous": false
    },
    {
      "type": "event",
      "name": "StakingRewardDistributed",
      "inputs": [
        {
          "name": "totalAmount",
          "type": "uint256",
          "indexed": false,
          "internalType": "uint256"
        },
        {
          "name": "cids",
          "type": "address[]",
          "indexed": false,
          "internalType": "address[]"
        },
        {
          "name": "amounts",
          "type": "uint256[]",
          "indexed": false,
          "internalType": "uint256[]"
        }
      ],
      "anonymous": false
    },
    {
      "type": "event",
      "name": "StakingRewardDistributionFailed",
      "inputs": [
        {
          "name": "totalAmount",
          "type": "uint256",
          "indexed": false,
          "internalType": "uint256"
        },
        {
          "name": "cids",
          "type": "address[]",
          "indexed": false,
          "internalType": "address[]"
        },
        {
          "name": "amounts",
          "type": "uint256[]",
          "indexed": false,
          "internalType": "uint256[]"
        },
        {
          "name": "contractBalance",
          "type": "uint256",
          "indexed": false,
          "internalType": "uint256"
        }
      ],
      "anonymous": false
    },
    {
      "type": "event",
      "name": "ValidatorPunished",
      "inputs": [
        {
          "name": "cid",
          "type": "address",
          "indexed": true,
          "internalType": "address"
        },
        {
          "name": "period",
          "type": "uint256",
          "indexed": true,
          "internalType": "uint256"
        },
        {
          "name": "jailedUntil",
          "type": "uint256",
          "indexed": false,
          "internalType": "uint256"
        },
        {
          "name": "deductedStakingAmount",
          "type": "uint256",
          "indexed": false,
          "internalType": "uint256"
        },
        {
          "name": "blockProducerRewardDeprecated",
          "type": "bool",
          "indexed": false,
          "internalType": "bool"
        },
        {
          "name": "bridgeOperatorRewardDeprecated",
          "type": "bool",
          "indexed": false,
          "internalType": "bool"
        }
      ],
      "anonymous": false
    },
    {
      "type": "event",
      "name": "ValidatorSetUpdated",
      "inputs": [
        {
          "name": "period",
          "type": "uint256",
          "indexed": true,
          "internalType": "uint256"
        },
        {
          "name": "cids",
          "type": "address[]",
          "indexed": false,
          "internalType": "address[]"
        }
      ],
      "anonymous": false
    },
    {
      "type": "event",
      "name": "ValidatorUnjailed",
      "inputs": [
        {
          "name": "cid",
          "type": "address",
          "indexed": true,
          "internalType": "address"
        },
        {
          "name": "period",
          "type": "uint256",
          "indexed": false,
          "internalType": "uint256"
        }
      ],
      "anonymous": false
    },
    {
      "type": "event",
      "name": "WrappedUpEpoch",
      "inputs": [
        {
          "name": "periodNumber",
          "type": "uint256",
          "indexed": true,
          "internalType": "uint256"
        },
        {
          "name": "epochNumber",
          "type": "uint256",
          "indexed": true,
          "internalType": "uint256"
        },
        {
          "name": "periodEnding",
          "type": "bool",
          "indexed": false,
          "internalType": "bool"
        }
      ],
      "anonymous": false
    },
    {
      "type": "error",
      "name": "ErrAlreadyRequestedEmergencyExit",
      "inputs": []
    },
    {
      "type": "error",
      "name": "ErrAlreadyRequestedRevokingCandidate",
      "inputs": []
    },
    {
      "type": "error",
      "name": "ErrAlreadyRequestedUpdatingCommissionRate",
      "inputs": []
    },
    {
      "type": "error",
      "name": "ErrAlreadyWrappedEpoch",
      "inputs": []
    },
    {
      "type": "error",
      "name": "ErrAtEndOfEpochOnly",
      "inputs": []
    },
    {
      "type": "error",
      "name": "ErrCallerMustBeCoinbase",
      "inputs": []
    },
    {
      "type": "error",
      "name": "ErrCannotBailout",
      "inputs": [
        {
          "name": "validator",
          "type": "address",
          "internalType": "address"
        }
      ]
    },
    {
      "type": "error",
      "name": "ErrContractTypeNotFound",
      "inputs": [
        {
          "name": "contractType",
          "type": "uint8",
          "internalType": "enum ContractType"
        }
      ]
    },
    {
      "type": "error",
      "name": "ErrExceedsMaxNumberOfCandidate",
      "inputs": []
    },
    {
      "type": "error",
      "name": "ErrExistentCandidate",
      "inputs": []
    },
    {
      "type": "error",
      "name": "ErrExistentCandidateAdmin",
      "inputs": [
        {
          "name": "candidateAdminAddr",
          "type": "address",
          "internalType": "address"
        }
      ]
    },
    {
      "type": "error",
      "name": "ErrExistentTreasury",
      "inputs": [
        {
          "name": "treasuryAddr",
          "type": "address",
          "internalType": "address"
        }
      ]
    },
    {
      "type": "error",
      "name": "ErrInsufficientBalance",
      "inputs": [
        {
          "name": "msgSig",
          "type": "bytes4",
          "internalType": "bytes4"
        },
        {
          "name": "currentBalance",
          "type": "uint256",
          "internalType": "uint256"
        },
        {
          "name": "sendAmount",
          "type": "uint256",
          "internalType": "uint256"
        }
      ]
    },
    {
      "type": "error",
      "name": "ErrInvalidCommissionRate",
      "inputs": []
    },
    {
      "type": "error",
      "name": "ErrInvalidEffectiveDaysOnwards",
      "inputs": []
    },
    {
      "type": "error",
      "name": "ErrInvalidMaxPrioritizedValidatorNumber",
      "inputs": []
    },
    {
      "type": "error",
      "name": "ErrInvalidMinEffectiveDaysOnwards",
      "inputs": []
    },
    {
      "type": "error",
      "name": "ErrLockedFundMightBeRecycled",
      "inputs": [
        {
          "name": "cid",
          "type": "address",
          "internalType": "address"
        }
      ]
    },
    {
      "type": "error",
      "name": "ErrLockedFundReleaseInfoNotFound",
      "inputs": [
        {
          "name": "cid",
          "type": "address",
          "internalType": "address"
        }
      ]
    },
    {
      "type": "error",
      "name": "ErrNonExistentCandidate",
      "inputs": []
    },
    {
      "type": "error",
      "name": "ErrRecipientRevert",
      "inputs": [
        {
          "name": "msgSig",
          "type": "bytes4",
          "internalType": "bytes4"
        }
      ]
    },
    {
      "type": "error",
      "name": "ErrTrustedOrgCannotRenounce",
      "inputs": []
    },
    {
      "type": "error",
      "name": "ErrUnauthorized",
      "inputs": [
        {
          "name": "msgSig",
          "type": "bytes4",
          "internalType": "bytes4"
        },
        {
          "name": "expectedRole",
          "type": "uint8",
          "internalType": "enum RoleAccess"
        }
      ]
    },
    {
      "type": "error",
      "name": "ErrUnauthorizedReceiveRON",
      "inputs": []
    },
    {
      "type": "error",
      "name": "ErrUnexpectedInternalCall",
      "inputs": [
        {
          "name": "msgSig",
          "type": "bytes4",
          "internalType": "bytes4"
        },
        {
          "name": "expectedContractType",
          "type": "uint8",
          "internalType": "enum ContractType"
        },
        {
          "name": "actual",
          "type": "address",
          "internalType": "address"
        }
      ]
    },
    {
      "type": "error",
      "name": "ErrZeroCodeContract",
      "inputs": [
        {
          "name": "addr",
          "type": "address",
          "internalType": "address"
        }
      ]
    },
    {
      "type": "error",
      "name": "NonExistentRecyclingInfo",
      "inputs": []
    }
  ],
  "absolutePath": "RoninValidatorSet.sol",
  "address": "0x47B9895DebC6c23B30A654eC0d2D0e5ef8e6989A",
  "blockNumber": 27813238,
  "bytecode": "0x6080604052348015600f57600080fd5b506016601a565b60d8565b600054610100900460ff161560855760405162461bcd60e51b815260206004820152602760248201527f496e697469616c697a61626c653a20636f6e747261637420697320696e697469604482015266616c697a696e6760c81b606482015260840160405180910390fd5b60005460ff908116101560d6576000805460ff191660ff9081179091556040519081527f7f26b83ff96e1f2b6a682f133852f6798a09c465da95921460cefb38474024989060200160405180910390a15b565b615ace806100e76000396000f3fe6080604052600436106103e25760003560e01c8063612c8d981161020d578063a3d545f511610128578063d09f1ab4116100bb578063e8712aa71161008a578063eeb629a81161006f578063eeb629a814610b4c578063eecaefd914610b61578063f883afaf14610b81576103f1565b8063e8712aa714610b0c578063edb194bb14610b2c576103f1565b8063d09f1ab414610a7f578063dd716ad314610a94578063de981f1b14610ab4578063e5125a1d14610aec576103f1565b8063ba77b06c116100f7578063ba77b06c14610a15578063c3c8b5d614610a2a578063c4e227f314610a4a578063cdaa4e8114610a5f576103f1565b8063a3d545f5146109b6578063a66c0f77146109d6578063afc69d73146109eb578063b7ab4db514610a00576103f1565b80637593ff71116101a057806387c891bd1161016f57806387c891bd1461094c57806396585fc2146109615780639a57bd9314610981578063a0c3f2d214610996576103f1565b80637593ff71146108cc5780637e1dc16f146108ec578063865e6fd31461090c578063873a5a701461092c576103f1565b8063690b7536116101dc578063690b75361461087a5780636aa1c2ef1461088f5780636ef826c8146108a457806372e46810146108c4576103f1565b8063612c8d981461080e57806365244ece146108235780636558954f146108435780636611f8431461085a576103f1565b80632f78204c116102fd5780634de2b7351161029057806352091f171161025f57806352091f17146107ba5780635248184a146107c25780635cd8a76b146107e4578063605239a1146107f9576103f1565b80634de2b735146107365780634e9b8b0a146107635780634ee4d72b146107855780634f2a693f1461079a576103f1565b8063468c96ae116102cc578063468c96ae1461069d57806346ebb232146106d457806349096d26146106f45780634d8df06314610716576103f1565b80632f78204c1461061d5780633101cfcb1461063d57806331a8aef51461065d578063367ec12b1461067d576103f1565b80631196ab661161037557806328bde1e11161034457806328bde1e11461059b5780632924de71146105bb578063297a8fca146105db5780632d784a98146105f0576103f1565b80631196ab661461052657806315b5ebde14610546578063217f35c21461056657806323c65eb01461057b576103f1565b80630bbed9af116103b15780630bbed9af146104945780630f43a677146104b4578063110a8308146104c957806311662dc2146104e9576103f1565b806303827884146103f95780630447e5911461042257806304d971ab1461044f578063060406181461047f576103f1565b366103f1576103ef610ba1565b005b6103ef610ba1565b34801561040557600080fd5b5061040f61183881565b6040519081526020015b60405180910390f35b34801561042e57600080fd5b5061044261043d366004614ed1565b610c20565b6040516104199190614eee565b34801561045b57600080fd5b5061046f61046a366004614f4c565b610d00565b6040519015158152602001610419565b34801561048b57600080fd5b5061040f610d3a565b3480156104a057600080fd5b506103ef6104af366004614f4c565b610d4a565b3480156104c057600080fd5b5060aa5461040f565b3480156104d557600080fd5b506103ef6104e4366004614ed1565b610d87565b3480156104f557600080fd5b50610509610504366004614f85565b610e75565b604080519315158452602084019290925290820152606001610419565b34801561053257600080fd5b506103ef610541366004614fb1565b610e9a565b34801561055257600080fd5b506103ef610561366004614f85565b610eae565b34801561057257600080fd5b5061046f610fc8565b34801561058757600080fd5b5061046f610596366004614f85565b610fdd565b3480156105a757600080fd5b506104426105b6366004614ed1565b611011565b3480156105c757600080fd5b5061046f6105d6366004614ed1565b611065565b3480156105e757600080fd5b5060045461040f565b3480156105fc57600080fd5b5061061061060b366004614ed1565b611095565b6040516104199190614fca565b34801561062957600080fd5b506103ef610638366004614fef565b611129565b34801561064957600080fd5b506103ef610658366004614ed1565b611349565b34801561066957600080fd5b5061046f610678366004614f85565b6113ed565b34801561068957600080fd5b506103ef61069836600461504a565b611424565b3480156106a957600080fd5b506106bd6106b8366004614fb1565b61159e565b604080519215158352602083019190915201610419565b3480156106e057600080fd5b5061046f6106ef366004614f4c565b6115dc565b34801561070057600080fd5b50610709611603565b6040516104199190615110565b34801561072257600080fd5b506103ef610731366004614fb1565b611615565b34801561074257600080fd5b506107566107513660046151a9565b611626565b60405161041991906151eb565b34801561076f57600080fd5b5061077861166c565b604051610419919061526a565b34801561079157600080fd5b5060e45461040f565b3480156107a657600080fd5b506103ef6107b5366004614fb1565b611736565b6103ef611747565b3480156107ce57600080fd5b506107d7611bb7565b604051610419919061527d565b3480156107f057600080fd5b506103ef611d0b565b34801561080557600080fd5b5060725461040f565b34801561081a57600080fd5b5060765461040f565b34801561082f57600080fd5b5061046f61083e366004614ed1565b611e9d565b34801561084f57600080fd5b5061040f6201518081565b34801561086657600080fd5b506103ef610875366004614fb1565b611eb0565b34801561088657600080fd5b5060e55461040f565b34801561089b57600080fd5b5060015461040f565b3480156108b057600080fd5b506103ef6108bf366004614f4c565b611ec1565b6103ef611efe565b3480156108d857600080fd5b5061046f6108e7366004614fb1565b61231d565b3480156108f857600080fd5b506107566109073660046151a9565b612341565b34801561091857600080fd5b506103ef61092736600461531e565b61237f565b34801561093857600080fd5b5061046f610947366004614ed1565b61239e565b34801561095857600080fd5b5060025461040f565b34801561096d57600080fd5b5061050961097c366004614ed1565b6123e0565b34801561098d57600080fd5b50610778612404565b3480156109a257600080fd5b5061046f6109b1366004614ed1565b6124b1565b3480156109c257600080fd5b5061040f6109d1366004614fb1565b6124dc565b3480156109e257600080fd5b5060e65461040f565b3480156109f757600080fd5b5061040f6124e7565b348015610a0c57600080fd5b5061070961252a565b348015610a2157600080fd5b50610709612537565b348015610a3657600080fd5b506103ef610a45366004614f4c565b612544565b348015610a5657600080fd5b50610778612810565b348015610a6b57600080fd5b506103ef610a7a366004614f85565b612872565b348015610a8b57600080fd5b5061040f612b13565b348015610aa057600080fd5b506103ef610aaf366004614f85565b612b8c565b348015610ac057600080fd5b50610ad4610acf36600461533a565b612c44565b6040516001600160a01b039091168152602001610419565b348015610af857600080fd5b506103ef610b07366004615355565b612cd3565b348015610b1857600080fd5b5061046f610b27366004614ed1565b612e17565b348015610b3857600080fd5b50610610610b47366004614ed1565b612e22565b348015610b5857600080fd5b5061040f612e7c565b348015610b6d57600080fd5b506103ef610b7c366004614f4c565b612eb4565b348015610b8d57600080fd5b506103ef610b9c36600461538a565b612eee565b610bab6007612c44565b6001600160a01b0316336001600160a01b031614158015610be75750610bd16009612c44565b6001600160a01b0316336001600160a01b031614155b15610c1e576040517fffcb451300000000000000000000000000000000000000000000000000000000815260040160405180910390fd5b565b6040805160e08101825260008082526020808301829052828401829052606083018290526080830182905260a0830182905260c083018290526001600160a01b0385168252607490529190912054610c8b5760405163a64b34ad60e01b815260040160405180910390fd5b506001600160a01b03908116600090815260756020908152604091829020825160e081018452815485168152600182015485169281019290925260028101548416928201929092526003820154909216606083015260048101546080830152600581015460a08301526006015460c082015290565b6000610d31610d0e84613172565b6001600160a01b0390811660009081526075602052604090205481169084161490565b90505b92915050565b6000610d4560035490565b905090565b600f610d5581613203565b506001600160a01b03918216600090815260756020526040902060020180546001600160a01b03191691909216179055565b600054600490610100900460ff16158015610da9575060005460ff8083169116105b610e115760405162461bcd60e51b815260206004820152602e60248201527f496e697469616c697a61626c653a20636f6e747261637420697320616c72656160448201526d191e481a5b9a5d1a585b1a5e995960921b60648201526084015b60405180910390fd5b6000805461ffff191660ff831617610100179055610e30600f83613268565b6000805461ff001916905560405160ff821681527f7f26b83ff96e1f2b6a682f133852f6798a09c465da95921460cefb38474024989060200160405180910390a15050565b6000806000610e8c610e8686613172565b8561330c565b9250925092505b9250925092565b610ea261338e565b610eab81613402565b50565b6006610eb981613203565b6001600160a01b0383166000908152603c60205260409020544311610f15576040517f53e0424d0000000000000000000000000000000000000000000000000000000081526001600160a01b0384166004820152602401610e08565b6001600160a01b038316600081815260386020908152604080832086845282528083208054600160ff199182168117909255948452603783528184208785529092529091208054909216909155610f6c90436153f1565b6001600160a01b0384166000818152603a6020526040908190209290925590517f6bb2436cb6b6eb65d5a52fac2ae0373a77ade6661e523ef3004ee2d5524e6c6e90610fbb9085815260200190565b60405180910390a2505050565b6000610d45610fd642613472565b6003541090565b600080610fe984613172565b6001600160a01b0381166000908152603a60205260409020549091508311155b949350505050565b6040805160e081018252600080825260208201819052918101829052606081018290526080810182905260a0810182905260c081018290529061105383613172565b905061105e81610c20565b9392505050565b60008061107183613172565b6001600160a01b0381166000908152603a602052604090205490915043111561105e565b604080518082019091526000808252602082015260e860006110b684613172565b6001600160a01b03168152602080820192909252604090810160009081208251808401909352805483526001015492820183905290925003611124576040517fe1fba9e200000000000000000000000000000000000000000000000000000000815260040160405180910390fd5b919050565b600661113481613203565b600061113e610d3a565b6001600160a01b03871660008181526037602090815260408083208584528252808320805460ff1916600117905592825260e181528282205460e09091529190205491925061118c91615404565b60e4600082825461119d9190615404565b90915550506001600160a01b038616600090815260e06020908152604080832083905560e18252808320839055603a9091529020546111dd908690613481565b6001600160a01b0387166000908152603a602052604090205583156112985760006112086009612c44565b60405163138ac02f60e11b81526001600160a01b038981166004830152602482018890529190911690632715805e906044016020604051808303816000875af1158015611259573d6000803e3d6000fd5b505050506040513d601f19601f8201168201806040525081019061127d9190615417565b90508060e460008282546112919190615404565b9091555050505b82156112dc576001600160a01b0386166000908152603c60205260409020546112c2908690613481565b6001600160a01b0387166000908152603c60205260409020555b6001600160a01b0386166000818152603a6020908152604080832054815190815291820188905260019082015260608101919091528291907f54ce99c5ce1fc9f61656d4a0fb2697974d0c973ac32eecaefe06fcf18b8ef68a9060800160405180910390a3505050505050565b600054600390610100900460ff1615801561136b575060005460ff8083169116105b6113ce5760405162461bcd60e51b815260206004820152602e60248201527f496e697469616c697a61626c653a20636f6e747261637420697320616c72656160448201526d191e481a5b9a5d1a585b1a5e995960921b6064820152608401610e08565b6000805461ffff191660ff831617610100179055610e30600e83613268565b6000610d316113fb84613172565b6001600160a01b0316600090815260376020908152604080832086845290915290205460ff1690565b600054610100900460ff16158080156114445750600054600160ff909116105b8061145e5750303b15801561145e575060005460ff166001145b6114c15760405162461bcd60e51b815260206004820152602e60248201527f496e697469616c697a61626c653a20636f6e747261637420697320616c72656160448201526d191e481a5b9a5d1a585b1a5e995960921b6064820152608401610e08565b6000805460ff1916600117905580156114e4576000805461ff0019166101001790555b6114ef60068e613268565b6114fa60098d613268565b61150560078c613268565b61151060058b613268565b61151b600a8a613268565b61152486613498565b61152d84613402565b61153782356134cd565b6115446020830135613502565b6001839055801561158f576000805461ff0019169055604051600181527f7f26b83ff96e1f2b6a682f133852f6798a09c465da95921460cefb38474024989060200160405180910390a15b50505050505050505050505050565b6000806115aa436124dc565b831115806115c5575060008381526005602052604090205415155b600093845260056020526040909320549293915050565b6001600160a01b038281166000908152607560205260408120549091838116911614610d31565b6060610d4561161061166c565b613537565b61161d61338e565b610eab81613502565b6060610d316116678484808060200260200160405190810160405280939291908181526020018383602002808284376000920191909152506135b392505050565b61362f565b606060aa5467ffffffffffffffff81111561168957611689615446565b6040519080825280602002602001820160405280156116b2578160200160208202803683370190505b5090506000805b825181101561173057600081815260ab60205260409020546001600160a01b03166116e3816136d5565b15611727578084846116f48161545c565b95508151811061170657611706615430565b60200260200101906001600160a01b031690816001600160a01b0316815250505b506001016116b9565b50815290565b61173e61338e565b610eab81613498565b61174f61370f565b600061175a33613172565b90506000611767826136d5565b8015611779575061177782613748565b155b80156117b957506117b78261178c610d3a565b6001600160a01b03919091166000908152603760209081526040808320938352929052205460ff1690565b155b90506000806117c86007612c44565b6040517f0634f5b90000000000000000000000000000000000000000000000000000000081528415156004820152600060248201526001600160a01b039190911690630634f5b9906044016080604051808303816000875af1158015611832573d6000803e3d6000fd5b505050506040513d601f19601f820116820180604052508101906118569190615475565b935050925050826118c4573460e460008282546118739190615404565b92505081905550836001600160a01b03167f4042bb9a70998f80a86d9963f0d2132e9b11c8ad94d207c6141c8e34b05ce53e3460016040516118b69291906154ca565b60405180910390a250505050565b60408051348152602081018490526001600160a01b038616917f0ede5c3be8625943fa64003cd4b91230089411249f3059bac6500873543ca9b1910160405180910390a26000611912610d3a565b905060006119208434615404565b9050600061271061193185846154ee565b61193b919061551b565b9050600061194982846153f1565b905060008260e2600082825461195f9190615404565b909155505033600090815260386020908152604080832088845290915290205460ff1615611a735760006119936006612c44565b6001600160a01b031663c6391fa26040518163ffffffff1660e01b8152600401608060405180830381865afa1580156119d0573d6000803e3d6000fd5b505050506040513d601f19601f820116820180604052508101906119f4919061552f565b93505050506127108184611a0891906154ee565b611a12919061551b565b91508160e46000828254611a269190615404565b92505081905550896001600160a01b03167f4042bb9a70998f80a86d9963f0d2132e9b11c8ad94d207c6141c8e34b05ce53e836002604051611a699291906154ca565b60405180910390a2505b611a7d81836153f1565b9150600080611a8c6009612c44565b6001600160a01b0316634530d2026040518163ffffffff1660e01b81526004016040805180830381865afa158015611ac8573d6000803e3d6000fd5b505050506040513d601f19601f82011682018060405250810190611aec9190615565565b6001600160a01b038d1660009081526075602052604081206004015492945090925090611b2390611b1d9084613769565b84613481565b90506000612710611b3487846154ee565b611b3e919061551b565b6001600160a01b038e16600090815260e06020526040812080549293508392909190611b6b908490615404565b90915550611b7b905081876153f1565b6001600160a01b038e16600090815260e1602052604081208054909190611ba3908490615404565b909155505050505050505050505050505050565b60735460609067ffffffffffffffff811115611bd557611bd5615446565b604051908082528060200260200182016040528015611c3c57816020015b6040805160e08101825260008082526020808301829052928201819052606082018190526080820181905260a0820181905260c08201528252600019909201910181611bf35790505b50905060005b8151811015611d07576075600060738381548110611c6257611c62615430565b60009182526020808320909101546001600160a01b039081168452838201949094526040928301909120825160e081018452815485168152600182015485169281019290925260028101548416928201929092526003820154909216606083015260048101546080830152600581015460a08301526006015460c08201528251839083908110611cf457611cf4615430565b6020908102919091010152600101611c42565b5090565b600054600290610100900460ff16158015611d2d575060005460ff8083169116105b611d905760405162461bcd60e51b815260206004820152602e60248201527f496e697469616c697a61626c653a20636f6e747261637420697320616c72656160448201526d191e481a5b9a5d1a585b1a5e995960921b6064820152608401610e08565b6000805461ffff191660ff831617610100179055607154611dbc906009906001600160a01b0316613268565b606f54611dd4906005906001600160a01b0316613268565b607054611dec906006906001600160a01b0316613268565b606d54611e04906007906001600160a01b0316613268565b60a854611e1c90600a906001600160a01b0316613268565b607180546001600160a01b0319908116909155606f8054821690556070805482169055606d805482169055606e80548216905560a8805490911690556000805461ff001916905560405160ff821681527f7f26b83ff96e1f2b6a682f133852f6798a09c465da95921460cefb3847402498906020015b60405180910390a150565b6000610d34611eab83613172565b6136d5565b611eb861338e565b610eab816134cd565b600f611ecc81613203565b506001600160a01b03918216600090815260756020526040902060010180546001600160a01b03191691909216179055565b611f0661370f565b611f0f4361231d565b611f45576040517f6c74eecf00000000000000000000000000000000000000000000000000000000815260040160405180910390fd5b611f4e436124dc565b611f596002546124dc565b10611f90576040517f2458f64100000000000000000000000000000000000000000000000000000000815260040160405180910390fd5b436002556000611f9f42613472565b90506000611fae826003541090565b90506000611fba610d3a565b90506000611fc7436124dc565b90506000611fd6826001615404565b90506000611fe2612404565b90506000611ff06010612c44565b6040517fe3a4376500000000000000000000000000000000000000000000000000000000815260048101879052602481018990529091506001600160a01b0382169063e3a4376590604401600060405180830381600087803b15801561205557600080fd5b505af1158015612069573d6000803e3d6000fd5b505050506120778483613778565b85156122ad57600060738054806020026020016040519081016040528092919081815260200182805480156120d557602002820191906000526020600020905b81546001600160a01b031681526001909101906020018083116120b7575b50506040517f76987772000000000000000000000000000000000000000000000000000000008152600481018b9052602481018d905293945050506001600160a01b0384169163769877729150604401600060405180830381600087803b15801561213f57600080fd5b505af1158015612153573d6000803e3d6000fd5b5050505060008061216488846138f2565b9150915061217488848484613ade565b61217c613c01565b612184613d55565b60006121906006612c44565b6040517f185368db0000000000000000000000000000000000000000000000000000000081529091506001600160a01b0382169063185368db906121da9087908d90600401615589565b600060405180830381600087803b1580156121f457600080fd5b505af1158015612208573d6000803e3d6000fd5b5050505060006122178c613eb1565b805190915015612299576040517f07c2d2f60000000000000000000000000000000000000000000000000000000081526001600160a01b038316906307c2d2f69061226690849060040161526a565b600060405180830381600087803b15801561228057600080fd5b505af1158015612294573d6000803e3d6000fd5b505050505b6122a4436001615404565b60045550505050505b6122b88188856143d9565b91506122c5878484614470565b83857f0195462033384fec211477c56217da64a58bd405e0bed331ba4ded67e4ae4ce7886040516122fa911515815260200190565b60405180910390a350506000908152600560205260409020849055505050600355565b60006001805461232d91906153f1565b60015461233a90846155ab565b1492915050565b6060610d3183838080602002602001604051908101604052809392919081815260200183836020028082843760009201919091525061362f92505050565b61238761338e565b6123908161470c565b61239a8282613268565b5050565b6000806123a9610d3a565b905061105e6123b784613172565b6001600160a01b0316600090815260376020908152604080832085845290915290205460ff1690565b60008060006123f76123f185613172565b4361330c565b9250925092509193909250565b606060aa5467ffffffffffffffff81111561242157612421615446565b60405190808252806020026020018201604052801561244a578160200160208202803683370190505b5090506000805b82518110156124ac57600081815260ab602052604090205483516001600160a01b039091169250829084908390811061248c5761248c615430565b6001600160a01b0390921660209283029190910190910152600101612451565b505090565b6000610d346124bf83613172565b6001600160a01b0316600090815260746020526040902054151590565b6000610d348261475b565b6000805b60aa54811015611d0757600081815260ab6020526040902054612516906001600160a01b03166136d5565b15612522576001909101905b6001016124eb565b6060610d45611610612404565b6060610d45611610612810565b61254c61338e565b6001600160a01b038216600090815260e8602052604081206001015490036125ab576040517fe8e6d2dd0000000000000000000000000000000000000000000000000000000081526001600160a01b0383166004820152602401610e08565b60e7548060005b8281101561260157846001600160a01b031660e782815481106125d7576125d7615430565b6000918252602090912001546001600160a01b0316036125f957809150612601565b6001016125b2565b50818103612646576040517fb69ea4250000000000000000000000000000000000000000000000000000000081526001600160a01b0385166004820152602401610e08565b6001600160a01b038416600090815260e860205260409020548015612809576001600160a01b038516600090815260e8602052604081208181556001908101919091558311156127085760e761269d6001856153f1565b815481106126ad576126ad615430565b60009182526020909120015460e780546001600160a01b0390921691849081106126d9576126d9615430565b9060005260206000200160006101000a8154816001600160a01b0302191690836001600160a01b031602179055505b60e7805480612719576127196155bf565b60008281526020808220830160001990810180546001600160a01b03191690559092019092556001600160a01b038716825260e9905260409020805460ff1916600117905561276b8482611838614776565b156127c457836001600160a01b0316856001600160a01b03167f7229136a18186c71a86246c012af3bb1df6460ef163934bbdccd6368abdd41e4836040516127b591815260200190565b60405180910390a35050505050565b604080518281524760208201526001600160a01b0380871692908816917f3747d14eb72ad3e35cba9c3e00dab3b8d15b40cac6bdbd08402356e4f69f30a191016127b5565b5050505050565b6060607380548060200260200160405190810160405280929190818152602001828054801561286857602002820191906000526020600020905b81546001600160a01b0316815260019091019060200180831161284a575b5050505050905090565b600961287d81613203565b6001600160a01b038316600090815260e8602052604090206001810154156128d1576040517f2bd5598800000000000000000000000000000000000000000000000000000000815260040160405180910390fd5b60006128dd8442615404565b6001600160a01b038616600090815260756020526040902090915061290290826147eb565b6001600160a01b0385166000818152603b602052604080822084905560e554905163138ac02f60e11b815260048101939093526024830152903390632715805e906044016020604051808303816000875af1158015612965573d6000803e3d6000fd5b505050506040513d601f19601f820116820180604052508101906129899190615417565b90508015612ac857600060e654426129a19190615404565b60e78054600180820183556000929092527f6cb0db1d7354dfb4a1464318006df0643cafe2002a86a29ff8560f900fef28a10180546001600160a01b0319166001600160a01b038b1617905583865585018190559050612a287fb53127684a568b3173ae13b9f8a6016e243e63b6e8ee1178d6a717850b5d6103546001600160a01b031690565b6001600160a01b03888116600081815260756020526040908190206002015490517fa2fae5700000000000000000000000000000000000000000000000000000000081526004810192909252821660248201524260448201526064810184905291169063a2fae57090608401600060405180830381600087803b158015612aae57600080fd5b505af1158015612ac2573d6000803e3d6000fd5b50505050505b856001600160a01b03167f77a1a819870c0f4d04c3ca4cc2881a0393136abc28bd651af50aedade94a27c482604051612b0391815260200190565b60405180910390a2505050505050565b6000612b1f6010612c44565b6001600160a01b031663035d006260016040518263ffffffff1660e01b8152600401612b4b91906155d5565b602060405180830381865afa158015612b68573d6000803e3d6000fd5b505050506040513d601f19601f82011682018060405250810190610d459190615417565b6009612b9781613203565b612ba083614887565b15612bd7576040517f030081e700000000000000000000000000000000000000000000000000000000815260040160405180910390fd5b6001600160a01b0383166000908152607560205260409020600581015415612c2b576040517ffab9167300000000000000000000000000000000000000000000000000000000815260040160405180910390fd5b612c3e81612c398542615404565b6147eb565b50505050565b60007fdea3103d22025c269050bea94c0c84688877f12fa22b7e6d2d5d78a9a49aa1cb6000836010811115612c7b57612c7b6154b4565b60ff1681526020810191909152604001600020546001600160a01b031690508061112457816040517f812281be000000000000000000000000000000000000000000000000000000008152600401610e089190615603565b6009612cde81613203565b6001600160a01b03841660009081526077602052604090205415612d2e576040517f5e65b9ba00000000000000000000000000000000000000000000000000000000815260040160405180910390fd5b612710821115612d5157604051631b8454a360e21b815260040160405180910390fd5b607654831015612d8d576040517ffa0ae69300000000000000000000000000000000000000000000000000000000815260040160405180910390fd5b6001600160a01b0384166000908152607760205260408120906201518085612db5824261551b565b612dbf9190615404565b612dc991906154ee565b8083556001830185905560408051828152602081018790529192506001600160a01b038816917f6ebafd1bb6316b2f63198a81b05cff2149c6eaae1784466a6d062b4391900f219101612b03565b6000610d34826136d5565b604080518082019091526000808252602082015260776000612e4384613172565b6001600160a01b031681526020808201929092526040908101600020815180830190925280548252600101549181019190915292915050565b6000612e886010612c44565b6001600160a01b031663035d006260026040518263ffffffff1660e01b8152600401612b4b91906155d5565b600f612ebf81613203565b506001600160a01b03918216600090815260756020526040902080546001600160a01b03191691909216179055565b6009612ef981613203565b6073546072548110612f37576040517f8616841b00000000000000000000000000000000000000000000000000000000815260040160405180910390fd5b6001600160a01b03851660009081526074602052604090205415612f87576040517f8ad9cdf900000000000000000000000000000000000000000000000000000000815260040160405180910390fd5b612710831115612faa57604051631b8454a360e21b815260040160405180910390fd5b60005b818110156130a15760006075600060738481548110612fce57612fce615430565b60009182526020808320909101546001600160a01b03908116845290830193909352604090910190208054909250811690891603613043576040517ffc3d8c750000000000000000000000000000000000000000000000000000000081526001600160a01b0389166004820152602401610e08565b60028101546001600160a01b0390811690871603613098576040517f5a674fce0000000000000000000000000000000000000000000000000000000081526001600160a01b0387166004820152602401610e08565b50600101612fad565b506001600160a01b038581166000818152607460209081526040808320861990556073805460018082019092557ff79bde9ddd17963ebce6f7d021d60de7c2bd0db944d23c900c0c0e775f5300520180546001600160a01b031990811687179091556075909352818420805484168d881690811782559181018054851687179055600281018054909416968b1696871790935560048301899055905191949093909290917f1ca451a9920472b99355a9cf74185bf017604a7849c113f020888ecec9db93669190a450505050505050565b600061317e600f612c44565b6040517f50a9fc290000000000000000000000000000000000000000000000000000000081526001600160a01b03848116600483015291909116906350a9fc2990602401602060405180830381865afa1580156131df573d6000803e3d6000fd5b505050506040513d601f19601f82011682018060405250810190610d349190615611565b61320c81612c44565b6001600160a01b0316336001600160a01b031614610eab576000356001600160e01b03191681336040517f8383e634000000000000000000000000000000000000000000000000000000008152600401610e089392919061562e565b807fdea3103d22025c269050bea94c0c84688877f12fa22b7e6d2d5d78a9a49aa1cb600084601081111561329e5761329e6154b4565b60ff168152602081019190915260400160002080546001600160a01b0319166001600160a01b0392831617905581168260108111156132df576132df6154b4565b6040517f865d1c228a8ea13709cfe61f346f7ff67f1bbd4a18ff31ad3e7147350d317c5990600090a35050565b6001600160a01b0382166000908152603a6020526040812054819081908481101561334257600080600093509350935050610e93565b6001935061335085826153f1565b61335b906001615404565b9250613366856124dc565b61336f826124dc565b61337991906153f1565b613384906001615404565b9150509250925092565b7fb53127684a568b3173ae13b9f8a6016e243e63b6e8ee1178d6a717850b5d6103546001600160a01b03163314610c1e576000356001600160e01b03191660016040517f3e523c00000000000000000000000000000000000000000000000000000000008152600401610e08929190615663565b600181101561343d576040517f17b8970f00000000000000000000000000000000000000000000000000000000815260040160405180910390fd5b60768190556040518181527f266d432ffe659e3565750d26ec685b822a58041eee724b67a5afec3168a2526790602001611e92565b6000610d34620151808361551b565b6000818310156134915781610d31565b5090919050565b60728190556040518181527f82d5dc32d1b741512ad09c32404d7e7921e8934c6222343d95f55f7a2b9b2ab490602001611e92565b60e58190556040518181527f17a6c3eb965cdd7439982da25abf85be88f0f772ca33198f548e2f99fee0289a90602001611e92565b60e68190556040518181527f0a50c66137118f386332efb949231ddd3946100dbf880003daca37ddd9e0662b90602001611e92565b6060613543600f612c44565b6001600160a01b031663b261596f836040518263ffffffff1660e01b815260040161356e919061526a565b600060405180830381865afa15801561358b573d6000803e3d6000fd5b505050506040513d6000823e601f3d908101601f19168201604052610d3491908101906156d9565b60606135bf600f612c44565b6001600160a01b031663f9226b1a836040518263ffffffff1660e01b81526004016135ea9190615110565b600060405180830381865afa158015613607573d6000803e3d6000fd5b505050506040513d6000823e601f3d908101601f19168201604052610d349190810190615778565b6060815167ffffffffffffffff81111561364b5761364b615446565b604051908082528060200260200182016040528015613674578160200160208202803683370190505b50905060005b82518110156136cf576136a583828151811061369857613698615430565b6020026020010151613748565b8282815181106136b7576136b7615430565b9115156020928302919091019091015260010161367a565b50919050565b6001600160a01b038116600090815260ac6020526040812054610d349060019060ff166003811115613709576137096154b4565b90614920565b334114610c1e576040517f09f358fd00000000000000000000000000000000000000000000000000000000815260040160405180910390fd5b6001600160a01b0381166000908152603a6020526040812054431115610d34565b60008183106134915781610d31565b6000613784600e612c44565b6001600160a01b0316633a205da084846040518363ffffffff1660e01b81526004016137b1929190615807565b600060405180830381865afa1580156137ce573d6000803e3d6000fd5b505050506040513d6000823e601f3d908101601f191682016040526137f69190810190615820565b9050600061380382614953565b9050806000036138135750505050565b60e2548351600091908290815b818110156138c2578587828151811061383b5761383b615430565b60200260200101518561384e91906154ee565b613858919061551b565b94508460e360008a848151811061387157613871615430565b60200260200101516001600160a01b03166001600160a01b0316815260200190815260200160002060008282546138a89190615404565b909155506138b890508584615404565b9250600101613820565b506138cd82846153f1565b60e460008282546138de9190615404565b9091555050600060e2555050505050505050565b60006060600080845167ffffffffffffffff81111561391357613913615446565b60405190808252806020026020018201604052801561393c578160200160208202803683370190505b50925060005b8551811015613ad45785818151811061395d5761395d615430565b6020908102919091018101516001600160a01b038082166000908152607590935260409092206002015490945016915061399683613748565b1580156139c757506001600160a01b03831660009081526037602090815260408083208a845290915290205460ff16155b15613a45576001600160a01b038316600090815260e160205260409020546139ef9086615404565b6001600160a01b038416600090815260e16020526040902054855191965090859083908110613a2057613a20615430565b602002602001018181525050613a368383614983565b613a408383614a4b565b613a9c565b6001600160a01b038316600090815260e3602090815260408083205460e183528184205460e0909352922054613a7b9190615404565b613a859190615404565b60e46000828254613a969190615404565b90915550505b6001600160a01b038316600090815260e16020908152604080832083905560e0825280832083905560e3909152812055600101613942565b5050509250929050565b6000613aea6009612c44565b9050821561280957613afc8184614b06565b15613bbd576040517facd79c460000000000000000000000000000000000000000000000000000000081526001600160a01b0382169063acd79c4690613b4a90879086908a906004016158d7565b600060405180830381600087803b158015613b6457600080fd5b505af1158015613b78573d6000803e3d6000fd5b505050507f9e242ca1ef9dde96eb71ef8d19a3f0f6a619b63e4c0d3998771387103656d087838584604051613baf9392919061590d565b60405180910390a150612c3e565b7fe5668ec1bb2b6bb144a50f810e388da4b1d7d3fc05fcb9d588a1aac59d248f8983858447604051613bf29493929190615942565b60405180910390a15050505050565b60e754600080805b83831015612c3e5760e78381548110613c2457613c24615430565b60009182526020808320909101546001600160a01b031680835260e89091526040909120600181015491935091504210613d4a57805460e48054600090613c6c908490615404565b90915550506001600160a01b038216600090815260e860205260408120818155600101819055613c9b8561597f565b9450841115613d125760e78481548110613cb757613cb7615430565b60009182526020909120015460e780546001600160a01b039092169185908110613ce357613ce3615430565b9060005260206000200160006101000a8154816001600160a01b0302191690836001600160a01b031602179055505b60e7805480613d2357613d236155bf565b600082815260209020810160001990810180546001600160a01b0319169055019055613c09565b600190920191613c09565b60e4548015610eab576000613d6a6007612c44565b600060e481905560408051600481526024810182526020810180517bffffffffffffffffffffffffffffffffffffffffffffffffffffffff167f59f778df00000000000000000000000000000000000000000000000000000000179052905192935090916001600160a01b038416918591613de59190615996565b60006040518083038185875af1925050503d8060008114613e22576040519150601f19603f3d011682016040523d82523d6000602084013e613e27565b606091505b505090508015613e6c57816001600160a01b03167fc447c884574da5878be39c403db2245c22530c99b579ea7bcbb3720e1d110dc884604051610fbb91815260200190565b604080518481524760208201526001600160a01b038416917fa0561a59abed308fcd0556834574739d778cc6229018039a24ddda0f86aa0b739101610fbb565b505050565b60606000613ebf6009612c44565b90506000816001600160a01b031663af2454296040518163ffffffff1660e01b8152600401602060405180830381865afa158015613f01573d6000803e3d6000fd5b505050506040513d601f19601f82011682018060405250810190613f259190615417565b90506000826001600160a01b031663909791dd6040518163ffffffff1660e01b8152600401602060405180830381865afa158015613f67573d6000803e3d6000fd5b505050506040513d601f19601f82011682018060405250810190613f8b9190615417565b90506000836001600160a01b031663446850a160736040518263ffffffff1660e01b8152600401613fbc91906159c5565b600060405180830381865afa158015613fd9573d6000803e3d6000fd5b505050506040513d6000823e601f3d908101601f191682016040526140019190810190615820565b60735490915060008167ffffffffffffffff81111561402257614022615446565b60405190808252806020026020018201604052801561404b578160200160208202803683370190505b50965060008060005b84831015614311576073838154811061406f5761406f615430565b60009182526020808320909101546001600160a01b0316808352607590915260409091206006810154885192945090925015159088908890869081106140b7576140b7615430565b6020026020010151101561412557806141205760006140d68a42615404565b600684018190556040518181529091506001600160a01b038516907f88f854e137380c14d63f6ed99781bf13402167cf55bac49bcd44d4f2d6a342759060200160405180910390a2505b614178565b8015614178578160060160009055826001600160a01b03167f88f854e137380c14d63f6ed99781bf13402167cf55bac49bcd44d4f2d6a34275600060405161416f91815260200190565b60405180910390a25b60008260050154600014158015614193575042836005015411155b806141b657506001600160a01b038416600090815260e9602052604090205460ff165b9050600083600601546000141580156141d3575042846006015411155b905081806141de5750805b1561427057886141ed8961597f565b9850888151811061420057614200615430565b602002602001015189878151811061421a5761421a615430565b602002602001018181525050848d888060010199508151811061423f5761423f615430565b60200260200101906001600160a01b031690816001600160a01b03168152505061426885614b62565b505050614054565b6001600160a01b03851660009081526077602052604090205480158015906142985750428111155b15614301576001600160a01b0386166000818152607760209081526040808320600181018054918590559390935560048901839055518281529192917f86d576c20e383fc2413ef692209cc48ddad5e52f25db5b32f8f7ec5076461ae9910160405180910390a2505b5050600190940193506140549050565b50505080875280156143ce577f4eaf233b9dc25a5552c1927feee1412eea69add17c2485c831c2e60e234f3c918760405161434c919061526a565b60405180910390a16040517fe22d1c9d0000000000000000000000000000000000000000000000000000000081526001600160a01b0387169063e22d1c9d9061439b908a908c90600401615589565b600060405180830381600087803b1580156143b557600080fd5b505af11580156143c9573d6000803e3d6000fd5b505050505b505050505050919050565b6040517fe6c933a4000000000000000000000000000000000000000000000000000000008152600481018290526060906001600160a01b0385169063e6c933a490602401600060405180830381865afa15801561443a573d6000803e3d6000fd5b505050506040513d6000823e601f3d908101601f191682016040526144629190810190615778565b905061105e81825185614b8b565b600061447c6005612c44565b6001600160a01b031663ac57bd7683614496436001615404565b6040518363ffffffff1660e01b81526004016144b3929190615589565b600060405180830381865afa1580156144d0573d6000803e3d6000fd5b505050506040513d6000823e601f3d908101601f191682016040526144f89190810190615a09565b905060005b82518110156146c557600083828151811061451a5761451a615430565b6020908102919091018101516001600160a01b0381166000908152603b90925260408220549092504211159061454f836136d5565b9050600061458284614562436001615404565b6001600160a01b03919091166000908152603a6020526040902054101590565b806145a3575085858151811061459a5761459a615430565b60200260200101515b806145ab5750825b159050811580156145b95750805b15614634576001600160a01b038416600090815260ac60205260409020546145f89060019060ff1660038111156145f2576145f26154b4565b90614ccb565b6001600160a01b038516600090815260ac60205260409020805460ff1916600183600381111561462a5761462a6154b4565b02179055506146b6565b81801561463f575080155b156146b6576001600160a01b038416600090815260ac602052604090205461467e9060019060ff166003811115614678576146786154b4565b90614d06565b6001600160a01b038516600090815260ac60205260409020805460ff191660018360038111156146b0576146b06154b4565b02179055505b846001019450505050506144fd565b5082847f283b50d76057d5f828df85bc87724c6af604e9b55c363a07c9faa2a2cd688b826146f161166c565b6040516146fe919061526a565b60405180910390a350505050565b806001600160a01b03163b600003610eab576040517f2ff1928c0000000000000000000000000000000000000000000000000000000081526001600160a01b0382166004820152602401610e08565b60006001548261476b919061551b565b610d34906001615404565b60008260000361478f5761478c6108fc83615404565b91505b6040516001600160a01b03851690839085906000818181858888f193505050503d80600081146147db576040519150601f19603f3d011682016040523d82523d6000602084013e6147e0565b606091505b509095945050505050565b6001820154600090614805906001600160a01b0316613172565b9050614828816001600160a01b0316600090815260746020526040902054151590565b6148455760405163a64b34ad60e01b815260040160405180910390fd5b600583018290556040518281526001600160a01b038216907fb9a1e33376bfbda9092f2d1e37662c1b435aab0d3fa8da3acc8f37ee222f99e790602001610fbb565b600080614894600a612c44565b6040517fb8cc3a500000000000000000000000000000000000000000000000000000000081526001600160a01b038581166004830152919091169063b8cc3a5090602401602060405180830381865afa1580156148f5573d6000803e3d6000fd5b505050506040513d601f19601f820116820180604052508101906149199190615417565b1192915050565b6000816003811115614934576149346154b4565b836003811115614946576149466154b4565b1660ff1615159392505050565b60008151602083016020820281015b8082101561497b57815184019350602082019150614962565b505050919050565b6001600160a01b038216600090815260e060205260409020548015613eac576149af8282611838614776565b15614a0657816001600160a01b0316836001600160a01b03167f1ce7a1c4702402cd393500acb1de5bd927727a54e144a587d328f1b679abe4ec836040516149f991815260200190565b60405180910390a3505050565b604080518281524760208201526001600160a01b0380851692908616917f6c69e09ee5c5ac33c0cd57787261c5bade070a392ab34a4b5487c6868f723f6e91016149f9565b6001600160a01b038216600090815260e360205260409020548015613eac57614a778282611838614776565b15614ac157816001600160a01b0316836001600160a01b03167f0c4d6a43fc8470dee97db74874b5685e412cc517d9bdecfde1623c5e835b18e4836040516149f991815260200190565b604080518281524760208201526001600160a01b0380851692908616917f98697ee35f04a599a814432016fff3968c483d2d88dacb484926b9358f8e7cf991016149f9565b6000826001600160a01b03168260405160006040518083038185875af1925050503d8060008114614b53576040519150601f19603f3d011682016040523d82523d6000602084013e614b58565b606091505b5090949350505050565b6001600160a01b038116600090815260e960205260409020805460ff19169055610eab81614d42565b815b60aa54811015614bdf57600081815260ab6020818152604080842080546001600160a01b0316855260ac8352908420805460ff19169055928490525280546001600160a01b0319169055600101614b8d565b5060005b82811015614c1f57600081815260ab60209081526040808320546001600160a01b0316835260ac9091529020805460ff19169055600101614be3565b5060005b82811015614c93576000848281518110614c3f57614c3f615430565b6020908102919091018101516001600160a01b0316600081815260ac83526040808220805460ff1916600317905585825260ab9093529190912080546001600160a01b031916909117905550600101614c23565b508160aa81905550807f3d0eea40644a206ec25781dd5bb3b60eb4fa1264b993c3bddf3c73b14f29ef5e84604051610fbb919061526a565b6000816003811115614cdf57614cdf6154b4565b836003811115614cf157614cf16154b4565b1760ff166003811115610d3157610d316154b4565b6000816003811115614d1a57614d1a6154b4565b19836003811115614d2d57614d2d6154b4565b1660ff166003811115610d3157610d316154b4565b6001600160a01b03811660009081526074602052604081205490819003614d67575050565b6001600160a01b038216600090815260756020908152604080832080546001600160a01b031990811682556001808301805483169055600283018054831690556003830180549092169091556004820185905560058201859055600690910184905560748352818420849055607790925282208281558101829055607380549091614df1916153f1565b81548110614e0157614e01615430565b6000918252602090912001546001600160a01b03908116915083168114614e84576001600160a01b0381166000908152607460205260409020829055607380548291908419908110614e5557614e55615430565b9060005260206000200160006101000a8154816001600160a01b0302191690836001600160a01b031602179055505b6073805480614e9557614e956155bf565b600082815260209020810160001990810180546001600160a01b0319169055019055505050565b6001600160a01b0381168114610eab57600080fd5b600060208284031215614ee357600080fd5b813561105e81614ebc565b60e08101610d3482846001600160a01b03808251168352806020830151166020840152806040830151166040840152806060830151166060840152506080810151608083015260a081015160a083015260c081015160c08301525050565b60008060408385031215614f5f57600080fd5b8235614f6a81614ebc565b91506020830135614f7a81614ebc565b809150509250929050565b60008060408385031215614f9857600080fd5b8235614fa381614ebc565b946020939093013593505050565b600060208284031215614fc357600080fd5b5035919050565b815181526020808301519082015260408101610d34565b8015158114610eab57600080fd5b6000806000806080858703121561500557600080fd5b843561501081614ebc565b93506020850135925060408501359150606085013561502e81614fe1565b939692955090935050565b8060408101831015610d3457600080fd5b6000806000806000806000806000806000806101a08d8f03121561506d57600080fd5b8c3561507881614ebc565b9b5060208d013561508881614ebc565b9a5060408d013561509881614ebc565b995060608d01356150a881614ebc565b985060808d01356150b881614ebc565b975060a08d01356150c881614ebc565b965060c08d0135955060e08d013594506101008d013593506101208d013592506101408d013591506150fe8e6101608f01615039565b90509295989b509295989b509295989b565b6020808252825182820181905260009190848201906040850190845b818110156151515783516001600160a01b03168352928401929184019160010161512c565b50909695505050505050565b60008083601f84011261516f57600080fd5b50813567ffffffffffffffff81111561518757600080fd5b6020830191508360208260051b85010111156151a257600080fd5b9250929050565b600080602083850312156151bc57600080fd5b823567ffffffffffffffff8111156151d357600080fd5b6151df8582860161515d565b90969095509350505050565b6020808252825182820181905260009190848201906040850190845b81811015615151578351151583529284019291840191600101615207565b60008151808452602080850194506020840160005b8381101561525f5781516001600160a01b03168752958201959082019060010161523a565b509495945050505050565b602081526000610d316020830184615225565b6020808252825182820181905260009190848201906040850190845b81811015615151576152fc8385516001600160a01b03808251168352806020830151166020840152806040830151166040840152806060830151166060840152506080810151608083015260a081015160a083015260c081015160c08301525050565b9284019260e09290920191600101615299565b80356011811061112457600080fd5b6000806040838503121561533157600080fd5b614f6a8361530f565b60006020828403121561534c57600080fd5b610d318261530f565b60008060006060848603121561536a57600080fd5b833561537581614ebc565b95602085013595506040909401359392505050565b600080600080608085870312156153a057600080fd5b84356153ab81614ebc565b935060208501356153bb81614ebc565b925060408501356153cb81614ebc565b9396929550929360600135925050565b634e487b7160e01b600052601160045260246000fd5b81810381811115610d3457610d346153db565b80820180821115610d3457610d346153db565b60006020828403121561542957600080fd5b5051919050565b634e487b7160e01b600052603260045260246000fd5b634e487b7160e01b600052604160045260246000fd5b60006001820161546e5761546e6153db565b5060010190565b6000806000806080858703121561548b57600080fd5b845161549681614fe1565b60208601516040870151606090970151919890975090945092505050565b634e487b7160e01b600052602160045260246000fd5b82815260408101600383106154e1576154e16154b4565b8260208301529392505050565b8082028115828204841417610d3457610d346153db565b634e487b7160e01b600052601260045260246000fd5b60008261552a5761552a615505565b500490565b6000806000806080858703121561554557600080fd5b505082516020840151604085015160609095015191969095509092509050565b6000806040838503121561557857600080fd5b505080516020909101519092909150565b60408152600061559c6040830185615225565b90508260208301529392505050565b6000826155ba576155ba615505565b500690565b634e487b7160e01b600052603160045260246000fd5b60208101600583106155e9576155e96154b4565b91905290565b601181106155ff576155ff6154b4565b9052565b60208101610d3482846155ef565b60006020828403121561562357600080fd5b815161105e81614ebc565b6001600160e01b0319841681526060810161564c60208301856155ef565b6001600160a01b0383166040830152949350505050565b6001600160e01b03198316815260408101600b83106154e1576154e16154b4565b604051601f8201601f1916810167ffffffffffffffff811182821017156156ad576156ad615446565b604052919050565b600067ffffffffffffffff8211156156cf576156cf615446565b5060051b60200190565b600060208083850312156156ec57600080fd5b825167ffffffffffffffff81111561570357600080fd5b8301601f8101851361571457600080fd5b8051615727615722826156b5565b615684565b81815260059190911b8201830190838101908783111561574657600080fd5b928401925b8284101561576d57835161575e81614ebc565b8252928401929084019061574b565b979650505050505050565b6000602080838503121561578b57600080fd5b825167ffffffffffffffff8111156157a257600080fd5b8301601f810185136157b357600080fd5b80516157c1615722826156b5565b81815260059190911b820183019083810190878311156157e057600080fd5b928401925b8284101561576d5783516157f881614ebc565b825292840192908401906157e5565b8281526040602082015260006110096040830184615225565b6000602080838503121561583357600080fd5b825167ffffffffffffffff81111561584a57600080fd5b8301601f8101851361585b57600080fd5b8051615869615722826156b5565b81815260059190911b8201830190838101908783111561588857600080fd5b928401925b8284101561576d5783518252928401929084019061588d565b60008151808452602080850194506020840160005b8381101561525f578151875295820195908201906001016158bb565b6060815260006158ea6060830186615225565b82810360208401526158fc81866158a6565b915050826040830152949350505050565b8381526060602082015260006159266060830185615225565b828103604084015261593881856158a6565b9695505050505050565b84815260806020820152600061595b6080830186615225565b828103604084015261596d81866158a6565b91505082606083015295945050505050565b60008161598e5761598e6153db565b506000190190565b6000825160005b818110156159b7576020818601810151858301520161599d565b506000920191825250919050565b6020808252825482820181905260008481528281209092916040850190845b818110156151515783546001600160a01b0316835260019384019392850192016159e4565b60006020808385031215615a1c57600080fd5b825167ffffffffffffffff811115615a3357600080fd5b8301601f81018513615a4457600080fd5b8051615a52615722826156b5565b81815260059190911b82018301908381019087831115615a7157600080fd5b928401925b8284101561576d578351615a8981614fe1565b82529284019290840190615a7656fea26469706673582212200a72ebeba6351ed1e1d60479ed9818ca581dfc119f5f662efa11bf690fb1811c64736f6c63430008190033",
  "callValue": 0,
  "chainId": 2021,
  "constructorArgs": "0x",
  "contractName": "RoninValidatorSet",
  "deployer": "0x968D0Cd7343f711216817E617d3f92a23dC91c07",
  "devdoc": {
    "version": 1,
    "kind": "dev",
    "methods": {
      "checkJailed(address)": {
        "details": "Returns whether the validator are put in jail (cannot join the set of validators) during the current period."
      },
      "checkJailedAtBlock(address,uint256)": {
        "details": "Returns whether the validator are put in jail (cannot join the set of validators) at a specific block."
      },
      "checkManyJailed(address[])": {
        "details": "Returns whether the validators are put in jail (cannot join the set of validators) during the current period."
      },
      "checkMiningRewardDeprecated(address)": {
        "details": "Returns whether the incoming reward of the block producer is deprecated during the current period."
      },
      "checkMiningRewardDeprecatedAtPeriod(address,uint256)": {
        "details": "Returns whether the incoming reward of the block producer is deprecated during a specific period."
      },
      "currentPeriod()": {
        "details": "Returns the period index from the current block."
      },
      "currentPeriodStartAtBlock()": {
        "details": "Returns the block number that the current period starts at."
      },
      "emergencyExitLockedAmount()": {
        "details": "Returns the amount of RON to lock from a consensus address."
      },
      "emergencyExpiryDuration()": {
        "details": "Returns the duration that an emergency request is expired and the fund will be recycled."
      },
      "epochEndingAt(uint256)": {
        "details": "Returns whether the epoch ending is at the block number `_block`."
      },
      "epochOf(uint256)": {
        "details": "Returns the epoch index from the block number."
      },
      "execApplyValidatorCandidate(address,address,address,uint256)": {
        "details": "Grants a validator candidate. Requirements: - The method caller is staking contract. Emits the event `CandidateGranted`."
      },
      "execBailOut(address,uint256)": {
        "details": "Finalize the bailout request from slash indicator contract. Requirements: - The method caller is slash indicator contract. Emits the event `ValidatorUnjailed`."
      },
      "execChangeAdminAddr(address,address)": {
        "details": "Fallback function of `Profile-changeAdminAddr`. This updates the shadow storage slot of \"shadowedAdmin\" for candidate id `id` to `newAdmin`. Requirements: - The caller must be the Profile contract."
      },
      "execChangeConsensusAddr(address,address)": {
        "details": "Fallback function of `Profile-changeConsensusAddr`. This updates the shadow storage slot of \"shadowedConsensus\" for candidate id `id` to `newAdmin`. Requirements: - The caller must be the Profile contract."
      },
      "execChangeTreasuryAddr(address,address)": {
        "details": "Fallback function of `Profile-changeTreasuryAddr`. This updates the shadow storage slot of \"shadowedTreasury\" for candidate id `id` to `newAdmin`. Requirements: - The caller must be the Profile contract."
      },
      "execReleaseLockedFundForEmergencyExitRequest(address,address)": {
        "details": "Unlocks fund for emergency exit request. Requirements: - The method caller is admin. Emits the event `EmergencyExitLockedFundReleased` if the fund is successfully unlocked. Emits the event `EmergencyExitLockedFundReleasingFailed` if the fund is failed to unlock."
      },
      "execRequestEmergencyExit(address,uint256)": {
        "details": "Fallback function of `IStaking-requestEmergencyExit`. Requirements: - The method caller is staking contract."
      },
      "execRequestRenounceCandidate(address,uint256)": {
        "details": "Requests to revoke a validator candidate in next `secsLeft` seconds. Requirements: - The method caller is staking contract. Emits the event `CandidateRevokingTimestampUpdated`."
      },
      "execRequestUpdateCommissionRate(address,uint256,uint256)": {
        "details": "Fallback function of `CandidateStaking-requestUpdateCommissionRate`. Requirements: - The method caller is the staking contract. - The `effectiveTimestamp` must be the beginning of a UTC day, and at least from 7 days onwards - The `rate` must be in range of [0_00; 100_00]. Emits the event `CommissionRateUpdateScheduled`."
      },
      "execSlash(address,uint256,uint256,bool)": {
        "details": "Finalize the slash request from slash indicator contract. Requirements: - The method caller is slash indicator contract. Emits the event `ValidatorPunished`."
      },
      "getBlockProducerIds()": {
        "details": "Returns the ids current block producer list."
      },
      "getBlockProducers()": {
        "details": "Returns the current block producer list."
      },
      "getCandidateInfo(address)": {
        "details": "Returns the info of a candidate."
      },
      "getCandidateInfoById(address)": {
        "details": "Returns the info of a candidate."
      },
      "getCandidateInfos()": {
        "details": "Returns all candidate info."
      },
      "getCommissionChangeSchedule(address)": {
        "details": "Returns the schedule of changing commission rate of a candidate address."
      },
      "getContract(uint8)": {
        "details": "Returns the address of a contract with a specific role. Throws an error if no contract is set for the specified role.",
        "params": {
          "contractType": "The role of the contract to retrieve."
        },
        "returns": {
          "contract_": "The address of the contract with the specified role."
        }
      },
      "getEmergencyExitInfo(address)": {
        "details": "Returns the emergency exit request."
      },
      "getJailedTimeLeft(address)": {
        "details": "Returns whether the validator are put in jail and the number of block and epoch that he still is in the jail."
      },
      "getJailedTimeLeftAtBlock(address,uint256)": {
        "details": "Returns whether the validator are put in jail at a specific block and the number of block and epoch that he still is in the jail."
      },
      "getLastUpdatedBlock()": {
        "details": "Returns the block that validator set was updated."
      },
      "getValidatorCandidateIds()": {
        "details": "Returns the list of validator candidate ids."
      },
      "getValidatorCandidates()": {
        "details": "Returns the list validator candidates."
      },
      "getValidatorIds()": {
        "details": "Returns the ids of current validator list."
      },
      "getValidators()": {
        "details": "Returns the current validator list."
      },
      "initialize(address,address,address,address,address,address,uint256,uint256,uint256,uint256,uint256,uint256[2])": {
        "details": "Initializes the contract storage."
      },
      "isBlockProducer(address)": {
        "details": "Returns whether the consensus address is block producer or not."
      },
      "isBlockProducerById(address)": {
        "details": "Returns whether the id is block producer or not."
      },
      "isCandidateAdmin(address,address)": {
        "details": "Returns whether the address is the candidate admin."
      },
      "isPeriodEnding()": {
        "details": "Returns whether the period ending at the current block number."
      },
      "isValidatorCandidate(address)": {
        "details": "Returns whether the address is a validator (candidate)."
      },
      "maxPrioritizedValidatorNumber()": {
        "details": "Returns the number of reserved slots for prioritized validators."
      },
      "maxValidatorCandidate()": {
        "details": "Returns the maximum number of validator candidate."
      },
      "maxValidatorNumber()": {
        "details": "Returns the maximum number of validators in the epoch."
      },
      "minEffectiveDaysOnward()": {
        "details": "Returns the minimum number of days to the effective date of commission rate change."
      },
      "numberOfBlocksInEpoch()": {
        "details": "Returns the number of blocks in a epoch."
      },
      "setContract(uint8,address)": {
        "details": "Sets the address of a contract with a specific role. Emits the event {ContractUpdated}.",
        "params": {
          "addr": "The address of the contract to set.",
          "contractType": "The role of the contract to set."
        }
      },
      "setEmergencyExitLockedAmount(uint256)": {
        "details": "Sets the amount of RON to lock from a consensus address. Requirements: - The method caller is admin. Emits the event `EmergencyExitLockedAmountUpdated`."
      },
      "setEmergencyExpiryDuration(uint256)": {
        "details": "Sets the duration that an emergency request is expired and the fund will be recycled. Requirements: - The method caller is admin. Emits the event `EmergencyExpiryDurationUpdated`."
      },
      "setMaxValidatorCandidate(uint256)": {
        "details": "Sets the maximum number of validator candidate. Requirements: - The method caller is admin. Emits the `MaxValidatorCandidateUpdated` event."
      },
      "setMinEffectiveDaysOnwards(uint256)": {
        "details": "Sets the minimum number of days to the effective date of commision rate change. Requirements: - The method caller is admin. Emits the `MinEffectiveDaysOnwardsUpdated` event."
      },
      "submitBlockReward()": {
        "details": "Submits reward of the current block. Requirements: - The method caller is coinbase. Emits the event `MiningRewardDeprecated` if the coinbase is slashed or no longer be a block producer. Emits the event `BlockRewardSubmitted` for the valid call."
      },
      "totalBlockProducer()": {
        "details": "Returns total numbers of the block producers."
      },
      "totalDeprecatedReward()": {
        "details": "Returns the total deprecated reward, which includes reward that is not sent for slashed validators and unsastified bridge operators"
      },
      "tryGetPeriodOfEpoch(uint256)": {
        "details": "Tries to get the period index from the epoch number."
      },
      "wrapUpEpoch()": {
        "details": "Wraps up the current epoch. Requirements: - The method must be called when the current epoch is ending. - The epoch is not wrapped yet. - The method caller is coinbase. Emits the event `MiningRewardDistributed` when some validator has reward distributed. Emits the event `StakingRewardDistributed` when some staking pool has reward distributed. Emits the event `BlockProducerSetUpdated` when the epoch is wrapped up. Emits the event `BridgeOperatorSetUpdated` when the epoch is wrapped up at period ending. Emits the event `ValidatorSetUpdated` when the epoch is wrapped up at period ending, and the validator set gets updated. Emits the event `WrappedUpEpoch`."
      }
    },
    "events": {
      "BlockProducerSetUpdated(uint256,uint256,address[])": {
        "details": "Emitted when the bridge operator set is updated, to mirror the in-jail and maintaining status of the validator."
      },
      "BlockRewardDeprecated(address,uint256,uint8)": {
        "details": "Emitted when the reward of the block producer is deprecated."
      },
      "BlockRewardSubmitted(address,uint256,uint256)": {
        "details": "Emitted when the block reward is submitted."
      },
      "BridgeOperatorRewardDistributed(address,address,address,uint256)": {
        "details": "Emitted when the bridge operator reward is distributed."
      },
      "BridgeOperatorRewardDistributionFailed(address,address,address,uint256,uint256)": {
        "details": "Emitted when the contract fails when distributing the bridge operator reward."
      },
      "BridgeOperatorSetUpdated(uint256,uint256,address[])": {
        "details": "Emitted when the bridge operator set is updated."
      },
      "CandidateGranted(address,address,address)": {
        "details": "Emitted when the validator candidate is granted."
      },
      "CandidateRevokingTimestampUpdated(address,uint256)": {
        "details": "Emitted when the revoking timestamp of a candidate is updated."
      },
      "CandidateTopupDeadlineUpdated(address,uint256)": {
        "details": "Emitted when the topup deadline of a candidate is updated."
      },
      "CandidatesRevoked(address[])": {
        "details": "Emitted when the validator candidate is revoked."
      },
      "CommissionRateUpdateScheduled(address,uint256,uint256)": {
        "details": "Emitted when a schedule for updating commission rate is set."
      },
      "CommissionRateUpdated(address,uint256)": {
        "details": "Emitted when the commission rate of a validator is updated."
      },
      "ContractUpdated(uint8,address)": {
        "details": "Emitted when a contract is updated."
      },
      "DeprecatedRewardRecycleFailed(address,uint256,uint256)": {
        "details": "Emitted when the deprecated reward withdrawal is failed"
      },
      "DeprecatedRewardRecycled(address,uint256)": {
        "details": "Emitted when the deprecated reward is withdrawn."
      },
      "EmergencyExitLockedAmountUpdated(uint256)": {
        "details": "Emitted when the emergency exit locked amount is updated."
      },
      "EmergencyExitLockedFundReleased(address,address,uint256)": {
        "details": "Emitted when the fund that locked from an emergency exit request is transferred to the recipient."
      },
      "EmergencyExitLockedFundReleasingFailed(address,address,uint256,uint256)": {
        "details": "Emitted when the fund that locked from an emergency exit request is failed to transferred back."
      },
      "EmergencyExitRequested(address,uint256)": {
        "details": "Emitted when the fund is locked from an emergency exit request"
      },
      "EmergencyExpiryDurationUpdated(uint256)": {
        "details": "Emitted when the emergency expiry duration is updated."
      },
      "FastFinalityRewardDistributed(address,address,uint256)": {
        "details": "Emitted when the fast finality reward is distributed."
      },
      "FastFinalityRewardDistributionFailed(address,address,uint256,uint256)": {
        "details": "Emitted when the contract fails when distributing the fast finality reward."
      },
      "Initialized(uint8)": {
        "details": "Triggered when the contract has been initialized or reinitialized."
      },
      "MaxValidatorCandidateUpdated(uint256)": {
        "details": "Emitted when the maximum number of validator candidates is updated."
      },
      "MinEffectiveDaysOnwardsUpdated(uint256)": {
        "details": "Emitted when the min offset to the effective date of commission rate change is updated."
      },
      "MiningRewardDistributed(address,address,uint256)": {
        "details": "Emitted when the block producer reward is distributed."
      },
      "MiningRewardDistributionFailed(address,address,uint256,uint256)": {
        "details": "Emitted when the contract fails when distributing the block producer reward."
      },
      "StakingRewardDistributed(uint256,address[],uint256[])": {
        "details": "Emitted when the amount of RON reward is distributed to staking contract."
      },
      "StakingRewardDistributionFailed(uint256,address[],uint256[],uint256)": {
        "details": "Emitted when the contracts fails when distributing the amount of RON to the staking contract."
      },
      "ValidatorPunished(address,uint256,uint256,uint256,bool,bool)": {
        "details": "Emitted when the validator is punished."
      },
      "ValidatorSetUpdated(uint256,address[])": {
        "details": "Emitted when the validator set is updated"
      },
      "ValidatorUnjailed(address,uint256)": {
        "details": "Emitted when the validator get out of jail by bailout."
      },
      "WrappedUpEpoch(uint256,uint256,bool)": {
        "details": "Emitted when the epoch is wrapped up."
      }
    },
    "errors": {
      "ErrAlreadyRequestedEmergencyExit()": [
        {
          "details": "Error of already requested emergency exit before."
        }
      ],
      "ErrAlreadyRequestedRevokingCandidate()": [
        {
          "details": "Error of already requested revoking candidate before."
        }
      ],
      "ErrAlreadyRequestedUpdatingCommissionRate()": [
        {
          "details": "Error of commission change schedule exists."
        }
      ],
      "ErrAlreadyWrappedEpoch()": [
        {
          "details": "Error of query for already wrapped up epoch"
        }
      ],
      "ErrAtEndOfEpochOnly()": [
        {
          "details": "Error of only allowed at the end of epoch"
        }
      ],
      "ErrCallerMustBeCoinbase()": [
        {
          "details": "Error of method caller must be coinbase"
        }
      ],
      "ErrCannotBailout(address)": [
        {
          "details": "Error of cannot bailout due to high tier slash."
        }
      ],
      "ErrContractTypeNotFound(uint8)": [
        {
          "details": "Error of invalid role."
        }
      ],
      "ErrExceedsMaxNumberOfCandidate()": [
        {
          "details": "Error of exceeding maximum number of candidates."
        }
      ],
      "ErrExistentCandidate()": [
        {
          "details": "Error of querying for already existent candidate."
        }
      ],
      "ErrExistentCandidateAdmin(address)": [
        {
          "details": "Error of candidate admin already exists."
        }
      ],
      "ErrExistentTreasury(address)": [
        {
          "details": "Error of treasury already exists."
        }
      ],
      "ErrInsufficientBalance(bytes4,uint256,uint256)": [
        {
          "details": "Error of sender has insufficient balance."
        }
      ],
      "ErrInvalidCommissionRate()": [
        {
          "details": "Error of invalid commission rate."
        }
      ],
      "ErrInvalidEffectiveDaysOnwards()": [
        {
          "details": "Error of invalid effective days onwards."
        }
      ],
      "ErrInvalidMaxPrioritizedValidatorNumber()": [
        {
          "details": "Error thrown when an invalid maximum prioritized validator number is provided."
        }
      ],
      "ErrInvalidMinEffectiveDaysOnwards()": [
        {
          "details": "Error of invalid min effective days onwards."
        }
      ],
      "ErrLockedFundMightBeRecycled(address)": [
        {
          "details": "Error thrown when the the locked fund of emergency exit might be recycled."
        }
      ],
      "ErrLockedFundReleaseInfoNotFound(address)": [
        {
          "details": "Error thrown when the info of releasing locked fund not exist."
        }
      ],
      "ErrNonExistentCandidate()": [
        {
          "details": "Error of querying for non-existent candidate."
        }
      ],
      "ErrRecipientRevert(bytes4)": [
        {
          "details": "Error of recipient not accepting RON when transfer RON."
        }
      ],
      "ErrTrustedOrgCannotRenounce()": [
        {
          "details": "Error of trusted org cannot renounce."
        }
      ],
      "ErrUnauthorized(bytes4,uint8)": [
        {
          "details": "Error indicating that the caller is unauthorized to perform a specific function.",
          "params": {
            "expectedRole": "The role required to perform the function.",
            "msgSig": "The function signature (bytes4) that the caller is unauthorized to perform."
          }
        }
      ],
      "ErrUnauthorizedReceiveRON()": [
        {
          "details": "Error thrown when receives RON from neither staking vesting contract nor staking contract"
        }
      ],
      "ErrUnexpectedInternalCall(bytes4,uint8,address)": [
        {
          "details": "Error indicating that the caller is unauthorized to perform a specific function.",
          "params": {
            "actual": "The actual address that called to the function.",
            "expectedContractType": "The contract type required to perform the function.",
            "msgSig": "The function signature (bytes4)."
          }
        }
      ],
      "ErrZeroCodeContract(address)": [
        {
          "details": "Error of set to non-contract."
        }
      ],
      "NonExistentRecyclingInfo()": [
        {
          "details": "Error thrown when queries for a non existent info."
        }
      ]
    }
  },
  "isFoundry": true,
  "nonce": 194390,
  "storageLayout": {
    "storage": [
      {
        "astId": 106616,
        "contract": "contracts/ronin/validator/RoninValidatorSet.sol:RoninValidatorSet",
        "label": "_initialized",
        "offset": 0,
        "slot": "0",
        "type": "t_uint8"
      },
      {
        "astId": 106619,
        "contract": "contracts/ronin/validator/RoninValidatorSet.sol:RoninValidatorSet",
        "label": "_initializing",
        "offset": 1,
        "slot": "0",
        "type": "t_bool"
      },
      {
        "astId": 44306,
        "contract": "contracts/ronin/validator/RoninValidatorSet.sol:RoninValidatorSet",
        "label": "_numberOfBlocksInEpoch",
        "offset": 0,
        "slot": "1",
        "type": "t_uint256"
      },
      {
        "astId": 44309,
        "contract": "contracts/ronin/validator/RoninValidatorSet.sol:RoninValidatorSet",
        "label": "_lastUpdatedBlock",
        "offset": 0,
        "slot": "2",
        "type": "t_uint256"
      },
      {
        "astId": 44312,
        "contract": "contracts/ronin/validator/RoninValidatorSet.sol:RoninValidatorSet",
        "label": "_lastUpdatedPeriod",
        "offset": 0,
        "slot": "3",
        "type": "t_uint256"
      },
      {
        "astId": 44315,
        "contract": "contracts/ronin/validator/RoninValidatorSet.sol:RoninValidatorSet",
        "label": "_currentPeriodStartAtBlock",
        "offset": 0,
        "slot": "4",
        "type": "t_uint256"
      },
      {
        "astId": 44320,
        "contract": "contracts/ronin/validator/RoninValidatorSet.sol:RoninValidatorSet",
        "label": "_periodOf",
        "offset": 0,
        "slot": "5",
        "type": "t_mapping(t_uint256,t_uint256)"
      },
      {
        "astId": 44325,
        "contract": "contracts/ronin/validator/RoninValidatorSet.sol:RoninValidatorSet",
        "label": "______gap",
        "offset": 0,
        "slot": "6",
        "type": "t_array(t_uint256)49_storage"
      },
      {
        "astId": 43910,
        "contract": "contracts/ronin/validator/RoninValidatorSet.sol:RoninValidatorSet",
        "label": "_miningRewardDeprecatedAtPeriod",
        "offset": 0,
        "slot": "55",
        "type": "t_mapping(t_address,t_mapping(t_uint256,t_bool))"
      },
      {
        "astId": 43917,
        "contract": "contracts/ronin/validator/RoninValidatorSet.sol:RoninValidatorSet",
        "label": "_miningRewardBailoutCutOffAtPeriod",
        "offset": 0,
        "slot": "56",
        "type": "t_mapping(t_address,t_mapping(t_uint256,t_bool))"
      },
      {
        "astId": 43924,
        "contract": "contracts/ronin/validator/RoninValidatorSet.sol:RoninValidatorSet",
        "label": "______deprecatedBridgeRewardDeprecatedAtPeriod",
        "offset": 0,
        "slot": "57",
        "type": "t_mapping(t_address,t_mapping(t_uint256,t_bool))"
      },
      {
        "astId": 43929,
        "contract": "contracts/ronin/validator/RoninValidatorSet.sol:RoninValidatorSet",
        "label": "_blockProducerJailedBlock",
        "offset": 0,
        "slot": "58",
        "type": "t_mapping(t_address,t_uint256)"
      },
      {
        "astId": 43934,
        "contract": "contracts/ronin/validator/RoninValidatorSet.sol:RoninValidatorSet",
        "label": "_emergencyExitJailedTimestamp",
        "offset": 0,
        "slot": "59",
        "type": "t_mapping(t_address,t_uint256)"
      },
      {
        "astId": 43939,
        "contract": "contracts/ronin/validator/RoninValidatorSet.sol:RoninValidatorSet",
        "label": "_cannotBailoutUntilBlock",
        "offset": 0,
        "slot": "60",
        "type": "t_mapping(t_address,t_uint256)"
      },
      {
        "astId": 43944,
        "contract": "contracts/ronin/validator/RoninValidatorSet.sol:RoninValidatorSet",
        "label": "______gap",
        "offset": 0,
        "slot": "61",
        "type": "t_array(t_uint256)48_storage"
      },
      {
        "astId": 45336,
        "contract": "contracts/ronin/validator/RoninValidatorSet.sol:RoninValidatorSet",
        "label": "______deprecatedStakingVesting",
        "offset": 0,
        "slot": "109",
        "type": "t_address"
      },
      {
        "astId": 45364,
        "contract": "contracts/ronin/validator/RoninValidatorSet.sol:RoninValidatorSet",
        "label": "______deprecatedBridgeTracking",
        "offset": 0,
        "slot": "110",
        "type": "t_address"
      },
      {
        "astId": 45352,
        "contract": "contracts/ronin/validator/RoninValidatorSet.sol:RoninValidatorSet",
        "label": "______deprecatedMaintenance",
        "offset": 0,
        "slot": "111",
        "type": "t_address"
      },
      {
        "astId": 45332,
        "contract": "contracts/ronin/validator/RoninValidatorSet.sol:RoninValidatorSet",
        "label": "______deprecatedSlashIndicator",
        "offset": 0,
        "slot": "112",
        "type": "t_address"
      },
      {
        "astId": 45348,
        "contract": "contracts/ronin/validator/RoninValidatorSet.sol:RoninValidatorSet",
        "label": "______deprecatedStakingContract",
        "offset": 0,
        "slot": "113",
        "type": "t_address"
      },
      {
        "astId": 40004,
        "contract": "contracts/ronin/validator/RoninValidatorSet.sol:RoninValidatorSet",
        "label": "_maxValidatorCandidate",
        "offset": 0,
        "slot": "114",
        "type": "t_uint256"
      },
      {
        "astId": 40008,
        "contract": "contracts/ronin/validator/RoninValidatorSet.sol:RoninValidatorSet",
        "label": "_candidateIds",
        "offset": 0,
        "slot": "115",
        "type": "t_array(t_address)dyn_storage"
      },
      {
        "astId": 40013,
        "contract": "contracts/ronin/validator/RoninValidatorSet.sol:RoninValidatorSet",
        "label": "_candidateIndex",
        "offset": 0,
        "slot": "116",
        "type": "t_mapping(t_address,t_uint256)"
      },
      {
        "astId": 40019,
        "contract": "contracts/ronin/validator/RoninValidatorSet.sol:RoninValidatorSet",
        "label": "_candidateInfo",
        "offset": 0,
        "slot": "117",
        "type": "t_mapping(t_address,t_struct(ValidatorCandidate)10505_storage)"
      },
      {
        "astId": 40022,
        "contract": "contracts/ronin/validator/RoninValidatorSet.sol:RoninValidatorSet",
        "label": "_minEffectiveDaysOnwards",
        "offset": 0,
        "slot": "118",
        "type": "t_uint256"
      },
      {
        "astId": 40028,
        "contract": "contracts/ronin/validator/RoninValidatorSet.sol:RoninValidatorSet",
        "label": "_candidateCommissionChangeSchedule",
        "offset": 0,
        "slot": "119",
        "type": "t_mapping(t_address,t_struct(CommissionSchedule)10512_storage)"
      },
      {
        "astId": 40033,
        "contract": "contracts/ronin/validator/RoninValidatorSet.sol:RoninValidatorSet",
        "label": "______gap",
        "offset": 0,
        "slot": "120",
        "type": "t_array(t_uint256)48_storage"
      },
      {
        "astId": 45356,
        "contract": "contracts/ronin/validator/RoninValidatorSet.sol:RoninValidatorSet",
        "label": "______deprecatedTrustedOrg",
        "offset": 0,
        "slot": "168",
        "type": "t_address"
      },
      {
        "astId": 44495,
        "contract": "contracts/ronin/validator/RoninValidatorSet.sol:RoninValidatorSet",
        "label": "__deprecatedMaxValidatorNumber",
        "offset": 0,
        "slot": "169",
        "type": "t_uint256"
      },
      {
        "astId": 44498,
        "contract": "contracts/ronin/validator/RoninValidatorSet.sol:RoninValidatorSet",
        "label": "_validatorCount",
        "offset": 0,
        "slot": "170",
        "type": "t_uint256"
      },
      {
        "astId": 44503,
        "contract": "contracts/ronin/validator/RoninValidatorSet.sol:RoninValidatorSet",
        "label": "_validatorIds",
        "offset": 0,
        "slot": "171",
        "type": "t_mapping(t_uint256,t_address)"
      },
      {
        "astId": 44509,
        "contract": "contracts/ronin/validator/RoninValidatorSet.sol:RoninValidatorSet",
        "label": "_validatorMap",
        "offset": 0,
        "slot": "172",
        "type": "t_mapping(t_address,t_enum(ValidatorFlag)11562)"
      },
      {
        "astId": 44512,
        "contract": "contracts/ronin/validator/RoninValidatorSet.sol:RoninValidatorSet",
        "label": "__deprecatedMaxPrioritizedValidatorNumber",
        "offset": 0,
        "slot": "173",
        "type": "t_uint256"
      },
      {
        "astId": 44517,
        "contract": "contracts/ronin/validator/RoninValidatorSet.sol:RoninValidatorSet",
        "label": "______gap",
        "offset": 0,
        "slot": "174",
        "type": "t_array(t_uint256)50_storage"
      },
      {
        "astId": 43758,
        "contract": "contracts/ronin/validator/RoninValidatorSet.sol:RoninValidatorSet",
        "label": "_miningReward",
        "offset": 0,
        "slot": "224",
        "type": "t_mapping(t_address,t_uint256)"
      },
      {
        "astId": 43763,
        "contract": "contracts/ronin/validator/RoninValidatorSet.sol:RoninValidatorSet",
        "label": "_delegatingReward",
        "offset": 0,
        "slot": "225",
        "type": "t_mapping(t_address,t_uint256)"
      },
      {
        "astId": 43766,
        "contract": "contracts/ronin/validator/RoninValidatorSet.sol:RoninValidatorSet",
        "label": "_totalFastFinalityReward",
        "offset": 0,
        "slot": "226",
        "type": "t_uint256"
      },
      {
        "astId": 43771,
        "contract": "contracts/ronin/validator/RoninValidatorSet.sol:RoninValidatorSet",
        "label": "_fastFinalityReward",
        "offset": 0,
        "slot": "227",
        "type": "t_mapping(t_address,t_uint256)"
      },
      {
        "astId": 43774,
        "contract": "contracts/ronin/validator/RoninValidatorSet.sol:RoninValidatorSet",
        "label": "_totalDeprecatedReward",
        "offset": 0,
        "slot": "228",
        "type": "t_uint256"
      },
      {
        "astId": 43777,
        "contract": "contracts/ronin/validator/RoninValidatorSet.sol:RoninValidatorSet",
        "label": "_emergencyExitLockedAmount",
        "offset": 0,
        "slot": "229",
        "type": "t_uint256"
      },
      {
        "astId": 43780,
        "contract": "contracts/ronin/validator/RoninValidatorSet.sol:RoninValidatorSet",
        "label": "_emergencyExpiryDuration",
        "offset": 0,
        "slot": "230",
        "type": "t_uint256"
      },
      {
        "astId": 43784,
        "contract": "contracts/ronin/validator/RoninValidatorSet.sol:RoninValidatorSet",
        "label": "_lockedConsensusList",
        "offset": 0,
        "slot": "231",
        "type": "t_array(t_address)dyn_storage"
      },
      {
        "astId": 43790,
        "contract": "contracts/ronin/validator/RoninValidatorSet.sol:RoninValidatorSet",
        "label": "_exitInfo",
        "offset": 0,
        "slot": "232",
        "type": "t_mapping(t_address,t_struct(EmergencyExitInfo)11119_storage)"
      },
      {
        "astId": 43795,
        "contract": "contracts/ronin/validator/RoninValidatorSet.sol:RoninValidatorSet",
        "label": "_lockedFundReleased",
        "offset": 0,
        "slot": "233",
        "type": "t_mapping(t_address,t_bool)"
      },
      {
        "astId": 43800,
        "contract": "contracts/ronin/validator/RoninValidatorSet.sol:RoninValidatorSet",
        "label": "______gap",
        "offset": 0,
        "slot": "234",
        "type": "t_array(t_uint256)44_storage"
      }
    ],
    "types": {
      "t_address": {
        "encoding": "inplace",
        "label": "address",
        "numberOfBytes": "20"
      },
      "t_address_payable": {
        "encoding": "inplace",
        "label": "address payable",
        "numberOfBytes": "20"
      },
      "t_array(t_address)dyn_storage": {
        "encoding": "dynamic_array",
        "label": "address[]",
        "numberOfBytes": "32",
        "base": "t_address"
      },
      "t_array(t_uint256)44_storage": {
        "encoding": "inplace",
        "label": "uint256[44]",
        "numberOfBytes": "1408",
        "base": "t_uint256"
      },
      "t_array(t_uint256)48_storage": {
        "encoding": "inplace",
        "label": "uint256[48]",
        "numberOfBytes": "1536",
        "base": "t_uint256"
      },
      "t_array(t_uint256)49_storage": {
        "encoding": "inplace",
        "label": "uint256[49]",
        "numberOfBytes": "1568",
        "base": "t_uint256"
      },
      "t_array(t_uint256)50_storage": {
        "encoding": "inplace",
        "label": "uint256[50]",
        "numberOfBytes": "1600",
        "base": "t_uint256"
      },
      "t_bool": {
        "encoding": "inplace",
        "label": "bool",
        "numberOfBytes": "1"
      },
      "t_enum(ValidatorFlag)11562": {
        "encoding": "inplace",
        "label": "enum EnumFlags.ValidatorFlag",
        "numberOfBytes": "1"
      },
      "t_mapping(t_address,t_bool)": {
        "encoding": "mapping",
        "key": "t_address",
        "label": "mapping(address => bool)",
        "numberOfBytes": "32",
        "value": "t_bool"
      },
      "t_mapping(t_address,t_enum(ValidatorFlag)11562)": {
        "encoding": "mapping",
        "key": "t_address",
        "label": "mapping(address => enum EnumFlags.ValidatorFlag)",
        "numberOfBytes": "32",
        "value": "t_enum(ValidatorFlag)11562"
      },
      "t_mapping(t_address,t_mapping(t_uint256,t_bool))": {
        "encoding": "mapping",
        "key": "t_address",
        "label": "mapping(address => mapping(uint256 => bool))",
        "numberOfBytes": "32",
        "value": "t_mapping(t_uint256,t_bool)"
      },
      "t_mapping(t_address,t_struct(CommissionSchedule)10512_storage)": {
        "encoding": "mapping",
        "key": "t_address",
        "label": "mapping(address => struct ICandidateManager.CommissionSchedule)",
        "numberOfBytes": "32",
        "value": "t_struct(CommissionSchedule)10512_storage"
      },
      "t_mapping(t_address,t_struct(EmergencyExitInfo)11119_storage)": {
        "encoding": "mapping",
        "key": "t_address",
        "label": "mapping(address => struct ICommonInfo.EmergencyExitInfo)",
        "numberOfBytes": "32",
        "value": "t_struct(EmergencyExitInfo)11119_storage"
      },
      "t_mapping(t_address,t_struct(ValidatorCandidate)10505_storage)": {
        "encoding": "mapping",
        "key": "t_address",
        "label": "mapping(address => struct ICandidateManager.ValidatorCandidate)",
        "numberOfBytes": "32",
        "value": "t_struct(ValidatorCandidate)10505_storage"
      },
      "t_mapping(t_address,t_uint256)": {
        "encoding": "mapping",
        "key": "t_address",
        "label": "mapping(address => uint256)",
        "numberOfBytes": "32",
        "value": "t_uint256"
      },
      "t_mapping(t_uint256,t_address)": {
        "encoding": "mapping",
        "key": "t_uint256",
        "label": "mapping(uint256 => address)",
        "numberOfBytes": "32",
        "value": "t_address"
      },
      "t_mapping(t_uint256,t_bool)": {
        "encoding": "mapping",
        "key": "t_uint256",
        "label": "mapping(uint256 => bool)",
        "numberOfBytes": "32",
        "value": "t_bool"
      },
      "t_mapping(t_uint256,t_uint256)": {
        "encoding": "mapping",
        "key": "t_uint256",
        "label": "mapping(uint256 => uint256)",
        "numberOfBytes": "32",
        "value": "t_uint256"
      },
      "t_struct(CommissionSchedule)10512_storage": {
        "encoding": "inplace",
        "label": "struct ICandidateManager.CommissionSchedule",
        "numberOfBytes": "64",
        "members": [
          {
            "astId": 10508,
            "contract": "contracts/ronin/validator/RoninValidatorSet.sol:RoninValidatorSet",
            "label": "effectiveTimestamp",
            "offset": 0,
            "slot": "0",
            "type": "t_uint256"
          },
          {
            "astId": 10511,
            "contract": "contracts/ronin/validator/RoninValidatorSet.sol:RoninValidatorSet",
            "label": "commissionRate",
            "offset": 0,
            "slot": "1",
            "type": "t_uint256"
          }
        ]
      },
      "t_struct(EmergencyExitInfo)11119_storage": {
        "encoding": "inplace",
        "label": "struct ICommonInfo.EmergencyExitInfo",
        "numberOfBytes": "64",
        "members": [
          {
            "astId": 11116,
            "contract": "contracts/ronin/validator/RoninValidatorSet.sol:RoninValidatorSet",
            "label": "lockedAmount",
            "offset": 0,
            "slot": "0",
            "type": "t_uint256"
          },
          {
            "astId": 11118,
            "contract": "contracts/ronin/validator/RoninValidatorSet.sol:RoninValidatorSet",
            "label": "recyclingAt",
            "offset": 0,
            "slot": "1",
            "type": "t_uint256"
          }
        ]
      },
      "t_struct(ValidatorCandidate)10505_storage": {
        "encoding": "inplace",
        "label": "struct ICandidateManager.ValidatorCandidate",
        "numberOfBytes": "224",
        "members": [
          {
            "astId": 10485,
            "contract": "contracts/ronin/validator/RoninValidatorSet.sol:RoninValidatorSet",
            "label": "__shadowedAdmin",
            "offset": 0,
            "slot": "0",
            "type": "t_address"
          },
          {
            "astId": 10489,
            "contract": "contracts/ronin/validator/RoninValidatorSet.sol:RoninValidatorSet",
            "label": "__shadowedConsensus",
            "offset": 0,
            "slot": "1",
            "type": "t_userDefinedValueType(TConsensus)45044"
          },
          {
            "astId": 10492,
            "contract": "contracts/ronin/validator/RoninValidatorSet.sol:RoninValidatorSet",
            "label": "__shadowedTreasury",
            "offset": 0,
            "slot": "2",
            "type": "t_address_payable"
          },
          {
            "astId": 10495,
            "contract": "contracts/ronin/validator/RoninValidatorSet.sol:RoninValidatorSet",
            "label": "____deprecatedBridgeOperatorAddr",
            "offset": 0,
            "slot": "3",
            "type": "t_address"
          },
          {
            "astId": 10498,
            "contract": "contracts/ronin/validator/RoninValidatorSet.sol:RoninValidatorSet",
            "label": "commissionRate",
            "offset": 0,
            "slot": "4",
            "type": "t_uint256"
          },
          {
            "astId": 10501,
            "contract": "contracts/ronin/validator/RoninValidatorSet.sol:RoninValidatorSet",
            "label": "revokingTimestamp",
            "offset": 0,
            "slot": "5",
            "type": "t_uint256"
          },
          {
            "astId": 10504,
            "contract": "contracts/ronin/validator/RoninValidatorSet.sol:RoninValidatorSet",
            "label": "topupDeadline",
            "offset": 0,
            "slot": "6",
            "type": "t_uint256"
          }
        ]
      },
      "t_uint256": {
        "encoding": "inplace",
        "label": "uint256",
        "numberOfBytes": "32"
      },
      "t_uint8": {
        "encoding": "inplace",
        "label": "uint8",
        "numberOfBytes": "1"
      },
      "t_userDefinedValueType(TConsensus)45044": {
        "encoding": "inplace",
        "label": "TConsensus",
        "numberOfBytes": "20"
      }
    }
  },
  "timestamp": 1717148297,
  "userdoc": {
    "version": 1,
    "kind": "user"
  }
}