{
  "abi": [
    {
      "type": "constructor",
      "inputs": [],
      "stateMutability": "nonpayable"
    },
    {
      "type": "fallback",
      "stateMutability": "payable"
    },
    {
      "type": "receive",
      "stateMutability": "payable"
    },
    {
      "type": "function",
      "name": "DEFAULT_ADDITION_GAS",
      "inputs": [],
      "outputs": [
        {
          "name": "",
          "type": "uint256",
          "internalType": "uint256"
        }
      ],
      "stateMutability": "view"
    },
    {
      "type": "function",
      "name": "PERIOD_DURATION",
      "inputs": [],
      "outputs": [
        {
          "name": "",
          "type": "uint256",
          "internalType": "uint256"
        }
      ],
      "stateMutability": "view"
    },
    {
      "type": "function",
      "name": "checkJailed",
      "inputs": [
        {
          "name": "consensus",
          "type": "address",
          "internalType": "TConsensus"
        }
      ],
      "outputs": [
        {
          "name": "",
          "type": "bool",
          "internalType": "bool"
        }
      ],
      "stateMutability": "view"
    },
    {
      "type": "function",
      "name": "checkJailedAtBlock",
      "inputs": [
        {
          "name": "addr",
          "type": "address",
          "internalType": "TConsensus"
        },
        {
          "name": "blockNum",
          "type": "uint256",
          "internalType": "uint256"
        }
      ],
      "outputs": [
        {
          "name": "",
          "type": "bool",
          "internalType": "bool"
        }
      ],
      "stateMutability": "view"
    },
    {
      "type": "function",
      "name": "checkManyJailed",
      "inputs": [
        {
          "name": "consensusList",
          "type": "address[]",
          "internalType": "TConsensus[]"
        }
      ],
      "outputs": [
        {
          "name": "",
          "type": "bool[]",
          "internalType": "bool[]"
        }
      ],
      "stateMutability": "view"
    },
    {
      "type": "function",
      "name": "checkManyJailedById",
      "inputs": [
        {
          "name": "candidateIds",
          "type": "address[]",
          "internalType": "address[]"
        }
      ],
      "outputs": [
        {
          "name": "",
          "type": "bool[]",
          "internalType": "bool[]"
        }
      ],
      "stateMutability": "view"
    },
    {
      "type": "function",
      "name": "checkMiningRewardDeprecated",
      "inputs": [
        {
          "name": "consensus",
          "type": "address",
          "internalType": "TConsensus"
        }
      ],
      "outputs": [
        {
          "name": "",
          "type": "bool",
          "internalType": "bool"
        }
      ],
      "stateMutability": "view"
    },
    {
      "type": "function",
      "name": "checkMiningRewardDeprecatedAtPeriod",
      "inputs": [
        {
          "name": "consensus",
          "type": "address",
          "internalType": "TConsensus"
        },
        {
          "name": "period",
          "type": "uint256",
          "internalType": "uint256"
        }
      ],
      "outputs": [
        {
          "name": "",
          "type": "bool",
          "internalType": "bool"
        }
      ],
      "stateMutability": "view"
    },
    {
      "type": "function",
      "name": "currentPeriod",
      "inputs": [],
      "outputs": [
        {
          "name": "",
          "type": "uint256",
          "internalType": "uint256"
        }
      ],
      "stateMutability": "view"
    },
    {
      "type": "function",
      "name": "currentPeriodStartAtBlock",
      "inputs": [],
      "outputs": [
        {
          "name": "",
          "type": "uint256",
          "internalType": "uint256"
        }
      ],
      "stateMutability": "view"
    },
    {
      "type": "function",
      "name": "emergencyExitLockedAmount",
      "inputs": [],
      "outputs": [
        {
          "name": "",
          "type": "uint256",
          "internalType": "uint256"
        }
      ],
      "stateMutability": "view"
    },
    {
      "type": "function",
      "name": "emergencyExpiryDuration",
      "inputs": [],
      "outputs": [
        {
          "name": "",
          "type": "uint256",
          "internalType": "uint256"
        }
      ],
      "stateMutability": "view"
    },
    {
      "type": "function",
      "name": "epochEndingAt",
      "inputs": [
        {
          "name": "_block",
          "type": "uint256",
          "internalType": "uint256"
        }
      ],
      "outputs": [
        {
          "name": "",
          "type": "bool",
          "internalType": "bool"
        }
      ],
      "stateMutability": "view"
    },
    {
      "type": "function",
      "name": "epochOf",
      "inputs": [
        {
          "name": "_block",
          "type": "uint256",
          "internalType": "uint256"
        }
      ],
      "outputs": [
        {
          "name": "",
          "type": "uint256",
          "internalType": "uint256"
        }
      ],
      "stateMutability": "view"
    },
    {
      "type": "function",
      "name": "execApplyValidatorCandidate",
      "inputs": [
        {
          "name": "candidateAdmin",
          "type": "address",
          "internalType": "address"
        },
        {
          "name": "cid",
          "type": "address",
          "internalType": "address"
        },
        {
          "name": "treasuryAddr",
          "type": "address",
          "internalType": "address payable"
        },
        {
          "name": "commissionRate",
          "type": "uint256",
          "internalType": "uint256"
        }
      ],
      "outputs": [],
      "stateMutability": "nonpayable"
    },
    {
      "type": "function",
      "name": "execBailOut",
      "inputs": [
        {
          "name": "validatorId",
          "type": "address",
          "internalType": "address"
        },
        {
          "name": "period",
          "type": "uint256",
          "internalType": "uint256"
        }
      ],
      "outputs": [],
      "stateMutability": "nonpayable"
    },
    {
      "type": "function",
      "name": "execChangeAdminAddress",
      "inputs": [
        {
          "name": "cid",
          "type": "address",
          "internalType": "address"
        },
        {
          "name": "newAdmin",
          "type": "address",
          "internalType": "address"
        }
      ],
      "outputs": [],
      "stateMutability": "nonpayable"
    },
    {
      "type": "function",
      "name": "execChangeConsensusAddress",
      "inputs": [
        {
          "name": "cid",
          "type": "address",
          "internalType": "address"
        },
        {
          "name": "newConsensusAddr",
          "type": "address",
          "internalType": "TConsensus"
        }
      ],
      "outputs": [],
      "stateMutability": "nonpayable"
    },
    {
      "type": "function",
      "name": "execChangeTreasuryAddress",
      "inputs": [
        {
          "name": "cid",
          "type": "address",
          "internalType": "address"
        },
        {
          "name": "newTreasury",
          "type": "address",
          "internalType": "address payable"
        }
      ],
      "outputs": [],
      "stateMutability": "nonpayable"
    },
    {
      "type": "function",
      "name": "execReleaseLockedFundForEmergencyExitRequest",
      "inputs": [
        {
          "name": "cid",
          "type": "address",
          "internalType": "address"
        },
        {
          "name": "recipient",
          "type": "address",
          "internalType": "address payable"
        }
      ],
      "outputs": [],
      "stateMutability": "nonpayable"
    },
    {
      "type": "function",
      "name": "execRequestEmergencyExit",
      "inputs": [
        {
          "name": "cid",
          "type": "address",
          "internalType": "address"
        },
        {
          "name": "secLeftToRevoke",
          "type": "uint256",
          "internalType": "uint256"
        }
      ],
      "outputs": [],
      "stateMutability": "nonpayable"
    },
    {
      "type": "function",
      "name": "execRequestRenounceCandidate",
      "inputs": [
        {
          "name": "cid",
          "type": "address",
          "internalType": "address"
        },
        {
          "name": "secsLeft",
          "type": "uint256",
          "internalType": "uint256"
        }
      ],
      "outputs": [],
      "stateMutability": "nonpayable"
    },
    {
      "type": "function",
      "name": "execRequestUpdateCommissionRate",
      "inputs": [
        {
          "name": "cid",
          "type": "address",
          "internalType": "address"
        },
        {
          "name": "effectiveDaysOnwards",
          "type": "uint256",
          "internalType": "uint256"
        },
        {
          "name": "commissionRate",
          "type": "uint256",
          "internalType": "uint256"
        }
      ],
      "outputs": [],
      "stateMutability": "nonpayable"
    },
    {
      "type": "function",
      "name": "execSlash",
      "inputs": [
        {
          "name": "validatorId",
          "type": "address",
          "internalType": "address"
        },
        {
          "name": "newJailedUntil",
          "type": "uint256",
          "internalType": "uint256"
        },
        {
          "name": "slashAmount",
          "type": "uint256",
          "internalType": "uint256"
        },
        {
          "name": "cannotBailout",
          "type": "bool",
          "internalType": "bool"
        }
      ],
      "outputs": [],
      "stateMutability": "nonpayable"
    },
    {
      "type": "function",
      "name": "getBlockProducerIds",
      "inputs": [],
      "outputs": [
        {
          "name": "cids",
          "type": "address[]",
          "internalType": "address[]"
        }
      ],
      "stateMutability": "view"
    },
    {
      "type": "function",
      "name": "getBlockProducers",
      "inputs": [],
      "outputs": [
        {
          "name": "consensusList",
          "type": "address[]",
          "internalType": "TConsensus[]"
        }
      ],
      "stateMutability": "view"
    },
    {
      "type": "function",
      "name": "getCandidateInfo",
      "inputs": [
        {
          "name": "consensus",
          "type": "address",
          "internalType": "TConsensus"
        }
      ],
      "outputs": [
        {
          "name": "",
          "type": "tuple",
          "internalType": "struct ICandidateManager.ValidatorCandidate",
          "components": [
            {
              "name": "__shadowedAdmin",
              "type": "address",
              "internalType": "address"
            },
            {
              "name": "__shadowedConsensus",
              "type": "address",
              "internalType": "TConsensus"
            },
            {
              "name": "__shadowedTreasury",
              "type": "address",
              "internalType": "address payable"
            },
            {
              "name": "____deprecatedBridgeOperatorAddr",
              "type": "address",
              "internalType": "address"
            },
            {
              "name": "commissionRate",
              "type": "uint256",
              "internalType": "uint256"
            },
            {
              "name": "revokingTimestamp",
              "type": "uint256",
              "internalType": "uint256"
            },
            {
              "name": "topupDeadline",
              "type": "uint256",
              "internalType": "uint256"
            }
          ]
        }
      ],
      "stateMutability": "view"
    },
    {
      "type": "function",
      "name": "getCandidateInfos",
      "inputs": [],
      "outputs": [
        {
          "name": "list",
          "type": "tuple[]",
          "internalType": "struct ICandidateManager.ValidatorCandidate[]",
          "components": [
            {
              "name": "__shadowedAdmin",
              "type": "address",
              "internalType": "address"
            },
            {
              "name": "__shadowedConsensus",
              "type": "address",
              "internalType": "TConsensus"
            },
            {
              "name": "__shadowedTreasury",
              "type": "address",
              "internalType": "address payable"
            },
            {
              "name": "____deprecatedBridgeOperatorAddr",
              "type": "address",
              "internalType": "address"
            },
            {
              "name": "commissionRate",
              "type": "uint256",
              "internalType": "uint256"
            },
            {
              "name": "revokingTimestamp",
              "type": "uint256",
              "internalType": "uint256"
            },
            {
              "name": "topupDeadline",
              "type": "uint256",
              "internalType": "uint256"
            }
          ]
        }
      ],
      "stateMutability": "view"
    },
    {
      "type": "function",
      "name": "getCommissionChangeSchedule",
      "inputs": [
        {
          "name": "consensus",
          "type": "address",
          "internalType": "TConsensus"
        }
      ],
      "outputs": [
        {
          "name": "",
          "type": "tuple",
          "internalType": "struct ICandidateManager.CommissionSchedule",
          "components": [
            {
              "name": "effectiveTimestamp",
              "type": "uint256",
              "internalType": "uint256"
            },
            {
              "name": "commissionRate",
              "type": "uint256",
              "internalType": "uint256"
            }
          ]
        }
      ],
      "stateMutability": "view"
    },
    {
      "type": "function",
      "name": "getContract",
      "inputs": [
        {
          "name": "contractType",
          "type": "uint8",
          "internalType": "enum ContractType"
        }
      ],
      "outputs": [
        {
          "name": "contract_",
          "type": "address",
          "internalType": "address"
        }
      ],
      "stateMutability": "view"
    },
    {
      "type": "function",
      "name": "getEmergencyExitInfo",
      "inputs": [
        {
          "name": "consensus",
          "type": "address",
          "internalType": "TConsensus"
        }
      ],
      "outputs": [
        {
          "name": "_info",
          "type": "tuple",
          "internalType": "struct ICommonInfo.EmergencyExitInfo",
          "components": [
            {
              "name": "lockedAmount",
              "type": "uint256",
              "internalType": "uint256"
            },
            {
              "name": "recyclingAt",
              "type": "uint256",
              "internalType": "uint256"
            }
          ]
        }
      ],
      "stateMutability": "view"
    },
    {
      "type": "function",
      "name": "getJailedTimeLeft",
      "inputs": [
        {
          "name": "consensus",
          "type": "address",
          "internalType": "TConsensus"
        }
      ],
      "outputs": [
        {
          "name": "isJailed_",
          "type": "bool",
          "internalType": "bool"
        },
        {
          "name": "blockLeft_",
          "type": "uint256",
          "internalType": "uint256"
        },
        {
          "name": "epochLeft_",
          "type": "uint256",
          "internalType": "uint256"
        }
      ],
      "stateMutability": "view"
    },
    {
      "type": "function",
      "name": "getJailedTimeLeftAtBlock",
      "inputs": [
        {
          "name": "consensus",
          "type": "address",
          "internalType": "TConsensus"
        },
        {
          "name": "_blockNum",
          "type": "uint256",
          "internalType": "uint256"
        }
      ],
      "outputs": [
        {
          "name": "isJailed_",
          "type": "bool",
          "internalType": "bool"
        },
        {
          "name": "blockLeft_",
          "type": "uint256",
          "internalType": "uint256"
        },
        {
          "name": "epochLeft_",
          "type": "uint256",
          "internalType": "uint256"
        }
      ],
      "stateMutability": "view"
    },
    {
      "type": "function",
      "name": "getLastUpdatedBlock",
      "inputs": [],
      "outputs": [
        {
          "name": "",
          "type": "uint256",
          "internalType": "uint256"
        }
      ],
      "stateMutability": "view"
    },
    {
      "type": "function",
      "name": "getValidatorCandidateIds",
      "inputs": [],
      "outputs": [
        {
          "name": "",
          "type": "address[]",
          "internalType": "address[]"
        }
      ],
      "stateMutability": "view"
    },
    {
      "type": "function",
      "name": "getValidatorCandidates",
      "inputs": [],
      "outputs": [
        {
          "name": "",
          "type": "address[]",
          "internalType": "TConsensus[]"
        }
      ],
      "stateMutability": "view"
    },
    {
      "type": "function",
      "name": "getValidatorIds",
      "inputs": [],
      "outputs": [
        {
          "name": "cids",
          "type": "address[]",
          "internalType": "address[]"
        }
      ],
      "stateMutability": "view"
    },
    {
      "type": "function",
      "name": "getValidators",
      "inputs": [],
      "outputs": [
        {
          "name": "consensusList",
          "type": "address[]",
          "internalType": "TConsensus[]"
        }
      ],
      "stateMutability": "view"
    },
    {
      "type": "function",
      "name": "initialize",
      "inputs": [
        {
          "name": "__slashIndicatorContract",
          "type": "address",
          "internalType": "address"
        },
        {
          "name": "__stakingContract",
          "type": "address",
          "internalType": "address"
        },
        {
          "name": "__stakingVestingContract",
          "type": "address",
          "internalType": "address"
        },
        {
          "name": "__maintenanceContract",
          "type": "address",
          "internalType": "address"
        },
        {
          "name": "__roninTrustedOrganizationContract",
          "type": "address",
          "internalType": "address"
        },
        {
          "name": "",
          "type": "address",
          "internalType": "address"
        },
        {
          "name": "__maxValidatorNumber",
          "type": "uint256",
          "internalType": "uint256"
        },
        {
          "name": "__maxValidatorCandidate",
          "type": "uint256",
          "internalType": "uint256"
        },
        {
          "name": "__maxPrioritizedValidatorNumber",
          "type": "uint256",
          "internalType": "uint256"
        },
        {
          "name": "__minEffectiveDaysOnwards",
          "type": "uint256",
          "internalType": "uint256"
        },
        {
          "name": "__numberOfBlocksInEpoch",
          "type": "uint256",
          "internalType": "uint256"
        },
        {
          "name": "__emergencyExitConfigs",
          "type": "uint256[2]",
          "internalType": "uint256[2]"
        }
      ],
      "outputs": [],
      "stateMutability": "nonpayable"
    },
    {
      "type": "function",
      "name": "initializeV2",
      "inputs": [],
      "outputs": [],
      "stateMutability": "nonpayable"
    },
    {
      "type": "function",
      "name": "initializeV3",
      "inputs": [
        {
          "name": "fastFinalityTrackingContract",
          "type": "address",
          "internalType": "address"
        }
      ],
      "outputs": [],
      "stateMutability": "nonpayable"
    },
    {
      "type": "function",
      "name": "initializeV4",
      "inputs": [
        {
          "name": "profileContract",
          "type": "address",
          "internalType": "address"
        }
      ],
      "outputs": [],
      "stateMutability": "nonpayable"
    },
    {
      "type": "function",
      "name": "isBlockProducer",
      "inputs": [
        {
          "name": "consensusAddr",
          "type": "address",
          "internalType": "TConsensus"
        }
      ],
      "outputs": [
        {
          "name": "",
          "type": "bool",
          "internalType": "bool"
        }
      ],
      "stateMutability": "view"
    },
    {
      "type": "function",
      "name": "isCandidateAdmin",
      "inputs": [
        {
          "name": "consensusAddr",
          "type": "address",
          "internalType": "TConsensus"
        },
        {
          "name": "admin",
          "type": "address",
          "internalType": "address"
        }
      ],
      "outputs": [
        {
          "name": "",
          "type": "bool",
          "internalType": "bool"
        }
      ],
      "stateMutability": "view"
    },
    {
      "type": "function",
      "name": "isPeriodEnding",
      "inputs": [],
      "outputs": [
        {
          "name": "",
          "type": "bool",
          "internalType": "bool"
        }
      ],
      "stateMutability": "view"
    },
    {
      "type": "function",
      "name": "isValidatorCandidate",
      "inputs": [
        {
          "name": "consensus",
          "type": "address",
          "internalType": "TConsensus"
        }
      ],
      "outputs": [
        {
          "name": "",
          "type": "bool",
          "internalType": "bool"
        }
      ],
      "stateMutability": "view"
    },
    {
      "type": "function",
      "name": "maxPrioritizedValidatorNumber",
      "inputs": [],
      "outputs": [
        {
          "name": "_maximumPrioritizedValidatorNumber",
          "type": "uint256",
          "internalType": "uint256"
        }
      ],
      "stateMutability": "view"
    },
    {
      "type": "function",
      "name": "maxValidatorCandidate",
      "inputs": [],
      "outputs": [
        {
          "name": "",
          "type": "uint256",
          "internalType": "uint256"
        }
      ],
      "stateMutability": "view"
    },
    {
      "type": "function",
      "name": "maxValidatorNumber",
      "inputs": [],
      "outputs": [
        {
          "name": "_maximumValidatorNumber",
          "type": "uint256",
          "internalType": "uint256"
        }
      ],
      "stateMutability": "view"
    },
    {
      "type": "function",
      "name": "minEffectiveDaysOnward",
      "inputs": [],
      "outputs": [
        {
          "name": "",
          "type": "uint256",
          "internalType": "uint256"
        }
      ],
      "stateMutability": "view"
    },
    {
      "type": "function",
      "name": "numberOfBlocksInEpoch",
      "inputs": [],
      "outputs": [
        {
          "name": "_numberOfBlocks",
          "type": "uint256",
          "internalType": "uint256"
        }
      ],
      "stateMutability": "view"
    },
    {
      "type": "function",
      "name": "precompilePickValidatorSetAddress",
      "inputs": [],
      "outputs": [
        {
          "name": "",
          "type": "address",
          "internalType": "address"
        }
      ],
      "stateMutability": "view"
    },
    {
      "type": "function",
      "name": "precompileSortValidatorsAddress",
      "inputs": [],
      "outputs": [
        {
          "name": "",
          "type": "address",
          "internalType": "address"
        }
      ],
      "stateMutability": "view"
    },
    {
      "type": "function",
      "name": "setContract",
      "inputs": [
        {
          "name": "contractType",
          "type": "uint8",
          "internalType": "enum ContractType"
        },
        {
          "name": "addr",
          "type": "address",
          "internalType": "address"
        }
      ],
      "outputs": [],
      "stateMutability": "nonpayable"
    },
    {
      "type": "function",
      "name": "setEmergencyExitLockedAmount",
      "inputs": [
        {
          "name": "amount",
          "type": "uint256",
          "internalType": "uint256"
        }
      ],
      "outputs": [],
      "stateMutability": "nonpayable"
    },
    {
      "type": "function",
      "name": "setEmergencyExpiryDuration",
      "inputs": [
        {
          "name": "duration",
          "type": "uint256",
          "internalType": "uint256"
        }
      ],
      "outputs": [],
      "stateMutability": "nonpayable"
    },
    {
      "type": "function",
      "name": "setMaxPrioritizedValidatorNumber",
      "inputs": [
        {
          "name": "_number",
          "type": "uint256",
          "internalType": "uint256"
        }
      ],
      "outputs": [],
      "stateMutability": "nonpayable"
    },
    {
      "type": "function",
      "name": "setMaxValidatorCandidate",
      "inputs": [
        {
          "name": "_number",
          "type": "uint256",
          "internalType": "uint256"
        }
      ],
      "outputs": [],
      "stateMutability": "nonpayable"
    },
    {
      "type": "function",
      "name": "setMaxValidatorNumber",
      "inputs": [
        {
          "name": "_max",
          "type": "uint256",
          "internalType": "uint256"
        }
      ],
      "outputs": [],
      "stateMutability": "nonpayable"
    },
    {
      "type": "function",
      "name": "setMinEffectiveDaysOnwards",
      "inputs": [
        {
          "name": "_numOfDays",
          "type": "uint256",
          "internalType": "uint256"
        }
      ],
      "outputs": [],
      "stateMutability": "nonpayable"
    },
    {
      "type": "function",
      "name": "submitBlockReward",
      "inputs": [],
      "outputs": [],
      "stateMutability": "payable"
    },
    {
      "type": "function",
      "name": "totalBlockProducer",
      "inputs": [],
      "outputs": [
        {
          "name": "total",
          "type": "uint256",
          "internalType": "uint256"
        }
      ],
      "stateMutability": "view"
    },
    {
      "type": "function",
      "name": "totalDeprecatedReward",
      "inputs": [],
      "outputs": [
        {
          "name": "",
          "type": "uint256",
          "internalType": "uint256"
        }
      ],
      "stateMutability": "view"
    },
    {
      "type": "function",
      "name": "tryGetPeriodOfEpoch",
      "inputs": [
        {
          "name": "_epoch",
          "type": "uint256",
          "internalType": "uint256"
        }
      ],
      "outputs": [
        {
          "name": "_filled",
          "type": "bool",
          "internalType": "bool"
        },
        {
          "name": "_periodNumber",
          "type": "uint256",
          "internalType": "uint256"
        }
      ],
      "stateMutability": "view"
    },
    {
      "type": "function",
      "name": "validatorCount",
      "inputs": [],
      "outputs": [
        {
          "name": "",
          "type": "uint256",
          "internalType": "uint256"
        }
      ],
      "stateMutability": "view"
    },
    {
      "type": "function",
      "name": "wrapUpEpoch",
      "inputs": [],
      "outputs": [],
      "stateMutability": "payable"
    },
    {
      "type": "event",
      "name": "BlockProducerSetUpdated",
      "inputs": [
        {
          "name": "period",
          "type": "uint256",
          "indexed": true,
          "internalType": "uint256"
        },
        {
          "name": "epoch",
          "type": "uint256",
          "indexed": true,
          "internalType": "uint256"
        },
        {
          "name": "cids",
          "type": "address[]",
          "indexed": false,
          "internalType": "address[]"
        }
      ],
      "anonymous": false
    },
    {
      "type": "event",
      "name": "BlockRewardDeprecated",
      "inputs": [
        {
          "name": "cid",
          "type": "address",
          "indexed": true,
          "internalType": "address"
        },
        {
          "name": "rewardAmount",
          "type": "uint256",
          "indexed": false,
          "internalType": "uint256"
        },
        {
          "name": "deprecatedType",
          "type": "uint8",
          "indexed": false,
          "internalType": "enum ICoinbaseExecution.BlockRewardDeprecatedType"
        }
      ],
      "anonymous": false
    },
    {
      "type": "event",
      "name": "BlockRewardSubmitted",
      "inputs": [
        {
          "name": "cid",
          "type": "address",
          "indexed": true,
          "internalType": "address"
        },
        {
          "name": "submittedAmount",
          "type": "uint256",
          "indexed": false,
          "internalType": "uint256"
        },
        {
          "name": "bonusAmount",
          "type": "uint256",
          "indexed": false,
          "internalType": "uint256"
        }
      ],
      "anonymous": false
    },
    {
      "type": "event",
      "name": "BridgeOperatorRewardDistributed",
      "inputs": [
        {
          "name": "cid",
          "type": "address",
          "indexed": true,
          "internalType": "address"
        },
        {
          "name": "bridgeOperator",
          "type": "address",
          "indexed": true,
          "internalType": "address"
        },
        {
          "name": "recipientAddr",
          "type": "address",
          "indexed": true,
          "internalType": "address"
        },
        {
          "name": "amount",
          "type": "uint256",
          "indexed": false,
          "internalType": "uint256"
        }
      ],
      "anonymous": false
    },
    {
      "type": "event",
      "name": "BridgeOperatorRewardDistributionFailed",
      "inputs": [
        {
          "name": "cid",
          "type": "address",
          "indexed": true,
          "internalType": "address"
        },
        {
          "name": "bridgeOperator",
          "type": "address",
          "indexed": true,
          "internalType": "address"
        },
        {
          "name": "recipient",
          "type": "address",
          "indexed": true,
          "internalType": "address"
        },
        {
          "name": "amount",
          "type": "uint256",
          "indexed": false,
          "internalType": "uint256"
        },
        {
          "name": "contractBalance",
          "type": "uint256",
          "indexed": false,
          "internalType": "uint256"
        }
      ],
      "anonymous": false
    },
    {
      "type": "event",
      "name": "BridgeOperatorSetUpdated",
      "inputs": [
        {
          "name": "period",
          "type": "uint256",
          "indexed": true,
          "internalType": "uint256"
        },
        {
          "name": "epoch",
          "type": "uint256",
          "indexed": true,
          "internalType": "uint256"
        },
        {
          "name": "bridgeOperators",
          "type": "address[]",
          "indexed": false,
          "internalType": "address[]"
        }
      ],
      "anonymous": false
    },
    {
      "type": "event",
      "name": "CandidateGranted",
      "inputs": [
        {
          "name": "cid",
          "type": "address",
          "indexed": true,
          "internalType": "address"
        },
        {
          "name": "treasuryAddr",
          "type": "address",
          "indexed": true,
          "internalType": "address"
        },
        {
          "name": "admin",
          "type": "address",
          "indexed": true,
          "internalType": "address"
        }
      ],
      "anonymous": false
    },
    {
      "type": "event",
      "name": "CandidateRevokingTimestampUpdated",
      "inputs": [
        {
          "name": "cid",
          "type": "address",
          "indexed": true,
          "internalType": "address"
        },
        {
          "name": "revokingTimestamp",
          "type": "uint256",
          "indexed": false,
          "internalType": "uint256"
        }
      ],
      "anonymous": false
    },
    {
      "type": "event",
      "name": "CandidateTopupDeadlineUpdated",
      "inputs": [
        {
          "name": "cid",
          "type": "address",
          "indexed": true,
          "internalType": "address"
        },
        {
          "name": "topupDeadline",
          "type": "uint256",
          "indexed": false,
          "internalType": "uint256"
        }
      ],
      "anonymous": false
    },
    {
      "type": "event",
      "name": "CandidatesRevoked",
      "inputs": [
        {
          "name": "cids",
          "type": "address[]",
          "indexed": false,
          "internalType": "address[]"
        }
      ],
      "anonymous": false
    },
    {
      "type": "event",
      "name": "CommissionRateUpdateScheduled",
      "inputs": [
        {
          "name": "cid",
          "type": "address",
          "indexed": true,
          "internalType": "address"
        },
        {
          "name": "effectiveTimestamp",
          "type": "uint256",
          "indexed": false,
          "internalType": "uint256"
        },
        {
          "name": "rate",
          "type": "uint256",
          "indexed": false,
          "internalType": "uint256"
        }
      ],
      "anonymous": false
    },
    {
      "type": "event",
      "name": "CommissionRateUpdated",
      "inputs": [
        {
          "name": "cid",
          "type": "address",
          "indexed": true,
          "internalType": "address"
        },
        {
          "name": "rate",
          "type": "uint256",
          "indexed": false,
          "internalType": "uint256"
        }
      ],
      "anonymous": false
    },
    {
      "type": "event",
      "name": "ContractUpdated",
      "inputs": [
        {
          "name": "contractType",
          "type": "uint8",
          "indexed": true,
          "internalType": "enum ContractType"
        },
        {
          "name": "addr",
          "type": "address",
          "indexed": true,
          "internalType": "address"
        }
      ],
      "anonymous": false
    },
    {
      "type": "event",
      "name": "DeprecatedRewardRecycleFailed",
      "inputs": [
        {
          "name": "recipientAddr",
          "type": "address",
          "indexed": true,
          "internalType": "address"
        },
        {
          "name": "amount",
          "type": "uint256",
          "indexed": false,
          "internalType": "uint256"
        },
        {
          "name": "balance",
          "type": "uint256",
          "indexed": false,
          "internalType": "uint256"
        }
      ],
      "anonymous": false
    },
    {
      "type": "event",
      "name": "DeprecatedRewardRecycled",
      "inputs": [
        {
          "name": "recipientAddr",
          "type": "address",
          "indexed": true,
          "internalType": "address"
        },
        {
          "name": "amount",
          "type": "uint256",
          "indexed": false,
          "internalType": "uint256"
        }
      ],
      "anonymous": false
    },
    {
      "type": "event",
      "name": "EmergencyExitLockedAmountUpdated",
      "inputs": [
        {
          "name": "amount",
          "type": "uint256",
          "indexed": false,
          "internalType": "uint256"
        }
      ],
      "anonymous": false
    },
    {
      "type": "event",
      "name": "EmergencyExitLockedFundReleased",
      "inputs": [
        {
          "name": "cid",
          "type": "address",
          "indexed": true,
          "internalType": "address"
        },
        {
          "name": "recipient",
          "type": "address",
          "indexed": true,
          "internalType": "address"
        },
        {
          "name": "unlockedAmount",
          "type": "uint256",
          "indexed": false,
          "internalType": "uint256"
        }
      ],
      "anonymous": false
    },
    {
      "type": "event",
      "name": "EmergencyExitLockedFundReleasingFailed",
      "inputs": [
        {
          "name": "cid",
          "type": "address",
          "indexed": true,
          "internalType": "address"
        },
        {
          "name": "recipient",
          "type": "address",
          "indexed": true,
          "internalType": "address"
        },
        {
          "name": "unlockedAmount",
          "type": "uint256",
          "indexed": false,
          "internalType": "uint256"
        },
        {
          "name": "contractBalance",
          "type": "uint256",
          "indexed": false,
          "internalType": "uint256"
        }
      ],
      "anonymous": false
    },
    {
      "type": "event",
      "name": "EmergencyExitRequested",
      "inputs": [
        {
          "name": "cid",
          "type": "address",
          "indexed": true,
          "internalType": "address"
        },
        {
          "name": "lockedAmount",
          "type": "uint256",
          "indexed": false,
          "internalType": "uint256"
        }
      ],
      "anonymous": false
    },
    {
      "type": "event",
      "name": "EmergencyExpiryDurationUpdated",
      "inputs": [
        {
          "name": "amount",
          "type": "uint256",
          "indexed": false,
          "internalType": "uint256"
        }
      ],
      "anonymous": false
    },
    {
      "type": "event",
      "name": "FastFinalityRewardDistributed",
      "inputs": [
        {
          "name": "cid",
          "type": "address",
          "indexed": true,
          "internalType": "address"
        },
        {
          "name": "recipient",
          "type": "address",
          "indexed": true,
          "internalType": "address"
        },
        {
          "name": "amount",
          "type": "uint256",
          "indexed": false,
          "internalType": "uint256"
        }
      ],
      "anonymous": false
    },
    {
      "type": "event",
      "name": "FastFinalityRewardDistributionFailed",
      "inputs": [
        {
          "name": "cid",
          "type": "address",
          "indexed": true,
          "internalType": "address"
        },
        {
          "name": "recipient",
          "type": "address",
          "indexed": true,
          "internalType": "address"
        },
        {
          "name": "amount",
          "type": "uint256",
          "indexed": false,
          "internalType": "uint256"
        },
        {
          "name": "contractBalance",
          "type": "uint256",
          "indexed": false,
          "internalType": "uint256"
        }
      ],
      "anonymous": false
    },
    {
      "type": "event",
      "name": "Initialized",
      "inputs": [
        {
          "name": "version",
          "type": "uint8",
          "indexed": false,
          "internalType": "uint8"
        }
      ],
      "anonymous": false
    },
    {
      "type": "event",
      "name": "MaxPrioritizedValidatorNumberUpdated",
      "inputs": [
        {
          "name": "",
          "type": "uint256",
          "indexed": false,
          "internalType": "uint256"
        }
      ],
      "anonymous": false
    },
    {
      "type": "event",
      "name": "MaxValidatorCandidateUpdated",
      "inputs": [
        {
          "name": "threshold",
          "type": "uint256",
          "indexed": false,
          "internalType": "uint256"
        }
      ],
      "anonymous": false
    },
    {
      "type": "event",
      "name": "MaxValidatorNumberUpdated",
      "inputs": [
        {
          "name": "",
          "type": "uint256",
          "indexed": false,
          "internalType": "uint256"
        }
      ],
      "anonymous": false
    },
    {
      "type": "event",
      "name": "MinEffectiveDaysOnwardsUpdated",
      "inputs": [
        {
          "name": "numOfDays",
          "type": "uint256",
          "indexed": false,
          "internalType": "uint256"
        }
      ],
      "anonymous": false
    },
    {
      "type": "event",
      "name": "MiningRewardDistributed",
      "inputs": [
        {
          "name": "cid",
          "type": "address",
          "indexed": true,
          "internalType": "address"
        },
        {
          "name": "recipient",
          "type": "address",
          "indexed": true,
          "internalType": "address"
        },
        {
          "name": "amount",
          "type": "uint256",
          "indexed": false,
          "internalType": "uint256"
        }
      ],
      "anonymous": false
    },
    {
      "type": "event",
      "name": "MiningRewardDistributionFailed",
      "inputs": [
        {
          "name": "cid",
          "type": "address",
          "indexed": true,
          "internalType": "address"
        },
        {
          "name": "recipient",
          "type": "address",
          "indexed": true,
          "internalType": "address"
        },
        {
          "name": "amount",
          "type": "uint256",
          "indexed": false,
          "internalType": "uint256"
        },
        {
          "name": "contractBalance",
          "type": "uint256",
          "indexed": false,
          "internalType": "uint256"
        }
      ],
      "anonymous": false
    },
    {
      "type": "event",
      "name": "StakingRewardDistributed",
      "inputs": [
        {
          "name": "totalAmount",
          "type": "uint256",
          "indexed": false,
          "internalType": "uint256"
        },
        {
          "name": "cids",
          "type": "address[]",
          "indexed": false,
          "internalType": "address[]"
        },
        {
          "name": "amounts",
          "type": "uint256[]",
          "indexed": false,
          "internalType": "uint256[]"
        }
      ],
      "anonymous": false
    },
    {
      "type": "event",
      "name": "StakingRewardDistributionFailed",
      "inputs": [
        {
          "name": "totalAmount",
          "type": "uint256",
          "indexed": false,
          "internalType": "uint256"
        },
        {
          "name": "cids",
          "type": "address[]",
          "indexed": false,
          "internalType": "address[]"
        },
        {
          "name": "amounts",
          "type": "uint256[]",
          "indexed": false,
          "internalType": "uint256[]"
        },
        {
          "name": "contractBalance",
          "type": "uint256",
          "indexed": false,
          "internalType": "uint256"
        }
      ],
      "anonymous": false
    },
    {
      "type": "event",
      "name": "ValidatorPunished",
      "inputs": [
        {
          "name": "cid",
          "type": "address",
          "indexed": true,
          "internalType": "address"
        },
        {
          "name": "period",
          "type": "uint256",
          "indexed": true,
          "internalType": "uint256"
        },
        {
          "name": "jailedUntil",
          "type": "uint256",
          "indexed": false,
          "internalType": "uint256"
        },
        {
          "name": "deductedStakingAmount",
          "type": "uint256",
          "indexed": false,
          "internalType": "uint256"
        },
        {
          "name": "blockProducerRewardDeprecated",
          "type": "bool",
          "indexed": false,
          "internalType": "bool"
        },
        {
          "name": "bridgeOperatorRewardDeprecated",
          "type": "bool",
          "indexed": false,
          "internalType": "bool"
        }
      ],
      "anonymous": false
    },
    {
      "type": "event",
      "name": "ValidatorSetUpdated",
      "inputs": [
        {
          "name": "period",
          "type": "uint256",
          "indexed": true,
          "internalType": "uint256"
        },
        {
          "name": "cids",
          "type": "address[]",
          "indexed": false,
          "internalType": "address[]"
        }
      ],
      "anonymous": false
    },
    {
      "type": "event",
      "name": "ValidatorUnjailed",
      "inputs": [
        {
          "name": "cid",
          "type": "address",
          "indexed": true,
          "internalType": "address"
        },
        {
          "name": "period",
          "type": "uint256",
          "indexed": false,
          "internalType": "uint256"
        }
      ],
      "anonymous": false
    },
    {
      "type": "event",
      "name": "WrappedUpEpoch",
      "inputs": [
        {
          "name": "periodNumber",
          "type": "uint256",
          "indexed": true,
          "internalType": "uint256"
        },
        {
          "name": "epochNumber",
          "type": "uint256",
          "indexed": true,
          "internalType": "uint256"
        },
        {
          "name": "periodEnding",
          "type": "bool",
          "indexed": false,
          "internalType": "bool"
        }
      ],
      "anonymous": false
    },
    {
      "type": "error",
      "name": "ErrAlreadyRequestedEmergencyExit",
      "inputs": []
    },
    {
      "type": "error",
      "name": "ErrAlreadyRequestedRevokingCandidate",
      "inputs": []
    },
    {
      "type": "error",
      "name": "ErrAlreadyRequestedUpdatingCommissionRate",
      "inputs": []
    },
    {
      "type": "error",
      "name": "ErrAlreadyWrappedEpoch",
      "inputs": []
    },
    {
      "type": "error",
      "name": "ErrAtEndOfEpochOnly",
      "inputs": []
    },
    {
      "type": "error",
      "name": "ErrCallPrecompiled",
      "inputs": []
    },
    {
      "type": "error",
      "name": "ErrCallerMustBeCoinbase",
      "inputs": []
    },
    {
      "type": "error",
      "name": "ErrCannotBailout",
      "inputs": [
        {
          "name": "validator",
          "type": "address",
          "internalType": "address"
        }
      ]
    },
    {
      "type": "error",
      "name": "ErrContractTypeNotFound",
      "inputs": [
        {
          "name": "contractType",
          "type": "uint8",
          "internalType": "enum ContractType"
        }
      ]
    },
    {
      "type": "error",
      "name": "ErrExceedsMaxNumberOfCandidate",
      "inputs": []
    },
    {
      "type": "error",
      "name": "ErrExistentCandidate",
      "inputs": []
    },
    {
      "type": "error",
      "name": "ErrExistentCandidateAdmin",
      "inputs": [
        {
          "name": "candidateAdminAddr",
          "type": "address",
          "internalType": "address"
        }
      ]
    },
    {
      "type": "error",
      "name": "ErrExistentTreasury",
      "inputs": [
        {
          "name": "treasuryAddr",
          "type": "address",
          "internalType": "address"
        }
      ]
    },
    {
      "type": "error",
      "name": "ErrInsufficientBalance",
      "inputs": [
        {
          "name": "msgSig",
          "type": "bytes4",
          "internalType": "bytes4"
        },
        {
          "name": "currentBalance",
          "type": "uint256",
          "internalType": "uint256"
        },
        {
          "name": "sendAmount",
          "type": "uint256",
          "internalType": "uint256"
        }
      ]
    },
    {
      "type": "error",
      "name": "ErrInvalidCommissionRate",
      "inputs": []
    },
    {
      "type": "error",
      "name": "ErrInvalidEffectiveDaysOnwards",
      "inputs": []
    },
    {
      "type": "error",
      "name": "ErrInvalidMaxPrioritizedValidatorNumber",
      "inputs": []
    },
    {
      "type": "error",
      "name": "ErrInvalidMinEffectiveDaysOnwards",
      "inputs": []
    },
    {
      "type": "error",
      "name": "ErrLockedFundMightBeRecycled",
      "inputs": [
        {
          "name": "cid",
          "type": "address",
          "internalType": "address"
        }
      ]
    },
    {
      "type": "error",
      "name": "ErrLockedFundReleaseInfoNotFound",
      "inputs": [
        {
          "name": "cid",
          "type": "address",
          "internalType": "address"
        }
      ]
    },
    {
      "type": "error",
      "name": "ErrNonExistentCandidate",
      "inputs": []
    },
    {
      "type": "error",
      "name": "ErrRecipientRevert",
      "inputs": [
        {
          "name": "msgSig",
          "type": "bytes4",
          "internalType": "bytes4"
        }
      ]
    },
    {
      "type": "error",
      "name": "ErrTrustedOrgCannotRenounce",
      "inputs": []
    },
    {
      "type": "error",
      "name": "ErrUnauthorized",
      "inputs": [
        {
          "name": "msgSig",
          "type": "bytes4",
          "internalType": "bytes4"
        },
        {
          "name": "expectedRole",
          "type": "uint8",
          "internalType": "enum RoleAccess"
        }
      ]
    },
    {
      "type": "error",
      "name": "ErrUnauthorizedReceiveRON",
      "inputs": []
    },
    {
      "type": "error",
      "name": "ErrUnexpectedInternalCall",
      "inputs": [
        {
          "name": "msgSig",
          "type": "bytes4",
          "internalType": "bytes4"
        },
        {
          "name": "expectedContractType",
          "type": "uint8",
          "internalType": "enum ContractType"
        },
        {
          "name": "actual",
          "type": "address",
          "internalType": "address"
        }
      ]
    },
    {
      "type": "error",
      "name": "ErrZeroCodeContract",
      "inputs": [
        {
          "name": "addr",
          "type": "address",
          "internalType": "address"
        }
      ]
    },
    {
      "type": "error",
      "name": "NonExistentRecyclingInfo",
      "inputs": []
    }
  ],
  "address": "0x99DA0Fb31C830eBb0bDe0EfCEf428A02D72994Be",
  "args": "0x",
  "blockNumber": 24102399,
  "bytecode": "0x60806040523480156200001157600080fd5b506200001c62000022565b620000e4565b600054610100900460ff16156200008f5760405162461bcd60e51b815260206004820152602760248201527f496e697469616c697a61626c653a20636f6e747261637420697320696e697469604482015266616c697a696e6760c81b606482015260840160405180910390fd5b60005460ff9081161015620000e2576000805460ff191660ff9081179091556040519081527f7f26b83ff96e1f2b6a682f133852f6798a09c465da95921460cefb38474024989060200160405180910390a15b565b615b3280620000f46000396000f3fe6080604052600436106103fd5760003560e01c80636611f8431161020d578063afc69d7311610128578063d93fa306116100bb578063ea80d67d1161008a578063edb194bb1161006f578063edb194bb14610b6b578063eeb629a814610b8b578063f883afaf14610ba05761040c565b8063ea80d67d14610b2b578063ecd850cc14610b4b5761040c565b8063d93fa30614610aab578063dd716ad314610acb578063de981f1b14610aeb578063e5125a1d14610b0b5761040c565b8063c4e227f3116100f7578063c4e227f314610a41578063c94aaa0214610a56578063cdaa4e8114610a76578063d09f1ab414610a965761040c565b8063afc69d73146109e2578063b7ab4db5146109f7578063ba77b06c14610a0c578063c3c8b5d614610a215761040c565b8063873a5a70116101a05780639a57bd931161016f5780639a57bd9314610978578063a0c3f2d21461098d578063a3d545f5146109ad578063a66c0f77146109cd5761040c565b8063873a5a701461090f57806387c891bd1461092f5780638d559c381461094457806396585fc2146109585761040c565b80637593ff71116101dc5780637593ff711461088f5780637e1dc16f146108af578063823a7b9c146108cf578063865e6fd3146108ef5761040c565b80636611f8431461083d578063690b75361461085d5780636aa1c2ef1461087257806372e46810146108875761040c565b806331a8aef5116103185780634ee4d72b116102ab5780635cd8a76b1161027a578063612c8d981161025f578063612c8d98146107f157806365244ece146108065780636558954f146108265761040c565b80635cd8a76b146107c7578063605239a1146107dc5761040c565b80634ee4d72b146107685780634f2a693f1461077d57806352091f171461079d5780635248184a146107a55761040c565b806349096d26116102e757806349096d26146106d75780634d8df063146106f95780634de2b735146107195780634e9b8b0a146107465761040c565b806331a8aef514610638578063367ec12b146106585780633b3159b614610678578063468c96ae146106a05761040c565b8063217f35c211610390578063297a8fca1161035f578063297a8fca146105b65780632d784a98146105cb5780632f78204c146105f85780633101cfcb146106185761040c565b8063217f35c21461053457806323c65eb01461054957806328bde1e1146105695780632924de71146105965761040c565b8063110a8308116103cc578063110a83081461049757806311662dc2146104b75780631196ab66146104f457806315b5ebde146105145761040c565b8063038278841461041457806304d971ab1461043d578063060406181461046d5780630f43a677146104825761040c565b3661040c5761040a610bc0565b005b61040a610bc0565b34801561042057600080fd5b5061042a6104b081565b6040519081526020015b60405180910390f35b34801561044957600080fd5b5061045d610458366004614f01565b610c3f565b6040519015158152602001610434565b34801561047957600080fd5b5061042a610c79565b34801561048e57600080fd5b5060aa5461042a565b3480156104a357600080fd5b5061040a6104b2366004614f3a565b610c89565b3480156104c357600080fd5b506104d76104d2366004614f57565b610d77565b604080519315158452602084019290925290820152606001610434565b34801561050057600080fd5b5061040a61050f366004614f83565b610d9c565b34801561052057600080fd5b5061040a61052f366004614f57565b610db0565b34801561054057600080fd5b5061045d610eca565b34801561055557600080fd5b5061045d610564366004614f57565b610edf565b34801561057557600080fd5b50610589610584366004614f3a565b610f13565b6040516104349190614f9c565b3480156105a257600080fd5b5061045d6105b1366004614f3a565b61100c565b3480156105c257600080fd5b5060045461042a565b3480156105d757600080fd5b506105eb6105e6366004614f3a565b61103f565b6040516104349190614ffa565b34801561060457600080fd5b5061040a61061336600461501f565b6110d3565b34801561062457600080fd5b5061040a610633366004614f3a565b6112f3565b34801561064457600080fd5b5061045d610653366004614f57565b611397565b34801561066457600080fd5b5061040a61067336600461507a565b6113ce565b34801561068457600080fd5b5060685b6040516001600160a01b039091168152602001610434565b3480156106ac57600080fd5b506106c06106bb366004614f83565b61155a565b604080519215158352602083019190915201610434565b3480156106e357600080fd5b506106ec611598565b6040516104349190615140565b34801561070557600080fd5b5061040a610714366004614f83565b6115aa565b34801561072557600080fd5b506107396107343660046151d9565b6115bb565b604051610434919061521b565b34801561075257600080fd5b5061075b611601565b604051610434919061529a565b34801561077457600080fd5b5060e45461042a565b34801561078957600080fd5b5061040a610798366004614f83565b6116cb565b61040a6116dc565b3480156107b157600080fd5b506107ba611b4c565b60405161043491906152ad565b3480156107d357600080fd5b5061040a611ca0565b3480156107e857600080fd5b5060725461042a565b3480156107fd57600080fd5b5060765461042a565b34801561081257600080fd5b5061045d610821366004614f3a565b611e32565b34801561083257600080fd5b5061042a6201518081565b34801561084957600080fd5b5061040a610858366004614f83565b611e45565b34801561086957600080fd5b5060e55461042a565b34801561087e57600080fd5b5060015461042a565b61040a611e56565b34801561089b57600080fd5b5061045d6108aa366004614f83565b612108565b3480156108bb57600080fd5b506107396108ca3660046151d9565b61212c565b3480156108db57600080fd5b5061040a6108ea366004614f83565b61216a565b3480156108fb57600080fd5b5061040a61090a36600461534e565b61217b565b34801561091b57600080fd5b5061045d61092a366004614f3a565b61219a565b34801561093b57600080fd5b5060025461042a565b34801561095057600080fd5b506066610688565b34801561096457600080fd5b506104d7610973366004614f3a565b6121dc565b34801561098457600080fd5b5061075b612200565b34801561099957600080fd5b5061045d6109a8366004614f3a565b6122ad565b3480156109b957600080fd5b5061042a6109c8366004614f83565b6122d8565b3480156109d957600080fd5b5060e65461042a565b3480156109ee57600080fd5b5061042a6122e3565b348015610a0357600080fd5b506106ec612326565b348015610a1857600080fd5b506106ec612333565b348015610a2d57600080fd5b5061040a610a3c366004614f01565b612340565b348015610a4d57600080fd5b5061075b61260c565b348015610a6257600080fd5b5061040a610a71366004614f83565b61266e565b348015610a8257600080fd5b5061040a610a91366004614f57565b61267f565b348015610aa257600080fd5b5060a95461042a565b348015610ab757600080fd5b5061040a610ac6366004614f01565b612920565b348015610ad757600080fd5b5061040a610ae6366004614f57565b61295d565b348015610af757600080fd5b50610688610b0636600461536a565b612a15565b348015610b1757600080fd5b5061040a610b26366004615385565b612aa4565b348015610b3757600080fd5b5061040a610b46366004614f01565b612be8565b348015610b5757600080fd5b5061040a610b66366004614f01565b612c22565b348015610b7757600080fd5b506105eb610b86366004614f3a565b612c5f565b348015610b9757600080fd5b5060ad5461042a565b348015610bac57600080fd5b5061040a610bbb3660046153ba565b612cb9565b610bca6007612a15565b6001600160a01b0316336001600160a01b031614158015610c065750610bf06009612a15565b6001600160a01b0316336001600160a01b031614155b15610c3d576040517fffcb451300000000000000000000000000000000000000000000000000000000815260040160405180910390fd5b565b6000610c70610c4d84612f3d565b6001600160a01b0390811660009081526075602052604090205481169084161490565b90505b92915050565b6000610c8460035490565b905090565b600054600490610100900460ff16158015610cab575060005460ff8083169116105b610d135760405162461bcd60e51b815260206004820152602e60248201527f496e697469616c697a61626c653a20636f6e747261637420697320616c72656160448201526d191e481a5b9a5d1a585b1a5e995960921b60648201526084015b60405180910390fd5b6000805461ffff191660ff831617610100179055610d32600f83612fce565b6000805461ff001916905560405160ff821681527f7f26b83ff96e1f2b6a682f133852f6798a09c465da95921460cefb38474024989060200160405180910390a15050565b6000806000610d8e610d8886612f3d565b85613072565b9250925092505b9250925092565b610da46130f4565b610dad81613168565b50565b6006610dbb816131d8565b6001600160a01b0383166000908152603c60205260409020544311610e17576040517f53e0424d0000000000000000000000000000000000000000000000000000000081526001600160a01b0384166004820152602401610d0a565b6001600160a01b038316600081815260386020908152604080832086845282528083208054600160ff199182168117909255948452603783528184208785529092529091208054909216909155610e6e9043615421565b6001600160a01b0384166000818152603a6020526040908190209290925590517f6bb2436cb6b6eb65d5a52fac2ae0373a77ade6661e523ef3004ee2d5524e6c6e90610ebd9085815260200190565b60405180910390a2505050565b6000610c84610ed84261323d565b6003541090565b600080610eeb84612f3d565b6001600160a01b0381166000908152603a60205260409020549091508311155b949350505050565b6040805160e081018252600080825260208201819052918101829052606081018290526080810182905260a0810182905260c0810182905290610f5583612f3d565b9050610f78816001600160a01b0316600090815260746020526040902054151590565b610f955760405163a64b34ad60e01b815260040160405180910390fd5b6001600160a01b03908116600090815260756020908152604091829020825160e081018452815485168152600182015485169281019290925260028101548416928201929092526003820154909216606083015260048101546080830152600581015460a08301526006015460c082015292915050565b60008061101883612f3d565b6001600160a01b0381166000908152603a60205260409020549091504311155b9392505050565b604080518082019091526000808252602082015260e8600061106084612f3d565b6001600160a01b031681526020808201929092526040908101600090812082518084019093528054835260010154928201839052909250036110ce576040517fe1fba9e200000000000000000000000000000000000000000000000000000000815260040160405180910390fd5b919050565b60066110de816131d8565b60006110e8610c79565b6001600160a01b03871660008181526037602090815260408083208584528252808320805460ff1916600117905592825260e181528282205460e09091529190205491925061113691615434565b60e460008282546111479190615434565b90915550506001600160a01b038616600090815260e06020908152604080832083905560e18252808320839055603a90915290205461118790869061324c565b6001600160a01b0387166000908152603a602052604090205583156112425760006111b26009612a15565b60405163138ac02f60e11b81526001600160a01b038981166004830152602482018890529190911690632715805e906044016020604051808303816000875af1158015611203573d6000803e3d6000fd5b505050506040513d601f19601f820116820180604052508101906112279190615447565b90508060e4600082825461123b9190615434565b9091555050505b8215611286576001600160a01b0386166000908152603c602052604090205461126c90869061324c565b6001600160a01b0387166000908152603c60205260409020555b6001600160a01b0386166000818152603a6020908152604080832054815190815291820188905260019082015260608101919091528291907f54ce99c5ce1fc9f61656d4a0fb2697974d0c973ac32eecaefe06fcf18b8ef68a9060800160405180910390a3505050505050565b600054600390610100900460ff16158015611315575060005460ff8083169116105b6113785760405162461bcd60e51b815260206004820152602e60248201527f496e697469616c697a61626c653a20636f6e747261637420697320616c72656160448201526d191e481a5b9a5d1a585b1a5e995960921b6064820152608401610d0a565b6000805461ffff191660ff831617610100179055610d32600e83612fce565b6000610c706113a584612f3d565b6001600160a01b0316600090815260376020908152604080832086845290915290205460ff1690565b600054610100900460ff16158080156113ee5750600054600160ff909116105b806114085750303b158015611408575060005460ff166001145b61146b5760405162461bcd60e51b815260206004820152602e60248201527f496e697469616c697a61626c653a20636f6e747261637420697320616c72656160448201526d191e481a5b9a5d1a585b1a5e995960921b6064820152608401610d0a565b6000805460ff19166001179055801561148e576000805461ff0019166101001790555b61149960068e612fce565b6114a460098d612fce565b6114af60078c612fce565b6114ba60058b612fce565b6114c5600a8a612fce565b6114ce87613263565b6114d786613298565b6114e0856132cd565b6114e984613168565b6114f3823561333e565b6115006020830135613373565b6001839055801561154b576000805461ff0019169055604051600181527f7f26b83ff96e1f2b6a682f133852f6798a09c465da95921460cefb38474024989060200160405180910390a15b50505050505050505050505050565b600080611566436122d8565b83111580611581575060008381526005602052604090205415155b600093845260056020526040909320549293915050565b6060610c846115a5611601565b6133a8565b6115b26130f4565b610dad81613373565b6060610c706115fc84848080602002602001604051908101604052809392919081815260200183836020028082843760009201919091525061342492505050565b6134a0565b606060aa5467ffffffffffffffff81111561161e5761161e615476565b604051908082528060200260200182016040528015611647578160200160208202803683370190505b5090506000805b82518110156116c557600081815260ab60205260409020546001600160a01b031661167881613546565b156116bc578084846116898161548c565b95508151811061169b5761169b615460565b60200260200101906001600160a01b031690816001600160a01b0316815250505b5060010161164e565b50815290565b6116d36130f4565b610dad81613298565b6116e4613580565b60006116ef33612f3d565b905060006116fc82613546565b801561170e575061170c826135b9565b155b801561174e575061174c82611721610c79565b6001600160a01b03919091166000908152603760209081526040808320938352929052205460ff1690565b155b905060008061175d6007612a15565b6040517f0634f5b90000000000000000000000000000000000000000000000000000000081528415156004820152600060248201526001600160a01b039190911690630634f5b9906044016080604051808303816000875af11580156117c7573d6000803e3d6000fd5b505050506040513d601f19601f820116820180604052508101906117eb91906154a5565b93505092505082611859573460e460008282546118089190615434565b92505081905550836001600160a01b03167f4042bb9a70998f80a86d9963f0d2132e9b11c8ad94d207c6141c8e34b05ce53e34600160405161184b9291906154fa565b60405180910390a250505050565b60408051348152602081018490526001600160a01b038616917f0ede5c3be8625943fa64003cd4b91230089411249f3059bac6500873543ca9b1910160405180910390a260006118a7610c79565b905060006118b58434615434565b905060006127106118c6858461551e565b6118d0919061554b565b905060006118de8284615421565b905060008260e260008282546118f49190615434565b909155505033600090815260386020908152604080832088845290915290205460ff1615611a085760006119286006612a15565b6001600160a01b031663c6391fa26040518163ffffffff1660e01b8152600401608060405180830381865afa158015611965573d6000803e3d6000fd5b505050506040513d601f19601f82011682018060405250810190611989919061555f565b9350505050612710818461199d919061551e565b6119a7919061554b565b91508160e460008282546119bb9190615434565b92505081905550896001600160a01b03167f4042bb9a70998f80a86d9963f0d2132e9b11c8ad94d207c6141c8e34b05ce53e8360026040516119fe9291906154fa565b60405180910390a2505b611a128183615421565b9150600080611a216009612a15565b6001600160a01b0316634530d2026040518163ffffffff1660e01b81526004016040805180830381865afa158015611a5d573d6000803e3d6000fd5b505050506040513d601f19601f82011682018060405250810190611a819190615595565b6001600160a01b038d1660009081526075602052604081206004015492945090925090611ab890611ab290846135da565b8461324c565b90506000612710611ac9878461551e565b611ad3919061554b565b6001600160a01b038e16600090815260e06020526040812080549293508392909190611b00908490615434565b90915550611b1090508187615421565b6001600160a01b038e16600090815260e1602052604081208054909190611b38908490615434565b909155505050505050505050505050505050565b60735460609067ffffffffffffffff811115611b6a57611b6a615476565b604051908082528060200260200182016040528015611bd157816020015b6040805160e08101825260008082526020808301829052928201819052606082018190526080820181905260a0820181905260c08201528252600019909201910181611b885790505b50905060005b8151811015611c9c576075600060738381548110611bf757611bf7615460565b60009182526020808320909101546001600160a01b039081168452838201949094526040928301909120825160e081018452815485168152600182015485169281019290925260028101548416928201929092526003820154909216606083015260048101546080830152600581015460a08301526006015460c08201528251839083908110611c8957611c89615460565b6020908102919091010152600101611bd7565b5090565b600054600290610100900460ff16158015611cc2575060005460ff8083169116105b611d255760405162461bcd60e51b815260206004820152602e60248201527f496e697469616c697a61626c653a20636f6e747261637420697320616c72656160448201526d191e481a5b9a5d1a585b1a5e995960921b6064820152608401610d0a565b6000805461ffff191660ff831617610100179055607154611d51906009906001600160a01b0316612fce565b606f54611d69906005906001600160a01b0316612fce565b607054611d81906006906001600160a01b0316612fce565b606d54611d99906007906001600160a01b0316612fce565b60a854611db190600a906001600160a01b0316612fce565b607180546001600160a01b0319908116909155606f8054821690556070805482169055606d805482169055606e80548216905560a8805490911690556000805461ff001916905560405160ff821681527f7f26b83ff96e1f2b6a682f133852f6798a09c465da95921460cefb3847402498906020015b60405180910390a150565b6000610c73611e4083612f3d565b613546565b611e4d6130f4565b610dad8161333e565b611e5e613580565b611e6743612108565b611e9d576040517f6c74eecf00000000000000000000000000000000000000000000000000000000815260040160405180910390fd5b611ea6436122d8565b611eb16002546122d8565b10611ee8576040517f2458f64100000000000000000000000000000000000000000000000000000000815260040160405180910390fd5b436002556000611ef74261323d565b90506000611f06826003541090565b90506000611f12612200565b905060606000611f21436122d8565b90506000611f30826001615434565b90506000611f3c610c79565b9050611f4883866135e9565b85156120a257600080611f5b8388613758565b91509150611f6b83888484613944565b611f73613a67565b611f7b613bbb565b6000611f876006612a15565b6040517f185368db0000000000000000000000000000000000000000000000000000000081529091506001600160a01b0382169063185368db90611fd1908b9088906004016155b9565b600060405180830381600087803b158015611feb57600080fd5b505af1158015611fff573d6000803e3d6000fd5b5050505061200c8a613d17565b8051919950975015612090576040517f07c2d2f60000000000000000000000000000000000000000000000000000000081526001600160a01b038216906307c2d2f69061205d908a9060040161529a565b600060405180830381600087803b15801561207757600080fd5b505af115801561208b573d6000803e3d6000fd5b505050505b61209b436001615434565b6004555050505b6120ad878387613ea8565b82817f0195462033384fec211477c56217da64a58bd405e0bed331ba4ded67e4ae4ce7886040516120e2911515815260200190565b60405180910390a350600090815260056020526040902085905550505060039190915550565b6000600180546121189190615421565b60015461212590846155db565b1492915050565b6060610c708383808060200260200160405190810160405280939291908181526020018383602002808284376000920191909152506134a092505050565b6121726130f4565b610dad81613263565b6121836130f4565b61218c81614144565b6121968282612fce565b5050565b6000806121a5610c79565b90506110386121b384612f3d565b6001600160a01b0316600090815260376020908152604080832085845290915290205460ff1690565b60008060006121f36121ed85612f3d565b43613072565b9250925092509193909250565b606060aa5467ffffffffffffffff81111561221d5761221d615476565b604051908082528060200260200182016040528015612246578160200160208202803683370190505b5090506000805b82518110156122a857600081815260ab602052604090205483516001600160a01b039091169250829084908390811061228857612288615460565b6001600160a01b039092166020928302919091019091015260010161224d565b505090565b6000610c736122bb83612f3d565b6001600160a01b0316600090815260746020526040902054151590565b6000610c7382614193565b6000805b60aa54811015611c9c57600081815260ab6020526040902054612312906001600160a01b0316613546565b1561231e576001909101905b6001016122e7565b6060610c846115a5612200565b6060610c846115a561260c565b6123486130f4565b6001600160a01b038216600090815260e8602052604081206001015490036123a7576040517fe8e6d2dd0000000000000000000000000000000000000000000000000000000081526001600160a01b0383166004820152602401610d0a565b60e7548060005b828110156123fd57846001600160a01b031660e782815481106123d3576123d3615460565b6000918252602090912001546001600160a01b0316036123f5578091506123fd565b6001016123ae565b50818103612442576040517fb69ea4250000000000000000000000000000000000000000000000000000000081526001600160a01b0385166004820152602401610d0a565b6001600160a01b038416600090815260e860205260409020548015612605576001600160a01b038516600090815260e8602052604081208181556001908101919091558311156125045760e7612499600185615421565b815481106124a9576124a9615460565b60009182526020909120015460e780546001600160a01b0390921691849081106124d5576124d5615460565b9060005260206000200160006101000a8154816001600160a01b0302191690836001600160a01b031602179055505b60e7805480612515576125156155ef565b60008281526020808220830160001990810180546001600160a01b03191690559092019092556001600160a01b038716825260e9905260409020805460ff1916600117905561256784826104b06141ae565b156125c057836001600160a01b0316856001600160a01b03167f7229136a18186c71a86246c012af3bb1df6460ef163934bbdccd6368abdd41e4836040516125b191815260200190565b60405180910390a35050505050565b604080518281524760208201526001600160a01b0380871692908816917f3747d14eb72ad3e35cba9c3e00dab3b8d15b40cac6bdbd08402356e4f69f30a191016125b1565b5050505050565b6060607380548060200260200160405190810160405280929190818152602001828054801561266457602002820191906000526020600020905b81546001600160a01b03168152600190910190602001808311612646575b5050505050905090565b6126766130f4565b610dad816132cd565b600961268a816131d8565b6001600160a01b038316600090815260e8602052604090206001810154156126de576040517f2bd5598800000000000000000000000000000000000000000000000000000000815260040160405180910390fd5b60006126ea8442615434565b6001600160a01b038616600090815260756020526040902090915061270f9082614223565b6001600160a01b0385166000818152603b602052604080822084905560e554905163138ac02f60e11b815260048101939093526024830152903390632715805e906044016020604051808303816000875af1158015612772573d6000803e3d6000fd5b505050506040513d601f19601f820116820180604052508101906127969190615447565b905080156128d557600060e654426127ae9190615434565b60e78054600180820183556000929092527f6cb0db1d7354dfb4a1464318006df0643cafe2002a86a29ff8560f900fef28a10180546001600160a01b0319166001600160a01b038b16179055838655850181905590506128357fb53127684a568b3173ae13b9f8a6016e243e63b6e8ee1178d6a717850b5d6103546001600160a01b031690565b6001600160a01b03888116600081815260756020526040908190206002015490517fa2fae5700000000000000000000000000000000000000000000000000000000081526004810192909252821660248201524260448201526064810184905291169063a2fae57090608401600060405180830381600087803b1580156128bb57600080fd5b505af11580156128cf573d6000803e3d6000fd5b50505050505b856001600160a01b03167f77a1a819870c0f4d04c3ca4cc2881a0393136abc28bd651af50aedade94a27c48260405161291091815260200190565b60405180910390a2505050505050565b600f61292b816131d8565b506001600160a01b03918216600090815260756020526040902060010180546001600160a01b03191691909216179055565b6009612968816131d8565b612971836142bf565b156129a8576040517f030081e700000000000000000000000000000000000000000000000000000000815260040160405180910390fd5b6001600160a01b03831660009081526075602052604090206005810154156129fc576040517ffab9167300000000000000000000000000000000000000000000000000000000815260040160405180910390fd5b612a0f81612a0a8542615434565b614223565b50505050565b60007fdea3103d22025c269050bea94c0c84688877f12fa22b7e6d2d5d78a9a49aa1cb600083600f811115612a4c57612a4c6154e4565b60ff1681526020810191909152604001600020546001600160a01b03169050806110ce57816040517f812281be000000000000000000000000000000000000000000000000000000008152600401610d0a9190615619565b6009612aaf816131d8565b6001600160a01b03841660009081526077602052604090205415612aff576040517f5e65b9ba00000000000000000000000000000000000000000000000000000000815260040160405180910390fd5b612710821115612b2257604051631b8454a360e21b815260040160405180910390fd5b607654831015612b5e576040517ffa0ae69300000000000000000000000000000000000000000000000000000000815260040160405180910390fd5b6001600160a01b0384166000908152607760205260408120906201518085612b86824261554b565b612b909190615434565b612b9a919061551e565b8083556001830185905560408051828152602081018790529192506001600160a01b038816917f6ebafd1bb6316b2f63198a81b05cff2149c6eaae1784466a6d062b4391900f219101612910565b600f612bf3816131d8565b506001600160a01b03918216600090815260756020526040902080546001600160a01b03191691909216179055565b600f612c2d816131d8565b506001600160a01b03918216600090815260756020526040902060020180546001600160a01b03191691909216179055565b604080518082019091526000808252602082015260776000612c8084612f3d565b6001600160a01b031681526020808201929092526040908101600020815180830190925280548252600101549181019190915292915050565b6009612cc4816131d8565b6073546072548110612d02576040517f8616841b00000000000000000000000000000000000000000000000000000000815260040160405180910390fd5b6001600160a01b03851660009081526074602052604090205415612d52576040517f8ad9cdf900000000000000000000000000000000000000000000000000000000815260040160405180910390fd5b612710831115612d7557604051631b8454a360e21b815260040160405180910390fd5b60005b81811015612e6c5760006075600060738481548110612d9957612d99615460565b60009182526020808320909101546001600160a01b03908116845290830193909352604090910190208054909250811690891603612e0e576040517ffc3d8c750000000000000000000000000000000000000000000000000000000081526001600160a01b0389166004820152602401610d0a565b60028101546001600160a01b0390811690871603612e63576040517f5a674fce0000000000000000000000000000000000000000000000000000000081526001600160a01b0387166004820152602401610d0a565b50600101612d78565b506001600160a01b038581166000818152607460209081526040808320861990556073805460018082019092557ff79bde9ddd17963ebce6f7d021d60de7c2bd0db944d23c900c0c0e775f5300520180546001600160a01b031990811687179091556075909352818420805484168d881690811782559181018054851687179055600281018054909416968b1696871790935560048301899055905191949093909290917f1ca451a9920472b99355a9cf74185bf017604a7849c113f020888ecec9db93669190a450505050505050565b6000612f49600f612a15565b6040517f50a9fc290000000000000000000000000000000000000000000000000000000081526001600160a01b03848116600483015291909116906350a9fc2990602401602060405180830381865afa158015612faa573d6000803e3d6000fd5b505050506040513d601f19601f82011682018060405250810190610c739190615627565b807fdea3103d22025c269050bea94c0c84688877f12fa22b7e6d2d5d78a9a49aa1cb600084600f811115613004576130046154e4565b60ff168152602081019190915260400160002080546001600160a01b0319166001600160a01b03928316179055811682600f811115613045576130456154e4565b6040517f865d1c228a8ea13709cfe61f346f7ff67f1bbd4a18ff31ad3e7147350d317c5990600090a35050565b6001600160a01b0382166000908152603a602052604081205481908190848110156130a857600080600093509350935050610d95565b600193506130b68582615421565b6130c1906001615434565b92506130cc856122d8565b6130d5826122d8565b6130df9190615421565b6130ea906001615434565b9150509250925092565b7fb53127684a568b3173ae13b9f8a6016e243e63b6e8ee1178d6a717850b5d6103546001600160a01b03163314610c3d576000356001600160e01b03191660016040517f3e523c00000000000000000000000000000000000000000000000000000000008152600401610d0a929190615644565b60018110156131a3576040517f17b8970f00000000000000000000000000000000000000000000000000000000815260040160405180910390fd5b60768190556040518181527f266d432ffe659e3565750d26ec685b822a58041eee724b67a5afec3168a2526790602001611e27565b6131e181612a15565b6001600160a01b0316336001600160a01b031614610dad576000356001600160e01b03191681336040517f8383e634000000000000000000000000000000000000000000000000000000008152600401610d0a93929190615665565b6000610c73620151808361554b565b60008183101561325c5781610c70565b5090919050565b60a98190556040518181527fb5464c05fd0e0f000c535850116cda2742ee1f7b34384cb920ad7b8e802138b590602001611e27565b60728190556040518181527f82d5dc32d1b741512ad09c32404d7e7921e8934c6222343d95f55f7a2b9b2ab490602001611e27565b60a954811115613309576040517faa8119d200000000000000000000000000000000000000000000000000000000815260040160405180910390fd5b60ad8190556040518181527fa9588dc77416849bd922605ce4fc806712281ad8a8f32d4238d6c8cca548e15e90602001611e27565b60e58190556040518181527f17a6c3eb965cdd7439982da25abf85be88f0f772ca33198f548e2f99fee0289a90602001611e27565b60e68190556040518181527f0a50c66137118f386332efb949231ddd3946100dbf880003daca37ddd9e0662b90602001611e27565b60606133b4600f612a15565b6001600160a01b031663b261596f836040518263ffffffff1660e01b81526004016133df919061529a565b600060405180830381865afa1580156133fc573d6000803e3d6000fd5b505050506040513d6000823e601f3d908101601f19168201604052610c7391908101906156ef565b6060613430600f612a15565b6001600160a01b031663f9226b1a836040518263ffffffff1660e01b815260040161345b9190615140565b600060405180830381865afa158015613478573d6000803e3d6000fd5b505050506040513d6000823e601f3d908101601f19168201604052610c73919081019061578e565b6060815167ffffffffffffffff8111156134bc576134bc615476565b6040519080825280602002602001820160405280156134e5578160200160208202803683370190505b50905060005b82518110156135405761351683828151811061350957613509615460565b60200260200101516135b9565b82828151811061352857613528615460565b911515602092830291909101909101526001016134eb565b50919050565b6001600160a01b038116600090815260ac6020526040812054610c739060019060ff16600381111561357a5761357a6154e4565b90614358565b334114610c3d576040517f09f358fd00000000000000000000000000000000000000000000000000000000815260040160405180910390fd5b6001600160a01b0381166000908152603a6020526040812054431115610c73565b600081831061325c5781610c70565b60006135f5600e612a15565b6001600160a01b031663468d24be84846040518363ffffffff1660e01b815260040161362292919061581d565b600060405180830381865afa15801561363f573d6000803e3d6000fd5b505050506040513d6000823e601f3d908101601f191682016040526136679190810190615836565b90506000825160015461367a919061551e565b60e25490915060009081805b865181101561372957848682815181106136a2576136a2615460565b6020026020010151846136b5919061551e565b6136bf919061554b565b93508360e360008984815181106136d8576136d8615460565b60200260200101516001600160a01b03166001600160a01b03168152602001908152602001600020600082825461370f9190615434565b9091555061371f90508483615434565b9150600101613686565b506137348183615421565b60e460008282546137459190615434565b9091555050600060e25550505050505050565b60006060600080845167ffffffffffffffff81111561377957613779615476565b6040519080825280602002602001820160405280156137a2578160200160208202803683370190505b50925060005b855181101561393a578581815181106137c3576137c3615460565b6020908102919091018101516001600160a01b03808216600090815260759093526040909220600201549094501691506137fc836135b9565b15801561382d57506001600160a01b03831660009081526037602090815260408083208a845290915290205460ff16155b156138ab576001600160a01b038316600090815260e160205260409020546138559086615434565b6001600160a01b038416600090815260e1602052604090205485519196509085908390811061388657613886615460565b60200260200101818152505061389c838361438b565b6138a68383614453565b613902565b6001600160a01b038316600090815260e3602090815260408083205460e183528184205460e09093529220546138e19190615434565b6138eb9190615434565b60e460008282546138fc9190615434565b90915550505b6001600160a01b038316600090815260e16020908152604080832083905560e0825280832083905560e39091528120556001016137a8565b5050509250929050565b60006139506009612a15565b9050821561260557613962818461450e565b15613a23576040517facd79c460000000000000000000000000000000000000000000000000000000081526001600160a01b0382169063acd79c46906139b090879086908a906004016158ed565b600060405180830381600087803b1580156139ca57600080fd5b505af11580156139de573d6000803e3d6000fd5b505050507f9e242ca1ef9dde96eb71ef8d19a3f0f6a619b63e4c0d3998771387103656d087838584604051613a1593929190615923565b60405180910390a150612a0f565b7fe5668ec1bb2b6bb144a50f810e388da4b1d7d3fc05fcb9d588a1aac59d248f8983858447604051613a589493929190615958565b60405180910390a15050505050565b60e754600080805b83831015612a0f5760e78381548110613a8a57613a8a615460565b60009182526020808320909101546001600160a01b031680835260e89091526040909120600181015491935091504210613bb057805460e48054600090613ad2908490615434565b90915550506001600160a01b038216600090815260e860205260408120818155600101819055613b0185615995565b9450841115613b785760e78481548110613b1d57613b1d615460565b60009182526020909120015460e780546001600160a01b039092169185908110613b4957613b49615460565b9060005260206000200160006101000a8154816001600160a01b0302191690836001600160a01b031602179055505b60e7805480613b8957613b896155ef565b600082815260209020810160001990810180546001600160a01b0319169055019055613a6f565b600190920191613a6f565b60e4548015610dad576000613bd06007612a15565b600060e481905560408051600481526024810182526020810180517bffffffffffffffffffffffffffffffffffffffffffffffffffffffff167f59f778df00000000000000000000000000000000000000000000000000000000179052905192935090916001600160a01b038416918591613c4b91906159ac565b60006040518083038185875af1925050503d8060008114613c88576040519150601f19603f3d011682016040523d82523d6000602084013e613c8d565b606091505b505090508015613cd257816001600160a01b03167fc447c884574da5878be39c403db2245c22530c99b579ea7bcbb3720e1d110dc884604051610ebd91815260200190565b604080518481524760208201526001600160a01b038416917fa0561a59abed308fcd0556834574739d778cc6229018039a24ddda0f86aa0b739101610ebd565b505050565b606080613d238361456a565b90506000613d316009612a15565b6001600160a01b0316635a2ac07360736040518263ffffffff1660e01b8152600401613d5d91906159db565b600060405180830381865afa158015613d7a573d6000803e3d6000fd5b505050506040513d6000823e601f3d908101601f19168201604052613da29190810190615836565b90506000613db0600a612a15565b6001600160a01b0316632cccb53c60736040518263ffffffff1660e01b8152600401613ddc91906159db565b600060405180830381865afa158015613df9573d6000803e3d6000fd5b505050506040513d6000823e601f3d908101601f19168201604052613e219190810190615836565b90506000613e906073805480602002602001604051908101604052809291908181526020018280548015613e7e57602002820191906000526020600020905b81546001600160a01b03168152600190910190602001808311613e60575b5050505050848460a95460ad54614a92565b9095509050613ea0858288614ba3565b505050915091565b6000613eb46005612a15565b6001600160a01b031663ac57bd7683613ece436001615434565b6040518363ffffffff1660e01b8152600401613eeb9291906155b9565b600060405180830381865afa158015613f08573d6000803e3d6000fd5b505050506040513d6000823e601f3d908101601f19168201604052613f309190810190615a1f565b905060005b82518110156140fd576000838281518110613f5257613f52615460565b6020908102919091018101516001600160a01b0381166000908152603b909252604082205490925042111590613f8783613546565b90506000613fba84613f9a436001615434565b6001600160a01b03919091166000908152603a6020526040902054101590565b80613fdb5750858581518110613fd257613fd2615460565b60200260200101515b80613fe35750825b15905081158015613ff15750805b1561406c576001600160a01b038416600090815260ac60205260409020546140309060019060ff16600381111561402a5761402a6154e4565b90614ce3565b6001600160a01b038516600090815260ac60205260409020805460ff19166001836003811115614062576140626154e4565b02179055506140ee565b818015614077575080155b156140ee576001600160a01b038416600090815260ac60205260409020546140b69060019060ff1660038111156140b0576140b06154e4565b90614d1e565b6001600160a01b038516600090815260ac60205260409020805460ff191660018360038111156140e8576140e86154e4565b02179055505b84600101945050505050613f35565b5082847f283b50d76057d5f828df85bc87724c6af604e9b55c363a07c9faa2a2cd688b82614129611601565b604051614136919061529a565b60405180910390a350505050565b806001600160a01b03163b600003610dad576040517f2ff1928c0000000000000000000000000000000000000000000000000000000081526001600160a01b0382166004820152602401610d0a565b6000600154826141a3919061554b565b610c73906001615434565b6000826000036141c7576141c46108fc83615434565b91505b6040516001600160a01b03851690839085906000818181858888f193505050503d8060008114614213576040519150601f19603f3d011682016040523d82523d6000602084013e614218565b606091505b509095945050505050565b600182015460009061423d906001600160a01b0316612f3d565b9050614260816001600160a01b0316600090815260746020526040902054151590565b61427d5760405163a64b34ad60e01b815260040160405180910390fd5b600583018290556040518281526001600160a01b038216907fb9a1e33376bfbda9092f2d1e37662c1b435aab0d3fa8da3acc8f37ee222f99e790602001610ebd565b6000806142cc600a612a15565b6040517fb8cc3a500000000000000000000000000000000000000000000000000000000081526001600160a01b038581166004830152919091169063b8cc3a5090602401602060405180830381865afa15801561432d573d6000803e3d6000fd5b505050506040513d601f19601f820116820180604052508101906143519190615447565b1192915050565b600081600381111561436c5761436c6154e4565b83600381111561437e5761437e6154e4565b1660ff1615159392505050565b6001600160a01b038216600090815260e060205260409020548015613d12576143b782826104b06141ae565b1561440e57816001600160a01b0316836001600160a01b03167f1ce7a1c4702402cd393500acb1de5bd927727a54e144a587d328f1b679abe4ec8360405161440191815260200190565b60405180910390a3505050565b604080518281524760208201526001600160a01b0380851692908616917f6c69e09ee5c5ac33c0cd57787261c5bade070a392ab34a4b5487c6868f723f6e9101614401565b6001600160a01b038216600090815260e360205260409020548015613d125761447f82826104b06141ae565b156144c957816001600160a01b0316836001600160a01b03167f0c4d6a43fc8470dee97db74874b5685e412cc517d9bdecfde1623c5e835b18e48360405161440191815260200190565b604080518281524760208201526001600160a01b0380851692908616917f98697ee35f04a599a814432016fff3968c483d2d88dacb484926b9358f8e7cf99101614401565b6000826001600160a01b03168260405160006040518083038185875af1925050503d806000811461455b576040519150601f19603f3d011682016040523d82523d6000602084013e614560565b606091505b5090949350505050565b606060006145786009612a15565b90506000816001600160a01b031663af2454296040518163ffffffff1660e01b8152600401602060405180830381865afa1580156145ba573d6000803e3d6000fd5b505050506040513d601f19601f820116820180604052508101906145de9190615447565b90506000826001600160a01b031663909791dd6040518163ffffffff1660e01b8152600401602060405180830381865afa158015614620573d6000803e3d6000fd5b505050506040513d601f19601f820116820180604052508101906146449190615447565b90506000836001600160a01b031663446850a160736040518263ffffffff1660e01b815260040161467591906159db565b600060405180830381865afa158015614692573d6000803e3d6000fd5b505050506040513d6000823e601f3d908101601f191682016040526146ba9190810190615836565b60735490915060008167ffffffffffffffff8111156146db576146db615476565b604051908082528060200260200182016040528015614704578160200160208202803683370190505b50965060008060005b848310156149ca576073838154811061472857614728615460565b60009182526020808320909101546001600160a01b03168083526075909152604090912060068101548851929450909250151590889088908690811061477057614770615460565b602002602001015110156147de57806147d957600061478f8a42615434565b600684018190556040518181529091506001600160a01b038516907f88f854e137380c14d63f6ed99781bf13402167cf55bac49bcd44d4f2d6a342759060200160405180910390a2505b614831565b8015614831578160060160009055826001600160a01b03167f88f854e137380c14d63f6ed99781bf13402167cf55bac49bcd44d4f2d6a34275600060405161482891815260200190565b60405180910390a25b6000826005015460001415801561484c575042836005015411155b8061486f57506001600160a01b038416600090815260e9602052604090205460ff165b90506000836006015460001415801561488c575042846006015411155b905081806148975750805b1561492957886148a689615995565b985088815181106148b9576148b9615460565b60200260200101518987815181106148d3576148d3615460565b602002602001018181525050848d88806001019950815181106148f8576148f8615460565b60200260200101906001600160a01b031690816001600160a01b03168152505061492185614d5a565b50505061470d565b6001600160a01b03851660009081526077602052604090205480158015906149515750428111155b156149ba576001600160a01b0386166000818152607760209081526040808320600181018054918590559390935560048901839055518281529192917f86d576c20e383fc2413ef692209cc48ddad5e52f25db5b32f8f7ec5076461ae9910160405180910390a2505b50506001909401935061470d9050565b5050508087528015614a87577f4eaf233b9dc25a5552c1927feee1412eea69add17c2485c831c2e60e234f3c9187604051614a05919061529a565b60405180910390a16040517fe22d1c9d0000000000000000000000000000000000000000000000000000000081526001600160a01b0387169063e22d1c9d90614a54908a908c906004016155b9565b600060405180830381600087803b158015614a6e57600080fd5b505af1158015614a82573d6000803e3d6000fd5b505050505b505050505050919050565b60606000806068905060008888888888604051602401614ab6959493929190615aae565b60408051601f19818403018152919052602080820180517bffffffffffffffffffffffffffffffffffffffffffffffffffffffff167f779415120000000000000000000000000000000000000000000000000000000017905281518b519293506001929091600091614b279161551e565b614b32906040615434565b90506020840181888483895afa614b4857600093505b503d614b5357600092505b60208701965082614b90576040517f0fc2632100000000000000000000000000000000000000000000000000000000815260040160405180910390fd5b8651955050505050509550959350505050565b815b60aa54811015614bf757600081815260ab6020818152604080842080546001600160a01b0316855260ac8352908420805460ff19169055928490525280546001600160a01b0319169055600101614ba5565b5060005b82811015614c3757600081815260ab60209081526040808320546001600160a01b0316835260ac9091529020805460ff19169055600101614bfb565b5060005b82811015614cab576000848281518110614c5757614c57615460565b6020908102919091018101516001600160a01b0316600081815260ac83526040808220805460ff1916600317905585825260ab9093529190912080546001600160a01b031916909117905550600101614c3b565b508160aa81905550807f3d0eea40644a206ec25781dd5bb3b60eb4fa1264b993c3bddf3c73b14f29ef5e84604051610ebd919061529a565b6000816003811115614cf757614cf76154e4565b836003811115614d0957614d096154e4565b1760ff166003811115610c7057610c706154e4565b6000816003811115614d3257614d326154e4565b19836003811115614d4557614d456154e4565b1660ff166003811115610c7057610c706154e4565b6001600160a01b038116600090815260e960209081526040808320805460ff191690556074909152812054610dad91839190819003614d97575050565b6001600160a01b038216600090815260756020908152604080832080546001600160a01b031990811682556001808301805483169055600283018054831690556003830180549092169091556004820185905560058201859055600690910184905560748352818420849055607790925282208281558101829055607380549091614e2191615421565b81548110614e3157614e31615460565b6000918252602090912001546001600160a01b03908116915083168114614eb4576001600160a01b0381166000908152607460205260409020829055607380548291908419908110614e8557614e85615460565b9060005260206000200160006101000a8154816001600160a01b0302191690836001600160a01b031602179055505b6073805480614ec557614ec56155ef565b600082815260209020810160001990810180546001600160a01b0319169055019055505050565b6001600160a01b0381168114610dad57600080fd5b60008060408385031215614f1457600080fd5b8235614f1f81614eec565b91506020830135614f2f81614eec565b809150509250929050565b600060208284031215614f4c57600080fd5b813561103881614eec565b60008060408385031215614f6a57600080fd5b8235614f7581614eec565b946020939093013593505050565b600060208284031215614f9557600080fd5b5035919050565b60e08101610c7382846001600160a01b03808251168352806020830151166020840152806040830151166040840152806060830151166060840152506080810151608083015260a081015160a083015260c081015160c08301525050565b815181526020808301519082015260408101610c73565b8015158114610dad57600080fd5b6000806000806080858703121561503557600080fd5b843561504081614eec565b93506020850135925060408501359150606085013561505e81615011565b939692955090935050565b8060408101831015610c7357600080fd5b6000806000806000806000806000806000806101a08d8f03121561509d57600080fd5b8c356150a881614eec565b9b5060208d01356150b881614eec565b9a5060408d01356150c881614eec565b995060608d01356150d881614eec565b985060808d01356150e881614eec565b975060a08d01356150f881614eec565b965060c08d0135955060e08d013594506101008d013593506101208d013592506101408d0135915061512e8e6101608f01615069565b90509295989b509295989b509295989b565b6020808252825182820181905260009190848201906040850190845b818110156151815783516001600160a01b03168352928401929184019160010161515c565b50909695505050505050565b60008083601f84011261519f57600080fd5b50813567ffffffffffffffff8111156151b757600080fd5b6020830191508360208260051b85010111156151d257600080fd5b9250929050565b600080602083850312156151ec57600080fd5b823567ffffffffffffffff81111561520357600080fd5b61520f8582860161518d565b90969095509350505050565b6020808252825182820181905260009190848201906040850190845b81811015615181578351151583529284019291840191600101615237565b60008151808452602080850194506020840160005b8381101561528f5781516001600160a01b03168752958201959082019060010161526a565b509495945050505050565b602081526000610c706020830184615255565b6020808252825182820181905260009190848201906040850190845b818110156151815761532c8385516001600160a01b03808251168352806020830151166020840152806040830151166040840152806060830151166060840152506080810151608083015260a081015160a083015260c081015160c08301525050565b9284019260e092909201916001016152c9565b8035601081106110ce57600080fd5b6000806040838503121561536157600080fd5b614f1f8361533f565b60006020828403121561537c57600080fd5b610c708261533f565b60008060006060848603121561539a57600080fd5b83356153a581614eec565b95602085013595506040909401359392505050565b600080600080608085870312156153d057600080fd5b84356153db81614eec565b935060208501356153eb81614eec565b925060408501356153fb81614eec565b9396929550929360600135925050565b634e487b7160e01b600052601160045260246000fd5b81810381811115610c7357610c7361540b565b80820180821115610c7357610c7361540b565b60006020828403121561545957600080fd5b5051919050565b634e487b7160e01b600052603260045260246000fd5b634e487b7160e01b600052604160045260246000fd5b60006001820161549e5761549e61540b565b5060010190565b600080600080608085870312156154bb57600080fd5b84516154c681615011565b60208601516040870151606090970151919890975090945092505050565b634e487b7160e01b600052602160045260246000fd5b8281526040810160038310615511576155116154e4565b8260208301529392505050565b8082028115828204841417610c7357610c7361540b565b634e487b7160e01b600052601260045260246000fd5b60008261555a5761555a615535565b500490565b6000806000806080858703121561557557600080fd5b505082516020840151604085015160609095015191969095509092509050565b600080604083850312156155a857600080fd5b505080516020909101519092909150565b6040815260006155cc6040830185615255565b90508260208301529392505050565b6000826155ea576155ea615535565b500690565b634e487b7160e01b600052603160045260246000fd5b60108110615615576156156154e4565b9052565b60208101610c738284615605565b60006020828403121561563957600080fd5b815161103881614eec565b6001600160e01b03198316815260408101600b8310615511576155116154e4565b6001600160e01b031984168152606081016156836020830185615605565b6001600160a01b0383166040830152949350505050565b604051601f8201601f1916810167ffffffffffffffff811182821017156156c3576156c3615476565b604052919050565b600067ffffffffffffffff8211156156e5576156e5615476565b5060051b60200190565b6000602080838503121561570257600080fd5b825167ffffffffffffffff81111561571957600080fd5b8301601f8101851361572a57600080fd5b805161573d615738826156cb565b61569a565b81815260059190911b8201830190838101908783111561575c57600080fd5b928401925b8284101561578357835161577481614eec565b82529284019290840190615761565b979650505050505050565b600060208083850312156157a157600080fd5b825167ffffffffffffffff8111156157b857600080fd5b8301601f810185136157c957600080fd5b80516157d7615738826156cb565b81815260059190911b820183019083810190878311156157f657600080fd5b928401925b8284101561578357835161580e81614eec565b825292840192908401906157fb565b828152604060208201526000610f0b6040830184615255565b6000602080838503121561584957600080fd5b825167ffffffffffffffff81111561586057600080fd5b8301601f8101851361587157600080fd5b805161587f615738826156cb565b81815260059190911b8201830190838101908783111561589e57600080fd5b928401925b82841015615783578351825292840192908401906158a3565b60008151808452602080850194506020840160005b8381101561528f578151875295820195908201906001016158d1565b6060815260006159006060830186615255565b828103602084015261591281866158bc565b915050826040830152949350505050565b83815260606020820152600061593c6060830185615255565b828103604084015261594e81856158bc565b9695505050505050565b8481526080602082015260006159716080830186615255565b828103604084015261598381866158bc565b91505082606083015295945050505050565b6000816159a4576159a461540b565b506000190190565b6000825160005b818110156159cd57602081860181015185830152016159b3565b506000920191825250919050565b6020808252825482820181905260008481528281209092916040850190845b818110156151815783546001600160a01b0316835260019384019392850192016159fa565b60006020808385031215615a3257600080fd5b825167ffffffffffffffff811115615a4957600080fd5b8301601f81018513615a5a57600080fd5b8051615a68615738826156cb565b81815260059190911b82018301908381019087831115615a8757600080fd5b928401925b82841015615783578351615a9f81615011565b82529284019290840190615a8c565b60a081526000615ac160a0830188615255565b8281036020840152615ad381886158bc565b90508281036040840152615ae781876158bc565b6060840195909552505060800152939250505056fea26469706673582212207139ba80bdedc2b63b3d481c7aee3e8c24a22a93ab860b859a0bf513c7ed47c664736f6c63430008160033",
  "chainId": 2021,
  "contractAbsolutePath": "RoninValidatorSet.sol",
  "deployer": "0x31762cdd4Aa65CD6f5F09D7a05a56211720A1168",
  "devdoc": {
    "version": 1,
    "kind": "dev",
    "methods": {
      "checkJailed(address)": {
        "details": "Returns whether the validator are put in jail (cannot join the set of validators) during the current period."
      },
      "checkJailedAtBlock(address,uint256)": {
        "details": "Returns whether the validator are put in jail (cannot join the set of validators) at a specific block."
      },
      "checkManyJailed(address[])": {
        "details": "Returns whether the validators are put in jail (cannot join the set of validators) during the current period."
      },
      "checkMiningRewardDeprecated(address)": {
        "details": "Returns whether the incoming reward of the block producer is deprecated during the current period."
      },
      "checkMiningRewardDeprecatedAtPeriod(address,uint256)": {
        "details": "Returns whether the incoming reward of the block producer is deprecated during a specific period."
      },
      "currentPeriod()": {
        "details": "Returns the period index from the current block."
      },
      "currentPeriodStartAtBlock()": {
        "details": "Returns the block number that the current period starts at."
      },
      "emergencyExitLockedAmount()": {
        "details": "Returns the amount of RON to lock from a consensus address."
      },
      "emergencyExpiryDuration()": {
        "details": "Returns the duration that an emergency request is expired and the fund will be recycled."
      },
      "epochEndingAt(uint256)": {
        "details": "Returns whether the epoch ending is at the block number `_block`."
      },
      "epochOf(uint256)": {
        "details": "Returns the epoch index from the block number."
      },
      "execApplyValidatorCandidate(address,address,address,uint256)": {
        "details": "Grants a validator candidate. Requirements: - The method caller is staking contract. Emits the event `CandidateGranted`."
      },
      "execBailOut(address,uint256)": {
        "details": "Finalize the bailout request from slash indicator contract. Requirements: - The method caller is slash indicator contract. Emits the event `ValidatorUnjailed`."
      },
      "execChangeAdminAddress(address,address)": {
        "details": "Fallback function of `Profile-requestChangeAdminAddress`. This updates the shadow storage slot of \"shadowedAdmin\" for candidate id `id` to `newAdmin`. Requirements: - The caller must be the Profile contract."
      },
      "execChangeConsensusAddress(address,address)": {
        "details": "Fallback function of `Profile-requestChangeConsensusAddress`. This updates the shadow storage slot of \"shadowedConsensus\" for candidate id `id` to `newAdmin`. Requirements: - The caller must be the Profile contract."
      },
      "execChangeTreasuryAddress(address,address)": {
        "details": "Fallback function of `Profile-requestChangeTreasuryAddress`. This updates the shadow storage slot of \"shadowedTreasury\" for candidate id `id` to `newAdmin`. Requirements: - The caller must be the Profile contract."
      },
      "execReleaseLockedFundForEmergencyExitRequest(address,address)": {
        "details": "Unlocks fund for emergency exit request. Requirements: - The method caller is admin. Emits the event `EmergencyExitLockedFundReleased` if the fund is successfully unlocked. Emits the event `EmergencyExitLockedFundReleasingFailed` if the fund is failed to unlock."
      },
      "execRequestEmergencyExit(address,uint256)": {
        "details": "Fallback function of `IStaking-requestEmergencyExit`. Requirements: - The method caller is staking contract."
      },
      "execRequestRenounceCandidate(address,uint256)": {
        "details": "Requests to revoke a validator candidate in next `secsLeft` seconds. Requirements: - The method caller is staking contract. Emits the event `CandidateRevokingTimestampUpdated`."
      },
      "execRequestUpdateCommissionRate(address,uint256,uint256)": {
        "details": "Fallback function of `CandidateStaking-requestUpdateCommissionRate`. Requirements: - The method caller is the staking contract. - The `effectiveTimestamp` must be the beginning of a UTC day, and at least from 7 days onwards - The `rate` must be in range of [0_00; 100_00]. Emits the event `CommissionRateUpdateScheduled`."
      },
      "execSlash(address,uint256,uint256,bool)": {
        "details": "Finalize the slash request from slash indicator contract. Requirements: - The method caller is slash indicator contract. Emits the event `ValidatorPunished`."
      },
      "getBlockProducerIds()": {
        "details": "Returns the ids current block producer list."
      },
      "getBlockProducers()": {
        "details": "Returns the current block producer list."
      },
      "getCandidateInfo(address)": {
        "details": "Returns the info of a candidate."
      },
      "getCandidateInfos()": {
        "details": "Returns all candidate info."
      },
      "getCommissionChangeSchedule(address)": {
        "details": "Returns the schedule of changing commission rate of a candidate address."
      },
      "getContract(uint8)": {
        "details": "Returns the address of a contract with a specific role. Throws an error if no contract is set for the specified role.",
        "params": {
          "contractType": "The role of the contract to retrieve."
        },
        "returns": {
          "contract_": "The address of the contract with the specified role."
        }
      },
      "getEmergencyExitInfo(address)": {
        "details": "Returns the emergency exit request."
      },
      "getJailedTimeLeft(address)": {
        "details": "Returns whether the validator are put in jail and the number of block and epoch that he still is in the jail."
      },
      "getJailedTimeLeftAtBlock(address,uint256)": {
        "details": "Returns whether the validator are put in jail at a specific block and the number of block and epoch that he still is in the jail."
      },
      "getLastUpdatedBlock()": {
        "details": "Returns the block that validator set was updated."
      },
      "getValidatorCandidateIds()": {
        "details": "Returns the list of validator candidate ids."
      },
      "getValidatorCandidates()": {
        "details": "Returns the list validator candidates."
      },
      "getValidatorIds()": {
        "details": "Returns the ids of current validator list."
      },
      "getValidators()": {
        "details": "Returns the current validator list."
      },
      "initialize(address,address,address,address,address,address,uint256,uint256,uint256,uint256,uint256,uint256[2])": {
        "details": "Initializes the contract storage."
      },
      "isBlockProducer(address)": {
        "details": "Returns whether the address is block producer or not."
      },
      "isCandidateAdmin(address,address)": {
        "details": "Returns whether the address is the candidate admin."
      },
      "isPeriodEnding()": {
        "details": "Returns whether the period ending at the current block number."
      },
      "isValidatorCandidate(address)": {
        "details": "Returns whether the address is a validator (candidate)."
      },
      "maxPrioritizedValidatorNumber()": {
        "details": "Returns the number of reserved slots for prioritized validators."
      },
      "maxValidatorCandidate()": {
        "details": "Returns the maximum number of validator candidate."
      },
      "maxValidatorNumber()": {
        "details": "Returns the maximum number of validators in the epoch."
      },
      "minEffectiveDaysOnward()": {
        "details": "Returns the minimum number of days to the effective date of commission rate change."
      },
      "numberOfBlocksInEpoch()": {
        "details": "Returns the number of blocks in a epoch."
      },
      "precompilePickValidatorSetAddress()": {
        "details": "Gets the address of the precompile of picking validator set"
      },
      "precompileSortValidatorsAddress()": {
        "details": "Gets the address of the precompile of sorting validators"
      },
      "setContract(uint8,address)": {
        "details": "Sets the address of a contract with a specific role. Emits the event {ContractUpdated}.",
        "params": {
          "addr": "The address of the contract to set.",
          "contractType": "The role of the contract to set."
        }
      },
      "setEmergencyExitLockedAmount(uint256)": {
        "details": "Sets the amount of RON to lock from a consensus address. Requirements: - The method caller is admin. Emits the event `EmergencyExitLockedAmountUpdated`."
      },
      "setEmergencyExpiryDuration(uint256)": {
        "details": "Sets the duration that an emergency request is expired and the fund will be recycled. Requirements: - The method caller is admin. Emits the event `EmergencyExpiryDurationUpdated`."
      },
      "setMaxPrioritizedValidatorNumber(uint256)": {
        "details": "Updates the number of reserved slots for prioritized validators Requirements: - The method caller is admin Emits the event `MaxPrioritizedValidatorNumberUpdated`"
      },
      "setMaxValidatorCandidate(uint256)": {
        "details": "Sets the maximum number of validator candidate. Requirements: - The method caller is admin. Emits the `MaxValidatorCandidateUpdated` event."
      },
      "setMaxValidatorNumber(uint256)": {
        "details": "Updates the max validator number Requirements: - The method caller is admin Emits the event `MaxValidatorNumberUpdated`"
      },
      "setMinEffectiveDaysOnwards(uint256)": {
        "details": "Sets the minimum number of days to the effective date of commision rate change. Requirements: - The method caller is admin. Emits the `MinEffectiveDaysOnwardsUpdated` event."
      },
      "submitBlockReward()": {
        "details": "Submits reward of the current block. Requirements: - The method caller is coinbase. Emits the event `MiningRewardDeprecated` if the coinbase is slashed or no longer be a block producer. Emits the event `BlockRewardSubmitted` for the valid call."
      },
      "totalBlockProducer()": {
        "details": "Returns total numbers of the block producers."
      },
      "totalDeprecatedReward()": {
        "details": "Returns the total deprecated reward, which includes reward that is not sent for slashed validators and unsastified bridge operators"
      },
      "tryGetPeriodOfEpoch(uint256)": {
        "details": "Tries to get the period index from the epoch number."
      },
      "wrapUpEpoch()": {
        "details": "Wraps up the current epoch. Requirements: - The method must be called when the current epoch is ending. - The epoch is not wrapped yet. - The method caller is coinbase. Emits the event `MiningRewardDistributed` when some validator has reward distributed. Emits the event `StakingRewardDistributed` when some staking pool has reward distributed. Emits the event `BlockProducerSetUpdated` when the epoch is wrapped up. Emits the event `BridgeOperatorSetUpdated` when the epoch is wrapped up at period ending. Emits the event `ValidatorSetUpdated` when the epoch is wrapped up at period ending, and the validator set gets updated. Emits the event `WrappedUpEpoch`."
      }
    },
    "events": {
      "BlockProducerSetUpdated(uint256,uint256,address[])": {
        "details": "Emitted when the bridge operator set is updated, to mirror the in-jail and maintaining status of the validator."
      },
      "BlockRewardDeprecated(address,uint256,uint8)": {
        "details": "Emitted when the reward of the block producer is deprecated."
      },
      "BlockRewardSubmitted(address,uint256,uint256)": {
        "details": "Emitted when the block reward is submitted."
      },
      "BridgeOperatorRewardDistributed(address,address,address,uint256)": {
        "details": "Emitted when the bridge operator reward is distributed."
      },
      "BridgeOperatorRewardDistributionFailed(address,address,address,uint256,uint256)": {
        "details": "Emitted when the contract fails when distributing the bridge operator reward."
      },
      "BridgeOperatorSetUpdated(uint256,uint256,address[])": {
        "details": "Emitted when the bridge operator set is updated."
      },
      "CandidateGranted(address,address,address)": {
        "details": "Emitted when the validator candidate is granted."
      },
      "CandidateRevokingTimestampUpdated(address,uint256)": {
        "details": "Emitted when the revoking timestamp of a candidate is updated."
      },
      "CandidateTopupDeadlineUpdated(address,uint256)": {
        "details": "Emitted when the topup deadline of a candidate is updated."
      },
      "CandidatesRevoked(address[])": {
        "details": "Emitted when the validator candidate is revoked."
      },
      "CommissionRateUpdateScheduled(address,uint256,uint256)": {
        "details": "Emitted when a schedule for updating commission rate is set."
      },
      "CommissionRateUpdated(address,uint256)": {
        "details": "Emitted when the commission rate of a validator is updated."
      },
      "ContractUpdated(uint8,address)": {
        "details": "Emitted when a contract is updated."
      },
      "DeprecatedRewardRecycleFailed(address,uint256,uint256)": {
        "details": "Emitted when the deprecated reward withdrawal is failed"
      },
      "DeprecatedRewardRecycled(address,uint256)": {
        "details": "Emitted when the deprecated reward is withdrawn."
      },
      "EmergencyExitLockedAmountUpdated(uint256)": {
        "details": "Emitted when the emergency exit locked amount is updated."
      },
      "EmergencyExitLockedFundReleased(address,address,uint256)": {
        "details": "Emitted when the fund that locked from an emergency exit request is transferred to the recipient."
      },
      "EmergencyExitLockedFundReleasingFailed(address,address,uint256,uint256)": {
        "details": "Emitted when the fund that locked from an emergency exit request is failed to transferred back."
      },
      "EmergencyExitRequested(address,uint256)": {
        "details": "Emitted when the fund is locked from an emergency exit request"
      },
      "EmergencyExpiryDurationUpdated(uint256)": {
        "details": "Emitted when the emergency expiry duration is updated."
      },
      "FastFinalityRewardDistributed(address,address,uint256)": {
        "details": "Emitted when the fast finality reward is distributed."
      },
      "FastFinalityRewardDistributionFailed(address,address,uint256,uint256)": {
        "details": "Emitted when the contract fails when distributing the fast finality reward."
      },
      "Initialized(uint8)": {
        "details": "Triggered when the contract has been initialized or reinitialized."
      },
      "MaxPrioritizedValidatorNumberUpdated(uint256)": {
        "details": "Emitted when the number of reserved slots for prioritized validators is updated."
      },
      "MaxValidatorCandidateUpdated(uint256)": {
        "details": "Emitted when the maximum number of validator candidates is updated."
      },
      "MaxValidatorNumberUpdated(uint256)": {
        "details": "Emitted when the number of max validator is updated."
      },
      "MinEffectiveDaysOnwardsUpdated(uint256)": {
        "details": "Emitted when the min offset to the effective date of commission rate change is updated."
      },
      "MiningRewardDistributed(address,address,uint256)": {
        "details": "Emitted when the block producer reward is distributed."
      },
      "MiningRewardDistributionFailed(address,address,uint256,uint256)": {
        "details": "Emitted when the contract fails when distributing the block producer reward."
      },
      "StakingRewardDistributed(uint256,address[],uint256[])": {
        "details": "Emitted when the amount of RON reward is distributed to staking contract."
      },
      "StakingRewardDistributionFailed(uint256,address[],uint256[],uint256)": {
        "details": "Emitted when the contracts fails when distributing the amount of RON to the staking contract."
      },
      "ValidatorPunished(address,uint256,uint256,uint256,bool,bool)": {
        "details": "Emitted when the validator is punished."
      },
      "ValidatorSetUpdated(uint256,address[])": {
        "details": "Emitted when the validator set is updated"
      },
      "ValidatorUnjailed(address,uint256)": {
        "details": "Emitted when the validator get out of jail by bailout."
      },
      "WrappedUpEpoch(uint256,uint256,bool)": {
        "details": "Emitted when the epoch is wrapped up."
      }
    },
    "errors": {
      "ErrAlreadyRequestedEmergencyExit()": [
        {
          "details": "Error of already requested emergency exit before."
        }
      ],
      "ErrAlreadyRequestedRevokingCandidate()": [
        {
          "details": "Error of already requested revoking candidate before."
        }
      ],
      "ErrAlreadyRequestedUpdatingCommissionRate()": [
        {
          "details": "Error of commission change schedule exists."
        }
      ],
      "ErrAlreadyWrappedEpoch()": [
        {
          "details": "Error of query for already wrapped up epoch"
        }
      ],
      "ErrAtEndOfEpochOnly()": [
        {
          "details": "Error of only allowed at the end of epoch"
        }
      ],
      "ErrCallPrecompiled()": [
        {
          "details": "Error of call to precompile fails."
        }
      ],
      "ErrCallerMustBeCoinbase()": [
        {
          "details": "Error of method caller must be coinbase"
        }
      ],
      "ErrCannotBailout(address)": [
        {
          "details": "Error of cannot bailout due to high tier slash."
        }
      ],
      "ErrContractTypeNotFound(uint8)": [
        {
          "details": "Error of invalid role."
        }
      ],
      "ErrExceedsMaxNumberOfCandidate()": [
        {
          "details": "Error of exceeding maximum number of candidates."
        }
      ],
      "ErrExistentCandidate()": [
        {
          "details": "Error of querying for already existent candidate."
        }
      ],
      "ErrExistentCandidateAdmin(address)": [
        {
          "details": "Error of candidate admin already exists."
        }
      ],
      "ErrExistentTreasury(address)": [
        {
          "details": "Error of treasury already exists."
        }
      ],
      "ErrInsufficientBalance(bytes4,uint256,uint256)": [
        {
          "details": "Error of sender has insufficient balance."
        }
      ],
      "ErrInvalidCommissionRate()": [
        {
          "details": "Error of invalid commission rate."
        }
      ],
      "ErrInvalidEffectiveDaysOnwards()": [
        {
          "details": "Error of invalid effective days onwards."
        }
      ],
      "ErrInvalidMaxPrioritizedValidatorNumber()": [
        {
          "details": "Error thrown when an invalid maximum prioritized validator number is provided."
        }
      ],
      "ErrInvalidMinEffectiveDaysOnwards()": [
        {
          "details": "Error of invalid min effective days onwards."
        }
      ],
      "ErrLockedFundMightBeRecycled(address)": [
        {
          "details": "Error thrown when the the locked fund of emergency exit might be recycled."
        }
      ],
      "ErrLockedFundReleaseInfoNotFound(address)": [
        {
          "details": "Error thrown when the info of releasing locked fund not exist."
        }
      ],
      "ErrNonExistentCandidate()": [
        {
          "details": "Error of querying for non-existent candidate."
        }
      ],
      "ErrRecipientRevert(bytes4)": [
        {
          "details": "Error of recipient not accepting RON when transfer RON."
        }
      ],
      "ErrTrustedOrgCannotRenounce()": [
        {
          "details": "Error of trusted org cannot renounce."
        }
      ],
      "ErrUnauthorized(bytes4,uint8)": [
        {
          "details": "Error indicating that the caller is unauthorized to perform a specific function.",
          "params": {
            "expectedRole": "The role required to perform the function.",
            "msgSig": "The function signature (bytes4) that the caller is unauthorized to perform."
          }
        }
      ],
      "ErrUnauthorizedReceiveRON()": [
        {
          "details": "Error thrown when receives RON from neither staking vesting contract nor staking contract"
        }
      ],
      "ErrUnexpectedInternalCall(bytes4,uint8,address)": [
        {
          "details": "Error indicating that the caller is unauthorized to perform a specific function.",
          "params": {
            "actual": "The actual address that called to the function.",
            "expectedContractType": "The contract type required to perform the function.",
            "msgSig": "The function signature (bytes4)."
          }
        }
      ],
      "ErrZeroCodeContract(address)": [
        {
          "details": "Error of set to non-contract."
        }
      ],
      "NonExistentRecyclingInfo()": [
        {
          "details": "Error thrown when queries for a non existent info."
        }
      ]
    }
  },
  "isFoundry": true,
  "nonce": 32,
  "numDeployments": 16,
  "storageLayout": {
    "storage": [
      {
        "astId": 150154,
        "contract": "contracts/ronin/validator/RoninValidatorSet.sol:RoninValidatorSet",
        "label": "_initialized",
        "offset": 0,
        "slot": "0",
        "type": "t_uint8"
      },
      {
        "astId": 150157,
        "contract": "contracts/ronin/validator/RoninValidatorSet.sol:RoninValidatorSet",
        "label": "_initializing",
        "offset": 1,
        "slot": "0",
        "type": "t_bool"
      },
      {
        "astId": 37197,
        "contract": "contracts/ronin/validator/RoninValidatorSet.sol:RoninValidatorSet",
        "label": "_numberOfBlocksInEpoch",
        "offset": 0,
        "slot": "1",
        "type": "t_uint256"
      },
      {
        "astId": 37200,
        "contract": "contracts/ronin/validator/RoninValidatorSet.sol:RoninValidatorSet",
        "label": "_lastUpdatedBlock",
        "offset": 0,
        "slot": "2",
        "type": "t_uint256"
      },
      {
        "astId": 37203,
        "contract": "contracts/ronin/validator/RoninValidatorSet.sol:RoninValidatorSet",
        "label": "_lastUpdatedPeriod",
        "offset": 0,
        "slot": "3",
        "type": "t_uint256"
      },
      {
        "astId": 37206,
        "contract": "contracts/ronin/validator/RoninValidatorSet.sol:RoninValidatorSet",
        "label": "_currentPeriodStartAtBlock",
        "offset": 0,
        "slot": "4",
        "type": "t_uint256"
      },
      {
        "astId": 37211,
        "contract": "contracts/ronin/validator/RoninValidatorSet.sol:RoninValidatorSet",
        "label": "_periodOf",
        "offset": 0,
        "slot": "5",
        "type": "t_mapping(t_uint256,t_uint256)"
      },
      {
        "astId": 37216,
        "contract": "contracts/ronin/validator/RoninValidatorSet.sol:RoninValidatorSet",
        "label": "______gap",
        "offset": 0,
        "slot": "6",
        "type": "t_array(t_uint256)49_storage"
      },
      {
        "astId": 36801,
        "contract": "contracts/ronin/validator/RoninValidatorSet.sol:RoninValidatorSet",
        "label": "_miningRewardDeprecatedAtPeriod",
        "offset": 0,
        "slot": "55",
        "type": "t_mapping(t_address,t_mapping(t_uint256,t_bool))"
      },
      {
        "astId": 36808,
        "contract": "contracts/ronin/validator/RoninValidatorSet.sol:RoninValidatorSet",
        "label": "_miningRewardBailoutCutOffAtPeriod",
        "offset": 0,
        "slot": "56",
        "type": "t_mapping(t_address,t_mapping(t_uint256,t_bool))"
      },
      {
        "astId": 36815,
        "contract": "contracts/ronin/validator/RoninValidatorSet.sol:RoninValidatorSet",
        "label": "______deprecatedBridgeRewardDeprecatedAtPeriod",
        "offset": 0,
        "slot": "57",
        "type": "t_mapping(t_address,t_mapping(t_uint256,t_bool))"
      },
      {
        "astId": 36820,
        "contract": "contracts/ronin/validator/RoninValidatorSet.sol:RoninValidatorSet",
        "label": "_blockProducerJailedBlock",
        "offset": 0,
        "slot": "58",
        "type": "t_mapping(t_address,t_uint256)"
      },
      {
        "astId": 36825,
        "contract": "contracts/ronin/validator/RoninValidatorSet.sol:RoninValidatorSet",
        "label": "_emergencyExitJailedTimestamp",
        "offset": 0,
        "slot": "59",
        "type": "t_mapping(t_address,t_uint256)"
      },
      {
        "astId": 36830,
        "contract": "contracts/ronin/validator/RoninValidatorSet.sol:RoninValidatorSet",
        "label": "_cannotBailoutUntilBlock",
        "offset": 0,
        "slot": "60",
        "type": "t_mapping(t_address,t_uint256)"
      },
      {
        "astId": 36835,
        "contract": "contracts/ronin/validator/RoninValidatorSet.sol:RoninValidatorSet",
        "label": "______gap",
        "offset": 0,
        "slot": "61",
        "type": "t_array(t_uint256)48_storage"
      },
      {
        "astId": 38255,
        "contract": "contracts/ronin/validator/RoninValidatorSet.sol:RoninValidatorSet",
        "label": "______deprecatedStakingVesting",
        "offset": 0,
        "slot": "109",
        "type": "t_address"
      },
      {
        "astId": 38283,
        "contract": "contracts/ronin/validator/RoninValidatorSet.sol:RoninValidatorSet",
        "label": "______deprecatedBridgeTracking",
        "offset": 0,
        "slot": "110",
        "type": "t_address"
      },
      {
        "astId": 38271,
        "contract": "contracts/ronin/validator/RoninValidatorSet.sol:RoninValidatorSet",
        "label": "______deprecatedMaintenance",
        "offset": 0,
        "slot": "111",
        "type": "t_address"
      },
      {
        "astId": 38251,
        "contract": "contracts/ronin/validator/RoninValidatorSet.sol:RoninValidatorSet",
        "label": "______deprecatedSlashIndicator",
        "offset": 0,
        "slot": "112",
        "type": "t_address"
      },
      {
        "astId": 38267,
        "contract": "contracts/ronin/validator/RoninValidatorSet.sol:RoninValidatorSet",
        "label": "______deprecatedStakingContract",
        "offset": 0,
        "slot": "113",
        "type": "t_address"
      },
      {
        "astId": 33201,
        "contract": "contracts/ronin/validator/RoninValidatorSet.sol:RoninValidatorSet",
        "label": "_maxValidatorCandidate",
        "offset": 0,
        "slot": "114",
        "type": "t_uint256"
      },
      {
        "astId": 33205,
        "contract": "contracts/ronin/validator/RoninValidatorSet.sol:RoninValidatorSet",
        "label": "_candidateIds",
        "offset": 0,
        "slot": "115",
        "type": "t_array(t_address)dyn_storage"
      },
      {
        "astId": 33210,
        "contract": "contracts/ronin/validator/RoninValidatorSet.sol:RoninValidatorSet",
        "label": "_candidateIndex",
        "offset": 0,
        "slot": "116",
        "type": "t_mapping(t_address,t_uint256)"
      },
      {
        "astId": 33216,
        "contract": "contracts/ronin/validator/RoninValidatorSet.sol:RoninValidatorSet",
        "label": "_candidateInfo",
        "offset": 0,
        "slot": "117",
        "type": "t_mapping(t_address,t_struct(ValidatorCandidate)9760_storage)"
      },
      {
        "astId": 33219,
        "contract": "contracts/ronin/validator/RoninValidatorSet.sol:RoninValidatorSet",
        "label": "_minEffectiveDaysOnwards",
        "offset": 0,
        "slot": "118",
        "type": "t_uint256"
      },
      {
        "astId": 33225,
        "contract": "contracts/ronin/validator/RoninValidatorSet.sol:RoninValidatorSet",
        "label": "_candidateCommissionChangeSchedule",
        "offset": 0,
        "slot": "119",
        "type": "t_mapping(t_address,t_struct(CommissionSchedule)9767_storage)"
      },
      {
        "astId": 33230,
        "contract": "contracts/ronin/validator/RoninValidatorSet.sol:RoninValidatorSet",
        "label": "______gap",
        "offset": 0,
        "slot": "120",
        "type": "t_array(t_uint256)48_storage"
      },
      {
        "astId": 38275,
        "contract": "contracts/ronin/validator/RoninValidatorSet.sol:RoninValidatorSet",
        "label": "______deprecatedTrustedOrg",
        "offset": 0,
        "slot": "168",
        "type": "t_address"
      },
      {
        "astId": 37383,
        "contract": "contracts/ronin/validator/RoninValidatorSet.sol:RoninValidatorSet",
        "label": "_maxValidatorNumber",
        "offset": 0,
        "slot": "169",
        "type": "t_uint256"
      },
      {
        "astId": 37386,
        "contract": "contracts/ronin/validator/RoninValidatorSet.sol:RoninValidatorSet",
        "label": "_validatorCount",
        "offset": 0,
        "slot": "170",
        "type": "t_uint256"
      },
      {
        "astId": 37391,
        "contract": "contracts/ronin/validator/RoninValidatorSet.sol:RoninValidatorSet",
        "label": "_validatorIds",
        "offset": 0,
        "slot": "171",
        "type": "t_mapping(t_uint256,t_address)"
      },
      {
        "astId": 37397,
        "contract": "contracts/ronin/validator/RoninValidatorSet.sol:RoninValidatorSet",
        "label": "_validatorMap",
        "offset": 0,
        "slot": "172",
        "type": "t_mapping(t_address,t_enum(ValidatorFlag)10875)"
      },
      {
        "astId": 37400,
        "contract": "contracts/ronin/validator/RoninValidatorSet.sol:RoninValidatorSet",
        "label": "_maxPrioritizedValidatorNumber",
        "offset": 0,
        "slot": "173",
        "type": "t_uint256"
      },
      {
        "astId": 37405,
        "contract": "contracts/ronin/validator/RoninValidatorSet.sol:RoninValidatorSet",
        "label": "______gap",
        "offset": 0,
        "slot": "174",
        "type": "t_array(t_uint256)50_storage"
      },
      {
        "astId": 36649,
        "contract": "contracts/ronin/validator/RoninValidatorSet.sol:RoninValidatorSet",
        "label": "_miningReward",
        "offset": 0,
        "slot": "224",
        "type": "t_mapping(t_address,t_uint256)"
      },
      {
        "astId": 36654,
        "contract": "contracts/ronin/validator/RoninValidatorSet.sol:RoninValidatorSet",
        "label": "_delegatingReward",
        "offset": 0,
        "slot": "225",
        "type": "t_mapping(t_address,t_uint256)"
      },
      {
        "astId": 36657,
        "contract": "contracts/ronin/validator/RoninValidatorSet.sol:RoninValidatorSet",
        "label": "_totalFastFinalityReward",
        "offset": 0,
        "slot": "226",
        "type": "t_uint256"
      },
      {
        "astId": 36662,
        "contract": "contracts/ronin/validator/RoninValidatorSet.sol:RoninValidatorSet",
        "label": "_fastFinalityReward",
        "offset": 0,
        "slot": "227",
        "type": "t_mapping(t_address,t_uint256)"
      },
      {
        "astId": 36665,
        "contract": "contracts/ronin/validator/RoninValidatorSet.sol:RoninValidatorSet",
        "label": "_totalDeprecatedReward",
        "offset": 0,
        "slot": "228",
        "type": "t_uint256"
      },
      {
        "astId": 36668,
        "contract": "contracts/ronin/validator/RoninValidatorSet.sol:RoninValidatorSet",
        "label": "_emergencyExitLockedAmount",
        "offset": 0,
        "slot": "229",
        "type": "t_uint256"
      },
      {
        "astId": 36671,
        "contract": "contracts/ronin/validator/RoninValidatorSet.sol:RoninValidatorSet",
        "label": "_emergencyExpiryDuration",
        "offset": 0,
        "slot": "230",
        "type": "t_uint256"
      },
      {
        "astId": 36675,
        "contract": "contracts/ronin/validator/RoninValidatorSet.sol:RoninValidatorSet",
        "label": "_lockedConsensusList",
        "offset": 0,
        "slot": "231",
        "type": "t_array(t_address)dyn_storage"
      },
      {
        "astId": 36681,
        "contract": "contracts/ronin/validator/RoninValidatorSet.sol:RoninValidatorSet",
        "label": "_exitInfo",
        "offset": 0,
        "slot": "232",
        "type": "t_mapping(t_address,t_struct(EmergencyExitInfo)10355_storage)"
      },
      {
        "astId": 36686,
        "contract": "contracts/ronin/validator/RoninValidatorSet.sol:RoninValidatorSet",
        "label": "_lockedFundReleased",
        "offset": 0,
        "slot": "233",
        "type": "t_mapping(t_address,t_bool)"
      },
      {
        "astId": 36691,
        "contract": "contracts/ronin/validator/RoninValidatorSet.sol:RoninValidatorSet",
        "label": "______gap",
        "offset": 0,
        "slot": "234",
        "type": "t_array(t_uint256)44_storage"
      }
    ],
    "types": {
      "t_address": {
        "encoding": "inplace",
        "label": "address",
        "numberOfBytes": "20"
      },
      "t_address_payable": {
        "encoding": "inplace",
        "label": "address payable",
        "numberOfBytes": "20"
      },
      "t_array(t_address)dyn_storage": {
        "encoding": "dynamic_array",
        "label": "address[]",
        "numberOfBytes": "32",
        "base": "t_address"
      },
      "t_array(t_uint256)44_storage": {
        "encoding": "inplace",
        "label": "uint256[44]",
        "numberOfBytes": "1408",
        "base": "t_uint256"
      },
      "t_array(t_uint256)48_storage": {
        "encoding": "inplace",
        "label": "uint256[48]",
        "numberOfBytes": "1536",
        "base": "t_uint256"
      },
      "t_array(t_uint256)49_storage": {
        "encoding": "inplace",
        "label": "uint256[49]",
        "numberOfBytes": "1568",
        "base": "t_uint256"
      },
      "t_array(t_uint256)50_storage": {
        "encoding": "inplace",
        "label": "uint256[50]",
        "numberOfBytes": "1600",
        "base": "t_uint256"
      },
      "t_bool": {
        "encoding": "inplace",
        "label": "bool",
        "numberOfBytes": "1"
      },
      "t_enum(ValidatorFlag)10875": {
        "encoding": "inplace",
        "label": "enum EnumFlags.ValidatorFlag",
        "numberOfBytes": "1"
      },
      "t_mapping(t_address,t_bool)": {
        "encoding": "mapping",
        "key": "t_address",
        "label": "mapping(address => bool)",
        "numberOfBytes": "32",
        "value": "t_bool"
      },
      "t_mapping(t_address,t_enum(ValidatorFlag)10875)": {
        "encoding": "mapping",
        "key": "t_address",
        "label": "mapping(address => enum EnumFlags.ValidatorFlag)",
        "numberOfBytes": "32",
        "value": "t_enum(ValidatorFlag)10875"
      },
      "t_mapping(t_address,t_mapping(t_uint256,t_bool))": {
        "encoding": "mapping",
        "key": "t_address",
        "label": "mapping(address => mapping(uint256 => bool))",
        "numberOfBytes": "32",
        "value": "t_mapping(t_uint256,t_bool)"
      },
      "t_mapping(t_address,t_struct(CommissionSchedule)9767_storage)": {
        "encoding": "mapping",
        "key": "t_address",
        "label": "mapping(address => struct ICandidateManager.CommissionSchedule)",
        "numberOfBytes": "32",
        "value": "t_struct(CommissionSchedule)9767_storage"
      },
      "t_mapping(t_address,t_struct(EmergencyExitInfo)10355_storage)": {
        "encoding": "mapping",
        "key": "t_address",
        "label": "mapping(address => struct ICommonInfo.EmergencyExitInfo)",
        "numberOfBytes": "32",
        "value": "t_struct(EmergencyExitInfo)10355_storage"
      },
      "t_mapping(t_address,t_struct(ValidatorCandidate)9760_storage)": {
        "encoding": "mapping",
        "key": "t_address",
        "label": "mapping(address => struct ICandidateManager.ValidatorCandidate)",
        "numberOfBytes": "32",
        "value": "t_struct(ValidatorCandidate)9760_storage"
      },
      "t_mapping(t_address,t_uint256)": {
        "encoding": "mapping",
        "key": "t_address",
        "label": "mapping(address => uint256)",
        "numberOfBytes": "32",
        "value": "t_uint256"
      },
      "t_mapping(t_uint256,t_address)": {
        "encoding": "mapping",
        "key": "t_uint256",
        "label": "mapping(uint256 => address)",
        "numberOfBytes": "32",
        "value": "t_address"
      },
      "t_mapping(t_uint256,t_bool)": {
        "encoding": "mapping",
        "key": "t_uint256",
        "label": "mapping(uint256 => bool)",
        "numberOfBytes": "32",
        "value": "t_bool"
      },
      "t_mapping(t_uint256,t_uint256)": {
        "encoding": "mapping",
        "key": "t_uint256",
        "label": "mapping(uint256 => uint256)",
        "numberOfBytes": "32",
        "value": "t_uint256"
      },
      "t_struct(CommissionSchedule)9767_storage": {
        "encoding": "inplace",
        "label": "struct ICandidateManager.CommissionSchedule",
        "numberOfBytes": "64",
        "members": [
          {
            "astId": 9763,
            "contract": "contracts/ronin/validator/RoninValidatorSet.sol:RoninValidatorSet",
            "label": "effectiveTimestamp",
            "offset": 0,
            "slot": "0",
            "type": "t_uint256"
          },
          {
            "astId": 9766,
            "contract": "contracts/ronin/validator/RoninValidatorSet.sol:RoninValidatorSet",
            "label": "commissionRate",
            "offset": 0,
            "slot": "1",
            "type": "t_uint256"
          }
        ]
      },
      "t_struct(EmergencyExitInfo)10355_storage": {
        "encoding": "inplace",
        "label": "struct ICommonInfo.EmergencyExitInfo",
        "numberOfBytes": "64",
        "members": [
          {
            "astId": 10352,
            "contract": "contracts/ronin/validator/RoninValidatorSet.sol:RoninValidatorSet",
            "label": "lockedAmount",
            "offset": 0,
            "slot": "0",
            "type": "t_uint256"
          },
          {
            "astId": 10354,
            "contract": "contracts/ronin/validator/RoninValidatorSet.sol:RoninValidatorSet",
            "label": "recyclingAt",
            "offset": 0,
            "slot": "1",
            "type": "t_uint256"
          }
        ]
      },
      "t_struct(ValidatorCandidate)9760_storage": {
        "encoding": "inplace",
        "label": "struct ICandidateManager.ValidatorCandidate",
        "numberOfBytes": "224",
        "members": [
          {
            "astId": 9740,
            "contract": "contracts/ronin/validator/RoninValidatorSet.sol:RoninValidatorSet",
            "label": "__shadowedAdmin",
            "offset": 0,
            "slot": "0",
            "type": "t_address"
          },
          {
            "astId": 9744,
            "contract": "contracts/ronin/validator/RoninValidatorSet.sol:RoninValidatorSet",
            "label": "__shadowedConsensus",
            "offset": 0,
            "slot": "1",
            "type": "t_userDefinedValueType(TConsensus)37964"
          },
          {
            "astId": 9747,
            "contract": "contracts/ronin/validator/RoninValidatorSet.sol:RoninValidatorSet",
            "label": "__shadowedTreasury",
            "offset": 0,
            "slot": "2",
            "type": "t_address_payable"
          },
          {
            "astId": 9750,
            "contract": "contracts/ronin/validator/RoninValidatorSet.sol:RoninValidatorSet",
            "label": "____deprecatedBridgeOperatorAddr",
            "offset": 0,
            "slot": "3",
            "type": "t_address"
          },
          {
            "astId": 9753,
            "contract": "contracts/ronin/validator/RoninValidatorSet.sol:RoninValidatorSet",
            "label": "commissionRate",
            "offset": 0,
            "slot": "4",
            "type": "t_uint256"
          },
          {
            "astId": 9756,
            "contract": "contracts/ronin/validator/RoninValidatorSet.sol:RoninValidatorSet",
            "label": "revokingTimestamp",
            "offset": 0,
            "slot": "5",
            "type": "t_uint256"
          },
          {
            "astId": 9759,
            "contract": "contracts/ronin/validator/RoninValidatorSet.sol:RoninValidatorSet",
            "label": "topupDeadline",
            "offset": 0,
            "slot": "6",
            "type": "t_uint256"
          }
        ]
      },
      "t_uint256": {
        "encoding": "inplace",
        "label": "uint256",
        "numberOfBytes": "32"
      },
      "t_uint8": {
        "encoding": "inplace",
        "label": "uint8",
        "numberOfBytes": "1"
      },
      "t_userDefinedValueType(TConsensus)37964": {
        "encoding": "inplace",
        "label": "TConsensus",
        "numberOfBytes": "20"
      }
    }
  },
  "timestamp": 1708420448,
  "userdoc": {
    "version": 1,
    "kind": "user"
  }
}