{
  "abi": [
    {
      "type": "constructor",
      "inputs": [],
      "stateMutability": "nonpayable"
    },
    {
      "type": "function",
      "name": "DEFAULT_ADDITION_GAS",
      "inputs": [],
      "outputs": [
        {
          "name": "",
          "type": "uint256",
          "internalType": "uint256"
        }
      ],
      "stateMutability": "view"
    },
    {
      "type": "function",
      "name": "PERIOD_DURATION",
      "inputs": [],
      "outputs": [
        {
          "name": "",
          "type": "uint256",
          "internalType": "uint256"
        }
      ],
      "stateMutability": "view"
    },
    {
      "type": "function",
      "name": "bulkSetValidatorThresholds",
      "inputs": [
        {
          "name": "validatorTypes",
          "type": "uint8[]",
          "internalType": "enum IRandomBeacon.ValidatorType[]"
        },
        {
          "name": "thresholds",
          "type": "uint256[]",
          "internalType": "uint256[]"
        }
      ],
      "outputs": [],
      "stateMutability": "nonpayable"
    },
    {
      "type": "function",
      "name": "execRequestRandomSeedForNextPeriod",
      "inputs": [
        {
          "name": "lastUpdatedPeriod",
          "type": "uint256",
          "internalType": "uint256"
        },
        {
          "name": "newPeriod",
          "type": "uint256",
          "internalType": "uint256"
        }
      ],
      "outputs": [],
      "stateMutability": "nonpayable"
    },
    {
      "type": "function",
      "name": "execWrapUpBeaconPeriod",
      "inputs": [
        {
          "name": "lastUpdatedPeriod",
          "type": "uint256",
          "internalType": "uint256"
        },
        {
          "name": "newPeriod",
          "type": "uint256",
          "internalType": "uint256"
        }
      ],
      "outputs": [],
      "stateMutability": "nonpayable"
    },
    {
      "type": "function",
      "name": "fulfillRandomSeed",
      "inputs": [
        {
          "name": "req",
          "type": "tuple",
          "internalType": "struct RandomRequest",
          "components": [
            {
              "name": "period",
              "type": "uint256",
              "internalType": "uint256"
            },
            {
              "name": "prevBeacon",
              "type": "uint256",
              "internalType": "uint256"
            }
          ]
        },
        {
          "name": "proof",
          "type": "tuple",
          "internalType": "struct VRF.Proof",
          "components": [
            {
              "name": "pk",
              "type": "uint256[2]",
              "internalType": "uint256[2]"
            },
            {
              "name": "gamma",
              "type": "uint256[2]",
              "internalType": "uint256[2]"
            },
            {
              "name": "c",
              "type": "uint256",
              "internalType": "uint256"
            },
            {
              "name": "s",
              "type": "uint256",
              "internalType": "uint256"
            },
            {
              "name": "seed",
              "type": "uint256",
              "internalType": "uint256"
            },
            {
              "name": "uWitness",
              "type": "address",
              "internalType": "address"
            },
            {
              "name": "cGammaWitness",
              "type": "uint256[2]",
              "internalType": "uint256[2]"
            },
            {
              "name": "sHashWitness",
              "type": "uint256[2]",
              "internalType": "uint256[2]"
            },
            {
              "name": "zInv",
              "type": "uint256",
              "internalType": "uint256"
            }
          ]
        }
      ],
      "outputs": [],
      "stateMutability": "nonpayable"
    },
    {
      "type": "function",
      "name": "getActivatedAtPeriod",
      "inputs": [],
      "outputs": [
        {
          "name": "",
          "type": "uint256",
          "internalType": "uint256"
        }
      ],
      "stateMutability": "view"
    },
    {
      "type": "function",
      "name": "getBeacon",
      "inputs": [
        {
          "name": "period",
          "type": "uint256",
          "internalType": "uint256"
        }
      ],
      "outputs": [
        {
          "name": "value",
          "type": "uint256",
          "internalType": "uint256"
        },
        {
          "name": "finalized",
          "type": "bool",
          "internalType": "bool"
        }
      ],
      "stateMutability": "view"
    },
    {
      "type": "function",
      "name": "getContract",
      "inputs": [
        {
          "name": "contractType",
          "type": "uint8",
          "internalType": "enum ContractType"
        }
      ],
      "outputs": [
        {
          "name": "contract_",
          "type": "address",
          "internalType": "address payable"
        }
      ],
      "stateMutability": "view"
    },
    {
      "type": "function",
      "name": "getLastFinalizedPeriod",
      "inputs": [],
      "outputs": [
        {
          "name": "",
          "type": "uint256",
          "internalType": "uint256"
        }
      ],
      "stateMutability": "view"
    },
    {
      "type": "function",
      "name": "getRequestHash",
      "inputs": [
        {
          "name": "period",
          "type": "uint256",
          "internalType": "uint256"
        }
      ],
      "outputs": [
        {
          "name": "reqHash",
          "type": "bytes32",
          "internalType": "bytes32"
        }
      ],
      "stateMutability": "view"
    },
    {
      "type": "function",
      "name": "getUnavailabilityCount",
      "inputs": [
        {
          "name": "cid",
          "type": "address",
          "internalType": "address"
        }
      ],
      "outputs": [
        {
          "name": "",
          "type": "uint256",
          "internalType": "uint256"
        }
      ],
      "stateMutability": "view"
    },
    {
      "type": "function",
      "name": "getUnavailabilitySlashThreshold",
      "inputs": [],
      "outputs": [
        {
          "name": "",
          "type": "uint256",
          "internalType": "uint256"
        }
      ],
      "stateMutability": "view"
    },
    {
      "type": "function",
      "name": "getValidatorThreshold",
      "inputs": [
        {
          "name": "validatorType",
          "type": "uint8",
          "internalType": "enum IRandomBeacon.ValidatorType"
        }
      ],
      "outputs": [
        {
          "name": "",
          "type": "uint256",
          "internalType": "uint256"
        }
      ],
      "stateMutability": "view"
    },
    {
      "type": "function",
      "name": "initialize",
      "inputs": [
        {
          "name": "profile",
          "type": "address",
          "internalType": "address"
        },
        {
          "name": "staking",
          "type": "address",
          "internalType": "address"
        },
        {
          "name": "trustedOrg",
          "type": "address",
          "internalType": "address"
        },
        {
          "name": "validatorSet",
          "type": "address",
          "internalType": "address"
        },
        {
          "name": "slashIndicator",
          "type": "address",
          "internalType": "address"
        },
        {
          "name": "slashThreshold",
          "type": "uint256",
          "internalType": "uint256"
        },
        {
          "name": "initialSeed",
          "type": "uint256",
          "internalType": "uint256"
        },
        {
          "name": "activatedAtPeriod",
          "type": "uint256",
          "internalType": "uint256"
        },
        {
          "name": "validatorTypes",
          "type": "uint8[]",
          "internalType": "enum IRandomBeacon.ValidatorType[]"
        },
        {
          "name": "thresholds",
          "type": "uint256[]",
          "internalType": "uint256[]"
        }
      ],
      "outputs": [],
      "stateMutability": "nonpayable"
    },
    {
      "type": "function",
      "name": "isSubmittedAt",
      "inputs": [
        {
          "name": "period",
          "type": "uint256",
          "internalType": "uint256"
        },
        {
          "name": "consensus",
          "type": "address",
          "internalType": "TConsensus"
        }
      ],
      "outputs": [
        {
          "name": "submitted",
          "type": "bool",
          "internalType": "bool"
        }
      ],
      "stateMutability": "view"
    },
    {
      "type": "function",
      "name": "isSubmittedAtById",
      "inputs": [
        {
          "name": "period",
          "type": "uint256",
          "internalType": "uint256"
        },
        {
          "name": "cid",
          "type": "address",
          "internalType": "address"
        }
      ],
      "outputs": [
        {
          "name": "submitted",
          "type": "bool",
          "internalType": "bool"
        }
      ],
      "stateMutability": "view"
    },
    {
      "type": "function",
      "name": "pickValidatorSet",
      "inputs": [
        {
          "name": "epoch",
          "type": "uint256",
          "internalType": "uint256"
        }
      ],
      "outputs": [
        {
          "name": "pickedCids",
          "type": "address[]",
          "internalType": "address[]"
        }
      ],
      "stateMutability": "view"
    },
    {
      "type": "function",
      "name": "setContract",
      "inputs": [
        {
          "name": "contractType",
          "type": "uint8",
          "internalType": "enum ContractType"
        },
        {
          "name": "addr",
          "type": "address",
          "internalType": "address"
        }
      ],
      "outputs": [],
      "stateMutability": "nonpayable"
    },
    {
      "type": "function",
      "name": "setUnavailabilitySlashThreshold",
      "inputs": [
        {
          "name": "threshold",
          "type": "uint256",
          "internalType": "uint256"
        }
      ],
      "outputs": [],
      "stateMutability": "nonpayable"
    },
    {
      "type": "event",
      "name": "BeaconFinalized",
      "inputs": [
        {
          "name": "period",
          "type": "uint256",
          "indexed": true,
          "internalType": "uint256"
        },
        {
          "name": "value",
          "type": "uint256",
          "indexed": false,
          "internalType": "uint256"
        }
      ],
      "anonymous": false
    },
    {
      "type": "event",
      "name": "ContractUpdated",
      "inputs": [
        {
          "name": "contractType",
          "type": "uint8",
          "indexed": true,
          "internalType": "enum ContractType"
        },
        {
          "name": "addr",
          "type": "address",
          "indexed": true,
          "internalType": "address"
        }
      ],
      "anonymous": false
    },
    {
      "type": "event",
      "name": "Initialized",
      "inputs": [
        {
          "name": "version",
          "type": "uint8",
          "indexed": false,
          "internalType": "uint8"
        }
      ],
      "anonymous": false
    },
    {
      "type": "event",
      "name": "RandomSeedFulfilled",
      "inputs": [
        {
          "name": "by",
          "type": "address",
          "indexed": true,
          "internalType": "address"
        },
        {
          "name": "period",
          "type": "uint256",
          "indexed": true,
          "internalType": "uint256"
        },
        {
          "name": "reqHash",
          "type": "bytes32",
          "indexed": true,
          "internalType": "bytes32"
        }
      ],
      "anonymous": false
    },
    {
      "type": "event",
      "name": "RandomSeedRequested",
      "inputs": [
        {
          "name": "period",
          "type": "uint256",
          "indexed": true,
          "internalType": "uint256"
        },
        {
          "name": "reqHash",
          "type": "bytes32",
          "indexed": true,
          "internalType": "bytes32"
        },
        {
          "name": "req",
          "type": "tuple",
          "indexed": false,
          "internalType": "struct RandomRequest",
          "components": [
            {
              "name": "period",
              "type": "uint256",
              "internalType": "uint256"
            },
            {
              "name": "prevBeacon",
              "type": "uint256",
              "internalType": "uint256"
            }
          ]
        }
      ],
      "anonymous": false
    },
    {
      "type": "event",
      "name": "SlashUnavailabilityThresholdUpdated",
      "inputs": [
        {
          "name": "value",
          "type": "uint256",
          "indexed": false,
          "internalType": "uint256"
        }
      ],
      "anonymous": false
    },
    {
      "type": "event",
      "name": "ValidatorSetSaved",
      "inputs": [
        {
          "name": "period",
          "type": "uint256",
          "indexed": true,
          "internalType": "uint256"
        },
        {
          "name": "pickedAll",
          "type": "bool",
          "indexed": false,
          "internalType": "bool"
        },
        {
          "name": "nRV",
          "type": "uint256",
          "indexed": false,
          "internalType": "uint256"
        },
        {
          "name": "nonRotatingValidators",
          "type": "address[]",
          "indexed": false,
          "internalType": "address[]"
        },
        {
          "name": "rotatingValidators",
          "type": "address[]",
          "indexed": false,
          "internalType": "address[]"
        },
        {
          "name": "rotatingStakeAmounts",
          "type": "uint256[]",
          "indexed": false,
          "internalType": "uint256[]"
        }
      ],
      "anonymous": false
    },
    {
      "type": "event",
      "name": "ValidatorThresholdUpdated",
      "inputs": [
        {
          "name": "validatorType",
          "type": "uint8",
          "indexed": true,
          "internalType": "enum IRandomBeacon.ValidatorType"
        },
        {
          "name": "threshold",
          "type": "uint256",
          "indexed": false,
          "internalType": "uint256"
        }
      ],
      "anonymous": false
    },
    {
      "type": "error",
      "name": "ErrAlreadySubmitted",
      "inputs": []
    },
    {
      "type": "error",
      "name": "ErrBeaconAlreadyFinalized",
      "inputs": [
        {
          "name": "period",
          "type": "uint256",
          "internalType": "uint256"
        }
      ]
    },
    {
      "type": "error",
      "name": "ErrBeaconNotFinalized",
      "inputs": [
        {
          "name": "period",
          "type": "uint256",
          "internalType": "uint256"
        }
      ]
    },
    {
      "type": "error",
      "name": "ErrContractTypeNotFound",
      "inputs": [
        {
          "name": "contractType",
          "type": "uint8",
          "internalType": "enum ContractType"
        }
      ]
    },
    {
      "type": "error",
      "name": "ErrInvalidKeyHash",
      "inputs": [
        {
          "name": "expected",
          "type": "bytes32",
          "internalType": "bytes32"
        },
        {
          "name": "actual",
          "type": "bytes32",
          "internalType": "bytes32"
        }
      ]
    },
    {
      "type": "error",
      "name": "ErrInvalidPeriod",
      "inputs": []
    },
    {
      "type": "error",
      "name": "ErrInvalidProof",
      "inputs": []
    },
    {
      "type": "error",
      "name": "ErrInvalidRandomRequest",
      "inputs": [
        {
          "name": "expected",
          "type": "bytes32",
          "internalType": "bytes32"
        },
        {
          "name": "got",
          "type": "bytes32",
          "internalType": "bytes32"
        }
      ]
    },
    {
      "type": "error",
      "name": "ErrInvalidThresholdConfig",
      "inputs": []
    },
    {
      "type": "error",
      "name": "ErrKeyHashChangeCooldownNotEnded",
      "inputs": []
    },
    {
      "type": "error",
      "name": "ErrLengthMismatch",
      "inputs": []
    },
    {
      "type": "error",
      "name": "ErrLengthMismatch",
      "inputs": [
        {
          "name": "msgSig",
          "type": "bytes4",
          "internalType": "bytes4"
        }
      ]
    },
    {
      "type": "error",
      "name": "ErrNotActivated",
      "inputs": [
        {
          "name": "untilPeriod",
          "type": "uint256",
          "internalType": "uint256"
        }
      ]
    },
    {
      "type": "error",
      "name": "ErrOutOfRange",
      "inputs": [
        {
          "name": "index",
          "type": "uint256",
          "internalType": "uint256"
        }
      ]
    },
    {
      "type": "error",
      "name": "ErrRegisterCoolDownNotEnded",
      "inputs": []
    },
    {
      "type": "error",
      "name": "ErrUnauthorized",
      "inputs": [
        {
          "name": "msgSig",
          "type": "bytes4",
          "internalType": "bytes4"
        },
        {
          "name": "expectedRole",
          "type": "uint8",
          "internalType": "enum RoleAccess"
        }
      ]
    },
    {
      "type": "error",
      "name": "ErrUnauthorizedCall",
      "inputs": [
        {
          "name": "msgSig",
          "type": "bytes4",
          "internalType": "bytes4"
        }
      ]
    },
    {
      "type": "error",
      "name": "ErrUnexpectedInternalCall",
      "inputs": [
        {
          "name": "msgSig",
          "type": "bytes4",
          "internalType": "bytes4"
        },
        {
          "name": "expectedContractType",
          "type": "uint8",
          "internalType": "enum ContractType"
        },
        {
          "name": "actual",
          "type": "address",
          "internalType": "address"
        }
      ]
    },
    {
      "type": "error",
      "name": "ErrZeroCodeContract",
      "inputs": [
        {
          "name": "addr",
          "type": "address",
          "internalType": "address"
        }
      ]
    }
  ],
  "absolutePath": "RoninRandomBeacon.sol",
  "address": "0x4eafa484065eccbe68381a8a2e51a3137068c2c1",
  "blockNumber": 27582690,
  "bytecode": "0x6080604052348015600f57600080fd5b506016601a565b60d8565b600054610100900460ff161560855760405162461bcd60e51b815260206004820152602760248201527f496e697469616c697a61626c653a20636f6e747261637420697320696e697469604482015266616c697a696e6760c81b606482015260840160405180910390fd5b60005460ff908116101560d6576000805460ff191660ff9081179091556040519081527f7f26b83ff96e1f2b6a682f133852f6798a09c465da95921460cefb38474024989060200160405180910390a15b565b613cb0806100e76000396000f3fe608060405234801561001057600080fd5b506004361061016c5760003560e01c80638557c641116100cd578063de981f1b11610081578063e3a4376511610066578063e3a437651461033c578063e6c933a41461034f578063f5a77abb1461036f57600080fd5b8063de981f1b146102fe578063e02f62711461032957600080fd5b806390caecc2116100b257806390caecc2146102a8578063917a65bd146102ee578063d1bd2f01146102f657600080fd5b80638557c64114610282578063865e6fd31461029557600080fd5b806339ea01481161012457806346337c2f1161010957806346337c2f146102195780636558954f14610265578063769877721461026f57600080fd5b806339ea0148146101dd5780633a570332146101f057600080fd5b806311ed98f71161015557806311ed98f7146101a05780633355b0f0146101a857806335188e31146101bd57600080fd5b8063035d0062146101715780630382788414610197575b600080fd5b61018461017f366004613347565b610382565b6040519081526020015b60405180910390f35b6101846104b081565b603454610184565b6101bb6101b6366004613368565b6103c1565b005b6101846101cb366004613368565b60009081526037602052604090205490565b6101bb6101eb366004613381565b6103d5565b6101846101fe3660046133e8565b6001600160a01b031660009081526036602052604090205490565b610255610227366004613405565b60009182526037602090815260408084206001600160a01b0390931684526003909201905290205460ff1690565b604051901515815260200161018e565b6101846201518081565b6101bb61027d366004613435565b61062a565b6101bb6102903660046134a3565b6107f1565b6101bb6102a33660046135a0565b610975565b6102d96102b6366004613368565b60009081526037602052604090206001810154600290910154909160ff90911690565b6040805192835290151560208301520161018e565b603554610184565b603354610184565b61031161030c3660046135cc565b610994565b6040516001600160a01b03909116815260200161018e565b610255610337366004613405565b610a28565b6101bb61034a366004613435565b610af4565b61036261035d366004613368565b610b61565b60405161018e919061362c565b6101bb61037d36600461363f565b610be3565b60006038600083600481111561039a5761039a6136ab565b60048111156103ab576103ab6136ab565b8152602001908152602001600020549050919050565b6103c9610bf7565b6103d281610c6d565b50565b60006103ee6103e936859003850185613755565b610ca8565b60408051808201825291925060009161041f9185906002908390839080828437600092019190915250610ceb915050565b9050600061042d600f610994565b90506000806000836001600160a01b03166348b2c382866040518263ffffffff1660e01b815260040161046291815260200190565b606060405180830381865afa15801561047f573d6000803e3d6000fd5b505050506040513d601f19601f820116820180604052508101906104a39190613787565b92509250925060006104b56008610994565b6001600160a01b031663060406186040518163ffffffff1660e01b8152600401602060405180830381865afa1580156104f2573d6000803e3d6000fd5b505050506040513d601f19601f8201168201806040525081019061051691906137be565b893560009081526037602052604090209091506105358a82848b610cfe565b610540858484610e06565b61054d8a8a848a88610f2e565b6001600160a01b038516600090815260038201602052604090205460ff16156105a2576040517f23afea6300000000000000000000000000000000000000000000000000000000815260040160405180910390fd5b6001600160a01b03851660009081526003820160205260409020805460ff191660011790556105e36105d9368b90038b018b613827565b8a60c00135610fd1565b600182018054909118905560405188908b359033907f9c42f0e233770417c75c168e2ec97a2db8e34b756d12f8e002e90d144f4a16cc90600090a450505050505050505050565b60086106358161103c565b8160335481106107eb5760008381526037602052604081209061065833876110a1565b90506000610666600a610994565b6001600160a01b0316632cccb53c836040518263ffffffff1660e01b8152600401610691919061362c565b600060405180830381865afa1580156106ae573d6000803e3d6000fd5b505050506040513d6000823e601f3d908101601f191682016040526106d691908101906138ef565b90506106e28387611275565b6106ee838884846112ce565b60386020527f44eb26011dd1cf82e0b45a2fb60b23f01ab68cabbe2fe1f3e7b70c0873d5dc5b547f76ace02705df1df747e114090468e0edd81a8d99edc641fff18613cd34df0a6e5460046000527fcc8ed3027127ab69e71f55f03e2b60fb19c73a8aa6226b8d2256163b82f4941f546107e79289929091866107716009610994565b6001600160a01b0316635a2ac073896040518263ffffffff1660e01b815260040161079c919061362c565b600060405180830381865afa1580156107b9573d6000803e3d6000fd5b505050506040513d6000823e601f3d908101601f191682016040526107e191908101906138ef565b87611492565b5050505b50505050565b600054610100900460ff16158080156108115750600054600160ff909116105b8061082b5750303b15801561082b575060005460ff166001145b6108a25760405162461bcd60e51b815260206004820152602e60248201527f496e697469616c697a61626c653a20636f6e747261637420697320616c72656160448201527f647920696e697469616c697a656400000000000000000000000000000000000060648201526084015b60405180910390fd5b6000805460ff1916600117905580156108c5576000805461ff0019166101001790555b60338690556108d388610c6d565b6108dd86886115a0565b6108e98585858561161f565b6108f4600f8e61181d565b6108ff60098d61181d565b61090a60088b61181d565b61091560068a61181d565b610920600a8c61181d565b8015610966576000805461ff0019169055604051600181527f7f26b83ff96e1f2b6a682f133852f6798a09c465da95921460cefb38474024989060200160405180910390a15b50505050505050505050505050565b61097d610bf7565b610986816118ce565b610990828261181d565b5050565b60007fdea3103d22025c269050bea94c0c84688877f12fa22b7e6d2d5d78a9a49aa1cb60008360108111156109cb576109cb6136ab565b60ff1681526020810191909152604001600020546001600160a01b0316905080610a2357816040517f812281be0000000000000000000000000000000000000000000000000000000081526004016108999190613999565b919050565b600080610a35600f610994565b6040517f50a9fc290000000000000000000000000000000000000000000000000000000081526001600160a01b0385811660048301529192506000918316906350a9fc2990602401602060405180830381865afa158015610a9a573d6000803e3d6000fd5b505050506040513d601f19601f82011682018060405250810190610abe91906139a7565b60008681526037602090815260408083206001600160a01b0394909416835260039093019052205460ff16925050505b92915050565b6008610aff8161103c565b8160335481106107eb578284108015610b1857506107eb565b6000610b258660016139c4565b60008181526037602052604081205491925003610b5957600086815260376020526040902060010154610b599082906115a0565b505050505050565b60606008610b6e8161103c565b6000610b794261191d565b600081815260376020526040902060028101549192509060ff16610bcc576040517fc999069300000000000000000000000000000000000000000000000000000000815260048101839052602401610899565b610bda85826001015461192c565b95945050505050565b610beb610bf7565b6107eb8484848461161f565b7fb53127684a568b3173ae13b9f8a6016e243e63b6e8ee1178d6a717850b5d6103546001600160a01b03163314610c6b576000356001600160e01b03191660016040517f3e523c000000000000000000000000000000000000000000000000000000000081526004016108999291906139e5565b565b60358190556040518181527fc642d5e4298fca4d2285021791ffdf4afce31ec672299930b7ada0047b15d2439060200160405180910390a150565b600081600001518260200151604051602001610cce929190918252602082015260400190565b604051602081830303815290604052805190602001209050919050565b600081604051602001610cce9190613a36565b83358210610d38576040517fca5d513700000000000000000000000000000000000000000000000000000000815260040160405180910390fd5b60335484351015610d78576040517fba59f28e00000000000000000000000000000000000000000000000000000000815284356004820152602401610899565b600283015460ff1615610dba576040517fe7bba8d800000000000000000000000000000000000000000000000000000000815284356004820152602401610899565b8254818114610dff576040517f639beb990000000000000000000000000000000000000000000000000000000081526004810182905260248101839052604401610899565b5050505050565b6000610e12600a610994565b6040517fb8cc3a500000000000000000000000000000000000000000000000000000000081526001600160a01b0386811660048301529192509082169063b8cc3a5090602401602060405180830381865afa158015610e75573d6000803e3d6000fd5b505050506040513d601f19601f82011682018060405250810190610e9991906137be565b600003610ee0576040517f8f47e7e30000000000000000000000000000000000000000000000000000000081526001600160e01b0319600035166004820152602401610899565b816000610eec8561191d565b610ef691906139c4565b11156107eb576040517f215a8fc500000000000000000000000000000000000000000000000000000000815260040160405180910390fd5b826000610f3a8361191d565b610f4491906139c4565b1115610f7c576040517fe946d63300000000000000000000000000000000000000000000000000000000815260040160405180910390fd5b60c0840135610f9a83610f9436899003890189613755565b90611b0c565b14610dff576040517f1420993200000000000000000000000000000000000000000000000000000000815260040160405180910390fd5b60006110058360000151846020015185604001518660600151868860a001518960c001518a60e001518b6101000151611b38565b6003836020015160405160200161101d929190613a44565b60408051601f1981840301815291905280516020909101209392505050565b61104581610994565b6001600160a01b0316336001600160a01b0316146103d2576000356001600160e01b03191681336040517f8383e63400000000000000000000000000000000000000000000000000000000815260040161089993929190613a58565b60606000806000856001600160a01b031663c4e227f36040518163ffffffff1660e01b8152600401600060405180830381865afa1580156110e6573d6000803e3d6000fd5b505050506040513d6000823e601f3d908101601f1916820160405261110e9190810190613a8d565b9050600061111c600f610994565b6001600160a01b031663c621ab58836040518263ffffffff1660e01b8152600401611147919061362c565b600060405180830381865afa158015611164573d6000803e3d6000fd5b505050506040513d6000823e601f3d908101601f1916820160405261118c91908101906138ef565b82519091508067ffffffffffffffff8111156111aa576111aa6136c1565b6040519080825280602002602001820160405280156111d3578160200160208202803683370190505b50955060005b818110156112665787856112058584815181106111f8576111f8613b1c565b602002602001015161191d565b011161125e5783818151811061121d5761121d613b1c565b602002602001015187878060010198508151811061123d5761123d613b1c565b60200260200101906001600160a01b031690816001600160a01b0316815250505b6001016111d9565b50848652505050505092915050565b60028201805460ff19166001908117909155603482905582015460405182917fd31a863f0b5130ba75e27a3764828141ba7bc06056dfcdade31d12ab52a42784916112c291815260200190565b60405180910390a25050565b826033548110610dff5760006112e46006610994565b8451603554919250600091829190825b828110156114855787818151811061130e5761130e613b1c565b602002602001015160001461147d5788818151811061132f5761132f613b1c565b6020026020010151945060366000866001600160a01b03166001600160a01b031681526020019081526020016000205493508a6003016000866001600160a01b03166001600160a01b0316815260200190815260200160002060009054906101000a900460ff16156113c05783156113bb576001600160a01b0385166000908152603660205260408120555b61147d565b6001600160a01b038516600090815260366020526040902060019094019384905581841061147d576040517f35cbdbe30000000000000000000000000000000000000000000000000000000081526001600160a01b038681166004830152602482018c90528716906335cbdbe390604401600060405180830381600087803b15801561144b57600080fd5b505af115801561145f573d6000803e3d6000fd5b5050506001600160a01b038616600090815260366020526040812055505b6001016112f4565b5050505050505050505050565b82518251811480156114a45750815181145b6114c15760405163ab3a7f9960e01b815260040160405180910390fd5b808587890101106114dc576114d68885611d73565b506107e7565b60006114e782611e96565b905060006114f483611f14565b905060006115058386611f78611fa0565b905061151c611514878361205c565b82908c612111565b90506115288282612139565b5080518a0398909801976000611541848461224761226a565b9050611550611514888361205c565b905061155c8382612139565b50600061156c858561224761226a565b90506109668d8b6115876115808787612283565b8d90612399565b6115918d86612399565b61159b8d8761205c565b6123ab565b604080518082019091528281526020810182905260006115bf82610ca8565b82516000908152603760209081526040918290208390558151855181528186015191810191909152919250829186917fd5609ba18c38af4207dc13061bcbfc3fe68cbe32e5e55d664b27097501bb5f7d910160405180910390a350505050565b82818114611667576040517f1ad599d40000000000000000000000000000000000000000000000000000000081526001600160e01b0319600035166004820152602401610899565b60008060005b8381101561173f5787878281811061168757611687613b1c565b905060200201602081019061169c9190613347565b91508585828181106116b0576116b0613b1c565b90506020020135925082603860008460048111156116d0576116d06136ab565b60048111156116e1576116e16136ab565b8152602081019190915260400160002055816004811115611704576117046136ab565b6040518481527f57e533b2b2703988ec2b03256b82a8f952d21aecdcb8644c531a3020210089069060200160405180910390a260010161166d565b5060386020527f33a28b70ecab075fc507d0cb5ffac06e3bc912aa6c671a1fa4ccb48318e19b11547fcc8ed3027127ab69e71f55f03e2b60fb19c73a8aa6226b8d2256163b82f4941f547f76ace02705df1df747e114090468e0edd81a8d99edc641fff18613cd34df0a6e5460026000527f44eb26011dd1cf82e0b45a2fb60b23f01ab68cabbe2fe1f3e7b70c0873d5dc5b546117dc91906139c4565b6117e691906139c4565b146107e7576040517f970f2d6400000000000000000000000000000000000000000000000000000000815260040160405180910390fd5b807fdea3103d22025c269050bea94c0c84688877f12fa22b7e6d2d5d78a9a49aa1cb6000846010811115611853576118536136ab565b60ff1681526020810191909152604001600020805473ffffffffffffffffffffffffffffffffffffffff19166001600160a01b0392831617905581168260108111156118a1576118a16136ab565b6040517f865d1c228a8ea13709cfe61f346f7ff67f1bbd4a18ff31ad3e7147350d317c5990600090a35050565b806001600160a01b03163b6000036103d2576040517f2ff1928c0000000000000000000000000000000000000000000000000000000081526001600160a01b0382166004820152602401610899565b6000610aee6201518083613b48565b7f8593e13447c7ce85611f094407732145bce33e516174eca63d12235f140226008054606091907f8593e13447c7ce85611f094407732145bce33e516174eca63d12235f140226049060ff16156119dc578054604080516020808402820181019092528281529183918301828280156119ce57602002820191906000526020600020905b81546001600160a01b031681526001909101906020018083116119b0575b505050505092505050610aee565b6000826001019050600081600101805480602002602001604051908101604052809291908181526020018280548015611a3e57602002820191906000526020600020905b81546001600160a01b03168152600190910190602001808311611a20575b505085549394505061ffff9092169150506000819003611a6457509350610aee92505050565b600083600201805480602002602001604051908101604052809291908181526020016000905b82821015611ade57600084815260209081902060408051808201909152908401546001600160a01b0381168252600160a01b90046bffffffffffffffffffffffff1681830152825260019092019101611a8a565b5050505090506000611af282848b8d612564565b9050611afe8482612717565b9a9950505050505050505050565b81516020808401516040805192830193909352918101919091526060810182905260009060800161101d565b611b4189612726565b611b8d5760405162461bcd60e51b815260206004820152601a60248201527f7075626c6963206b6579206973206e6f74206f6e2063757276650000000000006044820152606401610899565b611b9688612726565b611be25760405162461bcd60e51b815260206004820152601560248201527f67616d6d61206973206e6f74206f6e20637572766500000000000000000000006044820152606401610899565b611beb83612726565b611c375760405162461bcd60e51b815260206004820152601d60248201527f6347616d6d615769746e657373206973206e6f74206f6e2063757276650000006044820152606401610899565b611c4082612726565b611c8c5760405162461bcd60e51b815260206004820152601c60248201527f73486173685769746e657373206973206e6f74206f6e206375727665000000006044820152606401610899565b611c98878a88876127ff565b611ce45760405162461bcd60e51b815260206004820152601960248201527f6164647228632a706b2b732a6729213d5f755769746e657373000000000000006044820152606401610899565b6000611cf08a87612934565b90506000611d03898b878b868989612998565b90506000611d14838d8d8a86612ac4565b9050808a14611d655760405162461bcd60e51b815260206004820152600d60248201527f696e76616c69642070726f6f66000000000000000000000000000000000000006044820152606401610899565b505050505050505050505050565b7f8593e13447c7ce85611f094407732145bce33e516174eca63d12235f14022600805460ff1916600117815581517f8593e13447c7ce85611f094407732145bce33e516174eca63d12235f1402260190611df3907f8593e13447c7ce85611f094407732145bce33e516174eca63d12235f14022604906020860190613248565b50805461ffff19168155611e0b6002820160006132ba565b611e196001820160006132ba565b837f32c9c468454fcf853e08d256000b08598539a799e849e0e7d8309c15eeb53ec3600160008681604051908082528060200260200182016040528015611e6a578160200160208202803683370190505b5060408051600081526020810191829052611e889594939291613b8d565b60405180910390a250505050565b60608167ffffffffffffffff811115611eb157611eb16136c1565b604051908082528060200260200182016040528015611eda578160200160208202803683370190505b50905060005b82811015611f0e5780828281518110611efb57611efb613b1c565b6020908102919091010152600101611ee0565b50919050565b60408051602081019091526060815261010061ffff83160460010167ffffffffffffffff811115611f4757611f476136c1565b604051908082528060200260200182016040528015611f70578160200160208202803683370190505b508152919050565b6000818381518110611f8c57611f8c613b1c565b602002602001015160001415905092915050565b82516060908067ffffffffffffffff811115611fbe57611fbe6136c1565b604051908082528060200260200182016040528015611fe7578160200160208202803683370190505b5091506000805b828110156120505761200481878763ffffffff16565b156120485786818151811061201b5761201b613b1c565b602002602001015184838060010194508151811061203b5761203b613b1c565b6020026020010181815250505b600101611fee565b508252505b9392505050565b80516060908067ffffffffffffffff81111561207a5761207a6136c1565b6040519080825280602002602001820160405280156120a3578160200160208202803683370190505b50915060005b8181101561210957848482815181106120c4576120c4613b1c565b6020026020010151815181106120dc576120dc613b1c565b60200260200101518382815181106120f6576120f6613b1c565b60209081029190910101526001016120a9565b505092915050565b82516060908083106121265784915050612055565b6121308585612b04565b50505082525090565b604080516020810190915260608152815183515160009161010091835b8281101561223b578387828151811061217157612171613b1c565b60200260200101518161218657612186613b32565b0494508185106121df578681815181106121a2576121a2613b1c565b60200260200101516040517f26d9bac100000000000000000000000000000000000000000000000000000000815260040161089991815260200190565b838782815181106121f2576121f2613b1c565b60200260200101518161220757612207613b32565b066001901b8860000151868151811061222257612222613b1c565b6020908102919091010180519091179052600101612156565b50959695505050505050565b60408051602081019091528181526000906122629084612b10565b159392505050565b606061227b84846000015184611fa0565b949350505050565b8151815160609190600082900361229e578392505050610aee565b806000036122b0578492505050610aee565b80820167ffffffffffffffff8111156122cb576122cb6136c1565b6040519080825280602002602001820160405280156122f4578160200160208202803683370190505b50925060005b828110156123415785818151811061231457612314613b1c565b602002602001015184828151811061232e5761232e613b1c565b60209081029190910101526001016122fa565b60005b8281101561238f5785818151811061235e5761235e613b1c565b602002602001015185838151811061237857612378613b1c565b602090810291909101015260019182019101612344565b5050505092915050565b60606120556123a8848461205c565b90565b7f8593e13447c7ce85611f094407732145bce33e516174eca63d12235f14022600805460ff191681557f8593e13447c7ce85611f094407732145bce33e516174eca63d12235f140226016124207f8593e13447c7ce85611f094407732145bce33e516174eca63d12235f1402260460006132ba565b61242e6002820160006132ba565b84516124439060018301906020880190613248565b50867f32c9c468454fcf853e08d256000b08598539a799e849e0e7d8309c15eeb53ec360008888888860405161247d959493929190613b8d565b60405180910390a285600003612494575050610dff565b805461ffff191661ffff8716178155600083855160408051808201909152600080825260208201529192509060005b82811015611485578781815181106124dd576124dd613b1c565b60209081029190910101516001600160a01b03168252835184908290811061250757612507613b1c565b6020908102919091018101516bffffffffffffffffffffffff9081168483019081526002880180546001818101835560009283529490912086519251909316600160a01b026001600160a01b0390921691909117910155016124c3565b83516060908067ffffffffffffffff811115612582576125826136c1565b6040519080825280602002602001820160405280156125ab578160200160208202803683370190505b50915060008167ffffffffffffffff8111156125c9576125c96136c1565b6040519080825280602002602001820160405280156125f2578160200160208202803683370190505b50905060008060008060405190508881528760208201526060810160405260005b868110156126fc578b818151811061262d5761262d613b1c565b60200260200101516000015194508488828151811061264e5761264e613b1c565b60200260200101906001600160a01b031690816001600160a01b0316815250508b818151811061268057612680613b1c565b6020026020010151602001516bffffffffffffffffffffffff169250846040830152606082206fffffffffffffffffffffffffffffffff81168160801c9150670de0b6b3a76400008504828218818202029650505050838682815181106126e9576126e9613b1c565b6020908102919091010152600101612613565b5061270887868c612b7b565b9b9a5050505050505050505050565b60606120556123a88484612283565b80516000906401000003d0191161277f5760405162461bcd60e51b815260206004820152601260248201527f696e76616c696420782d6f7264696e61746500000000000000000000000000006044820152606401610899565b60208201516401000003d019116127d85760405162461bcd60e51b815260206004820152601260248201527f696e76616c696420792d6f7264696e61746500000000000000000000000000006044820152606401610899565b60208201516401000003d0199080096127f88360005b6020020151612b8b565b1492915050565b60006001600160a01b0382166128575760405162461bcd60e51b815260206004820152600b60248201527f626164207769746e6573730000000000000000000000000000000000000000006044820152606401610899565b60208401516000906001161561286e57601c612871565b601b5b9050600070014551231950b75fc4402da1732fc9bebe1985876000602002015109865170014551231950b75fc4402da1732fc9bebe19918203925060009190890987516040805160008082526020820180845287905260ff88169282019290925260608101929092526080820183905291925060019060a0016020604051602081039080840390855afa15801561290c573d6000803e3d6000fd5b5050604051601f1901516001600160a01b039081169088161495505050505050949350505050565b61293c6132d8565b6129696001848460405160200161295593929190613bd4565b604051602081830303815290604052612baf565b90505b61297581612726565b610aee5780516040805160208101929092526129919101612955565b905061296c565b6129a06132d8565b825186516401000003d01991829006919006036129ff5760405162461bcd60e51b815260206004820152601e60248201527f706f696e747320696e2073756d206d7573742062652064697374696e637400006044820152606401610899565b612a0a878988612bfc565b612a565760405162461bcd60e51b815260206004820152601660248201527f4669727374206d756c20636865636b206661696c6564000000000000000000006044820152606401610899565b612a61848685612bfc565b612aad5760405162461bcd60e51b815260206004820152601760248201527f5365636f6e64206d756c20636865636b206661696c65640000000000000000006044820152606401610899565b612ab8868484612d39565b98975050505050505050565b600060028686868587604051602001612ae296959493929190613bf5565b60408051601f1981840301815291905280516020909101209695505050505050565b60606120558383612e00565b8151516000906101009081028310612b2c576000915050610aee565b808381612b3b57612b3b613b32565b066001901b8460000151828581612b5457612b54613b32565b0481518110612b6557612b65613b1c565b6020026020010151166000141591505092915050565b606061227b6123a8858585612111565b6000806401000003d01980848509840990506401000003d019600782089392505050565b612bb76132d8565b612bc082612e48565b8152612bd5612bd08260006127ee565b612e83565b6020820181905260029006600103610a23576020810180516401000003d019039052919050565b600082600003612c4e5760405162461bcd60e51b815260206004820152600b60248201527f7a65726f207363616c61720000000000000000000000000000000000000000006044820152606401610899565b83516020850151600090612c6490600290613c54565b15612c7057601c612c73565b601b5b9050600070014551231950b75fc4402da1732fc9bebe198387096040805160008082526020820180845281905260ff86169282019290925260608101869052608081018390529192509060019060a0016020604051602081039080840390855afa158015612ce5573d6000803e3d6000fd5b505050602060405103519050600086604051602001612d049190613c68565b60408051601f1981840301815291905280516020909101206001600160a01b0392831692169190911498975050505050505050565b612d416132d8565b835160208086015185519186015160009384938493612d6293909190612ea3565b919450925090506401000003d019858209600114612dc25760405162461bcd60e51b815260206004820152601960248201527f696e765a206d75737420626520696e7665727365206f66207a000000000000006044820152606401610899565b60405180604001604052806401000003d01980612de157612de1613b32565b87860981526020016401000003d0198785099052979650505050505050565b81518151606091908114612e275760405163ab3a7f9960e01b815260040160405180910390fd5b6001811115612e4057612e408484600060018503612f83565b509192915050565b805160208201205b6401000003d0198110610a2357604080516020808201939093528151808203840181529082019091528051910120612e50565b6000610aee826002612e9c6401000003d01960016139c4565b901c613136565b60008080600180826401000003d019896401000003d019038808905060006401000003d0198b6401000003d019038a0890506000612ee3838385856131db565b9098509050612ef488828e886131ff565b9098509050612f0588828c876131ff565b90985090506000612f188d878b856131ff565b9098509050612f29888286866131db565b9098509050612f3a88828e896131ff565b9098509050818114612f6f576401000003d019818a0998506401000003d01982890997506401000003d0198183099650612f73565b8196505b5050505050509450945094915050565b8181146107eb57825182908290600090869083850160011c908110612faa57612faa613b1c565b602002602001015190505b81831361310e575b858381518110612fcf57612fcf613b1c565b6020026020010151811015612fe957826001019250612fbd565b80868381518110612ffc57612ffc613b1c565b602002602001015110156130165760001990910190612fe9565b8183136131095786828151811061302f5761302f613b1c565b602002602001015187848151811061304957613049613b1c565b602002602001015188858151811061306357613063613b1c565b6020026020010189858151811061307c5761307c613b1c565b602002602001018281525082815250505085828151811061309f5761309f613b1c565b60200260200101518684815181106130b9576130b9613b1c565b60200260200101518785815181106130d3576130d3613b1c565b602002602001018885815181106130ec576130ec613b1c565b602090810291909101019190915252600190920191600019909101905b612fb5565b818512156131225761312287878785612f83565b838312156107e7576107e787878587612f83565b6000806131416132f6565b6020808252818101819052604082015260608101859052608081018490526401000003d01960a0820152613173613314565b60208160c0846005600019fa9250826000036131d15760405162461bcd60e51b815260206004820152601260248201527f6269674d6f64457870206661696c7572652100000000000000000000000000006044820152606401610899565b5195945050505050565b6000806401000003d0198487096401000003d0198487099097909650945050505050565b600080806401000003d019878509905060006401000003d01987876401000003d019030990506401000003d0198183086401000003d01986890990999098509650505050505050565b8280548282559060005260206000209081019282156132aa579160200282015b828111156132aa578251825473ffffffffffffffffffffffffffffffffffffffff19166001600160a01b03909116178255602090920191600190910190613268565b506132b6929150613332565b5090565b50805460008255906000526020600020908101906103d29190613332565b60405180604001604052806002906020820280368337509192915050565b6040518060c001604052806006906020820280368337509192915050565b60405180602001604052806001906020820280368337509192915050565b5b808211156132b65760008155600101613333565b60006020828403121561335957600080fd5b81356005811061205557600080fd5b60006020828403121561337a57600080fd5b5035919050565b6000808284036101e081121561339657600080fd5b60408112156133a457600080fd5b8392506101a0603f19820112156133ba57600080fd5b506040830190509250929050565b6001600160a01b03811681146103d257600080fd5b8035610a23816133c8565b6000602082840312156133fa57600080fd5b8135612055816133c8565b6000806040838503121561341857600080fd5b82359150602083013561342a816133c8565b809150509250929050565b6000806040838503121561344857600080fd5b50508035926020909101359150565b60008083601f84011261346957600080fd5b50813567ffffffffffffffff81111561348157600080fd5b6020830191508360208260051b850101111561349c57600080fd5b9250929050565b6000806000806000806000806000806000806101408d8f0312156134c657600080fd5b6134cf8d6133dd565b9b506134dd60208e016133dd565b9a506134eb60408e016133dd565b99506134f960608e016133dd565b985061350760808e016133dd565b975060a08d0135965060c08d0135955060e08d0135945067ffffffffffffffff6101008e0135111561353857600080fd5b6135498e6101008f01358f01613457565b909450925067ffffffffffffffff6101208e0135111561356857600080fd5b6135798e6101208f01358f01613457565b81935080925050509295989b509295989b509295989b565b803560118110610a2357600080fd5b600080604083850312156135b357600080fd5b6135bc83613591565b9150602083013561342a816133c8565b6000602082840312156135de57600080fd5b61205582613591565b60008151808452602080850194506020840160005b838110156136215781516001600160a01b0316875295820195908201906001016135fc565b509495945050505050565b60208152600061205560208301846135e7565b6000806000806040858703121561365557600080fd5b843567ffffffffffffffff8082111561366d57600080fd5b61367988838901613457565b9096509450602087013591508082111561369257600080fd5b5061369f87828801613457565b95989497509550505050565b634e487b7160e01b600052602160045260246000fd5b634e487b7160e01b600052604160045260246000fd5b6040805190810167ffffffffffffffff811182821017156136fa576136fa6136c1565b60405290565b604051610120810167ffffffffffffffff811182821017156136fa576136fa6136c1565b604051601f8201601f1916810167ffffffffffffffff8111828210171561374d5761374d6136c1565b604052919050565b60006040828403121561376757600080fd5b61376f6136d7565b82358152602083013560208201528091505092915050565b60008060006060848603121561379c57600080fd5b83516137a7816133c8565b602085015160409095015190969495509392505050565b6000602082840312156137d057600080fd5b5051919050565b600082601f8301126137e857600080fd5b6137f06136d7565b80604084018581111561380257600080fd5b845b8181101561381c578035845260209384019301613804565b509095945050505050565b60006101a0828403121561383a57600080fd5b613842613700565b61384c84846137d7565b815261385b84604085016137d7565b60208201526080830135604082015260a0830135606082015260c0830135608082015261388a60e084016133dd565b60a082015261010061389e858286016137d7565b60c08301526138b18561014086016137d7565b60e083015261018084013581830152508091505092915050565b600067ffffffffffffffff8211156138e5576138e56136c1565b5060051b60200190565b6000602080838503121561390257600080fd5b825167ffffffffffffffff81111561391957600080fd5b8301601f8101851361392a57600080fd5b805161393d613938826138cb565b613724565b81815260059190911b8201830190838101908783111561395c57600080fd5b928401925b8284101561397a57835182529284019290840190613961565b979650505050505050565b60118110613995576139956136ab565b9052565b60208101610aee8284613985565b6000602082840312156139b957600080fd5b8151612055816133c8565b80820180821115610aee57634e487b7160e01b600052601160045260246000fd5b6001600160e01b03198316815260408101600b8310613a0657613a066136ab565b8260208301529392505050565b8060005b60028110156107eb578151845260209384019390910190600101613a17565b60408101610aee8284613a13565b828152606081016120556020830184613a13565b6001600160e01b03198416815260608101613a766020830185613985565b6001600160a01b0383166040830152949350505050565b60006020808385031215613aa057600080fd5b825167ffffffffffffffff811115613ab757600080fd5b8301601f81018513613ac857600080fd5b8051613ad6613938826138cb565b81815260059190911b82018301908381019087831115613af557600080fd5b928401925b8284101561397a578351613b0d816133c8565b82529284019290840190613afa565b634e487b7160e01b600052603260045260246000fd5b634e487b7160e01b600052601260045260246000fd5b600082613b5757613b57613b32565b500490565b60008151808452602080850194506020840160005b8381101561362157815187529582019590820190600101613b71565b851515815284602082015260a060408201526000613bae60a08301866135e7565b8281036060840152613bc081866135e7565b90508281036080840152612ab88185613b5c565b838152613be46020820184613a13565b606081019190915260800192915050565b868152613c056020820187613a13565b613c126060820186613a13565b613c1f60a0820185613a13565b613c2c60e0820184613a13565b60609190911b6bffffffffffffffffffffffff19166101208201526101340195945050505050565b600082613c6357613c63613b32565b500690565b613c728183613a13565b60400191905056fea26469706673582212207aeba3954eb0b7afc98fcadc409fb6dcf2fc8baf48e03e59fe6ba6fad45e39f764736f6c63430008190033",
  "callValue": 0,
  "chainId": 2021,
  "constructorArgs": "0x",
  "contractName": "RoninRandomBeacon",
  "deployer": "0x968D0Cd7343f711216817E617d3f92a23dC91c07",
  "devdoc": {
    "version": 1,
    "kind": "dev",
    "methods": {
      "bulkSetValidatorThresholds(uint8[],uint256[])": {
        "details": "Bulk set the pick thresholds for a given validator types. Requirements: - The method caller is admin. Emits the event `PickThresholdUpdated`.",
        "params": {
          "thresholds": "An array of threshold values.",
          "validatorTypes": "An array of validator types."
        }
      },
      "execRequestRandomSeedForNextPeriod(uint256,uint256)": {
        "details": "Request the random seed for the next period, at the first epoch of each period. Callback function of {RoninValidatorSet-wrapUpEpoch}, only called at the end of an period."
      },
      "execWrapUpBeaconPeriod(uint256,uint256)": {
        "details": "Finalize the beacon and record the unavailability. Callback function of {RoninValidatorSet-wrapUpEpoch}, only called at the end of an period."
      },
      "fulfillRandomSeed((uint256,uint256),(uint256[2],uint256[2],uint256,uint256,uint256,address,uint256[2],uint256[2],uint256))": {
        "details": "Fulfills the random seed. Requirements: - The request is not finalized. - The period is greater than current period. - The proof is valid. - The request is not submitted by method caller before. - The key hash is match with the one in the profile. - The key hash changed cool down is ended. - The method caller is governance validator. - The method caller is not newly joined. Emits the event `RandomSeedFulfilled`.",
        "params": {
          "proof": "The VRF proof.",
          "req": "The random request."
        }
      },
      "getActivatedAtPeriod()": {
        "details": "Returns the period at which the random beacon sorting was activated."
      },
      "getBeacon(uint256)": {
        "details": "Retrieves the beacon value for a given period.",
        "params": {
          "period": "The period for which to retrieve the beacon value."
        },
        "returns": {
          "finalized": "A boolean indicating whether the beacon value has been finalized.",
          "value": "The beacon value for the given period."
        }
      },
      "getContract(uint8)": {
        "details": "Returns the address of a contract with a specific role. Throws an error if no contract is set for the specified role.",
        "params": {
          "contractType": "The role of the contract to retrieve."
        },
        "returns": {
          "contract_": "The address of the contract with the specified role."
        }
      },
      "getLastFinalizedPeriod()": {
        "details": "Get last finalized period."
      },
      "getRequestHash(uint256)": {
        "details": "Get request hash for a given period."
      },
      "getUnavailabilityCount(address)": {
        "details": "Retrieves the unavailability count for a given candidate id."
      },
      "getUnavailabilitySlashThreshold()": {
        "details": "Returns the unavailability slash threshold."
      },
      "getValidatorThreshold(uint8)": {
        "details": "Returns the pick threshold for a given validator type.",
        "params": {
          "validatorType": "The validator type."
        },
        "returns": {
          "_0": "The pick threshold."
        }
      },
      "isSubmittedAt(uint256,address)": {
        "details": "Checks if a submission has been made by a specific oracle for a given period.",
        "params": {
          "consensus": "The consensus address of validator.",
          "period": "The period to check for the submission."
        },
        "returns": {
          "submitted": "A boolean indicating whether the submission has been made or not."
        }
      },
      "isSubmittedAtById(uint256,address)": {
        "details": "Checks if a submission has been made by a specific oracle for a given period.",
        "params": {
          "cid": "The candidate id of validator.",
          "period": "The period to check for the submission."
        },
        "returns": {
          "submitted": "A boolean indicating whether the submission has been made or not."
        }
      },
      "pickValidatorSet(uint256)": {
        "details": "Picks validator IDs for given epoch number."
      },
      "setContract(uint8,address)": {
        "details": "Sets the address of a contract with a specific role. Emits the event {ContractUpdated}.",
        "params": {
          "addr": "The address of the contract to set.",
          "contractType": "The role of the contract to set."
        }
      },
      "setUnavailabilitySlashThreshold(uint256)": {
        "details": "Sets the unavailability slash threshold. Requirements: - The method caller is admin. Emits the event `SlashUnavailabilityThresholdUpdated`.",
        "params": {
          "slashThreshold": "The new value."
        }
      }
    },
    "events": {
      "BeaconFinalized(uint256,uint256)": {
        "details": "Emitted when the beacon is finalized.",
        "params": {
          "period": "The period.",
          "value": "The beacon value."
        }
      },
      "ContractUpdated(uint8,address)": {
        "details": "Emitted when a contract is updated."
      },
      "Initialized(uint8)": {
        "details": "Triggered when the contract has been initialized or reinitialized."
      },
      "RandomSeedFulfilled(address,uint256,bytes32)": {
        "details": "Emitted when the random seed is fulfilled.",
        "params": {
          "by": "The address that fulfill the random seed.",
          "period": "The period.",
          "reqHash": "The request hash."
        }
      },
      "RandomSeedRequested(uint256,bytes32,(uint256,uint256))": {
        "details": "Emitted when the random seed is requested.",
        "params": {
          "period": "The period.",
          "req": "The random request.",
          "reqHash": "The request hash."
        }
      },
      "SlashUnavailabilityThresholdUpdated(uint256)": {
        "details": "Emitted when the unavailability slash threshold is updated.",
        "params": {
          "value": "The new value."
        }
      },
      "ValidatorSetSaved(uint256,bool,uint256,address[],address[],uint256[])": {
        "details": "Event emitted when the validator set is saved."
      },
      "ValidatorThresholdUpdated(uint8,uint256)": {
        "details": "Emitted when the validator threshold is updated.",
        "params": {
          "threshold": "The new value.",
          "validatorType": "The validator type."
        }
      }
    },
    "errors": {
      "ErrAlreadySubmitted()": [
        {
          "details": "Throws if the request is already submitted"
        }
      ],
      "ErrBeaconAlreadyFinalized(uint256)": [
        {
          "details": "Throws if the request is already finalized"
        }
      ],
      "ErrBeaconNotFinalized(uint256)": [
        {
          "details": "Throws if the request is not finalized"
        }
      ],
      "ErrContractTypeNotFound(uint8)": [
        {
          "details": "Error of invalid role."
        }
      ],
      "ErrInvalidKeyHash(bytes32,bytes32)": [
        {
          "details": "Throws if the key hash is not match with the one in the profile"
        }
      ],
      "ErrInvalidPeriod()": [
        {
          "details": "Throws if the period is invalid (too early or too late)"
        }
      ],
      "ErrInvalidProof()": [
        {
          "details": "Throws if the proof is invalid"
        }
      ],
      "ErrInvalidRandomRequest(bytes32,bytes32)": [
        {
          "details": "Throws if the random request is inexistent"
        }
      ],
      "ErrInvalidThresholdConfig()": [
        {
          "details": "Throws if sum of all validator types threshold is not equal to max validator number"
        }
      ],
      "ErrKeyHashChangeCooldownNotEnded()": [
        {
          "details": "Throws if the cool down for key hash change is not ended"
        }
      ],
      "ErrLengthMismatch()": [
        {
          "details": "Error indicating a length mismatch between two arrays."
        }
      ],
      "ErrLengthMismatch(bytes4)": [
        {
          "details": "Error indicating a mismatch in the length of input parameters or arrays for a specific function.",
          "params": {
            "msgSig": "The function signature (bytes4) that has a length mismatch."
          }
        }
      ],
      "ErrNotActivated(uint256)": [
        {
          "details": "Throws if current period is less than the target activation period"
        }
      ],
      "ErrOutOfRange(uint256)": [
        {
          "details": "Throws if the index is out of bitmap length."
        }
      ],
      "ErrRegisterCoolDownNotEnded()": [
        {
          "details": "Throws if the cool down for registration is not ended"
        }
      ],
      "ErrUnauthorized(bytes4,uint8)": [
        {
          "details": "Error indicating that the caller is unauthorized to perform a specific function.",
          "params": {
            "expectedRole": "The role required to perform the function.",
            "msgSig": "The function signature (bytes4) that the caller is unauthorized to perform."
          }
        }
      ],
      "ErrUnauthorizedCall(bytes4)": [
        {
          "details": "Error indicating that the caller is unauthorized to perform a specific function.",
          "params": {
            "msgSig": "The function signature (bytes4) that the caller is unauthorized to perform."
          }
        }
      ],
      "ErrUnexpectedInternalCall(bytes4,uint8,address)": [
        {
          "details": "Error indicating that the caller is unauthorized to perform a specific function.",
          "params": {
            "actual": "The actual address that called to the function.",
            "expectedContractType": "The contract type required to perform the function.",
            "msgSig": "The function signature (bytes4)."
          }
        }
      ],
      "ErrZeroCodeContract(address)": [
        {
          "details": "Error of set to non-contract."
        }
      ]
    }
  },
  "isFoundry": true,
  "nonce": 194331,
  "storageLayout": {
    "storage": [
      {
        "astId": 102573,
        "contract": "contracts/ronin/random-beacon/RoninRandomBeacon.sol:RoninRandomBeacon",
        "label": "_initialized",
        "offset": 0,
        "slot": "0",
        "type": "t_uint8"
      },
      {
        "astId": 102576,
        "contract": "contracts/ronin/random-beacon/RoninRandomBeacon.sol:RoninRandomBeacon",
        "label": "_initializing",
        "offset": 1,
        "slot": "0",
        "type": "t_bool"
      },
      {
        "astId": 29152,
        "contract": "contracts/ronin/random-beacon/RoninRandomBeacon.sol:RoninRandomBeacon",
        "label": "__gap",
        "offset": 0,
        "slot": "1",
        "type": "t_array(t_uint256)50_storage"
      },
      {
        "astId": 29159,
        "contract": "contracts/ronin/random-beacon/RoninRandomBeacon.sol:RoninRandomBeacon",
        "label": "_activatedAtPeriod",
        "offset": 0,
        "slot": "51",
        "type": "t_uint256"
      },
      {
        "astId": 29162,
        "contract": "contracts/ronin/random-beacon/RoninRandomBeacon.sol:RoninRandomBeacon",
        "label": "_lastFinalizedPeriod",
        "offset": 0,
        "slot": "52",
        "type": "t_uint256"
      },
      {
        "astId": 29165,
        "contract": "contracts/ronin/random-beacon/RoninRandomBeacon.sol:RoninRandomBeacon",
        "label": "_unavailabilitySlashThreshold",
        "offset": 0,
        "slot": "53",
        "type": "t_uint256"
      },
      {
        "astId": 29170,
        "contract": "contracts/ronin/random-beacon/RoninRandomBeacon.sol:RoninRandomBeacon",
        "label": "_unavailableCount",
        "offset": 0,
        "slot": "54",
        "type": "t_mapping(t_address,t_uint256)"
      },
      {
        "astId": 29176,
        "contract": "contracts/ronin/random-beacon/RoninRandomBeacon.sol:RoninRandomBeacon",
        "label": "_beaconPerPeriod",
        "offset": 0,
        "slot": "55",
        "type": "t_mapping(t_uint256,t_struct(Beacon)8952_storage)"
      },
      {
        "astId": 29182,
        "contract": "contracts/ronin/random-beacon/RoninRandomBeacon.sol:RoninRandomBeacon",
        "label": "_validatorThreshold",
        "offset": 0,
        "slot": "56",
        "type": "t_mapping(t_enum(ValidatorType)8938,t_uint256)"
      }
    ],
    "types": {
      "t_address": {
        "encoding": "inplace",
        "label": "address",
        "numberOfBytes": "20"
      },
      "t_array(t_uint256)50_storage": {
        "encoding": "inplace",
        "label": "uint256[50]",
        "numberOfBytes": "1600",
        "base": "t_uint256"
      },
      "t_bool": {
        "encoding": "inplace",
        "label": "bool",
        "numberOfBytes": "1"
      },
      "t_bytes32": {
        "encoding": "inplace",
        "label": "bytes32",
        "numberOfBytes": "32"
      },
      "t_enum(ValidatorType)8938": {
        "encoding": "inplace",
        "label": "enum IRandomBeacon.ValidatorType",
        "numberOfBytes": "1"
      },
      "t_mapping(t_address,t_bool)": {
        "encoding": "mapping",
        "key": "t_address",
        "label": "mapping(address => bool)",
        "numberOfBytes": "32",
        "value": "t_bool"
      },
      "t_mapping(t_address,t_uint256)": {
        "encoding": "mapping",
        "key": "t_address",
        "label": "mapping(address => uint256)",
        "numberOfBytes": "32",
        "value": "t_uint256"
      },
      "t_mapping(t_enum(ValidatorType)8938,t_uint256)": {
        "encoding": "mapping",
        "key": "t_enum(ValidatorType)8938",
        "label": "mapping(enum IRandomBeacon.ValidatorType => uint256)",
        "numberOfBytes": "32",
        "value": "t_uint256"
      },
      "t_mapping(t_uint256,t_struct(Beacon)8952_storage)": {
        "encoding": "mapping",
        "key": "t_uint256",
        "label": "mapping(uint256 => struct IRandomBeacon.Beacon)",
        "numberOfBytes": "32",
        "value": "t_struct(Beacon)8952_storage"
      },
      "t_struct(Beacon)8952_storage": {
        "encoding": "inplace",
        "label": "struct IRandomBeacon.Beacon",
        "numberOfBytes": "128",
        "members": [
          {
            "astId": 8941,
            "contract": "contracts/ronin/random-beacon/RoninRandomBeacon.sol:RoninRandomBeacon",
            "label": "reqHash",
            "offset": 0,
            "slot": "0",
            "type": "t_bytes32"
          },
          {
            "astId": 8943,
            "contract": "contracts/ronin/random-beacon/RoninRandomBeacon.sol:RoninRandomBeacon",
            "label": "value",
            "offset": 0,
            "slot": "1",
            "type": "t_uint256"
          },
          {
            "astId": 8945,
            "contract": "contracts/ronin/random-beacon/RoninRandomBeacon.sol:RoninRandomBeacon",
            "label": "finalized",
            "offset": 0,
            "slot": "2",
            "type": "t_bool"
          },
          {
            "astId": 8947,
            "contract": "contracts/ronin/random-beacon/RoninRandomBeacon.sol:RoninRandomBeacon",
            "label": "submissionCount",
            "offset": 1,
            "slot": "2",
            "type": "t_uint32"
          },
          {
            "astId": 8951,
            "contract": "contracts/ronin/random-beacon/RoninRandomBeacon.sol:RoninRandomBeacon",
            "label": "submitted",
            "offset": 0,
            "slot": "3",
            "type": "t_mapping(t_address,t_bool)"
          }
        ]
      },
      "t_uint256": {
        "encoding": "inplace",
        "label": "uint256",
        "numberOfBytes": "32"
      },
      "t_uint32": {
        "encoding": "inplace",
        "label": "uint32",
        "numberOfBytes": "4"
      },
      "t_uint8": {
        "encoding": "inplace",
        "label": "uint8",
        "numberOfBytes": "1"
      }
    }
  },
  "timestamp": 1716453848,
  "userdoc": {
    "version": 1,
    "kind": "user"
  }
}