{
  "abi": [
    {
      "type": "constructor",
      "inputs": [],
      "stateMutability": "nonpayable"
    },
    {
      "type": "function",
      "name": "DEFAULT_ADMIN_ROLE",
      "inputs": [],
      "outputs": [
        {
          "name": "",
          "type": "bytes32",
          "internalType": "bytes32"
        }
      ],
      "stateMutability": "view"
    },
    {
      "type": "function",
      "name": "SENTRY_ROLE",
      "inputs": [],
      "outputs": [
        {
          "name": "",
          "type": "bytes32",
          "internalType": "bytes32"
        }
      ],
      "stateMutability": "view"
    },
    {
      "type": "function",
      "name": "changeTarget",
      "inputs": [
        {
          "name": "_target",
          "type": "address",
          "internalType": "contract IPauseTarget"
        }
      ],
      "outputs": [],
      "stateMutability": "nonpayable"
    },
    {
      "type": "function",
      "name": "emergency",
      "inputs": [],
      "outputs": [
        {
          "name": "",
          "type": "bool",
          "internalType": "bool"
        }
      ],
      "stateMutability": "view"
    },
    {
      "type": "function",
      "name": "getRoleAdmin",
      "inputs": [
        {
          "name": "role",
          "type": "bytes32",
          "internalType": "bytes32"
        }
      ],
      "outputs": [
        {
          "name": "",
          "type": "bytes32",
          "internalType": "bytes32"
        }
      ],
      "stateMutability": "view"
    },
    {
      "type": "function",
      "name": "getRoleMember",
      "inputs": [
        {
          "name": "role",
          "type": "bytes32",
          "internalType": "bytes32"
        },
        {
          "name": "index",
          "type": "uint256",
          "internalType": "uint256"
        }
      ],
      "outputs": [
        {
          "name": "",
          "type": "address",
          "internalType": "address"
        }
      ],
      "stateMutability": "view"
    },
    {
      "type": "function",
      "name": "getRoleMemberCount",
      "inputs": [
        {
          "name": "role",
          "type": "bytes32",
          "internalType": "bytes32"
        }
      ],
      "outputs": [
        {
          "name": "",
          "type": "uint256",
          "internalType": "uint256"
        }
      ],
      "stateMutability": "view"
    },
    {
      "type": "function",
      "name": "grantRole",
      "inputs": [
        {
          "name": "role",
          "type": "bytes32",
          "internalType": "bytes32"
        },
        {
          "name": "account",
          "type": "address",
          "internalType": "address"
        }
      ],
      "outputs": [],
      "stateMutability": "nonpayable"
    },
    {
      "type": "function",
      "name": "grantSentry",
      "inputs": [
        {
          "name": "_sentry",
          "type": "address",
          "internalType": "address"
        }
      ],
      "outputs": [],
      "stateMutability": "nonpayable"
    },
    {
      "type": "function",
      "name": "hasRole",
      "inputs": [
        {
          "name": "role",
          "type": "bytes32",
          "internalType": "bytes32"
        },
        {
          "name": "account",
          "type": "address",
          "internalType": "address"
        }
      ],
      "outputs": [
        {
          "name": "",
          "type": "bool",
          "internalType": "bool"
        }
      ],
      "stateMutability": "view"
    },
    {
      "type": "function",
      "name": "initialize",
      "inputs": [
        {
          "name": "_target",
          "type": "address",
          "internalType": "contract IPauseTarget"
        },
        {
          "name": "_admin",
          "type": "address",
          "internalType": "address"
        },
        {
          "name": "_sentries",
          "type": "address[]",
          "internalType": "address[]"
        }
      ],
      "outputs": [],
      "stateMutability": "nonpayable"
    },
    {
      "type": "function",
      "name": "renounceRole",
      "inputs": [
        {
          "name": "role",
          "type": "bytes32",
          "internalType": "bytes32"
        },
        {
          "name": "account",
          "type": "address",
          "internalType": "address"
        }
      ],
      "outputs": [],
      "stateMutability": "nonpayable"
    },
    {
      "type": "function",
      "name": "revokeRole",
      "inputs": [
        {
          "name": "role",
          "type": "bytes32",
          "internalType": "bytes32"
        },
        {
          "name": "account",
          "type": "address",
          "internalType": "address"
        }
      ],
      "outputs": [],
      "stateMutability": "nonpayable"
    },
    {
      "type": "function",
      "name": "revokeSentry",
      "inputs": [
        {
          "name": "_sentry",
          "type": "address",
          "internalType": "address"
        }
      ],
      "outputs": [],
      "stateMutability": "nonpayable"
    },
    {
      "type": "function",
      "name": "supportsInterface",
      "inputs": [
        {
          "name": "interfaceId",
          "type": "bytes4",
          "internalType": "bytes4"
        }
      ],
      "outputs": [
        {
          "name": "",
          "type": "bool",
          "internalType": "bool"
        }
      ],
      "stateMutability": "view"
    },
    {
      "type": "function",
      "name": "target",
      "inputs": [],
      "outputs": [
        {
          "name": "",
          "type": "address",
          "internalType": "contract IPauseTarget"
        }
      ],
      "stateMutability": "view"
    },
    {
      "type": "function",
      "name": "triggerPause",
      "inputs": [],
      "outputs": [],
      "stateMutability": "nonpayable"
    },
    {
      "type": "function",
      "name": "triggerUnpause",
      "inputs": [],
      "outputs": [],
      "stateMutability": "nonpayable"
    },
    {
      "type": "event",
      "name": "EmergencyPaused",
      "inputs": [
        {
          "name": "account",
          "type": "address",
          "indexed": false,
          "internalType": "address"
        }
      ],
      "anonymous": false
    },
    {
      "type": "event",
      "name": "EmergencyUnpaused",
      "inputs": [
        {
          "name": "account",
          "type": "address",
          "indexed": false,
          "internalType": "address"
        }
      ],
      "anonymous": false
    },
    {
      "type": "event",
      "name": "Initialized",
      "inputs": [
        {
          "name": "version",
          "type": "uint8",
          "indexed": false,
          "internalType": "uint8"
        }
      ],
      "anonymous": false
    },
    {
      "type": "event",
      "name": "RoleAdminChanged",
      "inputs": [
        {
          "name": "role",
          "type": "bytes32",
          "indexed": true,
          "internalType": "bytes32"
        },
        {
          "name": "previousAdminRole",
          "type": "bytes32",
          "indexed": true,
          "internalType": "bytes32"
        },
        {
          "name": "newAdminRole",
          "type": "bytes32",
          "indexed": true,
          "internalType": "bytes32"
        }
      ],
      "anonymous": false
    },
    {
      "type": "event",
      "name": "RoleGranted",
      "inputs": [
        {
          "name": "role",
          "type": "bytes32",
          "indexed": true,
          "internalType": "bytes32"
        },
        {
          "name": "account",
          "type": "address",
          "indexed": true,
          "internalType": "address"
        },
        {
          "name": "sender",
          "type": "address",
          "indexed": true,
          "internalType": "address"
        }
      ],
      "anonymous": false
    },
    {
      "type": "event",
      "name": "RoleRevoked",
      "inputs": [
        {
          "name": "role",
          "type": "bytes32",
          "indexed": true,
          "internalType": "bytes32"
        },
        {
          "name": "account",
          "type": "address",
          "indexed": true,
          "internalType": "address"
        },
        {
          "name": "sender",
          "type": "address",
          "indexed": true,
          "internalType": "address"
        }
      ],
      "anonymous": false
    },
    {
      "type": "event",
      "name": "TargetChanged",
      "inputs": [
        {
          "name": "target",
          "type": "address",
          "indexed": false,
          "internalType": "contract IPauseTarget"
        }
      ],
      "anonymous": false
    },
    {
      "type": "error",
      "name": "ErrNotOnEmergencyPause",
      "inputs": []
    },
    {
      "type": "error",
      "name": "ErrTargetIsNotOnPaused",
      "inputs": []
    },
    {
      "type": "error",
      "name": "ErrTargetIsOnPaused",
      "inputs": []
    }
  ],
  "address": "0x579f7b862f8ad848968e0cd673ff7bf91b2aafe8",
  "args": "0x",
  "blockNumber": 24102399,
  "bytecode": "0x608060405234801561001057600080fd5b5061001961001e565b6100de565b600254610100900460ff161561008a5760405162461bcd60e51b815260206004820152602760248201527f496e697469616c697a61626c653a20636f6e747261637420697320696e697469604482015266616c697a696e6760c81b606482015260840160405180910390fd5b60025460ff90811610156100dc576002805460ff191660ff9081179091556040519081527f7f26b83ff96e1f2b6a682f133852f6798a09c465da95921460cefb38474024989060200160405180910390a15b565b6113c5806100ed6000396000f3fe608060405234801561001057600080fd5b50600436106101365760003560e01c806391d14854116100b2578063caa6fea411610081578063d547741f11610066578063d547741f146102c3578063dcf7bb5c146102d6578063f82ec70b146102e957600080fd5b8063caa6fea414610296578063d4b83992146102aa57600080fd5b806391d148541461023c578063a217fddf14610273578063b9f3163b1461027b578063ca15c8731461028357600080fd5b80636833f60d116101095780637a9ad019116100ee5780637a9ad019146101d75780637d4f7fc9146101fe5780639010d07c1461021157600080fd5b80636833f60d146101bc57806377a24f36146101c457600080fd5b806301ffc9a71461013b578063248a9ca3146101635780632f2ff15d1461019457806336568abe146101a9575b600080fd5b61014e610149366004611026565b6102fc565b60405190151581526020015b60405180910390f35b610186610171366004611050565b60009081526020819052604090206001015490565b60405190815260200161015a565b6101a76101a236600461108e565b610340565b005b6101a76101b736600461108e565b61036a565b6101a76103fb565b6101a76101d23660046110d4565b61059b565b6101867f5bea60102f2a7acc9e82b1af0e3bd4069661102bb5dd143a6051cd1980dded1c81565b6101a761020c3660046111c0565b610722565b61022461021f3660046111dd565b610757565b6040516001600160a01b03909116815260200161015a565b61014e61024a36600461108e565b6000918252602082815260408084206001600160a01b0393909316845291905290205460ff1690565b610186600081565b6101a7610776565b610186610291366004611050565b610949565b60025461014e90600160b01b900460ff1681565b600254610224906201000090046001600160a01b031681565b6101a76102d136600461108e565b610960565b6101a76102e43660046111c0565b610985565b6101a76102f73660046111c0565b610999565b60006001600160e01b031982167f5a05180f00000000000000000000000000000000000000000000000000000000148061033a575061033a826109ce565b92915050565b60008281526020819052604090206001015461035b81610a35565b6103658383610a42565b505050565b6001600160a01b03811633146103ed5760405162461bcd60e51b815260206004820152602f60248201527f416363657373436f6e74726f6c3a2063616e206f6e6c792072656e6f756e636560448201527f20726f6c657320666f722073656c66000000000000000000000000000000000060648201526084015b60405180910390fd5b6103f78282610a64565b5050565b7f5bea60102f2a7acc9e82b1af0e3bd4069661102bb5dd143a6051cd1980dded1c61042581610a35565b60028054906101000a90046001600160a01b03166001600160a01b0316635c975abb6040518163ffffffff1660e01b81526004016020604051808303816000875af1158015610478573d6000803e3d6000fd5b505050506040513d601f19601f8201168201806040525081019061049c91906111ff565b156104d3576040517f200cfeea00000000000000000000000000000000000000000000000000000000815260040160405180910390fd5b60028054600160b01b60ff60b01b199091161790819055604080517f8456cb590000000000000000000000000000000000000000000000000000000081529051620100009092046001600160a01b031691638456cb599160048082019260009290919082900301818387803b15801561054b57600080fd5b505af115801561055f573d6000803e3d6000fd5b50506040513381527fb8fad2fa0ed7a383e747c309ef2c4391d7b65592a48893e57ccc1fab70791456925060200190505b60405180910390a150565b600254610100900460ff16158080156105bb5750600254600160ff909116105b806105d55750303b1580156105d5575060025460ff166001145b6106475760405162461bcd60e51b815260206004820152602e60248201527f496e697469616c697a61626c653a20636f6e747261637420697320616c72656160448201527f647920696e697469616c697a656400000000000000000000000000000000000060648201526084016103e4565b6002805460ff19166001179055801561066a576002805461ff0019166101001790555b61067384610a86565b61067e600084610af4565b60005b82518110156106d5576106cd7f5bea60102f2a7acc9e82b1af0e3bd4069661102bb5dd143a6051cd1980dded1c8483815181106106c0576106c0611221565b6020026020010151610a42565b600101610681565b50801561071c576002805461ff0019169055604051600181527f7f26b83ff96e1f2b6a682f133852f6798a09c465da95921460cefb38474024989060200160405180910390a15b50505050565b600061072d81610a35565b6103f77f5bea60102f2a7acc9e82b1af0e3bd4069661102bb5dd143a6051cd1980dded1c83610a42565b600082815260016020526040812061076f9083610afe565b9392505050565b7f5bea60102f2a7acc9e82b1af0e3bd4069661102bb5dd143a6051cd1980dded1c6107a081610a35565b600254600160b01b900460ff166107e3576040517fd97ea9f800000000000000000000000000000000000000000000000000000000815260040160405180910390fd5b60028054906101000a90046001600160a01b03166001600160a01b0316635c975abb6040518163ffffffff1660e01b81526004016020604051808303816000875af1158015610836573d6000803e3d6000fd5b505050506040513d601f19601f8201168201806040525081019061085a91906111ff565b610890576040517ff43dabd800000000000000000000000000000000000000000000000000000000815260040160405180910390fd5b6002805460ff60b01b191690819055604080517f3f4ba83a0000000000000000000000000000000000000000000000000000000081529051620100009092046001600160a01b031691633f4ba83a9160048082019260009290919082900301818387803b15801561090057600080fd5b505af1158015610914573d6000803e3d6000fd5b50506040513381527ff5cbf596165cc457b2cd92e8d8450827ee314968160a5696402d75766fc52caf92506020019050610590565b600081815260016020526040812061033a90610b0a565b60008281526020819052604090206001015461097b81610a35565b6103658383610a64565b600061099081610a35565b6103f782610a86565b60006109a481610a35565b6103f77f5bea60102f2a7acc9e82b1af0e3bd4069661102bb5dd143a6051cd1980dded1c83610a64565b60006001600160e01b031982167f7965db0b00000000000000000000000000000000000000000000000000000000148061033a57507f01ffc9a7000000000000000000000000000000000000000000000000000000006001600160e01b031983161461033a565b610a3f8133610b14565b50565b610a4c8282610b92565b60008281526001602052604090206103659082610c30565b610a6e8282610c45565b60008281526001602052604090206103659082610cc4565b600280547fffffffffffffffffffff0000000000000000000000000000000000000000ffff16620100006001600160a01b038416908102919091179091556040519081527f7f8cffd58ac96898bdd25ab64868bd933141d15ad1cd4a0df228fd3fcba2a26d90602001610590565b6103f78282610a42565b600061076f8383610cd9565b600061033a825490565b6000828152602081815260408083206001600160a01b038516845290915290205460ff166103f757610b50816001600160a01b03166014610d03565b610b5b836020610d03565b604051602001610b6c92919061125b565b60408051601f198184030181529082905262461bcd60e51b82526103e4916004016112dc565b6000828152602081815260408083206001600160a01b038516845290915290205460ff166103f7576000828152602081815260408083206001600160a01b03851684529091529020805460ff19166001179055610bec3390565b6001600160a01b0316816001600160a01b0316837f2f8788117e7eff1d82e926ec794901d17c78024a50270940304540a733656f0d60405160405180910390a45050565b600061076f836001600160a01b038416610ee4565b6000828152602081815260408083206001600160a01b038516845290915290205460ff16156103f7576000828152602081815260408083206001600160a01b0385168085529252808320805460ff1916905551339285917ff6391f5c32d9c69d2a47ea670b442974b53935d1edc7fd64eb21e047a839171b9190a45050565b600061076f836001600160a01b038416610f33565b6000826000018281548110610cf057610cf0611221565b9060005260206000200154905092915050565b60606000610d12836002611325565b610d1d90600261133c565b67ffffffffffffffff811115610d3557610d356110be565b6040519080825280601f01601f191660200182016040528015610d5f576020820181803683370190505b5090507f300000000000000000000000000000000000000000000000000000000000000081600081518110610d9657610d96611221565b60200101906001600160f81b031916908160001a9053507f780000000000000000000000000000000000000000000000000000000000000081600181518110610de157610de1611221565b60200101906001600160f81b031916908160001a9053506000610e05846002611325565b610e1090600161133c565b90505b6001811115610e95577f303132333435363738396162636465660000000000000000000000000000000085600f1660108110610e5157610e51611221565b1a60f81b828281518110610e6757610e67611221565b60200101906001600160f81b031916908160001a90535060049490941c93610e8e8161134f565b9050610e13565b50831561076f5760405162461bcd60e51b815260206004820181905260248201527f537472696e67733a20686578206c656e67746820696e73756666696369656e7460448201526064016103e4565b6000818152600183016020526040812054610f2b5750815460018181018455600084815260208082209093018490558454848252828601909352604090209190915561033a565b50600061033a565b6000818152600183016020526040812054801561101c576000610f57600183611366565b8554909150600090610f6b90600190611366565b9050818114610fd0576000866000018281548110610f8b57610f8b611221565b9060005260206000200154905080876000018481548110610fae57610fae611221565b6000918252602080832090910192909255918252600188019052604090208390555b8554869080610fe157610fe1611379565b60019003818190600052602060002001600090559055856001016000868152602001908152602001600020600090556001935050505061033a565b600091505061033a565b60006020828403121561103857600080fd5b81356001600160e01b03198116811461076f57600080fd5b60006020828403121561106257600080fd5b5035919050565b6001600160a01b0381168114610a3f57600080fd5b803561108981611069565b919050565b600080604083850312156110a157600080fd5b8235915060208301356110b381611069565b809150509250929050565b634e487b7160e01b600052604160045260246000fd5b6000806000606084860312156110e957600080fd5b83356110f481611069565b925060208481013561110581611069565b9250604085013567ffffffffffffffff8082111561112257600080fd5b818701915087601f83011261113657600080fd5b813581811115611148576111486110be565b8060051b604051601f19603f8301168101818110858211171561116d5761116d6110be565b60405291825284820192508381018501918a83111561118b57600080fd5b938501935b828510156111b0576111a18561107e565b84529385019392850192611190565b8096505050505050509250925092565b6000602082840312156111d257600080fd5b813561076f81611069565b600080604083850312156111f057600080fd5b50508035926020909101359150565b60006020828403121561121157600080fd5b8151801515811461076f57600080fd5b634e487b7160e01b600052603260045260246000fd5b60005b8381101561125257818101518382015260200161123a565b50506000910152565b7f416363657373436f6e74726f6c3a206163636f756e7420000000000000000000815260008351611293816017850160208801611237565b7f206973206d697373696e6720726f6c652000000000000000000000000000000060179184019182015283516112d0816028840160208801611237565b01602801949350505050565b60208152600082518060208401526112fb816040850160208701611237565b601f01601f19169190910160400192915050565b634e487b7160e01b600052601160045260246000fd5b808202811582820484141761033a5761033a61130f565b8082018082111561033a5761033a61130f565b60008161135e5761135e61130f565b506000190190565b8181038181111561033a5761033a61130f565b634e487b7160e01b600052603160045260246000fdfea26469706673582212207931e863b1d585b0a51d30fbd83fb090f7acde36d16f2d5160190e9930a57e7464736f6c63430008160033",
  "chainId": 2021,
  "contractAbsolutePath": "PauseEnforcer.sol",
  "deployer": "0x31762cdd4Aa65CD6f5F09D7a05a56211720A1168",
  "devdoc": {
    "version": 1,
    "kind": "dev",
    "methods": {
      "changeTarget(address)": {
        "details": "Setter for `target`. Requirements: - Only admin can call this method."
      },
      "getRoleAdmin(bytes32)": {
        "details": "Returns the admin role that controls `role`. See {grantRole} and {revokeRole}. To change a role's admin, use {_setRoleAdmin}."
      },
      "getRoleMember(bytes32,uint256)": {
        "details": "Returns one of the accounts that have `role`. `index` must be a value between 0 and {getRoleMemberCount}, non-inclusive. Role bearers are not sorted in any particular way, and their ordering may change at any point. WARNING: When using {getRoleMember} and {getRoleMemberCount}, make sure you perform all queries on the same block. See the following https://forum.openzeppelin.com/t/iterating-over-elements-on-enumerableset-in-openzeppelin-contracts/2296[forum post] for more information."
      },
      "getRoleMemberCount(bytes32)": {
        "details": "Returns the number of accounts that have `role`. Can be used together with {getRoleMember} to enumerate all bearers of a role."
      },
      "grantRole(bytes32,address)": {
        "details": "Grants `role` to `account`. If `account` had not been already granted `role`, emits a {RoleGranted} event. Requirements: - the caller must have ``role``'s admin role. May emit a {RoleGranted} event."
      },
      "grantSentry(address)": {
        "details": "Grants the SENTRY_ROLE to the specified address."
      },
      "hasRole(bytes32,address)": {
        "details": "Returns `true` if `account` has been granted `role`."
      },
      "initialize(address,address,address[])": {
        "details": "Initializes the contract storage."
      },
      "renounceRole(bytes32,address)": {
        "details": "Revokes `role` from the calling account. Roles are often managed via {grantRole} and {revokeRole}: this function's purpose is to provide a mechanism for accounts to lose their privileges if they are compromised (such as when a trusted device is misplaced). If the calling account had been revoked `role`, emits a {RoleRevoked} event. Requirements: - the caller must be `account`. May emit a {RoleRevoked} event."
      },
      "revokeRole(bytes32,address)": {
        "details": "Revokes `role` from `account`. If `account` had been granted `role`, emits a {RoleRevoked} event. Requirements: - the caller must have ``role``'s admin role. May emit a {RoleRevoked} event."
      },
      "revokeSentry(address)": {
        "details": "Revokes the SENTRY_ROLE from the specified address."
      },
      "supportsInterface(bytes4)": {
        "details": "See {IERC165-supportsInterface}."
      },
      "triggerPause()": {
        "details": "Triggers a pause on the target contract. Requirements: - Only be called by accounts with the SENTRY_ROLE, - The target contract is not already paused."
      },
      "triggerUnpause()": {
        "details": "Triggers an unpause on the target contract. Requirements: - Only be called by accounts with the SENTRY_ROLE, - The target contract is already paused. - The target contract is paused in emergency mode."
      }
    },
    "events": {
      "EmergencyPaused(address)": {
        "details": "Emitted when the emergency ppause is triggered by `account`."
      },
      "EmergencyUnpaused(address)": {
        "details": "Emitted when the emergency unpause is triggered by `account`."
      },
      "Initialized(uint8)": {
        "details": "Triggered when the contract has been initialized or reinitialized."
      },
      "RoleAdminChanged(bytes32,bytes32,bytes32)": {
        "details": "Emitted when `newAdminRole` is set as ``role``'s admin role, replacing `previousAdminRole` `DEFAULT_ADMIN_ROLE` is the starting admin for all roles, despite {RoleAdminChanged} not being emitted signaling this. _Available since v3.1._"
      },
      "RoleGranted(bytes32,address,address)": {
        "details": "Emitted when `account` is granted `role`. `sender` is the account that originated the contract call, an admin role bearer except when using {AccessControl-_setupRole}."
      },
      "RoleRevoked(bytes32,address,address)": {
        "details": "Emitted when `account` is revoked `role`. `sender` is the account that originated the contract call:   - if using `revokeRole`, it is the admin role bearer   - if using `renounceRole`, it is the role bearer (i.e. `account`)"
      },
      "TargetChanged(address)": {
        "details": "Emitted when the target is changed."
      }
    },
    "errors": {
      "ErrNotOnEmergencyPause()": [
        {
          "details": "Error thrown when the contract is not on emergency pause."
        }
      ],
      "ErrTargetIsNotOnPaused()": [
        {
          "details": "Error thrown when the target is not on paused state."
        }
      ],
      "ErrTargetIsOnPaused()": [
        {
          "details": "Error thrown when the target is already on paused state."
        }
      ]
    }
  },
  "isFoundry": true,
  "nonce": 30,
  "numDeployments": 4,
  "storageLayout": {
    "storage": [
      {
        "astId": 150498,
        "contract": "contracts/ronin/gateway/PauseEnforcer.sol:PauseEnforcer",
        "label": "_roles",
        "offset": 0,
        "slot": "0",
        "type": "t_mapping(t_bytes32,t_struct(RoleData)150493_storage)"
      },
      {
        "astId": 150812,
        "contract": "contracts/ronin/gateway/PauseEnforcer.sol:PauseEnforcer",
        "label": "_roleMembers",
        "offset": 0,
        "slot": "1",
        "type": "t_mapping(t_bytes32,t_struct(AddressSet)154500_storage)"
      },
      {
        "astId": 151847,
        "contract": "contracts/ronin/gateway/PauseEnforcer.sol:PauseEnforcer",
        "label": "_initialized",
        "offset": 0,
        "slot": "2",
        "type": "t_uint8"
      },
      {
        "astId": 151850,
        "contract": "contracts/ronin/gateway/PauseEnforcer.sol:PauseEnforcer",
        "label": "_initializing",
        "offset": 1,
        "slot": "2",
        "type": "t_bool"
      },
      {
        "astId": 25650,
        "contract": "contracts/ronin/gateway/PauseEnforcer.sol:PauseEnforcer",
        "label": "target",
        "offset": 2,
        "slot": "2",
        "type": "t_contract(IPauseTarget)7342"
      },
      {
        "astId": 25653,
        "contract": "contracts/ronin/gateway/PauseEnforcer.sol:PauseEnforcer",
        "label": "emergency",
        "offset": 22,
        "slot": "2",
        "type": "t_bool"
      }
    ],
    "types": {
      "t_address": {
        "encoding": "inplace",
        "label": "address",
        "numberOfBytes": "20"
      },
      "t_array(t_bytes32)dyn_storage": {
        "encoding": "dynamic_array",
        "label": "bytes32[]",
        "numberOfBytes": "32",
        "base": "t_bytes32"
      },
      "t_bool": {
        "encoding": "inplace",
        "label": "bool",
        "numberOfBytes": "1"
      },
      "t_bytes32": {
        "encoding": "inplace",
        "label": "bytes32",
        "numberOfBytes": "32"
      },
      "t_contract(IPauseTarget)7342": {
        "encoding": "inplace",
        "label": "contract IPauseTarget",
        "numberOfBytes": "20"
      },
      "t_mapping(t_address,t_bool)": {
        "encoding": "mapping",
        "key": "t_address",
        "label": "mapping(address => bool)",
        "numberOfBytes": "32",
        "value": "t_bool"
      },
      "t_mapping(t_bytes32,t_struct(AddressSet)154500_storage)": {
        "encoding": "mapping",
        "key": "t_bytes32",
        "label": "mapping(bytes32 => struct EnumerableSet.AddressSet)",
        "numberOfBytes": "32",
        "value": "t_struct(AddressSet)154500_storage"
      },
      "t_mapping(t_bytes32,t_struct(RoleData)150493_storage)": {
        "encoding": "mapping",
        "key": "t_bytes32",
        "label": "mapping(bytes32 => struct AccessControl.RoleData)",
        "numberOfBytes": "32",
        "value": "t_struct(RoleData)150493_storage"
      },
      "t_mapping(t_bytes32,t_uint256)": {
        "encoding": "mapping",
        "key": "t_bytes32",
        "label": "mapping(bytes32 => uint256)",
        "numberOfBytes": "32",
        "value": "t_uint256"
      },
      "t_struct(AddressSet)154500_storage": {
        "encoding": "inplace",
        "label": "struct EnumerableSet.AddressSet",
        "numberOfBytes": "64",
        "members": [
          {
            "astId": 154499,
            "contract": "contracts/ronin/gateway/PauseEnforcer.sol:PauseEnforcer",
            "label": "_inner",
            "offset": 0,
            "slot": "0",
            "type": "t_struct(Set)154199_storage"
          }
        ]
      },
      "t_struct(RoleData)150493_storage": {
        "encoding": "inplace",
        "label": "struct AccessControl.RoleData",
        "numberOfBytes": "64",
        "members": [
          {
            "astId": 150490,
            "contract": "contracts/ronin/gateway/PauseEnforcer.sol:PauseEnforcer",
            "label": "members",
            "offset": 0,
            "slot": "0",
            "type": "t_mapping(t_address,t_bool)"
          },
          {
            "astId": 150492,
            "contract": "contracts/ronin/gateway/PauseEnforcer.sol:PauseEnforcer",
            "label": "adminRole",
            "offset": 0,
            "slot": "1",
            "type": "t_bytes32"
          }
        ]
      },
      "t_struct(Set)154199_storage": {
        "encoding": "inplace",
        "label": "struct EnumerableSet.Set",
        "numberOfBytes": "64",
        "members": [
          {
            "astId": 154194,
            "contract": "contracts/ronin/gateway/PauseEnforcer.sol:PauseEnforcer",
            "label": "_values",
            "offset": 0,
            "slot": "0",
            "type": "t_array(t_bytes32)dyn_storage"
          },
          {
            "astId": 154198,
            "contract": "contracts/ronin/gateway/PauseEnforcer.sol:PauseEnforcer",
            "label": "_indexes",
            "offset": 0,
            "slot": "1",
            "type": "t_mapping(t_bytes32,t_uint256)"
          }
        ]
      },
      "t_uint256": {
        "encoding": "inplace",
        "label": "uint256",
        "numberOfBytes": "32"
      },
      "t_uint8": {
        "encoding": "inplace",
        "label": "uint8",
        "numberOfBytes": "1"
      }
    }
  },
  "timestamp": 1708420448,
  "userdoc": {
    "version": 1,
    "kind": "user"
  }
}