{
  "abi": [
    {
      "type": "constructor",
      "inputs": [],
      "stateMutability": "nonpayable"
    },
    {
      "type": "fallback",
      "stateMutability": "payable"
    },
    {
      "type": "receive",
      "stateMutability": "payable"
    },
    {
      "type": "function",
      "name": "DEFAULT_ADDITION_GAS",
      "inputs": [],
      "outputs": [
        {
          "name": "",
          "type": "uint256",
          "internalType": "uint256"
        }
      ],
      "stateMutability": "view"
    },
    {
      "type": "function",
      "name": "PERIOD_DURATION",
      "inputs": [],
      "outputs": [
        {
          "name": "",
          "type": "uint256",
          "internalType": "uint256"
        }
      ],
      "stateMutability": "view"
    },
    {
      "type": "function",
      "name": "checkJailed",
      "inputs": [
        {
          "name": "consensus",
          "type": "address",
          "internalType": "TConsensus"
        }
      ],
      "outputs": [
        {
          "name": "",
          "type": "bool",
          "internalType": "bool"
        }
      ],
      "stateMutability": "view"
    },
    {
      "type": "function",
      "name": "checkJailedAtBlock",
      "inputs": [
        {
          "name": "addr",
          "type": "address",
          "internalType": "TConsensus"
        },
        {
          "name": "blockNum",
          "type": "uint256",
          "internalType": "uint256"
        }
      ],
      "outputs": [
        {
          "name": "",
          "type": "bool",
          "internalType": "bool"
        }
      ],
      "stateMutability": "view"
    },
    {
      "type": "function",
      "name": "checkManyJailed",
      "inputs": [
        {
          "name": "consensusList",
          "type": "address[]",
          "internalType": "TConsensus[]"
        }
      ],
      "outputs": [
        {
          "name": "",
          "type": "bool[]",
          "internalType": "bool[]"
        }
      ],
      "stateMutability": "view"
    },
    {
      "type": "function",
      "name": "checkManyJailedById",
      "inputs": [
        {
          "name": "candidateIds",
          "type": "address[]",
          "internalType": "address[]"
        }
      ],
      "outputs": [
        {
          "name": "",
          "type": "bool[]",
          "internalType": "bool[]"
        }
      ],
      "stateMutability": "view"
    },
    {
      "type": "function",
      "name": "checkMiningRewardDeprecated",
      "inputs": [
        {
          "name": "consensus",
          "type": "address",
          "internalType": "TConsensus"
        }
      ],
      "outputs": [
        {
          "name": "",
          "type": "bool",
          "internalType": "bool"
        }
      ],
      "stateMutability": "view"
    },
    {
      "type": "function",
      "name": "checkMiningRewardDeprecatedAtPeriod",
      "inputs": [
        {
          "name": "consensus",
          "type": "address",
          "internalType": "TConsensus"
        },
        {
          "name": "period",
          "type": "uint256",
          "internalType": "uint256"
        }
      ],
      "outputs": [
        {
          "name": "",
          "type": "bool",
          "internalType": "bool"
        }
      ],
      "stateMutability": "view"
    },
    {
      "type": "function",
      "name": "currentPeriod",
      "inputs": [],
      "outputs": [
        {
          "name": "",
          "type": "uint256",
          "internalType": "uint256"
        }
      ],
      "stateMutability": "view"
    },
    {
      "type": "function",
      "name": "currentPeriodStartAtBlock",
      "inputs": [],
      "outputs": [
        {
          "name": "",
          "type": "uint256",
          "internalType": "uint256"
        }
      ],
      "stateMutability": "view"
    },
    {
      "type": "function",
      "name": "emergencyExitLockedAmount",
      "inputs": [],
      "outputs": [
        {
          "name": "",
          "type": "uint256",
          "internalType": "uint256"
        }
      ],
      "stateMutability": "view"
    },
    {
      "type": "function",
      "name": "emergencyExpiryDuration",
      "inputs": [],
      "outputs": [
        {
          "name": "",
          "type": "uint256",
          "internalType": "uint256"
        }
      ],
      "stateMutability": "view"
    },
    {
      "type": "function",
      "name": "epochEndingAt",
      "inputs": [
        {
          "name": "_block",
          "type": "uint256",
          "internalType": "uint256"
        }
      ],
      "outputs": [
        {
          "name": "",
          "type": "bool",
          "internalType": "bool"
        }
      ],
      "stateMutability": "view"
    },
    {
      "type": "function",
      "name": "epochOf",
      "inputs": [
        {
          "name": "_block",
          "type": "uint256",
          "internalType": "uint256"
        }
      ],
      "outputs": [
        {
          "name": "",
          "type": "uint256",
          "internalType": "uint256"
        }
      ],
      "stateMutability": "view"
    },
    {
      "type": "function",
      "name": "execApplyValidatorCandidate",
      "inputs": [
        {
          "name": "candidateAdmin",
          "type": "address",
          "internalType": "address"
        },
        {
          "name": "cid",
          "type": "address",
          "internalType": "address"
        },
        {
          "name": "treasuryAddr",
          "type": "address",
          "internalType": "address payable"
        },
        {
          "name": "commissionRate",
          "type": "uint256",
          "internalType": "uint256"
        }
      ],
      "outputs": [],
      "stateMutability": "nonpayable"
    },
    {
      "type": "function",
      "name": "execBailOut",
      "inputs": [
        {
          "name": "validatorId",
          "type": "address",
          "internalType": "address"
        },
        {
          "name": "period",
          "type": "uint256",
          "internalType": "uint256"
        }
      ],
      "outputs": [],
      "stateMutability": "nonpayable"
    },
    {
      "type": "function",
      "name": "execChangeAdminAddress",
      "inputs": [
        {
          "name": "cid",
          "type": "address",
          "internalType": "address"
        },
        {
          "name": "newAdmin",
          "type": "address",
          "internalType": "address"
        }
      ],
      "outputs": [],
      "stateMutability": "nonpayable"
    },
    {
      "type": "function",
      "name": "execChangeConsensusAddress",
      "inputs": [
        {
          "name": "cid",
          "type": "address",
          "internalType": "address"
        },
        {
          "name": "newConsensusAddr",
          "type": "address",
          "internalType": "TConsensus"
        }
      ],
      "outputs": [],
      "stateMutability": "nonpayable"
    },
    {
      "type": "function",
      "name": "execChangeTreasuryAddress",
      "inputs": [
        {
          "name": "cid",
          "type": "address",
          "internalType": "address"
        },
        {
          "name": "newTreasury",
          "type": "address",
          "internalType": "address payable"
        }
      ],
      "outputs": [],
      "stateMutability": "nonpayable"
    },
    {
      "type": "function",
      "name": "execReleaseLockedFundForEmergencyExitRequest",
      "inputs": [
        {
          "name": "cid",
          "type": "address",
          "internalType": "address"
        },
        {
          "name": "recipient",
          "type": "address",
          "internalType": "address payable"
        }
      ],
      "outputs": [],
      "stateMutability": "nonpayable"
    },
    {
      "type": "function",
      "name": "execRequestEmergencyExit",
      "inputs": [
        {
          "name": "cid",
          "type": "address",
          "internalType": "address"
        },
        {
          "name": "secLeftToRevoke",
          "type": "uint256",
          "internalType": "uint256"
        }
      ],
      "outputs": [],
      "stateMutability": "nonpayable"
    },
    {
      "type": "function",
      "name": "execRequestRenounceCandidate",
      "inputs": [
        {
          "name": "cid",
          "type": "address",
          "internalType": "address"
        },
        {
          "name": "secsLeft",
          "type": "uint256",
          "internalType": "uint256"
        }
      ],
      "outputs": [],
      "stateMutability": "nonpayable"
    },
    {
      "type": "function",
      "name": "execRequestUpdateCommissionRate",
      "inputs": [
        {
          "name": "cid",
          "type": "address",
          "internalType": "address"
        },
        {
          "name": "effectiveDaysOnwards",
          "type": "uint256",
          "internalType": "uint256"
        },
        {
          "name": "commissionRate",
          "type": "uint256",
          "internalType": "uint256"
        }
      ],
      "outputs": [],
      "stateMutability": "nonpayable"
    },
    {
      "type": "function",
      "name": "execSlash",
      "inputs": [
        {
          "name": "validatorId",
          "type": "address",
          "internalType": "address"
        },
        {
          "name": "newJailedUntil",
          "type": "uint256",
          "internalType": "uint256"
        },
        {
          "name": "slashAmount",
          "type": "uint256",
          "internalType": "uint256"
        },
        {
          "name": "cannotBailout",
          "type": "bool",
          "internalType": "bool"
        }
      ],
      "outputs": [],
      "stateMutability": "nonpayable"
    },
    {
      "type": "function",
      "name": "getBlockProducerIds",
      "inputs": [],
      "outputs": [
        {
          "name": "cids",
          "type": "address[]",
          "internalType": "address[]"
        }
      ],
      "stateMutability": "view"
    },
    {
      "type": "function",
      "name": "getBlockProducers",
      "inputs": [],
      "outputs": [
        {
          "name": "consensusList",
          "type": "address[]",
          "internalType": "TConsensus[]"
        }
      ],
      "stateMutability": "view"
    },
    {
      "type": "function",
      "name": "getCandidateInfo",
      "inputs": [
        {
          "name": "consensus",
          "type": "address",
          "internalType": "TConsensus"
        }
      ],
      "outputs": [
        {
          "name": "",
          "type": "tuple",
          "internalType": "struct ICandidateManager.ValidatorCandidate",
          "components": [
            {
              "name": "__shadowedAdmin",
              "type": "address",
              "internalType": "address"
            },
            {
              "name": "__shadowedConsensus",
              "type": "address",
              "internalType": "TConsensus"
            },
            {
              "name": "__shadowedTreasury",
              "type": "address",
              "internalType": "address payable"
            },
            {
              "name": "____deprecatedBridgeOperatorAddr",
              "type": "address",
              "internalType": "address"
            },
            {
              "name": "commissionRate",
              "type": "uint256",
              "internalType": "uint256"
            },
            {
              "name": "revokingTimestamp",
              "type": "uint256",
              "internalType": "uint256"
            },
            {
              "name": "topupDeadline",
              "type": "uint256",
              "internalType": "uint256"
            }
          ]
        }
      ],
      "stateMutability": "view"
    },
    {
      "type": "function",
      "name": "getCandidateInfos",
      "inputs": [],
      "outputs": [
        {
          "name": "list",
          "type": "tuple[]",
          "internalType": "struct ICandidateManager.ValidatorCandidate[]",
          "components": [
            {
              "name": "__shadowedAdmin",
              "type": "address",
              "internalType": "address"
            },
            {
              "name": "__shadowedConsensus",
              "type": "address",
              "internalType": "TConsensus"
            },
            {
              "name": "__shadowedTreasury",
              "type": "address",
              "internalType": "address payable"
            },
            {
              "name": "____deprecatedBridgeOperatorAddr",
              "type": "address",
              "internalType": "address"
            },
            {
              "name": "commissionRate",
              "type": "uint256",
              "internalType": "uint256"
            },
            {
              "name": "revokingTimestamp",
              "type": "uint256",
              "internalType": "uint256"
            },
            {
              "name": "topupDeadline",
              "type": "uint256",
              "internalType": "uint256"
            }
          ]
        }
      ],
      "stateMutability": "view"
    },
    {
      "type": "function",
      "name": "getCommissionChangeSchedule",
      "inputs": [
        {
          "name": "consensus",
          "type": "address",
          "internalType": "TConsensus"
        }
      ],
      "outputs": [
        {
          "name": "",
          "type": "tuple",
          "internalType": "struct ICandidateManager.CommissionSchedule",
          "components": [
            {
              "name": "effectiveTimestamp",
              "type": "uint256",
              "internalType": "uint256"
            },
            {
              "name": "commissionRate",
              "type": "uint256",
              "internalType": "uint256"
            }
          ]
        }
      ],
      "stateMutability": "view"
    },
    {
      "type": "function",
      "name": "getContract",
      "inputs": [
        {
          "name": "contractType",
          "type": "uint8",
          "internalType": "enum ContractType"
        }
      ],
      "outputs": [
        {
          "name": "contract_",
          "type": "address",
          "internalType": "address"
        }
      ],
      "stateMutability": "view"
    },
    {
      "type": "function",
      "name": "getEmergencyExitInfo",
      "inputs": [
        {
          "name": "consensus",
          "type": "address",
          "internalType": "TConsensus"
        }
      ],
      "outputs": [
        {
          "name": "_info",
          "type": "tuple",
          "internalType": "struct ICommonInfo.EmergencyExitInfo",
          "components": [
            {
              "name": "lockedAmount",
              "type": "uint256",
              "internalType": "uint256"
            },
            {
              "name": "recyclingAt",
              "type": "uint256",
              "internalType": "uint256"
            }
          ]
        }
      ],
      "stateMutability": "view"
    },
    {
      "type": "function",
      "name": "getJailedTimeLeft",
      "inputs": [
        {
          "name": "consensus",
          "type": "address",
          "internalType": "TConsensus"
        }
      ],
      "outputs": [
        {
          "name": "isJailed_",
          "type": "bool",
          "internalType": "bool"
        },
        {
          "name": "blockLeft_",
          "type": "uint256",
          "internalType": "uint256"
        },
        {
          "name": "epochLeft_",
          "type": "uint256",
          "internalType": "uint256"
        }
      ],
      "stateMutability": "view"
    },
    {
      "type": "function",
      "name": "getJailedTimeLeftAtBlock",
      "inputs": [
        {
          "name": "consensus",
          "type": "address",
          "internalType": "TConsensus"
        },
        {
          "name": "_blockNum",
          "type": "uint256",
          "internalType": "uint256"
        }
      ],
      "outputs": [
        {
          "name": "isJailed_",
          "type": "bool",
          "internalType": "bool"
        },
        {
          "name": "blockLeft_",
          "type": "uint256",
          "internalType": "uint256"
        },
        {
          "name": "epochLeft_",
          "type": "uint256",
          "internalType": "uint256"
        }
      ],
      "stateMutability": "view"
    },
    {
      "type": "function",
      "name": "getLastUpdatedBlock",
      "inputs": [],
      "outputs": [
        {
          "name": "",
          "type": "uint256",
          "internalType": "uint256"
        }
      ],
      "stateMutability": "view"
    },
    {
      "type": "function",
      "name": "getValidatorCandidateIds",
      "inputs": [],
      "outputs": [
        {
          "name": "",
          "type": "address[]",
          "internalType": "address[]"
        }
      ],
      "stateMutability": "view"
    },
    {
      "type": "function",
      "name": "getValidatorCandidates",
      "inputs": [],
      "outputs": [
        {
          "name": "",
          "type": "address[]",
          "internalType": "TConsensus[]"
        }
      ],
      "stateMutability": "view"
    },
    {
      "type": "function",
      "name": "getValidatorIds",
      "inputs": [],
      "outputs": [
        {
          "name": "cids",
          "type": "address[]",
          "internalType": "address[]"
        }
      ],
      "stateMutability": "view"
    },
    {
      "type": "function",
      "name": "getValidators",
      "inputs": [],
      "outputs": [
        {
          "name": "consensusList",
          "type": "address[]",
          "internalType": "TConsensus[]"
        }
      ],
      "stateMutability": "view"
    },
    {
      "type": "function",
      "name": "initialize",
      "inputs": [
        {
          "name": "__slashIndicatorContract",
          "type": "address",
          "internalType": "address"
        },
        {
          "name": "__stakingContract",
          "type": "address",
          "internalType": "address"
        },
        {
          "name": "__stakingVestingContract",
          "type": "address",
          "internalType": "address"
        },
        {
          "name": "__maintenanceContract",
          "type": "address",
          "internalType": "address"
        },
        {
          "name": "__roninTrustedOrganizationContract",
          "type": "address",
          "internalType": "address"
        },
        {
          "name": "",
          "type": "address",
          "internalType": "address"
        },
        {
          "name": "__maxValidatorNumber",
          "type": "uint256",
          "internalType": "uint256"
        },
        {
          "name": "__maxValidatorCandidate",
          "type": "uint256",
          "internalType": "uint256"
        },
        {
          "name": "__maxPrioritizedValidatorNumber",
          "type": "uint256",
          "internalType": "uint256"
        },
        {
          "name": "__minEffectiveDaysOnwards",
          "type": "uint256",
          "internalType": "uint256"
        },
        {
          "name": "__numberOfBlocksInEpoch",
          "type": "uint256",
          "internalType": "uint256"
        },
        {
          "name": "__emergencyExitConfigs",
          "type": "uint256[2]",
          "internalType": "uint256[2]"
        }
      ],
      "outputs": [],
      "stateMutability": "nonpayable"
    },
    {
      "type": "function",
      "name": "initializeV2",
      "inputs": [],
      "outputs": [],
      "stateMutability": "nonpayable"
    },
    {
      "type": "function",
      "name": "initializeV3",
      "inputs": [
        {
          "name": "fastFinalityTrackingContract",
          "type": "address",
          "internalType": "address"
        }
      ],
      "outputs": [],
      "stateMutability": "nonpayable"
    },
    {
      "type": "function",
      "name": "initializeV4",
      "inputs": [
        {
          "name": "profileContract",
          "type": "address",
          "internalType": "address"
        }
      ],
      "outputs": [],
      "stateMutability": "nonpayable"
    },
    {
      "type": "function",
      "name": "isBlockProducer",
      "inputs": [
        {
          "name": "consensusAddr",
          "type": "address",
          "internalType": "TConsensus"
        }
      ],
      "outputs": [
        {
          "name": "",
          "type": "bool",
          "internalType": "bool"
        }
      ],
      "stateMutability": "view"
    },
    {
      "type": "function",
      "name": "isBlockProducerById",
      "inputs": [
        {
          "name": "id",
          "type": "address",
          "internalType": "address"
        }
      ],
      "outputs": [
        {
          "name": "",
          "type": "bool",
          "internalType": "bool"
        }
      ],
      "stateMutability": "view"
    },
    {
      "type": "function",
      "name": "isCandidateAdmin",
      "inputs": [
        {
          "name": "consensusAddr",
          "type": "address",
          "internalType": "TConsensus"
        },
        {
          "name": "admin",
          "type": "address",
          "internalType": "address"
        }
      ],
      "outputs": [
        {
          "name": "",
          "type": "bool",
          "internalType": "bool"
        }
      ],
      "stateMutability": "view"
    },
    {
      "type": "function",
      "name": "isCandidateAdminById",
      "inputs": [
        {
          "name": "candidateId",
          "type": "address",
          "internalType": "address"
        },
        {
          "name": "admin",
          "type": "address",
          "internalType": "address"
        }
      ],
      "outputs": [
        {
          "name": "",
          "type": "bool",
          "internalType": "bool"
        }
      ],
      "stateMutability": "view"
    },
    {
      "type": "function",
      "name": "isPeriodEnding",
      "inputs": [],
      "outputs": [
        {
          "name": "",
          "type": "bool",
          "internalType": "bool"
        }
      ],
      "stateMutability": "view"
    },
    {
      "type": "function",
      "name": "isValidatorCandidate",
      "inputs": [
        {
          "name": "consensus",
          "type": "address",
          "internalType": "TConsensus"
        }
      ],
      "outputs": [
        {
          "name": "",
          "type": "bool",
          "internalType": "bool"
        }
      ],
      "stateMutability": "view"
    },
    {
      "type": "function",
      "name": "maxPrioritizedValidatorNumber",
      "inputs": [],
      "outputs": [
        {
          "name": "_maximumPrioritizedValidatorNumber",
          "type": "uint256",
          "internalType": "uint256"
        }
      ],
      "stateMutability": "view"
    },
    {
      "type": "function",
      "name": "maxValidatorCandidate",
      "inputs": [],
      "outputs": [
        {
          "name": "",
          "type": "uint256",
          "internalType": "uint256"
        }
      ],
      "stateMutability": "view"
    },
    {
      "type": "function",
      "name": "maxValidatorNumber",
      "inputs": [],
      "outputs": [
        {
          "name": "_maximumValidatorNumber",
          "type": "uint256",
          "internalType": "uint256"
        }
      ],
      "stateMutability": "view"
    },
    {
      "type": "function",
      "name": "minEffectiveDaysOnward",
      "inputs": [],
      "outputs": [
        {
          "name": "",
          "type": "uint256",
          "internalType": "uint256"
        }
      ],
      "stateMutability": "view"
    },
    {
      "type": "function",
      "name": "numberOfBlocksInEpoch",
      "inputs": [],
      "outputs": [
        {
          "name": "_numberOfBlocks",
          "type": "uint256",
          "internalType": "uint256"
        }
      ],
      "stateMutability": "view"
    },
    {
      "type": "function",
      "name": "precompilePickValidatorSetAddress",
      "inputs": [],
      "outputs": [
        {
          "name": "",
          "type": "address",
          "internalType": "address"
        }
      ],
      "stateMutability": "view"
    },
    {
      "type": "function",
      "name": "precompileSortValidatorsAddress",
      "inputs": [],
      "outputs": [
        {
          "name": "",
          "type": "address",
          "internalType": "address"
        }
      ],
      "stateMutability": "view"
    },
    {
      "type": "function",
      "name": "setContract",
      "inputs": [
        {
          "name": "contractType",
          "type": "uint8",
          "internalType": "enum ContractType"
        },
        {
          "name": "addr",
          "type": "address",
          "internalType": "address"
        }
      ],
      "outputs": [],
      "stateMutability": "nonpayable"
    },
    {
      "type": "function",
      "name": "setEmergencyExitLockedAmount",
      "inputs": [
        {
          "name": "amount",
          "type": "uint256",
          "internalType": "uint256"
        }
      ],
      "outputs": [],
      "stateMutability": "nonpayable"
    },
    {
      "type": "function",
      "name": "setEmergencyExpiryDuration",
      "inputs": [
        {
          "name": "duration",
          "type": "uint256",
          "internalType": "uint256"
        }
      ],
      "outputs": [],
      "stateMutability": "nonpayable"
    },
    {
      "type": "function",
      "name": "setMaxPrioritizedValidatorNumber",
      "inputs": [
        {
          "name": "_number",
          "type": "uint256",
          "internalType": "uint256"
        }
      ],
      "outputs": [],
      "stateMutability": "nonpayable"
    },
    {
      "type": "function",
      "name": "setMaxValidatorCandidate",
      "inputs": [
        {
          "name": "_number",
          "type": "uint256",
          "internalType": "uint256"
        }
      ],
      "outputs": [],
      "stateMutability": "nonpayable"
    },
    {
      "type": "function",
      "name": "setMaxValidatorNumber",
      "inputs": [
        {
          "name": "_max",
          "type": "uint256",
          "internalType": "uint256"
        }
      ],
      "outputs": [],
      "stateMutability": "nonpayable"
    },
    {
      "type": "function",
      "name": "setMinEffectiveDaysOnwards",
      "inputs": [
        {
          "name": "_numOfDays",
          "type": "uint256",
          "internalType": "uint256"
        }
      ],
      "outputs": [],
      "stateMutability": "nonpayable"
    },
    {
      "type": "function",
      "name": "submitBlockReward",
      "inputs": [],
      "outputs": [],
      "stateMutability": "payable"
    },
    {
      "type": "function",
      "name": "totalBlockProducer",
      "inputs": [],
      "outputs": [
        {
          "name": "total",
          "type": "uint256",
          "internalType": "uint256"
        }
      ],
      "stateMutability": "view"
    },
    {
      "type": "function",
      "name": "totalDeprecatedReward",
      "inputs": [],
      "outputs": [
        {
          "name": "",
          "type": "uint256",
          "internalType": "uint256"
        }
      ],
      "stateMutability": "view"
    },
    {
      "type": "function",
      "name": "tryGetPeriodOfEpoch",
      "inputs": [
        {
          "name": "_epoch",
          "type": "uint256",
          "internalType": "uint256"
        }
      ],
      "outputs": [
        {
          "name": "_filled",
          "type": "bool",
          "internalType": "bool"
        },
        {
          "name": "_periodNumber",
          "type": "uint256",
          "internalType": "uint256"
        }
      ],
      "stateMutability": "view"
    },
    {
      "type": "function",
      "name": "validatorCount",
      "inputs": [],
      "outputs": [
        {
          "name": "",
          "type": "uint256",
          "internalType": "uint256"
        }
      ],
      "stateMutability": "view"
    },
    {
      "type": "function",
      "name": "wrapUpEpoch",
      "inputs": [],
      "outputs": [],
      "stateMutability": "payable"
    },
    {
      "type": "event",
      "name": "BlockProducerSetUpdated",
      "inputs": [
        {
          "name": "period",
          "type": "uint256",
          "indexed": true,
          "internalType": "uint256"
        },
        {
          "name": "epoch",
          "type": "uint256",
          "indexed": true,
          "internalType": "uint256"
        },
        {
          "name": "cids",
          "type": "address[]",
          "indexed": false,
          "internalType": "address[]"
        }
      ],
      "anonymous": false
    },
    {
      "type": "event",
      "name": "BlockRewardDeprecated",
      "inputs": [
        {
          "name": "cid",
          "type": "address",
          "indexed": true,
          "internalType": "address"
        },
        {
          "name": "rewardAmount",
          "type": "uint256",
          "indexed": false,
          "internalType": "uint256"
        },
        {
          "name": "deprecatedType",
          "type": "uint8",
          "indexed": false,
          "internalType": "enum ICoinbaseExecution.BlockRewardDeprecatedType"
        }
      ],
      "anonymous": false
    },
    {
      "type": "event",
      "name": "BlockRewardSubmitted",
      "inputs": [
        {
          "name": "cid",
          "type": "address",
          "indexed": true,
          "internalType": "address"
        },
        {
          "name": "submittedAmount",
          "type": "uint256",
          "indexed": false,
          "internalType": "uint256"
        },
        {
          "name": "bonusAmount",
          "type": "uint256",
          "indexed": false,
          "internalType": "uint256"
        }
      ],
      "anonymous": false
    },
    {
      "type": "event",
      "name": "BridgeOperatorRewardDistributed",
      "inputs": [
        {
          "name": "cid",
          "type": "address",
          "indexed": true,
          "internalType": "address"
        },
        {
          "name": "bridgeOperator",
          "type": "address",
          "indexed": true,
          "internalType": "address"
        },
        {
          "name": "recipientAddr",
          "type": "address",
          "indexed": true,
          "internalType": "address"
        },
        {
          "name": "amount",
          "type": "uint256",
          "indexed": false,
          "internalType": "uint256"
        }
      ],
      "anonymous": false
    },
    {
      "type": "event",
      "name": "BridgeOperatorRewardDistributionFailed",
      "inputs": [
        {
          "name": "cid",
          "type": "address",
          "indexed": true,
          "internalType": "address"
        },
        {
          "name": "bridgeOperator",
          "type": "address",
          "indexed": true,
          "internalType": "address"
        },
        {
          "name": "recipient",
          "type": "address",
          "indexed": true,
          "internalType": "address"
        },
        {
          "name": "amount",
          "type": "uint256",
          "indexed": false,
          "internalType": "uint256"
        },
        {
          "name": "contractBalance",
          "type": "uint256",
          "indexed": false,
          "internalType": "uint256"
        }
      ],
      "anonymous": false
    },
    {
      "type": "event",
      "name": "BridgeOperatorSetUpdated",
      "inputs": [
        {
          "name": "period",
          "type": "uint256",
          "indexed": true,
          "internalType": "uint256"
        },
        {
          "name": "epoch",
          "type": "uint256",
          "indexed": true,
          "internalType": "uint256"
        },
        {
          "name": "bridgeOperators",
          "type": "address[]",
          "indexed": false,
          "internalType": "address[]"
        }
      ],
      "anonymous": false
    },
    {
      "type": "event",
      "name": "CandidateGranted",
      "inputs": [
        {
          "name": "cid",
          "type": "address",
          "indexed": true,
          "internalType": "address"
        },
        {
          "name": "treasuryAddr",
          "type": "address",
          "indexed": true,
          "internalType": "address"
        },
        {
          "name": "admin",
          "type": "address",
          "indexed": true,
          "internalType": "address"
        }
      ],
      "anonymous": false
    },
    {
      "type": "event",
      "name": "CandidateRevokingTimestampUpdated",
      "inputs": [
        {
          "name": "cid",
          "type": "address",
          "indexed": true,
          "internalType": "address"
        },
        {
          "name": "revokingTimestamp",
          "type": "uint256",
          "indexed": false,
          "internalType": "uint256"
        }
      ],
      "anonymous": false
    },
    {
      "type": "event",
      "name": "CandidateTopupDeadlineUpdated",
      "inputs": [
        {
          "name": "cid",
          "type": "address",
          "indexed": true,
          "internalType": "address"
        },
        {
          "name": "topupDeadline",
          "type": "uint256",
          "indexed": false,
          "internalType": "uint256"
        }
      ],
      "anonymous": false
    },
    {
      "type": "event",
      "name": "CandidatesRevoked",
      "inputs": [
        {
          "name": "cids",
          "type": "address[]",
          "indexed": false,
          "internalType": "address[]"
        }
      ],
      "anonymous": false
    },
    {
      "type": "event",
      "name": "CommissionRateUpdateScheduled",
      "inputs": [
        {
          "name": "cid",
          "type": "address",
          "indexed": true,
          "internalType": "address"
        },
        {
          "name": "effectiveTimestamp",
          "type": "uint256",
          "indexed": false,
          "internalType": "uint256"
        },
        {
          "name": "rate",
          "type": "uint256",
          "indexed": false,
          "internalType": "uint256"
        }
      ],
      "anonymous": false
    },
    {
      "type": "event",
      "name": "CommissionRateUpdated",
      "inputs": [
        {
          "name": "cid",
          "type": "address",
          "indexed": true,
          "internalType": "address"
        },
        {
          "name": "rate",
          "type": "uint256",
          "indexed": false,
          "internalType": "uint256"
        }
      ],
      "anonymous": false
    },
    {
      "type": "event",
      "name": "ContractUpdated",
      "inputs": [
        {
          "name": "contractType",
          "type": "uint8",
          "indexed": true,
          "internalType": "enum ContractType"
        },
        {
          "name": "addr",
          "type": "address",
          "indexed": true,
          "internalType": "address"
        }
      ],
      "anonymous": false
    },
    {
      "type": "event",
      "name": "DeprecatedRewardRecycleFailed",
      "inputs": [
        {
          "name": "recipientAddr",
          "type": "address",
          "indexed": true,
          "internalType": "address"
        },
        {
          "name": "amount",
          "type": "uint256",
          "indexed": false,
          "internalType": "uint256"
        },
        {
          "name": "balance",
          "type": "uint256",
          "indexed": false,
          "internalType": "uint256"
        }
      ],
      "anonymous": false
    },
    {
      "type": "event",
      "name": "DeprecatedRewardRecycled",
      "inputs": [
        {
          "name": "recipientAddr",
          "type": "address",
          "indexed": true,
          "internalType": "address"
        },
        {
          "name": "amount",
          "type": "uint256",
          "indexed": false,
          "internalType": "uint256"
        }
      ],
      "anonymous": false
    },
    {
      "type": "event",
      "name": "EmergencyExitLockedAmountUpdated",
      "inputs": [
        {
          "name": "amount",
          "type": "uint256",
          "indexed": false,
          "internalType": "uint256"
        }
      ],
      "anonymous": false
    },
    {
      "type": "event",
      "name": "EmergencyExitLockedFundReleased",
      "inputs": [
        {
          "name": "cid",
          "type": "address",
          "indexed": true,
          "internalType": "address"
        },
        {
          "name": "recipient",
          "type": "address",
          "indexed": true,
          "internalType": "address"
        },
        {
          "name": "unlockedAmount",
          "type": "uint256",
          "indexed": false,
          "internalType": "uint256"
        }
      ],
      "anonymous": false
    },
    {
      "type": "event",
      "name": "EmergencyExitLockedFundReleasingFailed",
      "inputs": [
        {
          "name": "cid",
          "type": "address",
          "indexed": true,
          "internalType": "address"
        },
        {
          "name": "recipient",
          "type": "address",
          "indexed": true,
          "internalType": "address"
        },
        {
          "name": "unlockedAmount",
          "type": "uint256",
          "indexed": false,
          "internalType": "uint256"
        },
        {
          "name": "contractBalance",
          "type": "uint256",
          "indexed": false,
          "internalType": "uint256"
        }
      ],
      "anonymous": false
    },
    {
      "type": "event",
      "name": "EmergencyExitRequested",
      "inputs": [
        {
          "name": "cid",
          "type": "address",
          "indexed": true,
          "internalType": "address"
        },
        {
          "name": "lockedAmount",
          "type": "uint256",
          "indexed": false,
          "internalType": "uint256"
        }
      ],
      "anonymous": false
    },
    {
      "type": "event",
      "name": "EmergencyExpiryDurationUpdated",
      "inputs": [
        {
          "name": "amount",
          "type": "uint256",
          "indexed": false,
          "internalType": "uint256"
        }
      ],
      "anonymous": false
    },
    {
      "type": "event",
      "name": "FastFinalityRewardDistributed",
      "inputs": [
        {
          "name": "cid",
          "type": "address",
          "indexed": true,
          "internalType": "address"
        },
        {
          "name": "recipient",
          "type": "address",
          "indexed": true,
          "internalType": "address"
        },
        {
          "name": "amount",
          "type": "uint256",
          "indexed": false,
          "internalType": "uint256"
        }
      ],
      "anonymous": false
    },
    {
      "type": "event",
      "name": "FastFinalityRewardDistributionFailed",
      "inputs": [
        {
          "name": "cid",
          "type": "address",
          "indexed": true,
          "internalType": "address"
        },
        {
          "name": "recipient",
          "type": "address",
          "indexed": true,
          "internalType": "address"
        },
        {
          "name": "amount",
          "type": "uint256",
          "indexed": false,
          "internalType": "uint256"
        },
        {
          "name": "contractBalance",
          "type": "uint256",
          "indexed": false,
          "internalType": "uint256"
        }
      ],
      "anonymous": false
    },
    {
      "type": "event",
      "name": "Initialized",
      "inputs": [
        {
          "name": "version",
          "type": "uint8",
          "indexed": false,
          "internalType": "uint8"
        }
      ],
      "anonymous": false
    },
    {
      "type": "event",
      "name": "MaxPrioritizedValidatorNumberUpdated",
      "inputs": [
        {
          "name": "",
          "type": "uint256",
          "indexed": false,
          "internalType": "uint256"
        }
      ],
      "anonymous": false
    },
    {
      "type": "event",
      "name": "MaxValidatorCandidateUpdated",
      "inputs": [
        {
          "name": "threshold",
          "type": "uint256",
          "indexed": false,
          "internalType": "uint256"
        }
      ],
      "anonymous": false
    },
    {
      "type": "event",
      "name": "MaxValidatorNumberUpdated",
      "inputs": [
        {
          "name": "",
          "type": "uint256",
          "indexed": false,
          "internalType": "uint256"
        }
      ],
      "anonymous": false
    },
    {
      "type": "event",
      "name": "MinEffectiveDaysOnwardsUpdated",
      "inputs": [
        {
          "name": "numOfDays",
          "type": "uint256",
          "indexed": false,
          "internalType": "uint256"
        }
      ],
      "anonymous": false
    },
    {
      "type": "event",
      "name": "MiningRewardDistributed",
      "inputs": [
        {
          "name": "cid",
          "type": "address",
          "indexed": true,
          "internalType": "address"
        },
        {
          "name": "recipient",
          "type": "address",
          "indexed": true,
          "internalType": "address"
        },
        {
          "name": "amount",
          "type": "uint256",
          "indexed": false,
          "internalType": "uint256"
        }
      ],
      "anonymous": false
    },
    {
      "type": "event",
      "name": "MiningRewardDistributionFailed",
      "inputs": [
        {
          "name": "cid",
          "type": "address",
          "indexed": true,
          "internalType": "address"
        },
        {
          "name": "recipient",
          "type": "address",
          "indexed": true,
          "internalType": "address"
        },
        {
          "name": "amount",
          "type": "uint256",
          "indexed": false,
          "internalType": "uint256"
        },
        {
          "name": "contractBalance",
          "type": "uint256",
          "indexed": false,
          "internalType": "uint256"
        }
      ],
      "anonymous": false
    },
    {
      "type": "event",
      "name": "StakingRewardDistributed",
      "inputs": [
        {
          "name": "totalAmount",
          "type": "uint256",
          "indexed": false,
          "internalType": "uint256"
        },
        {
          "name": "cids",
          "type": "address[]",
          "indexed": false,
          "internalType": "address[]"
        },
        {
          "name": "amounts",
          "type": "uint256[]",
          "indexed": false,
          "internalType": "uint256[]"
        }
      ],
      "anonymous": false
    },
    {
      "type": "event",
      "name": "StakingRewardDistributionFailed",
      "inputs": [
        {
          "name": "totalAmount",
          "type": "uint256",
          "indexed": false,
          "internalType": "uint256"
        },
        {
          "name": "cids",
          "type": "address[]",
          "indexed": false,
          "internalType": "address[]"
        },
        {
          "name": "amounts",
          "type": "uint256[]",
          "indexed": false,
          "internalType": "uint256[]"
        },
        {
          "name": "contractBalance",
          "type": "uint256",
          "indexed": false,
          "internalType": "uint256"
        }
      ],
      "anonymous": false
    },
    {
      "type": "event",
      "name": "ValidatorPunished",
      "inputs": [
        {
          "name": "cid",
          "type": "address",
          "indexed": true,
          "internalType": "address"
        },
        {
          "name": "period",
          "type": "uint256",
          "indexed": true,
          "internalType": "uint256"
        },
        {
          "name": "jailedUntil",
          "type": "uint256",
          "indexed": false,
          "internalType": "uint256"
        },
        {
          "name": "deductedStakingAmount",
          "type": "uint256",
          "indexed": false,
          "internalType": "uint256"
        },
        {
          "name": "blockProducerRewardDeprecated",
          "type": "bool",
          "indexed": false,
          "internalType": "bool"
        },
        {
          "name": "bridgeOperatorRewardDeprecated",
          "type": "bool",
          "indexed": false,
          "internalType": "bool"
        }
      ],
      "anonymous": false
    },
    {
      "type": "event",
      "name": "ValidatorSetUpdated",
      "inputs": [
        {
          "name": "period",
          "type": "uint256",
          "indexed": true,
          "internalType": "uint256"
        },
        {
          "name": "cids",
          "type": "address[]",
          "indexed": false,
          "internalType": "address[]"
        }
      ],
      "anonymous": false
    },
    {
      "type": "event",
      "name": "ValidatorUnjailed",
      "inputs": [
        {
          "name": "cid",
          "type": "address",
          "indexed": true,
          "internalType": "address"
        },
        {
          "name": "period",
          "type": "uint256",
          "indexed": false,
          "internalType": "uint256"
        }
      ],
      "anonymous": false
    },
    {
      "type": "event",
      "name": "WrappedUpEpoch",
      "inputs": [
        {
          "name": "periodNumber",
          "type": "uint256",
          "indexed": true,
          "internalType": "uint256"
        },
        {
          "name": "epochNumber",
          "type": "uint256",
          "indexed": true,
          "internalType": "uint256"
        },
        {
          "name": "periodEnding",
          "type": "bool",
          "indexed": false,
          "internalType": "bool"
        }
      ],
      "anonymous": false
    },
    {
      "type": "error",
      "name": "ErrAlreadyRequestedEmergencyExit",
      "inputs": []
    },
    {
      "type": "error",
      "name": "ErrAlreadyRequestedRevokingCandidate",
      "inputs": []
    },
    {
      "type": "error",
      "name": "ErrAlreadyRequestedUpdatingCommissionRate",
      "inputs": []
    },
    {
      "type": "error",
      "name": "ErrAlreadyWrappedEpoch",
      "inputs": []
    },
    {
      "type": "error",
      "name": "ErrAtEndOfEpochOnly",
      "inputs": []
    },
    {
      "type": "error",
      "name": "ErrCallPrecompiled",
      "inputs": []
    },
    {
      "type": "error",
      "name": "ErrCallerMustBeCoinbase",
      "inputs": []
    },
    {
      "type": "error",
      "name": "ErrCannotBailout",
      "inputs": [
        {
          "name": "validator",
          "type": "address",
          "internalType": "address"
        }
      ]
    },
    {
      "type": "error",
      "name": "ErrContractTypeNotFound",
      "inputs": [
        {
          "name": "contractType",
          "type": "uint8",
          "internalType": "enum ContractType"
        }
      ]
    },
    {
      "type": "error",
      "name": "ErrExceedsMaxNumberOfCandidate",
      "inputs": []
    },
    {
      "type": "error",
      "name": "ErrExistentCandidate",
      "inputs": []
    },
    {
      "type": "error",
      "name": "ErrExistentCandidateAdmin",
      "inputs": [
        {
          "name": "candidateAdminAddr",
          "type": "address",
          "internalType": "address"
        }
      ]
    },
    {
      "type": "error",
      "name": "ErrExistentTreasury",
      "inputs": [
        {
          "name": "treasuryAddr",
          "type": "address",
          "internalType": "address"
        }
      ]
    },
    {
      "type": "error",
      "name": "ErrInsufficientBalance",
      "inputs": [
        {
          "name": "msgSig",
          "type": "bytes4",
          "internalType": "bytes4"
        },
        {
          "name": "currentBalance",
          "type": "uint256",
          "internalType": "uint256"
        },
        {
          "name": "sendAmount",
          "type": "uint256",
          "internalType": "uint256"
        }
      ]
    },
    {
      "type": "error",
      "name": "ErrInvalidCommissionRate",
      "inputs": []
    },
    {
      "type": "error",
      "name": "ErrInvalidEffectiveDaysOnwards",
      "inputs": []
    },
    {
      "type": "error",
      "name": "ErrInvalidMaxPrioritizedValidatorNumber",
      "inputs": []
    },
    {
      "type": "error",
      "name": "ErrInvalidMinEffectiveDaysOnwards",
      "inputs": []
    },
    {
      "type": "error",
      "name": "ErrLockedFundMightBeRecycled",
      "inputs": [
        {
          "name": "cid",
          "type": "address",
          "internalType": "address"
        }
      ]
    },
    {
      "type": "error",
      "name": "ErrLockedFundReleaseInfoNotFound",
      "inputs": [
        {
          "name": "cid",
          "type": "address",
          "internalType": "address"
        }
      ]
    },
    {
      "type": "error",
      "name": "ErrNonExistentCandidate",
      "inputs": []
    },
    {
      "type": "error",
      "name": "ErrRecipientRevert",
      "inputs": [
        {
          "name": "msgSig",
          "type": "bytes4",
          "internalType": "bytes4"
        }
      ]
    },
    {
      "type": "error",
      "name": "ErrTrustedOrgCannotRenounce",
      "inputs": []
    },
    {
      "type": "error",
      "name": "ErrUnauthorized",
      "inputs": [
        {
          "name": "msgSig",
          "type": "bytes4",
          "internalType": "bytes4"
        },
        {
          "name": "expectedRole",
          "type": "uint8",
          "internalType": "enum RoleAccess"
        }
      ]
    },
    {
      "type": "error",
      "name": "ErrUnauthorizedReceiveRON",
      "inputs": []
    },
    {
      "type": "error",
      "name": "ErrUnexpectedInternalCall",
      "inputs": [
        {
          "name": "msgSig",
          "type": "bytes4",
          "internalType": "bytes4"
        },
        {
          "name": "expectedContractType",
          "type": "uint8",
          "internalType": "enum ContractType"
        },
        {
          "name": "actual",
          "type": "address",
          "internalType": "address"
        }
      ]
    },
    {
      "type": "error",
      "name": "ErrZeroCodeContract",
      "inputs": [
        {
          "name": "addr",
          "type": "address",
          "internalType": "address"
        }
      ]
    },
    {
      "type": "error",
      "name": "NonExistentRecyclingInfo",
      "inputs": []
    }
  ],
  "address": "0xF86e81E3ca775a628Fa5747aA49Dd9C01Dd409D3",
  "args": "0x",
  "blockNumber": 24985426,
  "bytecode": "0x60806040523480156200001157600080fd5b506200001c62000022565b620000e4565b600054610100900460ff16156200008f5760405162461bcd60e51b815260206004820152602760248201527f496e697469616c697a61626c653a20636f6e747261637420697320696e697469604482015266616c697a696e6760c81b606482015260840160405180910390fd5b60005460ff9081161015620000e2576000805460ff191660ff9081179091556040519081527f7f26b83ff96e1f2b6a682f133852f6798a09c465da95921460cefb38474024989060200160405180910390a15b565b615bda80620000f46000396000f3fe6080604052600436106104335760003560e01c80636611f84311610228578063b7ab4db511610128578063dd716ad3116100bb578063ea80d67d1161008a578063edb194bb1161006f578063edb194bb14610be1578063eeb629a814610c01578063f883afaf14610c1657610442565b8063ea80d67d14610ba1578063ecd850cc14610bc157610442565b8063dd716ad314610b21578063de981f1b14610b41578063e5125a1d14610b61578063e8712aa714610b8157610442565b8063c94aaa02116100f7578063c94aaa0214610aac578063cdaa4e8114610acc578063d09f1ab414610aec578063d93fa30614610b0157610442565b8063b7ab4db514610a4d578063ba77b06c14610a62578063c3c8b5d614610a77578063c4e227f314610a9757610442565b8063873a5a70116101bb5780639a57bd931161018a578063a3d545f51161016f578063a3d545f514610a03578063a66c0f7714610a23578063afc69d7314610a3857610442565b80639a57bd93146109ce578063a0c3f2d2146109e357610442565b8063873a5a701461096557806387c891bd146109855780638d559c381461099a57806396585fc2146109ae57610442565b80637593ff71116101f75780637593ff71146108e55780637e1dc16f14610905578063823a7b9c14610925578063865e6fd31461094557610442565b80636611f84314610893578063690b7536146108b35780636aa1c2ef146108c857806372e46810146108dd57610442565b8063367ec12b116103335780634ee4d72b116102c65780635cd8a76b11610295578063612c8d981161027a578063612c8d981461084757806365244ece1461085c5780636558954f1461087c57610442565b80635cd8a76b1461081d578063605239a11461083257610442565b80634ee4d72b146107be5780634f2a693f146107d357806352091f17146107f35780635248184a146107fb57610442565b806349096d261161030257806349096d261461072d5780634d8df0631461074f5780634de2b7351461076f5780634e9b8b0a1461079c57610442565b8063367ec12b1461068e5780633b3159b6146106ae578063468c96ae146106d657806346ebb2321461070d57610442565b8063217f35c2116103c6578063297a8fca116103955780632f78204c1161037a5780632f78204c1461062e5780633101cfcb1461064e57806331a8aef51461066e57610442565b8063297a8fca146105ec5780632d784a981461060157610442565b8063217f35c21461056a57806323c65eb01461057f57806328bde1e11461059f5780632924de71146105cc57610442565b8063110a830811610402578063110a8308146104cd57806311662dc2146104ed5780631196ab661461052a57806315b5ebde1461054a57610442565b8063038278841461044a57806304d971ab1461047357806306040618146104a35780630f43a677146104b857610442565b3661044257610440610c36565b005b610440610c36565b34801561045657600080fd5b506104606104b081565b6040519081526020015b60405180910390f35b34801561047f57600080fd5b5061049361048e366004614fa9565b610cb5565b604051901515815260200161046a565b3480156104af57600080fd5b50610460610cef565b3480156104c457600080fd5b5060aa54610460565b3480156104d957600080fd5b506104406104e8366004614fe2565b610cff565b3480156104f957600080fd5b5061050d610508366004614fff565b610ded565b60408051931515845260208401929092529082015260600161046a565b34801561053657600080fd5b5061044061054536600461502b565b610e12565b34801561055657600080fd5b50610440610565366004614fff565b610e26565b34801561057657600080fd5b50610493610f40565b34801561058b57600080fd5b5061049361059a366004614fff565b610f55565b3480156105ab57600080fd5b506105bf6105ba366004614fe2565b610f89565b60405161046a9190615044565b3480156105d857600080fd5b506104936105e7366004614fe2565b611082565b3480156105f857600080fd5b50600454610460565b34801561060d57600080fd5b5061062161061c366004614fe2565b6110b5565b60405161046a91906150a2565b34801561063a57600080fd5b506104406106493660046150c7565b611149565b34801561065a57600080fd5b50610440610669366004614fe2565b611369565b34801561067a57600080fd5b50610493610689366004614fff565b61140d565b34801561069a57600080fd5b506104406106a9366004615122565b611444565b3480156106ba57600080fd5b5060685b6040516001600160a01b03909116815260200161046a565b3480156106e257600080fd5b506106f66106f136600461502b565b6115d0565b60408051921515835260208301919091520161046a565b34801561071957600080fd5b50610493610728366004614fa9565b61160e565b34801561073957600080fd5b50610742611635565b60405161046a91906151e8565b34801561075b57600080fd5b5061044061076a36600461502b565b611647565b34801561077b57600080fd5b5061078f61078a366004615281565b611658565b60405161046a91906152c3565b3480156107a857600080fd5b506107b161169e565b60405161046a9190615342565b3480156107ca57600080fd5b5060e454610460565b3480156107df57600080fd5b506104406107ee36600461502b565b611768565b610440611779565b34801561080757600080fd5b50610810611be9565b60405161046a9190615355565b34801561082957600080fd5b50610440611d3d565b34801561083e57600080fd5b50607254610460565b34801561085357600080fd5b50607654610460565b34801561086857600080fd5b50610493610877366004614fe2565b611ecf565b34801561088857600080fd5b506104606201518081565b34801561089f57600080fd5b506104406108ae36600461502b565b611ee2565b3480156108bf57600080fd5b5060e554610460565b3480156108d457600080fd5b50600154610460565b610440611ef3565b3480156108f157600080fd5b5061049361090036600461502b565b6121a5565b34801561091157600080fd5b5061078f610920366004615281565b6121c9565b34801561093157600080fd5b5061044061094036600461502b565b612207565b34801561095157600080fd5b506104406109603660046153f6565b612218565b34801561097157600080fd5b50610493610980366004614fe2565b612237565b34801561099157600080fd5b50600254610460565b3480156109a657600080fd5b5060666106be565b3480156109ba57600080fd5b5061050d6109c9366004614fe2565b612279565b3480156109da57600080fd5b506107b161229d565b3480156109ef57600080fd5b506104936109fe366004614fe2565b61234a565b348015610a0f57600080fd5b50610460610a1e36600461502b565b612375565b348015610a2f57600080fd5b5060e654610460565b348015610a4457600080fd5b50610460612380565b348015610a5957600080fd5b506107426123c3565b348015610a6e57600080fd5b506107426123d0565b348015610a8357600080fd5b50610440610a92366004614fa9565b6123dd565b348015610aa357600080fd5b506107b16126a9565b348015610ab857600080fd5b50610440610ac736600461502b565b61270b565b348015610ad857600080fd5b50610440610ae7366004614fff565b61271c565b348015610af857600080fd5b5060a954610460565b348015610b0d57600080fd5b50610440610b1c366004614fa9565b6129bd565b348015610b2d57600080fd5b50610440610b3c366004614fff565b6129fa565b348015610b4d57600080fd5b506106be610b5c366004615412565b612ab2565b348015610b6d57600080fd5b50610440610b7c36600461542d565b612b41565b348015610b8d57600080fd5b50610493610b9c366004614fe2565b612c85565b348015610bad57600080fd5b50610440610bbc366004614fa9565b612c90565b348015610bcd57600080fd5b50610440610bdc366004614fa9565b612cca565b348015610bed57600080fd5b50610621610bfc366004614fe2565b612d07565b348015610c0d57600080fd5b5060ad54610460565b348015610c2257600080fd5b50610440610c31366004615462565b612d61565b610c406007612ab2565b6001600160a01b0316336001600160a01b031614158015610c7c5750610c666009612ab2565b6001600160a01b0316336001600160a01b031614155b15610cb3576040517fffcb451300000000000000000000000000000000000000000000000000000000815260040160405180910390fd5b565b6000610ce6610cc384612fe5565b6001600160a01b0390811660009081526075602052604090205481169084161490565b90505b92915050565b6000610cfa60035490565b905090565b600054600490610100900460ff16158015610d21575060005460ff8083169116105b610d895760405162461bcd60e51b815260206004820152602e60248201527f496e697469616c697a61626c653a20636f6e747261637420697320616c72656160448201526d191e481a5b9a5d1a585b1a5e995960921b60648201526084015b60405180910390fd5b6000805461ffff191660ff831617610100179055610da8600f83613076565b6000805461ff001916905560405160ff821681527f7f26b83ff96e1f2b6a682f133852f6798a09c465da95921460cefb38474024989060200160405180910390a15050565b6000806000610e04610dfe86612fe5565b8561311a565b9250925092505b9250925092565b610e1a61319c565b610e2381613210565b50565b6006610e3181613280565b6001600160a01b0383166000908152603c60205260409020544311610e8d576040517f53e0424d0000000000000000000000000000000000000000000000000000000081526001600160a01b0384166004820152602401610d80565b6001600160a01b038316600081815260386020908152604080832086845282528083208054600160ff199182168117909255948452603783528184208785529092529091208054909216909155610ee490436154c9565b6001600160a01b0384166000818152603a6020526040908190209290925590517f6bb2436cb6b6eb65d5a52fac2ae0373a77ade6661e523ef3004ee2d5524e6c6e90610f339085815260200190565b60405180910390a2505050565b6000610cfa610f4e426132e5565b6003541090565b600080610f6184612fe5565b6001600160a01b0381166000908152603a60205260409020549091508311155b949350505050565b6040805160e081018252600080825260208201819052918101829052606081018290526080810182905260a0810182905260c0810182905290610fcb83612fe5565b9050610fee816001600160a01b0316600090815260746020526040902054151590565b61100b5760405163a64b34ad60e01b815260040160405180910390fd5b6001600160a01b03908116600090815260756020908152604091829020825160e081018452815485168152600182015485169281019290925260028101548416928201929092526003820154909216606083015260048101546080830152600581015460a08301526006015460c082015292915050565b60008061108e83612fe5565b6001600160a01b0381166000908152603a60205260409020549091504311155b9392505050565b604080518082019091526000808252602082015260e860006110d684612fe5565b6001600160a01b03168152602080820192909252604090810160009081208251808401909352805483526001015492820183905290925003611144576040517fe1fba9e200000000000000000000000000000000000000000000000000000000815260040160405180910390fd5b919050565b600661115481613280565b600061115e610cef565b6001600160a01b03871660008181526037602090815260408083208584528252808320805460ff1916600117905592825260e181528282205460e0909152919020549192506111ac916154dc565b60e460008282546111bd91906154dc565b90915550506001600160a01b038616600090815260e06020908152604080832083905560e18252808320839055603a9091529020546111fd9086906132f4565b6001600160a01b0387166000908152603a602052604090205583156112b85760006112286009612ab2565b60405163138ac02f60e11b81526001600160a01b038981166004830152602482018890529190911690632715805e906044016020604051808303816000875af1158015611279573d6000803e3d6000fd5b505050506040513d601f19601f8201168201806040525081019061129d91906154ef565b90508060e460008282546112b191906154dc565b9091555050505b82156112fc576001600160a01b0386166000908152603c60205260409020546112e29086906132f4565b6001600160a01b0387166000908152603c60205260409020555b6001600160a01b0386166000818152603a6020908152604080832054815190815291820188905260019082015260608101919091528291907f54ce99c5ce1fc9f61656d4a0fb2697974d0c973ac32eecaefe06fcf18b8ef68a9060800160405180910390a3505050505050565b600054600390610100900460ff1615801561138b575060005460ff8083169116105b6113ee5760405162461bcd60e51b815260206004820152602e60248201527f496e697469616c697a61626c653a20636f6e747261637420697320616c72656160448201526d191e481a5b9a5d1a585b1a5e995960921b6064820152608401610d80565b6000805461ffff191660ff831617610100179055610da8600e83613076565b6000610ce661141b84612fe5565b6001600160a01b0316600090815260376020908152604080832086845290915290205460ff1690565b600054610100900460ff16158080156114645750600054600160ff909116105b8061147e5750303b15801561147e575060005460ff166001145b6114e15760405162461bcd60e51b815260206004820152602e60248201527f496e697469616c697a61626c653a20636f6e747261637420697320616c72656160448201526d191e481a5b9a5d1a585b1a5e995960921b6064820152608401610d80565b6000805460ff191660011790558015611504576000805461ff0019166101001790555b61150f60068e613076565b61151a60098d613076565b61152560078c613076565b61153060058b613076565b61153b600a8a613076565b6115448761330b565b61154d86613340565b61155685613375565b61155f84613210565b61156982356133e6565b611576602083013561341b565b600183905580156115c1576000805461ff0019169055604051600181527f7f26b83ff96e1f2b6a682f133852f6798a09c465da95921460cefb38474024989060200160405180910390a15b50505050505050505050505050565b6000806115dc43612375565b831115806115f7575060008381526005602052604090205415155b600093845260056020526040909320549293915050565b6001600160a01b038281166000908152607560205260408120549091838116911614610ce6565b6060610cfa61164261169e565b613450565b61164f61319c565b610e238161341b565b6060610ce66116998484808060200260200160405190810160405280939291908181526020018383602002808284376000920191909152506134cc92505050565b613548565b606060aa5467ffffffffffffffff8111156116bb576116bb61551e565b6040519080825280602002602001820160405280156116e4578160200160208202803683370190505b5090506000805b825181101561176257600081815260ab60205260409020546001600160a01b0316611715816135ee565b156117595780848461172681615534565b95508151811061173857611738615508565b60200260200101906001600160a01b031690816001600160a01b0316815250505b506001016116eb565b50815290565b61177061319c565b610e2381613340565b611781613628565b600061178c33612fe5565b90506000611799826135ee565b80156117ab57506117a982613661565b155b80156117eb57506117e9826117be610cef565b6001600160a01b03919091166000908152603760209081526040808320938352929052205460ff1690565b155b90506000806117fa6007612ab2565b6040517f0634f5b90000000000000000000000000000000000000000000000000000000081528415156004820152600060248201526001600160a01b039190911690630634f5b9906044016080604051808303816000875af1158015611864573d6000803e3d6000fd5b505050506040513d601f19601f82011682018060405250810190611888919061554d565b935050925050826118f6573460e460008282546118a591906154dc565b92505081905550836001600160a01b03167f4042bb9a70998f80a86d9963f0d2132e9b11c8ad94d207c6141c8e34b05ce53e3460016040516118e89291906155a2565b60405180910390a250505050565b60408051348152602081018490526001600160a01b038616917f0ede5c3be8625943fa64003cd4b91230089411249f3059bac6500873543ca9b1910160405180910390a26000611944610cef565b9050600061195284346154dc565b9050600061271061196385846155c6565b61196d91906155f3565b9050600061197b82846154c9565b905060008260e2600082825461199191906154dc565b909155505033600090815260386020908152604080832088845290915290205460ff1615611aa55760006119c56006612ab2565b6001600160a01b031663c6391fa26040518163ffffffff1660e01b8152600401608060405180830381865afa158015611a02573d6000803e3d6000fd5b505050506040513d601f19601f82011682018060405250810190611a269190615607565b93505050506127108184611a3a91906155c6565b611a4491906155f3565b91508160e46000828254611a5891906154dc565b92505081905550896001600160a01b03167f4042bb9a70998f80a86d9963f0d2132e9b11c8ad94d207c6141c8e34b05ce53e836002604051611a9b9291906155a2565b60405180910390a2505b611aaf81836154c9565b9150600080611abe6009612ab2565b6001600160a01b0316634530d2026040518163ffffffff1660e01b81526004016040805180830381865afa158015611afa573d6000803e3d6000fd5b505050506040513d601f19601f82011682018060405250810190611b1e919061563d565b6001600160a01b038d1660009081526075602052604081206004015492945090925090611b5590611b4f9084613682565b846132f4565b90506000612710611b6687846155c6565b611b7091906155f3565b6001600160a01b038e16600090815260e06020526040812080549293508392909190611b9d9084906154dc565b90915550611bad905081876154c9565b6001600160a01b038e16600090815260e1602052604081208054909190611bd59084906154dc565b909155505050505050505050505050505050565b60735460609067ffffffffffffffff811115611c0757611c0761551e565b604051908082528060200260200182016040528015611c6e57816020015b6040805160e08101825260008082526020808301829052928201819052606082018190526080820181905260a0820181905260c08201528252600019909201910181611c255790505b50905060005b8151811015611d39576075600060738381548110611c9457611c94615508565b60009182526020808320909101546001600160a01b039081168452838201949094526040928301909120825160e081018452815485168152600182015485169281019290925260028101548416928201929092526003820154909216606083015260048101546080830152600581015460a08301526006015460c08201528251839083908110611d2657611d26615508565b6020908102919091010152600101611c74565b5090565b600054600290610100900460ff16158015611d5f575060005460ff8083169116105b611dc25760405162461bcd60e51b815260206004820152602e60248201527f496e697469616c697a61626c653a20636f6e747261637420697320616c72656160448201526d191e481a5b9a5d1a585b1a5e995960921b6064820152608401610d80565b6000805461ffff191660ff831617610100179055607154611dee906009906001600160a01b0316613076565b606f54611e06906005906001600160a01b0316613076565b607054611e1e906006906001600160a01b0316613076565b606d54611e36906007906001600160a01b0316613076565b60a854611e4e90600a906001600160a01b0316613076565b607180546001600160a01b0319908116909155606f8054821690556070805482169055606d805482169055606e80548216905560a8805490911690556000805461ff001916905560405160ff821681527f7f26b83ff96e1f2b6a682f133852f6798a09c465da95921460cefb3847402498906020015b60405180910390a150565b6000610ce9611edd83612fe5565b6135ee565b611eea61319c565b610e23816133e6565b611efb613628565b611f04436121a5565b611f3a576040517f6c74eecf00000000000000000000000000000000000000000000000000000000815260040160405180910390fd5b611f4343612375565b611f4e600254612375565b10611f85576040517f2458f64100000000000000000000000000000000000000000000000000000000815260040160405180910390fd5b436002556000611f94426132e5565b90506000611fa3826003541090565b90506000611faf61229d565b905060606000611fbe43612375565b90506000611fcd8260016154dc565b90506000611fd9610cef565b9050611fe58386613691565b851561213f57600080611ff88388613800565b91509150612008838884846139ec565b612010613b0f565b612018613c63565b60006120246006612ab2565b6040517f185368db0000000000000000000000000000000000000000000000000000000081529091506001600160a01b0382169063185368db9061206e908b908890600401615661565b600060405180830381600087803b15801561208857600080fd5b505af115801561209c573d6000803e3d6000fd5b505050506120a98a613dbf565b805191995097501561212d576040517f07c2d2f60000000000000000000000000000000000000000000000000000000081526001600160a01b038216906307c2d2f6906120fa908a90600401615342565b600060405180830381600087803b15801561211457600080fd5b505af1158015612128573d6000803e3d6000fd5b505050505b6121384360016154dc565b6004555050505b61214a878387613f50565b82817f0195462033384fec211477c56217da64a58bd405e0bed331ba4ded67e4ae4ce78860405161217f911515815260200190565b60405180910390a350600090815260056020526040902085905550505060039190915550565b6000600180546121b591906154c9565b6001546121c29084615683565b1492915050565b6060610ce683838080602002602001604051908101604052809392919081815260200183836020028082843760009201919091525061354892505050565b61220f61319c565b610e238161330b565b61222061319c565b612229816141ec565b6122338282613076565b5050565b600080612242610cef565b90506110ae61225084612fe5565b6001600160a01b0316600090815260376020908152604080832085845290915290205460ff1690565b600080600061229061228a85612fe5565b4361311a565b9250925092509193909250565b606060aa5467ffffffffffffffff8111156122ba576122ba61551e565b6040519080825280602002602001820160405280156122e3578160200160208202803683370190505b5090506000805b825181101561234557600081815260ab602052604090205483516001600160a01b039091169250829084908390811061232557612325615508565b6001600160a01b03909216602092830291909101909101526001016122ea565b505090565b6000610ce961235883612fe5565b6001600160a01b0316600090815260746020526040902054151590565b6000610ce98261423b565b6000805b60aa54811015611d3957600081815260ab60205260409020546123af906001600160a01b03166135ee565b156123bb576001909101905b600101612384565b6060610cfa61164261229d565b6060610cfa6116426126a9565b6123e561319c565b6001600160a01b038216600090815260e860205260408120600101549003612444576040517fe8e6d2dd0000000000000000000000000000000000000000000000000000000081526001600160a01b0383166004820152602401610d80565b60e7548060005b8281101561249a57846001600160a01b031660e7828154811061247057612470615508565b6000918252602090912001546001600160a01b0316036124925780915061249a565b60010161244b565b508181036124df576040517fb69ea4250000000000000000000000000000000000000000000000000000000081526001600160a01b0385166004820152602401610d80565b6001600160a01b038416600090815260e8602052604090205480156126a2576001600160a01b038516600090815260e8602052604081208181556001908101919091558311156125a15760e76125366001856154c9565b8154811061254657612546615508565b60009182526020909120015460e780546001600160a01b03909216918490811061257257612572615508565b9060005260206000200160006101000a8154816001600160a01b0302191690836001600160a01b031602179055505b60e78054806125b2576125b2615697565b60008281526020808220830160001990810180546001600160a01b03191690559092019092556001600160a01b038716825260e9905260409020805460ff1916600117905561260484826104b0614256565b1561265d57836001600160a01b0316856001600160a01b03167f7229136a18186c71a86246c012af3bb1df6460ef163934bbdccd6368abdd41e48360405161264e91815260200190565b60405180910390a35050505050565b604080518281524760208201526001600160a01b0380871692908816917f3747d14eb72ad3e35cba9c3e00dab3b8d15b40cac6bdbd08402356e4f69f30a1910161264e565b5050505050565b6060607380548060200260200160405190810160405280929190818152602001828054801561270157602002820191906000526020600020905b81546001600160a01b031681526001909101906020018083116126e3575b5050505050905090565b61271361319c565b610e2381613375565b600961272781613280565b6001600160a01b038316600090815260e86020526040902060018101541561277b576040517f2bd5598800000000000000000000000000000000000000000000000000000000815260040160405180910390fd5b600061278784426154dc565b6001600160a01b03861660009081526075602052604090209091506127ac90826142cb565b6001600160a01b0385166000818152603b602052604080822084905560e554905163138ac02f60e11b815260048101939093526024830152903390632715805e906044016020604051808303816000875af115801561280f573d6000803e3d6000fd5b505050506040513d601f19601f8201168201806040525081019061283391906154ef565b9050801561297257600060e6544261284b91906154dc565b60e78054600180820183556000929092527f6cb0db1d7354dfb4a1464318006df0643cafe2002a86a29ff8560f900fef28a10180546001600160a01b0319166001600160a01b038b16179055838655850181905590506128d27fb53127684a568b3173ae13b9f8a6016e243e63b6e8ee1178d6a717850b5d6103546001600160a01b031690565b6001600160a01b03888116600081815260756020526040908190206002015490517fa2fae5700000000000000000000000000000000000000000000000000000000081526004810192909252821660248201524260448201526064810184905291169063a2fae57090608401600060405180830381600087803b15801561295857600080fd5b505af115801561296c573d6000803e3d6000fd5b50505050505b856001600160a01b03167f77a1a819870c0f4d04c3ca4cc2881a0393136abc28bd651af50aedade94a27c4826040516129ad91815260200190565b60405180910390a2505050505050565b600f6129c881613280565b506001600160a01b03918216600090815260756020526040902060010180546001600160a01b03191691909216179055565b6009612a0581613280565b612a0e83614367565b15612a45576040517f030081e700000000000000000000000000000000000000000000000000000000815260040160405180910390fd5b6001600160a01b0383166000908152607560205260409020600581015415612a99576040517ffab9167300000000000000000000000000000000000000000000000000000000815260040160405180910390fd5b612aac81612aa785426154dc565b6142cb565b50505050565b60007fdea3103d22025c269050bea94c0c84688877f12fa22b7e6d2d5d78a9a49aa1cb600083600f811115612ae957612ae961558c565b60ff1681526020810191909152604001600020546001600160a01b031690508061114457816040517f812281be000000000000000000000000000000000000000000000000000000008152600401610d8091906156c1565b6009612b4c81613280565b6001600160a01b03841660009081526077602052604090205415612b9c576040517f5e65b9ba00000000000000000000000000000000000000000000000000000000815260040160405180910390fd5b612710821115612bbf57604051631b8454a360e21b815260040160405180910390fd5b607654831015612bfb576040517ffa0ae69300000000000000000000000000000000000000000000000000000000815260040160405180910390fd5b6001600160a01b0384166000908152607760205260408120906201518085612c2382426155f3565b612c2d91906154dc565b612c3791906155c6565b8083556001830185905560408051828152602081018790529192506001600160a01b038816917f6ebafd1bb6316b2f63198a81b05cff2149c6eaae1784466a6d062b4391900f2191016129ad565b6000610ce9826135ee565b600f612c9b81613280565b506001600160a01b03918216600090815260756020526040902080546001600160a01b03191691909216179055565b600f612cd581613280565b506001600160a01b03918216600090815260756020526040902060020180546001600160a01b03191691909216179055565b604080518082019091526000808252602082015260776000612d2884612fe5565b6001600160a01b031681526020808201929092526040908101600020815180830190925280548252600101549181019190915292915050565b6009612d6c81613280565b6073546072548110612daa576040517f8616841b00000000000000000000000000000000000000000000000000000000815260040160405180910390fd5b6001600160a01b03851660009081526074602052604090205415612dfa576040517f8ad9cdf900000000000000000000000000000000000000000000000000000000815260040160405180910390fd5b612710831115612e1d57604051631b8454a360e21b815260040160405180910390fd5b60005b81811015612f145760006075600060738481548110612e4157612e41615508565b60009182526020808320909101546001600160a01b03908116845290830193909352604090910190208054909250811690891603612eb6576040517ffc3d8c750000000000000000000000000000000000000000000000000000000081526001600160a01b0389166004820152602401610d80565b60028101546001600160a01b0390811690871603612f0b576040517f5a674fce0000000000000000000000000000000000000000000000000000000081526001600160a01b0387166004820152602401610d80565b50600101612e20565b506001600160a01b038581166000818152607460209081526040808320861990556073805460018082019092557ff79bde9ddd17963ebce6f7d021d60de7c2bd0db944d23c900c0c0e775f5300520180546001600160a01b031990811687179091556075909352818420805484168d881690811782559181018054851687179055600281018054909416968b1696871790935560048301899055905191949093909290917f1ca451a9920472b99355a9cf74185bf017604a7849c113f020888ecec9db93669190a450505050505050565b6000612ff1600f612ab2565b6040517f50a9fc290000000000000000000000000000000000000000000000000000000081526001600160a01b03848116600483015291909116906350a9fc2990602401602060405180830381865afa158015613052573d6000803e3d6000fd5b505050506040513d601f19601f82011682018060405250810190610ce991906156cf565b807fdea3103d22025c269050bea94c0c84688877f12fa22b7e6d2d5d78a9a49aa1cb600084600f8111156130ac576130ac61558c565b60ff168152602081019190915260400160002080546001600160a01b0319166001600160a01b03928316179055811682600f8111156130ed576130ed61558c565b6040517f865d1c228a8ea13709cfe61f346f7ff67f1bbd4a18ff31ad3e7147350d317c5990600090a35050565b6001600160a01b0382166000908152603a6020526040812054819081908481101561315057600080600093509350935050610e0b565b6001935061315e85826154c9565b6131699060016154dc565b925061317485612375565b61317d82612375565b61318791906154c9565b6131929060016154dc565b9150509250925092565b7fb53127684a568b3173ae13b9f8a6016e243e63b6e8ee1178d6a717850b5d6103546001600160a01b03163314610cb3576000356001600160e01b03191660016040517f3e523c00000000000000000000000000000000000000000000000000000000008152600401610d809291906156ec565b600181101561324b576040517f17b8970f00000000000000000000000000000000000000000000000000000000815260040160405180910390fd5b60768190556040518181527f266d432ffe659e3565750d26ec685b822a58041eee724b67a5afec3168a2526790602001611ec4565b61328981612ab2565b6001600160a01b0316336001600160a01b031614610e23576000356001600160e01b03191681336040517f8383e634000000000000000000000000000000000000000000000000000000008152600401610d809392919061570d565b6000610ce962015180836155f3565b6000818310156133045781610ce6565b5090919050565b60a98190556040518181527fb5464c05fd0e0f000c535850116cda2742ee1f7b34384cb920ad7b8e802138b590602001611ec4565b60728190556040518181527f82d5dc32d1b741512ad09c32404d7e7921e8934c6222343d95f55f7a2b9b2ab490602001611ec4565b60a9548111156133b1576040517faa8119d200000000000000000000000000000000000000000000000000000000815260040160405180910390fd5b60ad8190556040518181527fa9588dc77416849bd922605ce4fc806712281ad8a8f32d4238d6c8cca548e15e90602001611ec4565b60e58190556040518181527f17a6c3eb965cdd7439982da25abf85be88f0f772ca33198f548e2f99fee0289a90602001611ec4565b60e68190556040518181527f0a50c66137118f386332efb949231ddd3946100dbf880003daca37ddd9e0662b90602001611ec4565b606061345c600f612ab2565b6001600160a01b031663b261596f836040518263ffffffff1660e01b81526004016134879190615342565b600060405180830381865afa1580156134a4573d6000803e3d6000fd5b505050506040513d6000823e601f3d908101601f19168201604052610ce99190810190615797565b60606134d8600f612ab2565b6001600160a01b031663f9226b1a836040518263ffffffff1660e01b815260040161350391906151e8565b600060405180830381865afa158015613520573d6000803e3d6000fd5b505050506040513d6000823e601f3d908101601f19168201604052610ce99190810190615836565b6060815167ffffffffffffffff8111156135645761356461551e565b60405190808252806020026020018201604052801561358d578160200160208202803683370190505b50905060005b82518110156135e8576135be8382815181106135b1576135b1615508565b6020026020010151613661565b8282815181106135d0576135d0615508565b91151560209283029190910190910152600101613593565b50919050565b6001600160a01b038116600090815260ac6020526040812054610ce99060019060ff1660038111156136225761362261558c565b90614400565b334114610cb3576040517f09f358fd00000000000000000000000000000000000000000000000000000000815260040160405180910390fd5b6001600160a01b0381166000908152603a6020526040812054431115610ce9565b60008183106133045781610ce6565b600061369d600e612ab2565b6001600160a01b031663468d24be84846040518363ffffffff1660e01b81526004016136ca9291906158c5565b600060405180830381865afa1580156136e7573d6000803e3d6000fd5b505050506040513d6000823e601f3d908101601f1916820160405261370f91908101906158de565b90506000825160015461372291906155c6565b60e25490915060009081805b86518110156137d1578486828151811061374a5761374a615508565b60200260200101518461375d91906155c6565b61376791906155f3565b93508360e3600089848151811061378057613780615508565b60200260200101516001600160a01b03166001600160a01b0316815260200190815260200160002060008282546137b791906154dc565b909155506137c7905084836154dc565b915060010161372e565b506137dc81836154c9565b60e460008282546137ed91906154dc565b9091555050600060e25550505050505050565b60006060600080845167ffffffffffffffff8111156138215761382161551e565b60405190808252806020026020018201604052801561384a578160200160208202803683370190505b50925060005b85518110156139e25785818151811061386b5761386b615508565b6020908102919091018101516001600160a01b03808216600090815260759093526040909220600201549094501691506138a483613661565b1580156138d557506001600160a01b03831660009081526037602090815260408083208a845290915290205460ff16155b15613953576001600160a01b038316600090815260e160205260409020546138fd90866154dc565b6001600160a01b038416600090815260e1602052604090205485519196509085908390811061392e5761392e615508565b6020026020010181815250506139448383614433565b61394e83836144fb565b6139aa565b6001600160a01b038316600090815260e3602090815260408083205460e183528184205460e090935292205461398991906154dc565b61399391906154dc565b60e460008282546139a491906154dc565b90915550505b6001600160a01b038316600090815260e16020908152604080832083905560e0825280832083905560e3909152812055600101613850565b5050509250929050565b60006139f86009612ab2565b905082156126a257613a0a81846145b6565b15613acb576040517facd79c460000000000000000000000000000000000000000000000000000000081526001600160a01b0382169063acd79c4690613a5890879086908a90600401615995565b600060405180830381600087803b158015613a7257600080fd5b505af1158015613a86573d6000803e3d6000fd5b505050507f9e242ca1ef9dde96eb71ef8d19a3f0f6a619b63e4c0d3998771387103656d087838584604051613abd939291906159cb565b60405180910390a150612aac565b7fe5668ec1bb2b6bb144a50f810e388da4b1d7d3fc05fcb9d588a1aac59d248f8983858447604051613b009493929190615a00565b60405180910390a15050505050565b60e754600080805b83831015612aac5760e78381548110613b3257613b32615508565b60009182526020808320909101546001600160a01b031680835260e89091526040909120600181015491935091504210613c5857805460e48054600090613b7a9084906154dc565b90915550506001600160a01b038216600090815260e860205260408120818155600101819055613ba985615a3d565b9450841115613c205760e78481548110613bc557613bc5615508565b60009182526020909120015460e780546001600160a01b039092169185908110613bf157613bf1615508565b9060005260206000200160006101000a8154816001600160a01b0302191690836001600160a01b031602179055505b60e7805480613c3157613c31615697565b600082815260209020810160001990810180546001600160a01b0319169055019055613b17565b600190920191613b17565b60e4548015610e23576000613c786007612ab2565b600060e481905560408051600481526024810182526020810180517bffffffffffffffffffffffffffffffffffffffffffffffffffffffff167f59f778df00000000000000000000000000000000000000000000000000000000179052905192935090916001600160a01b038416918591613cf39190615a54565b60006040518083038185875af1925050503d8060008114613d30576040519150601f19603f3d011682016040523d82523d6000602084013e613d35565b606091505b505090508015613d7a57816001600160a01b03167fc447c884574da5878be39c403db2245c22530c99b579ea7bcbb3720e1d110dc884604051610f3391815260200190565b604080518481524760208201526001600160a01b038416917fa0561a59abed308fcd0556834574739d778cc6229018039a24ddda0f86aa0b739101610f33565b505050565b606080613dcb83614612565b90506000613dd96009612ab2565b6001600160a01b0316635a2ac07360736040518263ffffffff1660e01b8152600401613e059190615a83565b600060405180830381865afa158015613e22573d6000803e3d6000fd5b505050506040513d6000823e601f3d908101601f19168201604052613e4a91908101906158de565b90506000613e58600a612ab2565b6001600160a01b0316632cccb53c60736040518263ffffffff1660e01b8152600401613e849190615a83565b600060405180830381865afa158015613ea1573d6000803e3d6000fd5b505050506040513d6000823e601f3d908101601f19168201604052613ec991908101906158de565b90506000613f386073805480602002602001604051908101604052809291908181526020018280548015613f2657602002820191906000526020600020905b81546001600160a01b03168152600190910190602001808311613f08575b5050505050848460a95460ad54614b3a565b9095509050613f48858288614c4b565b505050915091565b6000613f5c6005612ab2565b6001600160a01b031663ac57bd7683613f764360016154dc565b6040518363ffffffff1660e01b8152600401613f93929190615661565b600060405180830381865afa158015613fb0573d6000803e3d6000fd5b505050506040513d6000823e601f3d908101601f19168201604052613fd89190810190615ac7565b905060005b82518110156141a5576000838281518110613ffa57613ffa615508565b6020908102919091018101516001600160a01b0381166000908152603b90925260408220549092504211159061402f836135ee565b90506000614062846140424360016154dc565b6001600160a01b03919091166000908152603a6020526040902054101590565b80614083575085858151811061407a5761407a615508565b60200260200101515b8061408b5750825b159050811580156140995750805b15614114576001600160a01b038416600090815260ac60205260409020546140d89060019060ff1660038111156140d2576140d261558c565b90614d8b565b6001600160a01b038516600090815260ac60205260409020805460ff1916600183600381111561410a5761410a61558c565b0217905550614196565b81801561411f575080155b15614196576001600160a01b038416600090815260ac602052604090205461415e9060019060ff1660038111156141585761415861558c565b90614dc6565b6001600160a01b038516600090815260ac60205260409020805460ff191660018360038111156141905761419061558c565b02179055505b84600101945050505050613fdd565b5082847f283b50d76057d5f828df85bc87724c6af604e9b55c363a07c9faa2a2cd688b826141d161169e565b6040516141de9190615342565b60405180910390a350505050565b806001600160a01b03163b600003610e23576040517f2ff1928c0000000000000000000000000000000000000000000000000000000081526001600160a01b0382166004820152602401610d80565b60006001548261424b91906155f3565b610ce99060016154dc565b60008260000361426f5761426c6108fc836154dc565b91505b6040516001600160a01b03851690839085906000818181858888f193505050503d80600081146142bb576040519150601f19603f3d011682016040523d82523d6000602084013e6142c0565b606091505b509095945050505050565b60018201546000906142e5906001600160a01b0316612fe5565b9050614308816001600160a01b0316600090815260746020526040902054151590565b6143255760405163a64b34ad60e01b815260040160405180910390fd5b600583018290556040518281526001600160a01b038216907fb9a1e33376bfbda9092f2d1e37662c1b435aab0d3fa8da3acc8f37ee222f99e790602001610f33565b600080614374600a612ab2565b6040517fb8cc3a500000000000000000000000000000000000000000000000000000000081526001600160a01b038581166004830152919091169063b8cc3a5090602401602060405180830381865afa1580156143d5573d6000803e3d6000fd5b505050506040513d601f19601f820116820180604052508101906143f991906154ef565b1192915050565b60008160038111156144145761441461558c565b8360038111156144265761442661558c565b1660ff1615159392505050565b6001600160a01b038216600090815260e060205260409020548015613dba5761445f82826104b0614256565b156144b657816001600160a01b0316836001600160a01b03167f1ce7a1c4702402cd393500acb1de5bd927727a54e144a587d328f1b679abe4ec836040516144a991815260200190565b60405180910390a3505050565b604080518281524760208201526001600160a01b0380851692908616917f6c69e09ee5c5ac33c0cd57787261c5bade070a392ab34a4b5487c6868f723f6e91016144a9565b6001600160a01b038216600090815260e360205260409020548015613dba5761452782826104b0614256565b1561457157816001600160a01b0316836001600160a01b03167f0c4d6a43fc8470dee97db74874b5685e412cc517d9bdecfde1623c5e835b18e4836040516144a991815260200190565b604080518281524760208201526001600160a01b0380851692908616917f98697ee35f04a599a814432016fff3968c483d2d88dacb484926b9358f8e7cf991016144a9565b6000826001600160a01b03168260405160006040518083038185875af1925050503d8060008114614603576040519150601f19603f3d011682016040523d82523d6000602084013e614608565b606091505b5090949350505050565b606060006146206009612ab2565b90506000816001600160a01b031663af2454296040518163ffffffff1660e01b8152600401602060405180830381865afa158015614662573d6000803e3d6000fd5b505050506040513d601f19601f8201168201806040525081019061468691906154ef565b90506000826001600160a01b031663909791dd6040518163ffffffff1660e01b8152600401602060405180830381865afa1580156146c8573d6000803e3d6000fd5b505050506040513d601f19601f820116820180604052508101906146ec91906154ef565b90506000836001600160a01b031663446850a160736040518263ffffffff1660e01b815260040161471d9190615a83565b600060405180830381865afa15801561473a573d6000803e3d6000fd5b505050506040513d6000823e601f3d908101601f1916820160405261476291908101906158de565b60735490915060008167ffffffffffffffff8111156147835761478361551e565b6040519080825280602002602001820160405280156147ac578160200160208202803683370190505b50965060008060005b84831015614a7257607383815481106147d0576147d0615508565b60009182526020808320909101546001600160a01b03168083526075909152604090912060068101548851929450909250151590889088908690811061481857614818615508565b6020026020010151101561488657806148815760006148378a426154dc565b600684018190556040518181529091506001600160a01b038516907f88f854e137380c14d63f6ed99781bf13402167cf55bac49bcd44d4f2d6a342759060200160405180910390a2505b6148d9565b80156148d9578160060160009055826001600160a01b03167f88f854e137380c14d63f6ed99781bf13402167cf55bac49bcd44d4f2d6a3427560006040516148d091815260200190565b60405180910390a25b600082600501546000141580156148f4575042836005015411155b8061491757506001600160a01b038416600090815260e9602052604090205460ff165b905060008360060154600014158015614934575042846006015411155b9050818061493f5750805b156149d1578861494e89615a3d565b9850888151811061496157614961615508565b602002602001015189878151811061497b5761497b615508565b602002602001018181525050848d88806001019950815181106149a0576149a0615508565b60200260200101906001600160a01b031690816001600160a01b0316815250506149c985614e02565b5050506147b5565b6001600160a01b03851660009081526077602052604090205480158015906149f95750428111155b15614a62576001600160a01b0386166000818152607760209081526040808320600181018054918590559390935560048901839055518281529192917f86d576c20e383fc2413ef692209cc48ddad5e52f25db5b32f8f7ec5076461ae9910160405180910390a2505b5050600190940193506147b59050565b5050508087528015614b2f577f4eaf233b9dc25a5552c1927feee1412eea69add17c2485c831c2e60e234f3c9187604051614aad9190615342565b60405180910390a16040517fe22d1c9d0000000000000000000000000000000000000000000000000000000081526001600160a01b0387169063e22d1c9d90614afc908a908c90600401615661565b600060405180830381600087803b158015614b1657600080fd5b505af1158015614b2a573d6000803e3d6000fd5b505050505b505050505050919050565b60606000806068905060008888888888604051602401614b5e959493929190615b56565b60408051601f19818403018152919052602080820180517bffffffffffffffffffffffffffffffffffffffffffffffffffffffff167f779415120000000000000000000000000000000000000000000000000000000017905281518b519293506001929091600091614bcf916155c6565b614bda9060406154dc565b90506020840181888483895afa614bf057600093505b503d614bfb57600092505b60208701965082614c38576040517f0fc2632100000000000000000000000000000000000000000000000000000000815260040160405180910390fd5b8651955050505050509550959350505050565b815b60aa54811015614c9f57600081815260ab6020818152604080842080546001600160a01b0316855260ac8352908420805460ff19169055928490525280546001600160a01b0319169055600101614c4d565b5060005b82811015614cdf57600081815260ab60209081526040808320546001600160a01b0316835260ac9091529020805460ff19169055600101614ca3565b5060005b82811015614d53576000848281518110614cff57614cff615508565b6020908102919091018101516001600160a01b0316600081815260ac83526040808220805460ff1916600317905585825260ab9093529190912080546001600160a01b031916909117905550600101614ce3565b508160aa81905550807f3d0eea40644a206ec25781dd5bb3b60eb4fa1264b993c3bddf3c73b14f29ef5e84604051610f339190615342565b6000816003811115614d9f57614d9f61558c565b836003811115614db157614db161558c565b1760ff166003811115610ce657610ce661558c565b6000816003811115614dda57614dda61558c565b19836003811115614ded57614ded61558c565b1660ff166003811115610ce657610ce661558c565b6001600160a01b038116600090815260e960209081526040808320805460ff191690556074909152812054610e2391839190819003614e3f575050565b6001600160a01b038216600090815260756020908152604080832080546001600160a01b031990811682556001808301805483169055600283018054831690556003830180549092169091556004820185905560058201859055600690910184905560748352818420849055607790925282208281558101829055607380549091614ec9916154c9565b81548110614ed957614ed9615508565b6000918252602090912001546001600160a01b03908116915083168114614f5c576001600160a01b0381166000908152607460205260409020829055607380548291908419908110614f2d57614f2d615508565b9060005260206000200160006101000a8154816001600160a01b0302191690836001600160a01b031602179055505b6073805480614f6d57614f6d615697565b600082815260209020810160001990810180546001600160a01b0319169055019055505050565b6001600160a01b0381168114610e2357600080fd5b60008060408385031215614fbc57600080fd5b8235614fc781614f94565b91506020830135614fd781614f94565b809150509250929050565b600060208284031215614ff457600080fd5b81356110ae81614f94565b6000806040838503121561501257600080fd5b823561501d81614f94565b946020939093013593505050565b60006020828403121561503d57600080fd5b5035919050565b60e08101610ce982846001600160a01b03808251168352806020830151166020840152806040830151166040840152806060830151166060840152506080810151608083015260a081015160a083015260c081015160c08301525050565b815181526020808301519082015260408101610ce9565b8015158114610e2357600080fd5b600080600080608085870312156150dd57600080fd5b84356150e881614f94565b935060208501359250604085013591506060850135615106816150b9565b939692955090935050565b8060408101831015610ce957600080fd5b6000806000806000806000806000806000806101a08d8f03121561514557600080fd5b8c3561515081614f94565b9b5060208d013561516081614f94565b9a5060408d013561517081614f94565b995060608d013561518081614f94565b985060808d013561519081614f94565b975060a08d01356151a081614f94565b965060c08d0135955060e08d013594506101008d013593506101208d013592506101408d013591506151d68e6101608f01615111565b90509295989b509295989b509295989b565b6020808252825182820181905260009190848201906040850190845b818110156152295783516001600160a01b031683529284019291840191600101615204565b50909695505050505050565b60008083601f84011261524757600080fd5b50813567ffffffffffffffff81111561525f57600080fd5b6020830191508360208260051b850101111561527a57600080fd5b9250929050565b6000806020838503121561529457600080fd5b823567ffffffffffffffff8111156152ab57600080fd5b6152b785828601615235565b90969095509350505050565b6020808252825182820181905260009190848201906040850190845b818110156152295783511515835292840192918401916001016152df565b60008151808452602080850194506020840160005b838110156153375781516001600160a01b031687529582019590820190600101615312565b509495945050505050565b602081526000610ce660208301846152fd565b6020808252825182820181905260009190848201906040850190845b81811015615229576153d48385516001600160a01b03808251168352806020830151166020840152806040830151166040840152806060830151166060840152506080810151608083015260a081015160a083015260c081015160c08301525050565b9284019260e09290920191600101615371565b80356010811061114457600080fd5b6000806040838503121561540957600080fd5b614fc7836153e7565b60006020828403121561542457600080fd5b610ce6826153e7565b60008060006060848603121561544257600080fd5b833561544d81614f94565b95602085013595506040909401359392505050565b6000806000806080858703121561547857600080fd5b843561548381614f94565b9350602085013561549381614f94565b925060408501356154a381614f94565b9396929550929360600135925050565b634e487b7160e01b600052601160045260246000fd5b81810381811115610ce957610ce96154b3565b80820180821115610ce957610ce96154b3565b60006020828403121561550157600080fd5b5051919050565b634e487b7160e01b600052603260045260246000fd5b634e487b7160e01b600052604160045260246000fd5b600060018201615546576155466154b3565b5060010190565b6000806000806080858703121561556357600080fd5b845161556e816150b9565b60208601516040870151606090970151919890975090945092505050565b634e487b7160e01b600052602160045260246000fd5b82815260408101600383106155b9576155b961558c565b8260208301529392505050565b8082028115828204841417610ce957610ce96154b3565b634e487b7160e01b600052601260045260246000fd5b600082615602576156026155dd565b500490565b6000806000806080858703121561561d57600080fd5b505082516020840151604085015160609095015191969095509092509050565b6000806040838503121561565057600080fd5b505080516020909101519092909150565b60408152600061567460408301856152fd565b90508260208301529392505050565b600082615692576156926155dd565b500690565b634e487b7160e01b600052603160045260246000fd5b601081106156bd576156bd61558c565b9052565b60208101610ce982846156ad565b6000602082840312156156e157600080fd5b81516110ae81614f94565b6001600160e01b03198316815260408101600b83106155b9576155b961558c565b6001600160e01b0319841681526060810161572b60208301856156ad565b6001600160a01b0383166040830152949350505050565b604051601f8201601f1916810167ffffffffffffffff8111828210171561576b5761576b61551e565b604052919050565b600067ffffffffffffffff82111561578d5761578d61551e565b5060051b60200190565b600060208083850312156157aa57600080fd5b825167ffffffffffffffff8111156157c157600080fd5b8301601f810185136157d257600080fd5b80516157e56157e082615773565b615742565b81815260059190911b8201830190838101908783111561580457600080fd5b928401925b8284101561582b57835161581c81614f94565b82529284019290840190615809565b979650505050505050565b6000602080838503121561584957600080fd5b825167ffffffffffffffff81111561586057600080fd5b8301601f8101851361587157600080fd5b805161587f6157e082615773565b81815260059190911b8201830190838101908783111561589e57600080fd5b928401925b8284101561582b5783516158b681614f94565b825292840192908401906158a3565b828152604060208201526000610f8160408301846152fd565b600060208083850312156158f157600080fd5b825167ffffffffffffffff81111561590857600080fd5b8301601f8101851361591957600080fd5b80516159276157e082615773565b81815260059190911b8201830190838101908783111561594657600080fd5b928401925b8284101561582b5783518252928401929084019061594b565b60008151808452602080850194506020840160005b8381101561533757815187529582019590820190600101615979565b6060815260006159a860608301866152fd565b82810360208401526159ba8186615964565b915050826040830152949350505050565b8381526060602082015260006159e460608301856152fd565b82810360408401526159f68185615964565b9695505050505050565b848152608060208201526000615a1960808301866152fd565b8281036040840152615a2b8186615964565b91505082606083015295945050505050565b600081615a4c57615a4c6154b3565b506000190190565b6000825160005b81811015615a755760208186018101518583015201615a5b565b506000920191825250919050565b6020808252825482820181905260008481528281209092916040850190845b818110156152295783546001600160a01b031683526001938401939285019201615aa2565b60006020808385031215615ada57600080fd5b825167ffffffffffffffff811115615af157600080fd5b8301601f81018513615b0257600080fd5b8051615b106157e082615773565b81815260059190911b82018301908381019087831115615b2f57600080fd5b928401925b8284101561582b578351615b47816150b9565b82529284019290840190615b34565b60a081526000615b6960a08301886152fd565b8281036020840152615b7b8188615964565b90508281036040840152615b8f8187615964565b6060840195909552505060800152939250505056fea26469706673582212200c64a498b06723462617469035bf8afa22d09684f156be47f8ac80bbea250a7264736f6c63430008160033",
  "chainId": 2021,
  "contractAbsolutePath": "RoninValidatorSet.sol",
  "deployer": "0x31762cdd4Aa65CD6f5F09D7a05a56211720A1168",
  "devdoc": {
    "version": 1,
    "kind": "dev",
    "methods": {
      "checkJailed(address)": {
        "details": "Returns whether the validator are put in jail (cannot join the set of validators) during the current period."
      },
      "checkJailedAtBlock(address,uint256)": {
        "details": "Returns whether the validator are put in jail (cannot join the set of validators) at a specific block."
      },
      "checkManyJailed(address[])": {
        "details": "Returns whether the validators are put in jail (cannot join the set of validators) during the current period."
      },
      "checkMiningRewardDeprecated(address)": {
        "details": "Returns whether the incoming reward of the block producer is deprecated during the current period."
      },
      "checkMiningRewardDeprecatedAtPeriod(address,uint256)": {
        "details": "Returns whether the incoming reward of the block producer is deprecated during a specific period."
      },
      "currentPeriod()": {
        "details": "Returns the period index from the current block."
      },
      "currentPeriodStartAtBlock()": {
        "details": "Returns the block number that the current period starts at."
      },
      "emergencyExitLockedAmount()": {
        "details": "Returns the amount of RON to lock from a consensus address."
      },
      "emergencyExpiryDuration()": {
        "details": "Returns the duration that an emergency request is expired and the fund will be recycled."
      },
      "epochEndingAt(uint256)": {
        "details": "Returns whether the epoch ending is at the block number `_block`."
      },
      "epochOf(uint256)": {
        "details": "Returns the epoch index from the block number."
      },
      "execApplyValidatorCandidate(address,address,address,uint256)": {
        "details": "Grants a validator candidate. Requirements: - The method caller is staking contract. Emits the event `CandidateGranted`."
      },
      "execBailOut(address,uint256)": {
        "details": "Finalize the bailout request from slash indicator contract. Requirements: - The method caller is slash indicator contract. Emits the event `ValidatorUnjailed`."
      },
      "execChangeAdminAddress(address,address)": {
        "details": "Fallback function of `Profile-requestChangeAdminAddress`. This updates the shadow storage slot of \"shadowedAdmin\" for candidate id `id` to `newAdmin`. Requirements: - The caller must be the Profile contract."
      },
      "execChangeConsensusAddress(address,address)": {
        "details": "Fallback function of `Profile-requestChangeConsensusAddress`. This updates the shadow storage slot of \"shadowedConsensus\" for candidate id `id` to `newAdmin`. Requirements: - The caller must be the Profile contract."
      },
      "execChangeTreasuryAddress(address,address)": {
        "details": "Fallback function of `Profile-requestChangeTreasuryAddress`. This updates the shadow storage slot of \"shadowedTreasury\" for candidate id `id` to `newAdmin`. Requirements: - The caller must be the Profile contract."
      },
      "execReleaseLockedFundForEmergencyExitRequest(address,address)": {
        "details": "Unlocks fund for emergency exit request. Requirements: - The method caller is admin. Emits the event `EmergencyExitLockedFundReleased` if the fund is successfully unlocked. Emits the event `EmergencyExitLockedFundReleasingFailed` if the fund is failed to unlock."
      },
      "execRequestEmergencyExit(address,uint256)": {
        "details": "Fallback function of `IStaking-requestEmergencyExit`. Requirements: - The method caller is staking contract."
      },
      "execRequestRenounceCandidate(address,uint256)": {
        "details": "Requests to revoke a validator candidate in next `secsLeft` seconds. Requirements: - The method caller is staking contract. Emits the event `CandidateRevokingTimestampUpdated`."
      },
      "execRequestUpdateCommissionRate(address,uint256,uint256)": {
        "details": "Fallback function of `CandidateStaking-requestUpdateCommissionRate`. Requirements: - The method caller is the staking contract. - The `effectiveTimestamp` must be the beginning of a UTC day, and at least from 7 days onwards - The `rate` must be in range of [0_00; 100_00]. Emits the event `CommissionRateUpdateScheduled`."
      },
      "execSlash(address,uint256,uint256,bool)": {
        "details": "Finalize the slash request from slash indicator contract. Requirements: - The method caller is slash indicator contract. Emits the event `ValidatorPunished`."
      },
      "getBlockProducerIds()": {
        "details": "Returns the ids current block producer list."
      },
      "getBlockProducers()": {
        "details": "Returns the current block producer list."
      },
      "getCandidateInfo(address)": {
        "details": "Returns the info of a candidate."
      },
      "getCandidateInfos()": {
        "details": "Returns all candidate info."
      },
      "getCommissionChangeSchedule(address)": {
        "details": "Returns the schedule of changing commission rate of a candidate address."
      },
      "getContract(uint8)": {
        "details": "Returns the address of a contract with a specific role. Throws an error if no contract is set for the specified role.",
        "params": {
          "contractType": "The role of the contract to retrieve."
        },
        "returns": {
          "contract_": "The address of the contract with the specified role."
        }
      },
      "getEmergencyExitInfo(address)": {
        "details": "Returns the emergency exit request."
      },
      "getJailedTimeLeft(address)": {
        "details": "Returns whether the validator are put in jail and the number of block and epoch that he still is in the jail."
      },
      "getJailedTimeLeftAtBlock(address,uint256)": {
        "details": "Returns whether the validator are put in jail at a specific block and the number of block and epoch that he still is in the jail."
      },
      "getLastUpdatedBlock()": {
        "details": "Returns the block that validator set was updated."
      },
      "getValidatorCandidateIds()": {
        "details": "Returns the list of validator candidate ids."
      },
      "getValidatorCandidates()": {
        "details": "Returns the list validator candidates."
      },
      "getValidatorIds()": {
        "details": "Returns the ids of current validator list."
      },
      "getValidators()": {
        "details": "Returns the current validator list."
      },
      "initialize(address,address,address,address,address,address,uint256,uint256,uint256,uint256,uint256,uint256[2])": {
        "details": "Initializes the contract storage."
      },
      "isBlockProducer(address)": {
        "details": "Returns whether the consensus address is block producer or not."
      },
      "isBlockProducerById(address)": {
        "details": "Returns whether the id is block producer or not."
      },
      "isCandidateAdmin(address,address)": {
        "details": "Returns whether the address is the candidate admin."
      },
      "isPeriodEnding()": {
        "details": "Returns whether the period ending at the current block number."
      },
      "isValidatorCandidate(address)": {
        "details": "Returns whether the address is a validator (candidate)."
      },
      "maxPrioritizedValidatorNumber()": {
        "details": "Returns the number of reserved slots for prioritized validators."
      },
      "maxValidatorCandidate()": {
        "details": "Returns the maximum number of validator candidate."
      },
      "maxValidatorNumber()": {
        "details": "Returns the maximum number of validators in the epoch."
      },
      "minEffectiveDaysOnward()": {
        "details": "Returns the minimum number of days to the effective date of commission rate change."
      },
      "numberOfBlocksInEpoch()": {
        "details": "Returns the number of blocks in a epoch."
      },
      "precompilePickValidatorSetAddress()": {
        "details": "Gets the address of the precompile of picking validator set"
      },
      "precompileSortValidatorsAddress()": {
        "details": "Gets the address of the precompile of sorting validators"
      },
      "setContract(uint8,address)": {
        "details": "Sets the address of a contract with a specific role. Emits the event {ContractUpdated}.",
        "params": {
          "addr": "The address of the contract to set.",
          "contractType": "The role of the contract to set."
        }
      },
      "setEmergencyExitLockedAmount(uint256)": {
        "details": "Sets the amount of RON to lock from a consensus address. Requirements: - The method caller is admin. Emits the event `EmergencyExitLockedAmountUpdated`."
      },
      "setEmergencyExpiryDuration(uint256)": {
        "details": "Sets the duration that an emergency request is expired and the fund will be recycled. Requirements: - The method caller is admin. Emits the event `EmergencyExpiryDurationUpdated`."
      },
      "setMaxPrioritizedValidatorNumber(uint256)": {
        "details": "Updates the number of reserved slots for prioritized validators Requirements: - The method caller is admin Emits the event `MaxPrioritizedValidatorNumberUpdated`"
      },
      "setMaxValidatorCandidate(uint256)": {
        "details": "Sets the maximum number of validator candidate. Requirements: - The method caller is admin. Emits the `MaxValidatorCandidateUpdated` event."
      },
      "setMaxValidatorNumber(uint256)": {
        "details": "Updates the max validator number Requirements: - The method caller is admin Emits the event `MaxValidatorNumberUpdated`"
      },
      "setMinEffectiveDaysOnwards(uint256)": {
        "details": "Sets the minimum number of days to the effective date of commision rate change. Requirements: - The method caller is admin. Emits the `MinEffectiveDaysOnwardsUpdated` event."
      },
      "submitBlockReward()": {
        "details": "Submits reward of the current block. Requirements: - The method caller is coinbase. Emits the event `MiningRewardDeprecated` if the coinbase is slashed or no longer be a block producer. Emits the event `BlockRewardSubmitted` for the valid call."
      },
      "totalBlockProducer()": {
        "details": "Returns total numbers of the block producers."
      },
      "totalDeprecatedReward()": {
        "details": "Returns the total deprecated reward, which includes reward that is not sent for slashed validators and unsastified bridge operators"
      },
      "tryGetPeriodOfEpoch(uint256)": {
        "details": "Tries to get the period index from the epoch number."
      },
      "wrapUpEpoch()": {
        "details": "Wraps up the current epoch. Requirements: - The method must be called when the current epoch is ending. - The epoch is not wrapped yet. - The method caller is coinbase. Emits the event `MiningRewardDistributed` when some validator has reward distributed. Emits the event `StakingRewardDistributed` when some staking pool has reward distributed. Emits the event `BlockProducerSetUpdated` when the epoch is wrapped up. Emits the event `BridgeOperatorSetUpdated` when the epoch is wrapped up at period ending. Emits the event `ValidatorSetUpdated` when the epoch is wrapped up at period ending, and the validator set gets updated. Emits the event `WrappedUpEpoch`."
      }
    },
    "events": {
      "BlockProducerSetUpdated(uint256,uint256,address[])": {
        "details": "Emitted when the bridge operator set is updated, to mirror the in-jail and maintaining status of the validator."
      },
      "BlockRewardDeprecated(address,uint256,uint8)": {
        "details": "Emitted when the reward of the block producer is deprecated."
      },
      "BlockRewardSubmitted(address,uint256,uint256)": {
        "details": "Emitted when the block reward is submitted."
      },
      "BridgeOperatorRewardDistributed(address,address,address,uint256)": {
        "details": "Emitted when the bridge operator reward is distributed."
      },
      "BridgeOperatorRewardDistributionFailed(address,address,address,uint256,uint256)": {
        "details": "Emitted when the contract fails when distributing the bridge operator reward."
      },
      "BridgeOperatorSetUpdated(uint256,uint256,address[])": {
        "details": "Emitted when the bridge operator set is updated."
      },
      "CandidateGranted(address,address,address)": {
        "details": "Emitted when the validator candidate is granted."
      },
      "CandidateRevokingTimestampUpdated(address,uint256)": {
        "details": "Emitted when the revoking timestamp of a candidate is updated."
      },
      "CandidateTopupDeadlineUpdated(address,uint256)": {
        "details": "Emitted when the topup deadline of a candidate is updated."
      },
      "CandidatesRevoked(address[])": {
        "details": "Emitted when the validator candidate is revoked."
      },
      "CommissionRateUpdateScheduled(address,uint256,uint256)": {
        "details": "Emitted when a schedule for updating commission rate is set."
      },
      "CommissionRateUpdated(address,uint256)": {
        "details": "Emitted when the commission rate of a validator is updated."
      },
      "ContractUpdated(uint8,address)": {
        "details": "Emitted when a contract is updated."
      },
      "DeprecatedRewardRecycleFailed(address,uint256,uint256)": {
        "details": "Emitted when the deprecated reward withdrawal is failed"
      },
      "DeprecatedRewardRecycled(address,uint256)": {
        "details": "Emitted when the deprecated reward is withdrawn."
      },
      "EmergencyExitLockedAmountUpdated(uint256)": {
        "details": "Emitted when the emergency exit locked amount is updated."
      },
      "EmergencyExitLockedFundReleased(address,address,uint256)": {
        "details": "Emitted when the fund that locked from an emergency exit request is transferred to the recipient."
      },
      "EmergencyExitLockedFundReleasingFailed(address,address,uint256,uint256)": {
        "details": "Emitted when the fund that locked from an emergency exit request is failed to transferred back."
      },
      "EmergencyExitRequested(address,uint256)": {
        "details": "Emitted when the fund is locked from an emergency exit request"
      },
      "EmergencyExpiryDurationUpdated(uint256)": {
        "details": "Emitted when the emergency expiry duration is updated."
      },
      "FastFinalityRewardDistributed(address,address,uint256)": {
        "details": "Emitted when the fast finality reward is distributed."
      },
      "FastFinalityRewardDistributionFailed(address,address,uint256,uint256)": {
        "details": "Emitted when the contract fails when distributing the fast finality reward."
      },
      "Initialized(uint8)": {
        "details": "Triggered when the contract has been initialized or reinitialized."
      },
      "MaxPrioritizedValidatorNumberUpdated(uint256)": {
        "details": "Emitted when the number of reserved slots for prioritized validators is updated."
      },
      "MaxValidatorCandidateUpdated(uint256)": {
        "details": "Emitted when the maximum number of validator candidates is updated."
      },
      "MaxValidatorNumberUpdated(uint256)": {
        "details": "Emitted when the number of max validator is updated."
      },
      "MinEffectiveDaysOnwardsUpdated(uint256)": {
        "details": "Emitted when the min offset to the effective date of commission rate change is updated."
      },
      "MiningRewardDistributed(address,address,uint256)": {
        "details": "Emitted when the block producer reward is distributed."
      },
      "MiningRewardDistributionFailed(address,address,uint256,uint256)": {
        "details": "Emitted when the contract fails when distributing the block producer reward."
      },
      "StakingRewardDistributed(uint256,address[],uint256[])": {
        "details": "Emitted when the amount of RON reward is distributed to staking contract."
      },
      "StakingRewardDistributionFailed(uint256,address[],uint256[],uint256)": {
        "details": "Emitted when the contracts fails when distributing the amount of RON to the staking contract."
      },
      "ValidatorPunished(address,uint256,uint256,uint256,bool,bool)": {
        "details": "Emitted when the validator is punished."
      },
      "ValidatorSetUpdated(uint256,address[])": {
        "details": "Emitted when the validator set is updated"
      },
      "ValidatorUnjailed(address,uint256)": {
        "details": "Emitted when the validator get out of jail by bailout."
      },
      "WrappedUpEpoch(uint256,uint256,bool)": {
        "details": "Emitted when the epoch is wrapped up."
      }
    },
    "errors": {
      "ErrAlreadyRequestedEmergencyExit()": [
        {
          "details": "Error of already requested emergency exit before."
        }
      ],
      "ErrAlreadyRequestedRevokingCandidate()": [
        {
          "details": "Error of already requested revoking candidate before."
        }
      ],
      "ErrAlreadyRequestedUpdatingCommissionRate()": [
        {
          "details": "Error of commission change schedule exists."
        }
      ],
      "ErrAlreadyWrappedEpoch()": [
        {
          "details": "Error of query for already wrapped up epoch"
        }
      ],
      "ErrAtEndOfEpochOnly()": [
        {
          "details": "Error of only allowed at the end of epoch"
        }
      ],
      "ErrCallPrecompiled()": [
        {
          "details": "Error of call to precompile fails."
        }
      ],
      "ErrCallerMustBeCoinbase()": [
        {
          "details": "Error of method caller must be coinbase"
        }
      ],
      "ErrCannotBailout(address)": [
        {
          "details": "Error of cannot bailout due to high tier slash."
        }
      ],
      "ErrContractTypeNotFound(uint8)": [
        {
          "details": "Error of invalid role."
        }
      ],
      "ErrExceedsMaxNumberOfCandidate()": [
        {
          "details": "Error of exceeding maximum number of candidates."
        }
      ],
      "ErrExistentCandidate()": [
        {
          "details": "Error of querying for already existent candidate."
        }
      ],
      "ErrExistentCandidateAdmin(address)": [
        {
          "details": "Error of candidate admin already exists."
        }
      ],
      "ErrExistentTreasury(address)": [
        {
          "details": "Error of treasury already exists."
        }
      ],
      "ErrInsufficientBalance(bytes4,uint256,uint256)": [
        {
          "details": "Error of sender has insufficient balance."
        }
      ],
      "ErrInvalidCommissionRate()": [
        {
          "details": "Error of invalid commission rate."
        }
      ],
      "ErrInvalidEffectiveDaysOnwards()": [
        {
          "details": "Error of invalid effective days onwards."
        }
      ],
      "ErrInvalidMaxPrioritizedValidatorNumber()": [
        {
          "details": "Error thrown when an invalid maximum prioritized validator number is provided."
        }
      ],
      "ErrInvalidMinEffectiveDaysOnwards()": [
        {
          "details": "Error of invalid min effective days onwards."
        }
      ],
      "ErrLockedFundMightBeRecycled(address)": [
        {
          "details": "Error thrown when the the locked fund of emergency exit might be recycled."
        }
      ],
      "ErrLockedFundReleaseInfoNotFound(address)": [
        {
          "details": "Error thrown when the info of releasing locked fund not exist."
        }
      ],
      "ErrNonExistentCandidate()": [
        {
          "details": "Error of querying for non-existent candidate."
        }
      ],
      "ErrRecipientRevert(bytes4)": [
        {
          "details": "Error of recipient not accepting RON when transfer RON."
        }
      ],
      "ErrTrustedOrgCannotRenounce()": [
        {
          "details": "Error of trusted org cannot renounce."
        }
      ],
      "ErrUnauthorized(bytes4,uint8)": [
        {
          "details": "Error indicating that the caller is unauthorized to perform a specific function.",
          "params": {
            "expectedRole": "The role required to perform the function.",
            "msgSig": "The function signature (bytes4) that the caller is unauthorized to perform."
          }
        }
      ],
      "ErrUnauthorizedReceiveRON()": [
        {
          "details": "Error thrown when receives RON from neither staking vesting contract nor staking contract"
        }
      ],
      "ErrUnexpectedInternalCall(bytes4,uint8,address)": [
        {
          "details": "Error indicating that the caller is unauthorized to perform a specific function.",
          "params": {
            "actual": "The actual address that called to the function.",
            "expectedContractType": "The contract type required to perform the function.",
            "msgSig": "The function signature (bytes4)."
          }
        }
      ],
      "ErrZeroCodeContract(address)": [
        {
          "details": "Error of set to non-contract."
        }
      ],
      "NonExistentRecyclingInfo()": [
        {
          "details": "Error thrown when queries for a non existent info."
        }
      ]
    }
  },
  "isFoundry": true,
  "nonce": 34,
  "numDeployments": 20,
  "storageLayout": {
    "storage": [
      {
        "astId": 149318,
        "contract": "contracts/ronin/validator/RoninValidatorSet.sol:RoninValidatorSet",
        "label": "_initialized",
        "offset": 0,
        "slot": "0",
        "type": "t_uint8"
      },
      {
        "astId": 149321,
        "contract": "contracts/ronin/validator/RoninValidatorSet.sol:RoninValidatorSet",
        "label": "_initializing",
        "offset": 1,
        "slot": "0",
        "type": "t_bool"
      },
      {
        "astId": 36411,
        "contract": "contracts/ronin/validator/RoninValidatorSet.sol:RoninValidatorSet",
        "label": "_numberOfBlocksInEpoch",
        "offset": 0,
        "slot": "1",
        "type": "t_uint256"
      },
      {
        "astId": 36414,
        "contract": "contracts/ronin/validator/RoninValidatorSet.sol:RoninValidatorSet",
        "label": "_lastUpdatedBlock",
        "offset": 0,
        "slot": "2",
        "type": "t_uint256"
      },
      {
        "astId": 36417,
        "contract": "contracts/ronin/validator/RoninValidatorSet.sol:RoninValidatorSet",
        "label": "_lastUpdatedPeriod",
        "offset": 0,
        "slot": "3",
        "type": "t_uint256"
      },
      {
        "astId": 36420,
        "contract": "contracts/ronin/validator/RoninValidatorSet.sol:RoninValidatorSet",
        "label": "_currentPeriodStartAtBlock",
        "offset": 0,
        "slot": "4",
        "type": "t_uint256"
      },
      {
        "astId": 36425,
        "contract": "contracts/ronin/validator/RoninValidatorSet.sol:RoninValidatorSet",
        "label": "_periodOf",
        "offset": 0,
        "slot": "5",
        "type": "t_mapping(t_uint256,t_uint256)"
      },
      {
        "astId": 36430,
        "contract": "contracts/ronin/validator/RoninValidatorSet.sol:RoninValidatorSet",
        "label": "______gap",
        "offset": 0,
        "slot": "6",
        "type": "t_array(t_uint256)49_storage"
      },
      {
        "astId": 36015,
        "contract": "contracts/ronin/validator/RoninValidatorSet.sol:RoninValidatorSet",
        "label": "_miningRewardDeprecatedAtPeriod",
        "offset": 0,
        "slot": "55",
        "type": "t_mapping(t_address,t_mapping(t_uint256,t_bool))"
      },
      {
        "astId": 36022,
        "contract": "contracts/ronin/validator/RoninValidatorSet.sol:RoninValidatorSet",
        "label": "_miningRewardBailoutCutOffAtPeriod",
        "offset": 0,
        "slot": "56",
        "type": "t_mapping(t_address,t_mapping(t_uint256,t_bool))"
      },
      {
        "astId": 36029,
        "contract": "contracts/ronin/validator/RoninValidatorSet.sol:RoninValidatorSet",
        "label": "______deprecatedBridgeRewardDeprecatedAtPeriod",
        "offset": 0,
        "slot": "57",
        "type": "t_mapping(t_address,t_mapping(t_uint256,t_bool))"
      },
      {
        "astId": 36034,
        "contract": "contracts/ronin/validator/RoninValidatorSet.sol:RoninValidatorSet",
        "label": "_blockProducerJailedBlock",
        "offset": 0,
        "slot": "58",
        "type": "t_mapping(t_address,t_uint256)"
      },
      {
        "astId": 36039,
        "contract": "contracts/ronin/validator/RoninValidatorSet.sol:RoninValidatorSet",
        "label": "_emergencyExitJailedTimestamp",
        "offset": 0,
        "slot": "59",
        "type": "t_mapping(t_address,t_uint256)"
      },
      {
        "astId": 36044,
        "contract": "contracts/ronin/validator/RoninValidatorSet.sol:RoninValidatorSet",
        "label": "_cannotBailoutUntilBlock",
        "offset": 0,
        "slot": "60",
        "type": "t_mapping(t_address,t_uint256)"
      },
      {
        "astId": 36049,
        "contract": "contracts/ronin/validator/RoninValidatorSet.sol:RoninValidatorSet",
        "label": "______gap",
        "offset": 0,
        "slot": "61",
        "type": "t_array(t_uint256)48_storage"
      },
      {
        "astId": 37482,
        "contract": "contracts/ronin/validator/RoninValidatorSet.sol:RoninValidatorSet",
        "label": "______deprecatedStakingVesting",
        "offset": 0,
        "slot": "109",
        "type": "t_address"
      },
      {
        "astId": 37510,
        "contract": "contracts/ronin/validator/RoninValidatorSet.sol:RoninValidatorSet",
        "label": "______deprecatedBridgeTracking",
        "offset": 0,
        "slot": "110",
        "type": "t_address"
      },
      {
        "astId": 37498,
        "contract": "contracts/ronin/validator/RoninValidatorSet.sol:RoninValidatorSet",
        "label": "______deprecatedMaintenance",
        "offset": 0,
        "slot": "111",
        "type": "t_address"
      },
      {
        "astId": 37478,
        "contract": "contracts/ronin/validator/RoninValidatorSet.sol:RoninValidatorSet",
        "label": "______deprecatedSlashIndicator",
        "offset": 0,
        "slot": "112",
        "type": "t_address"
      },
      {
        "astId": 37494,
        "contract": "contracts/ronin/validator/RoninValidatorSet.sol:RoninValidatorSet",
        "label": "______deprecatedStakingContract",
        "offset": 0,
        "slot": "113",
        "type": "t_address"
      },
      {
        "astId": 32400,
        "contract": "contracts/ronin/validator/RoninValidatorSet.sol:RoninValidatorSet",
        "label": "_maxValidatorCandidate",
        "offset": 0,
        "slot": "114",
        "type": "t_uint256"
      },
      {
        "astId": 32404,
        "contract": "contracts/ronin/validator/RoninValidatorSet.sol:RoninValidatorSet",
        "label": "_candidateIds",
        "offset": 0,
        "slot": "115",
        "type": "t_array(t_address)dyn_storage"
      },
      {
        "astId": 32409,
        "contract": "contracts/ronin/validator/RoninValidatorSet.sol:RoninValidatorSet",
        "label": "_candidateIndex",
        "offset": 0,
        "slot": "116",
        "type": "t_mapping(t_address,t_uint256)"
      },
      {
        "astId": 32415,
        "contract": "contracts/ronin/validator/RoninValidatorSet.sol:RoninValidatorSet",
        "label": "_candidateInfo",
        "offset": 0,
        "slot": "117",
        "type": "t_mapping(t_address,t_struct(ValidatorCandidate)9779_storage)"
      },
      {
        "astId": 32418,
        "contract": "contracts/ronin/validator/RoninValidatorSet.sol:RoninValidatorSet",
        "label": "_minEffectiveDaysOnwards",
        "offset": 0,
        "slot": "118",
        "type": "t_uint256"
      },
      {
        "astId": 32424,
        "contract": "contracts/ronin/validator/RoninValidatorSet.sol:RoninValidatorSet",
        "label": "_candidateCommissionChangeSchedule",
        "offset": 0,
        "slot": "119",
        "type": "t_mapping(t_address,t_struct(CommissionSchedule)9786_storage)"
      },
      {
        "astId": 32429,
        "contract": "contracts/ronin/validator/RoninValidatorSet.sol:RoninValidatorSet",
        "label": "______gap",
        "offset": 0,
        "slot": "120",
        "type": "t_array(t_uint256)48_storage"
      },
      {
        "astId": 37502,
        "contract": "contracts/ronin/validator/RoninValidatorSet.sol:RoninValidatorSet",
        "label": "______deprecatedTrustedOrg",
        "offset": 0,
        "slot": "168",
        "type": "t_address"
      },
      {
        "astId": 36597,
        "contract": "contracts/ronin/validator/RoninValidatorSet.sol:RoninValidatorSet",
        "label": "_maxValidatorNumber",
        "offset": 0,
        "slot": "169",
        "type": "t_uint256"
      },
      {
        "astId": 36600,
        "contract": "contracts/ronin/validator/RoninValidatorSet.sol:RoninValidatorSet",
        "label": "_validatorCount",
        "offset": 0,
        "slot": "170",
        "type": "t_uint256"
      },
      {
        "astId": 36605,
        "contract": "contracts/ronin/validator/RoninValidatorSet.sol:RoninValidatorSet",
        "label": "_validatorIds",
        "offset": 0,
        "slot": "171",
        "type": "t_mapping(t_uint256,t_address)"
      },
      {
        "astId": 36611,
        "contract": "contracts/ronin/validator/RoninValidatorSet.sol:RoninValidatorSet",
        "label": "_validatorMap",
        "offset": 0,
        "slot": "172",
        "type": "t_mapping(t_address,t_enum(ValidatorFlag)10912)"
      },
      {
        "astId": 36614,
        "contract": "contracts/ronin/validator/RoninValidatorSet.sol:RoninValidatorSet",
        "label": "_maxPrioritizedValidatorNumber",
        "offset": 0,
        "slot": "173",
        "type": "t_uint256"
      },
      {
        "astId": 36619,
        "contract": "contracts/ronin/validator/RoninValidatorSet.sol:RoninValidatorSet",
        "label": "______gap",
        "offset": 0,
        "slot": "174",
        "type": "t_array(t_uint256)50_storage"
      },
      {
        "astId": 35863,
        "contract": "contracts/ronin/validator/RoninValidatorSet.sol:RoninValidatorSet",
        "label": "_miningReward",
        "offset": 0,
        "slot": "224",
        "type": "t_mapping(t_address,t_uint256)"
      },
      {
        "astId": 35868,
        "contract": "contracts/ronin/validator/RoninValidatorSet.sol:RoninValidatorSet",
        "label": "_delegatingReward",
        "offset": 0,
        "slot": "225",
        "type": "t_mapping(t_address,t_uint256)"
      },
      {
        "astId": 35871,
        "contract": "contracts/ronin/validator/RoninValidatorSet.sol:RoninValidatorSet",
        "label": "_totalFastFinalityReward",
        "offset": 0,
        "slot": "226",
        "type": "t_uint256"
      },
      {
        "astId": 35876,
        "contract": "contracts/ronin/validator/RoninValidatorSet.sol:RoninValidatorSet",
        "label": "_fastFinalityReward",
        "offset": 0,
        "slot": "227",
        "type": "t_mapping(t_address,t_uint256)"
      },
      {
        "astId": 35879,
        "contract": "contracts/ronin/validator/RoninValidatorSet.sol:RoninValidatorSet",
        "label": "_totalDeprecatedReward",
        "offset": 0,
        "slot": "228",
        "type": "t_uint256"
      },
      {
        "astId": 35882,
        "contract": "contracts/ronin/validator/RoninValidatorSet.sol:RoninValidatorSet",
        "label": "_emergencyExitLockedAmount",
        "offset": 0,
        "slot": "229",
        "type": "t_uint256"
      },
      {
        "astId": 35885,
        "contract": "contracts/ronin/validator/RoninValidatorSet.sol:RoninValidatorSet",
        "label": "_emergencyExpiryDuration",
        "offset": 0,
        "slot": "230",
        "type": "t_uint256"
      },
      {
        "astId": 35889,
        "contract": "contracts/ronin/validator/RoninValidatorSet.sol:RoninValidatorSet",
        "label": "_lockedConsensusList",
        "offset": 0,
        "slot": "231",
        "type": "t_array(t_address)dyn_storage"
      },
      {
        "astId": 35895,
        "contract": "contracts/ronin/validator/RoninValidatorSet.sol:RoninValidatorSet",
        "label": "_exitInfo",
        "offset": 0,
        "slot": "232",
        "type": "t_mapping(t_address,t_struct(EmergencyExitInfo)10384_storage)"
      },
      {
        "astId": 35900,
        "contract": "contracts/ronin/validator/RoninValidatorSet.sol:RoninValidatorSet",
        "label": "_lockedFundReleased",
        "offset": 0,
        "slot": "233",
        "type": "t_mapping(t_address,t_bool)"
      },
      {
        "astId": 35905,
        "contract": "contracts/ronin/validator/RoninValidatorSet.sol:RoninValidatorSet",
        "label": "______gap",
        "offset": 0,
        "slot": "234",
        "type": "t_array(t_uint256)44_storage"
      }
    ],
    "types": {
      "t_address": {
        "encoding": "inplace",
        "label": "address",
        "numberOfBytes": "20"
      },
      "t_address_payable": {
        "encoding": "inplace",
        "label": "address payable",
        "numberOfBytes": "20"
      },
      "t_array(t_address)dyn_storage": {
        "encoding": "dynamic_array",
        "label": "address[]",
        "numberOfBytes": "32",
        "base": "t_address"
      },
      "t_array(t_uint256)44_storage": {
        "encoding": "inplace",
        "label": "uint256[44]",
        "numberOfBytes": "1408",
        "base": "t_uint256"
      },
      "t_array(t_uint256)48_storage": {
        "encoding": "inplace",
        "label": "uint256[48]",
        "numberOfBytes": "1536",
        "base": "t_uint256"
      },
      "t_array(t_uint256)49_storage": {
        "encoding": "inplace",
        "label": "uint256[49]",
        "numberOfBytes": "1568",
        "base": "t_uint256"
      },
      "t_array(t_uint256)50_storage": {
        "encoding": "inplace",
        "label": "uint256[50]",
        "numberOfBytes": "1600",
        "base": "t_uint256"
      },
      "t_bool": {
        "encoding": "inplace",
        "label": "bool",
        "numberOfBytes": "1"
      },
      "t_enum(ValidatorFlag)10912": {
        "encoding": "inplace",
        "label": "enum EnumFlags.ValidatorFlag",
        "numberOfBytes": "1"
      },
      "t_mapping(t_address,t_bool)": {
        "encoding": "mapping",
        "key": "t_address",
        "label": "mapping(address => bool)",
        "numberOfBytes": "32",
        "value": "t_bool"
      },
      "t_mapping(t_address,t_enum(ValidatorFlag)10912)": {
        "encoding": "mapping",
        "key": "t_address",
        "label": "mapping(address => enum EnumFlags.ValidatorFlag)",
        "numberOfBytes": "32",
        "value": "t_enum(ValidatorFlag)10912"
      },
      "t_mapping(t_address,t_mapping(t_uint256,t_bool))": {
        "encoding": "mapping",
        "key": "t_address",
        "label": "mapping(address => mapping(uint256 => bool))",
        "numberOfBytes": "32",
        "value": "t_mapping(t_uint256,t_bool)"
      },
      "t_mapping(t_address,t_struct(CommissionSchedule)9786_storage)": {
        "encoding": "mapping",
        "key": "t_address",
        "label": "mapping(address => struct ICandidateManager.CommissionSchedule)",
        "numberOfBytes": "32",
        "value": "t_struct(CommissionSchedule)9786_storage"
      },
      "t_mapping(t_address,t_struct(EmergencyExitInfo)10384_storage)": {
        "encoding": "mapping",
        "key": "t_address",
        "label": "mapping(address => struct ICommonInfo.EmergencyExitInfo)",
        "numberOfBytes": "32",
        "value": "t_struct(EmergencyExitInfo)10384_storage"
      },
      "t_mapping(t_address,t_struct(ValidatorCandidate)9779_storage)": {
        "encoding": "mapping",
        "key": "t_address",
        "label": "mapping(address => struct ICandidateManager.ValidatorCandidate)",
        "numberOfBytes": "32",
        "value": "t_struct(ValidatorCandidate)9779_storage"
      },
      "t_mapping(t_address,t_uint256)": {
        "encoding": "mapping",
        "key": "t_address",
        "label": "mapping(address => uint256)",
        "numberOfBytes": "32",
        "value": "t_uint256"
      },
      "t_mapping(t_uint256,t_address)": {
        "encoding": "mapping",
        "key": "t_uint256",
        "label": "mapping(uint256 => address)",
        "numberOfBytes": "32",
        "value": "t_address"
      },
      "t_mapping(t_uint256,t_bool)": {
        "encoding": "mapping",
        "key": "t_uint256",
        "label": "mapping(uint256 => bool)",
        "numberOfBytes": "32",
        "value": "t_bool"
      },
      "t_mapping(t_uint256,t_uint256)": {
        "encoding": "mapping",
        "key": "t_uint256",
        "label": "mapping(uint256 => uint256)",
        "numberOfBytes": "32",
        "value": "t_uint256"
      },
      "t_struct(CommissionSchedule)9786_storage": {
        "encoding": "inplace",
        "label": "struct ICandidateManager.CommissionSchedule",
        "numberOfBytes": "64",
        "members": [
          {
            "astId": 9782,
            "contract": "contracts/ronin/validator/RoninValidatorSet.sol:RoninValidatorSet",
            "label": "effectiveTimestamp",
            "offset": 0,
            "slot": "0",
            "type": "t_uint256"
          },
          {
            "astId": 9785,
            "contract": "contracts/ronin/validator/RoninValidatorSet.sol:RoninValidatorSet",
            "label": "commissionRate",
            "offset": 0,
            "slot": "1",
            "type": "t_uint256"
          }
        ]
      },
      "t_struct(EmergencyExitInfo)10384_storage": {
        "encoding": "inplace",
        "label": "struct ICommonInfo.EmergencyExitInfo",
        "numberOfBytes": "64",
        "members": [
          {
            "astId": 10381,
            "contract": "contracts/ronin/validator/RoninValidatorSet.sol:RoninValidatorSet",
            "label": "lockedAmount",
            "offset": 0,
            "slot": "0",
            "type": "t_uint256"
          },
          {
            "astId": 10383,
            "contract": "contracts/ronin/validator/RoninValidatorSet.sol:RoninValidatorSet",
            "label": "recyclingAt",
            "offset": 0,
            "slot": "1",
            "type": "t_uint256"
          }
        ]
      },
      "t_struct(ValidatorCandidate)9779_storage": {
        "encoding": "inplace",
        "label": "struct ICandidateManager.ValidatorCandidate",
        "numberOfBytes": "224",
        "members": [
          {
            "astId": 9759,
            "contract": "contracts/ronin/validator/RoninValidatorSet.sol:RoninValidatorSet",
            "label": "__shadowedAdmin",
            "offset": 0,
            "slot": "0",
            "type": "t_address"
          },
          {
            "astId": 9763,
            "contract": "contracts/ronin/validator/RoninValidatorSet.sol:RoninValidatorSet",
            "label": "__shadowedConsensus",
            "offset": 0,
            "slot": "1",
            "type": "t_userDefinedValueType(TConsensus)37191"
          },
          {
            "astId": 9766,
            "contract": "contracts/ronin/validator/RoninValidatorSet.sol:RoninValidatorSet",
            "label": "__shadowedTreasury",
            "offset": 0,
            "slot": "2",
            "type": "t_address_payable"
          },
          {
            "astId": 9769,
            "contract": "contracts/ronin/validator/RoninValidatorSet.sol:RoninValidatorSet",
            "label": "____deprecatedBridgeOperatorAddr",
            "offset": 0,
            "slot": "3",
            "type": "t_address"
          },
          {
            "astId": 9772,
            "contract": "contracts/ronin/validator/RoninValidatorSet.sol:RoninValidatorSet",
            "label": "commissionRate",
            "offset": 0,
            "slot": "4",
            "type": "t_uint256"
          },
          {
            "astId": 9775,
            "contract": "contracts/ronin/validator/RoninValidatorSet.sol:RoninValidatorSet",
            "label": "revokingTimestamp",
            "offset": 0,
            "slot": "5",
            "type": "t_uint256"
          },
          {
            "astId": 9778,
            "contract": "contracts/ronin/validator/RoninValidatorSet.sol:RoninValidatorSet",
            "label": "topupDeadline",
            "offset": 0,
            "slot": "6",
            "type": "t_uint256"
          }
        ]
      },
      "t_uint256": {
        "encoding": "inplace",
        "label": "uint256",
        "numberOfBytes": "32"
      },
      "t_uint8": {
        "encoding": "inplace",
        "label": "uint8",
        "numberOfBytes": "1"
      },
      "t_userDefinedValueType(TConsensus)37191": {
        "encoding": "inplace",
        "label": "TConsensus",
        "numberOfBytes": "20"
      }
    }
  },
  "timestamp": 1708659212,
  "userdoc": {
    "version": 1,
    "kind": "user"
  }
}