{
  "abi": [
    {
      "type": "constructor",
      "inputs": [],
      "stateMutability": "nonpayable"
    },
    {
      "type": "fallback",
      "stateMutability": "payable"
    },
    {
      "type": "receive",
      "stateMutability": "payable"
    },
    {
      "type": "function",
      "name": "DEFAULT_ADDITION_GAS",
      "inputs": [],
      "outputs": [
        {
          "name": "",
          "type": "uint256",
          "internalType": "uint256"
        }
      ],
      "stateMutability": "view"
    },
    {
      "type": "function",
      "name": "PERIOD_DURATION",
      "inputs": [],
      "outputs": [
        {
          "name": "",
          "type": "uint256",
          "internalType": "uint256"
        }
      ],
      "stateMutability": "view"
    },
    {
      "type": "function",
      "name": "checkJailed",
      "inputs": [
        {
          "name": "consensus",
          "type": "address",
          "internalType": "TConsensus"
        }
      ],
      "outputs": [
        {
          "name": "",
          "type": "bool",
          "internalType": "bool"
        }
      ],
      "stateMutability": "view"
    },
    {
      "type": "function",
      "name": "checkJailedAtBlock",
      "inputs": [
        {
          "name": "addr",
          "type": "address",
          "internalType": "TConsensus"
        },
        {
          "name": "blockNum",
          "type": "uint256",
          "internalType": "uint256"
        }
      ],
      "outputs": [
        {
          "name": "",
          "type": "bool",
          "internalType": "bool"
        }
      ],
      "stateMutability": "view"
    },
    {
      "type": "function",
      "name": "checkManyJailed",
      "inputs": [
        {
          "name": "consensusList",
          "type": "address[]",
          "internalType": "TConsensus[]"
        }
      ],
      "outputs": [
        {
          "name": "",
          "type": "bool[]",
          "internalType": "bool[]"
        }
      ],
      "stateMutability": "view"
    },
    {
      "type": "function",
      "name": "checkManyJailedById",
      "inputs": [
        {
          "name": "candidateIds",
          "type": "address[]",
          "internalType": "address[]"
        }
      ],
      "outputs": [
        {
          "name": "",
          "type": "bool[]",
          "internalType": "bool[]"
        }
      ],
      "stateMutability": "view"
    },
    {
      "type": "function",
      "name": "checkMiningRewardDeprecated",
      "inputs": [
        {
          "name": "consensus",
          "type": "address",
          "internalType": "TConsensus"
        }
      ],
      "outputs": [
        {
          "name": "",
          "type": "bool",
          "internalType": "bool"
        }
      ],
      "stateMutability": "view"
    },
    {
      "type": "function",
      "name": "checkMiningRewardDeprecatedAtPeriod",
      "inputs": [
        {
          "name": "consensus",
          "type": "address",
          "internalType": "TConsensus"
        },
        {
          "name": "period",
          "type": "uint256",
          "internalType": "uint256"
        }
      ],
      "outputs": [
        {
          "name": "",
          "type": "bool",
          "internalType": "bool"
        }
      ],
      "stateMutability": "view"
    },
    {
      "type": "function",
      "name": "currentPeriod",
      "inputs": [],
      "outputs": [
        {
          "name": "",
          "type": "uint256",
          "internalType": "uint256"
        }
      ],
      "stateMutability": "view"
    },
    {
      "type": "function",
      "name": "currentPeriodStartAtBlock",
      "inputs": [],
      "outputs": [
        {
          "name": "",
          "type": "uint256",
          "internalType": "uint256"
        }
      ],
      "stateMutability": "view"
    },
    {
      "type": "function",
      "name": "emergencyExitLockedAmount",
      "inputs": [],
      "outputs": [
        {
          "name": "",
          "type": "uint256",
          "internalType": "uint256"
        }
      ],
      "stateMutability": "view"
    },
    {
      "type": "function",
      "name": "emergencyExpiryDuration",
      "inputs": [],
      "outputs": [
        {
          "name": "",
          "type": "uint256",
          "internalType": "uint256"
        }
      ],
      "stateMutability": "view"
    },
    {
      "type": "function",
      "name": "epochEndingAt",
      "inputs": [
        {
          "name": "_block",
          "type": "uint256",
          "internalType": "uint256"
        }
      ],
      "outputs": [
        {
          "name": "",
          "type": "bool",
          "internalType": "bool"
        }
      ],
      "stateMutability": "view"
    },
    {
      "type": "function",
      "name": "epochOf",
      "inputs": [
        {
          "name": "_block",
          "type": "uint256",
          "internalType": "uint256"
        }
      ],
      "outputs": [
        {
          "name": "",
          "type": "uint256",
          "internalType": "uint256"
        }
      ],
      "stateMutability": "view"
    },
    {
      "type": "function",
      "name": "execApplyValidatorCandidate",
      "inputs": [
        {
          "name": "candidateAdmin",
          "type": "address",
          "internalType": "address"
        },
        {
          "name": "cid",
          "type": "address",
          "internalType": "address"
        },
        {
          "name": "treasuryAddr",
          "type": "address",
          "internalType": "address payable"
        },
        {
          "name": "commissionRate",
          "type": "uint256",
          "internalType": "uint256"
        }
      ],
      "outputs": [],
      "stateMutability": "nonpayable"
    },
    {
      "type": "function",
      "name": "execBailOut",
      "inputs": [
        {
          "name": "validatorId",
          "type": "address",
          "internalType": "address"
        },
        {
          "name": "period",
          "type": "uint256",
          "internalType": "uint256"
        }
      ],
      "outputs": [],
      "stateMutability": "nonpayable"
    },
    {
      "type": "function",
      "name": "execChangeAdminAddr",
      "inputs": [
        {
          "name": "cid",
          "type": "address",
          "internalType": "address"
        },
        {
          "name": "newAdmin",
          "type": "address",
          "internalType": "address"
        }
      ],
      "outputs": [],
      "stateMutability": "nonpayable"
    },
    {
      "type": "function",
      "name": "execChangeConsensusAddr",
      "inputs": [
        {
          "name": "cid",
          "type": "address",
          "internalType": "address"
        },
        {
          "name": "newConsensusAddr",
          "type": "address",
          "internalType": "TConsensus"
        }
      ],
      "outputs": [],
      "stateMutability": "nonpayable"
    },
    {
      "type": "function",
      "name": "execChangeTreasuryAddr",
      "inputs": [
        {
          "name": "cid",
          "type": "address",
          "internalType": "address"
        },
        {
          "name": "newTreasury",
          "type": "address",
          "internalType": "address payable"
        }
      ],
      "outputs": [],
      "stateMutability": "nonpayable"
    },
    {
      "type": "function",
      "name": "execReleaseLockedFundForEmergencyExitRequest",
      "inputs": [
        {
          "name": "cid",
          "type": "address",
          "internalType": "address"
        },
        {
          "name": "recipient",
          "type": "address",
          "internalType": "address payable"
        }
      ],
      "outputs": [],
      "stateMutability": "nonpayable"
    },
    {
      "type": "function",
      "name": "execRequestEmergencyExit",
      "inputs": [
        {
          "name": "cid",
          "type": "address",
          "internalType": "address"
        },
        {
          "name": "secLeftToRevoke",
          "type": "uint256",
          "internalType": "uint256"
        }
      ],
      "outputs": [],
      "stateMutability": "nonpayable"
    },
    {
      "type": "function",
      "name": "execRequestRenounceCandidate",
      "inputs": [
        {
          "name": "cid",
          "type": "address",
          "internalType": "address"
        },
        {
          "name": "secsLeft",
          "type": "uint256",
          "internalType": "uint256"
        }
      ],
      "outputs": [],
      "stateMutability": "nonpayable"
    },
    {
      "type": "function",
      "name": "execRequestUpdateCommissionRate",
      "inputs": [
        {
          "name": "cid",
          "type": "address",
          "internalType": "address"
        },
        {
          "name": "effectiveDaysOnwards",
          "type": "uint256",
          "internalType": "uint256"
        },
        {
          "name": "commissionRate",
          "type": "uint256",
          "internalType": "uint256"
        }
      ],
      "outputs": [],
      "stateMutability": "nonpayable"
    },
    {
      "type": "function",
      "name": "execSlash",
      "inputs": [
        {
          "name": "validatorId",
          "type": "address",
          "internalType": "address"
        },
        {
          "name": "newJailedUntil",
          "type": "uint256",
          "internalType": "uint256"
        },
        {
          "name": "slashAmount",
          "type": "uint256",
          "internalType": "uint256"
        },
        {
          "name": "cannotBailout",
          "type": "bool",
          "internalType": "bool"
        }
      ],
      "outputs": [],
      "stateMutability": "nonpayable"
    },
    {
      "type": "function",
      "name": "getBlockProducerIds",
      "inputs": [],
      "outputs": [
        {
          "name": "cids",
          "type": "address[]",
          "internalType": "address[]"
        }
      ],
      "stateMutability": "view"
    },
    {
      "type": "function",
      "name": "getBlockProducers",
      "inputs": [],
      "outputs": [
        {
          "name": "consensusList",
          "type": "address[]",
          "internalType": "TConsensus[]"
        }
      ],
      "stateMutability": "view"
    },
    {
      "type": "function",
      "name": "getCandidateInfo",
      "inputs": [
        {
          "name": "consensus",
          "type": "address",
          "internalType": "TConsensus"
        }
      ],
      "outputs": [
        {
          "name": "",
          "type": "tuple",
          "internalType": "struct ICandidateManager.ValidatorCandidate",
          "components": [
            {
              "name": "__shadowedAdmin",
              "type": "address",
              "internalType": "address"
            },
            {
              "name": "__shadowedConsensus",
              "type": "address",
              "internalType": "TConsensus"
            },
            {
              "name": "__shadowedTreasury",
              "type": "address",
              "internalType": "address payable"
            },
            {
              "name": "____deprecatedBridgeOperatorAddr",
              "type": "address",
              "internalType": "address"
            },
            {
              "name": "commissionRate",
              "type": "uint256",
              "internalType": "uint256"
            },
            {
              "name": "revokingTimestamp",
              "type": "uint256",
              "internalType": "uint256"
            },
            {
              "name": "topupDeadline",
              "type": "uint256",
              "internalType": "uint256"
            }
          ]
        }
      ],
      "stateMutability": "view"
    },
    {
      "type": "function",
      "name": "getCandidateInfoById",
      "inputs": [
        {
          "name": "cid",
          "type": "address",
          "internalType": "address"
        }
      ],
      "outputs": [
        {
          "name": "",
          "type": "tuple",
          "internalType": "struct ICandidateManager.ValidatorCandidate",
          "components": [
            {
              "name": "__shadowedAdmin",
              "type": "address",
              "internalType": "address"
            },
            {
              "name": "__shadowedConsensus",
              "type": "address",
              "internalType": "TConsensus"
            },
            {
              "name": "__shadowedTreasury",
              "type": "address",
              "internalType": "address payable"
            },
            {
              "name": "____deprecatedBridgeOperatorAddr",
              "type": "address",
              "internalType": "address"
            },
            {
              "name": "commissionRate",
              "type": "uint256",
              "internalType": "uint256"
            },
            {
              "name": "revokingTimestamp",
              "type": "uint256",
              "internalType": "uint256"
            },
            {
              "name": "topupDeadline",
              "type": "uint256",
              "internalType": "uint256"
            }
          ]
        }
      ],
      "stateMutability": "view"
    },
    {
      "type": "function",
      "name": "getCandidateInfos",
      "inputs": [],
      "outputs": [
        {
          "name": "list",
          "type": "tuple[]",
          "internalType": "struct ICandidateManager.ValidatorCandidate[]",
          "components": [
            {
              "name": "__shadowedAdmin",
              "type": "address",
              "internalType": "address"
            },
            {
              "name": "__shadowedConsensus",
              "type": "address",
              "internalType": "TConsensus"
            },
            {
              "name": "__shadowedTreasury",
              "type": "address",
              "internalType": "address payable"
            },
            {
              "name": "____deprecatedBridgeOperatorAddr",
              "type": "address",
              "internalType": "address"
            },
            {
              "name": "commissionRate",
              "type": "uint256",
              "internalType": "uint256"
            },
            {
              "name": "revokingTimestamp",
              "type": "uint256",
              "internalType": "uint256"
            },
            {
              "name": "topupDeadline",
              "type": "uint256",
              "internalType": "uint256"
            }
          ]
        }
      ],
      "stateMutability": "view"
    },
    {
      "type": "function",
      "name": "getCommissionChangeSchedule",
      "inputs": [
        {
          "name": "consensus",
          "type": "address",
          "internalType": "TConsensus"
        }
      ],
      "outputs": [
        {
          "name": "",
          "type": "tuple",
          "internalType": "struct ICandidateManager.CommissionSchedule",
          "components": [
            {
              "name": "effectiveTimestamp",
              "type": "uint256",
              "internalType": "uint256"
            },
            {
              "name": "commissionRate",
              "type": "uint256",
              "internalType": "uint256"
            }
          ]
        }
      ],
      "stateMutability": "view"
    },
    {
      "type": "function",
      "name": "getContract",
      "inputs": [
        {
          "name": "contractType",
          "type": "uint8",
          "internalType": "enum ContractType"
        }
      ],
      "outputs": [
        {
          "name": "contract_",
          "type": "address",
          "internalType": "address"
        }
      ],
      "stateMutability": "view"
    },
    {
      "type": "function",
      "name": "getEmergencyExitInfo",
      "inputs": [
        {
          "name": "consensus",
          "type": "address",
          "internalType": "TConsensus"
        }
      ],
      "outputs": [
        {
          "name": "_info",
          "type": "tuple",
          "internalType": "struct ICommonInfo.EmergencyExitInfo",
          "components": [
            {
              "name": "lockedAmount",
              "type": "uint256",
              "internalType": "uint256"
            },
            {
              "name": "recyclingAt",
              "type": "uint256",
              "internalType": "uint256"
            }
          ]
        }
      ],
      "stateMutability": "view"
    },
    {
      "type": "function",
      "name": "getJailedTimeLeft",
      "inputs": [
        {
          "name": "consensus",
          "type": "address",
          "internalType": "TConsensus"
        }
      ],
      "outputs": [
        {
          "name": "isJailed_",
          "type": "bool",
          "internalType": "bool"
        },
        {
          "name": "blockLeft_",
          "type": "uint256",
          "internalType": "uint256"
        },
        {
          "name": "epochLeft_",
          "type": "uint256",
          "internalType": "uint256"
        }
      ],
      "stateMutability": "view"
    },
    {
      "type": "function",
      "name": "getJailedTimeLeftAtBlock",
      "inputs": [
        {
          "name": "consensus",
          "type": "address",
          "internalType": "TConsensus"
        },
        {
          "name": "_blockNum",
          "type": "uint256",
          "internalType": "uint256"
        }
      ],
      "outputs": [
        {
          "name": "isJailed_",
          "type": "bool",
          "internalType": "bool"
        },
        {
          "name": "blockLeft_",
          "type": "uint256",
          "internalType": "uint256"
        },
        {
          "name": "epochLeft_",
          "type": "uint256",
          "internalType": "uint256"
        }
      ],
      "stateMutability": "view"
    },
    {
      "type": "function",
      "name": "getLastUpdatedBlock",
      "inputs": [],
      "outputs": [
        {
          "name": "",
          "type": "uint256",
          "internalType": "uint256"
        }
      ],
      "stateMutability": "view"
    },
    {
      "type": "function",
      "name": "getValidatorCandidateIds",
      "inputs": [],
      "outputs": [
        {
          "name": "",
          "type": "address[]",
          "internalType": "address[]"
        }
      ],
      "stateMutability": "view"
    },
    {
      "type": "function",
      "name": "getValidatorCandidates",
      "inputs": [],
      "outputs": [
        {
          "name": "",
          "type": "address[]",
          "internalType": "TConsensus[]"
        }
      ],
      "stateMutability": "view"
    },
    {
      "type": "function",
      "name": "getValidatorIds",
      "inputs": [],
      "outputs": [
        {
          "name": "cids",
          "type": "address[]",
          "internalType": "address[]"
        }
      ],
      "stateMutability": "view"
    },
    {
      "type": "function",
      "name": "getValidators",
      "inputs": [],
      "outputs": [
        {
          "name": "consensusList",
          "type": "address[]",
          "internalType": "TConsensus[]"
        }
      ],
      "stateMutability": "view"
    },
    {
      "type": "function",
      "name": "initialize",
      "inputs": [
        {
          "name": "__slashIndicatorContract",
          "type": "address",
          "internalType": "address"
        },
        {
          "name": "__stakingContract",
          "type": "address",
          "internalType": "address"
        },
        {
          "name": "__stakingVestingContract",
          "type": "address",
          "internalType": "address"
        },
        {
          "name": "__maintenanceContract",
          "type": "address",
          "internalType": "address"
        },
        {
          "name": "__roninTrustedOrganizationContract",
          "type": "address",
          "internalType": "address"
        },
        {
          "name": "",
          "type": "address",
          "internalType": "address"
        },
        {
          "name": "__maxValidatorNumber",
          "type": "uint256",
          "internalType": "uint256"
        },
        {
          "name": "__maxValidatorCandidate",
          "type": "uint256",
          "internalType": "uint256"
        },
        {
          "name": "__maxPrioritizedValidatorNumber",
          "type": "uint256",
          "internalType": "uint256"
        },
        {
          "name": "__minEffectiveDaysOnwards",
          "type": "uint256",
          "internalType": "uint256"
        },
        {
          "name": "__numberOfBlocksInEpoch",
          "type": "uint256",
          "internalType": "uint256"
        },
        {
          "name": "__emergencyExitConfigs",
          "type": "uint256[2]",
          "internalType": "uint256[2]"
        }
      ],
      "outputs": [],
      "stateMutability": "nonpayable"
    },
    {
      "type": "function",
      "name": "initializeV2",
      "inputs": [],
      "outputs": [],
      "stateMutability": "nonpayable"
    },
    {
      "type": "function",
      "name": "initializeV3",
      "inputs": [
        {
          "name": "fastFinalityTrackingContract",
          "type": "address",
          "internalType": "address"
        }
      ],
      "outputs": [],
      "stateMutability": "nonpayable"
    },
    {
      "type": "function",
      "name": "initializeV4",
      "inputs": [
        {
          "name": "profileContract",
          "type": "address",
          "internalType": "address"
        }
      ],
      "outputs": [],
      "stateMutability": "nonpayable"
    },
    {
      "type": "function",
      "name": "isBlockProducer",
      "inputs": [
        {
          "name": "consensusAddr",
          "type": "address",
          "internalType": "TConsensus"
        }
      ],
      "outputs": [
        {
          "name": "",
          "type": "bool",
          "internalType": "bool"
        }
      ],
      "stateMutability": "view"
    },
    {
      "type": "function",
      "name": "isBlockProducerById",
      "inputs": [
        {
          "name": "id",
          "type": "address",
          "internalType": "address"
        }
      ],
      "outputs": [
        {
          "name": "",
          "type": "bool",
          "internalType": "bool"
        }
      ],
      "stateMutability": "view"
    },
    {
      "type": "function",
      "name": "isCandidateAdmin",
      "inputs": [
        {
          "name": "consensusAddr",
          "type": "address",
          "internalType": "TConsensus"
        },
        {
          "name": "admin",
          "type": "address",
          "internalType": "address"
        }
      ],
      "outputs": [
        {
          "name": "",
          "type": "bool",
          "internalType": "bool"
        }
      ],
      "stateMutability": "view"
    },
    {
      "type": "function",
      "name": "isCandidateAdminById",
      "inputs": [
        {
          "name": "candidateId",
          "type": "address",
          "internalType": "address"
        },
        {
          "name": "admin",
          "type": "address",
          "internalType": "address"
        }
      ],
      "outputs": [
        {
          "name": "",
          "type": "bool",
          "internalType": "bool"
        }
      ],
      "stateMutability": "view"
    },
    {
      "type": "function",
      "name": "isPeriodEnding",
      "inputs": [],
      "outputs": [
        {
          "name": "",
          "type": "bool",
          "internalType": "bool"
        }
      ],
      "stateMutability": "view"
    },
    {
      "type": "function",
      "name": "isValidatorCandidate",
      "inputs": [
        {
          "name": "consensus",
          "type": "address",
          "internalType": "TConsensus"
        }
      ],
      "outputs": [
        {
          "name": "",
          "type": "bool",
          "internalType": "bool"
        }
      ],
      "stateMutability": "view"
    },
    {
      "type": "function",
      "name": "maxPrioritizedValidatorNumber",
      "inputs": [],
      "outputs": [
        {
          "name": "_maximumPrioritizedValidatorNumber",
          "type": "uint256",
          "internalType": "uint256"
        }
      ],
      "stateMutability": "view"
    },
    {
      "type": "function",
      "name": "maxValidatorCandidate",
      "inputs": [],
      "outputs": [
        {
          "name": "",
          "type": "uint256",
          "internalType": "uint256"
        }
      ],
      "stateMutability": "view"
    },
    {
      "type": "function",
      "name": "maxValidatorNumber",
      "inputs": [],
      "outputs": [
        {
          "name": "_maximumValidatorNumber",
          "type": "uint256",
          "internalType": "uint256"
        }
      ],
      "stateMutability": "view"
    },
    {
      "type": "function",
      "name": "minEffectiveDaysOnward",
      "inputs": [],
      "outputs": [
        {
          "name": "",
          "type": "uint256",
          "internalType": "uint256"
        }
      ],
      "stateMutability": "view"
    },
    {
      "type": "function",
      "name": "numberOfBlocksInEpoch",
      "inputs": [],
      "outputs": [
        {
          "name": "_numberOfBlocks",
          "type": "uint256",
          "internalType": "uint256"
        }
      ],
      "stateMutability": "view"
    },
    {
      "type": "function",
      "name": "precompilePickValidatorSetAddress",
      "inputs": [],
      "outputs": [
        {
          "name": "",
          "type": "address",
          "internalType": "address"
        }
      ],
      "stateMutability": "view"
    },
    {
      "type": "function",
      "name": "precompileSortValidatorsAddress",
      "inputs": [],
      "outputs": [
        {
          "name": "",
          "type": "address",
          "internalType": "address"
        }
      ],
      "stateMutability": "view"
    },
    {
      "type": "function",
      "name": "setContract",
      "inputs": [
        {
          "name": "contractType",
          "type": "uint8",
          "internalType": "enum ContractType"
        },
        {
          "name": "addr",
          "type": "address",
          "internalType": "address"
        }
      ],
      "outputs": [],
      "stateMutability": "nonpayable"
    },
    {
      "type": "function",
      "name": "setEmergencyExitLockedAmount",
      "inputs": [
        {
          "name": "amount",
          "type": "uint256",
          "internalType": "uint256"
        }
      ],
      "outputs": [],
      "stateMutability": "nonpayable"
    },
    {
      "type": "function",
      "name": "setEmergencyExpiryDuration",
      "inputs": [
        {
          "name": "duration",
          "type": "uint256",
          "internalType": "uint256"
        }
      ],
      "outputs": [],
      "stateMutability": "nonpayable"
    },
    {
      "type": "function",
      "name": "setMaxPrioritizedValidatorNumber",
      "inputs": [
        {
          "name": "_number",
          "type": "uint256",
          "internalType": "uint256"
        }
      ],
      "outputs": [],
      "stateMutability": "nonpayable"
    },
    {
      "type": "function",
      "name": "setMaxValidatorCandidate",
      "inputs": [
        {
          "name": "_number",
          "type": "uint256",
          "internalType": "uint256"
        }
      ],
      "outputs": [],
      "stateMutability": "nonpayable"
    },
    {
      "type": "function",
      "name": "setMaxValidatorNumber",
      "inputs": [
        {
          "name": "_max",
          "type": "uint256",
          "internalType": "uint256"
        }
      ],
      "outputs": [],
      "stateMutability": "nonpayable"
    },
    {
      "type": "function",
      "name": "setMinEffectiveDaysOnwards",
      "inputs": [
        {
          "name": "_numOfDays",
          "type": "uint256",
          "internalType": "uint256"
        }
      ],
      "outputs": [],
      "stateMutability": "nonpayable"
    },
    {
      "type": "function",
      "name": "submitBlockReward",
      "inputs": [],
      "outputs": [],
      "stateMutability": "payable"
    },
    {
      "type": "function",
      "name": "totalBlockProducer",
      "inputs": [],
      "outputs": [
        {
          "name": "total",
          "type": "uint256",
          "internalType": "uint256"
        }
      ],
      "stateMutability": "view"
    },
    {
      "type": "function",
      "name": "totalDeprecatedReward",
      "inputs": [],
      "outputs": [
        {
          "name": "",
          "type": "uint256",
          "internalType": "uint256"
        }
      ],
      "stateMutability": "view"
    },
    {
      "type": "function",
      "name": "tryGetPeriodOfEpoch",
      "inputs": [
        {
          "name": "_epoch",
          "type": "uint256",
          "internalType": "uint256"
        }
      ],
      "outputs": [
        {
          "name": "_filled",
          "type": "bool",
          "internalType": "bool"
        },
        {
          "name": "_periodNumber",
          "type": "uint256",
          "internalType": "uint256"
        }
      ],
      "stateMutability": "view"
    },
    {
      "type": "function",
      "name": "validatorCount",
      "inputs": [],
      "outputs": [
        {
          "name": "",
          "type": "uint256",
          "internalType": "uint256"
        }
      ],
      "stateMutability": "view"
    },
    {
      "type": "function",
      "name": "wrapUpEpoch",
      "inputs": [],
      "outputs": [],
      "stateMutability": "payable"
    },
    {
      "type": "event",
      "name": "BlockProducerSetUpdated",
      "inputs": [
        {
          "name": "period",
          "type": "uint256",
          "indexed": true,
          "internalType": "uint256"
        },
        {
          "name": "epoch",
          "type": "uint256",
          "indexed": true,
          "internalType": "uint256"
        },
        {
          "name": "cids",
          "type": "address[]",
          "indexed": false,
          "internalType": "address[]"
        }
      ],
      "anonymous": false
    },
    {
      "type": "event",
      "name": "BlockRewardDeprecated",
      "inputs": [
        {
          "name": "cid",
          "type": "address",
          "indexed": true,
          "internalType": "address"
        },
        {
          "name": "rewardAmount",
          "type": "uint256",
          "indexed": false,
          "internalType": "uint256"
        },
        {
          "name": "deprecatedType",
          "type": "uint8",
          "indexed": false,
          "internalType": "enum ICoinbaseExecution.BlockRewardDeprecatedType"
        }
      ],
      "anonymous": false
    },
    {
      "type": "event",
      "name": "BlockRewardSubmitted",
      "inputs": [
        {
          "name": "cid",
          "type": "address",
          "indexed": true,
          "internalType": "address"
        },
        {
          "name": "submittedAmount",
          "type": "uint256",
          "indexed": false,
          "internalType": "uint256"
        },
        {
          "name": "bonusAmount",
          "type": "uint256",
          "indexed": false,
          "internalType": "uint256"
        }
      ],
      "anonymous": false
    },
    {
      "type": "event",
      "name": "BridgeOperatorRewardDistributed",
      "inputs": [
        {
          "name": "cid",
          "type": "address",
          "indexed": true,
          "internalType": "address"
        },
        {
          "name": "bridgeOperator",
          "type": "address",
          "indexed": true,
          "internalType": "address"
        },
        {
          "name": "recipientAddr",
          "type": "address",
          "indexed": true,
          "internalType": "address"
        },
        {
          "name": "amount",
          "type": "uint256",
          "indexed": false,
          "internalType": "uint256"
        }
      ],
      "anonymous": false
    },
    {
      "type": "event",
      "name": "BridgeOperatorRewardDistributionFailed",
      "inputs": [
        {
          "name": "cid",
          "type": "address",
          "indexed": true,
          "internalType": "address"
        },
        {
          "name": "bridgeOperator",
          "type": "address",
          "indexed": true,
          "internalType": "address"
        },
        {
          "name": "recipient",
          "type": "address",
          "indexed": true,
          "internalType": "address"
        },
        {
          "name": "amount",
          "type": "uint256",
          "indexed": false,
          "internalType": "uint256"
        },
        {
          "name": "contractBalance",
          "type": "uint256",
          "indexed": false,
          "internalType": "uint256"
        }
      ],
      "anonymous": false
    },
    {
      "type": "event",
      "name": "BridgeOperatorSetUpdated",
      "inputs": [
        {
          "name": "period",
          "type": "uint256",
          "indexed": true,
          "internalType": "uint256"
        },
        {
          "name": "epoch",
          "type": "uint256",
          "indexed": true,
          "internalType": "uint256"
        },
        {
          "name": "bridgeOperators",
          "type": "address[]",
          "indexed": false,
          "internalType": "address[]"
        }
      ],
      "anonymous": false
    },
    {
      "type": "event",
      "name": "CandidateGranted",
      "inputs": [
        {
          "name": "cid",
          "type": "address",
          "indexed": true,
          "internalType": "address"
        },
        {
          "name": "treasuryAddr",
          "type": "address",
          "indexed": true,
          "internalType": "address"
        },
        {
          "name": "admin",
          "type": "address",
          "indexed": true,
          "internalType": "address"
        }
      ],
      "anonymous": false
    },
    {
      "type": "event",
      "name": "CandidateRevokingTimestampUpdated",
      "inputs": [
        {
          "name": "cid",
          "type": "address",
          "indexed": true,
          "internalType": "address"
        },
        {
          "name": "revokingTimestamp",
          "type": "uint256",
          "indexed": false,
          "internalType": "uint256"
        }
      ],
      "anonymous": false
    },
    {
      "type": "event",
      "name": "CandidateTopupDeadlineUpdated",
      "inputs": [
        {
          "name": "cid",
          "type": "address",
          "indexed": true,
          "internalType": "address"
        },
        {
          "name": "topupDeadline",
          "type": "uint256",
          "indexed": false,
          "internalType": "uint256"
        }
      ],
      "anonymous": false
    },
    {
      "type": "event",
      "name": "CandidatesRevoked",
      "inputs": [
        {
          "name": "cids",
          "type": "address[]",
          "indexed": false,
          "internalType": "address[]"
        }
      ],
      "anonymous": false
    },
    {
      "type": "event",
      "name": "CommissionRateUpdateScheduled",
      "inputs": [
        {
          "name": "cid",
          "type": "address",
          "indexed": true,
          "internalType": "address"
        },
        {
          "name": "effectiveTimestamp",
          "type": "uint256",
          "indexed": false,
          "internalType": "uint256"
        },
        {
          "name": "rate",
          "type": "uint256",
          "indexed": false,
          "internalType": "uint256"
        }
      ],
      "anonymous": false
    },
    {
      "type": "event",
      "name": "CommissionRateUpdated",
      "inputs": [
        {
          "name": "cid",
          "type": "address",
          "indexed": true,
          "internalType": "address"
        },
        {
          "name": "rate",
          "type": "uint256",
          "indexed": false,
          "internalType": "uint256"
        }
      ],
      "anonymous": false
    },
    {
      "type": "event",
      "name": "ContractUpdated",
      "inputs": [
        {
          "name": "contractType",
          "type": "uint8",
          "indexed": true,
          "internalType": "enum ContractType"
        },
        {
          "name": "addr",
          "type": "address",
          "indexed": true,
          "internalType": "address"
        }
      ],
      "anonymous": false
    },
    {
      "type": "event",
      "name": "DeprecatedRewardRecycleFailed",
      "inputs": [
        {
          "name": "recipientAddr",
          "type": "address",
          "indexed": true,
          "internalType": "address"
        },
        {
          "name": "amount",
          "type": "uint256",
          "indexed": false,
          "internalType": "uint256"
        },
        {
          "name": "balance",
          "type": "uint256",
          "indexed": false,
          "internalType": "uint256"
        }
      ],
      "anonymous": false
    },
    {
      "type": "event",
      "name": "DeprecatedRewardRecycled",
      "inputs": [
        {
          "name": "recipientAddr",
          "type": "address",
          "indexed": true,
          "internalType": "address"
        },
        {
          "name": "amount",
          "type": "uint256",
          "indexed": false,
          "internalType": "uint256"
        }
      ],
      "anonymous": false
    },
    {
      "type": "event",
      "name": "EmergencyExitLockedAmountUpdated",
      "inputs": [
        {
          "name": "amount",
          "type": "uint256",
          "indexed": false,
          "internalType": "uint256"
        }
      ],
      "anonymous": false
    },
    {
      "type": "event",
      "name": "EmergencyExitLockedFundReleased",
      "inputs": [
        {
          "name": "cid",
          "type": "address",
          "indexed": true,
          "internalType": "address"
        },
        {
          "name": "recipient",
          "type": "address",
          "indexed": true,
          "internalType": "address"
        },
        {
          "name": "unlockedAmount",
          "type": "uint256",
          "indexed": false,
          "internalType": "uint256"
        }
      ],
      "anonymous": false
    },
    {
      "type": "event",
      "name": "EmergencyExitLockedFundReleasingFailed",
      "inputs": [
        {
          "name": "cid",
          "type": "address",
          "indexed": true,
          "internalType": "address"
        },
        {
          "name": "recipient",
          "type": "address",
          "indexed": true,
          "internalType": "address"
        },
        {
          "name": "unlockedAmount",
          "type": "uint256",
          "indexed": false,
          "internalType": "uint256"
        },
        {
          "name": "contractBalance",
          "type": "uint256",
          "indexed": false,
          "internalType": "uint256"
        }
      ],
      "anonymous": false
    },
    {
      "type": "event",
      "name": "EmergencyExitRequested",
      "inputs": [
        {
          "name": "cid",
          "type": "address",
          "indexed": true,
          "internalType": "address"
        },
        {
          "name": "lockedAmount",
          "type": "uint256",
          "indexed": false,
          "internalType": "uint256"
        }
      ],
      "anonymous": false
    },
    {
      "type": "event",
      "name": "EmergencyExpiryDurationUpdated",
      "inputs": [
        {
          "name": "amount",
          "type": "uint256",
          "indexed": false,
          "internalType": "uint256"
        }
      ],
      "anonymous": false
    },
    {
      "type": "event",
      "name": "FastFinalityRewardDistributed",
      "inputs": [
        {
          "name": "cid",
          "type": "address",
          "indexed": true,
          "internalType": "address"
        },
        {
          "name": "recipient",
          "type": "address",
          "indexed": true,
          "internalType": "address"
        },
        {
          "name": "amount",
          "type": "uint256",
          "indexed": false,
          "internalType": "uint256"
        }
      ],
      "anonymous": false
    },
    {
      "type": "event",
      "name": "FastFinalityRewardDistributionFailed",
      "inputs": [
        {
          "name": "cid",
          "type": "address",
          "indexed": true,
          "internalType": "address"
        },
        {
          "name": "recipient",
          "type": "address",
          "indexed": true,
          "internalType": "address"
        },
        {
          "name": "amount",
          "type": "uint256",
          "indexed": false,
          "internalType": "uint256"
        },
        {
          "name": "contractBalance",
          "type": "uint256",
          "indexed": false,
          "internalType": "uint256"
        }
      ],
      "anonymous": false
    },
    {
      "type": "event",
      "name": "Initialized",
      "inputs": [
        {
          "name": "version",
          "type": "uint8",
          "indexed": false,
          "internalType": "uint8"
        }
      ],
      "anonymous": false
    },
    {
      "type": "event",
      "name": "MaxPrioritizedValidatorNumberUpdated",
      "inputs": [
        {
          "name": "",
          "type": "uint256",
          "indexed": false,
          "internalType": "uint256"
        }
      ],
      "anonymous": false
    },
    {
      "type": "event",
      "name": "MaxValidatorCandidateUpdated",
      "inputs": [
        {
          "name": "threshold",
          "type": "uint256",
          "indexed": false,
          "internalType": "uint256"
        }
      ],
      "anonymous": false
    },
    {
      "type": "event",
      "name": "MaxValidatorNumberUpdated",
      "inputs": [
        {
          "name": "",
          "type": "uint256",
          "indexed": false,
          "internalType": "uint256"
        }
      ],
      "anonymous": false
    },
    {
      "type": "event",
      "name": "MinEffectiveDaysOnwardsUpdated",
      "inputs": [
        {
          "name": "numOfDays",
          "type": "uint256",
          "indexed": false,
          "internalType": "uint256"
        }
      ],
      "anonymous": false
    },
    {
      "type": "event",
      "name": "MiningRewardDistributed",
      "inputs": [
        {
          "name": "cid",
          "type": "address",
          "indexed": true,
          "internalType": "address"
        },
        {
          "name": "recipient",
          "type": "address",
          "indexed": true,
          "internalType": "address"
        },
        {
          "name": "amount",
          "type": "uint256",
          "indexed": false,
          "internalType": "uint256"
        }
      ],
      "anonymous": false
    },
    {
      "type": "event",
      "name": "MiningRewardDistributionFailed",
      "inputs": [
        {
          "name": "cid",
          "type": "address",
          "indexed": true,
          "internalType": "address"
        },
        {
          "name": "recipient",
          "type": "address",
          "indexed": true,
          "internalType": "address"
        },
        {
          "name": "amount",
          "type": "uint256",
          "indexed": false,
          "internalType": "uint256"
        },
        {
          "name": "contractBalance",
          "type": "uint256",
          "indexed": false,
          "internalType": "uint256"
        }
      ],
      "anonymous": false
    },
    {
      "type": "event",
      "name": "StakingRewardDistributed",
      "inputs": [
        {
          "name": "totalAmount",
          "type": "uint256",
          "indexed": false,
          "internalType": "uint256"
        },
        {
          "name": "cids",
          "type": "address[]",
          "indexed": false,
          "internalType": "address[]"
        },
        {
          "name": "amounts",
          "type": "uint256[]",
          "indexed": false,
          "internalType": "uint256[]"
        }
      ],
      "anonymous": false
    },
    {
      "type": "event",
      "name": "StakingRewardDistributionFailed",
      "inputs": [
        {
          "name": "totalAmount",
          "type": "uint256",
          "indexed": false,
          "internalType": "uint256"
        },
        {
          "name": "cids",
          "type": "address[]",
          "indexed": false,
          "internalType": "address[]"
        },
        {
          "name": "amounts",
          "type": "uint256[]",
          "indexed": false,
          "internalType": "uint256[]"
        },
        {
          "name": "contractBalance",
          "type": "uint256",
          "indexed": false,
          "internalType": "uint256"
        }
      ],
      "anonymous": false
    },
    {
      "type": "event",
      "name": "ValidatorPunished",
      "inputs": [
        {
          "name": "cid",
          "type": "address",
          "indexed": true,
          "internalType": "address"
        },
        {
          "name": "period",
          "type": "uint256",
          "indexed": true,
          "internalType": "uint256"
        },
        {
          "name": "jailedUntil",
          "type": "uint256",
          "indexed": false,
          "internalType": "uint256"
        },
        {
          "name": "deductedStakingAmount",
          "type": "uint256",
          "indexed": false,
          "internalType": "uint256"
        },
        {
          "name": "blockProducerRewardDeprecated",
          "type": "bool",
          "indexed": false,
          "internalType": "bool"
        },
        {
          "name": "bridgeOperatorRewardDeprecated",
          "type": "bool",
          "indexed": false,
          "internalType": "bool"
        }
      ],
      "anonymous": false
    },
    {
      "type": "event",
      "name": "ValidatorSetUpdated",
      "inputs": [
        {
          "name": "period",
          "type": "uint256",
          "indexed": true,
          "internalType": "uint256"
        },
        {
          "name": "cids",
          "type": "address[]",
          "indexed": false,
          "internalType": "address[]"
        }
      ],
      "anonymous": false
    },
    {
      "type": "event",
      "name": "ValidatorUnjailed",
      "inputs": [
        {
          "name": "cid",
          "type": "address",
          "indexed": true,
          "internalType": "address"
        },
        {
          "name": "period",
          "type": "uint256",
          "indexed": false,
          "internalType": "uint256"
        }
      ],
      "anonymous": false
    },
    {
      "type": "event",
      "name": "WrappedUpEpoch",
      "inputs": [
        {
          "name": "periodNumber",
          "type": "uint256",
          "indexed": true,
          "internalType": "uint256"
        },
        {
          "name": "epochNumber",
          "type": "uint256",
          "indexed": true,
          "internalType": "uint256"
        },
        {
          "name": "periodEnding",
          "type": "bool",
          "indexed": false,
          "internalType": "bool"
        }
      ],
      "anonymous": false
    },
    {
      "type": "error",
      "name": "ErrAlreadyRequestedEmergencyExit",
      "inputs": []
    },
    {
      "type": "error",
      "name": "ErrAlreadyRequestedRevokingCandidate",
      "inputs": []
    },
    {
      "type": "error",
      "name": "ErrAlreadyRequestedUpdatingCommissionRate",
      "inputs": []
    },
    {
      "type": "error",
      "name": "ErrAlreadyWrappedEpoch",
      "inputs": []
    },
    {
      "type": "error",
      "name": "ErrAtEndOfEpochOnly",
      "inputs": []
    },
    {
      "type": "error",
      "name": "ErrCallPrecompiled",
      "inputs": []
    },
    {
      "type": "error",
      "name": "ErrCallerMustBeCoinbase",
      "inputs": []
    },
    {
      "type": "error",
      "name": "ErrCannotBailout",
      "inputs": [
        {
          "name": "validator",
          "type": "address",
          "internalType": "address"
        }
      ]
    },
    {
      "type": "error",
      "name": "ErrContractTypeNotFound",
      "inputs": [
        {
          "name": "contractType",
          "type": "uint8",
          "internalType": "enum ContractType"
        }
      ]
    },
    {
      "type": "error",
      "name": "ErrExceedsMaxNumberOfCandidate",
      "inputs": []
    },
    {
      "type": "error",
      "name": "ErrExistentCandidate",
      "inputs": []
    },
    {
      "type": "error",
      "name": "ErrExistentCandidateAdmin",
      "inputs": [
        {
          "name": "candidateAdminAddr",
          "type": "address",
          "internalType": "address"
        }
      ]
    },
    {
      "type": "error",
      "name": "ErrExistentTreasury",
      "inputs": [
        {
          "name": "treasuryAddr",
          "type": "address",
          "internalType": "address"
        }
      ]
    },
    {
      "type": "error",
      "name": "ErrInsufficientBalance",
      "inputs": [
        {
          "name": "msgSig",
          "type": "bytes4",
          "internalType": "bytes4"
        },
        {
          "name": "currentBalance",
          "type": "uint256",
          "internalType": "uint256"
        },
        {
          "name": "sendAmount",
          "type": "uint256",
          "internalType": "uint256"
        }
      ]
    },
    {
      "type": "error",
      "name": "ErrInvalidCommissionRate",
      "inputs": []
    },
    {
      "type": "error",
      "name": "ErrInvalidEffectiveDaysOnwards",
      "inputs": []
    },
    {
      "type": "error",
      "name": "ErrInvalidMaxPrioritizedValidatorNumber",
      "inputs": []
    },
    {
      "type": "error",
      "name": "ErrInvalidMinEffectiveDaysOnwards",
      "inputs": []
    },
    {
      "type": "error",
      "name": "ErrLockedFundMightBeRecycled",
      "inputs": [
        {
          "name": "cid",
          "type": "address",
          "internalType": "address"
        }
      ]
    },
    {
      "type": "error",
      "name": "ErrLockedFundReleaseInfoNotFound",
      "inputs": [
        {
          "name": "cid",
          "type": "address",
          "internalType": "address"
        }
      ]
    },
    {
      "type": "error",
      "name": "ErrNonExistentCandidate",
      "inputs": []
    },
    {
      "type": "error",
      "name": "ErrRecipientRevert",
      "inputs": [
        {
          "name": "msgSig",
          "type": "bytes4",
          "internalType": "bytes4"
        }
      ]
    },
    {
      "type": "error",
      "name": "ErrTrustedOrgCannotRenounce",
      "inputs": []
    },
    {
      "type": "error",
      "name": "ErrUnauthorized",
      "inputs": [
        {
          "name": "msgSig",
          "type": "bytes4",
          "internalType": "bytes4"
        },
        {
          "name": "expectedRole",
          "type": "uint8",
          "internalType": "enum RoleAccess"
        }
      ]
    },
    {
      "type": "error",
      "name": "ErrUnauthorizedReceiveRON",
      "inputs": []
    },
    {
      "type": "error",
      "name": "ErrUnexpectedInternalCall",
      "inputs": [
        {
          "name": "msgSig",
          "type": "bytes4",
          "internalType": "bytes4"
        },
        {
          "name": "expectedContractType",
          "type": "uint8",
          "internalType": "enum ContractType"
        },
        {
          "name": "actual",
          "type": "address",
          "internalType": "address"
        }
      ]
    },
    {
      "type": "error",
      "name": "ErrZeroCodeContract",
      "inputs": [
        {
          "name": "addr",
          "type": "address",
          "internalType": "address"
        }
      ]
    },
    {
      "type": "error",
      "name": "NonExistentRecyclingInfo",
      "inputs": []
    }
  ],
  "address": "0xCA6759828C44087A7bB4E2CF41BD1f7F42541c85",
  "args": "0x",
  "blockNumber": 25192039,
  "bytecode": "0x60806040523480156200001157600080fd5b506200001c62000022565b620000e4565b600054610100900460ff16156200008f5760405162461bcd60e51b815260206004820152602760248201527f496e697469616c697a61626c653a20636f6e747261637420697320696e697469604482015266616c697a696e6760c81b606482015260840160405180910390fd5b60005460ff9081161015620000e2576000805460ff191660ff9081179091556040519081527f7f26b83ff96e1f2b6a682f133852f6798a09c465da95921460cefb38474024989060200160405180910390a15b565b615c4d80620000f46000396000f3fe60806040526004361061044e5760003560e01c806365244ece11610243578063a3d545f511610143578063d09f1ab4116100bb578063e8712aa71161008a578063eeb629a81161006f578063eeb629a814610c1c578063eecaefd914610c31578063f883afaf14610c515761045d565b8063e8712aa714610bdc578063edb194bb14610bfc5761045d565b8063d09f1ab414610b67578063dd716ad314610b7c578063de981f1b14610b9c578063e5125a1d14610bbc5761045d565b8063ba77b06c11610112578063c4e227f3116100f7578063c4e227f314610b12578063c94aaa0214610b27578063cdaa4e8114610b475761045d565b8063ba77b06c14610add578063c3c8b5d614610af25761045d565b8063a3d545f514610a7e578063a66c0f7714610a9e578063afc69d7314610ab3578063b7ab4db514610ac85761045d565b80637e1dc16f116101d657806387c891bd116101a557806396585fc21161018a57806396585fc214610a295780639a57bd9314610a49578063a0c3f2d214610a5e5761045d565b806387c891bd14610a005780638d559c3814610a155761045d565b80637e1dc16f14610980578063823a7b9c146109a0578063865e6fd3146109c0578063873a5a70146109e05761045d565b80636aa1c2ef116102125780636aa1c2ef146109235780636ef826c81461093857806372e46810146109585780637593ff71146109605761045d565b806365244ece146108b75780636558954f146108d75780636611f843146108ee578063690b75361461090e5761045d565b80633101cfcb1161034e5780634de2b735116102e157806352091f17116102b05780635cd8a76b116102955780635cd8a76b14610878578063605239a11461088d578063612c8d98146108a25761045d565b806352091f171461084e5780635248184a146108565761045d565b80634de2b735146107ca5780634e9b8b0a146107f75780634ee4d72b146108195780634f2a693f1461082e5761045d565b8063468c96ae1161031d578063468c96ae1461073157806346ebb2321461076857806349096d26146107885780634d8df063146107aa5761045d565b80633101cfcb146106a957806331a8aef5146106c9578063367ec12b146106e95780633b3159b6146107095761045d565b80631196ab66116103e157806328bde1e1116103b0578063297a8fca11610395578063297a8fca146106475780632d784a981461065c5780632f78204c146106895761045d565b806328bde1e1146106075780632924de71146106275761045d565b80631196ab661461059257806315b5ebde146105b2578063217f35c2146105d257806323c65eb0146105e75761045d565b80630bbed9af1161041d5780630bbed9af146105005780630f43a67714610520578063110a83081461053557806311662dc2146105555761045d565b806303827884146104655780630447e5911461048e57806304d971ab146104bb57806306040618146104eb5761045d565b3661045d5761045b610c71565b005b61045b610c71565b34801561047157600080fd5b5061047b6104b081565b6040519081526020015b60405180910390f35b34801561049a57600080fd5b506104ae6104a936600461501c565b610cf0565b6040516104859190615039565b3480156104c757600080fd5b506104db6104d6366004615097565b610dd0565b6040519015158152602001610485565b3480156104f757600080fd5b5061047b610e0a565b34801561050c57600080fd5b5061045b61051b366004615097565b610e1a565b34801561052c57600080fd5b5060aa5461047b565b34801561054157600080fd5b5061045b61055036600461501c565b610e57565b34801561056157600080fd5b506105756105703660046150d0565b610f45565b604080519315158452602084019290925290820152606001610485565b34801561059e57600080fd5b5061045b6105ad3660046150fc565b610f6a565b3480156105be57600080fd5b5061045b6105cd3660046150d0565b610f7e565b3480156105de57600080fd5b506104db611098565b3480156105f357600080fd5b506104db6106023660046150d0565b6110ad565b34801561061357600080fd5b506104ae61062236600461501c565b6110e1565b34801561063357600080fd5b506104db61064236600461501c565b611135565b34801561065357600080fd5b5060045461047b565b34801561066857600080fd5b5061067c61067736600461501c565b611165565b6040516104859190615115565b34801561069557600080fd5b5061045b6106a436600461513a565b6111f9565b3480156106b557600080fd5b5061045b6106c436600461501c565b611419565b3480156106d557600080fd5b506104db6106e43660046150d0565b6114bd565b3480156106f557600080fd5b5061045b610704366004615195565b6114f4565b34801561071557600080fd5b5060685b6040516001600160a01b039091168152602001610485565b34801561073d57600080fd5b5061075161074c3660046150fc565b611680565b604080519215158352602083019190915201610485565b34801561077457600080fd5b506104db610783366004615097565b6116be565b34801561079457600080fd5b5061079d6116e5565b604051610485919061525b565b3480156107b657600080fd5b5061045b6107c53660046150fc565b6116f7565b3480156107d657600080fd5b506107ea6107e53660046152f4565b611708565b6040516104859190615336565b34801561080357600080fd5b5061080c61174e565b60405161048591906153b5565b34801561082557600080fd5b5060e45461047b565b34801561083a57600080fd5b5061045b6108493660046150fc565b611818565b61045b611829565b34801561086257600080fd5b5061086b611c99565b60405161048591906153c8565b34801561088457600080fd5b5061045b611ded565b34801561089957600080fd5b5060725461047b565b3480156108ae57600080fd5b5060765461047b565b3480156108c357600080fd5b506104db6108d236600461501c565b611f7f565b3480156108e357600080fd5b5061047b6201518081565b3480156108fa57600080fd5b5061045b6109093660046150fc565b611f92565b34801561091a57600080fd5b5060e55461047b565b34801561092f57600080fd5b5060015461047b565b34801561094457600080fd5b5061045b610953366004615097565b611fa3565b61045b611fe0565b34801561096c57600080fd5b506104db61097b3660046150fc565b612292565b34801561098c57600080fd5b506107ea61099b3660046152f4565b6122b6565b3480156109ac57600080fd5b5061045b6109bb3660046150fc565b6122f4565b3480156109cc57600080fd5b5061045b6109db366004615469565b612305565b3480156109ec57600080fd5b506104db6109fb36600461501c565b612324565b348015610a0c57600080fd5b5060025461047b565b348015610a2157600080fd5b506066610719565b348015610a3557600080fd5b50610575610a4436600461501c565b612366565b348015610a5557600080fd5b5061080c61238a565b348015610a6a57600080fd5b506104db610a7936600461501c565b612437565b348015610a8a57600080fd5b5061047b610a993660046150fc565b612462565b348015610aaa57600080fd5b5060e65461047b565b348015610abf57600080fd5b5061047b61246d565b348015610ad457600080fd5b5061079d6124b0565b348015610ae957600080fd5b5061079d6124bd565b348015610afe57600080fd5b5061045b610b0d366004615097565b6124ca565b348015610b1e57600080fd5b5061080c612796565b348015610b3357600080fd5b5061045b610b423660046150fc565b6127f8565b348015610b5357600080fd5b5061045b610b623660046150d0565b612809565b348015610b7357600080fd5b5060a95461047b565b348015610b8857600080fd5b5061045b610b973660046150d0565b612aaa565b348015610ba857600080fd5b50610719610bb7366004615485565b612b62565b348015610bc857600080fd5b5061045b610bd73660046154a0565b612bf1565b348015610be857600080fd5b506104db610bf736600461501c565b612d35565b348015610c0857600080fd5b5061067c610c1736600461501c565b612d40565b348015610c2857600080fd5b5060ad5461047b565b348015610c3d57600080fd5b5061045b610c4c366004615097565b612d9a565b348015610c5d57600080fd5b5061045b610c6c3660046154d5565b612dd4565b610c7b6007612b62565b6001600160a01b0316336001600160a01b031614158015610cb75750610ca16009612b62565b6001600160a01b0316336001600160a01b031614155b15610cee576040517fffcb451300000000000000000000000000000000000000000000000000000000815260040160405180910390fd5b565b6040805160e08101825260008082526020808301829052828401829052606083018290526080830182905260a0830182905260c083018290526001600160a01b0385168252607490529190912054610d5b5760405163a64b34ad60e01b815260040160405180910390fd5b506001600160a01b03908116600090815260756020908152604091829020825160e081018452815485168152600182015485169281019290925260028101548416928201929092526003820154909216606083015260048101546080830152600581015460a08301526006015460c082015290565b6000610e01610dde84613058565b6001600160a01b0390811660009081526075602052604090205481169084161490565b90505b92915050565b6000610e1560035490565b905090565b600f610e25816130e9565b506001600160a01b03918216600090815260756020526040902060020180546001600160a01b03191691909216179055565b600054600490610100900460ff16158015610e79575060005460ff8083169116105b610ee15760405162461bcd60e51b815260206004820152602e60248201527f496e697469616c697a61626c653a20636f6e747261637420697320616c72656160448201526d191e481a5b9a5d1a585b1a5e995960921b60648201526084015b60405180910390fd5b6000805461ffff191660ff831617610100179055610f00600f8361314e565b6000805461ff001916905560405160ff821681527f7f26b83ff96e1f2b6a682f133852f6798a09c465da95921460cefb38474024989060200160405180910390a15050565b6000806000610f5c610f5686613058565b856131f2565b9250925092505b9250925092565b610f72613274565b610f7b816132e8565b50565b6006610f89816130e9565b6001600160a01b0383166000908152603c60205260409020544311610fe5576040517f53e0424d0000000000000000000000000000000000000000000000000000000081526001600160a01b0384166004820152602401610ed8565b6001600160a01b038316600081815260386020908152604080832086845282528083208054600160ff19918216811790925594845260378352818420878552909252909120805490921690915561103c904361553c565b6001600160a01b0384166000818152603a6020526040908190209290925590517f6bb2436cb6b6eb65d5a52fac2ae0373a77ade6661e523ef3004ee2d5524e6c6e9061108b9085815260200190565b60405180910390a2505050565b6000610e156110a642613358565b6003541090565b6000806110b984613058565b6001600160a01b0381166000908152603a60205260409020549091508311155b949350505050565b6040805160e081018252600080825260208201819052918101829052606081018290526080810182905260a0810182905260c081018290529061112383613058565b905061112e81610cf0565b9392505050565b60008061114183613058565b6001600160a01b0381166000908152603a602052604090205490915043111561112e565b604080518082019091526000808252602082015260e8600061118684613058565b6001600160a01b031681526020808201929092526040908101600090812082518084019093528054835260010154928201839052909250036111f4576040517fe1fba9e200000000000000000000000000000000000000000000000000000000815260040160405180910390fd5b919050565b6006611204816130e9565b600061120e610e0a565b6001600160a01b03871660008181526037602090815260408083208584528252808320805460ff1916600117905592825260e181528282205460e09091529190205491925061125c9161554f565b60e4600082825461126d919061554f565b90915550506001600160a01b038616600090815260e06020908152604080832083905560e18252808320839055603a9091529020546112ad908690613367565b6001600160a01b0387166000908152603a602052604090205583156113685760006112d86009612b62565b60405163138ac02f60e11b81526001600160a01b038981166004830152602482018890529190911690632715805e906044016020604051808303816000875af1158015611329573d6000803e3d6000fd5b505050506040513d601f19601f8201168201806040525081019061134d9190615562565b90508060e46000828254611361919061554f565b9091555050505b82156113ac576001600160a01b0386166000908152603c6020526040902054611392908690613367565b6001600160a01b0387166000908152603c60205260409020555b6001600160a01b0386166000818152603a6020908152604080832054815190815291820188905260019082015260608101919091528291907f54ce99c5ce1fc9f61656d4a0fb2697974d0c973ac32eecaefe06fcf18b8ef68a9060800160405180910390a3505050505050565b600054600390610100900460ff1615801561143b575060005460ff8083169116105b61149e5760405162461bcd60e51b815260206004820152602e60248201527f496e697469616c697a61626c653a20636f6e747261637420697320616c72656160448201526d191e481a5b9a5d1a585b1a5e995960921b6064820152608401610ed8565b6000805461ffff191660ff831617610100179055610f00600e8361314e565b6000610e016114cb84613058565b6001600160a01b0316600090815260376020908152604080832086845290915290205460ff1690565b600054610100900460ff16158080156115145750600054600160ff909116105b8061152e5750303b15801561152e575060005460ff166001145b6115915760405162461bcd60e51b815260206004820152602e60248201527f496e697469616c697a61626c653a20636f6e747261637420697320616c72656160448201526d191e481a5b9a5d1a585b1a5e995960921b6064820152608401610ed8565b6000805460ff1916600117905580156115b4576000805461ff0019166101001790555b6115bf60068e61314e565b6115ca60098d61314e565b6115d560078c61314e565b6115e060058b61314e565b6115eb600a8a61314e565b6115f48761337e565b6115fd866133b3565b611606856133e8565b61160f846132e8565b6116198235613459565b611626602083013561348e565b60018390558015611671576000805461ff0019169055604051600181527f7f26b83ff96e1f2b6a682f133852f6798a09c465da95921460cefb38474024989060200160405180910390a15b50505050505050505050505050565b60008061168c43612462565b831115806116a7575060008381526005602052604090205415155b600093845260056020526040909320549293915050565b6001600160a01b038281166000908152607560205260408120549091838116911614610e01565b6060610e156116f261174e565b6134c3565b6116ff613274565b610f7b8161348e565b6060610e0161174984848080602002602001604051908101604052809392919081815260200183836020028082843760009201919091525061353f92505050565b6135bb565b606060aa5467ffffffffffffffff81111561176b5761176b615591565b604051908082528060200260200182016040528015611794578160200160208202803683370190505b5090506000805b825181101561181257600081815260ab60205260409020546001600160a01b03166117c581613661565b15611809578084846117d6816155a7565b9550815181106117e8576117e861557b565b60200260200101906001600160a01b031690816001600160a01b0316815250505b5060010161179b565b50815290565b611820613274565b610f7b816133b3565b61183161369b565b600061183c33613058565b9050600061184982613661565b801561185b5750611859826136d4565b155b801561189b57506118998261186e610e0a565b6001600160a01b03919091166000908152603760209081526040808320938352929052205460ff1690565b155b90506000806118aa6007612b62565b6040517f0634f5b90000000000000000000000000000000000000000000000000000000081528415156004820152600060248201526001600160a01b039190911690630634f5b9906044016080604051808303816000875af1158015611914573d6000803e3d6000fd5b505050506040513d601f19601f8201168201806040525081019061193891906155c0565b935050925050826119a6573460e46000828254611955919061554f565b92505081905550836001600160a01b03167f4042bb9a70998f80a86d9963f0d2132e9b11c8ad94d207c6141c8e34b05ce53e346001604051611998929190615615565b60405180910390a250505050565b60408051348152602081018490526001600160a01b038616917f0ede5c3be8625943fa64003cd4b91230089411249f3059bac6500873543ca9b1910160405180910390a260006119f4610e0a565b90506000611a02843461554f565b90506000612710611a138584615639565b611a1d9190615666565b90506000611a2b828461553c565b905060008260e26000828254611a41919061554f565b909155505033600090815260386020908152604080832088845290915290205460ff1615611b55576000611a756006612b62565b6001600160a01b031663c6391fa26040518163ffffffff1660e01b8152600401608060405180830381865afa158015611ab2573d6000803e3d6000fd5b505050506040513d601f19601f82011682018060405250810190611ad6919061567a565b93505050506127108184611aea9190615639565b611af49190615666565b91508160e46000828254611b08919061554f565b92505081905550896001600160a01b03167f4042bb9a70998f80a86d9963f0d2132e9b11c8ad94d207c6141c8e34b05ce53e836002604051611b4b929190615615565b60405180910390a2505b611b5f818361553c565b9150600080611b6e6009612b62565b6001600160a01b0316634530d2026040518163ffffffff1660e01b81526004016040805180830381865afa158015611baa573d6000803e3d6000fd5b505050506040513d601f19601f82011682018060405250810190611bce91906156b0565b6001600160a01b038d1660009081526075602052604081206004015492945090925090611c0590611bff90846136f5565b84613367565b90506000612710611c168784615639565b611c209190615666565b6001600160a01b038e16600090815260e06020526040812080549293508392909190611c4d90849061554f565b90915550611c5d9050818761553c565b6001600160a01b038e16600090815260e1602052604081208054909190611c8590849061554f565b909155505050505050505050505050505050565b60735460609067ffffffffffffffff811115611cb757611cb7615591565b604051908082528060200260200182016040528015611d1e57816020015b6040805160e08101825260008082526020808301829052928201819052606082018190526080820181905260a0820181905260c08201528252600019909201910181611cd55790505b50905060005b8151811015611de9576075600060738381548110611d4457611d4461557b565b60009182526020808320909101546001600160a01b039081168452838201949094526040928301909120825160e081018452815485168152600182015485169281019290925260028101548416928201929092526003820154909216606083015260048101546080830152600581015460a08301526006015460c08201528251839083908110611dd657611dd661557b565b6020908102919091010152600101611d24565b5090565b600054600290610100900460ff16158015611e0f575060005460ff8083169116105b611e725760405162461bcd60e51b815260206004820152602e60248201527f496e697469616c697a61626c653a20636f6e747261637420697320616c72656160448201526d191e481a5b9a5d1a585b1a5e995960921b6064820152608401610ed8565b6000805461ffff191660ff831617610100179055607154611e9e906009906001600160a01b031661314e565b606f54611eb6906005906001600160a01b031661314e565b607054611ece906006906001600160a01b031661314e565b606d54611ee6906007906001600160a01b031661314e565b60a854611efe90600a906001600160a01b031661314e565b607180546001600160a01b0319908116909155606f8054821690556070805482169055606d805482169055606e80548216905560a8805490911690556000805461ff001916905560405160ff821681527f7f26b83ff96e1f2b6a682f133852f6798a09c465da95921460cefb3847402498906020015b60405180910390a150565b6000610e04611f8d83613058565b613661565b611f9a613274565b610f7b81613459565b600f611fae816130e9565b506001600160a01b03918216600090815260756020526040902060010180546001600160a01b03191691909216179055565b611fe861369b565b611ff143612292565b612027576040517f6c74eecf00000000000000000000000000000000000000000000000000000000815260040160405180910390fd5b61203043612462565b61203b600254612462565b10612072576040517f2458f64100000000000000000000000000000000000000000000000000000000815260040160405180910390fd5b43600255600061208142613358565b90506000612090826003541090565b9050600061209c61238a565b9050606060006120ab43612462565b905060006120ba82600161554f565b905060006120c6610e0a565b90506120d28386613704565b851561222c576000806120e58388613873565b915091506120f583888484613a5f565b6120fd613b82565b612105613cd6565b60006121116006612b62565b6040517f185368db0000000000000000000000000000000000000000000000000000000081529091506001600160a01b0382169063185368db9061215b908b9088906004016156d4565b600060405180830381600087803b15801561217557600080fd5b505af1158015612189573d6000803e3d6000fd5b505050506121968a613e32565b805191995097501561221a576040517f07c2d2f60000000000000000000000000000000000000000000000000000000081526001600160a01b038216906307c2d2f6906121e7908a906004016153b5565b600060405180830381600087803b15801561220157600080fd5b505af1158015612215573d6000803e3d6000fd5b505050505b61222543600161554f565b6004555050505b612237878387613fc3565b82817f0195462033384fec211477c56217da64a58bd405e0bed331ba4ded67e4ae4ce78860405161226c911515815260200190565b60405180910390a350600090815260056020526040902085905550505060039190915550565b6000600180546122a2919061553c565b6001546122af90846156f6565b1492915050565b6060610e018383808060200260200160405190810160405280939291908181526020018383602002808284376000920191909152506135bb92505050565b6122fc613274565b610f7b8161337e565b61230d613274565b6123168161425f565b612320828261314e565b5050565b60008061232f610e0a565b905061112e61233d84613058565b6001600160a01b0316600090815260376020908152604080832085845290915290205460ff1690565b600080600061237d61237785613058565b436131f2565b9250925092509193909250565b606060aa5467ffffffffffffffff8111156123a7576123a7615591565b6040519080825280602002602001820160405280156123d0578160200160208202803683370190505b5090506000805b825181101561243257600081815260ab602052604090205483516001600160a01b03909116925082908490839081106124125761241261557b565b6001600160a01b03909216602092830291909101909101526001016123d7565b505090565b6000610e0461244583613058565b6001600160a01b0316600090815260746020526040902054151590565b6000610e04826142ae565b6000805b60aa54811015611de957600081815260ab602052604090205461249c906001600160a01b0316613661565b156124a8576001909101905b600101612471565b6060610e156116f261238a565b6060610e156116f2612796565b6124d2613274565b6001600160a01b038216600090815260e860205260408120600101549003612531576040517fe8e6d2dd0000000000000000000000000000000000000000000000000000000081526001600160a01b0383166004820152602401610ed8565b60e7548060005b8281101561258757846001600160a01b031660e7828154811061255d5761255d61557b565b6000918252602090912001546001600160a01b03160361257f57809150612587565b600101612538565b508181036125cc576040517fb69ea4250000000000000000000000000000000000000000000000000000000081526001600160a01b0385166004820152602401610ed8565b6001600160a01b038416600090815260e86020526040902054801561278f576001600160a01b038516600090815260e86020526040812081815560019081019190915583111561268e5760e761262360018561553c565b815481106126335761263361557b565b60009182526020909120015460e780546001600160a01b03909216918490811061265f5761265f61557b565b9060005260206000200160006101000a8154816001600160a01b0302191690836001600160a01b031602179055505b60e780548061269f5761269f61570a565b60008281526020808220830160001990810180546001600160a01b03191690559092019092556001600160a01b038716825260e9905260409020805460ff191660011790556126f184826104b06142c9565b1561274a57836001600160a01b0316856001600160a01b03167f7229136a18186c71a86246c012af3bb1df6460ef163934bbdccd6368abdd41e48360405161273b91815260200190565b60405180910390a35050505050565b604080518281524760208201526001600160a01b0380871692908816917f3747d14eb72ad3e35cba9c3e00dab3b8d15b40cac6bdbd08402356e4f69f30a1910161273b565b5050505050565b606060738054806020026020016040519081016040528092919081815260200182805480156127ee57602002820191906000526020600020905b81546001600160a01b031681526001909101906020018083116127d0575b5050505050905090565b612800613274565b610f7b816133e8565b6009612814816130e9565b6001600160a01b038316600090815260e860205260409020600181015415612868576040517f2bd5598800000000000000000000000000000000000000000000000000000000815260040160405180910390fd5b6000612874844261554f565b6001600160a01b0386166000908152607560205260409020909150612899908261433e565b6001600160a01b0385166000818152603b602052604080822084905560e554905163138ac02f60e11b815260048101939093526024830152903390632715805e906044016020604051808303816000875af11580156128fc573d6000803e3d6000fd5b505050506040513d601f19601f820116820180604052508101906129209190615562565b90508015612a5f57600060e65442612938919061554f565b60e78054600180820183556000929092527f6cb0db1d7354dfb4a1464318006df0643cafe2002a86a29ff8560f900fef28a10180546001600160a01b0319166001600160a01b038b16179055838655850181905590506129bf7fb53127684a568b3173ae13b9f8a6016e243e63b6e8ee1178d6a717850b5d6103546001600160a01b031690565b6001600160a01b03888116600081815260756020526040908190206002015490517fa2fae5700000000000000000000000000000000000000000000000000000000081526004810192909252821660248201524260448201526064810184905291169063a2fae57090608401600060405180830381600087803b158015612a4557600080fd5b505af1158015612a59573d6000803e3d6000fd5b50505050505b856001600160a01b03167f77a1a819870c0f4d04c3ca4cc2881a0393136abc28bd651af50aedade94a27c482604051612a9a91815260200190565b60405180910390a2505050505050565b6009612ab5816130e9565b612abe836143da565b15612af5576040517f030081e700000000000000000000000000000000000000000000000000000000815260040160405180910390fd5b6001600160a01b0383166000908152607560205260409020600581015415612b49576040517ffab9167300000000000000000000000000000000000000000000000000000000815260040160405180910390fd5b612b5c81612b57854261554f565b61433e565b50505050565b60007fdea3103d22025c269050bea94c0c84688877f12fa22b7e6d2d5d78a9a49aa1cb600083600f811115612b9957612b996155ff565b60ff1681526020810191909152604001600020546001600160a01b03169050806111f457816040517f812281be000000000000000000000000000000000000000000000000000000008152600401610ed89190615734565b6009612bfc816130e9565b6001600160a01b03841660009081526077602052604090205415612c4c576040517f5e65b9ba00000000000000000000000000000000000000000000000000000000815260040160405180910390fd5b612710821115612c6f57604051631b8454a360e21b815260040160405180910390fd5b607654831015612cab576040517ffa0ae69300000000000000000000000000000000000000000000000000000000815260040160405180910390fd5b6001600160a01b0384166000908152607760205260408120906201518085612cd38242615666565b612cdd919061554f565b612ce79190615639565b8083556001830185905560408051828152602081018790529192506001600160a01b038816917f6ebafd1bb6316b2f63198a81b05cff2149c6eaae1784466a6d062b4391900f219101612a9a565b6000610e0482613661565b604080518082019091526000808252602082015260776000612d6184613058565b6001600160a01b031681526020808201929092526040908101600020815180830190925280548252600101549181019190915292915050565b600f612da5816130e9565b506001600160a01b03918216600090815260756020526040902080546001600160a01b03191691909216179055565b6009612ddf816130e9565b6073546072548110612e1d576040517f8616841b00000000000000000000000000000000000000000000000000000000815260040160405180910390fd5b6001600160a01b03851660009081526074602052604090205415612e6d576040517f8ad9cdf900000000000000000000000000000000000000000000000000000000815260040160405180910390fd5b612710831115612e9057604051631b8454a360e21b815260040160405180910390fd5b60005b81811015612f875760006075600060738481548110612eb457612eb461557b565b60009182526020808320909101546001600160a01b03908116845290830193909352604090910190208054909250811690891603612f29576040517ffc3d8c750000000000000000000000000000000000000000000000000000000081526001600160a01b0389166004820152602401610ed8565b60028101546001600160a01b0390811690871603612f7e576040517f5a674fce0000000000000000000000000000000000000000000000000000000081526001600160a01b0387166004820152602401610ed8565b50600101612e93565b506001600160a01b038581166000818152607460209081526040808320861990556073805460018082019092557ff79bde9ddd17963ebce6f7d021d60de7c2bd0db944d23c900c0c0e775f5300520180546001600160a01b031990811687179091556075909352818420805484168d881690811782559181018054851687179055600281018054909416968b1696871790935560048301899055905191949093909290917f1ca451a9920472b99355a9cf74185bf017604a7849c113f020888ecec9db93669190a450505050505050565b6000613064600f612b62565b6040517f50a9fc290000000000000000000000000000000000000000000000000000000081526001600160a01b03848116600483015291909116906350a9fc2990602401602060405180830381865afa1580156130c5573d6000803e3d6000fd5b505050506040513d601f19601f82011682018060405250810190610e049190615742565b6130f281612b62565b6001600160a01b0316336001600160a01b031614610f7b576000356001600160e01b03191681336040517f8383e634000000000000000000000000000000000000000000000000000000008152600401610ed89392919061575f565b807fdea3103d22025c269050bea94c0c84688877f12fa22b7e6d2d5d78a9a49aa1cb600084600f811115613184576131846155ff565b60ff168152602081019190915260400160002080546001600160a01b0319166001600160a01b03928316179055811682600f8111156131c5576131c56155ff565b6040517f865d1c228a8ea13709cfe61f346f7ff67f1bbd4a18ff31ad3e7147350d317c5990600090a35050565b6001600160a01b0382166000908152603a6020526040812054819081908481101561322857600080600093509350935050610f63565b60019350613236858261553c565b61324190600161554f565b925061324c85612462565b61325582612462565b61325f919061553c565b61326a90600161554f565b9150509250925092565b7fb53127684a568b3173ae13b9f8a6016e243e63b6e8ee1178d6a717850b5d6103546001600160a01b03163314610cee576000356001600160e01b03191660016040517f3e523c00000000000000000000000000000000000000000000000000000000008152600401610ed8929190615794565b6001811015613323576040517f17b8970f00000000000000000000000000000000000000000000000000000000815260040160405180910390fd5b60768190556040518181527f266d432ffe659e3565750d26ec685b822a58041eee724b67a5afec3168a2526790602001611f74565b6000610e046201518083615666565b6000818310156133775781610e01565b5090919050565b60a98190556040518181527fb5464c05fd0e0f000c535850116cda2742ee1f7b34384cb920ad7b8e802138b590602001611f74565b60728190556040518181527f82d5dc32d1b741512ad09c32404d7e7921e8934c6222343d95f55f7a2b9b2ab490602001611f74565b60a954811115613424576040517faa8119d200000000000000000000000000000000000000000000000000000000815260040160405180910390fd5b60ad8190556040518181527fa9588dc77416849bd922605ce4fc806712281ad8a8f32d4238d6c8cca548e15e90602001611f74565b60e58190556040518181527f17a6c3eb965cdd7439982da25abf85be88f0f772ca33198f548e2f99fee0289a90602001611f74565b60e68190556040518181527f0a50c66137118f386332efb949231ddd3946100dbf880003daca37ddd9e0662b90602001611f74565b60606134cf600f612b62565b6001600160a01b031663b261596f836040518263ffffffff1660e01b81526004016134fa91906153b5565b600060405180830381865afa158015613517573d6000803e3d6000fd5b505050506040513d6000823e601f3d908101601f19168201604052610e04919081019061580a565b606061354b600f612b62565b6001600160a01b031663f9226b1a836040518263ffffffff1660e01b8152600401613576919061525b565b600060405180830381865afa158015613593573d6000803e3d6000fd5b505050506040513d6000823e601f3d908101601f19168201604052610e0491908101906158a9565b6060815167ffffffffffffffff8111156135d7576135d7615591565b604051908082528060200260200182016040528015613600578160200160208202803683370190505b50905060005b825181101561365b576136318382815181106136245761362461557b565b60200260200101516136d4565b8282815181106136435761364361557b565b91151560209283029190910190910152600101613606565b50919050565b6001600160a01b038116600090815260ac6020526040812054610e049060019060ff166003811115613695576136956155ff565b90614473565b334114610cee576040517f09f358fd00000000000000000000000000000000000000000000000000000000815260040160405180910390fd5b6001600160a01b0381166000908152603a6020526040812054431115610e04565b60008183106133775781610e01565b6000613710600e612b62565b6001600160a01b031663be3f21fb84846040518363ffffffff1660e01b815260040161373d929190615938565b600060405180830381865afa15801561375a573d6000803e3d6000fd5b505050506040513d6000823e601f3d908101601f191682016040526137829190810190615951565b9050600082516001546137959190615639565b60e25490915060009081805b865181101561384457848682815181106137bd576137bd61557b565b6020026020010151846137d09190615639565b6137da9190615666565b93508360e360008984815181106137f3576137f361557b565b60200260200101516001600160a01b03166001600160a01b03168152602001908152602001600020600082825461382a919061554f565b9091555061383a9050848361554f565b91506001016137a1565b5061384f818361553c565b60e46000828254613860919061554f565b9091555050600060e25550505050505050565b60006060600080845167ffffffffffffffff81111561389457613894615591565b6040519080825280602002602001820160405280156138bd578160200160208202803683370190505b50925060005b8551811015613a55578581815181106138de576138de61557b565b6020908102919091018101516001600160a01b0380821660009081526075909352604090922060020154909450169150613917836136d4565b15801561394857506001600160a01b03831660009081526037602090815260408083208a845290915290205460ff16155b156139c6576001600160a01b038316600090815260e16020526040902054613970908661554f565b6001600160a01b038416600090815260e160205260409020548551919650908590839081106139a1576139a161557b565b6020026020010181815250506139b783836144a6565b6139c1838361456e565b613a1d565b6001600160a01b038316600090815260e3602090815260408083205460e183528184205460e09093529220546139fc919061554f565b613a06919061554f565b60e46000828254613a17919061554f565b90915550505b6001600160a01b038316600090815260e16020908152604080832083905560e0825280832083905560e39091528120556001016138c3565b5050509250929050565b6000613a6b6009612b62565b9050821561278f57613a7d8184614629565b15613b3e576040517facd79c460000000000000000000000000000000000000000000000000000000081526001600160a01b0382169063acd79c4690613acb90879086908a90600401615a08565b600060405180830381600087803b158015613ae557600080fd5b505af1158015613af9573d6000803e3d6000fd5b505050507f9e242ca1ef9dde96eb71ef8d19a3f0f6a619b63e4c0d3998771387103656d087838584604051613b3093929190615a3e565b60405180910390a150612b5c565b7fe5668ec1bb2b6bb144a50f810e388da4b1d7d3fc05fcb9d588a1aac59d248f8983858447604051613b739493929190615a73565b60405180910390a15050505050565b60e754600080805b83831015612b5c5760e78381548110613ba557613ba561557b565b60009182526020808320909101546001600160a01b031680835260e89091526040909120600181015491935091504210613ccb57805460e48054600090613bed90849061554f565b90915550506001600160a01b038216600090815260e860205260408120818155600101819055613c1c85615ab0565b9450841115613c935760e78481548110613c3857613c3861557b565b60009182526020909120015460e780546001600160a01b039092169185908110613c6457613c6461557b565b9060005260206000200160006101000a8154816001600160a01b0302191690836001600160a01b031602179055505b60e7805480613ca457613ca461570a565b600082815260209020810160001990810180546001600160a01b0319169055019055613b8a565b600190920191613b8a565b60e4548015610f7b576000613ceb6007612b62565b600060e481905560408051600481526024810182526020810180517bffffffffffffffffffffffffffffffffffffffffffffffffffffffff167f59f778df00000000000000000000000000000000000000000000000000000000179052905192935090916001600160a01b038416918591613d669190615ac7565b60006040518083038185875af1925050503d8060008114613da3576040519150601f19603f3d011682016040523d82523d6000602084013e613da8565b606091505b505090508015613ded57816001600160a01b03167fc447c884574da5878be39c403db2245c22530c99b579ea7bcbb3720e1d110dc88460405161108b91815260200190565b604080518481524760208201526001600160a01b038416917fa0561a59abed308fcd0556834574739d778cc6229018039a24ddda0f86aa0b73910161108b565b505050565b606080613e3e83614685565b90506000613e4c6009612b62565b6001600160a01b0316635a2ac07360736040518263ffffffff1660e01b8152600401613e789190615af6565b600060405180830381865afa158015613e95573d6000803e3d6000fd5b505050506040513d6000823e601f3d908101601f19168201604052613ebd9190810190615951565b90506000613ecb600a612b62565b6001600160a01b0316632cccb53c60736040518263ffffffff1660e01b8152600401613ef79190615af6565b600060405180830381865afa158015613f14573d6000803e3d6000fd5b505050506040513d6000823e601f3d908101601f19168201604052613f3c9190810190615951565b90506000613fab6073805480602002602001604051908101604052809291908181526020018280548015613f9957602002820191906000526020600020905b81546001600160a01b03168152600190910190602001808311613f7b575b5050505050848460a95460ad54614bad565b9095509050613fbb858288614cbe565b505050915091565b6000613fcf6005612b62565b6001600160a01b031663ac57bd7683613fe943600161554f565b6040518363ffffffff1660e01b81526004016140069291906156d4565b600060405180830381865afa158015614023573d6000803e3d6000fd5b505050506040513d6000823e601f3d908101601f1916820160405261404b9190810190615b3a565b905060005b825181101561421857600083828151811061406d5761406d61557b565b6020908102919091018101516001600160a01b0381166000908152603b9092526040822054909250421115906140a283613661565b905060006140d5846140b543600161554f565b6001600160a01b03919091166000908152603a6020526040902054101590565b806140f657508585815181106140ed576140ed61557b565b60200260200101515b806140fe5750825b1590508115801561410c5750805b15614187576001600160a01b038416600090815260ac602052604090205461414b9060019060ff166003811115614145576141456155ff565b90614dfe565b6001600160a01b038516600090815260ac60205260409020805460ff1916600183600381111561417d5761417d6155ff565b0217905550614209565b818015614192575080155b15614209576001600160a01b038416600090815260ac60205260409020546141d19060019060ff1660038111156141cb576141cb6155ff565b90614e39565b6001600160a01b038516600090815260ac60205260409020805460ff19166001836003811115614203576142036155ff565b02179055505b84600101945050505050614050565b5082847f283b50d76057d5f828df85bc87724c6af604e9b55c363a07c9faa2a2cd688b8261424461174e565b60405161425191906153b5565b60405180910390a350505050565b806001600160a01b03163b600003610f7b576040517f2ff1928c0000000000000000000000000000000000000000000000000000000081526001600160a01b0382166004820152602401610ed8565b6000600154826142be9190615666565b610e0490600161554f565b6000826000036142e2576142df6108fc8361554f565b91505b6040516001600160a01b03851690839085906000818181858888f193505050503d806000811461432e576040519150601f19603f3d011682016040523d82523d6000602084013e614333565b606091505b509095945050505050565b6001820154600090614358906001600160a01b0316613058565b905061437b816001600160a01b0316600090815260746020526040902054151590565b6143985760405163a64b34ad60e01b815260040160405180910390fd5b600583018290556040518281526001600160a01b038216907fb9a1e33376bfbda9092f2d1e37662c1b435aab0d3fa8da3acc8f37ee222f99e79060200161108b565b6000806143e7600a612b62565b6040517fb8cc3a500000000000000000000000000000000000000000000000000000000081526001600160a01b038581166004830152919091169063b8cc3a5090602401602060405180830381865afa158015614448573d6000803e3d6000fd5b505050506040513d601f19601f8201168201806040525081019061446c9190615562565b1192915050565b6000816003811115614487576144876155ff565b836003811115614499576144996155ff565b1660ff1615159392505050565b6001600160a01b038216600090815260e060205260409020548015613e2d576144d282826104b06142c9565b1561452957816001600160a01b0316836001600160a01b03167f1ce7a1c4702402cd393500acb1de5bd927727a54e144a587d328f1b679abe4ec8360405161451c91815260200190565b60405180910390a3505050565b604080518281524760208201526001600160a01b0380851692908616917f6c69e09ee5c5ac33c0cd57787261c5bade070a392ab34a4b5487c6868f723f6e910161451c565b6001600160a01b038216600090815260e360205260409020548015613e2d5761459a82826104b06142c9565b156145e457816001600160a01b0316836001600160a01b03167f0c4d6a43fc8470dee97db74874b5685e412cc517d9bdecfde1623c5e835b18e48360405161451c91815260200190565b604080518281524760208201526001600160a01b0380851692908616917f98697ee35f04a599a814432016fff3968c483d2d88dacb484926b9358f8e7cf9910161451c565b6000826001600160a01b03168260405160006040518083038185875af1925050503d8060008114614676576040519150601f19603f3d011682016040523d82523d6000602084013e61467b565b606091505b5090949350505050565b606060006146936009612b62565b90506000816001600160a01b031663af2454296040518163ffffffff1660e01b8152600401602060405180830381865afa1580156146d5573d6000803e3d6000fd5b505050506040513d601f19601f820116820180604052508101906146f99190615562565b90506000826001600160a01b031663909791dd6040518163ffffffff1660e01b8152600401602060405180830381865afa15801561473b573d6000803e3d6000fd5b505050506040513d601f19601f8201168201806040525081019061475f9190615562565b90506000836001600160a01b031663446850a160736040518263ffffffff1660e01b81526004016147909190615af6565b600060405180830381865afa1580156147ad573d6000803e3d6000fd5b505050506040513d6000823e601f3d908101601f191682016040526147d59190810190615951565b60735490915060008167ffffffffffffffff8111156147f6576147f6615591565b60405190808252806020026020018201604052801561481f578160200160208202803683370190505b50965060008060005b84831015614ae557607383815481106148435761484361557b565b60009182526020808320909101546001600160a01b03168083526075909152604090912060068101548851929450909250151590889088908690811061488b5761488b61557b565b602002602001015110156148f957806148f45760006148aa8a4261554f565b600684018190556040518181529091506001600160a01b038516907f88f854e137380c14d63f6ed99781bf13402167cf55bac49bcd44d4f2d6a342759060200160405180910390a2505b61494c565b801561494c578160060160009055826001600160a01b03167f88f854e137380c14d63f6ed99781bf13402167cf55bac49bcd44d4f2d6a34275600060405161494391815260200190565b60405180910390a25b60008260050154600014158015614967575042836005015411155b8061498a57506001600160a01b038416600090815260e9602052604090205460ff165b9050600083600601546000141580156149a7575042846006015411155b905081806149b25750805b15614a4457886149c189615ab0565b985088815181106149d4576149d461557b565b60200260200101518987815181106149ee576149ee61557b565b602002602001018181525050848d8880600101995081518110614a1357614a1361557b565b60200260200101906001600160a01b031690816001600160a01b031681525050614a3c85614e75565b505050614828565b6001600160a01b0385166000908152607760205260409020548015801590614a6c5750428111155b15614ad5576001600160a01b0386166000818152607760209081526040808320600181018054918590559390935560048901839055518281529192917f86d576c20e383fc2413ef692209cc48ddad5e52f25db5b32f8f7ec5076461ae9910160405180910390a2505b5050600190940193506148289050565b5050508087528015614ba2577f4eaf233b9dc25a5552c1927feee1412eea69add17c2485c831c2e60e234f3c9187604051614b2091906153b5565b60405180910390a16040517fe22d1c9d0000000000000000000000000000000000000000000000000000000081526001600160a01b0387169063e22d1c9d90614b6f908a908c906004016156d4565b600060405180830381600087803b158015614b8957600080fd5b505af1158015614b9d573d6000803e3d6000fd5b505050505b505050505050919050565b60606000806068905060008888888888604051602401614bd1959493929190615bc9565b60408051601f19818403018152919052602080820180517bffffffffffffffffffffffffffffffffffffffffffffffffffffffff167f779415120000000000000000000000000000000000000000000000000000000017905281518b519293506001929091600091614c4291615639565b614c4d90604061554f565b90506020840181888483895afa614c6357600093505b503d614c6e57600092505b60208701965082614cab576040517f0fc2632100000000000000000000000000000000000000000000000000000000815260040160405180910390fd5b8651955050505050509550959350505050565b815b60aa54811015614d1257600081815260ab6020818152604080842080546001600160a01b0316855260ac8352908420805460ff19169055928490525280546001600160a01b0319169055600101614cc0565b5060005b82811015614d5257600081815260ab60209081526040808320546001600160a01b0316835260ac9091529020805460ff19169055600101614d16565b5060005b82811015614dc6576000848281518110614d7257614d7261557b565b6020908102919091018101516001600160a01b0316600081815260ac83526040808220805460ff1916600317905585825260ab9093529190912080546001600160a01b031916909117905550600101614d56565b508160aa81905550807f3d0eea40644a206ec25781dd5bb3b60eb4fa1264b993c3bddf3c73b14f29ef5e8460405161108b91906153b5565b6000816003811115614e1257614e126155ff565b836003811115614e2457614e246155ff565b1760ff166003811115610e0157610e016155ff565b6000816003811115614e4d57614e4d6155ff565b19836003811115614e6057614e606155ff565b1660ff166003811115610e0157610e016155ff565b6001600160a01b038116600090815260e960209081526040808320805460ff191690556074909152812054610f7b91839190819003614eb2575050565b6001600160a01b038216600090815260756020908152604080832080546001600160a01b031990811682556001808301805483169055600283018054831690556003830180549092169091556004820185905560058201859055600690910184905560748352818420849055607790925282208281558101829055607380549091614f3c9161553c565b81548110614f4c57614f4c61557b565b6000918252602090912001546001600160a01b03908116915083168114614fcf576001600160a01b0381166000908152607460205260409020829055607380548291908419908110614fa057614fa061557b565b9060005260206000200160006101000a8154816001600160a01b0302191690836001600160a01b031602179055505b6073805480614fe057614fe061570a565b600082815260209020810160001990810180546001600160a01b0319169055019055505050565b6001600160a01b0381168114610f7b57600080fd5b60006020828403121561502e57600080fd5b813561112e81615007565b60e08101610e0482846001600160a01b03808251168352806020830151166020840152806040830151166040840152806060830151166060840152506080810151608083015260a081015160a083015260c081015160c08301525050565b600080604083850312156150aa57600080fd5b82356150b581615007565b915060208301356150c581615007565b809150509250929050565b600080604083850312156150e357600080fd5b82356150ee81615007565b946020939093013593505050565b60006020828403121561510e57600080fd5b5035919050565b815181526020808301519082015260408101610e04565b8015158114610f7b57600080fd5b6000806000806080858703121561515057600080fd5b843561515b81615007565b9350602085013592506040850135915060608501356151798161512c565b939692955090935050565b8060408101831015610e0457600080fd5b6000806000806000806000806000806000806101a08d8f0312156151b857600080fd5b8c356151c381615007565b9b5060208d01356151d381615007565b9a5060408d01356151e381615007565b995060608d01356151f381615007565b985060808d013561520381615007565b975060a08d013561521381615007565b965060c08d0135955060e08d013594506101008d013593506101208d013592506101408d013591506152498e6101608f01615184565b90509295989b509295989b509295989b565b6020808252825182820181905260009190848201906040850190845b8181101561529c5783516001600160a01b031683529284019291840191600101615277565b50909695505050505050565b60008083601f8401126152ba57600080fd5b50813567ffffffffffffffff8111156152d257600080fd5b6020830191508360208260051b85010111156152ed57600080fd5b9250929050565b6000806020838503121561530757600080fd5b823567ffffffffffffffff81111561531e57600080fd5b61532a858286016152a8565b90969095509350505050565b6020808252825182820181905260009190848201906040850190845b8181101561529c578351151583529284019291840191600101615352565b60008151808452602080850194506020840160005b838110156153aa5781516001600160a01b031687529582019590820190600101615385565b509495945050505050565b602081526000610e016020830184615370565b6020808252825182820181905260009190848201906040850190845b8181101561529c576154478385516001600160a01b03808251168352806020830151166020840152806040830151166040840152806060830151166060840152506080810151608083015260a081015160a083015260c081015160c08301525050565b9284019260e092909201916001016153e4565b8035601081106111f457600080fd5b6000806040838503121561547c57600080fd5b6150b58361545a565b60006020828403121561549757600080fd5b610e018261545a565b6000806000606084860312156154b557600080fd5b83356154c081615007565b95602085013595506040909401359392505050565b600080600080608085870312156154eb57600080fd5b84356154f681615007565b9350602085013561550681615007565b9250604085013561551681615007565b9396929550929360600135925050565b634e487b7160e01b600052601160045260246000fd5b81810381811115610e0457610e04615526565b80820180821115610e0457610e04615526565b60006020828403121561557457600080fd5b5051919050565b634e487b7160e01b600052603260045260246000fd5b634e487b7160e01b600052604160045260246000fd5b6000600182016155b9576155b9615526565b5060010190565b600080600080608085870312156155d657600080fd5b84516155e18161512c565b60208601516040870151606090970151919890975090945092505050565b634e487b7160e01b600052602160045260246000fd5b828152604081016003831061562c5761562c6155ff565b8260208301529392505050565b8082028115828204841417610e0457610e04615526565b634e487b7160e01b600052601260045260246000fd5b60008261567557615675615650565b500490565b6000806000806080858703121561569057600080fd5b505082516020840151604085015160609095015191969095509092509050565b600080604083850312156156c357600080fd5b505080516020909101519092909150565b6040815260006156e76040830185615370565b90508260208301529392505050565b60008261570557615705615650565b500690565b634e487b7160e01b600052603160045260246000fd5b60108110615730576157306155ff565b9052565b60208101610e048284615720565b60006020828403121561575457600080fd5b815161112e81615007565b6001600160e01b0319841681526060810161577d6020830185615720565b6001600160a01b0383166040830152949350505050565b6001600160e01b03198316815260408101600b831061562c5761562c6155ff565b604051601f8201601f1916810167ffffffffffffffff811182821017156157de576157de615591565b604052919050565b600067ffffffffffffffff82111561580057615800615591565b5060051b60200190565b6000602080838503121561581d57600080fd5b825167ffffffffffffffff81111561583457600080fd5b8301601f8101851361584557600080fd5b8051615858615853826157e6565b6157b5565b81815260059190911b8201830190838101908783111561587757600080fd5b928401925b8284101561589e57835161588f81615007565b8252928401929084019061587c565b979650505050505050565b600060208083850312156158bc57600080fd5b825167ffffffffffffffff8111156158d357600080fd5b8301601f810185136158e457600080fd5b80516158f2615853826157e6565b81815260059190911b8201830190838101908783111561591157600080fd5b928401925b8284101561589e57835161592981615007565b82529284019290840190615916565b8281526040602082015260006110d96040830184615370565b6000602080838503121561596457600080fd5b825167ffffffffffffffff81111561597b57600080fd5b8301601f8101851361598c57600080fd5b805161599a615853826157e6565b81815260059190911b820183019083810190878311156159b957600080fd5b928401925b8284101561589e578351825292840192908401906159be565b60008151808452602080850194506020840160005b838110156153aa578151875295820195908201906001016159ec565b606081526000615a1b6060830186615370565b8281036020840152615a2d81866159d7565b915050826040830152949350505050565b838152606060208201526000615a576060830185615370565b8281036040840152615a6981856159d7565b9695505050505050565b848152608060208201526000615a8c6080830186615370565b8281036040840152615a9e81866159d7565b91505082606083015295945050505050565b600081615abf57615abf615526565b506000190190565b6000825160005b81811015615ae85760208186018101518583015201615ace565b506000920191825250919050565b6020808252825482820181905260008481528281209092916040850190845b8181101561529c5783546001600160a01b031683526001938401939285019201615b15565b60006020808385031215615b4d57600080fd5b825167ffffffffffffffff811115615b6457600080fd5b8301601f81018513615b7557600080fd5b8051615b83615853826157e6565b81815260059190911b82018301908381019087831115615ba257600080fd5b928401925b8284101561589e578351615bba8161512c565b82529284019290840190615ba7565b60a081526000615bdc60a0830188615370565b8281036020840152615bee81886159d7565b90508281036040840152615c0281876159d7565b6060840195909552505060800152939250505056fea2646970667358221220915d85c9eb5fa8d22951b3c4ce174dfa24bdd563b22a30ff4fab58bb2cd22e6964736f6c63430008160033",
  "chainId": 2021,
  "contractAbsolutePath": "RoninValidatorSet.sol",
  "deployer": "0x31762cdd4Aa65CD6f5F09D7a05a56211720A1168",
  "devdoc": {
    "version": 1,
    "kind": "dev",
    "methods": {
      "checkJailed(address)": {
        "details": "Returns whether the validator are put in jail (cannot join the set of validators) during the current period."
      },
      "checkJailedAtBlock(address,uint256)": {
        "details": "Returns whether the validator are put in jail (cannot join the set of validators) at a specific block."
      },
      "checkManyJailed(address[])": {
        "details": "Returns whether the validators are put in jail (cannot join the set of validators) during the current period."
      },
      "checkMiningRewardDeprecated(address)": {
        "details": "Returns whether the incoming reward of the block producer is deprecated during the current period."
      },
      "checkMiningRewardDeprecatedAtPeriod(address,uint256)": {
        "details": "Returns whether the incoming reward of the block producer is deprecated during a specific period."
      },
      "currentPeriod()": {
        "details": "Returns the period index from the current block."
      },
      "currentPeriodStartAtBlock()": {
        "details": "Returns the block number that the current period starts at."
      },
      "emergencyExitLockedAmount()": {
        "details": "Returns the amount of RON to lock from a consensus address."
      },
      "emergencyExpiryDuration()": {
        "details": "Returns the duration that an emergency request is expired and the fund will be recycled."
      },
      "epochEndingAt(uint256)": {
        "details": "Returns whether the epoch ending is at the block number `_block`."
      },
      "epochOf(uint256)": {
        "details": "Returns the epoch index from the block number."
      },
      "execApplyValidatorCandidate(address,address,address,uint256)": {
        "details": "Grants a validator candidate. Requirements: - The method caller is staking contract. Emits the event `CandidateGranted`."
      },
      "execBailOut(address,uint256)": {
        "details": "Finalize the bailout request from slash indicator contract. Requirements: - The method caller is slash indicator contract. Emits the event `ValidatorUnjailed`."
      },
      "execChangeAdminAddr(address,address)": {
        "details": "Fallback function of `Profile-changeAdminAddr`. This updates the shadow storage slot of \"shadowedAdmin\" for candidate id `id` to `newAdmin`. Requirements: - The caller must be the Profile contract."
      },
      "execChangeConsensusAddr(address,address)": {
        "details": "Fallback function of `Profile-changeConsensusAddr`. This updates the shadow storage slot of \"shadowedConsensus\" for candidate id `id` to `newAdmin`. Requirements: - The caller must be the Profile contract."
      },
      "execChangeTreasuryAddr(address,address)": {
        "details": "Fallback function of `Profile-changeTreasuryAddr`. This updates the shadow storage slot of \"shadowedTreasury\" for candidate id `id` to `newAdmin`. Requirements: - The caller must be the Profile contract."
      },
      "execReleaseLockedFundForEmergencyExitRequest(address,address)": {
        "details": "Unlocks fund for emergency exit request. Requirements: - The method caller is admin. Emits the event `EmergencyExitLockedFundReleased` if the fund is successfully unlocked. Emits the event `EmergencyExitLockedFundReleasingFailed` if the fund is failed to unlock."
      },
      "execRequestEmergencyExit(address,uint256)": {
        "details": "Fallback function of `IStaking-requestEmergencyExit`. Requirements: - The method caller is staking contract."
      },
      "execRequestRenounceCandidate(address,uint256)": {
        "details": "Requests to revoke a validator candidate in next `secsLeft` seconds. Requirements: - The method caller is staking contract. Emits the event `CandidateRevokingTimestampUpdated`."
      },
      "execRequestUpdateCommissionRate(address,uint256,uint256)": {
        "details": "Fallback function of `CandidateStaking-requestUpdateCommissionRate`. Requirements: - The method caller is the staking contract. - The `effectiveTimestamp` must be the beginning of a UTC day, and at least from 7 days onwards - The `rate` must be in range of [0_00; 100_00]. Emits the event `CommissionRateUpdateScheduled`."
      },
      "execSlash(address,uint256,uint256,bool)": {
        "details": "Finalize the slash request from slash indicator contract. Requirements: - The method caller is slash indicator contract. Emits the event `ValidatorPunished`."
      },
      "getBlockProducerIds()": {
        "details": "Returns the ids current block producer list."
      },
      "getBlockProducers()": {
        "details": "Returns the current block producer list."
      },
      "getCandidateInfo(address)": {
        "details": "Returns the info of a candidate."
      },
      "getCandidateInfoById(address)": {
        "details": "Returns the info of a candidate."
      },
      "getCandidateInfos()": {
        "details": "Returns all candidate info."
      },
      "getCommissionChangeSchedule(address)": {
        "details": "Returns the schedule of changing commission rate of a candidate address."
      },
      "getContract(uint8)": {
        "details": "Returns the address of a contract with a specific role. Throws an error if no contract is set for the specified role.",
        "params": {
          "contractType": "The role of the contract to retrieve."
        },
        "returns": {
          "contract_": "The address of the contract with the specified role."
        }
      },
      "getEmergencyExitInfo(address)": {
        "details": "Returns the emergency exit request."
      },
      "getJailedTimeLeft(address)": {
        "details": "Returns whether the validator are put in jail and the number of block and epoch that he still is in the jail."
      },
      "getJailedTimeLeftAtBlock(address,uint256)": {
        "details": "Returns whether the validator are put in jail at a specific block and the number of block and epoch that he still is in the jail."
      },
      "getLastUpdatedBlock()": {
        "details": "Returns the block that validator set was updated."
      },
      "getValidatorCandidateIds()": {
        "details": "Returns the list of validator candidate ids."
      },
      "getValidatorCandidates()": {
        "details": "Returns the list validator candidates."
      },
      "getValidatorIds()": {
        "details": "Returns the ids of current validator list."
      },
      "getValidators()": {
        "details": "Returns the current validator list."
      },
      "initialize(address,address,address,address,address,address,uint256,uint256,uint256,uint256,uint256,uint256[2])": {
        "details": "Initializes the contract storage."
      },
      "isBlockProducer(address)": {
        "details": "Returns whether the consensus address is block producer or not."
      },
      "isBlockProducerById(address)": {
        "details": "Returns whether the id is block producer or not."
      },
      "isCandidateAdmin(address,address)": {
        "details": "Returns whether the address is the candidate admin."
      },
      "isPeriodEnding()": {
        "details": "Returns whether the period ending at the current block number."
      },
      "isValidatorCandidate(address)": {
        "details": "Returns whether the address is a validator (candidate)."
      },
      "maxPrioritizedValidatorNumber()": {
        "details": "Returns the number of reserved slots for prioritized validators."
      },
      "maxValidatorCandidate()": {
        "details": "Returns the maximum number of validator candidate."
      },
      "maxValidatorNumber()": {
        "details": "Returns the maximum number of validators in the epoch."
      },
      "minEffectiveDaysOnward()": {
        "details": "Returns the minimum number of days to the effective date of commission rate change."
      },
      "numberOfBlocksInEpoch()": {
        "details": "Returns the number of blocks in a epoch."
      },
      "precompilePickValidatorSetAddress()": {
        "details": "Gets the address of the precompile of picking validator set"
      },
      "precompileSortValidatorsAddress()": {
        "details": "Gets the address of the precompile of sorting validators"
      },
      "setContract(uint8,address)": {
        "details": "Sets the address of a contract with a specific role. Emits the event {ContractUpdated}.",
        "params": {
          "addr": "The address of the contract to set.",
          "contractType": "The role of the contract to set."
        }
      },
      "setEmergencyExitLockedAmount(uint256)": {
        "details": "Sets the amount of RON to lock from a consensus address. Requirements: - The method caller is admin. Emits the event `EmergencyExitLockedAmountUpdated`."
      },
      "setEmergencyExpiryDuration(uint256)": {
        "details": "Sets the duration that an emergency request is expired and the fund will be recycled. Requirements: - The method caller is admin. Emits the event `EmergencyExpiryDurationUpdated`."
      },
      "setMaxPrioritizedValidatorNumber(uint256)": {
        "details": "Updates the number of reserved slots for prioritized validators Requirements: - The method caller is admin Emits the event `MaxPrioritizedValidatorNumberUpdated`"
      },
      "setMaxValidatorCandidate(uint256)": {
        "details": "Sets the maximum number of validator candidate. Requirements: - The method caller is admin. Emits the `MaxValidatorCandidateUpdated` event."
      },
      "setMaxValidatorNumber(uint256)": {
        "details": "Updates the max validator number Requirements: - The method caller is admin Emits the event `MaxValidatorNumberUpdated`"
      },
      "setMinEffectiveDaysOnwards(uint256)": {
        "details": "Sets the minimum number of days to the effective date of commision rate change. Requirements: - The method caller is admin. Emits the `MinEffectiveDaysOnwardsUpdated` event."
      },
      "submitBlockReward()": {
        "details": "Submits reward of the current block. Requirements: - The method caller is coinbase. Emits the event `MiningRewardDeprecated` if the coinbase is slashed or no longer be a block producer. Emits the event `BlockRewardSubmitted` for the valid call."
      },
      "totalBlockProducer()": {
        "details": "Returns total numbers of the block producers."
      },
      "totalDeprecatedReward()": {
        "details": "Returns the total deprecated reward, which includes reward that is not sent for slashed validators and unsastified bridge operators"
      },
      "tryGetPeriodOfEpoch(uint256)": {
        "details": "Tries to get the period index from the epoch number."
      },
      "wrapUpEpoch()": {
        "details": "Wraps up the current epoch. Requirements: - The method must be called when the current epoch is ending. - The epoch is not wrapped yet. - The method caller is coinbase. Emits the event `MiningRewardDistributed` when some validator has reward distributed. Emits the event `StakingRewardDistributed` when some staking pool has reward distributed. Emits the event `BlockProducerSetUpdated` when the epoch is wrapped up. Emits the event `BridgeOperatorSetUpdated` when the epoch is wrapped up at period ending. Emits the event `ValidatorSetUpdated` when the epoch is wrapped up at period ending, and the validator set gets updated. Emits the event `WrappedUpEpoch`."
      }
    },
    "events": {
      "BlockProducerSetUpdated(uint256,uint256,address[])": {
        "details": "Emitted when the bridge operator set is updated, to mirror the in-jail and maintaining status of the validator."
      },
      "BlockRewardDeprecated(address,uint256,uint8)": {
        "details": "Emitted when the reward of the block producer is deprecated."
      },
      "BlockRewardSubmitted(address,uint256,uint256)": {
        "details": "Emitted when the block reward is submitted."
      },
      "BridgeOperatorRewardDistributed(address,address,address,uint256)": {
        "details": "Emitted when the bridge operator reward is distributed."
      },
      "BridgeOperatorRewardDistributionFailed(address,address,address,uint256,uint256)": {
        "details": "Emitted when the contract fails when distributing the bridge operator reward."
      },
      "BridgeOperatorSetUpdated(uint256,uint256,address[])": {
        "details": "Emitted when the bridge operator set is updated."
      },
      "CandidateGranted(address,address,address)": {
        "details": "Emitted when the validator candidate is granted."
      },
      "CandidateRevokingTimestampUpdated(address,uint256)": {
        "details": "Emitted when the revoking timestamp of a candidate is updated."
      },
      "CandidateTopupDeadlineUpdated(address,uint256)": {
        "details": "Emitted when the topup deadline of a candidate is updated."
      },
      "CandidatesRevoked(address[])": {
        "details": "Emitted when the validator candidate is revoked."
      },
      "CommissionRateUpdateScheduled(address,uint256,uint256)": {
        "details": "Emitted when a schedule for updating commission rate is set."
      },
      "CommissionRateUpdated(address,uint256)": {
        "details": "Emitted when the commission rate of a validator is updated."
      },
      "ContractUpdated(uint8,address)": {
        "details": "Emitted when a contract is updated."
      },
      "DeprecatedRewardRecycleFailed(address,uint256,uint256)": {
        "details": "Emitted when the deprecated reward withdrawal is failed"
      },
      "DeprecatedRewardRecycled(address,uint256)": {
        "details": "Emitted when the deprecated reward is withdrawn."
      },
      "EmergencyExitLockedAmountUpdated(uint256)": {
        "details": "Emitted when the emergency exit locked amount is updated."
      },
      "EmergencyExitLockedFundReleased(address,address,uint256)": {
        "details": "Emitted when the fund that locked from an emergency exit request is transferred to the recipient."
      },
      "EmergencyExitLockedFundReleasingFailed(address,address,uint256,uint256)": {
        "details": "Emitted when the fund that locked from an emergency exit request is failed to transferred back."
      },
      "EmergencyExitRequested(address,uint256)": {
        "details": "Emitted when the fund is locked from an emergency exit request"
      },
      "EmergencyExpiryDurationUpdated(uint256)": {
        "details": "Emitted when the emergency expiry duration is updated."
      },
      "FastFinalityRewardDistributed(address,address,uint256)": {
        "details": "Emitted when the fast finality reward is distributed."
      },
      "FastFinalityRewardDistributionFailed(address,address,uint256,uint256)": {
        "details": "Emitted when the contract fails when distributing the fast finality reward."
      },
      "Initialized(uint8)": {
        "details": "Triggered when the contract has been initialized or reinitialized."
      },
      "MaxPrioritizedValidatorNumberUpdated(uint256)": {
        "details": "Emitted when the number of reserved slots for prioritized validators is updated."
      },
      "MaxValidatorCandidateUpdated(uint256)": {
        "details": "Emitted when the maximum number of validator candidates is updated."
      },
      "MaxValidatorNumberUpdated(uint256)": {
        "details": "Emitted when the number of max validator is updated."
      },
      "MinEffectiveDaysOnwardsUpdated(uint256)": {
        "details": "Emitted when the min offset to the effective date of commission rate change is updated."
      },
      "MiningRewardDistributed(address,address,uint256)": {
        "details": "Emitted when the block producer reward is distributed."
      },
      "MiningRewardDistributionFailed(address,address,uint256,uint256)": {
        "details": "Emitted when the contract fails when distributing the block producer reward."
      },
      "StakingRewardDistributed(uint256,address[],uint256[])": {
        "details": "Emitted when the amount of RON reward is distributed to staking contract."
      },
      "StakingRewardDistributionFailed(uint256,address[],uint256[],uint256)": {
        "details": "Emitted when the contracts fails when distributing the amount of RON to the staking contract."
      },
      "ValidatorPunished(address,uint256,uint256,uint256,bool,bool)": {
        "details": "Emitted when the validator is punished."
      },
      "ValidatorSetUpdated(uint256,address[])": {
        "details": "Emitted when the validator set is updated"
      },
      "ValidatorUnjailed(address,uint256)": {
        "details": "Emitted when the validator get out of jail by bailout."
      },
      "WrappedUpEpoch(uint256,uint256,bool)": {
        "details": "Emitted when the epoch is wrapped up."
      }
    },
    "errors": {
      "ErrAlreadyRequestedEmergencyExit()": [
        {
          "details": "Error of already requested emergency exit before."
        }
      ],
      "ErrAlreadyRequestedRevokingCandidate()": [
        {
          "details": "Error of already requested revoking candidate before."
        }
      ],
      "ErrAlreadyRequestedUpdatingCommissionRate()": [
        {
          "details": "Error of commission change schedule exists."
        }
      ],
      "ErrAlreadyWrappedEpoch()": [
        {
          "details": "Error of query for already wrapped up epoch"
        }
      ],
      "ErrAtEndOfEpochOnly()": [
        {
          "details": "Error of only allowed at the end of epoch"
        }
      ],
      "ErrCallPrecompiled()": [
        {
          "details": "Error of call to precompile fails."
        }
      ],
      "ErrCallerMustBeCoinbase()": [
        {
          "details": "Error of method caller must be coinbase"
        }
      ],
      "ErrCannotBailout(address)": [
        {
          "details": "Error of cannot bailout due to high tier slash."
        }
      ],
      "ErrContractTypeNotFound(uint8)": [
        {
          "details": "Error of invalid role."
        }
      ],
      "ErrExceedsMaxNumberOfCandidate()": [
        {
          "details": "Error of exceeding maximum number of candidates."
        }
      ],
      "ErrExistentCandidate()": [
        {
          "details": "Error of querying for already existent candidate."
        }
      ],
      "ErrExistentCandidateAdmin(address)": [
        {
          "details": "Error of candidate admin already exists."
        }
      ],
      "ErrExistentTreasury(address)": [
        {
          "details": "Error of treasury already exists."
        }
      ],
      "ErrInsufficientBalance(bytes4,uint256,uint256)": [
        {
          "details": "Error of sender has insufficient balance."
        }
      ],
      "ErrInvalidCommissionRate()": [
        {
          "details": "Error of invalid commission rate."
        }
      ],
      "ErrInvalidEffectiveDaysOnwards()": [
        {
          "details": "Error of invalid effective days onwards."
        }
      ],
      "ErrInvalidMaxPrioritizedValidatorNumber()": [
        {
          "details": "Error thrown when an invalid maximum prioritized validator number is provided."
        }
      ],
      "ErrInvalidMinEffectiveDaysOnwards()": [
        {
          "details": "Error of invalid min effective days onwards."
        }
      ],
      "ErrLockedFundMightBeRecycled(address)": [
        {
          "details": "Error thrown when the the locked fund of emergency exit might be recycled."
        }
      ],
      "ErrLockedFundReleaseInfoNotFound(address)": [
        {
          "details": "Error thrown when the info of releasing locked fund not exist."
        }
      ],
      "ErrNonExistentCandidate()": [
        {
          "details": "Error of querying for non-existent candidate."
        }
      ],
      "ErrRecipientRevert(bytes4)": [
        {
          "details": "Error of recipient not accepting RON when transfer RON."
        }
      ],
      "ErrTrustedOrgCannotRenounce()": [
        {
          "details": "Error of trusted org cannot renounce."
        }
      ],
      "ErrUnauthorized(bytes4,uint8)": [
        {
          "details": "Error indicating that the caller is unauthorized to perform a specific function.",
          "params": {
            "expectedRole": "The role required to perform the function.",
            "msgSig": "The function signature (bytes4) that the caller is unauthorized to perform."
          }
        }
      ],
      "ErrUnauthorizedReceiveRON()": [
        {
          "details": "Error thrown when receives RON from neither staking vesting contract nor staking contract"
        }
      ],
      "ErrUnexpectedInternalCall(bytes4,uint8,address)": [
        {
          "details": "Error indicating that the caller is unauthorized to perform a specific function.",
          "params": {
            "actual": "The actual address that called to the function.",
            "expectedContractType": "The contract type required to perform the function.",
            "msgSig": "The function signature (bytes4)."
          }
        }
      ],
      "ErrZeroCodeContract(address)": [
        {
          "details": "Error of set to non-contract."
        }
      ],
      "NonExistentRecyclingInfo()": [
        {
          "details": "Error thrown when queries for a non existent info."
        }
      ]
    }
  },
  "isFoundry": true,
  "nonce": 45,
  "numDeployments": 22,
  "storageLayout": {
    "storage": [
      {
        "astId": 149866,
        "contract": "contracts/ronin/validator/RoninValidatorSet.sol:RoninValidatorSet",
        "label": "_initialized",
        "offset": 0,
        "slot": "0",
        "type": "t_uint8"
      },
      {
        "astId": 149869,
        "contract": "contracts/ronin/validator/RoninValidatorSet.sol:RoninValidatorSet",
        "label": "_initializing",
        "offset": 1,
        "slot": "0",
        "type": "t_bool"
      },
      {
        "astId": 36959,
        "contract": "contracts/ronin/validator/RoninValidatorSet.sol:RoninValidatorSet",
        "label": "_numberOfBlocksInEpoch",
        "offset": 0,
        "slot": "1",
        "type": "t_uint256"
      },
      {
        "astId": 36962,
        "contract": "contracts/ronin/validator/RoninValidatorSet.sol:RoninValidatorSet",
        "label": "_lastUpdatedBlock",
        "offset": 0,
        "slot": "2",
        "type": "t_uint256"
      },
      {
        "astId": 36965,
        "contract": "contracts/ronin/validator/RoninValidatorSet.sol:RoninValidatorSet",
        "label": "_lastUpdatedPeriod",
        "offset": 0,
        "slot": "3",
        "type": "t_uint256"
      },
      {
        "astId": 36968,
        "contract": "contracts/ronin/validator/RoninValidatorSet.sol:RoninValidatorSet",
        "label": "_currentPeriodStartAtBlock",
        "offset": 0,
        "slot": "4",
        "type": "t_uint256"
      },
      {
        "astId": 36973,
        "contract": "contracts/ronin/validator/RoninValidatorSet.sol:RoninValidatorSet",
        "label": "_periodOf",
        "offset": 0,
        "slot": "5",
        "type": "t_mapping(t_uint256,t_uint256)"
      },
      {
        "astId": 36978,
        "contract": "contracts/ronin/validator/RoninValidatorSet.sol:RoninValidatorSet",
        "label": "______gap",
        "offset": 0,
        "slot": "6",
        "type": "t_array(t_uint256)49_storage"
      },
      {
        "astId": 36563,
        "contract": "contracts/ronin/validator/RoninValidatorSet.sol:RoninValidatorSet",
        "label": "_miningRewardDeprecatedAtPeriod",
        "offset": 0,
        "slot": "55",
        "type": "t_mapping(t_address,t_mapping(t_uint256,t_bool))"
      },
      {
        "astId": 36570,
        "contract": "contracts/ronin/validator/RoninValidatorSet.sol:RoninValidatorSet",
        "label": "_miningRewardBailoutCutOffAtPeriod",
        "offset": 0,
        "slot": "56",
        "type": "t_mapping(t_address,t_mapping(t_uint256,t_bool))"
      },
      {
        "astId": 36577,
        "contract": "contracts/ronin/validator/RoninValidatorSet.sol:RoninValidatorSet",
        "label": "______deprecatedBridgeRewardDeprecatedAtPeriod",
        "offset": 0,
        "slot": "57",
        "type": "t_mapping(t_address,t_mapping(t_uint256,t_bool))"
      },
      {
        "astId": 36582,
        "contract": "contracts/ronin/validator/RoninValidatorSet.sol:RoninValidatorSet",
        "label": "_blockProducerJailedBlock",
        "offset": 0,
        "slot": "58",
        "type": "t_mapping(t_address,t_uint256)"
      },
      {
        "astId": 36587,
        "contract": "contracts/ronin/validator/RoninValidatorSet.sol:RoninValidatorSet",
        "label": "_emergencyExitJailedTimestamp",
        "offset": 0,
        "slot": "59",
        "type": "t_mapping(t_address,t_uint256)"
      },
      {
        "astId": 36592,
        "contract": "contracts/ronin/validator/RoninValidatorSet.sol:RoninValidatorSet",
        "label": "_cannotBailoutUntilBlock",
        "offset": 0,
        "slot": "60",
        "type": "t_mapping(t_address,t_uint256)"
      },
      {
        "astId": 36597,
        "contract": "contracts/ronin/validator/RoninValidatorSet.sol:RoninValidatorSet",
        "label": "______gap",
        "offset": 0,
        "slot": "61",
        "type": "t_array(t_uint256)48_storage"
      },
      {
        "astId": 38030,
        "contract": "contracts/ronin/validator/RoninValidatorSet.sol:RoninValidatorSet",
        "label": "______deprecatedStakingVesting",
        "offset": 0,
        "slot": "109",
        "type": "t_address"
      },
      {
        "astId": 38058,
        "contract": "contracts/ronin/validator/RoninValidatorSet.sol:RoninValidatorSet",
        "label": "______deprecatedBridgeTracking",
        "offset": 0,
        "slot": "110",
        "type": "t_address"
      },
      {
        "astId": 38046,
        "contract": "contracts/ronin/validator/RoninValidatorSet.sol:RoninValidatorSet",
        "label": "______deprecatedMaintenance",
        "offset": 0,
        "slot": "111",
        "type": "t_address"
      },
      {
        "astId": 38026,
        "contract": "contracts/ronin/validator/RoninValidatorSet.sol:RoninValidatorSet",
        "label": "______deprecatedSlashIndicator",
        "offset": 0,
        "slot": "112",
        "type": "t_address"
      },
      {
        "astId": 38042,
        "contract": "contracts/ronin/validator/RoninValidatorSet.sol:RoninValidatorSet",
        "label": "______deprecatedStakingContract",
        "offset": 0,
        "slot": "113",
        "type": "t_address"
      },
      {
        "astId": 32933,
        "contract": "contracts/ronin/validator/RoninValidatorSet.sol:RoninValidatorSet",
        "label": "_maxValidatorCandidate",
        "offset": 0,
        "slot": "114",
        "type": "t_uint256"
      },
      {
        "astId": 32937,
        "contract": "contracts/ronin/validator/RoninValidatorSet.sol:RoninValidatorSet",
        "label": "_candidateIds",
        "offset": 0,
        "slot": "115",
        "type": "t_array(t_address)dyn_storage"
      },
      {
        "astId": 32942,
        "contract": "contracts/ronin/validator/RoninValidatorSet.sol:RoninValidatorSet",
        "label": "_candidateIndex",
        "offset": 0,
        "slot": "116",
        "type": "t_mapping(t_address,t_uint256)"
      },
      {
        "astId": 32948,
        "contract": "contracts/ronin/validator/RoninValidatorSet.sol:RoninValidatorSet",
        "label": "_candidateInfo",
        "offset": 0,
        "slot": "117",
        "type": "t_mapping(t_address,t_struct(ValidatorCandidate)9803_storage)"
      },
      {
        "astId": 32951,
        "contract": "contracts/ronin/validator/RoninValidatorSet.sol:RoninValidatorSet",
        "label": "_minEffectiveDaysOnwards",
        "offset": 0,
        "slot": "118",
        "type": "t_uint256"
      },
      {
        "astId": 32957,
        "contract": "contracts/ronin/validator/RoninValidatorSet.sol:RoninValidatorSet",
        "label": "_candidateCommissionChangeSchedule",
        "offset": 0,
        "slot": "119",
        "type": "t_mapping(t_address,t_struct(CommissionSchedule)9810_storage)"
      },
      {
        "astId": 32962,
        "contract": "contracts/ronin/validator/RoninValidatorSet.sol:RoninValidatorSet",
        "label": "______gap",
        "offset": 0,
        "slot": "120",
        "type": "t_array(t_uint256)48_storage"
      },
      {
        "astId": 38050,
        "contract": "contracts/ronin/validator/RoninValidatorSet.sol:RoninValidatorSet",
        "label": "______deprecatedTrustedOrg",
        "offset": 0,
        "slot": "168",
        "type": "t_address"
      },
      {
        "astId": 37145,
        "contract": "contracts/ronin/validator/RoninValidatorSet.sol:RoninValidatorSet",
        "label": "_maxValidatorNumber",
        "offset": 0,
        "slot": "169",
        "type": "t_uint256"
      },
      {
        "astId": 37148,
        "contract": "contracts/ronin/validator/RoninValidatorSet.sol:RoninValidatorSet",
        "label": "_validatorCount",
        "offset": 0,
        "slot": "170",
        "type": "t_uint256"
      },
      {
        "astId": 37153,
        "contract": "contracts/ronin/validator/RoninValidatorSet.sol:RoninValidatorSet",
        "label": "_validatorIds",
        "offset": 0,
        "slot": "171",
        "type": "t_mapping(t_uint256,t_address)"
      },
      {
        "astId": 37159,
        "contract": "contracts/ronin/validator/RoninValidatorSet.sol:RoninValidatorSet",
        "label": "_validatorMap",
        "offset": 0,
        "slot": "172",
        "type": "t_mapping(t_address,t_enum(ValidatorFlag)10945)"
      },
      {
        "astId": 37162,
        "contract": "contracts/ronin/validator/RoninValidatorSet.sol:RoninValidatorSet",
        "label": "_maxPrioritizedValidatorNumber",
        "offset": 0,
        "slot": "173",
        "type": "t_uint256"
      },
      {
        "astId": 37167,
        "contract": "contracts/ronin/validator/RoninValidatorSet.sol:RoninValidatorSet",
        "label": "______gap",
        "offset": 0,
        "slot": "174",
        "type": "t_array(t_uint256)50_storage"
      },
      {
        "astId": 36411,
        "contract": "contracts/ronin/validator/RoninValidatorSet.sol:RoninValidatorSet",
        "label": "_miningReward",
        "offset": 0,
        "slot": "224",
        "type": "t_mapping(t_address,t_uint256)"
      },
      {
        "astId": 36416,
        "contract": "contracts/ronin/validator/RoninValidatorSet.sol:RoninValidatorSet",
        "label": "_delegatingReward",
        "offset": 0,
        "slot": "225",
        "type": "t_mapping(t_address,t_uint256)"
      },
      {
        "astId": 36419,
        "contract": "contracts/ronin/validator/RoninValidatorSet.sol:RoninValidatorSet",
        "label": "_totalFastFinalityReward",
        "offset": 0,
        "slot": "226",
        "type": "t_uint256"
      },
      {
        "astId": 36424,
        "contract": "contracts/ronin/validator/RoninValidatorSet.sol:RoninValidatorSet",
        "label": "_fastFinalityReward",
        "offset": 0,
        "slot": "227",
        "type": "t_mapping(t_address,t_uint256)"
      },
      {
        "astId": 36427,
        "contract": "contracts/ronin/validator/RoninValidatorSet.sol:RoninValidatorSet",
        "label": "_totalDeprecatedReward",
        "offset": 0,
        "slot": "228",
        "type": "t_uint256"
      },
      {
        "astId": 36430,
        "contract": "contracts/ronin/validator/RoninValidatorSet.sol:RoninValidatorSet",
        "label": "_emergencyExitLockedAmount",
        "offset": 0,
        "slot": "229",
        "type": "t_uint256"
      },
      {
        "astId": 36433,
        "contract": "contracts/ronin/validator/RoninValidatorSet.sol:RoninValidatorSet",
        "label": "_emergencyExpiryDuration",
        "offset": 0,
        "slot": "230",
        "type": "t_uint256"
      },
      {
        "astId": 36437,
        "contract": "contracts/ronin/validator/RoninValidatorSet.sol:RoninValidatorSet",
        "label": "_lockedConsensusList",
        "offset": 0,
        "slot": "231",
        "type": "t_array(t_address)dyn_storage"
      },
      {
        "astId": 36443,
        "contract": "contracts/ronin/validator/RoninValidatorSet.sol:RoninValidatorSet",
        "label": "_exitInfo",
        "offset": 0,
        "slot": "232",
        "type": "t_mapping(t_address,t_struct(EmergencyExitInfo)10417_storage)"
      },
      {
        "astId": 36448,
        "contract": "contracts/ronin/validator/RoninValidatorSet.sol:RoninValidatorSet",
        "label": "_lockedFundReleased",
        "offset": 0,
        "slot": "233",
        "type": "t_mapping(t_address,t_bool)"
      },
      {
        "astId": 36453,
        "contract": "contracts/ronin/validator/RoninValidatorSet.sol:RoninValidatorSet",
        "label": "______gap",
        "offset": 0,
        "slot": "234",
        "type": "t_array(t_uint256)44_storage"
      }
    ],
    "types": {
      "t_address": {
        "encoding": "inplace",
        "label": "address",
        "numberOfBytes": "20"
      },
      "t_address_payable": {
        "encoding": "inplace",
        "label": "address payable",
        "numberOfBytes": "20"
      },
      "t_array(t_address)dyn_storage": {
        "encoding": "dynamic_array",
        "label": "address[]",
        "numberOfBytes": "32",
        "base": "t_address"
      },
      "t_array(t_uint256)44_storage": {
        "encoding": "inplace",
        "label": "uint256[44]",
        "numberOfBytes": "1408",
        "base": "t_uint256"
      },
      "t_array(t_uint256)48_storage": {
        "encoding": "inplace",
        "label": "uint256[48]",
        "numberOfBytes": "1536",
        "base": "t_uint256"
      },
      "t_array(t_uint256)49_storage": {
        "encoding": "inplace",
        "label": "uint256[49]",
        "numberOfBytes": "1568",
        "base": "t_uint256"
      },
      "t_array(t_uint256)50_storage": {
        "encoding": "inplace",
        "label": "uint256[50]",
        "numberOfBytes": "1600",
        "base": "t_uint256"
      },
      "t_bool": {
        "encoding": "inplace",
        "label": "bool",
        "numberOfBytes": "1"
      },
      "t_enum(ValidatorFlag)10945": {
        "encoding": "inplace",
        "label": "enum EnumFlags.ValidatorFlag",
        "numberOfBytes": "1"
      },
      "t_mapping(t_address,t_bool)": {
        "encoding": "mapping",
        "key": "t_address",
        "label": "mapping(address => bool)",
        "numberOfBytes": "32",
        "value": "t_bool"
      },
      "t_mapping(t_address,t_enum(ValidatorFlag)10945)": {
        "encoding": "mapping",
        "key": "t_address",
        "label": "mapping(address => enum EnumFlags.ValidatorFlag)",
        "numberOfBytes": "32",
        "value": "t_enum(ValidatorFlag)10945"
      },
      "t_mapping(t_address,t_mapping(t_uint256,t_bool))": {
        "encoding": "mapping",
        "key": "t_address",
        "label": "mapping(address => mapping(uint256 => bool))",
        "numberOfBytes": "32",
        "value": "t_mapping(t_uint256,t_bool)"
      },
      "t_mapping(t_address,t_struct(CommissionSchedule)9810_storage)": {
        "encoding": "mapping",
        "key": "t_address",
        "label": "mapping(address => struct ICandidateManager.CommissionSchedule)",
        "numberOfBytes": "32",
        "value": "t_struct(CommissionSchedule)9810_storage"
      },
      "t_mapping(t_address,t_struct(EmergencyExitInfo)10417_storage)": {
        "encoding": "mapping",
        "key": "t_address",
        "label": "mapping(address => struct ICommonInfo.EmergencyExitInfo)",
        "numberOfBytes": "32",
        "value": "t_struct(EmergencyExitInfo)10417_storage"
      },
      "t_mapping(t_address,t_struct(ValidatorCandidate)9803_storage)": {
        "encoding": "mapping",
        "key": "t_address",
        "label": "mapping(address => struct ICandidateManager.ValidatorCandidate)",
        "numberOfBytes": "32",
        "value": "t_struct(ValidatorCandidate)9803_storage"
      },
      "t_mapping(t_address,t_uint256)": {
        "encoding": "mapping",
        "key": "t_address",
        "label": "mapping(address => uint256)",
        "numberOfBytes": "32",
        "value": "t_uint256"
      },
      "t_mapping(t_uint256,t_address)": {
        "encoding": "mapping",
        "key": "t_uint256",
        "label": "mapping(uint256 => address)",
        "numberOfBytes": "32",
        "value": "t_address"
      },
      "t_mapping(t_uint256,t_bool)": {
        "encoding": "mapping",
        "key": "t_uint256",
        "label": "mapping(uint256 => bool)",
        "numberOfBytes": "32",
        "value": "t_bool"
      },
      "t_mapping(t_uint256,t_uint256)": {
        "encoding": "mapping",
        "key": "t_uint256",
        "label": "mapping(uint256 => uint256)",
        "numberOfBytes": "32",
        "value": "t_uint256"
      },
      "t_struct(CommissionSchedule)9810_storage": {
        "encoding": "inplace",
        "label": "struct ICandidateManager.CommissionSchedule",
        "numberOfBytes": "64",
        "members": [
          {
            "astId": 9806,
            "contract": "contracts/ronin/validator/RoninValidatorSet.sol:RoninValidatorSet",
            "label": "effectiveTimestamp",
            "offset": 0,
            "slot": "0",
            "type": "t_uint256"
          },
          {
            "astId": 9809,
            "contract": "contracts/ronin/validator/RoninValidatorSet.sol:RoninValidatorSet",
            "label": "commissionRate",
            "offset": 0,
            "slot": "1",
            "type": "t_uint256"
          }
        ]
      },
      "t_struct(EmergencyExitInfo)10417_storage": {
        "encoding": "inplace",
        "label": "struct ICommonInfo.EmergencyExitInfo",
        "numberOfBytes": "64",
        "members": [
          {
            "astId": 10414,
            "contract": "contracts/ronin/validator/RoninValidatorSet.sol:RoninValidatorSet",
            "label": "lockedAmount",
            "offset": 0,
            "slot": "0",
            "type": "t_uint256"
          },
          {
            "astId": 10416,
            "contract": "contracts/ronin/validator/RoninValidatorSet.sol:RoninValidatorSet",
            "label": "recyclingAt",
            "offset": 0,
            "slot": "1",
            "type": "t_uint256"
          }
        ]
      },
      "t_struct(ValidatorCandidate)9803_storage": {
        "encoding": "inplace",
        "label": "struct ICandidateManager.ValidatorCandidate",
        "numberOfBytes": "224",
        "members": [
          {
            "astId": 9783,
            "contract": "contracts/ronin/validator/RoninValidatorSet.sol:RoninValidatorSet",
            "label": "__shadowedAdmin",
            "offset": 0,
            "slot": "0",
            "type": "t_address"
          },
          {
            "astId": 9787,
            "contract": "contracts/ronin/validator/RoninValidatorSet.sol:RoninValidatorSet",
            "label": "__shadowedConsensus",
            "offset": 0,
            "slot": "1",
            "type": "t_userDefinedValueType(TConsensus)37739"
          },
          {
            "astId": 9790,
            "contract": "contracts/ronin/validator/RoninValidatorSet.sol:RoninValidatorSet",
            "label": "__shadowedTreasury",
            "offset": 0,
            "slot": "2",
            "type": "t_address_payable"
          },
          {
            "astId": 9793,
            "contract": "contracts/ronin/validator/RoninValidatorSet.sol:RoninValidatorSet",
            "label": "____deprecatedBridgeOperatorAddr",
            "offset": 0,
            "slot": "3",
            "type": "t_address"
          },
          {
            "astId": 9796,
            "contract": "contracts/ronin/validator/RoninValidatorSet.sol:RoninValidatorSet",
            "label": "commissionRate",
            "offset": 0,
            "slot": "4",
            "type": "t_uint256"
          },
          {
            "astId": 9799,
            "contract": "contracts/ronin/validator/RoninValidatorSet.sol:RoninValidatorSet",
            "label": "revokingTimestamp",
            "offset": 0,
            "slot": "5",
            "type": "t_uint256"
          },
          {
            "astId": 9802,
            "contract": "contracts/ronin/validator/RoninValidatorSet.sol:RoninValidatorSet",
            "label": "topupDeadline",
            "offset": 0,
            "slot": "6",
            "type": "t_uint256"
          }
        ]
      },
      "t_uint256": {
        "encoding": "inplace",
        "label": "uint256",
        "numberOfBytes": "32"
      },
      "t_uint8": {
        "encoding": "inplace",
        "label": "uint8",
        "numberOfBytes": "1"
      },
      "t_userDefinedValueType(TConsensus)37739": {
        "encoding": "inplace",
        "label": "TConsensus",
        "numberOfBytes": "20"
      }
    }
  },
  "timestamp": 1709279711,
  "userdoc": {
    "version": 1,
    "kind": "user"
  }
}