{
  "abi": [
    {
      "type": "constructor",
      "inputs": [],
      "stateMutability": "nonpayable"
    },
    {
      "type": "function",
      "name": "bailOut",
      "inputs": [
        {
          "name": "consensusAddr",
          "type": "address",
          "internalType": "TConsensus"
        }
      ],
      "outputs": [],
      "stateMutability": "nonpayable"
    },
    {
      "type": "function",
      "name": "checkBailedOutAtPeriod",
      "inputs": [
        {
          "name": "consensus",
          "type": "address",
          "internalType": "TConsensus"
        },
        {
          "name": "period",
          "type": "uint256",
          "internalType": "uint256"
        }
      ],
      "outputs": [
        {
          "name": "",
          "type": "bool",
          "internalType": "bool"
        }
      ],
      "stateMutability": "view"
    },
    {
      "type": "function",
      "name": "currentUnavailabilityIndicator",
      "inputs": [
        {
          "name": "consensus",
          "type": "address",
          "internalType": "TConsensus"
        }
      ],
      "outputs": [
        {
          "name": "",
          "type": "uint256",
          "internalType": "uint256"
        }
      ],
      "stateMutability": "view"
    },
    {
      "type": "function",
      "name": "execResetCreditScores",
      "inputs": [
        {
          "name": "validatorIds",
          "type": "address[]",
          "internalType": "address[]"
        }
      ],
      "outputs": [],
      "stateMutability": "nonpayable"
    },
    {
      "type": "function",
      "name": "execUpdateCreditScores",
      "inputs": [
        {
          "name": "validatorIds",
          "type": "address[]",
          "internalType": "address[]"
        },
        {
          "name": "period",
          "type": "uint256",
          "internalType": "uint256"
        }
      ],
      "outputs": [],
      "stateMutability": "nonpayable"
    },
    {
      "type": "function",
      "name": "getContract",
      "inputs": [
        {
          "name": "contractType",
          "type": "uint8",
          "internalType": "enum ContractType"
        }
      ],
      "outputs": [
        {
          "name": "contract_",
          "type": "address",
          "internalType": "address payable"
        }
      ],
      "stateMutability": "view"
    },
    {
      "type": "function",
      "name": "getCreditScore",
      "inputs": [
        {
          "name": "consensusAddr",
          "type": "address",
          "internalType": "TConsensus"
        }
      ],
      "outputs": [
        {
          "name": "",
          "type": "uint256",
          "internalType": "uint256"
        }
      ],
      "stateMutability": "view"
    },
    {
      "type": "function",
      "name": "getCreditScoreConfigs",
      "inputs": [],
      "outputs": [
        {
          "name": "gainCreditScore_",
          "type": "uint256",
          "internalType": "uint256"
        },
        {
          "name": "maxCreditScore_",
          "type": "uint256",
          "internalType": "uint256"
        },
        {
          "name": "bailOutCostMultiplier_",
          "type": "uint256",
          "internalType": "uint256"
        },
        {
          "name": "cutOffPercentageAfterBailout_",
          "type": "uint256",
          "internalType": "uint256"
        }
      ],
      "stateMutability": "view"
    },
    {
      "type": "function",
      "name": "getDoubleSignSlashingConfigs",
      "inputs": [],
      "outputs": [
        {
          "name": "slashDoubleSignAmount_",
          "type": "uint256",
          "internalType": "uint256"
        },
        {
          "name": "doubleSigningJailUntilBlock_",
          "type": "uint256",
          "internalType": "uint256"
        },
        {
          "name": "doubleSigningOffsetLimitBlock_",
          "type": "uint256",
          "internalType": "uint256"
        }
      ],
      "stateMutability": "view"
    },
    {
      "type": "function",
      "name": "getFastFinalitySlashingConfigs",
      "inputs": [],
      "outputs": [
        {
          "name": "slashFastFinalityAmount_",
          "type": "uint256",
          "internalType": "uint256"
        },
        {
          "name": "fastFinalityJailUntilBlock_",
          "type": "uint256",
          "internalType": "uint256"
        }
      ],
      "stateMutability": "view"
    },
    {
      "type": "function",
      "name": "getManyCreditScores",
      "inputs": [
        {
          "name": "consensusAddrs",
          "type": "address[]",
          "internalType": "TConsensus[]"
        }
      ],
      "outputs": [
        {
          "name": "resultList",
          "type": "uint256[]",
          "internalType": "uint256[]"
        }
      ],
      "stateMutability": "view"
    },
    {
      "type": "function",
      "name": "getRandomBeaconSlashingConfigs",
      "inputs": [],
      "outputs": [
        {
          "name": "config",
          "type": "tuple",
          "internalType": "struct ISlashRandomBeacon.SlashRandomBeaconConfig",
          "components": [
            {
              "name": "_slashAmount",
              "type": "uint256",
              "internalType": "uint256"
            },
            {
              "name": "_activatedAtPeriod",
              "type": "uint256",
              "internalType": "uint256"
            }
          ]
        }
      ],
      "stateMutability": "pure"
    },
    {
      "type": "function",
      "name": "getUnavailabilityIndicator",
      "inputs": [
        {
          "name": "consensus",
          "type": "address",
          "internalType": "TConsensus"
        },
        {
          "name": "period",
          "type": "uint256",
          "internalType": "uint256"
        }
      ],
      "outputs": [
        {
          "name": "",
          "type": "uint256",
          "internalType": "uint256"
        }
      ],
      "stateMutability": "view"
    },
    {
      "type": "function",
      "name": "getUnavailabilitySlashingConfigs",
      "inputs": [],
      "outputs": [
        {
          "name": "unavailabilityTier1Threshold_",
          "type": "uint256",
          "internalType": "uint256"
        },
        {
          "name": "unavailabilityTier2Threshold_",
          "type": "uint256",
          "internalType": "uint256"
        },
        {
          "name": "slashAmountForUnavailabilityTier2Threshold_",
          "type": "uint256",
          "internalType": "uint256"
        },
        {
          "name": "jailDurationForUnavailabilityTier2Threshold_",
          "type": "uint256",
          "internalType": "uint256"
        }
      ],
      "stateMutability": "view"
    },
    {
      "type": "function",
      "name": "initialize",
      "inputs": [
        {
          "name": "__validatorContract",
          "type": "address",
          "internalType": "address"
        },
        {
          "name": "__maintenanceContract",
          "type": "address",
          "internalType": "address"
        },
        {
          "name": "__roninTrustedOrganizationContract",
          "type": "address",
          "internalType": "address"
        },
        {
          "name": "__roninGovernanceAdminContract",
          "type": "address",
          "internalType": "address"
        },
        {
          "name": "",
          "type": "uint256[4]",
          "internalType": "uint256[4]"
        },
        {
          "name": "",
          "type": "uint256[2]",
          "internalType": "uint256[2]"
        },
        {
          "name": "_doubleSignSlashingConfigs",
          "type": "uint256[3]",
          "internalType": "uint256[3]"
        },
        {
          "name": "_unavailabilitySlashingConfigs",
          "type": "uint256[4]",
          "internalType": "uint256[4]"
        },
        {
          "name": "_creditScoreConfigs",
          "type": "uint256[4]",
          "internalType": "uint256[4]"
        }
      ],
      "outputs": [],
      "stateMutability": "nonpayable"
    },
    {
      "type": "function",
      "name": "initializeV2",
      "inputs": [
        {
          "name": "roninGovernanceAdminContract",
          "type": "address",
          "internalType": "address"
        }
      ],
      "outputs": [],
      "stateMutability": "nonpayable"
    },
    {
      "type": "function",
      "name": "initializeV3",
      "inputs": [
        {
          "name": "profileContract",
          "type": "address",
          "internalType": "address"
        }
      ],
      "outputs": [],
      "stateMutability": "nonpayable"
    },
    {
      "type": "function",
      "name": "initializeV4",
      "inputs": [
        {
          "name": "randomBeaconContract",
          "type": "address",
          "internalType": "address"
        },
        {
          "name": "randomBeaconSlashAmount",
          "type": "uint256",
          "internalType": "uint256"
        },
        {
          "name": "activatedAtPeriod",
          "type": "uint256",
          "internalType": "uint256"
        }
      ],
      "outputs": [],
      "stateMutability": "nonpayable"
    },
    {
      "type": "function",
      "name": "lastUnavailabilitySlashedBlock",
      "inputs": [],
      "outputs": [
        {
          "name": "",
          "type": "uint256",
          "internalType": "uint256"
        }
      ],
      "stateMutability": "view"
    },
    {
      "type": "function",
      "name": "precompileValidateDoubleSignAddress",
      "inputs": [],
      "outputs": [
        {
          "name": "",
          "type": "address",
          "internalType": "address"
        }
      ],
      "stateMutability": "view"
    },
    {
      "type": "function",
      "name": "precompileValidateFastFinalityAddress",
      "inputs": [],
      "outputs": [
        {
          "name": "",
          "type": "address",
          "internalType": "address"
        }
      ],
      "stateMutability": "view"
    },
    {
      "type": "function",
      "name": "setContract",
      "inputs": [
        {
          "name": "contractType",
          "type": "uint8",
          "internalType": "enum ContractType"
        },
        {
          "name": "addr",
          "type": "address",
          "internalType": "address"
        }
      ],
      "outputs": [],
      "stateMutability": "nonpayable"
    },
    {
      "type": "function",
      "name": "setCreditScoreConfigs",
      "inputs": [
        {
          "name": "_gainScore",
          "type": "uint256",
          "internalType": "uint256"
        },
        {
          "name": "_maxScore",
          "type": "uint256",
          "internalType": "uint256"
        },
        {
          "name": "_bailOutMultiplier",
          "type": "uint256",
          "internalType": "uint256"
        },
        {
          "name": "_cutOffPercentage",
          "type": "uint256",
          "internalType": "uint256"
        }
      ],
      "outputs": [],
      "stateMutability": "nonpayable"
    },
    {
      "type": "function",
      "name": "setDoubleSignSlashingConfigs",
      "inputs": [
        {
          "name": "_slashAmount",
          "type": "uint256",
          "internalType": "uint256"
        },
        {
          "name": "_jailUntilBlock",
          "type": "uint256",
          "internalType": "uint256"
        },
        {
          "name": "_offsetLimitBlock",
          "type": "uint256",
          "internalType": "uint256"
        }
      ],
      "outputs": [],
      "stateMutability": "nonpayable"
    },
    {
      "type": "function",
      "name": "setFastFinalitySlashingConfigs",
      "inputs": [
        {
          "name": "slashAmount",
          "type": "uint256",
          "internalType": "uint256"
        },
        {
          "name": "jailUntilBlock",
          "type": "uint256",
          "internalType": "uint256"
        }
      ],
      "outputs": [],
      "stateMutability": "nonpayable"
    },
    {
      "type": "function",
      "name": "setRandomBeaconSlashingConfigs",
      "inputs": [
        {
          "name": "slashAmount",
          "type": "uint256",
          "internalType": "uint256"
        },
        {
          "name": "activatedAtPeriod",
          "type": "uint256",
          "internalType": "uint256"
        }
      ],
      "outputs": [],
      "stateMutability": "nonpayable"
    },
    {
      "type": "function",
      "name": "setUnavailabilitySlashingConfigs",
      "inputs": [
        {
          "name": "tier1Threshold",
          "type": "uint256",
          "internalType": "uint256"
        },
        {
          "name": "tier2Threshold",
          "type": "uint256",
          "internalType": "uint256"
        },
        {
          "name": "slashAmountForTier2",
          "type": "uint256",
          "internalType": "uint256"
        },
        {
          "name": "jailDurationForTier2",
          "type": "uint256",
          "internalType": "uint256"
        }
      ],
      "outputs": [],
      "stateMutability": "nonpayable"
    },
    {
      "type": "function",
      "name": "slashDoubleSign",
      "inputs": [
        {
          "name": "consensusAddr",
          "type": "address",
          "internalType": "TConsensus"
        },
        {
          "name": "header1",
          "type": "bytes",
          "internalType": "bytes"
        },
        {
          "name": "header2",
          "type": "bytes",
          "internalType": "bytes"
        }
      ],
      "outputs": [],
      "stateMutability": "nonpayable"
    },
    {
      "type": "function",
      "name": "slashFastFinality",
      "inputs": [
        {
          "name": "consensusAddr",
          "type": "address",
          "internalType": "TConsensus"
        },
        {
          "name": "voterPublicKey",
          "type": "bytes",
          "internalType": "bytes"
        },
        {
          "name": "targetBlockNumber",
          "type": "uint256",
          "internalType": "uint256"
        },
        {
          "name": "targetBlockHash",
          "type": "bytes32[2]",
          "internalType": "bytes32[2]"
        },
        {
          "name": "listOfPublicKey",
          "type": "bytes[][2]",
          "internalType": "bytes[][2]"
        },
        {
          "name": "aggregatedSignature",
          "type": "bytes[2]",
          "internalType": "bytes[2]"
        }
      ],
      "outputs": [],
      "stateMutability": "nonpayable"
    },
    {
      "type": "function",
      "name": "slashRandomBeacon",
      "inputs": [
        {
          "name": "validatorId",
          "type": "address",
          "internalType": "address"
        },
        {
          "name": "period",
          "type": "uint256",
          "internalType": "uint256"
        }
      ],
      "outputs": [],
      "stateMutability": "nonpayable"
    },
    {
      "type": "function",
      "name": "slashUnavailability",
      "inputs": [
        {
          "name": "consensusAddr",
          "type": "address",
          "internalType": "TConsensus"
        }
      ],
      "outputs": [],
      "stateMutability": "nonpayable"
    },
    {
      "type": "event",
      "name": "BailedOut",
      "inputs": [
        {
          "name": "cid",
          "type": "address",
          "indexed": true,
          "internalType": "address"
        },
        {
          "name": "period",
          "type": "uint256",
          "indexed": false,
          "internalType": "uint256"
        },
        {
          "name": "usedCreditScore",
          "type": "uint256",
          "indexed": false,
          "internalType": "uint256"
        }
      ],
      "anonymous": false
    },
    {
      "type": "event",
      "name": "ContractUpdated",
      "inputs": [
        {
          "name": "contractType",
          "type": "uint8",
          "indexed": true,
          "internalType": "enum ContractType"
        },
        {
          "name": "addr",
          "type": "address",
          "indexed": true,
          "internalType": "address"
        }
      ],
      "anonymous": false
    },
    {
      "type": "event",
      "name": "CreditScoreConfigsUpdated",
      "inputs": [
        {
          "name": "gainCreditScore",
          "type": "uint256",
          "indexed": false,
          "internalType": "uint256"
        },
        {
          "name": "maxCreditScore",
          "type": "uint256",
          "indexed": false,
          "internalType": "uint256"
        },
        {
          "name": "bailOutCostMultiplier",
          "type": "uint256",
          "indexed": false,
          "internalType": "uint256"
        },
        {
          "name": "cutOffPercentageAfterBailout",
          "type": "uint256",
          "indexed": false,
          "internalType": "uint256"
        }
      ],
      "anonymous": false
    },
    {
      "type": "event",
      "name": "CreditScoresUpdated",
      "inputs": [
        {
          "name": "cids",
          "type": "address[]",
          "indexed": false,
          "internalType": "address[]"
        },
        {
          "name": "creditScores",
          "type": "uint256[]",
          "indexed": false,
          "internalType": "uint256[]"
        }
      ],
      "anonymous": false
    },
    {
      "type": "event",
      "name": "DoubleSignSlashingConfigsUpdated",
      "inputs": [
        {
          "name": "slashDoubleSignAmount",
          "type": "uint256",
          "indexed": false,
          "internalType": "uint256"
        },
        {
          "name": "doubleSigningJailUntilBlock",
          "type": "uint256",
          "indexed": false,
          "internalType": "uint256"
        },
        {
          "name": "doubleSigningOffsetLimitBlock",
          "type": "uint256",
          "indexed": false,
          "internalType": "uint256"
        }
      ],
      "anonymous": false
    },
    {
      "type": "event",
      "name": "FastFinalitySlashingConfigsUpdated",
      "inputs": [
        {
          "name": "slashFastFinalityAmount",
          "type": "uint256",
          "indexed": false,
          "internalType": "uint256"
        },
        {
          "name": "fastFinalityJailUntilBlock",
          "type": "uint256",
          "indexed": false,
          "internalType": "uint256"
        }
      ],
      "anonymous": false
    },
    {
      "type": "event",
      "name": "Initialized",
      "inputs": [
        {
          "name": "version",
          "type": "uint8",
          "indexed": false,
          "internalType": "uint8"
        }
      ],
      "anonymous": false
    },
    {
      "type": "event",
      "name": "RandomBeaconSlashingConfigsUpdated",
      "inputs": [
        {
          "name": "slashRandomBeaconAmount",
          "type": "uint256",
          "indexed": false,
          "internalType": "uint256"
        }
      ],
      "anonymous": false
    },
    {
      "type": "event",
      "name": "Slashed",
      "inputs": [
        {
          "name": "cid",
          "type": "address",
          "indexed": true,
          "internalType": "address"
        },
        {
          "name": "slashType",
          "type": "uint8",
          "indexed": false,
          "internalType": "enum IBaseSlash.SlashType"
        },
        {
          "name": "period",
          "type": "uint256",
          "indexed": false,
          "internalType": "uint256"
        }
      ],
      "anonymous": false
    },
    {
      "type": "event",
      "name": "SlashingBeaconSkipped",
      "inputs": [
        {
          "name": "period",
          "type": "uint256",
          "indexed": true,
          "internalType": "uint256"
        },
        {
          "name": "validatorId",
          "type": "address",
          "indexed": true,
          "internalType": "address"
        }
      ],
      "anonymous": false
    },
    {
      "type": "event",
      "name": "UnavailabilitySlashingConfigsUpdated",
      "inputs": [
        {
          "name": "unavailabilityTier1Threshold",
          "type": "uint256",
          "indexed": false,
          "internalType": "uint256"
        },
        {
          "name": "unavailabilityTier2Threshold",
          "type": "uint256",
          "indexed": false,
          "internalType": "uint256"
        },
        {
          "name": "slashAmountForUnavailabilityTier2Threshold",
          "type": "uint256",
          "indexed": false,
          "internalType": "uint256"
        },
        {
          "name": "jailDurationForUnavailabilityTier2Threshold",
          "type": "uint256",
          "indexed": false,
          "internalType": "uint256"
        }
      ],
      "anonymous": false
    },
    {
      "type": "error",
      "name": "ErrCallPrecompiled",
      "inputs": []
    },
    {
      "type": "error",
      "name": "ErrCallerMustBeJailedInTheCurrentPeriod",
      "inputs": []
    },
    {
      "type": "error",
      "name": "ErrCannotSlashAValidatorTwiceOrSlashMoreThanOneValidatorInOneBlock",
      "inputs": []
    },
    {
      "type": "error",
      "name": "ErrContractTypeNotFound",
      "inputs": [
        {
          "name": "contractType",
          "type": "uint8",
          "internalType": "enum ContractType"
        }
      ]
    },
    {
      "type": "error",
      "name": "ErrEvidenceAlreadySubmitted",
      "inputs": []
    },
    {
      "type": "error",
      "name": "ErrInsufficientCreditScoreToBailOut",
      "inputs": []
    },
    {
      "type": "error",
      "name": "ErrInvalidArguments",
      "inputs": [
        {
          "name": "msgSig",
          "type": "bytes4",
          "internalType": "bytes4"
        }
      ]
    },
    {
      "type": "error",
      "name": "ErrInvalidCreditScoreConfig",
      "inputs": []
    },
    {
      "type": "error",
      "name": "ErrInvalidCutOffPercentageConfig",
      "inputs": []
    },
    {
      "type": "error",
      "name": "ErrInvalidThreshold",
      "inputs": [
        {
          "name": "msgSig",
          "type": "bytes4",
          "internalType": "bytes4"
        }
      ]
    },
    {
      "type": "error",
      "name": "ErrUnauthorized",
      "inputs": [
        {
          "name": "msgSig",
          "type": "bytes4",
          "internalType": "bytes4"
        },
        {
          "name": "expectedRole",
          "type": "uint8",
          "internalType": "enum RoleAccess"
        }
      ]
    },
    {
      "type": "error",
      "name": "ErrUnexpectedInternalCall",
      "inputs": [
        {
          "name": "msgSig",
          "type": "bytes4",
          "internalType": "bytes4"
        },
        {
          "name": "expectedContractType",
          "type": "uint8",
          "internalType": "enum ContractType"
        },
        {
          "name": "actual",
          "type": "address",
          "internalType": "address"
        }
      ]
    },
    {
      "type": "error",
      "name": "ErrUnregisteredPublicKey",
      "inputs": []
    },
    {
      "type": "error",
      "name": "ErrValidatorHasBailedOutPreviously",
      "inputs": []
    },
    {
      "type": "error",
      "name": "ErrZeroCodeContract",
      "inputs": [
        {
          "name": "addr",
          "type": "address",
          "internalType": "address"
        }
      ]
    }
  ],
  "absolutePath": "SlashIndicator.sol",
  "address": "0x185F6a4b3052aB71a24Da9532f918D37CE238a6f",
  "blockNumber": 27813238,
  "bytecode": "0x6080604052348015600f57600080fd5b506016601a565b60db565b61011354610100900460ff161560865760405162461bcd60e51b815260206004820152602760248201527f496e697469616c697a61626c653a20636f6e747261637420697320696e697469604482015266616c697a696e6760c81b606482015260840160405180910390fd5b6101135460ff908116101560d957610113805460ff191660ff9081179091556040519081527f7f26b83ff96e1f2b6a682f133852f6798a09c465da95921460cefb38474024989060200160405180910390a15b565b613c2f806100ea6000396000f3fe608060405234801561001057600080fd5b50600436106101e55760003560e01c8063865e6fd31161010f578063d1f992f7116100a2578063e9bb166611610071578063e9bb1666146104b2578063f1001e78146104b9578063f562b3c4146104d9578063fd422cd0146104e157600080fd5b8063d1f992f714610455578063d3dd2bdf14610468578063de981f1b1461047b578063df4b6ee01461048e57600080fd5b8063ccbb72ed116100de578063ccbb72ed14610409578063cf39d13c1461041c578063d1737e271461042f578063d1cf43431461044257600080fd5b8063865e6fd3146103bf57806399103f7b146103d2578063a345ecb2146103e5578063c6391fa2146103f857600080fd5b80633101cfcb11610187578063487e00ea11610156578063487e00ea1461036357806362ffe6cb1461037e5780637c2b55a0146103915780638341df06146103ac57600080fd5b80633101cfcb1461029457806335cbdbe3146102a75780633d48fd7d146102ba578063478e6b93146102e757600080fd5b8063185368db116101c3578063185368db146102385780631e90b2a01461024b57806329b6eca91461025e57806329ddc3c01461027157600080fd5b806303933804146101ea57806307c2d2f6146101ff578063082e742014610212575b600080fd5b6101fd6101f8366004612c0f565b6104f4565b005b6101fd61020d366004612c90565b6105f3565b610225610220366004612cd2565b6106f3565b6040519081526020015b60405180910390f35b6101fd610246366004612cef565b610777565b6101fd610259366004612d7d565b610a8e565b6101fd61026c366004612cd2565b610cb5565b61028461027f366004612e00565b610e24565b604051901515815260200161022f565b6101fd6102a2366004612cd2565b610e3f565b6101fd6102b5366004612e00565b610f33565b60a55460a65460a75460a8545b60408051948552602085019390935291830152606082015260800161022f565b6040805180820182526000808252602091820152815180830183527f91c8f2da0132d5a54177c69679e2999120ba8f9ed42cabc35c99b69642ac8500548082527f91c8f2da0132d5a54177c69679e2999120ba8f9ed42cabc35c99b69642ac85015491830191825283519081529051918101919091520161022f565b601d54601e546040805192835260208301919091520161022f565b61022561038c366004612e00565b611135565b60675b6040516001600160a01b03909116815260200161022f565b6101fd6103ba366004612e2c565b611149565b6101fd6103cd366004612e5d565b61115f565b6101fd6103e0366004612eb6565b61117a565b6101fd6103f3366004612e2c565b611303565b60dd5460de5460df5460e0546102c7565b6101fd610417366004612f74565b611315565b6101fd61042a366004612fa6565b61132f565b6101fd61043d366004612f74565b611342565b6101fd610450366004612fd2565b611356565b6101fd610463366004612cd2565b6117c0565b610225610476366004612cd2565b611c6c565b610394610489366004613091565b611c9b565b6001546002546003546040805193845260208401929092529082015260600161022f565b6069610394565b6104cc6104c7366004612c90565b611d2f565b60405161022f91906130e8565b60a354610225565b6101fd6104ef366004612cd2565b611e2f565b61011354600490610100900460ff1615801561051857506101135460ff8083169116105b6105805760405162461bcd60e51b815260206004820152602e60248201527f496e697469616c697a61626c653a20636f6e747261637420697320616c72656160448201526d191e481a5b9a5d1a585b1a5e995960921b60648201526084015b60405180910390fd5b610113805461ffff191660ff83161761010017905561059f83836121d0565b6105aa601085612251565b610113805461ff001916905560405160ff821681527f7f26b83ff96e1f2b6a682f133852f6798a09c465da95921460cefb3847402498906020015b60405180910390a150505050565b60086105fe81612302565b60008267ffffffffffffffff811115610619576106196130fb565b604051908082528060200260200182016040528015610642578160200160208202803683370190505b50905060005b838110156106bf57600085858381811061066457610664613111565b90506020020160208101906106799190612cd2565b6001600160a01b038116600090815260dc602052604081205583519091508390839081106106a9576106a9613111565b6000602091820292909201015250600101610648565b507f8c02b2ccee964dc50649a48bd0a0446f0f9e88ecdb72d099f4ace07c39c234808484836040516105e593929190613165565b600061077161070183612367565b61070b6008611c9b565b6001600160a01b031663060406186040518163ffffffff1660e01b8152600401602060405180830381865afa158015610748573d6000803e3d6000fd5b505050506040513d601f19601f8201168201806040525081019061076c9190613195565b6123f8565b92915050565b600861078281612302565b60003390506000816001600160a01b031663297a8fca6040518163ffffffff1660e01b8152600401602060405180830381865afa1580156107c7573d6000803e3d6000fd5b505050506040513d601f19601f820116820180604052508101906107eb9190613195565b90506000826001600160a01b0316637e1dc16f88886040518363ffffffff1660e01b815260040161081d9291906131ae565b600060405180830381865afa15801561083a573d6000803e3d6000fd5b505050506040513d6000823e601f3d908101601f191682016040526108629190810190613274565b905060006108706005611c9b565b6001600160a01b0316638b042a72898986436040518563ffffffff1660e01b81526004016108a19493929190613311565b600060405180830381865afa1580156108be573d6000803e3d6000fd5b505050506040513d6000823e601f3d908101601f191682016040526108e69190810190613274565b905060008767ffffffffffffffff811115610903576109036130fb565b60405190808252806020026020018201604052801561092c578160200160208202803683370190505b50905060005b88811015610a475760008a8a8381811061094e5761094e613111565b90506020020160208101906109639190612cd2565b90506000610971828b6123f8565b9050600086848151811061098757610987613111565b6020026020010151905060008685815181106109a5576109a5613111565b60200260200101519050600082806109ba5750815b6109cf576109ca60dd5485612421565b6109d2565b60005b6001600160a01b038616600090815260dc602052604090205460de549192506109fc91839061243b565b6001600160a01b038616600090815260dc602052604090208190558751889088908110610a2b57610a2b613111565b6020026020010181815250508560010195505050505050610932565b507f8c02b2ccee964dc50649a48bd0a0446f0f9e88ecdb72d099f4ace07c39c23480898983604051610a7b93929190613165565b60405180910390a1505050505050505050565b610a96612458565b60008484604051610aa8929190613338565b6040518091039020905060008383604051610ac4929190613338565b604080519182900390912060008481526004602052919091205490915060ff1680610afd575060008181526004602052604090205460ff165b15610b1b5760405163f27b8ec960e01b815260040160405180910390fd5b600080610b27896124b4565b9150915081610b335750875b610b40818989898961254e565b15610caa576000610b516008611c9b565b90506000816001600160a01b031663060406186040518163ffffffff1660e01b8152600401602060405180830381865afa158015610b93573d6000803e3d6000fd5b505050506040513d601f19601f82011682018060405250810190610bb79190613195565b6000878152600460205260408082208054600160ff19918216811790925589845292829020805490931617909155519091506001600160a01b038416907f607adba66cff84b627e3537d1c17d088a98556bccd0536a2f3590c56329023d990610c2490600390859061335e565b60405180910390a260025460018054604051630bde081360e21b81526001600160a01b03878116600483015260248201949094526044810191909152606481019190915290831690632f78204c90608401600060405180830381600087803b158015610c8f57600080fd5b505af1158015610ca3573d6000803e3d6000fd5b5050505050505b505050505050505050565b61011354600290610100900460ff16158015610cd957506101135460ff8083169116105b610d3c5760405162461bcd60e51b815260206004820152602e60248201527f496e697469616c697a61626c653a20636f6e747261637420697320616c72656160448201526d191e481a5b9a5d1a585b1a5e995960921b6064820152608401610577565b610113805461ffff191660ff831617610100179055600054610d69906008906001600160a01b0316612251565b606c54610d81906005906001600160a01b0316612251565b610d8c600483612251565b603554610da490600a906001600160a01b0316612251565b6000805473ffffffffffffffffffffffffffffffffffffffff19908116909155606c8054821690556035805482169055603680549091169055610113805461ff001916905560405160ff821681527f7f26b83ff96e1f2b6a682f133852f6798a09c465da95921460cefb3847402498906020015b60405180910390a15050565b6000610e38610e3284612367565b8361263f565b9392505050565b61011354600390610100900460ff16158015610e6357506101135460ff8083169116105b610ec65760405162461bcd60e51b815260206004820152602e60248201527f496e697469616c697a61626c653a20636f6e747261637420697320616c72656160448201526d191e481a5b9a5d1a585b1a5e995960921b6064820152608401610577565b610113805461ffff191660ff831617610100179055610ee6600f83612251565b610ef460015460025461266b565b610113805461ff001916905560405160ff821681527f7f26b83ff96e1f2b6a682f133852f6798a09c465da95921460cefb384740249890602001610e18565b6010610f3e81612302565b6000610f4a6008611c9b565b6040805180820182527f91c8f2da0132d5a54177c69679e2999120ba8f9ed42cabc35c99b69642ac85005481527f91c8f2da0132d5a54177c69679e2999120ba8f9ed42cabc35c99b69642ac85015460208083019190915282517f06040618000000000000000000000000000000000000000000000000000000008152925193945090926000926001600160a01b038616926306040618926004808401938290030181865afa158015611001573d6000803e3d6000fd5b505050506040513d601f19601f820116820180604052508101906110259190613195565b90508160200151811015611071576040516001600160a01b0387169086907f110971beb246c5a515faae0544bdb1e3527fc70442b043a4df5e46a4acaeb36e90600090a3505050505050565b856001600160a01b03167f607adba66cff84b627e3537d1c17d088a98556bccd0536a2f3590c56329023d96009876040516110ad92919061335e565b60405180910390a28151604051630bde081360e21b81526001600160a01b0388811660048301526000602483018190526044830193909352606482019290925290841690632f78204c90608401600060405180830381600087803b15801561111457600080fd5b505af1158015611128573d6000803e3d6000fd5b505050505050505b505050565b6000610e3861114384612367565b836123f8565b611151612458565b61115b82826121d0565b5050565b611167612458565b611170816126ab565b61115b8282612251565b61011354610100900460ff161580801561119c575061011354600160ff909116105b806111b75750303b1580156111b757506101135460ff166001145b61121a5760405162461bcd60e51b815260206004820152602e60248201527f496e697469616c697a61626c653a20636f6e747261637420697320616c72656160448201526d191e481a5b9a5d1a585b1a5e995960921b6064820152608401610577565b610113805460ff19166001179055801561123f57610113805461ff0019166101001790555b61124a60088b612251565b61125560058a612251565b611260600488612251565b61126b600a89612251565b61127f8435602086013560408701356126fa565b6112988335602085013560408601356060870135612747565b6112b182356020840135604085013560608601356127e8565b801561112857610113805461ff0019169055604051600181527f7f26b83ff96e1f2b6a682f133852f6798a09c465da95921460cefb38474024989060200160405180910390a150505050505050505050565b61130b612458565b61115b828261266b565b61131d612458565b611329848484846127e8565b50505050565b611337612458565b6111308383836126fa565b61134a612458565b61132984848484612747565b61135f336128b7565b60000361138f576000356001600160e01b0319166003604051620f948f60ea1b815260040161057792919061337c565b600061139a88612367565b905060006113a8600f611c9b565b6040517ff46609400000000000000000000000000000000000000000000000000000000081526001600160a01b03848116600483015291925060009183169063f466094090602401600060405180830381865afa15801561140d573d6000803e3d6000fd5b505050506040513d6000823e601f3d908101601f191682016040526114359190810190613446565b905060008989604051611449929190613338565b604051809103902090508160a0015180519060200120811415801561147957508160e00151805190602001208114155b156114be576040517f053265f10000000000000000000000000000000000000000000000000000000081526001600160e01b0319600035166004820152602401610577565b6040516bffffffffffffffffffffffff1960608d901b1660208201526034810189905260009060540160408051601f1981840301815291815281516020928301206000818152601f90935291205490915060ff16156115305760405163f27b8ec960e01b815260040160405180910390fd5b6040517f7e18b5660000000000000000000000000000000000000000000000000000000081526001600160a01b03851690637e18b56690611575908a90600401613630565b602060405180830381865afa158015611592573d6000803e3d6000fd5b505050506040513d601f19601f820116820180604052508101906115b691906136c2565b6115ec576040517f1979097700000000000000000000000000000000000000000000000000000000815260040160405180910390fd5b6116628b8b8080601f016020809104026020016040519081016040528093929190818152602001838380828437600092019190915250506040805180820182528e935091508c90600290839083908082843760009201919091525061165491508c905061372e565b61165d8b613806565b612948565b156117b2576000818152601f60205260408120805460ff1916600117905561168a6008611c9b565b90506000816001600160a01b031663060406186040518163ffffffff1660e01b8152600401602060405180830381865afa1580156116cc573d6000803e3d6000fd5b505050506040513d601f19601f820116820180604052508101906116f09190613195565b9050866001600160a01b03167f607adba66cff84b627e3537d1c17d088a98556bccd0536a2f3590c56329023d960088360405161172e92919061335e565b60405180910390a2601e54601d54604051630bde081360e21b81526001600160a01b038a81166004830152602482019390935260448101919091526001606482015290831690632f78204c90608401600060405180830381600087803b15801561179757600080fd5b505af11580156117ab573d6000803e3d6000fd5b5050505050505b505050505050505050505050565b60006117cb82612367565b905060006117d96008611c9b565b6040517fa0c3f2d20000000000000000000000000000000000000000000000000000000081526001600160a01b0385811660048301529192509082169063a0c3f2d290602401602060405180830381865afa15801561183c573d6000803e3d6000fd5b505050506040513d601f19601f8201168201806040525081019061186091906136c2565b61188d576000356001600160e01b0319166008604051620f948f60ea1b815260040161057792919061337c565b6040517f46ebb2320000000000000000000000000000000000000000000000000000000081526001600160a01b0383811660048301523360248301528216906346ebb23290604401602060405180830381865afa1580156118f2573d6000803e3d6000fd5b505050506040513d601f19601f8201168201806040525081019061191691906136c2565b611943576000356001600160e01b0319166004604051620f948f60ea1b815260040161057792919061337c565b6040517f96585fc20000000000000000000000000000000000000000000000000000000081526001600160a01b03848116600483015260009182918416906396585fc290602401606060405180830381865afa1580156119a7573d6000803e3d6000fd5b505050506040513d601f19601f820116820180604052508101906119cb919061385f565b925050915081611a07576040517f6cd31b5900000000000000000000000000000000000000000000000000000000815260040160405180910390fd5b6000836001600160a01b031663060406186040518163ffffffff1660e01b8152600401602060405180830381865afa158015611a47573d6000803e3d6000fd5b505050506040513d601f19601f82011682018060405250810190611a6b9190613195565b6001600160a01b038616600090815260db6020908152604080832084845290915290205490915060ff1615611acc576040517f7674d6a900000000000000000000000000000000000000000000000000000000815260040160405180910390fd5b6001600160a01b038516600090815260dc602052604081205460df54909190611af590856138aa565b905080821015611b31576040517f8c5cb26e00000000000000000000000000000000000000000000000000000000815260040160405180910390fd5b6040517f15b5ebde0000000000000000000000000000000000000000000000000000000081526001600160a01b038881166004830152602482018590528716906315b5ebde90604401600060405180830381600087803b158015611b9457600080fd5b505af1158015611ba8573d6000803e3d6000fd5b505050506001600160a01b038716600090815260dc602052604081208054839290611bd49084906138c1565b90915550506001600160a01b038716600090815260a4602090815260408083208684529091528120556001600160a01b038716600081815260db60209081526040808320878452825291829020805460ff1916600117905581518681529081018490527f7ff9f7032d565c7e8919332964b2faa33c320b53604a65d9dd1f8112e12cd39d910160405180910390a25050505050505050565b600060dc6000611c7b84612367565b6001600160a01b0316815260208101919091526040016000205492915050565b60007fdea3103d22025c269050bea94c0c84688877f12fa22b7e6d2d5d78a9a49aa1cb6000836010811115611cd257611cd2613348565b60ff1681526020810191909152604001600020546001600160a01b0316905080611d2a57816040517f812281be00000000000000000000000000000000000000000000000000000000815260040161057791906138e8565b919050565b60606000611d6f8484808060200260200160405190810160405280939291908181526020018383602002808284376000920191909152506129d192505050565b9050805167ffffffffffffffff811115611d8b57611d8b6130fb565b604051908082528060200260200182016040528015611db4578160200160208202803683370190505b50915060005b8251811015611e275760dc6000838381518110611dd957611dd9613111565b60200260200101516001600160a01b03166001600160a01b0316815260200190815260200160002054838281518110611e1457611e14613111565b6020908102919091010152600101611dba565b505092915050565b60a3544311611e6a576040517f557fd09100000000000000000000000000000000000000000000000000000000815260040160405180910390fd5b4360a355334114611e9e576000356001600160e01b0319166002604051620f948f60ea1b815260040161057792919061337c565b6000611ea982612367565b9050611eb58282612a4d565b611ebd575050565b6000611ec96008611c9b565b90506000816001600160a01b031663060406186040518163ffffffff1660e01b8152600401602060405180830381865afa158015611f0b573d6000803e3d6000fd5b505050506040513d601f19601f82011682018060405250810190611f2f9190613195565b6001600160a01b038416600090815260a460209081526040808320848452909152812080546001019081905560a85492935091611f6d904390612bab565b905060a654820361203657846001600160a01b03167f607adba66cff84b627e3537d1c17d088a98556bccd0536a2f3590c56329023d9600285604051611fb492919061335e565b60405180910390a260a754604051630bde081360e21b81526001600160a01b0387811660048301526024820184905260448201929092526000606482015290851690632f78204c90608401600060405180830381600087803b15801561201957600080fd5b505af115801561202d573d6000803e3d6000fd5b505050506121c7565b60a55482036121c757600061204b868561263f565b90508061210b57856001600160a01b03167f607adba66cff84b627e3537d1c17d088a98556bccd0536a2f3590c56329023d960018660405161208e92919061335e565b60405180910390a2604051630bde081360e21b81526001600160a01b038781166004830152600060248301819052604483018190526064830152861690632f78204c90608401600060405180830381600087803b1580156120ee57600080fd5b505af1158015612102573d6000803e3d6000fd5b505050506121c5565b856001600160a01b03167f607adba66cff84b627e3537d1c17d088a98556bccd0536a2f3590c56329023d960078660405161214792919061335e565b60405180910390a260a754604051630bde081360e21b81526001600160a01b0388811660048301526024820185905260448201929092526001606482015290861690632f78204c90608401600060405180830381600087803b1580156121ac57600080fd5b505af11580156121c0573d6000803e3d6000fd5b505050505b505b50505050505b50565b7f91c8f2da0132d5a54177c69679e2999120ba8f9ed42cabc35c99b69642ac85008281557f91c8f2da0132d5a54177c69679e2999120ba8f9ed42cabc35c99b69642ac85018290556040518381527f3c00b102fc99ac0cdfbc7ab84559e84657b905a5b3183ff363b037402e0fc25c906020015b60405180910390a1505050565b807fdea3103d22025c269050bea94c0c84688877f12fa22b7e6d2d5d78a9a49aa1cb600084601081111561228757612287613348565b60ff1681526020810191909152604001600020805473ffffffffffffffffffffffffffffffffffffffff19166001600160a01b0392831617905581168260108111156122d5576122d5613348565b6040517f865d1c228a8ea13709cfe61f346f7ff67f1bbd4a18ff31ad3e7147350d317c5990600090a35050565b61230b81611c9b565b6001600160a01b0316336001600160a01b0316146121cd576000356001600160e01b03191681336040517f8383e634000000000000000000000000000000000000000000000000000000008152600401610577939291906138f6565b6000612373600f611c9b565b6040517f50a9fc290000000000000000000000000000000000000000000000000000000081526001600160a01b03848116600483015291909116906350a9fc2990602401602060405180830381865afa1580156123d4573d6000803e3d6000fd5b505050506040513d601f19601f82011682018060405250810190610771919061392b565b6001600160a01b038216600090815260a460209081526040808320848452909152812054610e38565b6000818311612431576000610e38565b610e3882846138c1565b600061245061244a8486613948565b83612bc6565b949350505050565b7fb53127684a568b3173ae13b9f8a6016e243e63b6e8ee1178d6a717850b5d6103546001600160a01b031633146124b2576000356001600160e01b0319166001604051620f948f60ea1b815260040161057792919061337c565b565b6000806124c1600f611c9b565b6040517f88660f2a0000000000000000000000000000000000000000000000000000000081526001600160a01b03858116600483015291909116906388660f2a906024016040805180830381865afa158015612521573d6000803e3d6000fd5b505050506040513d601f19601f82011682018060405250810190612545919061395b565b91509150915091565b6040516000906067906001908390612572908a908a908a908a908a90602401613987565b60408051601f198184030181529190526020810180517bffffffffffffffffffffffffffffffffffffffffffffffffffffffff167f7fc356770000000000000000000000000000000000000000000000000000000017905280519091506125d7612bdc565b602083016020828483895afa6125ec57600094505b503d6125f757600093505b8361262e576040517f0fc2632100000000000000000000000000000000000000000000000000000000815260040160405180910390fd5b5115159a9950505050505050505050565b6001600160a01b038216600090815260db6020908152604080832084845290915281205460ff16610e38565b601d829055601e81905560408051838152602081018390527f381ec200df2ed0875638486318f9f8a84e3550bdc686bf1400c9371a18d087f09101610e18565b806001600160a01b03163b6000036121cd576040517f2ff1928c0000000000000000000000000000000000000000000000000000000081526001600160a01b0382166004820152602401610577565b60018390556002829055600381905560408051848152602081018490529081018290527f913da102149f952dde560cef3349db8e8002e9d580c41a7551d6d45329f4306b90606001612244565b8284111561278f576040517f87f6f0950000000000000000000000000000000000000000000000000000000081526001600160e01b0319600035166004820152602401610577565b60a584905560a683905560a782905560a88190556040805185815260208101859052908101839052606081018290527f442862e6143ad95854e7c13ff4947ec6e43bc87160e3b193e7c1abaf6e3aaa98906080016105e5565b82841115612822576040517f112af4d100000000000000000000000000000000000000000000000000000000815260040160405180910390fd5b61271081111561285e576040517fe0b2228c00000000000000000000000000000000000000000000000000000000815260040160405180910390fd5b60dd84905560de83905560df82905560e08190556040805185815260208101859052908101839052606081018290527fe1f9c6c73554b5fa140eead3cfd4ec3e6d4824f3ed26fb25e38376f65b95470b906080016105e5565b60006128c3600a611c9b565b6040517fd78392f80000000000000000000000000000000000000000000000000000000081526001600160a01b038481166004830152919091169063d78392f890602401602060405180830381865afa158015612924573d6000803e3d6000fd5b505050506040513d601f19601f820116820180604052508101906107719190613195565b604051600090606990600190839061296c908a908a908a908a908a90602401613a3a565b60408051601f198184030181529190526020810180517bffffffffffffffffffffffffffffffffffffffffffffffffffffffff167f7b47d06b0000000000000000000000000000000000000000000000000000000017905280519091506125d7612bdc565b60606129dd600f611c9b565b6001600160a01b031663f9226b1a836040518263ffffffff1660e01b8152600401612a089190613b1d565b600060405180830381865afa158015612a25573d6000803e3d6000fd5b505050506040513d6000823e601f3d908101601f191682016040526107719190810190613b6a565b6000336001600160a01b03841614801590612a715750336001600160a01b03831614155b8015612b075750612a826008611c9b565b6040517fe8712aa70000000000000000000000000000000000000000000000000000000081526001600160a01b038481166004830152919091169063e8712aa790602401602060405180830381865afa158015612ae3573d6000803e3d6000fd5b505050506040513d601f19601f82011682018060405250810190612b0791906136c2565b8015610e385750612b186005611c9b565b6040517f8d5b67590000000000000000000000000000000000000000000000000000000081526001600160a01b0384811660048301524360248301529190911690638d5b675990604401602060405180830381865afa158015612b7f573d6000803e3d6000fd5b505050506040513d601f19601f82011682018060405250810190612ba391906136c2565b159392505050565b600081600003612bbc576000610e38565b610e388284613948565b6000818310612bd55781610e38565b5090919050565b60405180602001604052806001906020820280368337509192915050565b6001600160a01b03811681146121cd57600080fd5b600080600060608486031215612c2457600080fd5b8335612c2f81612bfa565b95602085013595506040909401359392505050565b60008083601f840112612c5657600080fd5b50813567ffffffffffffffff811115612c6e57600080fd5b6020830191508360208260051b8501011115612c8957600080fd5b9250929050565b60008060208385031215612ca357600080fd5b823567ffffffffffffffff811115612cba57600080fd5b612cc685828601612c44565b90969095509350505050565b600060208284031215612ce457600080fd5b8135610e3881612bfa565b600080600060408486031215612d0457600080fd5b833567ffffffffffffffff811115612d1b57600080fd5b612d2786828701612c44565b909790965060209590950135949350505050565b60008083601f840112612d4d57600080fd5b50813567ffffffffffffffff811115612d6557600080fd5b602083019150836020828501011115612c8957600080fd5b600080600080600060608688031215612d9557600080fd5b8535612da081612bfa565b9450602086013567ffffffffffffffff80821115612dbd57600080fd5b612dc989838a01612d3b565b90965094506040880135915080821115612de257600080fd5b50612def88828901612d3b565b969995985093965092949392505050565b60008060408385031215612e1357600080fd5b8235612e1e81612bfa565b946020939093013593505050565b60008060408385031215612e3f57600080fd5b50508035926020909101359150565b803560118110611d2a57600080fd5b60008060408385031215612e7057600080fd5b612e7983612e4e565b91506020830135612e8981612bfa565b809150509250929050565b806080810183101561077157600080fd5b806040810183101561077157600080fd5b60008060008060008060008060006102a08a8c031215612ed557600080fd5b8935612ee081612bfa565b985060208a0135612ef081612bfa565b975060408a0135612f0081612bfa565b965060608a0135612f1081612bfa565b9550612f1f8b60808c01612e94565b9450612f2f8b6101008c01612ea5565b93506101a08a018b811115612f4357600080fd5b6101408b019350612f548c82612e94565b925050612f658b6102208c01612e94565b90509295985092959850929598565b60008060008060808587031215612f8a57600080fd5b5050823594602084013594506040840135936060013592509050565b600080600060608486031215612fbb57600080fd5b505081359360208301359350604090920135919050565b600080600080600080600060e0888a031215612fed57600080fd5b8735612ff881612bfa565b9650602088013567ffffffffffffffff8082111561301557600080fd5b6130218b838c01612d3b565b909850965060408a0135955086915061303d8b60608c01612ea5565b945060a08a013591508082111561305357600080fd5b61305f8b838c01612ea5565b935060c08a013591508082111561307557600080fd5b506130828a828b01612ea5565b91505092959891949750929550565b6000602082840312156130a357600080fd5b610e3882612e4e565b60008151808452602080850194506020840160005b838110156130dd578151875295820195908201906001016130c1565b509495945050505050565b602081526000610e3860208301846130ac565b634e487b7160e01b600052604160045260246000fd5b634e487b7160e01b600052603260045260246000fd5b8183526000602080850194508260005b858110156130dd57813561314a81612bfa565b6001600160a01b031687529582019590820190600101613137565b604081526000613179604083018587613127565b828103602084015261318b81856130ac565b9695505050505050565b6000602082840312156131a757600080fd5b5051919050565b602081526000612450602083018486613127565b604051610180810167ffffffffffffffff811182821017156131e6576131e66130fb565b60405290565b6040805190810167ffffffffffffffff811182821017156131e6576131e66130fb565b604051601f8201601f1916810167ffffffffffffffff81118282101715613238576132386130fb565b604052919050565b600067ffffffffffffffff82111561325a5761325a6130fb565b5060051b60200190565b80518015158114611d2a57600080fd5b6000602080838503121561328757600080fd5b825167ffffffffffffffff81111561329e57600080fd5b8301601f810185136132af57600080fd5b80516132c26132bd82613240565b61320f565b81815260059190911b820183019083810190878311156132e157600080fd5b928401925b82841015613306576132f784613264565b825292840192908401906132e6565b979650505050505050565b606081526000613325606083018688613127565b6020830194909452506040015292915050565b8183823760009101908152919050565b634e487b7160e01b600052602160045260246000fd5b60408101600a841061337257613372613348565b9281526020015290565b6001600160e01b03198316815260408101600b831061339d5761339d613348565b8260208301529392505050565b8051611d2a81612bfa565b600067ffffffffffffffff8211156133cf576133cf6130fb565b50601f01601f191660200190565b60005b838110156133f85781810151838201526020016133e0565b50506000910152565b600082601f83011261341257600080fd5b81516134206132bd826133b5565b81815284602083860101111561343557600080fd5b6124508260208301602087016133dd565b60006020828403121561345857600080fd5b815167ffffffffffffffff8082111561347057600080fd5b90830190610180828603121561348557600080fd5b61348d6131c2565b613496836133aa565b81526134a4602084016133aa565b60208201526134b5604084016133aa565b60408201526134c6606084016133aa565b60608201526134d7608084016133aa565b608082015260a0830151828111156134ee57600080fd5b6134fa87828601613401565b60a08301525060c083015160c082015260e08301518281111561351c57600080fd5b61352887828601613401565b60e083015250610100915061353e8284016133aa565b918101919091526101208281015190820152610140808301519082015261016091820151918101919091529392505050565b81835281816020850137506000828201602090810191909152601f909101601f19169091010190565b6000838385526020808601955060208560051b8301018460005b8781101561362357848303601f19018952813536889003601e190181126135d957600080fd5b8701848101903567ffffffffffffffff8111156135f557600080fd5b80360382131561360457600080fd5b61360f858284613570565b9a86019a94505050908301906001016135b3565b5090979650505050505050565b60208082526000906060830183820185845b60028110156136b657868403601f19018352813536899003601e1901811261366957600080fd5b8801858101903567ffffffffffffffff81111561368557600080fd5b8060051b360382131561369757600080fd5b6136a2868284613599565b955050509184019190840190600101613642565b50919695505050505050565b6000602082840312156136d457600080fd5b610e3882613264565b600082601f8301126136ee57600080fd5b81356136fc6132bd826133b5565b81815284602083860101111561371157600080fd5b816020850160208301376000918101602001919091529392505050565b60006137386131ec565b80604084013681111561374a57600080fd5b845b818110156137fc57803567ffffffffffffffff8082111561376d5760008081fd5b9087019036601f8301126137815760008081fd5b813560206137916132bd83613240565b82815260059290921b840181019181810190368411156137b15760008081fd5b8286015b848110156137e9578035868111156137cd5760008081fd5b6137db3686838b01016136dd565b8452509183019183016137b5565b508952509096019550505060200161374c565b5090949350505050565b60006138106131ec565b80604084013681111561382257600080fd5b845b818110156137fc57803567ffffffffffffffff8111156138445760008081fd5b613850368289016136dd565b85525060209384019301613824565b60008060006060848603121561387457600080fd5b61387d84613264565b925060208401519150604084015190509250925092565b634e487b7160e01b600052601160045260246000fd5b808202811582820484141761077157610771613894565b8181038181111561077157610771613894565b601181106138e4576138e4613348565b9052565b6020810161077182846138d4565b6001600160e01b0319841681526060810161391460208301856138d4565b6001600160a01b0383166040830152949350505050565b60006020828403121561393d57600080fd5b8151610e3881612bfa565b8082018082111561077157610771613894565b6000806040838503121561396e57600080fd5b61397783613264565b91506020830151612e8981612bfa565b6001600160a01b03861681526060602082015260006139aa606083018688613570565b82810360408401526139bd818587613570565b98975050505050505050565b600081518084526139e18160208601602086016133dd565b601f01601f19169290920160200192915050565b600082604081018360005b6002811015613a2f578383038752613a198383516139c9565b6020978801979093509190910190600101613a00565b509095945050505050565b60c081526000613a4d60c08301886139c9565b60208781850152604084018760005b6002811015613a7957815183529183019190830190600101613a5c565b505050838203608085015281604081018760005b6002811015613afa578583038452815180518085529086019086850190600581901b8601880160005b82811015613ae457601f19888303018452613ad28286516139c9565b948a0194938a01939150600101613ab6565b5096880196955050509185019150600101613a8d565b505085810360a0870152613b0e81886139f5565b9b9a5050505050505050505050565b6020808252825182820181905260009190848201906040850190845b81811015613b5e5783516001600160a01b031683529284019291840191600101613b39565b50909695505050505050565b60006020808385031215613b7d57600080fd5b825167ffffffffffffffff811115613b9457600080fd5b8301601f81018513613ba557600080fd5b8051613bb36132bd82613240565b81815260059190911b82018301908381019087831115613bd257600080fd5b928401925b82841015613306578351613bea81612bfa565b82529284019290840190613bd756fea2646970667358221220328be8ee6b210ea66eda1f1704a261d1897152a1e2aa57893e4ed9673803f4fb64736f6c63430008190033",
  "callValue": 0,
  "chainId": 2021,
  "constructorArgs": "0x",
  "contractName": "SlashIndicator",
  "deployer": "0x968D0Cd7343f711216817E617d3f92a23dC91c07",
  "devdoc": {
    "version": 1,
    "kind": "dev",
    "methods": {
      "bailOut(address)": {
        "details": "A slashed validator use this method to get out of jail. Requirements: - The `_consensusAddr` must be a validator. - Only validator's admin can call this method. Emits the event `BailedOut`."
      },
      "checkBailedOutAtPeriod(address,uint256)": {
        "details": "Returns the whether the `consensus` has been bailed out at the `period`."
      },
      "currentUnavailabilityIndicator(address)": {
        "details": "Returns the current unavailability indicator of a block producer."
      },
      "execResetCreditScores(address[])": {
        "details": "Resets the credit score for the revoked validators. Requirements: - Only validator contract can call this method. - This method is only called at the end of each period. Emits the event `CreditScoresUpdated`."
      },
      "execUpdateCreditScores(address[],uint256)": {
        "details": "Updates the credit score for the validators. Requirements: - Only validator contract can call this method. - This method is only called at the end of each period. Emits the event `CreditScoresUpdated`."
      },
      "getContract(uint8)": {
        "details": "Returns the address of a contract with a specific role. Throws an error if no contract is set for the specified role.",
        "params": {
          "contractType": "The role of the contract to retrieve."
        },
        "returns": {
          "contract_": "The address of the contract with the specified role."
        }
      },
      "getCreditScore(address)": {
        "details": "Returns the current credit score of the validator."
      },
      "getCreditScoreConfigs()": {
        "details": "Returns the configs related to credit score.",
        "returns": {
          "bailOutCostMultiplier_": "The number that will be multiplied with the remaining jailed time to get the cost of bailing out.",
          "cutOffPercentageAfterBailout_": "The percentage of reward that the block producer will be cut off from until the end of the period after bailing out.",
          "gainCreditScore_": "The score to gain per period.",
          "maxCreditScore_": "The max number of credit score that a validator can hold."
        }
      },
      "getDoubleSignSlashingConfigs()": {
        "details": "Returns the configs related to block producer slashing.",
        "params": {
          "_doubleSigningOffsetLimitBlock": "The number of block that the current block is at most far from the double signing block."
        },
        "returns": {
          "doubleSigningJailUntilBlock_": "The block number that the punished validator will be jailed until, due to double signing.",
          "slashDoubleSignAmount_": "The amount of RON to slash double sign."
        }
      },
      "getFastFinalitySlashingConfigs()": {
        "details": "Returns the configs related to block producer slashing.",
        "returns": {
          "fastFinalityJailUntilBlock_": "The block number that the punished validator will be jailed until, due to malicious fast finality.",
          "slashFastFinalityAmount_": "The amount of RON to slash fast finality."
        }
      },
      "getManyCreditScores(address[])": {
        "details": "Returns the current credit score of a list of validators."
      },
      "getRandomBeaconSlashingConfigs()": {
        "details": "Returns the configs related to block producer slashing.",
        "returns": {
          "config": "The random beacon slash configs."
        }
      },
      "getUnavailabilityIndicator(address,uint256)": {
        "details": "Returns the unavailability indicator in the period `period` of a block producer."
      },
      "getUnavailabilitySlashingConfigs()": {
        "details": "Returns the configs related to block producer slashing.",
        "returns": {
          "jailDurationForUnavailabilityTier2Threshold_": "The number of blocks to jail a block producer when (s)he is slashed with tier-2 or tier-3.",
          "slashAmountForUnavailabilityTier2Threshold_": "The amount of RON to deduct from self-staking of a block producer when (s)he is slashed with tier-2 or tier-3.",
          "unavailabilityTier1Threshold_": "The mining reward will be deprecated, if (s)he missed more than this threshold. This threshold is applied for tier-1 and tier-3 slash.",
          "unavailabilityTier2Threshold_": " The mining reward will be deprecated, (s)he will be put in jailed, and will be deducted self-staking if (s)he misses more than this threshold. This threshold is applied for tier-2 slash."
        }
      },
      "initialize(address,address,address,address,uint256[4],uint256[2],uint256[3],uint256[4],uint256[4])": {
        "details": "Initializes the contract storage."
      },
      "lastUnavailabilitySlashedBlock()": {
        "details": "Returns the last block that a block producer is slashed for unavailability."
      },
      "precompileValidateDoubleSignAddress()": {
        "details": "Gets the address of the precompile of validating double sign evidence"
      },
      "precompileValidateFastFinalityAddress()": {
        "details": "Gets the address of the precompile of validating double sign evidence"
      },
      "setContract(uint8,address)": {
        "details": "Sets the address of a contract with a specific role. Emits the event {ContractUpdated}.",
        "params": {
          "addr": "The address of the contract to set.",
          "contractType": "The role of the contract to set."
        }
      },
      "setCreditScoreConfigs(uint256,uint256,uint256,uint256)": {
        "details": "Sets the configs to credit score. Requirements: - The method caller is admin. Emits the event `CreditScoreConfigsUpdated`.",
        "params": {
          "_bailOutMultiplier": "The number that will be multiplied with the remaining jailed time to get the cost of bailing out.",
          "_cutOffPercentage": "The percentage of reward that the block producer will be cut off from until the end of the period after bailing out.",
          "_gainScore": "The score to gain per period.",
          "_maxScore": "The max number of credit score that a validator can hold."
        }
      },
      "setDoubleSignSlashingConfigs(uint256,uint256,uint256)": {
        "details": "Sets the configs to slash block producers. Requirements: - The method caller is admin. Emits the event `DoubleSignSlashingConfigsUpdated`.",
        "params": {
          "_doubleSigningOffsetLimitBlock": "The number of block that the current block is at most far from the double signing block.",
          "_jailUntilBlock": "The block number that the punished validator will be jailed until, due to double signing.",
          "_slashAmount": "The amount of RON to slash double sign."
        }
      },
      "setFastFinalitySlashingConfigs(uint256,uint256)": {
        "details": "Sets the configs to slash block producers. Requirements: - The method caller is admin. Emits the event `FastFinalitySlashingConfigsUpdated`.",
        "params": {
          "jailUntilBlock": "The block number that the punished validator will be jailed until, due to fast finality.",
          "slashAmount": "The amount of RON to slash fast finality."
        }
      },
      "setRandomBeaconSlashingConfigs(uint256,uint256)": {
        "details": "Sets the configs to slash block producers. Requirements: - The method caller is admin. Emits the event `RandomBeaconSlashingConfigsUpdated`.",
        "params": {
          "activatedAtPeriod": "The period to activate the slashing.",
          "slashAmount": "The amount of RON to slash random beacon."
        }
      },
      "setUnavailabilitySlashingConfigs(uint256,uint256,uint256,uint256)": {
        "details": "Sets the configs to slash block producers. Requirements: - The method caller is admin. Emits the event `BridgeOperatorSlashingConfigsUpdated`.",
        "params": {
          "jailDurationForTier2Threshold": "The number of blocks to jail a block producer when (s)he is slashed tier-2.",
          "slashAmountForTier2Threshold": "The amount of RON to deduct from self-staking of a block producer when (s)he is slashed tier-2.",
          "tier1Threshold": "The mining reward will be deprecated, if (s)he missed more than this threshold.",
          "tier2Threshold": "The mining reward will be deprecated, (s)he will be put in jailed, and will be deducted self-staking if (s)he misses more than this threshold."
        }
      },
      "slashDoubleSign(address,bytes,bytes)": {
        "details": "Slashes for double signing. Requirements: - The method caller is coinbase. Emits the event `Slashed` if the double signing evidence of the two headers valid."
      },
      "slashFastFinality(address,bytes,uint256,bytes32[2],bytes[][2],bytes[2])": {
        "details": "Slashes for fast finality. Requirements: - Only whitelisted addresses are allowed to call. Emits the event `Slashed` if the fast finality evidence of the two headers valid."
      },
      "slashRandomBeacon(address,uint256)": {
        "details": "Slashes for random beacon. Requirements: - Only RandomBeacon contract is allowed to call. Emits the event `Slashed`.",
        "params": {
          "period": "The current period.",
          "validatorId": "The id of the validator."
        }
      },
      "slashUnavailability(address)": {
        "details": "Slashes for unavailability by increasing the counter of block producer `consensusAddr`. Requirements: - The method caller is coinbase. Emits the event `Slashed` when the threshold is reached."
      }
    },
    "events": {
      "BailedOut(address,uint256,uint256)": {
        "details": "Emitted when a validator bailed out of jail."
      },
      "ContractUpdated(uint8,address)": {
        "details": "Emitted when a contract is updated."
      },
      "CreditScoreConfigsUpdated(uint256,uint256,uint256,uint256)": {
        "details": "Emitted when the configs to credit score is updated. See the method `setCreditScoreConfigs` for param details."
      },
      "CreditScoresUpdated(address[],uint256[])": {
        "details": "Emitted the credit score of validators is updated."
      },
      "DoubleSignSlashingConfigsUpdated(uint256,uint256,uint256)": {
        "details": "Emitted when the configs to slash double sign is updated. See the method `getDoubleSignSlashingConfigs` for param details."
      },
      "FastFinalitySlashingConfigsUpdated(uint256,uint256)": {
        "details": "Emitted when the configs to slash fast finality is updated. See the method `getFastFinalitySlashingConfigs` for param details."
      },
      "Initialized(uint8)": {
        "details": "Triggered when the contract has been initialized or reinitialized."
      },
      "RandomBeaconSlashingConfigsUpdated(uint256)": {
        "details": "Emitted when the configs to slash random beacon is updated. See the method `getRandomBeaconSlashingConfigs` for param details."
      },
      "Slashed(address,uint8,uint256)": {
        "details": "Emitted when the validator is slashed."
      },
      "SlashingBeaconSkipped(uint256,address)": {
        "details": "Emitted when current period is less than `activatedAtPeriod` and validator is not slashed."
      },
      "UnavailabilitySlashingConfigsUpdated(uint256,uint256,uint256,uint256)": {
        "details": "Emitted when the configs to slash bridge operator is updated. See the method `getUnavailabilitySlashingConfigs` for param details."
      }
    },
    "errors": {
      "ErrCallPrecompiled()": [
        {
          "details": "Error of call to precompile fails."
        }
      ],
      "ErrCallerMustBeJailedInTheCurrentPeriod()": [
        {
          "details": "Error thrown when the caller must be jailed in the current period."
        }
      ],
      "ErrCannotSlashAValidatorTwiceOrSlashMoreThanOneValidatorInOneBlock()": [
        {
          "details": "Error thrown when attempting to slash a validator twice or slash more than one validator in one block."
        }
      ],
      "ErrContractTypeNotFound(uint8)": [
        {
          "details": "Error of invalid role."
        }
      ],
      "ErrEvidenceAlreadySubmitted()": [
        {
          "details": "Error thrown when evidence has already been submitted."
        }
      ],
      "ErrInsufficientCreditScoreToBailOut()": [
        {
          "details": "Error thrown when the caller's credit score is insufficient to bail out a situation."
        }
      ],
      "ErrInvalidArguments(bytes4)": [
        {
          "details": "Error indicating that arguments are invalid."
        }
      ],
      "ErrInvalidCreditScoreConfig()": [
        {
          "details": "Error thrown when an invalid credit score configuration is provided."
        }
      ],
      "ErrInvalidCutOffPercentageConfig()": [
        {
          "details": "Error thrown when an invalid cut-off percentage configuration is provided."
        }
      ],
      "ErrInvalidThreshold(bytes4)": [
        {
          "details": "Error indicating that the provided threshold is invalid for a specific function signature.",
          "params": {
            "msgSig": "The function signature (bytes4) that the invalid threshold applies to."
          }
        }
      ],
      "ErrUnauthorized(bytes4,uint8)": [
        {
          "details": "Error indicating that the caller is unauthorized to perform a specific function.",
          "params": {
            "expectedRole": "The role required to perform the function.",
            "msgSig": "The function signature (bytes4) that the caller is unauthorized to perform."
          }
        }
      ],
      "ErrUnexpectedInternalCall(bytes4,uint8,address)": [
        {
          "details": "Error indicating that the caller is unauthorized to perform a specific function.",
          "params": {
            "actual": "The actual address that called to the function.",
            "expectedContractType": "The contract type required to perform the function.",
            "msgSig": "The function signature (bytes4)."
          }
        }
      ],
      "ErrUnregisteredPublicKey()": [
        {
          "details": "Error thrown when public key in evidence is not registered."
        }
      ],
      "ErrValidatorHasBailedOutPreviously()": [
        {
          "details": "Error thrown when a validator has previously bailed out."
        }
      ],
      "ErrZeroCodeContract(address)": [
        {
          "details": "Error of set to non-contract."
        }
      ]
    }
  },
  "isFoundry": true,
  "nonce": 194391,
  "storageLayout": {
    "storage": [
      {
        "astId": 45344,
        "contract": "contracts/ronin/slash-indicator/SlashIndicator.sol:SlashIndicator",
        "label": "______deprecatedValidator",
        "offset": 0,
        "slot": "0",
        "type": "t_address"
      },
      {
        "astId": 35071,
        "contract": "contracts/ronin/slash-indicator/SlashIndicator.sol:SlashIndicator",
        "label": "_slashDoubleSignAmount",
        "offset": 0,
        "slot": "1",
        "type": "t_uint256"
      },
      {
        "astId": 35074,
        "contract": "contracts/ronin/slash-indicator/SlashIndicator.sol:SlashIndicator",
        "label": "_doubleSigningJailUntilBlock",
        "offset": 0,
        "slot": "2",
        "type": "t_uint256"
      },
      {
        "astId": 35077,
        "contract": "contracts/ronin/slash-indicator/SlashIndicator.sol:SlashIndicator",
        "label": "_doubleSigningOffsetLimitBlock",
        "offset": 0,
        "slot": "3",
        "type": "t_uint256"
      },
      {
        "astId": 35082,
        "contract": "contracts/ronin/slash-indicator/SlashIndicator.sol:SlashIndicator",
        "label": "_submittedEvidence",
        "offset": 0,
        "slot": "4",
        "type": "t_mapping(t_bytes32,t_bool)"
      },
      {
        "astId": 35087,
        "contract": "contracts/ronin/slash-indicator/SlashIndicator.sol:SlashIndicator",
        "label": "______gap",
        "offset": 0,
        "slot": "5",
        "type": "t_array(t_uint256)24_storage"
      },
      {
        "astId": 35305,
        "contract": "contracts/ronin/slash-indicator/SlashIndicator.sol:SlashIndicator",
        "label": "_slashFastFinalityAmount",
        "offset": 0,
        "slot": "29",
        "type": "t_uint256"
      },
      {
        "astId": 35308,
        "contract": "contracts/ronin/slash-indicator/SlashIndicator.sol:SlashIndicator",
        "label": "_fastFinalityJailUntilBlock",
        "offset": 0,
        "slot": "30",
        "type": "t_uint256"
      },
      {
        "astId": 35313,
        "contract": "contracts/ronin/slash-indicator/SlashIndicator.sol:SlashIndicator",
        "label": "_processedEvidence",
        "offset": 0,
        "slot": "31",
        "type": "t_mapping(t_bytes32,t_bool)"
      },
      {
        "astId": 35318,
        "contract": "contracts/ronin/slash-indicator/SlashIndicator.sol:SlashIndicator",
        "label": "______gap",
        "offset": 0,
        "slot": "32",
        "type": "t_array(t_uint256)21_storage"
      },
      {
        "astId": 45356,
        "contract": "contracts/ronin/slash-indicator/SlashIndicator.sol:SlashIndicator",
        "label": "______deprecatedTrustedOrg",
        "offset": 0,
        "slot": "53",
        "type": "t_address"
      },
      {
        "astId": 45360,
        "contract": "contracts/ronin/slash-indicator/SlashIndicator.sol:SlashIndicator",
        "label": "______deprecatedGovernanceAdmin",
        "offset": 0,
        "slot": "54",
        "type": "t_address"
      },
      {
        "astId": 35040,
        "contract": "contracts/ronin/slash-indicator/SlashIndicator.sol:SlashIndicator",
        "label": "__deprecatedBridgeVotingSlashed",
        "offset": 0,
        "slot": "55",
        "type": "t_mapping(t_address,t_mapping(t_uint256,t_bool))"
      },
      {
        "astId": 35043,
        "contract": "contracts/ronin/slash-indicator/SlashIndicator.sol:SlashIndicator",
        "label": "__deprecatedBridgeVotingThreshold",
        "offset": 0,
        "slot": "56",
        "type": "t_uint256"
      },
      {
        "astId": 35046,
        "contract": "contracts/ronin/slash-indicator/SlashIndicator.sol:SlashIndicator",
        "label": "__deprecatedBridgeVotingSlashAmount",
        "offset": 0,
        "slot": "57",
        "type": "t_uint256"
      },
      {
        "astId": 35051,
        "contract": "contracts/ronin/slash-indicator/SlashIndicator.sol:SlashIndicator",
        "label": "______gap",
        "offset": 0,
        "slot": "58",
        "type": "t_array(t_uint256)50_storage"
      },
      {
        "astId": 45352,
        "contract": "contracts/ronin/slash-indicator/SlashIndicator.sol:SlashIndicator",
        "label": "______deprecatedMaintenance",
        "offset": 0,
        "slot": "108",
        "type": "t_address"
      },
      {
        "astId": 35003,
        "contract": "contracts/ronin/slash-indicator/SlashIndicator.sol:SlashIndicator",
        "label": "____deprecatedMissingVotesRatioTier1",
        "offset": 0,
        "slot": "109",
        "type": "t_uint256"
      },
      {
        "astId": 35006,
        "contract": "contracts/ronin/slash-indicator/SlashIndicator.sol:SlashIndicator",
        "label": "____deprecatedMissingVotesRatioTier2",
        "offset": 0,
        "slot": "110",
        "type": "t_uint256"
      },
      {
        "astId": 35009,
        "contract": "contracts/ronin/slash-indicator/SlashIndicator.sol:SlashIndicator",
        "label": "____deprecatedJailDurationForMissingVotesRatioTier2",
        "offset": 0,
        "slot": "111",
        "type": "t_uint256"
      },
      {
        "astId": 35012,
        "contract": "contracts/ronin/slash-indicator/SlashIndicator.sol:SlashIndicator",
        "label": "____deprecatedSkipBridgeOperatorSlashingThreshold",
        "offset": 0,
        "slot": "112",
        "type": "t_uint256"
      },
      {
        "astId": 35017,
        "contract": "contracts/ronin/slash-indicator/SlashIndicator.sol:SlashIndicator",
        "label": "______gap",
        "offset": 0,
        "slot": "113",
        "type": "t_array(t_uint256)50_storage"
      },
      {
        "astId": 36161,
        "contract": "contracts/ronin/slash-indicator/SlashIndicator.sol:SlashIndicator",
        "label": "_lastUnavailabilitySlashedBlock",
        "offset": 0,
        "slot": "163",
        "type": "t_uint256"
      },
      {
        "astId": 36168,
        "contract": "contracts/ronin/slash-indicator/SlashIndicator.sol:SlashIndicator",
        "label": "_unavailabilityIndicator",
        "offset": 0,
        "slot": "164",
        "type": "t_mapping(t_address,t_mapping(t_uint256,t_uint256))"
      },
      {
        "astId": 36171,
        "contract": "contracts/ronin/slash-indicator/SlashIndicator.sol:SlashIndicator",
        "label": "_unavailabilityTier1Threshold",
        "offset": 0,
        "slot": "165",
        "type": "t_uint256"
      },
      {
        "astId": 36174,
        "contract": "contracts/ronin/slash-indicator/SlashIndicator.sol:SlashIndicator",
        "label": "_unavailabilityTier2Threshold",
        "offset": 0,
        "slot": "166",
        "type": "t_uint256"
      },
      {
        "astId": 36177,
        "contract": "contracts/ronin/slash-indicator/SlashIndicator.sol:SlashIndicator",
        "label": "_slashAmountForUnavailabilityTier2Threshold",
        "offset": 0,
        "slot": "167",
        "type": "t_uint256"
      },
      {
        "astId": 36180,
        "contract": "contracts/ronin/slash-indicator/SlashIndicator.sol:SlashIndicator",
        "label": "_jailDurationForUnavailabilityTier2Threshold",
        "offset": 0,
        "slot": "168",
        "type": "t_uint256"
      },
      {
        "astId": 36185,
        "contract": "contracts/ronin/slash-indicator/SlashIndicator.sol:SlashIndicator",
        "label": "______gap",
        "offset": 0,
        "slot": "169",
        "type": "t_array(t_uint256)50_storage"
      },
      {
        "astId": 34379,
        "contract": "contracts/ronin/slash-indicator/SlashIndicator.sol:SlashIndicator",
        "label": "_checkBailedOutAtPeriod",
        "offset": 0,
        "slot": "219",
        "type": "t_mapping(t_address,t_mapping(t_uint256,t_bool))"
      },
      {
        "astId": 34384,
        "contract": "contracts/ronin/slash-indicator/SlashIndicator.sol:SlashIndicator",
        "label": "_creditScore",
        "offset": 0,
        "slot": "220",
        "type": "t_mapping(t_address,t_uint256)"
      },
      {
        "astId": 34387,
        "contract": "contracts/ronin/slash-indicator/SlashIndicator.sol:SlashIndicator",
        "label": "_gainCreditScore",
        "offset": 0,
        "slot": "221",
        "type": "t_uint256"
      },
      {
        "astId": 34390,
        "contract": "contracts/ronin/slash-indicator/SlashIndicator.sol:SlashIndicator",
        "label": "_maxCreditScore",
        "offset": 0,
        "slot": "222",
        "type": "t_uint256"
      },
      {
        "astId": 34393,
        "contract": "contracts/ronin/slash-indicator/SlashIndicator.sol:SlashIndicator",
        "label": "_bailOutCostMultiplier",
        "offset": 0,
        "slot": "223",
        "type": "t_uint256"
      },
      {
        "astId": 34396,
        "contract": "contracts/ronin/slash-indicator/SlashIndicator.sol:SlashIndicator",
        "label": "_cutOffPercentageAfterBailout",
        "offset": 0,
        "slot": "224",
        "type": "t_uint256"
      },
      {
        "astId": 34401,
        "contract": "contracts/ronin/slash-indicator/SlashIndicator.sol:SlashIndicator",
        "label": "______gap",
        "offset": 0,
        "slot": "225",
        "type": "t_array(t_uint256)50_storage"
      },
      {
        "astId": 106616,
        "contract": "contracts/ronin/slash-indicator/SlashIndicator.sol:SlashIndicator",
        "label": "_initialized",
        "offset": 0,
        "slot": "275",
        "type": "t_uint8"
      },
      {
        "astId": 106619,
        "contract": "contracts/ronin/slash-indicator/SlashIndicator.sol:SlashIndicator",
        "label": "_initializing",
        "offset": 1,
        "slot": "275",
        "type": "t_bool"
      }
    ],
    "types": {
      "t_address": {
        "encoding": "inplace",
        "label": "address",
        "numberOfBytes": "20"
      },
      "t_array(t_uint256)21_storage": {
        "encoding": "inplace",
        "label": "uint256[21]",
        "numberOfBytes": "672",
        "base": "t_uint256"
      },
      "t_array(t_uint256)24_storage": {
        "encoding": "inplace",
        "label": "uint256[24]",
        "numberOfBytes": "768",
        "base": "t_uint256"
      },
      "t_array(t_uint256)50_storage": {
        "encoding": "inplace",
        "label": "uint256[50]",
        "numberOfBytes": "1600",
        "base": "t_uint256"
      },
      "t_bool": {
        "encoding": "inplace",
        "label": "bool",
        "numberOfBytes": "1"
      },
      "t_bytes32": {
        "encoding": "inplace",
        "label": "bytes32",
        "numberOfBytes": "32"
      },
      "t_mapping(t_address,t_mapping(t_uint256,t_bool))": {
        "encoding": "mapping",
        "key": "t_address",
        "label": "mapping(address => mapping(uint256 => bool))",
        "numberOfBytes": "32",
        "value": "t_mapping(t_uint256,t_bool)"
      },
      "t_mapping(t_address,t_mapping(t_uint256,t_uint256))": {
        "encoding": "mapping",
        "key": "t_address",
        "label": "mapping(address => mapping(uint256 => uint256))",
        "numberOfBytes": "32",
        "value": "t_mapping(t_uint256,t_uint256)"
      },
      "t_mapping(t_address,t_uint256)": {
        "encoding": "mapping",
        "key": "t_address",
        "label": "mapping(address => uint256)",
        "numberOfBytes": "32",
        "value": "t_uint256"
      },
      "t_mapping(t_bytes32,t_bool)": {
        "encoding": "mapping",
        "key": "t_bytes32",
        "label": "mapping(bytes32 => bool)",
        "numberOfBytes": "32",
        "value": "t_bool"
      },
      "t_mapping(t_uint256,t_bool)": {
        "encoding": "mapping",
        "key": "t_uint256",
        "label": "mapping(uint256 => bool)",
        "numberOfBytes": "32",
        "value": "t_bool"
      },
      "t_mapping(t_uint256,t_uint256)": {
        "encoding": "mapping",
        "key": "t_uint256",
        "label": "mapping(uint256 => uint256)",
        "numberOfBytes": "32",
        "value": "t_uint256"
      },
      "t_uint256": {
        "encoding": "inplace",
        "label": "uint256",
        "numberOfBytes": "32"
      },
      "t_uint8": {
        "encoding": "inplace",
        "label": "uint8",
        "numberOfBytes": "1"
      }
    }
  },
  "timestamp": 1717148297,
  "userdoc": {
    "version": 1,
    "kind": "user"
  }
}