{
  "abi": [
    {
      "type": "constructor",
      "inputs": [],
      "stateMutability": "nonpayable"
    },
    {
      "type": "function",
      "name": "bailOut",
      "inputs": [
        {
          "name": "consensusAddr",
          "type": "address",
          "internalType": "TConsensus"
        }
      ],
      "outputs": [],
      "stateMutability": "nonpayable"
    },
    {
      "type": "function",
      "name": "checkBailedOutAtPeriod",
      "inputs": [
        {
          "name": "consensus",
          "type": "address",
          "internalType": "TConsensus"
        },
        {
          "name": "period",
          "type": "uint256",
          "internalType": "uint256"
        }
      ],
      "outputs": [
        {
          "name": "",
          "type": "bool",
          "internalType": "bool"
        }
      ],
      "stateMutability": "view"
    },
    {
      "type": "function",
      "name": "currentUnavailabilityIndicator",
      "inputs": [
        {
          "name": "consensus",
          "type": "address",
          "internalType": "TConsensus"
        }
      ],
      "outputs": [
        {
          "name": "",
          "type": "uint256",
          "internalType": "uint256"
        }
      ],
      "stateMutability": "view"
    },
    {
      "type": "function",
      "name": "execResetCreditScores",
      "inputs": [
        {
          "name": "validatorIds",
          "type": "address[]",
          "internalType": "address[]"
        }
      ],
      "outputs": [],
      "stateMutability": "nonpayable"
    },
    {
      "type": "function",
      "name": "execUpdateCreditScores",
      "inputs": [
        {
          "name": "validatorIds",
          "type": "address[]",
          "internalType": "address[]"
        },
        {
          "name": "period",
          "type": "uint256",
          "internalType": "uint256"
        }
      ],
      "outputs": [],
      "stateMutability": "nonpayable"
    },
    {
      "type": "function",
      "name": "getContract",
      "inputs": [
        {
          "name": "contractType",
          "type": "uint8",
          "internalType": "enum ContractType"
        }
      ],
      "outputs": [
        {
          "name": "contract_",
          "type": "address",
          "internalType": "address"
        }
      ],
      "stateMutability": "view"
    },
    {
      "type": "function",
      "name": "getCreditScore",
      "inputs": [
        {
          "name": "consensusAddr",
          "type": "address",
          "internalType": "TConsensus"
        }
      ],
      "outputs": [
        {
          "name": "",
          "type": "uint256",
          "internalType": "uint256"
        }
      ],
      "stateMutability": "view"
    },
    {
      "type": "function",
      "name": "getCreditScoreConfigs",
      "inputs": [],
      "outputs": [
        {
          "name": "gainCreditScore_",
          "type": "uint256",
          "internalType": "uint256"
        },
        {
          "name": "maxCreditScore_",
          "type": "uint256",
          "internalType": "uint256"
        },
        {
          "name": "bailOutCostMultiplier_",
          "type": "uint256",
          "internalType": "uint256"
        },
        {
          "name": "cutOffPercentageAfterBailout_",
          "type": "uint256",
          "internalType": "uint256"
        }
      ],
      "stateMutability": "view"
    },
    {
      "type": "function",
      "name": "getDoubleSignSlashingConfigs",
      "inputs": [],
      "outputs": [
        {
          "name": "slashDoubleSignAmount_",
          "type": "uint256",
          "internalType": "uint256"
        },
        {
          "name": "doubleSigningJailUntilBlock_",
          "type": "uint256",
          "internalType": "uint256"
        },
        {
          "name": "doubleSigningOffsetLimitBlock_",
          "type": "uint256",
          "internalType": "uint256"
        }
      ],
      "stateMutability": "view"
    },
    {
      "type": "function",
      "name": "getFastFinalitySlashingConfigs",
      "inputs": [],
      "outputs": [
        {
          "name": "slashFastFinalityAmount_",
          "type": "uint256",
          "internalType": "uint256"
        },
        {
          "name": "fastFinalityJailUntilBlock_",
          "type": "uint256",
          "internalType": "uint256"
        }
      ],
      "stateMutability": "view"
    },
    {
      "type": "function",
      "name": "getManyCreditScores",
      "inputs": [
        {
          "name": "consensusAddrs",
          "type": "address[]",
          "internalType": "TConsensus[]"
        }
      ],
      "outputs": [
        {
          "name": "resultList",
          "type": "uint256[]",
          "internalType": "uint256[]"
        }
      ],
      "stateMutability": "view"
    },
    {
      "type": "function",
      "name": "getUnavailabilityIndicator",
      "inputs": [
        {
          "name": "consensus",
          "type": "address",
          "internalType": "TConsensus"
        },
        {
          "name": "period",
          "type": "uint256",
          "internalType": "uint256"
        }
      ],
      "outputs": [
        {
          "name": "",
          "type": "uint256",
          "internalType": "uint256"
        }
      ],
      "stateMutability": "view"
    },
    {
      "type": "function",
      "name": "getUnavailabilitySlashingConfigs",
      "inputs": [],
      "outputs": [
        {
          "name": "unavailabilityTier1Threshold_",
          "type": "uint256",
          "internalType": "uint256"
        },
        {
          "name": "unavailabilityTier2Threshold_",
          "type": "uint256",
          "internalType": "uint256"
        },
        {
          "name": "slashAmountForUnavailabilityTier2Threshold_",
          "type": "uint256",
          "internalType": "uint256"
        },
        {
          "name": "jailDurationForUnavailabilityTier2Threshold_",
          "type": "uint256",
          "internalType": "uint256"
        }
      ],
      "stateMutability": "view"
    },
    {
      "type": "function",
      "name": "initialize",
      "inputs": [
        {
          "name": "__validatorContract",
          "type": "address",
          "internalType": "address"
        },
        {
          "name": "__maintenanceContract",
          "type": "address",
          "internalType": "address"
        },
        {
          "name": "__roninTrustedOrganizationContract",
          "type": "address",
          "internalType": "address"
        },
        {
          "name": "__roninGovernanceAdminContract",
          "type": "address",
          "internalType": "address"
        },
        {
          "name": "",
          "type": "uint256[4]",
          "internalType": "uint256[4]"
        },
        {
          "name": "",
          "type": "uint256[2]",
          "internalType": "uint256[2]"
        },
        {
          "name": "_doubleSignSlashingConfigs",
          "type": "uint256[3]",
          "internalType": "uint256[3]"
        },
        {
          "name": "_unavailabilitySlashingConfigs",
          "type": "uint256[4]",
          "internalType": "uint256[4]"
        },
        {
          "name": "_creditScoreConfigs",
          "type": "uint256[4]",
          "internalType": "uint256[4]"
        }
      ],
      "outputs": [],
      "stateMutability": "nonpayable"
    },
    {
      "type": "function",
      "name": "initializeV2",
      "inputs": [
        {
          "name": "roninGovernanceAdminContract",
          "type": "address",
          "internalType": "address"
        }
      ],
      "outputs": [],
      "stateMutability": "nonpayable"
    },
    {
      "type": "function",
      "name": "initializeV3",
      "inputs": [
        {
          "name": "profileContract",
          "type": "address",
          "internalType": "address"
        }
      ],
      "outputs": [],
      "stateMutability": "nonpayable"
    },
    {
      "type": "function",
      "name": "lastUnavailabilitySlashedBlock",
      "inputs": [],
      "outputs": [
        {
          "name": "",
          "type": "uint256",
          "internalType": "uint256"
        }
      ],
      "stateMutability": "view"
    },
    {
      "type": "function",
      "name": "precompileValidateDoubleSignAddress",
      "inputs": [],
      "outputs": [
        {
          "name": "",
          "type": "address",
          "internalType": "address"
        }
      ],
      "stateMutability": "view"
    },
    {
      "type": "function",
      "name": "precompileValidateFastFinalityAddress",
      "inputs": [],
      "outputs": [
        {
          "name": "",
          "type": "address",
          "internalType": "address"
        }
      ],
      "stateMutability": "view"
    },
    {
      "type": "function",
      "name": "setContract",
      "inputs": [
        {
          "name": "contractType",
          "type": "uint8",
          "internalType": "enum ContractType"
        },
        {
          "name": "addr",
          "type": "address",
          "internalType": "address"
        }
      ],
      "outputs": [],
      "stateMutability": "nonpayable"
    },
    {
      "type": "function",
      "name": "setCreditScoreConfigs",
      "inputs": [
        {
          "name": "_gainScore",
          "type": "uint256",
          "internalType": "uint256"
        },
        {
          "name": "_maxScore",
          "type": "uint256",
          "internalType": "uint256"
        },
        {
          "name": "_bailOutMultiplier",
          "type": "uint256",
          "internalType": "uint256"
        },
        {
          "name": "_cutOffPercentage",
          "type": "uint256",
          "internalType": "uint256"
        }
      ],
      "outputs": [],
      "stateMutability": "nonpayable"
    },
    {
      "type": "function",
      "name": "setDoubleSignSlashingConfigs",
      "inputs": [
        {
          "name": "_slashAmount",
          "type": "uint256",
          "internalType": "uint256"
        },
        {
          "name": "_jailUntilBlock",
          "type": "uint256",
          "internalType": "uint256"
        },
        {
          "name": "_offsetLimitBlock",
          "type": "uint256",
          "internalType": "uint256"
        }
      ],
      "outputs": [],
      "stateMutability": "nonpayable"
    },
    {
      "type": "function",
      "name": "setFastFinalitySlashingConfigs",
      "inputs": [
        {
          "name": "slashAmount",
          "type": "uint256",
          "internalType": "uint256"
        },
        {
          "name": "jailUntilBlock",
          "type": "uint256",
          "internalType": "uint256"
        }
      ],
      "outputs": [],
      "stateMutability": "nonpayable"
    },
    {
      "type": "function",
      "name": "setUnavailabilitySlashingConfigs",
      "inputs": [
        {
          "name": "_tier1Threshold",
          "type": "uint256",
          "internalType": "uint256"
        },
        {
          "name": "_tier2Threshold",
          "type": "uint256",
          "internalType": "uint256"
        },
        {
          "name": "_slashAmountForTier2Threshold",
          "type": "uint256",
          "internalType": "uint256"
        },
        {
          "name": "_jailDurationForTier2Threshold",
          "type": "uint256",
          "internalType": "uint256"
        }
      ],
      "outputs": [],
      "stateMutability": "nonpayable"
    },
    {
      "type": "function",
      "name": "slashDoubleSign",
      "inputs": [
        {
          "name": "consensusAddr",
          "type": "address",
          "internalType": "TConsensus"
        },
        {
          "name": "header1",
          "type": "bytes",
          "internalType": "bytes"
        },
        {
          "name": "header2",
          "type": "bytes",
          "internalType": "bytes"
        }
      ],
      "outputs": [],
      "stateMutability": "nonpayable"
    },
    {
      "type": "function",
      "name": "slashFastFinality",
      "inputs": [
        {
          "name": "consensusAddr",
          "type": "address",
          "internalType": "TConsensus"
        },
        {
          "name": "voterPublicKey",
          "type": "bytes",
          "internalType": "bytes"
        },
        {
          "name": "targetBlockNumber",
          "type": "uint256",
          "internalType": "uint256"
        },
        {
          "name": "targetBlockHash",
          "type": "bytes32[2]",
          "internalType": "bytes32[2]"
        },
        {
          "name": "listOfPublicKey",
          "type": "bytes[][2]",
          "internalType": "bytes[][2]"
        },
        {
          "name": "aggregatedSignature",
          "type": "bytes[2]",
          "internalType": "bytes[2]"
        }
      ],
      "outputs": [],
      "stateMutability": "nonpayable"
    },
    {
      "type": "function",
      "name": "slashUnavailability",
      "inputs": [
        {
          "name": "consensusAddr",
          "type": "address",
          "internalType": "TConsensus"
        }
      ],
      "outputs": [],
      "stateMutability": "nonpayable"
    },
    {
      "type": "event",
      "name": "BailedOut",
      "inputs": [
        {
          "name": "cid",
          "type": "address",
          "indexed": true,
          "internalType": "address"
        },
        {
          "name": "period",
          "type": "uint256",
          "indexed": false,
          "internalType": "uint256"
        },
        {
          "name": "usedCreditScore",
          "type": "uint256",
          "indexed": false,
          "internalType": "uint256"
        }
      ],
      "anonymous": false
    },
    {
      "type": "event",
      "name": "ContractUpdated",
      "inputs": [
        {
          "name": "contractType",
          "type": "uint8",
          "indexed": true,
          "internalType": "enum ContractType"
        },
        {
          "name": "addr",
          "type": "address",
          "indexed": true,
          "internalType": "address"
        }
      ],
      "anonymous": false
    },
    {
      "type": "event",
      "name": "CreditScoreConfigsUpdated",
      "inputs": [
        {
          "name": "gainCreditScore",
          "type": "uint256",
          "indexed": false,
          "internalType": "uint256"
        },
        {
          "name": "maxCreditScore",
          "type": "uint256",
          "indexed": false,
          "internalType": "uint256"
        },
        {
          "name": "bailOutCostMultiplier",
          "type": "uint256",
          "indexed": false,
          "internalType": "uint256"
        },
        {
          "name": "cutOffPercentageAfterBailout",
          "type": "uint256",
          "indexed": false,
          "internalType": "uint256"
        }
      ],
      "anonymous": false
    },
    {
      "type": "event",
      "name": "CreditScoresUpdated",
      "inputs": [
        {
          "name": "cids",
          "type": "address[]",
          "indexed": false,
          "internalType": "address[]"
        },
        {
          "name": "creditScores",
          "type": "uint256[]",
          "indexed": false,
          "internalType": "uint256[]"
        }
      ],
      "anonymous": false
    },
    {
      "type": "event",
      "name": "DoubleSignSlashingConfigsUpdated",
      "inputs": [
        {
          "name": "slashDoubleSignAmount",
          "type": "uint256",
          "indexed": false,
          "internalType": "uint256"
        },
        {
          "name": "doubleSigningJailUntilBlock",
          "type": "uint256",
          "indexed": false,
          "internalType": "uint256"
        },
        {
          "name": "doubleSigningOffsetLimitBlock",
          "type": "uint256",
          "indexed": false,
          "internalType": "uint256"
        }
      ],
      "anonymous": false
    },
    {
      "type": "event",
      "name": "FastFinalitySlashingConfigsUpdated",
      "inputs": [
        {
          "name": "slashFastFinalityAmount",
          "type": "uint256",
          "indexed": false,
          "internalType": "uint256"
        },
        {
          "name": "fastFinalityJailUntilBlock",
          "type": "uint256",
          "indexed": false,
          "internalType": "uint256"
        }
      ],
      "anonymous": false
    },
    {
      "type": "event",
      "name": "Initialized",
      "inputs": [
        {
          "name": "version",
          "type": "uint8",
          "indexed": false,
          "internalType": "uint8"
        }
      ],
      "anonymous": false
    },
    {
      "type": "event",
      "name": "Slashed",
      "inputs": [
        {
          "name": "cid",
          "type": "address",
          "indexed": true,
          "internalType": "address"
        },
        {
          "name": "slashType",
          "type": "uint8",
          "indexed": false,
          "internalType": "enum IBaseSlash.SlashType"
        },
        {
          "name": "period",
          "type": "uint256",
          "indexed": false,
          "internalType": "uint256"
        }
      ],
      "anonymous": false
    },
    {
      "type": "event",
      "name": "UnavailabilitySlashingConfigsUpdated",
      "inputs": [
        {
          "name": "unavailabilityTier1Threshold",
          "type": "uint256",
          "indexed": false,
          "internalType": "uint256"
        },
        {
          "name": "unavailabilityTier2Threshold",
          "type": "uint256",
          "indexed": false,
          "internalType": "uint256"
        },
        {
          "name": "slashAmountForUnavailabilityTier2Threshold",
          "type": "uint256",
          "indexed": false,
          "internalType": "uint256"
        },
        {
          "name": "jailDurationForUnavailabilityTier2Threshold",
          "type": "uint256",
          "indexed": false,
          "internalType": "uint256"
        }
      ],
      "anonymous": false
    },
    {
      "type": "error",
      "name": "ErrCallPrecompiled",
      "inputs": []
    },
    {
      "type": "error",
      "name": "ErrCallerMustBeJailedInTheCurrentPeriod",
      "inputs": []
    },
    {
      "type": "error",
      "name": "ErrCannotSlashAValidatorTwiceOrSlashMoreThanOneValidatorInOneBlock",
      "inputs": []
    },
    {
      "type": "error",
      "name": "ErrContractTypeNotFound",
      "inputs": [
        {
          "name": "contractType",
          "type": "uint8",
          "internalType": "enum ContractType"
        }
      ]
    },
    {
      "type": "error",
      "name": "ErrEvidenceAlreadySubmitted",
      "inputs": []
    },
    {
      "type": "error",
      "name": "ErrInsufficientCreditScoreToBailOut",
      "inputs": []
    },
    {
      "type": "error",
      "name": "ErrInvalidArguments",
      "inputs": [
        {
          "name": "msgSig",
          "type": "bytes4",
          "internalType": "bytes4"
        }
      ]
    },
    {
      "type": "error",
      "name": "ErrInvalidCreditScoreConfig",
      "inputs": []
    },
    {
      "type": "error",
      "name": "ErrInvalidCutOffPercentageConfig",
      "inputs": []
    },
    {
      "type": "error",
      "name": "ErrInvalidThreshold",
      "inputs": [
        {
          "name": "msgSig",
          "type": "bytes4",
          "internalType": "bytes4"
        }
      ]
    },
    {
      "type": "error",
      "name": "ErrUnauthorized",
      "inputs": [
        {
          "name": "msgSig",
          "type": "bytes4",
          "internalType": "bytes4"
        },
        {
          "name": "expectedRole",
          "type": "uint8",
          "internalType": "enum RoleAccess"
        }
      ]
    },
    {
      "type": "error",
      "name": "ErrUnexpectedInternalCall",
      "inputs": [
        {
          "name": "msgSig",
          "type": "bytes4",
          "internalType": "bytes4"
        },
        {
          "name": "expectedContractType",
          "type": "uint8",
          "internalType": "enum ContractType"
        },
        {
          "name": "actual",
          "type": "address",
          "internalType": "address"
        }
      ]
    },
    {
      "type": "error",
      "name": "ErrUnregisteredPublicKey",
      "inputs": []
    },
    {
      "type": "error",
      "name": "ErrValidatorHasBailedOutPreviously",
      "inputs": []
    },
    {
      "type": "error",
      "name": "ErrZeroCodeContract",
      "inputs": [
        {
          "name": "addr",
          "type": "address",
          "internalType": "address"
        }
      ]
    }
  ],
  "address": "0x35ce4eef93809b997addaee8e0d979d966dbd02d",
  "args": "0x",
  "blockNumber": 24102399,
  "bytecode": "0x60806040523480156200001157600080fd5b506200001c62000022565b620000e7565b61011354610100900460ff1615620000905760405162461bcd60e51b815260206004820152602760248201527f496e697469616c697a61626c653a20636f6e747261637420697320696e697469604482015266616c697a696e6760c81b606482015260840160405180910390fd5b6101135460ff9081161015620000e557610113805460ff191660ff9081179091556040519081527f7f26b83ff96e1f2b6a682f133852f6798a09c465da95921460cefb38474024989060200160405180910390a15b565b6136b080620000f76000396000f3fe608060405234801561001057600080fd5b50600436106101b95760003560e01c8063a345ecb2116100f9578063d3dd2bdf11610097578063e9bb166611610071578063e9bb1666146103d1578063f1001e78146103d8578063f562b3c4146103f8578063fd422cd01461040057600080fd5b8063d3dd2bdf14610387578063de981f1b1461039a578063df4b6ee0146103ad57600080fd5b8063cf39d13c116100d3578063cf39d13c1461033b578063d1737e271461034e578063d1cf434314610361578063d1f992f71461037457600080fd5b8063a345ecb214610304578063c6391fa214610317578063ccbb72ed1461032857600080fd5b80633101cfcb1161016657806362ffe6cb1161014057806362ffe6cb146102b05780637c2b55a0146102c3578063865e6fd3146102de57806399103f7b146102f157600080fd5b80633101cfcb146102555780633d48fd7d14610268578063487e00ea1461029557600080fd5b80631e90b2a0116101975780631e90b2a01461020c57806329b6eca91461021f57806329ddc3c01461023257600080fd5b806307c2d2f6146101be578063082e7420146101d3578063185368db146101f9575b600080fd5b6101d16101cc366004612761565b610413565b005b6101e66101e13660046127b8565b610521565b6040519081526020015b60405180910390f35b6101d16102073660046127d5565b6105a5565b6101d161021a366004612863565b6108bc565b6101d161022d3660046127b8565b610ae8565b6102456102403660046128e6565b610c5c565b60405190151581526020016101f0565b6101d16102633660046127b8565b610c77565b60a55460a65460a75460a8545b6040805194855260208501939093529183015260608201526080016101f0565b601d54601e54604080519283526020830191909152016101f0565b6101e66102be3660046128e6565b610d6b565b60675b6040516001600160a01b0390911681526020016101f0565b6101d16102ec366004612921565b610d7f565b6101d16102ff36600461297a565b610d9e565b6101d1610312366004612a38565b610f28565b60dd5460de5460df5460e054610275565b6101d1610336366004612a5a565b610f3a565b6101d1610349366004612a8c565b610f54565b6101d161035c366004612a5a565b610f6c565b6101d161036f366004612ab8565b610f80565b6101d16103823660046127b8565b6113ea565b6101e66103953660046127b8565b611896565b6102c66103a8366004612b77565b6118c5565b600154600254600354604080519384526020840192909252908201526060016101f0565b60696102c6565b6103eb6103e6366004612761565b611959565b6040516101f09190612bce565b60a3546101e6565b6101d161040e3660046127b8565b611a59565b600861041e81611dfa565b60008267ffffffffffffffff81111561043957610439612be1565b604051908082528060200260200182016040528015610462578160200160208202803683370190505b50905060005b838110156104df57600085858381811061048457610484612bf7565b905060200201602081019061049991906127b8565b6001600160a01b038116600090815260dc602052604081205583519091508390839081106104c9576104c9612bf7565b6000602091820292909201015250600101610468565b507f8c02b2ccee964dc50649a48bd0a0446f0f9e88ecdb72d099f4ace07c39c2348084848360405161051393929190612c4b565b60405180910390a150505050565b600061059f61052f83611e5f565b61053960086118c5565b6001600160a01b031663060406186040518163ffffffff1660e01b8152600401602060405180830381865afa158015610576573d6000803e3d6000fd5b505050506040513d601f19601f8201168201806040525081019061059a9190612c7b565b611ef0565b92915050565b60086105b081611dfa565b60003390506000816001600160a01b031663297a8fca6040518163ffffffff1660e01b8152600401602060405180830381865afa1580156105f5573d6000803e3d6000fd5b505050506040513d601f19601f820116820180604052508101906106199190612c7b565b90506000826001600160a01b0316637e1dc16f88886040518363ffffffff1660e01b815260040161064b929190612c94565b600060405180830381865afa158015610668573d6000803e3d6000fd5b505050506040513d6000823e601f3d908101601f191682016040526106909190810190612d5a565b9050600061069e60056118c5565b6001600160a01b0316638b042a72898986436040518563ffffffff1660e01b81526004016106cf9493929190612df7565b600060405180830381865afa1580156106ec573d6000803e3d6000fd5b505050506040513d6000823e601f3d908101601f191682016040526107149190810190612d5a565b905060008767ffffffffffffffff81111561073157610731612be1565b60405190808252806020026020018201604052801561075a578160200160208202803683370190505b50905060005b888110156108755760008a8a8381811061077c5761077c612bf7565b905060200201602081019061079191906127b8565b9050600061079f828b611ef0565b905060008684815181106107b5576107b5612bf7565b6020026020010151905060008685815181106107d3576107d3612bf7565b60200260200101519050600082806107e85750815b6107fd576107f860dd5485611f19565b610800565b60005b6001600160a01b038616600090815260dc602052604090205460de5491925061082a918390611f33565b6001600160a01b038616600090815260dc60205260409020819055875188908890811061085957610859612bf7565b6020026020010181815250508560010195505050505050610760565b507f8c02b2ccee964dc50649a48bd0a0446f0f9e88ecdb72d099f4ace07c39c234808989836040516108a993929190612c4b565b60405180910390a1505050505050505050565b6108c4611f50565b600084846040516108d6929190612e1e565b60405180910390209050600083836040516108f2929190612e1e565b604080519182900390912060008481526004602052919091205490915060ff168061092b575060008181526004602052604090205460ff165b156109495760405163f27b8ec960e01b815260040160405180910390fd5b600061095488611e5f565b90506001600160a01b0381166109675750865b6109748188888888611fac565b15610ade57600061098560086118c5565b90506000816001600160a01b031663060406186040518163ffffffff1660e01b8152600401602060405180830381865afa1580156109c7573d6000803e3d6000fd5b505050506040513d601f19601f820116820180604052508101906109eb9190612c7b565b6000868152600460205260408082208054600160ff19918216811790925588845292829020805490931617909155519091506001600160a01b038416907f607adba66cff84b627e3537d1c17d088a98556bccd0536a2f3590c56329023d990610a58906003908590612e44565b60405180910390a260025460018054604051630bde081360e21b81526001600160a01b03878116600483015260248201949094526044810191909152606481019190915290831690632f78204c90608401600060405180830381600087803b158015610ac357600080fd5b505af1158015610ad7573d6000803e3d6000fd5b5050505050505b5050505050505050565b61011354600290610100900460ff16158015610b0c57506101135460ff8083169116105b610b745760405162461bcd60e51b815260206004820152602e60248201527f496e697469616c697a61626c653a20636f6e747261637420697320616c72656160448201526d191e481a5b9a5d1a585b1a5e995960921b60648201526084015b60405180910390fd5b610113805461ffff191660ff831617610100179055600054610ba1906008906001600160a01b031661209d565b606c54610bb9906005906001600160a01b031661209d565b610bc460048361209d565b603554610bdc90600a906001600160a01b031661209d565b6000805473ffffffffffffffffffffffffffffffffffffffff19908116909155606c8054821690556035805482169055603680549091169055610113805461ff001916905560405160ff821681527f7f26b83ff96e1f2b6a682f133852f6798a09c465da95921460cefb3847402498906020015b60405180910390a15050565b6000610c70610c6a84611e5f565b8361214e565b9392505050565b61011354600390610100900460ff16158015610c9b57506101135460ff8083169116105b610cfe5760405162461bcd60e51b815260206004820152602e60248201527f496e697469616c697a61626c653a20636f6e747261637420697320616c72656160448201526d191e481a5b9a5d1a585b1a5e995960921b6064820152608401610b6b565b610113805461ffff191660ff831617610100179055610d1e600f8361209d565b610d2c60015460025461217a565b610113805461ff001916905560405160ff821681527f7f26b83ff96e1f2b6a682f133852f6798a09c465da95921460cefb384740249890602001610c50565b6000610c70610d7984611e5f565b83611ef0565b610d87611f50565b610d90816121ba565b610d9a828261209d565b5050565b61011354610100900460ff1615808015610dc0575061011354600160ff909116105b80610ddb5750303b158015610ddb57506101135460ff166001145b610e3e5760405162461bcd60e51b815260206004820152602e60248201527f496e697469616c697a61626c653a20636f6e747261637420697320616c72656160448201526d191e481a5b9a5d1a585b1a5e995960921b6064820152608401610b6b565b610113805460ff191660011790558015610e6357610113805461ff0019166101001790555b610e6e60088b61209d565b610e7960058a61209d565b610e8460048861209d565b610e8f600a8961209d565b610ea3843560208601356040870135612209565b610ebc833560208501356040860135606087013561225e565b610ed58235602084013560408501356060860135612303565b8015610f1c57610113805461ff0019169055604051600181527f7f26b83ff96e1f2b6a682f133852f6798a09c465da95921460cefb38474024989060200160405180910390a15b50505050505050505050565b610f30611f50565b610d9a828261217a565b610f42611f50565b610f4e84848484612303565b50505050565b610f5c611f50565b610f67838383612209565b505050565b610f74611f50565b610f4e8484848461225e565b610f89336123d2565b600003610fb9576000356001600160e01b0319166003604051620f948f60ea1b8152600401610b6b929190612e62565b6000610fc488611e5f565b90506000610fd2600f6118c5565b6040517ff46609400000000000000000000000000000000000000000000000000000000081526001600160a01b03848116600483015291925060009183169063f466094090602401600060405180830381865afa158015611037573d6000803e3d6000fd5b505050506040513d6000823e601f3d908101601f1916820160405261105f9190810190612f2c565b905060008989604051611073929190612e1e565b604051809103902090508160a001518051906020012081141580156110a357508160e00151805190602001208114155b156110e8576040517f053265f10000000000000000000000000000000000000000000000000000000081526001600160e01b0319600035166004820152602401610b6b565b6040516bffffffffffffffffffffffff1960608d901b1660208201526034810189905260009060540160408051601f1981840301815291815281516020928301206000818152601f90935291205490915060ff161561115a5760405163f27b8ec960e01b815260040160405180910390fd5b6040517f7e18b5660000000000000000000000000000000000000000000000000000000081526001600160a01b03851690637e18b5669061119f908a906004016130dd565b602060405180830381865afa1580156111bc573d6000803e3d6000fd5b505050506040513d601f19601f820116820180604052508101906111e0919061316f565b611216576040517f1979097700000000000000000000000000000000000000000000000000000000815260040160405180910390fd5b61128c8b8b8080601f016020809104026020016040519081016040528093929190818152602001838380828437600092019190915250506040805180820182528e935091508c90600290839083908082843760009201919091525061127e91508c90506131db565b6112878b6132b3565b612463565b156113dc576000818152601f60205260408120805460ff191660011790556112b460086118c5565b90506000816001600160a01b031663060406186040518163ffffffff1660e01b8152600401602060405180830381865afa1580156112f6573d6000803e3d6000fd5b505050506040513d601f19601f8201168201806040525081019061131a9190612c7b565b9050866001600160a01b03167f607adba66cff84b627e3537d1c17d088a98556bccd0536a2f3590c56329023d9600883604051611358929190612e44565b60405180910390a2601e54601d54604051630bde081360e21b81526001600160a01b038a81166004830152602482019390935260448101919091526001606482015290831690632f78204c90608401600060405180830381600087803b1580156113c157600080fd5b505af11580156113d5573d6000803e3d6000fd5b5050505050505b505050505050505050505050565b60006113f582611e5f565b9050600061140360086118c5565b6040517fa0c3f2d20000000000000000000000000000000000000000000000000000000081526001600160a01b0385811660048301529192509082169063a0c3f2d290602401602060405180830381865afa158015611466573d6000803e3d6000fd5b505050506040513d601f19601f8201168201806040525081019061148a919061316f565b6114b7576000356001600160e01b0319166008604051620f948f60ea1b8152600401610b6b929190612e62565b6040517f04d971ab0000000000000000000000000000000000000000000000000000000081526001600160a01b0384811660048301523360248301528216906304d971ab90604401602060405180830381865afa15801561151c573d6000803e3d6000fd5b505050506040513d601f19601f82011682018060405250810190611540919061316f565b61156d576000356001600160e01b0319166004604051620f948f60ea1b8152600401610b6b929190612e62565b6040517f96585fc20000000000000000000000000000000000000000000000000000000081526001600160a01b03848116600483015260009182918416906396585fc290602401606060405180830381865afa1580156115d1573d6000803e3d6000fd5b505050506040513d601f19601f820116820180604052508101906115f5919061330c565b925050915081611631576040517f6cd31b5900000000000000000000000000000000000000000000000000000000815260040160405180910390fd5b6000836001600160a01b031663060406186040518163ffffffff1660e01b8152600401602060405180830381865afa158015611671573d6000803e3d6000fd5b505050506040513d601f19601f820116820180604052508101906116959190612c7b565b6001600160a01b038616600090815260db6020908152604080832084845290915290205490915060ff16156116f6576040517f7674d6a900000000000000000000000000000000000000000000000000000000815260040160405180910390fd5b6001600160a01b038516600090815260dc602052604081205460df5490919061171f9085613357565b90508082101561175b576040517f8c5cb26e00000000000000000000000000000000000000000000000000000000815260040160405180910390fd5b6040517f15b5ebde0000000000000000000000000000000000000000000000000000000081526001600160a01b038881166004830152602482018590528716906315b5ebde90604401600060405180830381600087803b1580156117be57600080fd5b505af11580156117d2573d6000803e3d6000fd5b505050506001600160a01b038716600090815260dc6020526040812080548392906117fe90849061336e565b90915550506001600160a01b038716600090815260a4602090815260408083208684529091528120556001600160a01b038716600081815260db60209081526040808320878452825291829020805460ff1916600117905581518681529081018490527f7ff9f7032d565c7e8919332964b2faa33c320b53604a65d9dd1f8112e12cd39d910160405180910390a25050505050505050565b600060dc60006118a584611e5f565b6001600160a01b0316815260208101919091526040016000205492915050565b60007fdea3103d22025c269050bea94c0c84688877f12fa22b7e6d2d5d78a9a49aa1cb600083600f8111156118fc576118fc612e2e565b60ff1681526020810191909152604001600020546001600160a01b031690508061195457816040517f812281be000000000000000000000000000000000000000000000000000000008152600401610b6b9190613395565b919050565b606060006119998484808060200260200160405190810160405280939291908181526020018383602002808284376000920191909152506124ec92505050565b9050805167ffffffffffffffff8111156119b5576119b5612be1565b6040519080825280602002602001820160405280156119de578160200160208202803683370190505b50915060005b8251811015611a515760dc6000838381518110611a0357611a03612bf7565b60200260200101516001600160a01b03166001600160a01b0316815260200190815260200160002054838281518110611a3e57611a3e612bf7565b60209081029190910101526001016119e4565b505092915050565b60a3544311611a94576040517f557fd09100000000000000000000000000000000000000000000000000000000815260040160405180910390fd5b4360a355334114611ac8576000356001600160e01b0319166002604051620f948f60ea1b8152600401610b6b929190612e62565b6000611ad382611e5f565b9050611adf8282612568565b611ae7575050565b6000611af360086118c5565b90506000816001600160a01b031663060406186040518163ffffffff1660e01b8152600401602060405180830381865afa158015611b35573d6000803e3d6000fd5b505050506040513d601f19601f82011682018060405250810190611b599190612c7b565b6001600160a01b038416600090815260a460209081526040808320848452909152812080546001019081905560a85492935091611b979043906126c6565b905060a6548203611c6057846001600160a01b03167f607adba66cff84b627e3537d1c17d088a98556bccd0536a2f3590c56329023d9600285604051611bde929190612e44565b60405180910390a260a754604051630bde081360e21b81526001600160a01b0387811660048301526024820184905260448201929092526000606482015290851690632f78204c90608401600060405180830381600087803b158015611c4357600080fd5b505af1158015611c57573d6000803e3d6000fd5b50505050611df1565b60a5548203611df1576000611c75868561214e565b905080611d3557856001600160a01b03167f607adba66cff84b627e3537d1c17d088a98556bccd0536a2f3590c56329023d9600186604051611cb8929190612e44565b60405180910390a2604051630bde081360e21b81526001600160a01b038781166004830152600060248301819052604483018190526064830152861690632f78204c90608401600060405180830381600087803b158015611d1857600080fd5b505af1158015611d2c573d6000803e3d6000fd5b50505050611def565b856001600160a01b03167f607adba66cff84b627e3537d1c17d088a98556bccd0536a2f3590c56329023d9600786604051611d71929190612e44565b60405180910390a260a754604051630bde081360e21b81526001600160a01b0388811660048301526024820185905260448201929092526001606482015290861690632f78204c90608401600060405180830381600087803b158015611dd657600080fd5b505af1158015611dea573d6000803e3d6000fd5b505050505b505b50505050505b50565b611e03816118c5565b6001600160a01b0316336001600160a01b031614611df7576000356001600160e01b03191681336040517f8383e634000000000000000000000000000000000000000000000000000000008152600401610b6b939291906133a3565b6000611e6b600f6118c5565b6040517f50a9fc290000000000000000000000000000000000000000000000000000000081526001600160a01b03848116600483015291909116906350a9fc2990602401602060405180830381865afa158015611ecc573d6000803e3d6000fd5b505050506040513d601f19601f8201168201806040525081019061059f91906133d8565b6001600160a01b038216600090815260a460209081526040808320848452909152812054610c70565b6000818311611f29576000610c70565b610c70828461336e565b6000611f48611f4284866133f5565b836126e1565b949350505050565b7fb53127684a568b3173ae13b9f8a6016e243e63b6e8ee1178d6a717850b5d6103546001600160a01b03163314611faa576000356001600160e01b0319166001604051620f948f60ea1b8152600401610b6b929190612e62565b565b6040516000906067906001908390611fd0908a908a908a908a908a90602401613408565b60408051601f198184030181529190526020810180517bffffffffffffffffffffffffffffffffffffffffffffffffffffffff167f7fc356770000000000000000000000000000000000000000000000000000000017905280519091506120356126f7565b602083016020828483895afa61204a57600094505b503d61205557600093505b8361208c576040517f0fc2632100000000000000000000000000000000000000000000000000000000815260040160405180910390fd5b5115159a9950505050505050505050565b807fdea3103d22025c269050bea94c0c84688877f12fa22b7e6d2d5d78a9a49aa1cb600084600f8111156120d3576120d3612e2e565b60ff1681526020810191909152604001600020805473ffffffffffffffffffffffffffffffffffffffff19166001600160a01b03928316179055811682600f81111561212157612121612e2e565b6040517f865d1c228a8ea13709cfe61f346f7ff67f1bbd4a18ff31ad3e7147350d317c5990600090a35050565b6001600160a01b038216600090815260db6020908152604080832084845290915281205460ff16610c70565b601d829055601e81905560408051838152602081018390527f381ec200df2ed0875638486318f9f8a84e3550bdc686bf1400c9371a18d087f09101610c50565b806001600160a01b03163b600003611df7576040517f2ff1928c0000000000000000000000000000000000000000000000000000000081526001600160a01b0382166004820152602401610b6b565b60018390556002829055600381905560408051848152602081018490529081018290527f913da102149f952dde560cef3349db8e8002e9d580c41a7551d6d45329f4306b9060600160405180910390a1505050565b60a65460a55411156122aa576040517f87f6f0950000000000000000000000000000000000000000000000000000000081526001600160e01b0319600035166004820152602401610b6b565b60a584905560a683905560a782905560a88190556040805185815260208101859052908101839052606081018290527f442862e6143ad95854e7c13ff4947ec6e43bc87160e3b193e7c1abaf6e3aaa9890608001610513565b8284111561233d576040517f112af4d100000000000000000000000000000000000000000000000000000000815260040160405180910390fd5b612710811115612379576040517fe0b2228c00000000000000000000000000000000000000000000000000000000815260040160405180910390fd5b60dd84905560de83905560df82905560e08190556040805185815260208101859052908101839052606081018290527fe1f9c6c73554b5fa140eead3cfd4ec3e6d4824f3ed26fb25e38376f65b95470b90608001610513565b60006123de600a6118c5565b6040517fd78392f80000000000000000000000000000000000000000000000000000000081526001600160a01b038481166004830152919091169063d78392f890602401602060405180830381865afa15801561243f573d6000803e3d6000fd5b505050506040513d601f19601f8201168201806040525081019061059f9190612c7b565b6040516000906069906001908390612487908a908a908a908a908a906024016134bb565b60408051601f198184030181529190526020810180517bffffffffffffffffffffffffffffffffffffffffffffffffffffffff167f7b47d06b0000000000000000000000000000000000000000000000000000000017905280519091506120356126f7565b60606124f8600f6118c5565b6001600160a01b031663f9226b1a836040518263ffffffff1660e01b8152600401612523919061359e565b600060405180830381865afa158015612540573d6000803e3d6000fd5b505050506040513d6000823e601f3d908101601f1916820160405261059f91908101906135eb565b6000336001600160a01b0384161480159061258c5750336001600160a01b03831614155b8015612622575061259d60086118c5565b6040517f65244ece0000000000000000000000000000000000000000000000000000000081526001600160a01b03858116600483015291909116906365244ece90602401602060405180830381865afa1580156125fe573d6000803e3d6000fd5b505050506040513d601f19601f82011682018060405250810190612622919061316f565b8015610c70575061263360056118c5565b6040517f8d5b67590000000000000000000000000000000000000000000000000000000081526001600160a01b0384811660048301524360248301529190911690638d5b675990604401602060405180830381865afa15801561269a573d6000803e3d6000fd5b505050506040513d601f19601f820116820180604052508101906126be919061316f565b159392505050565b6000816000036126d7576000610c70565b610c7082846133f5565b60008183106126f05781610c70565b5090919050565b60405180602001604052806001906020820280368337509192915050565b60008083601f84011261272757600080fd5b50813567ffffffffffffffff81111561273f57600080fd5b6020830191508360208260051b850101111561275a57600080fd5b9250929050565b6000806020838503121561277457600080fd5b823567ffffffffffffffff81111561278b57600080fd5b61279785828601612715565b90969095509350505050565b6001600160a01b0381168114611df757600080fd5b6000602082840312156127ca57600080fd5b8135610c70816127a3565b6000806000604084860312156127ea57600080fd5b833567ffffffffffffffff81111561280157600080fd5b61280d86828701612715565b909790965060209590950135949350505050565b60008083601f84011261283357600080fd5b50813567ffffffffffffffff81111561284b57600080fd5b60208301915083602082850101111561275a57600080fd5b60008060008060006060868803121561287b57600080fd5b8535612886816127a3565b9450602086013567ffffffffffffffff808211156128a357600080fd5b6128af89838a01612821565b909650945060408801359150808211156128c857600080fd5b506128d588828901612821565b969995985093965092949392505050565b600080604083850312156128f957600080fd5b8235612904816127a3565b946020939093013593505050565b80356010811061195457600080fd5b6000806040838503121561293457600080fd5b61293d83612912565b9150602083013561294d816127a3565b809150509250929050565b806080810183101561059f57600080fd5b806040810183101561059f57600080fd5b60008060008060008060008060006102a08a8c03121561299957600080fd5b89356129a4816127a3565b985060208a01356129b4816127a3565b975060408a01356129c4816127a3565b965060608a01356129d4816127a3565b95506129e38b60808c01612958565b94506129f38b6101008c01612969565b93506101a08a018b811115612a0757600080fd5b6101408b019350612a188c82612958565b925050612a298b6102208c01612958565b90509295985092959850929598565b60008060408385031215612a4b57600080fd5b50508035926020909101359150565b60008060008060808587031215612a7057600080fd5b5050823594602084013594506040840135936060013592509050565b600080600060608486031215612aa157600080fd5b505081359360208301359350604090920135919050565b600080600080600080600060e0888a031215612ad357600080fd5b8735612ade816127a3565b9650602088013567ffffffffffffffff80821115612afb57600080fd5b612b078b838c01612821565b909850965060408a01359550869150612b238b60608c01612969565b945060a08a0135915080821115612b3957600080fd5b612b458b838c01612969565b935060c08a0135915080821115612b5b57600080fd5b50612b688a828b01612969565b91505092959891949750929550565b600060208284031215612b8957600080fd5b610c7082612912565b60008151808452602080850194506020840160005b83811015612bc357815187529582019590820190600101612ba7565b509495945050505050565b602081526000610c706020830184612b92565b634e487b7160e01b600052604160045260246000fd5b634e487b7160e01b600052603260045260246000fd5b8183526000602080850194508260005b85811015612bc3578135612c30816127a3565b6001600160a01b031687529582019590820190600101612c1d565b604081526000612c5f604083018587612c0d565b8281036020840152612c718185612b92565b9695505050505050565b600060208284031215612c8d57600080fd5b5051919050565b602081526000611f48602083018486612c0d565b604051610100810167ffffffffffffffff81118282101715612ccc57612ccc612be1565b60405290565b6040805190810167ffffffffffffffff81118282101715612ccc57612ccc612be1565b604051601f8201601f1916810167ffffffffffffffff81118282101715612d1e57612d1e612be1565b604052919050565b600067ffffffffffffffff821115612d4057612d40612be1565b5060051b60200190565b8051801515811461195457600080fd5b60006020808385031215612d6d57600080fd5b825167ffffffffffffffff811115612d8457600080fd5b8301601f81018513612d9557600080fd5b8051612da8612da382612d26565b612cf5565b81815260059190911b82018301908381019087831115612dc757600080fd5b928401925b82841015612dec57612ddd84612d4a565b82529284019290840190612dcc565b979650505050505050565b606081526000612e0b606083018688612c0d565b6020830194909452506040015292915050565b8183823760009101908152919050565b634e487b7160e01b600052602160045260246000fd5b6040810160098410612e5857612e58612e2e565b9281526020015290565b6001600160e01b03198316815260408101600b8310612e8357612e83612e2e565b8260208301529392505050565b8051611954816127a3565b600067ffffffffffffffff821115612eb557612eb5612be1565b50601f01601f191660200190565b60005b83811015612ede578181015183820152602001612ec6565b50506000910152565b600082601f830112612ef857600080fd5b8151612f06612da382612e9b565b818152846020838601011115612f1b57600080fd5b611f48826020830160208701612ec3565b600060208284031215612f3e57600080fd5b815167ffffffffffffffff80821115612f5657600080fd5b908301906101008286031215612f6b57600080fd5b612f73612ca8565b612f7c83612e90565b8152612f8a60208401612e90565b6020820152612f9b60408401612e90565b6040820152612fac60608401612e90565b6060820152612fbd60808401612e90565b608082015260a083015182811115612fd457600080fd5b612fe087828601612ee7565b60a08301525060c083015160c082015260e08301518281111561300257600080fd5b61300e87828601612ee7565b60e08301525095945050505050565b81835281816020850137506000828201602090810191909152601f909101601f19169091010190565b6000838385526020808601955060208560051b8301018460005b878110156130d057848303601f19018952813536889003601e1901811261308657600080fd5b8701848101903567ffffffffffffffff8111156130a257600080fd5b8036038213156130b157600080fd5b6130bc85828461301d565b9a86019a9450505090830190600101613060565b5090979650505050505050565b60208082526000906060830183820185845b600281101561316357868403601f19018352813536899003601e1901811261311657600080fd5b8801858101903567ffffffffffffffff81111561313257600080fd5b8060051b360382131561314457600080fd5b61314f868284613046565b9550505091840191908401906001016130ef565b50919695505050505050565b60006020828403121561318157600080fd5b610c7082612d4a565b600082601f83011261319b57600080fd5b81356131a9612da382612e9b565b8181528460208386010111156131be57600080fd5b816020850160208301376000918101602001919091529392505050565b60006131e5612cd2565b8060408401368111156131f757600080fd5b845b818110156132a957803567ffffffffffffffff8082111561321a5760008081fd5b9087019036601f83011261322e5760008081fd5b8135602061323e612da383612d26565b82815260059290921b8401810191818101903684111561325e5760008081fd5b8286015b848110156132965780358681111561327a5760008081fd5b6132883686838b010161318a565b845250918301918301613262565b50895250909601955050506020016131f9565b5090949350505050565b60006132bd612cd2565b8060408401368111156132cf57600080fd5b845b818110156132a957803567ffffffffffffffff8111156132f15760008081fd5b6132fd3682890161318a565b855250602093840193016132d1565b60008060006060848603121561332157600080fd5b61332a84612d4a565b925060208401519150604084015190509250925092565b634e487b7160e01b600052601160045260246000fd5b808202811582820484141761059f5761059f613341565b8181038181111561059f5761059f613341565b6010811061339157613391612e2e565b9052565b6020810161059f8284613381565b6001600160e01b031984168152606081016133c16020830185613381565b6001600160a01b0383166040830152949350505050565b6000602082840312156133ea57600080fd5b8151610c70816127a3565b8082018082111561059f5761059f613341565b6001600160a01b038616815260606020820152600061342b60608301868861301d565b828103604084015261343e81858761301d565b98975050505050505050565b60008151808452613462816020860160208601612ec3565b601f01601f19169290920160200192915050565b600082604081018360005b60028110156134b057838303875261349a83835161344a565b6020978801979093509190910190600101613481565b509095945050505050565b60c0815260006134ce60c083018861344a565b60208781850152604084018760005b60028110156134fa578151835291830191908301906001016134dd565b505050838203608085015281604081018760005b600281101561357b578583038452815180518085529086019086850190600581901b8601880160005b8281101561356557601f1988830301845261355382865161344a565b948a0194938a01939150600101613537565b509688019695505050918501915060010161350e565b505085810360a087015261358f8188613476565b9b9a5050505050505050505050565b6020808252825182820181905260009190848201906040850190845b818110156135df5783516001600160a01b0316835292840192918401916001016135ba565b50909695505050505050565b600060208083850312156135fe57600080fd5b825167ffffffffffffffff81111561361557600080fd5b8301601f8101851361362657600080fd5b8051613634612da382612d26565b81815260059190911b8201830190838101908783111561365357600080fd5b928401925b82841015612dec57835161366b816127a3565b8252928401929084019061365856fea2646970667358221220ed0a26977c8f4aac9d52dc1a0712d11178015308815a7a62153c9451385d8f4a64736f6c63430008160033",
  "chainId": 2021,
  "contractAbsolutePath": "SlashIndicator.sol",
  "deployer": "0x31762cdd4Aa65CD6f5F09D7a05a56211720A1168",
  "devdoc": {
    "version": 1,
    "kind": "dev",
    "methods": {
      "bailOut(address)": {
        "details": "A slashed validator use this method to get out of jail. Requirements: - The `_consensusAddr` must be a validator. - Only validator's admin can call this method. Emits the event `BailedOut`."
      },
      "checkBailedOutAtPeriod(address,uint256)": {
        "details": "Returns the whether the `consensus` has been bailed out at the `period`."
      },
      "currentUnavailabilityIndicator(address)": {
        "details": "Returns the current unavailability indicator of a block producer."
      },
      "execResetCreditScores(address[])": {
        "details": "Resets the credit score for the revoked validators. Requirements: - Only validator contract can call this method. - This method is only called at the end of each period. Emits the event `CreditScoresUpdated`."
      },
      "execUpdateCreditScores(address[],uint256)": {
        "details": "Updates the credit score for the validators. Requirements: - Only validator contract can call this method. - This method is only called at the end of each period. Emits the event `CreditScoresUpdated`."
      },
      "getContract(uint8)": {
        "details": "Returns the address of a contract with a specific role. Throws an error if no contract is set for the specified role.",
        "params": {
          "contractType": "The role of the contract to retrieve."
        },
        "returns": {
          "contract_": "The address of the contract with the specified role."
        }
      },
      "getCreditScore(address)": {
        "details": "Returns the current credit score of the validator."
      },
      "getCreditScoreConfigs()": {
        "details": "Returns the configs related to credit score.",
        "returns": {
          "bailOutCostMultiplier_": "The number that will be multiplied with the remaining jailed time to get the cost of bailing out.",
          "cutOffPercentageAfterBailout_": "The percentage of reward that the block producer will be cut off from until the end of the period after bailing out.",
          "gainCreditScore_": "The score to gain per period.",
          "maxCreditScore_": "The max number of credit score that a validator can hold."
        }
      },
      "getDoubleSignSlashingConfigs()": {
        "details": "Returns the configs related to block producer slashing.",
        "params": {
          "_doubleSigningOffsetLimitBlock": "The number of block that the current block is at most far from the double signing block."
        },
        "returns": {
          "doubleSigningJailUntilBlock_": "The block number that the punished validator will be jailed until, due to double signing.",
          "slashDoubleSignAmount_": "The amount of RON to slash double sign."
        }
      },
      "getFastFinalitySlashingConfigs()": {
        "details": "Returns the configs related to block producer slashing.",
        "returns": {
          "fastFinalityJailUntilBlock_": "The block number that the punished validator will be jailed until, due to malicious fast finality.",
          "slashFastFinalityAmount_": "The amount of RON to slash fast finality."
        }
      },
      "getManyCreditScores(address[])": {
        "details": "Returns the current credit score of a list of validators."
      },
      "getUnavailabilityIndicator(address,uint256)": {
        "details": "Returns the unavailability indicator in the period `period` of a block producer."
      },
      "getUnavailabilitySlashingConfigs()": {
        "details": "Returns the configs related to block producer slashing.",
        "returns": {
          "jailDurationForUnavailabilityTier2Threshold_": "The number of blocks to jail a block producer when (s)he is slashed with tier-2 or tier-3.",
          "slashAmountForUnavailabilityTier2Threshold_": "The amount of RON to deduct from self-staking of a block producer when (s)he is slashed with tier-2 or tier-3.",
          "unavailabilityTier1Threshold_": "The mining reward will be deprecated, if (s)he missed more than this threshold. This threshold is applied for tier-1 and tier-3 slash.",
          "unavailabilityTier2Threshold_": " The mining reward will be deprecated, (s)he will be put in jailed, and will be deducted self-staking if (s)he misses more than this threshold. This threshold is applied for tier-2 slash."
        }
      },
      "initialize(address,address,address,address,uint256[4],uint256[2],uint256[3],uint256[4],uint256[4])": {
        "details": "Initializes the contract storage."
      },
      "lastUnavailabilitySlashedBlock()": {
        "details": "Returns the last block that a block producer is slashed for unavailability."
      },
      "precompileValidateDoubleSignAddress()": {
        "details": "Gets the address of the precompile of validating double sign evidence"
      },
      "precompileValidateFastFinalityAddress()": {
        "details": "Gets the address of the precompile of validating double sign evidence"
      },
      "setContract(uint8,address)": {
        "details": "Sets the address of a contract with a specific role. Emits the event {ContractUpdated}.",
        "params": {
          "addr": "The address of the contract to set.",
          "contractType": "The role of the contract to set."
        }
      },
      "setCreditScoreConfigs(uint256,uint256,uint256,uint256)": {
        "details": "Sets the configs to credit score. Requirements: - The method caller is admin. Emits the event `CreditScoreConfigsUpdated`.",
        "params": {
          "_bailOutMultiplier": "The number that will be multiplied with the remaining jailed time to get the cost of bailing out.",
          "_cutOffPercentage": "The percentage of reward that the block producer will be cut off from until the end of the period after bailing out.",
          "_gainScore": "The score to gain per period.",
          "_maxScore": "The max number of credit score that a validator can hold."
        }
      },
      "setDoubleSignSlashingConfigs(uint256,uint256,uint256)": {
        "details": "Sets the configs to slash block producers. Requirements: - The method caller is admin. Emits the event `DoubleSignSlashingConfigsUpdated`.",
        "params": {
          "_doubleSigningOffsetLimitBlock": "The number of block that the current block is at most far from the double signing block.",
          "_jailUntilBlock": "The block number that the punished validator will be jailed until, due to double signing.",
          "_slashAmount": "The amount of RON to slash double sign."
        }
      },
      "setFastFinalitySlashingConfigs(uint256,uint256)": {
        "details": "Sets the configs to slash block producers. Requirements: - The method caller is admin. Emits the event `FastFinalitySlashingConfigsUpdated`.",
        "params": {
          "jailUntilBlock": "The block number that the punished validator will be jailed until, due to fast finality.",
          "slashAmount": "The amount of RON to slash fast finality."
        }
      },
      "setUnavailabilitySlashingConfigs(uint256,uint256,uint256,uint256)": {
        "details": "Sets the configs to slash block producers. Requirements: - The method caller is admin. Emits the event `BridgeOperatorSlashingConfigsUpdated`.",
        "params": {
          "jailDurationForTier2Threshold": "The number of blocks to jail a block producer when (s)he is slashed tier-2.",
          "slashAmountForTier2Threshold": "The amount of RON to deduct from self-staking of a block producer when (s)he is slashed tier-2.",
          "tier1Threshold": "The mining reward will be deprecated, if (s)he missed more than this threshold.",
          "tier2Threshold": "The mining reward will be deprecated, (s)he will be put in jailed, and will be deducted self-staking if (s)he misses more than this threshold."
        }
      },
      "slashDoubleSign(address,bytes,bytes)": {
        "details": "Slashes for double signing. Requirements: - The method caller is coinbase. Emits the event `Slashed` if the double signing evidence of the two headers valid."
      },
      "slashFastFinality(address,bytes,uint256,bytes32[2],bytes[][2],bytes[2])": {
        "details": "Slashes for fast finality. Requirements: - Only whitelisted addresses are allowed to call. Emits the event `Slashed` if the fast finality evidence of the two headers valid."
      },
      "slashUnavailability(address)": {
        "details": "Slashes for unavailability by increasing the counter of block producer `consensusAddr`. Requirements: - The method caller is coinbase. Emits the event `Slashed` when the threshold is reached."
      }
    },
    "events": {
      "BailedOut(address,uint256,uint256)": {
        "details": "Emitted when a validator bailed out of jail."
      },
      "ContractUpdated(uint8,address)": {
        "details": "Emitted when a contract is updated."
      },
      "CreditScoreConfigsUpdated(uint256,uint256,uint256,uint256)": {
        "details": "Emitted when the configs to credit score is updated. See the method `setCreditScoreConfigs` for param details."
      },
      "CreditScoresUpdated(address[],uint256[])": {
        "details": "Emitted the credit score of validators is updated."
      },
      "DoubleSignSlashingConfigsUpdated(uint256,uint256,uint256)": {
        "details": "Emitted when the configs to slash double sign is updated. See the method `getDoubleSignSlashingConfigs` for param details."
      },
      "FastFinalitySlashingConfigsUpdated(uint256,uint256)": {
        "details": "Emitted when the configs to slash fast finality is updated. See the method `getFastFinalitySlashingConfigs` for param details."
      },
      "Initialized(uint8)": {
        "details": "Triggered when the contract has been initialized or reinitialized."
      },
      "Slashed(address,uint8,uint256)": {
        "details": "Emitted when the validator is slashed."
      },
      "UnavailabilitySlashingConfigsUpdated(uint256,uint256,uint256,uint256)": {
        "details": "Emitted when the configs to slash bridge operator is updated. See the method `getUnavailabilitySlashingConfigs` for param details."
      }
    },
    "errors": {
      "ErrCallPrecompiled()": [
        {
          "details": "Error of call to precompile fails."
        }
      ],
      "ErrCallerMustBeJailedInTheCurrentPeriod()": [
        {
          "details": "Error thrown when the caller must be jailed in the current period."
        }
      ],
      "ErrCannotSlashAValidatorTwiceOrSlashMoreThanOneValidatorInOneBlock()": [
        {
          "details": "Error thrown when attempting to slash a validator twice or slash more than one validator in one block."
        }
      ],
      "ErrContractTypeNotFound(uint8)": [
        {
          "details": "Error of invalid role."
        }
      ],
      "ErrEvidenceAlreadySubmitted()": [
        {
          "details": "Error thrown when evidence has already been submitted."
        }
      ],
      "ErrInsufficientCreditScoreToBailOut()": [
        {
          "details": "Error thrown when the caller's credit score is insufficient to bail out a situation."
        }
      ],
      "ErrInvalidArguments(bytes4)": [
        {
          "details": "Error indicating that arguments are invalid."
        }
      ],
      "ErrInvalidCreditScoreConfig()": [
        {
          "details": "Error thrown when an invalid credit score configuration is provided."
        }
      ],
      "ErrInvalidCutOffPercentageConfig()": [
        {
          "details": "Error thrown when an invalid cut-off percentage configuration is provided."
        }
      ],
      "ErrInvalidThreshold(bytes4)": [
        {
          "details": "Error indicating that the provided threshold is invalid for a specific function signature.",
          "params": {
            "msgSig": "The function signature (bytes4) that the invalid threshold applies to."
          }
        }
      ],
      "ErrUnauthorized(bytes4,uint8)": [
        {
          "details": "Error indicating that the caller is unauthorized to perform a specific function.",
          "params": {
            "expectedRole": "The role required to perform the function.",
            "msgSig": "The function signature (bytes4) that the caller is unauthorized to perform."
          }
        }
      ],
      "ErrUnexpectedInternalCall(bytes4,uint8,address)": [
        {
          "details": "Error indicating that the caller is unauthorized to perform a specific function.",
          "params": {
            "actual": "The actual address that called to the function.",
            "expectedContractType": "The contract type required to perform the function.",
            "msgSig": "The function signature (bytes4)."
          }
        }
      ],
      "ErrUnregisteredPublicKey()": [
        {
          "details": "Error thrown when public key in evidence is not registered."
        }
      ],
      "ErrValidatorHasBailedOutPreviously()": [
        {
          "details": "Error thrown when a validator has previously bailed out."
        }
      ],
      "ErrZeroCodeContract(address)": [
        {
          "details": "Error of set to non-contract."
        }
      ]
    }
  },
  "isFoundry": true,
  "nonce": 33,
  "numDeployments": 14,
  "storageLayout": {
    "storage": [
      {
        "astId": 38263,
        "contract": "contracts/ronin/slash-indicator/SlashIndicator.sol:SlashIndicator",
        "label": "______deprecatedValidator",
        "offset": 0,
        "slot": "0",
        "type": "t_address"
      },
      {
        "astId": 28524,
        "contract": "contracts/ronin/slash-indicator/SlashIndicator.sol:SlashIndicator",
        "label": "_slashDoubleSignAmount",
        "offset": 0,
        "slot": "1",
        "type": "t_uint256"
      },
      {
        "astId": 28527,
        "contract": "contracts/ronin/slash-indicator/SlashIndicator.sol:SlashIndicator",
        "label": "_doubleSigningJailUntilBlock",
        "offset": 0,
        "slot": "2",
        "type": "t_uint256"
      },
      {
        "astId": 28530,
        "contract": "contracts/ronin/slash-indicator/SlashIndicator.sol:SlashIndicator",
        "label": "_doubleSigningOffsetLimitBlock",
        "offset": 0,
        "slot": "3",
        "type": "t_uint256"
      },
      {
        "astId": 28535,
        "contract": "contracts/ronin/slash-indicator/SlashIndicator.sol:SlashIndicator",
        "label": "_submittedEvidence",
        "offset": 0,
        "slot": "4",
        "type": "t_mapping(t_bytes32,t_bool)"
      },
      {
        "astId": 28540,
        "contract": "contracts/ronin/slash-indicator/SlashIndicator.sol:SlashIndicator",
        "label": "______gap",
        "offset": 0,
        "slot": "5",
        "type": "t_array(t_uint256)24_storage"
      },
      {
        "astId": 28758,
        "contract": "contracts/ronin/slash-indicator/SlashIndicator.sol:SlashIndicator",
        "label": "_slashFastFinalityAmount",
        "offset": 0,
        "slot": "29",
        "type": "t_uint256"
      },
      {
        "astId": 28761,
        "contract": "contracts/ronin/slash-indicator/SlashIndicator.sol:SlashIndicator",
        "label": "_fastFinalityJailUntilBlock",
        "offset": 0,
        "slot": "30",
        "type": "t_uint256"
      },
      {
        "astId": 28766,
        "contract": "contracts/ronin/slash-indicator/SlashIndicator.sol:SlashIndicator",
        "label": "_processedEvidence",
        "offset": 0,
        "slot": "31",
        "type": "t_mapping(t_bytes32,t_bool)"
      },
      {
        "astId": 28771,
        "contract": "contracts/ronin/slash-indicator/SlashIndicator.sol:SlashIndicator",
        "label": "______gap",
        "offset": 0,
        "slot": "32",
        "type": "t_array(t_uint256)21_storage"
      },
      {
        "astId": 38275,
        "contract": "contracts/ronin/slash-indicator/SlashIndicator.sol:SlashIndicator",
        "label": "______deprecatedTrustedOrg",
        "offset": 0,
        "slot": "53",
        "type": "t_address"
      },
      {
        "astId": 38279,
        "contract": "contracts/ronin/slash-indicator/SlashIndicator.sol:SlashIndicator",
        "label": "______deprecatedGovernanceAdmin",
        "offset": 0,
        "slot": "54",
        "type": "t_address"
      },
      {
        "astId": 28493,
        "contract": "contracts/ronin/slash-indicator/SlashIndicator.sol:SlashIndicator",
        "label": "__deprecatedBridgeVotingSlashed",
        "offset": 0,
        "slot": "55",
        "type": "t_mapping(t_address,t_mapping(t_uint256,t_bool))"
      },
      {
        "astId": 28496,
        "contract": "contracts/ronin/slash-indicator/SlashIndicator.sol:SlashIndicator",
        "label": "__deprecatedBridgeVotingThreshold",
        "offset": 0,
        "slot": "56",
        "type": "t_uint256"
      },
      {
        "astId": 28499,
        "contract": "contracts/ronin/slash-indicator/SlashIndicator.sol:SlashIndicator",
        "label": "__deprecatedBridgeVotingSlashAmount",
        "offset": 0,
        "slot": "57",
        "type": "t_uint256"
      },
      {
        "astId": 28504,
        "contract": "contracts/ronin/slash-indicator/SlashIndicator.sol:SlashIndicator",
        "label": "______gap",
        "offset": 0,
        "slot": "58",
        "type": "t_array(t_uint256)50_storage"
      },
      {
        "astId": 38271,
        "contract": "contracts/ronin/slash-indicator/SlashIndicator.sol:SlashIndicator",
        "label": "______deprecatedMaintenance",
        "offset": 0,
        "slot": "108",
        "type": "t_address"
      },
      {
        "astId": 28456,
        "contract": "contracts/ronin/slash-indicator/SlashIndicator.sol:SlashIndicator",
        "label": "____deprecatedMissingVotesRatioTier1",
        "offset": 0,
        "slot": "109",
        "type": "t_uint256"
      },
      {
        "astId": 28459,
        "contract": "contracts/ronin/slash-indicator/SlashIndicator.sol:SlashIndicator",
        "label": "____deprecatedMissingVotesRatioTier2",
        "offset": 0,
        "slot": "110",
        "type": "t_uint256"
      },
      {
        "astId": 28462,
        "contract": "contracts/ronin/slash-indicator/SlashIndicator.sol:SlashIndicator",
        "label": "____deprecatedJailDurationForMissingVotesRatioTier2",
        "offset": 0,
        "slot": "111",
        "type": "t_uint256"
      },
      {
        "astId": 28465,
        "contract": "contracts/ronin/slash-indicator/SlashIndicator.sol:SlashIndicator",
        "label": "____deprecatedSkipBridgeOperatorSlashingThreshold",
        "offset": 0,
        "slot": "112",
        "type": "t_uint256"
      },
      {
        "astId": 28470,
        "contract": "contracts/ronin/slash-indicator/SlashIndicator.sol:SlashIndicator",
        "label": "______gap",
        "offset": 0,
        "slot": "113",
        "type": "t_array(t_uint256)50_storage"
      },
      {
        "astId": 29408,
        "contract": "contracts/ronin/slash-indicator/SlashIndicator.sol:SlashIndicator",
        "label": "_lastUnavailabilitySlashedBlock",
        "offset": 0,
        "slot": "163",
        "type": "t_uint256"
      },
      {
        "astId": 29415,
        "contract": "contracts/ronin/slash-indicator/SlashIndicator.sol:SlashIndicator",
        "label": "_unavailabilityIndicator",
        "offset": 0,
        "slot": "164",
        "type": "t_mapping(t_address,t_mapping(t_uint256,t_uint256))"
      },
      {
        "astId": 29418,
        "contract": "contracts/ronin/slash-indicator/SlashIndicator.sol:SlashIndicator",
        "label": "_unavailabilityTier1Threshold",
        "offset": 0,
        "slot": "165",
        "type": "t_uint256"
      },
      {
        "astId": 29421,
        "contract": "contracts/ronin/slash-indicator/SlashIndicator.sol:SlashIndicator",
        "label": "_unavailabilityTier2Threshold",
        "offset": 0,
        "slot": "166",
        "type": "t_uint256"
      },
      {
        "astId": 29424,
        "contract": "contracts/ronin/slash-indicator/SlashIndicator.sol:SlashIndicator",
        "label": "_slashAmountForUnavailabilityTier2Threshold",
        "offset": 0,
        "slot": "167",
        "type": "t_uint256"
      },
      {
        "astId": 29427,
        "contract": "contracts/ronin/slash-indicator/SlashIndicator.sol:SlashIndicator",
        "label": "_jailDurationForUnavailabilityTier2Threshold",
        "offset": 0,
        "slot": "168",
        "type": "t_uint256"
      },
      {
        "astId": 29432,
        "contract": "contracts/ronin/slash-indicator/SlashIndicator.sol:SlashIndicator",
        "label": "______gap",
        "offset": 0,
        "slot": "169",
        "type": "t_array(t_uint256)50_storage"
      },
      {
        "astId": 27834,
        "contract": "contracts/ronin/slash-indicator/SlashIndicator.sol:SlashIndicator",
        "label": "_checkBailedOutAtPeriod",
        "offset": 0,
        "slot": "219",
        "type": "t_mapping(t_address,t_mapping(t_uint256,t_bool))"
      },
      {
        "astId": 27839,
        "contract": "contracts/ronin/slash-indicator/SlashIndicator.sol:SlashIndicator",
        "label": "_creditScore",
        "offset": 0,
        "slot": "220",
        "type": "t_mapping(t_address,t_uint256)"
      },
      {
        "astId": 27842,
        "contract": "contracts/ronin/slash-indicator/SlashIndicator.sol:SlashIndicator",
        "label": "_gainCreditScore",
        "offset": 0,
        "slot": "221",
        "type": "t_uint256"
      },
      {
        "astId": 27845,
        "contract": "contracts/ronin/slash-indicator/SlashIndicator.sol:SlashIndicator",
        "label": "_maxCreditScore",
        "offset": 0,
        "slot": "222",
        "type": "t_uint256"
      },
      {
        "astId": 27848,
        "contract": "contracts/ronin/slash-indicator/SlashIndicator.sol:SlashIndicator",
        "label": "_bailOutCostMultiplier",
        "offset": 0,
        "slot": "223",
        "type": "t_uint256"
      },
      {
        "astId": 27851,
        "contract": "contracts/ronin/slash-indicator/SlashIndicator.sol:SlashIndicator",
        "label": "_cutOffPercentageAfterBailout",
        "offset": 0,
        "slot": "224",
        "type": "t_uint256"
      },
      {
        "astId": 27856,
        "contract": "contracts/ronin/slash-indicator/SlashIndicator.sol:SlashIndicator",
        "label": "______gap",
        "offset": 0,
        "slot": "225",
        "type": "t_array(t_uint256)50_storage"
      },
      {
        "astId": 150154,
        "contract": "contracts/ronin/slash-indicator/SlashIndicator.sol:SlashIndicator",
        "label": "_initialized",
        "offset": 0,
        "slot": "275",
        "type": "t_uint8"
      },
      {
        "astId": 150157,
        "contract": "contracts/ronin/slash-indicator/SlashIndicator.sol:SlashIndicator",
        "label": "_initializing",
        "offset": 1,
        "slot": "275",
        "type": "t_bool"
      }
    ],
    "types": {
      "t_address": {
        "encoding": "inplace",
        "label": "address",
        "numberOfBytes": "20"
      },
      "t_array(t_uint256)21_storage": {
        "encoding": "inplace",
        "label": "uint256[21]",
        "numberOfBytes": "672",
        "base": "t_uint256"
      },
      "t_array(t_uint256)24_storage": {
        "encoding": "inplace",
        "label": "uint256[24]",
        "numberOfBytes": "768",
        "base": "t_uint256"
      },
      "t_array(t_uint256)50_storage": {
        "encoding": "inplace",
        "label": "uint256[50]",
        "numberOfBytes": "1600",
        "base": "t_uint256"
      },
      "t_bool": {
        "encoding": "inplace",
        "label": "bool",
        "numberOfBytes": "1"
      },
      "t_bytes32": {
        "encoding": "inplace",
        "label": "bytes32",
        "numberOfBytes": "32"
      },
      "t_mapping(t_address,t_mapping(t_uint256,t_bool))": {
        "encoding": "mapping",
        "key": "t_address",
        "label": "mapping(address => mapping(uint256 => bool))",
        "numberOfBytes": "32",
        "value": "t_mapping(t_uint256,t_bool)"
      },
      "t_mapping(t_address,t_mapping(t_uint256,t_uint256))": {
        "encoding": "mapping",
        "key": "t_address",
        "label": "mapping(address => mapping(uint256 => uint256))",
        "numberOfBytes": "32",
        "value": "t_mapping(t_uint256,t_uint256)"
      },
      "t_mapping(t_address,t_uint256)": {
        "encoding": "mapping",
        "key": "t_address",
        "label": "mapping(address => uint256)",
        "numberOfBytes": "32",
        "value": "t_uint256"
      },
      "t_mapping(t_bytes32,t_bool)": {
        "encoding": "mapping",
        "key": "t_bytes32",
        "label": "mapping(bytes32 => bool)",
        "numberOfBytes": "32",
        "value": "t_bool"
      },
      "t_mapping(t_uint256,t_bool)": {
        "encoding": "mapping",
        "key": "t_uint256",
        "label": "mapping(uint256 => bool)",
        "numberOfBytes": "32",
        "value": "t_bool"
      },
      "t_mapping(t_uint256,t_uint256)": {
        "encoding": "mapping",
        "key": "t_uint256",
        "label": "mapping(uint256 => uint256)",
        "numberOfBytes": "32",
        "value": "t_uint256"
      },
      "t_uint256": {
        "encoding": "inplace",
        "label": "uint256",
        "numberOfBytes": "32"
      },
      "t_uint8": {
        "encoding": "inplace",
        "label": "uint8",
        "numberOfBytes": "1"
      }
    }
  },
  "timestamp": 1708420448,
  "userdoc": {
    "version": 1,
    "kind": "user"
  }
}