{
  "abi": [
    {
      "type": "constructor",
      "inputs": [],
      "stateMutability": "nonpayable"
    },
    {
      "type": "fallback",
      "stateMutability": "payable"
    },
    {
      "type": "receive",
      "stateMutability": "payable"
    },
    {
      "type": "function",
      "name": "DEFAULT_ADDITION_GAS",
      "inputs": [],
      "outputs": [
        {
          "name": "",
          "type": "uint256",
          "internalType": "uint256"
        }
      ],
      "stateMutability": "view"
    },
    {
      "type": "function",
      "name": "PERIOD_DURATION",
      "inputs": [],
      "outputs": [
        {
          "name": "",
          "type": "uint256",
          "internalType": "uint256"
        }
      ],
      "stateMutability": "view"
    },
    {
      "type": "function",
      "name": "applyValidatorCandidate",
      "inputs": [
        {
          "name": "candidateAdmin",
          "type": "address",
          "internalType": "address"
        },
        {
          "name": "consensusAddr",
          "type": "address",
          "internalType": "TConsensus"
        },
        {
          "name": "treasuryAddr",
          "type": "address",
          "internalType": "address payable"
        },
        {
          "name": "commissionRate",
          "type": "uint256",
          "internalType": "uint256"
        },
        {
          "name": "pubkey",
          "type": "bytes",
          "internalType": "bytes"
        },
        {
          "name": "proofOfPossession",
          "type": "bytes",
          "internalType": "bytes"
        }
      ],
      "outputs": [],
      "stateMutability": "payable"
    },
    {
      "type": "function",
      "name": "bulkUndelegate",
      "inputs": [
        {
          "name": "consensusAddrs",
          "type": "address[]",
          "internalType": "TConsensus[]"
        },
        {
          "name": "amounts",
          "type": "uint256[]",
          "internalType": "uint256[]"
        }
      ],
      "outputs": [],
      "stateMutability": "nonpayable"
    },
    {
      "type": "function",
      "name": "claimRewards",
      "inputs": [
        {
          "name": "consensusAddrList",
          "type": "address[]",
          "internalType": "TConsensus[]"
        }
      ],
      "outputs": [
        {
          "name": "amount",
          "type": "uint256",
          "internalType": "uint256"
        }
      ],
      "stateMutability": "nonpayable"
    },
    {
      "type": "function",
      "name": "cooldownSecsToUndelegate",
      "inputs": [],
      "outputs": [
        {
          "name": "",
          "type": "uint256",
          "internalType": "uint256"
        }
      ],
      "stateMutability": "view"
    },
    {
      "type": "function",
      "name": "delegate",
      "inputs": [
        {
          "name": "consensusAddr",
          "type": "address",
          "internalType": "TConsensus"
        }
      ],
      "outputs": [],
      "stateMutability": "payable"
    },
    {
      "type": "function",
      "name": "delegateRewards",
      "inputs": [
        {
          "name": "consensusAddrList",
          "type": "address[]",
          "internalType": "TConsensus[]"
        },
        {
          "name": "consensusAddrDst",
          "type": "address",
          "internalType": "TConsensus"
        }
      ],
      "outputs": [
        {
          "name": "amount",
          "type": "uint256",
          "internalType": "uint256"
        }
      ],
      "stateMutability": "nonpayable"
    },
    {
      "type": "function",
      "name": "execChangeAdminAddress",
      "inputs": [
        {
          "name": "poolAddr",
          "type": "address",
          "internalType": "address"
        },
        {
          "name": "newAdminAddr",
          "type": "address",
          "internalType": "address"
        }
      ],
      "outputs": [],
      "stateMutability": "nonpayable"
    },
    {
      "type": "function",
      "name": "execDeductStakingAmount",
      "inputs": [
        {
          "name": "poolId",
          "type": "address",
          "internalType": "address"
        },
        {
          "name": "amount",
          "type": "uint256",
          "internalType": "uint256"
        }
      ],
      "outputs": [
        {
          "name": "actualDeductingAmount_",
          "type": "uint256",
          "internalType": "uint256"
        }
      ],
      "stateMutability": "nonpayable"
    },
    {
      "type": "function",
      "name": "execDeprecatePools",
      "inputs": [
        {
          "name": "poolIds",
          "type": "address[]",
          "internalType": "address[]"
        },
        {
          "name": "newPeriod",
          "type": "uint256",
          "internalType": "uint256"
        }
      ],
      "outputs": [],
      "stateMutability": "nonpayable"
    },
    {
      "type": "function",
      "name": "execRecordRewards",
      "inputs": [
        {
          "name": "poolIds",
          "type": "address[]",
          "internalType": "address[]"
        },
        {
          "name": "rewards",
          "type": "uint256[]",
          "internalType": "uint256[]"
        },
        {
          "name": "period",
          "type": "uint256",
          "internalType": "uint256"
        }
      ],
      "outputs": [],
      "stateMutability": "payable"
    },
    {
      "type": "function",
      "name": "getCommissionRateRange",
      "inputs": [],
      "outputs": [
        {
          "name": "",
          "type": "uint256",
          "internalType": "uint256"
        },
        {
          "name": "",
          "type": "uint256",
          "internalType": "uint256"
        }
      ],
      "stateMutability": "view"
    },
    {
      "type": "function",
      "name": "getContract",
      "inputs": [
        {
          "name": "contractType",
          "type": "uint8",
          "internalType": "enum ContractType"
        }
      ],
      "outputs": [
        {
          "name": "contract_",
          "type": "address",
          "internalType": "address"
        }
      ],
      "stateMutability": "view"
    },
    {
      "type": "function",
      "name": "getManySelfStakings",
      "inputs": [
        {
          "name": "consensusAddrs",
          "type": "address[]",
          "internalType": "TConsensus[]"
        }
      ],
      "outputs": [
        {
          "name": "selfStakings_",
          "type": "uint256[]",
          "internalType": "uint256[]"
        }
      ],
      "stateMutability": "view"
    },
    {
      "type": "function",
      "name": "getManySelfStakingsById",
      "inputs": [
        {
          "name": "poolIds",
          "type": "address[]",
          "internalType": "address[]"
        }
      ],
      "outputs": [
        {
          "name": "selfStakings_",
          "type": "uint256[]",
          "internalType": "uint256[]"
        }
      ],
      "stateMutability": "view"
    },
    {
      "type": "function",
      "name": "getManyStakingAmounts",
      "inputs": [
        {
          "name": "consensusAddrs",
          "type": "address[]",
          "internalType": "TConsensus[]"
        },
        {
          "name": "userList",
          "type": "address[]",
          "internalType": "address[]"
        }
      ],
      "outputs": [
        {
          "name": "stakingAmounts",
          "type": "uint256[]",
          "internalType": "uint256[]"
        }
      ],
      "stateMutability": "view"
    },
    {
      "type": "function",
      "name": "getManyStakingAmountsById",
      "inputs": [
        {
          "name": "poolIds",
          "type": "address[]",
          "internalType": "address[]"
        },
        {
          "name": "userList",
          "type": "address[]",
          "internalType": "address[]"
        }
      ],
      "outputs": [
        {
          "name": "stakingAmounts",
          "type": "uint256[]",
          "internalType": "uint256[]"
        }
      ],
      "stateMutability": "view"
    },
    {
      "type": "function",
      "name": "getManyStakingTotals",
      "inputs": [
        {
          "name": "consensusAddrs",
          "type": "address[]",
          "internalType": "TConsensus[]"
        }
      ],
      "outputs": [
        {
          "name": "stakingAmounts_",
          "type": "uint256[]",
          "internalType": "uint256[]"
        }
      ],
      "stateMutability": "view"
    },
    {
      "type": "function",
      "name": "getManyStakingTotalsById",
      "inputs": [
        {
          "name": "poolIds",
          "type": "address[]",
          "internalType": "address[]"
        }
      ],
      "outputs": [
        {
          "name": "stakingAmounts_",
          "type": "uint256[]",
          "internalType": "uint256[]"
        }
      ],
      "stateMutability": "view"
    },
    {
      "type": "function",
      "name": "getPoolAddressOf",
      "inputs": [
        {
          "name": "admin",
          "type": "address",
          "internalType": "address"
        }
      ],
      "outputs": [
        {
          "name": "",
          "type": "address",
          "internalType": "address"
        }
      ],
      "stateMutability": "view"
    },
    {
      "type": "function",
      "name": "getPoolDetail",
      "inputs": [
        {
          "name": "consensusAddr",
          "type": "address",
          "internalType": "TConsensus"
        }
      ],
      "outputs": [
        {
          "name": "admin",
          "type": "address",
          "internalType": "address"
        },
        {
          "name": "stakingAmount",
          "type": "uint256",
          "internalType": "uint256"
        },
        {
          "name": "stakingTotal",
          "type": "uint256",
          "internalType": "uint256"
        }
      ],
      "stateMutability": "view"
    },
    {
      "type": "function",
      "name": "getPoolDetailById",
      "inputs": [
        {
          "name": "poolId",
          "type": "address",
          "internalType": "address"
        }
      ],
      "outputs": [
        {
          "name": "admin",
          "type": "address",
          "internalType": "address"
        },
        {
          "name": "stakingAmount",
          "type": "uint256",
          "internalType": "uint256"
        },
        {
          "name": "stakingTotal",
          "type": "uint256",
          "internalType": "uint256"
        }
      ],
      "stateMutability": "view"
    },
    {
      "type": "function",
      "name": "getReward",
      "inputs": [
        {
          "name": "consensusAddr",
          "type": "address",
          "internalType": "TConsensus"
        },
        {
          "name": "user",
          "type": "address",
          "internalType": "address"
        }
      ],
      "outputs": [
        {
          "name": "",
          "type": "uint256",
          "internalType": "uint256"
        }
      ],
      "stateMutability": "view"
    },
    {
      "type": "function",
      "name": "getRewards",
      "inputs": [
        {
          "name": "user",
          "type": "address",
          "internalType": "address"
        },
        {
          "name": "consensusAddrs",
          "type": "address[]",
          "internalType": "TConsensus[]"
        }
      ],
      "outputs": [
        {
          "name": "rewards_",
          "type": "uint256[]",
          "internalType": "uint256[]"
        }
      ],
      "stateMutability": "view"
    },
    {
      "type": "function",
      "name": "getStakingAmount",
      "inputs": [
        {
          "name": "consensusAddr",
          "type": "address",
          "internalType": "TConsensus"
        },
        {
          "name": "user",
          "type": "address",
          "internalType": "address"
        }
      ],
      "outputs": [
        {
          "name": "",
          "type": "uint256",
          "internalType": "uint256"
        }
      ],
      "stateMutability": "view"
    },
    {
      "type": "function",
      "name": "getStakingTotal",
      "inputs": [
        {
          "name": "consensusAddr",
          "type": "address",
          "internalType": "TConsensus"
        }
      ],
      "outputs": [
        {
          "name": "",
          "type": "uint256",
          "internalType": "uint256"
        }
      ],
      "stateMutability": "view"
    },
    {
      "type": "function",
      "name": "initialize",
      "inputs": [
        {
          "name": "__validatorContract",
          "type": "address",
          "internalType": "address"
        },
        {
          "name": "__minValidatorStakingAmount",
          "type": "uint256",
          "internalType": "uint256"
        },
        {
          "name": "__maxCommissionRate",
          "type": "uint256",
          "internalType": "uint256"
        },
        {
          "name": "__cooldownSecsToUndelegate",
          "type": "uint256",
          "internalType": "uint256"
        },
        {
          "name": "__waitingSecsToRevoke",
          "type": "uint256",
          "internalType": "uint256"
        }
      ],
      "outputs": [],
      "stateMutability": "nonpayable"
    },
    {
      "type": "function",
      "name": "initializeV2",
      "inputs": [],
      "outputs": [],
      "stateMutability": "nonpayable"
    },
    {
      "type": "function",
      "name": "initializeV3",
      "inputs": [
        {
          "name": "__profileContract",
          "type": "address",
          "internalType": "address"
        }
      ],
      "outputs": [],
      "stateMutability": "nonpayable"
    },
    {
      "type": "function",
      "name": "isAdminOfActivePool",
      "inputs": [
        {
          "name": "admin",
          "type": "address",
          "internalType": "address"
        }
      ],
      "outputs": [
        {
          "name": "",
          "type": "bool",
          "internalType": "bool"
        }
      ],
      "stateMutability": "view"
    },
    {
      "type": "function",
      "name": "minValidatorStakingAmount",
      "inputs": [],
      "outputs": [
        {
          "name": "",
          "type": "uint256",
          "internalType": "uint256"
        }
      ],
      "stateMutability": "view"
    },
    {
      "type": "function",
      "name": "redelegate",
      "inputs": [
        {
          "name": "consensusAddrSrc",
          "type": "address",
          "internalType": "TConsensus"
        },
        {
          "name": "consensusAddrDst",
          "type": "address",
          "internalType": "TConsensus"
        },
        {
          "name": "amount",
          "type": "uint256",
          "internalType": "uint256"
        }
      ],
      "outputs": [],
      "stateMutability": "nonpayable"
    },
    {
      "type": "function",
      "name": "requestEmergencyExit",
      "inputs": [
        {
          "name": "consensusAddr",
          "type": "address",
          "internalType": "TConsensus"
        }
      ],
      "outputs": [],
      "stateMutability": "nonpayable"
    },
    {
      "type": "function",
      "name": "requestRenounce",
      "inputs": [
        {
          "name": "consensusAddr",
          "type": "address",
          "internalType": "TConsensus"
        }
      ],
      "outputs": [],
      "stateMutability": "nonpayable"
    },
    {
      "type": "function",
      "name": "requestUpdateCommissionRate",
      "inputs": [
        {
          "name": "consensusAddr",
          "type": "address",
          "internalType": "TConsensus"
        },
        {
          "name": "effectiveDaysOnwards",
          "type": "uint256",
          "internalType": "uint256"
        },
        {
          "name": "commissionRate",
          "type": "uint256",
          "internalType": "uint256"
        }
      ],
      "outputs": [],
      "stateMutability": "nonpayable"
    },
    {
      "type": "function",
      "name": "setCommissionRateRange",
      "inputs": [
        {
          "name": "minRate",
          "type": "uint256",
          "internalType": "uint256"
        },
        {
          "name": "maxRate",
          "type": "uint256",
          "internalType": "uint256"
        }
      ],
      "outputs": [],
      "stateMutability": "nonpayable"
    },
    {
      "type": "function",
      "name": "setContract",
      "inputs": [
        {
          "name": "contractType",
          "type": "uint8",
          "internalType": "enum ContractType"
        },
        {
          "name": "addr",
          "type": "address",
          "internalType": "address"
        }
      ],
      "outputs": [],
      "stateMutability": "nonpayable"
    },
    {
      "type": "function",
      "name": "setCooldownSecsToUndelegate",
      "inputs": [
        {
          "name": "cooldownSecs",
          "type": "uint256",
          "internalType": "uint256"
        }
      ],
      "outputs": [],
      "stateMutability": "nonpayable"
    },
    {
      "type": "function",
      "name": "setMinValidatorStakingAmount",
      "inputs": [
        {
          "name": "threshold",
          "type": "uint256",
          "internalType": "uint256"
        }
      ],
      "outputs": [],
      "stateMutability": "nonpayable"
    },
    {
      "type": "function",
      "name": "setWaitingSecsToRevoke",
      "inputs": [
        {
          "name": "secs",
          "type": "uint256",
          "internalType": "uint256"
        }
      ],
      "outputs": [],
      "stateMutability": "nonpayable"
    },
    {
      "type": "function",
      "name": "stake",
      "inputs": [
        {
          "name": "consensusAddr",
          "type": "address",
          "internalType": "TConsensus"
        }
      ],
      "outputs": [],
      "stateMutability": "payable"
    },
    {
      "type": "function",
      "name": "undelegate",
      "inputs": [
        {
          "name": "consensusAddr",
          "type": "address",
          "internalType": "TConsensus"
        },
        {
          "name": "amount",
          "type": "uint256",
          "internalType": "uint256"
        }
      ],
      "outputs": [],
      "stateMutability": "nonpayable"
    },
    {
      "type": "function",
      "name": "unstake",
      "inputs": [
        {
          "name": "consensusAddr",
          "type": "address",
          "internalType": "TConsensus"
        },
        {
          "name": "amount",
          "type": "uint256",
          "internalType": "uint256"
        }
      ],
      "outputs": [],
      "stateMutability": "nonpayable"
    },
    {
      "type": "function",
      "name": "waitingSecsToRevoke",
      "inputs": [],
      "outputs": [
        {
          "name": "",
          "type": "uint256",
          "internalType": "uint256"
        }
      ],
      "stateMutability": "view"
    },
    {
      "type": "event",
      "name": "CommissionRateRangeUpdated",
      "inputs": [
        {
          "name": "minRate",
          "type": "uint256",
          "indexed": false,
          "internalType": "uint256"
        },
        {
          "name": "maxRate",
          "type": "uint256",
          "indexed": false,
          "internalType": "uint256"
        }
      ],
      "anonymous": false
    },
    {
      "type": "event",
      "name": "ContractUpdated",
      "inputs": [
        {
          "name": "contractType",
          "type": "uint8",
          "indexed": true,
          "internalType": "enum ContractType"
        },
        {
          "name": "addr",
          "type": "address",
          "indexed": true,
          "internalType": "address"
        }
      ],
      "anonymous": false
    },
    {
      "type": "event",
      "name": "CooldownSecsToUndelegateUpdated",
      "inputs": [
        {
          "name": "minSecs",
          "type": "uint256",
          "indexed": false,
          "internalType": "uint256"
        }
      ],
      "anonymous": false
    },
    {
      "type": "event",
      "name": "Delegated",
      "inputs": [
        {
          "name": "delegator",
          "type": "address",
          "indexed": true,
          "internalType": "address"
        },
        {
          "name": "poolId",
          "type": "address",
          "indexed": true,
          "internalType": "address"
        },
        {
          "name": "amount",
          "type": "uint256",
          "indexed": false,
          "internalType": "uint256"
        }
      ],
      "anonymous": false
    },
    {
      "type": "event",
      "name": "Initialized",
      "inputs": [
        {
          "name": "version",
          "type": "uint8",
          "indexed": false,
          "internalType": "uint8"
        }
      ],
      "anonymous": false
    },
    {
      "type": "event",
      "name": "MinValidatorStakingAmountUpdated",
      "inputs": [
        {
          "name": "threshold",
          "type": "uint256",
          "indexed": false,
          "internalType": "uint256"
        }
      ],
      "anonymous": false
    },
    {
      "type": "event",
      "name": "PoolApproved",
      "inputs": [
        {
          "name": "validator",
          "type": "address",
          "indexed": true,
          "internalType": "address"
        },
        {
          "name": "admin",
          "type": "address",
          "indexed": true,
          "internalType": "address"
        }
      ],
      "anonymous": false
    },
    {
      "type": "event",
      "name": "PoolSharesUpdated",
      "inputs": [
        {
          "name": "period",
          "type": "uint256",
          "indexed": true,
          "internalType": "uint256"
        },
        {
          "name": "poolAddr",
          "type": "address",
          "indexed": true,
          "internalType": "address"
        },
        {
          "name": "shares",
          "type": "uint256",
          "indexed": false,
          "internalType": "uint256"
        }
      ],
      "anonymous": false
    },
    {
      "type": "event",
      "name": "PoolsDeprecated",
      "inputs": [
        {
          "name": "validator",
          "type": "address[]",
          "indexed": false,
          "internalType": "address[]"
        }
      ],
      "anonymous": false
    },
    {
      "type": "event",
      "name": "PoolsUpdateConflicted",
      "inputs": [
        {
          "name": "period",
          "type": "uint256",
          "indexed": true,
          "internalType": "uint256"
        },
        {
          "name": "poolAddrs",
          "type": "address[]",
          "indexed": false,
          "internalType": "address[]"
        }
      ],
      "anonymous": false
    },
    {
      "type": "event",
      "name": "PoolsUpdateFailed",
      "inputs": [
        {
          "name": "period",
          "type": "uint256",
          "indexed": true,
          "internalType": "uint256"
        },
        {
          "name": "poolAddrs",
          "type": "address[]",
          "indexed": false,
          "internalType": "address[]"
        },
        {
          "name": "rewards",
          "type": "uint256[]",
          "indexed": false,
          "internalType": "uint256[]"
        }
      ],
      "anonymous": false
    },
    {
      "type": "event",
      "name": "PoolsUpdated",
      "inputs": [
        {
          "name": "period",
          "type": "uint256",
          "indexed": true,
          "internalType": "uint256"
        },
        {
          "name": "poolAddrs",
          "type": "address[]",
          "indexed": false,
          "internalType": "address[]"
        },
        {
          "name": "aRps",
          "type": "uint256[]",
          "indexed": false,
          "internalType": "uint256[]"
        },
        {
          "name": "shares",
          "type": "uint256[]",
          "indexed": false,
          "internalType": "uint256[]"
        }
      ],
      "anonymous": false
    },
    {
      "type": "event",
      "name": "RewardClaimed",
      "inputs": [
        {
          "name": "poolAddr",
          "type": "address",
          "indexed": true,
          "internalType": "address"
        },
        {
          "name": "user",
          "type": "address",
          "indexed": true,
          "internalType": "address"
        },
        {
          "name": "amount",
          "type": "uint256",
          "indexed": false,
          "internalType": "uint256"
        }
      ],
      "anonymous": false
    },
    {
      "type": "event",
      "name": "Staked",
      "inputs": [
        {
          "name": "poolId",
          "type": "address",
          "indexed": true,
          "internalType": "address"
        },
        {
          "name": "amount",
          "type": "uint256",
          "indexed": false,
          "internalType": "uint256"
        }
      ],
      "anonymous": false
    },
    {
      "type": "event",
      "name": "StakingAmountDeductFailed",
      "inputs": [
        {
          "name": "poolId",
          "type": "address",
          "indexed": true,
          "internalType": "address"
        },
        {
          "name": "recipient",
          "type": "address",
          "indexed": true,
          "internalType": "address"
        },
        {
          "name": "amount",
          "type": "uint256",
          "indexed": false,
          "internalType": "uint256"
        },
        {
          "name": "contractBalance",
          "type": "uint256",
          "indexed": false,
          "internalType": "uint256"
        }
      ],
      "anonymous": false
    },
    {
      "type": "event",
      "name": "StakingAmountTransferFailed",
      "inputs": [
        {
          "name": "poolId",
          "type": "address",
          "indexed": true,
          "internalType": "address"
        },
        {
          "name": "admin",
          "type": "address",
          "indexed": true,
          "internalType": "address"
        },
        {
          "name": "amount",
          "type": "uint256",
          "indexed": false,
          "internalType": "uint256"
        },
        {
          "name": "contractBalance",
          "type": "uint256",
          "indexed": false,
          "internalType": "uint256"
        }
      ],
      "anonymous": false
    },
    {
      "type": "event",
      "name": "Undelegated",
      "inputs": [
        {
          "name": "delegator",
          "type": "address",
          "indexed": true,
          "internalType": "address"
        },
        {
          "name": "poolId",
          "type": "address",
          "indexed": true,
          "internalType": "address"
        },
        {
          "name": "amount",
          "type": "uint256",
          "indexed": false,
          "internalType": "uint256"
        }
      ],
      "anonymous": false
    },
    {
      "type": "event",
      "name": "Unstaked",
      "inputs": [
        {
          "name": "poolId",
          "type": "address",
          "indexed": true,
          "internalType": "address"
        },
        {
          "name": "amount",
          "type": "uint256",
          "indexed": false,
          "internalType": "uint256"
        }
      ],
      "anonymous": false
    },
    {
      "type": "event",
      "name": "UserRewardUpdated",
      "inputs": [
        {
          "name": "poolAddr",
          "type": "address",
          "indexed": true,
          "internalType": "address"
        },
        {
          "name": "user",
          "type": "address",
          "indexed": true,
          "internalType": "address"
        },
        {
          "name": "debited",
          "type": "uint256",
          "indexed": false,
          "internalType": "uint256"
        }
      ],
      "anonymous": false
    },
    {
      "type": "event",
      "name": "WaitingSecsToRevokeUpdated",
      "inputs": [
        {
          "name": "secs",
          "type": "uint256",
          "indexed": false,
          "internalType": "uint256"
        }
      ],
      "anonymous": false
    },
    {
      "type": "error",
      "name": "ErrAdminOfAnyActivePoolForbidden",
      "inputs": [
        {
          "name": "admin",
          "type": "address",
          "internalType": "address"
        }
      ]
    },
    {
      "type": "error",
      "name": "ErrCannotInitTransferRON",
      "inputs": [
        {
          "name": "addr",
          "type": "address",
          "internalType": "address"
        },
        {
          "name": "extraInfo",
          "type": "string",
          "internalType": "string"
        }
      ]
    },
    {
      "type": "error",
      "name": "ErrCannotTransferRON",
      "inputs": []
    },
    {
      "type": "error",
      "name": "ErrContractTypeNotFound",
      "inputs": [
        {
          "name": "contractType",
          "type": "uint8",
          "internalType": "enum ContractType"
        }
      ]
    },
    {
      "type": "error",
      "name": "ErrDuplicated",
      "inputs": [
        {
          "name": "msgSig",
          "type": "bytes4",
          "internalType": "bytes4"
        }
      ]
    },
    {
      "type": "error",
      "name": "ErrInactivePool",
      "inputs": [
        {
          "name": "consensusAddr",
          "type": "address",
          "internalType": "TConsensus"
        },
        {
          "name": "poolAddr",
          "type": "address",
          "internalType": "address"
        }
      ]
    },
    {
      "type": "error",
      "name": "ErrInsufficientBalance",
      "inputs": [
        {
          "name": "msgSig",
          "type": "bytes4",
          "internalType": "bytes4"
        },
        {
          "name": "currentBalance",
          "type": "uint256",
          "internalType": "uint256"
        },
        {
          "name": "sendAmount",
          "type": "uint256",
          "internalType": "uint256"
        }
      ]
    },
    {
      "type": "error",
      "name": "ErrInsufficientDelegatingAmount",
      "inputs": []
    },
    {
      "type": "error",
      "name": "ErrInsufficientStakingAmount",
      "inputs": []
    },
    {
      "type": "error",
      "name": "ErrInvalidArrays",
      "inputs": []
    },
    {
      "type": "error",
      "name": "ErrInvalidCommissionRate",
      "inputs": []
    },
    {
      "type": "error",
      "name": "ErrInvalidPoolShare",
      "inputs": []
    },
    {
      "type": "error",
      "name": "ErrOnlyPoolAdminAllowed",
      "inputs": []
    },
    {
      "type": "error",
      "name": "ErrPoolAdminForbidden",
      "inputs": []
    },
    {
      "type": "error",
      "name": "ErrRecipientRevert",
      "inputs": [
        {
          "name": "msgSig",
          "type": "bytes4",
          "internalType": "bytes4"
        }
      ]
    },
    {
      "type": "error",
      "name": "ErrStakingAmountLeft",
      "inputs": []
    },
    {
      "type": "error",
      "name": "ErrThreeInteractionAddrsNotEqual",
      "inputs": []
    },
    {
      "type": "error",
      "name": "ErrUnauthorized",
      "inputs": [
        {
          "name": "msgSig",
          "type": "bytes4",
          "internalType": "bytes4"
        },
        {
          "name": "expectedRole",
          "type": "uint8",
          "internalType": "enum RoleAccess"
        }
      ]
    },
    {
      "type": "error",
      "name": "ErrUndelegateTooEarly",
      "inputs": []
    },
    {
      "type": "error",
      "name": "ErrUndelegateZeroAmount",
      "inputs": []
    },
    {
      "type": "error",
      "name": "ErrUnexpectedInternalCall",
      "inputs": [
        {
          "name": "msgSig",
          "type": "bytes4",
          "internalType": "bytes4"
        },
        {
          "name": "expectedContractType",
          "type": "uint8",
          "internalType": "enum ContractType"
        },
        {
          "name": "actual",
          "type": "address",
          "internalType": "address"
        }
      ]
    },
    {
      "type": "error",
      "name": "ErrUnstakeTooEarly",
      "inputs": []
    },
    {
      "type": "error",
      "name": "ErrUnstakeZeroAmount",
      "inputs": []
    },
    {
      "type": "error",
      "name": "ErrZeroCodeContract",
      "inputs": [
        {
          "name": "addr",
          "type": "address",
          "internalType": "address"
        }
      ]
    },
    {
      "type": "error",
      "name": "ErrZeroValue",
      "inputs": []
    }
  ],
  "address": "0x1d3a9042588F6C1065d4cA51De234BB29F40Fd23",
  "args": "0x",
  "blockNumber": 23722890,
  "bytecode": "0x60806040523480156200001157600080fd5b5060016000556200002162000027565b620000e9565b60d154610100900460ff1615620000945760405162461bcd60e51b815260206004820152602760248201527f496e697469616c697a61626c653a20636f6e747261637420697320696e697469604482015266616c697a696e6760c81b606482015260840160405180910390fd5b60d15460ff9081161015620000e75760d1805460ff191660ff9081179091556040519081527f7f26b83ff96e1f2b6a682f133852f6798a09c465da95921460cefb38474024989060200160405180910390a15b565b61482f80620000f96000396000f3fe6080604052600436106102f65760003560e01c80636b0916951161018f578063aa15a6fd116100e1578063de981f1b1161008a578063ef9aa66511610064578063ef9aa66514610889578063f92ad219146108a9578063f9f031df146108c957610308565b8063de981f1b14610829578063e22d1c9d14610849578063ea80d67d1461086957610308565b8063c2a672e0116100bb578063c2a672e014610773578063c508700314610793578063d01b8eed146107e457610308565b8063aa15a6fd1461072b578063acd79c461461074b578063af2454291461075e57610308565b8063895ab74211610143578063924f081e1161011d578063924f081e146106cb5780639488e4e9146106eb578063969ffc141461070b57610308565b8063895ab74214610676578063909791dd1461069657806391f8723f146106ab57610308565b806376664b651161017457806376664b6514610616578063865e6fd314610636578063888b9ae91461065657610308565b80636b091695146105d65780636bd8f804146105f657610308565b806342ef3c341161024857806357473447116101fc5780635cd8a76b116101d65780635cd8a76b1461058a5780636558954f1461059f578063679a6e43146105b657610308565b806357473447146105375780635a2ac073146105575780635c19a95c1461057757610308565b8063446850a11161022d578063446850a1146104cf5780634530d202146104ef5780634d99dd161461051757610308565b806342ef3c341461048f578063435628ba146104af57610308565b80631658c86e116102aa5780633101cfcb116102845780633101cfcb146104045780633d8e846e1461042457806342e0c4081461044457610308565b80631658c86e146103b157806326476204146103d15780632715805e146103e457610308565b8063095f6475116102db578063095f647514610351578063097e4a9d1461037e5780630a9313bc1461039e57610308565b806303827884146103135780630682e8fa1461033c57610308565b36610308576008610306816108e9565b005b6008610306816108e9565b34801561031f57600080fd5b506103296104b081565b6040519081526020015b60405180910390f35b34801561034857600080fd5b50603854610329565b34801561035d57600080fd5b5061037161036c366004613d9c565b61095a565b6040516103339190613e44565b34801561038a57600080fd5b50610329610399366004613e6c565b6109e5565b6103066103ac366004613f05565b610ae9565b3480156103bd57600080fd5b506103066103cc366004613fb6565b610cf2565b6103066103df366004613fb6565b610dbc565b3480156103f057600080fd5b506103296103ff366004613fd3565b610e04565b34801561041057600080fd5b5061030661041f366004613fb6565b610e95565b34801561043057600080fd5b5061037161043f366004613fff565b610f7f565b34801561045057600080fd5b5061047f61045f366004613fb6565b6001600160a01b039081166000908152603a602052604090205416151590565b6040519015158152602001610333565b34801561049b57600080fd5b506103716104aa366004614054565b61110d565b3480156104bb57600080fd5b506103716104ca366004613d9c565b611162565b3480156104db57600080fd5b506103716104ea366004614054565b6111da565b3480156104fb57600080fd5b50606e54606d5460408051928352602083019190915201610333565b34801561052357600080fd5b50610306610532366004613fd3565b61121f565b34801561054357600080fd5b50610306610552366004614096565b6112e4565b34801561056357600080fd5b50610371610572366004614054565b6112fa565b610306610585366004613fb6565b611338565b34801561059657600080fd5b506103066113ba565b3480156105ab57600080fd5b506103296201518081565b3480156105c257600080fd5b506103066105d13660046140b8565b6114c0565b3480156105e257600080fd5b506103296105f13660046140d1565b6114d1565b34801561060257600080fd5b5061030661061136600461410a565b611510565b34801561062257600080fd5b506103296106313660046140d1565b6115ed565b34801561064257600080fd5b5061030661065136600461415a565b61162b565b34801561066257600080fd5b506103066106713660046140b8565b611646565b34801561068257600080fd5b50610329610691366004613fb6565b611657565b3480156106a257600080fd5b50606c54610329565b3480156106b757600080fd5b506103716106c6366004614054565b611687565b3480156106d757600080fd5b506103066106e6366004614176565b6116d2565b3480156106f757600080fd5b50610306610706366004613d9c565b6117d3565b34801561071757600080fd5b506103066107263660046140b8565b611992565b34801561073757600080fd5b50610306610746366004613fb6565b6119a3565b6103066107593660046141ab565b611a06565b34801561076a57600080fd5b50603954610329565b34801561077f57600080fd5b5061030661078e366004613fd3565b611a5a565b34801561079f57600080fd5b506107cc6107ae366004613fb6565b6001600160a01b039081166000908152603a60205260409020541690565b6040516001600160a01b039091168152602001610333565b3480156107f057600080fd5b506108046107ff366004613fb6565b611b83565b604080516001600160a01b039094168452602084019290925290820152606001610333565b34801561083557600080fd5b506107cc61084436600461421f565b611bca565b34801561085557600080fd5b5061030661086436600461423a565b611c5e565b34801561087557600080fd5b506103066108843660046140d1565b611df9565b34801561089557600080fd5b506108046108a4366004613fb6565b611e62565b3480156108b557600080fd5b506103066108c4366004614286565b611ea9565b3480156108d557600080fd5b506103296108e4366004614054565b611fe7565b6108f281611bca565b6001600160a01b0316336001600160a01b031614610957576000356001600160e01b03191681336040517f8383e63400000000000000000000000000000000000000000000000000000000815260040161094e939291906142f4565b60405180910390fd5b50565b6060600061099a86868080602002602001604051908101604052809392919081815260200183836020028082843760009201919091525061209f92505050565b90506109d98185858080602002602001604051908101604052809392919081815260200183836020028082843760009201919091525061211b92505050565b9150505b949350505050565b6000600260005403610a395760405162461bcd60e51b815260206004820152601f60248201527f5265656e7472616e637947756172643a207265656e7472616e742063616c6c00604482015260640161094e565b600260005581610a4881612223565b336000908152603a60205260409020546001600160a01b031615610a8157604051632fc6bfb160e21b815233600482015260240161094e565b6000610abf86868080602002602001604051908101604052809392919081815260200183836020028082843760009201919091525061209f92505050565b90506000610acc856122ec565b9050610ad933838361237d565b6001600055979650505050505050565b600260005403610b3b5760405162461bcd60e51b815260206004820152601f60248201527f5265656e7472616e637947756172643a207265656e7472616e742063616c6c00604482015260640161094e565b60026000908155338152603a60205260409020546001600160a01b031615610b7857604051632fc6bfb160e21b815233600482015260240161094e565b606d54851180610b895750606e5485105b15610ba757604051631b8454a360e21b815260040160405180910390fd5b600034905060003390506000899050610c3d828c838c8b8b8080601f01602080910402602001604051908101604052809392919081815260200183838082843760009201919091525050604080516020601f8f018190048102820181019092528d815292508d91508c9081908401838280828437600081840152601f19601f820116905080830192505050505050508e8a6123af565b6001600160a01b038082166000818152603760208181526040808420600181018054978a166001600160a01b0319988916811790915581548816871782558552603a835290842080549096168517909555929091529052610c9f81848661271e565b826001600160a01b0316826001600160a01b03167ffc1f1e73948cbc47c5b7f90e5601b7daccd9ad7173218486ccc74bdd051d05e860405160405180910390a35050600160005550505050505050505050565b80610cfc81612223565b60376000610d09846122ec565b6001600160a01b03166001600160a01b0316815260200190815260200160002033610d3482826127c9565b610d3e6008611bca565b6001600160a01b031663dd716ad3610d55866122ec565b6039546040516001600160e01b031960e085901b1681526001600160a01b0390921660048301526024820152604401600060405180830381600087803b158015610d9e57600080fd5b505af1158015610db2573d6000803e3d6000fd5b5050505050505050565b610dc4612812565b80610dce81612223565b6000610dd9836122ec565b6001600160a01b0381166000908152603760205260409020909150610dff90333461271e565b505050565b60006008610e11816108e9565b6001600160a01b0384166000908152603760205260409020610e33908461284e565b915033610e4081846128eb565b610e8d57604080518481524760208201526001600160a01b0380841692908816917f63701cd972aa3c7f87898aab145c972e52185beab07d6e39380a998d334cf6c8910160405180910390a35b505092915050565b60d154600390610100900460ff16158015610eb7575060d15460ff8083169116105b610f1a5760405162461bcd60e51b815260206004820152602e60248201527f496e697469616c697a61626c653a20636f6e747261637420697320616c72656160448201526d191e481a5b9a5d1a585b1a5e995960921b606482015260840161094e565b60d1805461ffff191660ff831617610100179055610f39600f83612947565b60d1805461ff001916905560405160ff821681527f7f26b83ff96e1f2b6a682f133852f6798a09c465da95921460cefb3847402498906020015b60405180910390a15050565b60606000610f8d6008611bca565b6001600160a01b031663060406186040518163ffffffff1660e01b8152600401602060405180830381865afa158015610fca573d6000803e3d6000fd5b505050506040513d601f19601f82011682018060405250810190610fee9190614329565b90508267ffffffffffffffff81111561100957611009614342565b604051908082528060200260200182016040528015611032578160200160208202803683370190505b509150600061107385858080602002602001604051908101604052809392919081815260200183836020028082843760009201919091525061209f92505050565b905060005b8481101561110357600082828151811061109457611094614358565b602002602001015190506110dd8189866110d8858d6001600160a01b0391821660009081526037602090815260408083209390941682526004909201909152205490565b6129eb565b8583815181106110ef576110ef614358565b602090810291909101015250600101611078565b5050509392505050565b6060600061114d84848080602002602001604051908101604052809392919081815260200183836020028082843760009201919091525061209f92505050565b905061115881612ae7565b9150505b92915050565b60606111d18585808060200260200160405190810160405280939291908181526020018383602002808284376000920191909152505060408051602080890282810182019093528882529093508892508791829185019084908082843760009201919091525061211b92505050565b95945050505050565b6060611218838380806020026020016040519081016040528093929190818152602001838360200280828437600092019190915250612ae792505050565b9392505050565b6002600054036112715760405162461bcd60e51b815260206004820152601f60248201527f5265656e7472616e637947756172643a207265656e7472616e742063616c6c00604482015260640161094e565b6002600090815533906112b390849060379061128c836122ec565b6001600160a01b03166001600160a01b031681526020019081526020016000208385612ba8565b6112bd8183612e41565b6112da57604051635ff7115760e11b815260040160405180910390fd5b5050600160005550565b6112ec612ea2565b6112f68282612f16565b5050565b6060611218838380806020026020016040519081016040528093929190818152602001838360200280828437600092019190915250612f8392505050565b611340612812565b8061134a81612223565b336000908152603a60205260409020546001600160a01b03161561138357604051632fc6bfb160e21b815233600482015260240161094e565b6112f660376000611393856122ec565b6001600160a01b03166001600160a01b031681526020019081526020016000203334613037565b60d154600290610100900460ff161580156113dc575060d15460ff8083169116105b61143f5760405162461bcd60e51b815260206004820152602e60248201527f496e697469616c697a61626c653a20636f6e747261637420697320616c72656160448201526d191e481a5b9a5d1a585b1a5e995960921b606482015260840161094e565b60d1805461ffff191660ff83161761010017905560365461146b906008906001600160a01b0316612947565b603680546001600160a01b031916905560d1805461ff001916905560405160ff821681527f7f26b83ff96e1f2b6a682f133852f6798a09c465da95921460cefb3847402498906020015b60405180910390a150565b6114c8612ea2565b610957816130e6565b60008261115881846114e161311b565b6001600160a01b038086166000908152603760209081526040808320938b1683526004909301905220546129eb565b6002600054036115625760405162461bcd60e51b815260206004820152601f60248201527f5265656e7472616e637947756172643a207265656e7472616e742063616c6c00604482015260640161094e565b60026000558161157181612223565b336115aa8560376000611583836122ec565b6001600160a01b03166001600160a01b031681526020019081526020016000208386612ba8565b6115e1603760006115ba876122ec565b6001600160a01b03166001600160a01b031681526020019081526020016000208285613037565b50506001600055505050565b6000806115f9846122ec565b6001600160a01b0380821660009081526037602090815260408083209388168352600490930190522054909150611158565b611633612ea2565b61163c8161318d565b6112f68282612947565b61164e612ea2565b610957816131dc565b600080611663836122ec565b9050611218816001600160a01b031660009081526037602052604090206003015490565b606060006116c784848080602002602001604051908101604052809392919081815260200183836020028082843760009201919091525061209f92505050565b905061115881612f83565b826116dc81612223565b603760006116e9866122ec565b6001600160a01b03166001600160a01b031681526020019081526020016000203361171482826127c9565b606d548411806117255750606e5484105b1561174357604051631b8454a360e21b815260040160405180910390fd5b61174d6008611bca565b6001600160a01b031663e5125a1d611764886122ec565b6040516001600160e01b031960e084901b1681526001600160a01b0390911660048201526024810188905260448101879052606401600060405180830381600087803b1580156117b357600080fd5b505af11580156117c7573d6000803e3d6000fd5b50505050505050505050565b6002600054036118255760405162461bcd60e51b815260206004820152601f60248201527f5265656e7472616e637947756172643a207265656e7472616e742063616c6c00604482015260640161094e565b60026000558215806118375750828114155b15611855576040516376081a7b60e11b815260040160405180910390fd5b600033905060008061189987878080602002602001604051908101604052809392919081815260200183836020028082843760009201919091525061209f92505050565b905060005b815181101561195c578585828181106118b9576118b9614358565b90506020020135836118cb9190614384565b92506119548888838181106118e2576118e2614358565b90506020020160208101906118f79190613fb6565b6037600085858151811061190d5761190d614358565b60200260200101516001600160a01b03166001600160a01b031681526020019081526020016000208689898681811061194857611948614358565b90506020020135612ba8565b60010161189e565b506119678383612e41565b61198457604051635ff7115760e11b815260040160405180910390fd5b505060016000555050505050565b61199a612ea2565b61095781613211565b806119ad81612223565b603760006119ba846122ec565b6001600160a01b03166001600160a01b03168152602001908152602001600020336119e582826127c9565b6119ef6008611bca565b6001600160a01b031663cdaa4e81610d55866122ec565b6008611a11816108e9565b611a52868680806020026020016040519081016040528093929190818152602001838360200280828437600092019190915250889250879150869050613246565b505050505050565b600260005403611aac5760405162461bcd60e51b815260206004820152601f60248201527f5265656e7472616e637947756172643a207265656e7472616e742063616c6c00604482015260640161094e565b600260005581611abb81612223565b81600003611af5576040517f31d9f7d700000000000000000000000000000000000000000000000000000000815260040160405180910390fd5b336000611b01856122ec565b6001600160a01b0381166000908152603760205260408120600281015492935091611b2d908790614397565b9050606c54811015611b6b576040517fef0a995700000000000000000000000000000000000000000000000000000000815260040160405180910390fd5b611b7682858861366d565b61196784876104b0613772565b600080600080611b92856122ec565b6001600160a01b0390811660009081526037602052604090206001810154600282015460039092015492169790965090945092505050565b60007fdea3103d22025c269050bea94c0c84688877f12fa22b7e6d2d5d78a9a49aa1cb600083600f811115611c0157611c016142ca565b60ff1681526020810191909152604001600020546001600160a01b0316905080611c5957816040517f812281be00000000000000000000000000000000000000000000000000000000815260040161094e91906143aa565b919050565b6008611c69816108e9565b8215611df35760005b83811015611db8576000858583818110611c8e57611c8e614358565b9050602002016020810190611ca39190613fb6565b6001600160a01b03808216600090815260376020908152604080832060018101549094168352603a909152902080546001600160a01b03191690556002810154919250908015611d6757611cf7828261284e565b506001820154611d13906001600160a01b0316826104b0613772565b611d675760018201548254604080518481524760208201526001600160a01b0393841693909216917f7dc5115a5aba081f5a174f56a3d02eea582824783322a4ac03f7bd388f444194910160405180910390a35b6001820154600090611d849085906001600160a01b0316896137e7565b90508015611da9576001830154611da7906001600160a01b0316826104b0613772565b505b84600101945050505050611c72565b507f4f257d3ba23679d338f1d94296086bba5724af341b7fa31aa0ff297bfcdc62d88484604051611dea9291906143b8565b60405180910390a15b50505050565b600f611e04816108e9565b506001600160a01b039182166000818152603760209081526040808320600101805487168452603a90925280832080546001600160a01b03199081169091558254959096169486168517909155928152919091208054909216179055565b6000806000611e9c846001600160a01b03808216600090815260376020526040902060018101546002820154600390920154921693909250565b9250925092509193909250565b60d154610100900460ff1615808015611ec9575060d154600160ff909116105b80611ee35750303b158015611ee3575060d15460ff166001145b611f465760405162461bcd60e51b815260206004820152602e60248201527f496e697469616c697a61626c653a20636f6e747261637420697320616c72656160448201526d191e481a5b9a5d1a585b1a5e995960921b606482015260840161094e565b60d1805460ff191660011790558015611f695760d1805461ff0019166101001790555b611f74600887612947565b611f7d856130e6565b611f88600085612f16565b611f91836131dc565b611f9a82613211565b8015611a525760d1805461ff0019169055604051600181527f7f26b83ff96e1f2b6a682f133852f6798a09c465da95921460cefb38474024989060200160405180910390a1505050505050565b600060026000540361203b5760405162461bcd60e51b815260206004820152601f60248201527f5265656e7472616e637947756172643a207265656e7472616e742063616c6c00604482015260640161094e565b60026000819055506120883361208385858080602002602001604051908101604052809392919081815260200183836020028082843760009201919091525061209f92505050565b613916565b90506120943382613967565b600160005592915050565b60606120ab600f611bca565b6001600160a01b031663f9226b1a836040518263ffffffff1660e01b81526004016120d69190614406565b600060405180830381865afa1580156120f3573d6000803e3d6000fd5b505050506040513d6000823e601f3d908101601f1916820160405261115c9190810190614484565b6060815183511461213f576040516376081a7b60e11b815260040160405180910390fd5b825167ffffffffffffffff81111561215957612159614342565b604051908082528060200260200182016040528015612182578160200160208202803683370190505b50905060005b815181101561221c576121f78482815181106121a6576121a6614358565b60200260200101518483815181106121c0576121c0614358565b60200260200101516001600160a01b0391821660009081526037602090815260408083209390941682526004909201909152205490565b82828151811061220957612209614358565b6020908102919091010152600101612188565b5092915050565b61222d6008611bca565b604051635061f96960e11b81526001600160a01b038381166004830152919091169063a0c3f2d290602401602060405180830381865afa158015612275573d6000803e3d6000fd5b505050506040513d601f19601f820116820180604052508101906122999190614536565b61095757806122a7826122ec565b6040517f2533fce20000000000000000000000000000000000000000000000000000000081526001600160a01b0392831660048201529116602482015260440161094e565b60006122f8600f611bca565b6040517f50a9fc290000000000000000000000000000000000000000000000000000000081526001600160a01b03848116600483015291909116906350a9fc2990602401602060405180830381865afa158015612359573d6000803e3d6000fd5b505050506040513d601f19601f8201168201806040525081019061115c9190614558565b60006123898484613916565b6001600160a01b0383166000908152603760205260409020909150611218908583613037565b6123bd8860006104b0613772565b61241b576040805163338f030160e01b81526001600160a01b038a1660048201526024810191909152600a60448201527f706f6f6c2061646d696e00000000000000000000000000000000000000000000606482015260840161094e565b6124298560006104b0613772565b612487576040805163338f030160e01b81526001600160a01b03871660048201526024810191909152600860448201527f7472656173757279000000000000000000000000000000000000000000000000606482015260840161094e565b606c548110156124aa57604051630a8d7fa760e21b815260040160405180910390fd5b866001600160a01b0316886001600160a01b03161415806124dd5750846001600160a01b0316876001600160a01b031614155b15612514576040517fdc1d04ff00000000000000000000000000000000000000000000000000000000815260040160405180910390fd5b6040805160038082526080820190925260009160208201606080368337019050509050888160008151811061254b5761254b614358565b60200260200101906001600160a01b031690816001600160a01b031681525050868160018151811061257f5761257f614358565b60200260200101906001600160a01b031690816001600160a01b0316815250506125a8816139b5565b156125ed576040517f1ad2fb620000000000000000000000000000000000000000000000000000000081526001600160e01b031960003516600482015260240161094e565b506125f86008611bca565b6040517ff883afaf0000000000000000000000000000000000000000000000000000000081526001600160a01b0389811660048301528881166024830152878116604483015260648201859052919091169063f883afaf90608401600060405180830381600087803b15801561266d57600080fd5b505af1158015612681573d6000803e3d6000fd5b505050506000612691600f611bca565b6040517fb5017aef0000000000000000000000000000000000000000000000000000000081529091506001600160a01b0382169063b5017aef906126e1908b908b908b908b908b906004016145bb565b600060405180830381600087803b1580156126fb57600080fd5b505af115801561270f573d6000803e3d6000fd5b50505050505050505050505050565b828261272a82826127c9565b8285600201600082825461273e9190614384565b925050819055506127648585876002015486896003015461275f9190614384565b613a54565b6001600160a01b03808516600090815260058701602052604090819020429055865490519116907f9e71bc8eea02a63969f509818f2dafb9254532904319f9dbda79b67bd34a5f3d906127ba9086815260200190565b60405180910390a25050505050565b60018201546001600160a01b038281169116146112f6576040517ff78cb7ae00000000000000000000000000000000000000000000000000000000815260040160405180910390fd5b3460000361284c576040517fdbf97bca00000000000000000000000000000000000000000000000000000000815260040160405180910390fd5b565b600061285e836002015483613a8f565b9050808360020160008282546128749190614397565b90915550506001830154600284015460038501546128a49286926001600160a01b039091169161275f9086613aa5565b82546040518281526001600160a01b03909116907f0f5bb82176feb1b5e747e28471aa92156a04d9f3ab9f45f28e2d704232b93f759060200160405180910390a292915050565b6000826001600160a01b03168260405160006040518083038185875af1925050503d8060008114612938576040519150601f19603f3d011682016040523d82523d6000602084013e61293d565b606091505b5090949350505050565b807fdea3103d22025c269050bea94c0c84688877f12fa22b7e6d2d5d78a9a49aa1cb600084600f81111561297d5761297d6142ca565b60ff168152602081019190915260400160002080546001600160a01b0319166001600160a01b03928316179055811682600f8111156129be576129be6142ca565b6040517f865d1c228a8ea13709cfe61f346f7ff67f1bbd4a18ff31ad3e7147350d317c5990600090a35050565b6001600160a01b03808516600090815260026020908152604080832093871683529290529081206003810154849003612a26575490506109dd565b6001600160a01b038616600090815260036020818152604080842060018084528286209487015486529390925283209182015483929015612a8b5780546001860154909450612a759085614397565b8560020154612a849190614601565b9250612a93565b846001015493505b8154600090612aa3908690614397565b612aad9089614601565b9050670de0b6b3a7640000612ac28286614384565b612acc9190614618565b8654612ad89190614384565b9b9a5050505050505050505050565b6060815167ffffffffffffffff811115612b0357612b03614342565b604051908082528060200260200182016040528015612b2c578160200160208202803683370190505b50905060005b8251811015612ba25760376000848381518110612b5157612b51614358565b60200260200101516001600160a01b03166001600160a01b0316815260200190815260200160002060020154828281518110612b8f57612b8f614358565b6020908102919091010152600101612b32565b50919050565b8282612bb48282613abf565b82600003612bee576040517ff5618d5a00000000000000000000000000000000000000000000000000000000815260040160405180910390fd5b6001600160a01b0384166000908152600486016020526040902054831115612c42576040517f34aa9a2800000000000000000000000000000000000000000000000000000000815260040160405180910390fd5b6000612c4e6008611bca565b604051635061f96960e11b81526001600160a01b0389811660048301529192509082169063a0c3f2d290602401602060405180830381865afa158015612c98573d6000803e3d6000fd5b505050506040513d601f19601f82011682018060405250810190612cbc9190614536565b8015612d4c57506040517f28bde1e10000000000000000000000000000000000000000000000000000000081526001600160a01b0388811660048301528216906328bde1e19060240160e060405180830381865afa158015612d22573d6000803e3d6000fd5b505050506040513d601f19601f82011682018060405250810190612d46919061463a565b60a00151155b8015612d7f57506038546001600160a01b03861660009081526005880160205260409020544291612d7c91614384565b10155b15612db6576040517ff19f52bd00000000000000000000000000000000000000000000000000000000815260040160405180910390fd5b6001600160a01b0385166000908152600487016020526040902054612df49087908790612de4908890614397565b878a6003015461275f9190614397565b85546040518581526001600160a01b03918216918716907f4d10bd049775c77bd7f255195afba5088028ecb3c7c277d393ccff7934f2f92c9060200160405180910390a350505050505050565b600081471015612e98576040517f98c713c00000000000000000000000000000000000000000000000000000000081526001600160e01b03196000351660048201524760248201526044810183905260640161094e565b61121883836128eb565b7fb53127684a568b3173ae13b9f8a6016e243e63b6e8ee1178d6a717850b5d6103546001600160a01b0316331461284c576000356001600160e01b03191660016040517f3e523c0000000000000000000000000000000000000000000000000000000000815260040161094e9291906146e2565b612710811180612f2557508082115b15612f4357604051631b8454a360e21b815260040160405180910390fd5b606d819055606e82905560408051838152602081018390527f677752f5bf9541b14288833909e5ec5a478103131c1ec08c4638943be5826c149101610f73565b6060815167ffffffffffffffff811115612f9f57612f9f614342565b604051908082528060200260200182016040528015612fc8578160200160208202803683370190505b50905060005b8251811015612ba257613012838281518110612fec57612fec614358565b60200260200101516001600160a01b031660009081526037602052604090206003015490565b82828151811061302457613024614358565b6020908102919091010152600101612fce565b82826130438282613abf565b6001600160a01b03841660009081526004860160205260409020546130819086908690613071908790614384565b86896003015461275f9190614384565b6001600160a01b03808516600081815260058801602052604090819020429055875490519216917fe5541a6b6103d4fa7e021ed54fad39c66f27a76bd13d374cf6240ae6bd0bb72b906130d79087815260200190565b60405180910390a35050505050565b606c8190556040518181527f372bbdb8d72373b0012f84ee5a11671e5fb72b8bea902ebca93a19cb45d32be2906020016114b5565b60006131276008611bca565b6001600160a01b031663060406186040518163ffffffff1660e01b8152600401602060405180830381865afa158015613164573d6000803e3d6000fd5b505050506040513d601f19601f820116820180604052508101906131889190614329565b905090565b806001600160a01b03163b600003610957576040517f2ff1928c0000000000000000000000000000000000000000000000000000000081526001600160a01b038216600482015260240161094e565b60388190556040518181527f4956b65267b8f1e642284bcb5037116c69a9c78d9ca576beeae0974737a4872a906020016114b5565b60398190556040518181527f02be0b73b597f2c0f138aebee162b3b0e25d5b5a26854c15dcf79176e9a1c678906020016114b5565b8351821461328f57807fae52c603227f64e4c6101dde593aa9790a16b3ac77546bd746d758511e9560a58585856040516132829392919061474a565b60405180910390a2611df3565b6000806000806000885167ffffffffffffffff8111156132b1576132b1614342565b6040519080825280602002602001820160405280156132da578160200160208202803683370190505b5090506000895167ffffffffffffffff8111156132f9576132f9614342565b604051908082528060200260200182016040528015613322578160200160208202803683370190505b50905060008a5167ffffffffffffffff81111561334157613341614342565b60405190808252806020026020018201604052801561336a578160200160208202803683370190505b50905060005b8b518110156135d3578b818151811061338b5761338b614358565b6020908102919091018101516001600160a01b038116600090815260038084526040808320603790955290912001549097506001600160a01b03881660009081526001602081815260408084208f855290915290912001549096508a900361342c57868389806001019a508151811061340657613406614358565b60200260200101906001600160a01b031690816001600160a01b031681525050506135cb565b60028101548a111561345a57604080518082019091528681526020018a905260018101869055600281018a90555b6001810154156134a45760018101548c8c8481811061347b5761347b614358565b90506020020135670de0b6b3a76400006134959190614601565b61349f9190614618565b6134a7565b60005b9850888160000160008282546134bd9190614384565b91829055509050856134cf8a85614397565b815181106134df576134df614358565b6020026020010181815250506040518060400160405280826000015481526020018b81525060016000896001600160a01b03166001600160a01b0316815260200190815260200160002060008c8152602001908152602001600020600082015181600001556020820151816001015590505085816001016000018190555080600101600001548489846135729190614397565b8151811061358257613582614358565b6020908102919091010152868d6135998a85614397565b815181106135a9576135a9614358565b60200260200101906001600160a01b031690816001600160a01b031681525050505b600101613370565b50851561361c57858152858b51038b52877fee74f10cc50bf4b7e57fd36be7d46288795f3a9151dae97505b718b392ba14a38260405161361391906147ad565b60405180910390a25b8a511561366057877f0e54e0485f70f0f63bc25889ddbf01ce1269ad6f07fdb2df573a0fbdb4d66f888c8585604051613657939291906147c0565b60405180910390a25b5050505050505050505050565b828261367982826127c9565b846002015483111561369e57604051630a8d7fa760e21b815260040160405180910390fd5b6038546001600160a01b038516600090815260058701602052604090205442916136c791614384565b11156136ff576040517f07b6105200000000000000000000000000000000000000000000000000000000815260040160405180910390fd5b828560020160008282546137139190614397565b925050819055506137348585876002015486896003015461275f9190614397565b84546040518481526001600160a01b03909116907f0f5bb82176feb1b5e747e28471aa92156a04d9f3ab9f45f28e2d704232b93f75906020016127ba565b60008260000361378b576137886108fc83614384565b91505b6040516001600160a01b03851690839085906000818181858888f193505050503d80600081146137d7576040519150601f19603f3d011682016040523d82523d6000602084013e6137dc565b606091505b509095945050505050565b6001600160a01b0380841660009081526037602090815260408083209386168352600490930190529081205461381f858585846129eb565b9150836001600160a01b0316856001600160a01b03167f0aa4d283470c904c551d18bb894d37e17674920f3261a7f854be501e25f421b78460405161386691815260200190565b60405180910390a36001600160a01b038086166000818152600260209081526040808320948916835293815283822082815592825260039052919091206138b09082868580613b08565b60038181018590556001600160a01b03878116600081815260209384526040808220546001870155519081529188169290917faa7c29611027fd4be148712bb54960253b7a7d5998c17769bfc424c2f5f185ad910160405180910390a350509392505050565b60008061392161311b565b905060005b8351811015610e8d5761395384828151811061394457613944614358565b602002602001015186846137e7565b61395d9084614384565b9250600101613926565b6139718282612e41565b6112f6576040517f3b97b7700000000000000000000000000000000000000000000000000000000081526001600160e01b031960003516600482015260240161094e565b600081516000036139c857506000919050565b60005b6001835103811015613a4b57600181015b8351811015613a42578381815181106139f7576139f7614358565b60200260200101516001600160a01b0316848381518110613a1a57613a1a614358565b60200260200101516001600160a01b031603613a3a575060019392505050565b6001016139dc565b506001016139cb565b50600092915050565b8354613a6a906001600160a01b03168484613bb3565b60038401556001600160a01b0390911660009081526004909201602052604090912055565b6000818310613a9e5781611218565b5090919050565b6000818311613ab5576000611218565b6112188284614397565b60018201546001600160a01b038083169116036112f6576040517f9feb934700000000000000000000000000000000000000000000000000000000815260040160405180910390fd5b8284600301541015613b1c57600284018190555b6000613b2c856002015484613a8f565b90506000818660020154613b409190614397565b90508015613baa57600286018290556001870154811115613b8d576040517fa5ca437e00000000000000000000000000000000000000000000000000000000815260040160405180910390fd5b80876001016000016000828254613ba49190614397565b90915550505b50505050505050565b6000613bbd61311b565b6001600160a01b0385166000908152600360205260409020600181015460028201549293509091831115613c31576040518060400160405280613c18886001600160a01b031660009081526037602052604090206003015490565b8152602090810185905281516001850155015160028301555b6001600160a01b038681166000818152600260209081526040808320948a168084529482528083209383526037825280832094835260049094019052918220549091613c7f898988856129eb565b83549091508114613cd1578083556040518181526001600160a01b0389811691908b16907faa7c29611027fd4be148712bb54960253b7a7d5998c17769bfc424c2f5f185ad9060200160405180910390a35b613cde8584888a86613b08565b8454600180850191909155600384018790558501548414613d4557886001600160a01b0316867f81faf50e2aaf52eaba2ab841071efb9f6f0850a3e7d008b1336e6001d3d4963c8760010160000154604051613d3c91815260200190565b60405180910390a35b505050505050505050565b60008083601f840112613d6257600080fd5b50813567ffffffffffffffff811115613d7a57600080fd5b6020830191508360208260051b8501011115613d9557600080fd5b9250929050565b60008060008060408587031215613db257600080fd5b843567ffffffffffffffff80821115613dca57600080fd5b613dd688838901613d50565b90965094506020870135915080821115613def57600080fd5b50613dfc87828801613d50565b95989497509550505050565b60008151808452602080850194506020840160005b83811015613e3957815187529582019590820190600101613e1d565b509495945050505050565b6020815260006112186020830184613e08565b6001600160a01b038116811461095757600080fd5b600080600060408486031215613e8157600080fd5b833567ffffffffffffffff811115613e9857600080fd5b613ea486828701613d50565b9094509250506020840135613eb881613e57565b809150509250925092565b60008083601f840112613ed557600080fd5b50813567ffffffffffffffff811115613eed57600080fd5b602083019150836020828501011115613d9557600080fd5b60008060008060008060008060c0898b031215613f2157600080fd5b8835613f2c81613e57565b97506020890135613f3c81613e57565b96506040890135613f4c81613e57565b955060608901359450608089013567ffffffffffffffff80821115613f7057600080fd5b613f7c8c838d01613ec3565b909650945060a08b0135915080821115613f9557600080fd5b50613fa28b828c01613ec3565b999c989b5096995094979396929594505050565b600060208284031215613fc857600080fd5b813561121881613e57565b60008060408385031215613fe657600080fd5b8235613ff181613e57565b946020939093013593505050565b60008060006040848603121561401457600080fd5b833561401f81613e57565b9250602084013567ffffffffffffffff81111561403b57600080fd5b61404786828701613d50565b9497909650939450505050565b6000806020838503121561406757600080fd5b823567ffffffffffffffff81111561407e57600080fd5b61408a85828601613d50565b90969095509350505050565b600080604083850312156140a957600080fd5b50508035926020909101359150565b6000602082840312156140ca57600080fd5b5035919050565b600080604083850312156140e457600080fd5b82356140ef81613e57565b915060208301356140ff81613e57565b809150509250929050565b60008060006060848603121561411f57600080fd5b833561412a81613e57565b9250602084013561413a81613e57565b929592945050506040919091013590565b803560108110611c5957600080fd5b6000806040838503121561416d57600080fd5b6140ef8361414b565b60008060006060848603121561418b57600080fd5b833561419681613e57565b95602085013595506040909401359392505050565b6000806000806000606086880312156141c357600080fd5b853567ffffffffffffffff808211156141db57600080fd5b6141e789838a01613d50565b9097509550602088013591508082111561420057600080fd5b5061420d88828901613d50565b96999598509660400135949350505050565b60006020828403121561423157600080fd5b6112188261414b565b60008060006040848603121561424f57600080fd5b833567ffffffffffffffff81111561426657600080fd5b61427286828701613d50565b909790965060209590950135949350505050565b600080600080600060a0868803121561429e57600080fd5b85356142a981613e57565b97602087013597506040870135966060810135965060800135945092505050565b634e487b7160e01b600052602160045260246000fd5b601081106142f0576142f06142ca565b9052565b6001600160e01b0319841681526060810161431260208301856142e0565b6001600160a01b0383166040830152949350505050565b60006020828403121561433b57600080fd5b5051919050565b634e487b7160e01b600052604160045260246000fd5b634e487b7160e01b600052603260045260246000fd5b634e487b7160e01b600052601160045260246000fd5b8082018082111561115c5761115c61436e565b8181038181111561115c5761115c61436e565b6020810161115c82846142e0565b60208082528181018390526000908460408401835b868110156143fb5782356143e081613e57565b6001600160a01b0316825291830191908301906001016143cd565b509695505050505050565b6020808252825182820181905260009190848201906040850190845b818110156144475783516001600160a01b031683529284019291840191600101614422565b50909695505050505050565b604051601f8201601f1916810167ffffffffffffffff8111828210171561447c5761447c614342565b604052919050565b6000602080838503121561449757600080fd5b825167ffffffffffffffff808211156144af57600080fd5b818501915085601f8301126144c357600080fd5b8151818111156144d5576144d5614342565b8060051b91506144e6848301614453565b818152918301840191848101908884111561450057600080fd5b938501935b8385101561452a578451925061451a83613e57565b8282529385019390850190614505565b98975050505050505050565b60006020828403121561454857600080fd5b8151801515811461121857600080fd5b60006020828403121561456a57600080fd5b815161121881613e57565b6000815180845260005b8181101561459b5760208185018101518683018201520161457f565b506000602082860101526020601f19601f83011685010191505092915050565b60006001600160a01b038088168352808716602084015280861660408401525060a060608301526145ef60a0830185614575565b828103608084015261452a8185614575565b808202811582820484141761115c5761115c61436e565b60008261463557634e487b7160e01b600052601260045260246000fd5b500490565b600060e0828403121561464c57600080fd5b60405160e0810181811067ffffffffffffffff8211171561466f5761466f614342565b604052825161467d81613e57565b8152602083015161468d81613e57565b602082015260408301516146a081613e57565b604082015260608301516146b381613e57565b806060830152506080830151608082015260a083015160a082015260c083015160c08201528091505092915050565b6001600160e01b03198316815260408101600b8310614703576147036142ca565b8260208301529392505050565b60008151808452602080850194506020840160005b83811015613e395781516001600160a01b031687529582019590820190600101614725565b60408152600061475d6040830186614710565b82810360208401528381527f07ffffffffffffffffffffffffffffffffffffffffffffffffffffffffffffff84111561479557600080fd5b8360051b808660208401370160200195945050505050565b6020815260006112186020830184614710565b6060815260006147d36060830186614710565b82810360208401526147e58186613e08565b905082810360408401526109d98185613e0856fea264697066735822122058132545133b9c1bea2eb63bcc41a2ef89ed9835e75b5fe33ffc90fbe59c52c964736f6c63430008160033",
  "chainId": 2021,
  "contractAbsolutePath": "Staking.sol",
  "deployer": "0x31762cdd4Aa65CD6f5F09D7a05a56211720A1168",
  "devdoc": {
    "version": 1,
    "kind": "dev",
    "methods": {
      "applyValidatorCandidate(address,address,address,uint256,bytes,bytes)": {
        "details": "Proposes a candidate to become a validator. Requirements: - The method caller is able to receive RON. - The treasury is able to receive RON. - The amount is larger than or equal to the minimum validator staking amount `minValidatorStakingAmount()`. Emits the event `PoolApproved`.",
        "params": {
          "candidateAdmin": "the candidate admin will be stored in the validator contract, used for calling function that affects to its candidate, e.g. scheduling maintenance."
        }
      },
      "bulkUndelegate(address[],uint256[])": {
        "details": "Bulk unstakes from a list of candidates. Requirements: - The method caller is not the pool admin. Emits the events `Undelegated`."
      },
      "claimRewards(address[])": {
        "details": "Claims the reward of method caller. Emits the `RewardClaimed` event."
      },
      "cooldownSecsToUndelegate()": {
        "details": "Returns The cooldown time in seconds to undelegate from the last timestamp (s)he delegated."
      },
      "delegate(address)": {
        "details": "Stakes for a validator candidate `_consensusAddr`. Requirements: - The consensus address is a validator candidate. - The method caller is not the pool admin. Emits the `Delegated` event."
      },
      "delegateRewards(address[],address)": {
        "details": "Claims the rewards and delegates them to the consensus address. Requirements: - The method caller is not the pool admin. - The consensus address `_consensusAddrDst` is a validator candidate. Emits the `RewardClaimed` event and the `Delegated` event."
      },
      "execChangeAdminAddress(address,address)": {
        "details": "Requirements: - Only Profile contract can call this method."
      },
      "execDeductStakingAmount(address,uint256)": {
        "details": "Deducts from staking amount of the validator `_consensusAddr` for `_amount`. Requirements: - The method caller must be validator contract. Emits the event `Unstaked`."
      },
      "execDeprecatePools(address[],uint256)": {
        "details": "Deprecates the pool. - Deduct self-staking amount of the pool admin to zero. - Transfer the deducted amount to the pool admin. - Deactivate the pool admin address in the mapping of active pool admins Requirements: - The method caller is validator contract. Emits the event `PoolsDeprecated` and `Unstaked` events. Emits the event `StakingAmountTransferFailed` if the contract cannot transfer RON back to the pool admin."
      },
      "execRecordRewards(address[],uint256[],uint256)": {
        "details": "Records the amount of rewards `_rewards` for the pools `_consensusAddrs`. Requirements: - The method caller must be validator contract. Emits the event `PoolsUpdated` once the contract recorded the rewards successfully. Emits the event `PoolsUpdateFailed` once the input array lengths are not equal. Emits the event `PoolsUpdateConflicted` when there are some pools which already updated in the period. Note: This method should be called once at the period ending."
      },
      "getCommissionRateRange()": {
        "details": "Returns the commission rate range that the candidate can set."
      },
      "getContract(uint8)": {
        "details": "Returns the address of a contract with a specific role. Throws an error if no contract is set for the specified role.",
        "params": {
          "contractType": "The role of the contract to retrieve."
        },
        "returns": {
          "contract_": "The address of the contract with the specified role."
        }
      },
      "getManySelfStakings(address[])": {
        "details": "Returns the self-staking amounts of the pools."
      },
      "getManySelfStakingsById(address[])": {
        "details": "Returns the self-staking amounts of the pools."
      },
      "getManyStakingAmounts(address[],address[])": {
        "details": "Returns the staking amounts of the users."
      },
      "getManyStakingTotals(address[])": {
        "details": "Returns the total staking amounts of all users for the pools `_poolAddrs`."
      },
      "getPoolAddressOf(address)": {
        "details": "Returns the consensus address corresponding to the pool admin."
      },
      "getPoolDetail(address)": {
        "details": "Returns the staking pool details."
      },
      "getReward(address,address)": {
        "details": "Returns the reward amount that user claimable."
      },
      "getRewards(address,address[])": {
        "details": "Returns the claimable reward of the user `_user`."
      },
      "getStakingAmount(address,address)": {
        "details": "Returns the staking amount of an user."
      },
      "getStakingTotal(address)": {
        "details": "Returns the total staking amount of all users for a pool."
      },
      "initialize(address,uint256,uint256,uint256,uint256)": {
        "details": "Initializes the contract storage."
      },
      "initializeV2()": {
        "details": "Initializes the contract storage V2."
      },
      "initializeV3(address)": {
        "details": "Initializes the contract storage V3."
      },
      "isAdminOfActivePool(address)": {
        "details": "Returns whether the `admin` is currently active."
      },
      "minValidatorStakingAmount()": {
        "details": "Returns the minimum threshold for being a validator candidate."
      },
      "redelegate(address,address,uint256)": {
        "details": "Unstakes an amount of RON from the `_consensusAddrSrc` and stake for `_consensusAddrDst`. Requirements: - The method caller is not the pool admin. - The consensus address `_consensusAddrDst` is a validator candidate. Emits the `Undelegated` event and the `Delegated` event."
      },
      "requestEmergencyExit(address)": {
        "details": "Renounces being a validator candidate and takes back the delegating/staking amount. Requirements: - The consensus address is a validator candidate. - The method caller is the pool admin."
      },
      "requestRenounce(address)": {
        "details": "Renounces being a validator candidate and takes back the delegating/staking amount. Requirements: - The consensus address is a validator candidate. - The method caller is the pool admin."
      },
      "requestUpdateCommissionRate(address,uint256,uint256)": {
        "details": "Pool admin requests update validator commission rate. The request will be forwarded to the candidate manager contract, and the value is getting updated in {ICandidateManager-execRequestUpdateCommissionRate}. Requirements: - The consensus address is a validator candidate. - The method caller is the pool admin. - The `_effectiveDaysOnwards` must be equal to or larger than the {CandidateManager-_minEffectiveDaysOnwards}. - The `_rate` must be in range of [0_00; 100_00]. Emits the event `CommissionRateUpdated`."
      },
      "setCommissionRateRange(uint256,uint256)": {
        "details": "Sets the commission rate range that a candidate can set. Requirements: - The method caller is admin. Emits the `CommissionRateRangeUpdated` event."
      },
      "setContract(uint8,address)": {
        "details": "Sets the address of a contract with a specific role. Emits the event {ContractUpdated}.",
        "params": {
          "addr": "The address of the contract to set.",
          "contractType": "The role of the contract to set."
        }
      },
      "setCooldownSecsToUndelegate(uint256)": {
        "details": "Sets the cooldown time in seconds to undelegate from the last timestamp (s)he delegated. Requirements: - The method caller is admin. Emits the event `CooldownSecsToUndelegateUpdated`."
      },
      "setMinValidatorStakingAmount(uint256)": {
        "details": "Sets the minimum threshold for being a validator candidate. Requirements: - The method caller is admin. Emits the `MinValidatorStakingAmountUpdated` event."
      },
      "setWaitingSecsToRevoke(uint256)": {
        "details": "Sets the number of seconds that a candidate must wait to be revoked. Requirements: - The method caller is admin. Emits the event `WaitingSecsToRevokeUpdated`."
      },
      "stake(address)": {
        "details": "Self-delegates to the validator candidate `consensusAddr`. Requirements: - The consensus address is a validator candidate. - The method caller is the pool admin. - The `msg.value` is larger than 0. Emits the event `Staked`."
      },
      "undelegate(address,uint256)": {
        "details": "Unstakes from a validator candidate `_consensusAddr` for `_amount`. Requirements: - The method caller is not the pool admin. Emits the `Undelegated` event."
      },
      "unstake(address,uint256)": {
        "details": "Unstakes from the validator candidate `consensusAddr` for `amount`. Requirements: - The consensus address is a validator candidate. - The method caller is the pool admin. Emits the event `Unstaked`."
      },
      "waitingSecsToRevoke()": {
        "details": "Returns the number of seconds that a candidate must wait for the renounce request gets affected."
      }
    },
    "events": {
      "CommissionRateRangeUpdated(uint256,uint256)": {
        "details": "Emitted when the commission rate range is updated."
      },
      "ContractUpdated(uint8,address)": {
        "details": "Emitted when a contract is updated."
      },
      "CooldownSecsToUndelegateUpdated(uint256)": {
        "details": "Emitted when the minium number of seconds to undelegate is updated."
      },
      "Delegated(address,address,uint256)": {
        "details": "Emitted when the delegator staked for a validator candidate."
      },
      "Initialized(uint8)": {
        "details": "Triggered when the contract has been initialized or reinitialized."
      },
      "MinValidatorStakingAmountUpdated(uint256)": {
        "details": "Emitted when the minimum staking amount for being a validator is updated."
      },
      "PoolApproved(address,address)": {
        "details": "Emitted when the validator pool is approved."
      },
      "PoolSharesUpdated(uint256,address,uint256)": {
        "details": "Emitted when the pool shares are updated"
      },
      "PoolsDeprecated(address[])": {
        "details": "Emitted when the validator pool is deprecated."
      },
      "PoolsUpdateConflicted(uint256,address[])": {
        "details": "Emitted when the contract fails when updating the pools that already set"
      },
      "PoolsUpdateFailed(uint256,address[],uint256[])": {
        "details": "Emitted when the contract fails when updating the pools"
      },
      "PoolsUpdated(uint256,address[],uint256[],uint256[])": {
        "details": "Emitted when the pools are updated"
      },
      "RewardClaimed(address,address,uint256)": {
        "details": "Emitted when the user claimed their reward"
      },
      "Staked(address,uint256)": {
        "details": "Emitted when the pool admin staked for themself."
      },
      "StakingAmountDeductFailed(address,address,uint256,uint256)": {
        "details": "Emitted when the staking amount deducted failed, e.g. when the validator gets slashed."
      },
      "StakingAmountTransferFailed(address,address,uint256,uint256)": {
        "details": "Emitted when the staking amount transfer failed."
      },
      "Undelegated(address,address,uint256)": {
        "details": "Emitted when the delegator unstaked from a validator candidate."
      },
      "Unstaked(address,uint256)": {
        "details": "Emitted when the pool admin unstaked the amount of RON from themself."
      },
      "UserRewardUpdated(address,address,uint256)": {
        "details": "Emitted when the fields to calculate pending reward for the user is updated."
      },
      "WaitingSecsToRevokeUpdated(uint256)": {
        "details": "Emitted when the number of seconds that a candidate must wait to be revoked."
      }
    },
    "errors": {
      "ErrAdminOfAnyActivePoolForbidden(address)": [
        {
          "details": "Error of admin of any active pool cannot delegate."
        }
      ],
      "ErrCannotInitTransferRON(address,string)": [
        {
          "details": "Error of cannot transfer RON to specified target."
        }
      ],
      "ErrCannotTransferRON()": [
        {
          "details": "Error of cannot transfer RON."
        }
      ],
      "ErrContractTypeNotFound(uint8)": [
        {
          "details": "Error of invalid role."
        }
      ],
      "ErrDuplicated(bytes4)": [
        {
          "details": "Error thrown when a duplicated element is detected in an array.",
          "params": {
            "msgSig": "The function signature that invoke the error."
          }
        }
      ],
      "ErrInactivePool(address,address)": [
        {
          "details": "Error of querying inactive pool."
        }
      ],
      "ErrInsufficientBalance(bytes4,uint256,uint256)": [
        {
          "details": "Error of sender has insufficient balance."
        }
      ],
      "ErrInsufficientDelegatingAmount()": [
        {
          "details": "Error of undelegating insufficient amount."
        }
      ],
      "ErrInsufficientStakingAmount()": [
        {
          "details": "Error of insufficient staking amount for unstaking."
        }
      ],
      "ErrInvalidArrays()": [
        {
          "details": "Error of length of input arrays are not of the same."
        }
      ],
      "ErrInvalidCommissionRate()": [
        {
          "details": "Error of setting commission rate exceeds max allowed."
        }
      ],
      "ErrInvalidPoolShare()": [
        {
          "details": "Error of invalid pool share."
        }
      ],
      "ErrOnlyPoolAdminAllowed()": [
        {
          "details": "Error of no one is allowed to call but the pool's admin."
        }
      ],
      "ErrPoolAdminForbidden()": [
        {
          "details": "Error of pool admin is not allowed to call."
        }
      ],
      "ErrRecipientRevert(bytes4)": [
        {
          "details": "Error of recipient not accepting RON when transfer RON."
        }
      ],
      "ErrStakingAmountLeft()": [
        {
          "details": "Error of invalid staking amount left after deducted."
        }
      ],
      "ErrThreeInteractionAddrsNotEqual()": [
        {
          "details": "Error of three interaction addresses must be of the same in applying for validator candidate."
        }
      ],
      "ErrUnauthorized(bytes4,uint8)": [
        {
          "details": "Error indicating that the caller is unauthorized to perform a specific function.",
          "params": {
            "expectedRole": "The role required to perform the function.",
            "msgSig": "The function signature (bytes4) that the caller is unauthorized to perform."
          }
        }
      ],
      "ErrUndelegateTooEarly()": [
        {
          "details": "Error of undelegating too early."
        }
      ],
      "ErrUndelegateZeroAmount()": [
        {
          "details": "Error of undelegating zero amount."
        }
      ],
      "ErrUnexpectedInternalCall(bytes4,uint8,address)": [
        {
          "details": "Error indicating that the caller is unauthorized to perform a specific function.",
          "params": {
            "actual": "The actual address that called to the function.",
            "expectedContractType": "The contract type required to perform the function.",
            "msgSig": "The function signature (bytes4)."
          }
        }
      ],
      "ErrUnstakeTooEarly()": [
        {
          "details": "Error of unstaking too early."
        }
      ],
      "ErrUnstakeZeroAmount()": [
        {
          "details": "Error of unstaking zero amount."
        }
      ],
      "ErrZeroCodeContract(address)": [
        {
          "details": "Error of set to non-contract."
        }
      ],
      "ErrZeroValue()": [
        {
          "details": "Error of receiving zero message value."
        }
      ]
    }
  },
  "isFoundry": true,
  "nonce": 6,
  "numDeployments": 15,
  "storageLayout": {
    "storage": [
      {
        "astId": 150020,
        "contract": "contracts/ronin/staking/Staking.sol:Staking",
        "label": "_status",
        "offset": 0,
        "slot": "0",
        "type": "t_uint256"
      },
      {
        "astId": 33872,
        "contract": "contracts/ronin/staking/Staking.sol:Staking",
        "label": "_accumulatedRps",
        "offset": 0,
        "slot": "1",
        "type": "t_mapping(t_address,t_mapping(t_uint256,t_struct(PeriodWrapper)8895_storage))"
      },
      {
        "astId": 33880,
        "contract": "contracts/ronin/staking/Staking.sol:Staking",
        "label": "_userReward",
        "offset": 0,
        "slot": "2",
        "type": "t_mapping(t_address,t_mapping(t_address,t_struct(UserRewardFields)9737_storage))"
      },
      {
        "astId": 33886,
        "contract": "contracts/ronin/staking/Staking.sol:Staking",
        "label": "_stakingPool",
        "offset": 0,
        "slot": "3",
        "type": "t_mapping(t_address,t_struct(PoolFields)9743_storage)"
      },
      {
        "astId": 33891,
        "contract": "contracts/ronin/staking/Staking.sol:Staking",
        "label": "______gap",
        "offset": 0,
        "slot": "4",
        "type": "t_array(t_uint256)50_storage"
      },
      {
        "astId": 39956,
        "contract": "contracts/ronin/staking/Staking.sol:Staking",
        "label": "______deprecatedValidator",
        "offset": 0,
        "slot": "54",
        "type": "t_address"
      },
      {
        "astId": 31675,
        "contract": "contracts/ronin/staking/Staking.sol:Staking",
        "label": "_poolDetail",
        "offset": 0,
        "slot": "55",
        "type": "t_mapping(t_address,t_struct(PoolDetail)9301_storage)"
      },
      {
        "astId": 31678,
        "contract": "contracts/ronin/staking/Staking.sol:Staking",
        "label": "_cooldownSecsToUndelegate",
        "offset": 0,
        "slot": "56",
        "type": "t_uint256"
      },
      {
        "astId": 31681,
        "contract": "contracts/ronin/staking/Staking.sol:Staking",
        "label": "_waitingSecsToRevoke",
        "offset": 0,
        "slot": "57",
        "type": "t_uint256"
      },
      {
        "astId": 31686,
        "contract": "contracts/ronin/staking/Staking.sol:Staking",
        "label": "_adminOfActivePoolMapping",
        "offset": 0,
        "slot": "58",
        "type": "t_mapping(t_address,t_address)"
      },
      {
        "astId": 31691,
        "contract": "contracts/ronin/staking/Staking.sol:Staking",
        "label": "______gap",
        "offset": 0,
        "slot": "59",
        "type": "t_array(t_uint256)49_storage"
      },
      {
        "astId": 32432,
        "contract": "contracts/ronin/staking/Staking.sol:Staking",
        "label": "_minValidatorStakingAmount",
        "offset": 0,
        "slot": "108",
        "type": "t_uint256"
      },
      {
        "astId": 32435,
        "contract": "contracts/ronin/staking/Staking.sol:Staking",
        "label": "_maxCommissionRate",
        "offset": 0,
        "slot": "109",
        "type": "t_uint256"
      },
      {
        "astId": 32438,
        "contract": "contracts/ronin/staking/Staking.sol:Staking",
        "label": "_minCommissionRate",
        "offset": 0,
        "slot": "110",
        "type": "t_uint256"
      },
      {
        "astId": 32443,
        "contract": "contracts/ronin/staking/Staking.sol:Staking",
        "label": "______gap",
        "offset": 0,
        "slot": "111",
        "type": "t_array(t_uint256)48_storage"
      },
      {
        "astId": 33270,
        "contract": "contracts/ronin/staking/Staking.sol:Staking",
        "label": "______gap",
        "offset": 0,
        "slot": "159",
        "type": "t_array(t_uint256)50_storage"
      },
      {
        "astId": 149757,
        "contract": "contracts/ronin/staking/Staking.sol:Staking",
        "label": "_initialized",
        "offset": 0,
        "slot": "209",
        "type": "t_uint8"
      },
      {
        "astId": 149760,
        "contract": "contracts/ronin/staking/Staking.sol:Staking",
        "label": "_initializing",
        "offset": 1,
        "slot": "209",
        "type": "t_bool"
      }
    ],
    "types": {
      "t_address": {
        "encoding": "inplace",
        "label": "address",
        "numberOfBytes": "20"
      },
      "t_array(t_uint256)48_storage": {
        "encoding": "inplace",
        "label": "uint256[48]",
        "numberOfBytes": "1536",
        "base": "t_uint256"
      },
      "t_array(t_uint256)49_storage": {
        "encoding": "inplace",
        "label": "uint256[49]",
        "numberOfBytes": "1568",
        "base": "t_uint256"
      },
      "t_array(t_uint256)50_storage": {
        "encoding": "inplace",
        "label": "uint256[50]",
        "numberOfBytes": "1600",
        "base": "t_uint256"
      },
      "t_bool": {
        "encoding": "inplace",
        "label": "bool",
        "numberOfBytes": "1"
      },
      "t_mapping(t_address,t_address)": {
        "encoding": "mapping",
        "key": "t_address",
        "label": "mapping(address => address)",
        "numberOfBytes": "32",
        "value": "t_address"
      },
      "t_mapping(t_address,t_mapping(t_address,t_struct(UserRewardFields)9737_storage))": {
        "encoding": "mapping",
        "key": "t_address",
        "label": "mapping(address => mapping(address => struct IRewardPool.UserRewardFields))",
        "numberOfBytes": "32",
        "value": "t_mapping(t_address,t_struct(UserRewardFields)9737_storage)"
      },
      "t_mapping(t_address,t_mapping(t_uint256,t_struct(PeriodWrapper)8895_storage))": {
        "encoding": "mapping",
        "key": "t_address",
        "label": "mapping(address => mapping(uint256 => struct PeriodWrapperConsumer.PeriodWrapper))",
        "numberOfBytes": "32",
        "value": "t_mapping(t_uint256,t_struct(PeriodWrapper)8895_storage)"
      },
      "t_mapping(t_address,t_struct(PoolDetail)9301_storage)": {
        "encoding": "mapping",
        "key": "t_address",
        "label": "mapping(address => struct IBaseStaking.PoolDetail)",
        "numberOfBytes": "32",
        "value": "t_struct(PoolDetail)9301_storage"
      },
      "t_mapping(t_address,t_struct(PoolFields)9743_storage)": {
        "encoding": "mapping",
        "key": "t_address",
        "label": "mapping(address => struct IRewardPool.PoolFields)",
        "numberOfBytes": "32",
        "value": "t_struct(PoolFields)9743_storage"
      },
      "t_mapping(t_address,t_struct(UserRewardFields)9737_storage)": {
        "encoding": "mapping",
        "key": "t_address",
        "label": "mapping(address => struct IRewardPool.UserRewardFields)",
        "numberOfBytes": "32",
        "value": "t_struct(UserRewardFields)9737_storage"
      },
      "t_mapping(t_address,t_uint256)": {
        "encoding": "mapping",
        "key": "t_address",
        "label": "mapping(address => uint256)",
        "numberOfBytes": "32",
        "value": "t_uint256"
      },
      "t_mapping(t_uint256,t_struct(PeriodWrapper)8895_storage)": {
        "encoding": "mapping",
        "key": "t_uint256",
        "label": "mapping(uint256 => struct PeriodWrapperConsumer.PeriodWrapper)",
        "numberOfBytes": "32",
        "value": "t_struct(PeriodWrapper)8895_storage"
      },
      "t_struct(PeriodWrapper)8895_storage": {
        "encoding": "inplace",
        "label": "struct PeriodWrapperConsumer.PeriodWrapper",
        "numberOfBytes": "64",
        "members": [
          {
            "astId": 8892,
            "contract": "contracts/ronin/staking/Staking.sol:Staking",
            "label": "inner",
            "offset": 0,
            "slot": "0",
            "type": "t_uint256"
          },
          {
            "astId": 8894,
            "contract": "contracts/ronin/staking/Staking.sol:Staking",
            "label": "lastPeriod",
            "offset": 0,
            "slot": "1",
            "type": "t_uint256"
          }
        ]
      },
      "t_struct(PoolDetail)9301_storage": {
        "encoding": "inplace",
        "label": "struct IBaseStaking.PoolDetail",
        "numberOfBytes": "192",
        "members": [
          {
            "astId": 9281,
            "contract": "contracts/ronin/staking/Staking.sol:Staking",
            "label": "pid",
            "offset": 0,
            "slot": "0",
            "type": "t_address"
          },
          {
            "astId": 9284,
            "contract": "contracts/ronin/staking/Staking.sol:Staking",
            "label": "__shadowedPoolAdmin",
            "offset": 0,
            "slot": "1",
            "type": "t_address"
          },
          {
            "astId": 9287,
            "contract": "contracts/ronin/staking/Staking.sol:Staking",
            "label": "stakingAmount",
            "offset": 0,
            "slot": "2",
            "type": "t_uint256"
          },
          {
            "astId": 9290,
            "contract": "contracts/ronin/staking/Staking.sol:Staking",
            "label": "stakingTotal",
            "offset": 0,
            "slot": "3",
            "type": "t_uint256"
          },
          {
            "astId": 9295,
            "contract": "contracts/ronin/staking/Staking.sol:Staking",
            "label": "delegatingAmount",
            "offset": 0,
            "slot": "4",
            "type": "t_mapping(t_address,t_uint256)"
          },
          {
            "astId": 9300,
            "contract": "contracts/ronin/staking/Staking.sol:Staking",
            "label": "lastDelegatingTimestamp",
            "offset": 0,
            "slot": "5",
            "type": "t_mapping(t_address,t_uint256)"
          }
        ]
      },
      "t_struct(PoolFields)9743_storage": {
        "encoding": "inplace",
        "label": "struct IRewardPool.PoolFields",
        "numberOfBytes": "96",
        "members": [
          {
            "astId": 9739,
            "contract": "contracts/ronin/staking/Staking.sol:Staking",
            "label": "aRps",
            "offset": 0,
            "slot": "0",
            "type": "t_uint256"
          },
          {
            "astId": 9742,
            "contract": "contracts/ronin/staking/Staking.sol:Staking",
            "label": "shares",
            "offset": 0,
            "slot": "1",
            "type": "t_struct(PeriodWrapper)8895_storage"
          }
        ]
      },
      "t_struct(UserRewardFields)9737_storage": {
        "encoding": "inplace",
        "label": "struct IRewardPool.UserRewardFields",
        "numberOfBytes": "128",
        "members": [
          {
            "astId": 9730,
            "contract": "contracts/ronin/staking/Staking.sol:Staking",
            "label": "debited",
            "offset": 0,
            "slot": "0",
            "type": "t_uint256"
          },
          {
            "astId": 9732,
            "contract": "contracts/ronin/staking/Staking.sol:Staking",
            "label": "aRps",
            "offset": 0,
            "slot": "1",
            "type": "t_uint256"
          },
          {
            "astId": 9734,
            "contract": "contracts/ronin/staking/Staking.sol:Staking",
            "label": "lowestAmount",
            "offset": 0,
            "slot": "2",
            "type": "t_uint256"
          },
          {
            "astId": 9736,
            "contract": "contracts/ronin/staking/Staking.sol:Staking",
            "label": "lastPeriod",
            "offset": 0,
            "slot": "3",
            "type": "t_uint256"
          }
        ]
      },
      "t_uint256": {
        "encoding": "inplace",
        "label": "uint256",
        "numberOfBytes": "32"
      },
      "t_uint8": {
        "encoding": "inplace",
        "label": "uint8",
        "numberOfBytes": "1"
      }
    }
  },
  "timestamp": 1704868902,
  "userdoc": {
    "version": 1,
    "kind": "user"
  }
}