{
  "abi": [
    {
      "type": "constructor",
      "inputs": [],
      "stateMutability": "nonpayable"
    },
    {
      "type": "function",
      "name": "blockProducerBlockBonus",
      "inputs": [
        {
          "name": "",
          "type": "uint256",
          "internalType": "uint256"
        }
      ],
      "outputs": [
        {
          "name": "",
          "type": "uint256",
          "internalType": "uint256"
        }
      ],
      "stateMutability": "view"
    },
    {
      "type": "function",
      "name": "bridgeOperatorBlockBonus",
      "inputs": [
        {
          "name": "",
          "type": "uint256",
          "internalType": "uint256"
        }
      ],
      "outputs": [
        {
          "name": "",
          "type": "uint256",
          "internalType": "uint256"
        }
      ],
      "stateMutability": "view"
    },
    {
      "type": "function",
      "name": "fastFinalityRewardPercentage",
      "inputs": [],
      "outputs": [
        {
          "name": "",
          "type": "uint256",
          "internalType": "uint256"
        }
      ],
      "stateMutability": "view"
    },
    {
      "type": "function",
      "name": "getContract",
      "inputs": [
        {
          "name": "contractType",
          "type": "uint8",
          "internalType": "enum ContractType"
        }
      ],
      "outputs": [
        {
          "name": "contract_",
          "type": "address",
          "internalType": "address payable"
        }
      ],
      "stateMutability": "view"
    },
    {
      "type": "function",
      "name": "initialize",
      "inputs": [
        {
          "name": "validatorContract",
          "type": "address",
          "internalType": "address"
        },
        {
          "name": "blockProducerBonusPerBlock",
          "type": "uint256",
          "internalType": "uint256"
        },
        {
          "name": "bridgeOperatorBonusPerBlock",
          "type": "uint256",
          "internalType": "uint256"
        }
      ],
      "outputs": [],
      "stateMutability": "payable"
    },
    {
      "type": "function",
      "name": "initializeV2",
      "inputs": [],
      "outputs": [],
      "stateMutability": "nonpayable"
    },
    {
      "type": "function",
      "name": "initializeV3",
      "inputs": [
        {
          "name": "fastFinalityRewardPercent",
          "type": "uint256",
          "internalType": "uint256"
        }
      ],
      "outputs": [],
      "stateMutability": "nonpayable"
    },
    {
      "type": "function",
      "name": "lastBlockSendingBonus",
      "inputs": [],
      "outputs": [
        {
          "name": "",
          "type": "uint256",
          "internalType": "uint256"
        }
      ],
      "stateMutability": "view"
    },
    {
      "type": "function",
      "name": "receiveRON",
      "inputs": [],
      "outputs": [],
      "stateMutability": "payable"
    },
    {
      "type": "function",
      "name": "requestBonus",
      "inputs": [
        {
          "name": "forBlockProducer",
          "type": "bool",
          "internalType": "bool"
        },
        {
          "name": "forBridgeOperator",
          "type": "bool",
          "internalType": "bool"
        }
      ],
      "outputs": [
        {
          "name": "success",
          "type": "bool",
          "internalType": "bool"
        },
        {
          "name": "blockProducerBonus",
          "type": "uint256",
          "internalType": "uint256"
        },
        {
          "name": "bridgeOperatorBonus",
          "type": "uint256",
          "internalType": "uint256"
        },
        {
          "name": "fastFinalityRewardPercent",
          "type": "uint256",
          "internalType": "uint256"
        }
      ],
      "stateMutability": "nonpayable"
    },
    {
      "type": "function",
      "name": "setBlockProducerBonusPerBlock",
      "inputs": [
        {
          "name": "amount",
          "type": "uint256",
          "internalType": "uint256"
        }
      ],
      "outputs": [],
      "stateMutability": "nonpayable"
    },
    {
      "type": "function",
      "name": "setBridgeOperatorBonusPerBlock",
      "inputs": [
        {
          "name": "amount",
          "type": "uint256",
          "internalType": "uint256"
        }
      ],
      "outputs": [],
      "stateMutability": "nonpayable"
    },
    {
      "type": "function",
      "name": "setContract",
      "inputs": [
        {
          "name": "contractType",
          "type": "uint8",
          "internalType": "enum ContractType"
        },
        {
          "name": "addr",
          "type": "address",
          "internalType": "address"
        }
      ],
      "outputs": [],
      "stateMutability": "nonpayable"
    },
    {
      "type": "function",
      "name": "setFastFinalityRewardPercentage",
      "inputs": [
        {
          "name": "percent",
          "type": "uint256",
          "internalType": "uint256"
        }
      ],
      "outputs": [],
      "stateMutability": "nonpayable"
    },
    {
      "type": "event",
      "name": "BlockProducerBonusPerBlockUpdated",
      "inputs": [
        {
          "name": "",
          "type": "uint256",
          "indexed": false,
          "internalType": "uint256"
        }
      ],
      "anonymous": false
    },
    {
      "type": "event",
      "name": "BonusTransferFailed",
      "inputs": [
        {
          "name": "blockNumber",
          "type": "uint256",
          "indexed": true,
          "internalType": "uint256"
        },
        {
          "name": "recipient",
          "type": "address",
          "indexed": true,
          "internalType": "address"
        },
        {
          "name": "blockProducerAmount",
          "type": "uint256",
          "indexed": false,
          "internalType": "uint256"
        },
        {
          "name": "bridgeOperatorAmount",
          "type": "uint256",
          "indexed": false,
          "internalType": "uint256"
        },
        {
          "name": "contractBalance",
          "type": "uint256",
          "indexed": false,
          "internalType": "uint256"
        }
      ],
      "anonymous": false
    },
    {
      "type": "event",
      "name": "BonusTransferred",
      "inputs": [
        {
          "name": "blockNumber",
          "type": "uint256",
          "indexed": true,
          "internalType": "uint256"
        },
        {
          "name": "recipient",
          "type": "address",
          "indexed": true,
          "internalType": "address"
        },
        {
          "name": "blockProducerAmount",
          "type": "uint256",
          "indexed": false,
          "internalType": "uint256"
        },
        {
          "name": "bridgeOperatorAmount",
          "type": "uint256",
          "indexed": false,
          "internalType": "uint256"
        }
      ],
      "anonymous": false
    },
    {
      "type": "event",
      "name": "BridgeOperatorBonusPerBlockUpdated",
      "inputs": [
        {
          "name": "",
          "type": "uint256",
          "indexed": false,
          "internalType": "uint256"
        }
      ],
      "anonymous": false
    },
    {
      "type": "event",
      "name": "ContractUpdated",
      "inputs": [
        {
          "name": "contractType",
          "type": "uint8",
          "indexed": true,
          "internalType": "enum ContractType"
        },
        {
          "name": "addr",
          "type": "address",
          "indexed": true,
          "internalType": "address"
        }
      ],
      "anonymous": false
    },
    {
      "type": "event",
      "name": "FastFinalityRewardPercentageUpdated",
      "inputs": [
        {
          "name": "",
          "type": "uint256",
          "indexed": false,
          "internalType": "uint256"
        }
      ],
      "anonymous": false
    },
    {
      "type": "event",
      "name": "Initialized",
      "inputs": [
        {
          "name": "version",
          "type": "uint8",
          "indexed": false,
          "internalType": "uint8"
        }
      ],
      "anonymous": false
    },
    {
      "type": "error",
      "name": "ErrBonusAlreadySent",
      "inputs": []
    },
    {
      "type": "error",
      "name": "ErrContractTypeNotFound",
      "inputs": [
        {
          "name": "contractType",
          "type": "uint8",
          "internalType": "enum ContractType"
        }
      ]
    },
    {
      "type": "error",
      "name": "ErrInsufficientBalance",
      "inputs": [
        {
          "name": "msgSig",
          "type": "bytes4",
          "internalType": "bytes4"
        },
        {
          "name": "currentBalance",
          "type": "uint256",
          "internalType": "uint256"
        },
        {
          "name": "sendAmount",
          "type": "uint256",
          "internalType": "uint256"
        }
      ]
    },
    {
      "type": "error",
      "name": "ErrInvalidArguments",
      "inputs": [
        {
          "name": "msgSig",
          "type": "bytes4",
          "internalType": "bytes4"
        }
      ]
    },
    {
      "type": "error",
      "name": "ErrRecipientRevert",
      "inputs": [
        {
          "name": "msgSig",
          "type": "bytes4",
          "internalType": "bytes4"
        }
      ]
    },
    {
      "type": "error",
      "name": "ErrUnauthorized",
      "inputs": [
        {
          "name": "msgSig",
          "type": "bytes4",
          "internalType": "bytes4"
        },
        {
          "name": "expectedRole",
          "type": "uint8",
          "internalType": "enum RoleAccess"
        }
      ]
    },
    {
      "type": "error",
      "name": "ErrUnexpectedInternalCall",
      "inputs": [
        {
          "name": "msgSig",
          "type": "bytes4",
          "internalType": "bytes4"
        },
        {
          "name": "expectedContractType",
          "type": "uint8",
          "internalType": "enum ContractType"
        },
        {
          "name": "actual",
          "type": "address",
          "internalType": "address"
        }
      ]
    },
    {
      "type": "error",
      "name": "ErrZeroCodeContract",
      "inputs": [
        {
          "name": "addr",
          "type": "address",
          "internalType": "address"
        }
      ]
    }
  ],
  "absolutePath": "StakingVesting.sol",
  "address": "0x6d1D5bC8014fFbBC2FF0cF28E899eed7418A2Bf6",
  "blockNumber": 27813238,
  "bytecode": "0x6080604052348015600f57600080fd5b506016601a565b60e5565b600054600160a81b900460ff161560875760405162461bcd60e51b815260206004820152602760248201527f496e697469616c697a61626c653a20636f6e747261637420697320696e697469604482015266616c697a696e6760c81b606482015260840160405180910390fd5b60005460ff600160a01b9091048116101560e3576000805460ff60a01b191660ff60a01b17905560405160ff81527f7f26b83ff96e1f2b6a682f133852f6798a09c465da95921460cefb38474024989060200160405180910390a15b565b610d9b806100f46000396000f3fe6080604052600436106100dd5760003560e01c80637a1ac61e1161007f578063d8209d0711610059578063d8209d0714610207578063de981f1b14610229578063f13ba64414610261578063fa8674a11461028157600080fd5b80637a1ac61e146101b4578063865e6fd3146101c75780639e7cb051146101e757600080fd5b8063434a025d116100bb578063434a025d1461016a57806359f778df146101685780635cd8a76b1461017f57806367e9941c1461019457600080fd5b80630634f5b9146100e25780630d9160e7146101295780633c3d841014610148575b600080fd5b3480156100ee57600080fd5b506101026100fd366004610bb2565b6102a3565b60408051941515855260208501939093529183015260608201526080015b60405180910390f35b34801561013557600080fd5b506003545b604051908152602001610120565b34801561015457600080fd5b50610168610163366004610be5565b6103f5565b005b34801561017657600080fd5b5060045461013a565b34801561018b57600080fd5b50610168610502565b3480156101a057600080fd5b506101686101af366004610be5565b610631565b6101686101c2366004610c15565b610645565b3480156101d357600080fd5b506101686101e2366004610c57565b6107a4565b3480156101f357600080fd5b50610168610202366004610be5565b6107c3565b34801561021357600080fd5b5061013a610222366004610be5565b5060015490565b34801561023557600080fd5b50610249610244366004610c81565b61081e565b6040516001600160a01b039091168152602001610120565b34801561026d57600080fd5b5061016861027c366004610be5565b6108b2565b34801561028d57600080fd5b5061013a61029c366004610be5565b5060025490565b60008060008060086102b4816108c3565b60035443116102ef576040517fe5cf958000000000000000000000000000000000000000000000000000000000815260040160405180910390fd5b43600355866102ff576000610303565b6001545b935085610311576000610315565b6002545b600454909350915060006103298486610ca3565b905080156103e9573361033c8183610928565b9650866103a1576040805187815260208101879052478183015290516001600160a01b0383169143917f137e697384eeada9cf7614b88e4ac940aeff18d0fef7e86bce1abdc812b95e099181900360600190a350600094508493508392506103eb9050565b60408051878152602081018790526001600160a01b0383169143917f60200441f885b45b3b7f1fdc45a47bb0d0a0884a6a17722f8dd7232830de9bd2910160405180910390a3505b505b5092959194509250565b600054600390600160a81b900460ff16158015610420575060005460ff808316600160a01b90920416105b6104885760405162461bcd60e51b815260206004820152602e60248201527f496e697469616c697a61626c653a20636f6e747261637420697320616c72656160448201526d191e481a5b9a5d1a585b1a5e995960921b60648201526084015b60405180910390fd5b6000805460ff60a81b1960ff8416600160a01b021661ffff60a01b1990911617600160a81b1790556104b982610984565b6000805460ff60a81b1916905560405160ff821681527f7f26b83ff96e1f2b6a682f133852f6798a09c465da95921460cefb38474024989060200160405180910390a15050565b565b600054600290600160a81b900460ff1615801561052d575060005460ff808316600160a01b90920416105b6105905760405162461bcd60e51b815260206004820152602e60248201527f496e697469616c697a61626c653a20636f6e747261637420697320616c72656160448201526d191e481a5b9a5d1a585b1a5e995960921b606482015260840161047f565b6000805460ff60a81b1960ff8416600160a01b021661ffff60a01b1990911617600160a81b17908190556105cf906008906001600160a01b03166109b9565b600080547fffffffffffffffffffff00ff000000000000000000000000000000000000000016905560405160ff821681527f7f26b83ff96e1f2b6a682f133852f6798a09c465da95921460cefb3847402498906020015b60405180910390a150565b610639610a75565b61064281610ae9565b50565b600054600160a81b900460ff161580801561066d57506000546001600160a01b90910460ff16105b8061068e5750303b15801561068e5750600054600160a01b900460ff166001145b6106f15760405162461bcd60e51b815260206004820152602e60248201527f496e697469616c697a61626c653a20636f6e747261637420697320616c72656160448201526d191e481a5b9a5d1a585b1a5e995960921b606482015260840161047f565b600080547fffffffffffffffffffffff00ffffffffffffffffffffffffffffffffffffffff16600160a01b1790558015610739576000805460ff60a81b1916600160a81b1790555b6107446008856109b9565b61074d83610b1e565b61075682610ae9565b801561079e576000805460ff60a81b19169055604051600181527f7f26b83ff96e1f2b6a682f133852f6798a09c465da95921460cefb38474024989060200160405180910390a15b50505050565b6107ac610a75565b6107b581610b53565b6107bf82826109b9565b5050565b6107cb610a75565b612710811115610815576040517f053265f10000000000000000000000000000000000000000000000000000000081526001600160e01b031960003516600482015260240161047f565b61064281610984565b60007fdea3103d22025c269050bea94c0c84688877f12fa22b7e6d2d5d78a9a49aa1cb600083601081111561085557610855610cca565b60ff1681526020810191909152604001600020546001600160a01b03169050806108ad57816040517f812281be00000000000000000000000000000000000000000000000000000000815260040161047f9190610cf4565b919050565b6108ba610a75565b61064281610b1e565b6108cc8161081e565b6001600160a01b0316336001600160a01b031614610642576000356001600160e01b03191681336040517f8383e63400000000000000000000000000000000000000000000000000000000815260040161047f93929190610d02565b6000826001600160a01b03168260405160006040518083038185875af1925050503d8060008114610975576040519150601f19603f3d011682016040523d82523d6000602084013e61097a565b606091505b5090949350505050565b60048190556040518181527f2ab16834b71343f4e1d560b325168aef35dd575d15d84c31ef788e947709953690602001610626565b807fdea3103d22025c269050bea94c0c84688877f12fa22b7e6d2d5d78a9a49aa1cb60008460108111156109ef576109ef610cca565b60ff168152602081019190915260400160002080547fffffffffffffffffffffffff0000000000000000000000000000000000000000166001600160a01b039283161790558116826010811115610a4857610a48610cca565b6040517f865d1c228a8ea13709cfe61f346f7ff67f1bbd4a18ff31ad3e7147350d317c5990600090a35050565b7fb53127684a568b3173ae13b9f8a6016e243e63b6e8ee1178d6a717850b5d6103546001600160a01b03163314610500576000356001600160e01b03191660016040517f3e523c0000000000000000000000000000000000000000000000000000000000815260040161047f929190610d37565b60028190556040518181527f57a23b4b11f619fb9dea21a5a8115bb90103c1043eb3318d773558829d25f12c90602001610626565b60018190556040518181527f861f03c645467325a586235bb3155834f1dddf12413d0a802f416eb6d4035e6d90602001610626565b806001600160a01b03163b600003610642576040517f2ff1928c0000000000000000000000000000000000000000000000000000000081526001600160a01b038216600482015260240161047f565b803580151581146108ad57600080fd5b60008060408385031215610bc557600080fd5b610bce83610ba2565b9150610bdc60208401610ba2565b90509250929050565b600060208284031215610bf757600080fd5b5035919050565b80356001600160a01b03811681146108ad57600080fd5b600080600060608486031215610c2a57600080fd5b610c3384610bfe565b95602085013595506040909401359392505050565b8035601181106108ad57600080fd5b60008060408385031215610c6a57600080fd5b610c7383610c48565b9150610bdc60208401610bfe565b600060208284031215610c9357600080fd5b610c9c82610c48565b9392505050565b80820180821115610cc457634e487b7160e01b600052601160045260246000fd5b92915050565b634e487b7160e01b600052602160045260246000fd5b60118110610cf057610cf0610cca565b9052565b60208101610cc48284610ce0565b6001600160e01b03198416815260608101610d206020830185610ce0565b6001600160a01b0383166040830152949350505050565b6001600160e01b03198316815260408101600b8310610d5857610d58610cca565b826020830152939250505056fea2646970667358221220854b9cf855805a265f92d312df5e5434fac8e8f9098ea46d4c0afcff1eaaf06d64736f6c63430008190033",
  "callValue": 0,
  "chainId": 2021,
  "constructorArgs": "0x",
  "contractName": "StakingVesting",
  "deployer": "0x968D0Cd7343f711216817E617d3f92a23dC91c07",
  "devdoc": {
    "version": 1,
    "kind": "dev",
    "methods": {
      "blockProducerBlockBonus(uint256)": {
        "details": "Returns the bonus amount for the block producer at `blockNum`."
      },
      "bridgeOperatorBlockBonus(uint256)": {
        "details": "Returns the bonus amount for the bridge validator at `blockNum`."
      },
      "fastFinalityRewardPercentage()": {
        "details": "Returns the percentage of fast finality reward."
      },
      "getContract(uint8)": {
        "details": "Returns the address of a contract with a specific role. Throws an error if no contract is set for the specified role.",
        "params": {
          "contractType": "The role of the contract to retrieve."
        },
        "returns": {
          "contract_": "The address of the contract with the specified role."
        }
      },
      "initialize(address,uint256,uint256)": {
        "details": "Initializes the contract storage."
      },
      "lastBlockSendingBonus()": {
        "details": "Returns the last block number that the staking vesting is sent."
      },
      "receiveRON()": {
        "details": "Receives RON from any address."
      },
      "requestBonus(bool,bool)": {
        "details": "Transfers the staking vesting for the block producer and the bridge operator whenever a new block is mined. Requirements: - The method caller must be validator contract. - The method must be called only once per block. Emits the event `BonusTransferred` or `BonusTransferFailed`. Notes: - The method does not revert when the contract balance is insufficient to send bonus. This assure the submit reward method will not be reverted, and the underlying nodes does not hang.",
        "params": {
          "forBlockProducer": "Indicates whether requesting the bonus for the block procucer, in case of being in jail or relevance.",
          "forBridgeOperator": "Indicates whether requesting the bonus for the bridge operator."
        },
        "returns": {
          "blockProducerBonus": "The amount of bonus actually sent for the block producer, returns 0 when the transfer is failed.",
          "bridgeOperatorBonus": "The amount of bonus actually sent for the bridge operator, returns 0 when the transfer is failed.",
          "fastFinalityRewardPercent": "The percent of fast finality reward, returns 0 when the transfer is failed.",
          "success": "Whether the transfer is successfully. This returns false mostly because this contract is out of balance."
        }
      },
      "setBlockProducerBonusPerBlock(uint256)": {
        "details": "Sets the bonus amount per block for block producer. Emits the event `BlockProducerBonusPerBlockUpdated`. Requirements: - The method caller is admin."
      },
      "setBridgeOperatorBonusPerBlock(uint256)": {
        "details": "Sets the bonus amount per block for bridge operator. Emits the event `BridgeOperatorBonusPerBlockUpdated`. Requirements: - The method caller is admin."
      },
      "setContract(uint8,address)": {
        "details": "Sets the address of a contract with a specific role. Emits the event {ContractUpdated}.",
        "params": {
          "addr": "The address of the contract to set.",
          "contractType": "The role of the contract to set."
        }
      },
      "setFastFinalityRewardPercentage(uint256)": {
        "details": "Sets the percent of fast finality reward. Emits the event `FastFinalityRewardPercentageUpdated`. Requirements: - The method caller is admin."
      }
    },
    "events": {
      "BlockProducerBonusPerBlockUpdated(uint256)": {
        "details": "Emitted when the block bonus for block producer is updated"
      },
      "BonusTransferFailed(uint256,address,uint256,uint256,uint256)": {
        "details": "Emitted when the transfer of block bonus for block producer is failed."
      },
      "BonusTransferred(uint256,address,uint256,uint256)": {
        "details": "Emitted when the block bonus for block producer is transferred."
      },
      "BridgeOperatorBonusPerBlockUpdated(uint256)": {
        "details": "Emitted when the block bonus for bridge operator is updated"
      },
      "ContractUpdated(uint8,address)": {
        "details": "Emitted when a contract is updated."
      },
      "FastFinalityRewardPercentageUpdated(uint256)": {
        "details": "Emitted when the percent of fast finality reward is updated"
      },
      "Initialized(uint8)": {
        "details": "Triggered when the contract has been initialized or reinitialized."
      }
    },
    "errors": {
      "ErrBonusAlreadySent()": [
        {
          "details": "Error thrown when attempting to send a bonus that has already been sent."
        }
      ],
      "ErrContractTypeNotFound(uint8)": [
        {
          "details": "Error of invalid role."
        }
      ],
      "ErrInsufficientBalance(bytes4,uint256,uint256)": [
        {
          "details": "Error of sender has insufficient balance."
        }
      ],
      "ErrInvalidArguments(bytes4)": [
        {
          "details": "Error indicating that arguments are invalid."
        }
      ],
      "ErrRecipientRevert(bytes4)": [
        {
          "details": "Error of recipient not accepting RON when transfer RON."
        }
      ],
      "ErrUnauthorized(bytes4,uint8)": [
        {
          "details": "Error indicating that the caller is unauthorized to perform a specific function.",
          "params": {
            "expectedRole": "The role required to perform the function.",
            "msgSig": "The function signature (bytes4) that the caller is unauthorized to perform."
          }
        }
      ],
      "ErrUnexpectedInternalCall(bytes4,uint8,address)": [
        {
          "details": "Error indicating that the caller is unauthorized to perform a specific function.",
          "params": {
            "actual": "The actual address that called to the function.",
            "expectedContractType": "The contract type required to perform the function.",
            "msgSig": "The function signature (bytes4)."
          }
        }
      ],
      "ErrZeroCodeContract(address)": [
        {
          "details": "Error of set to non-contract."
        }
      ]
    }
  },
  "isFoundry": true,
  "nonce": 194393,
  "storageLayout": {
    "storage": [
      {
        "astId": 45344,
        "contract": "contracts/ronin/StakingVesting.sol:StakingVesting",
        "label": "______deprecatedValidator",
        "offset": 0,
        "slot": "0",
        "type": "t_address"
      },
      {
        "astId": 106616,
        "contract": "contracts/ronin/StakingVesting.sol:StakingVesting",
        "label": "_initialized",
        "offset": 20,
        "slot": "0",
        "type": "t_uint8"
      },
      {
        "astId": 106619,
        "contract": "contracts/ronin/StakingVesting.sol:StakingVesting",
        "label": "_initializing",
        "offset": 21,
        "slot": "0",
        "type": "t_bool"
      },
      {
        "astId": 24986,
        "contract": "contracts/ronin/StakingVesting.sol:StakingVesting",
        "label": "_blockProducerBonusPerBlock",
        "offset": 0,
        "slot": "1",
        "type": "t_uint256"
      },
      {
        "astId": 24989,
        "contract": "contracts/ronin/StakingVesting.sol:StakingVesting",
        "label": "_bridgeOperatorBonusPerBlock",
        "offset": 0,
        "slot": "2",
        "type": "t_uint256"
      },
      {
        "astId": 24992,
        "contract": "contracts/ronin/StakingVesting.sol:StakingVesting",
        "label": "_lastBlockSendingBonus",
        "offset": 0,
        "slot": "3",
        "type": "t_uint256"
      },
      {
        "astId": 24995,
        "contract": "contracts/ronin/StakingVesting.sol:StakingVesting",
        "label": "_fastFinalityRewardPercentage",
        "offset": 0,
        "slot": "4",
        "type": "t_uint256"
      }
    ],
    "types": {
      "t_address": {
        "encoding": "inplace",
        "label": "address",
        "numberOfBytes": "20"
      },
      "t_bool": {
        "encoding": "inplace",
        "label": "bool",
        "numberOfBytes": "1"
      },
      "t_uint256": {
        "encoding": "inplace",
        "label": "uint256",
        "numberOfBytes": "32"
      },
      "t_uint8": {
        "encoding": "inplace",
        "label": "uint8",
        "numberOfBytes": "1"
      }
    }
  },
  "timestamp": 1717148297,
  "userdoc": {
    "version": 1,
    "kind": "user"
  }
}