{
  "abi": [
    {
      "type": "constructor",
      "inputs": [],
      "stateMutability": "nonpayable"
    },
    {
      "type": "fallback",
      "stateMutability": "payable"
    },
    {
      "type": "receive",
      "stateMutability": "payable"
    },
    {
      "type": "function",
      "name": "DEFAULT_ADDITION_GAS",
      "inputs": [],
      "outputs": [
        {
          "name": "",
          "type": "uint256",
          "internalType": "uint256"
        }
      ],
      "stateMutability": "view"
    },
    {
      "type": "function",
      "name": "DEFAULT_ADMIN_ROLE",
      "inputs": [],
      "outputs": [
        {
          "name": "",
          "type": "bytes32",
          "internalType": "bytes32"
        }
      ],
      "stateMutability": "view"
    },
    {
      "type": "function",
      "name": "MIGRATOR_ROLE",
      "inputs": [],
      "outputs": [
        {
          "name": "",
          "type": "bytes32",
          "internalType": "bytes32"
        }
      ],
      "stateMutability": "view"
    },
    {
      "type": "function",
      "name": "PERIOD_DURATION",
      "inputs": [],
      "outputs": [
        {
          "name": "",
          "type": "uint256",
          "internalType": "uint256"
        }
      ],
      "stateMutability": "view"
    },
    {
      "type": "function",
      "name": "applyValidatorCandidate",
      "inputs": [
        {
          "name": "candidateAdmin",
          "type": "address",
          "internalType": "address"
        },
        {
          "name": "consensusAddr",
          "type": "address",
          "internalType": "TConsensus"
        },
        {
          "name": "treasuryAddr",
          "type": "address",
          "internalType": "address payable"
        },
        {
          "name": "commissionRate",
          "type": "uint256",
          "internalType": "uint256"
        },
        {
          "name": "pubkey",
          "type": "bytes",
          "internalType": "bytes"
        },
        {
          "name": "proofOfPossession",
          "type": "bytes",
          "internalType": "bytes"
        }
      ],
      "outputs": [],
      "stateMutability": "payable"
    },
    {
      "type": "function",
      "name": "bulkUndelegate",
      "inputs": [
        {
          "name": "consensusAddrs",
          "type": "address[]",
          "internalType": "TConsensus[]"
        },
        {
          "name": "amounts",
          "type": "uint256[]",
          "internalType": "uint256[]"
        }
      ],
      "outputs": [],
      "stateMutability": "nonpayable"
    },
    {
      "type": "function",
      "name": "claimRewards",
      "inputs": [
        {
          "name": "consensusAddrList",
          "type": "address[]",
          "internalType": "TConsensus[]"
        }
      ],
      "outputs": [
        {
          "name": "amount",
          "type": "uint256",
          "internalType": "uint256"
        }
      ],
      "stateMutability": "nonpayable"
    },
    {
      "type": "function",
      "name": "cooldownSecsToUndelegate",
      "inputs": [],
      "outputs": [
        {
          "name": "",
          "type": "uint256",
          "internalType": "uint256"
        }
      ],
      "stateMutability": "view"
    },
    {
      "type": "function",
      "name": "delegate",
      "inputs": [
        {
          "name": "consensusAddr",
          "type": "address",
          "internalType": "TConsensus"
        }
      ],
      "outputs": [],
      "stateMutability": "payable"
    },
    {
      "type": "function",
      "name": "delegateRewards",
      "inputs": [
        {
          "name": "consensusAddrList",
          "type": "address[]",
          "internalType": "TConsensus[]"
        },
        {
          "name": "consensusAddrDst",
          "type": "address",
          "internalType": "TConsensus"
        }
      ],
      "outputs": [
        {
          "name": "amount",
          "type": "uint256",
          "internalType": "uint256"
        }
      ],
      "stateMutability": "nonpayable"
    },
    {
      "type": "function",
      "name": "execChangeAdminAddress",
      "inputs": [
        {
          "name": "poolId",
          "type": "address",
          "internalType": "address"
        },
        {
          "name": "currAdminAddr",
          "type": "address",
          "internalType": "address"
        },
        {
          "name": "newAdminAddr",
          "type": "address",
          "internalType": "address"
        }
      ],
      "outputs": [],
      "stateMutability": "nonpayable"
    },
    {
      "type": "function",
      "name": "execDeductStakingAmount",
      "inputs": [
        {
          "name": "poolId",
          "type": "address",
          "internalType": "address"
        },
        {
          "name": "amount",
          "type": "uint256",
          "internalType": "uint256"
        }
      ],
      "outputs": [
        {
          "name": "actualDeductingAmount_",
          "type": "uint256",
          "internalType": "uint256"
        }
      ],
      "stateMutability": "nonpayable"
    },
    {
      "type": "function",
      "name": "execDeprecatePools",
      "inputs": [
        {
          "name": "poolIds",
          "type": "address[]",
          "internalType": "address[]"
        },
        {
          "name": "newPeriod",
          "type": "uint256",
          "internalType": "uint256"
        }
      ],
      "outputs": [],
      "stateMutability": "nonpayable"
    },
    {
      "type": "function",
      "name": "execRecordRewards",
      "inputs": [
        {
          "name": "poolIds",
          "type": "address[]",
          "internalType": "address[]"
        },
        {
          "name": "rewards",
          "type": "uint256[]",
          "internalType": "uint256[]"
        },
        {
          "name": "period",
          "type": "uint256",
          "internalType": "uint256"
        }
      ],
      "outputs": [],
      "stateMutability": "payable"
    },
    {
      "type": "function",
      "name": "getCommissionRateRange",
      "inputs": [],
      "outputs": [
        {
          "name": "",
          "type": "uint256",
          "internalType": "uint256"
        },
        {
          "name": "",
          "type": "uint256",
          "internalType": "uint256"
        }
      ],
      "stateMutability": "view"
    },
    {
      "type": "function",
      "name": "getContract",
      "inputs": [
        {
          "name": "contractType",
          "type": "uint8",
          "internalType": "enum ContractType"
        }
      ],
      "outputs": [
        {
          "name": "contract_",
          "type": "address",
          "internalType": "address"
        }
      ],
      "stateMutability": "view"
    },
    {
      "type": "function",
      "name": "getManySelfStakings",
      "inputs": [
        {
          "name": "consensusAddrs",
          "type": "address[]",
          "internalType": "TConsensus[]"
        }
      ],
      "outputs": [
        {
          "name": "selfStakings_",
          "type": "uint256[]",
          "internalType": "uint256[]"
        }
      ],
      "stateMutability": "view"
    },
    {
      "type": "function",
      "name": "getManySelfStakingsById",
      "inputs": [
        {
          "name": "poolIds",
          "type": "address[]",
          "internalType": "address[]"
        }
      ],
      "outputs": [
        {
          "name": "selfStakings_",
          "type": "uint256[]",
          "internalType": "uint256[]"
        }
      ],
      "stateMutability": "view"
    },
    {
      "type": "function",
      "name": "getManyStakingAmounts",
      "inputs": [
        {
          "name": "consensusAddrs",
          "type": "address[]",
          "internalType": "TConsensus[]"
        },
        {
          "name": "userList",
          "type": "address[]",
          "internalType": "address[]"
        }
      ],
      "outputs": [
        {
          "name": "stakingAmounts",
          "type": "uint256[]",
          "internalType": "uint256[]"
        }
      ],
      "stateMutability": "view"
    },
    {
      "type": "function",
      "name": "getManyStakingAmountsById",
      "inputs": [
        {
          "name": "poolIds",
          "type": "address[]",
          "internalType": "address[]"
        },
        {
          "name": "userList",
          "type": "address[]",
          "internalType": "address[]"
        }
      ],
      "outputs": [
        {
          "name": "stakingAmounts",
          "type": "uint256[]",
          "internalType": "uint256[]"
        }
      ],
      "stateMutability": "view"
    },
    {
      "type": "function",
      "name": "getManyStakingTotals",
      "inputs": [
        {
          "name": "consensusAddrs",
          "type": "address[]",
          "internalType": "TConsensus[]"
        }
      ],
      "outputs": [
        {
          "name": "stakingAmounts_",
          "type": "uint256[]",
          "internalType": "uint256[]"
        }
      ],
      "stateMutability": "view"
    },
    {
      "type": "function",
      "name": "getManyStakingTotalsById",
      "inputs": [
        {
          "name": "poolIds",
          "type": "address[]",
          "internalType": "address[]"
        }
      ],
      "outputs": [
        {
          "name": "stakingAmounts_",
          "type": "uint256[]",
          "internalType": "uint256[]"
        }
      ],
      "stateMutability": "view"
    },
    {
      "type": "function",
      "name": "getPoolAddressOf",
      "inputs": [
        {
          "name": "admin",
          "type": "address",
          "internalType": "address"
        }
      ],
      "outputs": [
        {
          "name": "",
          "type": "address",
          "internalType": "address"
        }
      ],
      "stateMutability": "view"
    },
    {
      "type": "function",
      "name": "getPoolDetail",
      "inputs": [
        {
          "name": "consensusAddr",
          "type": "address",
          "internalType": "TConsensus"
        }
      ],
      "outputs": [
        {
          "name": "admin",
          "type": "address",
          "internalType": "address"
        },
        {
          "name": "stakingAmount",
          "type": "uint256",
          "internalType": "uint256"
        },
        {
          "name": "stakingTotal",
          "type": "uint256",
          "internalType": "uint256"
        }
      ],
      "stateMutability": "view"
    },
    {
      "type": "function",
      "name": "getPoolDetailById",
      "inputs": [
        {
          "name": "poolId",
          "type": "address",
          "internalType": "address"
        }
      ],
      "outputs": [
        {
          "name": "admin",
          "type": "address",
          "internalType": "address"
        },
        {
          "name": "stakingAmount",
          "type": "uint256",
          "internalType": "uint256"
        },
        {
          "name": "stakingTotal",
          "type": "uint256",
          "internalType": "uint256"
        }
      ],
      "stateMutability": "view"
    },
    {
      "type": "function",
      "name": "getReward",
      "inputs": [
        {
          "name": "consensusAddr",
          "type": "address",
          "internalType": "TConsensus"
        },
        {
          "name": "user",
          "type": "address",
          "internalType": "address"
        }
      ],
      "outputs": [
        {
          "name": "",
          "type": "uint256",
          "internalType": "uint256"
        }
      ],
      "stateMutability": "view"
    },
    {
      "type": "function",
      "name": "getRewards",
      "inputs": [
        {
          "name": "user",
          "type": "address",
          "internalType": "address"
        },
        {
          "name": "consensusAddrs",
          "type": "address[]",
          "internalType": "TConsensus[]"
        }
      ],
      "outputs": [
        {
          "name": "rewards_",
          "type": "uint256[]",
          "internalType": "uint256[]"
        }
      ],
      "stateMutability": "view"
    },
    {
      "type": "function",
      "name": "getRoleAdmin",
      "inputs": [
        {
          "name": "role",
          "type": "bytes32",
          "internalType": "bytes32"
        }
      ],
      "outputs": [
        {
          "name": "",
          "type": "bytes32",
          "internalType": "bytes32"
        }
      ],
      "stateMutability": "view"
    },
    {
      "type": "function",
      "name": "getRoleMember",
      "inputs": [
        {
          "name": "role",
          "type": "bytes32",
          "internalType": "bytes32"
        },
        {
          "name": "index",
          "type": "uint256",
          "internalType": "uint256"
        }
      ],
      "outputs": [
        {
          "name": "",
          "type": "address",
          "internalType": "address"
        }
      ],
      "stateMutability": "view"
    },
    {
      "type": "function",
      "name": "getRoleMemberCount",
      "inputs": [
        {
          "name": "role",
          "type": "bytes32",
          "internalType": "bytes32"
        }
      ],
      "outputs": [
        {
          "name": "",
          "type": "uint256",
          "internalType": "uint256"
        }
      ],
      "stateMutability": "view"
    },
    {
      "type": "function",
      "name": "getStakingAmount",
      "inputs": [
        {
          "name": "consensusAddr",
          "type": "address",
          "internalType": "TConsensus"
        },
        {
          "name": "user",
          "type": "address",
          "internalType": "address"
        }
      ],
      "outputs": [
        {
          "name": "",
          "type": "uint256",
          "internalType": "uint256"
        }
      ],
      "stateMutability": "view"
    },
    {
      "type": "function",
      "name": "getStakingTotal",
      "inputs": [
        {
          "name": "consensusAddr",
          "type": "address",
          "internalType": "TConsensus"
        }
      ],
      "outputs": [
        {
          "name": "",
          "type": "uint256",
          "internalType": "uint256"
        }
      ],
      "stateMutability": "view"
    },
    {
      "type": "function",
      "name": "grantRole",
      "inputs": [
        {
          "name": "role",
          "type": "bytes32",
          "internalType": "bytes32"
        },
        {
          "name": "account",
          "type": "address",
          "internalType": "address"
        }
      ],
      "outputs": [],
      "stateMutability": "nonpayable"
    },
    {
      "type": "function",
      "name": "hasRole",
      "inputs": [
        {
          "name": "role",
          "type": "bytes32",
          "internalType": "bytes32"
        },
        {
          "name": "account",
          "type": "address",
          "internalType": "address"
        }
      ],
      "outputs": [
        {
          "name": "",
          "type": "bool",
          "internalType": "bool"
        }
      ],
      "stateMutability": "view"
    },
    {
      "type": "function",
      "name": "initialize",
      "inputs": [
        {
          "name": "__validatorContract",
          "type": "address",
          "internalType": "address"
        },
        {
          "name": "__minValidatorStakingAmount",
          "type": "uint256",
          "internalType": "uint256"
        },
        {
          "name": "__maxCommissionRate",
          "type": "uint256",
          "internalType": "uint256"
        },
        {
          "name": "__cooldownSecsToUndelegate",
          "type": "uint256",
          "internalType": "uint256"
        },
        {
          "name": "__waitingSecsToRevoke",
          "type": "uint256",
          "internalType": "uint256"
        }
      ],
      "outputs": [],
      "stateMutability": "nonpayable"
    },
    {
      "type": "function",
      "name": "initializeV2",
      "inputs": [],
      "outputs": [],
      "stateMutability": "nonpayable"
    },
    {
      "type": "function",
      "name": "initializeV3",
      "inputs": [
        {
          "name": "__profileContract",
          "type": "address",
          "internalType": "address"
        }
      ],
      "outputs": [],
      "stateMutability": "nonpayable"
    },
    {
      "type": "function",
      "name": "initializeV4",
      "inputs": [
        {
          "name": "admin",
          "type": "address",
          "internalType": "address"
        },
        {
          "name": "migrator",
          "type": "address",
          "internalType": "address"
        }
      ],
      "outputs": [],
      "stateMutability": "nonpayable"
    },
    {
      "type": "function",
      "name": "isAdminOfActivePool",
      "inputs": [
        {
          "name": "admin",
          "type": "address",
          "internalType": "address"
        }
      ],
      "outputs": [
        {
          "name": "",
          "type": "bool",
          "internalType": "bool"
        }
      ],
      "stateMutability": "view"
    },
    {
      "type": "function",
      "name": "migrateWasAdmin",
      "inputs": [
        {
          "name": "poolIds",
          "type": "address[]",
          "internalType": "address[]"
        },
        {
          "name": "admins",
          "type": "address[]",
          "internalType": "address[]"
        },
        {
          "name": "flags",
          "type": "bool[]",
          "internalType": "bool[]"
        }
      ],
      "outputs": [],
      "stateMutability": "nonpayable"
    },
    {
      "type": "function",
      "name": "minValidatorStakingAmount",
      "inputs": [],
      "outputs": [
        {
          "name": "",
          "type": "uint256",
          "internalType": "uint256"
        }
      ],
      "stateMutability": "view"
    },
    {
      "type": "function",
      "name": "redelegate",
      "inputs": [
        {
          "name": "consensusAddrSrc",
          "type": "address",
          "internalType": "TConsensus"
        },
        {
          "name": "consensusAddrDst",
          "type": "address",
          "internalType": "TConsensus"
        },
        {
          "name": "amount",
          "type": "uint256",
          "internalType": "uint256"
        }
      ],
      "outputs": [],
      "stateMutability": "nonpayable"
    },
    {
      "type": "function",
      "name": "renounceRole",
      "inputs": [
        {
          "name": "role",
          "type": "bytes32",
          "internalType": "bytes32"
        },
        {
          "name": "account",
          "type": "address",
          "internalType": "address"
        }
      ],
      "outputs": [],
      "stateMutability": "nonpayable"
    },
    {
      "type": "function",
      "name": "requestEmergencyExit",
      "inputs": [
        {
          "name": "consensusAddr",
          "type": "address",
          "internalType": "TConsensus"
        }
      ],
      "outputs": [],
      "stateMutability": "nonpayable"
    },
    {
      "type": "function",
      "name": "requestRenounce",
      "inputs": [
        {
          "name": "consensusAddr",
          "type": "address",
          "internalType": "TConsensus"
        }
      ],
      "outputs": [],
      "stateMutability": "nonpayable"
    },
    {
      "type": "function",
      "name": "requestUpdateCommissionRate",
      "inputs": [
        {
          "name": "consensusAddr",
          "type": "address",
          "internalType": "TConsensus"
        },
        {
          "name": "effectiveDaysOnwards",
          "type": "uint256",
          "internalType": "uint256"
        },
        {
          "name": "commissionRate",
          "type": "uint256",
          "internalType": "uint256"
        }
      ],
      "outputs": [],
      "stateMutability": "nonpayable"
    },
    {
      "type": "function",
      "name": "revokeRole",
      "inputs": [
        {
          "name": "role",
          "type": "bytes32",
          "internalType": "bytes32"
        },
        {
          "name": "account",
          "type": "address",
          "internalType": "address"
        }
      ],
      "outputs": [],
      "stateMutability": "nonpayable"
    },
    {
      "type": "function",
      "name": "setCommissionRateRange",
      "inputs": [
        {
          "name": "minRate",
          "type": "uint256",
          "internalType": "uint256"
        },
        {
          "name": "maxRate",
          "type": "uint256",
          "internalType": "uint256"
        }
      ],
      "outputs": [],
      "stateMutability": "nonpayable"
    },
    {
      "type": "function",
      "name": "setContract",
      "inputs": [
        {
          "name": "contractType",
          "type": "uint8",
          "internalType": "enum ContractType"
        },
        {
          "name": "addr",
          "type": "address",
          "internalType": "address"
        }
      ],
      "outputs": [],
      "stateMutability": "nonpayable"
    },
    {
      "type": "function",
      "name": "setCooldownSecsToUndelegate",
      "inputs": [
        {
          "name": "cooldownSecs",
          "type": "uint256",
          "internalType": "uint256"
        }
      ],
      "outputs": [],
      "stateMutability": "nonpayable"
    },
    {
      "type": "function",
      "name": "setMinValidatorStakingAmount",
      "inputs": [
        {
          "name": "threshold",
          "type": "uint256",
          "internalType": "uint256"
        }
      ],
      "outputs": [],
      "stateMutability": "nonpayable"
    },
    {
      "type": "function",
      "name": "setWaitingSecsToRevoke",
      "inputs": [
        {
          "name": "secs",
          "type": "uint256",
          "internalType": "uint256"
        }
      ],
      "outputs": [],
      "stateMutability": "nonpayable"
    },
    {
      "type": "function",
      "name": "stake",
      "inputs": [
        {
          "name": "consensusAddr",
          "type": "address",
          "internalType": "TConsensus"
        }
      ],
      "outputs": [],
      "stateMutability": "payable"
    },
    {
      "type": "function",
      "name": "supportsInterface",
      "inputs": [
        {
          "name": "interfaceId",
          "type": "bytes4",
          "internalType": "bytes4"
        }
      ],
      "outputs": [
        {
          "name": "",
          "type": "bool",
          "internalType": "bool"
        }
      ],
      "stateMutability": "view"
    },
    {
      "type": "function",
      "name": "undelegate",
      "inputs": [
        {
          "name": "consensusAddr",
          "type": "address",
          "internalType": "TConsensus"
        },
        {
          "name": "amount",
          "type": "uint256",
          "internalType": "uint256"
        }
      ],
      "outputs": [],
      "stateMutability": "nonpayable"
    },
    {
      "type": "function",
      "name": "unstake",
      "inputs": [
        {
          "name": "consensusAddr",
          "type": "address",
          "internalType": "TConsensus"
        },
        {
          "name": "amount",
          "type": "uint256",
          "internalType": "uint256"
        }
      ],
      "outputs": [],
      "stateMutability": "nonpayable"
    },
    {
      "type": "function",
      "name": "waitingSecsToRevoke",
      "inputs": [],
      "outputs": [
        {
          "name": "",
          "type": "uint256",
          "internalType": "uint256"
        }
      ],
      "stateMutability": "view"
    },
    {
      "type": "event",
      "name": "CommissionRateRangeUpdated",
      "inputs": [
        {
          "name": "minRate",
          "type": "uint256",
          "indexed": false,
          "internalType": "uint256"
        },
        {
          "name": "maxRate",
          "type": "uint256",
          "indexed": false,
          "internalType": "uint256"
        }
      ],
      "anonymous": false
    },
    {
      "type": "event",
      "name": "ContractUpdated",
      "inputs": [
        {
          "name": "contractType",
          "type": "uint8",
          "indexed": true,
          "internalType": "enum ContractType"
        },
        {
          "name": "addr",
          "type": "address",
          "indexed": true,
          "internalType": "address"
        }
      ],
      "anonymous": false
    },
    {
      "type": "event",
      "name": "CooldownSecsToUndelegateUpdated",
      "inputs": [
        {
          "name": "minSecs",
          "type": "uint256",
          "indexed": false,
          "internalType": "uint256"
        }
      ],
      "anonymous": false
    },
    {
      "type": "event",
      "name": "Delegated",
      "inputs": [
        {
          "name": "delegator",
          "type": "address",
          "indexed": true,
          "internalType": "address"
        },
        {
          "name": "poolId",
          "type": "address",
          "indexed": true,
          "internalType": "address"
        },
        {
          "name": "amount",
          "type": "uint256",
          "indexed": false,
          "internalType": "uint256"
        }
      ],
      "anonymous": false
    },
    {
      "type": "event",
      "name": "Initialized",
      "inputs": [
        {
          "name": "version",
          "type": "uint8",
          "indexed": false,
          "internalType": "uint8"
        }
      ],
      "anonymous": false
    },
    {
      "type": "event",
      "name": "MigrateWasAdminFinished",
      "inputs": [],
      "anonymous": false
    },
    {
      "type": "event",
      "name": "MinValidatorStakingAmountUpdated",
      "inputs": [
        {
          "name": "threshold",
          "type": "uint256",
          "indexed": false,
          "internalType": "uint256"
        }
      ],
      "anonymous": false
    },
    {
      "type": "event",
      "name": "PoolApproved",
      "inputs": [
        {
          "name": "poolId",
          "type": "address",
          "indexed": true,
          "internalType": "address"
        },
        {
          "name": "admin",
          "type": "address",
          "indexed": true,
          "internalType": "address"
        }
      ],
      "anonymous": false
    },
    {
      "type": "event",
      "name": "PoolSharesUpdated",
      "inputs": [
        {
          "name": "period",
          "type": "uint256",
          "indexed": true,
          "internalType": "uint256"
        },
        {
          "name": "poolId",
          "type": "address",
          "indexed": true,
          "internalType": "address"
        },
        {
          "name": "shares",
          "type": "uint256",
          "indexed": false,
          "internalType": "uint256"
        }
      ],
      "anonymous": false
    },
    {
      "type": "event",
      "name": "PoolsDeprecated",
      "inputs": [
        {
          "name": "poolIds",
          "type": "address[]",
          "indexed": false,
          "internalType": "address[]"
        }
      ],
      "anonymous": false
    },
    {
      "type": "event",
      "name": "PoolsUpdateConflicted",
      "inputs": [
        {
          "name": "period",
          "type": "uint256",
          "indexed": true,
          "internalType": "uint256"
        },
        {
          "name": "poolIds",
          "type": "address[]",
          "indexed": false,
          "internalType": "address[]"
        }
      ],
      "anonymous": false
    },
    {
      "type": "event",
      "name": "PoolsUpdateFailed",
      "inputs": [
        {
          "name": "period",
          "type": "uint256",
          "indexed": true,
          "internalType": "uint256"
        },
        {
          "name": "poolIds",
          "type": "address[]",
          "indexed": false,
          "internalType": "address[]"
        },
        {
          "name": "rewards",
          "type": "uint256[]",
          "indexed": false,
          "internalType": "uint256[]"
        }
      ],
      "anonymous": false
    },
    {
      "type": "event",
      "name": "PoolsUpdated",
      "inputs": [
        {
          "name": "period",
          "type": "uint256",
          "indexed": true,
          "internalType": "uint256"
        },
        {
          "name": "poolIds",
          "type": "address[]",
          "indexed": false,
          "internalType": "address[]"
        },
        {
          "name": "aRps",
          "type": "uint256[]",
          "indexed": false,
          "internalType": "uint256[]"
        },
        {
          "name": "shares",
          "type": "uint256[]",
          "indexed": false,
          "internalType": "uint256[]"
        }
      ],
      "anonymous": false
    },
    {
      "type": "event",
      "name": "RewardClaimed",
      "inputs": [
        {
          "name": "poolId",
          "type": "address",
          "indexed": true,
          "internalType": "address"
        },
        {
          "name": "user",
          "type": "address",
          "indexed": true,
          "internalType": "address"
        },
        {
          "name": "amount",
          "type": "uint256",
          "indexed": false,
          "internalType": "uint256"
        }
      ],
      "anonymous": false
    },
    {
      "type": "event",
      "name": "RoleAdminChanged",
      "inputs": [
        {
          "name": "role",
          "type": "bytes32",
          "indexed": true,
          "internalType": "bytes32"
        },
        {
          "name": "previousAdminRole",
          "type": "bytes32",
          "indexed": true,
          "internalType": "bytes32"
        },
        {
          "name": "newAdminRole",
          "type": "bytes32",
          "indexed": true,
          "internalType": "bytes32"
        }
      ],
      "anonymous": false
    },
    {
      "type": "event",
      "name": "RoleGranted",
      "inputs": [
        {
          "name": "role",
          "type": "bytes32",
          "indexed": true,
          "internalType": "bytes32"
        },
        {
          "name": "account",
          "type": "address",
          "indexed": true,
          "internalType": "address"
        },
        {
          "name": "sender",
          "type": "address",
          "indexed": true,
          "internalType": "address"
        }
      ],
      "anonymous": false
    },
    {
      "type": "event",
      "name": "RoleRevoked",
      "inputs": [
        {
          "name": "role",
          "type": "bytes32",
          "indexed": true,
          "internalType": "bytes32"
        },
        {
          "name": "account",
          "type": "address",
          "indexed": true,
          "internalType": "address"
        },
        {
          "name": "sender",
          "type": "address",
          "indexed": true,
          "internalType": "address"
        }
      ],
      "anonymous": false
    },
    {
      "type": "event",
      "name": "Staked",
      "inputs": [
        {
          "name": "poolId",
          "type": "address",
          "indexed": true,
          "internalType": "address"
        },
        {
          "name": "amount",
          "type": "uint256",
          "indexed": false,
          "internalType": "uint256"
        }
      ],
      "anonymous": false
    },
    {
      "type": "event",
      "name": "StakeholderChanged",
      "inputs": [
        {
          "name": "poolId",
          "type": "address",
          "indexed": true,
          "internalType": "address"
        },
        {
          "name": "oldAdmin",
          "type": "address",
          "indexed": false,
          "internalType": "address"
        },
        {
          "name": "newAdmin",
          "type": "address",
          "indexed": false,
          "internalType": "address"
        },
        {
          "name": "amount",
          "type": "uint256",
          "indexed": false,
          "internalType": "uint256"
        }
      ],
      "anonymous": false
    },
    {
      "type": "event",
      "name": "StakingAmountDeductFailed",
      "inputs": [
        {
          "name": "poolId",
          "type": "address",
          "indexed": true,
          "internalType": "address"
        },
        {
          "name": "recipient",
          "type": "address",
          "indexed": true,
          "internalType": "address"
        },
        {
          "name": "amount",
          "type": "uint256",
          "indexed": false,
          "internalType": "uint256"
        },
        {
          "name": "contractBalance",
          "type": "uint256",
          "indexed": false,
          "internalType": "uint256"
        }
      ],
      "anonymous": false
    },
    {
      "type": "event",
      "name": "StakingAmountTransferFailed",
      "inputs": [
        {
          "name": "poolId",
          "type": "address",
          "indexed": true,
          "internalType": "address"
        },
        {
          "name": "admin",
          "type": "address",
          "indexed": true,
          "internalType": "address"
        },
        {
          "name": "amount",
          "type": "uint256",
          "indexed": false,
          "internalType": "uint256"
        },
        {
          "name": "contractBalance",
          "type": "uint256",
          "indexed": false,
          "internalType": "uint256"
        }
      ],
      "anonymous": false
    },
    {
      "type": "event",
      "name": "Undelegated",
      "inputs": [
        {
          "name": "delegator",
          "type": "address",
          "indexed": true,
          "internalType": "address"
        },
        {
          "name": "poolId",
          "type": "address",
          "indexed": true,
          "internalType": "address"
        },
        {
          "name": "amount",
          "type": "uint256",
          "indexed": false,
          "internalType": "uint256"
        }
      ],
      "anonymous": false
    },
    {
      "type": "event",
      "name": "Unstaked",
      "inputs": [
        {
          "name": "poolId",
          "type": "address",
          "indexed": true,
          "internalType": "address"
        },
        {
          "name": "amount",
          "type": "uint256",
          "indexed": false,
          "internalType": "uint256"
        }
      ],
      "anonymous": false
    },
    {
      "type": "event",
      "name": "UserRewardUpdated",
      "inputs": [
        {
          "name": "poolId",
          "type": "address",
          "indexed": true,
          "internalType": "address"
        },
        {
          "name": "user",
          "type": "address",
          "indexed": true,
          "internalType": "address"
        },
        {
          "name": "debited",
          "type": "uint256",
          "indexed": false,
          "internalType": "uint256"
        }
      ],
      "anonymous": false
    },
    {
      "type": "event",
      "name": "WaitingSecsToRevokeUpdated",
      "inputs": [
        {
          "name": "secs",
          "type": "uint256",
          "indexed": false,
          "internalType": "uint256"
        }
      ],
      "anonymous": false
    },
    {
      "type": "error",
      "name": "ErrAdminOfAnyActivePoolForbidden",
      "inputs": [
        {
          "name": "admin",
          "type": "address",
          "internalType": "address"
        }
      ]
    },
    {
      "type": "error",
      "name": "ErrCannotInitTransferRON",
      "inputs": [
        {
          "name": "addr",
          "type": "address",
          "internalType": "address"
        },
        {
          "name": "extraInfo",
          "type": "string",
          "internalType": "string"
        }
      ]
    },
    {
      "type": "error",
      "name": "ErrCannotTransferRON",
      "inputs": []
    },
    {
      "type": "error",
      "name": "ErrContractTypeNotFound",
      "inputs": [
        {
          "name": "contractType",
          "type": "uint8",
          "internalType": "enum ContractType"
        }
      ]
    },
    {
      "type": "error",
      "name": "ErrDuplicated",
      "inputs": [
        {
          "name": "msgSig",
          "type": "bytes4",
          "internalType": "bytes4"
        }
      ]
    },
    {
      "type": "error",
      "name": "ErrInactivePool",
      "inputs": [
        {
          "name": "consensusAddr",
          "type": "address",
          "internalType": "TConsensus"
        },
        {
          "name": "poolId",
          "type": "address",
          "internalType": "address"
        }
      ]
    },
    {
      "type": "error",
      "name": "ErrInsufficientBalance",
      "inputs": [
        {
          "name": "msgSig",
          "type": "bytes4",
          "internalType": "bytes4"
        },
        {
          "name": "currentBalance",
          "type": "uint256",
          "internalType": "uint256"
        },
        {
          "name": "sendAmount",
          "type": "uint256",
          "internalType": "uint256"
        }
      ]
    },
    {
      "type": "error",
      "name": "ErrInsufficientDelegatingAmount",
      "inputs": []
    },
    {
      "type": "error",
      "name": "ErrInsufficientStakingAmount",
      "inputs": []
    },
    {
      "type": "error",
      "name": "ErrInvalidArguments",
      "inputs": [
        {
          "name": "msgSig",
          "type": "bytes4",
          "internalType": "bytes4"
        }
      ]
    },
    {
      "type": "error",
      "name": "ErrInvalidArrays",
      "inputs": []
    },
    {
      "type": "error",
      "name": "ErrInvalidCommissionRate",
      "inputs": []
    },
    {
      "type": "error",
      "name": "ErrInvalidPoolShare",
      "inputs": []
    },
    {
      "type": "error",
      "name": "ErrOnlyPoolAdminAllowed",
      "inputs": []
    },
    {
      "type": "error",
      "name": "ErrPoolAdminForbidden",
      "inputs": []
    },
    {
      "type": "error",
      "name": "ErrRecipientRevert",
      "inputs": [
        {
          "name": "msgSig",
          "type": "bytes4",
          "internalType": "bytes4"
        }
      ]
    },
    {
      "type": "error",
      "name": "ErrStakingAmountLeft",
      "inputs": []
    },
    {
      "type": "error",
      "name": "ErrThreeInteractionAddrsNotEqual",
      "inputs": []
    },
    {
      "type": "error",
      "name": "ErrUnauthorized",
      "inputs": [
        {
          "name": "msgSig",
          "type": "bytes4",
          "internalType": "bytes4"
        },
        {
          "name": "expectedRole",
          "type": "uint8",
          "internalType": "enum RoleAccess"
        }
      ]
    },
    {
      "type": "error",
      "name": "ErrUndelegateTooEarly",
      "inputs": []
    },
    {
      "type": "error",
      "name": "ErrUndelegateZeroAmount",
      "inputs": []
    },
    {
      "type": "error",
      "name": "ErrUnexpectedInternalCall",
      "inputs": [
        {
          "name": "msgSig",
          "type": "bytes4",
          "internalType": "bytes4"
        },
        {
          "name": "expectedContractType",
          "type": "uint8",
          "internalType": "enum ContractType"
        },
        {
          "name": "actual",
          "type": "address",
          "internalType": "address"
        }
      ]
    },
    {
      "type": "error",
      "name": "ErrUnstakeTooEarly",
      "inputs": []
    },
    {
      "type": "error",
      "name": "ErrUnstakeZeroAmount",
      "inputs": []
    },
    {
      "type": "error",
      "name": "ErrZeroCodeContract",
      "inputs": [
        {
          "name": "addr",
          "type": "address",
          "internalType": "address"
        }
      ]
    },
    {
      "type": "error",
      "name": "ErrZeroValue",
      "inputs": []
    }
  ],
  "address": "0xF86e81E3ca775a628Fa5747aA49Dd9C01Dd409D3",
  "args": "0x",
  "blockNumber": 24102399,
  "bytecode": "0x60806040523480156200001157600080fd5b5060016000556200002162000027565b620000e9565b60d154610100900460ff1615620000945760405162461bcd60e51b815260206004820152602760248201527f496e697469616c697a61626c653a20636f6e747261637420697320696e697469604482015266616c697a696e6760c81b606482015260840160405180910390fd5b60d15460ff9081161015620000e75760d1805460ff191660ff9081179091556040519081527f7f26b83ff96e1f2b6a682f133852f6798a09c465da95921460cefb38474024989060200160405180910390a15b565b61574180620000f96000396000f3fe60806040526004361061037a5760003560e01c80636bd8f804116101d1578063a217fddf11610102578063d01b8eed116100a0578063e22d1c9d1161006f578063e22d1c9d14610aac578063ef9aa66514610acc578063f92ad21914610aec578063f9f031df14610b0c5761038c565b8063d01b8eed14610a07578063d547741f14610a4c578063de981f1b14610a6c578063e15a7c9c14610a8c5761038c565b8063af245429116100dc578063af24542914610979578063c2a672e01461098e578063c5087003146109ae578063ca15c873146109e75761038c565b8063a217fddf14610931578063aa15a6fd14610946578063acd79c46146109665761038c565b8063909791dd1161016f578063924f081e11610149578063924f081e146108b15780639488e4e9146108d1578063969ffc14146108f15780639ee3c3f8146109115761038c565b8063909791dd1461083657806391d148541461084b57806391f8723f146108915761038c565b8063865e6fd3116101ab578063865e6fd31461079e578063888b9ae9146107be578063895ab742146107de5780639010d07c146107fe5761038c565b80636bd8f8041461072a5780636fae2e151461074a57806376664b651461077e5761038c565b80633d8e846e116102ab57806357473447116102495780635cd8a76b116102235780635cd8a76b146106be5780636558954f146106d3578063679a6e43146106ea5780636b0916951461070a5761038c565b8063574734471461066b5780635a2ac0731461068b5780635c19a95c146106ab5761038c565b8063435628ba11610285578063435628ba146105e3578063446850a1146106035780634530d202146106235780634d99dd161461064b5761038c565b80633d8e846e1461056857806342e0c4081461058857806342ef3c34146105c35761038c565b8063248a9ca3116103185780632f2ff15d116102f25780632f2ff15d146104e85780633101cfcb1461050857806336568abe146105285780633a3ec5b0146105485761038c565b8063248a9ca31461048557806326476204146104b55780632715805e146104c85761038c565b8063095f647511610354578063095f647514610405578063097e4a9d146104325780630a9313bc146104525780631658c86e146104655761038c565b806301ffc9a71461039757806303827884146103cc5780630682e8fa146103f05761038c565b3661038c57600861038a81610b2c565b005b600861038a81610b2c565b3480156103a357600080fd5b506103b76103b2366004614a48565b610b9d565b60405190151581526020015b60405180910390f35b3480156103d857600080fd5b506103e26104b081565b6040519081526020016103c3565b3480156103fc57600080fd5b506038546103e2565b34801561041157600080fd5b50610425610420366004614abe565b610be1565b6040516103c39190614b66565b34801561043e57600080fd5b506103e261044d366004614b8e565b610c6c565b61038a610460366004614c27565b610d70565b34801561047157600080fd5b5061038a610480366004614cd8565b610f8f565b34801561049157600080fd5b506103e26104a0366004614cf5565b600090815260d2602052604090206001015490565b61038a6104c3366004614cd8565b611059565b3480156104d457600080fd5b506103e26104e3366004614d0e565b6110a1565b3480156104f457600080fd5b5061038a610503366004614d3a565b611132565b34801561051457600080fd5b5061038a610523366004614cd8565b611157565b34801561053457600080fd5b5061038a610543366004614d3a565b611241565b34801561055457600080fd5b5061038a610563366004614d6a565b6112cd565b34801561057457600080fd5b50610425610583366004614d98565b6113e1565b34801561059457600080fd5b506103b76105a3366004614cd8565b6001600160a01b039081166000908152603a602052604090205416151590565b3480156105cf57600080fd5b506104256105de366004614ded565b61156f565b3480156105ef57600080fd5b506104256105fe366004614abe565b6115ba565b34801561060f57600080fd5b5061042561061e366004614ded565b611632565b34801561062f57600080fd5b50606e54606d54604080519283526020830191909152016103c3565b34801561065757600080fd5b5061038a610666366004614d0e565b611677565b34801561067757600080fd5b5061038a610686366004614e2f565b61173c565b34801561069757600080fd5b506104256106a6366004614ded565b61174e565b61038a6106b9366004614cd8565b61178c565b3480156106ca57600080fd5b5061038a61180e565b3480156106df57600080fd5b506103e26201518081565b3480156106f657600080fd5b5061038a610705366004614cf5565b611914565b34801561071657600080fd5b506103e2610725366004614d6a565b611925565b34801561073657600080fd5b5061038a610745366004614e51565b611964565b34801561075657600080fd5b506103e27f600e5f1c60beb469a3fa6dd3814a4ae211cc6259a6d033bae218a742f2af01d381565b34801561078a57600080fd5b506103e2610799366004614d6a565b611a41565b3480156107aa57600080fd5b5061038a6107b9366004614ea1565b611a7f565b3480156107ca57600080fd5b5061038a6107d9366004614cf5565b611a9a565b3480156107ea57600080fd5b506103e26107f9366004614cd8565b611aab565b34801561080a57600080fd5b5061081e610819366004614e2f565b611adb565b6040516001600160a01b0390911681526020016103c3565b34801561084257600080fd5b50606c546103e2565b34801561085757600080fd5b506103b7610866366004614d3a565b600091825260d2602090815260408084206001600160a01b0393909316845291905290205460ff1690565b34801561089d57600080fd5b506104256108ac366004614ded565b611af3565b3480156108bd57600080fd5b5061038a6108cc366004614ebd565b611b3e565b3480156108dd57600080fd5b5061038a6108ec366004614abe565b611c3f565b3480156108fd57600080fd5b5061038a61090c366004614cf5565b611dfe565b34801561091d57600080fd5b5061038a61092c366004614ef2565b611e0f565b34801561093d57600080fd5b506103e2600081565b34801561095257600080fd5b5061038a610961366004614cd8565b611eb0565b61038a610974366004614f32565b611f13565b34801561098557600080fd5b506039546103e2565b34801561099a57600080fd5b5061038a6109a9366004614d0e565b611f67565b3480156109ba57600080fd5b5061081e6109c9366004614cd8565b6001600160a01b039081166000908152603a60205260409020541690565b3480156109f357600080fd5b506103e2610a02366004614cf5565b612090565b348015610a1357600080fd5b50610a27610a22366004614cd8565b6120a7565b604080516001600160a01b0390941684526020840192909252908201526060016103c3565b348015610a5857600080fd5b5061038a610a67366004614d3a565b6120ee565b348015610a7857600080fd5b5061081e610a87366004614fa6565b612113565b348015610a9857600080fd5b5061038a610aa7366004614fc1565b6121a7565b348015610ab857600080fd5b5061038a610ac736600461505b565b612331565b348015610ad857600080fd5b50610a27610ae7366004614cd8565b6124cc565b348015610af857600080fd5b5061038a610b073660046150a7565b612513565b348015610b1857600080fd5b506103e2610b27366004614ded565b612651565b610b3581612113565b6001600160a01b0316336001600160a01b031614610b9a576000356001600160e01b03191681336040517f8383e634000000000000000000000000000000000000000000000000000000008152600401610b9193929190615115565b60405180910390fd5b50565b60006001600160e01b031982167f5a05180f000000000000000000000000000000000000000000000000000000001480610bdb5750610bdb82612709565b92915050565b60606000610c2186868080602002602001604051908101604052809392919081815260200183836020028082843760009201919091525061277092505050565b9050610c60818585808060200260200160405190810160405280939291908181526020018383602002808284376000920191909152506127ec92505050565b9150505b949350505050565b6000600260005403610cc05760405162461bcd60e51b815260206004820152601f60248201527f5265656e7472616e637947756172643a207265656e7472616e742063616c6c006044820152606401610b91565b600260005581610ccf816128f4565b336000908152603a60205260409020546001600160a01b031615610d0857604051632fc6bfb160e21b8152336004820152602401610b91565b6000610d4686868080602002602001604051908101604052809392919081815260200183836020028082843760009201919091525061277092505050565b90506000610d53856129bd565b9050610d60338383612a4e565b6001600055979650505050505050565b600260005403610dc25760405162461bcd60e51b815260206004820152601f60248201527f5265656e7472616e637947756172643a207265656e7472616e742063616c6c006044820152606401610b91565b60026000908155338152603a60205260409020546001600160a01b031615610dff57604051632fc6bfb160e21b8152336004820152602401610b91565b606d54851180610e105750606e5485105b15610e2e57604051631b8454a360e21b815260040160405180910390fd5b600034905060003390506000899050610ec4828c838c8b8b8080601f01602080910402602001604051908101604052809392919081815260200183838082843760009201919091525050604080516020601f8f018190048102820181019092528d815292508d91508c9081908401838280828437600081840152601f19601f820116905080830192505050505050508e8a612a80565b6001600160a01b03808216600081815260376020818152604080842060018082018054988b166001600160a01b0319998a16811790915582548916881783558652603a845282862080549098168717909755600681018352908420805460ff1916909617909555929091529052610f3c818486612def565b826001600160a01b0316826001600160a01b03167ffc1f1e73948cbc47c5b7f90e5601b7daccd9ad7173218486ccc74bdd051d05e860405160405180910390a35050600160005550505050505050505050565b80610f99816128f4565b60376000610fa6846129bd565b6001600160a01b03166001600160a01b0316815260200190815260200160002033610fd18282612e9a565b610fdb6008612113565b6001600160a01b031663dd716ad3610ff2866129bd565b6039546040516001600160e01b031960e085901b1681526001600160a01b0390921660048301526024820152604401600060405180830381600087803b15801561103b57600080fd5b505af115801561104f573d6000803e3d6000fd5b5050505050505050565b611061612ee3565b8061106b816128f4565b6000611076836129bd565b6001600160a01b038116600090815260376020526040902090915061109c903334612def565b505050565b600060086110ae81610b2c565b6001600160a01b03841660009081526037602052604090206110d09084612f1f565b9150336110dd8184612fbc565b61112a57604080518481524760208201526001600160a01b0380841692908816917f63701cd972aa3c7f87898aab145c972e52185beab07d6e39380a998d334cf6c8910160405180910390a35b505092915050565b600082815260d2602052604090206001015461114d81613018565b61109c8383613022565b60d154600390610100900460ff16158015611179575060d15460ff8083169116105b6111dc5760405162461bcd60e51b815260206004820152602e60248201527f496e697469616c697a61626c653a20636f6e747261637420697320616c72656160448201526d191e481a5b9a5d1a585b1a5e995960921b6064820152608401610b91565b60d1805461ffff191660ff8316176101001790556111fb600f83613044565b60d1805461ff001916905560405160ff821681527f7f26b83ff96e1f2b6a682f133852f6798a09c465da95921460cefb3847402498906020015b60405180910390a15050565b6001600160a01b03811633146112bf5760405162461bcd60e51b815260206004820152602f60248201527f416363657373436f6e74726f6c3a2063616e206f6e6c792072656e6f756e636560448201527f20726f6c657320666f722073656c6600000000000000000000000000000000006064820152608401610b91565b6112c982826130e8565b5050565b60d154600490610100900460ff161580156112ef575060d15460ff8083169116105b6113525760405162461bcd60e51b815260206004820152602e60248201527f496e697469616c697a61626c653a20636f6e747261637420697320616c72656160448201526d191e481a5b9a5d1a585b1a5e995960921b6064820152608401610b91565b60d1805461ffff191660ff831617610100179055611371600084613022565b61139b7f600e5f1c60beb469a3fa6dd3814a4ae211cc6259a6d033bae218a742f2af01d383613022565b60d1805461ff001916905560405160ff821681527f7f26b83ff96e1f2b6a682f133852f6798a09c465da95921460cefb38474024989060200160405180910390a1505050565b606060006113ef6008612113565b6001600160a01b031663060406186040518163ffffffff1660e01b8152600401602060405180830381865afa15801561142c573d6000803e3d6000fd5b505050506040513d601f19601f82011682018060405250810190611450919061514a565b90508267ffffffffffffffff81111561146b5761146b615163565b604051908082528060200260200182016040528015611494578160200160208202803683370190505b50915060006114d585858080602002602001604051908101604052809392919081815260200183836020028082843760009201919091525061277092505050565b905060005b848110156115655760008282815181106114f6576114f6615179565b6020026020010151905061153f81898661153a858d6001600160a01b0391821660009081526037602090815260408083209390941682526004909201909152205490565b61310a565b85838151811061155157611551615179565b6020908102919091010152506001016114da565b5050509392505050565b606060006115af84848080602002602001604051908101604052809392919081815260200183836020028082843760009201919091525061277092505050565b9050610c6481613206565b6060611629858580806020026020016040519081016040528093929190818152602001838360200280828437600092019190915250506040805160208089028281018201909352888252909350889250879182918501908490808284376000920191909152506127ec92505050565b95945050505050565b606061167083838080602002602001604051908101604052809392919081815260200183836020028082843760009201919091525061320692505050565b9392505050565b6002600054036116c95760405162461bcd60e51b815260206004820152601f60248201527f5265656e7472616e637947756172643a207265656e7472616e742063616c6c006044820152606401610b91565b60026000908155339061170b9084906037906116e4836129bd565b6001600160a01b03166001600160a01b0316815260200190815260200160002083856132c7565b6117158183613560565b61173257604051635ff7115760e11b815260040160405180910390fd5b5050600160005550565b6117446135c1565b6112c98282613635565b60606116708383808060200260200160405190810160405280939291908181526020018383602002808284376000920191909152506136a292505050565b611794612ee3565b8061179e816128f4565b336000908152603a60205260409020546001600160a01b0316156117d757604051632fc6bfb160e21b8152336004820152602401610b91565b6112c9603760006117e7856129bd565b6001600160a01b03166001600160a01b031681526020019081526020016000203334613756565b60d154600290610100900460ff16158015611830575060d15460ff8083169116105b6118935760405162461bcd60e51b815260206004820152602e60248201527f496e697469616c697a61626c653a20636f6e747261637420697320616c72656160448201526d191e481a5b9a5d1a585b1a5e995960921b6064820152608401610b91565b60d1805461ffff191660ff8316176101001790556036546118bf906008906001600160a01b0316613044565b603680546001600160a01b031916905560d1805461ff001916905560405160ff821681527f7f26b83ff96e1f2b6a682f133852f6798a09c465da95921460cefb3847402498906020015b60405180910390a150565b61191c6135c1565b610b9a81613805565b600082610c64818461193561383a565b6001600160a01b038086166000908152603760209081526040808320938b16835260049093019052205461310a565b6002600054036119b65760405162461bcd60e51b815260206004820152601f60248201527f5265656e7472616e637947756172643a207265656e7472616e742063616c6c006044820152606401610b91565b6002600055816119c5816128f4565b336119fe85603760006119d7836129bd565b6001600160a01b03166001600160a01b0316815260200190815260200160002083866132c7565b611a3560376000611a0e876129bd565b6001600160a01b03166001600160a01b031681526020019081526020016000208285613756565b50506001600055505050565b600080611a4d846129bd565b6001600160a01b0380821660009081526037602090815260408083209388168352600490930190522054909150610c64565b611a876135c1565b611a90816138ac565b6112c98282613044565b611aa26135c1565b610b9a816138fb565b600080611ab7836129bd565b9050611670816001600160a01b031660009081526037602052604090206003015490565b600082815260d3602052604081206116709083613930565b60606000611b3384848080602002602001604051908101604052809392919081815260200183836020028082843760009201919091525061277092505050565b9050610c64816136a2565b82611b48816128f4565b60376000611b55866129bd565b6001600160a01b03166001600160a01b0316815260200190815260200160002033611b808282612e9a565b606d54841180611b915750606e5484105b15611baf57604051631b8454a360e21b815260040160405180910390fd5b611bb96008612113565b6001600160a01b031663e5125a1d611bd0886129bd565b6040516001600160e01b031960e084901b1681526001600160a01b0390911660048201526024810188905260448101879052606401600060405180830381600087803b158015611c1f57600080fd5b505af1158015611c33573d6000803e3d6000fd5b50505050505050505050565b600260005403611c915760405162461bcd60e51b815260206004820152601f60248201527f5265656e7472616e637947756172643a207265656e7472616e742063616c6c006044820152606401610b91565b6002600055821580611ca35750828114155b15611cc1576040516376081a7b60e11b815260040160405180910390fd5b6000339050600080611d0587878080602002602001604051908101604052809392919081815260200183836020028082843760009201919091525061277092505050565b905060005b8151811015611dc857858582818110611d2557611d25615179565b9050602002013583611d3791906151a5565b9250611dc0888883818110611d4e57611d4e615179565b9050602002016020810190611d639190614cd8565b60376000858581518110611d7957611d79615179565b60200260200101516001600160a01b03166001600160a01b0316815260200190815260200160002086898986818110611db457611db4615179565b905060200201356132c7565b600101611d0a565b50611dd38383613560565b611df057604051635ff7115760e11b815260040160405180910390fd5b505060016000555050505050565b611e066135c1565b610b9a8161393c565b600f611e1a81610b2c565b6001600160a01b0380851660009081526037602090815260408083209386168352600684019091529020805460ff19166001179055611e5a818585613971565b60010180546001600160a01b039081166000908152603a602052604080822080546001600160a01b0319908116909155845496841696811687179094559481529390932080549590931694169390931790555050565b80611eba816128f4565b60376000611ec7846129bd565b6001600160a01b03166001600160a01b0316815260200190815260200160002033611ef28282612e9a565b611efc6008612113565b6001600160a01b031663cdaa4e81610ff2866129bd565b6008611f1e81610b2c565b611f5f868680806020026020016040519081016040528093929190818152602001838360200280828437600092019190915250889250879150869050613a0c565b505050505050565b600260005403611fb95760405162461bcd60e51b815260206004820152601f60248201527f5265656e7472616e637947756172643a207265656e7472616e742063616c6c006044820152606401610b91565b600260005581611fc8816128f4565b81600003612002576040517f31d9f7d700000000000000000000000000000000000000000000000000000000815260040160405180910390fd5b33600061200e856129bd565b6001600160a01b038116600090815260376020526040812060028101549293509161203a9087906151b8565b9050606c54811015612078576040517fef0a995700000000000000000000000000000000000000000000000000000000815260040160405180910390fd5b612083828588613e33565b611dd384876104b0613f38565b600081815260d360205260408120610bdb90613fad565b6000806000806120b6856129bd565b6001600160a01b0390811660009081526037602052604090206001810154600282015460039092015492169790965090945092505050565b600082815260d2602052604090206001015461210981613018565b61109c83836130e8565b60007fdea3103d22025c269050bea94c0c84688877f12fa22b7e6d2d5d78a9a49aa1cb600083600f81111561214a5761214a6150eb565b60ff1681526020810191909152604001600020546001600160a01b03169050806121a257816040517f812281be000000000000000000000000000000000000000000000000000000008152600401610b9191906151cb565b919050565b7f600e5f1c60beb469a3fa6dd3814a4ae211cc6259a6d033bae218a742f2af01d36121d181613018565b85841415806121e05750858214155b15612225576040517f053265f10000000000000000000000000000000000000000000000000000000081526001600160e01b0319600035166004820152602401610b91565b60005b868110156122fe5783838281811061224257612242615179565b905060200201602081019061225791906151e7565b603760008a8a8581811061226d5761226d615179565b90506020020160208101906122829190614cd8565b6001600160a01b03166001600160a01b0316815260200190815260200160002060060160008888858181106122b9576122b9615179565b90506020020160208101906122ce9190614cd8565b6001600160a01b031681526020810191909152604001600020805460ff1916911515919091179055600101612228565b506040517f52ba1d8b6046f97286cc5eef5dc8215b0f411bdb3785cc8870260793dbf9d2c390600090a150505050505050565b600861233c81610b2c565b82156124c65760005b8381101561248b57600085858381811061236157612361615179565b90506020020160208101906123769190614cd8565b6001600160a01b03808216600090815260376020908152604080832060018101549094168352603a909152902080546001600160a01b0319169055600281015491925090801561243a576123ca8282612f1f565b5060018201546123e6906001600160a01b0316826104b0613f38565b61243a5760018201548254604080518481524760208201526001600160a01b0393841693909216917f7dc5115a5aba081f5a174f56a3d02eea582824783322a4ac03f7bd388f444194910160405180910390a35b60018201546000906124579085906001600160a01b031689613fb7565b9050801561247c57600183015461247a906001600160a01b0316826104b0613f38565b505b84600101945050505050612345565b507f4f257d3ba23679d338f1d94296086bba5724af341b7fa31aa0ff297bfcdc62d884846040516124bd929190615204565b60405180910390a15b50505050565b6000806000612506846001600160a01b03808216600090815260376020526040902060018101546002820154600390920154921693909250565b9250925092509193909250565b60d154610100900460ff1615808015612533575060d154600160ff909116105b8061254d5750303b15801561254d575060d15460ff166001145b6125b05760405162461bcd60e51b815260206004820152602e60248201527f496e697469616c697a61626c653a20636f6e747261637420697320616c72656160448201526d191e481a5b9a5d1a585b1a5e995960921b6064820152608401610b91565b60d1805460ff1916600117905580156125d35760d1805461ff0019166101001790555b6125de600887613044565b6125e785613805565b6125f2600085613635565b6125fb836138fb565b6126048261393c565b8015611f5f5760d1805461ff0019169055604051600181527f7f26b83ff96e1f2b6a682f133852f6798a09c465da95921460cefb38474024989060200160405180910390a1505050505050565b60006002600054036126a55760405162461bcd60e51b815260206004820152601f60248201527f5265656e7472616e637947756172643a207265656e7472616e742063616c6c006044820152606401610b91565b60026000819055506126f2336126ed85858080602002602001604051908101604052809392919081815260200183836020028082843760009201919091525061277092505050565b6140e6565b90506126fe3382614137565b600160005592915050565b60006001600160e01b031982167f7965db0b000000000000000000000000000000000000000000000000000000001480610bdb57507f01ffc9a7000000000000000000000000000000000000000000000000000000006001600160e01b0319831614610bdb565b606061277c600f612113565b6001600160a01b031663f9226b1a836040518263ffffffff1660e01b81526004016127a79190615252565b600060405180830381865afa1580156127c4573d6000803e3d6000fd5b505050506040513d6000823e601f3d908101601f19168201604052610bdb91908101906152d0565b60608151835114612810576040516376081a7b60e11b815260040160405180910390fd5b825167ffffffffffffffff81111561282a5761282a615163565b604051908082528060200260200182016040528015612853578160200160208202803683370190505b50905060005b81518110156128ed576128c884828151811061287757612877615179565b602002602001015184838151811061289157612891615179565b60200260200101516001600160a01b0391821660009081526037602090815260408083209390941682526004909201909152205490565b8282815181106128da576128da615179565b6020908102919091010152600101612859565b5092915050565b6128fe6008612113565b604051635061f96960e11b81526001600160a01b038381166004830152919091169063a0c3f2d290602401602060405180830381865afa158015612946573d6000803e3d6000fd5b505050506040513d601f19601f8201168201806040525081019061296a9190615382565b610b9a5780612978826129bd565b6040517f2533fce20000000000000000000000000000000000000000000000000000000081526001600160a01b03928316600482015291166024820152604401610b91565b60006129c9600f612113565b6040517f50a9fc290000000000000000000000000000000000000000000000000000000081526001600160a01b03848116600483015291909116906350a9fc2990602401602060405180830381865afa158015612a2a573d6000803e3d6000fd5b505050506040513d601f19601f82011682018060405250810190610bdb919061539f565b6000612a5a84846140e6565b6001600160a01b0383166000908152603760205260409020909150611670908583613756565b612a8e8860006104b0613f38565b612aec576040805163338f030160e01b81526001600160a01b038a1660048201526024810191909152600a60448201527f706f6f6c2061646d696e000000000000000000000000000000000000000000006064820152608401610b91565b612afa8560006104b0613f38565b612b58576040805163338f030160e01b81526001600160a01b03871660048201526024810191909152600860448201527f74726561737572790000000000000000000000000000000000000000000000006064820152608401610b91565b606c54811015612b7b57604051630a8d7fa760e21b815260040160405180910390fd5b866001600160a01b0316886001600160a01b0316141580612bae5750846001600160a01b0316876001600160a01b031614155b15612be5576040517fdc1d04ff00000000000000000000000000000000000000000000000000000000815260040160405180910390fd5b60408051600380825260808201909252600091602082016060803683370190505090508881600081518110612c1c57612c1c615179565b60200260200101906001600160a01b031690816001600160a01b0316815250508681600181518110612c5057612c50615179565b60200260200101906001600160a01b031690816001600160a01b031681525050612c7981614185565b15612cbe576040517f1ad2fb620000000000000000000000000000000000000000000000000000000081526001600160e01b0319600035166004820152602401610b91565b50612cc96008612113565b6040517ff883afaf0000000000000000000000000000000000000000000000000000000081526001600160a01b0389811660048301528881166024830152878116604483015260648201859052919091169063f883afaf90608401600060405180830381600087803b158015612d3e57600080fd5b505af1158015612d52573d6000803e3d6000fd5b505050506000612d62600f612113565b6040517fb5017aef0000000000000000000000000000000000000000000000000000000081529091506001600160a01b0382169063b5017aef90612db2908b908b908b908b908b9060040161540c565b600060405180830381600087803b158015612dcc57600080fd5b505af1158015612de0573d6000803e3d6000fd5b50505050505050505050505050565b8282612dfb8282612e9a565b82856002016000828254612e0f91906151a5565b92505081905550612e3585858760020154868960030154612e3091906151a5565b614224565b6001600160a01b03808516600090815260058701602052604090819020429055865490519116907f9e71bc8eea02a63969f509818f2dafb9254532904319f9dbda79b67bd34a5f3d90612e8b9086815260200190565b60405180910390a25050505050565b60018201546001600160a01b038281169116146112c9576040517ff78cb7ae00000000000000000000000000000000000000000000000000000000815260040160405180910390fd5b34600003612f1d576040517fdbf97bca00000000000000000000000000000000000000000000000000000000815260040160405180910390fd5b565b6000612f2f83600201548361425f565b905080836002016000828254612f4591906151b8565b9091555050600183015460028401546003850154612f759286926001600160a01b0390911691612e309086614275565b82546040518281526001600160a01b03909116907f0f5bb82176feb1b5e747e28471aa92156a04d9f3ab9f45f28e2d704232b93f759060200160405180910390a292915050565b6000826001600160a01b03168260405160006040518083038185875af1925050503d8060008114613009576040519150601f19603f3d011682016040523d82523d6000602084013e61300e565b606091505b5090949350505050565b610b9a813361428f565b61302c828261430f565b600082815260d36020526040902061109c90826143b1565b807fdea3103d22025c269050bea94c0c84688877f12fa22b7e6d2d5d78a9a49aa1cb600084600f81111561307a5761307a6150eb565b60ff168152602081019190915260400160002080546001600160a01b0319166001600160a01b03928316179055811682600f8111156130bb576130bb6150eb565b6040517f865d1c228a8ea13709cfe61f346f7ff67f1bbd4a18ff31ad3e7147350d317c5990600090a35050565b6130f282826143c6565b600082815260d36020526040902061109c9082614449565b6001600160a01b0380851660009081526002602090815260408083209387168352929052908120600381015484900361314557549050610c64565b6001600160a01b0386166000908152600360208181526040808420600180845282862094870154865293909252832091820154839290156131aa578054600186015490945061319490856151b8565b85600201546131a39190615452565b92506131b2565b846001015493505b81546000906131c29086906151b8565b6131cc9089615452565b9050670de0b6b3a76400006131e182866151a5565b6131eb9190615469565b86546131f791906151a5565b9b9a5050505050505050505050565b6060815167ffffffffffffffff81111561322257613222615163565b60405190808252806020026020018201604052801561324b578160200160208202803683370190505b50905060005b82518110156132c1576037600084838151811061327057613270615179565b60200260200101516001600160a01b03166001600160a01b03168152602001908152602001600020600201548282815181106132ae576132ae615179565b6020908102919091010152600101613251565b50919050565b82826132d3828261445e565b8260000361330d576040517ff5618d5a00000000000000000000000000000000000000000000000000000000815260040160405180910390fd5b6001600160a01b0384166000908152600486016020526040902054831115613361576040517f34aa9a2800000000000000000000000000000000000000000000000000000000815260040160405180910390fd5b600061336d6008612113565b604051635061f96960e11b81526001600160a01b0389811660048301529192509082169063a0c3f2d290602401602060405180830381865afa1580156133b7573d6000803e3d6000fd5b505050506040513d601f19601f820116820180604052508101906133db9190615382565b801561346b57506040517f28bde1e10000000000000000000000000000000000000000000000000000000081526001600160a01b0388811660048301528216906328bde1e19060240160e060405180830381865afa158015613441573d6000803e3d6000fd5b505050506040513d601f19601f82011682018060405250810190613465919061548b565b60a00151155b801561349e57506038546001600160a01b0386166000908152600588016020526040902054429161349b916151a5565b10155b156134d5576040517ff19f52bd00000000000000000000000000000000000000000000000000000000815260040160405180910390fd5b6001600160a01b038516600090815260048701602052604090205461351390879087906135039088906151b8565b878a60030154612e3091906151b8565b85546040518581526001600160a01b03918216918716907f4d10bd049775c77bd7f255195afba5088028ecb3c7c277d393ccff7934f2f92c9060200160405180910390a350505050505050565b6000814710156135b7576040517f98c713c00000000000000000000000000000000000000000000000000000000081526001600160e01b031960003516600482015247602482015260448101839052606401610b91565b6116708383612fbc565b7fb53127684a568b3173ae13b9f8a6016e243e63b6e8ee1178d6a717850b5d6103546001600160a01b03163314612f1d576000356001600160e01b03191660016040517f3e523c00000000000000000000000000000000000000000000000000000000008152600401610b91929190615533565b61271081118061364457508082115b1561366257604051631b8454a360e21b815260040160405180910390fd5b606d819055606e82905560408051838152602081018390527f677752f5bf9541b14288833909e5ec5a478103131c1ec08c4638943be5826c149101611235565b6060815167ffffffffffffffff8111156136be576136be615163565b6040519080825280602002602001820160405280156136e7578160200160208202803683370190505b50905060005b82518110156132c15761373183828151811061370b5761370b615179565b60200260200101516001600160a01b031660009081526037602052604090206003015490565b82828151811061374357613743615179565b60209081029190910101526001016136ed565b8282613762828261445e565b6001600160a01b03841660009081526004860160205260409020546137a090869086906137909087906151a5565b868960030154612e3091906151a5565b6001600160a01b03808516600081815260058801602052604090819020429055875490519216917fe5541a6b6103d4fa7e021ed54fad39c66f27a76bd13d374cf6240ae6bd0bb72b906137f69087815260200190565b60405180910390a35050505050565b606c8190556040518181527f372bbdb8d72373b0012f84ee5a11671e5fb72b8bea902ebca93a19cb45d32be290602001611909565b60006138466008612113565b6001600160a01b031663060406186040518163ffffffff1660e01b8152600401602060405180830381865afa158015613883573d6000803e3d6000fd5b505050506040513d601f19601f820116820180604052508101906138a7919061514a565b905090565b806001600160a01b03163b600003610b9a576040517f2ff1928c0000000000000000000000000000000000000000000000000000000081526001600160a01b0382166004820152602401610b91565b60388190556040518181527f4956b65267b8f1e642284bcb5037116c69a9c78d9ca576beeae0974737a4872a90602001611909565b600061167083836144b3565b60398190556040518181527f02be0b73b597f2c0f138aebee162b3b0e25d5b5a26854c15dcf79176e9a1c67890602001611909565b828261397d8282612e9a565b60008560020154905061399d86866000848a60030154612e3091906151b8565b6139b3868583848a60030154612e3091906151a5565b8554604080516001600160a01b03888116825287811660208301529181018490529116907f41440fd419d77ac181f12df5a1bc7a60bb55e828544cbc93b506a64b93ac35e69060600160405180910390a2505050505050565b83518214613a5557807fae52c603227f64e4c6101dde593aa9790a16b3ac77546bd746d758511e9560a5858585604051613a489392919061559b565b60405180910390a26124c6565b6000806000806000885167ffffffffffffffff811115613a7757613a77615163565b604051908082528060200260200182016040528015613aa0578160200160208202803683370190505b5090506000895167ffffffffffffffff811115613abf57613abf615163565b604051908082528060200260200182016040528015613ae8578160200160208202803683370190505b50905060008a5167ffffffffffffffff811115613b0757613b07615163565b604051908082528060200260200182016040528015613b30578160200160208202803683370190505b50905060005b8b51811015613d99578b8181518110613b5157613b51615179565b6020908102919091018101516001600160a01b038116600090815260038084526040808320603790955290912001549097506001600160a01b03881660009081526001602081815260408084208f855290915290912001549096508a9003613bf257868389806001019a5081518110613bcc57613bcc615179565b60200260200101906001600160a01b031690816001600160a01b03168152505050613d91565b60028101548a1115613c2057604080518082019091528681526020018a905260018101869055600281018a90555b600181015415613c6a5760018101548c8c84818110613c4157613c41615179565b90506020020135670de0b6b3a7640000613c5b9190615452565b613c659190615469565b613c6d565b60005b985088816000016000828254613c8391906151a5565b9182905550905085613c958a856151b8565b81518110613ca557613ca5615179565b6020026020010181815250506040518060400160405280826000015481526020018b81525060016000896001600160a01b03166001600160a01b0316815260200190815260200160002060008c815260200190815260200160002060008201518160000155602082015181600101559050508581600101600001819055508060010160000154848984613d3891906151b8565b81518110613d4857613d48615179565b6020908102919091010152868d613d5f8a856151b8565b81518110613d6f57613d6f615179565b60200260200101906001600160a01b031690816001600160a01b031681525050505b600101613b36565b508515613de257858152858b51038b52877fee74f10cc50bf4b7e57fd36be7d46288795f3a9151dae97505b718b392ba14a382604051613dd991906155fe565b60405180910390a25b8a5115613e2657877f0e54e0485f70f0f63bc25889ddbf01ce1269ad6f07fdb2df573a0fbdb4d66f888c8585604051613e1d93929190615611565b60405180910390a25b5050505050505050505050565b8282613e3f8282612e9a565b8460020154831115613e6457604051630a8d7fa760e21b815260040160405180910390fd5b6038546001600160a01b03851660009081526005870160205260409020544291613e8d916151a5565b1115613ec5576040517f07b6105200000000000000000000000000000000000000000000000000000000815260040160405180910390fd5b82856002016000828254613ed991906151b8565b92505081905550613efa85858760020154868960030154612e3091906151b8565b84546040518481526001600160a01b03909116907f0f5bb82176feb1b5e747e28471aa92156a04d9f3ab9f45f28e2d704232b93f7590602001612e8b565b600082600003613f5157613f4e6108fc836151a5565b91505b6040516001600160a01b03851690839085906000818181858888f193505050503d8060008114613f9d576040519150601f19603f3d011682016040523d82523d6000602084013e613fa2565b606091505b509095945050505050565b6000610bdb825490565b6001600160a01b03808416600090815260376020908152604080832093861683526004909301905290812054613fef8585858461310a565b9150836001600160a01b0316856001600160a01b03167f0aa4d283470c904c551d18bb894d37e17674920f3261a7f854be501e25f421b78460405161403691815260200190565b60405180910390a36001600160a01b0380861660008181526002602090815260408083209489168352938152838220828155928252600390529190912061408090828685806144dd565b60038181018590556001600160a01b03878116600081815260209384526040808220546001870155519081529188169290917faa7c29611027fd4be148712bb54960253b7a7d5998c17769bfc424c2f5f185ad910160405180910390a350509392505050565b6000806140f161383a565b905060005b835181101561112a5761412384828151811061411457614114615179565b60200260200101518684613fb7565b61412d90846151a5565b92506001016140f6565b6141418282613560565b6112c9576040517f3b97b7700000000000000000000000000000000000000000000000000000000081526001600160e01b0319600035166004820152602401610b91565b6000815160000361419857506000919050565b60005b600183510381101561421b57600181015b8351811015614212578381815181106141c7576141c7615179565b60200260200101516001600160a01b03168483815181106141ea576141ea615179565b60200260200101516001600160a01b03160361420a575060019392505050565b6001016141ac565b5060010161419b565b50600092915050565b835461423a906001600160a01b03168484614588565b60038401556001600160a01b0390911660009081526004909201602052604090912055565b600081831061426e5781611670565b5090919050565b6000818311614285576000611670565b61167082846151b8565b600082815260d2602090815260408083206001600160a01b038516845290915290205460ff166112c9576142cd816001600160a01b03166014614725565b6142d8836020614725565b6040516020016142e992919061564a565b60408051601f198184030181529082905262461bcd60e51b8252610b91916004016156cb565b600082815260d2602090815260408083206001600160a01b038516845290915290205460ff166112c957600082815260d2602090815260408083206001600160a01b03851684529091529020805460ff1916600117905561436d3390565b6001600160a01b0316816001600160a01b0316837f2f8788117e7eff1d82e926ec794901d17c78024a50270940304540a733656f0d60405160405180910390a45050565b6000611670836001600160a01b038416614906565b600082815260d2602090815260408083206001600160a01b038516845290915290205460ff16156112c957600082815260d2602090815260408083206001600160a01b0385168085529252808320805460ff1916905551339285917ff6391f5c32d9c69d2a47ea670b442974b53935d1edc7fd64eb21e047a839171b9190a45050565b6000611670836001600160a01b038416614955565b6001600160a01b038116600090815260068301602052604090205460ff16156112c9576040517f9feb934700000000000000000000000000000000000000000000000000000000815260040160405180910390fd5b60008260000182815481106144ca576144ca615179565b9060005260206000200154905092915050565b82846003015410156144f157600284018190555b600061450185600201548461425f565b9050600081866002015461451591906151b8565b9050801561457f57600286018290556001870154811115614562576040517fa5ca437e00000000000000000000000000000000000000000000000000000000815260040160405180910390fd5b8087600101600001600082825461457991906151b8565b90915550505b50505050505050565b600061459261383a565b6001600160a01b03851660009081526003602052604090206001810154600282015492935090918311156146065760405180604001604052806145ed886001600160a01b031660009081526037602052604090206003015490565b8152602090810185905281516001850155015160028301555b6001600160a01b038681166000818152600260209081526040808320948a1680845294825280832093835260378252808320948352600490940190529182205490916146548989888561310a565b835490915081146146a6578083556040518181526001600160a01b0389811691908b16907faa7c29611027fd4be148712bb54960253b7a7d5998c17769bfc424c2f5f185ad9060200160405180910390a35b6146b38584888a866144dd565b845460018085019190915560038401879055850154841461471a57886001600160a01b0316867f81faf50e2aaf52eaba2ab841071efb9f6f0850a3e7d008b1336e6001d3d4963c876001016000015460405161471191815260200190565b60405180910390a35b505050505050505050565b60606000614734836002615452565b61473f9060026151a5565b67ffffffffffffffff81111561475757614757615163565b6040519080825280601f01601f191660200182016040528015614781576020820181803683370190505b5090507f3000000000000000000000000000000000000000000000000000000000000000816000815181106147b8576147b8615179565b60200101906001600160f81b031916908160001a9053507f78000000000000000000000000000000000000000000000000000000000000008160018151811061480357614803615179565b60200101906001600160f81b031916908160001a9053506000614827846002615452565b6148329060016151a5565b90505b60018111156148b7577f303132333435363738396162636465660000000000000000000000000000000085600f166010811061487357614873615179565b1a60f81b82828151811061488957614889615179565b60200101906001600160f81b031916908160001a90535060049490941c936148b0816156de565b9050614835565b5083156116705760405162461bcd60e51b815260206004820181905260248201527f537472696e67733a20686578206c656e67746820696e73756666696369656e746044820152606401610b91565b600081815260018301602052604081205461494d57508154600181810184556000848152602080822090930184905584548482528286019093526040902091909155610bdb565b506000610bdb565b60008181526001830160205260408120548015614a3e5760006149796001836151b8565b855490915060009061498d906001906151b8565b90508181146149f25760008660000182815481106149ad576149ad615179565b90600052602060002001549050808760000184815481106149d0576149d0615179565b6000918252602080832090910192909255918252600188019052604090208390555b8554869080614a0357614a036156f5565b600190038181906000526020600020016000905590558560010160008681526020019081526020016000206000905560019350505050610bdb565b6000915050610bdb565b600060208284031215614a5a57600080fd5b81356001600160e01b03198116811461167057600080fd5b60008083601f840112614a8457600080fd5b50813567ffffffffffffffff811115614a9c57600080fd5b6020830191508360208260051b8501011115614ab757600080fd5b9250929050565b60008060008060408587031215614ad457600080fd5b843567ffffffffffffffff80821115614aec57600080fd5b614af888838901614a72565b90965094506020870135915080821115614b1157600080fd5b50614b1e87828801614a72565b95989497509550505050565b60008151808452602080850194506020840160005b83811015614b5b57815187529582019590820190600101614b3f565b509495945050505050565b6020815260006116706020830184614b2a565b6001600160a01b0381168114610b9a57600080fd5b600080600060408486031215614ba357600080fd5b833567ffffffffffffffff811115614bba57600080fd5b614bc686828701614a72565b9094509250506020840135614bda81614b79565b809150509250925092565b60008083601f840112614bf757600080fd5b50813567ffffffffffffffff811115614c0f57600080fd5b602083019150836020828501011115614ab757600080fd5b60008060008060008060008060c0898b031215614c4357600080fd5b8835614c4e81614b79565b97506020890135614c5e81614b79565b96506040890135614c6e81614b79565b955060608901359450608089013567ffffffffffffffff80821115614c9257600080fd5b614c9e8c838d01614be5565b909650945060a08b0135915080821115614cb757600080fd5b50614cc48b828c01614be5565b999c989b5096995094979396929594505050565b600060208284031215614cea57600080fd5b813561167081614b79565b600060208284031215614d0757600080fd5b5035919050565b60008060408385031215614d2157600080fd5b8235614d2c81614b79565b946020939093013593505050565b60008060408385031215614d4d57600080fd5b823591506020830135614d5f81614b79565b809150509250929050565b60008060408385031215614d7d57600080fd5b8235614d8881614b79565b91506020830135614d5f81614b79565b600080600060408486031215614dad57600080fd5b8335614db881614b79565b9250602084013567ffffffffffffffff811115614dd457600080fd5b614de086828701614a72565b9497909650939450505050565b60008060208385031215614e0057600080fd5b823567ffffffffffffffff811115614e1757600080fd5b614e2385828601614a72565b90969095509350505050565b60008060408385031215614e4257600080fd5b50508035926020909101359150565b600080600060608486031215614e6657600080fd5b8335614e7181614b79565b92506020840135614e8181614b79565b929592945050506040919091013590565b8035601081106121a257600080fd5b60008060408385031215614eb457600080fd5b614d8883614e92565b600080600060608486031215614ed257600080fd5b8335614edd81614b79565b95602085013595506040909401359392505050565b600080600060608486031215614f0757600080fd5b8335614f1281614b79565b92506020840135614f2281614b79565b91506040840135614bda81614b79565b600080600080600060608688031215614f4a57600080fd5b853567ffffffffffffffff80821115614f6257600080fd5b614f6e89838a01614a72565b90975095506020880135915080821115614f8757600080fd5b50614f9488828901614a72565b96999598509660400135949350505050565b600060208284031215614fb857600080fd5b61167082614e92565b60008060008060008060608789031215614fda57600080fd5b863567ffffffffffffffff80821115614ff257600080fd5b614ffe8a838b01614a72565b9098509650602089013591508082111561501757600080fd5b6150238a838b01614a72565b9096509450604089013591508082111561503c57600080fd5b5061504989828a01614a72565b979a9699509497509295939492505050565b60008060006040848603121561507057600080fd5b833567ffffffffffffffff81111561508757600080fd5b61509386828701614a72565b909790965060209590950135949350505050565b600080600080600060a086880312156150bf57600080fd5b85356150ca81614b79565b97602087013597506040870135966060810135965060800135945092505050565b634e487b7160e01b600052602160045260246000fd5b60108110615111576151116150eb565b9052565b6001600160e01b031984168152606081016151336020830185615101565b6001600160a01b0383166040830152949350505050565b60006020828403121561515c57600080fd5b5051919050565b634e487b7160e01b600052604160045260246000fd5b634e487b7160e01b600052603260045260246000fd5b634e487b7160e01b600052601160045260246000fd5b80820180821115610bdb57610bdb61518f565b81810381811115610bdb57610bdb61518f565b60208101610bdb8284615101565b8015158114610b9a57600080fd5b6000602082840312156151f957600080fd5b8135611670816151d9565b60208082528181018390526000908460408401835b8681101561524757823561522c81614b79565b6001600160a01b031682529183019190830190600101615219565b509695505050505050565b6020808252825182820181905260009190848201906040850190845b818110156152935783516001600160a01b03168352928401929184019160010161526e565b50909695505050505050565b604051601f8201601f1916810167ffffffffffffffff811182821017156152c8576152c8615163565b604052919050565b600060208083850312156152e357600080fd5b825167ffffffffffffffff808211156152fb57600080fd5b818501915085601f83011261530f57600080fd5b81518181111561532157615321615163565b8060051b915061533284830161529f565b818152918301840191848101908884111561534c57600080fd5b938501935b83851015615376578451925061536683614b79565b8282529385019390850190615351565b98975050505050505050565b60006020828403121561539457600080fd5b8151611670816151d9565b6000602082840312156153b157600080fd5b815161167081614b79565b60005b838110156153d75781810151838201526020016153bf565b50506000910152565b600081518084526153f88160208601602086016153bc565b601f01601f19169290920160200192915050565b60006001600160a01b038088168352808716602084015280861660408401525060a0606083015261544060a08301856153e0565b828103608084015261537681856153e0565b8082028115828204841417610bdb57610bdb61518f565b60008261548657634e487b7160e01b600052601260045260246000fd5b500490565b600060e0828403121561549d57600080fd5b60405160e0810181811067ffffffffffffffff821117156154c0576154c0615163565b60405282516154ce81614b79565b815260208301516154de81614b79565b602082015260408301516154f181614b79565b6040820152606083015161550481614b79565b806060830152506080830151608082015260a083015160a082015260c083015160c08201528091505092915050565b6001600160e01b03198316815260408101600b8310615554576155546150eb565b8260208301529392505050565b60008151808452602080850194506020840160005b83811015614b5b5781516001600160a01b031687529582019590820190600101615576565b6040815260006155ae6040830186615561565b82810360208401528381527f07ffffffffffffffffffffffffffffffffffffffffffffffffffffffffffffff8411156155e657600080fd5b8360051b808660208401370160200195945050505050565b6020815260006116706020830184615561565b6060815260006156246060830186615561565b82810360208401526156368186614b2a565b90508281036040840152610c608185614b2a565b7f416363657373436f6e74726f6c3a206163636f756e74200000000000000000008152600083516156828160178501602088016153bc565b7f206973206d697373696e6720726f6c652000000000000000000000000000000060179184019182015283516156bf8160288401602088016153bc565b01602801949350505050565b60208152600061167060208301846153e0565b6000816156ed576156ed61518f565b506000190190565b634e487b7160e01b600052603160045260246000fdfea26469706673582212208af1366d08cc7459c4360b6020cdfc82ddc0659e42b16195c40ef25f9f49a4d064736f6c63430008160033",
  "chainId": 2021,
  "contractAbsolutePath": "Staking.sol",
  "deployer": "0x31762cdd4Aa65CD6f5F09D7a05a56211720A1168",
  "devdoc": {
    "version": 1,
    "kind": "dev",
    "methods": {
      "applyValidatorCandidate(address,address,address,uint256,bytes,bytes)": {
        "details": "Proposes a candidate to become a validator. Requirements: - The method caller is able to receive RON. - The treasury is able to receive RON. - The amount is larger than or equal to the minimum validator staking amount `minValidatorStakingAmount()`. Emits the event `PoolApproved`.",
        "params": {
          "candidateAdmin": "the candidate admin will be stored in the validator contract, used for calling function that affects to its candidate, e.g. scheduling maintenance."
        }
      },
      "bulkUndelegate(address[],uint256[])": {
        "details": "Bulk unstakes from a list of candidates. Requirements: - The method caller is not the pool admin. Emits the events `Undelegated`."
      },
      "claimRewards(address[])": {
        "details": "Claims the reward of method caller. Emits the `RewardClaimed` event."
      },
      "cooldownSecsToUndelegate()": {
        "details": "Returns The cooldown time in seconds to undelegate from the last timestamp (s)he delegated."
      },
      "delegate(address)": {
        "details": "Stakes for a validator candidate `_consensusAddr`. Requirements: - The consensus address is a validator candidate. - The method caller is not the pool admin. Emits the `Delegated` event."
      },
      "delegateRewards(address[],address)": {
        "details": "Claims the rewards and delegates them to the consensus address. Requirements: - The method caller is not the pool admin. - The consensus address `_consensusAddrDst` is a validator candidate. Emits the `RewardClaimed` event and the `Delegated` event."
      },
      "execChangeAdminAddress(address,address,address)": {
        "details": "Requirements: - Only Profile contract can call this method."
      },
      "execDeductStakingAmount(address,uint256)": {
        "details": "Deducts from staking amount of the validator `_consensusAddr` for `_amount`. Requirements: - The method caller must be validator contract. Emits the event `Unstaked`."
      },
      "execDeprecatePools(address[],uint256)": {
        "details": "Deprecates the pool. - Deduct self-staking amount of the pool admin to zero. - Transfer the deducted amount to the pool admin. - Deactivate the pool admin address in the mapping of active pool admins Requirements: - The method caller is validator contract. Emits the event `PoolsDeprecated` and `Unstaked` events. Emits the event `StakingAmountTransferFailed` if the contract cannot transfer RON back to the pool admin."
      },
      "execRecordRewards(address[],uint256[],uint256)": {
        "details": "Records the amount of rewards `_rewards` for the pools `_consensusAddrs`. Requirements: - The method caller must be validator contract. Emits the event `PoolsUpdated` once the contract recorded the rewards successfully. Emits the event `PoolsUpdateFailed` once the input array lengths are not equal. Emits the event `PoolsUpdateConflicted` when there are some pools which already updated in the period. Note: This method should be called once at the period ending."
      },
      "getCommissionRateRange()": {
        "details": "Returns the commission rate range that the candidate can set."
      },
      "getContract(uint8)": {
        "details": "Returns the address of a contract with a specific role. Throws an error if no contract is set for the specified role.",
        "params": {
          "contractType": "The role of the contract to retrieve."
        },
        "returns": {
          "contract_": "The address of the contract with the specified role."
        }
      },
      "getManySelfStakings(address[])": {
        "details": "Returns the self-staking amounts of the pools."
      },
      "getManySelfStakingsById(address[])": {
        "details": "Returns the self-staking amounts of the pools."
      },
      "getManyStakingAmounts(address[],address[])": {
        "details": "Returns the staking amounts of the users."
      },
      "getManyStakingTotals(address[])": {
        "details": "Returns the total staking amounts of all users for the pools corresponding to `consensusAddrs`."
      },
      "getManyStakingTotalsById(address[])": {
        "details": "Returns the total staking amounts of all users for the pools `poolIds`."
      },
      "getPoolAddressOf(address)": {
        "details": "Returns the consensus address corresponding to the pool admin."
      },
      "getPoolDetail(address)": {
        "details": "Returns the staking pool details."
      },
      "getReward(address,address)": {
        "details": "Returns the reward amount that user claimable."
      },
      "getRewards(address,address[])": {
        "details": "Returns the claimable reward of the user `_user`."
      },
      "getRoleAdmin(bytes32)": {
        "details": "Returns the admin role that controls `role`. See {grantRole} and {revokeRole}. To change a role's admin, use {_setRoleAdmin}."
      },
      "getRoleMember(bytes32,uint256)": {
        "details": "Returns one of the accounts that have `role`. `index` must be a value between 0 and {getRoleMemberCount}, non-inclusive. Role bearers are not sorted in any particular way, and their ordering may change at any point. WARNING: When using {getRoleMember} and {getRoleMemberCount}, make sure you perform all queries on the same block. See the following https://forum.openzeppelin.com/t/iterating-over-elements-on-enumerableset-in-openzeppelin-contracts/2296[forum post] for more information."
      },
      "getRoleMemberCount(bytes32)": {
        "details": "Returns the number of accounts that have `role`. Can be used together with {getRoleMember} to enumerate all bearers of a role."
      },
      "getStakingAmount(address,address)": {
        "details": "Returns the staking amount of an user."
      },
      "getStakingTotal(address)": {
        "details": "Returns the total staking amount of all users for a pool."
      },
      "grantRole(bytes32,address)": {
        "details": "Grants `role` to `account`. If `account` had not been already granted `role`, emits a {RoleGranted} event. Requirements: - the caller must have ``role``'s admin role. May emit a {RoleGranted} event."
      },
      "hasRole(bytes32,address)": {
        "details": "Returns `true` if `account` has been granted `role`."
      },
      "initialize(address,uint256,uint256,uint256,uint256)": {
        "details": "Initializes the contract storage."
      },
      "initializeV2()": {
        "details": "Initializes the contract storage V2."
      },
      "initializeV3(address)": {
        "details": "Initializes the contract storage V3."
      },
      "isAdminOfActivePool(address)": {
        "details": "Returns whether the `admin` is currently active."
      },
      "migrateWasAdmin(address[],address[],bool[])": {
        "details": "Migrate REP-4"
      },
      "minValidatorStakingAmount()": {
        "details": "Returns the minimum threshold for being a validator candidate."
      },
      "redelegate(address,address,uint256)": {
        "details": "Unstakes an amount of RON from the `_consensusAddrSrc` and stake for `_consensusAddrDst`. Requirements: - The method caller is not the pool admin. - The consensus address `_consensusAddrDst` is a validator candidate. Emits the `Undelegated` event and the `Delegated` event."
      },
      "renounceRole(bytes32,address)": {
        "details": "Revokes `role` from the calling account. Roles are often managed via {grantRole} and {revokeRole}: this function's purpose is to provide a mechanism for accounts to lose their privileges if they are compromised (such as when a trusted device is misplaced). If the calling account had been revoked `role`, emits a {RoleRevoked} event. Requirements: - the caller must be `account`. May emit a {RoleRevoked} event."
      },
      "requestEmergencyExit(address)": {
        "details": "Renounces being a validator candidate and takes back the delegating/staking amount. Requirements: - The consensus address is a validator candidate. - The method caller is the pool admin."
      },
      "requestRenounce(address)": {
        "details": "Renounces being a validator candidate and takes back the delegating/staking amount. Requirements: - The consensus address is a validator candidate. - The method caller is the pool admin."
      },
      "requestUpdateCommissionRate(address,uint256,uint256)": {
        "details": "Pool admin requests update validator commission rate. The request will be forwarded to the candidate manager contract, and the value is getting updated in {ICandidateManager-execRequestUpdateCommissionRate}. Requirements: - The consensus address is a validator candidate. - The method caller is the pool admin. - The `_effectiveDaysOnwards` must be equal to or larger than the {CandidateManager-_minEffectiveDaysOnwards}. - The `_rate` must be in range of [0_00; 100_00]. Emits the event `CommissionRateUpdated`."
      },
      "revokeRole(bytes32,address)": {
        "details": "Revokes `role` from `account`. If `account` had been granted `role`, emits a {RoleRevoked} event. Requirements: - the caller must have ``role``'s admin role. May emit a {RoleRevoked} event."
      },
      "setCommissionRateRange(uint256,uint256)": {
        "details": "Sets the commission rate range that a candidate can set. Requirements: - The method caller is admin. Emits the `CommissionRateRangeUpdated` event."
      },
      "setContract(uint8,address)": {
        "details": "Sets the address of a contract with a specific role. Emits the event {ContractUpdated}.",
        "params": {
          "addr": "The address of the contract to set.",
          "contractType": "The role of the contract to set."
        }
      },
      "setCooldownSecsToUndelegate(uint256)": {
        "details": "Sets the cooldown time in seconds to undelegate from the last timestamp (s)he delegated. Requirements: - The method caller is admin. Emits the event `CooldownSecsToUndelegateUpdated`."
      },
      "setMinValidatorStakingAmount(uint256)": {
        "details": "Sets the minimum threshold for being a validator candidate. Requirements: - The method caller is admin. Emits the `MinValidatorStakingAmountUpdated` event."
      },
      "setWaitingSecsToRevoke(uint256)": {
        "details": "Sets the number of seconds that a candidate must wait to be revoked. Requirements: - The method caller is admin. Emits the event `WaitingSecsToRevokeUpdated`."
      },
      "stake(address)": {
        "details": "Self-delegates to the validator candidate `consensusAddr`. Requirements: - The consensus address is a validator candidate. - The method caller is the pool admin. - The `msg.value` is larger than 0. Emits the event `Staked`."
      },
      "supportsInterface(bytes4)": {
        "details": "See {IERC165-supportsInterface}."
      },
      "undelegate(address,uint256)": {
        "details": "Unstakes from a validator candidate `_consensusAddr` for `_amount`. Requirements: - The method caller is not the pool admin. Emits the `Undelegated` event."
      },
      "unstake(address,uint256)": {
        "details": "Unstakes from the validator candidate `consensusAddr` for `amount`. Requirements: - The consensus address is a validator candidate. - The method caller is the pool admin. Emits the event `Unstaked`."
      },
      "waitingSecsToRevoke()": {
        "details": "Returns the number of seconds that a candidate must wait for the renounce request gets affected."
      }
    },
    "events": {
      "CommissionRateRangeUpdated(uint256,uint256)": {
        "details": "Emitted when the commission rate range is updated."
      },
      "ContractUpdated(uint8,address)": {
        "details": "Emitted when a contract is updated."
      },
      "CooldownSecsToUndelegateUpdated(uint256)": {
        "details": "Emitted when the minium number of seconds to undelegate is updated."
      },
      "Delegated(address,address,uint256)": {
        "details": "Emitted when the delegator staked for a validator candidate."
      },
      "Initialized(uint8)": {
        "details": "Triggered when the contract has been initialized or reinitialized."
      },
      "MigrateWasAdminFinished()": {
        "details": "Event emitted when the `wasAdmin` is finished to migrate."
      },
      "MinValidatorStakingAmountUpdated(uint256)": {
        "details": "Emitted when the minimum staking amount for being a validator is updated."
      },
      "PoolApproved(address,address)": {
        "details": "Emitted when the validator pool is approved."
      },
      "PoolSharesUpdated(uint256,address,uint256)": {
        "details": "Emitted when the pool shares are updated"
      },
      "PoolsDeprecated(address[])": {
        "details": "Emitted when the validator pool is deprecated."
      },
      "PoolsUpdateConflicted(uint256,address[])": {
        "details": "Emitted when the contract fails when updating the pools that already set"
      },
      "PoolsUpdateFailed(uint256,address[],uint256[])": {
        "details": "Emitted when the contract fails when updating the pools"
      },
      "PoolsUpdated(uint256,address[],uint256[],uint256[])": {
        "details": "Emitted when the pools are updated"
      },
      "RewardClaimed(address,address,uint256)": {
        "details": "Emitted when the user claimed their reward"
      },
      "RoleAdminChanged(bytes32,bytes32,bytes32)": {
        "details": "Emitted when `newAdminRole` is set as ``role``'s admin role, replacing `previousAdminRole` `DEFAULT_ADMIN_ROLE` is the starting admin for all roles, despite {RoleAdminChanged} not being emitted signaling this. _Available since v3.1._"
      },
      "RoleGranted(bytes32,address,address)": {
        "details": "Emitted when `account` is granted `role`. `sender` is the account that originated the contract call, an admin role bearer except when using {AccessControl-_setupRole}."
      },
      "RoleRevoked(bytes32,address,address)": {
        "details": "Emitted when `account` is revoked `role`. `sender` is the account that originated the contract call:   - if using `revokeRole`, it is the admin role bearer   - if using `renounceRole`, it is the role bearer (i.e. `account`)"
      },
      "Staked(address,uint256)": {
        "details": "Emitted when the pool admin staked for themself."
      },
      "StakeholderChanged(address,address,address,uint256)": {
        "details": "Emitted when the holder of the staking amount in the `poolId` is changed."
      },
      "StakingAmountDeductFailed(address,address,uint256,uint256)": {
        "details": "Emitted when the staking amount deducted failed, e.g. when the validator gets slashed."
      },
      "StakingAmountTransferFailed(address,address,uint256,uint256)": {
        "details": "Emitted when the staking amount transfer failed."
      },
      "Undelegated(address,address,uint256)": {
        "details": "Emitted when the delegator unstaked from a validator candidate."
      },
      "Unstaked(address,uint256)": {
        "details": "Emitted when the pool admin unstaked the amount of RON from themself."
      },
      "UserRewardUpdated(address,address,uint256)": {
        "details": "Emitted when the fields to calculate pending reward for the user is updated."
      },
      "WaitingSecsToRevokeUpdated(uint256)": {
        "details": "Emitted when the number of seconds that a candidate must wait to be revoked."
      }
    },
    "errors": {
      "ErrAdminOfAnyActivePoolForbidden(address)": [
        {
          "details": "Error of admin of any active pool cannot delegate."
        }
      ],
      "ErrCannotInitTransferRON(address,string)": [
        {
          "details": "Error of cannot transfer RON to specified target."
        }
      ],
      "ErrCannotTransferRON()": [
        {
          "details": "Error of cannot transfer RON."
        }
      ],
      "ErrContractTypeNotFound(uint8)": [
        {
          "details": "Error of invalid role."
        }
      ],
      "ErrDuplicated(bytes4)": [
        {
          "details": "Error thrown when a duplicated element is detected in an array.",
          "params": {
            "msgSig": "The function signature that invoke the error."
          }
        }
      ],
      "ErrInactivePool(address,address)": [
        {
          "details": "Error of querying inactive pool."
        }
      ],
      "ErrInsufficientBalance(bytes4,uint256,uint256)": [
        {
          "details": "Error of sender has insufficient balance."
        }
      ],
      "ErrInsufficientDelegatingAmount()": [
        {
          "details": "Error of undelegating insufficient amount."
        }
      ],
      "ErrInsufficientStakingAmount()": [
        {
          "details": "Error of insufficient staking amount for unstaking."
        }
      ],
      "ErrInvalidArguments(bytes4)": [
        {
          "details": "Error indicating that arguments are invalid."
        }
      ],
      "ErrInvalidArrays()": [
        {
          "details": "Error of length of input arrays are not of the same."
        }
      ],
      "ErrInvalidCommissionRate()": [
        {
          "details": "Error of setting commission rate exceeds max allowed."
        }
      ],
      "ErrInvalidPoolShare()": [
        {
          "details": "Error of invalid pool share."
        }
      ],
      "ErrOnlyPoolAdminAllowed()": [
        {
          "details": "Error of no one is allowed to call but the pool's admin."
        }
      ],
      "ErrPoolAdminForbidden()": [
        {
          "details": "Error of pool admin is not allowed to call."
        }
      ],
      "ErrRecipientRevert(bytes4)": [
        {
          "details": "Error of recipient not accepting RON when transfer RON."
        }
      ],
      "ErrStakingAmountLeft()": [
        {
          "details": "Error of invalid staking amount left after deducted."
        }
      ],
      "ErrThreeInteractionAddrsNotEqual()": [
        {
          "details": "Error of three interaction addresses must be of the same in applying for validator candidate."
        }
      ],
      "ErrUnauthorized(bytes4,uint8)": [
        {
          "details": "Error indicating that the caller is unauthorized to perform a specific function.",
          "params": {
            "expectedRole": "The role required to perform the function.",
            "msgSig": "The function signature (bytes4) that the caller is unauthorized to perform."
          }
        }
      ],
      "ErrUndelegateTooEarly()": [
        {
          "details": "Error of undelegating too early."
        }
      ],
      "ErrUndelegateZeroAmount()": [
        {
          "details": "Error of undelegating zero amount."
        }
      ],
      "ErrUnexpectedInternalCall(bytes4,uint8,address)": [
        {
          "details": "Error indicating that the caller is unauthorized to perform a specific function.",
          "params": {
            "actual": "The actual address that called to the function.",
            "expectedContractType": "The contract type required to perform the function.",
            "msgSig": "The function signature (bytes4)."
          }
        }
      ],
      "ErrUnstakeTooEarly()": [
        {
          "details": "Error of unstaking too early."
        }
      ],
      "ErrUnstakeZeroAmount()": [
        {
          "details": "Error of unstaking zero amount."
        }
      ],
      "ErrZeroCodeContract(address)": [
        {
          "details": "Error of set to non-contract."
        }
      ],
      "ErrZeroValue()": [
        {
          "details": "Error of receiving zero message value."
        }
      ]
    }
  },
  "isFoundry": true,
  "nonce": 34,
  "numDeployments": 17,
  "storageLayout": {
    "storage": [
      {
        "astId": 147746,
        "contract": "contracts/ronin/staking/Staking.sol:Staking",
        "label": "_status",
        "offset": 0,
        "slot": "0",
        "type": "t_uint256"
      },
      {
        "astId": 29485,
        "contract": "contracts/ronin/staking/Staking.sol:Staking",
        "label": "_accumulatedRps",
        "offset": 0,
        "slot": "1",
        "type": "t_mapping(t_address,t_mapping(t_uint256,t_struct(PeriodWrapper)8199_storage))"
      },
      {
        "astId": 29493,
        "contract": "contracts/ronin/staking/Staking.sol:Staking",
        "label": "_userReward",
        "offset": 0,
        "slot": "2",
        "type": "t_mapping(t_address,t_mapping(t_address,t_struct(UserRewardFields)9049_storage))"
      },
      {
        "astId": 29499,
        "contract": "contracts/ronin/staking/Staking.sol:Staking",
        "label": "_stakingPool",
        "offset": 0,
        "slot": "3",
        "type": "t_mapping(t_address,t_struct(PoolFields)9055_storage)"
      },
      {
        "astId": 29504,
        "contract": "contracts/ronin/staking/Staking.sol:Staking",
        "label": "______gap",
        "offset": 0,
        "slot": "4",
        "type": "t_array(t_uint256)50_storage"
      },
      {
        "astId": 35680,
        "contract": "contracts/ronin/staking/Staking.sol:Staking",
        "label": "______deprecatedValidator",
        "offset": 0,
        "slot": "54",
        "type": "t_address"
      },
      {
        "astId": 27231,
        "contract": "contracts/ronin/staking/Staking.sol:Staking",
        "label": "_poolDetail",
        "offset": 0,
        "slot": "55",
        "type": "t_mapping(t_address,t_struct(PoolDetail)8602_storage)"
      },
      {
        "astId": 27234,
        "contract": "contracts/ronin/staking/Staking.sol:Staking",
        "label": "_cooldownSecsToUndelegate",
        "offset": 0,
        "slot": "56",
        "type": "t_uint256"
      },
      {
        "astId": 27237,
        "contract": "contracts/ronin/staking/Staking.sol:Staking",
        "label": "_waitingSecsToRevoke",
        "offset": 0,
        "slot": "57",
        "type": "t_uint256"
      },
      {
        "astId": 27242,
        "contract": "contracts/ronin/staking/Staking.sol:Staking",
        "label": "_adminOfActivePoolMapping",
        "offset": 0,
        "slot": "58",
        "type": "t_mapping(t_address,t_address)"
      },
      {
        "astId": 27247,
        "contract": "contracts/ronin/staking/Staking.sol:Staking",
        "label": "______gap",
        "offset": 0,
        "slot": "59",
        "type": "t_array(t_uint256)49_storage"
      },
      {
        "astId": 27988,
        "contract": "contracts/ronin/staking/Staking.sol:Staking",
        "label": "_minValidatorStakingAmount",
        "offset": 0,
        "slot": "108",
        "type": "t_uint256"
      },
      {
        "astId": 27991,
        "contract": "contracts/ronin/staking/Staking.sol:Staking",
        "label": "_maxCommissionRate",
        "offset": 0,
        "slot": "109",
        "type": "t_uint256"
      },
      {
        "astId": 27994,
        "contract": "contracts/ronin/staking/Staking.sol:Staking",
        "label": "_minCommissionRate",
        "offset": 0,
        "slot": "110",
        "type": "t_uint256"
      },
      {
        "astId": 27999,
        "contract": "contracts/ronin/staking/Staking.sol:Staking",
        "label": "______gap",
        "offset": 0,
        "slot": "111",
        "type": "t_array(t_uint256)48_storage"
      },
      {
        "astId": 28883,
        "contract": "contracts/ronin/staking/Staking.sol:Staking",
        "label": "______gap",
        "offset": 0,
        "slot": "159",
        "type": "t_array(t_uint256)50_storage"
      },
      {
        "astId": 147483,
        "contract": "contracts/ronin/staking/Staking.sol:Staking",
        "label": "_initialized",
        "offset": 0,
        "slot": "209",
        "type": "t_uint8"
      },
      {
        "astId": 147486,
        "contract": "contracts/ronin/staking/Staking.sol:Staking",
        "label": "_initializing",
        "offset": 1,
        "slot": "209",
        "type": "t_bool"
      },
      {
        "astId": 146134,
        "contract": "contracts/ronin/staking/Staking.sol:Staking",
        "label": "_roles",
        "offset": 0,
        "slot": "210",
        "type": "t_mapping(t_bytes32,t_struct(RoleData)146129_storage)"
      },
      {
        "astId": 146448,
        "contract": "contracts/ronin/staking/Staking.sol:Staking",
        "label": "_roleMembers",
        "offset": 0,
        "slot": "211",
        "type": "t_mapping(t_bytes32,t_struct(AddressSet)149308_storage)"
      }
    ],
    "types": {
      "t_address": {
        "encoding": "inplace",
        "label": "address",
        "numberOfBytes": "20"
      },
      "t_array(t_bytes32)dyn_storage": {
        "encoding": "dynamic_array",
        "label": "bytes32[]",
        "numberOfBytes": "32",
        "base": "t_bytes32"
      },
      "t_array(t_uint256)48_storage": {
        "encoding": "inplace",
        "label": "uint256[48]",
        "numberOfBytes": "1536",
        "base": "t_uint256"
      },
      "t_array(t_uint256)49_storage": {
        "encoding": "inplace",
        "label": "uint256[49]",
        "numberOfBytes": "1568",
        "base": "t_uint256"
      },
      "t_array(t_uint256)50_storage": {
        "encoding": "inplace",
        "label": "uint256[50]",
        "numberOfBytes": "1600",
        "base": "t_uint256"
      },
      "t_bool": {
        "encoding": "inplace",
        "label": "bool",
        "numberOfBytes": "1"
      },
      "t_bytes32": {
        "encoding": "inplace",
        "label": "bytes32",
        "numberOfBytes": "32"
      },
      "t_mapping(t_address,t_address)": {
        "encoding": "mapping",
        "key": "t_address",
        "label": "mapping(address => address)",
        "numberOfBytes": "32",
        "value": "t_address"
      },
      "t_mapping(t_address,t_bool)": {
        "encoding": "mapping",
        "key": "t_address",
        "label": "mapping(address => bool)",
        "numberOfBytes": "32",
        "value": "t_bool"
      },
      "t_mapping(t_address,t_mapping(t_address,t_struct(UserRewardFields)9049_storage))": {
        "encoding": "mapping",
        "key": "t_address",
        "label": "mapping(address => mapping(address => struct IRewardPool.UserRewardFields))",
        "numberOfBytes": "32",
        "value": "t_mapping(t_address,t_struct(UserRewardFields)9049_storage)"
      },
      "t_mapping(t_address,t_mapping(t_uint256,t_struct(PeriodWrapper)8199_storage))": {
        "encoding": "mapping",
        "key": "t_address",
        "label": "mapping(address => mapping(uint256 => struct PeriodWrapperConsumer.PeriodWrapper))",
        "numberOfBytes": "32",
        "value": "t_mapping(t_uint256,t_struct(PeriodWrapper)8199_storage)"
      },
      "t_mapping(t_address,t_struct(PoolDetail)8602_storage)": {
        "encoding": "mapping",
        "key": "t_address",
        "label": "mapping(address => struct IBaseStaking.PoolDetail)",
        "numberOfBytes": "32",
        "value": "t_struct(PoolDetail)8602_storage"
      },
      "t_mapping(t_address,t_struct(PoolFields)9055_storage)": {
        "encoding": "mapping",
        "key": "t_address",
        "label": "mapping(address => struct IRewardPool.PoolFields)",
        "numberOfBytes": "32",
        "value": "t_struct(PoolFields)9055_storage"
      },
      "t_mapping(t_address,t_struct(UserRewardFields)9049_storage)": {
        "encoding": "mapping",
        "key": "t_address",
        "label": "mapping(address => struct IRewardPool.UserRewardFields)",
        "numberOfBytes": "32",
        "value": "t_struct(UserRewardFields)9049_storage"
      },
      "t_mapping(t_address,t_uint256)": {
        "encoding": "mapping",
        "key": "t_address",
        "label": "mapping(address => uint256)",
        "numberOfBytes": "32",
        "value": "t_uint256"
      },
      "t_mapping(t_bytes32,t_struct(AddressSet)149308_storage)": {
        "encoding": "mapping",
        "key": "t_bytes32",
        "label": "mapping(bytes32 => struct EnumerableSet.AddressSet)",
        "numberOfBytes": "32",
        "value": "t_struct(AddressSet)149308_storage"
      },
      "t_mapping(t_bytes32,t_struct(RoleData)146129_storage)": {
        "encoding": "mapping",
        "key": "t_bytes32",
        "label": "mapping(bytes32 => struct AccessControl.RoleData)",
        "numberOfBytes": "32",
        "value": "t_struct(RoleData)146129_storage"
      },
      "t_mapping(t_bytes32,t_uint256)": {
        "encoding": "mapping",
        "key": "t_bytes32",
        "label": "mapping(bytes32 => uint256)",
        "numberOfBytes": "32",
        "value": "t_uint256"
      },
      "t_mapping(t_uint256,t_struct(PeriodWrapper)8199_storage)": {
        "encoding": "mapping",
        "key": "t_uint256",
        "label": "mapping(uint256 => struct PeriodWrapperConsumer.PeriodWrapper)",
        "numberOfBytes": "32",
        "value": "t_struct(PeriodWrapper)8199_storage"
      },
      "t_struct(AddressSet)149308_storage": {
        "encoding": "inplace",
        "label": "struct EnumerableSet.AddressSet",
        "numberOfBytes": "64",
        "members": [
          {
            "astId": 149307,
            "contract": "contracts/ronin/staking/Staking.sol:Staking",
            "label": "_inner",
            "offset": 0,
            "slot": "0",
            "type": "t_struct(Set)149007_storage"
          }
        ]
      },
      "t_struct(PeriodWrapper)8199_storage": {
        "encoding": "inplace",
        "label": "struct PeriodWrapperConsumer.PeriodWrapper",
        "numberOfBytes": "64",
        "members": [
          {
            "astId": 8196,
            "contract": "contracts/ronin/staking/Staking.sol:Staking",
            "label": "inner",
            "offset": 0,
            "slot": "0",
            "type": "t_uint256"
          },
          {
            "astId": 8198,
            "contract": "contracts/ronin/staking/Staking.sol:Staking",
            "label": "lastPeriod",
            "offset": 0,
            "slot": "1",
            "type": "t_uint256"
          }
        ]
      },
      "t_struct(PoolDetail)8602_storage": {
        "encoding": "inplace",
        "label": "struct IBaseStaking.PoolDetail",
        "numberOfBytes": "224",
        "members": [
          {
            "astId": 8577,
            "contract": "contracts/ronin/staking/Staking.sol:Staking",
            "label": "pid",
            "offset": 0,
            "slot": "0",
            "type": "t_address"
          },
          {
            "astId": 8580,
            "contract": "contracts/ronin/staking/Staking.sol:Staking",
            "label": "__shadowedPoolAdmin",
            "offset": 0,
            "slot": "1",
            "type": "t_address"
          },
          {
            "astId": 8583,
            "contract": "contracts/ronin/staking/Staking.sol:Staking",
            "label": "stakingAmount",
            "offset": 0,
            "slot": "2",
            "type": "t_uint256"
          },
          {
            "astId": 8586,
            "contract": "contracts/ronin/staking/Staking.sol:Staking",
            "label": "stakingTotal",
            "offset": 0,
            "slot": "3",
            "type": "t_uint256"
          },
          {
            "astId": 8591,
            "contract": "contracts/ronin/staking/Staking.sol:Staking",
            "label": "delegatingAmount",
            "offset": 0,
            "slot": "4",
            "type": "t_mapping(t_address,t_uint256)"
          },
          {
            "astId": 8596,
            "contract": "contracts/ronin/staking/Staking.sol:Staking",
            "label": "lastDelegatingTimestamp",
            "offset": 0,
            "slot": "5",
            "type": "t_mapping(t_address,t_uint256)"
          },
          {
            "astId": 8601,
            "contract": "contracts/ronin/staking/Staking.sol:Staking",
            "label": "wasAdmin",
            "offset": 0,
            "slot": "6",
            "type": "t_mapping(t_address,t_bool)"
          }
        ]
      },
      "t_struct(PoolFields)9055_storage": {
        "encoding": "inplace",
        "label": "struct IRewardPool.PoolFields",
        "numberOfBytes": "96",
        "members": [
          {
            "astId": 9051,
            "contract": "contracts/ronin/staking/Staking.sol:Staking",
            "label": "aRps",
            "offset": 0,
            "slot": "0",
            "type": "t_uint256"
          },
          {
            "astId": 9054,
            "contract": "contracts/ronin/staking/Staking.sol:Staking",
            "label": "shares",
            "offset": 0,
            "slot": "1",
            "type": "t_struct(PeriodWrapper)8199_storage"
          }
        ]
      },
      "t_struct(RoleData)146129_storage": {
        "encoding": "inplace",
        "label": "struct AccessControl.RoleData",
        "numberOfBytes": "64",
        "members": [
          {
            "astId": 146126,
            "contract": "contracts/ronin/staking/Staking.sol:Staking",
            "label": "members",
            "offset": 0,
            "slot": "0",
            "type": "t_mapping(t_address,t_bool)"
          },
          {
            "astId": 146128,
            "contract": "contracts/ronin/staking/Staking.sol:Staking",
            "label": "adminRole",
            "offset": 0,
            "slot": "1",
            "type": "t_bytes32"
          }
        ]
      },
      "t_struct(Set)149007_storage": {
        "encoding": "inplace",
        "label": "struct EnumerableSet.Set",
        "numberOfBytes": "64",
        "members": [
          {
            "astId": 149002,
            "contract": "contracts/ronin/staking/Staking.sol:Staking",
            "label": "_values",
            "offset": 0,
            "slot": "0",
            "type": "t_array(t_bytes32)dyn_storage"
          },
          {
            "astId": 149006,
            "contract": "contracts/ronin/staking/Staking.sol:Staking",
            "label": "_indexes",
            "offset": 0,
            "slot": "1",
            "type": "t_mapping(t_bytes32,t_uint256)"
          }
        ]
      },
      "t_struct(UserRewardFields)9049_storage": {
        "encoding": "inplace",
        "label": "struct IRewardPool.UserRewardFields",
        "numberOfBytes": "128",
        "members": [
          {
            "astId": 9042,
            "contract": "contracts/ronin/staking/Staking.sol:Staking",
            "label": "debited",
            "offset": 0,
            "slot": "0",
            "type": "t_uint256"
          },
          {
            "astId": 9044,
            "contract": "contracts/ronin/staking/Staking.sol:Staking",
            "label": "aRps",
            "offset": 0,
            "slot": "1",
            "type": "t_uint256"
          },
          {
            "astId": 9046,
            "contract": "contracts/ronin/staking/Staking.sol:Staking",
            "label": "lowestAmount",
            "offset": 0,
            "slot": "2",
            "type": "t_uint256"
          },
          {
            "astId": 9048,
            "contract": "contracts/ronin/staking/Staking.sol:Staking",
            "label": "lastPeriod",
            "offset": 0,
            "slot": "3",
            "type": "t_uint256"
          }
        ]
      },
      "t_uint256": {
        "encoding": "inplace",
        "label": "uint256",
        "numberOfBytes": "32"
      },
      "t_uint8": {
        "encoding": "inplace",
        "label": "uint8",
        "numberOfBytes": "1"
      }
    }
  },
  "timestamp": 1708420448,
  "userdoc": {
    "version": 1,
    "kind": "user"
  }
}